{
  "abi": [
    {
      "inputs": [],
      "stateMutability": "nonpayable",
      "type": "constructor"
    },
    {
      "anonymous": false,
      "inputs": [
        {
          "indexed": true,
          "internalType": "address",
          "name": "owner",
          "type": "address"
        },
        {
          "indexed": true,
          "internalType": "address",
          "name": "approved",
          "type": "address"
        },
        {
          "indexed": true,
          "internalType": "uint256",
          "name": "tokenId",
          "type": "uint256"
        }
      ],
      "name": "Approval",
      "type": "event"
    },
    {
      "anonymous": false,
      "inputs": [
        {
          "indexed": true,
          "internalType": "address",
          "name": "owner",
          "type": "address"
        },
        {
          "indexed": true,
          "internalType": "address",
          "name": "operator",
          "type": "address"
        },
        {
          "indexed": false,
          "internalType": "bool",
          "name": "approved",
          "type": "bool"
        }
      ],
      "name": "ApprovalForAll",
      "type": "event"
    },
    {
      "anonymous": false,
      "inputs": [
        {
          "indexed": true,
          "internalType": "address",
          "name": "from",
          "type": "address"
        },
        {
          "indexed": true,
          "internalType": "address",
          "name": "to",
          "type": "address"
        },
        {
          "indexed": true,
          "internalType": "uint256",
          "name": "tokenId",
          "type": "uint256"
        }
      ],
      "name": "Transfer",
      "type": "event"
    },
    {
      "inputs": [
        {
          "internalType": "address",
          "name": "to",
          "type": "address"
        },
        {
          "internalType": "uint256",
          "name": "tokenId",
          "type": "uint256"
        }
      ],
      "name": "approve",
      "outputs": [],
      "stateMutability": "nonpayable",
      "type": "function"
    },
    {
      "inputs": [
        {
          "internalType": "address",
          "name": "owner",
          "type": "address"
        }
      ],
      "name": "balanceOf",
      "outputs": [
        {
          "internalType": "uint256",
          "name": "",
          "type": "uint256"
        }
      ],
      "stateMutability": "view",
      "type": "function"
    },
    {
      "inputs": [
        {
          "internalType": "uint256",
          "name": "tokenId",
          "type": "uint256"
        }
      ],
      "name": "getApproved",
      "outputs": [
        {
          "internalType": "address",
          "name": "",
          "type": "address"
        }
      ],
      "stateMutability": "view",
      "type": "function"
    },
    {
      "inputs": [
        {
          "internalType": "address",
          "name": "owner",
          "type": "address"
        },
        {
          "internalType": "address",
          "name": "operator",
          "type": "address"
        }
      ],
      "name": "isApprovedForAll",
      "outputs": [
        {
          "internalType": "bool",
          "name": "",
          "type": "bool"
        }
      ],
      "stateMutability": "view",
      "type": "function"
    },
    {
      "inputs": [
        {
          "internalType": "address",
          "name": "to",
          "type": "address"
        }
      ],
      "name": "mint",
      "outputs": [],
      "stateMutability": "nonpayable",
      "type": "function"
    },
    {
      "inputs": [],
      "name": "name",
      "outputs": [
        {
          "internalType": "string",
          "name": "",
          "type": "string"
        }
      ],
      "stateMutability": "view",
      "type": "function"
    },
    {
      "inputs": [
        {
          "internalType": "uint256",
          "name": "tokenId",
          "type": "uint256"
        }
      ],
      "name": "ownerOf",
      "outputs": [
        {
          "internalType": "address",
          "name": "",
          "type": "address"
        }
      ],
      "stateMutability": "view",
      "type": "function"
    },
    {
      "inputs": [
        {
          "internalType": "address",
          "name": "from",
          "type": "address"
        },
        {
          "internalType": "address",
          "name": "to",
          "type": "address"
        },
        {
          "internalType": "uint256",
          "name": "tokenId",
          "type": "uint256"
        }
      ],
      "name": "safeTransferFrom",
      "outputs": [],
      "stateMutability": "nonpayable",
      "type": "function"
    },
    {
      "inputs": [
        {
          "internalType": "address",
          "name": "from",
          "type": "address"
        },
        {
          "internalType": "address",
          "name": "to",
          "type": "address"
        },
        {
          "internalType": "uint256",
          "name": "tokenId",
          "type": "uint256"
        },
        {
          "internalType": "bytes",
          "name": "data",
          "type": "bytes"
        }
      ],
      "name": "safeTransferFrom",
      "outputs": [],
      "stateMutability": "nonpayable",
      "type": "function"
    },
    {
      "inputs": [
        {
          "internalType": "address",
          "name": "operator",
          "type": "address"
        },
        {
          "internalType": "bool",
          "name": "approved",
          "type": "bool"
        }
      ],
      "name": "setApprovalForAll",
      "outputs": [],
      "stateMutability": "nonpayable",
      "type": "function"
    },
    {
      "inputs": [
        {
          "internalType": "bytes4",
          "name": "interfaceId",
          "type": "bytes4"
        }
      ],
      "name": "supportsInterface",
      "outputs": [
        {
          "internalType": "bool",
          "name": "",
          "type": "bool"
        }
      ],
      "stateMutability": "view",
      "type": "function"
    },
    {
      "inputs": [],
      "name": "symbol",
      "outputs": [
        {
          "internalType": "string",
          "name": "",
          "type": "string"
        }
      ],
      "stateMutability": "view",
      "type": "function"
    },
    {
      "inputs": [
        {
          "internalType": "uint256",
          "name": "index",
          "type": "uint256"
        }
      ],
      "name": "tokenByIndex",
      "outputs": [
        {
          "internalType": "uint256",
          "name": "",
          "type": "uint256"
        }
      ],
      "stateMutability": "view",
      "type": "function"
    },
    {
      "inputs": [
        {
          "internalType": "address",
          "name": "owner",
          "type": "address"
        },
        {
          "internalType": "uint256",
          "name": "index",
          "type": "uint256"
        }
      ],
      "name": "tokenOfOwnerByIndex",
      "outputs": [
        {
          "internalType": "uint256",
          "name": "",
          "type": "uint256"
        }
      ],
      "stateMutability": "view",
      "type": "function"
    },
    {
      "inputs": [
        {
          "internalType": "uint256",
          "name": "tokenId",
          "type": "uint256"
        }
      ],
      "name": "tokenURI",
      "outputs": [
        {
          "internalType": "string",
          "name": "",
          "type": "string"
        }
      ],
      "stateMutability": "view",
      "type": "function"
    },
    {
      "inputs": [],
      "name": "totalSupply",
      "outputs": [
        {
          "internalType": "uint256",
          "name": "",
          "type": "uint256"
        }
      ],
      "stateMutability": "view",
      "type": "function"
    },
    {
      "inputs": [
        {
          "internalType": "address",
          "name": "from",
          "type": "address"
        },
        {
          "internalType": "address",
          "name": "to",
          "type": "address"
        },
        {
          "internalType": "uint256",
          "name": "tokenId",
          "type": "uint256"
        }
      ],
      "name": "transferFrom",
      "outputs": [],
      "stateMutability": "nonpayable",
      "type": "function"
    }
  ],
  "bytecode": {
    "object": "0x60806040523480156200001157600080fd5b5060408051808201825260038082526213919560ea1b60208084018281528551808701909652928552840152815191929162000050916000916200006f565b508051620000669060019060208401906200006f565b50505062000152565b8280546200007d9062000115565b90600052602060002090601f016020900481019282620000a15760008555620000ec565b82601f10620000bc57805160ff1916838001178555620000ec565b82800160010185558215620000ec579182015b82811115620000ec578251825591602001919060010190620000cf565b50620000fa929150620000fe565b5090565b5b80821115620000fa5760008155600101620000ff565b600181811c908216806200012a57607f821691505b602082108114156200014c57634e487b7160e01b600052602260045260246000fd5b50919050565b61172780620001626000396000f3fe608060405234801561001057600080fd5b506004361061010b5760003560e01c80634f6ccce7116100a257806395d89b411161007157806395d89b4114610224578063a22cb4651461022c578063b88d4fde1461023f578063c87b56dd14610252578063e985e9c51461026557600080fd5b80634f6ccce7146101d85780636352211e146101eb5780636a627842146101fe57806370a082311461021157600080fd5b806318160ddd116100de57806318160ddd1461018d57806323b872dd1461019f5780632f745c59146101b257806342842e0e146101c557600080fd5b806301ffc9a71461011057806306fdde0314610138578063081812fc1461014d578063095ea7b314610178575b600080fd5b61012361011e366004611224565b6102a1565b60405190151581526020015b60405180910390f35b6101406102cc565b60405161012f9190611299565b61016061015b3660046112ac565b61035e565b6040516001600160a01b03909116815260200161012f565b61018b6101863660046112e1565b610385565b005b6008545b60405190815260200161012f565b61018b6101ad36600461130b565b6104a0565b6101916101c03660046112e1565b6104d1565b61018b6101d336600461130b565b610567565b6101916101e63660046112ac565b610582565b6101606101f93660046112ac565b610615565b61018b61020c366004611347565b610675565b61019161021f366004611347565b61069b565b610140610721565b61018b61023a366004611362565b610730565b61018b61024d3660046113b4565b61073b565b6101406102603660046112ac565b610773565b610123610273366004611490565b6001600160a01b03918216600090815260056020908152604080832093909416825291909152205460ff1690565b60006001600160e01b0319821663780e9d6360e01b14806102c657506102c6826107e7565b92915050565b6060600080546102db906114c3565b80601f0160208091040260200160405190810160405280929190818152602001828054610307906114c3565b80156103545780601f1061032957610100808354040283529160200191610354565b820191906000526020600020905b81548152906001019060200180831161033757829003601f168201915b5050505050905090565b600061036982610837565b506000908152600460205260409020546001600160a01b031690565b600061039082610615565b9050806001600160a01b0316836001600160a01b031614156104035760405162461bcd60e51b815260206004820152602160248201527f4552433732313a20617070726f76616c20746f2063757272656e74206f776e656044820152603960f91b60648201526084015b60405180910390fd5b336001600160a01b038216148061041f575061041f8133610273565b6104915760405162461bcd60e51b815260206004820152603e60248201527f4552433732313a20617070726f76652063616c6c6572206973206e6f7420746f60448201527f6b656e206f776e6572206e6f7220617070726f76656420666f7220616c6c000060648201526084016103fa565b61049b8383610899565b505050565b6104aa3382610907565b6104c65760405162461bcd60e51b81526004016103fa906114fe565b61049b838383610986565b60006104dc8361069b565b821061053e5760405162461bcd60e51b815260206004820152602b60248201527f455243373231456e756d657261626c653a206f776e657220696e646578206f7560448201526a74206f6620626f756e647360a81b60648201526084016103fa565b506001600160a01b03919091166000908152600660209081526040808320938352929052205490565b61049b8383836040518060200160405280600081525061073b565b600061058d60085490565b82106105f05760405162461bcd60e51b815260206004820152602c60248201527f455243373231456e756d657261626c653a20676c6f62616c20696e646578206f60448201526b7574206f6620626f756e647360a01b60648201526084016103fa565b600882815481106106035761060361154c565b90600052602060002001549050919050565b6000818152600260205260408120546001600160a01b0316806102c65760405162461bcd60e51b8152602060048201526018602482015277115490cdcc8c4e881a5b9d985b1a59081d1bdad95b88125160421b60448201526064016103fa565b600061068060085490565b61068b906001611578565b90506106978282610b2d565b5050565b60006001600160a01b0382166107055760405162461bcd60e51b815260206004820152602960248201527f4552433732313a2061646472657373207a65726f206973206e6f7420612076616044820152683634b21037bbb732b960b91b60648201526084016103fa565b506001600160a01b031660009081526003602052604090205490565b6060600180546102db906114c3565b610697338383610b47565b6107453383610907565b6107615760405162461bcd60e51b81526004016103fa906114fe565b61076d84848484610c16565b50505050565b606061077e82610837565b600061079560408051602081019091526000815290565b905060008151116107b557604051806020016040528060008152506107e0565b806107bf84610c49565b6040516020016107d0929190611590565b6040516020818303038152906040525b9392505050565b60006001600160e01b031982166380ac58cd60e01b148061081857506001600160e01b03198216635b5e139f60e01b145b806102c657506301ffc9a760e01b6001600160e01b03198316146102c6565b6000818152600260205260409020546001600160a01b03166108965760405162461bcd60e51b8152602060048201526018602482015277115490cdcc8c4e881a5b9d985b1a59081d1bdad95b88125160421b60448201526064016103fa565b50565b600081815260046020526040902080546001600160a01b0319166001600160a01b03841690811790915581906108ce82610615565b6001600160a01b03167f8c5be1e5ebec7d5bd14f71427d1e84f3dd0314c0f7b2291e5b200ac8c7c3b92560405160405180910390a45050565b60008061091383610615565b9050806001600160a01b0316846001600160a01b0316148061095a57506001600160a01b0380821660009081526005602090815260408083209388168352929052205460ff165b8061097e5750836001600160a01b03166109738461035e565b6001600160a01b0316145b949350505050565b826001600160a01b031661099982610615565b6001600160a01b0316146109fd5760405162461bcd60e51b815260206004820152602560248201527f4552433732313a207472616e736665722066726f6d20696e636f72726563742060448201526437bbb732b960d91b60648201526084016103fa565b6001600160a01b038216610a5f5760405162461bcd60e51b8152602060048201526024808201527f4552433732313a207472616e7366657220746f20746865207a65726f206164646044820152637265737360e01b60648201526084016103fa565b610a6a838383610d47565b610a75600082610899565b6001600160a01b0383166000908152600360205260408120805460019290610a9e9084906115bf565b90915550506001600160a01b0382166000908152600360205260408120805460019290610acc908490611578565b909155505060008181526002602052604080822080546001600160a01b0319166001600160a01b0386811691821790925591518493918716917fddf252ad1be2c89b69c2b068fc378daa952ba7f163c4a11628f55a4df523b3ef91a4505050565b610697828260405180602001604052806000815250610dff565b816001600160a01b0316836001600160a01b03161415610ba95760405162461bcd60e51b815260206004820152601960248201527f4552433732313a20617070726f766520746f2063616c6c65720000000000000060448201526064016103fa565b6001600160a01b03838116600081815260056020908152604080832094871680845294825291829020805460ff191686151590811790915591519182527f17307eab39ab6107e8899845ad3d59bd9653f200f220920489ca2b5937696c31910160405180910390a3505050565b610c21848484610986565b610c2d84848484610e32565b61076d5760405162461bcd60e51b81526004016103fa906115d6565b606081610c6d5750506040805180820190915260018152600360fc1b602082015290565b8160005b8115610c975780610c8181611628565b9150610c909050600a83611659565b9150610c71565b60008167ffffffffffffffff811115610cb257610cb261139e565b6040519080825280601f01601f191660200182016040528015610cdc576020820181803683370190505b5090505b841561097e57610cf16001836115bf565b9150610cfe600a8661166d565b610d09906030611578565b60f81b818381518110610d1e57610d1e61154c565b60200101906001600160f81b031916908160001a905350610d40600a86611659565b9450610ce0565b6001600160a01b038316610da257610d9d81600880546000838152600960205260408120829055600182018355919091527ff3f7a9fe364faab93b216da50a3214154f22a0a2b415b23a84c8169e8b636ee30155565b610dc5565b816001600160a01b0316836001600160a01b031614610dc557610dc58382610f30565b6001600160a01b038216610ddc5761049b81610fcd565b826001600160a01b0316826001600160a01b03161461049b5761049b828261107c565b610e0983836110c0565b610e166000848484610e32565b61049b5760405162461bcd60e51b81526004016103fa906115d6565b60006001600160a01b0384163b15610f2557604051630a85bd0160e11b81526001600160a01b0385169063150b7a0290610e76903390899088908890600401611681565b6020604051808303816000875af1925050508015610eb1575060408051601f3d908101601f19168201909252610eae918101906116be565b60015b610f0b573d808015610edf576040519150601f19603f3d011682016040523d82523d6000602084013e610ee4565b606091505b508051610f035760405162461bcd60e51b81526004016103fa906115d6565b805181602001fd5b6001600160e01b031916630a85bd0160e11b14905061097e565b506001949350505050565b60006001610f3d8461069b565b610f4791906115bf565b600083815260076020526040902054909150808214610f9a576001600160a01b03841660009081526006602090815260408083208584528252808320548484528184208190558352600790915290208190555b5060009182526007602090815260408084208490556001600160a01b039094168352600681528383209183525290812055565b600854600090610fdf906001906115bf565b600083815260096020526040812054600880549394509092849081106110075761100761154c565b9060005260206000200154905080600883815481106110285761102861154c565b6000918252602080832090910192909255828152600990915260408082208490558582528120556008805480611060576110606116db565b6001900381819060005260206000200160009055905550505050565b60006110878361069b565b6001600160a01b039093166000908152600660209081526040808320868452825280832085905593825260079052919091209190915550565b6001600160a01b0382166111165760405162461bcd60e51b815260206004820181905260248201527f4552433732313a206d696e7420746f20746865207a65726f206164647265737360448201526064016103fa565b6000818152600260205260409020546001600160a01b03161561117b5760405162461bcd60e51b815260206004820152601c60248201527f4552433732313a20746f6b656e20616c7265616479206d696e7465640000000060448201526064016103fa565b61118760008383610d47565b6001600160a01b03821660009081526003602052604081208054600192906111b0908490611578565b909155505060008181526002602052604080822080546001600160a01b0319166001600160a01b03861690811790915590518392907fddf252ad1be2c89b69c2b068fc378daa952ba7f163c4a11628f55a4df523b3ef908290a45050565b6001600160e01b03198116811461089657600080fd5b60006020828403121561123657600080fd5b81356107e08161120e565b60005b8381101561125c578181015183820152602001611244565b8381111561076d5750506000910152565b60008151808452611285816020860160208601611241565b601f01601f19169290920160200192915050565b6020815260006107e0602083018461126d565b6000602082840312156112be57600080fd5b5035919050565b80356001600160a01b03811681146112dc57600080fd5b919050565b600080604083850312156112f457600080fd5b6112fd836112c5565b946020939093013593505050565b60008060006060848603121561132057600080fd5b611329846112c5565b9250611337602085016112c5565b9150604084013590509250925092565b60006020828403121561135957600080fd5b6107e0826112c5565b6000806040838503121561137557600080fd5b61137e836112c5565b91506020830135801515811461139357600080fd5b809150509250929050565b634e487b7160e01b600052604160045260246000fd5b600080600080608085870312156113ca57600080fd5b6113d3856112c5565b93506113e1602086016112c5565b925060408501359150606085013567ffffffffffffffff8082111561140557600080fd5b818701915087601f83011261141957600080fd5b81358181111561142b5761142b61139e565b604051601f8201601f19908116603f011681019083821181831017156114535761145361139e565b816040528281528a602084870101111561146c57600080fd5b82602086016020830137600060208483010152809550505050505092959194509250565b600080604083850312156114a357600080fd5b6114ac836112c5565b91506114ba602084016112c5565b90509250929050565b600181811c908216806114d757607f821691505b602082108114156114f857634e487b7160e01b600052602260045260246000fd5b50919050565b6020808252602e908201527f4552433732313a2063616c6c6572206973206e6f7420746f6b656e206f776e6560408201526d1c881b9bdc88185c1c1c9bdd995960921b606082015260800190565b634e487b7160e01b600052603260045260246000fd5b634e487b7160e01b600052601160045260246000fd5b6000821982111561158b5761158b611562565b500190565b600083516115a2818460208801611241565b8351908301906115b6818360208801611241565b01949350505050565b6000828210156115d1576115d1611562565b500390565b60208082526032908201527f4552433732313a207472616e7366657220746f206e6f6e20455243373231526560408201527131b2b4bb32b91034b6b83632b6b2b73a32b960711b606082015260800190565b600060001982141561163c5761163c611562565b5060010190565b634e487b7160e01b600052601260045260246000fd5b60008261166857611668611643565b500490565b60008261167c5761167c611643565b500690565b6001600160a01b03858116825284166020820152604081018390526080606082018190526000906116b49083018461126d565b9695505050505050565b6000602082840312156116d057600080fd5b81516107e08161120e565b634e487b7160e01b600052603160045260246000fdfea264697066735822122032d45675f6f28fea2a6b93cd995ff1cb508604a6251c1f997d6c67be714b3d9964736f6c634300080a0033",
    "linkReferences": {}
  },
  "methodIdentifiers": {
    "approve(address,uint256)": "095ea7b3",
    "balanceOf(address)": "70a08231",
    "getApproved(uint256)": "081812fc",
    "isApprovedForAll(address,address)": "e985e9c5",
    "mint(address)": "6a627842",
    "name()": "06fdde03",
    "ownerOf(uint256)": "6352211e",
    "safeTransferFrom(address,address,uint256)": "42842e0e",
    "safeTransferFrom(address,address,uint256,bytes)": "b88d4fde",
    "setApprovalForAll(address,bool)": "a22cb465",
    "supportsInterface(bytes4)": "01ffc9a7",
    "symbol()": "95d89b41",
    "tokenByIndex(uint256)": "4f6ccce7",
    "tokenOfOwnerByIndex(address,uint256)": "2f745c59",
    "tokenURI(uint256)": "c87b56dd",
    "totalSupply()": "18160ddd",
    "transferFrom(address,address,uint256)": "23b872dd"
  },
  "id": 68
}