{
  "abi": [
    {
      "inputs": [],
      "stateMutability": "nonpayable",
      "type": "constructor"
    },
    {
      "anonymous": false,
      "inputs": [
        {
          "indexed": true,
          "internalType": "address",
          "name": "account",
          "type": "address"
        },
        {
          "indexed": true,
          "internalType": "address",
          "name": "operator",
          "type": "address"
        },
        {
          "indexed": false,
          "internalType": "bool",
          "name": "approved",
          "type": "bool"
        }
      ],
      "name": "ApprovalForAll",
      "type": "event"
    },
    {
      "anonymous": false,
      "inputs": [
        {
          "indexed": true,
          "internalType": "address",
          "name": "operator",
          "type": "address"
        },
        {
          "indexed": true,
          "internalType": "address",
          "name": "from",
          "type": "address"
        },
        {
          "indexed": true,
          "internalType": "address",
          "name": "to",
          "type": "address"
        },
        {
          "indexed": false,
          "internalType": "uint256[]",
          "name": "ids",
          "type": "uint256[]"
        },
        {
          "indexed": false,
          "internalType": "uint256[]",
          "name": "values",
          "type": "uint256[]"
        }
      ],
      "name": "TransferBatch",
      "type": "event"
    },
    {
      "anonymous": false,
      "inputs": [
        {
          "indexed": true,
          "internalType": "address",
          "name": "operator",
          "type": "address"
        },
        {
          "indexed": true,
          "internalType": "address",
          "name": "from",
          "type": "address"
        },
        {
          "indexed": true,
          "internalType": "address",
          "name": "to",
          "type": "address"
        },
        {
          "indexed": false,
          "internalType": "uint256",
          "name": "id",
          "type": "uint256"
        },
        {
          "indexed": false,
          "internalType": "uint256",
          "name": "value",
          "type": "uint256"
        }
      ],
      "name": "TransferSingle",
      "type": "event"
    },
    {
      "anonymous": false,
      "inputs": [
        {
          "indexed": false,
          "internalType": "string",
          "name": "value",
          "type": "string"
        },
        {
          "indexed": true,
          "internalType": "uint256",
          "name": "id",
          "type": "uint256"
        }
      ],
      "name": "URI",
      "type": "event"
    },
    {
      "inputs": [
        {
          "internalType": "address",
          "name": "account",
          "type": "address"
        },
        {
          "internalType": "uint256",
          "name": "id",
          "type": "uint256"
        }
      ],
      "name": "balanceOf",
      "outputs": [
        {
          "internalType": "uint256",
          "name": "",
          "type": "uint256"
        }
      ],
      "stateMutability": "view",
      "type": "function"
    },
    {
      "inputs": [
        {
          "internalType": "address[]",
          "name": "accounts",
          "type": "address[]"
        },
        {
          "internalType": "uint256[]",
          "name": "ids",
          "type": "uint256[]"
        }
      ],
      "name": "balanceOfBatch",
      "outputs": [
        {
          "internalType": "uint256[]",
          "name": "",
          "type": "uint256[]"
        }
      ],
      "stateMutability": "view",
      "type": "function"
    },
    {
      "inputs": [
        {
          "internalType": "address",
          "name": "account",
          "type": "address"
        },
        {
          "internalType": "address",
          "name": "operator",
          "type": "address"
        }
      ],
      "name": "isApprovedForAll",
      "outputs": [
        {
          "internalType": "bool",
          "name": "",
          "type": "bool"
        }
      ],
      "stateMutability": "view",
      "type": "function"
    },
    {
      "inputs": [
        {
          "internalType": "address",
          "name": "to",
          "type": "address"
        }
      ],
      "name": "mint",
      "outputs": [],
      "stateMutability": "nonpayable",
      "type": "function"
    },
    {
      "inputs": [
        {
          "internalType": "address",
          "name": "from",
          "type": "address"
        },
        {
          "internalType": "address",
          "name": "to",
          "type": "address"
        },
        {
          "internalType": "uint256[]",
          "name": "ids",
          "type": "uint256[]"
        },
        {
          "internalType": "uint256[]",
          "name": "amounts",
          "type": "uint256[]"
        },
        {
          "internalType": "bytes",
          "name": "data",
          "type": "bytes"
        }
      ],
      "name": "safeBatchTransferFrom",
      "outputs": [],
      "stateMutability": "nonpayable",
      "type": "function"
    },
    {
      "inputs": [
        {
          "internalType": "address",
          "name": "from",
          "type": "address"
        },
        {
          "internalType": "address",
          "name": "to",
          "type": "address"
        },
        {
          "internalType": "uint256",
          "name": "id",
          "type": "uint256"
        },
        {
          "internalType": "uint256",
          "name": "amount",
          "type": "uint256"
        },
        {
          "internalType": "bytes",
          "name": "data",
          "type": "bytes"
        }
      ],
      "name": "safeTransferFrom",
      "outputs": [],
      "stateMutability": "nonpayable",
      "type": "function"
    },
    {
      "inputs": [
        {
          "internalType": "address",
          "name": "operator",
          "type": "address"
        },
        {
          "internalType": "bool",
          "name": "approved",
          "type": "bool"
        }
      ],
      "name": "setApprovalForAll",
      "outputs": [],
      "stateMutability": "nonpayable",
      "type": "function"
    },
    {
      "inputs": [
        {
          "internalType": "bytes4",
          "name": "interfaceId",
          "type": "bytes4"
        }
      ],
      "name": "supportsInterface",
      "outputs": [
        {
          "internalType": "bool",
          "name": "",
          "type": "bool"
        }
      ],
      "stateMutability": "view",
      "type": "function"
    },
    {
      "inputs": [
        {
          "internalType": "uint256",
          "name": "",
          "type": "uint256"
        }
      ],
      "name": "uri",
      "outputs": [
        {
          "internalType": "string",
          "name": "",
          "type": "string"
        }
      ],
      "stateMutability": "view",
      "type": "function"
    }
  ],
  "bytecode": {
    "object": "0x60806040523480156200001157600080fd5b5060408051808201909152601081526f0d0e8e8e0e6745e5ed2e0cce6f0f0f0f60831b602082015262000044816200004b565b5062000147565b80516200006090600290602084019062000064565b5050565b82805462000072906200010a565b90600052602060002090601f016020900481019282620000965760008555620000e1565b82601f10620000b157805160ff1916838001178555620000e1565b82800160010185558215620000e1579182015b82811115620000e1578251825591602001919060010190620000c4565b50620000ef929150620000f3565b5090565b5b80821115620000ef5760008155600101620000f4565b600181811c908216806200011f57607f821691505b602082108114156200014157634e487b7160e01b600052602260045260246000fd5b50919050565b6114ee80620001576000396000f3fe608060405234801561001057600080fd5b50600436106100925760003560e01c80634e1273f4116100665780634e1273f4146101155780636a62784214610135578063a22cb46514610148578063e985e9c51461015b578063f242432a1461019757600080fd5b8062fdd58e1461009757806301ffc9a7146100bd5780630e89341c146100e05780632eb2c2d614610100575b600080fd5b6100aa6100a5366004610c86565b6101aa565b6040519081526020015b60405180910390f35b6100d06100cb366004610cc9565b610240565b60405190151581526020016100b4565b6100f36100ee366004610ced565b610292565b6040516100b49190610d53565b61011361010e366004610eb2565b610326565b005b610128610123366004610f5c565b610372565b6040516100b49190611062565b610113610143366004611075565b61049c565b610113610156366004611090565b6104bc565b6100d06101693660046110cc565b6001600160a01b03918216600090815260016020908152604080832093909416825291909152205460ff1690565b6101136101a53660046110ff565b6104c7565b60006001600160a01b03831661021a5760405162461bcd60e51b815260206004820152602a60248201527f455243313135353a2061646472657373207a65726f206973206e6f742061207660448201526930b634b21037bbb732b960b11b60648201526084015b60405180910390fd5b506000908152602081815260408083206001600160a01b03949094168352929052205490565b60006001600160e01b03198216636cdb3d1360e11b148061027157506001600160e01b031982166303a24d0760e21b145b8061028c57506301ffc9a760e01b6001600160e01b03198316145b92915050565b6060600280546102a190611164565b80601f01602080910402602001604051908101604052809291908181526020018280546102cd90611164565b801561031a5780601f106102ef5761010080835404028352916020019161031a565b820191906000526020600020905b8154815290600101906020018083116102fd57829003601f168201915b50505050509050919050565b6001600160a01b03851633148061034257506103428533610169565b61035e5760405162461bcd60e51b81526004016102119061119f565b61036b858585858561050c565b5050505050565b606081518351146103d75760405162461bcd60e51b815260206004820152602960248201527f455243313135353a206163636f756e747320616e6420696473206c656e677468604482015268040dad2e6dac2e8c6d60bb1b6064820152608401610211565b6000835167ffffffffffffffff8111156103f3576103f3610d66565b60405190808252806020026020018201604052801561041c578160200160208202803683370190505b50905060005b845181101561049457610467858281518110610440576104406111ee565b602002602001015185838151811061045a5761045a6111ee565b60200260200101516101aa565b828281518110610479576104796111ee565b602090810291909101015261048d8161121a565b9050610422565b509392505050565b6040805160008152602081019091526104b882600180846106e9565b5050565b6104b83383836107fd565b6001600160a01b0385163314806104e357506104e38533610169565b6104ff5760405162461bcd60e51b81526004016102119061119f565b61036b85858585856108de565b815183511461056e5760405162461bcd60e51b815260206004820152602860248201527f455243313135353a2069647320616e6420616d6f756e7473206c656e677468206044820152670dad2e6dac2e8c6d60c31b6064820152608401610211565b6001600160a01b0384166105945760405162461bcd60e51b815260040161021190611235565b3360005b845181101561067b5760008582815181106105b5576105b56111ee565b6020026020010151905060008583815181106105d3576105d36111ee565b602090810291909101810151600084815280835260408082206001600160a01b038e1683529093529190912054909150818110156106235760405162461bcd60e51b81526004016102119061127a565b6000838152602081815260408083206001600160a01b038e8116855292528083208585039055908b168252812080548492906106609084906112c4565b92505081905550505050806106749061121a565b9050610598565b50846001600160a01b0316866001600160a01b0316826001600160a01b03167f4a39dc06d4c0dbc64b70af90fd698a233a518aa5d07e595d983b8c0526c8f7fb87876040516106cb9291906112dc565b60405180910390a46106e1818787878787610a08565b505050505050565b6001600160a01b0384166107495760405162461bcd60e51b815260206004820152602160248201527f455243313135353a206d696e7420746f20746865207a65726f206164647265736044820152607360f81b6064820152608401610211565b33600061075585610b64565b9050600061076285610b64565b90506000868152602081815260408083206001600160a01b038b168452909152812080548792906107949084906112c4565b909155505060408051878152602081018790526001600160a01b03808a1692600092918716917fc3d58168c5ae7397731d063d5bbf3d657854427343f4c083240f7aacaa2d0f62910160405180910390a46107f483600089898989610baf565b50505050505050565b816001600160a01b0316836001600160a01b031614156108715760405162461bcd60e51b815260206004820152602960248201527f455243313135353a2073657474696e6720617070726f76616c20737461747573604482015268103337b91039b2b63360b91b6064820152608401610211565b6001600160a01b03838116600081815260016020908152604080832094871680845294825291829020805460ff191686151590811790915591519182527f17307eab39ab6107e8899845ad3d59bd9653f200f220920489ca2b5937696c31910160405180910390a3505050565b6001600160a01b0384166109045760405162461bcd60e51b815260040161021190611235565b33600061091085610b64565b9050600061091d85610b64565b90506000868152602081815260408083206001600160a01b038c168452909152902054858110156109605760405162461bcd60e51b81526004016102119061127a565b6000878152602081815260408083206001600160a01b038d8116855292528083208985039055908a1682528120805488929061099d9084906112c4565b909155505060408051888152602081018890526001600160a01b03808b16928c821692918816917fc3d58168c5ae7397731d063d5bbf3d657854427343f4c083240f7aacaa2d0f62910160405180910390a46109fd848a8a8a8a8a610baf565b505050505050505050565b6001600160a01b0384163b156106e15760405163bc197c8160e01b81526001600160a01b0385169063bc197c8190610a4c908990899088908890889060040161130a565b6020604051808303816000875af1925050508015610a87575060408051601f3d908101601f19168201909252610a8491810190611368565b60015b610b3457610a93611385565b806308c379a01415610acd5750610aa86113a1565b80610ab35750610acf565b8060405162461bcd60e51b81526004016102119190610d53565b505b60405162461bcd60e51b815260206004820152603460248201527f455243313135353a207472616e7366657220746f206e6f6e20455243313135356044820152732932b1b2b4bb32b91034b6b83632b6b2b73a32b960611b6064820152608401610211565b6001600160e01b0319811663bc197c8160e01b146107f45760405162461bcd60e51b81526004016102119061142b565b60408051600180825281830190925260609160009190602080830190803683370190505090508281600081518110610b9e57610b9e6111ee565b602090810291909101015292915050565b6001600160a01b0384163b156106e15760405163f23a6e6160e01b81526001600160a01b0385169063f23a6e6190610bf39089908990889088908890600401611473565b6020604051808303816000875af1925050508015610c2e575060408051601f3d908101601f19168201909252610c2b91810190611368565b60015b610c3a57610a93611385565b6001600160e01b0319811663f23a6e6160e01b146107f45760405162461bcd60e51b81526004016102119061142b565b80356001600160a01b0381168114610c8157600080fd5b919050565b60008060408385031215610c9957600080fd5b610ca283610c6a565b946020939093013593505050565b6001600160e01b031981168114610cc657600080fd5b50565b600060208284031215610cdb57600080fd5b8135610ce681610cb0565b9392505050565b600060208284031215610cff57600080fd5b5035919050565b6000815180845260005b81811015610d2c57602081850181015186830182015201610d10565b81811115610d3e576000602083870101525b50601f01601f19169290920160200192915050565b602081526000610ce66020830184610d06565b634e487b7160e01b600052604160045260246000fd5b601f8201601f1916810167ffffffffffffffff81118282101715610da257610da2610d66565b6040525050565b600067ffffffffffffffff821115610dc357610dc3610d66565b5060051b60200190565b600082601f830112610dde57600080fd5b81356020610deb82610da9565b604051610df88282610d7c565b83815260059390931b8501820192828101915086841115610e1857600080fd5b8286015b84811015610e335780358352918301918301610e1c565b509695505050505050565b600082601f830112610e4f57600080fd5b813567ffffffffffffffff811115610e6957610e69610d66565b604051610e80601f8301601f191660200182610d7c565b818152846020838601011115610e9557600080fd5b816020850160208301376000918101602001919091529392505050565b600080600080600060a08688031215610eca57600080fd5b610ed386610c6a565b9450610ee160208701610c6a565b9350604086013567ffffffffffffffff80821115610efe57600080fd5b610f0a89838a01610dcd565b94506060880135915080821115610f2057600080fd5b610f2c89838a01610dcd565b93506080880135915080821115610f4257600080fd5b50610f4f88828901610e3e565b9150509295509295909350565b60008060408385031215610f6f57600080fd5b823567ffffffffffffffff80821115610f8757600080fd5b818501915085601f830112610f9b57600080fd5b81356020610fa882610da9565b604051610fb58282610d7c565b83815260059390931b8501820192828101915089841115610fd557600080fd5b948201945b83861015610ffa57610feb86610c6a565b82529482019490820190610fda565b9650508601359250508082111561101057600080fd5b5061101d85828601610dcd565b9150509250929050565b600081518084526020808501945080840160005b838110156110575781518752958201959082019060010161103b565b509495945050505050565b602081526000610ce66020830184611027565b60006020828403121561108757600080fd5b610ce682610c6a565b600080604083850312156110a357600080fd5b6110ac83610c6a565b9150602083013580151581146110c157600080fd5b809150509250929050565b600080604083850312156110df57600080fd5b6110e883610c6a565b91506110f660208401610c6a565b90509250929050565b600080600080600060a0868803121561111757600080fd5b61112086610c6a565b945061112e60208701610c6a565b93506040860135925060608601359150608086013567ffffffffffffffff81111561115857600080fd5b610f4f88828901610e3e565b600181811c9082168061117857607f821691505b6020821081141561119957634e487b7160e01b600052602260045260246000fd5b50919050565b6020808252602f908201527f455243313135353a2063616c6c6572206973206e6f7420746f6b656e206f776e60408201526e195c881b9bdc88185c1c1c9bdd9959608a1b606082015260800190565b634e487b7160e01b600052603260045260246000fd5b634e487b7160e01b600052601160045260246000fd5b600060001982141561122e5761122e611204565b5060010190565b60208082526025908201527f455243313135353a207472616e7366657220746f20746865207a65726f206164604082015264647265737360d81b606082015260800190565b6020808252602a908201527f455243313135353a20696e73756666696369656e742062616c616e636520666f60408201526939103a3930b739b332b960b11b606082015260800190565b600082198211156112d7576112d7611204565b500190565b6040815260006112ef6040830185611027565b82810360208401526113018185611027565b95945050505050565b6001600160a01b0386811682528516602082015260a06040820181905260009061133690830186611027565b82810360608401526113488186611027565b9050828103608084015261135c8185610d06565b98975050505050505050565b60006020828403121561137a57600080fd5b8151610ce681610cb0565b600060033d111561139e5760046000803e5060005160e01c5b90565b600060443d10156113af5790565b6040516003193d81016004833e81513d67ffffffffffffffff81602484011181841117156113df57505050505090565b82850191508151818111156113f75750505050505090565b843d87010160208285010111156114115750505050505090565b61142060208286010187610d7c565b509095945050505050565b60208082526028908201527f455243313135353a204552433131353552656365697665722072656a656374656040820152676420746f6b656e7360c01b606082015260800190565b6001600160a01b03868116825285166020820152604081018490526060810183905260a0608082018190526000906114ad90830184610d06565b97965050505050505056fea2646970667358221220e801c35d5de7ca2533241af38ee9488a8ed10c734a2f51b577d91cf74f72a8ab64736f6c634300080a0033",
    "linkReferences": {}
  },
  "methodIdentifiers": {
    "balanceOf(address,uint256)": "00fdd58e",
    "balanceOfBatch(address[],uint256[])": "4e1273f4",
    "isApprovedForAll(address,address)": "e985e9c5",
    "mint(address)": "6a627842",
    "safeBatchTransferFrom(address,address,uint256[],uint256[],bytes)": "2eb2c2d6",
    "safeTransferFrom(address,address,uint256,uint256,bytes)": "f242432a",
    "setApprovalForAll(address,bool)": "a22cb465",
    "supportsInterface(bytes4)": "01ffc9a7",
    "uri(uint256)": "0e89341c"
  },
  "id": 68
}