{
  "abi": [
    {
      "inputs": [],
      "name": "Web3Entry",
      "outputs": [
        {
          "internalType": "address",
          "name": "",
          "type": "address"
        }
      ],
      "stateMutability": "view",
      "type": "function"
    }
  ],
  "bytecode": {
    "object": "0x6080604052348015600f57600080fd5b5060918061001e6000396000f3fe6080604052348015600f57600080fd5b506004361060285760003560e01c8063c5a5ed5114602d575b600080fd5b600054603f906001600160a01b031681565b6040516001600160a01b03909116815260200160405180910390f3fea26469706673582212209761da0f498d12b2b9d8a362f12188817d2dd6a219ec2f3feaa2a373cacc616064736f6c634300080a0033",
    "linkReferences": {}
  },
  "methodIdentifiers": {
    "Web3Entry()": "c5a5ed51"
  },
  "id": 74
}