{
  "_format": "hh-sol-artifact-1",
  "contractName": "ApprovalMintModule",
  "sourceName": "contracts/modules/mint/ApprovalMintModule.sol",
  "abi": [
    {
      "inputs": [
        {
          "internalType": "address",
          "name": "web3Entry_",
          "type": "address"
        }
      ],
      "stateMutability": "nonpayable",
      "type": "constructor"
    },
    {
      "inputs": [],
      "name": "ErrCallerNotWeb3Entry",
      "type": "error"
    },
    {
      "inputs": [],
      "name": "ErrInvalidWeb3Entry",
      "type": "error"
    },
    {
      "inputs": [],
      "name": "ErrNotApprovedOrExceedApproval",
      "type": "error"
    },
    {
      "inputs": [],
      "name": "ErrNotCharacterOwner",
      "type": "error"
    },
    {
      "inputs": [
        {
          "internalType": "uint256",
          "name": "characterId",
          "type": "uint256"
        },
        {
          "internalType": "uint256",
          "name": "noteId",
          "type": "uint256"
        },
        {
          "internalType": "address",
          "name": "account",
          "type": "address"
        }
      ],
      "name": "getApprovedInfo",
      "outputs": [
        {
          "internalType": "uint256",
          "name": "approvedAmount",
          "type": "uint256"
        },
        {
          "internalType": "uint256",
          "name": "mintedAmount",
          "type": "uint256"
        }
      ],
      "stateMutability": "view",
      "type": "function"
    },
    {
      "inputs": [
        {
          "internalType": "uint256",
          "name": "characterId",
          "type": "uint256"
        },
        {
          "internalType": "uint256",
          "name": "noteId",
          "type": "uint256"
        },
        {
          "internalType": "bytes",
          "name": "data",
          "type": "bytes"
        }
      ],
      "name": "initializeMintModule",
      "outputs": [
        {
          "internalType": "bytes",
          "name": "",
          "type": "bytes"
        }
      ],
      "stateMutability": "nonpayable",
      "type": "function"
    },
    {
      "inputs": [
        {
          "internalType": "address",
          "name": "to",
          "type": "address"
        },
        {
          "internalType": "uint256",
          "name": "characterId",
          "type": "uint256"
        },
        {
          "internalType": "uint256",
          "name": "noteId",
          "type": "uint256"
        },
        {
          "internalType": "bytes",
          "name": "",
          "type": "bytes"
        }
      ],
      "name": "processMint",
      "outputs": [],
      "stateMutability": "nonpayable",
      "type": "function"
    },
    {
      "inputs": [
        {
          "internalType": "uint256",
          "name": "characterId",
          "type": "uint256"
        },
        {
          "internalType": "uint256",
          "name": "noteId",
          "type": "uint256"
        },
        {
          "internalType": "address[]",
          "name": "addresses",
          "type": "address[]"
        },
        {
          "internalType": "uint256",
          "name": "approvedAmount",
          "type": "uint256"
        }
      ],
      "name": "setApprovedAmount",
      "outputs": [],
      "stateMutability": "nonpayable",
      "type": "function"
    },
    {
      "inputs": [],
      "name": "web3Entry",
      "outputs": [
        {
          "internalType": "address",
          "name": "",
          "type": "address"
        }
      ],
      "stateMutability": "view",
      "type": "function"
    }
  ],
  "bytecode": "0x60a060405234801561001057600080fd5b5060405161091438038061091483398101604081905261002f91610069565b806001600160a01b03811661005757604051630acbf3f760e11b815260040160405180910390fd5b6001600160a01b031660805250610099565b60006020828403121561007b57600080fd5b81516001600160a01b038116811461009257600080fd5b9392505050565b60805161084c6100c86000396000818160f30152818161014d015281816101fe01526102c0015261084c6000f3fe608060405234801561001057600080fd5b50600436106100575760003560e01c806354bec78b1461005c5780637dd37a9e146100b95780637f20dc21146100d9578063e1332272146100ee578063e1a2c9361461012d575b600080fd5b61009f61006a36600461046f565b6000928352602083815260408085209385529281528284206001600160a01b0392909216845252902080546001909101549091565b604080519283526020830191909152015b60405180910390f35b6100cc6100c73660046104f1565b610140565b6040516100b09190610544565b6100ec6100e7366004610592565b6101f3565b005b6101157f000000000000000000000000000000000000000000000000000000000000000081565b6040516001600160a01b0390911681526020016100b0565b6100ec61013b3660046105fc565b6102a7565b6060336001600160a01b037f0000000000000000000000000000000000000000000000000000000000000000161461018b576040516302b6341b60e41b815260040160405180910390fd5b81156101b3576000806101a08486018661069d565b915091506101b08787848461039e565b50505b82828080601f0160208091040260200160405190810160405280939291908181526020018383808284376000920191909152509298975050505050505050565b336001600160a01b037f0000000000000000000000000000000000000000000000000000000000000000161461023c576040516302b6341b60e41b815260040160405180910390fd5b60008481526020818152604080832086845282528083206001600160a01b0389168452909152902060018101548154116102895760405163013815b160e51b815260040160405180910390fd5b806001016000815461029a90610768565b909155505b505050505050565b6040516331a9108f60e11b8152600481018690526000907f00000000000000000000000000000000000000000000000000000000000000006001600160a01b031690636352211e90602401602060405180830381865afa15801561030f573d6000803e3d6000fd5b505050506040513d601f19601f82011682018060405250810190610333919061078f565b9050336001600160a01b0382161461035e57604051631b0c476f60e11b815260040160405180910390fd5b61029f868686868080602002602001604051908101604052809392919081815260200183836020028082843760009201919091525088925061039e915050565b815160005b8181101561040557600086815260208181526040808320888452909152812085518592908790859081106103d9576103d96107b3565b6020908102919091018101516001600160a01b03168252810191909152604001600020556001016103a3565b508184867f1e10538c13505897fea8535a8c31310ec25843d51f10c5ab5e4b5e01c809b6b28660405161043891906107c9565b60405180910390a45050505050565b6001600160a01b038116811461045c57600080fd5b50565b803561046a81610447565b919050565b60008060006060848603121561048457600080fd5b8335925060208401359150604084013561049d81610447565b809150509250925092565b60008083601f8401126104ba57600080fd5b50813567ffffffffffffffff8111156104d257600080fd5b6020830191508360208285010111156104ea57600080fd5b9250929050565b6000806000806060858703121561050757600080fd5b8435935060208501359250604085013567ffffffffffffffff81111561052c57600080fd5b610538878288016104a8565b95989497509550505050565b600060208083528351808285015260005b8181101561057157858101830151858201604001528201610555565b506000604082860101526040601f19601f8301168501019250505092915050565b6000806000806000608086880312156105aa57600080fd5b85356105b581610447565b94506020860135935060408601359250606086013567ffffffffffffffff8111156105df57600080fd5b6105eb888289016104a8565b969995985093965092949392505050565b60008060008060006080868803121561061457600080fd5b8535945060208601359350604086013567ffffffffffffffff8082111561063a57600080fd5b818801915088601f83011261064e57600080fd5b81358181111561065d57600080fd5b8960208260051b850101111561067257600080fd5b96999598505060200195606001359392505050565b634e487b7160e01b600052604160045260246000fd5b600080604083850312156106b057600080fd5b823567ffffffffffffffff808211156106c857600080fd5b818501915085601f8301126106dc57600080fd5b81356020828211156106f0576106f0610687565b8160051b604051601f19603f8301168101818110868211171561071557610715610687565b60405292835281830193508481018201928984111561073357600080fd5b948201945b83861015610758576107498661045f565b85529482019493820193610738565b9997909101359750505050505050565b60006001820161078857634e487b7160e01b600052601160045260246000fd5b5060010190565b6000602082840312156107a157600080fd5b81516107ac81610447565b9392505050565b634e487b7160e01b600052603260045260246000fd5b6020808252825182820181905260009190848201906040850190845b8181101561080a5783516001600160a01b0316835292840192918401916001016107e5565b5090969550505050505056fea2646970667358221220479fda0b2ce182ed5c42aa99645a30aa09db9f422b25a8e932faf2269372341664736f6c63430008100033",
  "linkReferences": {},
  "deployedLinkReferences": {}
}