{
  "_format": "hh-sol-artifact-1",
  "contractName": "ApprovalMintModule",
  "sourceName": "contracts/modules/mint/ApprovalMintModule.sol",
  "abi": [
    {
      "inputs": [
        {
          "internalType": "address",
          "name": "web3Entry_",
          "type": "address"
        }
      ],
      "stateMutability": "nonpayable",
      "type": "constructor"
    },
    {
      "inputs": [],
      "name": "ErrCallerNotWeb3Entry",
      "type": "error"
    },
    {
      "inputs": [],
      "name": "ErrInvalidWeb3Entry",
      "type": "error"
    },
    {
      "inputs": [],
      "name": "ErrNotApproved",
      "type": "error"
    },
    {
      "inputs": [],
      "name": "ErrNotCharacterOwner",
      "type": "error"
    },
    {
      "inputs": [
        {
          "internalType": "uint256",
          "name": "characterId",
          "type": "uint256"
        },
        {
          "internalType": "uint256",
          "name": "noteId",
          "type": "uint256"
        },
        {
          "internalType": "address",
          "name": "account",
          "type": "address"
        }
      ],
      "name": "getApprovedAmount",
      "outputs": [
        {
          "internalType": "uint256",
          "name": "",
          "type": "uint256"
        }
      ],
      "stateMutability": "view",
      "type": "function"
    },
    {
      "inputs": [
        {
          "internalType": "uint256",
          "name": "characterId",
          "type": "uint256"
        },
        {
          "internalType": "uint256",
          "name": "noteId",
          "type": "uint256"
        },
        {
          "internalType": "bytes",
          "name": "data",
          "type": "bytes"
        }
      ],
      "name": "initializeMintModule",
      "outputs": [
        {
          "internalType": "bytes",
          "name": "",
          "type": "bytes"
        }
      ],
      "stateMutability": "nonpayable",
      "type": "function"
    },
    {
      "inputs": [
        {
          "internalType": "address",
          "name": "to",
          "type": "address"
        },
        {
          "internalType": "uint256",
          "name": "characterId",
          "type": "uint256"
        },
        {
          "internalType": "uint256",
          "name": "noteId",
          "type": "uint256"
        },
        {
          "internalType": "bytes",
          "name": "",
          "type": "bytes"
        }
      ],
      "name": "processMint",
      "outputs": [],
      "stateMutability": "nonpayable",
      "type": "function"
    },
    {
      "inputs": [
        {
          "internalType": "uint256",
          "name": "characterId",
          "type": "uint256"
        },
        {
          "internalType": "uint256",
          "name": "noteId",
          "type": "uint256"
        },
        {
          "internalType": "address[]",
          "name": "addresses",
          "type": "address[]"
        },
        {
          "internalType": "uint256",
          "name": "approvedAmount",
          "type": "uint256"
        }
      ],
      "name": "setApprovedAmount",
      "outputs": [],
      "stateMutability": "nonpayable",
      "type": "function"
    },
    {
      "inputs": [],
      "name": "web3Entry",
      "outputs": [
        {
          "internalType": "address",
          "name": "",
          "type": "address"
        }
      ],
      "stateMutability": "view",
      "type": "function"
    }
  ],
  "bytecode": "0x60a060405234801561001057600080fd5b5060405161092538038061092583398101604081905261002f91610069565b806001600160a01b03811661005757604051630acbf3f760e11b815260040160405180910390fd5b6001600160a01b031660805250610099565b60006020828403121561007b57600080fd5b81516001600160a01b038116811461009257600080fd5b9392505050565b60805161085d6100c86000396000818160e801528181610142015281816101f301526102d1015261085d6000f3fe608060405234801561001057600080fd5b50600436106100575760003560e01c80637dd37a9e1461005c5780637f20dc2114610085578063947526e01461009a578063e1332272146100e3578063e1a2c93614610122575b600080fd5b61006f61006a3660046104a1565b610135565b60405161007c91906104f4565b60405180910390f35b61009861009336600461056a565b6101e8565b005b6100d56100a83660046105d4565b6000928352602083815260408085209385529281528284206001600160a01b039290921684525290205490565b60405190815260200161007c565b61010a7f000000000000000000000000000000000000000000000000000000000000000081565b6040516001600160a01b03909116815260200161007c565b61009861013036600461060d565b6102b8565b6060336001600160a01b037f00000000000000000000000000000000000000000000000000000000000000001614610180576040516302b6341b60e41b815260040160405180910390fd5b81156101a857600080610195848601866106ae565b915091506101a5878784846103af565b50505b82828080601f0160208091040260200160405190810160405280939291908181526020018383808284376000920191909152509298975050505050505050565b336001600160a01b037f00000000000000000000000000000000000000000000000000000000000000001614610231576040516302b6341b60e41b815260040160405180910390fd5b60008481526020818152604080832086845282528083206001600160a01b03891684529091528120549081900361027b57604051631258fe6760e31b815260040160405180910390fd5b610286600182610779565b60008681526020818152604080832088845282528083206001600160a01b038b1684529091529020555b505050505050565b6040516331a9108f60e11b8152600481018690526000907f00000000000000000000000000000000000000000000000000000000000000006001600160a01b031690636352211e90602401602060405180830381865afa158015610320573d6000803e3d6000fd5b505050506040513d601f19601f8201168201806040525081019061034491906107a0565b9050336001600160a01b0382161461036f57604051631b0c476f60e11b815260040160405180910390fd5b6102b086868686808060200260200160405190810160405280939291908181526020018383602002808284376000920191909152508892506103af915050565b815160005b8181101561041657600086815260208181526040808320888452909152812085518592908790859081106103ea576103ea6107c4565b6020908102919091018101516001600160a01b03168252810191909152604001600020556001016103b4565b508184867f1e10538c13505897fea8535a8c31310ec25843d51f10c5ab5e4b5e01c809b6b28660405161044991906107da565b60405180910390a45050505050565b60008083601f84011261046a57600080fd5b50813567ffffffffffffffff81111561048257600080fd5b60208301915083602082850101111561049a57600080fd5b9250929050565b600080600080606085870312156104b757600080fd5b8435935060208501359250604085013567ffffffffffffffff8111156104dc57600080fd5b6104e887828801610458565b95989497509550505050565b600060208083528351808285015260005b8181101561052157858101830151858201604001528201610505565b506000604082860101526040601f19601f8301168501019250505092915050565b6001600160a01b038116811461055757600080fd5b50565b803561056581610542565b919050565b60008060008060006080868803121561058257600080fd5b853561058d81610542565b94506020860135935060408601359250606086013567ffffffffffffffff8111156105b757600080fd5b6105c388828901610458565b969995985093965092949392505050565b6000806000606084860312156105e957600080fd5b8335925060208401359150604084013561060281610542565b809150509250925092565b60008060008060006080868803121561062557600080fd5b8535945060208601359350604086013567ffffffffffffffff8082111561064b57600080fd5b818801915088601f83011261065f57600080fd5b81358181111561066e57600080fd5b8960208260051b850101111561068357600080fd5b96999598505060200195606001359392505050565b634e487b7160e01b600052604160045260246000fd5b600080604083850312156106c157600080fd5b823567ffffffffffffffff808211156106d957600080fd5b818501915085601f8301126106ed57600080fd5b813560208282111561070157610701610698565b8160051b604051601f19603f8301168101818110868211171561072657610726610698565b60405292835281830193508481018201928984111561074457600080fd5b948201945b838610156107695761075a8661055a565b85529482019493820193610749565b9997909101359750505050505050565b8181038181111561079a57634e487b7160e01b600052601160045260246000fd5b92915050565b6000602082840312156107b257600080fd5b81516107bd81610542565b9392505050565b634e487b7160e01b600052603260045260246000fd5b6020808252825182820181905260009190848201906040850190845b8181101561081b5783516001600160a01b0316835292840192918401916001016107f6565b5090969550505050505056fea26469706673582212201d3b42010cf1f82a1848d3577bd450113969bf8158aa6d443266c6a16665f7b064736f6c63430008100033",
  "linkReferences": {},
  "deployedLinkReferences": {}
}