{
  "_format": "hh-sol-artifact-1",
  "contractName": "CharacterBoundToken",
  "sourceName": "contracts/misc/CharacterBoundToken.sol",
  "abi": [
    {
      "inputs": [
        {
          "internalType": "address",
          "name": "web3Entry",
          "type": "address"
        }
      ],
      "stateMutability": "nonpayable",
      "type": "constructor"
    },
    {
      "anonymous": false,
      "inputs": [
        {
          "indexed": true,
          "internalType": "address",
          "name": "account",
          "type": "address"
        },
        {
          "indexed": true,
          "internalType": "address",
          "name": "operator",
          "type": "address"
        },
        {
          "indexed": false,
          "internalType": "bool",
          "name": "approved",
          "type": "bool"
        }
      ],
      "name": "ApprovalForAll",
      "type": "event"
    },
    {
      "anonymous": false,
      "inputs": [
        {
          "indexed": true,
          "internalType": "uint256",
          "name": "from",
          "type": "uint256"
        },
        {
          "indexed": true,
          "internalType": "uint256",
          "name": "tokenId",
          "type": "uint256"
        },
        {
          "indexed": true,
          "internalType": "uint256",
          "name": "amount",
          "type": "uint256"
        }
      ],
      "name": "Burn",
      "type": "event"
    },
    {
      "anonymous": false,
      "inputs": [
        {
          "indexed": true,
          "internalType": "uint256",
          "name": "to",
          "type": "uint256"
        },
        {
          "indexed": true,
          "internalType": "uint256",
          "name": "tokenId",
          "type": "uint256"
        },
        {
          "indexed": true,
          "internalType": "uint256",
          "name": "tokenNumber",
          "type": "uint256"
        }
      ],
      "name": "Mint",
      "type": "event"
    },
    {
      "anonymous": false,
      "inputs": [
        {
          "indexed": true,
          "internalType": "bytes32",
          "name": "role",
          "type": "bytes32"
        },
        {
          "indexed": true,
          "internalType": "bytes32",
          "name": "previousAdminRole",
          "type": "bytes32"
        },
        {
          "indexed": true,
          "internalType": "bytes32",
          "name": "newAdminRole",
          "type": "bytes32"
        }
      ],
      "name": "RoleAdminChanged",
      "type": "event"
    },
    {
      "anonymous": false,
      "inputs": [
        {
          "indexed": true,
          "internalType": "bytes32",
          "name": "role",
          "type": "bytes32"
        },
        {
          "indexed": true,
          "internalType": "address",
          "name": "account",
          "type": "address"
        },
        {
          "indexed": true,
          "internalType": "address",
          "name": "sender",
          "type": "address"
        }
      ],
      "name": "RoleGranted",
      "type": "event"
    },
    {
      "anonymous": false,
      "inputs": [
        {
          "indexed": true,
          "internalType": "bytes32",
          "name": "role",
          "type": "bytes32"
        },
        {
          "indexed": true,
          "internalType": "address",
          "name": "account",
          "type": "address"
        },
        {
          "indexed": true,
          "internalType": "address",
          "name": "sender",
          "type": "address"
        }
      ],
      "name": "RoleRevoked",
      "type": "event"
    },
    {
      "anonymous": false,
      "inputs": [
        {
          "indexed": true,
          "internalType": "address",
          "name": "operator",
          "type": "address"
        },
        {
          "indexed": true,
          "internalType": "address",
          "name": "from",
          "type": "address"
        },
        {
          "indexed": true,
          "internalType": "address",
          "name": "to",
          "type": "address"
        },
        {
          "indexed": false,
          "internalType": "uint256[]",
          "name": "ids",
          "type": "uint256[]"
        },
        {
          "indexed": false,
          "internalType": "uint256[]",
          "name": "values",
          "type": "uint256[]"
        }
      ],
      "name": "TransferBatch",
      "type": "event"
    },
    {
      "anonymous": false,
      "inputs": [
        {
          "indexed": true,
          "internalType": "address",
          "name": "operator",
          "type": "address"
        },
        {
          "indexed": true,
          "internalType": "address",
          "name": "from",
          "type": "address"
        },
        {
          "indexed": true,
          "internalType": "address",
          "name": "to",
          "type": "address"
        },
        {
          "indexed": false,
          "internalType": "uint256",
          "name": "id",
          "type": "uint256"
        },
        {
          "indexed": false,
          "internalType": "uint256",
          "name": "value",
          "type": "uint256"
        }
      ],
      "name": "TransferSingle",
      "type": "event"
    },
    {
      "anonymous": false,
      "inputs": [
        {
          "indexed": false,
          "internalType": "string",
          "name": "value",
          "type": "string"
        },
        {
          "indexed": true,
          "internalType": "uint256",
          "name": "id",
          "type": "uint256"
        }
      ],
      "name": "URI",
      "type": "event"
    },
    {
      "inputs": [],
      "name": "DEFAULT_ADMIN_ROLE",
      "outputs": [
        {
          "internalType": "bytes32",
          "name": "",
          "type": "bytes32"
        }
      ],
      "stateMutability": "view",
      "type": "function"
    },
    {
      "inputs": [],
      "name": "MINTER_ROLE",
      "outputs": [
        {
          "internalType": "bytes32",
          "name": "",
          "type": "bytes32"
        }
      ],
      "stateMutability": "view",
      "type": "function"
    },
    {
      "inputs": [],
      "name": "_web3Entry",
      "outputs": [
        {
          "internalType": "address",
          "name": "",
          "type": "address"
        }
      ],
      "stateMutability": "view",
      "type": "function"
    },
    {
      "inputs": [
        {
          "internalType": "address",
          "name": "account",
          "type": "address"
        },
        {
          "internalType": "uint256",
          "name": "tokenId",
          "type": "uint256"
        }
      ],
      "name": "balanceOf",
      "outputs": [
        {
          "internalType": "uint256",
          "name": "balance",
          "type": "uint256"
        }
      ],
      "stateMutability": "view",
      "type": "function"
    },
    {
      "inputs": [
        {
          "internalType": "uint256",
          "name": "characterId",
          "type": "uint256"
        },
        {
          "internalType": "uint256",
          "name": "tokenId",
          "type": "uint256"
        }
      ],
      "name": "balanceOf",
      "outputs": [
        {
          "internalType": "uint256",
          "name": "",
          "type": "uint256"
        }
      ],
      "stateMutability": "view",
      "type": "function"
    },
    {
      "inputs": [
        {
          "internalType": "address[]",
          "name": "accounts",
          "type": "address[]"
        },
        {
          "internalType": "uint256[]",
          "name": "tokenIds",
          "type": "uint256[]"
        }
      ],
      "name": "balanceOfBatch",
      "outputs": [
        {
          "internalType": "uint256[]",
          "name": "",
          "type": "uint256[]"
        }
      ],
      "stateMutability": "view",
      "type": "function"
    },
    {
      "inputs": [
        {
          "internalType": "uint256",
          "name": "characterId",
          "type": "uint256"
        },
        {
          "internalType": "uint256",
          "name": "tokenId",
          "type": "uint256"
        },
        {
          "internalType": "uint256",
          "name": "amount",
          "type": "uint256"
        }
      ],
      "name": "burn",
      "outputs": [],
      "stateMutability": "nonpayable",
      "type": "function"
    },
    {
      "inputs": [
        {
          "internalType": "bytes32",
          "name": "role",
          "type": "bytes32"
        }
      ],
      "name": "getRoleAdmin",
      "outputs": [
        {
          "internalType": "bytes32",
          "name": "",
          "type": "bytes32"
        }
      ],
      "stateMutability": "view",
      "type": "function"
    },
    {
      "inputs": [
        {
          "internalType": "bytes32",
          "name": "role",
          "type": "bytes32"
        },
        {
          "internalType": "uint256",
          "name": "index",
          "type": "uint256"
        }
      ],
      "name": "getRoleMember",
      "outputs": [
        {
          "internalType": "address",
          "name": "",
          "type": "address"
        }
      ],
      "stateMutability": "view",
      "type": "function"
    },
    {
      "inputs": [
        {
          "internalType": "bytes32",
          "name": "role",
          "type": "bytes32"
        }
      ],
      "name": "getRoleMemberCount",
      "outputs": [
        {
          "internalType": "uint256",
          "name": "",
          "type": "uint256"
        }
      ],
      "stateMutability": "view",
      "type": "function"
    },
    {
      "inputs": [
        {
          "internalType": "bytes32",
          "name": "role",
          "type": "bytes32"
        },
        {
          "internalType": "address",
          "name": "account",
          "type": "address"
        }
      ],
      "name": "grantRole",
      "outputs": [],
      "stateMutability": "nonpayable",
      "type": "function"
    },
    {
      "inputs": [
        {
          "internalType": "bytes32",
          "name": "role",
          "type": "bytes32"
        },
        {
          "internalType": "address",
          "name": "account",
          "type": "address"
        }
      ],
      "name": "hasRole",
      "outputs": [
        {
          "internalType": "bool",
          "name": "",
          "type": "bool"
        }
      ],
      "stateMutability": "view",
      "type": "function"
    },
    {
      "inputs": [
        {
          "internalType": "address",
          "name": "account",
          "type": "address"
        },
        {
          "internalType": "address",
          "name": "operator",
          "type": "address"
        }
      ],
      "name": "isApprovedForAll",
      "outputs": [
        {
          "internalType": "bool",
          "name": "",
          "type": "bool"
        }
      ],
      "stateMutability": "view",
      "type": "function"
    },
    {
      "inputs": [
        {
          "internalType": "uint256",
          "name": "characterId",
          "type": "uint256"
        },
        {
          "internalType": "uint256",
          "name": "tokenId",
          "type": "uint256"
        }
      ],
      "name": "mint",
      "outputs": [],
      "stateMutability": "nonpayable",
      "type": "function"
    },
    {
      "inputs": [
        {
          "internalType": "bytes32",
          "name": "role",
          "type": "bytes32"
        },
        {
          "internalType": "address",
          "name": "account",
          "type": "address"
        }
      ],
      "name": "renounceRole",
      "outputs": [],
      "stateMutability": "nonpayable",
      "type": "function"
    },
    {
      "inputs": [
        {
          "internalType": "bytes32",
          "name": "role",
          "type": "bytes32"
        },
        {
          "internalType": "address",
          "name": "account",
          "type": "address"
        }
      ],
      "name": "revokeRole",
      "outputs": [],
      "stateMutability": "nonpayable",
      "type": "function"
    },
    {
      "inputs": [
        {
          "internalType": "address",
          "name": "",
          "type": "address"
        },
        {
          "internalType": "address",
          "name": "",
          "type": "address"
        },
        {
          "internalType": "uint256[]",
          "name": "",
          "type": "uint256[]"
        },
        {
          "internalType": "uint256[]",
          "name": "",
          "type": "uint256[]"
        },
        {
          "internalType": "bytes",
          "name": "",
          "type": "bytes"
        }
      ],
      "name": "safeBatchTransferFrom",
      "outputs": [],
      "stateMutability": "nonpayable",
      "type": "function"
    },
    {
      "inputs": [
        {
          "internalType": "address",
          "name": "",
          "type": "address"
        },
        {
          "internalType": "address",
          "name": "",
          "type": "address"
        },
        {
          "internalType": "uint256",
          "name": "",
          "type": "uint256"
        },
        {
          "internalType": "uint256",
          "name": "",
          "type": "uint256"
        },
        {
          "internalType": "bytes",
          "name": "",
          "type": "bytes"
        }
      ],
      "name": "safeTransferFrom",
      "outputs": [],
      "stateMutability": "nonpayable",
      "type": "function"
    },
    {
      "inputs": [
        {
          "internalType": "address",
          "name": "operator",
          "type": "address"
        },
        {
          "internalType": "bool",
          "name": "approved",
          "type": "bool"
        }
      ],
      "name": "setApprovalForAll",
      "outputs": [],
      "stateMutability": "nonpayable",
      "type": "function"
    },
    {
      "inputs": [
        {
          "internalType": "uint256",
          "name": "tokenId",
          "type": "uint256"
        },
        {
          "internalType": "string",
          "name": "tokenURI",
          "type": "string"
        }
      ],
      "name": "setTokenURI",
      "outputs": [],
      "stateMutability": "nonpayable",
      "type": "function"
    },
    {
      "inputs": [
        {
          "internalType": "bytes4",
          "name": "interfaceId",
          "type": "bytes4"
        }
      ],
      "name": "supportsInterface",
      "outputs": [
        {
          "internalType": "bool",
          "name": "",
          "type": "bool"
        }
      ],
      "stateMutability": "view",
      "type": "function"
    },
    {
      "inputs": [
        {
          "internalType": "uint256",
          "name": "tokenId",
          "type": "uint256"
        }
      ],
      "name": "uri",
      "outputs": [
        {
          "internalType": "string",
          "name": "",
          "type": "string"
        }
      ],
      "stateMutability": "view",
      "type": "function"
    }
  ],
  "bytecode": "0x60806040523480156200001157600080fd5b5060405162001c0738038062001c078339810160408190526200003491620001fb565b600580546001600160a01b0319166001600160a01b0383161790556200006360006200005d3390565b62000096565b6200008f7f9f2df0fed2c77648de5860a4cc508cd0818c85b8b8a1ab4ceeef8d981c8956a63362000096565b506200022d565b620000a28282620000a6565b5050565b620000bd8282620000e960201b62000b4c1760201c565b6000828152600160209081526040909120620000e491839062000bd062000189821b17901c565b505050565b6000828152602081815260408083206001600160a01b038516845290915290205460ff16620000a2576000828152602081815260408083206001600160a01b03851684529091529020805460ff19166001179055620001453390565b6001600160a01b0316816001600160a01b0316837f2f8788117e7eff1d82e926ec794901d17c78024a50270940304540a733656f0d60405160405180910390a45050565b6000620001a0836001600160a01b038416620001a9565b90505b92915050565b6000818152600183016020526040812054620001f257508154600181810184556000848152602080822090930184905584548482528286019093526040902091909155620001a3565b506000620001a3565b6000602082840312156200020e57600080fd5b81516001600160a01b03811681146200022657600080fd5b9392505050565b6119ca806200023d6000396000f3fe608060405234801561001057600080fd5b50600436106101415760003560e01c806375022be2116100b8578063ca15c8731161007c578063ca15c873146102d2578063d5391393146102e5578063d547741f1461030c578063e985e9c51461031f578063ea6996331461035b578063f242432a1461036e57600080fd5b806375022be2146102665780639010d07c1461029157806391d14854146102a4578063a217fddf146102b7578063a22cb465146102bf57600080fd5b80631b2ef1ca1161010a5780631b2ef1ca146101d7578063248a9ca3146101ea5780632eb2c2d61461020d5780632f2ff15d1461022057806336568abe146102335780634e1273f41461024657600080fd5b8062fdd58e1461014657806301ffc9a71461016c57806305a100281461018f5780630e89341c146101a4578063162094c4146101c4575b600080fd5b61015961015436600461127f565b61037c565b6040519081526020015b60405180910390f35b61017f61017a3660046112ab565b6104a5565b6040519015158152602001610163565b6101a261019d3660046112d5565b6104eb565b005b6101b76101b2366004611301565b61068f565b604051610163919061134a565b6101a26101d236600461141c565b610731565b6101a26101e5366004611477565b61076a565b6101596101f8366004611301565b60009081526020819052604090206001015490565b6101a261021b366004611548565b61085a565b6101a261022e3660046115f6565b610895565b6101a26102413660046115f6565b6108ba565b610259610254366004611626565b610938565b60405161016391906116de565b600554610279906001600160a01b031681565b6040516001600160a01b039091168152602001610163565b61027961029f366004611477565b610a50565b61017f6102b23660046115f6565b610a6f565b610159600081565b6101a26102cd366004611722565b610a98565b6101596102e0366004611301565b610aa3565b6101597f9f2df0fed2c77648de5860a4cc508cd0818c85b8b8a1ab4ceeef8d981c8956a681565b6101a261031a3660046115f6565b610aba565b61017f61032d366004611755565b6001600160a01b03918216600090815260036020908152604080832093909416825291909152205460ff1690565b610159610369366004611477565b610adf565b6101a261021b366004611783565b6005546040516370a0823160e01b81526001600160a01b03848116600483015260009283929116906370a0823190602401602060405180830381865afa1580156103ca573d6000803e3d6000fd5b505050506040513d601f19601f820116820180604052508101906103ee91906117ec565b905060005b8181101561049d57600554604051632f745c5960e01b81526001600160a01b038781166004830152602482018490526000921690632f745c5990604401602060405180830381865afa15801561044d573d6000803e3d6000fd5b505050506040513d601f19601f8201168201806040525081019061047191906117ec565b905061047d8186610adf565b610487908561181b565b935050808061049590611833565b9150506103f3565b505092915050565b60006001600160e01b03198216636cdb3d1360e11b14806104d657506001600160e01b031982166303a24d0760e21b145b806104e557506104e582610be5565b92915050565b6005546040516331a9108f60e11b8152600481018590526000916001600160a01b031690636352211e90602401602060405180830381865afa158015610535573d6000803e3d6000fd5b505050506040513d601f19601f82011682018060405250810190610559919061184e565b90506001600160a01b0381163314806105775750610577813361032d565b6105d75760405162461bcd60e51b815260206004820152602660248201527f63616c6c6572206973206e6f7420746f6b656e206f776e6572206e6f722061706044820152651c1c9bdd995960d21b60648201526084015b60405180910390fd5b60006105e38585610adf565b9050828110156106355760405162461bcd60e51b815260206004820152601b60248201527f6275726e20616d6f756e7420657863656564732062616c616e6365000000000060448201526064016105ce565b61063f838261186b565b60008681526002602090815260408083208884529091528082209290925590518491869188917f5af801e983cfd842de8b0797a2d6077db3ac2dea16571e0c7f5080291ca1b93491a45050505050565b60008181526004602052604090208054606091906106ac90611882565b80601f01602080910402602001604051908101604052809291908181526020018280546106d890611882565b80156107255780601f106106fa57610100808354040283529160200191610725565b820191906000526020600020905b81548152906001019060200180831161070857829003601f168201915b50505050509050919050565b7f9f2df0fed2c77648de5860a4cc508cd0818c85b8b8a1ab4ceeef8d981c8956a661075b81610c0a565b6107658383610c17565b505050565b7f9f2df0fed2c77648de5860a4cc508cd0818c85b8b8a1ab4ceeef8d981c8956a661079481610c0a565b826107e15760405162461bcd60e51b815260206004820152601c60248201527f6d696e7420746f20746865207a65726f2063686172616374657249640000000060448201526064016105ce565b6000838152600260209081526040808320858452909152812080546001929061080b90849061181b565b90915550506006805490600061082083611833565b9091555050600654604051839085907f070aa035fe0a09f0d9305bdc2d7a5d93cd4733db3b1ff869b4a7033c9501909a90600090a4505050565b60405162461bcd60e51b815260206004820152601060248201526f6e6f6e2d7472616e7366657261626c6560801b60448201526064016105ce565b6000828152602081905260409020600101546108b081610c0a565b6107658383610c7b565b6001600160a01b038116331461092a5760405162461bcd60e51b815260206004820152602f60248201527f416363657373436f6e74726f6c3a2063616e206f6e6c792072656e6f756e636560448201526e103937b632b9903337b91039b2b63360891b60648201526084016105ce565b6109348282610c9d565b5050565b6060815183511461098b5760405162461bcd60e51b815260206004820181905260248201527f6163636f756e747320616e6420696473206c656e677468206d69736d6174636860448201526064016105ce565b6000835167ffffffffffffffff8111156109a7576109a761137d565b6040519080825280602002602001820160405280156109d0578160200160208202803683370190505b50905060005b8451811015610a4857610a1b8582815181106109f4576109f46118bd565b6020026020010151858381518110610a0e57610a0e6118bd565b602002602001015161037c565b828281518110610a2d57610a2d6118bd565b6020908102919091010152610a4181611833565b90506109d6565b509392505050565b6000828152600160205260408120610a689083610cbf565b9392505050565b6000918252602082815260408084206001600160a01b0393909316845291905290205460ff1690565b610934338383610ccb565b60008181526001602052604081206104e590610dac565b600082815260208190526040902060010154610ad581610c0a565b6107658383610c9d565b600082610b2e5760405162461bcd60e51b815260206004820152601960248201527f7a65726f206973206e6f7420612076616c6964206f776e65720000000000000060448201526064016105ce565b50600091825260026020908152604080842092845291905290205490565b610b568282610a6f565b610934576000828152602081815260408083206001600160a01b03851684529091529020805460ff19166001179055610b8c3390565b6001600160a01b0316816001600160a01b0316837f2f8788117e7eff1d82e926ec794901d17c78024a50270940304540a733656f0d60405160405180910390a45050565b6000610a68836001600160a01b038416610db6565b60006001600160e01b03198216635a05180f60e01b14806104e557506104e582610e05565b610c148133610e3a565b50565b60008281526004602090815260409091208251610c36928401906111d1565b50817f6bb7ff708619ba0610cba295a58592e0451dee2622938c8755667688daf3529b610c628461068f565b604051610c6f919061134a565b60405180910390a25050565b610c858282610b4c565b60008281526001602052604090206107659082610bd0565b610ca78282610e9e565b60008281526001602052604090206107659082610f03565b6000610a688383610f18565b816001600160a01b0316836001600160a01b03161415610d3f5760405162461bcd60e51b815260206004820152602960248201527f455243313135353a2073657474696e6720617070726f76616c20737461747573604482015268103337b91039b2b63360b91b60648201526084016105ce565b6001600160a01b03838116600081815260036020908152604080832094871680845294825291829020805460ff191686151590811790915591519182527f17307eab39ab6107e8899845ad3d59bd9653f200f220920489ca2b5937696c31910160405180910390a3505050565b60006104e5825490565b6000818152600183016020526040812054610dfd575081546001818101845560008481526020808220909301849055845484825282860190935260409020919091556104e5565b5060006104e5565b60006001600160e01b03198216637965db0b60e01b14806104e557506301ffc9a760e01b6001600160e01b03198316146104e5565b610e448282610a6f565b61093457610e5c816001600160a01b03166014610f42565b610e67836020610f42565b604051602001610e789291906118d3565b60408051601f198184030181529082905262461bcd60e51b82526105ce9160040161134a565b610ea88282610a6f565b15610934576000828152602081815260408083206001600160a01b0385168085529252808320805460ff1916905551339285917ff6391f5c32d9c69d2a47ea670b442974b53935d1edc7fd64eb21e047a839171b9190a45050565b6000610a68836001600160a01b0384166110de565b6000826000018281548110610f2f57610f2f6118bd565b9060005260206000200154905092915050565b60606000610f51836002611948565b610f5c90600261181b565b67ffffffffffffffff811115610f7457610f7461137d565b6040519080825280601f01601f191660200182016040528015610f9e576020820181803683370190505b509050600360fc1b81600081518110610fb957610fb96118bd565b60200101906001600160f81b031916908160001a905350600f60fb1b81600181518110610fe857610fe86118bd565b60200101906001600160f81b031916908160001a905350600061100c846002611948565b61101790600161181b565b90505b600181111561108f576f181899199a1a9b1b9c1cb0b131b232b360811b85600f166010811061104b5761104b6118bd565b1a60f81b828281518110611061576110616118bd565b60200101906001600160f81b031916908160001a90535060049490941c9361108881611967565b905061101a565b508315610a685760405162461bcd60e51b815260206004820181905260248201527f537472696e67733a20686578206c656e67746820696e73756666696369656e7460448201526064016105ce565b600081815260018301602052604081205480156111c757600061110260018361186b565b85549091506000906111169060019061186b565b905081811461117b576000866000018281548110611136576111366118bd565b9060005260206000200154905080876000018481548110611159576111596118bd565b6000918252602080832090910192909255918252600188019052604090208390555b855486908061118c5761118c61197e565b6001900381819060005260206000200160009055905585600101600086815260200190815260200160002060009055600193505050506104e5565b60009150506104e5565b8280546111dd90611882565b90600052602060002090601f0160209004810192826111ff5760008555611245565b82601f1061121857805160ff1916838001178555611245565b82800160010185558215611245579182015b8281111561124557825182559160200191906001019061122a565b50611251929150611255565b5090565b5b808211156112515760008155600101611256565b6001600160a01b0381168114610c1457600080fd5b6000806040838503121561129257600080fd5b823561129d8161126a565b946020939093013593505050565b6000602082840312156112bd57600080fd5b81356001600160e01b031981168114610a6857600080fd5b6000806000606084860312156112ea57600080fd5b505081359360208301359350604090920135919050565b60006020828403121561131357600080fd5b5035919050565b60005b8381101561133557818101518382015260200161131d565b83811115611344576000848401525b50505050565b602081526000825180602084015261136981604085016020870161131a565b601f01601f19169190910160400192915050565b634e487b7160e01b600052604160045260246000fd5b604051601f8201601f1916810167ffffffffffffffff811182821017156113bc576113bc61137d565b604052919050565b600067ffffffffffffffff8311156113de576113de61137d565b6113f1601f8401601f1916602001611393565b905082815283838301111561140557600080fd5b828260208301376000602084830101529392505050565b6000806040838503121561142f57600080fd5b82359150602083013567ffffffffffffffff81111561144d57600080fd5b8301601f8101851361145e57600080fd5b61146d858235602084016113c4565b9150509250929050565b6000806040838503121561148a57600080fd5b50508035926020909101359150565b600067ffffffffffffffff8211156114b3576114b361137d565b5060051b60200190565b600082601f8301126114ce57600080fd5b813560206114e36114de83611499565b611393565b82815260059290921b8401810191818101908684111561150257600080fd5b8286015b8481101561151d5780358352918301918301611506565b509695505050505050565b600082601f83011261153957600080fd5b610a68838335602085016113c4565b600080600080600060a0868803121561156057600080fd5b853561156b8161126a565b9450602086013561157b8161126a565b9350604086013567ffffffffffffffff8082111561159857600080fd5b6115a489838a016114bd565b945060608801359150808211156115ba57600080fd5b6115c689838a016114bd565b935060808801359150808211156115dc57600080fd5b506115e988828901611528565b9150509295509295909350565b6000806040838503121561160957600080fd5b82359150602083013561161b8161126a565b809150509250929050565b6000806040838503121561163957600080fd5b823567ffffffffffffffff8082111561165157600080fd5b818501915085601f83011261166557600080fd5b813560206116756114de83611499565b82815260059290921b8401810191818101908984111561169457600080fd5b948201945b838610156116bb5785356116ac8161126a565b82529482019490820190611699565b965050860135925050808211156116d157600080fd5b5061146d858286016114bd565b6020808252825182820181905260009190848201906040850190845b81811015611716578351835292840192918401916001016116fa565b50909695505050505050565b6000806040838503121561173557600080fd5b82356117408161126a565b91506020830135801515811461161b57600080fd5b6000806040838503121561176857600080fd5b82356117738161126a565b9150602083013561161b8161126a565b600080600080600060a0868803121561179b57600080fd5b85356117a68161126a565b945060208601356117b68161126a565b93506040860135925060608601359150608086013567ffffffffffffffff8111156117e057600080fd5b6115e988828901611528565b6000602082840312156117fe57600080fd5b5051919050565b634e487b7160e01b600052601160045260246000fd5b6000821982111561182e5761182e611805565b500190565b600060001982141561184757611847611805565b5060010190565b60006020828403121561186057600080fd5b8151610a688161126a565b60008282101561187d5761187d611805565b500390565b600181811c9082168061189657607f821691505b602082108114156118b757634e487b7160e01b600052602260045260246000fd5b50919050565b634e487b7160e01b600052603260045260246000fd5b7f416363657373436f6e74726f6c3a206163636f756e742000000000000000000081526000835161190b81601785016020880161131a565b7001034b99036b4b9b9b4b733903937b6329607d1b601791840191820152835161193c81602884016020880161131a565b01602801949350505050565b600081600019048311821515161561196257611962611805565b500290565b60008161197657611976611805565b506000190190565b634e487b7160e01b600052603160045260246000fdfea26469706673582212205f4fc8f1a2392bd507d45f69f0298e185b59bae3ffe8fb628ab678789dfe3a6864736f6c634300080a0033",
  "linkReferences": {},
  "deployedLinkReferences": {}
}