{
  "_format": "hh-sol-artifact-1",
  "contractName": "CharacterBoundToken",
  "sourceName": "contracts/misc/CharacterBoundToken.sol",
  "abi": [
    {
      "inputs": [
        {
          "internalType": "address",
          "name": "web3Entry",
          "type": "address"
        }
      ],
      "stateMutability": "nonpayable",
      "type": "constructor"
    },
    {
      "anonymous": false,
      "inputs": [
        {
          "indexed": true,
          "internalType": "address",
          "name": "account",
          "type": "address"
        },
        {
          "indexed": true,
          "internalType": "address",
          "name": "operator",
          "type": "address"
        },
        {
          "indexed": false,
          "internalType": "bool",
          "name": "approved",
          "type": "bool"
        }
      ],
      "name": "ApprovalForAll",
      "type": "event"
    },
    {
      "anonymous": false,
      "inputs": [
        {
          "indexed": true,
          "internalType": "uint256",
          "name": "from",
          "type": "uint256"
        },
        {
          "indexed": true,
          "internalType": "uint256",
          "name": "tokenId",
          "type": "uint256"
        },
        {
          "indexed": true,
          "internalType": "uint256",
          "name": "amount",
          "type": "uint256"
        }
      ],
      "name": "Burn",
      "type": "event"
    },
    {
      "anonymous": false,
      "inputs": [
        {
          "indexed": true,
          "internalType": "uint256",
          "name": "to",
          "type": "uint256"
        },
        {
          "indexed": true,
          "internalType": "uint256",
          "name": "tokenId",
          "type": "uint256"
        },
        {
          "indexed": true,
          "internalType": "uint256",
          "name": "amount",
          "type": "uint256"
        }
      ],
      "name": "Mint",
      "type": "event"
    },
    {
      "anonymous": false,
      "inputs": [
        {
          "indexed": true,
          "internalType": "bytes32",
          "name": "role",
          "type": "bytes32"
        },
        {
          "indexed": true,
          "internalType": "bytes32",
          "name": "previousAdminRole",
          "type": "bytes32"
        },
        {
          "indexed": true,
          "internalType": "bytes32",
          "name": "newAdminRole",
          "type": "bytes32"
        }
      ],
      "name": "RoleAdminChanged",
      "type": "event"
    },
    {
      "anonymous": false,
      "inputs": [
        {
          "indexed": true,
          "internalType": "bytes32",
          "name": "role",
          "type": "bytes32"
        },
        {
          "indexed": true,
          "internalType": "address",
          "name": "account",
          "type": "address"
        },
        {
          "indexed": true,
          "internalType": "address",
          "name": "sender",
          "type": "address"
        }
      ],
      "name": "RoleGranted",
      "type": "event"
    },
    {
      "anonymous": false,
      "inputs": [
        {
          "indexed": true,
          "internalType": "bytes32",
          "name": "role",
          "type": "bytes32"
        },
        {
          "indexed": true,
          "internalType": "address",
          "name": "account",
          "type": "address"
        },
        {
          "indexed": true,
          "internalType": "address",
          "name": "sender",
          "type": "address"
        }
      ],
      "name": "RoleRevoked",
      "type": "event"
    },
    {
      "anonymous": false,
      "inputs": [
        {
          "indexed": true,
          "internalType": "address",
          "name": "operator",
          "type": "address"
        },
        {
          "indexed": true,
          "internalType": "address",
          "name": "from",
          "type": "address"
        },
        {
          "indexed": true,
          "internalType": "address",
          "name": "to",
          "type": "address"
        },
        {
          "indexed": false,
          "internalType": "uint256[]",
          "name": "ids",
          "type": "uint256[]"
        },
        {
          "indexed": false,
          "internalType": "uint256[]",
          "name": "values",
          "type": "uint256[]"
        }
      ],
      "name": "TransferBatch",
      "type": "event"
    },
    {
      "anonymous": false,
      "inputs": [
        {
          "indexed": true,
          "internalType": "address",
          "name": "operator",
          "type": "address"
        },
        {
          "indexed": true,
          "internalType": "address",
          "name": "from",
          "type": "address"
        },
        {
          "indexed": true,
          "internalType": "address",
          "name": "to",
          "type": "address"
        },
        {
          "indexed": false,
          "internalType": "uint256",
          "name": "id",
          "type": "uint256"
        },
        {
          "indexed": false,
          "internalType": "uint256",
          "name": "value",
          "type": "uint256"
        }
      ],
      "name": "TransferSingle",
      "type": "event"
    },
    {
      "anonymous": false,
      "inputs": [
        {
          "indexed": false,
          "internalType": "string",
          "name": "value",
          "type": "string"
        },
        {
          "indexed": true,
          "internalType": "uint256",
          "name": "id",
          "type": "uint256"
        }
      ],
      "name": "URI",
      "type": "event"
    },
    {
      "inputs": [],
      "name": "DEFAULT_ADMIN_ROLE",
      "outputs": [
        {
          "internalType": "bytes32",
          "name": "",
          "type": "bytes32"
        }
      ],
      "stateMutability": "view",
      "type": "function"
    },
    {
      "inputs": [],
      "name": "MINTER_ROLE",
      "outputs": [
        {
          "internalType": "bytes32",
          "name": "",
          "type": "bytes32"
        }
      ],
      "stateMutability": "view",
      "type": "function"
    },
    {
      "inputs": [],
      "name": "_web3Entry",
      "outputs": [
        {
          "internalType": "address",
          "name": "",
          "type": "address"
        }
      ],
      "stateMutability": "view",
      "type": "function"
    },
    {
      "inputs": [
        {
          "internalType": "address",
          "name": "account",
          "type": "address"
        },
        {
          "internalType": "uint256",
          "name": "tokenId",
          "type": "uint256"
        }
      ],
      "name": "balanceOf",
      "outputs": [
        {
          "internalType": "uint256",
          "name": "balance",
          "type": "uint256"
        }
      ],
      "stateMutability": "view",
      "type": "function"
    },
    {
      "inputs": [
        {
          "internalType": "uint256",
          "name": "characterId",
          "type": "uint256"
        },
        {
          "internalType": "uint256",
          "name": "tokenId",
          "type": "uint256"
        }
      ],
      "name": "balanceOf",
      "outputs": [
        {
          "internalType": "uint256",
          "name": "",
          "type": "uint256"
        }
      ],
      "stateMutability": "view",
      "type": "function"
    },
    {
      "inputs": [
        {
          "internalType": "address[]",
          "name": "accounts",
          "type": "address[]"
        },
        {
          "internalType": "uint256[]",
          "name": "tokenIds",
          "type": "uint256[]"
        }
      ],
      "name": "balanceOfBatch",
      "outputs": [
        {
          "internalType": "uint256[]",
          "name": "",
          "type": "uint256[]"
        }
      ],
      "stateMutability": "view",
      "type": "function"
    },
    {
      "inputs": [
        {
          "internalType": "uint256",
          "name": "characterId",
          "type": "uint256"
        },
        {
          "internalType": "uint256",
          "name": "tokenId",
          "type": "uint256"
        },
        {
          "internalType": "uint256",
          "name": "amount",
          "type": "uint256"
        }
      ],
      "name": "burn",
      "outputs": [],
      "stateMutability": "nonpayable",
      "type": "function"
    },
    {
      "inputs": [
        {
          "internalType": "bytes32",
          "name": "role",
          "type": "bytes32"
        }
      ],
      "name": "getRoleAdmin",
      "outputs": [
        {
          "internalType": "bytes32",
          "name": "",
          "type": "bytes32"
        }
      ],
      "stateMutability": "view",
      "type": "function"
    },
    {
      "inputs": [
        {
          "internalType": "bytes32",
          "name": "role",
          "type": "bytes32"
        },
        {
          "internalType": "uint256",
          "name": "index",
          "type": "uint256"
        }
      ],
      "name": "getRoleMember",
      "outputs": [
        {
          "internalType": "address",
          "name": "",
          "type": "address"
        }
      ],
      "stateMutability": "view",
      "type": "function"
    },
    {
      "inputs": [
        {
          "internalType": "bytes32",
          "name": "role",
          "type": "bytes32"
        }
      ],
      "name": "getRoleMemberCount",
      "outputs": [
        {
          "internalType": "uint256",
          "name": "",
          "type": "uint256"
        }
      ],
      "stateMutability": "view",
      "type": "function"
    },
    {
      "inputs": [
        {
          "internalType": "bytes32",
          "name": "role",
          "type": "bytes32"
        },
        {
          "internalType": "address",
          "name": "account",
          "type": "address"
        }
      ],
      "name": "grantRole",
      "outputs": [],
      "stateMutability": "nonpayable",
      "type": "function"
    },
    {
      "inputs": [
        {
          "internalType": "bytes32",
          "name": "role",
          "type": "bytes32"
        },
        {
          "internalType": "address",
          "name": "account",
          "type": "address"
        }
      ],
      "name": "hasRole",
      "outputs": [
        {
          "internalType": "bool",
          "name": "",
          "type": "bool"
        }
      ],
      "stateMutability": "view",
      "type": "function"
    },
    {
      "inputs": [
        {
          "internalType": "address",
          "name": "account",
          "type": "address"
        },
        {
          "internalType": "address",
          "name": "operator",
          "type": "address"
        }
      ],
      "name": "isApprovedForAll",
      "outputs": [
        {
          "internalType": "bool",
          "name": "",
          "type": "bool"
        }
      ],
      "stateMutability": "view",
      "type": "function"
    },
    {
      "inputs": [
        {
          "internalType": "uint256",
          "name": "characterId",
          "type": "uint256"
        },
        {
          "internalType": "uint256",
          "name": "tokenId",
          "type": "uint256"
        }
      ],
      "name": "mint",
      "outputs": [],
      "stateMutability": "nonpayable",
      "type": "function"
    },
    {
      "inputs": [
        {
          "internalType": "bytes32",
          "name": "role",
          "type": "bytes32"
        },
        {
          "internalType": "address",
          "name": "account",
          "type": "address"
        }
      ],
      "name": "renounceRole",
      "outputs": [],
      "stateMutability": "nonpayable",
      "type": "function"
    },
    {
      "inputs": [
        {
          "internalType": "bytes32",
          "name": "role",
          "type": "bytes32"
        },
        {
          "internalType": "address",
          "name": "account",
          "type": "address"
        }
      ],
      "name": "revokeRole",
      "outputs": [],
      "stateMutability": "nonpayable",
      "type": "function"
    },
    {
      "inputs": [
        {
          "internalType": "address",
          "name": "",
          "type": "address"
        },
        {
          "internalType": "address",
          "name": "",
          "type": "address"
        },
        {
          "internalType": "uint256[]",
          "name": "",
          "type": "uint256[]"
        },
        {
          "internalType": "uint256[]",
          "name": "",
          "type": "uint256[]"
        },
        {
          "internalType": "bytes",
          "name": "",
          "type": "bytes"
        }
      ],
      "name": "safeBatchTransferFrom",
      "outputs": [],
      "stateMutability": "nonpayable",
      "type": "function"
    },
    {
      "inputs": [
        {
          "internalType": "address",
          "name": "",
          "type": "address"
        },
        {
          "internalType": "address",
          "name": "",
          "type": "address"
        },
        {
          "internalType": "uint256",
          "name": "",
          "type": "uint256"
        },
        {
          "internalType": "uint256",
          "name": "",
          "type": "uint256"
        },
        {
          "internalType": "bytes",
          "name": "",
          "type": "bytes"
        }
      ],
      "name": "safeTransferFrom",
      "outputs": [],
      "stateMutability": "nonpayable",
      "type": "function"
    },
    {
      "inputs": [
        {
          "internalType": "address",
          "name": "operator",
          "type": "address"
        },
        {
          "internalType": "bool",
          "name": "approved",
          "type": "bool"
        }
      ],
      "name": "setApprovalForAll",
      "outputs": [],
      "stateMutability": "nonpayable",
      "type": "function"
    },
    {
      "inputs": [
        {
          "internalType": "uint256",
          "name": "tokenId",
          "type": "uint256"
        },
        {
          "internalType": "string",
          "name": "tokenURI",
          "type": "string"
        }
      ],
      "name": "setTokenURI",
      "outputs": [],
      "stateMutability": "nonpayable",
      "type": "function"
    },
    {
      "inputs": [
        {
          "internalType": "bytes4",
          "name": "interfaceId",
          "type": "bytes4"
        }
      ],
      "name": "supportsInterface",
      "outputs": [
        {
          "internalType": "bool",
          "name": "",
          "type": "bool"
        }
      ],
      "stateMutability": "view",
      "type": "function"
    },
    {
      "inputs": [
        {
          "internalType": "uint256",
          "name": "tokenId",
          "type": "uint256"
        }
      ],
      "name": "uri",
      "outputs": [
        {
          "internalType": "string",
          "name": "",
          "type": "string"
        }
      ],
      "stateMutability": "view",
      "type": "function"
    }
  ],
  "bytecode": "0x60806040523480156200001157600080fd5b5060405162001bf238038062001bf28339810160408190526200003491620001fb565b600580546001600160a01b0319166001600160a01b0383161790556200006360006200005d3390565b62000096565b6200008f7f9f2df0fed2c77648de5860a4cc508cd0818c85b8b8a1ab4ceeef8d981c8956a63362000096565b506200022d565b620000a28282620000a6565b5050565b620000bd8282620000e960201b62000b371760201c565b6000828152600160209081526040909120620000e491839062000bbb62000189821b17901c565b505050565b6000828152602081815260408083206001600160a01b038516845290915290205460ff16620000a2576000828152602081815260408083206001600160a01b03851684529091529020805460ff19166001179055620001453390565b6001600160a01b0316816001600160a01b0316837f2f8788117e7eff1d82e926ec794901d17c78024a50270940304540a733656f0d60405160405180910390a45050565b6000620001a0836001600160a01b038416620001a9565b90505b92915050565b6000818152600183016020526040812054620001f257508154600181810184556000848152602080822090930184905584548482528286019093526040902091909155620001a3565b506000620001a3565b6000602082840312156200020e57600080fd5b81516001600160a01b03811681146200022657600080fd5b9392505050565b6119b5806200023d6000396000f3fe608060405234801561001057600080fd5b50600436106101415760003560e01c806375022be2116100b8578063ca15c8731161007c578063ca15c873146102d2578063d5391393146102e5578063d547741f1461030c578063e985e9c51461031f578063ea6996331461035b578063f242432a1461036e57600080fd5b806375022be2146102665780639010d07c1461029157806391d14854146102a4578063a217fddf146102b7578063a22cb465146102bf57600080fd5b80631b2ef1ca1161010a5780631b2ef1ca146101d7578063248a9ca3146101ea5780632eb2c2d61461020d5780632f2ff15d1461022057806336568abe146102335780634e1273f41461024657600080fd5b8062fdd58e1461014657806301ffc9a71461016c57806305a100281461018f5780630e89341c146101a4578063162094c4146101c4575b600080fd5b61015961015436600461126a565b61037c565b6040519081526020015b60405180910390f35b61017f61017a366004611296565b6104a5565b6040519015158152602001610163565b6101a261019d3660046112c0565b6104eb565b005b6101b76101b23660046112ec565b61068f565b6040516101639190611335565b6101a26101d2366004611407565b610731565b6101a26101e5366004611462565b61076a565b6101596101f83660046112ec565b60009081526020819052604090206001015490565b6101a261021b366004611533565b610845565b6101a261022e3660046115e1565b610880565b6101a26102413660046115e1565b6108a5565b610259610254366004611611565b610923565b60405161016391906116c9565b600554610279906001600160a01b031681565b6040516001600160a01b039091168152602001610163565b61027961029f366004611462565b610a3b565b61017f6102b23660046115e1565b610a5a565b610159600081565b6101a26102cd36600461170d565b610a83565b6101596102e03660046112ec565b610a8e565b6101597f9f2df0fed2c77648de5860a4cc508cd0818c85b8b8a1ab4ceeef8d981c8956a681565b6101a261031a3660046115e1565b610aa5565b61017f61032d366004611740565b6001600160a01b03918216600090815260036020908152604080832093909416825291909152205460ff1690565b610159610369366004611462565b610aca565b6101a261021b36600461176e565b6005546040516370a0823160e01b81526001600160a01b03848116600483015260009283929116906370a0823190602401602060405180830381865afa1580156103ca573d6000803e3d6000fd5b505050506040513d601f19601f820116820180604052508101906103ee91906117d7565b905060005b8181101561049d57600554604051632f745c5960e01b81526001600160a01b038781166004830152602482018490526000921690632f745c5990604401602060405180830381865afa15801561044d573d6000803e3d6000fd5b505050506040513d601f19601f8201168201806040525081019061047191906117d7565b905061047d8186610aca565b6104879085611806565b93505080806104959061181e565b9150506103f3565b505092915050565b60006001600160e01b03198216636cdb3d1360e11b14806104d657506001600160e01b031982166303a24d0760e21b145b806104e557506104e582610bd0565b92915050565b6005546040516331a9108f60e11b8152600481018590526000916001600160a01b031690636352211e90602401602060405180830381865afa158015610535573d6000803e3d6000fd5b505050506040513d601f19601f820116820180604052508101906105599190611839565b90506001600160a01b0381163314806105775750610577813361032d565b6105d75760405162461bcd60e51b815260206004820152602660248201527f63616c6c6572206973206e6f7420746f6b656e206f776e6572206e6f722061706044820152651c1c9bdd995960d21b60648201526084015b60405180910390fd5b60006105e38585610aca565b9050828110156106355760405162461bcd60e51b815260206004820152601b60248201527f6275726e20616d6f756e7420657863656564732062616c616e6365000000000060448201526064016105ce565b61063f8382611856565b60008681526002602090815260408083208884529091528082209290925590518491869188917f5af801e983cfd842de8b0797a2d6077db3ac2dea16571e0c7f5080291ca1b93491a45050505050565b60008181526004602052604090208054606091906106ac9061186d565b80601f01602080910402602001604051908101604052809291908181526020018280546106d89061186d565b80156107255780601f106106fa57610100808354040283529160200191610725565b820191906000526020600020905b81548152906001019060200180831161070857829003601f168201915b50505050509050919050565b7f9f2df0fed2c77648de5860a4cc508cd0818c85b8b8a1ab4ceeef8d981c8956a661075b81610bf5565b6107658383610c02565b505050565b7f9f2df0fed2c77648de5860a4cc508cd0818c85b8b8a1ab4ceeef8d981c8956a661079481610bf5565b826107e15760405162461bcd60e51b815260206004820152601c60248201527f6d696e7420746f20746865207a65726f2063686172616374657249640000000060448201526064016105ce565b6000838152600260209081526040808320858452909152812080546001929061080b908490611806565b9091555050604051600190839085907f070aa035fe0a09f0d9305bdc2d7a5d93cd4733db3b1ff869b4a7033c9501909a90600090a4505050565b60405162461bcd60e51b815260206004820152601060248201526f6e6f6e2d7472616e7366657261626c6560801b60448201526064016105ce565b60008281526020819052604090206001015461089b81610bf5565b6107658383610c66565b6001600160a01b03811633146109155760405162461bcd60e51b815260206004820152602f60248201527f416363657373436f6e74726f6c3a2063616e206f6e6c792072656e6f756e636560448201526e103937b632b9903337b91039b2b63360891b60648201526084016105ce565b61091f8282610c88565b5050565b606081518351146109765760405162461bcd60e51b815260206004820181905260248201527f6163636f756e747320616e6420696473206c656e677468206d69736d6174636860448201526064016105ce565b6000835167ffffffffffffffff81111561099257610992611368565b6040519080825280602002602001820160405280156109bb578160200160208202803683370190505b50905060005b8451811015610a3357610a068582815181106109df576109df6118a8565b60200260200101518583815181106109f9576109f96118a8565b602002602001015161037c565b828281518110610a1857610a186118a8565b6020908102919091010152610a2c8161181e565b90506109c1565b509392505050565b6000828152600160205260408120610a539083610caa565b9392505050565b6000918252602082815260408084206001600160a01b0393909316845291905290205460ff1690565b61091f338383610cb6565b60008181526001602052604081206104e590610d97565b600082815260208190526040902060010154610ac081610bf5565b6107658383610c88565b600082610b195760405162461bcd60e51b815260206004820152601960248201527f7a65726f206973206e6f7420612076616c6964206f776e65720000000000000060448201526064016105ce565b50600091825260026020908152604080842092845291905290205490565b610b418282610a5a565b61091f576000828152602081815260408083206001600160a01b03851684529091529020805460ff19166001179055610b773390565b6001600160a01b0316816001600160a01b0316837f2f8788117e7eff1d82e926ec794901d17c78024a50270940304540a733656f0d60405160405180910390a45050565b6000610a53836001600160a01b038416610da1565b60006001600160e01b03198216635a05180f60e01b14806104e557506104e582610df0565b610bff8133610e25565b50565b60008281526004602090815260409091208251610c21928401906111bc565b50817f6bb7ff708619ba0610cba295a58592e0451dee2622938c8755667688daf3529b610c4d8461068f565b604051610c5a9190611335565b60405180910390a25050565b610c708282610b37565b60008281526001602052604090206107659082610bbb565b610c928282610e89565b60008281526001602052604090206107659082610eee565b6000610a538383610f03565b816001600160a01b0316836001600160a01b03161415610d2a5760405162461bcd60e51b815260206004820152602960248201527f455243313135353a2073657474696e6720617070726f76616c20737461747573604482015268103337b91039b2b63360b91b60648201526084016105ce565b6001600160a01b03838116600081815260036020908152604080832094871680845294825291829020805460ff191686151590811790915591519182527f17307eab39ab6107e8899845ad3d59bd9653f200f220920489ca2b5937696c31910160405180910390a3505050565b60006104e5825490565b6000818152600183016020526040812054610de8575081546001818101845560008481526020808220909301849055845484825282860190935260409020919091556104e5565b5060006104e5565b60006001600160e01b03198216637965db0b60e01b14806104e557506301ffc9a760e01b6001600160e01b03198316146104e5565b610e2f8282610a5a565b61091f57610e47816001600160a01b03166014610f2d565b610e52836020610f2d565b604051602001610e639291906118be565b60408051601f198184030181529082905262461bcd60e51b82526105ce91600401611335565b610e938282610a5a565b1561091f576000828152602081815260408083206001600160a01b0385168085529252808320805460ff1916905551339285917ff6391f5c32d9c69d2a47ea670b442974b53935d1edc7fd64eb21e047a839171b9190a45050565b6000610a53836001600160a01b0384166110c9565b6000826000018281548110610f1a57610f1a6118a8565b9060005260206000200154905092915050565b60606000610f3c836002611933565b610f47906002611806565b67ffffffffffffffff811115610f5f57610f5f611368565b6040519080825280601f01601f191660200182016040528015610f89576020820181803683370190505b509050600360fc1b81600081518110610fa457610fa46118a8565b60200101906001600160f81b031916908160001a905350600f60fb1b81600181518110610fd357610fd36118a8565b60200101906001600160f81b031916908160001a9053506000610ff7846002611933565b611002906001611806565b90505b600181111561107a576f181899199a1a9b1b9c1cb0b131b232b360811b85600f1660108110611036576110366118a8565b1a60f81b82828151811061104c5761104c6118a8565b60200101906001600160f81b031916908160001a90535060049490941c9361107381611952565b9050611005565b508315610a535760405162461bcd60e51b815260206004820181905260248201527f537472696e67733a20686578206c656e67746820696e73756666696369656e7460448201526064016105ce565b600081815260018301602052604081205480156111b25760006110ed600183611856565b855490915060009061110190600190611856565b9050818114611166576000866000018281548110611121576111216118a8565b9060005260206000200154905080876000018481548110611144576111446118a8565b6000918252602080832090910192909255918252600188019052604090208390555b855486908061117757611177611969565b6001900381819060005260206000200160009055905585600101600086815260200190815260200160002060009055600193505050506104e5565b60009150506104e5565b8280546111c89061186d565b90600052602060002090601f0160209004810192826111ea5760008555611230565b82601f1061120357805160ff1916838001178555611230565b82800160010185558215611230579182015b82811115611230578251825591602001919060010190611215565b5061123c929150611240565b5090565b5b8082111561123c5760008155600101611241565b6001600160a01b0381168114610bff57600080fd5b6000806040838503121561127d57600080fd5b823561128881611255565b946020939093013593505050565b6000602082840312156112a857600080fd5b81356001600160e01b031981168114610a5357600080fd5b6000806000606084860312156112d557600080fd5b505081359360208301359350604090920135919050565b6000602082840312156112fe57600080fd5b5035919050565b60005b83811015611320578181015183820152602001611308565b8381111561132f576000848401525b50505050565b6020815260008251806020840152611354816040850160208701611305565b601f01601f19169190910160400192915050565b634e487b7160e01b600052604160045260246000fd5b604051601f8201601f1916810167ffffffffffffffff811182821017156113a7576113a7611368565b604052919050565b600067ffffffffffffffff8311156113c9576113c9611368565b6113dc601f8401601f191660200161137e565b90508281528383830111156113f057600080fd5b828260208301376000602084830101529392505050565b6000806040838503121561141a57600080fd5b82359150602083013567ffffffffffffffff81111561143857600080fd5b8301601f8101851361144957600080fd5b611458858235602084016113af565b9150509250929050565b6000806040838503121561147557600080fd5b50508035926020909101359150565b600067ffffffffffffffff82111561149e5761149e611368565b5060051b60200190565b600082601f8301126114b957600080fd5b813560206114ce6114c983611484565b61137e565b82815260059290921b840181019181810190868411156114ed57600080fd5b8286015b8481101561150857803583529183019183016114f1565b509695505050505050565b600082601f83011261152457600080fd5b610a53838335602085016113af565b600080600080600060a0868803121561154b57600080fd5b853561155681611255565b9450602086013561156681611255565b9350604086013567ffffffffffffffff8082111561158357600080fd5b61158f89838a016114a8565b945060608801359150808211156115a557600080fd5b6115b189838a016114a8565b935060808801359150808211156115c757600080fd5b506115d488828901611513565b9150509295509295909350565b600080604083850312156115f457600080fd5b82359150602083013561160681611255565b809150509250929050565b6000806040838503121561162457600080fd5b823567ffffffffffffffff8082111561163c57600080fd5b818501915085601f83011261165057600080fd5b813560206116606114c983611484565b82815260059290921b8401810191818101908984111561167f57600080fd5b948201945b838610156116a657853561169781611255565b82529482019490820190611684565b965050860135925050808211156116bc57600080fd5b50611458858286016114a8565b6020808252825182820181905260009190848201906040850190845b81811015611701578351835292840192918401916001016116e5565b50909695505050505050565b6000806040838503121561172057600080fd5b823561172b81611255565b91506020830135801515811461160657600080fd5b6000806040838503121561175357600080fd5b823561175e81611255565b9150602083013561160681611255565b600080600080600060a0868803121561178657600080fd5b853561179181611255565b945060208601356117a181611255565b93506040860135925060608601359150608086013567ffffffffffffffff8111156117cb57600080fd5b6115d488828901611513565b6000602082840312156117e957600080fd5b5051919050565b634e487b7160e01b600052601160045260246000fd5b60008219821115611819576118196117f0565b500190565b6000600019821415611832576118326117f0565b5060010190565b60006020828403121561184b57600080fd5b8151610a5381611255565b600082821015611868576118686117f0565b500390565b600181811c9082168061188157607f821691505b602082108114156118a257634e487b7160e01b600052602260045260246000fd5b50919050565b634e487b7160e01b600052603260045260246000fd5b7f416363657373436f6e74726f6c3a206163636f756e74200000000000000000008152600083516118f6816017850160208801611305565b7001034b99036b4b9b9b4b733903937b6329607d1b6017918401918201528351611927816028840160208801611305565b01602801949350505050565b600081600019048311821515161561194d5761194d6117f0565b500290565b600081611961576119616117f0565b506000190190565b634e487b7160e01b600052603160045260246000fdfea264697066735822122069dd468d9f3fc7a6ea5e246011117d5b204b332618824899460ae6d2e1312f9e64736f6c634300080a0033",
  "linkReferences": {},
  "deployedLinkReferences": {}
}