{
  "_format": "hh-sol-artifact-1",
  "contractName": "LimitedMintModule",
  "sourceName": "contracts/modules/mint/LimitedMintModule.sol",
  "abi": [
    {
      "inputs": [
        {
          "internalType": "address",
          "name": "web3Entry_",
          "type": "address"
        }
      ],
      "stateMutability": "nonpayable",
      "type": "constructor"
    },
    {
      "inputs": [],
      "name": "ErrCallerNotWeb3Entry",
      "type": "error"
    },
    {
      "inputs": [],
      "name": "ErrExceedApproval",
      "type": "error"
    },
    {
      "inputs": [],
      "name": "ErrExceedMaxSupply",
      "type": "error"
    },
    {
      "inputs": [],
      "name": "ErrInvalidWeb3Entry",
      "type": "error"
    },
    {
      "inputs": [
        {
          "internalType": "uint256",
          "name": "characterId",
          "type": "uint256"
        },
        {
          "internalType": "uint256",
          "name": "noteId",
          "type": "uint256"
        },
        {
          "internalType": "address",
          "name": "account",
          "type": "address"
        }
      ],
      "name": "getLimitedMintInfo",
      "outputs": [
        {
          "internalType": "uint256",
          "name": "maxSupply",
          "type": "uint256"
        },
        {
          "internalType": "uint256",
          "name": "currentSupply",
          "type": "uint256"
        },
        {
          "internalType": "uint256",
          "name": "approvedAmount4EachAddress",
          "type": "uint256"
        },
        {
          "internalType": "uint256",
          "name": "mintedAmount",
          "type": "uint256"
        }
      ],
      "stateMutability": "view",
      "type": "function"
    },
    {
      "inputs": [
        {
          "internalType": "uint256",
          "name": "characterId",
          "type": "uint256"
        },
        {
          "internalType": "uint256",
          "name": "noteId",
          "type": "uint256"
        },
        {
          "internalType": "bytes",
          "name": "data",
          "type": "bytes"
        }
      ],
      "name": "initializeMintModule",
      "outputs": [
        {
          "internalType": "bytes",
          "name": "",
          "type": "bytes"
        }
      ],
      "stateMutability": "nonpayable",
      "type": "function"
    },
    {
      "inputs": [
        {
          "internalType": "address",
          "name": "to",
          "type": "address"
        },
        {
          "internalType": "uint256",
          "name": "characterId",
          "type": "uint256"
        },
        {
          "internalType": "uint256",
          "name": "noteId",
          "type": "uint256"
        },
        {
          "internalType": "bytes",
          "name": "",
          "type": "bytes"
        }
      ],
      "name": "processMint",
      "outputs": [],
      "stateMutability": "nonpayable",
      "type": "function"
    },
    {
      "inputs": [],
      "name": "web3Entry",
      "outputs": [
        {
          "internalType": "address",
          "name": "",
          "type": "address"
        }
      ],
      "stateMutability": "view",
      "type": "function"
    }
  ],
  "bytecode": "0x60a060405234801561001057600080fd5b5060405161062138038061062183398101604081905261002f91610069565b806001600160a01b03811661005757604051630acbf3f760e11b815260040160405180910390fd5b6001600160a01b031660805250610099565b60006020828403121561007b57600080fd5b81516001600160a01b038116811461009257600080fd5b9392505050565b60805161055f6100c2600039600081816101140152818161015b015261021c015261055f6000f3fe608060405234801561001057600080fd5b506004361061004c5760003560e01c80637dd37a9e146100515780637f20dc211461007a57806382688b1e1461008f578063e13322721461010f575b600080fd5b61006461005f366004610386565b61014e565b60405161007191906103d9565b60405180910390f35b61008d610088366004610443565b610211565b005b6100ef61009d3660046104ab565b6000838152602081815260408083208584528252808320805460018083015460029093015498865284528285209685529583528184206001600160a01b03909516845293909152902054919390929190565b604080519485526020850193909352918301526060820152608001610071565b6101367f000000000000000000000000000000000000000000000000000000000000000081565b6040516001600160a01b039091168152602001610071565b6060336001600160a01b037f00000000000000000000000000000000000000000000000000000000000000001614610199576040516302b6341b60e41b815260040160405180910390fd5b81156101d1576000806101ae848601866104e0565b6000898152602081815260408083208b8452909152902091825560029091015550505b82828080601f0160208091040260200160405190810160405280939291908181526020018383808284376000920191909152509298975050505050505050565b336001600160a01b037f0000000000000000000000000000000000000000000000000000000000000000161461025a576040516302b6341b60e41b815260040160405180910390fd5b6000848152602081815260408083208684529091529020805460018201541061029657604051632f8c644560e21b815260040160405180910390fd5b6002810154600086815260016020908152604080832088845282528083206001600160a01b038b168452909152902054106102e4576040516334c21ddd60e01b815260040160405180910390fd5b80600101600081546102f590610502565b90915550600085815260016020908152604080832087845282528083206001600160a01b038a1684529091528120805490919061033190610502565b90915550505050505050565b60008083601f84011261034f57600080fd5b50813567ffffffffffffffff81111561036757600080fd5b60208301915083602082850101111561037f57600080fd5b9250929050565b6000806000806060858703121561039c57600080fd5b8435935060208501359250604085013567ffffffffffffffff8111156103c157600080fd5b6103cd8782880161033d565b95989497509550505050565b600060208083528351808285015260005b81811015610406578581018301518582016040015282016103ea565b506000604082860101526040601f19601f8301168501019250505092915050565b80356001600160a01b038116811461043e57600080fd5b919050565b60008060008060006080868803121561045b57600080fd5b61046486610427565b94506020860135935060408601359250606086013567ffffffffffffffff81111561048e57600080fd5b61049a8882890161033d565b969995985093965092949392505050565b6000806000606084860312156104c057600080fd5b83359250602084013591506104d760408501610427565b90509250925092565b600080604083850312156104f357600080fd5b50508035926020909101359150565b60006001820161052257634e487b7160e01b600052601160045260246000fd5b506001019056fea264697066735822122080335b3cce2466c633e1b98f481f4bb7bef36d807bf739ce7d05b1695fa8d06264736f6c63430008100033",
  "linkReferences": {},
  "deployedLinkReferences": {}
}