{
  "_format": "hh-sol-artifact-1",
  "contractName": "Linklist",
  "sourceName": "contracts/Linklist.sol",
  "abi": [
    {
      "inputs": [],
      "name": "ErrCallerNotWeb3Entry",
      "type": "error"
    },
    {
      "inputs": [],
      "name": "ErrCallerNotWeb3EntryOrNotOwner",
      "type": "error"
    },
    {
      "inputs": [],
      "name": "ErrNotOwner",
      "type": "error"
    },
    {
      "anonymous": false,
      "inputs": [
        {
          "indexed": true,
          "internalType": "address",
          "name": "owner",
          "type": "address"
        },
        {
          "indexed": true,
          "internalType": "address",
          "name": "approved",
          "type": "address"
        },
        {
          "indexed": true,
          "internalType": "uint256",
          "name": "tokenId",
          "type": "uint256"
        }
      ],
      "name": "Approval",
      "type": "event"
    },
    {
      "anonymous": false,
      "inputs": [
        {
          "indexed": true,
          "internalType": "address",
          "name": "owner",
          "type": "address"
        },
        {
          "indexed": true,
          "internalType": "address",
          "name": "operator",
          "type": "address"
        },
        {
          "indexed": false,
          "internalType": "bool",
          "name": "approved",
          "type": "bool"
        }
      ],
      "name": "ApprovalForAll",
      "type": "event"
    },
    {
      "anonymous": false,
      "inputs": [
        {
          "indexed": true,
          "internalType": "address",
          "name": "from",
          "type": "address"
        },
        {
          "indexed": true,
          "internalType": "uint256",
          "name": "characterId",
          "type": "uint256"
        },
        {
          "indexed": true,
          "internalType": "uint256",
          "name": "tokenId",
          "type": "uint256"
        }
      ],
      "name": "Burn",
      "type": "event"
    },
    {
      "anonymous": false,
      "inputs": [
        {
          "indexed": false,
          "internalType": "uint8",
          "name": "version",
          "type": "uint8"
        }
      ],
      "name": "Initialized",
      "type": "event"
    },
    {
      "anonymous": false,
      "inputs": [
        {
          "indexed": true,
          "internalType": "address",
          "name": "from",
          "type": "address"
        },
        {
          "indexed": true,
          "internalType": "uint256",
          "name": "characterId",
          "type": "uint256"
        },
        {
          "indexed": true,
          "internalType": "uint256",
          "name": "tokenId",
          "type": "uint256"
        }
      ],
      "name": "Transfer",
      "type": "event"
    },
    {
      "anonymous": false,
      "inputs": [
        {
          "indexed": true,
          "internalType": "address",
          "name": "from",
          "type": "address"
        },
        {
          "indexed": true,
          "internalType": "address",
          "name": "to",
          "type": "address"
        },
        {
          "indexed": true,
          "internalType": "uint256",
          "name": "tokenId",
          "type": "uint256"
        }
      ],
      "name": "Transfer",
      "type": "event"
    },
    {
      "inputs": [
        {
          "internalType": "uint256",
          "name": "tokenId",
          "type": "uint256"
        }
      ],
      "name": "Uri",
      "outputs": [
        {
          "internalType": "string",
          "name": "",
          "type": "string"
        }
      ],
      "stateMutability": "view",
      "type": "function"
    },
    {
      "inputs": [],
      "name": "Web3Entry",
      "outputs": [
        {
          "internalType": "address",
          "name": "",
          "type": "address"
        }
      ],
      "stateMutability": "view",
      "type": "function"
    },
    {
      "inputs": [
        {
          "internalType": "uint256",
          "name": "tokenId",
          "type": "uint256"
        },
        {
          "internalType": "address",
          "name": "ethAddress",
          "type": "address"
        }
      ],
      "name": "addLinkingAddress",
      "outputs": [],
      "stateMutability": "nonpayable",
      "type": "function"
    },
    {
      "inputs": [
        {
          "internalType": "uint256",
          "name": "tokenId",
          "type": "uint256"
        },
        {
          "internalType": "string",
          "name": "toUri",
          "type": "string"
        }
      ],
      "name": "addLinkingAnyUri",
      "outputs": [
        {
          "internalType": "bytes32",
          "name": "",
          "type": "bytes32"
        }
      ],
      "stateMutability": "nonpayable",
      "type": "function"
    },
    {
      "inputs": [
        {
          "internalType": "uint256",
          "name": "tokenId",
          "type": "uint256"
        },
        {
          "internalType": "uint256",
          "name": "toCharacterId",
          "type": "uint256"
        }
      ],
      "name": "addLinkingCharacterId",
      "outputs": [],
      "stateMutability": "nonpayable",
      "type": "function"
    },
    {
      "inputs": [
        {
          "internalType": "uint256",
          "name": "tokenId",
          "type": "uint256"
        },
        {
          "components": [
            {
              "internalType": "uint256",
              "name": "fromCharacterId",
              "type": "uint256"
            },
            {
              "internalType": "uint256",
              "name": "toCharacterId",
              "type": "uint256"
            },
            {
              "internalType": "bytes32",
              "name": "linkType",
              "type": "bytes32"
            }
          ],
          "internalType": "struct DataTypes.CharacterLinkStruct",
          "name": "linkData",
          "type": "tuple"
        }
      ],
      "name": "addLinkingCharacterLink",
      "outputs": [],
      "stateMutability": "nonpayable",
      "type": "function"
    },
    {
      "inputs": [
        {
          "internalType": "uint256",
          "name": "tokenId",
          "type": "uint256"
        },
        {
          "internalType": "address",
          "name": "tokenAddress",
          "type": "address"
        },
        {
          "internalType": "uint256",
          "name": "erc721TokenId",
          "type": "uint256"
        }
      ],
      "name": "addLinkingERC721",
      "outputs": [
        {
          "internalType": "bytes32",
          "name": "",
          "type": "bytes32"
        }
      ],
      "stateMutability": "nonpayable",
      "type": "function"
    },
    {
      "inputs": [
        {
          "internalType": "uint256",
          "name": "tokenId",
          "type": "uint256"
        },
        {
          "internalType": "uint256",
          "name": "linklistId",
          "type": "uint256"
        }
      ],
      "name": "addLinkingLinklistId",
      "outputs": [],
      "stateMutability": "nonpayable",
      "type": "function"
    },
    {
      "inputs": [
        {
          "internalType": "uint256",
          "name": "tokenId",
          "type": "uint256"
        },
        {
          "internalType": "uint256",
          "name": "toCharacterId",
          "type": "uint256"
        },
        {
          "internalType": "uint256",
          "name": "toNoteId",
          "type": "uint256"
        }
      ],
      "name": "addLinkingNote",
      "outputs": [
        {
          "internalType": "bytes32",
          "name": "",
          "type": "bytes32"
        }
      ],
      "stateMutability": "nonpayable",
      "type": "function"
    },
    {
      "inputs": [
        {
          "internalType": "address",
          "name": "to",
          "type": "address"
        },
        {
          "internalType": "uint256",
          "name": "tokenId",
          "type": "uint256"
        }
      ],
      "name": "approve",
      "outputs": [],
      "stateMutability": "nonpayable",
      "type": "function"
    },
    {
      "inputs": [
        {
          "internalType": "address",
          "name": "account",
          "type": "address"
        }
      ],
      "name": "balanceOf",
      "outputs": [
        {
          "internalType": "uint256",
          "name": "balance",
          "type": "uint256"
        }
      ],
      "stateMutability": "view",
      "type": "function"
    },
    {
      "inputs": [
        {
          "internalType": "uint256",
          "name": "characterId",
          "type": "uint256"
        }
      ],
      "name": "balanceOf",
      "outputs": [
        {
          "internalType": "uint256",
          "name": "",
          "type": "uint256"
        }
      ],
      "stateMutability": "view",
      "type": "function"
    },
    {
      "inputs": [
        {
          "internalType": "uint256",
          "name": "tokenId",
          "type": "uint256"
        }
      ],
      "name": "burn",
      "outputs": [],
      "stateMutability": "nonpayable",
      "type": "function"
    },
    {
      "inputs": [
        {
          "internalType": "uint256",
          "name": "tokenId",
          "type": "uint256"
        }
      ],
      "name": "characterOwnerOf",
      "outputs": [
        {
          "internalType": "uint256",
          "name": "",
          "type": "uint256"
        }
      ],
      "stateMutability": "view",
      "type": "function"
    },
    {
      "inputs": [
        {
          "internalType": "uint256",
          "name": "tokenId",
          "type": "uint256"
        }
      ],
      "name": "getApproved",
      "outputs": [
        {
          "internalType": "address",
          "name": "",
          "type": "address"
        }
      ],
      "stateMutability": "view",
      "type": "function"
    },
    {
      "inputs": [
        {
          "internalType": "uint256",
          "name": "tokenId",
          "type": "uint256"
        }
      ],
      "name": "getCurrentTakeOver",
      "outputs": [
        {
          "internalType": "uint256",
          "name": "",
          "type": "uint256"
        }
      ],
      "stateMutability": "view",
      "type": "function"
    },
    {
      "inputs": [
        {
          "internalType": "uint256",
          "name": "tokenId",
          "type": "uint256"
        }
      ],
      "name": "getLinkType",
      "outputs": [
        {
          "internalType": "bytes32",
          "name": "",
          "type": "bytes32"
        }
      ],
      "stateMutability": "view",
      "type": "function"
    },
    {
      "inputs": [
        {
          "internalType": "uint256",
          "name": "tokenId",
          "type": "uint256"
        }
      ],
      "name": "getLinkingAddressListLength",
      "outputs": [
        {
          "internalType": "uint256",
          "name": "",
          "type": "uint256"
        }
      ],
      "stateMutability": "view",
      "type": "function"
    },
    {
      "inputs": [
        {
          "internalType": "uint256",
          "name": "tokenId",
          "type": "uint256"
        }
      ],
      "name": "getLinkingAddresses",
      "outputs": [
        {
          "internalType": "address[]",
          "name": "",
          "type": "address[]"
        }
      ],
      "stateMutability": "view",
      "type": "function"
    },
    {
      "inputs": [
        {
          "internalType": "uint256",
          "name": "tokenId",
          "type": "uint256"
        }
      ],
      "name": "getLinkingAnyListLength",
      "outputs": [
        {
          "internalType": "uint256",
          "name": "",
          "type": "uint256"
        }
      ],
      "stateMutability": "view",
      "type": "function"
    },
    {
      "inputs": [
        {
          "internalType": "bytes32",
          "name": "linkKey",
          "type": "bytes32"
        }
      ],
      "name": "getLinkingAnyUri",
      "outputs": [
        {
          "internalType": "string",
          "name": "",
          "type": "string"
        }
      ],
      "stateMutability": "view",
      "type": "function"
    },
    {
      "inputs": [
        {
          "internalType": "uint256",
          "name": "tokenId",
          "type": "uint256"
        }
      ],
      "name": "getLinkingAnyUriKeys",
      "outputs": [
        {
          "internalType": "bytes32[]",
          "name": "",
          "type": "bytes32[]"
        }
      ],
      "stateMutability": "view",
      "type": "function"
    },
    {
      "inputs": [
        {
          "internalType": "uint256",
          "name": "tokenId",
          "type": "uint256"
        }
      ],
      "name": "getLinkingAnyUris",
      "outputs": [
        {
          "internalType": "string[]",
          "name": "results",
          "type": "string[]"
        }
      ],
      "stateMutability": "view",
      "type": "function"
    },
    {
      "inputs": [
        {
          "internalType": "uint256",
          "name": "tokenId",
          "type": "uint256"
        }
      ],
      "name": "getLinkingCharacterIds",
      "outputs": [
        {
          "internalType": "uint256[]",
          "name": "",
          "type": "uint256[]"
        }
      ],
      "stateMutability": "view",
      "type": "function"
    },
    {
      "inputs": [
        {
          "internalType": "bytes32",
          "name": "linkKey",
          "type": "bytes32"
        }
      ],
      "name": "getLinkingCharacterLink",
      "outputs": [
        {
          "components": [
            {
              "internalType": "uint256",
              "name": "fromCharacterId",
              "type": "uint256"
            },
            {
              "internalType": "uint256",
              "name": "toCharacterId",
              "type": "uint256"
            },
            {
              "internalType": "bytes32",
              "name": "linkType",
              "type": "bytes32"
            }
          ],
          "internalType": "struct DataTypes.CharacterLinkStruct",
          "name": "",
          "type": "tuple"
        }
      ],
      "stateMutability": "view",
      "type": "function"
    },
    {
      "inputs": [
        {
          "internalType": "uint256",
          "name": "tokenId",
          "type": "uint256"
        }
      ],
      "name": "getLinkingCharacterLinkListLength",
      "outputs": [
        {
          "internalType": "uint256",
          "name": "",
          "type": "uint256"
        }
      ],
      "stateMutability": "view",
      "type": "function"
    },
    {
      "inputs": [
        {
          "internalType": "uint256",
          "name": "tokenId",
          "type": "uint256"
        }
      ],
      "name": "getLinkingCharacterLinks",
      "outputs": [
        {
          "components": [
            {
              "internalType": "uint256",
              "name": "fromCharacterId",
              "type": "uint256"
            },
            {
              "internalType": "uint256",
              "name": "toCharacterId",
              "type": "uint256"
            },
            {
              "internalType": "bytes32",
              "name": "linkType",
              "type": "bytes32"
            }
          ],
          "internalType": "struct DataTypes.CharacterLinkStruct[]",
          "name": "results",
          "type": "tuple[]"
        }
      ],
      "stateMutability": "view",
      "type": "function"
    },
    {
      "inputs": [
        {
          "internalType": "uint256",
          "name": "tokenId",
          "type": "uint256"
        }
      ],
      "name": "getLinkingCharacterListLength",
      "outputs": [
        {
          "internalType": "uint256",
          "name": "",
          "type": "uint256"
        }
      ],
      "stateMutability": "view",
      "type": "function"
    },
    {
      "inputs": [
        {
          "internalType": "bytes32",
          "name": "linkKey",
          "type": "bytes32"
        }
      ],
      "name": "getLinkingERC721",
      "outputs": [
        {
          "components": [
            {
              "internalType": "address",
              "name": "tokenAddress",
              "type": "address"
            },
            {
              "internalType": "uint256",
              "name": "erc721TokenId",
              "type": "uint256"
            }
          ],
          "internalType": "struct DataTypes.ERC721Struct",
          "name": "",
          "type": "tuple"
        }
      ],
      "stateMutability": "view",
      "type": "function"
    },
    {
      "inputs": [
        {
          "internalType": "uint256",
          "name": "tokenId",
          "type": "uint256"
        }
      ],
      "name": "getLinkingERC721ListLength",
      "outputs": [
        {
          "internalType": "uint256",
          "name": "",
          "type": "uint256"
        }
      ],
      "stateMutability": "view",
      "type": "function"
    },
    {
      "inputs": [
        {
          "internalType": "uint256",
          "name": "tokenId",
          "type": "uint256"
        }
      ],
      "name": "getLinkingERC721s",
      "outputs": [
        {
          "components": [
            {
              "internalType": "address",
              "name": "tokenAddress",
              "type": "address"
            },
            {
              "internalType": "uint256",
              "name": "erc721TokenId",
              "type": "uint256"
            }
          ],
          "internalType": "struct DataTypes.ERC721Struct[]",
          "name": "results",
          "type": "tuple[]"
        }
      ],
      "stateMutability": "view",
      "type": "function"
    },
    {
      "inputs": [
        {
          "internalType": "uint256",
          "name": "tokenId",
          "type": "uint256"
        }
      ],
      "name": "getLinkingLinklistIds",
      "outputs": [
        {
          "internalType": "uint256[]",
          "name": "",
          "type": "uint256[]"
        }
      ],
      "stateMutability": "view",
      "type": "function"
    },
    {
      "inputs": [
        {
          "internalType": "uint256",
          "name": "tokenId",
          "type": "uint256"
        }
      ],
      "name": "getLinkingLinklistLength",
      "outputs": [
        {
          "internalType": "uint256",
          "name": "",
          "type": "uint256"
        }
      ],
      "stateMutability": "view",
      "type": "function"
    },
    {
      "inputs": [
        {
          "internalType": "bytes32",
          "name": "linkKey",
          "type": "bytes32"
        }
      ],
      "name": "getLinkingNote",
      "outputs": [
        {
          "components": [
            {
              "internalType": "uint256",
              "name": "characterId",
              "type": "uint256"
            },
            {
              "internalType": "uint256",
              "name": "noteId",
              "type": "uint256"
            }
          ],
          "internalType": "struct DataTypes.NoteStruct",
          "name": "",
          "type": "tuple"
        }
      ],
      "stateMutability": "view",
      "type": "function"
    },
    {
      "inputs": [
        {
          "internalType": "uint256",
          "name": "tokenId",
          "type": "uint256"
        }
      ],
      "name": "getLinkingNoteListLength",
      "outputs": [
        {
          "internalType": "uint256",
          "name": "",
          "type": "uint256"
        }
      ],
      "stateMutability": "view",
      "type": "function"
    },
    {
      "inputs": [
        {
          "internalType": "uint256",
          "name": "tokenId",
          "type": "uint256"
        }
      ],
      "name": "getLinkingNotes",
      "outputs": [
        {
          "components": [
            {
              "internalType": "uint256",
              "name": "characterId",
              "type": "uint256"
            },
            {
              "internalType": "uint256",
              "name": "noteId",
              "type": "uint256"
            }
          ],
          "internalType": "struct DataTypes.NoteStruct[]",
          "name": "results",
          "type": "tuple[]"
        }
      ],
      "stateMutability": "view",
      "type": "function"
    },
    {
      "inputs": [
        {
          "internalType": "uint256",
          "name": "tokenId",
          "type": "uint256"
        }
      ],
      "name": "getOwnerCharacterId",
      "outputs": [
        {
          "internalType": "uint256",
          "name": "",
          "type": "uint256"
        }
      ],
      "stateMutability": "view",
      "type": "function"
    },
    {
      "inputs": [
        {
          "internalType": "string",
          "name": "name_",
          "type": "string"
        },
        {
          "internalType": "string",
          "name": "symbol_",
          "type": "string"
        },
        {
          "internalType": "address",
          "name": "web3Entry_",
          "type": "address"
        }
      ],
      "name": "initialize",
      "outputs": [],
      "stateMutability": "nonpayable",
      "type": "function"
    },
    {
      "inputs": [
        {
          "internalType": "address",
          "name": "owner",
          "type": "address"
        },
        {
          "internalType": "address",
          "name": "operator",
          "type": "address"
        }
      ],
      "name": "isApprovedForAll",
      "outputs": [
        {
          "internalType": "bool",
          "name": "",
          "type": "bool"
        }
      ],
      "stateMutability": "view",
      "type": "function"
    },
    {
      "inputs": [
        {
          "internalType": "uint256",
          "name": "characterId",
          "type": "uint256"
        },
        {
          "internalType": "bytes32",
          "name": "linkType",
          "type": "bytes32"
        }
      ],
      "name": "mint",
      "outputs": [
        {
          "internalType": "uint256",
          "name": "tokenId",
          "type": "uint256"
        }
      ],
      "stateMutability": "nonpayable",
      "type": "function"
    },
    {
      "inputs": [],
      "name": "name",
      "outputs": [
        {
          "internalType": "string",
          "name": "",
          "type": "string"
        }
      ],
      "stateMutability": "view",
      "type": "function"
    },
    {
      "inputs": [
        {
          "internalType": "uint256",
          "name": "tokenId",
          "type": "uint256"
        }
      ],
      "name": "ownerOf",
      "outputs": [
        {
          "internalType": "address",
          "name": "",
          "type": "address"
        }
      ],
      "stateMutability": "view",
      "type": "function"
    },
    {
      "inputs": [
        {
          "internalType": "uint256",
          "name": "tokenId",
          "type": "uint256"
        },
        {
          "internalType": "address",
          "name": "ethAddress",
          "type": "address"
        }
      ],
      "name": "removeLinkingAddress",
      "outputs": [],
      "stateMutability": "nonpayable",
      "type": "function"
    },
    {
      "inputs": [
        {
          "internalType": "uint256",
          "name": "tokenId",
          "type": "uint256"
        },
        {
          "internalType": "string",
          "name": "toUri",
          "type": "string"
        }
      ],
      "name": "removeLinkingAnyUri",
      "outputs": [],
      "stateMutability": "nonpayable",
      "type": "function"
    },
    {
      "inputs": [
        {
          "internalType": "uint256",
          "name": "tokenId",
          "type": "uint256"
        },
        {
          "internalType": "uint256",
          "name": "toCharacterId",
          "type": "uint256"
        }
      ],
      "name": "removeLinkingCharacterId",
      "outputs": [],
      "stateMutability": "nonpayable",
      "type": "function"
    },
    {
      "inputs": [
        {
          "internalType": "uint256",
          "name": "tokenId",
          "type": "uint256"
        },
        {
          "components": [
            {
              "internalType": "uint256",
              "name": "fromCharacterId",
              "type": "uint256"
            },
            {
              "internalType": "uint256",
              "name": "toCharacterId",
              "type": "uint256"
            },
            {
              "internalType": "bytes32",
              "name": "linkType",
              "type": "bytes32"
            }
          ],
          "internalType": "struct DataTypes.CharacterLinkStruct",
          "name": "linkData",
          "type": "tuple"
        }
      ],
      "name": "removeLinkingCharacterLink",
      "outputs": [],
      "stateMutability": "nonpayable",
      "type": "function"
    },
    {
      "inputs": [
        {
          "internalType": "uint256",
          "name": "tokenId",
          "type": "uint256"
        },
        {
          "internalType": "address",
          "name": "tokenAddress",
          "type": "address"
        },
        {
          "internalType": "uint256",
          "name": "erc721TokenId",
          "type": "uint256"
        }
      ],
      "name": "removeLinkingERC721",
      "outputs": [],
      "stateMutability": "nonpayable",
      "type": "function"
    },
    {
      "inputs": [
        {
          "internalType": "uint256",
          "name": "tokenId",
          "type": "uint256"
        },
        {
          "internalType": "uint256",
          "name": "linklistId",
          "type": "uint256"
        }
      ],
      "name": "removeLinkingLinklistId",
      "outputs": [],
      "stateMutability": "nonpayable",
      "type": "function"
    },
    {
      "inputs": [
        {
          "internalType": "uint256",
          "name": "tokenId",
          "type": "uint256"
        },
        {
          "internalType": "uint256",
          "name": "toCharacterId",
          "type": "uint256"
        },
        {
          "internalType": "uint256",
          "name": "toNoteId",
          "type": "uint256"
        }
      ],
      "name": "removeLinkingNote",
      "outputs": [],
      "stateMutability": "nonpayable",
      "type": "function"
    },
    {
      "inputs": [
        {
          "internalType": "address",
          "name": "from",
          "type": "address"
        },
        {
          "internalType": "address",
          "name": "to",
          "type": "address"
        },
        {
          "internalType": "uint256",
          "name": "tokenId",
          "type": "uint256"
        }
      ],
      "name": "safeTransferFrom",
      "outputs": [],
      "stateMutability": "nonpayable",
      "type": "function"
    },
    {
      "inputs": [
        {
          "internalType": "address",
          "name": "from",
          "type": "address"
        },
        {
          "internalType": "address",
          "name": "to",
          "type": "address"
        },
        {
          "internalType": "uint256",
          "name": "tokenId",
          "type": "uint256"
        },
        {
          "internalType": "bytes",
          "name": "_data",
          "type": "bytes"
        }
      ],
      "name": "safeTransferFrom",
      "outputs": [],
      "stateMutability": "nonpayable",
      "type": "function"
    },
    {
      "inputs": [
        {
          "internalType": "address",
          "name": "operator",
          "type": "address"
        },
        {
          "internalType": "bool",
          "name": "approved",
          "type": "bool"
        }
      ],
      "name": "setApprovalForAll",
      "outputs": [],
      "stateMutability": "nonpayable",
      "type": "function"
    },
    {
      "inputs": [
        {
          "internalType": "uint256",
          "name": "tokenId",
          "type": "uint256"
        },
        {
          "internalType": "string",
          "name": "newUri",
          "type": "string"
        }
      ],
      "name": "setUri",
      "outputs": [],
      "stateMutability": "nonpayable",
      "type": "function"
    },
    {
      "inputs": [
        {
          "internalType": "bytes4",
          "name": "interfaceId",
          "type": "bytes4"
        }
      ],
      "name": "supportsInterface",
      "outputs": [
        {
          "internalType": "bool",
          "name": "",
          "type": "bool"
        }
      ],
      "stateMutability": "view",
      "type": "function"
    },
    {
      "inputs": [],
      "name": "symbol",
      "outputs": [
        {
          "internalType": "string",
          "name": "",
          "type": "string"
        }
      ],
      "stateMutability": "view",
      "type": "function"
    },
    {
      "inputs": [
        {
          "internalType": "uint256",
          "name": "tokenId",
          "type": "uint256"
        }
      ],
      "name": "tokenURI",
      "outputs": [
        {
          "internalType": "string",
          "name": "",
          "type": "string"
        }
      ],
      "stateMutability": "view",
      "type": "function"
    },
    {
      "inputs": [],
      "name": "totalSupply",
      "outputs": [
        {
          "internalType": "uint256",
          "name": "",
          "type": "uint256"
        }
      ],
      "stateMutability": "view",
      "type": "function"
    },
    {
      "inputs": [
        {
          "internalType": "address",
          "name": "from",
          "type": "address"
        },
        {
          "internalType": "address",
          "name": "to",
          "type": "address"
        },
        {
          "internalType": "uint256",
          "name": "tokenId",
          "type": "uint256"
        }
      ],
      "name": "transferFrom",
      "outputs": [],
      "stateMutability": "nonpayable",
      "type": "function"
    }
  ],
  "bytecode": "0x608060405234801561001057600080fd5b50613104806100206000396000f3fe608060405234801561001057600080fd5b506004361061038d5760003560e01c80636352211e116101de578063a22cb4651161010f578063c70881c5116100ad578063e985e9c51161007c578063e985e9c514610908578063ed386e6514610944578063ed6223cf14610957578063f61087f61461096a57600080fd5b8063c70881c5146108c2578063c87b56dd146108d5578063cf101ac21461077c578063e64f2baa146108e857600080fd5b8063ba27f58d116100e9578063ba27f58d14610876578063c1cd4f8214610889578063c49819861461089c578063c5a5ed51146108af57600080fd5b8063a22cb4651461083d578063ac150a5414610850578063b88d4fde1461086357600080fd5b8063782f08ae1161017c5780639037c0f9116101565780639037c0f9146107e257806395d89b411461080257806397ce7df61461080a5780639cc7f7081461081d57600080fd5b8063782f08ae1461079c57806384bd9b67146107af5780638fd6dc39146107cf57600080fd5b80636d37d274116101b85780636d37d2741461073657806370a082311461074957806376bac0251461075c5780637803f2171461077c57600080fd5b80636352211e146106fd57806368e67d57146107105780636c217e121461072357600080fd5b80632ce83d87116102c35780634a7906b9116102615780635c369ec3116102305780635c369ec3146106975780635cb46be7146106b75780635e9f678b146106ca5780635f799cc6146106ea57600080fd5b80634a7906b9146105b65780634aa7b87a1461060f5780635440522b146106225780635956da731461068457600080fd5b806342966c681161029d57806342966c681461056957806342c1721f1461057c57806348d1b16c1461058f578063493fa4dc146105a257600080fd5b80632ce83d87146105305780632ea24efc1461054357806342842e0e1461055657600080fd5b8063095ea7b31161033057806319ac741b1161030a57806319ac741b1461049157806321cb7227146104f757806323b872dd1461050a578063288893d61461051d57600080fd5b8063095ea7b3146104635780631801fbe51461047657806318160ddd1461048957600080fd5b8063040f76181161036c578063040f7618146103fd57806306fdde0314610410578063077f224a14610425578063081812fc1461043857600080fd5b8062fba0271461039257806301ffc9a7146103c55780630370a161146103e8575b600080fd5b6103b26103a03660046125d4565b6000908152600b602052604090205490565b6040519081526020015b60405180910390f35b6103d86103d33660046125ed565b61097d565b60405190151581526020016103bc565b6103fb6103f636600461262f565b6109cf565b005b6103fb61040b366004612667565b610a47565b610418610ac7565b6040516103bc91906126e3565b6103fb61043336600461273f565b610b59565b61044b6104463660046125d4565b610ca2565b6040516001600160a01b0390911681526020016103bc565b6103fb6104713660046127c3565b610d37565b6103b26104843660046127ef565b610e4c565b601e546103b2565b6104ea61049f3660046125d4565b60408051606080820183526000808352602080840182905292840181905293845260128252928290208251938401835280548452600181015491840191909152600201549082015290565b6040516103bc9190612811565b6103fb6105053660046127ef565b610f14565b6103fb610518366004612832565b610f57565b6103fb61052b3660046127ef565b610f7d565b6103b261053e3660046125d4565b610fc0565b6103b261055136600461262f565b610fd7565b6103fb610564366004612832565b6110a5565b6103fb6105773660046125d4565b6110c0565b6103fb61058a3660046128ee565b611171565b6103b261059d3660046125d4565b6111e6565b6103b26105b03660046125d4565b50600090565b6106026105c43660046125d4565b604080518082019091526000808252602082015250600090815260116020908152604091829020825180840190935280548352600101549082015290565b6040516103bc9190612949565b6103b261061d3660046125d4565b6111fd565b6106776106303660046125d4565b604080518082019091526000808252602082015250600090815260106020908152604091829020825180840190935280546001600160a01b03168352600101549082015290565b6040516103bc9190612960565b6103fb610692366004612980565b611214565b6106aa6106a53660046125d4565b611257565b6040516103bc91906129b0565b6103b26106c5366004612667565b611271565b6106dd6106d83660046125d4565b611331565b6040516103bc91906129fd565b6104186106f83660046125d4565b611444565b61044b61070b3660046125d4565b6114e6565b6103fb61071e366004612a54565b61156e565b6103b26107313660046128ee565b611606565b6103b26107443660046125d4565b6116a1565b6103b2610757366004612a8c565b6116b8565b61076f61076a3660046125d4565b6117df565b6040516103bc9190612aa9565b6103b261078a3660046125d4565b6000908152601c602052604090205490565b6103fb6107aa3660046128ee565b6117f9565b6107c26107bd3660046125d4565b611864565b6040516103bc9190612ae1565b6103b26107dd3660046125d4565b611980565b6107f56107f03660046125d4565b611997565b6040516103bc9190612b37565b610418611aa7565b6103b26108183660046125d4565b611ab6565b6103b261082b3660046125d4565b6000908152601d602052604090205490565b6103fb61084b366004612b8a565b611acd565b61041861085e3660046125d4565b611adc565b6103fb610871366004612bbd565b611ae7565b61076f6108843660046125d4565b611b12565b6103fb6108973660046127ef565b611b2c565b6103fb6108aa366004612a54565b611b6f565b600a5461044b906001600160a01b031681565b6103fb6108d03660046127ef565b611c41565b6104186108e33660046125d4565b611c84565b6108fb6108f63660046125d4565b611d6c565b6040516103bc9190612c3d565b6103d8610916366004612c9f565b6001600160a01b03918216600090815260056020908152604080832093909416825291909152205460ff1690565b6103fb610952366004612980565b611ed0565b61076f6109653660046125d4565b611f13565b6103b26109783660046125d4565b611f2d565b60006001600160e01b031982166380ac58cd60e01b14806109ae57506001600160e01b03198216635b5e139f60e01b145b806109c957506301ffc9a760e01b6001600160e01b03198316145b92915050565b600a546001600160a01b031633146109fa576040516302b6341b60e41b815260040160405180910390fd5b60008282604051602001610a0f929190612ccd565b60408051601f198184030181529181528151602092830120600087815260169093529120909150610a409082611f44565b5050505050565b600a546001600160a01b03163314610a72576040516302b6341b60e41b815260040160405180910390fd5b604051634e6f746560e01b6020820152602481018390526044810182905260009060640160408051601f198184030181529181528151602092830120600087815260179093529120909150610a409082611f44565b606060008054610ad690612cfe565b80601f0160208091040260200160405190810160405280929190818152602001828054610b0290612cfe565b8015610b4f5780601f10610b2457610100808354040283529160200191610b4f565b820191906000526020600020905b815481529060010190602001808311610b3257829003601f168201915b5050505050905090565b601a54600290610100900460ff16158015610b7b5750601a5460ff8083169116105b610be35760405162461bcd60e51b815260206004820152602e60248201527f496e697469616c697a61626c653a20636f6e747261637420697320616c72656160448201526d191e481a5b9a5d1a585b1a5e995960921b60648201526084015b60405180910390fd5b601a805461ffff191660ff831617610100179055600a80546001600160a01b0384166001600160a01b0319909116179055601b54601e55610c2686868686611f50565b6040514281527fcfdec2ffedf2f5ec02de6f351c5f9b6150601f657926e9e87b16390d562af4e79060200160405180910390a1601a805461ff001916905560405160ff821681527f7f26b83ff96e1f2b6a682f133852f6798a09c465da95921460cefb38474024989060200160405180910390a1505050505050565b6000818152600260205260408120546001600160a01b0316610d1b5760405162461bcd60e51b815260206004820152602c60248201527f4552433732313a20617070726f76656420717565727920666f72206e6f6e657860448201526b34b9ba32b73a103a37b5b2b760a11b6064820152608401610bda565b506000908152600460205260409020546001600160a01b031690565b6000610d4282611fa1565b9050806001600160a01b0316836001600160a01b031603610daf5760405162461bcd60e51b815260206004820152602160248201527f4552433732313a20617070726f76616c20746f2063757272656e74206f776e656044820152603960f91b6064820152608401610bda565b336001600160a01b0382161480610dcb5750610dcb8133610916565b610e3d5760405162461bcd60e51b815260206004820152603860248201527f4552433732313a20617070726f76652063616c6c6572206973206e6f74206f7760448201527f6e6572206e6f7220617070726f76656420666f7220616c6c00000000000000006064820152608401610bda565b610e478383612018565b505050565b600a546000906001600160a01b03163314610e7a576040516302b6341b60e41b815260040160405180910390fd5b601b60008154610e8990612d4e565b91829055506000818152600b60209081526040808320869055601c8252808320879055868352601d9091528120805492935090610ec583612d4e565b9091555050601e8054906000610eda83612d4e565b9091555050604051819084906000907f7fa9aafeb8bb803d77de5d84bc2f2edbd842ca91b20cd5020aa21dfe26ab0be9908290a492915050565b600a546001600160a01b03163314610f3f576040516302b6341b60e41b815260040160405180910390fd5b6000828152600c60205260409020610e479082611f44565b610f613382612086565b610e475760405162461bcd60e51b8152600401610bda90612d67565b600a546001600160a01b03163314610fa8576040516302b6341b60e41b815260040160405180910390fd5b6000828152600c60205260409020610e479082612179565b60008181526018602052604081206109c990612185565b600a546000906001600160a01b03163314611005576040516302b6341b60e41b815260040160405180910390fd5b6000838360405160200161101a929190612ccd565b604051602081830303815290604052805190602001209050846000146110545760008581526016602052604090206110529082612179565b505b6040805180820182526001600160a01b0380871682526020808301878152600086815260109092529390209151825491166001600160a01b0319909116178155905160019091015590509392505050565b610e4783838360405180602001604052806000815250611ae7565b6110c9816114e6565b6001600160a01b0316336001600160a01b0316146110fa57604051630da4973960e31b815260040160405180910390fd5b6000818152601c602081815260408084208054808652601d84528286208054600019908101909155601e80549091019055868652600b845282862086905593909252908390555190918391839133917f49995e5dd6158cf69ad3e9777c46755a1a826a446c6416992167462dad033b2a9190a45050565b600a546001600160a01b0316331461119c576040516302b6341b60e41b815260040160405180910390fd5b6000816040516020016111af9190612db8565b60408051601f1981840301815291815281516020928301206000868152601990935291209091506111e09082611f44565b50505050565b6000818152600c602052604081206109c990612185565b60008181526019602052604081206109c990612185565b600a546001600160a01b0316331461123f576040516302b6341b60e41b815260040160405180910390fd5b6000828152600d60205260409020610e47908261218f565b6000818152600d602052604090206060906109c9906121a4565b600a546000906001600160a01b0316331461129f576040516302b6341b60e41b815260040160405180910390fd5b604051634e6f746560e01b60208201526024810184905260448101839052600090606401604051602081830303815290604052805190602001209050846000146112fd5760008581526017602052604090206112fb9082612179565b505b6040805180820182529485526020808601948552600083815260119091522093518455915160019093019290925592915050565b60008181526017602052604081206060919061134c906121a4565b9050805167ffffffffffffffff81111561136857611368612862565b6040519080825280602002602001820160405280156113ad57816020015b60408051808201909152600080825260208201528152602001906001900390816113865790505b50915060005b815181101561143d5760008282815181106113d0576113d0612de6565b60200260200101519050601160008281526020019081526020016000206040518060400160405290816000820154815260200160018201548152505084838151811061141e5761141e612de6565b602002602001018190525050808061143590612d4e565b9150506113b3565b5050919050565b600081815260136020526040902080546060919061146190612cfe565b80601f016020809104026020016040519081016040528092919081815260200182805461148d90612cfe565b80156114da5780601f106114af576101008083540402835291602001916114da565b820191906000526020600020905b8154815290600101906020018083116114bd57829003601f168201915b50505050509050919050565b6000818152601c602052604080822054600a5491516331a9108f60e11b815260048101829052909183916001600160a01b0390911690636352211e90602401602060405180830381865afa158015611542573d6000803e3d6000fd5b505050506040513d601f19601f820116820180604052508101906115669190612dfc565b949350505050565b600a546001600160a01b03163314611599576040516302b6341b60e41b815260040160405180910390fd5b604080516c4368617261637465724c696e6b60981b6020828101919091528335602d830152830135604d82015290820135606d820152600090608d0160408051601f1981840301815291815281516020928301206000868152601890935291209091506111e09082611f44565b600a546000906001600160a01b03163314611634576040516302b6341b60e41b815260040160405180910390fd5b6000826040516020016116479190612db8565b6040516020818303038152906040528051906020012090508360001461168157600084815260196020526040902061167f9082612179565b505b60008181526013602052604090206116998482612e67565b509392505050565b60008181526016602052604081206109c990612185565b600a546040516370a0823160e01b81526001600160a01b03838116600483015260009283929116906370a0823190602401602060405180830381865afa158015611706573d6000803e3d6000fd5b505050506040513d601f19601f8201168201806040525081019061172a9190612f27565b905060005b8181101561143d57600a54604051632f745c5960e01b81526001600160a01b038681166004830152602482018490526000921690632f745c5990604401602060405180830381865afa158015611789573d6000803e3d6000fd5b505050506040513d601f19601f820116820180604052508101906117ad9190612f27565b6000818152601d60205260409020549091506117c99085612f40565b93505080806117d790612d4e565b91505061172f565b60008181526019602052604090206060906109c9906121a4565b600a546001600160a01b0316331480159061182e5750611818826114e6565b6001600160a01b0316336001600160a01b031614155b1561184c57604051631a64ce6560e11b815260040160405180910390fd5b6000828152601560205260409020610e478282612e67565b60008181526018602052604081206060919061187f906121a4565b9050805167ffffffffffffffff81111561189b5761189b612862565b6040519080825280602002602001820160405280156118e657816020015b60408051606081018252600080825260208083018290529282015282526000199092019101816118b95790505b50915060005b815181101561143d57600082828151811061190957611909612de6565b6020026020010151905060126000828152602001908152602001600020604051806060016040529081600082015481526020016001820154815260200160028201548152505084838151811061196157611961612de6565b602002602001018190525050808061197890612d4e565b9150506118ec565b6000818152600e602052604081206109c990612185565b6000818152601660205260408120606091906119b2906121a4565b9050805167ffffffffffffffff8111156119ce576119ce612862565b604051908082528060200260200182016040528015611a1357816020015b60408051808201909152600080825260208201528152602001906001900390816119ec5790505b50915060005b815181101561143d576000828281518110611a3657611a36612de6565b602090810291909101810151600081815260108352604090819020815180830190925280546001600160a01b0316825260010154928101929092528551909250859084908110611a8857611a88612de6565b6020026020010181905250508080611a9f90612d4e565b915050611a19565b606060018054610ad690612cfe565b6000818152600d602052604081206109c990612185565b611ad83383836121b1565b5050565b60606109c98261227f565b611af13383612086565b611b0d5760405162461bcd60e51b8152600401610bda90612d67565b6111e0565b6000818152600c602052604090206060906109c9906121a4565b600a546001600160a01b03163314611b57576040516302b6341b60e41b815260040160405180910390fd5b6000828152600e60205260409020610e479082612179565b600a546001600160a01b03163314611b9a576040516302b6341b60e41b815260040160405180910390fd5b604080516c4368617261637465724c696e6b60981b6020828101919091528335602d830152830135604d82015290820135606d820152600090608d0160405160208183030381529060405280519060200120905082600014611c10576000838152601860205260409020611c0e9082612179565b505b60008181526012602052604090208290610a4082828135815560208201356001820155604082013560028201555050565b600a546001600160a01b03163314611c6c576040516302b6341b60e41b815260040160405180910390fd5b6000828152600e60205260409020610e479082611f44565b6000818152600260205260409020546060906001600160a01b0316611d035760405162461bcd60e51b815260206004820152602f60248201527f4552433732314d657461646174613a2055524920717565727920666f72206e6f60448201526e3732bc34b9ba32b73a103a37b5b2b760891b6064820152608401610bda565b6000611d1a60408051602081019091526000815290565b90506000815111611d3a5760405180602001604052806000815250611d65565b80611d448461229c565b604051602001611d55929190612f53565b6040516020818303038152906040525b9392505050565b600081815260196020526040812060609190611d87906121a4565b9050805167ffffffffffffffff811115611da357611da3612862565b604051908082528060200260200182016040528015611dd657816020015b6060815260200190600190039081611dc15790505b50915060005b815181101561143d576000828281518110611df957611df9612de6565b60200260200101519050601360008281526020019081526020016000208054611e2190612cfe565b80601f0160208091040260200160405190810160405280929190818152602001828054611e4d90612cfe565b8015611e9a5780601f10611e6f57610100808354040283529160200191611e9a565b820191906000526020600020905b815481529060010190602001808311611e7d57829003601f168201915b5050505050848381518110611eb157611eb1612de6565b6020026020010181905250508080611ec890612d4e565b915050611ddc565b600a546001600160a01b03163314611efb576040516302b6341b60e41b815260040160405180910390fd5b6000828152600d60205260409020610e47908261232f565b6000818152600e602052604090206060906109c9906121a4565b60008181526017602052604081206109c990612185565b6000611d658383612344565b611f5c84848484612437565b7f414cd0b34676984f09a5f76ce9718d4062e50283abe0e7e274a9a5b4e0c99c308484848442604051611f93959493929190612fab565b60405180910390a150505050565b6000818152600260205260408120546001600160a01b0316806109c95760405162461bcd60e51b815260206004820152602960248201527f4552433732313a206f776e657220717565727920666f72206e6f6e657869737460448201526832b73a103a37b5b2b760b91b6064820152608401610bda565b600081815260046020526040902080546001600160a01b0319166001600160a01b038416908117909155819061204d82611fa1565b6001600160a01b03167f8c5be1e5ebec7d5bd14f71427d1e84f3dd0314c0f7b2291e5b200ac8c7c3b92560405160405180910390a45050565b6000818152600260205260408120546001600160a01b03166120ff5760405162461bcd60e51b815260206004820152602c60248201527f4552433732313a206f70657261746f7220717565727920666f72206e6f6e657860448201526b34b9ba32b73a103a37b5b2b760a11b6064820152608401610bda565b600061210a83611fa1565b9050806001600160a01b0316846001600160a01b031614806121455750836001600160a01b031661213a84610ca2565b6001600160a01b0316145b8061156657506001600160a01b0380821660009081526005602090815260408083209388168352929052205460ff16611566565b6000611d658383612452565b60006109c9825490565b6000611d65836001600160a01b038416612344565b60606000611d65836124a1565b816001600160a01b0316836001600160a01b0316036122125760405162461bcd60e51b815260206004820152601960248201527f4552433732313a20617070726f766520746f2063616c6c6572000000000000006044820152606401610bda565b6001600160a01b03838116600081815260056020908152604080832094871680845294825291829020805460ff191686151590811790915591519182527f17307eab39ab6107e8899845ad3d59bd9653f200f220920489ca2b5937696c31910160405180910390a3505050565b600081815260156020526040902080546060919061146190612cfe565b606060006122a9836124fc565b600101905060008167ffffffffffffffff8111156122c9576122c9612862565b6040519080825280601f01601f1916602001820160405280156122f3576020820181803683370190505b5090508181016020015b600019016f181899199a1a9b1b9c1cb0b131b232b360811b600a86061a8153600a85049450846122fd57509392505050565b6000611d65836001600160a01b038416612452565b6000818152600183016020526040812054801561242d576000612368600183612fe5565b855490915060009061237c90600190612fe5565b90508181146123e157600086600001828154811061239c5761239c612de6565b90600052602060002001549050808760000184815481106123bf576123bf612de6565b6000918252602080832090910192909255918252600188019052604090208390555b85548690806123f2576123f2612ff8565b6001900381819060005260206000200160009055905585600101600086815260200190815260200160002060009055600193505050506109c9565b60009150506109c9565b600061244484868361300e565b506001610a4082848361300e565b6000818152600183016020526040812054612499575081546001818101845560008481526020808220909301849055845484825282860190935260409020919091556109c9565b5060006109c9565b6060816000018054806020026020016040519081016040528092919081815260200182805480156114da57602002820191906000526020600020905b8154815260200190600101908083116124dd5750505050509050919050565b60008072184f03e93ff9f4daa797ed6e38ed64bf6a1f0160401b831061253b5772184f03e93ff9f4daa797ed6e38ed64bf6a1f0160401b830492506040015b6d04ee2d6d415b85acef81000000008310612567576d04ee2d6d415b85acef8100000000830492506020015b662386f26fc10000831061258557662386f26fc10000830492506010015b6305f5e100831061259d576305f5e100830492506008015b61271083106125b157612710830492506004015b606483106125c3576064830492506002015b600a83106109c95760010192915050565b6000602082840312156125e657600080fd5b5035919050565b6000602082840312156125ff57600080fd5b81356001600160e01b031981168114611d6557600080fd5b6001600160a01b038116811461262c57600080fd5b50565b60008060006060848603121561264457600080fd5b83359250602084013561265681612617565b929592945050506040919091013590565b60008060006060848603121561267c57600080fd5b505081359360208301359350604090920135919050565b60005b838110156126ae578181015183820152602001612696565b50506000910152565b600081518084526126cf816020860160208601612693565b601f01601f19169290920160200192915050565b602081526000611d6560208301846126b7565b60008083601f84011261270857600080fd5b50813567ffffffffffffffff81111561272057600080fd5b60208301915083602082850101111561273857600080fd5b9250929050565b60008060008060006060868803121561275757600080fd5b853567ffffffffffffffff8082111561276f57600080fd5b61277b89838a016126f6565b9097509550602088013591508082111561279457600080fd5b506127a1888289016126f6565b90945092505060408601356127b581612617565b809150509295509295909350565b600080604083850312156127d657600080fd5b82356127e181612617565b946020939093013593505050565b6000806040838503121561280257600080fd5b50508035926020909101359150565b815181526020808301519082015260408083015190820152606081016109c9565b60008060006060848603121561284757600080fd5b833561285281612617565b9250602084013561265681612617565b634e487b7160e01b600052604160045260246000fd5b600067ffffffffffffffff8084111561289357612893612862565b604051601f8501601f19908116603f011681019082821181831017156128bb576128bb612862565b816040528093508581528686860111156128d457600080fd5b858560208301376000602087830101525050509392505050565b6000806040838503121561290157600080fd5b82359150602083013567ffffffffffffffff81111561291f57600080fd5b8301601f8101851361293057600080fd5b61293f85823560208401612878565b9150509250929050565b8151815260208083015190820152604081016109c9565b81516001600160a01b0316815260208083015190820152604081016109c9565b6000806040838503121561299357600080fd5b8235915060208301356129a581612617565b809150509250929050565b6020808252825182820181905260009190848201906040850190845b818110156129f15783516001600160a01b0316835292840192918401916001016129cc565b50909695505050505050565b602080825282518282018190526000919060409081850190868401855b82811015612a4757612a3784835180518252602090810151910152565b9284019290850190600101612a1a565b5091979650505050505050565b6000808284036080811215612a6857600080fd5b833592506060601f1982011215612a7e57600080fd5b506020830190509250929050565b600060208284031215612a9e57600080fd5b8135611d6581612617565b6020808252825182820181905260009190848201906040850190845b818110156129f157835183529284019291840191600101612ac5565b6020808252825182820181905260009190848201906040850190845b818110156129f157612b248385518051825260208082015190830152604090810151910152565b9284019260609290920191600101612afd565b602080825282518282018190526000919060409081850190868401855b82811015612a4757612b7a84835180516001600160a01b03168252602090810151910152565b9284019290850190600101612b54565b60008060408385031215612b9d57600080fd5b8235612ba881612617565b9150602083013580151581146129a557600080fd5b60008060008060808587031215612bd357600080fd5b8435612bde81612617565b93506020850135612bee81612617565b925060408501359150606085013567ffffffffffffffff811115612c1157600080fd5b8501601f81018713612c2257600080fd5b612c3187823560208401612878565b91505092959194509250565b6000602080830181845280855180835260408601915060408160051b870101925083870160005b82811015612c9257603f19888603018452612c808583516126b7565b94509285019290850190600101612c64565b5092979650505050505050565b60008060408385031215612cb257600080fd5b8235612cbd81612617565b915060208301356129a581612617565b6545524337323160d01b815260609290921b6bffffffffffffffffffffffff19166006830152601a820152603a0190565b600181811c90821680612d1257607f821691505b602082108103612d3257634e487b7160e01b600052602260045260246000fd5b50919050565b634e487b7160e01b600052601160045260246000fd5b600060018201612d6057612d60612d38565b5060010190565b60208082526031908201527f4552433732313a207472616e736665722063616c6c6572206973206e6f74206f6040820152701ddb995c881b9bdc88185c1c1c9bdd9959607a1b606082015260800190565b65416e7955726960d01b815260008251612dd9816006850160208701612693565b9190910160060192915050565b634e487b7160e01b600052603260045260246000fd5b600060208284031215612e0e57600080fd5b8151611d6581612617565b601f821115610e4757600081815260208120601f850160051c81016020861015612e405750805b601f850160051c820191505b81811015612e5f57828155600101612e4c565b505050505050565b815167ffffffffffffffff811115612e8157612e81612862565b612e9581612e8f8454612cfe565b84612e19565b602080601f831160018114612eca5760008415612eb25750858301515b600019600386901b1c1916600185901b178555612e5f565b600085815260208120601f198616915b82811015612ef957888601518255948401946001909101908401612eda565b5085821015612f175787850151600019600388901b60f8161c191681555b5050505050600190811b01905550565b600060208284031215612f3957600080fd5b5051919050565b808201808211156109c9576109c9612d38565b60008351612f65818460208801612693565b835190830190612f79818360208801612693565b01949350505050565b81835281816020850137506000828201602090810191909152601f909101601f19169091010190565b606081526000612fbf606083018789612f82565b8281036020840152612fd2818688612f82565b9150508260408301529695505050505050565b818103818111156109c9576109c9612d38565b634e487b7160e01b600052603160045260246000fd5b67ffffffffffffffff83111561302657613026612862565b61303a836130348354612cfe565b83612e19565b6000601f84116001811461306e57600085156130565750838201355b600019600387901b1c1916600186901b178355610a40565b600083815260209020601f19861690835b8281101561309f578685013582556020948501946001909201910161307f565b50868210156130bc5760001960f88860031b161c19848701351681555b505060018560011b018355505050505056fea264697066735822122059b878031f51ba3ebfa68202ad82c8bbeab4ab8aaa64abdd9e4a62e3b2f16fea64736f6c63430008120033",
  "linkReferences": {},
  "deployedLinkReferences": {}
}