{
  "_format": "hh-sol-artifact-1",
  "contractName": "Linklist",
  "sourceName": "contracts/Linklist.sol",
  "abi": [
    {
      "inputs": [],
      "name": "ErrCallerNotWeb3Entry",
      "type": "error"
    },
    {
      "inputs": [],
      "name": "ErrCallerNotWeb3EntryOrNotOwner",
      "type": "error"
    },
    {
      "inputs": [],
      "name": "ErrTokenNotExists",
      "type": "error"
    },
    {
      "anonymous": false,
      "inputs": [
        {
          "indexed": true,
          "internalType": "uint256",
          "name": "from",
          "type": "uint256"
        },
        {
          "indexed": true,
          "internalType": "uint256",
          "name": "tokenId",
          "type": "uint256"
        }
      ],
      "name": "Burn",
      "type": "event"
    },
    {
      "anonymous": false,
      "inputs": [
        {
          "indexed": false,
          "internalType": "uint8",
          "name": "version",
          "type": "uint8"
        }
      ],
      "name": "Initialized",
      "type": "event"
    },
    {
      "anonymous": false,
      "inputs": [
        {
          "indexed": true,
          "internalType": "uint256",
          "name": "tokenId",
          "type": "uint256"
        },
        {
          "indexed": true,
          "internalType": "bytes32",
          "name": "newlinkType",
          "type": "bytes32"
        }
      ],
      "name": "LinkTypeSet",
      "type": "event"
    },
    {
      "anonymous": false,
      "inputs": [
        {
          "indexed": true,
          "internalType": "address",
          "name": "from",
          "type": "address"
        },
        {
          "indexed": true,
          "internalType": "uint256",
          "name": "characterId",
          "type": "uint256"
        },
        {
          "indexed": true,
          "internalType": "uint256",
          "name": "tokenId",
          "type": "uint256"
        }
      ],
      "name": "Transfer",
      "type": "event"
    },
    {
      "anonymous": false,
      "inputs": [
        {
          "indexed": true,
          "internalType": "uint256",
          "name": "tokenId",
          "type": "uint256"
        },
        {
          "indexed": false,
          "internalType": "string",
          "name": "uri",
          "type": "string"
        }
      ],
      "name": "UriSet",
      "type": "event"
    },
    {
      "inputs": [
        {
          "internalType": "uint256",
          "name": "tokenId",
          "type": "uint256"
        }
      ],
      "name": "Uri",
      "outputs": [
        {
          "internalType": "string",
          "name": "",
          "type": "string"
        }
      ],
      "stateMutability": "view",
      "type": "function"
    },
    {
      "inputs": [],
      "name": "Web3Entry",
      "outputs": [
        {
          "internalType": "address",
          "name": "",
          "type": "address"
        }
      ],
      "stateMutability": "view",
      "type": "function"
    },
    {
      "inputs": [
        {
          "internalType": "uint256",
          "name": "tokenId",
          "type": "uint256"
        },
        {
          "internalType": "address",
          "name": "ethAddress",
          "type": "address"
        }
      ],
      "name": "addLinkingAddress",
      "outputs": [],
      "stateMutability": "nonpayable",
      "type": "function"
    },
    {
      "inputs": [
        {
          "internalType": "uint256",
          "name": "tokenId",
          "type": "uint256"
        },
        {
          "internalType": "string",
          "name": "toUri",
          "type": "string"
        }
      ],
      "name": "addLinkingAnyUri",
      "outputs": [
        {
          "internalType": "bytes32",
          "name": "",
          "type": "bytes32"
        }
      ],
      "stateMutability": "nonpayable",
      "type": "function"
    },
    {
      "inputs": [
        {
          "internalType": "uint256",
          "name": "tokenId",
          "type": "uint256"
        },
        {
          "internalType": "uint256",
          "name": "toCharacterId",
          "type": "uint256"
        }
      ],
      "name": "addLinkingCharacterId",
      "outputs": [],
      "stateMutability": "nonpayable",
      "type": "function"
    },
    {
      "inputs": [
        {
          "internalType": "uint256",
          "name": "tokenId",
          "type": "uint256"
        },
        {
          "internalType": "address",
          "name": "tokenAddress",
          "type": "address"
        },
        {
          "internalType": "uint256",
          "name": "erc721TokenId",
          "type": "uint256"
        }
      ],
      "name": "addLinkingERC721",
      "outputs": [
        {
          "internalType": "bytes32",
          "name": "",
          "type": "bytes32"
        }
      ],
      "stateMutability": "nonpayable",
      "type": "function"
    },
    {
      "inputs": [
        {
          "internalType": "uint256",
          "name": "tokenId",
          "type": "uint256"
        },
        {
          "internalType": "uint256",
          "name": "linklistId",
          "type": "uint256"
        }
      ],
      "name": "addLinkingLinklistId",
      "outputs": [],
      "stateMutability": "nonpayable",
      "type": "function"
    },
    {
      "inputs": [
        {
          "internalType": "uint256",
          "name": "tokenId",
          "type": "uint256"
        },
        {
          "internalType": "uint256",
          "name": "toCharacterId",
          "type": "uint256"
        },
        {
          "internalType": "uint256",
          "name": "toNoteId",
          "type": "uint256"
        }
      ],
      "name": "addLinkingNote",
      "outputs": [
        {
          "internalType": "bytes32",
          "name": "",
          "type": "bytes32"
        }
      ],
      "stateMutability": "nonpayable",
      "type": "function"
    },
    {
      "inputs": [
        {
          "internalType": "address",
          "name": "account",
          "type": "address"
        }
      ],
      "name": "balanceOf",
      "outputs": [
        {
          "internalType": "uint256",
          "name": "balance",
          "type": "uint256"
        }
      ],
      "stateMutability": "view",
      "type": "function"
    },
    {
      "inputs": [
        {
          "internalType": "uint256",
          "name": "characterId",
          "type": "uint256"
        }
      ],
      "name": "balanceOf",
      "outputs": [
        {
          "internalType": "uint256",
          "name": "",
          "type": "uint256"
        }
      ],
      "stateMutability": "view",
      "type": "function"
    },
    {
      "inputs": [
        {
          "internalType": "uint256",
          "name": "tokenId",
          "type": "uint256"
        }
      ],
      "name": "burn",
      "outputs": [],
      "stateMutability": "nonpayable",
      "type": "function"
    },
    {
      "inputs": [
        {
          "internalType": "uint256",
          "name": "tokenId",
          "type": "uint256"
        }
      ],
      "name": "characterOwnerOf",
      "outputs": [
        {
          "internalType": "uint256",
          "name": "",
          "type": "uint256"
        }
      ],
      "stateMutability": "view",
      "type": "function"
    },
    {
      "inputs": [
        {
          "internalType": "uint256",
          "name": "tokenId",
          "type": "uint256"
        }
      ],
      "name": "getCurrentTakeOver",
      "outputs": [
        {
          "internalType": "uint256",
          "name": "",
          "type": "uint256"
        }
      ],
      "stateMutability": "view",
      "type": "function"
    },
    {
      "inputs": [
        {
          "internalType": "uint256",
          "name": "tokenId",
          "type": "uint256"
        }
      ],
      "name": "getLinkType",
      "outputs": [
        {
          "internalType": "bytes32",
          "name": "",
          "type": "bytes32"
        }
      ],
      "stateMutability": "view",
      "type": "function"
    },
    {
      "inputs": [
        {
          "internalType": "uint256",
          "name": "tokenId",
          "type": "uint256"
        }
      ],
      "name": "getLinkingAddressListLength",
      "outputs": [
        {
          "internalType": "uint256",
          "name": "",
          "type": "uint256"
        }
      ],
      "stateMutability": "view",
      "type": "function"
    },
    {
      "inputs": [
        {
          "internalType": "uint256",
          "name": "tokenId",
          "type": "uint256"
        }
      ],
      "name": "getLinkingAddresses",
      "outputs": [
        {
          "internalType": "address[]",
          "name": "",
          "type": "address[]"
        }
      ],
      "stateMutability": "view",
      "type": "function"
    },
    {
      "inputs": [
        {
          "internalType": "uint256",
          "name": "tokenId",
          "type": "uint256"
        }
      ],
      "name": "getLinkingAnyListLength",
      "outputs": [
        {
          "internalType": "uint256",
          "name": "",
          "type": "uint256"
        }
      ],
      "stateMutability": "view",
      "type": "function"
    },
    {
      "inputs": [
        {
          "internalType": "bytes32",
          "name": "linkKey",
          "type": "bytes32"
        }
      ],
      "name": "getLinkingAnyUri",
      "outputs": [
        {
          "internalType": "string",
          "name": "",
          "type": "string"
        }
      ],
      "stateMutability": "view",
      "type": "function"
    },
    {
      "inputs": [
        {
          "internalType": "uint256",
          "name": "tokenId",
          "type": "uint256"
        }
      ],
      "name": "getLinkingAnyUriKeys",
      "outputs": [
        {
          "internalType": "bytes32[]",
          "name": "",
          "type": "bytes32[]"
        }
      ],
      "stateMutability": "view",
      "type": "function"
    },
    {
      "inputs": [
        {
          "internalType": "uint256",
          "name": "tokenId",
          "type": "uint256"
        }
      ],
      "name": "getLinkingAnyUris",
      "outputs": [
        {
          "internalType": "string[]",
          "name": "results",
          "type": "string[]"
        }
      ],
      "stateMutability": "view",
      "type": "function"
    },
    {
      "inputs": [
        {
          "internalType": "uint256",
          "name": "tokenId",
          "type": "uint256"
        }
      ],
      "name": "getLinkingCharacterIds",
      "outputs": [
        {
          "internalType": "uint256[]",
          "name": "",
          "type": "uint256[]"
        }
      ],
      "stateMutability": "view",
      "type": "function"
    },
    {
      "inputs": [
        {
          "internalType": "uint256",
          "name": "tokenId",
          "type": "uint256"
        }
      ],
      "name": "getLinkingCharacterListLength",
      "outputs": [
        {
          "internalType": "uint256",
          "name": "",
          "type": "uint256"
        }
      ],
      "stateMutability": "view",
      "type": "function"
    },
    {
      "inputs": [
        {
          "internalType": "bytes32",
          "name": "linkKey",
          "type": "bytes32"
        }
      ],
      "name": "getLinkingERC721",
      "outputs": [
        {
          "components": [
            {
              "internalType": "address",
              "name": "tokenAddress",
              "type": "address"
            },
            {
              "internalType": "uint256",
              "name": "erc721TokenId",
              "type": "uint256"
            }
          ],
          "internalType": "struct DataTypes.ERC721Struct",
          "name": "",
          "type": "tuple"
        }
      ],
      "stateMutability": "view",
      "type": "function"
    },
    {
      "inputs": [
        {
          "internalType": "uint256",
          "name": "tokenId",
          "type": "uint256"
        }
      ],
      "name": "getLinkingERC721ListLength",
      "outputs": [
        {
          "internalType": "uint256",
          "name": "",
          "type": "uint256"
        }
      ],
      "stateMutability": "view",
      "type": "function"
    },
    {
      "inputs": [
        {
          "internalType": "uint256",
          "name": "tokenId",
          "type": "uint256"
        }
      ],
      "name": "getLinkingERC721s",
      "outputs": [
        {
          "components": [
            {
              "internalType": "address",
              "name": "tokenAddress",
              "type": "address"
            },
            {
              "internalType": "uint256",
              "name": "erc721TokenId",
              "type": "uint256"
            }
          ],
          "internalType": "struct DataTypes.ERC721Struct[]",
          "name": "results",
          "type": "tuple[]"
        }
      ],
      "stateMutability": "view",
      "type": "function"
    },
    {
      "inputs": [
        {
          "internalType": "uint256",
          "name": "tokenId",
          "type": "uint256"
        }
      ],
      "name": "getLinkingLinklistIds",
      "outputs": [
        {
          "internalType": "uint256[]",
          "name": "",
          "type": "uint256[]"
        }
      ],
      "stateMutability": "view",
      "type": "function"
    },
    {
      "inputs": [
        {
          "internalType": "uint256",
          "name": "tokenId",
          "type": "uint256"
        }
      ],
      "name": "getLinkingLinklistLength",
      "outputs": [
        {
          "internalType": "uint256",
          "name": "",
          "type": "uint256"
        }
      ],
      "stateMutability": "view",
      "type": "function"
    },
    {
      "inputs": [
        {
          "internalType": "bytes32",
          "name": "linkKey",
          "type": "bytes32"
        }
      ],
      "name": "getLinkingNote",
      "outputs": [
        {
          "components": [
            {
              "internalType": "uint256",
              "name": "characterId",
              "type": "uint256"
            },
            {
              "internalType": "uint256",
              "name": "noteId",
              "type": "uint256"
            }
          ],
          "internalType": "struct DataTypes.NoteStruct",
          "name": "",
          "type": "tuple"
        }
      ],
      "stateMutability": "view",
      "type": "function"
    },
    {
      "inputs": [
        {
          "internalType": "uint256",
          "name": "tokenId",
          "type": "uint256"
        }
      ],
      "name": "getLinkingNoteListLength",
      "outputs": [
        {
          "internalType": "uint256",
          "name": "",
          "type": "uint256"
        }
      ],
      "stateMutability": "view",
      "type": "function"
    },
    {
      "inputs": [
        {
          "internalType": "uint256",
          "name": "tokenId",
          "type": "uint256"
        }
      ],
      "name": "getLinkingNotes",
      "outputs": [
        {
          "components": [
            {
              "internalType": "uint256",
              "name": "characterId",
              "type": "uint256"
            },
            {
              "internalType": "uint256",
              "name": "noteId",
              "type": "uint256"
            }
          ],
          "internalType": "struct DataTypes.NoteStruct[]",
          "name": "results",
          "type": "tuple[]"
        }
      ],
      "stateMutability": "view",
      "type": "function"
    },
    {
      "inputs": [
        {
          "internalType": "uint256",
          "name": "tokenId",
          "type": "uint256"
        }
      ],
      "name": "getOwnerCharacterId",
      "outputs": [
        {
          "internalType": "uint256",
          "name": "",
          "type": "uint256"
        }
      ],
      "stateMutability": "view",
      "type": "function"
    },
    {
      "inputs": [
        {
          "internalType": "string",
          "name": "name_",
          "type": "string"
        },
        {
          "internalType": "string",
          "name": "symbol_",
          "type": "string"
        },
        {
          "internalType": "address",
          "name": "web3Entry_",
          "type": "address"
        }
      ],
      "name": "initialize",
      "outputs": [],
      "stateMutability": "nonpayable",
      "type": "function"
    },
    {
      "inputs": [
        {
          "internalType": "uint256",
          "name": "characterId",
          "type": "uint256"
        },
        {
          "internalType": "bytes32",
          "name": "linkType",
          "type": "bytes32"
        }
      ],
      "name": "mint",
      "outputs": [
        {
          "internalType": "uint256",
          "name": "tokenId",
          "type": "uint256"
        }
      ],
      "stateMutability": "nonpayable",
      "type": "function"
    },
    {
      "inputs": [],
      "name": "name",
      "outputs": [
        {
          "internalType": "string",
          "name": "",
          "type": "string"
        }
      ],
      "stateMutability": "view",
      "type": "function"
    },
    {
      "inputs": [
        {
          "internalType": "uint256",
          "name": "tokenId",
          "type": "uint256"
        }
      ],
      "name": "ownerOf",
      "outputs": [
        {
          "internalType": "address",
          "name": "",
          "type": "address"
        }
      ],
      "stateMutability": "view",
      "type": "function"
    },
    {
      "inputs": [
        {
          "internalType": "uint256",
          "name": "tokenId",
          "type": "uint256"
        },
        {
          "internalType": "address",
          "name": "ethAddress",
          "type": "address"
        }
      ],
      "name": "removeLinkingAddress",
      "outputs": [],
      "stateMutability": "nonpayable",
      "type": "function"
    },
    {
      "inputs": [
        {
          "internalType": "uint256",
          "name": "tokenId",
          "type": "uint256"
        },
        {
          "internalType": "string",
          "name": "toUri",
          "type": "string"
        }
      ],
      "name": "removeLinkingAnyUri",
      "outputs": [],
      "stateMutability": "nonpayable",
      "type": "function"
    },
    {
      "inputs": [
        {
          "internalType": "uint256",
          "name": "tokenId",
          "type": "uint256"
        },
        {
          "internalType": "uint256",
          "name": "toCharacterId",
          "type": "uint256"
        }
      ],
      "name": "removeLinkingCharacterId",
      "outputs": [],
      "stateMutability": "nonpayable",
      "type": "function"
    },
    {
      "inputs": [
        {
          "internalType": "uint256",
          "name": "tokenId",
          "type": "uint256"
        },
        {
          "internalType": "address",
          "name": "tokenAddress",
          "type": "address"
        },
        {
          "internalType": "uint256",
          "name": "erc721TokenId",
          "type": "uint256"
        }
      ],
      "name": "removeLinkingERC721",
      "outputs": [],
      "stateMutability": "nonpayable",
      "type": "function"
    },
    {
      "inputs": [
        {
          "internalType": "uint256",
          "name": "tokenId",
          "type": "uint256"
        },
        {
          "internalType": "uint256",
          "name": "linklistId",
          "type": "uint256"
        }
      ],
      "name": "removeLinkingLinklistId",
      "outputs": [],
      "stateMutability": "nonpayable",
      "type": "function"
    },
    {
      "inputs": [
        {
          "internalType": "uint256",
          "name": "tokenId",
          "type": "uint256"
        },
        {
          "internalType": "uint256",
          "name": "toCharacterId",
          "type": "uint256"
        },
        {
          "internalType": "uint256",
          "name": "toNoteId",
          "type": "uint256"
        }
      ],
      "name": "removeLinkingNote",
      "outputs": [],
      "stateMutability": "nonpayable",
      "type": "function"
    },
    {
      "inputs": [
        {
          "internalType": "uint256",
          "name": "tokenId",
          "type": "uint256"
        },
        {
          "internalType": "bytes32",
          "name": "linkType",
          "type": "bytes32"
        }
      ],
      "name": "setLinkType",
      "outputs": [],
      "stateMutability": "nonpayable",
      "type": "function"
    },
    {
      "inputs": [
        {
          "internalType": "uint256",
          "name": "tokenId",
          "type": "uint256"
        },
        {
          "internalType": "string",
          "name": "uri",
          "type": "string"
        }
      ],
      "name": "setUri",
      "outputs": [],
      "stateMutability": "nonpayable",
      "type": "function"
    },
    {
      "inputs": [
        {
          "internalType": "bytes4",
          "name": "interfaceId",
          "type": "bytes4"
        }
      ],
      "name": "supportsInterface",
      "outputs": [
        {
          "internalType": "bool",
          "name": "",
          "type": "bool"
        }
      ],
      "stateMutability": "view",
      "type": "function"
    },
    {
      "inputs": [],
      "name": "symbol",
      "outputs": [
        {
          "internalType": "string",
          "name": "",
          "type": "string"
        }
      ],
      "stateMutability": "view",
      "type": "function"
    },
    {
      "inputs": [],
      "name": "totalSupply",
      "outputs": [
        {
          "internalType": "uint256",
          "name": "",
          "type": "uint256"
        }
      ],
      "stateMutability": "view",
      "type": "function"
    }
  ],
  "bytecode": "0x608060405234801561001057600080fd5b50612729806100206000396000f3fe608060405234801561001057600080fd5b50600436106102895760003560e01c80636352211e1161015c57806397ce7df6116100ce578063c70881c511610087578063c70881c514610686578063cf101ac2146105a6578063e64f2baa14610699578063ed386e65146106b9578063ed6223cf146106cc578063f61087f6146106df57600080fd5b806397ce7df6146106075780639cc7f7081461061a578063ac150a541461063a578063ba27f58d1461064d578063c1cd4f8214610660578063c5a5ed511461067357600080fd5b806376bac0251161012057806376bac025146105865780637803f217146105a6578063782f08ae146105b95780638fd6dc39146105cc5780639037c0f9146105df57806395d89b41146105ff57600080fd5b80636352211e1461050f5780636c217e121461053a5780636d37d2741461054d57806370a082311461056057806373fbe0121461057357600080fd5b806342966c68116102005780635440522b116101b95780635440522b146104345780635956da73146104965780635c369ec3146104a95780635cb46be7146104c95780635e9f678b146104dc5780635f799cc6146104fc57600080fd5b806342966c681461037b57806342c1721f1461038e57806348d1b16c146103a1578063493fa4dc146103b45780634a7906b9146103c85780634aa7b87a1461042157600080fd5b8063077f224a11610252578063077f224a146103145780631801fbe51461032757806318160ddd1461033a57806321cb722714610342578063288893d6146103555780632ea24efc1461036857600080fd5b8062fba0271461028e57806301ffc9a7146102b45780630370a161146102d7578063040f7618146102ec57806306fdde03146102ff575b600080fd5b6102a161029c366004611e81565b6106f2565b6040519081526020015b60405180910390f35b6102c76102c2366004611e9a565b61073a565b60405190151581526020016102ab565b6102ea6102e5366004611edc565b61078c565b005b6102ea6102fa366004611f14565b610804565b610307610884565b6040516102ab9190611f90565b6102ea610322366004611fec565b610916565b6102a1610335366004612070565b610a5e565b601e546102a1565b6102ea610350366004612070565b610b26565b6102ea610363366004612070565b610b6e565b6102a1610376366004611edc565b610bb1565b6102ea610389366004611e81565b610c7f565b6102ea61039c3660046120a8565b610d44565b6102a16103af366004611e81565b610db9565b6102a16103c2366004611e81565b50600090565b6104146103d6366004611e81565b604080518082019091526000808252602082015250600090815260116020908152604091829020825180840190935280548352600101549082015290565b6040516102ab9190612163565b6102a161042f366004611e81565b610e07565b610489610442366004611e81565b604080518082019091526000808252602082015250600090815260106020908152604091829020825180840190935280546001600160a01b03168352600101549082015290565b6040516102ab919061217a565b6102ea6104a436600461219a565b610e4e565b6104bc6104b7366004611e81565b610e91565b6040516102ab91906121ca565b6102a16104d7366004611f14565b610edb565b6104ef6104ea366004611e81565b610f9b565b6040516102ab9190612217565b61030761050a366004611e81565b6110de565b61052261051d366004611e81565b611180565b6040516001600160a01b0390911681526020016102ab565b6102a16105483660046120a8565b6111b9565b6102a161055b366004611e81565b611254565b6102a161056e36600461226e565b61129b565b6102ea610581366004612070565b6113c9565b610599610594366004611e81565b611463565b6040516102ab919061228b565b6102a16105b4366004611e81565b6114ad565b6102ea6105c73660046120a8565b6114f1565b6102a16105da366004611e81565b6115c9565b6105f26105ed366004611e81565b611610565b6040516102ab91906122c3565b61030761174f565b6102a1610615366004611e81565b61175e565b6102a1610628366004611e81565b6000908152601d602052604090205490565b610307610648366004611e81565b6117a5565b61059961065b366004611e81565b611877565b6102ea61066e366004612070565b6118c1565b600a54610522906001600160a01b031681565b6102ea610694366004612070565b611904565b6106ac6106a7366004611e81565b611947565b6040516102ab9190612316565b6102ea6106c736600461219a565b611ada565b6105996106da366004611e81565b611b1d565b6102a16106ed366004611e81565b611b67565b6000818152601c602052604081205482908203610722576040516366012df560e11b815260040160405180910390fd5b6000838152600b602052604090205491505b50919050565b60006001600160e01b031982166380ac58cd60e01b148061076b57506001600160e01b03198216635b5e139f60e01b145b8061078657506301ffc9a760e01b6001600160e01b03198316145b92915050565b600a546001600160a01b031633146107b7576040516302b6341b60e41b815260040160405180910390fd5b600082826040516020016107cc929190612378565b60408051601f1981840301815291815281516020928301206000878152601690935291209091506107fd9082611bae565b5050505050565b600a546001600160a01b0316331461082f576040516302b6341b60e41b815260040160405180910390fd5b604051634e6f746560e01b6020820152602481018390526044810182905260009060640160408051601f1981840301815291815281516020928301206000878152601790935291209091506107fd9082611bae565b606060008054610893906123a9565b80601f01602080910402602001604051908101604052809291908181526020018280546108bf906123a9565b801561090c5780601f106108e15761010080835404028352916020019161090c565b820191906000526020600020905b8154815290600101906020018083116108ef57829003601f168201915b5050505050905090565b601a54600290610100900460ff161580156109385750601a5460ff8083169116105b61099f5760405162461bcd60e51b815260206004820152602e60248201527f496e697469616c697a61626c653a20636f6e747261637420697320616c72656160448201526d191e481a5b9a5d1a585b1a5e995960921b606482015260840160405180910390fd5b601a805461ffff191660ff831617610100179055600a80546001600160a01b0384166001600160a01b0319909116179055601b54601e556109e286868686611bba565b6040514281527fcfdec2ffedf2f5ec02de6f351c5f9b6150601f657926e9e87b16390d562af4e79060200160405180910390a1601a805461ff001916905560405160ff821681527f7f26b83ff96e1f2b6a682f133852f6798a09c465da95921460cefb38474024989060200160405180910390a1505050505050565b600a546000906001600160a01b03163314610a8c576040516302b6341b60e41b815260040160405180910390fd5b601b60008154610a9b906123f3565b91829055506000818152600b60209081526040808320869055601c8252808320879055868352601d9091528120805492935090610ad7836123f3565b9091555050601e8054906000610aec836123f3565b9091555050604051819084906000907f7fa9aafeb8bb803d77de5d84bc2f2edbd842ca91b20cd5020aa21dfe26ab0be9908290a492915050565b600a546001600160a01b03163314610b51576040516302b6341b60e41b815260040160405180910390fd5b6000828152600c60205260409020610b699082611bae565b505050565b600a546001600160a01b03163314610b99576040516302b6341b60e41b815260040160405180910390fd5b6000828152600c60205260409020610b699082611c1b565b600a546000906001600160a01b03163314610bdf576040516302b6341b60e41b815260040160405180910390fd5b60008383604051602001610bf4929190612378565b60405160208183030381529060405280519060200120905084600014610c2e576000858152601660205260409020610c2c9082611c1b565b505b6040805180820182526001600160a01b0380871682526020808301878152600086815260109092529390209151825491166001600160a01b0319909116178155905160019091015590509392505050565b600a546001600160a01b03163314610caa576040516302b6341b60e41b815260040160405180910390fd5b6000818152601c602052604081205490819003610cda576040516366012df560e11b815260040160405180910390fd5b6000818152601d602090815260408083208054600019908101909155601e80549091019055848352600b8252808320839055601c90915280822082905551839183917f410c5c259085cde81fedf70c1aa308ec839373c26e9b7ada6560a2aca0254eb69190a35050565b600a546001600160a01b03163314610d6f576040516302b6341b60e41b815260040160405180910390fd5b600081604051602001610d82919061240c565b60408051601f198184030181529181528151602092830120600086815260199093529120909150610db39082611bae565b50505050565b6000818152601c602052604081205482908203610de9576040516366012df560e11b815260040160405180910390fd5b6000838152600c60205260409020610e0090611c27565b9392505050565b6000818152601c602052604081205482908203610e37576040516366012df560e11b815260040160405180910390fd5b6000838152601960205260409020610e0090611c27565b600a546001600160a01b03163314610e79576040516302b6341b60e41b815260040160405180910390fd5b6000828152600d60205260409020610b699082611c31565b6000818152601c602052604081205460609183919003610ec4576040516366012df560e11b815260040160405180910390fd5b6000838152600d60205260409020610e0090611c46565b600a546000906001600160a01b03163314610f09576040516302b6341b60e41b815260040160405180910390fd5b604051634e6f746560e01b6020820152602481018490526044810183905260009060640160405160208183030381529060405280519060200120905084600014610f67576000858152601760205260409020610f659082611c1b565b505b6040805180820182529485526020808601948552600083815260119091522093518455915160019093019290925592915050565b6000818152601c602052604081205460609183919003610fce576040516366012df560e11b815260040160405180910390fd5b6000838152601760205260408120610fe590611c46565b9050805167ffffffffffffffff81111561100157611001612092565b60405190808252806020026020018201604052801561104657816020015b604080518082019091526000808252602082015281526020019060019003908161101f5790505b50925060005b81518110156110d65760008282815181106110695761106961243a565b6020026020010151905060116000828152602001908152602001600020604051806040016040529081600082015481526020016001820154815250508583815181106110b7576110b761243a565b60200260200101819052505080806110ce906123f3565b91505061104c565b505050919050565b60008181526013602052604090208054606091906110fb906123a9565b80601f0160208091040260200160405190810160405280929190818152602001828054611127906123a9565b80156111745780601f1061114957610100808354040283529160200191611174565b820191906000526020600020905b81548152906001019060200180831161115757829003601f168201915b50505050509050919050565b6000818152601c6020526040812054829082036111b0576040516366012df560e11b815260040160405180910390fd5b610e0083611c53565b600a546000906001600160a01b031633146111e7576040516302b6341b60e41b815260040160405180910390fd5b6000826040516020016111fa919061240c565b604051602081830303815290604052805190602001209050836000146112345760008481526019602052604090206112329082611c1b565b505b600081815260136020526040902061124c848261249e565b509392505050565b6000818152601c602052604081205482908203611284576040516366012df560e11b815260040160405180910390fd5b6000838152601660205260409020610e0090611c27565b600a546040516370a0823160e01b81526001600160a01b03838116600483015260009283929116906370a0823190602401602060405180830381865afa1580156112e9573d6000803e3d6000fd5b505050506040513d601f19601f8201168201806040525081019061130d919061255e565b905060005b818110156113c257600a54604051632f745c5960e01b81526001600160a01b038681166004830152602482018490526000921690632f745c5990604401602060405180830381865afa15801561136c573d6000803e3d6000fd5b505050506040513d601f19601f82011682018060405250810190611390919061255e565b6000818152601d60205260409020549091506113ac9085612577565b93505080806113ba906123f3565b915050611312565b5050919050565b600a546001600160a01b031633146113f4576040516302b6341b60e41b815260040160405180910390fd5b6000828152601c6020526040812054839103611423576040516366012df560e11b815260040160405180910390fd5b6000838152600b602052604080822084905551839185917ff0aea9f7b630d17e54614f5667704230d832f3c25c0ebbbd2cd7b52914ce11aa9190a3505050565b6000818152601c602052604081205460609183919003611496576040516366012df560e11b815260040160405180910390fd5b6000838152601960205260409020610e0090611c46565b6000818152601c6020526040812054829082036114dd576040516366012df560e11b815260040160405180910390fd5b50506000908152601c602052604090205490565b6000828152601c6020526040812054839103611520576040516366012df560e11b815260040160405180910390fd5b600a546001600160a01b03163314801590611555575061153f83611c53565b6001600160a01b0316336001600160a01b031614155b1561157357604051631a64ce6560e11b815260040160405180910390fd5b600083815260156020526040902061158b838261249e565b50827f6d10c59cedadc720a2e20f54f0a461ef82bd35f762430e32ef049dd6d7fc2730836040516115bc9190611f90565b60405180910390a2505050565b6000818152601c6020526040812054829082036115f9576040516366012df560e11b815260040160405180910390fd5b6000838152600e60205260409020610e0090611c27565b6000818152601c602052604081205460609183919003611643576040516366012df560e11b815260040160405180910390fd5b600083815260166020526040812061165a90611c46565b9050805167ffffffffffffffff81111561167657611676612092565b6040519080825280602002602001820160405280156116bb57816020015b60408051808201909152600080825260208201528152602001906001900390816116945790505b50925060005b81518110156110d65760008282815181106116de576116de61243a565b602090810291909101810151600081815260108352604090819020815180830190925280546001600160a01b03168252600101549281019290925286519092508690849081106117305761173061243a565b6020026020010181905250508080611747906123f3565b9150506116c1565b606060018054610893906123a9565b6000818152601c60205260408120548290820361178e576040516366012df560e11b815260040160405180910390fd5b6000838152600d60205260409020610e0090611c27565b6000818152601c6020526040812054606091839190036117d8576040516366012df560e11b815260040160405180910390fd5b600083815260156020526040902080546117f1906123a9565b80601f016020809104026020016040519081016040528092919081815260200182805461181d906123a9565b801561186a5780601f1061183f5761010080835404028352916020019161186a565b820191906000526020600020905b81548152906001019060200180831161184d57829003601f168201915b5050505050915050919050565b6000818152601c6020526040812054606091839190036118aa576040516366012df560e11b815260040160405180910390fd5b6000838152600c60205260409020610e0090611c46565b600a546001600160a01b031633146118ec576040516302b6341b60e41b815260040160405180910390fd5b6000828152600e60205260409020610b699082611c1b565b600a546001600160a01b0316331461192f576040516302b6341b60e41b815260040160405180910390fd5b6000828152600e60205260409020610b699082611bae565b6000818152601c60205260408120546060918391900361197a576040516366012df560e11b815260040160405180910390fd5b600083815260196020526040812061199190611c46565b9050805167ffffffffffffffff8111156119ad576119ad612092565b6040519080825280602002602001820160405280156119e057816020015b60608152602001906001900390816119cb5790505b50925060005b81518110156110d6576000828281518110611a0357611a0361243a565b60200260200101519050601360008281526020019081526020016000208054611a2b906123a9565b80601f0160208091040260200160405190810160405280929190818152602001828054611a57906123a9565b8015611aa45780601f10611a7957610100808354040283529160200191611aa4565b820191906000526020600020905b815481529060010190602001808311611a8757829003601f168201915b5050505050858381518110611abb57611abb61243a565b6020026020010181905250508080611ad2906123f3565b9150506119e6565b600a546001600160a01b03163314611b05576040516302b6341b60e41b815260040160405180910390fd5b6000828152600d60205260409020610b699082611ccf565b6000818152601c602052604081205460609183919003611b50576040516366012df560e11b815260040160405180910390fd5b6000838152600e60205260409020610e0090611c46565b6000818152601c602052604081205482908203611b97576040516366012df560e11b815260040160405180910390fd5b6000838152601760205260409020610e0090611c27565b6000610e008383611ce4565b6000611bc784868361258a565b506001611bd582848361258a565b507f414cd0b34676984f09a5f76ce9718d4062e50283abe0e7e274a9a5b4e0c99c308484848442604051611c0d959493929190612673565b60405180910390a150505050565b6000610e008383611dd7565b6000610786825490565b6000610e00836001600160a01b038416611ce4565b60606000610e0083611e26565b6000818152601c602052604080822054600a5491516331a9108f60e11b81526004810182905290916001600160a01b031690636352211e90602401602060405180830381865afa158015611cab573d6000803e3d6000fd5b505050506040513d601f19601f82011682018060405250810190610e0091906126ad565b6000610e00836001600160a01b038416611dd7565b60008181526001830160205260408120548015611dcd576000611d086001836126ca565b8554909150600090611d1c906001906126ca565b9050818114611d81576000866000018281548110611d3c57611d3c61243a565b9060005260206000200154905080876000018481548110611d5f57611d5f61243a565b6000918252602080832090910192909255918252600188019052604090208390555b8554869080611d9257611d926126dd565b600190038181906000526020600020016000905590558560010160008681526020019081526020016000206000905560019350505050610786565b6000915050610786565b6000818152600183016020526040812054611e1e57508154600181810184556000848152602080822090930184905584548482528286019093526040902091909155610786565b506000610786565b60608160000180548060200260200160405190810160405280929190818152602001828054801561117457602002820191906000526020600020905b815481526020019060010190808311611e625750505050509050919050565b600060208284031215611e9357600080fd5b5035919050565b600060208284031215611eac57600080fd5b81356001600160e01b031981168114610e0057600080fd5b6001600160a01b0381168114611ed957600080fd5b50565b600080600060608486031215611ef157600080fd5b833592506020840135611f0381611ec4565b929592945050506040919091013590565b600080600060608486031215611f2957600080fd5b505081359360208301359350604090920135919050565b60005b83811015611f5b578181015183820152602001611f43565b50506000910152565b60008151808452611f7c816020860160208601611f40565b601f01601f19169290920160200192915050565b602081526000610e006020830184611f64565b60008083601f840112611fb557600080fd5b50813567ffffffffffffffff811115611fcd57600080fd5b602083019150836020828501011115611fe557600080fd5b9250929050565b60008060008060006060868803121561200457600080fd5b853567ffffffffffffffff8082111561201c57600080fd5b61202889838a01611fa3565b9097509550602088013591508082111561204157600080fd5b5061204e88828901611fa3565b909450925050604086013561206281611ec4565b809150509295509295909350565b6000806040838503121561208357600080fd5b50508035926020909101359150565b634e487b7160e01b600052604160045260246000fd5b600080604083850312156120bb57600080fd5b82359150602083013567ffffffffffffffff808211156120da57600080fd5b818501915085601f8301126120ee57600080fd5b81358181111561210057612100612092565b604051601f8201601f19908116603f0116810190838211818310171561212857612128612092565b8160405282815288602084870101111561214157600080fd5b8260208601602083013760006020848301015280955050505050509250929050565b815181526020808301519082015260408101610786565b81516001600160a01b031681526020808301519082015260408101610786565b600080604083850312156121ad57600080fd5b8235915060208301356121bf81611ec4565b809150509250929050565b6020808252825182820181905260009190848201906040850190845b8181101561220b5783516001600160a01b0316835292840192918401916001016121e6565b50909695505050505050565b602080825282518282018190526000919060409081850190868401855b828110156122615761225184835180518252602090810151910152565b9284019290850190600101612234565b5091979650505050505050565b60006020828403121561228057600080fd5b8135610e0081611ec4565b6020808252825182820181905260009190848201906040850190845b8181101561220b578351835292840192918401916001016122a7565b602080825282518282018190526000919060409081850190868401855b828110156122615761230684835180516001600160a01b03168252602090810151910152565b92840192908501906001016122e0565b6000602080830181845280855180835260408601915060408160051b870101925083870160005b8281101561236b57603f19888603018452612359858351611f64565b9450928501929085019060010161233d565b5092979650505050505050565b6545524337323160d01b815260609290921b6bffffffffffffffffffffffff19166006830152601a820152603a0190565b600181811c908216806123bd57607f821691505b60208210810361073457634e487b7160e01b600052602260045260246000fd5b634e487b7160e01b600052601160045260246000fd5b600060018201612405576124056123dd565b5060010190565b65416e7955726960d01b81526000825161242d816006850160208701611f40565b9190910160060192915050565b634e487b7160e01b600052603260045260246000fd5b601f821115610b6957600081815260208120601f850160051c810160208610156124775750805b601f850160051c820191505b8181101561249657828155600101612483565b505050505050565b815167ffffffffffffffff8111156124b8576124b8612092565b6124cc816124c684546123a9565b84612450565b602080601f83116001811461250157600084156124e95750858301515b600019600386901b1c1916600185901b178555612496565b600085815260208120601f198616915b8281101561253057888601518255948401946001909101908401612511565b508582101561254e5787850151600019600388901b60f8161c191681555b5050505050600190811b01905550565b60006020828403121561257057600080fd5b5051919050565b80820180821115610786576107866123dd565b67ffffffffffffffff8311156125a2576125a2612092565b6125b6836125b083546123a9565b83612450565b6000601f8411600181146125ea57600085156125d25750838201355b600019600387901b1c1916600186901b1783556107fd565b600083815260209020601f19861690835b8281101561261b57868501358255602094850194600190920191016125fb565b50868210156126385760001960f88860031b161c19848701351681555b505060018560011b0183555050505050565b81835281816020850137506000828201602090810191909152601f909101601f19169091010190565b60608152600061268760608301878961264a565b828103602084015261269a81868861264a565b9150508260408301529695505050505050565b6000602082840312156126bf57600080fd5b8151610e0081611ec4565b81810381811115610786576107866123dd565b634e487b7160e01b600052603160045260246000fdfea264697066735822122061781f9ecc9ea6d4accc2f0c3bb1e8f3606ef155ed6129199faa66c6f075eddc64736f6c63430008120033",
  "linkReferences": {},
  "deployedLinkReferences": {}
}