{
  "_format": "hh-sol-artifact-1",
  "contractName": "Linklist",
  "sourceName": "contracts/Linklist.sol",
  "abi": [
    {
      "inputs": [],
      "name": "ErrCallerNotWeb3Entry",
      "type": "error"
    },
    {
      "inputs": [],
      "name": "ErrCallerNotWeb3EntryOrNotOwner",
      "type": "error"
    },
    {
      "anonymous": false,
      "inputs": [
        {
          "indexed": true,
          "internalType": "address",
          "name": "owner",
          "type": "address"
        },
        {
          "indexed": true,
          "internalType": "address",
          "name": "approved",
          "type": "address"
        },
        {
          "indexed": true,
          "internalType": "uint256",
          "name": "tokenId",
          "type": "uint256"
        }
      ],
      "name": "Approval",
      "type": "event"
    },
    {
      "anonymous": false,
      "inputs": [
        {
          "indexed": true,
          "internalType": "address",
          "name": "owner",
          "type": "address"
        },
        {
          "indexed": true,
          "internalType": "address",
          "name": "operator",
          "type": "address"
        },
        {
          "indexed": false,
          "internalType": "bool",
          "name": "approved",
          "type": "bool"
        }
      ],
      "name": "ApprovalForAll",
      "type": "event"
    },
    {
      "anonymous": false,
      "inputs": [
        {
          "indexed": false,
          "internalType": "uint8",
          "name": "version",
          "type": "uint8"
        }
      ],
      "name": "Initialized",
      "type": "event"
    },
    {
      "anonymous": false,
      "inputs": [
        {
          "indexed": true,
          "internalType": "address",
          "name": "from",
          "type": "address"
        },
        {
          "indexed": true,
          "internalType": "uint256",
          "name": "characterId",
          "type": "uint256"
        },
        {
          "indexed": true,
          "internalType": "uint256",
          "name": "tokenId",
          "type": "uint256"
        }
      ],
      "name": "Transfer",
      "type": "event"
    },
    {
      "anonymous": false,
      "inputs": [
        {
          "indexed": true,
          "internalType": "address",
          "name": "from",
          "type": "address"
        },
        {
          "indexed": true,
          "internalType": "address",
          "name": "to",
          "type": "address"
        },
        {
          "indexed": true,
          "internalType": "uint256",
          "name": "tokenId",
          "type": "uint256"
        }
      ],
      "name": "Transfer",
      "type": "event"
    },
    {
      "inputs": [
        {
          "internalType": "uint256",
          "name": "tokenId",
          "type": "uint256"
        }
      ],
      "name": "Uri",
      "outputs": [
        {
          "internalType": "string",
          "name": "",
          "type": "string"
        }
      ],
      "stateMutability": "view",
      "type": "function"
    },
    {
      "inputs": [],
      "name": "Web3Entry",
      "outputs": [
        {
          "internalType": "address",
          "name": "",
          "type": "address"
        }
      ],
      "stateMutability": "view",
      "type": "function"
    },
    {
      "inputs": [
        {
          "internalType": "uint256",
          "name": "tokenId",
          "type": "uint256"
        },
        {
          "internalType": "address",
          "name": "ethAddress",
          "type": "address"
        }
      ],
      "name": "addLinkingAddress",
      "outputs": [],
      "stateMutability": "nonpayable",
      "type": "function"
    },
    {
      "inputs": [
        {
          "internalType": "uint256",
          "name": "tokenId",
          "type": "uint256"
        },
        {
          "internalType": "string",
          "name": "toUri",
          "type": "string"
        }
      ],
      "name": "addLinkingAnyUri",
      "outputs": [
        {
          "internalType": "bytes32",
          "name": "",
          "type": "bytes32"
        }
      ],
      "stateMutability": "nonpayable",
      "type": "function"
    },
    {
      "inputs": [
        {
          "internalType": "uint256",
          "name": "tokenId",
          "type": "uint256"
        },
        {
          "internalType": "uint256",
          "name": "toCharacterId",
          "type": "uint256"
        }
      ],
      "name": "addLinkingCharacterId",
      "outputs": [],
      "stateMutability": "nonpayable",
      "type": "function"
    },
    {
      "inputs": [
        {
          "internalType": "uint256",
          "name": "tokenId",
          "type": "uint256"
        },
        {
          "components": [
            {
              "internalType": "uint256",
              "name": "fromCharacterId",
              "type": "uint256"
            },
            {
              "internalType": "uint256",
              "name": "toCharacterId",
              "type": "uint256"
            },
            {
              "internalType": "bytes32",
              "name": "linkType",
              "type": "bytes32"
            }
          ],
          "internalType": "struct DataTypes.CharacterLinkStruct",
          "name": "linkData",
          "type": "tuple"
        }
      ],
      "name": "addLinkingCharacterLink",
      "outputs": [],
      "stateMutability": "nonpayable",
      "type": "function"
    },
    {
      "inputs": [
        {
          "internalType": "uint256",
          "name": "tokenId",
          "type": "uint256"
        },
        {
          "internalType": "address",
          "name": "tokenAddress",
          "type": "address"
        },
        {
          "internalType": "uint256",
          "name": "erc721TokenId",
          "type": "uint256"
        }
      ],
      "name": "addLinkingERC721",
      "outputs": [
        {
          "internalType": "bytes32",
          "name": "",
          "type": "bytes32"
        }
      ],
      "stateMutability": "nonpayable",
      "type": "function"
    },
    {
      "inputs": [
        {
          "internalType": "uint256",
          "name": "tokenId",
          "type": "uint256"
        },
        {
          "internalType": "uint256",
          "name": "linklistId",
          "type": "uint256"
        }
      ],
      "name": "addLinkingLinklistId",
      "outputs": [],
      "stateMutability": "nonpayable",
      "type": "function"
    },
    {
      "inputs": [
        {
          "internalType": "uint256",
          "name": "tokenId",
          "type": "uint256"
        },
        {
          "internalType": "uint256",
          "name": "toCharacterId",
          "type": "uint256"
        },
        {
          "internalType": "uint256",
          "name": "toNoteId",
          "type": "uint256"
        }
      ],
      "name": "addLinkingNote",
      "outputs": [
        {
          "internalType": "bytes32",
          "name": "",
          "type": "bytes32"
        }
      ],
      "stateMutability": "nonpayable",
      "type": "function"
    },
    {
      "inputs": [
        {
          "internalType": "address",
          "name": "to",
          "type": "address"
        },
        {
          "internalType": "uint256",
          "name": "tokenId",
          "type": "uint256"
        }
      ],
      "name": "approve",
      "outputs": [],
      "stateMutability": "nonpayable",
      "type": "function"
    },
    {
      "inputs": [
        {
          "internalType": "address",
          "name": "account",
          "type": "address"
        }
      ],
      "name": "balanceOf",
      "outputs": [
        {
          "internalType": "uint256",
          "name": "balance",
          "type": "uint256"
        }
      ],
      "stateMutability": "view",
      "type": "function"
    },
    {
      "inputs": [
        {
          "internalType": "uint256",
          "name": "characterId",
          "type": "uint256"
        }
      ],
      "name": "balanceOf",
      "outputs": [
        {
          "internalType": "uint256",
          "name": "",
          "type": "uint256"
        }
      ],
      "stateMutability": "view",
      "type": "function"
    },
    {
      "inputs": [
        {
          "internalType": "uint256",
          "name": "tokenId",
          "type": "uint256"
        }
      ],
      "name": "burn",
      "outputs": [],
      "stateMutability": "nonpayable",
      "type": "function"
    },
    {
      "inputs": [
        {
          "internalType": "uint256",
          "name": "tokenId",
          "type": "uint256"
        }
      ],
      "name": "characterOwnerOf",
      "outputs": [
        {
          "internalType": "uint256",
          "name": "",
          "type": "uint256"
        }
      ],
      "stateMutability": "view",
      "type": "function"
    },
    {
      "inputs": [
        {
          "internalType": "uint256",
          "name": "tokenId",
          "type": "uint256"
        }
      ],
      "name": "getApproved",
      "outputs": [
        {
          "internalType": "address",
          "name": "",
          "type": "address"
        }
      ],
      "stateMutability": "view",
      "type": "function"
    },
    {
      "inputs": [
        {
          "internalType": "uint256",
          "name": "tokenId",
          "type": "uint256"
        }
      ],
      "name": "getCurrentTakeOver",
      "outputs": [
        {
          "internalType": "uint256",
          "name": "characterId",
          "type": "uint256"
        }
      ],
      "stateMutability": "view",
      "type": "function"
    },
    {
      "inputs": [
        {
          "internalType": "uint256",
          "name": "tokenId",
          "type": "uint256"
        }
      ],
      "name": "getLinkType",
      "outputs": [
        {
          "internalType": "bytes32",
          "name": "",
          "type": "bytes32"
        }
      ],
      "stateMutability": "view",
      "type": "function"
    },
    {
      "inputs": [
        {
          "internalType": "uint256",
          "name": "tokenId",
          "type": "uint256"
        }
      ],
      "name": "getLinkingAddressListLength",
      "outputs": [
        {
          "internalType": "uint256",
          "name": "",
          "type": "uint256"
        }
      ],
      "stateMutability": "view",
      "type": "function"
    },
    {
      "inputs": [
        {
          "internalType": "uint256",
          "name": "tokenId",
          "type": "uint256"
        }
      ],
      "name": "getLinkingAddresses",
      "outputs": [
        {
          "internalType": "address[]",
          "name": "",
          "type": "address[]"
        }
      ],
      "stateMutability": "view",
      "type": "function"
    },
    {
      "inputs": [
        {
          "internalType": "uint256",
          "name": "tokenId",
          "type": "uint256"
        }
      ],
      "name": "getLinkingAnyListLength",
      "outputs": [
        {
          "internalType": "uint256",
          "name": "",
          "type": "uint256"
        }
      ],
      "stateMutability": "view",
      "type": "function"
    },
    {
      "inputs": [
        {
          "internalType": "bytes32",
          "name": "linkKey",
          "type": "bytes32"
        }
      ],
      "name": "getLinkingAnyUri",
      "outputs": [
        {
          "internalType": "string",
          "name": "",
          "type": "string"
        }
      ],
      "stateMutability": "view",
      "type": "function"
    },
    {
      "inputs": [
        {
          "internalType": "uint256",
          "name": "tokenId",
          "type": "uint256"
        }
      ],
      "name": "getLinkingAnyUriKeys",
      "outputs": [
        {
          "internalType": "bytes32[]",
          "name": "",
          "type": "bytes32[]"
        }
      ],
      "stateMutability": "view",
      "type": "function"
    },
    {
      "inputs": [
        {
          "internalType": "uint256",
          "name": "tokenId",
          "type": "uint256"
        }
      ],
      "name": "getLinkingAnyUris",
      "outputs": [
        {
          "internalType": "string[]",
          "name": "results",
          "type": "string[]"
        }
      ],
      "stateMutability": "view",
      "type": "function"
    },
    {
      "inputs": [
        {
          "internalType": "uint256",
          "name": "tokenId",
          "type": "uint256"
        }
      ],
      "name": "getLinkingCharacterIds",
      "outputs": [
        {
          "internalType": "uint256[]",
          "name": "",
          "type": "uint256[]"
        }
      ],
      "stateMutability": "view",
      "type": "function"
    },
    {
      "inputs": [
        {
          "internalType": "bytes32",
          "name": "linkKey",
          "type": "bytes32"
        }
      ],
      "name": "getLinkingCharacterLink",
      "outputs": [
        {
          "components": [
            {
              "internalType": "uint256",
              "name": "fromCharacterId",
              "type": "uint256"
            },
            {
              "internalType": "uint256",
              "name": "toCharacterId",
              "type": "uint256"
            },
            {
              "internalType": "bytes32",
              "name": "linkType",
              "type": "bytes32"
            }
          ],
          "internalType": "struct DataTypes.CharacterLinkStruct",
          "name": "",
          "type": "tuple"
        }
      ],
      "stateMutability": "view",
      "type": "function"
    },
    {
      "inputs": [
        {
          "internalType": "uint256",
          "name": "tokenId",
          "type": "uint256"
        }
      ],
      "name": "getLinkingCharacterLinkListLength",
      "outputs": [
        {
          "internalType": "uint256",
          "name": "",
          "type": "uint256"
        }
      ],
      "stateMutability": "view",
      "type": "function"
    },
    {
      "inputs": [
        {
          "internalType": "uint256",
          "name": "tokenId",
          "type": "uint256"
        }
      ],
      "name": "getLinkingCharacterLinks",
      "outputs": [
        {
          "components": [
            {
              "internalType": "uint256",
              "name": "fromCharacterId",
              "type": "uint256"
            },
            {
              "internalType": "uint256",
              "name": "toCharacterId",
              "type": "uint256"
            },
            {
              "internalType": "bytes32",
              "name": "linkType",
              "type": "bytes32"
            }
          ],
          "internalType": "struct DataTypes.CharacterLinkStruct[]",
          "name": "results",
          "type": "tuple[]"
        }
      ],
      "stateMutability": "view",
      "type": "function"
    },
    {
      "inputs": [
        {
          "internalType": "uint256",
          "name": "tokenId",
          "type": "uint256"
        }
      ],
      "name": "getLinkingCharacterListLength",
      "outputs": [
        {
          "internalType": "uint256",
          "name": "",
          "type": "uint256"
        }
      ],
      "stateMutability": "view",
      "type": "function"
    },
    {
      "inputs": [
        {
          "internalType": "bytes32",
          "name": "linkKey",
          "type": "bytes32"
        }
      ],
      "name": "getLinkingERC721",
      "outputs": [
        {
          "components": [
            {
              "internalType": "address",
              "name": "tokenAddress",
              "type": "address"
            },
            {
              "internalType": "uint256",
              "name": "erc721TokenId",
              "type": "uint256"
            }
          ],
          "internalType": "struct DataTypes.ERC721Struct",
          "name": "",
          "type": "tuple"
        }
      ],
      "stateMutability": "view",
      "type": "function"
    },
    {
      "inputs": [
        {
          "internalType": "uint256",
          "name": "tokenId",
          "type": "uint256"
        }
      ],
      "name": "getLinkingERC721ListLength",
      "outputs": [
        {
          "internalType": "uint256",
          "name": "",
          "type": "uint256"
        }
      ],
      "stateMutability": "view",
      "type": "function"
    },
    {
      "inputs": [
        {
          "internalType": "uint256",
          "name": "tokenId",
          "type": "uint256"
        }
      ],
      "name": "getLinkingERC721s",
      "outputs": [
        {
          "components": [
            {
              "internalType": "address",
              "name": "tokenAddress",
              "type": "address"
            },
            {
              "internalType": "uint256",
              "name": "erc721TokenId",
              "type": "uint256"
            }
          ],
          "internalType": "struct DataTypes.ERC721Struct[]",
          "name": "results",
          "type": "tuple[]"
        }
      ],
      "stateMutability": "view",
      "type": "function"
    },
    {
      "inputs": [
        {
          "internalType": "uint256",
          "name": "tokenId",
          "type": "uint256"
        }
      ],
      "name": "getLinkingLinklistIds",
      "outputs": [
        {
          "internalType": "uint256[]",
          "name": "",
          "type": "uint256[]"
        }
      ],
      "stateMutability": "view",
      "type": "function"
    },
    {
      "inputs": [
        {
          "internalType": "uint256",
          "name": "tokenId",
          "type": "uint256"
        }
      ],
      "name": "getLinkingLinklistLength",
      "outputs": [
        {
          "internalType": "uint256",
          "name": "",
          "type": "uint256"
        }
      ],
      "stateMutability": "view",
      "type": "function"
    },
    {
      "inputs": [
        {
          "internalType": "bytes32",
          "name": "linkKey",
          "type": "bytes32"
        }
      ],
      "name": "getLinkingNote",
      "outputs": [
        {
          "components": [
            {
              "internalType": "uint256",
              "name": "characterId",
              "type": "uint256"
            },
            {
              "internalType": "uint256",
              "name": "noteId",
              "type": "uint256"
            }
          ],
          "internalType": "struct DataTypes.NoteStruct",
          "name": "",
          "type": "tuple"
        }
      ],
      "stateMutability": "view",
      "type": "function"
    },
    {
      "inputs": [
        {
          "internalType": "uint256",
          "name": "tokenId",
          "type": "uint256"
        }
      ],
      "name": "getLinkingNoteListLength",
      "outputs": [
        {
          "internalType": "uint256",
          "name": "",
          "type": "uint256"
        }
      ],
      "stateMutability": "view",
      "type": "function"
    },
    {
      "inputs": [
        {
          "internalType": "uint256",
          "name": "tokenId",
          "type": "uint256"
        }
      ],
      "name": "getLinkingNotes",
      "outputs": [
        {
          "components": [
            {
              "internalType": "uint256",
              "name": "characterId",
              "type": "uint256"
            },
            {
              "internalType": "uint256",
              "name": "noteId",
              "type": "uint256"
            }
          ],
          "internalType": "struct DataTypes.NoteStruct[]",
          "name": "results",
          "type": "tuple[]"
        }
      ],
      "stateMutability": "view",
      "type": "function"
    },
    {
      "inputs": [
        {
          "internalType": "uint256",
          "name": "tokenId",
          "type": "uint256"
        }
      ],
      "name": "getOwnerCharacterId",
      "outputs": [
        {
          "internalType": "uint256",
          "name": "",
          "type": "uint256"
        }
      ],
      "stateMutability": "view",
      "type": "function"
    },
    {
      "inputs": [
        {
          "internalType": "string",
          "name": "name_",
          "type": "string"
        },
        {
          "internalType": "string",
          "name": "symbol_",
          "type": "string"
        },
        {
          "internalType": "address",
          "name": "web3Entry_",
          "type": "address"
        }
      ],
      "name": "initialize",
      "outputs": [],
      "stateMutability": "nonpayable",
      "type": "function"
    },
    {
      "inputs": [
        {
          "internalType": "address",
          "name": "owner",
          "type": "address"
        },
        {
          "internalType": "address",
          "name": "operator",
          "type": "address"
        }
      ],
      "name": "isApprovedForAll",
      "outputs": [
        {
          "internalType": "bool",
          "name": "",
          "type": "bool"
        }
      ],
      "stateMutability": "view",
      "type": "function"
    },
    {
      "inputs": [
        {
          "internalType": "uint256",
          "name": "characterId",
          "type": "uint256"
        },
        {
          "internalType": "bytes32",
          "name": "linkType",
          "type": "bytes32"
        }
      ],
      "name": "mint",
      "outputs": [
        {
          "internalType": "uint256",
          "name": "tokenId",
          "type": "uint256"
        }
      ],
      "stateMutability": "nonpayable",
      "type": "function"
    },
    {
      "inputs": [],
      "name": "name",
      "outputs": [
        {
          "internalType": "string",
          "name": "",
          "type": "string"
        }
      ],
      "stateMutability": "view",
      "type": "function"
    },
    {
      "inputs": [
        {
          "internalType": "uint256",
          "name": "tokenId",
          "type": "uint256"
        }
      ],
      "name": "ownerOf",
      "outputs": [
        {
          "internalType": "address",
          "name": "",
          "type": "address"
        }
      ],
      "stateMutability": "view",
      "type": "function"
    },
    {
      "inputs": [
        {
          "internalType": "uint256",
          "name": "tokenId",
          "type": "uint256"
        },
        {
          "internalType": "address",
          "name": "ethAddress",
          "type": "address"
        }
      ],
      "name": "removeLinkingAddress",
      "outputs": [],
      "stateMutability": "nonpayable",
      "type": "function"
    },
    {
      "inputs": [
        {
          "internalType": "uint256",
          "name": "tokenId",
          "type": "uint256"
        },
        {
          "internalType": "string",
          "name": "toUri",
          "type": "string"
        }
      ],
      "name": "removeLinkingAnyUri",
      "outputs": [],
      "stateMutability": "nonpayable",
      "type": "function"
    },
    {
      "inputs": [
        {
          "internalType": "uint256",
          "name": "tokenId",
          "type": "uint256"
        },
        {
          "internalType": "uint256",
          "name": "toCharacterId",
          "type": "uint256"
        }
      ],
      "name": "removeLinkingCharacterId",
      "outputs": [],
      "stateMutability": "nonpayable",
      "type": "function"
    },
    {
      "inputs": [
        {
          "internalType": "uint256",
          "name": "tokenId",
          "type": "uint256"
        },
        {
          "components": [
            {
              "internalType": "uint256",
              "name": "fromCharacterId",
              "type": "uint256"
            },
            {
              "internalType": "uint256",
              "name": "toCharacterId",
              "type": "uint256"
            },
            {
              "internalType": "bytes32",
              "name": "linkType",
              "type": "bytes32"
            }
          ],
          "internalType": "struct DataTypes.CharacterLinkStruct",
          "name": "linkData",
          "type": "tuple"
        }
      ],
      "name": "removeLinkingCharacterLink",
      "outputs": [],
      "stateMutability": "nonpayable",
      "type": "function"
    },
    {
      "inputs": [
        {
          "internalType": "uint256",
          "name": "tokenId",
          "type": "uint256"
        },
        {
          "internalType": "address",
          "name": "tokenAddress",
          "type": "address"
        },
        {
          "internalType": "uint256",
          "name": "erc721TokenId",
          "type": "uint256"
        }
      ],
      "name": "removeLinkingERC721",
      "outputs": [],
      "stateMutability": "nonpayable",
      "type": "function"
    },
    {
      "inputs": [
        {
          "internalType": "uint256",
          "name": "tokenId",
          "type": "uint256"
        },
        {
          "internalType": "uint256",
          "name": "linklistId",
          "type": "uint256"
        }
      ],
      "name": "removeLinkingLinklistId",
      "outputs": [],
      "stateMutability": "nonpayable",
      "type": "function"
    },
    {
      "inputs": [
        {
          "internalType": "uint256",
          "name": "tokenId",
          "type": "uint256"
        },
        {
          "internalType": "uint256",
          "name": "toCharacterId",
          "type": "uint256"
        },
        {
          "internalType": "uint256",
          "name": "toNoteId",
          "type": "uint256"
        }
      ],
      "name": "removeLinkingNote",
      "outputs": [],
      "stateMutability": "nonpayable",
      "type": "function"
    },
    {
      "inputs": [
        {
          "internalType": "address",
          "name": "from",
          "type": "address"
        },
        {
          "internalType": "address",
          "name": "to",
          "type": "address"
        },
        {
          "internalType": "uint256",
          "name": "tokenId",
          "type": "uint256"
        }
      ],
      "name": "safeTransferFrom",
      "outputs": [],
      "stateMutability": "nonpayable",
      "type": "function"
    },
    {
      "inputs": [
        {
          "internalType": "address",
          "name": "from",
          "type": "address"
        },
        {
          "internalType": "address",
          "name": "to",
          "type": "address"
        },
        {
          "internalType": "uint256",
          "name": "tokenId",
          "type": "uint256"
        },
        {
          "internalType": "bytes",
          "name": "_data",
          "type": "bytes"
        }
      ],
      "name": "safeTransferFrom",
      "outputs": [],
      "stateMutability": "nonpayable",
      "type": "function"
    },
    {
      "inputs": [
        {
          "internalType": "address",
          "name": "operator",
          "type": "address"
        },
        {
          "internalType": "bool",
          "name": "approved",
          "type": "bool"
        }
      ],
      "name": "setApprovalForAll",
      "outputs": [],
      "stateMutability": "nonpayable",
      "type": "function"
    },
    {
      "inputs": [
        {
          "internalType": "uint256",
          "name": "tokenId",
          "type": "uint256"
        },
        {
          "internalType": "string",
          "name": "newUri",
          "type": "string"
        }
      ],
      "name": "setUri",
      "outputs": [],
      "stateMutability": "nonpayable",
      "type": "function"
    },
    {
      "inputs": [
        {
          "internalType": "bytes4",
          "name": "interfaceId",
          "type": "bytes4"
        }
      ],
      "name": "supportsInterface",
      "outputs": [
        {
          "internalType": "bool",
          "name": "",
          "type": "bool"
        }
      ],
      "stateMutability": "view",
      "type": "function"
    },
    {
      "inputs": [],
      "name": "symbol",
      "outputs": [
        {
          "internalType": "string",
          "name": "",
          "type": "string"
        }
      ],
      "stateMutability": "view",
      "type": "function"
    },
    {
      "inputs": [
        {
          "internalType": "uint256",
          "name": "index",
          "type": "uint256"
        }
      ],
      "name": "tokenByIndex",
      "outputs": [
        {
          "internalType": "uint256",
          "name": "",
          "type": "uint256"
        }
      ],
      "stateMutability": "view",
      "type": "function"
    },
    {
      "inputs": [
        {
          "internalType": "address",
          "name": "owner",
          "type": "address"
        },
        {
          "internalType": "uint256",
          "name": "index",
          "type": "uint256"
        }
      ],
      "name": "tokenOfOwnerByIndex",
      "outputs": [
        {
          "internalType": "uint256",
          "name": "",
          "type": "uint256"
        }
      ],
      "stateMutability": "view",
      "type": "function"
    },
    {
      "inputs": [
        {
          "internalType": "uint256",
          "name": "tokenId",
          "type": "uint256"
        }
      ],
      "name": "tokenURI",
      "outputs": [
        {
          "internalType": "string",
          "name": "",
          "type": "string"
        }
      ],
      "stateMutability": "view",
      "type": "function"
    },
    {
      "inputs": [],
      "name": "totalSupply",
      "outputs": [
        {
          "internalType": "uint256",
          "name": "",
          "type": "uint256"
        }
      ],
      "stateMutability": "view",
      "type": "function"
    },
    {
      "inputs": [
        {
          "internalType": "address",
          "name": "from",
          "type": "address"
        },
        {
          "internalType": "address",
          "name": "to",
          "type": "address"
        },
        {
          "internalType": "uint256",
          "name": "tokenId",
          "type": "uint256"
        }
      ],
      "name": "transferFrom",
      "outputs": [],
      "stateMutability": "nonpayable",
      "type": "function"
    }
  ],
  "bytecode": "0x608060405234801561001057600080fd5b506133e6806100206000396000f3fe608060405234801561001057600080fd5b50600436106103a35760003560e01c80635f799cc6116101e9578063a22cb4651161010f578063c70881c5116100ad578063e985e9c51161007c578063e985e9c514610944578063ed386e6514610980578063ed6223cf14610993578063f61087f6146109a657600080fd5b8063c70881c5146108fe578063c87b56dd14610911578063cf101ac2146107b8578063e64f2baa1461092457600080fd5b8063ba27f58d116100e9578063ba27f58d146108b2578063c1cd4f82146108c5578063c4981986146108d8578063c5a5ed51146108eb57600080fd5b8063a22cb46514610879578063ac150a541461088c578063b88d4fde1461089f57600080fd5b80637803f217116101875780639037c0f9116101565780639037c0f91461081e57806395d89b411461083e57806397ce7df6146108465780639cc7f7081461085957600080fd5b80637803f217146107b8578063782f08ae146107d857806384bd9b67146107eb5780638fd6dc391461080b57600080fd5b80636c217e12116101c35780636c217e121461075f5780636d37d2741461077257806370a082311461078557806376bac0251461079857600080fd5b80635f799cc6146107265780636352211e1461073957806368e67d571461074c57600080fd5b80632ea24efc116102ce5780634a7906b91161026c5780635956da731161023b5780635956da73146106c05780635c369ec3146106d35780635cb46be7146106f35780635e9f678b1461070657600080fd5b80634a7906b9146105df5780634aa7b87a146106385780634f6ccce71461064b5780635440522b1461065e57600080fd5b806342966c68116102a857806342966c681461059257806342c1721f146105a557806348d1b16c146105b8578063493fa4dc146105cb57600080fd5b80632ea24efc146105595780632f745c591461056c57806342842e0e1461057f57600080fd5b8063095ea7b31161034657806321cb72271161031557806321cb72271461050d57806323b872dd14610520578063288893d6146105335780632ce83d871461054657600080fd5b8063095ea7b3146104795780631801fbe51461048c57806318160ddd1461049f57806319ac741b146104a757600080fd5b8063040f761811610382578063040f76181461041357806306fdde0314610426578063077f224a1461043b578063081812fc1461044e57600080fd5b8062fba027146103a857806301ffc9a7146103db5780630370a161146103fe575b600080fd5b6103c86103b63660046128c1565b6000908152600b602052604090205490565b6040519081526020015b60405180910390f35b6103ee6103e93660046128da565b6109b9565b60405190151581526020016103d2565b61041161040c366004612919565b6109e4565b005b610411610421366004612951565b610a39565b61042e610a96565b6040516103d291906129cd565b610411610449366004612a29565b610b28565b61046161045c3660046128c1565b610c95565b6040516001600160a01b0390911681526020016103d2565b610411610487366004612aad565b610d2a565b6103c861049a366004612ad9565b610e3f565b601b546103c8565b6105006104b53660046128c1565b60408051606080820183526000808352602080840182905292840181905293845260128252928290208251938401835280548452600181015491840191909152600201549082015290565b6040516103d29190612afb565b61041161051b366004612ad9565b610ece565b61041161052e366004612b1c565b610eee565b610411610541366004612ad9565b610f14565b6103c86105543660046128c1565b610f34565b6103c8610567366004612919565b610f4b565b6103c861057a366004612aad565b610ff5565b61041161058d366004612b1c565b61108b565b6104116105a03660046128c1565b6110a6565b6104116105b3366004612bd8565b611108565b6103c86105c63660046128c1565b61115a565b6103c86105d93660046128c1565b50600090565b61062b6105ed3660046128c1565b604080518082019091526000808252602082015250600090815260116020908152604091829020825180840190935280548352600101549082015290565b6040516103d29190612c33565b6103c86106463660046128c1565b611171565b6103c86106593660046128c1565b611188565b6106b361066c3660046128c1565b604080518082019091526000808252602082015250600090815260106020908152604091829020825180840190935280546001600160a01b03168352600101549082015290565b6040516103d29190612c4a565b6104116106ce366004612c6a565b61121b565b6106e66106e13660046128c1565b61123b565b6040516103d29190612c9a565b6103c8610701366004612951565b611255565b6107196107143660046128c1565b6112f1565b6040516103d29190612ce7565b61042e6107343660046128c1565b611404565b6104616107473660046128c1565b6114a6565b61041161075a366004612d3e565b611532565b6103c861076d366004612bd8565b6115a7565b6103c86107803660046128c1565b61161e565b6103c8610793366004612d76565b611635565b6107ab6107a63660046128c1565b61175c565b6040516103d29190612d93565b6103c86107c63660046128c1565b6000908152601c602052604090205490565b6104116107e6366004612bd8565b611776565b6107fe6107f93660046128c1565b611797565b6040516103d29190612dcb565b6103c86108193660046128c1565b6118b3565b61083161082c3660046128c1565b6118ca565b6040516103d29190612e21565b61042e6119da565b6103c86108543660046128c1565b6119e9565b6103c86108673660046128c1565b6000908152601d602052604090205490565b610411610887366004612e74565b611a00565b61042e61089a3660046128c1565b611a0f565b6104116108ad366004612ea7565b611a1a565b6107ab6108c03660046128c1565b611a45565b6104116108d3366004612ad9565b611a5f565b6104116108e6366004612d3e565b611a7f565b600a54610461906001600160a01b031681565b61041161090c366004612ad9565b611b2e565b61042e61091f3660046128c1565b611b4e565b6109376109323660046128c1565b611c36565b6040516103d29190612f27565b6103ee610952366004612f89565b6001600160a01b03918216600090815260056020908152604080832093909416825291909152205460ff1690565b61041161098e366004612c6a565b611d9a565b6107ab6109a13660046128c1565b611dba565b6103c86109b43660046128c1565b611dd4565b60006001600160e01b0319821663780e9d6360e01b14806109de57506109de82611deb565b92915050565b6109ec611e3b565b60008282604051602001610a01929190612fb7565b60408051601f198184030181529181528151602092830120600087815260169093529120909150610a329082611e68565b5050505050565b610a41611e3b565b604051634e6f746560e01b6020820152602481018390526044810182905260009060640160408051601f198184030181529181528151602092830120600087815260179093529120909150610a329082611e68565b606060008054610aa590612fe8565b80601f0160208091040260200160405190810160405280929190818152602001828054610ad190612fe8565b8015610b1e5780601f10610af357610100808354040283529160200191610b1e565b820191906000526020600020905b815481529060010190602001808311610b0157829003601f168201915b5050505050905090565b601a54610100900460ff1615808015610b485750601a54600160ff909116105b80610b625750303b158015610b625750601a5460ff166001145b610bca5760405162461bcd60e51b815260206004820152602e60248201527f496e697469616c697a61626c653a20636f6e747261637420697320616c72656160448201526d191e481a5b9a5d1a585b1a5e995960921b60648201526084015b60405180910390fd5b601a805460ff191660011790558015610bed57601a805461ff0019166101001790555b600a80546001600160a01b0319166001600160a01b038416179055610c1486868686611e74565b6040514281527fcfdec2ffedf2f5ec02de6f351c5f9b6150601f657926e9e87b16390d562af4e79060200160405180910390a18015610c8d57601a805461ff0019169055604051600181527f7f26b83ff96e1f2b6a682f133852f6798a09c465da95921460cefb38474024989060200160405180910390a15b505050505050565b6000818152600260205260408120546001600160a01b0316610d0e5760405162461bcd60e51b815260206004820152602c60248201527f4552433732313a20617070726f76656420717565727920666f72206e6f6e657860448201526b34b9ba32b73a103a37b5b2b760a11b6064820152608401610bc1565b506000908152600460205260409020546001600160a01b031690565b6000610d3582611ec5565b9050806001600160a01b0316836001600160a01b031603610da25760405162461bcd60e51b815260206004820152602160248201527f4552433732313a20617070726f76616c20746f2063757272656e74206f776e656044820152603960f91b6064820152608401610bc1565b336001600160a01b0382161480610dbe5750610dbe8133610952565b610e305760405162461bcd60e51b815260206004820152603860248201527f4552433732313a20617070726f76652063616c6c6572206973206e6f74206f7760448201527f6e6572206e6f7220617070726f76656420666f7220616c6c00000000000000006064820152608401610bc1565b610e3a8383611f3c565b505050565b6000610e49611e3b565b601b60008154610e5890613038565b91829055506000818152600b60209081526040808320869055601c8252808320879055868352601d9091528120805492935090610e9483613038565b9091555050604051819084906000907f7fa9aafeb8bb803d77de5d84bc2f2edbd842ca91b20cd5020aa21dfe26ab0be9908290a492915050565b610ed6611e3b565b6000828152600c60205260409020610e3a9082611e68565b610ef83382611faa565b610e3a5760405162461bcd60e51b8152600401610bc190613051565b610f1c611e3b565b6000828152600c60205260409020610e3a908261209d565b60008181526018602052604081206109de906120a9565b6000610f55611e3b565b60008383604051602001610f6a929190612fb7565b60405160208183030381529060405280519060200120905084600014610fa4576000858152601660205260409020610fa2908261209d565b505b6040805180820182526001600160a01b0380871682526020808301878152600086815260109092529390209151825491166001600160a01b0319909116178155905160019091015590509392505050565b6000611000836120b3565b82106110625760405162461bcd60e51b815260206004820152602b60248201527f455243373231456e756d657261626c653a206f776e657220696e646578206f7560448201526a74206f6620626f756e647360a81b6064820152608401610bc1565b506001600160a01b03919091166000908152600660209081526040808320938352929052205490565b610e3a83838360405180602001604052806000815250611a1a565b6110b03382611faa565b6110fc5760405162461bcd60e51b815260206004820152601b60248201527f4e4654426173653a204e6f744f776e65724f72417070726f76656400000000006044820152606401610bc1565b6111058161213a565b50565b611110611e3b565b60008160405160200161112391906130a2565b60408051601f1981840301815291815281516020928301206000868152601990935291209091506111549082611e68565b50505050565b6000818152600c602052604081206109de906120a9565b60008181526019602052604081206109de906120a9565b600061119360085490565b82106111f65760405162461bcd60e51b815260206004820152602c60248201527f455243373231456e756d657261626c653a20676c6f62616c20696e646578206f60448201526b7574206f6620626f756e647360a01b6064820152608401610bc1565b60088281548110611209576112096130d0565b90600052602060002001549050919050565b611223611e3b565b6000828152600d60205260409020610e3a90826121e1565b6000818152600d602052604090206060906109de906121f6565b600061125f611e3b565b604051634e6f746560e01b60208201526024810184905260448101839052600090606401604051602081830303815290604052805190602001209050846000146112bd5760008581526017602052604090206112bb908261209d565b505b6040805180820182529485526020808601948552600083815260119091522093518455915160019093019290925592915050565b60008181526017602052604081206060919061130c906121f6565b9050805167ffffffffffffffff81111561132857611328612b4c565b60405190808252806020026020018201604052801561136d57816020015b60408051808201909152600080825260208201528152602001906001900390816113465790505b50915060005b81518110156113fd576000828281518110611390576113906130d0565b6020026020010151905060116000828152602001908152602001600020604051806040016040529081600082015481526020016001820154815250508483815181106113de576113de6130d0565b60200260200101819052505080806113f590613038565b915050611373565b5050919050565b600081815260136020526040902080546060919061142190612fe8565b80601f016020809104026020016040519081016040528092919081815260200182805461144d90612fe8565b801561149a5780601f1061146f5761010080835404028352916020019161149a565b820191906000526020600020905b81548152906001019060200180831161147d57829003601f168201915b50505050509050919050565b6000818152601c60205260408120548190600a546040516331a9108f60e11b8152600481018390529192506000916001600160a01b0390911690636352211e90602401602060405180830381865afa158015611506573d6000803e3d6000fd5b505050506040513d601f19601f8201168201806040525081019061152a91906130e6565b949350505050565b61153a611e3b565b604080516c4368617261637465724c696e6b60981b6020828101919091528335602d830152830135604d82015290820135606d820152600090608d0160408051601f1981840301815291815281516020928301206000868152601890935291209091506111549082611e68565b60006115b1611e3b565b6000826040516020016115c491906130a2565b604051602081830303815290604052805190602001209050836000146115fe5760008481526019602052604090206115fc908261209d565b505b60008181526013602052604090206116168482613149565b509392505050565b60008181526016602052604081206109de906120a9565b600a546040516370a0823160e01b81526001600160a01b03838116600483015260009283929116906370a0823190602401602060405180830381865afa158015611683573d6000803e3d6000fd5b505050506040513d601f19601f820116820180604052508101906116a79190613209565b905060005b818110156113fd57600a54604051632f745c5960e01b81526001600160a01b038681166004830152602482018490526000921690632f745c5990604401602060405180830381865afa158015611706573d6000803e3d6000fd5b505050506040513d601f19601f8201168201806040525081019061172a9190613209565b6000818152601d60205260409020549091506117469085613222565b935050808061175490613038565b9150506116ac565b60008181526019602052604090206060906109de906121f6565b61177f82612203565b6000828152601560205260409020610e3a8282613149565b6000818152601860205260408120606091906117b2906121f6565b9050805167ffffffffffffffff8111156117ce576117ce612b4c565b60405190808252806020026020018201604052801561181957816020015b60408051606081018252600080825260208083018290529282015282526000199092019101816117ec5790505b50915060005b81518110156113fd57600082828151811061183c5761183c6130d0565b60200260200101519050601260008281526020019081526020016000206040518060600160405290816000820154815260200160018201548152602001600282015481525050848381518110611894576118946130d0565b60200260200101819052505080806118ab90613038565b91505061181f565b6000818152600e602052604081206109de906120a9565b6000818152601660205260408120606091906118e5906121f6565b9050805167ffffffffffffffff81111561190157611901612b4c565b60405190808252806020026020018201604052801561194657816020015b604080518082019091526000808252602082015281526020019060019003908161191f5790505b50915060005b81518110156113fd576000828281518110611969576119696130d0565b602090810291909101810151600081815260108352604090819020815180830190925280546001600160a01b03168252600101549281019290925285519092508590849081106119bb576119bb6130d0565b60200260200101819052505080806119d290613038565b91505061194c565b606060018054610aa590612fe8565b6000818152600d602052604081206109de906120a9565b611a0b338383612256565b5050565b60606109de82612324565b611a243383611faa565b611a405760405162461bcd60e51b8152600401610bc190613051565b611154565b6000818152600c602052604090206060906109de906121f6565b611a67611e3b565b6000828152600e60205260409020610e3a908261209d565b611a87611e3b565b604080516c4368617261637465724c696e6b60981b6020828101919091528335602d830152830135604d82015290820135606d820152600090608d0160405160208183030381529060405280519060200120905082600014611afd576000838152601860205260409020611afb908261209d565b505b60008181526012602052604090208290610a3282828135815560208201356001820155604082013560028201555050565b611b36611e3b565b6000828152600e60205260409020610e3a9082611e68565b6000818152600260205260409020546060906001600160a01b0316611bcd5760405162461bcd60e51b815260206004820152602f60248201527f4552433732314d657461646174613a2055524920717565727920666f72206e6f60448201526e3732bc34b9ba32b73a103a37b5b2b760891b6064820152608401610bc1565b6000611be460408051602081019091526000815290565b90506000815111611c045760405180602001604052806000815250611c2f565b80611c0e84612341565b604051602001611c1f929190613235565b6040516020818303038152906040525b9392505050565b600081815260196020526040812060609190611c51906121f6565b9050805167ffffffffffffffff811115611c6d57611c6d612b4c565b604051908082528060200260200182016040528015611ca057816020015b6060815260200190600190039081611c8b5790505b50915060005b81518110156113fd576000828281518110611cc357611cc36130d0565b60200260200101519050601360008281526020019081526020016000208054611ceb90612fe8565b80601f0160208091040260200160405190810160405280929190818152602001828054611d1790612fe8565b8015611d645780601f10611d3957610100808354040283529160200191611d64565b820191906000526020600020905b815481529060010190602001808311611d4757829003601f168201915b5050505050848381518110611d7b57611d7b6130d0565b6020026020010181905250508080611d9290613038565b915050611ca6565b611da2611e3b565b6000828152600d60205260409020610e3a90826123d4565b6000818152600e602052604090206060906109de906121f6565b60008181526017602052604081206109de906120a9565b60006001600160e01b031982166380ac58cd60e01b1480611e1c57506001600160e01b03198216635b5e139f60e01b145b806109de57506301ffc9a760e01b6001600160e01b03198316146109de565b600a546001600160a01b03163314611e66576040516302b6341b60e41b815260040160405180910390fd5b565b6000611c2f83836123e9565b611e80848484846124dc565b7f414cd0b34676984f09a5f76ce9718d4062e50283abe0e7e274a9a5b4e0c99c308484848442604051611eb795949392919061328d565b60405180910390a150505050565b6000818152600260205260408120546001600160a01b0316806109de5760405162461bcd60e51b815260206004820152602960248201527f4552433732313a206f776e657220717565727920666f72206e6f6e657869737460448201526832b73a103a37b5b2b760b91b6064820152608401610bc1565b600081815260046020526040902080546001600160a01b0319166001600160a01b0384169081179091558190611f7182611ec5565b6001600160a01b03167f8c5be1e5ebec7d5bd14f71427d1e84f3dd0314c0f7b2291e5b200ac8c7c3b92560405160405180910390a45050565b6000818152600260205260408120546001600160a01b03166120235760405162461bcd60e51b815260206004820152602c60248201527f4552433732313a206f70657261746f7220717565727920666f72206e6f6e657860448201526b34b9ba32b73a103a37b5b2b760a11b6064820152608401610bc1565b600061202e83611ec5565b9050806001600160a01b0316846001600160a01b031614806120695750836001600160a01b031661205e84610c95565b6001600160a01b0316145b8061152a57506001600160a01b0380821660009081526005602090815260408083209388168352929052205460ff1661152a565b6000611c2f83836124f7565b60006109de825490565b60006001600160a01b03821661211e5760405162461bcd60e51b815260206004820152602a60248201527f4552433732313a2062616c616e636520717565727920666f7220746865207a65604482015269726f206164647265737360b01b6064820152608401610bc1565b506001600160a01b031660009081526003602052604090205490565b600061214582611ec5565b905061215381600084612546565b61215e600083611f3c565b6001600160a01b03811660009081526003602052604081208054600192906121879084906132c7565b909155505060008281526002602052604080822080546001600160a01b0319169055518391906001600160a01b038416907fddf252ad1be2c89b69c2b068fc378daa952ba7f163c4a11628f55a4df523b3ef908390a45050565b6000611c2f836001600160a01b0384166123e9565b60606000611c2f836125fe565b600a546001600160a01b031633148015906122385750612222816114a6565b6001600160a01b0316336001600160a01b031614155b1561110557604051631a64ce6560e11b815260040160405180910390fd5b816001600160a01b0316836001600160a01b0316036122b75760405162461bcd60e51b815260206004820152601960248201527f4552433732313a20617070726f766520746f2063616c6c6572000000000000006044820152606401610bc1565b6001600160a01b03838116600081815260056020908152604080832094871680845294825291829020805460ff191686151590811790915591519182527f17307eab39ab6107e8899845ad3d59bd9653f200f220920489ca2b5937696c31910160405180910390a3505050565b600081815260156020526040902080546060919061142190612fe8565b6060600061234e83612659565b600101905060008167ffffffffffffffff81111561236e5761236e612b4c565b6040519080825280601f01601f191660200182016040528015612398576020820181803683370190505b5090508181016020015b600019016f181899199a1a9b1b9c1cb0b131b232b360811b600a86061a8153600a85049450846123a257509392505050565b6000611c2f836001600160a01b0384166124f7565b600081815260018301602052604081205480156124d257600061240d6001836132c7565b8554909150600090612421906001906132c7565b9050818114612486576000866000018281548110612441576124416130d0565b9060005260206000200154905080876000018481548110612464576124646130d0565b6000918252602080832090910192909255918252600188019052604090208390555b8554869080612497576124976132da565b6001900381819060005260206000200160009055905585600101600086815260200190815260200160002060009055600193505050506109de565b60009150506109de565b60006124e98486836132f0565b506001610a328284836132f0565b600081815260018301602052604081205461253e575081546001818101845560008481526020808220909301849055845484825282860190935260409020919091556109de565b5060006109de565b6001600160a01b0383166125a15761259c81600880546000838152600960205260408120829055600182018355919091527ff3f7a9fe364faab93b216da50a3214154f22a0a2b415b23a84c8169e8b636ee30155565b6125c4565b816001600160a01b0316836001600160a01b0316146125c4576125c48382612731565b6001600160a01b0382166125db57610e3a816127ce565b826001600160a01b0316826001600160a01b031614610e3a57610e3a828261287d565b60608160000180548060200260200160405190810160405280929190818152602001828054801561149a57602002820191906000526020600020905b81548152602001906001019080831161263a5750505050509050919050565b60008072184f03e93ff9f4daa797ed6e38ed64bf6a1f0160401b83106126985772184f03e93ff9f4daa797ed6e38ed64bf6a1f0160401b830492506040015b6d04ee2d6d415b85acef810000000083106126c4576d04ee2d6d415b85acef8100000000830492506020015b662386f26fc1000083106126e257662386f26fc10000830492506010015b6305f5e10083106126fa576305f5e100830492506008015b612710831061270e57612710830492506004015b60648310612720576064830492506002015b600a83106109de5760010192915050565b6000600161273e846120b3565b61274891906132c7565b60008381526007602052604090205490915080821461279b576001600160a01b03841660009081526006602090815260408083208584528252808320548484528184208190558352600790915290208190555b5060009182526007602090815260408084208490556001600160a01b039094168352600681528383209183525290812055565b6008546000906127e0906001906132c7565b60008381526009602052604081205460088054939450909284908110612808576128086130d0565b906000526020600020015490508060088381548110612829576128296130d0565b6000918252602080832090910192909255828152600990915260408082208490558582528120556008805480612861576128616132da565b6001900381819060005260206000200160009055905550505050565b6000612888836120b3565b6001600160a01b039093166000908152600660209081526040808320868452825280832085905593825260079052919091209190915550565b6000602082840312156128d357600080fd5b5035919050565b6000602082840312156128ec57600080fd5b81356001600160e01b031981168114611c2f57600080fd5b6001600160a01b038116811461110557600080fd5b60008060006060848603121561292e57600080fd5b83359250602084013561294081612904565b929592945050506040919091013590565b60008060006060848603121561296657600080fd5b505081359360208301359350604090920135919050565b60005b83811015612998578181015183820152602001612980565b50506000910152565b600081518084526129b981602086016020860161297d565b601f01601f19169290920160200192915050565b602081526000611c2f60208301846129a1565b60008083601f8401126129f257600080fd5b50813567ffffffffffffffff811115612a0a57600080fd5b602083019150836020828501011115612a2257600080fd5b9250929050565b600080600080600060608688031215612a4157600080fd5b853567ffffffffffffffff80821115612a5957600080fd5b612a6589838a016129e0565b90975095506020880135915080821115612a7e57600080fd5b50612a8b888289016129e0565b9094509250506040860135612a9f81612904565b809150509295509295909350565b60008060408385031215612ac057600080fd5b8235612acb81612904565b946020939093013593505050565b60008060408385031215612aec57600080fd5b50508035926020909101359150565b815181526020808301519082015260408083015190820152606081016109de565b600080600060608486031215612b3157600080fd5b8335612b3c81612904565b9250602084013561294081612904565b634e487b7160e01b600052604160045260246000fd5b600067ffffffffffffffff80841115612b7d57612b7d612b4c565b604051601f8501601f19908116603f01168101908282118183101715612ba557612ba5612b4c565b81604052809350858152868686011115612bbe57600080fd5b858560208301376000602087830101525050509392505050565b60008060408385031215612beb57600080fd5b82359150602083013567ffffffffffffffff811115612c0957600080fd5b8301601f81018513612c1a57600080fd5b612c2985823560208401612b62565b9150509250929050565b8151815260208083015190820152604081016109de565b81516001600160a01b0316815260208083015190820152604081016109de565b60008060408385031215612c7d57600080fd5b823591506020830135612c8f81612904565b809150509250929050565b6020808252825182820181905260009190848201906040850190845b81811015612cdb5783516001600160a01b031683529284019291840191600101612cb6565b50909695505050505050565b602080825282518282018190526000919060409081850190868401855b82811015612d3157612d2184835180518252602090810151910152565b9284019290850190600101612d04565b5091979650505050505050565b6000808284036080811215612d5257600080fd5b833592506060601f1982011215612d6857600080fd5b506020830190509250929050565b600060208284031215612d8857600080fd5b8135611c2f81612904565b6020808252825182820181905260009190848201906040850190845b81811015612cdb57835183529284019291840191600101612daf565b6020808252825182820181905260009190848201906040850190845b81811015612cdb57612e0e8385518051825260208082015190830152604090810151910152565b9284019260609290920191600101612de7565b602080825282518282018190526000919060409081850190868401855b82811015612d3157612e6484835180516001600160a01b03168252602090810151910152565b9284019290850190600101612e3e565b60008060408385031215612e8757600080fd5b8235612e9281612904565b915060208301358015158114612c8f57600080fd5b60008060008060808587031215612ebd57600080fd5b8435612ec881612904565b93506020850135612ed881612904565b925060408501359150606085013567ffffffffffffffff811115612efb57600080fd5b8501601f81018713612f0c57600080fd5b612f1b87823560208401612b62565b91505092959194509250565b6000602080830181845280855180835260408601915060408160051b870101925083870160005b82811015612f7c57603f19888603018452612f6a8583516129a1565b94509285019290850190600101612f4e565b5092979650505050505050565b60008060408385031215612f9c57600080fd5b8235612fa781612904565b91506020830135612c8f81612904565b6545524337323160d01b815260609290921b6bffffffffffffffffffffffff19166006830152601a820152603a0190565b600181811c90821680612ffc57607f821691505b60208210810361301c57634e487b7160e01b600052602260045260246000fd5b50919050565b634e487b7160e01b600052601160045260246000fd5b60006001820161304a5761304a613022565b5060010190565b60208082526031908201527f4552433732313a207472616e736665722063616c6c6572206973206e6f74206f6040820152701ddb995c881b9bdc88185c1c1c9bdd9959607a1b606082015260800190565b65416e7955726960d01b8152600082516130c381600685016020870161297d565b9190910160060192915050565b634e487b7160e01b600052603260045260246000fd5b6000602082840312156130f857600080fd5b8151611c2f81612904565b601f821115610e3a57600081815260208120601f850160051c8101602086101561312a5750805b601f850160051c820191505b81811015610c8d57828155600101613136565b815167ffffffffffffffff81111561316357613163612b4c565b613177816131718454612fe8565b84613103565b602080601f8311600181146131ac57600084156131945750858301515b600019600386901b1c1916600185901b178555610c8d565b600085815260208120601f198616915b828110156131db578886015182559484019460019091019084016131bc565b50858210156131f95787850151600019600388901b60f8161c191681555b5050505050600190811b01905550565b60006020828403121561321b57600080fd5b5051919050565b808201808211156109de576109de613022565b6000835161324781846020880161297d565b83519083019061325b81836020880161297d565b01949350505050565b81835281816020850137506000828201602090810191909152601f909101601f19169091010190565b6060815260006132a1606083018789613264565b82810360208401526132b4818688613264565b9150508260408301529695505050505050565b818103818111156109de576109de613022565b634e487b7160e01b600052603160045260246000fd5b67ffffffffffffffff83111561330857613308612b4c565b61331c836133168354612fe8565b83613103565b6000601f84116001811461335057600085156133385750838201355b600019600387901b1c1916600186901b178355610a32565b600083815260209020601f19861690835b828110156133815786850135825560209485019460019092019101613361565b508682101561339e5760001960f88860031b161c19848701351681555b505060018560011b018355505050505056fea264697066735822122065d080c3bbd88fb8107b5d2b65d49ffec3ab2726f7e4b1b68025bdf72eb339b464736f6c63430008100033",
  "linkReferences": {},
  "deployedLinkReferences": {}
}