{
  "_format": "hh-sol-artifact-1",
  "contractName": "Linklist",
  "sourceName": "contracts/Linklist.sol",
  "abi": [
    {
      "inputs": [],
      "name": "ErrCallerNotWeb3Entry",
      "type": "error"
    },
    {
      "inputs": [],
      "name": "ErrCallerNotWeb3EntryOrNotOwner",
      "type": "error"
    },
    {
      "inputs": [],
      "name": "ErrTokenNotExists",
      "type": "error"
    },
    {
      "anonymous": false,
      "inputs": [
        {
          "indexed": true,
          "internalType": "address",
          "name": "owner",
          "type": "address"
        },
        {
          "indexed": true,
          "internalType": "address",
          "name": "approved",
          "type": "address"
        },
        {
          "indexed": true,
          "internalType": "uint256",
          "name": "tokenId",
          "type": "uint256"
        }
      ],
      "name": "Approval",
      "type": "event"
    },
    {
      "anonymous": false,
      "inputs": [
        {
          "indexed": true,
          "internalType": "address",
          "name": "owner",
          "type": "address"
        },
        {
          "indexed": true,
          "internalType": "address",
          "name": "operator",
          "type": "address"
        },
        {
          "indexed": false,
          "internalType": "bool",
          "name": "approved",
          "type": "bool"
        }
      ],
      "name": "ApprovalForAll",
      "type": "event"
    },
    {
      "anonymous": false,
      "inputs": [
        {
          "indexed": true,
          "internalType": "uint256",
          "name": "from",
          "type": "uint256"
        },
        {
          "indexed": true,
          "internalType": "uint256",
          "name": "tokenId",
          "type": "uint256"
        }
      ],
      "name": "Burn",
      "type": "event"
    },
    {
      "anonymous": false,
      "inputs": [
        {
          "indexed": false,
          "internalType": "uint8",
          "name": "version",
          "type": "uint8"
        }
      ],
      "name": "Initialized",
      "type": "event"
    },
    {
      "anonymous": false,
      "inputs": [
        {
          "indexed": true,
          "internalType": "address",
          "name": "from",
          "type": "address"
        },
        {
          "indexed": true,
          "internalType": "uint256",
          "name": "characterId",
          "type": "uint256"
        },
        {
          "indexed": true,
          "internalType": "uint256",
          "name": "tokenId",
          "type": "uint256"
        }
      ],
      "name": "Transfer",
      "type": "event"
    },
    {
      "inputs": [
        {
          "internalType": "uint256",
          "name": "tokenId",
          "type": "uint256"
        }
      ],
      "name": "Uri",
      "outputs": [
        {
          "internalType": "string",
          "name": "",
          "type": "string"
        }
      ],
      "stateMutability": "view",
      "type": "function"
    },
    {
      "inputs": [],
      "name": "Web3Entry",
      "outputs": [
        {
          "internalType": "address",
          "name": "",
          "type": "address"
        }
      ],
      "stateMutability": "view",
      "type": "function"
    },
    {
      "inputs": [
        {
          "internalType": "uint256",
          "name": "tokenId",
          "type": "uint256"
        },
        {
          "internalType": "address",
          "name": "ethAddress",
          "type": "address"
        }
      ],
      "name": "addLinkingAddress",
      "outputs": [],
      "stateMutability": "nonpayable",
      "type": "function"
    },
    {
      "inputs": [
        {
          "internalType": "uint256",
          "name": "tokenId",
          "type": "uint256"
        },
        {
          "internalType": "string",
          "name": "toUri",
          "type": "string"
        }
      ],
      "name": "addLinkingAnyUri",
      "outputs": [
        {
          "internalType": "bytes32",
          "name": "",
          "type": "bytes32"
        }
      ],
      "stateMutability": "nonpayable",
      "type": "function"
    },
    {
      "inputs": [
        {
          "internalType": "uint256",
          "name": "tokenId",
          "type": "uint256"
        },
        {
          "internalType": "uint256",
          "name": "toCharacterId",
          "type": "uint256"
        }
      ],
      "name": "addLinkingCharacterId",
      "outputs": [],
      "stateMutability": "nonpayable",
      "type": "function"
    },
    {
      "inputs": [
        {
          "internalType": "uint256",
          "name": "tokenId",
          "type": "uint256"
        },
        {
          "internalType": "address",
          "name": "tokenAddress",
          "type": "address"
        },
        {
          "internalType": "uint256",
          "name": "erc721TokenId",
          "type": "uint256"
        }
      ],
      "name": "addLinkingERC721",
      "outputs": [
        {
          "internalType": "bytes32",
          "name": "",
          "type": "bytes32"
        }
      ],
      "stateMutability": "nonpayable",
      "type": "function"
    },
    {
      "inputs": [
        {
          "internalType": "uint256",
          "name": "tokenId",
          "type": "uint256"
        },
        {
          "internalType": "uint256",
          "name": "linklistId",
          "type": "uint256"
        }
      ],
      "name": "addLinkingLinklistId",
      "outputs": [],
      "stateMutability": "nonpayable",
      "type": "function"
    },
    {
      "inputs": [
        {
          "internalType": "uint256",
          "name": "tokenId",
          "type": "uint256"
        },
        {
          "internalType": "uint256",
          "name": "toCharacterId",
          "type": "uint256"
        },
        {
          "internalType": "uint256",
          "name": "toNoteId",
          "type": "uint256"
        }
      ],
      "name": "addLinkingNote",
      "outputs": [
        {
          "internalType": "bytes32",
          "name": "",
          "type": "bytes32"
        }
      ],
      "stateMutability": "nonpayable",
      "type": "function"
    },
    {
      "inputs": [
        {
          "internalType": "address",
          "name": "to",
          "type": "address"
        },
        {
          "internalType": "uint256",
          "name": "tokenId",
          "type": "uint256"
        }
      ],
      "name": "approve",
      "outputs": [],
      "stateMutability": "nonpayable",
      "type": "function"
    },
    {
      "inputs": [
        {
          "internalType": "address",
          "name": "account",
          "type": "address"
        }
      ],
      "name": "balanceOf",
      "outputs": [
        {
          "internalType": "uint256",
          "name": "balance",
          "type": "uint256"
        }
      ],
      "stateMutability": "view",
      "type": "function"
    },
    {
      "inputs": [
        {
          "internalType": "uint256",
          "name": "characterId",
          "type": "uint256"
        }
      ],
      "name": "balanceOf",
      "outputs": [
        {
          "internalType": "uint256",
          "name": "",
          "type": "uint256"
        }
      ],
      "stateMutability": "view",
      "type": "function"
    },
    {
      "inputs": [
        {
          "internalType": "uint256",
          "name": "tokenId",
          "type": "uint256"
        }
      ],
      "name": "burn",
      "outputs": [],
      "stateMutability": "nonpayable",
      "type": "function"
    },
    {
      "inputs": [
        {
          "internalType": "uint256",
          "name": "tokenId",
          "type": "uint256"
        }
      ],
      "name": "characterOwnerOf",
      "outputs": [
        {
          "internalType": "uint256",
          "name": "",
          "type": "uint256"
        }
      ],
      "stateMutability": "view",
      "type": "function"
    },
    {
      "inputs": [
        {
          "internalType": "uint256",
          "name": "tokenId",
          "type": "uint256"
        }
      ],
      "name": "getApproved",
      "outputs": [
        {
          "internalType": "address",
          "name": "",
          "type": "address"
        }
      ],
      "stateMutability": "view",
      "type": "function"
    },
    {
      "inputs": [
        {
          "internalType": "uint256",
          "name": "tokenId",
          "type": "uint256"
        }
      ],
      "name": "getCurrentTakeOver",
      "outputs": [
        {
          "internalType": "uint256",
          "name": "",
          "type": "uint256"
        }
      ],
      "stateMutability": "view",
      "type": "function"
    },
    {
      "inputs": [
        {
          "internalType": "uint256",
          "name": "tokenId",
          "type": "uint256"
        }
      ],
      "name": "getLinkType",
      "outputs": [
        {
          "internalType": "bytes32",
          "name": "",
          "type": "bytes32"
        }
      ],
      "stateMutability": "view",
      "type": "function"
    },
    {
      "inputs": [
        {
          "internalType": "uint256",
          "name": "tokenId",
          "type": "uint256"
        }
      ],
      "name": "getLinkingAddressListLength",
      "outputs": [
        {
          "internalType": "uint256",
          "name": "",
          "type": "uint256"
        }
      ],
      "stateMutability": "view",
      "type": "function"
    },
    {
      "inputs": [
        {
          "internalType": "uint256",
          "name": "tokenId",
          "type": "uint256"
        }
      ],
      "name": "getLinkingAddresses",
      "outputs": [
        {
          "internalType": "address[]",
          "name": "",
          "type": "address[]"
        }
      ],
      "stateMutability": "view",
      "type": "function"
    },
    {
      "inputs": [
        {
          "internalType": "uint256",
          "name": "tokenId",
          "type": "uint256"
        }
      ],
      "name": "getLinkingAnyListLength",
      "outputs": [
        {
          "internalType": "uint256",
          "name": "",
          "type": "uint256"
        }
      ],
      "stateMutability": "view",
      "type": "function"
    },
    {
      "inputs": [
        {
          "internalType": "bytes32",
          "name": "linkKey",
          "type": "bytes32"
        }
      ],
      "name": "getLinkingAnyUri",
      "outputs": [
        {
          "internalType": "string",
          "name": "",
          "type": "string"
        }
      ],
      "stateMutability": "view",
      "type": "function"
    },
    {
      "inputs": [
        {
          "internalType": "uint256",
          "name": "tokenId",
          "type": "uint256"
        }
      ],
      "name": "getLinkingAnyUriKeys",
      "outputs": [
        {
          "internalType": "bytes32[]",
          "name": "",
          "type": "bytes32[]"
        }
      ],
      "stateMutability": "view",
      "type": "function"
    },
    {
      "inputs": [
        {
          "internalType": "uint256",
          "name": "tokenId",
          "type": "uint256"
        }
      ],
      "name": "getLinkingAnyUris",
      "outputs": [
        {
          "internalType": "string[]",
          "name": "results",
          "type": "string[]"
        }
      ],
      "stateMutability": "view",
      "type": "function"
    },
    {
      "inputs": [
        {
          "internalType": "uint256",
          "name": "tokenId",
          "type": "uint256"
        }
      ],
      "name": "getLinkingCharacterIds",
      "outputs": [
        {
          "internalType": "uint256[]",
          "name": "",
          "type": "uint256[]"
        }
      ],
      "stateMutability": "view",
      "type": "function"
    },
    {
      "inputs": [
        {
          "internalType": "uint256",
          "name": "tokenId",
          "type": "uint256"
        }
      ],
      "name": "getLinkingCharacterListLength",
      "outputs": [
        {
          "internalType": "uint256",
          "name": "",
          "type": "uint256"
        }
      ],
      "stateMutability": "view",
      "type": "function"
    },
    {
      "inputs": [
        {
          "internalType": "bytes32",
          "name": "linkKey",
          "type": "bytes32"
        }
      ],
      "name": "getLinkingERC721",
      "outputs": [
        {
          "components": [
            {
              "internalType": "address",
              "name": "tokenAddress",
              "type": "address"
            },
            {
              "internalType": "uint256",
              "name": "erc721TokenId",
              "type": "uint256"
            }
          ],
          "internalType": "struct DataTypes.ERC721Struct",
          "name": "",
          "type": "tuple"
        }
      ],
      "stateMutability": "view",
      "type": "function"
    },
    {
      "inputs": [
        {
          "internalType": "uint256",
          "name": "tokenId",
          "type": "uint256"
        }
      ],
      "name": "getLinkingERC721ListLength",
      "outputs": [
        {
          "internalType": "uint256",
          "name": "",
          "type": "uint256"
        }
      ],
      "stateMutability": "view",
      "type": "function"
    },
    {
      "inputs": [
        {
          "internalType": "uint256",
          "name": "tokenId",
          "type": "uint256"
        }
      ],
      "name": "getLinkingERC721s",
      "outputs": [
        {
          "components": [
            {
              "internalType": "address",
              "name": "tokenAddress",
              "type": "address"
            },
            {
              "internalType": "uint256",
              "name": "erc721TokenId",
              "type": "uint256"
            }
          ],
          "internalType": "struct DataTypes.ERC721Struct[]",
          "name": "results",
          "type": "tuple[]"
        }
      ],
      "stateMutability": "view",
      "type": "function"
    },
    {
      "inputs": [
        {
          "internalType": "uint256",
          "name": "tokenId",
          "type": "uint256"
        }
      ],
      "name": "getLinkingLinklistIds",
      "outputs": [
        {
          "internalType": "uint256[]",
          "name": "",
          "type": "uint256[]"
        }
      ],
      "stateMutability": "view",
      "type": "function"
    },
    {
      "inputs": [
        {
          "internalType": "uint256",
          "name": "tokenId",
          "type": "uint256"
        }
      ],
      "name": "getLinkingLinklistLength",
      "outputs": [
        {
          "internalType": "uint256",
          "name": "",
          "type": "uint256"
        }
      ],
      "stateMutability": "view",
      "type": "function"
    },
    {
      "inputs": [
        {
          "internalType": "bytes32",
          "name": "linkKey",
          "type": "bytes32"
        }
      ],
      "name": "getLinkingNote",
      "outputs": [
        {
          "components": [
            {
              "internalType": "uint256",
              "name": "characterId",
              "type": "uint256"
            },
            {
              "internalType": "uint256",
              "name": "noteId",
              "type": "uint256"
            }
          ],
          "internalType": "struct DataTypes.NoteStruct",
          "name": "",
          "type": "tuple"
        }
      ],
      "stateMutability": "view",
      "type": "function"
    },
    {
      "inputs": [
        {
          "internalType": "uint256",
          "name": "tokenId",
          "type": "uint256"
        }
      ],
      "name": "getLinkingNoteListLength",
      "outputs": [
        {
          "internalType": "uint256",
          "name": "",
          "type": "uint256"
        }
      ],
      "stateMutability": "view",
      "type": "function"
    },
    {
      "inputs": [
        {
          "internalType": "uint256",
          "name": "tokenId",
          "type": "uint256"
        }
      ],
      "name": "getLinkingNotes",
      "outputs": [
        {
          "components": [
            {
              "internalType": "uint256",
              "name": "characterId",
              "type": "uint256"
            },
            {
              "internalType": "uint256",
              "name": "noteId",
              "type": "uint256"
            }
          ],
          "internalType": "struct DataTypes.NoteStruct[]",
          "name": "results",
          "type": "tuple[]"
        }
      ],
      "stateMutability": "view",
      "type": "function"
    },
    {
      "inputs": [
        {
          "internalType": "uint256",
          "name": "tokenId",
          "type": "uint256"
        }
      ],
      "name": "getOwnerCharacterId",
      "outputs": [
        {
          "internalType": "uint256",
          "name": "",
          "type": "uint256"
        }
      ],
      "stateMutability": "view",
      "type": "function"
    },
    {
      "inputs": [
        {
          "internalType": "string",
          "name": "name_",
          "type": "string"
        },
        {
          "internalType": "string",
          "name": "symbol_",
          "type": "string"
        },
        {
          "internalType": "address",
          "name": "web3Entry_",
          "type": "address"
        }
      ],
      "name": "initialize",
      "outputs": [],
      "stateMutability": "nonpayable",
      "type": "function"
    },
    {
      "inputs": [
        {
          "internalType": "address",
          "name": "owner",
          "type": "address"
        },
        {
          "internalType": "address",
          "name": "operator",
          "type": "address"
        }
      ],
      "name": "isApprovedForAll",
      "outputs": [
        {
          "internalType": "bool",
          "name": "",
          "type": "bool"
        }
      ],
      "stateMutability": "view",
      "type": "function"
    },
    {
      "inputs": [
        {
          "internalType": "uint256",
          "name": "characterId",
          "type": "uint256"
        },
        {
          "internalType": "bytes32",
          "name": "linkType",
          "type": "bytes32"
        }
      ],
      "name": "mint",
      "outputs": [
        {
          "internalType": "uint256",
          "name": "tokenId",
          "type": "uint256"
        }
      ],
      "stateMutability": "nonpayable",
      "type": "function"
    },
    {
      "inputs": [],
      "name": "name",
      "outputs": [
        {
          "internalType": "string",
          "name": "",
          "type": "string"
        }
      ],
      "stateMutability": "view",
      "type": "function"
    },
    {
      "inputs": [
        {
          "internalType": "uint256",
          "name": "tokenId",
          "type": "uint256"
        }
      ],
      "name": "ownerOf",
      "outputs": [
        {
          "internalType": "address",
          "name": "",
          "type": "address"
        }
      ],
      "stateMutability": "view",
      "type": "function"
    },
    {
      "inputs": [
        {
          "internalType": "uint256",
          "name": "tokenId",
          "type": "uint256"
        },
        {
          "internalType": "address",
          "name": "ethAddress",
          "type": "address"
        }
      ],
      "name": "removeLinkingAddress",
      "outputs": [],
      "stateMutability": "nonpayable",
      "type": "function"
    },
    {
      "inputs": [
        {
          "internalType": "uint256",
          "name": "tokenId",
          "type": "uint256"
        },
        {
          "internalType": "string",
          "name": "toUri",
          "type": "string"
        }
      ],
      "name": "removeLinkingAnyUri",
      "outputs": [],
      "stateMutability": "nonpayable",
      "type": "function"
    },
    {
      "inputs": [
        {
          "internalType": "uint256",
          "name": "tokenId",
          "type": "uint256"
        },
        {
          "internalType": "uint256",
          "name": "toCharacterId",
          "type": "uint256"
        }
      ],
      "name": "removeLinkingCharacterId",
      "outputs": [],
      "stateMutability": "nonpayable",
      "type": "function"
    },
    {
      "inputs": [
        {
          "internalType": "uint256",
          "name": "tokenId",
          "type": "uint256"
        },
        {
          "internalType": "address",
          "name": "tokenAddress",
          "type": "address"
        },
        {
          "internalType": "uint256",
          "name": "erc721TokenId",
          "type": "uint256"
        }
      ],
      "name": "removeLinkingERC721",
      "outputs": [],
      "stateMutability": "nonpayable",
      "type": "function"
    },
    {
      "inputs": [
        {
          "internalType": "uint256",
          "name": "tokenId",
          "type": "uint256"
        },
        {
          "internalType": "uint256",
          "name": "linklistId",
          "type": "uint256"
        }
      ],
      "name": "removeLinkingLinklistId",
      "outputs": [],
      "stateMutability": "nonpayable",
      "type": "function"
    },
    {
      "inputs": [
        {
          "internalType": "uint256",
          "name": "tokenId",
          "type": "uint256"
        },
        {
          "internalType": "uint256",
          "name": "toCharacterId",
          "type": "uint256"
        },
        {
          "internalType": "uint256",
          "name": "toNoteId",
          "type": "uint256"
        }
      ],
      "name": "removeLinkingNote",
      "outputs": [],
      "stateMutability": "nonpayable",
      "type": "function"
    },
    {
      "inputs": [
        {
          "internalType": "address",
          "name": "from",
          "type": "address"
        },
        {
          "internalType": "address",
          "name": "to",
          "type": "address"
        },
        {
          "internalType": "uint256",
          "name": "tokenId",
          "type": "uint256"
        }
      ],
      "name": "safeTransferFrom",
      "outputs": [],
      "stateMutability": "nonpayable",
      "type": "function"
    },
    {
      "inputs": [
        {
          "internalType": "address",
          "name": "from",
          "type": "address"
        },
        {
          "internalType": "address",
          "name": "to",
          "type": "address"
        },
        {
          "internalType": "uint256",
          "name": "tokenId",
          "type": "uint256"
        },
        {
          "internalType": "bytes",
          "name": "_data",
          "type": "bytes"
        }
      ],
      "name": "safeTransferFrom",
      "outputs": [],
      "stateMutability": "nonpayable",
      "type": "function"
    },
    {
      "inputs": [
        {
          "internalType": "address",
          "name": "operator",
          "type": "address"
        },
        {
          "internalType": "bool",
          "name": "approved",
          "type": "bool"
        }
      ],
      "name": "setApprovalForAll",
      "outputs": [],
      "stateMutability": "nonpayable",
      "type": "function"
    },
    {
      "inputs": [
        {
          "internalType": "uint256",
          "name": "tokenId",
          "type": "uint256"
        },
        {
          "internalType": "string",
          "name": "newUri",
          "type": "string"
        }
      ],
      "name": "setUri",
      "outputs": [],
      "stateMutability": "nonpayable",
      "type": "function"
    },
    {
      "inputs": [
        {
          "internalType": "bytes4",
          "name": "interfaceId",
          "type": "bytes4"
        }
      ],
      "name": "supportsInterface",
      "outputs": [
        {
          "internalType": "bool",
          "name": "",
          "type": "bool"
        }
      ],
      "stateMutability": "view",
      "type": "function"
    },
    {
      "inputs": [],
      "name": "symbol",
      "outputs": [
        {
          "internalType": "string",
          "name": "",
          "type": "string"
        }
      ],
      "stateMutability": "view",
      "type": "function"
    },
    {
      "inputs": [
        {
          "internalType": "uint256",
          "name": "",
          "type": "uint256"
        }
      ],
      "name": "tokenURI",
      "outputs": [
        {
          "internalType": "string",
          "name": "",
          "type": "string"
        }
      ],
      "stateMutability": "view",
      "type": "function"
    },
    {
      "inputs": [],
      "name": "totalSupply",
      "outputs": [
        {
          "internalType": "uint256",
          "name": "",
          "type": "uint256"
        }
      ],
      "stateMutability": "view",
      "type": "function"
    },
    {
      "inputs": [
        {
          "internalType": "address",
          "name": "from",
          "type": "address"
        },
        {
          "internalType": "address",
          "name": "to",
          "type": "address"
        },
        {
          "internalType": "uint256",
          "name": "tokenId",
          "type": "uint256"
        }
      ],
      "name": "transferFrom",
      "outputs": [],
      "stateMutability": "nonpayable",
      "type": "function"
    }
  ],
  "bytecode": "0x608060405234801561001057600080fd5b50612e25806100206000396000f3fe608060405234801561001057600080fd5b50600436106103265760003560e01c80635f799cc6116101b8578063a22cb46511610104578063c87b56dd116100a2578063e985e9c51161007c578063e985e9c5146107d6578063ed386e6514610812578063ed6223cf14610825578063f61087f61461083857600080fd5b8063c87b56dd14610795578063cf101ac21461067c578063e64f2baa146107b657600080fd5b8063ba27f58d116100de578063ba27f58d14610749578063c1cd4f821461075c578063c5a5ed511461076f578063c70881c51461078257600080fd5b8063a22cb46514610710578063ac150a5414610723578063b88d4fde1461073657600080fd5b80637803f217116101715780639037c0f91161014b5780639037c0f9146106b557806395d89b41146106d557806397ce7df6146106dd5780639cc7f708146106f057600080fd5b80637803f2171461067c578063782f08ae1461068f5780638fd6dc39146106a257600080fd5b80635f799cc6146105fd5780636352211e146106105780636c217e12146106235780636d37d2741461063657806370a082311461064957806376bac0251461065c57600080fd5b80632ea24efc116102775780634a7906b9116102305780635956da731161020a5780635956da73146105975780635c369ec3146105aa5780635cb46be7146105ca5780635e9f678b146105dd57600080fd5b80634a7906b9146104c95780634aa7b87a146105225780635440522b1461053557600080fd5b80632ea24efc1461045657806342842e0e1461046957806342966c681461047c57806342c1721f1461048f57806348d1b16c146104a2578063493fa4dc146104b557600080fd5b8063081812fc116102e457806318160ddd116102be57806318160ddd1461041557806321cb72271461041d57806323b872dd14610430578063288893d61461044357600080fd5b8063081812fc146103c4578063095ea7b3146103ef5780631801fbe51461040257600080fd5b8062fba0271461032b57806301ffc9a7146103515780630370a16114610374578063040f76181461038957806306fdde031461039c578063077f224a146103b1575b600080fd5b61033e6103393660046123d9565b61084b565b6040519081526020015b60405180910390f35b61036461035f3660046123f2565b610893565b6040519015158152602001610348565b610387610382366004612434565b6108e5565b005b61038761039736600461246c565b61095d565b6103a46109dd565b60405161034891906124e8565b6103876103bf366004612544565b610a6f565b6103d76103d23660046123d9565b610bb8565b6040516001600160a01b039091168152602001610348565b6103876103fd3660046125c8565b610c4d565b61033e6104103660046125f4565b610d62565b601e5461033e565b61038761042b3660046125f4565b610e2a565b61038761043e366004612616565b610e6d565b6103876104513660046125f4565b610e93565b61033e610464366004612434565b610ed6565b610387610477366004612616565b610fa4565b61038761048a3660046123d9565b610fbf565b61038761049d3660046126d2565b611084565b61033e6104b03660046123d9565b6110f9565b61033e6104c33660046123d9565b50600090565b6105156104d73660046123d9565b604080518082019091526000808252602082015250600090815260116020908152604091829020825180840190935280548352600101549082015290565b604051610348919061272d565b61033e6105303660046123d9565b611147565b61058a6105433660046123d9565b604080518082019091526000808252602082015250600090815260106020908152604091829020825180840190935280546001600160a01b03168352600101549082015290565b6040516103489190612744565b6103876105a5366004612764565b61118e565b6105bd6105b83660046123d9565b6111d1565b6040516103489190612794565b61033e6105d836600461246c565b61121b565b6105f06105eb3660046123d9565b6112db565b60405161034891906127e1565b6103a461060b3660046123d9565b61141e565b6103d761061e3660046123d9565b6114c0565b61033e6106313660046126d2565b611576565b61033e6106443660046123d9565b611611565b61033e610657366004612838565b611658565b61066f61066a3660046123d9565b611786565b6040516103489190612855565b61033e61068a3660046123d9565b6117d0565b61038761069d3660046126d2565b611814565b61033e6106b03660046123d9565b6118ae565b6106c86106c33660046123d9565b6118f5565b604051610348919061288d565b6103a4611a34565b61033e6106eb3660046123d9565b611a43565b61033e6106fe3660046123d9565b6000908152601d602052604090205490565b61038761071e3660046128e0565b611a8a565b6103a46107313660046123d9565b611a99565b610387610744366004612913565b611b6b565b61066f6107573660046123d9565b611b96565b61038761076a3660046125f4565b611be0565b600a546103d7906001600160a01b031681565b6103876107903660046125f4565b611c23565b6103a46107a33660046123d9565b5060408051602081019091526000815290565b6107c96107c43660046123d9565b611c66565b6040516103489190612993565b6103646107e43660046129f5565b6001600160a01b03918216600090815260056020908152604080832093909416825291909152205460ff1690565b610387610820366004612764565b611df9565b61066f6108333660046123d9565b611e3c565b61033e6108463660046123d9565b611e86565b6000818152601c60205260408120548290820361087b576040516366012df560e11b815260040160405180910390fd5b6000838152600b602052604090205491505b50919050565b60006001600160e01b031982166380ac58cd60e01b14806108c457506001600160e01b03198216635b5e139f60e01b145b806108df57506301ffc9a760e01b6001600160e01b03198316145b92915050565b600a546001600160a01b03163314610910576040516302b6341b60e41b815260040160405180910390fd5b60008282604051602001610925929190612a23565b60408051601f1981840301815291815281516020928301206000878152601690935291209091506109569082611ecd565b5050505050565b600a546001600160a01b03163314610988576040516302b6341b60e41b815260040160405180910390fd5b604051634e6f746560e01b6020820152602481018390526044810182905260009060640160408051601f1981840301815291815281516020928301206000878152601790935291209091506109569082611ecd565b6060600080546109ec90612a54565b80601f0160208091040260200160405190810160405280929190818152602001828054610a1890612a54565b8015610a655780601f10610a3a57610100808354040283529160200191610a65565b820191906000526020600020905b815481529060010190602001808311610a4857829003601f168201915b5050505050905090565b601a54600290610100900460ff16158015610a915750601a5460ff8083169116105b610af95760405162461bcd60e51b815260206004820152602e60248201527f496e697469616c697a61626c653a20636f6e747261637420697320616c72656160448201526d191e481a5b9a5d1a585b1a5e995960921b60648201526084015b60405180910390fd5b601a805461ffff191660ff831617610100179055600a80546001600160a01b0384166001600160a01b0319909116179055601b54601e55610b3c86868686611ed9565b6040514281527fcfdec2ffedf2f5ec02de6f351c5f9b6150601f657926e9e87b16390d562af4e79060200160405180910390a1601a805461ff001916905560405160ff821681527f7f26b83ff96e1f2b6a682f133852f6798a09c465da95921460cefb38474024989060200160405180910390a1505050505050565b6000818152600260205260408120546001600160a01b0316610c315760405162461bcd60e51b815260206004820152602c60248201527f4552433732313a20617070726f76656420717565727920666f72206e6f6e657860448201526b34b9ba32b73a103a37b5b2b760a11b6064820152608401610af0565b506000908152600460205260409020546001600160a01b031690565b6000610c5882611f2a565b9050806001600160a01b0316836001600160a01b031603610cc55760405162461bcd60e51b815260206004820152602160248201527f4552433732313a20617070726f76616c20746f2063757272656e74206f776e656044820152603960f91b6064820152608401610af0565b336001600160a01b0382161480610ce15750610ce181336107e4565b610d535760405162461bcd60e51b815260206004820152603860248201527f4552433732313a20617070726f76652063616c6c6572206973206e6f74206f7760448201527f6e6572206e6f7220617070726f76656420666f7220616c6c00000000000000006064820152608401610af0565b610d5d8383611fa1565b505050565b600a546000906001600160a01b03163314610d90576040516302b6341b60e41b815260040160405180910390fd5b601b60008154610d9f90612a9e565b91829055506000818152600b60209081526040808320869055601c8252808320879055868352601d9091528120805492935090610ddb83612a9e565b9091555050601e8054906000610df083612a9e565b9091555050604051819084906000907f7fa9aafeb8bb803d77de5d84bc2f2edbd842ca91b20cd5020aa21dfe26ab0be9908290a492915050565b600a546001600160a01b03163314610e55576040516302b6341b60e41b815260040160405180910390fd5b6000828152600c60205260409020610d5d9082611ecd565b610e77338261200f565b610d5d5760405162461bcd60e51b8152600401610af090612ab7565b600a546001600160a01b03163314610ebe576040516302b6341b60e41b815260040160405180910390fd5b6000828152600c60205260409020610d5d9082612106565b600a546000906001600160a01b03163314610f04576040516302b6341b60e41b815260040160405180910390fd5b60008383604051602001610f19929190612a23565b60405160208183030381529060405280519060200120905084600014610f53576000858152601660205260409020610f519082612106565b505b6040805180820182526001600160a01b0380871682526020808301878152600086815260109092529390209151825491166001600160a01b0319909116178155905160019091015590509392505050565b610d5d83838360405180602001604052806000815250611b6b565b600a546001600160a01b03163314610fea576040516302b6341b60e41b815260040160405180910390fd5b6000818152601c60205260408120549081900361101a576040516366012df560e11b815260040160405180910390fd5b6000818152601d602090815260408083208054600019908101909155601e80549091019055848352600b8252808320839055601c90915280822082905551839183917f410c5c259085cde81fedf70c1aa308ec839373c26e9b7ada6560a2aca0254eb69190a35050565b600a546001600160a01b031633146110af576040516302b6341b60e41b815260040160405180910390fd5b6000816040516020016110c29190612b08565b60408051601f1981840301815291815281516020928301206000868152601990935291209091506110f39082611ecd565b50505050565b6000818152601c602052604081205482908203611129576040516366012df560e11b815260040160405180910390fd5b6000838152600c6020526040902061114090612112565b9392505050565b6000818152601c602052604081205482908203611177576040516366012df560e11b815260040160405180910390fd5b600083815260196020526040902061114090612112565b600a546001600160a01b031633146111b9576040516302b6341b60e41b815260040160405180910390fd5b6000828152600d60205260409020610d5d908261211c565b6000818152601c602052604081205460609183919003611204576040516366012df560e11b815260040160405180910390fd5b6000838152600d6020526040902061114090612131565b600a546000906001600160a01b03163314611249576040516302b6341b60e41b815260040160405180910390fd5b604051634e6f746560e01b60208201526024810184905260448101839052600090606401604051602081830303815290604052805190602001209050846000146112a75760008581526017602052604090206112a59082612106565b505b6040805180820182529485526020808601948552600083815260119091522093518455915160019093019290925592915050565b6000818152601c60205260408120546060918391900361130e576040516366012df560e11b815260040160405180910390fd5b600083815260176020526040812061132590612131565b9050805167ffffffffffffffff81111561134157611341612646565b60405190808252806020026020018201604052801561138657816020015b604080518082019091526000808252602082015281526020019060019003908161135f5790505b50925060005b81518110156114165760008282815181106113a9576113a9612b36565b6020026020010151905060116000828152602001908152602001600020604051806040016040529081600082015481526020016001820154815250508583815181106113f7576113f7612b36565b602002602001018190525050808061140e90612a9e565b91505061138c565b505050919050565b600081815260136020526040902080546060919061143b90612a54565b80601f016020809104026020016040519081016040528092919081815260200182805461146790612a54565b80156114b45780601f10611489576101008083540402835291602001916114b4565b820191906000526020600020905b81548152906001019060200180831161149757829003601f168201915b50505050509050919050565b6000818152601c6020526040812054829082036114f0576040516366012df560e11b815260040160405180910390fd5b6000838152601c602052604080822054600a5491516331a9108f60e11b8152600481018290529092916001600160a01b031690636352211e90602401602060405180830381865afa158015611549573d6000803e3d6000fd5b505050506040513d601f19601f8201168201806040525081019061156d9190612b4c565b95945050505050565b600a546000906001600160a01b031633146115a4576040516302b6341b60e41b815260040160405180910390fd5b6000826040516020016115b79190612b08565b604051602081830303815290604052805190602001209050836000146115f15760008481526019602052604090206115ef9082612106565b505b60008181526013602052604090206116098482612bb7565b509392505050565b6000818152601c602052604081205482908203611641576040516366012df560e11b815260040160405180910390fd5b600083815260166020526040902061114090612112565b600a546040516370a0823160e01b81526001600160a01b03838116600483015260009283929116906370a0823190602401602060405180830381865afa1580156116a6573d6000803e3d6000fd5b505050506040513d601f19601f820116820180604052508101906116ca9190612c77565b905060005b8181101561177f57600a54604051632f745c5960e01b81526001600160a01b038681166004830152602482018490526000921690632f745c5990604401602060405180830381865afa158015611729573d6000803e3d6000fd5b505050506040513d601f19601f8201168201806040525081019061174d9190612c77565b6000818152601d60205260409020549091506117699085612c90565b935050808061177790612a9e565b9150506116cf565b5050919050565b6000818152601c6020526040812054606091839190036117b9576040516366012df560e11b815260040160405180910390fd5b600083815260196020526040902061114090612131565b6000818152601c602052604081205482908203611800576040516366012df560e11b815260040160405180910390fd5b50506000908152601c602052604090205490565b6000828152601c6020526040812054839103611843576040516366012df560e11b815260040160405180910390fd5b600a546001600160a01b031633148015906118785750611862836114c0565b6001600160a01b0316336001600160a01b031614155b1561189657604051631a64ce6560e11b815260040160405180910390fd5b60008381526015602052604090206110f38382612bb7565b6000818152601c6020526040812054829082036118de576040516366012df560e11b815260040160405180910390fd5b6000838152600e6020526040902061114090612112565b6000818152601c602052604081205460609183919003611928576040516366012df560e11b815260040160405180910390fd5b600083815260166020526040812061193f90612131565b9050805167ffffffffffffffff81111561195b5761195b612646565b6040519080825280602002602001820160405280156119a057816020015b60408051808201909152600080825260208201528152602001906001900390816119795790505b50925060005b81518110156114165760008282815181106119c3576119c3612b36565b602090810291909101810151600081815260108352604090819020815180830190925280546001600160a01b0316825260010154928101929092528651909250869084908110611a1557611a15612b36565b6020026020010181905250508080611a2c90612a9e565b9150506119a6565b6060600180546109ec90612a54565b6000818152601c602052604081205482908203611a73576040516366012df560e11b815260040160405180910390fd5b6000838152600d6020526040902061114090612112565b611a9533838361213e565b5050565b6000818152601c602052604081205460609183919003611acc576040516366012df560e11b815260040160405180910390fd5b60008381526015602052604090208054611ae590612a54565b80601f0160208091040260200160405190810160405280929190818152602001828054611b1190612a54565b8015611b5e5780601f10611b3357610100808354040283529160200191611b5e565b820191906000526020600020905b815481529060010190602001808311611b4157829003601f168201915b5050505050915050919050565b611b75338361200f565b611b915760405162461bcd60e51b8152600401610af090612ab7565b6110f3565b6000818152601c602052604081205460609183919003611bc9576040516366012df560e11b815260040160405180910390fd5b6000838152600c6020526040902061114090612131565b600a546001600160a01b03163314611c0b576040516302b6341b60e41b815260040160405180910390fd5b6000828152600e60205260409020610d5d9082612106565b600a546001600160a01b03163314611c4e576040516302b6341b60e41b815260040160405180910390fd5b6000828152600e60205260409020610d5d9082611ecd565b6000818152601c602052604081205460609183919003611c99576040516366012df560e11b815260040160405180910390fd5b6000838152601960205260408120611cb090612131565b9050805167ffffffffffffffff811115611ccc57611ccc612646565b604051908082528060200260200182016040528015611cff57816020015b6060815260200190600190039081611cea5790505b50925060005b8151811015611416576000828281518110611d2257611d22612b36565b60200260200101519050601360008281526020019081526020016000208054611d4a90612a54565b80601f0160208091040260200160405190810160405280929190818152602001828054611d7690612a54565b8015611dc35780601f10611d9857610100808354040283529160200191611dc3565b820191906000526020600020905b815481529060010190602001808311611da657829003601f168201915b5050505050858381518110611dda57611dda612b36565b6020026020010181905250508080611df190612a9e565b915050611d05565b600a546001600160a01b03163314611e24576040516302b6341b60e41b815260040160405180910390fd5b6000828152600d60205260409020610d5d908261220c565b6000818152601c602052604081205460609183919003611e6f576040516366012df560e11b815260040160405180910390fd5b6000838152600e6020526040902061114090612131565b6000818152601c602052604081205482908203611eb6576040516366012df560e11b815260040160405180910390fd5b600083815260176020526040902061114090612112565b60006111408383612221565b611ee584848484612314565b7f414cd0b34676984f09a5f76ce9718d4062e50283abe0e7e274a9a5b4e0c99c308484848442604051611f1c959493929190612ccc565b60405180910390a150505050565b6000818152600260205260408120546001600160a01b0316806108df5760405162461bcd60e51b815260206004820152602960248201527f4552433732313a206f776e657220717565727920666f72206e6f6e657869737460448201526832b73a103a37b5b2b760b91b6064820152608401610af0565b600081815260046020526040902080546001600160a01b0319166001600160a01b0384169081179091558190611fd682611f2a565b6001600160a01b03167f8c5be1e5ebec7d5bd14f71427d1e84f3dd0314c0f7b2291e5b200ac8c7c3b92560405160405180910390a45050565b6000818152600260205260408120546001600160a01b03166120885760405162461bcd60e51b815260206004820152602c60248201527f4552433732313a206f70657261746f7220717565727920666f72206e6f6e657860448201526b34b9ba32b73a103a37b5b2b760a11b6064820152608401610af0565b600061209383611f2a565b9050806001600160a01b0316846001600160a01b031614806120ce5750836001600160a01b03166120c384610bb8565b6001600160a01b0316145b806120fe57506001600160a01b0380821660009081526005602090815260408083209388168352929052205460ff165b949350505050565b6000611140838361232f565b60006108df825490565b6000611140836001600160a01b038416612221565b606060006111408361237e565b816001600160a01b0316836001600160a01b03160361219f5760405162461bcd60e51b815260206004820152601960248201527f4552433732313a20617070726f766520746f2063616c6c6572000000000000006044820152606401610af0565b6001600160a01b03838116600081815260056020908152604080832094871680845294825291829020805460ff191686151590811790915591519182527f17307eab39ab6107e8899845ad3d59bd9653f200f220920489ca2b5937696c31910160405180910390a3505050565b6000611140836001600160a01b03841661232f565b6000818152600183016020526040812054801561230a576000612245600183612d06565b855490915060009061225990600190612d06565b90508181146122be57600086600001828154811061227957612279612b36565b906000526020600020015490508087600001848154811061229c5761229c612b36565b6000918252602080832090910192909255918252600188019052604090208390555b85548690806122cf576122cf612d19565b6001900381819060005260206000200160009055905585600101600086815260200190815260200160002060009055600193505050506108df565b60009150506108df565b6000612321848683612d2f565b506001610956828483612d2f565b6000818152600183016020526040812054612376575081546001818101845560008481526020808220909301849055845484825282860190935260409020919091556108df565b5060006108df565b6060816000018054806020026020016040519081016040528092919081815260200182805480156114b457602002820191906000526020600020905b8154815260200190600101908083116123ba5750505050509050919050565b6000602082840312156123eb57600080fd5b5035919050565b60006020828403121561240457600080fd5b81356001600160e01b03198116811461114057600080fd5b6001600160a01b038116811461243157600080fd5b50565b60008060006060848603121561244957600080fd5b83359250602084013561245b8161241c565b929592945050506040919091013590565b60008060006060848603121561248157600080fd5b505081359360208301359350604090920135919050565b60005b838110156124b357818101518382015260200161249b565b50506000910152565b600081518084526124d4816020860160208601612498565b601f01601f19169290920160200192915050565b60208152600061114060208301846124bc565b60008083601f84011261250d57600080fd5b50813567ffffffffffffffff81111561252557600080fd5b60208301915083602082850101111561253d57600080fd5b9250929050565b60008060008060006060868803121561255c57600080fd5b853567ffffffffffffffff8082111561257457600080fd5b61258089838a016124fb565b9097509550602088013591508082111561259957600080fd5b506125a6888289016124fb565b90945092505060408601356125ba8161241c565b809150509295509295909350565b600080604083850312156125db57600080fd5b82356125e68161241c565b946020939093013593505050565b6000806040838503121561260757600080fd5b50508035926020909101359150565b60008060006060848603121561262b57600080fd5b83356126368161241c565b9250602084013561245b8161241c565b634e487b7160e01b600052604160045260246000fd5b600067ffffffffffffffff8084111561267757612677612646565b604051601f8501601f19908116603f0116810190828211818310171561269f5761269f612646565b816040528093508581528686860111156126b857600080fd5b858560208301376000602087830101525050509392505050565b600080604083850312156126e557600080fd5b82359150602083013567ffffffffffffffff81111561270357600080fd5b8301601f8101851361271457600080fd5b6127238582356020840161265c565b9150509250929050565b8151815260208083015190820152604081016108df565b81516001600160a01b0316815260208083015190820152604081016108df565b6000806040838503121561277757600080fd5b8235915060208301356127898161241c565b809150509250929050565b6020808252825182820181905260009190848201906040850190845b818110156127d55783516001600160a01b0316835292840192918401916001016127b0565b50909695505050505050565b602080825282518282018190526000919060409081850190868401855b8281101561282b5761281b84835180518252602090810151910152565b92840192908501906001016127fe565b5091979650505050505050565b60006020828403121561284a57600080fd5b81356111408161241c565b6020808252825182820181905260009190848201906040850190845b818110156127d557835183529284019291840191600101612871565b602080825282518282018190526000919060409081850190868401855b8281101561282b576128d084835180516001600160a01b03168252602090810151910152565b92840192908501906001016128aa565b600080604083850312156128f357600080fd5b82356128fe8161241c565b91506020830135801515811461278957600080fd5b6000806000806080858703121561292957600080fd5b84356129348161241c565b935060208501356129448161241c565b925060408501359150606085013567ffffffffffffffff81111561296757600080fd5b8501601f8101871361297857600080fd5b6129878782356020840161265c565b91505092959194509250565b6000602080830181845280855180835260408601915060408160051b870101925083870160005b828110156129e857603f198886030184526129d68583516124bc565b945092850192908501906001016129ba565b5092979650505050505050565b60008060408385031215612a0857600080fd5b8235612a138161241c565b915060208301356127898161241c565b6545524337323160d01b815260609290921b6bffffffffffffffffffffffff19166006830152601a820152603a0190565b600181811c90821680612a6857607f821691505b60208210810361088d57634e487b7160e01b600052602260045260246000fd5b634e487b7160e01b600052601160045260246000fd5b600060018201612ab057612ab0612a88565b5060010190565b60208082526031908201527f4552433732313a207472616e736665722063616c6c6572206973206e6f74206f6040820152701ddb995c881b9bdc88185c1c1c9bdd9959607a1b606082015260800190565b65416e7955726960d01b815260008251612b29816006850160208701612498565b9190910160060192915050565b634e487b7160e01b600052603260045260246000fd5b600060208284031215612b5e57600080fd5b81516111408161241c565b601f821115610d5d57600081815260208120601f850160051c81016020861015612b905750805b601f850160051c820191505b81811015612baf57828155600101612b9c565b505050505050565b815167ffffffffffffffff811115612bd157612bd1612646565b612be581612bdf8454612a54565b84612b69565b602080601f831160018114612c1a5760008415612c025750858301515b600019600386901b1c1916600185901b178555612baf565b600085815260208120601f198616915b82811015612c4957888601518255948401946001909101908401612c2a565b5085821015612c675787850151600019600388901b60f8161c191681555b5050505050600190811b01905550565b600060208284031215612c8957600080fd5b5051919050565b808201808211156108df576108df612a88565b81835281816020850137506000828201602090810191909152601f909101601f19169091010190565b606081526000612ce0606083018789612ca3565b8281036020840152612cf3818688612ca3565b9150508260408301529695505050505050565b818103818111156108df576108df612a88565b634e487b7160e01b600052603160045260246000fd5b67ffffffffffffffff831115612d4757612d47612646565b612d5b83612d558354612a54565b83612b69565b6000601f841160018114612d8f5760008515612d775750838201355b600019600387901b1c1916600186901b178355610956565b600083815260209020601f19861690835b82811015612dc05786850135825560209485019460019092019101612da0565b5086821015612ddd5760001960f88860031b161c19848701351681555b505060018560011b018355505050505056fea2646970667358221220b233cb58ee3269a449d0d07423803a0fee5b680292da1b4a068ad1bd533441b464736f6c63430008120033",
  "linkReferences": {},
  "deployedLinkReferences": {}
}