{
  "_format": "hh-sol-artifact-1",
  "contractName": "Linklist",
  "sourceName": "contracts/Linklist.sol",
  "abi": [
    {
      "inputs": [],
      "name": "ErrCallerNotWeb3Entry",
      "type": "error"
    },
    {
      "inputs": [],
      "name": "ErrCallerNotWeb3EntryOrNotOwner",
      "type": "error"
    },
    {
      "inputs": [],
      "name": "ErrTokenNotExists",
      "type": "error"
    },
    {
      "anonymous": false,
      "inputs": [
        {
          "indexed": true,
          "internalType": "address",
          "name": "owner",
          "type": "address"
        },
        {
          "indexed": true,
          "internalType": "address",
          "name": "approved",
          "type": "address"
        },
        {
          "indexed": true,
          "internalType": "uint256",
          "name": "tokenId",
          "type": "uint256"
        }
      ],
      "name": "Approval",
      "type": "event"
    },
    {
      "anonymous": false,
      "inputs": [
        {
          "indexed": true,
          "internalType": "address",
          "name": "owner",
          "type": "address"
        },
        {
          "indexed": true,
          "internalType": "address",
          "name": "operator",
          "type": "address"
        },
        {
          "indexed": false,
          "internalType": "bool",
          "name": "approved",
          "type": "bool"
        }
      ],
      "name": "ApprovalForAll",
      "type": "event"
    },
    {
      "anonymous": false,
      "inputs": [
        {
          "indexed": true,
          "internalType": "uint256",
          "name": "from",
          "type": "uint256"
        },
        {
          "indexed": true,
          "internalType": "uint256",
          "name": "tokenId",
          "type": "uint256"
        }
      ],
      "name": "Burn",
      "type": "event"
    },
    {
      "anonymous": false,
      "inputs": [
        {
          "indexed": false,
          "internalType": "uint8",
          "name": "version",
          "type": "uint8"
        }
      ],
      "name": "Initialized",
      "type": "event"
    },
    {
      "anonymous": false,
      "inputs": [
        {
          "indexed": true,
          "internalType": "uint256",
          "name": "tokenId",
          "type": "uint256"
        },
        {
          "indexed": true,
          "internalType": "bytes32",
          "name": "newlinkType",
          "type": "bytes32"
        }
      ],
      "name": "LinkTypeSet",
      "type": "event"
    },
    {
      "anonymous": false,
      "inputs": [
        {
          "indexed": true,
          "internalType": "address",
          "name": "from",
          "type": "address"
        },
        {
          "indexed": true,
          "internalType": "uint256",
          "name": "characterId",
          "type": "uint256"
        },
        {
          "indexed": true,
          "internalType": "uint256",
          "name": "tokenId",
          "type": "uint256"
        }
      ],
      "name": "Transfer",
      "type": "event"
    },
    {
      "anonymous": false,
      "inputs": [
        {
          "indexed": true,
          "internalType": "uint256",
          "name": "tokenId",
          "type": "uint256"
        },
        {
          "indexed": false,
          "internalType": "string",
          "name": "newUri",
          "type": "string"
        }
      ],
      "name": "UriSet",
      "type": "event"
    },
    {
      "inputs": [
        {
          "internalType": "uint256",
          "name": "tokenId",
          "type": "uint256"
        }
      ],
      "name": "Uri",
      "outputs": [
        {
          "internalType": "string",
          "name": "",
          "type": "string"
        }
      ],
      "stateMutability": "view",
      "type": "function"
    },
    {
      "inputs": [],
      "name": "Web3Entry",
      "outputs": [
        {
          "internalType": "address",
          "name": "",
          "type": "address"
        }
      ],
      "stateMutability": "view",
      "type": "function"
    },
    {
      "inputs": [
        {
          "internalType": "uint256",
          "name": "tokenId",
          "type": "uint256"
        },
        {
          "internalType": "address",
          "name": "ethAddress",
          "type": "address"
        }
      ],
      "name": "addLinkingAddress",
      "outputs": [],
      "stateMutability": "nonpayable",
      "type": "function"
    },
    {
      "inputs": [
        {
          "internalType": "uint256",
          "name": "tokenId",
          "type": "uint256"
        },
        {
          "internalType": "string",
          "name": "toUri",
          "type": "string"
        }
      ],
      "name": "addLinkingAnyUri",
      "outputs": [
        {
          "internalType": "bytes32",
          "name": "",
          "type": "bytes32"
        }
      ],
      "stateMutability": "nonpayable",
      "type": "function"
    },
    {
      "inputs": [
        {
          "internalType": "uint256",
          "name": "tokenId",
          "type": "uint256"
        },
        {
          "internalType": "uint256",
          "name": "toCharacterId",
          "type": "uint256"
        }
      ],
      "name": "addLinkingCharacterId",
      "outputs": [],
      "stateMutability": "nonpayable",
      "type": "function"
    },
    {
      "inputs": [
        {
          "internalType": "uint256",
          "name": "tokenId",
          "type": "uint256"
        },
        {
          "internalType": "address",
          "name": "tokenAddress",
          "type": "address"
        },
        {
          "internalType": "uint256",
          "name": "erc721TokenId",
          "type": "uint256"
        }
      ],
      "name": "addLinkingERC721",
      "outputs": [
        {
          "internalType": "bytes32",
          "name": "",
          "type": "bytes32"
        }
      ],
      "stateMutability": "nonpayable",
      "type": "function"
    },
    {
      "inputs": [
        {
          "internalType": "uint256",
          "name": "tokenId",
          "type": "uint256"
        },
        {
          "internalType": "uint256",
          "name": "linklistId",
          "type": "uint256"
        }
      ],
      "name": "addLinkingLinklistId",
      "outputs": [],
      "stateMutability": "nonpayable",
      "type": "function"
    },
    {
      "inputs": [
        {
          "internalType": "uint256",
          "name": "tokenId",
          "type": "uint256"
        },
        {
          "internalType": "uint256",
          "name": "toCharacterId",
          "type": "uint256"
        },
        {
          "internalType": "uint256",
          "name": "toNoteId",
          "type": "uint256"
        }
      ],
      "name": "addLinkingNote",
      "outputs": [
        {
          "internalType": "bytes32",
          "name": "",
          "type": "bytes32"
        }
      ],
      "stateMutability": "nonpayable",
      "type": "function"
    },
    {
      "inputs": [
        {
          "internalType": "address",
          "name": "to",
          "type": "address"
        },
        {
          "internalType": "uint256",
          "name": "tokenId",
          "type": "uint256"
        }
      ],
      "name": "approve",
      "outputs": [],
      "stateMutability": "nonpayable",
      "type": "function"
    },
    {
      "inputs": [
        {
          "internalType": "address",
          "name": "account",
          "type": "address"
        }
      ],
      "name": "balanceOf",
      "outputs": [
        {
          "internalType": "uint256",
          "name": "balance",
          "type": "uint256"
        }
      ],
      "stateMutability": "view",
      "type": "function"
    },
    {
      "inputs": [
        {
          "internalType": "uint256",
          "name": "characterId",
          "type": "uint256"
        }
      ],
      "name": "balanceOf",
      "outputs": [
        {
          "internalType": "uint256",
          "name": "",
          "type": "uint256"
        }
      ],
      "stateMutability": "view",
      "type": "function"
    },
    {
      "inputs": [
        {
          "internalType": "uint256",
          "name": "tokenId",
          "type": "uint256"
        }
      ],
      "name": "burn",
      "outputs": [],
      "stateMutability": "nonpayable",
      "type": "function"
    },
    {
      "inputs": [
        {
          "internalType": "uint256",
          "name": "tokenId",
          "type": "uint256"
        }
      ],
      "name": "characterOwnerOf",
      "outputs": [
        {
          "internalType": "uint256",
          "name": "",
          "type": "uint256"
        }
      ],
      "stateMutability": "view",
      "type": "function"
    },
    {
      "inputs": [
        {
          "internalType": "uint256",
          "name": "tokenId",
          "type": "uint256"
        }
      ],
      "name": "getApproved",
      "outputs": [
        {
          "internalType": "address",
          "name": "",
          "type": "address"
        }
      ],
      "stateMutability": "view",
      "type": "function"
    },
    {
      "inputs": [
        {
          "internalType": "uint256",
          "name": "tokenId",
          "type": "uint256"
        }
      ],
      "name": "getCurrentTakeOver",
      "outputs": [
        {
          "internalType": "uint256",
          "name": "",
          "type": "uint256"
        }
      ],
      "stateMutability": "view",
      "type": "function"
    },
    {
      "inputs": [
        {
          "internalType": "uint256",
          "name": "tokenId",
          "type": "uint256"
        }
      ],
      "name": "getLinkType",
      "outputs": [
        {
          "internalType": "bytes32",
          "name": "",
          "type": "bytes32"
        }
      ],
      "stateMutability": "view",
      "type": "function"
    },
    {
      "inputs": [
        {
          "internalType": "uint256",
          "name": "tokenId",
          "type": "uint256"
        }
      ],
      "name": "getLinkingAddressListLength",
      "outputs": [
        {
          "internalType": "uint256",
          "name": "",
          "type": "uint256"
        }
      ],
      "stateMutability": "view",
      "type": "function"
    },
    {
      "inputs": [
        {
          "internalType": "uint256",
          "name": "tokenId",
          "type": "uint256"
        }
      ],
      "name": "getLinkingAddresses",
      "outputs": [
        {
          "internalType": "address[]",
          "name": "",
          "type": "address[]"
        }
      ],
      "stateMutability": "view",
      "type": "function"
    },
    {
      "inputs": [
        {
          "internalType": "uint256",
          "name": "tokenId",
          "type": "uint256"
        }
      ],
      "name": "getLinkingAnyListLength",
      "outputs": [
        {
          "internalType": "uint256",
          "name": "",
          "type": "uint256"
        }
      ],
      "stateMutability": "view",
      "type": "function"
    },
    {
      "inputs": [
        {
          "internalType": "bytes32",
          "name": "linkKey",
          "type": "bytes32"
        }
      ],
      "name": "getLinkingAnyUri",
      "outputs": [
        {
          "internalType": "string",
          "name": "",
          "type": "string"
        }
      ],
      "stateMutability": "view",
      "type": "function"
    },
    {
      "inputs": [
        {
          "internalType": "uint256",
          "name": "tokenId",
          "type": "uint256"
        }
      ],
      "name": "getLinkingAnyUriKeys",
      "outputs": [
        {
          "internalType": "bytes32[]",
          "name": "",
          "type": "bytes32[]"
        }
      ],
      "stateMutability": "view",
      "type": "function"
    },
    {
      "inputs": [
        {
          "internalType": "uint256",
          "name": "tokenId",
          "type": "uint256"
        }
      ],
      "name": "getLinkingAnyUris",
      "outputs": [
        {
          "internalType": "string[]",
          "name": "results",
          "type": "string[]"
        }
      ],
      "stateMutability": "view",
      "type": "function"
    },
    {
      "inputs": [
        {
          "internalType": "uint256",
          "name": "tokenId",
          "type": "uint256"
        }
      ],
      "name": "getLinkingCharacterIds",
      "outputs": [
        {
          "internalType": "uint256[]",
          "name": "",
          "type": "uint256[]"
        }
      ],
      "stateMutability": "view",
      "type": "function"
    },
    {
      "inputs": [
        {
          "internalType": "uint256",
          "name": "tokenId",
          "type": "uint256"
        }
      ],
      "name": "getLinkingCharacterListLength",
      "outputs": [
        {
          "internalType": "uint256",
          "name": "",
          "type": "uint256"
        }
      ],
      "stateMutability": "view",
      "type": "function"
    },
    {
      "inputs": [
        {
          "internalType": "bytes32",
          "name": "linkKey",
          "type": "bytes32"
        }
      ],
      "name": "getLinkingERC721",
      "outputs": [
        {
          "components": [
            {
              "internalType": "address",
              "name": "tokenAddress",
              "type": "address"
            },
            {
              "internalType": "uint256",
              "name": "erc721TokenId",
              "type": "uint256"
            }
          ],
          "internalType": "struct DataTypes.ERC721Struct",
          "name": "",
          "type": "tuple"
        }
      ],
      "stateMutability": "view",
      "type": "function"
    },
    {
      "inputs": [
        {
          "internalType": "uint256",
          "name": "tokenId",
          "type": "uint256"
        }
      ],
      "name": "getLinkingERC721ListLength",
      "outputs": [
        {
          "internalType": "uint256",
          "name": "",
          "type": "uint256"
        }
      ],
      "stateMutability": "view",
      "type": "function"
    },
    {
      "inputs": [
        {
          "internalType": "uint256",
          "name": "tokenId",
          "type": "uint256"
        }
      ],
      "name": "getLinkingERC721s",
      "outputs": [
        {
          "components": [
            {
              "internalType": "address",
              "name": "tokenAddress",
              "type": "address"
            },
            {
              "internalType": "uint256",
              "name": "erc721TokenId",
              "type": "uint256"
            }
          ],
          "internalType": "struct DataTypes.ERC721Struct[]",
          "name": "results",
          "type": "tuple[]"
        }
      ],
      "stateMutability": "view",
      "type": "function"
    },
    {
      "inputs": [
        {
          "internalType": "uint256",
          "name": "tokenId",
          "type": "uint256"
        }
      ],
      "name": "getLinkingLinklistIds",
      "outputs": [
        {
          "internalType": "uint256[]",
          "name": "",
          "type": "uint256[]"
        }
      ],
      "stateMutability": "view",
      "type": "function"
    },
    {
      "inputs": [
        {
          "internalType": "uint256",
          "name": "tokenId",
          "type": "uint256"
        }
      ],
      "name": "getLinkingLinklistLength",
      "outputs": [
        {
          "internalType": "uint256",
          "name": "",
          "type": "uint256"
        }
      ],
      "stateMutability": "view",
      "type": "function"
    },
    {
      "inputs": [
        {
          "internalType": "bytes32",
          "name": "linkKey",
          "type": "bytes32"
        }
      ],
      "name": "getLinkingNote",
      "outputs": [
        {
          "components": [
            {
              "internalType": "uint256",
              "name": "characterId",
              "type": "uint256"
            },
            {
              "internalType": "uint256",
              "name": "noteId",
              "type": "uint256"
            }
          ],
          "internalType": "struct DataTypes.NoteStruct",
          "name": "",
          "type": "tuple"
        }
      ],
      "stateMutability": "view",
      "type": "function"
    },
    {
      "inputs": [
        {
          "internalType": "uint256",
          "name": "tokenId",
          "type": "uint256"
        }
      ],
      "name": "getLinkingNoteListLength",
      "outputs": [
        {
          "internalType": "uint256",
          "name": "",
          "type": "uint256"
        }
      ],
      "stateMutability": "view",
      "type": "function"
    },
    {
      "inputs": [
        {
          "internalType": "uint256",
          "name": "tokenId",
          "type": "uint256"
        }
      ],
      "name": "getLinkingNotes",
      "outputs": [
        {
          "components": [
            {
              "internalType": "uint256",
              "name": "characterId",
              "type": "uint256"
            },
            {
              "internalType": "uint256",
              "name": "noteId",
              "type": "uint256"
            }
          ],
          "internalType": "struct DataTypes.NoteStruct[]",
          "name": "results",
          "type": "tuple[]"
        }
      ],
      "stateMutability": "view",
      "type": "function"
    },
    {
      "inputs": [
        {
          "internalType": "uint256",
          "name": "tokenId",
          "type": "uint256"
        }
      ],
      "name": "getOwnerCharacterId",
      "outputs": [
        {
          "internalType": "uint256",
          "name": "",
          "type": "uint256"
        }
      ],
      "stateMutability": "view",
      "type": "function"
    },
    {
      "inputs": [
        {
          "internalType": "string",
          "name": "name_",
          "type": "string"
        },
        {
          "internalType": "string",
          "name": "symbol_",
          "type": "string"
        },
        {
          "internalType": "address",
          "name": "web3Entry_",
          "type": "address"
        }
      ],
      "name": "initialize",
      "outputs": [],
      "stateMutability": "nonpayable",
      "type": "function"
    },
    {
      "inputs": [
        {
          "internalType": "address",
          "name": "owner",
          "type": "address"
        },
        {
          "internalType": "address",
          "name": "operator",
          "type": "address"
        }
      ],
      "name": "isApprovedForAll",
      "outputs": [
        {
          "internalType": "bool",
          "name": "",
          "type": "bool"
        }
      ],
      "stateMutability": "view",
      "type": "function"
    },
    {
      "inputs": [
        {
          "internalType": "uint256",
          "name": "characterId",
          "type": "uint256"
        },
        {
          "internalType": "bytes32",
          "name": "linkType",
          "type": "bytes32"
        }
      ],
      "name": "mint",
      "outputs": [
        {
          "internalType": "uint256",
          "name": "tokenId",
          "type": "uint256"
        }
      ],
      "stateMutability": "nonpayable",
      "type": "function"
    },
    {
      "inputs": [],
      "name": "name",
      "outputs": [
        {
          "internalType": "string",
          "name": "",
          "type": "string"
        }
      ],
      "stateMutability": "view",
      "type": "function"
    },
    {
      "inputs": [
        {
          "internalType": "uint256",
          "name": "tokenId",
          "type": "uint256"
        }
      ],
      "name": "ownerOf",
      "outputs": [
        {
          "internalType": "address",
          "name": "",
          "type": "address"
        }
      ],
      "stateMutability": "view",
      "type": "function"
    },
    {
      "inputs": [
        {
          "internalType": "uint256",
          "name": "tokenId",
          "type": "uint256"
        },
        {
          "internalType": "address",
          "name": "ethAddress",
          "type": "address"
        }
      ],
      "name": "removeLinkingAddress",
      "outputs": [],
      "stateMutability": "nonpayable",
      "type": "function"
    },
    {
      "inputs": [
        {
          "internalType": "uint256",
          "name": "tokenId",
          "type": "uint256"
        },
        {
          "internalType": "string",
          "name": "toUri",
          "type": "string"
        }
      ],
      "name": "removeLinkingAnyUri",
      "outputs": [],
      "stateMutability": "nonpayable",
      "type": "function"
    },
    {
      "inputs": [
        {
          "internalType": "uint256",
          "name": "tokenId",
          "type": "uint256"
        },
        {
          "internalType": "uint256",
          "name": "toCharacterId",
          "type": "uint256"
        }
      ],
      "name": "removeLinkingCharacterId",
      "outputs": [],
      "stateMutability": "nonpayable",
      "type": "function"
    },
    {
      "inputs": [
        {
          "internalType": "uint256",
          "name": "tokenId",
          "type": "uint256"
        },
        {
          "internalType": "address",
          "name": "tokenAddress",
          "type": "address"
        },
        {
          "internalType": "uint256",
          "name": "erc721TokenId",
          "type": "uint256"
        }
      ],
      "name": "removeLinkingERC721",
      "outputs": [],
      "stateMutability": "nonpayable",
      "type": "function"
    },
    {
      "inputs": [
        {
          "internalType": "uint256",
          "name": "tokenId",
          "type": "uint256"
        },
        {
          "internalType": "uint256",
          "name": "linklistId",
          "type": "uint256"
        }
      ],
      "name": "removeLinkingLinklistId",
      "outputs": [],
      "stateMutability": "nonpayable",
      "type": "function"
    },
    {
      "inputs": [
        {
          "internalType": "uint256",
          "name": "tokenId",
          "type": "uint256"
        },
        {
          "internalType": "uint256",
          "name": "toCharacterId",
          "type": "uint256"
        },
        {
          "internalType": "uint256",
          "name": "toNoteId",
          "type": "uint256"
        }
      ],
      "name": "removeLinkingNote",
      "outputs": [],
      "stateMutability": "nonpayable",
      "type": "function"
    },
    {
      "inputs": [
        {
          "internalType": "address",
          "name": "from",
          "type": "address"
        },
        {
          "internalType": "address",
          "name": "to",
          "type": "address"
        },
        {
          "internalType": "uint256",
          "name": "tokenId",
          "type": "uint256"
        }
      ],
      "name": "safeTransferFrom",
      "outputs": [],
      "stateMutability": "nonpayable",
      "type": "function"
    },
    {
      "inputs": [
        {
          "internalType": "address",
          "name": "from",
          "type": "address"
        },
        {
          "internalType": "address",
          "name": "to",
          "type": "address"
        },
        {
          "internalType": "uint256",
          "name": "tokenId",
          "type": "uint256"
        },
        {
          "internalType": "bytes",
          "name": "_data",
          "type": "bytes"
        }
      ],
      "name": "safeTransferFrom",
      "outputs": [],
      "stateMutability": "nonpayable",
      "type": "function"
    },
    {
      "inputs": [
        {
          "internalType": "address",
          "name": "operator",
          "type": "address"
        },
        {
          "internalType": "bool",
          "name": "approved",
          "type": "bool"
        }
      ],
      "name": "setApprovalForAll",
      "outputs": [],
      "stateMutability": "nonpayable",
      "type": "function"
    },
    {
      "inputs": [
        {
          "internalType": "uint256",
          "name": "tokenId",
          "type": "uint256"
        },
        {
          "internalType": "bytes32",
          "name": "linkType",
          "type": "bytes32"
        }
      ],
      "name": "setLinkType",
      "outputs": [],
      "stateMutability": "nonpayable",
      "type": "function"
    },
    {
      "inputs": [
        {
          "internalType": "uint256",
          "name": "tokenId",
          "type": "uint256"
        },
        {
          "internalType": "string",
          "name": "newUri",
          "type": "string"
        }
      ],
      "name": "setUri",
      "outputs": [],
      "stateMutability": "nonpayable",
      "type": "function"
    },
    {
      "inputs": [
        {
          "internalType": "bytes4",
          "name": "interfaceId",
          "type": "bytes4"
        }
      ],
      "name": "supportsInterface",
      "outputs": [
        {
          "internalType": "bool",
          "name": "",
          "type": "bool"
        }
      ],
      "stateMutability": "view",
      "type": "function"
    },
    {
      "inputs": [],
      "name": "symbol",
      "outputs": [
        {
          "internalType": "string",
          "name": "",
          "type": "string"
        }
      ],
      "stateMutability": "view",
      "type": "function"
    },
    {
      "inputs": [
        {
          "internalType": "uint256",
          "name": "",
          "type": "uint256"
        }
      ],
      "name": "tokenURI",
      "outputs": [
        {
          "internalType": "string",
          "name": "",
          "type": "string"
        }
      ],
      "stateMutability": "view",
      "type": "function"
    },
    {
      "inputs": [],
      "name": "totalSupply",
      "outputs": [
        {
          "internalType": "uint256",
          "name": "",
          "type": "uint256"
        }
      ],
      "stateMutability": "view",
      "type": "function"
    },
    {
      "inputs": [
        {
          "internalType": "address",
          "name": "from",
          "type": "address"
        },
        {
          "internalType": "address",
          "name": "to",
          "type": "address"
        },
        {
          "internalType": "uint256",
          "name": "tokenId",
          "type": "uint256"
        }
      ],
      "name": "transferFrom",
      "outputs": [],
      "stateMutability": "nonpayable",
      "type": "function"
    }
  ],
  "bytecode": "0x608060405234801561001057600080fd5b50612f2b806100206000396000f3fe608060405234801561001057600080fd5b50600436106103415760003560e01c80636352211e116101b8578063a22cb46511610104578063c87b56dd116100a2578063e985e9c51161007c578063e985e9c514610804578063ed386e6514610840578063ed6223cf14610853578063f61087f61461086657600080fd5b8063c87b56dd146107c3578063cf101ac2146106aa578063e64f2baa146107e457600080fd5b8063ba27f58d116100de578063ba27f58d14610777578063c1cd4f821461078a578063c5a5ed511461079d578063c70881c5146107b057600080fd5b8063a22cb4651461073e578063ac150a5414610751578063b88d4fde1461076457600080fd5b80637803f217116101715780639037c0f91161014b5780639037c0f9146106e357806395d89b411461070357806397ce7df61461070b5780639cc7f7081461071e57600080fd5b80637803f217146106aa578063782f08ae146106bd5780638fd6dc39146106d057600080fd5b80636352211e1461062b5780636c217e121461063e5780636d37d2741461065157806370a082311461066457806373fbe0121461067757806376bac0251461068a57600080fd5b80632ea24efc116102925780634aa7b87a116102305780635c369ec31161020a5780635c369ec3146105c55780635cb46be7146105e55780635e9f678b146105f85780635f799cc61461061857600080fd5b80634aa7b87a1461053d5780635440522b146105505780635956da73146105b257600080fd5b806342c1721f1161026c57806342c1721f146104aa57806348d1b16c146104bd578063493fa4dc146104d05780634a7906b9146104e457600080fd5b80632ea24efc1461047157806342842e0e1461048457806342966c681461049757600080fd5b8063081812fc116102ff57806318160ddd116102d957806318160ddd1461043057806321cb72271461043857806323b872dd1461044b578063288893d61461045e57600080fd5b8063081812fc146103df578063095ea7b31461040a5780631801fbe51461041d57600080fd5b8062fba0271461034657806301ffc9a71461036c5780630370a1611461038f578063040f7618146103a457806306fdde03146103b7578063077f224a146103cc575b600080fd5b6103596103543660046124df565b610879565b6040519081526020015b60405180910390f35b61037f61037a3660046124f8565b6108c1565b6040519015158152602001610363565b6103a261039d36600461253a565b610913565b005b6103a26103b2366004612572565b61098b565b6103bf610a0b565b60405161036391906125ee565b6103a26103da36600461264a565b610a9d565b6103f26103ed3660046124df565b610be6565b6040516001600160a01b039091168152602001610363565b6103a26104183660046126ce565b610c7b565b61035961042b3660046126fa565b610d90565b601e54610359565b6103a26104463660046126fa565b610e58565b6103a261045936600461271c565b610e9b565b6103a261046c3660046126fa565b610ec1565b61035961047f36600461253a565b610f04565b6103a261049236600461271c565b610fd2565b6103a26104a53660046124df565b610fed565b6103a26104b83660046127d8565b6110b2565b6103596104cb3660046124df565b611127565b6103596104de3660046124df565b50600090565b6105306104f23660046124df565b604080518082019091526000808252602082015250600090815260116020908152604091829020825180840190935280548352600101549082015290565b6040516103639190612833565b61035961054b3660046124df565b611175565b6105a561055e3660046124df565b604080518082019091526000808252602082015250600090815260106020908152604091829020825180840190935280546001600160a01b03168352600101549082015290565b604051610363919061284a565b6103a26105c036600461286a565b6111bc565b6105d86105d33660046124df565b6111ff565b604051610363919061289a565b6103596105f3366004612572565b611249565b61060b6106063660046124df565b611309565b60405161036391906128e7565b6103bf6106263660046124df565b61144c565b6103f26106393660046124df565b6114ee565b61035961064c3660046127d8565b6115a4565b61035961065f3660046124df565b61163f565b61035961067236600461293e565b611686565b6103a26106853660046126fa565b6117b4565b61069d6106983660046124df565b61184e565b604051610363919061295b565b6103596106b83660046124df565b611898565b6103a26106cb3660046127d8565b6118dc565b6103596106de3660046124df565b6119b4565b6106f66106f13660046124df565b6119fb565b6040516103639190612993565b6103bf611b3a565b6103596107193660046124df565b611b49565b61035961072c3660046124df565b6000908152601d602052604090205490565b6103a261074c3660046129e6565b611b90565b6103bf61075f3660046124df565b611b9f565b6103a2610772366004612a19565b611c71565b61069d6107853660046124df565b611c9c565b6103a26107983660046126fa565b611ce6565b600a546103f2906001600160a01b031681565b6103a26107be3660046126fa565b611d29565b6103bf6107d13660046124df565b5060408051602081019091526000815290565b6107f76107f23660046124df565b611d6c565b6040516103639190612a99565b61037f610812366004612afb565b6001600160a01b03918216600090815260056020908152604080832093909416825291909152205460ff1690565b6103a261084e36600461286a565b611eff565b61069d6108613660046124df565b611f42565b6103596108743660046124df565b611f8c565b6000818152601c6020526040812054829082036108a9576040516366012df560e11b815260040160405180910390fd5b6000838152600b602052604090205491505b50919050565b60006001600160e01b031982166380ac58cd60e01b14806108f257506001600160e01b03198216635b5e139f60e01b145b8061090d57506301ffc9a760e01b6001600160e01b03198316145b92915050565b600a546001600160a01b0316331461093e576040516302b6341b60e41b815260040160405180910390fd5b60008282604051602001610953929190612b29565b60408051601f1981840301815291815281516020928301206000878152601690935291209091506109849082611fd3565b5050505050565b600a546001600160a01b031633146109b6576040516302b6341b60e41b815260040160405180910390fd5b604051634e6f746560e01b6020820152602481018390526044810182905260009060640160408051601f1981840301815291815281516020928301206000878152601790935291209091506109849082611fd3565b606060008054610a1a90612b5a565b80601f0160208091040260200160405190810160405280929190818152602001828054610a4690612b5a565b8015610a935780601f10610a6857610100808354040283529160200191610a93565b820191906000526020600020905b815481529060010190602001808311610a7657829003601f168201915b5050505050905090565b601a54600290610100900460ff16158015610abf5750601a5460ff8083169116105b610b275760405162461bcd60e51b815260206004820152602e60248201527f496e697469616c697a61626c653a20636f6e747261637420697320616c72656160448201526d191e481a5b9a5d1a585b1a5e995960921b60648201526084015b60405180910390fd5b601a805461ffff191660ff831617610100179055600a80546001600160a01b0384166001600160a01b0319909116179055601b54601e55610b6a86868686611fdf565b6040514281527fcfdec2ffedf2f5ec02de6f351c5f9b6150601f657926e9e87b16390d562af4e79060200160405180910390a1601a805461ff001916905560405160ff821681527f7f26b83ff96e1f2b6a682f133852f6798a09c465da95921460cefb38474024989060200160405180910390a1505050505050565b6000818152600260205260408120546001600160a01b0316610c5f5760405162461bcd60e51b815260206004820152602c60248201527f4552433732313a20617070726f76656420717565727920666f72206e6f6e657860448201526b34b9ba32b73a103a37b5b2b760a11b6064820152608401610b1e565b506000908152600460205260409020546001600160a01b031690565b6000610c8682612030565b9050806001600160a01b0316836001600160a01b031603610cf35760405162461bcd60e51b815260206004820152602160248201527f4552433732313a20617070726f76616c20746f2063757272656e74206f776e656044820152603960f91b6064820152608401610b1e565b336001600160a01b0382161480610d0f5750610d0f8133610812565b610d815760405162461bcd60e51b815260206004820152603860248201527f4552433732313a20617070726f76652063616c6c6572206973206e6f74206f7760448201527f6e6572206e6f7220617070726f76656420666f7220616c6c00000000000000006064820152608401610b1e565b610d8b83836120a7565b505050565b600a546000906001600160a01b03163314610dbe576040516302b6341b60e41b815260040160405180910390fd5b601b60008154610dcd90612ba4565b91829055506000818152600b60209081526040808320869055601c8252808320879055868352601d9091528120805492935090610e0983612ba4565b9091555050601e8054906000610e1e83612ba4565b9091555050604051819084906000907f7fa9aafeb8bb803d77de5d84bc2f2edbd842ca91b20cd5020aa21dfe26ab0be9908290a492915050565b600a546001600160a01b03163314610e83576040516302b6341b60e41b815260040160405180910390fd5b6000828152600c60205260409020610d8b9082611fd3565b610ea53382612115565b610d8b5760405162461bcd60e51b8152600401610b1e90612bbd565b600a546001600160a01b03163314610eec576040516302b6341b60e41b815260040160405180910390fd5b6000828152600c60205260409020610d8b908261220c565b600a546000906001600160a01b03163314610f32576040516302b6341b60e41b815260040160405180910390fd5b60008383604051602001610f47929190612b29565b60405160208183030381529060405280519060200120905084600014610f81576000858152601660205260409020610f7f908261220c565b505b6040805180820182526001600160a01b0380871682526020808301878152600086815260109092529390209151825491166001600160a01b0319909116178155905160019091015590509392505050565b610d8b83838360405180602001604052806000815250611c71565b600a546001600160a01b03163314611018576040516302b6341b60e41b815260040160405180910390fd5b6000818152601c602052604081205490819003611048576040516366012df560e11b815260040160405180910390fd5b6000818152601d602090815260408083208054600019908101909155601e80549091019055848352600b8252808320839055601c90915280822082905551839183917f410c5c259085cde81fedf70c1aa308ec839373c26e9b7ada6560a2aca0254eb69190a35050565b600a546001600160a01b031633146110dd576040516302b6341b60e41b815260040160405180910390fd5b6000816040516020016110f09190612c0e565b60408051601f1981840301815291815281516020928301206000868152601990935291209091506111219082611fd3565b50505050565b6000818152601c602052604081205482908203611157576040516366012df560e11b815260040160405180910390fd5b6000838152600c6020526040902061116e90612218565b9392505050565b6000818152601c6020526040812054829082036111a5576040516366012df560e11b815260040160405180910390fd5b600083815260196020526040902061116e90612218565b600a546001600160a01b031633146111e7576040516302b6341b60e41b815260040160405180910390fd5b6000828152600d60205260409020610d8b9082612222565b6000818152601c602052604081205460609183919003611232576040516366012df560e11b815260040160405180910390fd5b6000838152600d6020526040902061116e90612237565b600a546000906001600160a01b03163314611277576040516302b6341b60e41b815260040160405180910390fd5b604051634e6f746560e01b60208201526024810184905260448101839052600090606401604051602081830303815290604052805190602001209050846000146112d55760008581526017602052604090206112d3908261220c565b505b6040805180820182529485526020808601948552600083815260119091522093518455915160019093019290925592915050565b6000818152601c60205260408120546060918391900361133c576040516366012df560e11b815260040160405180910390fd5b600083815260176020526040812061135390612237565b9050805167ffffffffffffffff81111561136f5761136f61274c565b6040519080825280602002602001820160405280156113b457816020015b604080518082019091526000808252602082015281526020019060019003908161138d5790505b50925060005b81518110156114445760008282815181106113d7576113d7612c3c565b60200260200101519050601160008281526020019081526020016000206040518060400160405290816000820154815260200160018201548152505085838151811061142557611425612c3c565b602002602001018190525050808061143c90612ba4565b9150506113ba565b505050919050565b600081815260136020526040902080546060919061146990612b5a565b80601f016020809104026020016040519081016040528092919081815260200182805461149590612b5a565b80156114e25780601f106114b7576101008083540402835291602001916114e2565b820191906000526020600020905b8154815290600101906020018083116114c557829003601f168201915b50505050509050919050565b6000818152601c60205260408120548290820361151e576040516366012df560e11b815260040160405180910390fd5b6000838152601c602052604080822054600a5491516331a9108f60e11b8152600481018290529092916001600160a01b031690636352211e90602401602060405180830381865afa158015611577573d6000803e3d6000fd5b505050506040513d601f19601f8201168201806040525081019061159b9190612c52565b95945050505050565b600a546000906001600160a01b031633146115d2576040516302b6341b60e41b815260040160405180910390fd5b6000826040516020016115e59190612c0e565b6040516020818303038152906040528051906020012090508360001461161f57600084815260196020526040902061161d908261220c565b505b60008181526013602052604090206116378482612cbd565b509392505050565b6000818152601c60205260408120548290820361166f576040516366012df560e11b815260040160405180910390fd5b600083815260166020526040902061116e90612218565b600a546040516370a0823160e01b81526001600160a01b03838116600483015260009283929116906370a0823190602401602060405180830381865afa1580156116d4573d6000803e3d6000fd5b505050506040513d601f19601f820116820180604052508101906116f89190612d7d565b905060005b818110156117ad57600a54604051632f745c5960e01b81526001600160a01b038681166004830152602482018490526000921690632f745c5990604401602060405180830381865afa158015611757573d6000803e3d6000fd5b505050506040513d601f19601f8201168201806040525081019061177b9190612d7d565b6000818152601d60205260409020549091506117979085612d96565b93505080806117a590612ba4565b9150506116fd565b5050919050565b600a546001600160a01b031633146117df576040516302b6341b60e41b815260040160405180910390fd5b6000828152601c602052604081205483910361180e576040516366012df560e11b815260040160405180910390fd5b6000838152600b602052604080822084905551839185917ff0aea9f7b630d17e54614f5667704230d832f3c25c0ebbbd2cd7b52914ce11aa9190a3505050565b6000818152601c602052604081205460609183919003611881576040516366012df560e11b815260040160405180910390fd5b600083815260196020526040902061116e90612237565b6000818152601c6020526040812054829082036118c8576040516366012df560e11b815260040160405180910390fd5b50506000908152601c602052604090205490565b6000828152601c602052604081205483910361190b576040516366012df560e11b815260040160405180910390fd5b600a546001600160a01b03163314801590611940575061192a836114ee565b6001600160a01b0316336001600160a01b031614155b1561195e57604051631a64ce6560e11b815260040160405180910390fd5b60008381526015602052604090206119768382612cbd565b50827f6d10c59cedadc720a2e20f54f0a461ef82bd35f762430e32ef049dd6d7fc2730836040516119a791906125ee565b60405180910390a2505050565b6000818152601c6020526040812054829082036119e4576040516366012df560e11b815260040160405180910390fd5b6000838152600e6020526040902061116e90612218565b6000818152601c602052604081205460609183919003611a2e576040516366012df560e11b815260040160405180910390fd5b6000838152601660205260408120611a4590612237565b9050805167ffffffffffffffff811115611a6157611a6161274c565b604051908082528060200260200182016040528015611aa657816020015b6040805180820190915260008082526020820152815260200190600190039081611a7f5790505b50925060005b8151811015611444576000828281518110611ac957611ac9612c3c565b602090810291909101810151600081815260108352604090819020815180830190925280546001600160a01b0316825260010154928101929092528651909250869084908110611b1b57611b1b612c3c565b6020026020010181905250508080611b3290612ba4565b915050611aac565b606060018054610a1a90612b5a565b6000818152601c602052604081205482908203611b79576040516366012df560e11b815260040160405180910390fd5b6000838152600d6020526040902061116e90612218565b611b9b338383612244565b5050565b6000818152601c602052604081205460609183919003611bd2576040516366012df560e11b815260040160405180910390fd5b60008381526015602052604090208054611beb90612b5a565b80601f0160208091040260200160405190810160405280929190818152602001828054611c1790612b5a565b8015611c645780601f10611c3957610100808354040283529160200191611c64565b820191906000526020600020905b815481529060010190602001808311611c4757829003601f168201915b5050505050915050919050565b611c7b3383612115565b611c975760405162461bcd60e51b8152600401610b1e90612bbd565b611121565b6000818152601c602052604081205460609183919003611ccf576040516366012df560e11b815260040160405180910390fd5b6000838152600c6020526040902061116e90612237565b600a546001600160a01b03163314611d11576040516302b6341b60e41b815260040160405180910390fd5b6000828152600e60205260409020610d8b908261220c565b600a546001600160a01b03163314611d54576040516302b6341b60e41b815260040160405180910390fd5b6000828152600e60205260409020610d8b9082611fd3565b6000818152601c602052604081205460609183919003611d9f576040516366012df560e11b815260040160405180910390fd5b6000838152601960205260408120611db690612237565b9050805167ffffffffffffffff811115611dd257611dd261274c565b604051908082528060200260200182016040528015611e0557816020015b6060815260200190600190039081611df05790505b50925060005b8151811015611444576000828281518110611e2857611e28612c3c565b60200260200101519050601360008281526020019081526020016000208054611e5090612b5a565b80601f0160208091040260200160405190810160405280929190818152602001828054611e7c90612b5a565b8015611ec95780601f10611e9e57610100808354040283529160200191611ec9565b820191906000526020600020905b815481529060010190602001808311611eac57829003601f168201915b5050505050858381518110611ee057611ee0612c3c565b6020026020010181905250508080611ef790612ba4565b915050611e0b565b600a546001600160a01b03163314611f2a576040516302b6341b60e41b815260040160405180910390fd5b6000828152600d60205260409020610d8b9082612312565b6000818152601c602052604081205460609183919003611f75576040516366012df560e11b815260040160405180910390fd5b6000838152600e6020526040902061116e90612237565b6000818152601c602052604081205482908203611fbc576040516366012df560e11b815260040160405180910390fd5b600083815260176020526040902061116e90612218565b600061116e8383612327565b611feb8484848461241a565b7f414cd0b34676984f09a5f76ce9718d4062e50283abe0e7e274a9a5b4e0c99c308484848442604051612022959493929190612dd2565b60405180910390a150505050565b6000818152600260205260408120546001600160a01b03168061090d5760405162461bcd60e51b815260206004820152602960248201527f4552433732313a206f776e657220717565727920666f72206e6f6e657869737460448201526832b73a103a37b5b2b760b91b6064820152608401610b1e565b600081815260046020526040902080546001600160a01b0319166001600160a01b03841690811790915581906120dc82612030565b6001600160a01b03167f8c5be1e5ebec7d5bd14f71427d1e84f3dd0314c0f7b2291e5b200ac8c7c3b92560405160405180910390a45050565b6000818152600260205260408120546001600160a01b031661218e5760405162461bcd60e51b815260206004820152602c60248201527f4552433732313a206f70657261746f7220717565727920666f72206e6f6e657860448201526b34b9ba32b73a103a37b5b2b760a11b6064820152608401610b1e565b600061219983612030565b9050806001600160a01b0316846001600160a01b031614806121d45750836001600160a01b03166121c984610be6565b6001600160a01b0316145b8061220457506001600160a01b0380821660009081526005602090815260408083209388168352929052205460ff165b949350505050565b600061116e8383612435565b600061090d825490565b600061116e836001600160a01b038416612327565b6060600061116e83612484565b816001600160a01b0316836001600160a01b0316036122a55760405162461bcd60e51b815260206004820152601960248201527f4552433732313a20617070726f766520746f2063616c6c6572000000000000006044820152606401610b1e565b6001600160a01b03838116600081815260056020908152604080832094871680845294825291829020805460ff191686151590811790915591519182527f17307eab39ab6107e8899845ad3d59bd9653f200f220920489ca2b5937696c31910160405180910390a3505050565b600061116e836001600160a01b038416612435565b6000818152600183016020526040812054801561241057600061234b600183612e0c565b855490915060009061235f90600190612e0c565b90508181146123c457600086600001828154811061237f5761237f612c3c565b90600052602060002001549050808760000184815481106123a2576123a2612c3c565b6000918252602080832090910192909255918252600188019052604090208390555b85548690806123d5576123d5612e1f565b60019003818190600052602060002001600090559055856001016000868152602001908152602001600020600090556001935050505061090d565b600091505061090d565b6000612427848683612e35565b506001610984828483612e35565b600081815260018301602052604081205461247c5750815460018181018455600084815260208082209093018490558454848252828601909352604090209190915561090d565b50600061090d565b6060816000018054806020026020016040519081016040528092919081815260200182805480156114e257602002820191906000526020600020905b8154815260200190600101908083116124c05750505050509050919050565b6000602082840312156124f157600080fd5b5035919050565b60006020828403121561250a57600080fd5b81356001600160e01b03198116811461116e57600080fd5b6001600160a01b038116811461253757600080fd5b50565b60008060006060848603121561254f57600080fd5b83359250602084013561256181612522565b929592945050506040919091013590565b60008060006060848603121561258757600080fd5b505081359360208301359350604090920135919050565b60005b838110156125b95781810151838201526020016125a1565b50506000910152565b600081518084526125da81602086016020860161259e565b601f01601f19169290920160200192915050565b60208152600061116e60208301846125c2565b60008083601f84011261261357600080fd5b50813567ffffffffffffffff81111561262b57600080fd5b60208301915083602082850101111561264357600080fd5b9250929050565b60008060008060006060868803121561266257600080fd5b853567ffffffffffffffff8082111561267a57600080fd5b61268689838a01612601565b9097509550602088013591508082111561269f57600080fd5b506126ac88828901612601565b90945092505060408601356126c081612522565b809150509295509295909350565b600080604083850312156126e157600080fd5b82356126ec81612522565b946020939093013593505050565b6000806040838503121561270d57600080fd5b50508035926020909101359150565b60008060006060848603121561273157600080fd5b833561273c81612522565b9250602084013561256181612522565b634e487b7160e01b600052604160045260246000fd5b600067ffffffffffffffff8084111561277d5761277d61274c565b604051601f8501601f19908116603f011681019082821181831017156127a5576127a561274c565b816040528093508581528686860111156127be57600080fd5b858560208301376000602087830101525050509392505050565b600080604083850312156127eb57600080fd5b82359150602083013567ffffffffffffffff81111561280957600080fd5b8301601f8101851361281a57600080fd5b61282985823560208401612762565b9150509250929050565b81518152602080830151908201526040810161090d565b81516001600160a01b03168152602080830151908201526040810161090d565b6000806040838503121561287d57600080fd5b82359150602083013561288f81612522565b809150509250929050565b6020808252825182820181905260009190848201906040850190845b818110156128db5783516001600160a01b0316835292840192918401916001016128b6565b50909695505050505050565b602080825282518282018190526000919060409081850190868401855b828110156129315761292184835180518252602090810151910152565b9284019290850190600101612904565b5091979650505050505050565b60006020828403121561295057600080fd5b813561116e81612522565b6020808252825182820181905260009190848201906040850190845b818110156128db57835183529284019291840191600101612977565b602080825282518282018190526000919060409081850190868401855b82811015612931576129d684835180516001600160a01b03168252602090810151910152565b92840192908501906001016129b0565b600080604083850312156129f957600080fd5b8235612a0481612522565b91506020830135801515811461288f57600080fd5b60008060008060808587031215612a2f57600080fd5b8435612a3a81612522565b93506020850135612a4a81612522565b925060408501359150606085013567ffffffffffffffff811115612a6d57600080fd5b8501601f81018713612a7e57600080fd5b612a8d87823560208401612762565b91505092959194509250565b6000602080830181845280855180835260408601915060408160051b870101925083870160005b82811015612aee57603f19888603018452612adc8583516125c2565b94509285019290850190600101612ac0565b5092979650505050505050565b60008060408385031215612b0e57600080fd5b8235612b1981612522565b9150602083013561288f81612522565b6545524337323160d01b815260609290921b6bffffffffffffffffffffffff19166006830152601a820152603a0190565b600181811c90821680612b6e57607f821691505b6020821081036108bb57634e487b7160e01b600052602260045260246000fd5b634e487b7160e01b600052601160045260246000fd5b600060018201612bb657612bb6612b8e565b5060010190565b60208082526031908201527f4552433732313a207472616e736665722063616c6c6572206973206e6f74206f6040820152701ddb995c881b9bdc88185c1c1c9bdd9959607a1b606082015260800190565b65416e7955726960d01b815260008251612c2f81600685016020870161259e565b9190910160060192915050565b634e487b7160e01b600052603260045260246000fd5b600060208284031215612c6457600080fd5b815161116e81612522565b601f821115610d8b57600081815260208120601f850160051c81016020861015612c965750805b601f850160051c820191505b81811015612cb557828155600101612ca2565b505050505050565b815167ffffffffffffffff811115612cd757612cd761274c565b612ceb81612ce58454612b5a565b84612c6f565b602080601f831160018114612d205760008415612d085750858301515b600019600386901b1c1916600185901b178555612cb5565b600085815260208120601f198616915b82811015612d4f57888601518255948401946001909101908401612d30565b5085821015612d6d5787850151600019600388901b60f8161c191681555b5050505050600190811b01905550565b600060208284031215612d8f57600080fd5b5051919050565b8082018082111561090d5761090d612b8e565b81835281816020850137506000828201602090810191909152601f909101601f19169091010190565b606081526000612de6606083018789612da9565b8281036020840152612df9818688612da9565b9150508260408301529695505050505050565b8181038181111561090d5761090d612b8e565b634e487b7160e01b600052603160045260246000fd5b67ffffffffffffffff831115612e4d57612e4d61274c565b612e6183612e5b8354612b5a565b83612c6f565b6000601f841160018114612e955760008515612e7d5750838201355b600019600387901b1c1916600186901b178355610984565b600083815260209020601f19861690835b82811015612ec65786850135825560209485019460019092019101612ea6565b5086821015612ee35760001960f88860031b161c19848701351681555b505060018560011b018355505050505056fea26469706673582212208e905ea7ff20ffead18b0c53cc8d184e92cce2650a616e85bebe7c18fecc32f264736f6c63430008120033",
  "linkReferences": {},
  "deployedLinkReferences": {}
}