{
  "_format": "hh-sol-artifact-1",
  "contractName": "MintNFT",
  "sourceName": "contracts/MintNFT.sol",
  "abi": [
    {
      "inputs": [],
      "name": "ErrCallerNotWeb3Entry",
      "type": "error"
    },
    {
      "anonymous": false,
      "inputs": [
        {
          "indexed": true,
          "internalType": "address",
          "name": "owner",
          "type": "address"
        },
        {
          "indexed": true,
          "internalType": "address",
          "name": "approved",
          "type": "address"
        },
        {
          "indexed": true,
          "internalType": "uint256",
          "name": "tokenId",
          "type": "uint256"
        }
      ],
      "name": "Approval",
      "type": "event"
    },
    {
      "anonymous": false,
      "inputs": [
        {
          "indexed": true,
          "internalType": "address",
          "name": "owner",
          "type": "address"
        },
        {
          "indexed": true,
          "internalType": "address",
          "name": "operator",
          "type": "address"
        },
        {
          "indexed": false,
          "internalType": "bool",
          "name": "approved",
          "type": "bool"
        }
      ],
      "name": "ApprovalForAll",
      "type": "event"
    },
    {
      "anonymous": false,
      "inputs": [
        {
          "indexed": false,
          "internalType": "uint8",
          "name": "version",
          "type": "uint8"
        }
      ],
      "name": "Initialized",
      "type": "event"
    },
    {
      "anonymous": false,
      "inputs": [
        {
          "indexed": true,
          "internalType": "address",
          "name": "from",
          "type": "address"
        },
        {
          "indexed": true,
          "internalType": "address",
          "name": "to",
          "type": "address"
        },
        {
          "indexed": true,
          "internalType": "uint256",
          "name": "tokenId",
          "type": "uint256"
        }
      ],
      "name": "Transfer",
      "type": "event"
    },
    {
      "inputs": [
        {
          "internalType": "address",
          "name": "to",
          "type": "address"
        },
        {
          "internalType": "uint256",
          "name": "tokenId",
          "type": "uint256"
        }
      ],
      "name": "approve",
      "outputs": [],
      "stateMutability": "nonpayable",
      "type": "function"
    },
    {
      "inputs": [
        {
          "internalType": "address",
          "name": "owner",
          "type": "address"
        }
      ],
      "name": "balanceOf",
      "outputs": [
        {
          "internalType": "uint256",
          "name": "",
          "type": "uint256"
        }
      ],
      "stateMutability": "view",
      "type": "function"
    },
    {
      "inputs": [
        {
          "internalType": "uint256",
          "name": "tokenId",
          "type": "uint256"
        }
      ],
      "name": "burn",
      "outputs": [],
      "stateMutability": "nonpayable",
      "type": "function"
    },
    {
      "inputs": [
        {
          "internalType": "uint256",
          "name": "tokenId",
          "type": "uint256"
        }
      ],
      "name": "getApproved",
      "outputs": [
        {
          "internalType": "address",
          "name": "",
          "type": "address"
        }
      ],
      "stateMutability": "view",
      "type": "function"
    },
    {
      "inputs": [],
      "name": "getSourceNotePointer",
      "outputs": [
        {
          "internalType": "uint256",
          "name": "characterId",
          "type": "uint256"
        },
        {
          "internalType": "uint256",
          "name": "noteId",
          "type": "uint256"
        }
      ],
      "stateMutability": "view",
      "type": "function"
    },
    {
      "inputs": [
        {
          "internalType": "uint256",
          "name": "characterId_",
          "type": "uint256"
        },
        {
          "internalType": "uint256",
          "name": "noteId_",
          "type": "uint256"
        },
        {
          "internalType": "address",
          "name": "web3Entry_",
          "type": "address"
        },
        {
          "internalType": "string",
          "name": "name_",
          "type": "string"
        },
        {
          "internalType": "string",
          "name": "symbol_",
          "type": "string"
        }
      ],
      "name": "initialize",
      "outputs": [],
      "stateMutability": "nonpayable",
      "type": "function"
    },
    {
      "inputs": [
        {
          "internalType": "address",
          "name": "owner",
          "type": "address"
        },
        {
          "internalType": "address",
          "name": "operator",
          "type": "address"
        }
      ],
      "name": "isApprovedForAll",
      "outputs": [
        {
          "internalType": "bool",
          "name": "",
          "type": "bool"
        }
      ],
      "stateMutability": "view",
      "type": "function"
    },
    {
      "inputs": [
        {
          "internalType": "address",
          "name": "to",
          "type": "address"
        }
      ],
      "name": "mint",
      "outputs": [
        {
          "internalType": "uint256",
          "name": "tokenId",
          "type": "uint256"
        }
      ],
      "stateMutability": "nonpayable",
      "type": "function"
    },
    {
      "inputs": [],
      "name": "name",
      "outputs": [
        {
          "internalType": "string",
          "name": "",
          "type": "string"
        }
      ],
      "stateMutability": "view",
      "type": "function"
    },
    {
      "inputs": [
        {
          "internalType": "uint256",
          "name": "tokenId",
          "type": "uint256"
        }
      ],
      "name": "originalReceiver",
      "outputs": [
        {
          "internalType": "address",
          "name": "",
          "type": "address"
        }
      ],
      "stateMutability": "view",
      "type": "function"
    },
    {
      "inputs": [
        {
          "internalType": "uint256",
          "name": "tokenId",
          "type": "uint256"
        }
      ],
      "name": "ownerOf",
      "outputs": [
        {
          "internalType": "address",
          "name": "",
          "type": "address"
        }
      ],
      "stateMutability": "view",
      "type": "function"
    },
    {
      "inputs": [
        {
          "internalType": "address",
          "name": "from",
          "type": "address"
        },
        {
          "internalType": "address",
          "name": "to",
          "type": "address"
        },
        {
          "internalType": "uint256",
          "name": "tokenId",
          "type": "uint256"
        }
      ],
      "name": "safeTransferFrom",
      "outputs": [],
      "stateMutability": "nonpayable",
      "type": "function"
    },
    {
      "inputs": [
        {
          "internalType": "address",
          "name": "from",
          "type": "address"
        },
        {
          "internalType": "address",
          "name": "to",
          "type": "address"
        },
        {
          "internalType": "uint256",
          "name": "tokenId",
          "type": "uint256"
        },
        {
          "internalType": "bytes",
          "name": "_data",
          "type": "bytes"
        }
      ],
      "name": "safeTransferFrom",
      "outputs": [],
      "stateMutability": "nonpayable",
      "type": "function"
    },
    {
      "inputs": [
        {
          "internalType": "address",
          "name": "operator",
          "type": "address"
        },
        {
          "internalType": "bool",
          "name": "approved",
          "type": "bool"
        }
      ],
      "name": "setApprovalForAll",
      "outputs": [],
      "stateMutability": "nonpayable",
      "type": "function"
    },
    {
      "inputs": [
        {
          "internalType": "bytes4",
          "name": "interfaceId",
          "type": "bytes4"
        }
      ],
      "name": "supportsInterface",
      "outputs": [
        {
          "internalType": "bool",
          "name": "",
          "type": "bool"
        }
      ],
      "stateMutability": "view",
      "type": "function"
    },
    {
      "inputs": [],
      "name": "symbol",
      "outputs": [
        {
          "internalType": "string",
          "name": "",
          "type": "string"
        }
      ],
      "stateMutability": "view",
      "type": "function"
    },
    {
      "inputs": [
        {
          "internalType": "uint256",
          "name": "index",
          "type": "uint256"
        }
      ],
      "name": "tokenByIndex",
      "outputs": [
        {
          "internalType": "uint256",
          "name": "",
          "type": "uint256"
        }
      ],
      "stateMutability": "view",
      "type": "function"
    },
    {
      "inputs": [
        {
          "internalType": "address",
          "name": "owner",
          "type": "address"
        },
        {
          "internalType": "uint256",
          "name": "index",
          "type": "uint256"
        }
      ],
      "name": "tokenOfOwnerByIndex",
      "outputs": [
        {
          "internalType": "uint256",
          "name": "",
          "type": "uint256"
        }
      ],
      "stateMutability": "view",
      "type": "function"
    },
    {
      "inputs": [
        {
          "internalType": "uint256",
          "name": "tokenId",
          "type": "uint256"
        }
      ],
      "name": "tokenURI",
      "outputs": [
        {
          "internalType": "string",
          "name": "uri",
          "type": "string"
        }
      ],
      "stateMutability": "view",
      "type": "function"
    },
    {
      "inputs": [],
      "name": "totalSupply",
      "outputs": [
        {
          "internalType": "uint256",
          "name": "",
          "type": "uint256"
        }
      ],
      "stateMutability": "view",
      "type": "function"
    },
    {
      "inputs": [
        {
          "internalType": "address",
          "name": "from",
          "type": "address"
        },
        {
          "internalType": "address",
          "name": "to",
          "type": "address"
        },
        {
          "internalType": "uint256",
          "name": "tokenId",
          "type": "uint256"
        }
      ],
      "name": "transferFrom",
      "outputs": [],
      "stateMutability": "nonpayable",
      "type": "function"
    }
  ],
  "bytecode": "0x608060405234801561001057600080fd5b50611e00806100206000396000f3fe608060405234801561001057600080fd5b50600436106101375760003560e01c806342966c68116100b857806395d89b411161007c57806395d89b411461029f578063a22cb465146102a7578063b88d4fde146102ba578063c87b56dd146102cd578063d2fe708e146102e0578063e985e9c5146102fb57600080fd5b806342966c68146102405780634f6ccce7146102535780636352211e146102665780636a6278421461027957806370a082311461028c57600080fd5b80631a380beb116100ff5780631a380beb146101cb57806323b872dd146101f45780632f745c59146102075780632fd6b8861461021a57806342842e0e1461022d57600080fd5b806301ffc9a71461013c57806306fdde0314610164578063081812fc14610179578063095ea7b3146101a457806318160ddd146101b9575b600080fd5b61014f61014a366004611594565b610337565b60405190151581526020015b60405180910390f35b61016c610362565b60405161015b9190611608565b61018c61018736600461161b565b6103f4565b6040516001600160a01b03909116815260200161015b565b6101b76101b2366004611649565b61048e565b005b600e545b60405190815260200161015b565b61018c6101d936600461161b565b6000908152600f60205260409020546001600160a01b031690565b6101b7610202366004611675565b6105a3565b6101bd610215366004611649565b6105d4565b6101b76102283660046116ff565b61066a565b6101b761023b366004611675565b6107eb565b6101b761024e36600461161b565b610806565b6101bd61026136600461161b565b610868565b61018c61027436600461161b565b6108fb565b6101bd610287366004611795565b610972565b6101bd61029a366004611795565b6109ec565b61016c610a73565b6101b76102b53660046117c0565b610a82565b6101b76102c8366004611892565b610a91565b61016c6102db36600461161b565b610ac9565b600b54600c546040805192835260208301919091520161015b565b61014f610309366004611941565b6001600160a01b03918216600090815260056020908152604080832093909416825291909152205460ff1690565b60006001600160e01b0319821663780e9d6360e01b148061035c575061035c82610b70565b92915050565b6060600080546103719061196f565b80601f016020809104026020016040519081016040528092919081815260200182805461039d9061196f565b80156103ea5780601f106103bf576101008083540402835291602001916103ea565b820191906000526020600020905b8154815290600101906020018083116103cd57829003601f168201915b5050505050905090565b6000818152600260205260408120546001600160a01b03166104725760405162461bcd60e51b815260206004820152602c60248201527f4552433732313a20617070726f76656420717565727920666f72206e6f6e657860448201526b34b9ba32b73a103a37b5b2b760a11b60648201526084015b60405180910390fd5b506000908152600460205260409020546001600160a01b031690565b6000610499826108fb565b9050806001600160a01b0316836001600160a01b0316036105065760405162461bcd60e51b815260206004820152602160248201527f4552433732313a20617070726f76616c20746f2063757272656e74206f776e656044820152603960f91b6064820152608401610469565b336001600160a01b038216148061052257506105228133610309565b6105945760405162461bcd60e51b815260206004820152603860248201527f4552433732313a20617070726f76652063616c6c6572206973206e6f74206f7760448201527f6e6572206e6f7220617070726f76656420666f7220616c6c00000000000000006064820152608401610469565b61059e8383610bc0565b505050565b6105ad3382610c2e565b6105c95760405162461bcd60e51b8152600401610469906119a9565b61059e838383610d25565b60006105df836109ec565b82106106415760405162461bcd60e51b815260206004820152602b60248201527f455243373231456e756d657261626c653a206f776e657220696e646578206f7560448201526a74206f6620626f756e647360a81b6064820152608401610469565b506001600160a01b03919091166000908152600660209081526040808320938352929052205490565b600a54610100900460ff161580801561068a5750600a54600160ff909116105b806106a45750303b1580156106a45750600a5460ff166001145b6107075760405162461bcd60e51b815260206004820152602e60248201527f496e697469616c697a61626c653a20636f6e747261637420697320616c72656160448201526d191e481a5b9a5d1a585b1a5e995960921b6064820152608401610469565b600a805460ff19166001179055801561072a57600a805461ff0019166101001790555b61073685858585610ecc565b600b889055600c879055600d80546001600160a01b0319166001600160a01b0388161790556040805189815260208101899052428183015290517f6f606e3871b6f24ddc0daa88a8ed8e8761eb9d1474e64322940f858df287de50916060908290030190a180156107e157600a805461ff0019169055604051600181527f7f26b83ff96e1f2b6a682f133852f6798a09c465da95921460cefb38474024989060200160405180910390a15b5050505050505050565b61059e83838360405180602001604052806000815250610a91565b6108103382610c2e565b61085c5760405162461bcd60e51b815260206004820152601b60248201527f4e4654426173653a204e6f744f776e65724f72417070726f76656400000000006044820152606401610469565b61086581610f1d565b50565b600061087360085490565b82106108d65760405162461bcd60e51b815260206004820152602c60248201527f455243373231456e756d657261626c653a20676c6f62616c20696e646578206f60448201526b7574206f6620626f756e647360a01b6064820152608401610469565b600882815481106108e9576108e96119fa565b90600052602060002001549050919050565b6000818152600260205260408120546001600160a01b03168061035c5760405162461bcd60e51b815260206004820152602960248201527f4552433732313a206f776e657220717565727920666f72206e6f6e657869737460448201526832b73a103a37b5b2b760b91b6064820152608401610469565b600d546000906001600160a01b031633146109a0576040516302b6341b60e41b815260040160405180910390fd5b600e600081546109af90611a26565b91829055506000818152600f6020526040902080546001600160a01b0319166001600160a01b03851617905590506109e78282610fc4565b919050565b60006001600160a01b038216610a575760405162461bcd60e51b815260206004820152602a60248201527f4552433732313a2062616c616e636520717565727920666f7220746865207a65604482015269726f206164647265737360b01b6064820152608401610469565b506001600160a01b031660009081526003602052604090205490565b6060600180546103719061196f565b610a8d338383611112565b5050565b610a9b3383610c2e565b610ab75760405162461bcd60e51b8152600401610469906119a9565b610ac3848484846111e0565b50505050565b6000818152600260205260409020546060906001600160a01b0316156109e757600d54600b54600c546040516301b6923d60e71b8152600481019290925260248201526001600160a01b039091169063db491e8090604401600060405180830381865afa158015610b3e573d6000803e3d6000fd5b505050506040513d6000823e601f3d908101601f19168201604052610b669190810190611a9a565b6040015192915050565b60006001600160e01b031982166380ac58cd60e01b1480610ba157506001600160e01b03198216635b5e139f60e01b145b8061035c57506301ffc9a760e01b6001600160e01b031983161461035c565b600081815260046020526040902080546001600160a01b0319166001600160a01b0384169081179091558190610bf5826108fb565b6001600160a01b03167f8c5be1e5ebec7d5bd14f71427d1e84f3dd0314c0f7b2291e5b200ac8c7c3b92560405160405180910390a45050565b6000818152600260205260408120546001600160a01b0316610ca75760405162461bcd60e51b815260206004820152602c60248201527f4552433732313a206f70657261746f7220717565727920666f72206e6f6e657860448201526b34b9ba32b73a103a37b5b2b760a11b6064820152608401610469565b6000610cb2836108fb565b9050806001600160a01b0316846001600160a01b03161480610ced5750836001600160a01b0316610ce2846103f4565b6001600160a01b0316145b80610d1d57506001600160a01b0380821660009081526005602090815260408083209388168352929052205460ff165b949350505050565b826001600160a01b0316610d38826108fb565b6001600160a01b031614610d9c5760405162461bcd60e51b815260206004820152602560248201527f4552433732313a207472616e736665722066726f6d20696e636f72726563742060448201526437bbb732b960d91b6064820152608401610469565b6001600160a01b038216610dfe5760405162461bcd60e51b8152602060048201526024808201527f4552433732313a207472616e7366657220746f20746865207a65726f206164646044820152637265737360e01b6064820152608401610469565b610e09838383611213565b610e14600082610bc0565b6001600160a01b0383166000908152600360205260408120805460019290610e3d908490611b71565b90915550506001600160a01b0382166000908152600360205260408120805460019290610e6b908490611b84565b909155505060008181526002602052604080822080546001600160a01b0319166001600160a01b0386811691821790925591518493918716917fddf252ad1be2c89b69c2b068fc378daa952ba7f163c4a11628f55a4df523b3ef91a4505050565b610ed8848484846112cb565b7f414cd0b34676984f09a5f76ce9718d4062e50283abe0e7e274a9a5b4e0c99c308484848442604051610f0f959493929190611bc0565b60405180910390a150505050565b6000610f28826108fb565b9050610f3681600084611213565b610f41600083610bc0565b6001600160a01b0381166000908152600360205260408120805460019290610f6a908490611b71565b909155505060008281526002602052604080822080546001600160a01b0319169055518391906001600160a01b038416907fddf252ad1be2c89b69c2b068fc378daa952ba7f163c4a11628f55a4df523b3ef908390a45050565b6001600160a01b03821661101a5760405162461bcd60e51b815260206004820181905260248201527f4552433732313a206d696e7420746f20746865207a65726f20616464726573736044820152606401610469565b6000818152600260205260409020546001600160a01b03161561107f5760405162461bcd60e51b815260206004820152601c60248201527f4552433732313a20746f6b656e20616c7265616479206d696e746564000000006044820152606401610469565b61108b60008383611213565b6001600160a01b03821660009081526003602052604081208054600192906110b4908490611b84565b909155505060008181526002602052604080822080546001600160a01b0319166001600160a01b03861690811790915590518392907fddf252ad1be2c89b69c2b068fc378daa952ba7f163c4a11628f55a4df523b3ef908290a45050565b816001600160a01b0316836001600160a01b0316036111735760405162461bcd60e51b815260206004820152601960248201527f4552433732313a20617070726f766520746f2063616c6c6572000000000000006044820152606401610469565b6001600160a01b03838116600081815260056020908152604080832094871680845294825291829020805460ff191686151590811790915591519182527f17307eab39ab6107e8899845ad3d59bd9653f200f220920489ca2b5937696c31910160405180910390a3505050565b6111eb848484610d25565b6111f7848484846112ed565b610ac35760405162461bcd60e51b815260040161046990611bfa565b6001600160a01b03831661126e5761126981600880546000838152600960205260408120829055600182018355919091527ff3f7a9fe364faab93b216da50a3214154f22a0a2b415b23a84c8169e8b636ee30155565b611291565b816001600160a01b0316836001600160a01b0316146112915761129183826113ee565b6001600160a01b0382166112a85761059e8161148b565b826001600160a01b0316826001600160a01b03161461059e5761059e828261153a565b60006112d8848683611c9a565b5060016112e6828483611c9a565b5050505050565b60006001600160a01b0384163b156113e357604051630a85bd0160e11b81526001600160a01b0385169063150b7a0290611331903390899088908890600401611d5a565b6020604051808303816000875af192505050801561136c575060408051601f3d908101601f1916820190925261136991810190611d97565b60015b6113c9573d80801561139a576040519150601f19603f3d011682016040523d82523d6000602084013e61139f565b606091505b5080516000036113c15760405162461bcd60e51b815260040161046990611bfa565b805181602001fd5b6001600160e01b031916630a85bd0160e11b149050610d1d565b506001949350505050565b600060016113fb846109ec565b6114059190611b71565b600083815260076020526040902054909150808214611458576001600160a01b03841660009081526006602090815260408083208584528252808320548484528184208190558352600790915290208190555b5060009182526007602090815260408084208490556001600160a01b039094168352600681528383209183525290812055565b60085460009061149d90600190611b71565b600083815260096020526040812054600880549394509092849081106114c5576114c56119fa565b9060005260206000200154905080600883815481106114e6576114e66119fa565b600091825260208083209091019290925582815260099091526040808220849055858252812055600880548061151e5761151e611db4565b6001900381819060005260206000200160009055905550505050565b6000611545836109ec565b6001600160a01b039093166000908152600660209081526040808320868452825280832085905593825260079052919091209190915550565b6001600160e01b03198116811461086557600080fd5b6000602082840312156115a657600080fd5b81356115b18161157e565b9392505050565b60005b838110156115d35781810151838201526020016115bb565b50506000910152565b600081518084526115f48160208601602086016115b8565b601f01601f19169290920160200192915050565b6020815260006115b160208301846115dc565b60006020828403121561162d57600080fd5b5035919050565b6001600160a01b038116811461086557600080fd5b6000806040838503121561165c57600080fd5b823561166781611634565b946020939093013593505050565b60008060006060848603121561168a57600080fd5b833561169581611634565b925060208401356116a581611634565b929592945050506040919091013590565b60008083601f8401126116c857600080fd5b50813567ffffffffffffffff8111156116e057600080fd5b6020830191508360208285010111156116f857600080fd5b9250929050565b600080600080600080600060a0888a03121561171a57600080fd5b8735965060208801359550604088013561173381611634565b9450606088013567ffffffffffffffff8082111561175057600080fd5b61175c8b838c016116b6565b909650945060808a013591508082111561177557600080fd5b506117828a828b016116b6565b989b979a50959850939692959293505050565b6000602082840312156117a757600080fd5b81356115b181611634565b801515811461086557600080fd5b600080604083850312156117d357600080fd5b82356117de81611634565b915060208301356117ee816117b2565b809150509250929050565b634e487b7160e01b600052604160045260246000fd5b604051610100810167ffffffffffffffff81118282101715611833576118336117f9565b60405290565b604051601f8201601f1916810167ffffffffffffffff81118282101715611862576118626117f9565b604052919050565b600067ffffffffffffffff821115611884576118846117f9565b50601f01601f191660200190565b600080600080608085870312156118a857600080fd5b84356118b381611634565b935060208501356118c381611634565b925060408501359150606085013567ffffffffffffffff8111156118e657600080fd5b8501601f810187136118f757600080fd5b803561190a6119058261186a565b611839565b81815288602083850101111561191f57600080fd5b8160208401602083013760006020838301015280935050505092959194509250565b6000806040838503121561195457600080fd5b823561195f81611634565b915060208301356117ee81611634565b600181811c9082168061198357607f821691505b6020821081036119a357634e487b7160e01b600052602260045260246000fd5b50919050565b60208082526031908201527f4552433732313a207472616e736665722063616c6c6572206973206e6f74206f6040820152701ddb995c881b9bdc88185c1c1c9bdd9959607a1b606082015260800190565b634e487b7160e01b600052603260045260246000fd5b634e487b7160e01b600052601160045260246000fd5b600060018201611a3857611a38611a10565b5060010190565b600082601f830112611a5057600080fd5b8151611a5e6119058261186a565b818152846020838601011115611a7357600080fd5b610d1d8260208301602087016115b8565b80516109e781611634565b80516109e7816117b2565b600060208284031215611aac57600080fd5b815167ffffffffffffffff80821115611ac457600080fd5b908301906101008286031215611ad957600080fd5b611ae161180f565b8251815260208301516020820152604083015182811115611b0157600080fd5b611b0d87828601611a3f565b604083015250611b1f60608401611a84565b6060820152611b3060808401611a84565b6080820152611b4160a08401611a84565b60a0820152611b5260c08401611a8f565b60c0820152611b6360e08401611a8f565b60e082015295945050505050565b8181038181111561035c5761035c611a10565b8082018082111561035c5761035c611a10565b81835281816020850137506000828201602090810191909152601f909101601f19169091010190565b606081526000611bd4606083018789611b97565b8281036020840152611be7818688611b97565b9150508260408301529695505050505050565b60208082526032908201527f4552433732313a207472616e7366657220746f206e6f6e20455243373231526560408201527131b2b4bb32b91034b6b83632b6b2b73a32b960711b606082015260800190565b601f82111561059e57600081815260208120601f850160051c81016020861015611c735750805b601f850160051c820191505b81811015611c9257828155600101611c7f565b505050505050565b67ffffffffffffffff831115611cb257611cb26117f9565b611cc683611cc0835461196f565b83611c4c565b6000601f841160018114611cfa5760008515611ce25750838201355b600019600387901b1c1916600186901b1783556112e6565b600083815260209020601f19861690835b82811015611d2b5786850135825560209485019460019092019101611d0b565b5086821015611d485760001960f88860031b161c19848701351681555b505060018560011b0183555050505050565b6001600160a01b0385811682528416602082015260408101839052608060608201819052600090611d8d908301846115dc565b9695505050505050565b600060208284031215611da957600080fd5b81516115b18161157e565b634e487b7160e01b600052603160045260246000fdfea264697066735822122013d4bb96f28616b93ce172d611c520334d97dcee6befe0db34f8d1404ec53fca64736f6c63430008100033",
  "linkReferences": {},
  "deployedLinkReferences": {}
}