{
  "_format": "hh-sol-artifact-1",
  "contractName": "NewbieVilla",
  "sourceName": "contracts/misc/NewbieVilla.sol",
  "abi": [
    {
      "anonymous": false,
      "inputs": [
        {
          "indexed": false,
          "internalType": "uint8",
          "name": "version",
          "type": "uint8"
        }
      ],
      "name": "Initialized",
      "type": "event"
    },
    {
      "anonymous": false,
      "inputs": [
        {
          "indexed": true,
          "internalType": "bytes32",
          "name": "role",
          "type": "bytes32"
        },
        {
          "indexed": true,
          "internalType": "bytes32",
          "name": "previousAdminRole",
          "type": "bytes32"
        },
        {
          "indexed": true,
          "internalType": "bytes32",
          "name": "newAdminRole",
          "type": "bytes32"
        }
      ],
      "name": "RoleAdminChanged",
      "type": "event"
    },
    {
      "anonymous": false,
      "inputs": [
        {
          "indexed": true,
          "internalType": "bytes32",
          "name": "role",
          "type": "bytes32"
        },
        {
          "indexed": true,
          "internalType": "address",
          "name": "account",
          "type": "address"
        },
        {
          "indexed": true,
          "internalType": "address",
          "name": "sender",
          "type": "address"
        }
      ],
      "name": "RoleGranted",
      "type": "event"
    },
    {
      "anonymous": false,
      "inputs": [
        {
          "indexed": true,
          "internalType": "bytes32",
          "name": "role",
          "type": "bytes32"
        },
        {
          "indexed": true,
          "internalType": "address",
          "name": "account",
          "type": "address"
        },
        {
          "indexed": true,
          "internalType": "address",
          "name": "sender",
          "type": "address"
        }
      ],
      "name": "RoleRevoked",
      "type": "event"
    },
    {
      "anonymous": false,
      "inputs": [
        {
          "indexed": false,
          "internalType": "address",
          "name": "to",
          "type": "address"
        },
        {
          "indexed": false,
          "internalType": "uint256",
          "name": "characterId",
          "type": "uint256"
        },
        {
          "indexed": false,
          "internalType": "address",
          "name": "token",
          "type": "address"
        },
        {
          "indexed": false,
          "internalType": "uint256",
          "name": "amount",
          "type": "uint256"
        }
      ],
      "name": "Withdraw",
      "type": "event"
    },
    {
      "inputs": [],
      "name": "ADMIN_ROLE",
      "outputs": [
        {
          "internalType": "bytes32",
          "name": "",
          "type": "bytes32"
        }
      ],
      "stateMutability": "view",
      "type": "function"
    },
    {
      "inputs": [],
      "name": "DEFAULT_ADMIN_ROLE",
      "outputs": [
        {
          "internalType": "bytes32",
          "name": "",
          "type": "bytes32"
        }
      ],
      "stateMutability": "view",
      "type": "function"
    },
    {
      "inputs": [],
      "name": "ERC1820_REGISTRY",
      "outputs": [
        {
          "internalType": "contract IERC1820Registry",
          "name": "",
          "type": "address"
        }
      ],
      "stateMutability": "view",
      "type": "function"
    },
    {
      "inputs": [],
      "name": "TOKENS_RECIPIENT_INTERFACE_HASH",
      "outputs": [
        {
          "internalType": "bytes32",
          "name": "",
          "type": "bytes32"
        }
      ],
      "stateMutability": "view",
      "type": "function"
    },
    {
      "inputs": [
        {
          "internalType": "uint256",
          "name": "characterId",
          "type": "uint256"
        }
      ],
      "name": "balanceOf",
      "outputs": [
        {
          "internalType": "uint256",
          "name": "",
          "type": "uint256"
        }
      ],
      "stateMutability": "view",
      "type": "function"
    },
    {
      "inputs": [
        {
          "internalType": "bytes32",
          "name": "role",
          "type": "bytes32"
        }
      ],
      "name": "getRoleAdmin",
      "outputs": [
        {
          "internalType": "bytes32",
          "name": "",
          "type": "bytes32"
        }
      ],
      "stateMutability": "view",
      "type": "function"
    },
    {
      "inputs": [
        {
          "internalType": "bytes32",
          "name": "role",
          "type": "bytes32"
        },
        {
          "internalType": "uint256",
          "name": "index",
          "type": "uint256"
        }
      ],
      "name": "getRoleMember",
      "outputs": [
        {
          "internalType": "address",
          "name": "",
          "type": "address"
        }
      ],
      "stateMutability": "view",
      "type": "function"
    },
    {
      "inputs": [
        {
          "internalType": "bytes32",
          "name": "role",
          "type": "bytes32"
        }
      ],
      "name": "getRoleMemberCount",
      "outputs": [
        {
          "internalType": "uint256",
          "name": "",
          "type": "uint256"
        }
      ],
      "stateMutability": "view",
      "type": "function"
    },
    {
      "inputs": [],
      "name": "getToken",
      "outputs": [
        {
          "internalType": "address",
          "name": "",
          "type": "address"
        }
      ],
      "stateMutability": "view",
      "type": "function"
    },
    {
      "inputs": [
        {
          "internalType": "bytes32",
          "name": "role",
          "type": "bytes32"
        },
        {
          "internalType": "address",
          "name": "account",
          "type": "address"
        }
      ],
      "name": "grantRole",
      "outputs": [],
      "stateMutability": "nonpayable",
      "type": "function"
    },
    {
      "inputs": [
        {
          "internalType": "bytes32",
          "name": "role",
          "type": "bytes32"
        },
        {
          "internalType": "address",
          "name": "account",
          "type": "address"
        }
      ],
      "name": "hasRole",
      "outputs": [
        {
          "internalType": "bool",
          "name": "",
          "type": "bool"
        }
      ],
      "stateMutability": "view",
      "type": "function"
    },
    {
      "inputs": [
        {
          "internalType": "address",
          "name": "web3Entry_",
          "type": "address"
        },
        {
          "internalType": "address",
          "name": "xsyncOperator_",
          "type": "address"
        },
        {
          "internalType": "address",
          "name": "token_",
          "type": "address"
        },
        {
          "internalType": "address",
          "name": "admin_",
          "type": "address"
        }
      ],
      "name": "initialize",
      "outputs": [],
      "stateMutability": "nonpayable",
      "type": "function"
    },
    {
      "inputs": [
        {
          "internalType": "address",
          "name": "operator",
          "type": "address"
        },
        {
          "internalType": "address",
          "name": "",
          "type": "address"
        },
        {
          "internalType": "uint256",
          "name": "tokenId",
          "type": "uint256"
        },
        {
          "internalType": "bytes",
          "name": "data",
          "type": "bytes"
        }
      ],
      "name": "onERC721Received",
      "outputs": [
        {
          "internalType": "bytes4",
          "name": "",
          "type": "bytes4"
        }
      ],
      "stateMutability": "nonpayable",
      "type": "function"
    },
    {
      "inputs": [
        {
          "internalType": "bytes32",
          "name": "role",
          "type": "bytes32"
        },
        {
          "internalType": "address",
          "name": "account",
          "type": "address"
        }
      ],
      "name": "renounceRole",
      "outputs": [],
      "stateMutability": "nonpayable",
      "type": "function"
    },
    {
      "inputs": [
        {
          "internalType": "bytes32",
          "name": "role",
          "type": "bytes32"
        },
        {
          "internalType": "address",
          "name": "account",
          "type": "address"
        }
      ],
      "name": "revokeRole",
      "outputs": [],
      "stateMutability": "nonpayable",
      "type": "function"
    },
    {
      "inputs": [
        {
          "internalType": "bytes4",
          "name": "interfaceId",
          "type": "bytes4"
        }
      ],
      "name": "supportsInterface",
      "outputs": [
        {
          "internalType": "bool",
          "name": "",
          "type": "bool"
        }
      ],
      "stateMutability": "view",
      "type": "function"
    },
    {
      "inputs": [
        {
          "internalType": "address",
          "name": "",
          "type": "address"
        },
        {
          "internalType": "address",
          "name": "",
          "type": "address"
        },
        {
          "internalType": "address",
          "name": "to",
          "type": "address"
        },
        {
          "internalType": "uint256",
          "name": "amount",
          "type": "uint256"
        },
        {
          "internalType": "bytes",
          "name": "userData",
          "type": "bytes"
        },
        {
          "internalType": "bytes",
          "name": "operatorData",
          "type": "bytes"
        }
      ],
      "name": "tokensReceived",
      "outputs": [],
      "stateMutability": "nonpayable",
      "type": "function"
    },
    {
      "inputs": [],
      "name": "web3Entry",
      "outputs": [
        {
          "internalType": "address",
          "name": "",
          "type": "address"
        }
      ],
      "stateMutability": "view",
      "type": "function"
    },
    {
      "inputs": [
        {
          "internalType": "address",
          "name": "to",
          "type": "address"
        },
        {
          "internalType": "uint256",
          "name": "characterId",
          "type": "uint256"
        },
        {
          "internalType": "uint256",
          "name": "nonce",
          "type": "uint256"
        },
        {
          "internalType": "uint256",
          "name": "expires",
          "type": "uint256"
        },
        {
          "internalType": "bytes",
          "name": "proof",
          "type": "bytes"
        }
      ],
      "name": "withdraw",
      "outputs": [],
      "stateMutability": "nonpayable",
      "type": "function"
    },
    {
      "inputs": [],
      "name": "xsyncOperator",
      "outputs": [
        {
          "internalType": "address",
          "name": "",
          "type": "address"
        }
      ],
      "stateMutability": "view",
      "type": "function"
    }
  ],
  "bytecode": "0x608060405234801561001057600080fd5b506118a3806100206000396000f3fe608060405234801561001057600080fd5b506004361061012b5760003560e01c806375b238fc116100ad578063ca15c87311610071578063ca15c873146102e4578063d547741f146102f7578063ddf1858a1461030a578063e13322721461031d578063f8c8765e1461033057600080fd5b806375b238fc1461026f5780639010d07c1461029657806391d14854146102a95780639cc7f708146102bc578063a217fddf146102dc57600080fd5b8063248a9ca3116100f4578063248a9ca3146101dd5780632f2ff15d1461020f57806332eba3b21461022257806336568abe1461023557806372581cc01461024857600080fd5b806223de2914610130578063013eb1771461014557806301ffc9a71461017d578063150b7a02146101a057806321df0da7146101cc575b600080fd5b61014361013e3660046113b6565b610343565b005b610160731820a4b7618bde71dce8cdc73aab6c95905fad2481565b6040516001600160a01b0390911681526020015b60405180910390f35b61019061018b366004611467565b6104e2565b6040519015158152602001610174565b6101b36101ae366004611491565b61050d565b6040516001600160e01b03199091168152602001610174565b6005546001600160a01b0316610160565b6102016101eb366004611504565b6000908152600160208190526040909120015490565b604051908152602001610174565b61014361021d36600461151d565b61078d565b600454610160906001600160a01b031681565b61014361024336600461151d565b6107b8565b6102017fb281fc8c12954d22544db45de3159a39272895b169a852b314f9cc762e44c53b81565b6102017fa49807205ce4d355092ef5a8a18f56e8913cf4a201fbe287825b095693c2177581565b6101606102a436600461154d565b610836565b6101906102b736600461151d565b610855565b6102016102ca366004611504565b60009081526006602052604090205490565b610201600081565b6102016102f2366004611504565b610880565b61014361030536600461151d565b610897565b610143610318366004611585565b6108bd565b600354610160906001600160a01b031681565b61014361033e366004611666565b610b8d565b6005546001600160a01b031633146103a25760405162461bcd60e51b815260206004820152601a60248201527f4e657762696556696c6c613a20696e76616c696420746f6b656e00000000000060448201526064015b60405180910390fd5b306001600160a01b038716146103fa5760405162461bcd60e51b815260206004820152601d60248201527f4e657762696556696c6c613a20696e76616c69642072656365697665720000006044820152606401610399565b60008361040857828261040b565b84845b8080601f016020809104026020016040519081016040528093929190818152602001838380828437600092019190915250508251929350505060400361048f5760008180602001905181019061046191906116c2565b600081815260066020526040812080549294508a9350916104839084906116fc565b909155506104d7915050565b60405162461bcd60e51b815260206004820152601e60248201527f4e657762696556696c6c613a20756e6b6e6f776e20726563656976696e6700006044820152606401610399565b505050505050505050565b60006001600160e01b03198216635a05180f60e01b1480610507575061050782610d46565b92915050565b6003546000906001600160a01b031633146105755760405162461bcd60e51b815260206004820152602260248201527f4e657762696556696c6c613a207265636569766520756e6b6e6f776e20746f6b60448201526132b760f11b6064820152608401610399565b61059f7fa49807205ce4d355092ef5a8a18f56e8913cf4a201fbe287825b095693c2177587610855565b6105fa5760405162461bcd60e51b815260206004820152602660248201527f4e657762696556696c6c613a207265636569766520756e6b6e6f776e206368616044820152653930b1ba32b960d11b6064820152608401610399565b600082900361067f576003546040516310332bf960e11b8152600481018690526001600160a01b03888116602483015267100000000fffffff60b01b60448301529091169063206657f290606401600060405180830381600087803b15801561066257600080fd5b505af1158015610676573d6000803e3d6000fd5b50505050610708565b600061068d8385018561170f565b6003546040516310332bf960e11b8152600481018890526001600160a01b03808416602483015267100000000fffffff60b01b604483015292935091169063206657f290606401600060405180830381600087803b1580156106ee57600080fd5b505af1158015610702573d6000803e3d6000fd5b50505050505b600354600480546040516310332bf960e11b81529182018790526001600160a01b039081166024830152600160ec1b60448301529091169063206657f290606401600060405180830381600087803b15801561076357600080fd5b505af1158015610777573d6000803e3d6000fd5b50630a85bd0160e11b9998505050505050505050565b600082815260016020819052604090912001546107a981610d7b565b6107b38383610d88565b505050565b6001600160a01b03811633146108285760405162461bcd60e51b815260206004820152602f60248201527f416363657373436f6e74726f6c3a2063616e206f6e6c792072656e6f756e636560448201526e103937b632b9903337b91039b2b63360891b6064820152608401610399565b6108328282610daa565b5050565b600082815260026020526040812061084e9083610dcc565b9392505050565b60009182526001602090815260408084206001600160a01b0393909316845291905290205460ff1690565b600081815260026020526040812061050790610dd8565b600082815260016020819052604090912001546108b381610d7b565b6107b38383610daa565b814281101561090e5760405162461bcd60e51b815260206004820181905260248201527f4e657762696556696c6c613a20726563656970742068617320657870697265646044820152606401610399565b6040516bffffffffffffffffffffffff193060601b1660208201526034810186905260548101859052607481018490526000906109b190609401604051602081830303815290604052805190602001206040517f19457468657265756d205369676e6564204d6573736167653a0a3332000000006020820152603c8101829052600090605c01604051602081830303815290604052805190602001209050919050565b90506109e17fa49807205ce4d355092ef5a8a18f56e8913cf4a201fbe287825b095693c217756102b78386610de2565b610a385760405162461bcd60e51b815260206004820152602260248201527f4e657762696556696c6c613a20756e617574686f72697a656420776974686472604482015261617760f01b6064820152608401610399565b600354604051632142170760e11b81523060048201526001600160a01b03898116602483015260448201899052909116906342842e0e90606401600060405180830381600087803b158015610a8c57600080fd5b505af1158015610aa0573d6000803e3d6000fd5b5050506000878152600660205260408082208054908390556005549151634decdde360e11b81526001600160a01b038c8116600483015260248201839052606060448301526064820194909452909350911690639bd9bbc690608401600060405180830381600087803b158015610b1657600080fd5b505af1158015610b2a573d6000803e3d6000fd5b5050600554604080516001600160a01b038d81168252602082018d90529092168282015260608201859052517f457f950b75085c30ff780acd57bde642ff1316cc4aad9f286af2c1ffc4163a789350908190036080019150a15050505050505050565b600054600290610100900460ff16158015610baf575060005460ff8083169116105b610c125760405162461bcd60e51b815260206004820152602e60248201527f496e697469616c697a61626c653a20636f6e747261637420697320616c72656160448201526d191e481a5b9a5d1a585b1a5e995960921b6064820152608401610399565b6000805461ffff191660ff831617610100178155600380546001600160a01b038089166001600160a01b031992831617909255600480548884169083161790556005805492871692909116919091179055610c6d9083610e61565b6040516329965a1d60e01b815230600482018190527fb281fc8c12954d22544db45de3159a39272895b169a852b314f9cc762e44c53b60248301526044820152731820a4b7618bde71dce8cdc73aab6c95905fad24906329965a1d90606401600060405180830381600087803b158015610ce657600080fd5b505af1158015610cfa573d6000803e3d6000fd5b50506000805461ff0019169055505060405160ff821681527f7f26b83ff96e1f2b6a682f133852f6798a09c465da95921460cefb38474024989060200160405180910390a15050505050565b60006001600160e01b03198216637965db0b60e01b148061050757506301ffc9a760e01b6001600160e01b0319831614610507565b610d858133610e6b565b50565b610d928282610ec4565b60008281526002602052604090206107b39082610f2f565b610db48282610f44565b60008281526002602052604090206107b39082610fab565b600061084e8383610fc0565b6000610507825490565b600080600080610df185610fea565b6040805160008152602081018083528b905260ff8516918101919091526060810183905260808101829052929550909350915060019060a0016020604051602081039080840390855afa158015610e4c573d6000803e3d6000fd5b5050604051601f190151979650505050505050565b6108328282610d88565b610e758282610855565b61083257610e8281611068565b610e8d83602061107a565b604051602001610e9e929190611750565b60408051601f198184030181529082905262461bcd60e51b8252610399916004016117c5565b610ece8282610855565b6108325760008281526001602081815260408084206001600160a01b0386168086529252808420805460ff19169093179092559051339285917f2f8788117e7eff1d82e926ec794901d17c78024a50270940304540a733656f0d9190a45050565b600061084e836001600160a01b038416611216565b610f4e8282610855565b156108325760008281526001602090815260408083206001600160a01b0385168085529252808320805460ff1916905551339285917ff6391f5c32d9c69d2a47ea670b442974b53935d1edc7fd64eb21e047a839171b9190a45050565b600061084e836001600160a01b038416611265565b6000826000018281548110610fd757610fd76117f8565b9060005260206000200154905092915050565b6000806000835160411461104c5760405162461bcd60e51b815260206004820152602360248201527f4e657762696556696c6c613a2077726f6e67207369676e6174757265206c656e6044820152620cee8d60eb1b6064820152608401610399565b5050506020810151604082015160609092015160001a92909190565b60606105076001600160a01b03831660145b6060600061108983600261180e565b6110949060026116fc565b67ffffffffffffffff8111156110ac576110ac61156f565b6040519080825280601f01601f1916602001820160405280156110d6576020820181803683370190505b509050600360fc1b816000815181106110f1576110f16117f8565b60200101906001600160f81b031916908160001a905350600f60fb1b81600181518110611120576111206117f8565b60200101906001600160f81b031916908160001a905350600061114484600261180e565b61114f9060016116fc565b90505b60018111156111c7576f181899199a1a9b1b9c1cb0b131b232b360811b85600f1660108110611183576111836117f8565b1a60f81b828281518110611199576111996117f8565b60200101906001600160f81b031916908160001a90535060049490941c936111c08161182d565b9050611152565b50831561084e5760405162461bcd60e51b815260206004820181905260248201527f537472696e67733a20686578206c656e67746820696e73756666696369656e746044820152606401610399565b600081815260018301602052604081205461125d57508154600181810184556000848152602080822090930184905584548482528286019093526040902091909155610507565b506000610507565b6000818152600183016020526040812054801561134e576000611289600183611844565b855490915060009061129d90600190611844565b90508181146113025760008660000182815481106112bd576112bd6117f8565b90600052602060002001549050808760000184815481106112e0576112e06117f8565b6000918252602080832090910192909255918252600188019052604090208390555b855486908061131357611313611857565b600190038181906000526020600020016000905590558560010160008681526020019081526020016000206000905560019350505050610507565b6000915050610507565b6001600160a01b0381168114610d8557600080fd5b60008083601f84011261137f57600080fd5b50813567ffffffffffffffff81111561139757600080fd5b6020830191508360208285010111156113af57600080fd5b9250929050565b60008060008060008060008060c0898b0312156113d257600080fd5b88356113dd81611358565b975060208901356113ed81611358565b965060408901356113fd81611358565b955060608901359450608089013567ffffffffffffffff8082111561142157600080fd5b61142d8c838d0161136d565b909650945060a08b013591508082111561144657600080fd5b506114538b828c0161136d565b999c989b5096995094979396929594505050565b60006020828403121561147957600080fd5b81356001600160e01b03198116811461084e57600080fd5b6000806000806000608086880312156114a957600080fd5b85356114b481611358565b945060208601356114c481611358565b935060408601359250606086013567ffffffffffffffff8111156114e757600080fd5b6114f38882890161136d565b969995985093965092949392505050565b60006020828403121561151657600080fd5b5035919050565b6000806040838503121561153057600080fd5b82359150602083013561154281611358565b809150509250929050565b6000806040838503121561156057600080fd5b50508035926020909101359150565b634e487b7160e01b600052604160045260246000fd5b600080600080600060a0868803121561159d57600080fd5b85356115a881611358565b9450602086013593506040860135925060608601359150608086013567ffffffffffffffff808211156115da57600080fd5b818801915088601f8301126115ee57600080fd5b8135818111156116005761160061156f565b604051601f8201601f19908116603f011681019083821181831017156116285761162861156f565b816040528281528b602084870101111561164157600080fd5b8260208601602083013760006020848301015280955050505050509295509295909350565b6000806000806080858703121561167c57600080fd5b843561168781611358565b9350602085013561169781611358565b925060408501356116a781611358565b915060608501356116b781611358565b939692955090935050565b600080604083850312156116d557600080fd5b505080516020909101519092909150565b634e487b7160e01b600052601160045260246000fd5b80820180821115610507576105076116e6565b60006020828403121561172157600080fd5b813561084e81611358565b60005b8381101561174757818101518382015260200161172f565b50506000910152565b7f416363657373436f6e74726f6c3a206163636f756e742000000000000000000081526000835161178881601785016020880161172c565b7001034b99036b4b9b9b4b733903937b6329607d1b60179184019182015283516117b981602884016020880161172c565b01602801949350505050565b60208152600082518060208401526117e481604085016020870161172c565b601f01601f19169190910160400192915050565b634e487b7160e01b600052603260045260246000fd5b6000816000190483118215151615611828576118286116e6565b500290565b60008161183c5761183c6116e6565b506000190190565b81810381811115610507576105076116e6565b634e487b7160e01b600052603160045260246000fdfea2646970667358221220bb88b036061070640392766965f7821a9866d2503919952bbc328cb04e8734aa64736f6c63430008100033",
  "linkReferences": {},
  "deployedLinkReferences": {}
}