{
  "_format": "hh-sol-artifact-1",
  "contractName": "NewbieVilla",
  "sourceName": "contracts/misc/NewbieVilla.sol",
  "abi": [
    {
      "anonymous": false,
      "inputs": [
        {
          "indexed": false,
          "internalType": "uint8",
          "name": "version",
          "type": "uint8"
        }
      ],
      "name": "Initialized",
      "type": "event"
    },
    {
      "anonymous": false,
      "inputs": [
        {
          "indexed": true,
          "internalType": "bytes32",
          "name": "role",
          "type": "bytes32"
        },
        {
          "indexed": true,
          "internalType": "bytes32",
          "name": "previousAdminRole",
          "type": "bytes32"
        },
        {
          "indexed": true,
          "internalType": "bytes32",
          "name": "newAdminRole",
          "type": "bytes32"
        }
      ],
      "name": "RoleAdminChanged",
      "type": "event"
    },
    {
      "anonymous": false,
      "inputs": [
        {
          "indexed": true,
          "internalType": "bytes32",
          "name": "role",
          "type": "bytes32"
        },
        {
          "indexed": true,
          "internalType": "address",
          "name": "account",
          "type": "address"
        },
        {
          "indexed": true,
          "internalType": "address",
          "name": "sender",
          "type": "address"
        }
      ],
      "name": "RoleGranted",
      "type": "event"
    },
    {
      "anonymous": false,
      "inputs": [
        {
          "indexed": true,
          "internalType": "bytes32",
          "name": "role",
          "type": "bytes32"
        },
        {
          "indexed": true,
          "internalType": "address",
          "name": "account",
          "type": "address"
        },
        {
          "indexed": true,
          "internalType": "address",
          "name": "sender",
          "type": "address"
        }
      ],
      "name": "RoleRevoked",
      "type": "event"
    },
    {
      "inputs": [],
      "name": "ADMIN_ROLE",
      "outputs": [
        {
          "internalType": "bytes32",
          "name": "",
          "type": "bytes32"
        }
      ],
      "stateMutability": "view",
      "type": "function"
    },
    {
      "inputs": [],
      "name": "DEFAULT_ADMIN_ROLE",
      "outputs": [
        {
          "internalType": "bytes32",
          "name": "",
          "type": "bytes32"
        }
      ],
      "stateMutability": "view",
      "type": "function"
    },
    {
      "inputs": [
        {
          "internalType": "bytes32",
          "name": "role",
          "type": "bytes32"
        }
      ],
      "name": "getRoleAdmin",
      "outputs": [
        {
          "internalType": "bytes32",
          "name": "",
          "type": "bytes32"
        }
      ],
      "stateMutability": "view",
      "type": "function"
    },
    {
      "inputs": [
        {
          "internalType": "bytes32",
          "name": "role",
          "type": "bytes32"
        },
        {
          "internalType": "uint256",
          "name": "index",
          "type": "uint256"
        }
      ],
      "name": "getRoleMember",
      "outputs": [
        {
          "internalType": "address",
          "name": "",
          "type": "address"
        }
      ],
      "stateMutability": "view",
      "type": "function"
    },
    {
      "inputs": [
        {
          "internalType": "bytes32",
          "name": "role",
          "type": "bytes32"
        }
      ],
      "name": "getRoleMemberCount",
      "outputs": [
        {
          "internalType": "uint256",
          "name": "",
          "type": "uint256"
        }
      ],
      "stateMutability": "view",
      "type": "function"
    },
    {
      "inputs": [
        {
          "internalType": "bytes32",
          "name": "role",
          "type": "bytes32"
        },
        {
          "internalType": "address",
          "name": "account",
          "type": "address"
        }
      ],
      "name": "grantRole",
      "outputs": [],
      "stateMutability": "nonpayable",
      "type": "function"
    },
    {
      "inputs": [
        {
          "internalType": "bytes32",
          "name": "role",
          "type": "bytes32"
        },
        {
          "internalType": "address",
          "name": "account",
          "type": "address"
        }
      ],
      "name": "hasRole",
      "outputs": [
        {
          "internalType": "bool",
          "name": "",
          "type": "bool"
        }
      ],
      "stateMutability": "view",
      "type": "function"
    },
    {
      "inputs": [
        {
          "internalType": "address",
          "name": "_web3Entry",
          "type": "address"
        },
        {
          "internalType": "address",
          "name": "_xsyncOperator",
          "type": "address"
        }
      ],
      "name": "initialize",
      "outputs": [],
      "stateMutability": "nonpayable",
      "type": "function"
    },
    {
      "inputs": [
        {
          "internalType": "address",
          "name": "operator",
          "type": "address"
        },
        {
          "internalType": "address",
          "name": "",
          "type": "address"
        },
        {
          "internalType": "uint256",
          "name": "tokenId",
          "type": "uint256"
        },
        {
          "internalType": "bytes",
          "name": "data",
          "type": "bytes"
        }
      ],
      "name": "onERC721Received",
      "outputs": [
        {
          "internalType": "bytes4",
          "name": "",
          "type": "bytes4"
        }
      ],
      "stateMutability": "nonpayable",
      "type": "function"
    },
    {
      "inputs": [
        {
          "internalType": "bytes32",
          "name": "role",
          "type": "bytes32"
        },
        {
          "internalType": "address",
          "name": "account",
          "type": "address"
        }
      ],
      "name": "renounceRole",
      "outputs": [],
      "stateMutability": "nonpayable",
      "type": "function"
    },
    {
      "inputs": [
        {
          "internalType": "bytes32",
          "name": "role",
          "type": "bytes32"
        },
        {
          "internalType": "address",
          "name": "account",
          "type": "address"
        }
      ],
      "name": "revokeRole",
      "outputs": [],
      "stateMutability": "nonpayable",
      "type": "function"
    },
    {
      "inputs": [
        {
          "internalType": "bytes4",
          "name": "interfaceId",
          "type": "bytes4"
        }
      ],
      "name": "supportsInterface",
      "outputs": [
        {
          "internalType": "bool",
          "name": "",
          "type": "bool"
        }
      ],
      "stateMutability": "view",
      "type": "function"
    },
    {
      "inputs": [],
      "name": "web3Entry",
      "outputs": [
        {
          "internalType": "address",
          "name": "",
          "type": "address"
        }
      ],
      "stateMutability": "view",
      "type": "function"
    },
    {
      "inputs": [
        {
          "internalType": "address",
          "name": "to",
          "type": "address"
        },
        {
          "internalType": "uint256",
          "name": "characterId",
          "type": "uint256"
        },
        {
          "internalType": "uint256",
          "name": "nonce",
          "type": "uint256"
        },
        {
          "internalType": "uint256",
          "name": "expires",
          "type": "uint256"
        },
        {
          "internalType": "bytes",
          "name": "proof",
          "type": "bytes"
        }
      ],
      "name": "withdraw",
      "outputs": [],
      "stateMutability": "nonpayable",
      "type": "function"
    },
    {
      "inputs": [],
      "name": "xsyncOperator",
      "outputs": [
        {
          "internalType": "address",
          "name": "",
          "type": "address"
        }
      ],
      "stateMutability": "view",
      "type": "function"
    }
  ],
  "bytecode": "0x608060405234801561001057600080fd5b506113bf806100206000396000f3fe608060405234801561001057600080fd5b50600436106100f55760003560e01c806375b238fc11610097578063ca15c87311610066578063ca15c87314610229578063d547741f1461023c578063ddf1858a1461024f578063e13322721461026257600080fd5b806375b238fc146101e65780639010d07c146101fb57806391d148541461020e578063a217fddf1461022157600080fd5b80632f2ff15d116100d35780632f2ff15d1461018057806332eba3b21461019557806336568abe146101c0578063485cc955146101d357600080fd5b806301ffc9a7146100fa578063150b7a0214610122578063248a9ca31461014e575b600080fd5b61010d610108366004610f5f565b610275565b60405190151581526020015b60405180910390f35b610135610130366004610f9e565b6102a0565b6040516001600160e01b03199091168152602001610119565b61017261015c36600461103d565b6000908152600160208190526040909120015490565b604051908152602001610119565b61019361018e366004611056565b6104e3565b005b6004546101a8906001600160a01b031681565b6040516001600160a01b039091168152602001610119565b6101936101ce366004611056565b61050e565b6101936101e1366004611086565b61058c565b61017260008051602061136a83398151915281565b6101a86102093660046110b4565b6106ef565b61010d61021c366004611056565b61070e565b610172600081565b61017261023736600461103d565b610739565b61019361024a366004611056565b610750565b61019361025d3660046110ec565b610776565b6003546101a8906001600160a01b031681565b60006001600160e01b03198216635a05180f60e01b148061029a575061029a82610954565b92915050565b6003546000906001600160a01b0316331461030d5760405162461bcd60e51b815260206004820152602260248201527f4e657762696556696c6c613a207265636569766520756e6b6e6f776e20746f6b60448201526132b760f11b60648201526084015b60405180910390fd5b61032560008051602061136a8339815191528761070e565b6103805760405162461bcd60e51b815260206004820152602660248201527f4e657762696556696c6c613a207265636569766520756e6b6e6f776e206368616044820152653930b1ba32b960d11b6064820152608401610304565b816103f057600354604051637d46a71360e01b8152600481018690526001600160a01b03888116602483015290911690637d46a71390604401600060405180830381600087803b1580156103d357600080fd5b505af11580156103e7573d6000803e3d6000fd5b50505050610468565b60006103fe838501856111cd565b600354604051637d46a71360e01b8152600481018890526001600160a01b038084166024830152929350911690637d46a71390604401600060405180830381600087803b15801561044e57600080fd5b505af1158015610462573d6000803e3d6000fd5b50505050505b60035460048054604051637d46a71360e01b81529182018790526001600160a01b03908116602483015290911690637d46a71390604401600060405180830381600087803b1580156104b957600080fd5b505af11580156104cd573d6000803e3d6000fd5b50630a85bd0160e11b9998505050505050505050565b600082815260016020819052604090912001546104ff81610989565b6105098383610996565b505050565b6001600160a01b038116331461057e5760405162461bcd60e51b815260206004820152602f60248201527f416363657373436f6e74726f6c3a2063616e206f6e6c792072656e6f756e636560448201526e103937b632b9903337b91039b2b63360891b6064820152608401610304565b61058882826109b8565b5050565b600054610100900460ff16158080156105ac5750600054600160ff909116105b806105c65750303b1580156105c6575060005460ff166001145b6106295760405162461bcd60e51b815260206004820152602e60248201527f496e697469616c697a61626c653a20636f6e747261637420697320616c72656160448201526d191e481a5b9a5d1a585b1a5e995960921b6064820152608401610304565b6000805460ff19166001179055801561064c576000805461ff0019166101001790555b600380546001600160a01b038086166001600160a01b031992831617909255600480549285169290911691909117905561068d60006106883390565b6109da565b6106a560008051602061136a833981519152336109da565b8015610509576000805461ff0019169055604051600181527f7f26b83ff96e1f2b6a682f133852f6798a09c465da95921460cefb38474024989060200160405180910390a1505050565b600082815260026020526040812061070790836109e4565b9392505050565b60009182526001602090815260408084206001600160a01b0393909316845291905290205460ff1690565b600081815260026020526040812061029a906109f0565b6000828152600160208190526040909120015461076c81610989565b61050983836109b8565b81428110156107c75760405162461bcd60e51b815260206004820181905260248201527f4e657762696556696c6c613a20726563656970742068617320657870697265646044820152606401610304565b6040516bffffffffffffffffffffffff193060601b16602082015260348101869052605481018590526074810184905260009061086a90609401604051602081830303815290604052805190602001206040517f19457468657265756d205369676e6564204d6573736167653a0a3332000000006020820152603c8101829052600090605c01604051602081830303815290604052805190602001209050919050565b905061088860008051602061136a83398151915261021c83866109fa565b6108df5760405162461bcd60e51b815260206004820152602260248201527f4e657762696556696c6c613a20556e617574686f72697a656420776974686472604482015261617760f01b6064820152608401610304565b600354604051632142170760e11b81523060048201526001600160a01b03898116602483015260448201899052909116906342842e0e90606401600060405180830381600087803b15801561093357600080fd5b505af1158015610947573d6000803e3d6000fd5b5050505050505050505050565b60006001600160e01b03198216637965db0b60e01b148061029a57506301ffc9a760e01b6001600160e01b031983161461029a565b6109938133610a79565b50565b6109a08282610add565b60008281526002602052604090206105099082610b48565b6109c28282610b5d565b60008281526002602052604090206105099082610bc4565b6105888282610996565b60006107078383610bd9565b600061029a825490565b600080600080610a0985610c03565b6040805160008152602081018083528b905260ff8516918101919091526060810183905260808101829052929550909350915060019060a0016020604051602081039080840390855afa158015610a64573d6000803e3d6000fd5b5050604051601f190151979650505050505050565b610a83828261070e565b61058857610a9b816001600160a01b03166014610c81565b610aa6836020610c81565b604051602001610ab792919061121a565b60408051601f198184030181529082905262461bcd60e51b82526103049160040161128f565b610ae7828261070e565b6105885760008281526001602081815260408084206001600160a01b0386168086529252808420805460ff19169093179092559051339285917f2f8788117e7eff1d82e926ec794901d17c78024a50270940304540a733656f0d9190a45050565b6000610707836001600160a01b038416610e1d565b610b67828261070e565b156105885760008281526001602090815260408083206001600160a01b0385168085529252808320805460ff1916905551339285917ff6391f5c32d9c69d2a47ea670b442974b53935d1edc7fd64eb21e047a839171b9190a45050565b6000610707836001600160a01b038416610e6c565b6000826000018281548110610bf057610bf06112c2565b9060005260206000200154905092915050565b60008060008351604114610c655760405162461bcd60e51b815260206004820152602360248201527f4e657762696556696c6c613a2057726f6e67207369676e6174757265206c656e6044820152620cee8d60eb1b6064820152608401610304565b5050506020810151604082015160609092015160001a92909190565b60606000610c908360026112ee565b610c9b90600261130d565b67ffffffffffffffff811115610cb357610cb36110d6565b6040519080825280601f01601f191660200182016040528015610cdd576020820181803683370190505b509050600360fc1b81600081518110610cf857610cf86112c2565b60200101906001600160f81b031916908160001a905350600f60fb1b81600181518110610d2757610d276112c2565b60200101906001600160f81b031916908160001a9053506000610d4b8460026112ee565b610d5690600161130d565b90505b6001811115610dce576f181899199a1a9b1b9c1cb0b131b232b360811b85600f1660108110610d8a57610d8a6112c2565b1a60f81b828281518110610da057610da06112c2565b60200101906001600160f81b031916908160001a90535060049490941c93610dc781611325565b9050610d59565b5083156107075760405162461bcd60e51b815260206004820181905260248201527f537472696e67733a20686578206c656e67746820696e73756666696369656e746044820152606401610304565b6000818152600183016020526040812054610e645750815460018181018455600084815260208082209093018490558454848252828601909352604090209190915561029a565b50600061029a565b60008181526001830160205260408120548015610f55576000610e9060018361133c565b8554909150600090610ea49060019061133c565b9050818114610f09576000866000018281548110610ec457610ec46112c2565b9060005260206000200154905080876000018481548110610ee757610ee76112c2565b6000918252602080832090910192909255918252600188019052604090208390555b8554869080610f1a57610f1a611353565b60019003818190600052602060002001600090559055856001016000868152602001908152602001600020600090556001935050505061029a565b600091505061029a565b600060208284031215610f7157600080fd5b81356001600160e01b03198116811461070757600080fd5b6001600160a01b038116811461099357600080fd5b600080600080600060808688031215610fb657600080fd5b8535610fc181610f89565b94506020860135610fd181610f89565b935060408601359250606086013567ffffffffffffffff80821115610ff557600080fd5b818801915088601f83011261100957600080fd5b81358181111561101857600080fd5b89602082850101111561102a57600080fd5b9699959850939650602001949392505050565b60006020828403121561104f57600080fd5b5035919050565b6000806040838503121561106957600080fd5b82359150602083013561107b81610f89565b809150509250929050565b6000806040838503121561109957600080fd5b82356110a481610f89565b9150602083013561107b81610f89565b600080604083850312156110c757600080fd5b50508035926020909101359150565b634e487b7160e01b600052604160045260246000fd5b600080600080600060a0868803121561110457600080fd5b853561110f81610f89565b9450602086013593506040860135925060608601359150608086013567ffffffffffffffff8082111561114157600080fd5b818801915088601f83011261115557600080fd5b813581811115611167576111676110d6565b604051601f8201601f19908116603f0116810190838211818310171561118f5761118f6110d6565b816040528281528b60208487010111156111a857600080fd5b8260208601602083013760006020848301015280955050505050509295509295909350565b6000602082840312156111df57600080fd5b813561070781610f89565b60005b838110156112055781810151838201526020016111ed565b83811115611214576000848401525b50505050565b7f416363657373436f6e74726f6c3a206163636f756e74200000000000000000008152600083516112528160178501602088016111ea565b7001034b99036b4b9b9b4b733903937b6329607d1b60179184019182015283516112838160288401602088016111ea565b01602801949350505050565b60208152600082518060208401526112ae8160408501602087016111ea565b601f01601f19169190910160400192915050565b634e487b7160e01b600052603260045260246000fd5b634e487b7160e01b600052601160045260246000fd5b6000816000190483118215151615611308576113086112d8565b500290565b60008219821115611320576113206112d8565b500190565b600081611334576113346112d8565b506000190190565b60008282101561134e5761134e6112d8565b500390565b634e487b7160e01b600052603160045260246000fdfea49807205ce4d355092ef5a8a18f56e8913cf4a201fbe287825b095693c21775a26469706673582212204d2b9a4c454b53b8a8757e3ce3cd3955f5cf3cbb5cb9f28f013264ec1235072c64736f6c634300080a0033",
  "linkReferences": {},
  "deployedLinkReferences": {}
}