{
  "_format": "hh-sol-artifact-1",
  "contractName": "NewbieVilla",
  "sourceName": "contracts/misc/NewbieVilla.sol",
  "abi": [
    {
      "anonymous": false,
      "inputs": [
        {
          "indexed": false,
          "internalType": "uint8",
          "name": "version",
          "type": "uint8"
        }
      ],
      "name": "Initialized",
      "type": "event"
    },
    {
      "anonymous": false,
      "inputs": [
        {
          "indexed": true,
          "internalType": "bytes32",
          "name": "role",
          "type": "bytes32"
        },
        {
          "indexed": true,
          "internalType": "bytes32",
          "name": "previousAdminRole",
          "type": "bytes32"
        },
        {
          "indexed": true,
          "internalType": "bytes32",
          "name": "newAdminRole",
          "type": "bytes32"
        }
      ],
      "name": "RoleAdminChanged",
      "type": "event"
    },
    {
      "anonymous": false,
      "inputs": [
        {
          "indexed": true,
          "internalType": "bytes32",
          "name": "role",
          "type": "bytes32"
        },
        {
          "indexed": true,
          "internalType": "address",
          "name": "account",
          "type": "address"
        },
        {
          "indexed": true,
          "internalType": "address",
          "name": "sender",
          "type": "address"
        }
      ],
      "name": "RoleGranted",
      "type": "event"
    },
    {
      "anonymous": false,
      "inputs": [
        {
          "indexed": true,
          "internalType": "bytes32",
          "name": "role",
          "type": "bytes32"
        },
        {
          "indexed": true,
          "internalType": "address",
          "name": "account",
          "type": "address"
        },
        {
          "indexed": true,
          "internalType": "address",
          "name": "sender",
          "type": "address"
        }
      ],
      "name": "RoleRevoked",
      "type": "event"
    },
    {
      "anonymous": false,
      "inputs": [
        {
          "indexed": false,
          "internalType": "address",
          "name": "to",
          "type": "address"
        },
        {
          "indexed": false,
          "internalType": "uint256",
          "name": "characterId",
          "type": "uint256"
        },
        {
          "indexed": false,
          "internalType": "address",
          "name": "token",
          "type": "address"
        },
        {
          "indexed": false,
          "internalType": "uint256",
          "name": "amount",
          "type": "uint256"
        }
      ],
      "name": "Withdraw",
      "type": "event"
    },
    {
      "inputs": [],
      "name": "ADMIN_ROLE",
      "outputs": [
        {
          "internalType": "bytes32",
          "name": "",
          "type": "bytes32"
        }
      ],
      "stateMutability": "view",
      "type": "function"
    },
    {
      "inputs": [],
      "name": "DEFAULT_ADMIN_ROLE",
      "outputs": [
        {
          "internalType": "bytes32",
          "name": "",
          "type": "bytes32"
        }
      ],
      "stateMutability": "view",
      "type": "function"
    },
    {
      "inputs": [],
      "name": "ERC1820_REGISTRY",
      "outputs": [
        {
          "internalType": "contract IERC1820Registry",
          "name": "",
          "type": "address"
        }
      ],
      "stateMutability": "view",
      "type": "function"
    },
    {
      "inputs": [],
      "name": "TOKENS_RECIPIENT_INTERFACE_HASH",
      "outputs": [
        {
          "internalType": "bytes32",
          "name": "",
          "type": "bytes32"
        }
      ],
      "stateMutability": "view",
      "type": "function"
    },
    {
      "inputs": [
        {
          "internalType": "uint256",
          "name": "characterId",
          "type": "uint256"
        }
      ],
      "name": "balanceOf",
      "outputs": [
        {
          "internalType": "uint256",
          "name": "",
          "type": "uint256"
        }
      ],
      "stateMutability": "view",
      "type": "function"
    },
    {
      "inputs": [
        {
          "internalType": "bytes32",
          "name": "role",
          "type": "bytes32"
        }
      ],
      "name": "getRoleAdmin",
      "outputs": [
        {
          "internalType": "bytes32",
          "name": "",
          "type": "bytes32"
        }
      ],
      "stateMutability": "view",
      "type": "function"
    },
    {
      "inputs": [
        {
          "internalType": "bytes32",
          "name": "role",
          "type": "bytes32"
        },
        {
          "internalType": "uint256",
          "name": "index",
          "type": "uint256"
        }
      ],
      "name": "getRoleMember",
      "outputs": [
        {
          "internalType": "address",
          "name": "",
          "type": "address"
        }
      ],
      "stateMutability": "view",
      "type": "function"
    },
    {
      "inputs": [
        {
          "internalType": "bytes32",
          "name": "role",
          "type": "bytes32"
        }
      ],
      "name": "getRoleMemberCount",
      "outputs": [
        {
          "internalType": "uint256",
          "name": "",
          "type": "uint256"
        }
      ],
      "stateMutability": "view",
      "type": "function"
    },
    {
      "inputs": [],
      "name": "getToken",
      "outputs": [
        {
          "internalType": "address",
          "name": "",
          "type": "address"
        }
      ],
      "stateMutability": "view",
      "type": "function"
    },
    {
      "inputs": [
        {
          "internalType": "bytes32",
          "name": "role",
          "type": "bytes32"
        },
        {
          "internalType": "address",
          "name": "account",
          "type": "address"
        }
      ],
      "name": "grantRole",
      "outputs": [],
      "stateMutability": "nonpayable",
      "type": "function"
    },
    {
      "inputs": [
        {
          "internalType": "bytes32",
          "name": "role",
          "type": "bytes32"
        },
        {
          "internalType": "address",
          "name": "account",
          "type": "address"
        }
      ],
      "name": "hasRole",
      "outputs": [
        {
          "internalType": "bool",
          "name": "",
          "type": "bool"
        }
      ],
      "stateMutability": "view",
      "type": "function"
    },
    {
      "inputs": [
        {
          "internalType": "address",
          "name": "web3Entry_",
          "type": "address"
        },
        {
          "internalType": "address",
          "name": "xsyncOperator_",
          "type": "address"
        },
        {
          "internalType": "address",
          "name": "token_",
          "type": "address"
        },
        {
          "internalType": "address",
          "name": "admin_",
          "type": "address"
        },
        {
          "internalType": "address",
          "name": "tips_",
          "type": "address"
        }
      ],
      "name": "initialize",
      "outputs": [],
      "stateMutability": "nonpayable",
      "type": "function"
    },
    {
      "inputs": [
        {
          "internalType": "address",
          "name": "operator",
          "type": "address"
        },
        {
          "internalType": "address",
          "name": "",
          "type": "address"
        },
        {
          "internalType": "uint256",
          "name": "tokenId",
          "type": "uint256"
        },
        {
          "internalType": "bytes",
          "name": "data",
          "type": "bytes"
        }
      ],
      "name": "onERC721Received",
      "outputs": [
        {
          "internalType": "bytes4",
          "name": "",
          "type": "bytes4"
        }
      ],
      "stateMutability": "nonpayable",
      "type": "function"
    },
    {
      "inputs": [
        {
          "internalType": "bytes32",
          "name": "role",
          "type": "bytes32"
        },
        {
          "internalType": "address",
          "name": "account",
          "type": "address"
        }
      ],
      "name": "renounceRole",
      "outputs": [],
      "stateMutability": "nonpayable",
      "type": "function"
    },
    {
      "inputs": [
        {
          "internalType": "bytes32",
          "name": "role",
          "type": "bytes32"
        },
        {
          "internalType": "address",
          "name": "account",
          "type": "address"
        }
      ],
      "name": "revokeRole",
      "outputs": [],
      "stateMutability": "nonpayable",
      "type": "function"
    },
    {
      "inputs": [
        {
          "internalType": "bytes4",
          "name": "interfaceId",
          "type": "bytes4"
        }
      ],
      "name": "supportsInterface",
      "outputs": [
        {
          "internalType": "bool",
          "name": "",
          "type": "bool"
        }
      ],
      "stateMutability": "view",
      "type": "function"
    },
    {
      "inputs": [
        {
          "internalType": "uint256",
          "name": "fromCharacterId",
          "type": "uint256"
        },
        {
          "internalType": "uint256",
          "name": "toCharacterId",
          "type": "uint256"
        },
        {
          "internalType": "uint256",
          "name": "amount",
          "type": "uint256"
        }
      ],
      "name": "tipCharacter",
      "outputs": [],
      "stateMutability": "nonpayable",
      "type": "function"
    },
    {
      "inputs": [
        {
          "internalType": "uint256",
          "name": "fromCharacterId",
          "type": "uint256"
        },
        {
          "internalType": "uint256",
          "name": "toCharacterId",
          "type": "uint256"
        },
        {
          "internalType": "uint256",
          "name": "toNoteId",
          "type": "uint256"
        },
        {
          "internalType": "uint256",
          "name": "amount",
          "type": "uint256"
        }
      ],
      "name": "tipCharacterForNote",
      "outputs": [],
      "stateMutability": "nonpayable",
      "type": "function"
    },
    {
      "inputs": [
        {
          "internalType": "address",
          "name": "",
          "type": "address"
        },
        {
          "internalType": "address",
          "name": "",
          "type": "address"
        },
        {
          "internalType": "address",
          "name": "to",
          "type": "address"
        },
        {
          "internalType": "uint256",
          "name": "amount",
          "type": "uint256"
        },
        {
          "internalType": "bytes",
          "name": "userData",
          "type": "bytes"
        },
        {
          "internalType": "bytes",
          "name": "operatorData",
          "type": "bytes"
        }
      ],
      "name": "tokensReceived",
      "outputs": [],
      "stateMutability": "nonpayable",
      "type": "function"
    },
    {
      "inputs": [],
      "name": "web3Entry",
      "outputs": [
        {
          "internalType": "address",
          "name": "",
          "type": "address"
        }
      ],
      "stateMutability": "view",
      "type": "function"
    },
    {
      "inputs": [
        {
          "internalType": "address",
          "name": "to",
          "type": "address"
        },
        {
          "internalType": "uint256",
          "name": "characterId",
          "type": "uint256"
        },
        {
          "internalType": "uint256",
          "name": "nonce",
          "type": "uint256"
        },
        {
          "internalType": "uint256",
          "name": "expires",
          "type": "uint256"
        },
        {
          "internalType": "bytes",
          "name": "proof",
          "type": "bytes"
        }
      ],
      "name": "withdraw",
      "outputs": [],
      "stateMutability": "nonpayable",
      "type": "function"
    },
    {
      "inputs": [],
      "name": "xsyncOperator",
      "outputs": [
        {
          "internalType": "address",
          "name": "",
          "type": "address"
        }
      ],
      "stateMutability": "view",
      "type": "function"
    }
  ],
  "bytecode": "0x608060405234801561001057600080fd5b50611d47806100206000396000f3fe608060405234801561001057600080fd5b50600436106101415760003560e01c806372581cc0116100b85780639cc7f7081161007c5780639cc7f708146102f9578063a217fddf14610319578063ca15c87314610321578063d547741f14610334578063ddf1858a14610347578063e13322721461035a57600080fd5b806372581cc01461028457806375b238fc146102ab5780639010d07c146102c057806391a9dffc146102d357806391d14854146102e657600080fd5b806321df0da71161010a57806321df0da7146101f5578063248a9ca3146102065780632f2ff15d1461023857806332eba3b21461024b57806336568abe1461025e5780636d13b1ca1461027157600080fd5b806223de2914610146578063013eb1771461015b57806301ffc9a7146101935780631459457a146101b6578063150b7a02146101c9575b600080fd5b6101596101543660046117e3565b61036d565b005b610176731820a4b7618bde71dce8cdc73aab6c95905fad2481565b6040516001600160a01b0390911681526020015b60405180910390f35b6101a66101a1366004611894565b61050c565b604051901515815260200161018a565b6101596101c43660046118be565b610537565b6101dc6101d736600461192f565b6106fe565b6040516001600160e01b0319909116815260200161018a565b6005546001600160a01b0316610176565b61022a6102143660046119a2565b6000908152600160208190526040909120015490565b60405190815260200161018a565b6101596102463660046119bb565b610970565b600454610176906001600160a01b031681565b61015961026c3660046119bb565b61099b565b61015961027f3660046119eb565b610a19565b61022a7fb281fc8c12954d22544db45de3159a39272895b169a852b314f9cc762e44c53b81565b61022a600080516020611cf283398151915281565b6101766102ce366004611a17565b610b49565b6101596102e1366004611a39565b610b68565b6101a66102f43660046119bb565b610ca2565b61022a6103073660046119a2565b60009081526006602052604090205490565b61022a600081565b61022a61032f3660046119a2565b610ccd565b6101596103423660046119bb565b610ce4565b610159610355366004611a6b565b610d0a565b600354610176906001600160a01b031681565b6005546001600160a01b031633146103cc5760405162461bcd60e51b815260206004820152601a60248201527f4e657762696556696c6c613a20696e76616c696420746f6b656e00000000000060448201526064015b60405180910390fd5b306001600160a01b038716146104245760405162461bcd60e51b815260206004820152601d60248201527f4e657762696556696c6c613a20696e76616c696420726563656976657200000060448201526064016103c3565b600083610432578282610435565b84845b8080601f01602080910402602001604051908101604052809392919081815260200183838082843760009201919091525050825192935050506040036104b95760008180602001905181019061048b9190611ade565b600081815260066020526040812080549294508a9350916104ad908490611b18565b90915550610501915050565b60405162461bcd60e51b815260206004820152601e60248201527f4e657762696556696c6c613a20756e6b6e6f776e20726563656976696e67000060448201526064016103c3565b505050505050505050565b60006001600160e01b03198216635a05180f60e01b1480610531575061053182611000565b92915050565b600054600390610100900460ff16158015610559575060005460ff8083169116105b6105bc5760405162461bcd60e51b815260206004820152602e60248201527f496e697469616c697a61626c653a20636f6e747261637420697320616c72656160448201526d191e481a5b9a5d1a585b1a5e995960921b60648201526084016103c3565b6000805461ffff191660ff831617610100178155600380546001600160a01b03808a166001600160a01b031992831617909255600480548984169083161790556005805488841690831617905560078054928616929091169190911790556106249084611035565b6040516329965a1d60e01b815230600482018190527fb281fc8c12954d22544db45de3159a39272895b169a852b314f9cc762e44c53b60248301526044820152731820a4b7618bde71dce8cdc73aab6c95905fad24906329965a1d90606401600060405180830381600087803b15801561069d57600080fd5b505af11580156106b1573d6000803e3d6000fd5b50506000805461ff0019169055505060405160ff821681527f7f26b83ff96e1f2b6a682f133852f6798a09c465da95921460cefb38474024989060200160405180910390a1505050505050565b6003546000906001600160a01b031633146107665760405162461bcd60e51b815260206004820152602260248201527f4e657762696556696c6c613a207265636569766520756e6b6e6f776e20746f6b60448201526132b760f11b60648201526084016103c3565b61077e600080516020611cf283398151915287610ca2565b6107d95760405162461bcd60e51b815260206004820152602660248201527f4e657762696556696c6c613a207265636569766520756e6b6e6f776e206368616044820152653930b1ba32b960d11b60648201526084016103c3565b600082900361085e576003546040516310332bf960e11b8152600481018690526001600160a01b03888116602483015267100000000fffffff60b01b60448301529091169063206657f290606401600060405180830381600087803b15801561084157600080fd5b505af1158015610855573d6000803e3d6000fd5b505050506108e7565b600061086c83850185611b2b565b6003546040516310332bf960e11b8152600481018890526001600160a01b03808416602483015267100000000fffffff60b01b604483015292935091169063206657f290606401600060405180830381600087803b1580156108cd57600080fd5b505af11580156108e1573d6000803e3d6000fd5b50505050505b600354600480546040516310332bf960e11b81529182018790526001600160a01b03908116602483015264400000003f60c61b60448301529091169063206657f290606401600060405180830381600087803b15801561094657600080fd5b505af115801561095a573d6000803e3d6000fd5b50630a85bd0160e11b9998505050505050505050565b6000828152600160208190526040909120015461098c8161103f565b610996838361104c565b505050565b6001600160a01b0381163314610a0b5760405162461bcd60e51b815260206004820152602f60248201527f416363657373436f6e74726f6c3a2063616e206f6e6c792072656e6f756e636560448201526e103937b632b9903337b91039b2b63360891b60648201526084016103c3565b610a15828261106e565b5050565b610a31600080516020611cf283398151915233610ca2565b610a955760405162461bcd60e51b815260206004820152602f60248201527f4e657762696556696c6c613a20756e617574686f72697a656420726f6c65206660448201526e37b9103a34b821b430b930b1ba32b960891b60648201526084016103c3565b60008381526006602052604081208054839290610ab3908490611b48565b909155505060408051602081018590528082018490528151808203830181526060820192839052600554600754634decdde360e11b90945290926001600160a01b0391821692639bd9bbc692610b1192169086908690606401611bab565b600060405180830381600087803b158015610b2b57600080fd5b505af1158015610b3f573d6000803e3d6000fd5b5050505050505050565b6000828152600260205260408120610b619083611090565b9392505050565b610b80600080516020611cf283398151915233610ca2565b610beb5760405162461bcd60e51b815260206004820152603660248201527f4e657762696556696c6c613a20756e617574686f72697a656420726f6c6520666044820152756f7220746970436861726163746572466f724e6f746560501b60648201526084016103c3565b60008481526006602052604081208054839290610c09908490611b48565b909155505060408051602081018690529081018490526060810183905260009060800160408051601f1981840301815290829052600554600754634decdde360e11b84529193506001600160a01b0390811692639bd9bbc692610c7492169086908690600401611bab565b600060405180830381600087803b158015610c8e57600080fd5b505af1158015610501573d6000803e3d6000fd5b60009182526001602090815260408084206001600160a01b0393909316845291905290205460ff1690565b60008181526002602052604081206105319061109c565b60008281526001602081905260409091200154610d008161103f565b610996838361106e565b8242811015610d5b5760405162461bcd60e51b815260206004820181905260248201527f4e657762696556696c6c613a207265636569707420686173206578706972656460448201526064016103c3565b6040516bffffffffffffffffffffffff193060601b166020820152603481018790526054810186905260748101859052600090610dfe90609401604051602081830303815290604052805190602001206040517f19457468657265756d205369676e6564204d6573736167653a0a3332000000006020820152603c8101829052600090605c01604051602081830303815290604052805190602001209050919050565b9050610e52600080516020611cf28339815191526102f48387878080601f0160208091040260200160405190810160405280939291908181526020018383808284376000920191909152506110a692505050565b610ea95760405162461bcd60e51b815260206004820152602260248201527f4e657762696556696c6c613a20756e617574686f72697a656420776974686472604482015261617760f01b60648201526084016103c3565b6000878152600660205260408082208054908390556005549151634decdde360e11b81526001600160a01b038c8116600483015260248201839052606060448301526064820194909452909290911690639bd9bbc690608401600060405180830381600087803b158015610f1c57600080fd5b505af1158015610f30573d6000803e3d6000fd5b5050600354604051632142170760e11b81523060048201526001600160a01b038d81166024830152604482018d905290911692506342842e0e9150606401600060405180830381600087803b158015610f8857600080fd5b505af1158015610f9c573d6000803e3d6000fd5b5050600554604080516001600160a01b038e81168252602082018e90529092168282015260608201859052517f457f950b75085c30ff780acd57bde642ff1316cc4aad9f286af2c1ffc4163a789350908190036080019150a1505050505050505050565b60006001600160e01b03198216637965db0b60e01b148061053157506301ffc9a760e01b6001600160e01b0319831614610531565b610a15828261104c565b61104981336110ca565b50565b6110568282611123565b6000828152600260205260409020610996908261118e565b61107882826111a3565b6000828152600260205260409020610996908261120a565b6000610b61838361121f565b6000610531825490565b60008060006110b58585611249565b915091506110c28161128e565b509392505050565b6110d48282610ca2565b610a15576110e1816113d8565b6110ec8360206113ea565b6040516020016110fd929190611bdb565b60408051601f198184030181529082905262461bcd60e51b82526103c391600401611c50565b61112d8282610ca2565b610a155760008281526001602081815260408084206001600160a01b0386168086529252808420805460ff19169093179092559051339285917f2f8788117e7eff1d82e926ec794901d17c78024a50270940304540a733656f0d9190a45050565b6000610b61836001600160a01b038416611586565b6111ad8282610ca2565b15610a155760008281526001602090815260408083206001600160a01b0385168085529252808320805460ff1916905551339285917ff6391f5c32d9c69d2a47ea670b442974b53935d1edc7fd64eb21e047a839171b9190a45050565b6000610b61836001600160a01b0384166115d5565b600082600001828154811061123657611236611c63565b9060005260206000200154905092915050565b600080825160410361127f5760208301516040840151606085015160001a611273878285856116c8565b94509450505050611287565b506000905060025b9250929050565b60008160048111156112a2576112a2611c79565b036112aa5750565b60018160048111156112be576112be611c79565b0361130b5760405162461bcd60e51b815260206004820152601860248201527f45434453413a20696e76616c6964207369676e6174757265000000000000000060448201526064016103c3565b600281600481111561131f5761131f611c79565b0361136c5760405162461bcd60e51b815260206004820152601f60248201527f45434453413a20696e76616c6964207369676e6174757265206c656e6774680060448201526064016103c3565b600381600481111561138057611380611c79565b036110495760405162461bcd60e51b815260206004820152602260248201527f45434453413a20696e76616c6964207369676e6174757265202773272076616c604482015261756560f01b60648201526084016103c3565b60606105316001600160a01b03831660145b606060006113f9836002611c8f565b611404906002611b18565b67ffffffffffffffff81111561141c5761141c611cae565b6040519080825280601f01601f191660200182016040528015611446576020820181803683370190505b509050600360fc1b8160008151811061146157611461611c63565b60200101906001600160f81b031916908160001a905350600f60fb1b8160018151811061149057611490611c63565b60200101906001600160f81b031916908160001a90535060006114b4846002611c8f565b6114bf906001611b18565b90505b6001811115611537576f181899199a1a9b1b9c1cb0b131b232b360811b85600f16601081106114f3576114f3611c63565b1a60f81b82828151811061150957611509611c63565b60200101906001600160f81b031916908160001a90535060049490941c9361153081611cc4565b90506114c2565b508315610b615760405162461bcd60e51b815260206004820181905260248201527f537472696e67733a20686578206c656e67746820696e73756666696369656e7460448201526064016103c3565b60008181526001830160205260408120546115cd57508154600181810184556000848152602080822090930184905584548482528286019093526040902091909155610531565b506000610531565b600081815260018301602052604081205480156116be5760006115f9600183611b48565b855490915060009061160d90600190611b48565b905081811461167257600086600001828154811061162d5761162d611c63565b906000526020600020015490508087600001848154811061165057611650611c63565b6000918252602080832090910192909255918252600188019052604090208390555b855486908061168357611683611cdb565b600190038181906000526020600020016000905590558560010160008681526020019081526020016000206000905560019350505050610531565b6000915050610531565b6000807f7fffffffffffffffffffffffffffffff5d576e7357a4501ddfe92f46681b20a08311156116ff5750600090506003611783565b6040805160008082526020820180845289905260ff881692820192909252606081018690526080810185905260019060a0016020604051602081039080840390855afa158015611753573d6000803e3d6000fd5b5050604051601f1901519150506001600160a01b03811661177c57600060019250925050611783565b9150600090505b94509492505050565b6001600160a01b038116811461104957600080fd5b60008083601f8401126117b357600080fd5b50813567ffffffffffffffff8111156117cb57600080fd5b60208301915083602082850101111561128757600080fd5b60008060008060008060008060c0898b0312156117ff57600080fd5b883561180a8161178c565b9750602089013561181a8161178c565b9650604089013561182a8161178c565b955060608901359450608089013567ffffffffffffffff8082111561184e57600080fd5b61185a8c838d016117a1565b909650945060a08b013591508082111561187357600080fd5b506118808b828c016117a1565b999c989b5096995094979396929594505050565b6000602082840312156118a657600080fd5b81356001600160e01b031981168114610b6157600080fd5b600080600080600060a086880312156118d657600080fd5b85356118e18161178c565b945060208601356118f18161178c565b935060408601356119018161178c565b925060608601356119118161178c565b915060808601356119218161178c565b809150509295509295909350565b60008060008060006080868803121561194757600080fd5b85356119528161178c565b945060208601356119628161178c565b935060408601359250606086013567ffffffffffffffff81111561198557600080fd5b611991888289016117a1565b969995985093965092949392505050565b6000602082840312156119b457600080fd5b5035919050565b600080604083850312156119ce57600080fd5b8235915060208301356119e08161178c565b809150509250929050565b600080600060608486031215611a0057600080fd5b505081359360208301359350604090920135919050565b60008060408385031215611a2a57600080fd5b50508035926020909101359150565b60008060008060808587031215611a4f57600080fd5b5050823594602084013594506040840135936060013592509050565b60008060008060008060a08789031215611a8457600080fd5b8635611a8f8161178c565b9550602087013594506040870135935060608701359250608087013567ffffffffffffffff811115611ac057600080fd5b611acc89828a016117a1565b979a9699509497509295939492505050565b60008060408385031215611af157600080fd5b505080516020909101519092909150565b634e487b7160e01b600052601160045260246000fd5b8082018082111561053157610531611b02565b600060208284031215611b3d57600080fd5b8135610b618161178c565b8181038181111561053157610531611b02565b60005b83811015611b76578181015183820152602001611b5e565b50506000910152565b60008151808452611b97816020860160208601611b5b565b601f01601f19169290920160200192915050565b60018060a01b0384168152826020820152606060408201526000611bd26060830184611b7f565b95945050505050565b7f416363657373436f6e74726f6c3a206163636f756e7420000000000000000000815260008351611c13816017850160208801611b5b565b7001034b99036b4b9b9b4b733903937b6329607d1b6017918401918201528351611c44816028840160208801611b5b565b01602801949350505050565b602081526000610b616020830184611b7f565b634e487b7160e01b600052603260045260246000fd5b634e487b7160e01b600052602160045260246000fd5b6000816000190483118215151615611ca957611ca9611b02565b500290565b634e487b7160e01b600052604160045260246000fd5b600081611cd357611cd3611b02565b506000190190565b634e487b7160e01b600052603160045260246000fdfea49807205ce4d355092ef5a8a18f56e8913cf4a201fbe287825b095693c21775a2646970667358221220ef7085ce3c8e42a02ee84c73642e85c3b275408498c828f9606b5292d3adf74764736f6c63430008100033",
  "linkReferences": {},
  "deployedLinkReferences": {}
}