{
  "_format": "hh-sol-artifact-1",
  "contractName": "NoviceVillage",
  "sourceName": "contracts/misc/NoviceVillage.sol",
  "abi": [
    {
      "anonymous": false,
      "inputs": [
        {
          "indexed": false,
          "internalType": "uint8",
          "name": "version",
          "type": "uint8"
        }
      ],
      "name": "Initialized",
      "type": "event"
    },
    {
      "anonymous": false,
      "inputs": [
        {
          "indexed": true,
          "internalType": "bytes32",
          "name": "role",
          "type": "bytes32"
        },
        {
          "indexed": true,
          "internalType": "bytes32",
          "name": "previousAdminRole",
          "type": "bytes32"
        },
        {
          "indexed": true,
          "internalType": "bytes32",
          "name": "newAdminRole",
          "type": "bytes32"
        }
      ],
      "name": "RoleAdminChanged",
      "type": "event"
    },
    {
      "anonymous": false,
      "inputs": [
        {
          "indexed": true,
          "internalType": "bytes32",
          "name": "role",
          "type": "bytes32"
        },
        {
          "indexed": true,
          "internalType": "address",
          "name": "account",
          "type": "address"
        },
        {
          "indexed": true,
          "internalType": "address",
          "name": "sender",
          "type": "address"
        }
      ],
      "name": "RoleGranted",
      "type": "event"
    },
    {
      "anonymous": false,
      "inputs": [
        {
          "indexed": true,
          "internalType": "bytes32",
          "name": "role",
          "type": "bytes32"
        },
        {
          "indexed": true,
          "internalType": "address",
          "name": "account",
          "type": "address"
        },
        {
          "indexed": true,
          "internalType": "address",
          "name": "sender",
          "type": "address"
        }
      ],
      "name": "RoleRevoked",
      "type": "event"
    },
    {
      "stateMutability": "nonpayable",
      "type": "fallback"
    },
    {
      "inputs": [],
      "name": "ADMIN_ROLE",
      "outputs": [
        {
          "internalType": "bytes32",
          "name": "",
          "type": "bytes32"
        }
      ],
      "stateMutability": "view",
      "type": "function"
    },
    {
      "inputs": [],
      "name": "DEFAULT_ADMIN_ROLE",
      "outputs": [
        {
          "internalType": "bytes32",
          "name": "",
          "type": "bytes32"
        }
      ],
      "stateMutability": "view",
      "type": "function"
    },
    {
      "inputs": [
        {
          "internalType": "bytes32",
          "name": "role",
          "type": "bytes32"
        }
      ],
      "name": "getRoleAdmin",
      "outputs": [
        {
          "internalType": "bytes32",
          "name": "",
          "type": "bytes32"
        }
      ],
      "stateMutability": "view",
      "type": "function"
    },
    {
      "inputs": [
        {
          "internalType": "bytes32",
          "name": "role",
          "type": "bytes32"
        },
        {
          "internalType": "uint256",
          "name": "index",
          "type": "uint256"
        }
      ],
      "name": "getRoleMember",
      "outputs": [
        {
          "internalType": "address",
          "name": "",
          "type": "address"
        }
      ],
      "stateMutability": "view",
      "type": "function"
    },
    {
      "inputs": [
        {
          "internalType": "bytes32",
          "name": "role",
          "type": "bytes32"
        }
      ],
      "name": "getRoleMemberCount",
      "outputs": [
        {
          "internalType": "uint256",
          "name": "",
          "type": "uint256"
        }
      ],
      "stateMutability": "view",
      "type": "function"
    },
    {
      "inputs": [
        {
          "internalType": "bytes32",
          "name": "role",
          "type": "bytes32"
        },
        {
          "internalType": "address",
          "name": "account",
          "type": "address"
        }
      ],
      "name": "grantRole",
      "outputs": [],
      "stateMutability": "nonpayable",
      "type": "function"
    },
    {
      "inputs": [
        {
          "internalType": "bytes32",
          "name": "role",
          "type": "bytes32"
        },
        {
          "internalType": "address",
          "name": "account",
          "type": "address"
        }
      ],
      "name": "hasRole",
      "outputs": [
        {
          "internalType": "bool",
          "name": "",
          "type": "bool"
        }
      ],
      "stateMutability": "view",
      "type": "function"
    },
    {
      "inputs": [
        {
          "internalType": "address",
          "name": "_web3Entry",
          "type": "address"
        }
      ],
      "name": "initialize",
      "outputs": [],
      "stateMutability": "nonpayable",
      "type": "function"
    },
    {
      "inputs": [
        {
          "internalType": "bytes32",
          "name": "role",
          "type": "bytes32"
        },
        {
          "internalType": "address",
          "name": "account",
          "type": "address"
        }
      ],
      "name": "renounceRole",
      "outputs": [],
      "stateMutability": "nonpayable",
      "type": "function"
    },
    {
      "inputs": [
        {
          "internalType": "bytes32",
          "name": "role",
          "type": "bytes32"
        },
        {
          "internalType": "address",
          "name": "account",
          "type": "address"
        }
      ],
      "name": "revokeRole",
      "outputs": [],
      "stateMutability": "nonpayable",
      "type": "function"
    },
    {
      "inputs": [
        {
          "internalType": "bytes4",
          "name": "interfaceId",
          "type": "bytes4"
        }
      ],
      "name": "supportsInterface",
      "outputs": [
        {
          "internalType": "bool",
          "name": "",
          "type": "bool"
        }
      ],
      "stateMutability": "view",
      "type": "function"
    },
    {
      "inputs": [],
      "name": "web3Entry",
      "outputs": [
        {
          "internalType": "address",
          "name": "",
          "type": "address"
        }
      ],
      "stateMutability": "view",
      "type": "function"
    }
  ],
  "bytecode": "0x608060405234801561001057600080fd5b50610ca4806100206000396000f3fe608060405234801561001057600080fd5b50600436106100b45760003560e01c806391d148541161007157806391d14854146101e3578063a217fddf146101f6578063c4d66de8146101fe578063ca15c87314610211578063d547741f14610224578063e133227214610237576100b4565b806301ffc9a71461010f578063248a9ca3146101375780632f2ff15d1461016957806336568abe1461017e57806375b238fc146101915780639010d07c146101b8575b7fa49807205ce4d355092ef5a8a18f56e8913cf4a201fbe287825b095693c217756100de8161024a565b6003546001600160a01b0316366000803760008036600080855af13d6000803e80801561010a573d6000f35b3d6000fd5b61012261011d366004610a11565b610257565b60405190151581526020015b60405180910390f35b61015b610145366004610a3b565b6000908152600160208190526040909120015490565b60405190815260200161012e565b61017c610177366004610a70565b610282565b005b61017c61018c366004610a70565b6102ad565b61015b7fa49807205ce4d355092ef5a8a18f56e8913cf4a201fbe287825b095693c2177581565b6101cb6101c6366004610a9c565b610330565b6040516001600160a01b03909116815260200161012e565b6101226101f1366004610a70565b61034f565b61015b600081565b61017c61020c366004610abe565b61037a565b61015b61021f366004610a3b565b6104d3565b61017c610232366004610a70565b6104ea565b6003546101cb906001600160a01b031681565b6102548133610510565b50565b60006001600160e01b03198216635a05180f60e01b148061027c575061027c82610574565b92915050565b6000828152600160208190526040909120015461029e8161024a565b6102a883836105a9565b505050565b6001600160a01b03811633146103225760405162461bcd60e51b815260206004820152602f60248201527f416363657373436f6e74726f6c3a2063616e206f6e6c792072656e6f756e636560448201526e103937b632b9903337b91039b2b63360891b60648201526084015b60405180910390fd5b61032c82826105cb565b5050565b600082815260026020526040812061034890836105ed565b9392505050565b60009182526001602090815260408084206001600160a01b0393909316845291905290205460ff1690565b600054610100900460ff161580801561039a5750600054600160ff909116105b806103b45750303b1580156103b4575060005460ff166001145b6104175760405162461bcd60e51b815260206004820152602e60248201527f496e697469616c697a61626c653a20636f6e747261637420697320616c72656160448201526d191e481a5b9a5d1a585b1a5e995960921b6064820152608401610319565b6000805460ff19166001179055801561043a576000805461ff0019166101001790555b600380546001600160a01b0319166001600160a01b0384161790556104606000336105f9565b61048a7fa49807205ce4d355092ef5a8a18f56e8913cf4a201fbe287825b095693c21775336105f9565b801561032c576000805461ff0019169055604051600181527f7f26b83ff96e1f2b6a682f133852f6798a09c465da95921460cefb38474024989060200160405180910390a15050565b600081815260026020526040812061027c90610603565b600082815260016020819052604090912001546105068161024a565b6102a883836105cb565b61051a828261034f565b61032c57610532816001600160a01b0316601461060d565b61053d83602061060d565b60405160200161054e929190610b09565b60408051601f198184030181529082905262461bcd60e51b825261031991600401610b7e565b60006001600160e01b03198216637965db0b60e01b148061027c57506301ffc9a760e01b6001600160e01b031983161461027c565b6105b382826107a9565b60008281526002602052604090206102a89082610814565b6105d58282610829565b60008281526002602052604090206102a89082610890565b600061034883836108a5565b61032c82826105a9565b600061027c825490565b6060600061061c836002610bc7565b610627906002610be6565b67ffffffffffffffff81111561063f5761063f610bfe565b6040519080825280601f01601f191660200182016040528015610669576020820181803683370190505b509050600360fc1b8160008151811061068457610684610c14565b60200101906001600160f81b031916908160001a905350600f60fb1b816001815181106106b3576106b3610c14565b60200101906001600160f81b031916908160001a90535060006106d7846002610bc7565b6106e2906001610be6565b90505b600181111561075a576f181899199a1a9b1b9c1cb0b131b232b360811b85600f166010811061071657610716610c14565b1a60f81b82828151811061072c5761072c610c14565b60200101906001600160f81b031916908160001a90535060049490941c9361075381610c2a565b90506106e5565b5083156103485760405162461bcd60e51b815260206004820181905260248201527f537472696e67733a20686578206c656e67746820696e73756666696369656e746044820152606401610319565b6107b3828261034f565b61032c5760008281526001602081815260408084206001600160a01b0386168086529252808420805460ff19169093179092559051339285917f2f8788117e7eff1d82e926ec794901d17c78024a50270940304540a733656f0d9190a45050565b6000610348836001600160a01b0384166108cf565b610833828261034f565b1561032c5760008281526001602090815260408083206001600160a01b0385168085529252808320805460ff1916905551339285917ff6391f5c32d9c69d2a47ea670b442974b53935d1edc7fd64eb21e047a839171b9190a45050565b6000610348836001600160a01b03841661091e565b60008260000182815481106108bc576108bc610c14565b9060005260206000200154905092915050565b60008181526001830160205260408120546109165750815460018181018455600084815260208082209093018490558454848252828601909352604090209190915561027c565b50600061027c565b60008181526001830160205260408120548015610a07576000610942600183610c41565b855490915060009061095690600190610c41565b90508181146109bb57600086600001828154811061097657610976610c14565b906000526020600020015490508087600001848154811061099957610999610c14565b6000918252602080832090910192909255918252600188019052604090208390555b85548690806109cc576109cc610c58565b60019003818190600052602060002001600090559055856001016000868152602001908152602001600020600090556001935050505061027c565b600091505061027c565b600060208284031215610a2357600080fd5b81356001600160e01b03198116811461034857600080fd5b600060208284031215610a4d57600080fd5b5035919050565b80356001600160a01b0381168114610a6b57600080fd5b919050565b60008060408385031215610a8357600080fd5b82359150610a9360208401610a54565b90509250929050565b60008060408385031215610aaf57600080fd5b50508035926020909101359150565b600060208284031215610ad057600080fd5b61034882610a54565b60005b83811015610af4578181015183820152602001610adc565b83811115610b03576000848401525b50505050565b7f416363657373436f6e74726f6c3a206163636f756e7420000000000000000000815260008351610b41816017850160208801610ad9565b7001034b99036b4b9b9b4b733903937b6329607d1b6017918401918201528351610b72816028840160208801610ad9565b01602801949350505050565b6020815260008251806020840152610b9d816040850160208701610ad9565b601f01601f19169190910160400192915050565b634e487b7160e01b600052601160045260246000fd5b6000816000190483118215151615610be157610be1610bb1565b500290565b60008219821115610bf957610bf9610bb1565b500190565b634e487b7160e01b600052604160045260246000fd5b634e487b7160e01b600052603260045260246000fd5b600081610c3957610c39610bb1565b506000190190565b600082821015610c5357610c53610bb1565b500390565b634e487b7160e01b600052603160045260246000fdfea264697066735822122091d05b7868851d792567453d0fc0c50a8651e53acd5582e955a450d62173797f64736f6c634300080a0033",
  "linkReferences": {},
  "deployedLinkReferences": {}
}