{
    "_format": "hh-sol-artifact-1",
    "contractName": "Periphery",
    "sourceName": "contracts/misc/Periphery.sol",
    "abi": [
        {
            "inputs": [
                {
                    "internalType": "contract IWeb3Entry",
                    "name": "_web3Entry",
                    "type": "address"
                }
            ],
            "stateMutability": "nonpayable",
            "type": "constructor"
        },
        {
            "inputs": [
                {
                    "components": [
                        {
                            "internalType": "uint256",
                            "name": "fromProfileId",
                            "type": "uint256"
                        },
                        {
                            "internalType": "uint256[]",
                            "name": "toProfileIds",
                            "type": "uint256[]"
                        },
                        {
                            "internalType": "bytes[]",
                            "name": "data",
                            "type": "bytes[]"
                        },
                        {
                            "internalType": "address[]",
                            "name": "toAddresses",
                            "type": "address[]"
                        },
                        {
                            "internalType": "bytes32",
                            "name": "linkType",
                            "type": "bytes32"
                        }
                    ],
                    "internalType": "struct DataTypes.linkProfilesInBatchData",
                    "name": "vars",
                    "type": "tuple"
                }
            ],
            "name": "linkProfilesInBatch",
            "outputs": [],
            "stateMutability": "nonpayable",
            "type": "function"
        },
        {
            "inputs": [],
            "name": "web3Entry",
            "outputs": [
                {
                    "internalType": "contract IWeb3Entry",
                    "name": "",
                    "type": "address"
                }
            ],
            "stateMutability": "view",
            "type": "function"
        }
    ],
    "bytecode": "0x608060405234801561001057600080fd5b506040516104fe3803806104fe83398101604081905261002f91610054565b600080546001600160a01b0319166001600160a01b0392909216919091179055610084565b60006020828403121561006657600080fd5b81516001600160a01b038116811461007d57600080fd5b9392505050565b61046b806100936000396000f3fe608060405234801561001057600080fd5b50600436106100365760003560e01c80633c4c447a1461003b578063e133227214610050575b600080fd5b61004e6100493660046102af565b61007f565b005b600054610063906001600160a01b031681565b6040516001600160a01b03909116815260200160405180910390f35b61008c60408201826102f1565b905061009b60208301836102f1565b9050146100e45760405162461bcd60e51b8152602060048201526013602482015272082e4e4c2f298cadccee8d09ad2e69ac2e8c6d606b1b604482015260640160405180910390fd5b60005b6100f460208301836102f1565b90508110156101d0576000546001600160a01b0316634ab463ee833561011d60208601866102f1565b8581811061012d5761012d610342565b90506020020135856080013586806040019061014991906102f1565b8781811061015957610159610342565b905060200281019061016b9190610358565b6040518663ffffffff1660e01b815260040161018b95949392919061039f565b600060405180830381600087803b1580156101a557600080fd5b505af11580156101b9573d6000803e3d6000fd5b5050505080806101c8906103e3565b9150506100e7565b5060005b6101e160608301836102f1565b90508110156102ab576000546001600160a01b0316630f84fe8c833561020a60608601866102f1565b8581811061021a5761021a610342565b905060200201602081019061022f919061040c565b6040516001600160e01b031960e085901b16815260048101929092526001600160a01b0316602482015260808501356044820152606401600060405180830381600087803b15801561028057600080fd5b505af1158015610294573d6000803e3d6000fd5b5050505080806102a3906103e3565b9150506101d4565b5050565b6000602082840312156102c157600080fd5b813567ffffffffffffffff8111156102d857600080fd5b820160a081850312156102ea57600080fd5b9392505050565b6000808335601e1984360301811261030857600080fd5b83018035915067ffffffffffffffff82111561032357600080fd5b6020019150600581901b360382131561033b57600080fd5b9250929050565b634e487b7160e01b600052603260045260246000fd5b6000808335601e1984360301811261036f57600080fd5b83018035915067ffffffffffffffff82111561038a57600080fd5b60200191503681900382131561033b57600080fd5b85815284602082015283604082015260806060820152816080820152818360a0830137600081830160a090810191909152601f909201601f19160101949350505050565b600060001982141561040557634e487b7160e01b600052601160045260246000fd5b5060010190565b60006020828403121561041e57600080fd5b81356001600160a01b03811681146102ea57600080fdfea26469706673582212201e222d7910df6b7b7f1f8c843d2a6650d4c361cd3b0ebb5e32db5dd1cd7f705564736f6c634300080a0033",
    "linkReferences": {},
    "deployedLinkReferences": {}
}