{
    "_format": "hh-sol-artifact-1",
    "contractName": "Periphery",
    "sourceName": "contracts/misc/Periphery.sol",
    "abi": [
        {
            "inputs": [
                {
                    "internalType": "bytes32",
                    "name": "linkKey",
                    "type": "bytes32"
                }
            ],
            "name": "getLinkingAddress",
            "outputs": [
                {
                    "internalType": "address",
                    "name": "",
                    "type": "address"
                }
            ],
            "stateMutability": "view",
            "type": "function"
        },
        {
            "inputs": [
                {
                    "internalType": "uint256",
                    "name": "fromCharacterId",
                    "type": "uint256"
                },
                {
                    "internalType": "bytes32",
                    "name": "linkType",
                    "type": "bytes32"
                }
            ],
            "name": "getLinkingAddresses",
            "outputs": [
                {
                    "internalType": "address[]",
                    "name": "",
                    "type": "address[]"
                }
            ],
            "stateMutability": "view",
            "type": "function"
        },
        {
            "inputs": [
                {
                    "internalType": "bytes32",
                    "name": "linkKey",
                    "type": "bytes32"
                }
            ],
            "name": "getLinkingAnyUri",
            "outputs": [
                {
                    "internalType": "string",
                    "name": "",
                    "type": "string"
                }
            ],
            "stateMutability": "view",
            "type": "function"
        },
        {
            "inputs": [
                {
                    "internalType": "uint256",
                    "name": "fromCharacterId",
                    "type": "uint256"
                },
                {
                    "internalType": "bytes32",
                    "name": "linkType",
                    "type": "bytes32"
                }
            ],
            "name": "getLinkingAnyUris",
            "outputs": [
                {
                    "internalType": "string[]",
                    "name": "results",
                    "type": "string[]"
                }
            ],
            "stateMutability": "view",
            "type": "function"
        },
        {
            "inputs": [
                {
                    "internalType": "bytes32",
                    "name": "linkKey",
                    "type": "bytes32"
                }
            ],
            "name": "getLinkingCharacterId",
            "outputs": [
                {
                    "internalType": "uint256",
                    "name": "characterId",
                    "type": "uint256"
                }
            ],
            "stateMutability": "view",
            "type": "function"
        },
        {
            "inputs": [
                {
                    "internalType": "uint256",
                    "name": "fromCharacterId",
                    "type": "uint256"
                },
                {
                    "internalType": "bytes32",
                    "name": "linkType",
                    "type": "bytes32"
                }
            ],
            "name": "getLinkingCharacterIds",
            "outputs": [
                {
                    "internalType": "uint256[]",
                    "name": "results",
                    "type": "uint256[]"
                }
            ],
            "stateMutability": "view",
            "type": "function"
        },
        {
            "inputs": [
                {
                    "internalType": "bytes32",
                    "name": "linkKey",
                    "type": "bytes32"
                }
            ],
            "name": "getLinkingERC721",
            "outputs": [
                {
                    "components": [
                        {
                            "internalType": "address",
                            "name": "tokenAddress",
                            "type": "address"
                        },
                        {
                            "internalType": "uint256",
                            "name": "erc721TokenId",
                            "type": "uint256"
                        }
                    ],
                    "internalType": "struct DataTypes.ERC721Struct",
                    "name": "",
                    "type": "tuple"
                }
            ],
            "stateMutability": "view",
            "type": "function"
        },
        {
            "inputs": [
                {
                    "internalType": "uint256",
                    "name": "fromCharacterId",
                    "type": "uint256"
                },
                {
                    "internalType": "bytes32",
                    "name": "linkType",
                    "type": "bytes32"
                }
            ],
            "name": "getLinkingERC721s",
            "outputs": [
                {
                    "components": [
                        {
                            "internalType": "address",
                            "name": "tokenAddress",
                            "type": "address"
                        },
                        {
                            "internalType": "uint256",
                            "name": "erc721TokenId",
                            "type": "uint256"
                        }
                    ],
                    "internalType": "struct DataTypes.ERC721Struct[]",
                    "name": "results",
                    "type": "tuple[]"
                }
            ],
            "stateMutability": "view",
            "type": "function"
        },
        {
            "inputs": [
                {
                    "internalType": "bytes32",
                    "name": "linkKey",
                    "type": "bytes32"
                }
            ],
            "name": "getLinkingLinklistId",
            "outputs": [
                {
                    "internalType": "uint256",
                    "name": "linklistId",
                    "type": "uint256"
                }
            ],
            "stateMutability": "view",
            "type": "function"
        },
        {
            "inputs": [
                {
                    "internalType": "uint256",
                    "name": "fromCharacterId",
                    "type": "uint256"
                },
                {
                    "internalType": "bytes32",
                    "name": "linkType",
                    "type": "bytes32"
                }
            ],
            "name": "getLinkingLinklistIds",
            "outputs": [
                {
                    "internalType": "uint256[]",
                    "name": "linklistIds",
                    "type": "uint256[]"
                }
            ],
            "stateMutability": "view",
            "type": "function"
        },
        {
            "inputs": [
                {
                    "internalType": "bytes32",
                    "name": "linkKey",
                    "type": "bytes32"
                }
            ],
            "name": "getLinkingNote",
            "outputs": [
                {
                    "components": [
                        {
                            "internalType": "uint256",
                            "name": "characterId",
                            "type": "uint256"
                        },
                        {
                            "internalType": "uint256",
                            "name": "noteId",
                            "type": "uint256"
                        }
                    ],
                    "internalType": "struct DataTypes.NoteStruct",
                    "name": "",
                    "type": "tuple"
                }
            ],
            "stateMutability": "view",
            "type": "function"
        },
        {
            "inputs": [
                {
                    "internalType": "uint256",
                    "name": "fromCharacterId",
                    "type": "uint256"
                },
                {
                    "internalType": "bytes32",
                    "name": "linkType",
                    "type": "bytes32"
                }
            ],
            "name": "getLinkingNotes",
            "outputs": [
                {
                    "components": [
                        {
                            "internalType": "bytes32",
                            "name": "linkItemType",
                            "type": "bytes32"
                        },
                        {
                            "internalType": "bytes32",
                            "name": "linkKey",
                            "type": "bytes32"
                        },
                        {
                            "internalType": "string",
                            "name": "contentUri",
                            "type": "string"
                        },
                        {
                            "internalType": "address",
                            "name": "linkModule",
                            "type": "address"
                        },
                        {
                            "internalType": "address",
                            "name": "mintModule",
                            "type": "address"
                        },
                        {
                            "internalType": "address",
                            "name": "mintNFT",
                            "type": "address"
                        },
                        {
                            "internalType": "bool",
                            "name": "deleted",
                            "type": "bool"
                        },
                        {
                            "internalType": "bool",
                            "name": "locked",
                            "type": "bool"
                        }
                    ],
                    "internalType": "struct DataTypes.Note[]",
                    "name": "results",
                    "type": "tuple[]"
                }
            ],
            "stateMutability": "view",
            "type": "function"
        },
        {
            "inputs": [
                {
                    "internalType": "uint256",
                    "name": "characterId",
                    "type": "uint256"
                },
                {
                    "internalType": "uint256",
                    "name": "offset",
                    "type": "uint256"
                },
                {
                    "internalType": "uint256",
                    "name": "limit",
                    "type": "uint256"
                }
            ],
            "name": "getNotesByCharacterId",
            "outputs": [
                {
                    "components": [
                        {
                            "internalType": "bytes32",
                            "name": "linkItemType",
                            "type": "bytes32"
                        },
                        {
                            "internalType": "bytes32",
                            "name": "linkKey",
                            "type": "bytes32"
                        },
                        {
                            "internalType": "string",
                            "name": "contentUri",
                            "type": "string"
                        },
                        {
                            "internalType": "address",
                            "name": "linkModule",
                            "type": "address"
                        },
                        {
                            "internalType": "address",
                            "name": "mintModule",
                            "type": "address"
                        },
                        {
                            "internalType": "address",
                            "name": "mintNFT",
                            "type": "address"
                        },
                        {
                            "internalType": "bool",
                            "name": "deleted",
                            "type": "bool"
                        },
                        {
                            "internalType": "bool",
                            "name": "locked",
                            "type": "bool"
                        }
                    ],
                    "internalType": "struct DataTypes.Note[]",
                    "name": "results",
                    "type": "tuple[]"
                }
            ],
            "stateMutability": "view",
            "type": "function"
        },
        {
            "inputs": [
                {
                    "internalType": "address",
                    "name": "_web3Entry",
                    "type": "address"
                },
                {
                    "internalType": "address",
                    "name": "_linklist",
                    "type": "address"
                }
            ],
            "name": "initialize",
            "outputs": [],
            "stateMutability": "nonpayable",
            "type": "function"
        },
        {
            "inputs": [
                {
                    "components": [
                        {
                            "internalType": "uint256",
                            "name": "fromCharacterId",
                            "type": "uint256"
                        },
                        {
                            "internalType": "uint256[]",
                            "name": "toCharacterIds",
                            "type": "uint256[]"
                        },
                        {
                            "internalType": "bytes[]",
                            "name": "data",
                            "type": "bytes[]"
                        },
                        {
                            "internalType": "address[]",
                            "name": "toAddresses",
                            "type": "address[]"
                        },
                        {
                            "internalType": "bytes32",
                            "name": "linkType",
                            "type": "bytes32"
                        }
                    ],
                    "internalType": "struct DataTypes.linkCharactersInBatchData",
                    "name": "vars",
                    "type": "tuple"
                }
            ],
            "name": "linkCharactersInBatch",
            "outputs": [],
            "stateMutability": "nonpayable",
            "type": "function"
        },
        {
            "inputs": [],
            "name": "linklist",
            "outputs": [
                {
                    "internalType": "address",
                    "name": "",
                    "type": "address"
                }
            ],
            "stateMutability": "view",
            "type": "function"
        },
        {
            "inputs": [],
            "name": "web3Entry",
            "outputs": [
                {
                    "internalType": "address",
                    "name": "",
                    "type": "address"
                }
            ],
            "stateMutability": "view",
            "type": "function"
        }
    ],
    "bytecode": "0x608060405234801561001057600080fd5b50611ef4806100206000396000f3fe608060405234801561001057600080fd5b506004361061010b5760003560e01c80635440522b116100a25780638654af27116100715780638654af2714610287578063d55a0060146102a3578063d85d04f414610287578063dfc1e2bf146102b6578063e1332272146102c957600080fd5b80635440522b146102075780635f799cc61461022757806362c3ed301461024757806376ae90ef1461026757600080fd5b80632c422599116100de5780632c422599146101a05780633e7cb539146101b3578063485cc955146101c45780634a7906b9146101d957600080fd5b806306bee8d4146101105780630f9b729c146101405780631964a421146101605780632260c7d214610180575b600080fd5b600154610123906001600160a01b031681565b6040516001600160a01b0390911681526020015b60405180910390f35b61015361014e3660046112e9565b6102e2565b6040516101379190611371565b61017361016e36600461143c565b6104ab565b604051610137919061145e565b61019361018e36600461143c565b6105a4565b60405161013791906114c0565b6101536101ae36600461143c565b610693565b6101236101c1366004611504565b90565b6101d76101d2366004611535565b6108ee565b005b6101ec6101e7366004611504565b6109ef565b60408051825181526020928301519281019290925201610137565b61021a610215366004611504565b610a6d565b604051610137919061156e565b61023a610235366004611504565b610aeb565b604051610137919061158e565b61025a61025536600461143c565b610b5d565b60405161013791906115a1565b61027a61027536600461143c565b610c4c565b6040516101379190611601565b6102956101c1366004611504565b604051908152602001610137565b6101d76102b1366004611642565b610d3b565b6101936102c436600461143c565b610ff4565b600054610123906201000090046001600160a01b031681565b6000805460405163dabb053160e01b815260048101869052606092916201000090046001600160a01b03169063dabb053190602401600060405180830381865afa158015610334573d6000803e3d6000fd5b505050506040513d6000823e601f3d908101601f1916820160405261035c91908101906117aa565b606001519050610375836103708684611886565b61120e565b9250826001600160401b0381111561038f5761038f61167c565b6040519080825280602002602001820160405280156103c857816020015b6103b56112a4565b8152602001906001900390816103ad5790505b5091508084106103d857506104a4565b835b6103e4848661189d565b8110156104a1576000546040516301b6923d60e71b81526004810188905260248101839052620100009091046001600160a01b03169063db491e8090604401600060405180830381865afa158015610440573d6000803e3d6000fd5b505050506040513d6000823e601f3d908101601f1916820160405261046891908101906118c5565b836104738784611886565b815181106104835761048361199b565b60200260200101819052508080610499906119b1565b9150506103da565b50505b9392505050565b60008054604051636b87086360e11b81526004810185905260248101849052606092916201000090046001600160a01b03169063d70e10c690604401602060405180830381865afa158015610504573d6000803e3d6000fd5b505050506040513d601f19601f8201168201806040525081019061052891906119cc565b60015460405163732795d560e11b8152600481018390529192506001600160a01b03169063e64f2baa90602401600060405180830381865afa158015610572573d6000803e3d6000fd5b505050506040513d6000823e601f3d908101601f1916820160405261059a9190810190611a08565b9150505b92915050565b60008054604051636b87086360e11b81526004810185905260248101849052606092916201000090046001600160a01b03169063d70e10c690604401602060405180830381865afa1580156105fd573d6000803e3d6000fd5b505050506040513d601f19601f8201168201806040525081019061062191906119cc565b60015460405163ed6223cf60e01b8152600481018390529192506001600160a01b03169063ed6223cf90602401600060405180830381865afa15801561066b573d6000803e3d6000fd5b505050506040513d6000823e601f3d908101601f1916820160405261059a9190810190611abd565b60008054604051636b87086360e11b81526004810185905260248101849052606092916201000090046001600160a01b03169063d70e10c690604401602060405180830381865afa1580156106ec573d6000803e3d6000fd5b505050506040513d601f19601f8201168201806040525081019061071091906119cc565b600154604051635e9f678b60e01b8152600481018390529192506000916001600160a01b0390911690635e9f678b90602401600060405180830381865afa15801561075f573d6000803e3d6000fd5b505050506040513d6000823e601f3d908101601f191682016040526107879190810190611b7d565b905080516001600160401b038111156107a2576107a261167c565b6040519080825280602002602001820160405280156107db57816020015b6107c86112a4565b8152602001906001900390816107c05790505b50925060005b81518110156108e557600060029054906101000a90046001600160a01b03166001600160a01b031663db491e808383815181106108205761082061199b565b60200260200101516000015184848151811061083e5761083e61199b565b6020026020010151602001516040518363ffffffff1660e01b8152600401610870929190918252602082015260400190565b600060405180830381865afa15801561088d573d6000803e3d6000fd5b505050506040513d6000823e601f3d908101601f191682016040526108b591908101906118c5565b8482815181106108c7576108c761199b565b602002602001018190525080806108dd906119b1565b9150506107e1565b50505092915050565b600054610100900460ff166109095760005460ff161561090d565b303b155b6109755760405162461bcd60e51b815260206004820152602e60248201527f496e697469616c697a61626c653a20636f6e747261637420697320616c72656160448201526d191e481a5b9a5d1a585b1a5e995960921b60648201526084015b60405180910390fd5b600054610100900460ff16158015610997576000805461ffff19166101011790555b6000805462010000600160b01b031916620100006001600160a01b038681169190910291909117909155600180546001600160a01b03191691841691909117905580156109ea576000805461ff00191690555b505050565b604080518082018252600080825260208201526001549151634a7906b960e01b81526004810184905290916001600160a01b031690634a7906b9906024016040805180830381865afa158015610a49573d6000803e3d6000fd5b505050506040513d601f19601f8201168201806040525081019061059e9190611c0d565b604080518082018252600080825260208201526001549151635440522b60e01b81526004810184905290916001600160a01b031690635440522b906024016040805180830381865afa158015610ac7573d6000803e3d6000fd5b505050506040513d601f19601f8201168201806040525081019061059e9190611c64565b600154604051632fbcce6360e11b8152600481018390526060916001600160a01b031690635f799cc690602401600060405180830381865afa158015610b35573d6000803e3d6000fd5b505050506040513d6000823e601f3d908101601f1916820160405261059e9190810190611c80565b60008054604051636b87086360e11b81526004810185905260248101849052606092916201000090046001600160a01b03169063d70e10c690604401602060405180830381865afa158015610bb6573d6000803e3d6000fd5b505050506040513d601f19601f82011682018060405250810190610bda91906119cc565b600154604051639037c0f960e01b8152600481018390529192506001600160a01b031690639037c0f990602401600060405180830381865afa158015610c24573d6000803e3d6000fd5b505050506040513d6000823e601f3d908101601f1916820160405261059a9190810190611cb4565b60008054604051636b87086360e11b81526004810185905260248101849052606092916201000090046001600160a01b03169063d70e10c690604401602060405180830381865afa158015610ca5573d6000803e3d6000fd5b505050506040513d601f19601f82011682018060405250810190610cc991906119cc565b600154604051635c369ec360e01b8152600481018390529192506001600160a01b031690635c369ec390602401600060405180830381865afa158015610d13573d6000803e3d6000fd5b505050506040513d6000823e601f3d908101601f1916820160405261059a9190810190611d44565b610d486040820182611dd2565b9050610d576020830183611dd2565b905014610d9c5760405162461bcd60e51b8152602060048201526013602482015272082e4e4c2f298cadccee8d09ad2e6dac2e8c6d606b1b604482015260640161096c565b60005b610dac6020830183611dd2565b9050811015610ee457600054604080516080810190915283358152620100009091046001600160a01b03169063188b04b390602080820190610df090870187611dd2565b86818110610e0057610e0061199b565b90506020020135815260200185608001358152602001858060400190610e269190611dd2565b86818110610e3657610e3661199b565b9050602002810190610e489190611e22565b8080601f01602080910402602001604051908101604052809392919081815260200183838082843760009201919091525050509152506040516001600160e01b031960e084901b168152610e9f9190600401611e68565b600060405180830381600087803b158015610eb957600080fd5b505af1158015610ecd573d6000803e3d6000fd5b505050508080610edc906119b1565b915050610d9f565b5060005b610ef56060830183611dd2565b9050811015610ff05760005460408051606080820190925284358152620100009092046001600160a01b03169163f6479d77916020820190610f3990870187611dd2565b86818110610f4957610f4961199b565b9050602002016020810190610f5e9190611ea1565b6001600160a01b0390811682526080870135602092830152604080516001600160e01b031960e087901b1681528451600482015292840151909116602483015291909101516044820152606401600060405180830381600087803b158015610fc557600080fd5b505af1158015610fd9573d6000803e3d6000fd5b505050508080610fe8906119b1565b915050610ee8565b5050565b60008054604051636b87086360e11b81526004810185905260248101849052606092916201000090046001600160a01b03169063d70e10c690604401602060405180830381865afa15801561104d573d6000803e3d6000fd5b505050506040513d601f19601f8201168201806040525081019061107191906119cc565b60015460405163ba27f58d60e01b8152600481018390529192506000916001600160a01b039091169063ba27f58d90602401600060405180830381865afa1580156110c0573d6000803e3d6000fd5b505050506040513d6000823e601f3d908101601f191682016040526110e89190810190611abd565b80519091506000805b828110156111405761111b84828151811061110e5761110e61199b565b6020026020010151611224565b1561112e578161112a816119b1565b9250505b80611138816119b1565b9150506110f1565b50806001600160401b038111156111595761115961167c565b604051908082528060200260200182016040528015611182578160200160208202803683370190505b5094506000805b83811015611202576111a685828151811061110e5761110e61199b565b156111f0578481815181106111bd576111bd61199b565b60200260200101518783815181106111d7576111d761199b565b6020908102919091010152816111ec816119b1565b9250505b806111fa816119b1565b915050611189565b50505050505092915050565b600081831061121d57816104a4565b5090919050565b6000805460405163dabb053160e01b815260048101849052620100009091046001600160a01b03169063dabb053190602401600060405180830381865afa158015611273573d6000803e3d6000fd5b505050506040513d6000823e601f3d908101601f1916820160405261129b91908101906117aa565b51151592915050565b604080516101008101825260008082526020820181905260609282018390529181018290526080810182905260a0810182905260c0810182905260e081019190915290565b6000806000606084860312156112fe57600080fd5b505081359360208301359350604090920135919050565b60005b83811015611330578181015183820152602001611318565b8381111561133f576000848401525b50505050565b6000815180845261135d816020860160208601611315565b601f01601f19169290920160200192915050565b60006020808301818452808551808352604092508286019150828160051b87010184880160005b8381101561142e57603f1989840301855281516101008151855288820151898601528782015181898701526113cf82870182611345565b6060848101516001600160a01b039081169189019190915260808086015182169089015260a0808601519091169088015260c08085015115159088015260e0938401511515939096019290925250509386019390860190600101611398565b509098975050505050505050565b6000806040838503121561144f57600080fd5b50508035926020909101359150565b6000602080830181845280855180835260408601915060408160051b870101925083870160005b828110156114b357603f198886030184526114a1858351611345565b94509285019290850190600101611485565b5092979650505050505050565b6020808252825182820181905260009190848201906040850190845b818110156114f8578351835292840192918401916001016114dc565b50909695505050505050565b60006020828403121561151657600080fd5b5035919050565b6001600160a01b038116811461153257600080fd5b50565b6000806040838503121561154857600080fd5b82356115538161151d565b915060208301356115638161151d565b809150509250929050565b81516001600160a01b03168152602080830151908201526040810161059e565b6020815260006104a46020830184611345565b602080825282518282018190526000919060409081850190868401855b828110156115f4576115e484835180516001600160a01b03168252602090810151910152565b92840192908501906001016115be565b5091979650505050505050565b6020808252825182820181905260009190848201906040850190845b818110156114f85783516001600160a01b03168352928401929184019160010161161d565b60006020828403121561165457600080fd5b81356001600160401b0381111561166a57600080fd5b820160a081850312156104a457600080fd5b634e487b7160e01b600052604160045260246000fd5b60405160c081016001600160401b03811182821017156116b4576116b461167c565b60405290565b60405161010081016001600160401b03811182821017156116b4576116b461167c565b604080519081016001600160401b03811182821017156116b4576116b461167c565b604051601f8201601f191681016001600160401b03811182821017156117275761172761167c565b604052919050565b600082601f83011261174057600080fd5b81516001600160401b038111156117595761175961167c565b61176c601f8201601f19166020016116ff565b81815284602083860101111561178157600080fd5b611792826020830160208701611315565b949350505050565b80516117a58161151d565b919050565b6000602082840312156117bc57600080fd5b81516001600160401b03808211156117d357600080fd5b9083019060c082860312156117e757600080fd5b6117ef611692565b8251815260208301518281111561180557600080fd5b6118118782860161172f565b60208301525060408301518281111561182957600080fd5b6118358782860161172f565b604083015250606083015160608201526118516080840161179a565b608082015261186260a0840161179a565b60a082015295945050505050565b634e487b7160e01b600052601160045260246000fd5b60008282101561189857611898611870565b500390565b600082198211156118b0576118b0611870565b500190565b805180151581146117a557600080fd5b6000602082840312156118d757600080fd5b81516001600160401b03808211156118ee57600080fd5b90830190610100828603121561190357600080fd5b61190b6116ba565b825181526020830151602082015260408301518281111561192b57600080fd5b6119378782860161172f565b6040830152506119496060840161179a565b606082015261195a6080840161179a565b608082015261196b60a0840161179a565b60a082015261197c60c084016118b5565b60c082015261198d60e084016118b5565b60e082015295945050505050565b634e487b7160e01b600052603260045260246000fd5b60006000198214156119c5576119c5611870565b5060010190565b6000602082840312156119de57600080fd5b5051919050565b60006001600160401b038211156119fe576119fe61167c565b5060051b60200190565b60006020808385031215611a1b57600080fd5b82516001600160401b0380821115611a3257600080fd5b818501915085601f830112611a4657600080fd5b8151611a59611a54826119e5565b6116ff565b81815260059190911b83018401908481019088831115611a7857600080fd5b8585015b83811015611ab057805185811115611a945760008081fd5b611aa28b89838a010161172f565b845250918601918601611a7c565b5098975050505050505050565b60006020808385031215611ad057600080fd5b82516001600160401b03811115611ae657600080fd5b8301601f81018513611af757600080fd5b8051611b05611a54826119e5565b81815260059190911b82018301908381019087831115611b2457600080fd5b928401925b82841015611b4257835182529284019290840190611b29565b979650505050505050565b600060408284031215611b5f57600080fd5b611b676116dd565b9050815181526020820151602082015292915050565b60006020808385031215611b9057600080fd5b82516001600160401b03811115611ba657600080fd5b8301601f81018513611bb757600080fd5b8051611bc5611a54826119e5565b81815260069190911b82018301908381019087831115611be457600080fd5b928401925b82841015611b4257611bfb8885611b4d565b82528482019150604084019350611be9565b600060408284031215611c1f57600080fd5b6104a48383611b4d565b600060408284031215611c3b57600080fd5b611c436116dd565b90508151611c508161151d565b808252506020820151602082015292915050565b600060408284031215611c7657600080fd5b6104a48383611c29565b600060208284031215611c9257600080fd5b81516001600160401b03811115611ca857600080fd5b61059a8482850161172f565b60006020808385031215611cc757600080fd5b82516001600160401b03811115611cdd57600080fd5b8301601f81018513611cee57600080fd5b8051611cfc611a54826119e5565b81815260069190911b82018301908381019087831115611d1b57600080fd5b928401925b82841015611b4257611d328885611c29565b82528482019150604084019350611d20565b60006020808385031215611d5757600080fd5b82516001600160401b03811115611d6d57600080fd5b8301601f81018513611d7e57600080fd5b8051611d8c611a54826119e5565b81815260059190911b82018301908381019087831115611dab57600080fd5b928401925b82841015611b42578351611dc38161151d565b82529284019290840190611db0565b6000808335601e19843603018112611de957600080fd5b8301803591506001600160401b03821115611e0357600080fd5b6020019150600581901b3603821315611e1b57600080fd5b9250929050565b6000808335601e19843603018112611e3957600080fd5b8301803591506001600160401b03821115611e5357600080fd5b602001915036819003821315611e1b57600080fd5b602081528151602082015260208201516040820152604082015160608201526000606083015160808084015261059a60a0840182611345565b600060208284031215611eb357600080fd5b81356104a48161151d56fea2646970667358221220ecb0470b9f39fef2863d04001aed5de8112f7366df7fabd21abb92b1661b6fb764736f6c634300080a0033",
    "linkReferences": {},
    "deployedLinkReferences": {}
}