{
    "_format": "hh-sol-artifact-1",
    "contractName": "Periphery",
    "sourceName": "contracts/misc/Periphery.sol",
    "abi": [
        {
            "inputs": [
                {
                    "internalType": "bytes32",
                    "name": "linkKey",
                    "type": "bytes32"
                }
            ],
            "name": "getLinkingAddress",
            "outputs": [
                {
                    "internalType": "address",
                    "name": "",
                    "type": "address"
                }
            ],
            "stateMutability": "view",
            "type": "function"
        },
        {
            "inputs": [
                {
                    "internalType": "uint256",
                    "name": "fromCharacterId",
                    "type": "uint256"
                },
                {
                    "internalType": "bytes32",
                    "name": "linkType",
                    "type": "bytes32"
                }
            ],
            "name": "getLinkingAddresses",
            "outputs": [
                {
                    "internalType": "address[]",
                    "name": "",
                    "type": "address[]"
                }
            ],
            "stateMutability": "view",
            "type": "function"
        },
        {
            "inputs": [
                {
                    "internalType": "bytes32",
                    "name": "linkKey",
                    "type": "bytes32"
                }
            ],
            "name": "getLinkingAnyUri",
            "outputs": [
                {
                    "internalType": "string",
                    "name": "",
                    "type": "string"
                }
            ],
            "stateMutability": "view",
            "type": "function"
        },
        {
            "inputs": [
                {
                    "internalType": "uint256",
                    "name": "fromCharacterId",
                    "type": "uint256"
                },
                {
                    "internalType": "bytes32",
                    "name": "linkType",
                    "type": "bytes32"
                }
            ],
            "name": "getLinkingAnyUris",
            "outputs": [
                {
                    "internalType": "string[]",
                    "name": "results",
                    "type": "string[]"
                }
            ],
            "stateMutability": "view",
            "type": "function"
        },
        {
            "inputs": [
                {
                    "internalType": "bytes32",
                    "name": "linkKey",
                    "type": "bytes32"
                }
            ],
            "name": "getLinkingCharacterId",
            "outputs": [
                {
                    "internalType": "uint256",
                    "name": "characterId",
                    "type": "uint256"
                }
            ],
            "stateMutability": "view",
            "type": "function"
        },
        {
            "inputs": [
                {
                    "internalType": "uint256",
                    "name": "fromCharacterId",
                    "type": "uint256"
                },
                {
                    "internalType": "bytes32",
                    "name": "linkType",
                    "type": "bytes32"
                }
            ],
            "name": "getLinkingCharacterIds",
            "outputs": [
                {
                    "internalType": "uint256[]",
                    "name": "results",
                    "type": "uint256[]"
                }
            ],
            "stateMutability": "view",
            "type": "function"
        },
        {
            "inputs": [
                {
                    "internalType": "bytes32",
                    "name": "linkKey",
                    "type": "bytes32"
                }
            ],
            "name": "getLinkingERC721",
            "outputs": [
                {
                    "components": [
                        {
                            "internalType": "address",
                            "name": "tokenAddress",
                            "type": "address"
                        },
                        {
                            "internalType": "uint256",
                            "name": "erc721TokenId",
                            "type": "uint256"
                        }
                    ],
                    "internalType": "struct DataTypes.ERC721Struct",
                    "name": "",
                    "type": "tuple"
                }
            ],
            "stateMutability": "view",
            "type": "function"
        },
        {
            "inputs": [
                {
                    "internalType": "uint256",
                    "name": "fromCharacterId",
                    "type": "uint256"
                },
                {
                    "internalType": "bytes32",
                    "name": "linkType",
                    "type": "bytes32"
                }
            ],
            "name": "getLinkingERC721s",
            "outputs": [
                {
                    "components": [
                        {
                            "internalType": "address",
                            "name": "tokenAddress",
                            "type": "address"
                        },
                        {
                            "internalType": "uint256",
                            "name": "erc721TokenId",
                            "type": "uint256"
                        }
                    ],
                    "internalType": "struct DataTypes.ERC721Struct[]",
                    "name": "results",
                    "type": "tuple[]"
                }
            ],
            "stateMutability": "view",
            "type": "function"
        },
        {
            "inputs": [
                {
                    "internalType": "bytes32",
                    "name": "linkKey",
                    "type": "bytes32"
                }
            ],
            "name": "getLinkingLinklistId",
            "outputs": [
                {
                    "internalType": "uint256",
                    "name": "linklistId",
                    "type": "uint256"
                }
            ],
            "stateMutability": "view",
            "type": "function"
        },
        {
            "inputs": [
                {
                    "internalType": "uint256",
                    "name": "fromCharacterId",
                    "type": "uint256"
                },
                {
                    "internalType": "bytes32",
                    "name": "linkType",
                    "type": "bytes32"
                }
            ],
            "name": "getLinkingLinklistIds",
            "outputs": [
                {
                    "internalType": "uint256[]",
                    "name": "linklistIds",
                    "type": "uint256[]"
                }
            ],
            "stateMutability": "view",
            "type": "function"
        },
        {
            "inputs": [
                {
                    "internalType": "bytes32",
                    "name": "linkKey",
                    "type": "bytes32"
                }
            ],
            "name": "getLinkingNote",
            "outputs": [
                {
                    "components": [
                        {
                            "internalType": "uint256",
                            "name": "characterId",
                            "type": "uint256"
                        },
                        {
                            "internalType": "uint256",
                            "name": "noteId",
                            "type": "uint256"
                        }
                    ],
                    "internalType": "struct DataTypes.NoteStruct",
                    "name": "",
                    "type": "tuple"
                }
            ],
            "stateMutability": "view",
            "type": "function"
        },
        {
            "inputs": [
                {
                    "internalType": "uint256",
                    "name": "fromCharacterId",
                    "type": "uint256"
                },
                {
                    "internalType": "bytes32",
                    "name": "linkType",
                    "type": "bytes32"
                }
            ],
            "name": "getLinkingNotes",
            "outputs": [
                {
                    "components": [
                        {
                            "internalType": "bytes32",
                            "name": "linkItemType",
                            "type": "bytes32"
                        },
                        {
                            "internalType": "bytes32",
                            "name": "linkKey",
                            "type": "bytes32"
                        },
                        {
                            "internalType": "string",
                            "name": "contentUri",
                            "type": "string"
                        },
                        {
                            "internalType": "address",
                            "name": "linkModule",
                            "type": "address"
                        },
                        {
                            "internalType": "address",
                            "name": "mintModule",
                            "type": "address"
                        },
                        {
                            "internalType": "address",
                            "name": "mintNFT",
                            "type": "address"
                        },
                        {
                            "internalType": "bool",
                            "name": "deleted",
                            "type": "bool"
                        },
                        {
                            "internalType": "bool",
                            "name": "locked",
                            "type": "bool"
                        }
                    ],
                    "internalType": "struct DataTypes.Note[]",
                    "name": "results",
                    "type": "tuple[]"
                }
            ],
            "stateMutability": "view",
            "type": "function"
        },
        {
            "inputs": [
                {
                    "internalType": "uint256",
                    "name": "characterId",
                    "type": "uint256"
                },
                {
                    "internalType": "uint256",
                    "name": "offset",
                    "type": "uint256"
                },
                {
                    "internalType": "uint256",
                    "name": "limit",
                    "type": "uint256"
                }
            ],
            "name": "getNotesByCharacterId",
            "outputs": [
                {
                    "components": [
                        {
                            "internalType": "bytes32",
                            "name": "linkItemType",
                            "type": "bytes32"
                        },
                        {
                            "internalType": "bytes32",
                            "name": "linkKey",
                            "type": "bytes32"
                        },
                        {
                            "internalType": "string",
                            "name": "contentUri",
                            "type": "string"
                        },
                        {
                            "internalType": "address",
                            "name": "linkModule",
                            "type": "address"
                        },
                        {
                            "internalType": "address",
                            "name": "mintModule",
                            "type": "address"
                        },
                        {
                            "internalType": "address",
                            "name": "mintNFT",
                            "type": "address"
                        },
                        {
                            "internalType": "bool",
                            "name": "deleted",
                            "type": "bool"
                        },
                        {
                            "internalType": "bool",
                            "name": "locked",
                            "type": "bool"
                        }
                    ],
                    "internalType": "struct DataTypes.Note[]",
                    "name": "results",
                    "type": "tuple[]"
                }
            ],
            "stateMutability": "view",
            "type": "function"
        },
        {
            "inputs": [
                {
                    "internalType": "address",
                    "name": "_web3Entry",
                    "type": "address"
                },
                {
                    "internalType": "address",
                    "name": "_linklist",
                    "type": "address"
                }
            ],
            "name": "initialize",
            "outputs": [],
            "stateMutability": "nonpayable",
            "type": "function"
        },
        {
            "inputs": [
                {
                    "components": [
                        {
                            "internalType": "uint256",
                            "name": "fromCharacterId",
                            "type": "uint256"
                        },
                        {
                            "internalType": "uint256[]",
                            "name": "toCharacterIds",
                            "type": "uint256[]"
                        },
                        {
                            "internalType": "bytes[]",
                            "name": "data",
                            "type": "bytes[]"
                        },
                        {
                            "internalType": "address[]",
                            "name": "toAddresses",
                            "type": "address[]"
                        },
                        {
                            "internalType": "bytes32",
                            "name": "linkType",
                            "type": "bytes32"
                        }
                    ],
                    "internalType": "struct DataTypes.linkCharactersInBatchData",
                    "name": "vars",
                    "type": "tuple"
                }
            ],
            "name": "linkCharactersInBatch",
            "outputs": [],
            "stateMutability": "nonpayable",
            "type": "function"
        },
        {
            "inputs": [],
            "name": "linklist",
            "outputs": [
                {
                    "internalType": "address",
                    "name": "",
                    "type": "address"
                }
            ],
            "stateMutability": "view",
            "type": "function"
        },
        {
            "inputs": [
                {
                    "components": [
                        {
                            "internalType": "address",
                            "name": "account",
                            "type": "address"
                        },
                        {
                            "internalType": "string",
                            "name": "handle",
                            "type": "string"
                        },
                        {
                            "internalType": "string",
                            "name": "uri",
                            "type": "string"
                        },
                        {
                            "internalType": "address[]",
                            "name": "toAddresses",
                            "type": "address[]"
                        },
                        {
                            "internalType": "bytes32",
                            "name": "linkType",
                            "type": "bytes32"
                        }
                    ],
                    "internalType": "struct DataTypes.MigrateData",
                    "name": "vars",
                    "type": "tuple"
                }
            ],
            "name": "migrate",
            "outputs": [],
            "stateMutability": "nonpayable",
            "type": "function"
        },
        {
            "inputs": [],
            "name": "web3Entry",
            "outputs": [
                {
                    "internalType": "address",
                    "name": "",
                    "type": "address"
                }
            ],
            "stateMutability": "view",
            "type": "function"
        }
    ],
    "bytecode": "0x608060405234801561001057600080fd5b50612483806100206000396000f3fe608060405234801561001057600080fd5b50600436106101165760003560e01c80635f799cc6116100a2578063d55a006011610071578063d55a0060146102ae578063d85d04f414610292578063dfc1e2bf146102c1578063e1332272146102d4578063e3d24428146102ed57600080fd5b80635f799cc61461023257806362c3ed301461025257806376ae90ef146102725780638654af271461029257600080fd5b80632c422599116100e95780632c422599146101ab5780633e7cb539146101be578063485cc955146101cf5780634a7906b9146101e45780635440522b1461021257600080fd5b806306bee8d41461011b5780630f9b729c1461014b5780631964a4211461016b5780632260c7d21461018b575b600080fd5b60015461012e906001600160a01b031681565b6040516001600160a01b0390911681526020015b60405180910390f35b61015e6101593660046117e5565b610300565b604051610142919061186d565b61017e610179366004611938565b6104c9565b604051610142919061195a565b61019e610199366004611938565b6105c2565b60405161014291906119bc565b61015e6101b9366004611938565b6106b1565b61012e6101cc366004611a00565b90565b6101e26101dd366004611a31565b61090c565b005b6101f76101f2366004611a00565b610a0d565b60408051825181526020928301519281019290925201610142565b610225610220366004611a00565b610a8b565b6040516101429190611a6a565b610245610240366004611a00565b610b09565b6040516101429190611a8a565b610265610260366004611938565b610b7b565b6040516101429190611a9d565b610285610280366004611938565b610c6a565b6040516101429190611afd565b6102a06101cc366004611a00565b604051908152602001610142565b6101e26102bc366004611b56565b610d59565b61019e6102cf366004611938565b611012565b60005461012e906201000090046001600160a01b031681565b6101e26102fb366004611b56565b61122c565b6000805460405163dabb053160e01b815260048101869052606092916201000090046001600160a01b03169063dabb053190602401600060405180830381865afa158015610352573d6000803e3d6000fd5b505050506040513d6000823e601f3d908101601f1916820160405261037a9190810190611cb8565b6060015190506103938361038e8684611d94565b61170a565b9250826001600160401b038111156103ad576103ad611b8a565b6040519080825280602002602001820160405280156103e657816020015b6103d36117a0565b8152602001906001900390816103cb5790505b5091508084106103f657506104c2565b835b6104028486611dab565b8110156104bf576000546040516301b6923d60e71b81526004810188905260248101839052620100009091046001600160a01b03169063db491e8090604401600060405180830381865afa15801561045e573d6000803e3d6000fd5b505050506040513d6000823e601f3d908101601f191682016040526104869190810190611dd3565b836104918784611d94565b815181106104a1576104a1611ea9565b602002602001018190525080806104b790611ebf565b9150506103f8565b50505b9392505050565b60008054604051636b87086360e11b81526004810185905260248101849052606092916201000090046001600160a01b03169063d70e10c690604401602060405180830381865afa158015610522573d6000803e3d6000fd5b505050506040513d601f19601f820116820180604052508101906105469190611eda565b60015460405163732795d560e11b8152600481018390529192506001600160a01b03169063e64f2baa90602401600060405180830381865afa158015610590573d6000803e3d6000fd5b505050506040513d6000823e601f3d908101601f191682016040526105b89190810190611f16565b9150505b92915050565b60008054604051636b87086360e11b81526004810185905260248101849052606092916201000090046001600160a01b03169063d70e10c690604401602060405180830381865afa15801561061b573d6000803e3d6000fd5b505050506040513d601f19601f8201168201806040525081019061063f9190611eda565b60015460405163ed6223cf60e01b8152600481018390529192506001600160a01b03169063ed6223cf90602401600060405180830381865afa158015610689573d6000803e3d6000fd5b505050506040513d6000823e601f3d908101601f191682016040526105b89190810190611fcb565b60008054604051636b87086360e11b81526004810185905260248101849052606092916201000090046001600160a01b03169063d70e10c690604401602060405180830381865afa15801561070a573d6000803e3d6000fd5b505050506040513d601f19601f8201168201806040525081019061072e9190611eda565b600154604051635e9f678b60e01b8152600481018390529192506000916001600160a01b0390911690635e9f678b90602401600060405180830381865afa15801561077d573d6000803e3d6000fd5b505050506040513d6000823e601f3d908101601f191682016040526107a5919081019061208b565b905080516001600160401b038111156107c0576107c0611b8a565b6040519080825280602002602001820160405280156107f957816020015b6107e66117a0565b8152602001906001900390816107de5790505b50925060005b815181101561090357600060029054906101000a90046001600160a01b03166001600160a01b031663db491e8083838151811061083e5761083e611ea9565b60200260200101516000015184848151811061085c5761085c611ea9565b6020026020010151602001516040518363ffffffff1660e01b815260040161088e929190918252602082015260400190565b600060405180830381865afa1580156108ab573d6000803e3d6000fd5b505050506040513d6000823e601f3d908101601f191682016040526108d39190810190611dd3565b8482815181106108e5576108e5611ea9565b602002602001018190525080806108fb90611ebf565b9150506107ff565b50505092915050565b600054610100900460ff166109275760005460ff161561092b565b303b155b6109935760405162461bcd60e51b815260206004820152602e60248201527f496e697469616c697a61626c653a20636f6e747261637420697320616c72656160448201526d191e481a5b9a5d1a585b1a5e995960921b60648201526084015b60405180910390fd5b600054610100900460ff161580156109b5576000805461ffff19166101011790555b6000805462010000600160b01b031916620100006001600160a01b038681169190910291909117909155600180546001600160a01b0319169184169190911790558015610a08576000805461ff00191690555b505050565b604080518082018252600080825260208201526001549151634a7906b960e01b81526004810184905290916001600160a01b031690634a7906b9906024016040805180830381865afa158015610a67573d6000803e3d6000fd5b505050506040513d601f19601f820116820180604052508101906105bc919061211b565b604080518082018252600080825260208201526001549151635440522b60e01b81526004810184905290916001600160a01b031690635440522b906024016040805180830381865afa158015610ae5573d6000803e3d6000fd5b505050506040513d601f19601f820116820180604052508101906105bc9190612172565b600154604051632fbcce6360e11b8152600481018390526060916001600160a01b031690635f799cc690602401600060405180830381865afa158015610b53573d6000803e3d6000fd5b505050506040513d6000823e601f3d908101601f191682016040526105bc919081019061218e565b60008054604051636b87086360e11b81526004810185905260248101849052606092916201000090046001600160a01b03169063d70e10c690604401602060405180830381865afa158015610bd4573d6000803e3d6000fd5b505050506040513d601f19601f82011682018060405250810190610bf89190611eda565b600154604051639037c0f960e01b8152600481018390529192506001600160a01b031690639037c0f990602401600060405180830381865afa158015610c42573d6000803e3d6000fd5b505050506040513d6000823e601f3d908101601f191682016040526105b891908101906121c2565b60008054604051636b87086360e11b81526004810185905260248101849052606092916201000090046001600160a01b03169063d70e10c690604401602060405180830381865afa158015610cc3573d6000803e3d6000fd5b505050506040513d601f19601f82011682018060405250810190610ce79190611eda565b600154604051635c369ec360e01b8152600481018390529192506001600160a01b031690635c369ec390602401600060405180830381865afa158015610d31573d6000803e3d6000fd5b505050506040513d6000823e601f3d908101601f191682016040526105b89190810190612252565b610d6660408201826122e0565b9050610d7560208301836122e0565b905014610dba5760405162461bcd60e51b8152602060048201526013602482015272082e4e4c2f298cadccee8d09ad2e6dac2e8c6d606b1b604482015260640161098a565b60005b610dca60208301836122e0565b9050811015610f0257600054604080516080810190915283358152620100009091046001600160a01b03169063188b04b390602080820190610e0e908701876122e0565b86818110610e1e57610e1e611ea9565b90506020020135815260200185608001358152602001858060400190610e4491906122e0565b86818110610e5457610e54611ea9565b9050602002810190610e669190612330565b8080601f01602080910402602001604051908101604052809392919081815260200183838082843760009201919091525050509152506040516001600160e01b031960e084901b168152610ebd9190600401612376565b600060405180830381600087803b158015610ed757600080fd5b505af1158015610eeb573d6000803e3d6000fd5b505050508080610efa90611ebf565b915050610dbd565b5060005b610f1360608301836122e0565b905081101561100e5760005460408051606080820190925284358152620100009092046001600160a01b03169163f6479d77916020820190610f57908701876122e0565b86818110610f6757610f67611ea9565b9050602002016020810190610f7c91906123af565b6001600160a01b0390811682526080870135602092830152604080516001600160e01b031960e087901b1681528451600482015292840151909116602483015291909101516044820152606401600060405180830381600087803b158015610fe357600080fd5b505af1158015610ff7573d6000803e3d6000fd5b50505050808061100690611ebf565b915050610f06565b5050565b60008054604051636b87086360e11b81526004810185905260248101849052606092916201000090046001600160a01b03169063d70e10c690604401602060405180830381865afa15801561106b573d6000803e3d6000fd5b505050506040513d601f19601f8201168201806040525081019061108f9190611eda565b60015460405163ba27f58d60e01b8152600481018390529192506000916001600160a01b039091169063ba27f58d90602401600060405180830381865afa1580156110de573d6000803e3d6000fd5b505050506040513d6000823e601f3d908101601f191682016040526111069190810190611fcb565b80519091506000805b8281101561115e5761113984828151811061112c5761112c611ea9565b6020026020010151611720565b1561114c578161114881611ebf565b9250505b8061115681611ebf565b91505061110f565b50806001600160401b0381111561117757611177611b8a565b6040519080825280602002602001820160405280156111a0578160200160208202803683370190505b5094506000805b83811015611220576111c485828151811061112c5761112c611ea9565b1561120e578481815181106111db576111db611ea9565b60200260200101518783815181106111f5576111f5611ea9565b60209081029190910101528161120a81611ebf565b9250505b8061121881611ebf565b9150506111a7565b50505050505092915050565b600080546201000090046001600160a01b0316632abc6bf661125160208501856123af565b6040516001600160e01b031960e084901b1681526001600160a01b039091166004820152602401602060405180830381865afa158015611295573d6000803e3d6000fd5b505050506040513d601f19601f820116820180604052508101906112b99190611eda565b905080611497576000546040805160a08101909152620100009091046001600160a01b03169063cd69fe6190806112f360208701876123af565b6001600160a01b031681526020018580602001906113119190612330565b8080601f0160208091040260200160405190810160405280939291908181526020018383808284376000920191909152505050908252506020016113586040870187612330565b8080601f01602080910402602001604051908101604052809392919081815260200183838082843760009201829052509385525050506020808301919091526040805180820182526002815261060f60f31b9281019290925291820152516001600160e01b031960e084901b1681526113d491906004016123cc565b600060405180830381600087803b1580156113ee57600080fd5b505af1158015611402573d6000803e3d6000fd5b50506000546201000090046001600160a01b03169150632abc6bf6905061142c60208501856123af565b6040516001600160e01b031960e084901b1681526001600160a01b039091166004820152602401602060405180830381865afa158015611470573d6000803e3d6000fd5b505050506040513d601f19601f820116820180604052508101906114949190611eda565b90505b60005b6114a760608401846122e0565b9050811015610a0857600080546201000090046001600160a01b0316632abc6bf66114d560608701876122e0565b858181106114e5576114e5611ea9565b90506020020160208101906114fa91906123af565b6040516001600160e01b031960e084901b1681526001600160a01b039091166004820152602401602060405180830381865afa15801561153e573d6000803e3d6000fd5b505050506040513d601f19601f820116820180604052508101906115629190611eda565b90508061165757600060029054906101000a90046001600160a01b03166001600160a01b031663f6479d7760405180606001604052808681526020018780606001906115ae91906122e0565b878181106115be576115be611ea9565b90506020020160208101906115d391906123af565b6001600160a01b0390811682526080890135602092830152604080516001600160e01b031960e087901b1681528451600482015292840151909116602483015291909101516044820152606401600060405180830381600087803b15801561163a57600080fd5b505af115801561164e573d6000803e3d6000fd5b505050506116f7565b600054604080516080808201835286825260208083018690529088013582840152825180840184526002815261060f60f31b918101919091526060820152905163188b04b360e01b8152620100009092046001600160a01b03169163188b04b3916116c491600401612376565b600060405180830381600087803b1580156116de57600080fd5b505af11580156116f2573d6000803e3d6000fd5b505050505b508061170281611ebf565b91505061149a565b600081831061171957816104c2565b5090919050565b6000805460405163dabb053160e01b815260048101849052620100009091046001600160a01b03169063dabb053190602401600060405180830381865afa15801561176f573d6000803e3d6000fd5b505050506040513d6000823e601f3d908101601f191682016040526117979190810190611cb8565b51151592915050565b604080516101008101825260008082526020820181905260609282018390529181018290526080810182905260a0810182905260c0810182905260e081019190915290565b6000806000606084860312156117fa57600080fd5b505081359360208301359350604090920135919050565b60005b8381101561182c578181015183820152602001611814565b8381111561183b576000848401525b50505050565b60008151808452611859816020860160208601611811565b601f01601f19169290920160200192915050565b60006020808301818452808551808352604092508286019150828160051b87010184880160005b8381101561192a57603f1989840301855281516101008151855288820151898601528782015181898701526118cb82870182611841565b6060848101516001600160a01b039081169189019190915260808086015182169089015260a0808601519091169088015260c08085015115159088015260e0938401511515939096019290925250509386019390860190600101611894565b509098975050505050505050565b6000806040838503121561194b57600080fd5b50508035926020909101359150565b6000602080830181845280855180835260408601915060408160051b870101925083870160005b828110156119af57603f1988860301845261199d858351611841565b94509285019290850190600101611981565b5092979650505050505050565b6020808252825182820181905260009190848201906040850190845b818110156119f4578351835292840192918401916001016119d8565b50909695505050505050565b600060208284031215611a1257600080fd5b5035919050565b6001600160a01b0381168114611a2e57600080fd5b50565b60008060408385031215611a4457600080fd5b8235611a4f81611a19565b91506020830135611a5f81611a19565b809150509250929050565b81516001600160a01b0316815260208083015190820152604081016105bc565b6020815260006104c26020830184611841565b602080825282518282018190526000919060409081850190868401855b82811015611af057611ae084835180516001600160a01b03168252602090810151910152565b9284019290850190600101611aba565b5091979650505050505050565b6020808252825182820181905260009190848201906040850190845b818110156119f45783516001600160a01b031683529284019291840191600101611b19565b600060a08284031215611b5057600080fd5b50919050565b600060208284031215611b6857600080fd5b81356001600160401b03811115611b7e57600080fd5b6105b884828501611b3e565b634e487b7160e01b600052604160045260246000fd5b60405160c081016001600160401b0381118282101715611bc257611bc2611b8a565b60405290565b60405161010081016001600160401b0381118282101715611bc257611bc2611b8a565b604080519081016001600160401b0381118282101715611bc257611bc2611b8a565b604051601f8201601f191681016001600160401b0381118282101715611c3557611c35611b8a565b604052919050565b600082601f830112611c4e57600080fd5b81516001600160401b03811115611c6757611c67611b8a565b611c7a601f8201601f1916602001611c0d565b818152846020838601011115611c8f57600080fd5b611ca0826020830160208701611811565b949350505050565b8051611cb381611a19565b919050565b600060208284031215611cca57600080fd5b81516001600160401b0380821115611ce157600080fd5b9083019060c08286031215611cf557600080fd5b611cfd611ba0565b82518152602083015182811115611d1357600080fd5b611d1f87828601611c3d565b602083015250604083015182811115611d3757600080fd5b611d4387828601611c3d565b60408301525060608301516060820152611d5f60808401611ca8565b6080820152611d7060a08401611ca8565b60a082015295945050505050565b634e487b7160e01b600052601160045260246000fd5b600082821015611da657611da6611d7e565b500390565b60008219821115611dbe57611dbe611d7e565b500190565b80518015158114611cb357600080fd5b600060208284031215611de557600080fd5b81516001600160401b0380821115611dfc57600080fd5b908301906101008286031215611e1157600080fd5b611e19611bc8565b8251815260208301516020820152604083015182811115611e3957600080fd5b611e4587828601611c3d565b604083015250611e5760608401611ca8565b6060820152611e6860808401611ca8565b6080820152611e7960a08401611ca8565b60a0820152611e8a60c08401611dc3565b60c0820152611e9b60e08401611dc3565b60e082015295945050505050565b634e487b7160e01b600052603260045260246000fd5b6000600019821415611ed357611ed3611d7e565b5060010190565b600060208284031215611eec57600080fd5b5051919050565b60006001600160401b03821115611f0c57611f0c611b8a565b5060051b60200190565b60006020808385031215611f2957600080fd5b82516001600160401b0380821115611f4057600080fd5b818501915085601f830112611f5457600080fd5b8151611f67611f6282611ef3565b611c0d565b81815260059190911b83018401908481019088831115611f8657600080fd5b8585015b83811015611fbe57805185811115611fa25760008081fd5b611fb08b89838a0101611c3d565b845250918601918601611f8a565b5098975050505050505050565b60006020808385031215611fde57600080fd5b82516001600160401b03811115611ff457600080fd5b8301601f8101851361200557600080fd5b8051612013611f6282611ef3565b81815260059190911b8201830190838101908783111561203257600080fd5b928401925b8284101561205057835182529284019290840190612037565b979650505050505050565b60006040828403121561206d57600080fd5b612075611beb565b9050815181526020820151602082015292915050565b6000602080838503121561209e57600080fd5b82516001600160401b038111156120b457600080fd5b8301601f810185136120c557600080fd5b80516120d3611f6282611ef3565b81815260069190911b820183019083810190878311156120f257600080fd5b928401925b8284101561205057612109888561205b565b825284820191506040840193506120f7565b60006040828403121561212d57600080fd5b6104c2838361205b565b60006040828403121561214957600080fd5b612151611beb565b9050815161215e81611a19565b808252506020820151602082015292915050565b60006040828403121561218457600080fd5b6104c28383612137565b6000602082840312156121a057600080fd5b81516001600160401b038111156121b657600080fd5b6105b884828501611c3d565b600060208083850312156121d557600080fd5b82516001600160401b038111156121eb57600080fd5b8301601f810185136121fc57600080fd5b805161220a611f6282611ef3565b81815260069190911b8201830190838101908783111561222957600080fd5b928401925b82841015612050576122408885612137565b8252848201915060408401935061222e565b6000602080838503121561226557600080fd5b82516001600160401b0381111561227b57600080fd5b8301601f8101851361228c57600080fd5b805161229a611f6282611ef3565b81815260059190911b820183019083810190878311156122b957600080fd5b928401925b828410156120505783516122d181611a19565b825292840192908401906122be565b6000808335601e198436030181126122f757600080fd5b8301803591506001600160401b0382111561231157600080fd5b6020019150600581901b360382131561232957600080fd5b9250929050565b6000808335601e1984360301811261234757600080fd5b8301803591506001600160401b0382111561236157600080fd5b60200191503681900382131561232957600080fd5b60208152815160208201526020820151604082015260408201516060820152600060608301516080808401526105b860a0840182611841565b6000602082840312156123c157600080fd5b81356104c281611a19565b60208152600060018060a01b03808451166020840152602084015160a060408501526123fb60c0850182611841565b90506040850151601f19808684030160608701526124198383611841565b925083606088015116608087015260808701519350808684030160a087015250506124448183611841565b9594505050505056fea2646970667358221220fb05df0c2e155842cecbb77a44c3ba716ab350ff04b3aad7905a3ab1c9bf827764736f6c634300080a0033",
    "linkReferences": {},
    "deployedLinkReferences": {}
}