{
    "_format": "hh-sol-artifact-1",
    "contractName": "Periphery",
    "sourceName": "contracts/misc/Periphery.sol",
    "abi": [
        {
            "inputs": [
                {
                    "components": [
                        {
                            "internalType": "string",
                            "name": "handle",
                            "type": "string"
                        },
                        {
                            "internalType": "string",
                            "name": "uri",
                            "type": "string"
                        },
                        {
                            "internalType": "address",
                            "name": "profileLinkModule",
                            "type": "address"
                        },
                        {
                            "internalType": "bytes",
                            "name": "profileLinkModuleInitData",
                            "type": "bytes"
                        },
                        {
                            "internalType": "string",
                            "name": "contentUri",
                            "type": "string"
                        },
                        {
                            "internalType": "address",
                            "name": "noteLinkModule",
                            "type": "address"
                        },
                        {
                            "internalType": "bytes",
                            "name": "noteLinkModuleInitData",
                            "type": "bytes"
                        },
                        {
                            "internalType": "address",
                            "name": "mintModule",
                            "type": "address"
                        },
                        {
                            "internalType": "bytes",
                            "name": "mintModuleInitData",
                            "type": "bytes"
                        },
                        {
                            "internalType": "bool",
                            "name": "locked",
                            "type": "bool"
                        }
                    ],
                    "internalType": "struct DataTypes.createProfileThenPostNoteData",
                    "name": "vars",
                    "type": "tuple"
                }
            ],
            "name": "createProfileThenPostNote",
            "outputs": [],
            "stateMutability": "nonpayable",
            "type": "function"
        },
        {
            "inputs": [
                {
                    "internalType": "bytes32",
                    "name": "linkKey",
                    "type": "bytes32"
                }
            ],
            "name": "getLinkingAnyUri",
            "outputs": [
                {
                    "internalType": "string",
                    "name": "",
                    "type": "string"
                }
            ],
            "stateMutability": "view",
            "type": "function"
        },
        {
            "inputs": [
                {
                    "internalType": "uint256",
                    "name": "fromProfileId",
                    "type": "uint256"
                },
                {
                    "internalType": "bytes32",
                    "name": "linkType",
                    "type": "bytes32"
                }
            ],
            "name": "getLinkingAnyUris",
            "outputs": [
                {
                    "internalType": "string[]",
                    "name": "results",
                    "type": "string[]"
                }
            ],
            "stateMutability": "view",
            "type": "function"
        },
        {
            "inputs": [
                {
                    "internalType": "bytes32",
                    "name": "linkKey",
                    "type": "bytes32"
                }
            ],
            "name": "getLinkingERC721",
            "outputs": [
                {
                    "components": [
                        {
                            "internalType": "address",
                            "name": "tokenAddress",
                            "type": "address"
                        },
                        {
                            "internalType": "uint256",
                            "name": "erc721TokenId",
                            "type": "uint256"
                        }
                    ],
                    "internalType": "struct DataTypes.ERC721Struct",
                    "name": "",
                    "type": "tuple"
                }
            ],
            "stateMutability": "view",
            "type": "function"
        },
        {
            "inputs": [
                {
                    "internalType": "uint256",
                    "name": "fromProfileId",
                    "type": "uint256"
                },
                {
                    "internalType": "bytes32",
                    "name": "linkType",
                    "type": "bytes32"
                }
            ],
            "name": "getLinkingERC721s",
            "outputs": [
                {
                    "components": [
                        {
                            "internalType": "address",
                            "name": "tokenAddress",
                            "type": "address"
                        },
                        {
                            "internalType": "uint256",
                            "name": "erc721TokenId",
                            "type": "uint256"
                        }
                    ],
                    "internalType": "struct DataTypes.ERC721Struct[]",
                    "name": "results",
                    "type": "tuple[]"
                }
            ],
            "stateMutability": "view",
            "type": "function"
        },
        {
            "inputs": [
                {
                    "internalType": "bytes32",
                    "name": "linkKey",
                    "type": "bytes32"
                }
            ],
            "name": "getLinkingNote",
            "outputs": [
                {
                    "components": [
                        {
                            "internalType": "uint256",
                            "name": "profileId",
                            "type": "uint256"
                        },
                        {
                            "internalType": "uint256",
                            "name": "noteId",
                            "type": "uint256"
                        }
                    ],
                    "internalType": "struct DataTypes.NoteStruct",
                    "name": "",
                    "type": "tuple"
                }
            ],
            "stateMutability": "view",
            "type": "function"
        },
        {
            "inputs": [
                {
                    "internalType": "uint256",
                    "name": "fromProfileId",
                    "type": "uint256"
                },
                {
                    "internalType": "bytes32",
                    "name": "linkType",
                    "type": "bytes32"
                }
            ],
            "name": "getLinkingNotes",
            "outputs": [
                {
                    "components": [
                        {
                            "internalType": "bytes32",
                            "name": "linkItemType",
                            "type": "bytes32"
                        },
                        {
                            "internalType": "bytes32",
                            "name": "linkKey",
                            "type": "bytes32"
                        },
                        {
                            "internalType": "string",
                            "name": "contentUri",
                            "type": "string"
                        },
                        {
                            "internalType": "address",
                            "name": "linkModule",
                            "type": "address"
                        },
                        {
                            "internalType": "address",
                            "name": "mintModule",
                            "type": "address"
                        },
                        {
                            "internalType": "address",
                            "name": "mintNFT",
                            "type": "address"
                        },
                        {
                            "internalType": "bool",
                            "name": "deleted",
                            "type": "bool"
                        },
                        {
                            "internalType": "bool",
                            "name": "locked",
                            "type": "bool"
                        }
                    ],
                    "internalType": "struct DataTypes.Note[]",
                    "name": "results",
                    "type": "tuple[]"
                }
            ],
            "stateMutability": "view",
            "type": "function"
        },
        {
            "inputs": [
                {
                    "internalType": "uint256",
                    "name": "fromProfileId",
                    "type": "uint256"
                },
                {
                    "internalType": "bytes32",
                    "name": "linkType",
                    "type": "bytes32"
                }
            ],
            "name": "getLinkingProfileIds",
            "outputs": [
                {
                    "internalType": "uint256[]",
                    "name": "results",
                    "type": "uint256[]"
                }
            ],
            "stateMutability": "view",
            "type": "function"
        },
        {
            "inputs": [
                {
                    "internalType": "address",
                    "name": "_web3Entry",
                    "type": "address"
                },
                {
                    "internalType": "address",
                    "name": "_linklist",
                    "type": "address"
                }
            ],
            "name": "initialize",
            "outputs": [],
            "stateMutability": "nonpayable",
            "type": "function"
        },
        {
            "inputs": [
                {
                    "components": [
                        {
                            "internalType": "uint256",
                            "name": "fromProfileId",
                            "type": "uint256"
                        },
                        {
                            "internalType": "uint256[]",
                            "name": "toProfileIds",
                            "type": "uint256[]"
                        },
                        {
                            "internalType": "bytes[]",
                            "name": "data",
                            "type": "bytes[]"
                        },
                        {
                            "internalType": "address[]",
                            "name": "toAddresses",
                            "type": "address[]"
                        },
                        {
                            "internalType": "bytes32",
                            "name": "linkType",
                            "type": "bytes32"
                        }
                    ],
                    "internalType": "struct DataTypes.linkProfilesInBatchData",
                    "name": "vars",
                    "type": "tuple"
                }
            ],
            "name": "linkProfilesInBatch",
            "outputs": [],
            "stateMutability": "nonpayable",
            "type": "function"
        },
        {
            "inputs": [],
            "name": "linklist",
            "outputs": [
                {
                    "internalType": "address",
                    "name": "",
                    "type": "address"
                }
            ],
            "stateMutability": "view",
            "type": "function"
        },
        {
            "inputs": [],
            "name": "web3Entry",
            "outputs": [
                {
                    "internalType": "address",
                    "name": "",
                    "type": "address"
                }
            ],
            "stateMutability": "view",
            "type": "function"
        }
    ],
    "bytecode": "0x608060405234801561001057600080fd5b50611e68806100206000396000f3fe608060405234801561001057600080fd5b50600436106100b45760003560e01c80635428b931116100715780635428b9311461017f5780635440522b146101925780635f799cc6146101b257806362c3ed30146101d257806363c00875146101f2578063e13322721461021257600080fd5b806306bee8d4146100b95780631964a421146100e95780632c422599146101095780633c4c447a14610129578063485cc9551461013e5780634a7906b914610151575b600080fd5b6001546100cc906001600160a01b031681565b6040516001600160a01b0390911681526020015b60405180910390f35b6100fc6100f73660046111fe565b61022b565b6040516100e0919061127c565b61011c6101173660046111fe565b610324565b6040516100e091906112de565b61013c6101373660046113a9565b6105b6565b005b61013c61014c366004611402565b610874565b61016461015f36600461143b565b610970565b604080518251815260209283015192810192909252016100e0565b61013c61018d366004611454565b6109ee565b6101a56101a036600461143b565b610d85565b6040516100e0919061148f565b6101c56101c036600461143b565b610e03565b6040516100e091906114af565b6101e56101e03660046111fe565b610e75565b6040516100e091906114c2565b6102056102003660046111fe565b610f64565b6040516100e09190611522565b6000546100cc906201000090046001600160a01b031681565b60008054604051636b87086360e11b81526004810185905260248101849052606092916201000090046001600160a01b03169063d70e10c690604401602060405180830381865afa158015610284573d6000803e3d6000fd5b505050506040513d601f19601f820116820180604052508101906102a89190611566565b60015460405163732795d560e11b8152600481018390529192506001600160a01b03169063e64f2baa90602401600060405180830381865afa1580156102f2573d6000803e3d6000fd5b505050506040513d6000823e601f3d908101601f1916820160405261031a91908101906116c0565b9150505b92915050565b60008054604051636b87086360e11b81526004810185905260248101849052606092916201000090046001600160a01b03169063d70e10c690604401602060405180830381865afa15801561037d573d6000803e3d6000fd5b505050506040513d601f19601f820116820180604052508101906103a19190611566565b600154604051635e9f678b60e01b8152600481018390529192506000916001600160a01b0390911690635e9f678b90602401600060405180830381865afa1580156103f0573d6000803e3d6000fd5b505050506040513d6000823e601f3d908101601f1916820160405261041891908101906117a5565b905080516001600160401b038111156104335761043361157f565b6040519080825280602002602001820160405280156104a357816020015b60408051610100810182526000808252602080830182905260609383018490529282018190526080820181905260a0820181905260c0820181905260e082015282526000199092019101816104515790505b50925060005b81518110156105ad57600060029054906101000a90046001600160a01b03166001600160a01b031663db491e808383815181106104e8576104e8611840565b60200260200101516000015184848151811061050657610506611840565b6020026020010151602001516040518363ffffffff1660e01b8152600401610538929190918252602082015260400190565b600060405180830381865afa158015610555573d6000803e3d6000fd5b505050506040513d6000823e601f3d908101601f1916820160405261057d919081019061187f565b84828151811061058f5761058f611840565b602002602001018190525080806105a590611955565b9150506104a9565b50505092915050565b6105c3604082018261197e565b90506105d2602083018361197e565b90501461061c5760405162461bcd60e51b8152602060048201526013602482015272082e4e4c2f298cadccee8d09ad2e6dac2e8c6d606b1b60448201526064015b60405180910390fd5b60005b61062c602083018361197e565b905081101561076457600054604080516080810190915283358152620100009091046001600160a01b03169063a914c76e906020808201906106709087018761197e565b8681811061068057610680611840565b905060200201358152602001856080013581526020018580604001906106a6919061197e565b868181106106b6576106b6611840565b90506020028101906106c891906119ce565b8080601f01602080910402602001604051908101604052809392919081815260200183838082843760009201919091525050509152506040516001600160e01b031960e084901b16815261071f9190600401611a14565b600060405180830381600087803b15801561073957600080fd5b505af115801561074d573d6000803e3d6000fd5b50505050808061075c90611955565b91505061061f565b5060005b610775606083018361197e565b90508110156108705760005460408051606080820190925284358152620100009092046001600160a01b031691630ab6beba9160208201906107b99087018761197e565b868181106107c9576107c9611840565b90506020020160208101906107de9190611a4d565b6001600160a01b0390811682526080870135602092830152604080516001600160e01b031960e087901b1681528451600482015292840151909116602483015291909101516044820152606401600060405180830381600087803b15801561084557600080fd5b505af1158015610859573d6000803e3d6000fd5b50505050808061086890611955565b915050610768565b5050565b600054610100900460ff1661088f5760005460ff1615610893565b303b155b6108f65760405162461bcd60e51b815260206004820152602e60248201527f496e697469616c697a61626c653a20636f6e747261637420697320616c72656160448201526d191e481a5b9a5d1a585b1a5e995960921b6064820152608401610613565b600054610100900460ff16158015610918576000805461ffff19166101011790555b6000805462010000600160b01b031916620100006001600160a01b038681169190910291909117909155600180546001600160a01b031916918416919091179055801561096b576000805461ff00191690555b505050565b604080518082018252600080825260208201526001549151634a7906b960e01b81526004810184905290916001600160a01b031690634a7906b9906024016040805180830381865afa1580156109ca573d6000803e3d6000fd5b505050506040513d601f19601f8201168201806040525081019061031e9190611a6a565b6000546040805160a08101909152338152620100009091046001600160a01b03169063bd5f69cb9060208101610a2485806119ce565b8080601f016020809104026020016040519081016040528093929190818152602001838380828437600092019190915250505090825250602090810190610a6d908601866119ce565b8080601f016020809104026020016040519081016040528093929190818152602001838380828437600092019190915250505090825250602001610ab76060860160408701611a4d565b6001600160a01b03168152602001610ad260608601866119ce565b8080601f01602080910402602001604051908101604052809392919081815260200183838082843760009201919091525050509152506040516001600160e01b031960e084901b168152610b299190600401611a86565b600060405180830381600087803b158015610b4357600080fd5b505af1158015610b57573d6000803e3d6000fd5b505060008054604051631bb4d23160e01b81523360048201529193506201000090046001600160a01b03169150631bb4d23190602401602060405180830381865afa158015610baa573d6000803e3d6000fd5b505050506040513d601f19601f82011682018060405250810190610bce9190611566565b6000546040805160e081019091528281529192506201000090046001600160a01b0316906329c301c29060208101610c0960808701876119ce565b8080601f016020809104026020016040519081016040528093929190818152602001838380828437600092019190915250505090825250602001610c5360c0870160a08801611a4d565b6001600160a01b03168152602001610c6e60c08701876119ce565b8080601f016020809104026020016040519081016040528093929190818152602001838380828437600092019190915250505090825250602001610cb9610100870160e08801611a4d565b6001600160a01b03168152602001610cd56101008701876119ce565b8080601f016020809104026020016040519081016040528093929190818152602001838380828437600092019190915250505090825250602001610d2161014087016101208801611b07565b15158152506040518263ffffffff1660e01b8152600401610d429190611b24565b6020604051808303816000875af1158015610d61573d6000803e3d6000fd5b505050506040513d601f19601f8201168201806040525081019061096b9190611566565b604080518082018252600080825260208201526001549151635440522b60e01b81526004810184905290916001600160a01b031690635440522b906024016040805180830381865afa158015610ddf573d6000803e3d6000fd5b505050506040513d601f19601f8201168201806040525081019061031e9190611c07565b600154604051632fbcce6360e11b8152600481018390526060916001600160a01b031690635f799cc690602401600060405180830381865afa158015610e4d573d6000803e3d6000fd5b505050506040513d6000823e601f3d908101601f1916820160405261031e9190810190611c23565b60008054604051636b87086360e11b81526004810185905260248101849052606092916201000090046001600160a01b03169063d70e10c690604401602060405180830381865afa158015610ece573d6000803e3d6000fd5b505050506040513d601f19601f82011682018060405250810190610ef29190611566565b600154604051639037c0f960e01b8152600481018390529192506001600160a01b031690639037c0f990602401600060405180830381865afa158015610f3c573d6000803e3d6000fd5b505050506040513d6000823e601f3d908101601f1916820160405261031a9190810190611c57565b60008054604051636b87086360e11b81526004810185905260248101849052606092916201000090046001600160a01b03169063d70e10c690604401602060405180830381865afa158015610fbd573d6000803e3d6000fd5b505050506040513d601f19601f82011682018060405250810190610fe19190611566565b60015460405163a72d231760e01b8152600481018390529192506000916001600160a01b039091169063a72d231790602401600060405180830381865afa158015611030573d6000803e3d6000fd5b505050506040513d6000823e601f3d908101601f191682016040526110589190810190611ce7565b80519091506000805b828110156110b05761108b84828151811061107e5761107e611840565b602002602001015161117e565b1561109e578161109a81611955565b9250505b806110a881611955565b915050611061565b50806001600160401b038111156110c9576110c961157f565b6040519080825280602002602001820160405280156110f2578160200160208202803683370190505b5094506000805b838110156111725761111685828151811061107e5761107e611840565b156111605784818151811061112d5761112d611840565b602002602001015187838151811061114757611147611840565b60209081029190910101528161115c81611955565b9250505b8061116a81611955565b9150506110f9565b50505050505092915050565b60008054604051633c23d3d960e21b815260048101849052620100009091046001600160a01b03169063f08f4f6490602401600060405180830381865afa1580156111cd573d6000803e3d6000fd5b505050506040513d6000823e601f3d908101601f191682016040526111f59190810190611d6c565b51151592915050565b6000806040838503121561121157600080fd5b50508035926020909101359150565b60005b8381101561123b578181015183820152602001611223565b8381111561124a576000848401525b50505050565b60008151808452611268816020860160208601611220565b601f01601f19169290920160200192915050565b6000602080830181845280855180835260408601915060408160051b870101925083870160005b828110156112d157603f198886030184526112bf858351611250565b945092850192908501906001016112a3565b5092979650505050505050565b60006020808301818452808551808352604092508286019150828160051b87010184880160005b8381101561139b57603f19898403018552815161010081518552888201518986015287820151818987015261133c82870182611250565b6060848101516001600160a01b039081169189019190915260808086015182169089015260a0808601519091169088015260c08085015115159088015260e0938401511515939096019290925250509386019390860190600101611305565b509098975050505050505050565b6000602082840312156113bb57600080fd5b81356001600160401b038111156113d157600080fd5b820160a081850312156113e357600080fd5b9392505050565b6001600160a01b03811681146113ff57600080fd5b50565b6000806040838503121561141557600080fd5b8235611420816113ea565b91506020830135611430816113ea565b809150509250929050565b60006020828403121561144d57600080fd5b5035919050565b60006020828403121561146657600080fd5b81356001600160401b0381111561147c57600080fd5b820161014081850312156113e357600080fd5b81516001600160a01b03168152602080830151908201526040810161031e565b6020815260006113e36020830184611250565b602080825282518282018190526000919060409081850190868401855b828110156115155761150584835180516001600160a01b03168252602090810151910152565b92840192908501906001016114df565b5091979650505050505050565b6020808252825182820181905260009190848201906040850190845b8181101561155a5783518352928401929184019160010161153e565b50909695505050505050565b60006020828403121561157857600080fd5b5051919050565b634e487b7160e01b600052604160045260246000fd5b604080519081016001600160401b03811182821017156115b7576115b761157f565b60405290565b60405161010081016001600160401b03811182821017156115b7576115b761157f565b60405160c081016001600160401b03811182821017156115b7576115b761157f565b604051601f8201601f191681016001600160401b038111828210171561162a5761162a61157f565b604052919050565b60006001600160401b0382111561164b5761164b61157f565b5060051b60200190565b600082601f83011261166657600080fd5b81516001600160401b0381111561167f5761167f61157f565b611692601f8201601f1916602001611602565b8181528460208386010111156116a757600080fd5b6116b8826020830160208701611220565b949350505050565b600060208083850312156116d357600080fd5b82516001600160401b03808211156116ea57600080fd5b818501915085601f8301126116fe57600080fd5b815161171161170c82611632565b611602565b81815260059190911b8301840190848101908883111561173057600080fd5b8585015b838110156117685780518581111561174c5760008081fd5b61175a8b89838a0101611655565b845250918601918601611734565b5098975050505050505050565b60006040828403121561178757600080fd5b61178f611595565b9050815181526020820151602082015292915050565b600060208083850312156117b857600080fd5b82516001600160401b038111156117ce57600080fd5b8301601f810185136117df57600080fd5b80516117ed61170c82611632565b81815260069190911b8201830190838101908783111561180c57600080fd5b928401925b82841015611835576118238885611775565b82528482019150604084019350611811565b979650505050505050565b634e487b7160e01b600052603260045260246000fd5b8051611861816113ea565b919050565b80151581146113ff57600080fd5b805161186181611866565b60006020828403121561189157600080fd5b81516001600160401b03808211156118a857600080fd5b9083019061010082860312156118bd57600080fd5b6118c56115bd565b82518152602083015160208201526040830151828111156118e557600080fd5b6118f187828601611655565b60408301525061190360608401611856565b606082015261191460808401611856565b608082015261192560a08401611856565b60a082015261193660c08401611874565b60c082015261194760e08401611874565b60e082015295945050505050565b600060001982141561197757634e487b7160e01b600052601160045260246000fd5b5060010190565b6000808335601e1984360301811261199557600080fd5b8301803591506001600160401b038211156119af57600080fd5b6020019150600581901b36038213156119c757600080fd5b9250929050565b6000808335601e198436030181126119e557600080fd5b8301803591506001600160401b038211156119ff57600080fd5b6020019150368190038213156119c757600080fd5b602081528151602082015260208201516040820152604082015160608201526000606083015160808084015261031a60a0840182611250565b600060208284031215611a5f57600080fd5b81356113e3816113ea565b600060408284031215611a7c57600080fd5b6113e38383611775565b60208152600060018060a01b03808451166020840152602084015160a06040850152611ab560c0850182611250565b90506040850151601f1980868403016060870152611ad38383611250565b925083606088015116608087015260808701519350808684030160a08701525050611afe8183611250565b95945050505050565b600060208284031215611b1957600080fd5b81356113e381611866565b60208152815160208201526000602083015160e06040840152611b4b610100840182611250565b60408501516001600160a01b03908116606086810191909152860151858303601f19908101608088015292935091611b838484611250565b93508160808801511660a087015260a08701519250808685030160c08701525050611bae8282611250565b91505060c0840151611bc460e085018215159052565b509392505050565b600060408284031215611bde57600080fd5b611be6611595565b90508151611bf3816113ea565b808252506020820151602082015292915050565b600060408284031215611c1957600080fd5b6113e38383611bcc565b600060208284031215611c3557600080fd5b81516001600160401b03811115611c4b57600080fd5b61031a84828501611655565b60006020808385031215611c6a57600080fd5b82516001600160401b03811115611c8057600080fd5b8301601f81018513611c9157600080fd5b8051611c9f61170c82611632565b81815260069190911b82018301908381019087831115611cbe57600080fd5b928401925b8284101561183557611cd58885611bcc565b82528482019150604084019350611cc3565b60006020808385031215611cfa57600080fd5b82516001600160401b03811115611d1057600080fd5b8301601f81018513611d2157600080fd5b8051611d2f61170c82611632565b81815260059190911b82018301908381019087831115611d4e57600080fd5b928401925b8284101561183557835182529284019290840190611d53565b600060208284031215611d7e57600080fd5b81516001600160401b0380821115611d9557600080fd5b9083019060c08286031215611da957600080fd5b611db16115e0565b82518152602083015182811115611dc757600080fd5b611dd387828601611655565b602083015250604083015182811115611deb57600080fd5b611df787828601611655565b60408301525060608301516060820152611e1360808401611856565b6080820152611e2460a08401611856565b60a08201529594505050505056fea2646970667358221220935872a6b4a334c091c104925bf9d3e95cd8d4b7ab5ea5faf79332cbb69e5a1e64736f6c634300080a0033",
    "linkReferences": {},
    "deployedLinkReferences": {}
}