{
    "_format": "hh-sol-artifact-1",
    "contractName": "Periphery",
    "sourceName": "contracts/misc/Periphery.sol",
    "abi": [
        {
            "inputs": [
                {
                    "components": [
                        {
                            "internalType": "string",
                            "name": "handle",
                            "type": "string"
                        },
                        {
                            "internalType": "string",
                            "name": "uri",
                            "type": "string"
                        },
                        {
                            "internalType": "address",
                            "name": "profileLinkModule",
                            "type": "address"
                        },
                        {
                            "internalType": "bytes",
                            "name": "profileLinkModuleInitData",
                            "type": "bytes"
                        },
                        {
                            "internalType": "string",
                            "name": "contentUri",
                            "type": "string"
                        },
                        {
                            "internalType": "address",
                            "name": "noteLinkModule",
                            "type": "address"
                        },
                        {
                            "internalType": "bytes",
                            "name": "noteLinkModuleInitData",
                            "type": "bytes"
                        },
                        {
                            "internalType": "address",
                            "name": "mintModule",
                            "type": "address"
                        },
                        {
                            "internalType": "bytes",
                            "name": "mintModuleInitData",
                            "type": "bytes"
                        }
                    ],
                    "internalType": "struct DataTypes.createProfileThenPostNoteData",
                    "name": "vars",
                    "type": "tuple"
                }
            ],
            "name": "createProfileThenPostNote",
            "outputs": [],
            "stateMutability": "nonpayable",
            "type": "function"
        },
        {
            "inputs": [
                {
                    "internalType": "bytes32",
                    "name": "linkKey",
                    "type": "bytes32"
                }
            ],
            "name": "getLinkingAnyUri",
            "outputs": [
                {
                    "internalType": "string",
                    "name": "",
                    "type": "string"
                }
            ],
            "stateMutability": "view",
            "type": "function"
        },
        {
            "inputs": [
                {
                    "internalType": "uint256",
                    "name": "fromProfileId",
                    "type": "uint256"
                },
                {
                    "internalType": "bytes32",
                    "name": "linkType",
                    "type": "bytes32"
                }
            ],
            "name": "getLinkingAnyUris",
            "outputs": [
                {
                    "internalType": "string[]",
                    "name": "results",
                    "type": "string[]"
                }
            ],
            "stateMutability": "view",
            "type": "function"
        },
        {
            "inputs": [
                {
                    "internalType": "bytes32",
                    "name": "linkKey",
                    "type": "bytes32"
                }
            ],
            "name": "getLinkingERC721",
            "outputs": [
                {
                    "components": [
                        {
                            "internalType": "address",
                            "name": "tokenAddress",
                            "type": "address"
                        },
                        {
                            "internalType": "uint256",
                            "name": "erc721TokenId",
                            "type": "uint256"
                        }
                    ],
                    "internalType": "struct DataTypes.ERC721Struct",
                    "name": "",
                    "type": "tuple"
                }
            ],
            "stateMutability": "view",
            "type": "function"
        },
        {
            "inputs": [
                {
                    "internalType": "uint256",
                    "name": "fromProfileId",
                    "type": "uint256"
                },
                {
                    "internalType": "bytes32",
                    "name": "linkType",
                    "type": "bytes32"
                }
            ],
            "name": "getLinkingERC721s",
            "outputs": [
                {
                    "components": [
                        {
                            "internalType": "address",
                            "name": "tokenAddress",
                            "type": "address"
                        },
                        {
                            "internalType": "uint256",
                            "name": "erc721TokenId",
                            "type": "uint256"
                        }
                    ],
                    "internalType": "struct DataTypes.ERC721Struct[]",
                    "name": "results",
                    "type": "tuple[]"
                }
            ],
            "stateMutability": "view",
            "type": "function"
        },
        {
            "inputs": [
                {
                    "internalType": "bytes32",
                    "name": "linkKey",
                    "type": "bytes32"
                }
            ],
            "name": "getLinkingNote",
            "outputs": [
                {
                    "components": [
                        {
                            "internalType": "uint256",
                            "name": "profileId",
                            "type": "uint256"
                        },
                        {
                            "internalType": "uint256",
                            "name": "noteId",
                            "type": "uint256"
                        }
                    ],
                    "internalType": "struct DataTypes.NoteStruct",
                    "name": "",
                    "type": "tuple"
                }
            ],
            "stateMutability": "view",
            "type": "function"
        },
        {
            "inputs": [
                {
                    "internalType": "uint256",
                    "name": "fromProfileId",
                    "type": "uint256"
                },
                {
                    "internalType": "bytes32",
                    "name": "linkType",
                    "type": "bytes32"
                }
            ],
            "name": "getLinkingNotes",
            "outputs": [
                {
                    "components": [
                        {
                            "internalType": "bytes32",
                            "name": "linkItemType",
                            "type": "bytes32"
                        },
                        {
                            "internalType": "bytes32",
                            "name": "linkKey",
                            "type": "bytes32"
                        },
                        {
                            "internalType": "string",
                            "name": "contentUri",
                            "type": "string"
                        },
                        {
                            "internalType": "address",
                            "name": "linkModule",
                            "type": "address"
                        },
                        {
                            "internalType": "address",
                            "name": "mintModule",
                            "type": "address"
                        },
                        {
                            "internalType": "address",
                            "name": "mintNFT",
                            "type": "address"
                        },
                        {
                            "internalType": "bool",
                            "name": "deleted",
                            "type": "bool"
                        }
                    ],
                    "internalType": "struct DataTypes.Note[]",
                    "name": "results",
                    "type": "tuple[]"
                }
            ],
            "stateMutability": "view",
            "type": "function"
        },
        {
            "inputs": [
                {
                    "internalType": "uint256",
                    "name": "fromProfileId",
                    "type": "uint256"
                },
                {
                    "internalType": "bytes32",
                    "name": "linkType",
                    "type": "bytes32"
                }
            ],
            "name": "getLinkingProfileIds",
            "outputs": [
                {
                    "internalType": "uint256[]",
                    "name": "results",
                    "type": "uint256[]"
                }
            ],
            "stateMutability": "view",
            "type": "function"
        },
        {
            "inputs": [
                {
                    "internalType": "address",
                    "name": "_web3Entry",
                    "type": "address"
                },
                {
                    "internalType": "address",
                    "name": "_linklist",
                    "type": "address"
                }
            ],
            "name": "initialize",
            "outputs": [],
            "stateMutability": "nonpayable",
            "type": "function"
        },
        {
            "inputs": [
                {
                    "components": [
                        {
                            "internalType": "uint256",
                            "name": "fromProfileId",
                            "type": "uint256"
                        },
                        {
                            "internalType": "uint256[]",
                            "name": "toProfileIds",
                            "type": "uint256[]"
                        },
                        {
                            "internalType": "bytes[]",
                            "name": "data",
                            "type": "bytes[]"
                        },
                        {
                            "internalType": "address[]",
                            "name": "toAddresses",
                            "type": "address[]"
                        },
                        {
                            "internalType": "bytes32",
                            "name": "linkType",
                            "type": "bytes32"
                        }
                    ],
                    "internalType": "struct DataTypes.linkProfilesInBatchData",
                    "name": "vars",
                    "type": "tuple"
                }
            ],
            "name": "linkProfilesInBatch",
            "outputs": [],
            "stateMutability": "nonpayable",
            "type": "function"
        },
        {
            "inputs": [],
            "name": "linklist",
            "outputs": [
                {
                    "internalType": "address",
                    "name": "",
                    "type": "address"
                }
            ],
            "stateMutability": "view",
            "type": "function"
        },
        {
            "inputs": [],
            "name": "web3Entry",
            "outputs": [
                {
                    "internalType": "address",
                    "name": "",
                    "type": "address"
                }
            ],
            "stateMutability": "view",
            "type": "function"
        }
    ],
    "bytecode": "0x608060405234801561001057600080fd5b50611de9806100206000396000f3fe608060405234801561001057600080fd5b50600436106100b45760003560e01c80634a7906b9116100715780634a7906b9146101645780635440522b146101925780635f799cc6146101b257806362c3ed30146101d257806363c00875146101f2578063e13322721461021257600080fd5b806306bee8d4146100b957806312785b7b146100e95780631964a421146100fe5780632c4225991461011e5780633c4c447a1461013e578063485cc95514610151575b600080fd5b6001546100cc906001600160a01b031681565b6040516001600160a01b0390911681526020015b60405180910390f35b6100fc6100f73660046111e4565b61022b565b005b61011161010c366004611226565b6105b1565b6040516100e091906112a4565b61013161012c366004611226565b6106aa565b6040516100e09190611306565b6100fc61014c3660046113c4565b610934565b6100fc61015f366004611416565b610bf2565b61017761017236600461144f565b610ced565b604080518251815260209283015192810192909252016100e0565b6101a56101a036600461144f565b610d6b565b6040516100e09190611468565b6101c56101c036600461144f565b610de9565b6040516100e09190611488565b6101e56101e0366004611226565b610e5b565b6040516100e0919061149b565b610205610200366004611226565b610f4a565b6040516100e091906114fb565b6000546100cc906201000090046001600160a01b031681565b6000546040805160a08101909152338152620100009091046001600160a01b03169063bd5f69cb9060208101610261858061153f565b8080601f0160208091040260200160405190810160405280939291908181526020018383808284376000920191909152505050908252506020908101906102aa9086018661153f565b8080601f0160208091040260200160405190810160405280939291908181526020018383808284376000920191909152505050908252506020016102f4606086016040870161158c565b6001600160a01b0316815260200161030f606086018661153f565b8080601f01602080910402602001604051908101604052809392919081815260200183838082843760009201919091525050509152506040516001600160e01b031960e084901b16815261036691906004016115a9565b600060405180830381600087803b15801561038057600080fd5b505af1158015610394573d6000803e3d6000fd5b505060008054604051631bb4d23160e01b81523360048201529193506201000090046001600160a01b03169150631bb4d23190602401602060405180830381865afa1580156103e7573d6000803e3d6000fd5b505050506040513d601f19601f8201168201806040525081019061040b919061162a565b6000546040805160c081019091528281529192506201000090046001600160a01b03169063d36a2dce9060208101610446608087018761153f565b8080601f01602080910402602001604051908101604052809392919081815260200183838082843760009201919091525050509082525060200161049060c0870160a0880161158c565b6001600160a01b031681526020016104ab60c087018761153f565b8080601f0160208091040260200160405190810160405280939291908181526020018383808284376000920191909152505050908252506020016104f6610100870160e0880161158c565b6001600160a01b0316815260200161051261010087018761153f565b8080601f01602080910402602001604051908101604052809392919081815260200183838082843760009201919091525050509152506040516001600160e01b031960e084901b1681526105699190600401611643565b6020604051808303816000875af1158015610588573d6000803e3d6000fd5b505050506040513d601f19601f820116820180604052508101906105ac919061162a565b505050565b60008054604051636b87086360e11b81526004810185905260248101849052606092916201000090046001600160a01b03169063d70e10c690604401602060405180830381865afa15801561060a573d6000803e3d6000fd5b505050506040513d601f19601f8201168201806040525081019061062e919061162a565b60015460405163732795d560e11b8152600481018390529192506001600160a01b03169063e64f2baa90602401600060405180830381865afa158015610678573d6000803e3d6000fd5b505050506040513d6000823e601f3d908101601f191682016040526106a0919081019061180c565b9150505b92915050565b60008054604051636b87086360e11b81526004810185905260248101849052606092916201000090046001600160a01b03169063d70e10c690604401602060405180830381865afa158015610703573d6000803e3d6000fd5b505050506040513d601f19601f82011682018060405250810190610727919061162a565b600154604051635e9f678b60e01b8152600481018390529192506000916001600160a01b0390911690635e9f678b90602401600060405180830381865afa158015610776573d6000803e3d6000fd5b505050506040513d6000823e601f3d908101601f1916820160405261079e91908101906118f1565b905080516001600160401b038111156107b9576107b96116cc565b60405190808252806020026020018201604052801561082157816020015b6040805160e0810182526000808252602080830182905260609383018490529282018190526080820181905260a0820181905260c082015282526000199092019101816107d75790505b50925060005b815181101561092b57600060029054906101000a90046001600160a01b03166001600160a01b031663db491e808383815181106108665761086661198c565b6020026020010151600001518484815181106108845761088461198c565b6020026020010151602001516040518363ffffffff1660e01b81526004016108b6929190918252602082015260400190565b600060405180830381865afa1580156108d3573d6000803e3d6000fd5b505050506040513d6000823e601f3d908101601f191682016040526108fb91908101906119c2565b84828151811061090d5761090d61198c565b6020026020010181905250808061092390611a86565b915050610827565b50505092915050565b6109416040820182611aaf565b90506109506020830183611aaf565b90501461099a5760405162461bcd60e51b8152602060048201526013602482015272082e4e4c2f298cadccee8d09ad2e6dac2e8c6d606b1b60448201526064015b60405180910390fd5b60005b6109aa6020830183611aaf565b9050811015610ae257600054604080516080810190915283358152620100009091046001600160a01b03169063a914c76e906020808201906109ee90870187611aaf565b868181106109fe576109fe61198c565b90506020020135815260200185608001358152602001858060400190610a249190611aaf565b86818110610a3457610a3461198c565b9050602002810190610a46919061153f565b8080601f01602080910402602001604051908101604052809392919081815260200183838082843760009201919091525050509152506040516001600160e01b031960e084901b168152610a9d9190600401611af8565b600060405180830381600087803b158015610ab757600080fd5b505af1158015610acb573d6000803e3d6000fd5b505050508080610ada90611a86565b91505061099d565b5060005b610af36060830183611aaf565b9050811015610bee5760005460408051606080820190925284358152620100009092046001600160a01b031691630ab6beba916020820190610b3790870187611aaf565b86818110610b4757610b4761198c565b9050602002016020810190610b5c919061158c565b6001600160a01b0390811682526080870135602092830152604080516001600160e01b031960e087901b1681528451600482015292840151909116602483015291909101516044820152606401600060405180830381600087803b158015610bc357600080fd5b505af1158015610bd7573d6000803e3d6000fd5b505050508080610be690611a86565b915050610ae6565b5050565b600054610100900460ff16610c0d5760005460ff1615610c11565b303b155b610c745760405162461bcd60e51b815260206004820152602e60248201527f496e697469616c697a61626c653a20636f6e747261637420697320616c72656160448201526d191e481a5b9a5d1a585b1a5e995960921b6064820152608401610991565b600054610100900460ff16158015610c96576000805461ffff19166101011790555b6000805462010000600160b01b031916620100006001600160a01b038681169190910291909117909155600180546001600160a01b03191691841691909117905580156105ac576000805461ff0019169055505050565b604080518082018252600080825260208201526001549151634a7906b960e01b81526004810184905290916001600160a01b031690634a7906b9906024016040805180830381865afa158015610d47573d6000803e3d6000fd5b505050506040513d601f19601f820116820180604052508101906106a49190611b31565b604080518082018252600080825260208201526001549151635440522b60e01b81526004810184905290916001600160a01b031690635440522b906024016040805180830381865afa158015610dc5573d6000803e3d6000fd5b505050506040513d601f19601f820116820180604052508101906106a49190611b88565b600154604051632fbcce6360e11b8152600481018390526060916001600160a01b031690635f799cc690602401600060405180830381865afa158015610e33573d6000803e3d6000fd5b505050506040513d6000823e601f3d908101601f191682016040526106a49190810190611ba4565b60008054604051636b87086360e11b81526004810185905260248101849052606092916201000090046001600160a01b03169063d70e10c690604401602060405180830381865afa158015610eb4573d6000803e3d6000fd5b505050506040513d601f19601f82011682018060405250810190610ed8919061162a565b600154604051639037c0f960e01b8152600481018390529192506001600160a01b031690639037c0f990602401600060405180830381865afa158015610f22573d6000803e3d6000fd5b505050506040513d6000823e601f3d908101601f191682016040526106a09190810190611bd8565b60008054604051636b87086360e11b81526004810185905260248101849052606092916201000090046001600160a01b03169063d70e10c690604401602060405180830381865afa158015610fa3573d6000803e3d6000fd5b505050506040513d601f19601f82011682018060405250810190610fc7919061162a565b60015460405163a72d231760e01b8152600481018390529192506000916001600160a01b039091169063a72d231790602401600060405180830381865afa158015611016573d6000803e3d6000fd5b505050506040513d6000823e601f3d908101601f1916820160405261103e9190810190611c68565b80519091506000805b82811015611096576110718482815181106110645761106461198c565b6020026020010151611164565b15611084578161108081611a86565b9250505b8061108e81611a86565b915050611047565b50806001600160401b038111156110af576110af6116cc565b6040519080825280602002602001820160405280156110d8578160200160208202803683370190505b5094506000805b83811015611158576110fc8582815181106110645761106461198c565b15611146578481815181106111135761111361198c565b602002602001015187838151811061112d5761112d61198c565b60209081029190910101528161114281611a86565b9250505b8061115081611a86565b9150506110df565b50505050505092915050565b60008054604051633c23d3d960e21b815260048101849052620100009091046001600160a01b03169063f08f4f6490602401600060405180830381865afa1580156111b3573d6000803e3d6000fd5b505050506040513d6000823e601f3d908101601f191682016040526111db9190810190611ced565b51151592915050565b6000602082840312156111f657600080fd5b81356001600160401b0381111561120c57600080fd5b8201610120818503121561121f57600080fd5b9392505050565b6000806040838503121561123957600080fd5b50508035926020909101359150565b60005b8381101561126357818101518382015260200161124b565b83811115611272576000848401525b50505050565b60008151808452611290816020860160208601611248565b601f01601f19169290920160200192915050565b6000602080830181845280855180835260408601915060408160051b870101925083870160005b828110156112f957603f198886030184526112e7858351611278565b945092850192908501906001016112cb565b5092979650505050505050565b60006020808301818452808551808352604092508286019150828160051b87010184880160005b838110156113b657603f19898403018552815160e081518552888201518986015287820151818987015261136382870182611278565b6060848101516001600160a01b039081169189019190915260808086015182169089015260a0808601519091169088015260c093840151151593909601929092525050938601939086019060010161132d565b509098975050505050505050565b6000602082840312156113d657600080fd5b81356001600160401b038111156113ec57600080fd5b820160a0818503121561121f57600080fd5b6001600160a01b038116811461141357600080fd5b50565b6000806040838503121561142957600080fd5b8235611434816113fe565b91506020830135611444816113fe565b809150509250929050565b60006020828403121561146157600080fd5b5035919050565b81516001600160a01b0316815260208083015190820152604081016106a4565b60208152600061121f6020830184611278565b602080825282518282018190526000919060409081850190868401855b828110156114ee576114de84835180516001600160a01b03168252602090810151910152565b92840192908501906001016114b8565b5091979650505050505050565b6020808252825182820181905260009190848201906040850190845b8181101561153357835183529284019291840191600101611517565b50909695505050505050565b6000808335601e1984360301811261155657600080fd5b8301803591506001600160401b0382111561157057600080fd5b60200191503681900382131561158557600080fd5b9250929050565b60006020828403121561159e57600080fd5b813561121f816113fe565b60208152600060018060a01b03808451166020840152602084015160a060408501526115d860c0850182611278565b90506040850151601f19808684030160608701526115f68383611278565b925083606088015116608087015260808701519350808684030160a087015250506116218183611278565b95945050505050565b60006020828403121561163c57600080fd5b5051919050565b60208152815160208201526000602083015160c0604084015261166960e0840182611278565b60408501516001600160a01b03908116606086810191909152860151858303601f199081016080880152929350916116a18484611278565b93508160808801511660a087015260a08701519250808685030160c087015250506116218282611278565b634e487b7160e01b600052604160045260246000fd5b604080519081016001600160401b0381118282101715611704576117046116cc565b60405290565b60405160e081016001600160401b0381118282101715611704576117046116cc565b60405160c081016001600160401b0381118282101715611704576117046116cc565b604051601f8201601f191681016001600160401b0381118282101715611776576117766116cc565b604052919050565b60006001600160401b03821115611797576117976116cc565b5060051b60200190565b600082601f8301126117b257600080fd5b81516001600160401b038111156117cb576117cb6116cc565b6117de601f8201601f191660200161174e565b8181528460208386010111156117f357600080fd5b611804826020830160208701611248565b949350505050565b6000602080838503121561181f57600080fd5b82516001600160401b038082111561183657600080fd5b818501915085601f83011261184a57600080fd5b815161185d6118588261177e565b61174e565b81815260059190911b8301840190848101908883111561187c57600080fd5b8585015b838110156118b4578051858111156118985760008081fd5b6118a68b89838a01016117a1565b845250918601918601611880565b5098975050505050505050565b6000604082840312156118d357600080fd5b6118db6116e2565b9050815181526020820151602082015292915050565b6000602080838503121561190457600080fd5b82516001600160401b0381111561191a57600080fd5b8301601f8101851361192b57600080fd5b80516119396118588261177e565b81815260069190911b8201830190838101908783111561195857600080fd5b928401925b828410156119815761196f88856118c1565b8252848201915060408401935061195d565b979650505050505050565b634e487b7160e01b600052603260045260246000fd5b80516119ad816113fe565b919050565b805180151581146119ad57600080fd5b6000602082840312156119d457600080fd5b81516001600160401b03808211156119eb57600080fd5b9083019060e082860312156119ff57600080fd5b611a0761170a565b8251815260208301516020820152604083015182811115611a2757600080fd5b611a33878286016117a1565b604083015250611a45606084016119a2565b6060820152611a56608084016119a2565b6080820152611a6760a084016119a2565b60a0820152611a7860c084016119b2565b60c082015295945050505050565b6000600019821415611aa857634e487b7160e01b600052601160045260246000fd5b5060010190565b6000808335601e19843603018112611ac657600080fd5b8301803591506001600160401b03821115611ae057600080fd5b6020019150600581901b360382131561158557600080fd5b60208152815160208201526020820151604082015260408201516060820152600060608301516080808401526106a060a0840182611278565b600060408284031215611b4357600080fd5b61121f83836118c1565b600060408284031215611b5f57600080fd5b611b676116e2565b90508151611b74816113fe565b808252506020820151602082015292915050565b600060408284031215611b9a57600080fd5b61121f8383611b4d565b600060208284031215611bb657600080fd5b81516001600160401b03811115611bcc57600080fd5b6106a0848285016117a1565b60006020808385031215611beb57600080fd5b82516001600160401b03811115611c0157600080fd5b8301601f81018513611c1257600080fd5b8051611c206118588261177e565b81815260069190911b82018301908381019087831115611c3f57600080fd5b928401925b8284101561198157611c568885611b4d565b82528482019150604084019350611c44565b60006020808385031215611c7b57600080fd5b82516001600160401b03811115611c9157600080fd5b8301601f81018513611ca257600080fd5b8051611cb06118588261177e565b81815260059190911b82018301908381019087831115611ccf57600080fd5b928401925b8284101561198157835182529284019290840190611cd4565b600060208284031215611cff57600080fd5b81516001600160401b0380821115611d1657600080fd5b9083019060c08286031215611d2a57600080fd5b611d3261172c565b82518152602083015182811115611d4857600080fd5b611d54878286016117a1565b602083015250604083015182811115611d6c57600080fd5b611d78878286016117a1565b60408301525060608301516060820152611d94608084016119a2565b6080820152611da560a084016119a2565b60a08201529594505050505056fea2646970667358221220165c003bb4b5c636ce7614118e8bc45fb88e1d010b9a246ce4dab3d2ea37223b64736f6c634300080a0033",
    "linkReferences": {},
    "deployedLinkReferences": {}
}