{
    "_format": "hh-sol-artifact-1",
    "contractName": "Periphery",
    "sourceName": "contracts/misc/Periphery.sol",
    "abi": [
        {
            "inputs": [
                {
                    "components": [
                        {
                            "internalType": "string",
                            "name": "handle",
                            "type": "string"
                        },
                        {
                            "internalType": "string",
                            "name": "uri",
                            "type": "string"
                        },
                        {
                            "internalType": "address",
                            "name": "profileLinkModule",
                            "type": "address"
                        },
                        {
                            "internalType": "bytes",
                            "name": "profileLinkModuleInitData",
                            "type": "bytes"
                        },
                        {
                            "internalType": "string",
                            "name": "contentUri",
                            "type": "string"
                        },
                        {
                            "internalType": "address",
                            "name": "noteLinkModule",
                            "type": "address"
                        },
                        {
                            "internalType": "bytes",
                            "name": "noteLinkModuleInitData",
                            "type": "bytes"
                        },
                        {
                            "internalType": "address",
                            "name": "mintModule",
                            "type": "address"
                        },
                        {
                            "internalType": "bytes",
                            "name": "mintModuleInitData",
                            "type": "bytes"
                        },
                        {
                            "internalType": "bool",
                            "name": "locked",
                            "type": "bool"
                        }
                    ],
                    "internalType": "struct DataTypes.createProfileThenPostNoteData",
                    "name": "vars",
                    "type": "tuple"
                }
            ],
            "name": "createProfileThenPostNote",
            "outputs": [],
            "stateMutability": "nonpayable",
            "type": "function"
        },
        {
            "inputs": [
                {
                    "internalType": "bytes32",
                    "name": "linkKey",
                    "type": "bytes32"
                }
            ],
            "name": "getLinkingAddress",
            "outputs": [
                {
                    "internalType": "address",
                    "name": "",
                    "type": "address"
                }
            ],
            "stateMutability": "view",
            "type": "function"
        },
        {
            "inputs": [
                {
                    "internalType": "uint256",
                    "name": "fromProfileId",
                    "type": "uint256"
                },
                {
                    "internalType": "bytes32",
                    "name": "linkType",
                    "type": "bytes32"
                }
            ],
            "name": "getLinkingAddresses",
            "outputs": [
                {
                    "internalType": "address[]",
                    "name": "",
                    "type": "address[]"
                }
            ],
            "stateMutability": "view",
            "type": "function"
        },
        {
            "inputs": [
                {
                    "internalType": "bytes32",
                    "name": "linkKey",
                    "type": "bytes32"
                }
            ],
            "name": "getLinkingAnyUri",
            "outputs": [
                {
                    "internalType": "string",
                    "name": "",
                    "type": "string"
                }
            ],
            "stateMutability": "view",
            "type": "function"
        },
        {
            "inputs": [
                {
                    "internalType": "uint256",
                    "name": "fromProfileId",
                    "type": "uint256"
                },
                {
                    "internalType": "bytes32",
                    "name": "linkType",
                    "type": "bytes32"
                }
            ],
            "name": "getLinkingAnyUris",
            "outputs": [
                {
                    "internalType": "string[]",
                    "name": "results",
                    "type": "string[]"
                }
            ],
            "stateMutability": "view",
            "type": "function"
        },
        {
            "inputs": [
                {
                    "internalType": "bytes32",
                    "name": "linkKey",
                    "type": "bytes32"
                }
            ],
            "name": "getLinkingERC721",
            "outputs": [
                {
                    "components": [
                        {
                            "internalType": "address",
                            "name": "tokenAddress",
                            "type": "address"
                        },
                        {
                            "internalType": "uint256",
                            "name": "erc721TokenId",
                            "type": "uint256"
                        }
                    ],
                    "internalType": "struct DataTypes.ERC721Struct",
                    "name": "",
                    "type": "tuple"
                }
            ],
            "stateMutability": "view",
            "type": "function"
        },
        {
            "inputs": [
                {
                    "internalType": "uint256",
                    "name": "fromProfileId",
                    "type": "uint256"
                },
                {
                    "internalType": "bytes32",
                    "name": "linkType",
                    "type": "bytes32"
                }
            ],
            "name": "getLinkingERC721s",
            "outputs": [
                {
                    "components": [
                        {
                            "internalType": "address",
                            "name": "tokenAddress",
                            "type": "address"
                        },
                        {
                            "internalType": "uint256",
                            "name": "erc721TokenId",
                            "type": "uint256"
                        }
                    ],
                    "internalType": "struct DataTypes.ERC721Struct[]",
                    "name": "results",
                    "type": "tuple[]"
                }
            ],
            "stateMutability": "view",
            "type": "function"
        },
        {
            "inputs": [
                {
                    "internalType": "bytes32",
                    "name": "linkKey",
                    "type": "bytes32"
                }
            ],
            "name": "getLinkingLinklistId",
            "outputs": [
                {
                    "internalType": "uint256",
                    "name": "linklistId",
                    "type": "uint256"
                }
            ],
            "stateMutability": "view",
            "type": "function"
        },
        {
            "inputs": [
                {
                    "internalType": "uint256",
                    "name": "fromProfileId",
                    "type": "uint256"
                },
                {
                    "internalType": "bytes32",
                    "name": "linkType",
                    "type": "bytes32"
                }
            ],
            "name": "getLinkingLinklistIds",
            "outputs": [
                {
                    "internalType": "uint256[]",
                    "name": "linklistIds",
                    "type": "uint256[]"
                }
            ],
            "stateMutability": "view",
            "type": "function"
        },
        {
            "inputs": [
                {
                    "internalType": "bytes32",
                    "name": "linkKey",
                    "type": "bytes32"
                }
            ],
            "name": "getLinkingNote",
            "outputs": [
                {
                    "components": [
                        {
                            "internalType": "uint256",
                            "name": "profileId",
                            "type": "uint256"
                        },
                        {
                            "internalType": "uint256",
                            "name": "noteId",
                            "type": "uint256"
                        }
                    ],
                    "internalType": "struct DataTypes.NoteStruct",
                    "name": "",
                    "type": "tuple"
                }
            ],
            "stateMutability": "view",
            "type": "function"
        },
        {
            "inputs": [
                {
                    "internalType": "uint256",
                    "name": "fromProfileId",
                    "type": "uint256"
                },
                {
                    "internalType": "bytes32",
                    "name": "linkType",
                    "type": "bytes32"
                }
            ],
            "name": "getLinkingNotes",
            "outputs": [
                {
                    "components": [
                        {
                            "internalType": "bytes32",
                            "name": "linkItemType",
                            "type": "bytes32"
                        },
                        {
                            "internalType": "bytes32",
                            "name": "linkKey",
                            "type": "bytes32"
                        },
                        {
                            "internalType": "string",
                            "name": "contentUri",
                            "type": "string"
                        },
                        {
                            "internalType": "address",
                            "name": "linkModule",
                            "type": "address"
                        },
                        {
                            "internalType": "address",
                            "name": "mintModule",
                            "type": "address"
                        },
                        {
                            "internalType": "address",
                            "name": "mintNFT",
                            "type": "address"
                        },
                        {
                            "internalType": "bool",
                            "name": "deleted",
                            "type": "bool"
                        },
                        {
                            "internalType": "bool",
                            "name": "locked",
                            "type": "bool"
                        }
                    ],
                    "internalType": "struct DataTypes.Note[]",
                    "name": "results",
                    "type": "tuple[]"
                }
            ],
            "stateMutability": "view",
            "type": "function"
        },
        {
            "inputs": [
                {
                    "internalType": "bytes32",
                    "name": "linkKey",
                    "type": "bytes32"
                }
            ],
            "name": "getLinkingProfileId",
            "outputs": [
                {
                    "internalType": "uint256",
                    "name": "profileId",
                    "type": "uint256"
                }
            ],
            "stateMutability": "view",
            "type": "function"
        },
        {
            "inputs": [
                {
                    "internalType": "uint256",
                    "name": "fromProfileId",
                    "type": "uint256"
                },
                {
                    "internalType": "bytes32",
                    "name": "linkType",
                    "type": "bytes32"
                }
            ],
            "name": "getLinkingProfileIds",
            "outputs": [
                {
                    "internalType": "uint256[]",
                    "name": "results",
                    "type": "uint256[]"
                }
            ],
            "stateMutability": "view",
            "type": "function"
        },
        {
            "inputs": [
                {
                    "internalType": "address",
                    "name": "_web3Entry",
                    "type": "address"
                },
                {
                    "internalType": "address",
                    "name": "_linklist",
                    "type": "address"
                }
            ],
            "name": "initialize",
            "outputs": [],
            "stateMutability": "nonpayable",
            "type": "function"
        },
        {
            "inputs": [
                {
                    "components": [
                        {
                            "internalType": "uint256",
                            "name": "fromProfileId",
                            "type": "uint256"
                        },
                        {
                            "internalType": "uint256[]",
                            "name": "toProfileIds",
                            "type": "uint256[]"
                        },
                        {
                            "internalType": "bytes[]",
                            "name": "data",
                            "type": "bytes[]"
                        },
                        {
                            "internalType": "address[]",
                            "name": "toAddresses",
                            "type": "address[]"
                        },
                        {
                            "internalType": "bytes32",
                            "name": "linkType",
                            "type": "bytes32"
                        }
                    ],
                    "internalType": "struct DataTypes.linkProfilesInBatchData",
                    "name": "vars",
                    "type": "tuple"
                }
            ],
            "name": "linkProfilesInBatch",
            "outputs": [],
            "stateMutability": "nonpayable",
            "type": "function"
        },
        {
            "inputs": [],
            "name": "linklist",
            "outputs": [
                {
                    "internalType": "address",
                    "name": "",
                    "type": "address"
                }
            ],
            "stateMutability": "view",
            "type": "function"
        },
        {
            "inputs": [],
            "name": "web3Entry",
            "outputs": [
                {
                    "internalType": "address",
                    "name": "",
                    "type": "address"
                }
            ],
            "stateMutability": "view",
            "type": "function"
        }
    ],
    "bytecode": "0x608060405234801561001057600080fd5b506121cc806100206000396000f3fe608060405234801561001057600080fd5b506004361061010b5760003560e01c80635428b931116100a257806362c3ed301161007157806362c3ed301461027657806363c008751461029657806376ae90ef146102a95780638654af271461023a578063e1332272146102c957600080fd5b80635428b931146102075780635440522b1461021a578063548d583f1461023a5780635f799cc61461025657600080fd5b80633c4c447a116100de5780633c4c447a146101a05780633e7cb539146101b5578063485cc955146101c65780634a7906b9146101d957600080fd5b806306bee8d4146101105780631964a421146101405780632260c7d2146101605780632c42259914610180575b600080fd5b600154610123906001600160a01b031681565b6040516001600160a01b0390911681526020015b60405180910390f35b61015361014e366004611493565b6102e2565b6040516101379190611511565b61017361016e366004611493565b6103db565b6040516101379190611573565b61019361018e366004611493565b6104ca565b60405161013791906115b7565b6101b36101ae366004611682565b61075c565b005b6101236101c33660046116c3565b90565b6101b36101d43660046116f4565b610a1a565b6101ec6101e73660046116c3565b610b16565b60408051825181526020928301519281019290925201610137565b6101b361021536600461172d565b610b94565b61022d6102283660046116c3565b610f2b565b6040516101379190611768565b6102486101c33660046116c3565b604051908152602001610137565b6102696102643660046116c3565b610fa9565b6040516101379190611788565b610289610284366004611493565b61101b565b604051610137919061179b565b6101736102a4366004611493565b61110a565b6102bc6102b7366004611493565b611324565b60405161013791906117fb565b600054610123906201000090046001600160a01b031681565b60008054604051636b87086360e11b81526004810185905260248101849052606092916201000090046001600160a01b03169063d70e10c690604401602060405180830381865afa15801561033b573d6000803e3d6000fd5b505050506040513d601f19601f8201168201806040525081019061035f919061183c565b60015460405163732795d560e11b8152600481018390529192506001600160a01b03169063e64f2baa90602401600060405180830381865afa1580156103a9573d6000803e3d6000fd5b505050506040513d6000823e601f3d908101601f191682016040526103d19190810190611996565b9150505b92915050565b60008054604051636b87086360e11b81526004810185905260248101849052606092916201000090046001600160a01b03169063d70e10c690604401602060405180830381865afa158015610434573d6000803e3d6000fd5b505050506040513d601f19601f82011682018060405250810190610458919061183c565b60015460405163ed6223cf60e01b8152600481018390529192506001600160a01b03169063ed6223cf90602401600060405180830381865afa1580156104a2573d6000803e3d6000fd5b505050506040513d6000823e601f3d908101601f191682016040526103d19190810190611a4b565b60008054604051636b87086360e11b81526004810185905260248101849052606092916201000090046001600160a01b03169063d70e10c690604401602060405180830381865afa158015610523573d6000803e3d6000fd5b505050506040513d601f19601f82011682018060405250810190610547919061183c565b600154604051635e9f678b60e01b8152600481018390529192506000916001600160a01b0390911690635e9f678b90602401600060405180830381865afa158015610596573d6000803e3d6000fd5b505050506040513d6000823e601f3d908101601f191682016040526105be9190810190611b0b565b905080516001600160401b038111156105d9576105d9611855565b60405190808252806020026020018201604052801561064957816020015b60408051610100810182526000808252602080830182905260609383018490529282018190526080820181905260a0820181905260c0820181905260e082015282526000199092019101816105f75790505b50925060005b815181101561075357600060029054906101000a90046001600160a01b03166001600160a01b031663db491e8083838151811061068e5761068e611b9b565b6020026020010151600001518484815181106106ac576106ac611b9b565b6020026020010151602001516040518363ffffffff1660e01b81526004016106de929190918252602082015260400190565b600060405180830381865afa1580156106fb573d6000803e3d6000fd5b505050506040513d6000823e601f3d908101601f191682016040526107239190810190611bda565b84828151811061073557610735611b9b565b6020026020010181905250808061074b90611cb0565b91505061064f565b50505092915050565b6107696040820182611cd9565b90506107786020830183611cd9565b9050146107c25760405162461bcd60e51b8152602060048201526013602482015272082e4e4c2f298cadccee8d09ad2e6dac2e8c6d606b1b60448201526064015b60405180910390fd5b60005b6107d26020830183611cd9565b905081101561090a57600054604080516080810190915283358152620100009091046001600160a01b03169063a914c76e9060208082019061081690870187611cd9565b8681811061082657610826611b9b565b9050602002013581526020018560800135815260200185806040019061084c9190611cd9565b8681811061085c5761085c611b9b565b905060200281019061086e9190611d29565b8080601f01602080910402602001604051908101604052809392919081815260200183838082843760009201919091525050509152506040516001600160e01b031960e084901b1681526108c59190600401611d6f565b600060405180830381600087803b1580156108df57600080fd5b505af11580156108f3573d6000803e3d6000fd5b50505050808061090290611cb0565b9150506107c5565b5060005b61091b6060830183611cd9565b9050811015610a165760005460408051606080820190925284358152620100009092046001600160a01b031691630ab6beba91602082019061095f90870187611cd9565b8681811061096f5761096f611b9b565b90506020020160208101906109849190611da8565b6001600160a01b0390811682526080870135602092830152604080516001600160e01b031960e087901b1681528451600482015292840151909116602483015291909101516044820152606401600060405180830381600087803b1580156109eb57600080fd5b505af11580156109ff573d6000803e3d6000fd5b505050508080610a0e90611cb0565b91505061090e565b5050565b600054610100900460ff16610a355760005460ff1615610a39565b303b155b610a9c5760405162461bcd60e51b815260206004820152602e60248201527f496e697469616c697a61626c653a20636f6e747261637420697320616c72656160448201526d191e481a5b9a5d1a585b1a5e995960921b60648201526084016107b9565b600054610100900460ff16158015610abe576000805461ffff19166101011790555b6000805462010000600160b01b031916620100006001600160a01b038681169190910291909117909155600180546001600160a01b0319169184169190911790558015610b11576000805461ff00191690555b505050565b604080518082018252600080825260208201526001549151634a7906b960e01b81526004810184905290916001600160a01b031690634a7906b9906024016040805180830381865afa158015610b70573d6000803e3d6000fd5b505050506040513d601f19601f820116820180604052508101906103d59190611dc5565b6000546040805160a08101909152338152620100009091046001600160a01b03169063bd5f69cb9060208101610bca8580611d29565b8080601f016020809104026020016040519081016040528093929190818152602001838380828437600092019190915250505090825250602090810190610c1390860186611d29565b8080601f016020809104026020016040519081016040528093929190818152602001838380828437600092019190915250505090825250602001610c5d6060860160408701611da8565b6001600160a01b03168152602001610c786060860186611d29565b8080601f01602080910402602001604051908101604052809392919081815260200183838082843760009201919091525050509152506040516001600160e01b031960e084901b168152610ccf9190600401611de1565b600060405180830381600087803b158015610ce957600080fd5b505af1158015610cfd573d6000803e3d6000fd5b505060008054604051631bb4d23160e01b81523360048201529193506201000090046001600160a01b03169150631bb4d23190602401602060405180830381865afa158015610d50573d6000803e3d6000fd5b505050506040513d601f19601f82011682018060405250810190610d74919061183c565b6000546040805160e081019091528281529192506201000090046001600160a01b0316906329c301c29060208101610daf6080870187611d29565b8080601f016020809104026020016040519081016040528093929190818152602001838380828437600092019190915250505090825250602001610df960c0870160a08801611da8565b6001600160a01b03168152602001610e1460c0870187611d29565b8080601f016020809104026020016040519081016040528093929190818152602001838380828437600092019190915250505090825250602001610e5f610100870160e08801611da8565b6001600160a01b03168152602001610e7b610100870187611d29565b8080601f016020809104026020016040519081016040528093929190818152602001838380828437600092019190915250505090825250602001610ec761014087016101208801611e62565b15158152506040518263ffffffff1660e01b8152600401610ee89190611e7f565b6020604051808303816000875af1158015610f07573d6000803e3d6000fd5b505050506040513d601f19601f82011682018060405250810190610b11919061183c565b604080518082018252600080825260208201526001549151635440522b60e01b81526004810184905290916001600160a01b031690635440522b906024016040805180830381865afa158015610f85573d6000803e3d6000fd5b505050506040513d601f19601f820116820180604052508101906103d59190611f62565b600154604051632fbcce6360e11b8152600481018390526060916001600160a01b031690635f799cc690602401600060405180830381865afa158015610ff3573d6000803e3d6000fd5b505050506040513d6000823e601f3d908101601f191682016040526103d59190810190611f7e565b60008054604051636b87086360e11b81526004810185905260248101849052606092916201000090046001600160a01b03169063d70e10c690604401602060405180830381865afa158015611074573d6000803e3d6000fd5b505050506040513d601f19601f82011682018060405250810190611098919061183c565b600154604051639037c0f960e01b8152600481018390529192506001600160a01b031690639037c0f990602401600060405180830381865afa1580156110e2573d6000803e3d6000fd5b505050506040513d6000823e601f3d908101601f191682016040526103d19190810190611fb2565b60008054604051636b87086360e11b81526004810185905260248101849052606092916201000090046001600160a01b03169063d70e10c690604401602060405180830381865afa158015611163573d6000803e3d6000fd5b505050506040513d601f19601f82011682018060405250810190611187919061183c565b60015460405163a72d231760e01b8152600481018390529192506000916001600160a01b039091169063a72d231790602401600060405180830381865afa1580156111d6573d6000803e3d6000fd5b505050506040513d6000823e601f3d908101601f191682016040526111fe9190810190611a4b565b80519091506000805b828110156112565761123184828151811061122457611224611b9b565b6020026020010151611413565b15611244578161124081611cb0565b9250505b8061124e81611cb0565b915050611207565b50806001600160401b0381111561126f5761126f611855565b604051908082528060200260200182016040528015611298578160200160208202803683370190505b5094506000805b83811015611318576112bc85828151811061122457611224611b9b565b15611306578481815181106112d3576112d3611b9b565b60200260200101518783815181106112ed576112ed611b9b565b60209081029190910101528161130281611cb0565b9250505b8061131081611cb0565b91505061129f565b50505050505092915050565b60008054604051636b87086360e11b81526004810185905260248101849052606092916201000090046001600160a01b03169063d70e10c690604401602060405180830381865afa15801561137d573d6000803e3d6000fd5b505050506040513d601f19601f820116820180604052508101906113a1919061183c565b600154604051635c369ec360e01b8152600481018390529192506001600160a01b031690635c369ec390602401600060405180830381865afa1580156113eb573d6000803e3d6000fd5b505050506040513d6000823e601f3d908101601f191682016040526103d19190810190612042565b60008054604051633c23d3d960e21b815260048101849052620100009091046001600160a01b03169063f08f4f6490602401600060405180830381865afa158015611462573d6000803e3d6000fd5b505050506040513d6000823e601f3d908101601f1916820160405261148a91908101906120d0565b51151592915050565b600080604083850312156114a657600080fd5b50508035926020909101359150565b60005b838110156114d05781810151838201526020016114b8565b838111156114df576000848401525b50505050565b600081518084526114fd8160208601602086016114b5565b601f01601f19169290920160200192915050565b6000602080830181845280855180835260408601915060408160051b870101925083870160005b8281101561156657603f198886030184526115548583516114e5565b94509285019290850190600101611538565b5092979650505050505050565b6020808252825182820181905260009190848201906040850190845b818110156115ab5783518352928401929184019160010161158f565b50909695505050505050565b60006020808301818452808551808352604092508286019150828160051b87010184880160005b8381101561167457603f198984030185528151610100815185528882015189860152878201518189870152611615828701826114e5565b6060848101516001600160a01b039081169189019190915260808086015182169089015260a0808601519091169088015260c08085015115159088015260e09384015115159390960192909252505093860193908601906001016115de565b509098975050505050505050565b60006020828403121561169457600080fd5b81356001600160401b038111156116aa57600080fd5b820160a081850312156116bc57600080fd5b9392505050565b6000602082840312156116d557600080fd5b5035919050565b6001600160a01b03811681146116f157600080fd5b50565b6000806040838503121561170757600080fd5b8235611712816116dc565b91506020830135611722816116dc565b809150509250929050565b60006020828403121561173f57600080fd5b81356001600160401b0381111561175557600080fd5b820161014081850312156116bc57600080fd5b81516001600160a01b0316815260208083015190820152604081016103d5565b6020815260006116bc60208301846114e5565b602080825282518282018190526000919060409081850190868401855b828110156117ee576117de84835180516001600160a01b03168252602090810151910152565b92840192908501906001016117b8565b5091979650505050505050565b6020808252825182820181905260009190848201906040850190845b818110156115ab5783516001600160a01b031683529284019291840191600101611817565b60006020828403121561184e57600080fd5b5051919050565b634e487b7160e01b600052604160045260246000fd5b604080519081016001600160401b038111828210171561188d5761188d611855565b60405290565b60405161010081016001600160401b038111828210171561188d5761188d611855565b60405160c081016001600160401b038111828210171561188d5761188d611855565b604051601f8201601f191681016001600160401b038111828210171561190057611900611855565b604052919050565b60006001600160401b0382111561192157611921611855565b5060051b60200190565b600082601f83011261193c57600080fd5b81516001600160401b0381111561195557611955611855565b611968601f8201601f19166020016118d8565b81815284602083860101111561197d57600080fd5b61198e8260208301602087016114b5565b949350505050565b600060208083850312156119a957600080fd5b82516001600160401b03808211156119c057600080fd5b818501915085601f8301126119d457600080fd5b81516119e76119e282611908565b6118d8565b81815260059190911b83018401908481019088831115611a0657600080fd5b8585015b83811015611a3e57805185811115611a225760008081fd5b611a308b89838a010161192b565b845250918601918601611a0a565b5098975050505050505050565b60006020808385031215611a5e57600080fd5b82516001600160401b03811115611a7457600080fd5b8301601f81018513611a8557600080fd5b8051611a936119e282611908565b81815260059190911b82018301908381019087831115611ab257600080fd5b928401925b82841015611ad057835182529284019290840190611ab7565b979650505050505050565b600060408284031215611aed57600080fd5b611af561186b565b9050815181526020820151602082015292915050565b60006020808385031215611b1e57600080fd5b82516001600160401b03811115611b3457600080fd5b8301601f81018513611b4557600080fd5b8051611b536119e282611908565b81815260069190911b82018301908381019087831115611b7257600080fd5b928401925b82841015611ad057611b898885611adb565b82528482019150604084019350611b77565b634e487b7160e01b600052603260045260246000fd5b8051611bbc816116dc565b919050565b80151581146116f157600080fd5b8051611bbc81611bc1565b600060208284031215611bec57600080fd5b81516001600160401b0380821115611c0357600080fd5b908301906101008286031215611c1857600080fd5b611c20611893565b8251815260208301516020820152604083015182811115611c4057600080fd5b611c4c8782860161192b565b604083015250611c5e60608401611bb1565b6060820152611c6f60808401611bb1565b6080820152611c8060a08401611bb1565b60a0820152611c9160c08401611bcf565b60c0820152611ca260e08401611bcf565b60e082015295945050505050565b6000600019821415611cd257634e487b7160e01b600052601160045260246000fd5b5060010190565b6000808335601e19843603018112611cf057600080fd5b8301803591506001600160401b03821115611d0a57600080fd5b6020019150600581901b3603821315611d2257600080fd5b9250929050565b6000808335601e19843603018112611d4057600080fd5b8301803591506001600160401b03821115611d5a57600080fd5b602001915036819003821315611d2257600080fd5b60208152815160208201526020820151604082015260408201516060820152600060608301516080808401526103d160a08401826114e5565b600060208284031215611dba57600080fd5b81356116bc816116dc565b600060408284031215611dd757600080fd5b6116bc8383611adb565b60208152600060018060a01b03808451166020840152602084015160a06040850152611e1060c08501826114e5565b90506040850151601f1980868403016060870152611e2e83836114e5565b925083606088015116608087015260808701519350808684030160a08701525050611e5981836114e5565b95945050505050565b600060208284031215611e7457600080fd5b81356116bc81611bc1565b60208152815160208201526000602083015160e06040840152611ea66101008401826114e5565b60408501516001600160a01b03908116606086810191909152860151858303601f19908101608088015292935091611ede84846114e5565b93508160808801511660a087015260a08701519250808685030160c08701525050611f0982826114e5565b91505060c0840151611f1f60e085018215159052565b509392505050565b600060408284031215611f3957600080fd5b611f4161186b565b90508151611f4e816116dc565b808252506020820151602082015292915050565b600060408284031215611f7457600080fd5b6116bc8383611f27565b600060208284031215611f9057600080fd5b81516001600160401b03811115611fa657600080fd5b6103d18482850161192b565b60006020808385031215611fc557600080fd5b82516001600160401b03811115611fdb57600080fd5b8301601f81018513611fec57600080fd5b8051611ffa6119e282611908565b81815260069190911b8201830190838101908783111561201957600080fd5b928401925b82841015611ad0576120308885611f27565b8252848201915060408401935061201e565b6000602080838503121561205557600080fd5b82516001600160401b0381111561206b57600080fd5b8301601f8101851361207c57600080fd5b805161208a6119e282611908565b81815260059190911b820183019083810190878311156120a957600080fd5b928401925b82841015611ad05783516120c1816116dc565b825292840192908401906120ae565b6000602082840312156120e257600080fd5b81516001600160401b03808211156120f957600080fd5b9083019060c0828603121561210d57600080fd5b6121156118b6565b8251815260208301518281111561212b57600080fd5b6121378782860161192b565b60208301525060408301518281111561214f57600080fd5b61215b8782860161192b565b6040830152506060830151606082015261217760808401611bb1565b608082015261218860a08401611bb1565b60a08201529594505050505056fea264697066735822122073d5e3ffb0cbb0b5bb989b2070795f31123e2426b4e29a645a628111378c83c164736f6c634300080a0033",
    "linkReferences": {},
    "deployedLinkReferences": {}
}