{
    "_format": "hh-sol-artifact-1",
    "contractName": "Periphery",
    "sourceName": "contracts/misc/Periphery.sol",
    "abi": [
        {
            "inputs": [
                {
                    "components": [
                        {
                            "internalType": "string",
                            "name": "handle",
                            "type": "string"
                        },
                        {
                            "internalType": "string",
                            "name": "uri",
                            "type": "string"
                        },
                        {
                            "internalType": "address",
                            "name": "profileLinkModule",
                            "type": "address"
                        },
                        {
                            "internalType": "bytes",
                            "name": "profileLinkModuleInitData",
                            "type": "bytes"
                        },
                        {
                            "internalType": "string",
                            "name": "contentUri",
                            "type": "string"
                        },
                        {
                            "internalType": "address",
                            "name": "noteLinkModule",
                            "type": "address"
                        },
                        {
                            "internalType": "bytes",
                            "name": "noteLinkModuleInitData",
                            "type": "bytes"
                        },
                        {
                            "internalType": "address",
                            "name": "mintModule",
                            "type": "address"
                        },
                        {
                            "internalType": "bytes",
                            "name": "mintModuleInitData",
                            "type": "bytes"
                        }
                    ],
                    "internalType": "struct DataTypes.createProfileThenPostNoteData",
                    "name": "vars",
                    "type": "tuple"
                }
            ],
            "name": "createProfileThenPostNote",
            "outputs": [],
            "stateMutability": "nonpayable",
            "type": "function"
        },
        {
            "inputs": [
                {
                    "internalType": "bytes32",
                    "name": "linkKey",
                    "type": "bytes32"
                }
            ],
            "name": "getLinkingAny",
            "outputs": [
                {
                    "internalType": "string",
                    "name": "",
                    "type": "string"
                }
            ],
            "stateMutability": "view",
            "type": "function"
        },
        {
            "inputs": [
                {
                    "internalType": "uint256",
                    "name": "fromProfileId",
                    "type": "uint256"
                },
                {
                    "internalType": "bytes32",
                    "name": "linkType",
                    "type": "bytes32"
                }
            ],
            "name": "getLinkingAnyUris",
            "outputs": [
                {
                    "internalType": "string[]",
                    "name": "results",
                    "type": "string[]"
                }
            ],
            "stateMutability": "view",
            "type": "function"
        },
        {
            "inputs": [
                {
                    "internalType": "bytes32",
                    "name": "linkKey",
                    "type": "bytes32"
                }
            ],
            "name": "getLinkingERC721",
            "outputs": [
                {
                    "components": [
                        {
                            "internalType": "address",
                            "name": "tokenAddress",
                            "type": "address"
                        },
                        {
                            "internalType": "uint256",
                            "name": "erc721TokenId",
                            "type": "uint256"
                        }
                    ],
                    "internalType": "struct DataTypes.ERC721Struct",
                    "name": "",
                    "type": "tuple"
                }
            ],
            "stateMutability": "view",
            "type": "function"
        },
        {
            "inputs": [
                {
                    "internalType": "uint256",
                    "name": "fromProfileId",
                    "type": "uint256"
                },
                {
                    "internalType": "bytes32",
                    "name": "linkType",
                    "type": "bytes32"
                }
            ],
            "name": "getLinkingERC721s",
            "outputs": [
                {
                    "components": [
                        {
                            "internalType": "address",
                            "name": "tokenAddress",
                            "type": "address"
                        },
                        {
                            "internalType": "uint256",
                            "name": "erc721TokenId",
                            "type": "uint256"
                        }
                    ],
                    "internalType": "struct DataTypes.ERC721Struct[]",
                    "name": "results",
                    "type": "tuple[]"
                }
            ],
            "stateMutability": "view",
            "type": "function"
        },
        {
            "inputs": [
                {
                    "internalType": "bytes32",
                    "name": "linkKey",
                    "type": "bytes32"
                }
            ],
            "name": "getLinkingNote",
            "outputs": [
                {
                    "components": [
                        {
                            "internalType": "uint256",
                            "name": "profileId",
                            "type": "uint256"
                        },
                        {
                            "internalType": "uint256",
                            "name": "noteId",
                            "type": "uint256"
                        }
                    ],
                    "internalType": "struct DataTypes.NoteStruct",
                    "name": "",
                    "type": "tuple"
                }
            ],
            "stateMutability": "view",
            "type": "function"
        },
        {
            "inputs": [
                {
                    "internalType": "uint256",
                    "name": "fromProfileId",
                    "type": "uint256"
                },
                {
                    "internalType": "bytes32",
                    "name": "linkType",
                    "type": "bytes32"
                }
            ],
            "name": "getLinkingNotes",
            "outputs": [
                {
                    "components": [
                        {
                            "internalType": "bytes32",
                            "name": "linkItemType",
                            "type": "bytes32"
                        },
                        {
                            "internalType": "bytes32",
                            "name": "linkKey",
                            "type": "bytes32"
                        },
                        {
                            "internalType": "string",
                            "name": "contentUri",
                            "type": "string"
                        },
                        {
                            "internalType": "address",
                            "name": "linkModule",
                            "type": "address"
                        },
                        {
                            "internalType": "address",
                            "name": "mintModule",
                            "type": "address"
                        },
                        {
                            "internalType": "address",
                            "name": "mintNFT",
                            "type": "address"
                        },
                        {
                            "internalType": "bool",
                            "name": "deleted",
                            "type": "bool"
                        }
                    ],
                    "internalType": "struct DataTypes.Note[]",
                    "name": "results",
                    "type": "tuple[]"
                }
            ],
            "stateMutability": "view",
            "type": "function"
        },
        {
            "inputs": [
                {
                    "internalType": "uint256",
                    "name": "fromProfileId",
                    "type": "uint256"
                },
                {
                    "internalType": "bytes32",
                    "name": "linkType",
                    "type": "bytes32"
                }
            ],
            "name": "getLinkingProfileIds",
            "outputs": [
                {
                    "internalType": "uint256[]",
                    "name": "results",
                    "type": "uint256[]"
                }
            ],
            "stateMutability": "view",
            "type": "function"
        },
        {
            "inputs": [
                {
                    "internalType": "address",
                    "name": "_linklist",
                    "type": "address"
                }
            ],
            "name": "initLinklist",
            "outputs": [],
            "stateMutability": "nonpayable",
            "type": "function"
        },
        {
            "inputs": [
                {
                    "internalType": "address",
                    "name": "_web3Entry",
                    "type": "address"
                }
            ],
            "name": "initialize",
            "outputs": [],
            "stateMutability": "nonpayable",
            "type": "function"
        },
        {
            "inputs": [
                {
                    "components": [
                        {
                            "internalType": "uint256",
                            "name": "fromProfileId",
                            "type": "uint256"
                        },
                        {
                            "internalType": "uint256[]",
                            "name": "toProfileIds",
                            "type": "uint256[]"
                        },
                        {
                            "internalType": "bytes[]",
                            "name": "data",
                            "type": "bytes[]"
                        },
                        {
                            "internalType": "address[]",
                            "name": "toAddresses",
                            "type": "address[]"
                        },
                        {
                            "internalType": "bytes32",
                            "name": "linkType",
                            "type": "bytes32"
                        }
                    ],
                    "internalType": "struct DataTypes.linkProfilesInBatchData",
                    "name": "vars",
                    "type": "tuple"
                }
            ],
            "name": "linkProfilesInBatch",
            "outputs": [],
            "stateMutability": "nonpayable",
            "type": "function"
        },
        {
            "inputs": [],
            "name": "linklist",
            "outputs": [
                {
                    "internalType": "address",
                    "name": "",
                    "type": "address"
                }
            ],
            "stateMutability": "view",
            "type": "function"
        },
        {
            "inputs": [],
            "name": "web3Entry",
            "outputs": [
                {
                    "internalType": "address",
                    "name": "",
                    "type": "address"
                }
            ],
            "stateMutability": "view",
            "type": "function"
        }
    ],
    "bytecode": "0x608060405234801561001057600080fd5b50611e58806100206000396000f3fe608060405234801561001057600080fd5b50600436106100cf5760003560e01c80635440522b1161008c578063a084a24711610066578063a084a247146101fa578063c4d66de81461020d578063e133227214610220578063f36b6a911461023957600080fd5b80635440522b1461019a57806362c3ed30146101ba57806363c00875146101da57600080fd5b806306bee8d4146100d45780630cbd3a491461010457806312785b7b146101245780632c422599146101395780633c4c447a146101595780634a7906b91461016c575b600080fd5b6001546100e7906001600160a01b031681565b6040516001600160a01b0390911681526020015b60405180910390f35b610117610112366004611294565b610259565b6040516100fb9190611309565b610137610132366004611323565b6102d1565b005b61014c61014736600461135e565b610657565b6040516100fb9190611380565b61013761016736600461143e565b6108e1565b61017f61017a366004611294565b610b9f565b604080518251815260209283015192810192909252016100fb565b6101ad6101a8366004611294565b610c1d565b6040516100fb9190611478565b6101cd6101c836600461135e565b610c9b565b6040516100fb9190611498565b6101ed6101e836600461135e565b610d92565b6040516100fb91906114f8565b610137610208366004611554565b610fac565b61013761021b366004611554565b61104a565b6000546100e7906201000090046001600160a01b031681565b61024c61024736600461135e565b611125565b6040516100fb9190611571565b600154604051630cbd3a4960e01b8152600481018390526060916001600160a01b031690630cbd3a4990602401600060405180830381865afa1580156102a3573d6000803e3d6000fd5b505050506040513d6000823e601f3d908101601f191682016040526102cb91908101906116e8565b92915050565b6000546040805160a08101909152338152620100009091046001600160a01b03169063bd5f69cb9060208101610307858061171c565b8080601f0160208091040260200160405190810160405280939291908181526020018383808284376000920191909152505050908252506020908101906103509086018661171c565b8080601f01602080910402602001604051908101604052809392919081815260200183838082843760009201919091525050509082525060200161039a6060860160408701611554565b6001600160a01b031681526020016103b5606086018661171c565b8080601f01602080910402602001604051908101604052809392919081815260200183838082843760009201919091525050509152506040516001600160e01b031960e084901b16815261040c9190600401611769565b600060405180830381600087803b15801561042657600080fd5b505af115801561043a573d6000803e3d6000fd5b505060008054604051631bb4d23160e01b81523360048201529193506201000090046001600160a01b03169150631bb4d23190602401602060405180830381865afa15801561048d573d6000803e3d6000fd5b505050506040513d601f19601f820116820180604052508101906104b191906117ea565b6000546040805160c081019091528281529192506201000090046001600160a01b03169063d36a2dce90602081016104ec608087018761171c565b8080601f01602080910402602001604051908101604052809392919081815260200183838082843760009201919091525050509082525060200161053660c0870160a08801611554565b6001600160a01b0316815260200161055160c087018761171c565b8080601f01602080910402602001604051908101604052809392919081815260200183838082843760009201919091525050509082525060200161059c610100870160e08801611554565b6001600160a01b031681526020016105b861010087018761171c565b8080601f01602080910402602001604051908101604052809392919081815260200183838082843760009201919091525050509152506040516001600160e01b031960e084901b16815261060f9190600401611803565b6020604051808303816000875af115801561062e573d6000803e3d6000fd5b505050506040513d601f19601f8201168201806040525081019061065291906117ea565b505050565b60008054604051636b87086360e11b81526004810185905260248101849052606092916201000090046001600160a01b03169063d70e10c690604401602060405180830381865afa1580156106b0573d6000803e3d6000fd5b505050506040513d601f19601f820116820180604052508101906106d491906117ea565b600154604051635e9f678b60e01b8152600481018390529192506000916001600160a01b0390911690635e9f678b90602401600060405180830381865afa158015610723573d6000803e3d6000fd5b505050506040513d6000823e601f3d908101601f1916820160405261074b91908101906118df565b905080516001600160401b03811115610766576107666115d3565b6040519080825280602002602001820160405280156107ce57816020015b6040805160e0810182526000808252602080830182905260609383018490529282018190526080820181905260a0820181905260c082015282526000199092019101816107845790505b50925060005b81518110156108d857600060029054906101000a90046001600160a01b03166001600160a01b031663db491e808383815181106108135761081361197f565b6020026020010151600001518484815181106108315761083161197f565b6020026020010151602001516040518363ffffffff1660e01b8152600401610863929190918252602082015260400190565b600060405180830381865afa158015610880573d6000803e3d6000fd5b505050506040513d6000823e601f3d908101601f191682016040526108a891908101906119b5565b8482815181106108ba576108ba61197f565b602002602001018190525080806108d090611a79565b9150506107d4565b50505092915050565b6108ee6040820182611aa2565b90506108fd6020830183611aa2565b9050146109475760405162461bcd60e51b8152602060048201526013602482015272082e4e4c2f298cadccee8d09ad2e6dac2e8c6d606b1b60448201526064015b60405180910390fd5b60005b6109576020830183611aa2565b9050811015610a8f57600054604080516080810190915283358152620100009091046001600160a01b03169063a914c76e9060208082019061099b90870187611aa2565b868181106109ab576109ab61197f565b905060200201358152602001856080013581526020018580604001906109d19190611aa2565b868181106109e1576109e161197f565b90506020028101906109f3919061171c565b8080601f01602080910402602001604051908101604052809392919081815260200183838082843760009201919091525050509152506040516001600160e01b031960e084901b168152610a4a9190600401611aeb565b600060405180830381600087803b158015610a6457600080fd5b505af1158015610a78573d6000803e3d6000fd5b505050508080610a8790611a79565b91505061094a565b5060005b610aa06060830183611aa2565b9050811015610b9b5760005460408051606080820190925284358152620100009092046001600160a01b031691630ab6beba916020820190610ae490870187611aa2565b86818110610af457610af461197f565b9050602002016020810190610b099190611554565b6001600160a01b0390811682526080870135602092830152604080516001600160e01b031960e087901b1681528451600482015292840151909116602483015291909101516044820152606401600060405180830381600087803b158015610b7057600080fd5b505af1158015610b84573d6000803e3d6000fd5b505050508080610b9390611a79565b915050610a93565b5050565b604080518082018252600080825260208201526001549151634a7906b960e01b81526004810184905290916001600160a01b031690634a7906b9906024016040805180830381865afa158015610bf9573d6000803e3d6000fd5b505050506040513d601f19601f820116820180604052508101906102cb9190611b24565b604080518082018252600080825260208201526001549151635440522b60e01b81526004810184905290916001600160a01b031690635440522b906024016040805180830381865afa158015610c77573d6000803e3d6000fd5b505050506040513d601f19601f820116820180604052508101906102cb9190611b7b565b60008054604051636b87086360e11b81526004810185905260248101849052606092916201000090046001600160a01b03169063d70e10c690604401602060405180830381865afa158015610cf4573d6000803e3d6000fd5b505050506040513d601f19601f82011682018060405250810190610d1891906117ea565b600154604051639037c0f960e01b8152600481018390529192506001600160a01b031690639037c0f990602401600060405180830381865afa158015610d62573d6000803e3d6000fd5b505050506040513d6000823e601f3d908101601f19168201604052610d8a9190810190611b97565b949350505050565b60008054604051636b87086360e11b81526004810185905260248101849052606092916201000090046001600160a01b03169063d70e10c690604401602060405180830381865afa158015610deb573d6000803e3d6000fd5b505050506040513d601f19601f82011682018060405250810190610e0f91906117ea565b60015460405163a72d231760e01b8152600481018390529192506000916001600160a01b039091169063a72d231790602401600060405180830381865afa158015610e5e573d6000803e3d6000fd5b505050506040513d6000823e601f3d908101601f19168201604052610e869190810190611c27565b80519091506000805b82811015610ede57610eb9848281518110610eac57610eac61197f565b6020026020010151611214565b15610ecc5781610ec881611a79565b9250505b80610ed681611a79565b915050610e8f565b50806001600160401b03811115610ef757610ef76115d3565b604051908082528060200260200182016040528015610f20578160200160208202803683370190505b5094506000805b83811015610fa057610f44858281518110610eac57610eac61197f565b15610f8e57848181518110610f5b57610f5b61197f565b6020026020010151878381518110610f7557610f7561197f565b602090810291909101015281610f8a81611a79565b9250505b80610f9881611a79565b915050610f27565b50505050505092915050565b600054600160b01b900460ff16156110145760405162461bcd60e51b815260206004820152602560248201527f6c696e6b6c6973742068617320616c7265616479206265656e20696e697469616044820152641b1a5e995960da1b606482015260840161093e565b6000805460ff60b01b1916600160b01b179055600180546001600160a01b039092166001600160a01b0319909216919091179055565b600054610100900460ff166110655760005460ff1615611069565b303b155b6110cc5760405162461bcd60e51b815260206004820152602e60248201527f496e697469616c697a61626c653a20636f6e747261637420697320616c72656160448201526d191e481a5b9a5d1a585b1a5e995960921b606482015260840161093e565b600054610100900460ff161580156110ee576000805461ffff19166101011790555b6000805462010000600160b01b031916620100006001600160a01b038516021790558015610b9b576000805461ff00191690555050565b60008054604051636b87086360e11b81526004810185905260248101849052606092916201000090046001600160a01b03169063d70e10c690604401602060405180830381865afa15801561117e573d6000803e3d6000fd5b505050506040513d601f19601f820116820180604052508101906111a291906117ea565b60015460405163077c438760e51b8152600481018390529192506001600160a01b03169063ef8870e090602401600060405180830381865afa1580156111ec573d6000803e3d6000fd5b505050506040513d6000823e601f3d908101601f19168201604052610d8a9190810190611cac565b60008054604051633c23d3d960e21b815260048101849052620100009091046001600160a01b03169063f08f4f6490602401600060405180830381865afa158015611263573d6000803e3d6000fd5b505050506040513d6000823e601f3d908101601f1916820160405261128b9190810190611d5c565b51151592915050565b6000602082840312156112a657600080fd5b5035919050565b60005b838110156112c85781810151838201526020016112b0565b838111156112d7576000848401525b50505050565b600081518084526112f58160208601602086016112ad565b601f01601f19169290920160200192915050565b60208152600061131c60208301846112dd565b9392505050565b60006020828403121561133557600080fd5b81356001600160401b0381111561134b57600080fd5b8201610120818503121561131c57600080fd5b6000806040838503121561137157600080fd5b50508035926020909101359150565b60006020808301818452808551808352604092508286019150828160051b87010184880160005b8381101561143057603f19898403018552815160e08151855288820151898601528782015181898701526113dd828701826112dd565b6060848101516001600160a01b039081169189019190915260808086015182169089015260a0808601519091169088015260c09384015115159390960192909252505093860193908601906001016113a7565b509098975050505050505050565b60006020828403121561145057600080fd5b81356001600160401b0381111561146657600080fd5b820160a0818503121561131c57600080fd5b81516001600160a01b0316815260208083015190820152604081016102cb565b602080825282518282018190526000919060409081850190868401855b828110156114eb576114db84835180516001600160a01b03168252602090810151910152565b92840192908501906001016114b5565b5091979650505050505050565b6020808252825182820181905260009190848201906040850190845b8181101561153057835183529284019291840191600101611514565b50909695505050505050565b6001600160a01b038116811461155157600080fd5b50565b60006020828403121561156657600080fd5b813561131c8161153c565b6000602080830181845280855180835260408601915060408160051b870101925083870160005b828110156115c657603f198886030184526115b48583516112dd565b94509285019290850190600101611598565b5092979650505050505050565b634e487b7160e01b600052604160045260246000fd5b604080519081016001600160401b038111828210171561160b5761160b6115d3565b60405290565b60405160e081016001600160401b038111828210171561160b5761160b6115d3565b60405160c081016001600160401b038111828210171561160b5761160b6115d3565b604051601f8201601f191681016001600160401b038111828210171561167d5761167d6115d3565b604052919050565b600082601f83011261169657600080fd5b81516001600160401b038111156116af576116af6115d3565b6116c2601f8201601f1916602001611655565b8181528460208386010111156116d757600080fd5b610d8a8260208301602087016112ad565b6000602082840312156116fa57600080fd5b81516001600160401b0381111561171057600080fd5b610d8a84828501611685565b6000808335601e1984360301811261173357600080fd5b8301803591506001600160401b0382111561174d57600080fd5b60200191503681900382131561176257600080fd5b9250929050565b60208152600060018060a01b03808451166020840152602084015160a0604085015261179860c08501826112dd565b90506040850151601f19808684030160608701526117b683836112dd565b925083606088015116608087015260808701519350808684030160a087015250506117e181836112dd565b95945050505050565b6000602082840312156117fc57600080fd5b5051919050565b60208152815160208201526000602083015160c0604084015261182960e08401826112dd565b60408501516001600160a01b03908116606086810191909152860151858303601f1990810160808801529293509161186184846112dd565b93508160808801511660a087015260a08701519250808685030160c087015250506117e182826112dd565b60006001600160401b038211156118a5576118a56115d3565b5060051b60200190565b6000604082840312156118c157600080fd5b6118c96115e9565b9050815181526020820151602082015292915050565b600060208083850312156118f257600080fd5b82516001600160401b0381111561190857600080fd5b8301601f8101851361191957600080fd5b805161192c6119278261188c565b611655565b81815260069190911b8201830190838101908783111561194b57600080fd5b928401925b828410156119745761196288856118af565b82528482019150604084019350611950565b979650505050505050565b634e487b7160e01b600052603260045260246000fd5b80516119a08161153c565b919050565b805180151581146119a057600080fd5b6000602082840312156119c757600080fd5b81516001600160401b03808211156119de57600080fd5b9083019060e082860312156119f257600080fd5b6119fa611611565b8251815260208301516020820152604083015182811115611a1a57600080fd5b611a2687828601611685565b604083015250611a3860608401611995565b6060820152611a4960808401611995565b6080820152611a5a60a08401611995565b60a0820152611a6b60c084016119a5565b60c082015295945050505050565b6000600019821415611a9b57634e487b7160e01b600052601160045260246000fd5b5060010190565b6000808335601e19843603018112611ab957600080fd5b8301803591506001600160401b03821115611ad357600080fd5b6020019150600581901b360382131561176257600080fd5b6020815281516020820152602082015160408201526040820151606082015260006060830151608080840152610d8a60a08401826112dd565b600060408284031215611b3657600080fd5b61131c83836118af565b600060408284031215611b5257600080fd5b611b5a6115e9565b90508151611b678161153c565b808252506020820151602082015292915050565b600060408284031215611b8d57600080fd5b61131c8383611b40565b60006020808385031215611baa57600080fd5b82516001600160401b03811115611bc057600080fd5b8301601f81018513611bd157600080fd5b8051611bdf6119278261188c565b81815260069190911b82018301908381019087831115611bfe57600080fd5b928401925b8284101561197457611c158885611b40565b82528482019150604084019350611c03565b60006020808385031215611c3a57600080fd5b82516001600160401b03811115611c5057600080fd5b8301601f81018513611c6157600080fd5b8051611c6f6119278261188c565b81815260059190911b82018301908381019087831115611c8e57600080fd5b928401925b8284101561197457835182529284019290840190611c93565b60006020808385031215611cbf57600080fd5b82516001600160401b0380821115611cd657600080fd5b818501915085601f830112611cea57600080fd5b8151611cf86119278261188c565b81815260059190911b83018401908481019088831115611d1757600080fd5b8585015b83811015611d4f57805185811115611d335760008081fd5b611d418b89838a0101611685565b845250918601918601611d1b565b5098975050505050505050565b600060208284031215611d6e57600080fd5b81516001600160401b0380821115611d8557600080fd5b9083019060c08286031215611d9957600080fd5b611da1611633565b82518152602083015182811115611db757600080fd5b611dc387828601611685565b602083015250604083015182811115611ddb57600080fd5b611de787828601611685565b60408301525060608301516060820152611e0360808401611995565b6080820152611e1460a08401611995565b60a08201529594505050505056fea26469706673582212200131a2d4773360d012d8ad41a1a1044a773067dae49949814a20dec13ed14a7664736f6c634300080a0033",
    "linkReferences": {},
    "deployedLinkReferences": {}
}