{
    "_format": "hh-sol-artifact-1",
    "contractName": "Periphery",
    "sourceName": "contracts/misc/Periphery.sol",
    "abi": [
        {
            "inputs": [
                {
                    "internalType": "contract IWeb3Entry",
                    "name": "_web3Entry",
                    "type": "address"
                }
            ],
            "name": "initialize",
            "outputs": [],
            "stateMutability": "nonpayable",
            "type": "function"
        },
        {
            "inputs": [
                {
                    "components": [
                        {
                            "internalType": "uint256",
                            "name": "fromProfileId",
                            "type": "uint256"
                        },
                        {
                            "internalType": "uint256[]",
                            "name": "toProfileIds",
                            "type": "uint256[]"
                        },
                        {
                            "internalType": "bytes[]",
                            "name": "data",
                            "type": "bytes[]"
                        },
                        {
                            "internalType": "address[]",
                            "name": "toAddresses",
                            "type": "address[]"
                        },
                        {
                            "internalType": "bytes32",
                            "name": "linkType",
                            "type": "bytes32"
                        }
                    ],
                    "internalType": "struct DataTypes.linkProfilesInBatchData",
                    "name": "vars",
                    "type": "tuple"
                }
            ],
            "name": "linkProfilesInBatch",
            "outputs": [],
            "stateMutability": "nonpayable",
            "type": "function"
        },
        {
            "inputs": [],
            "name": "web3Entry",
            "outputs": [
                {
                    "internalType": "contract IWeb3Entry",
                    "name": "",
                    "type": "address"
                }
            ],
            "stateMutability": "view",
            "type": "function"
        }
    ],
    "bytecode": "0x608060405234801561001057600080fd5b5061063b806100206000396000f3fe608060405234801561001057600080fd5b50600436106100415760003560e01c80633c4c447a14610046578063c4d66de81461005b578063e13322721461006e575b600080fd5b61005961005436600461043c565b6100a3565b005b610059610069366004610496565b610361565b600054610087906201000090046001600160a01b031681565b6040516001600160a01b03909116815260200160405180910390f35b6100b060408201826104b3565b90506100bf60208301836104b3565b9050146101095760405162461bcd60e51b8152602060048201526013602482015272082e4e4c2f298cadccee8d09ad2e6dac2e8c6d606b1b60448201526064015b60405180910390fd5b60005b61011960208301836104b3565b905081101561025157600054604080516080810190915283358152620100009091046001600160a01b03169063a914c76e9060208082019061015d908701876104b3565b8681811061016d5761016d610504565b9050602002013581526020018560800135815260200185806040019061019391906104b3565b868181106101a3576101a3610504565b90506020028101906101b5919061051a565b8080601f01602080910402602001604051908101604052809392919081815260200183838082843760009201919091525050509152506040516001600160e01b031960e084901b16815261020c9190600401610561565b600060405180830381600087803b15801561022657600080fd5b505af115801561023a573d6000803e3d6000fd5b505050508080610249906105dc565b91505061010c565b5060005b61026260608301836104b3565b905081101561035d5760005460408051606080820190925284358152620100009092046001600160a01b031691630ab6beba9160208201906102a6908701876104b3565b868181106102b6576102b6610504565b90506020020160208101906102cb9190610496565b6001600160a01b0390811682526080870135602092830152604080516001600160e01b031960e087901b1681528451600482015292840151909116602483015291909101516044820152606401600060405180830381600087803b15801561033257600080fd5b505af1158015610346573d6000803e3d6000fd5b505050508080610355906105dc565b915050610255565b5050565b600054610100900460ff1661037c5760005460ff1615610380565b303b155b6103e35760405162461bcd60e51b815260206004820152602e60248201527f496e697469616c697a61626c653a20636f6e747261637420697320616c72656160448201526d191e481a5b9a5d1a585b1a5e995960921b6064820152608401610100565b600054610100900460ff16158015610405576000805461ffff19166101011790555b6000805462010000600160b01b031916620100006001600160a01b03851602179055801561035d576000805461ff00191690555050565b60006020828403121561044e57600080fd5b813567ffffffffffffffff81111561046557600080fd5b820160a0818503121561047757600080fd5b9392505050565b6001600160a01b038116811461049357600080fd5b50565b6000602082840312156104a857600080fd5b81356104778161047e565b6000808335601e198436030181126104ca57600080fd5b83018035915067ffffffffffffffff8211156104e557600080fd5b6020019150600581901b36038213156104fd57600080fd5b9250929050565b634e487b7160e01b600052603260045260246000fd5b6000808335601e1984360301811261053157600080fd5b83018035915067ffffffffffffffff82111561054c57600080fd5b6020019150368190038213156104fd57600080fd5b6000602080835283518184015280840151604084015260408401516060840152606084015160808085015280518060a086015260005b818110156105b35782810184015186820160c001528301610597565b818111156105c557600060c083880101525b50601f01601f19169390930160c001949350505050565b60006000198214156105fe57634e487b7160e01b600052601160045260246000fd5b506001019056fea2646970667358221220c8c6f06905eaf80519168019bfeee4d707864ad716184cfe890970ae2d6e165964736f6c634300080a0033",
    "linkReferences": {},
    "deployedLinkReferences": {}
}