{
    "_format": "hh-sol-artifact-1",
    "contractName": "Periphery",
    "sourceName": "contracts/misc/Periphery.sol",
    "abi": [
        {
            "inputs": [
                {
                    "components": [
                        {
                            "internalType": "string",
                            "name": "handle",
                            "type": "string"
                        },
                        {
                            "internalType": "string",
                            "name": "uri",
                            "type": "string"
                        },
                        {
                            "internalType": "address",
                            "name": "profileLinkModule",
                            "type": "address"
                        },
                        {
                            "internalType": "bytes",
                            "name": "profileLinkModuleInitData",
                            "type": "bytes"
                        },
                        {
                            "internalType": "string",
                            "name": "contentUri",
                            "type": "string"
                        },
                        {
                            "internalType": "address",
                            "name": "noteLinkModule",
                            "type": "address"
                        },
                        {
                            "internalType": "bytes",
                            "name": "noteLinkModuleInitData",
                            "type": "bytes"
                        },
                        {
                            "internalType": "address",
                            "name": "mintModule",
                            "type": "address"
                        },
                        {
                            "internalType": "bytes",
                            "name": "mintModuleInitData",
                            "type": "bytes"
                        },
                        {
                            "internalType": "bool",
                            "name": "locked",
                            "type": "bool"
                        }
                    ],
                    "internalType": "struct DataTypes.createProfileThenPostNoteData",
                    "name": "vars",
                    "type": "tuple"
                }
            ],
            "name": "createProfileThenPostNote",
            "outputs": [],
            "stateMutability": "nonpayable",
            "type": "function"
        },
        {
            "inputs": [
                {
                    "internalType": "bytes32",
                    "name": "linkKey",
                    "type": "bytes32"
                }
            ],
            "name": "getLinkingAddress",
            "outputs": [
                {
                    "internalType": "address",
                    "name": "",
                    "type": "address"
                }
            ],
            "stateMutability": "view",
            "type": "function"
        },
        {
            "inputs": [
                {
                    "internalType": "uint256",
                    "name": "fromProfileId",
                    "type": "uint256"
                },
                {
                    "internalType": "bytes32",
                    "name": "linkType",
                    "type": "bytes32"
                }
            ],
            "name": "getLinkingAddresses",
            "outputs": [
                {
                    "internalType": "address[]",
                    "name": "",
                    "type": "address[]"
                }
            ],
            "stateMutability": "view",
            "type": "function"
        },
        {
            "inputs": [
                {
                    "internalType": "bytes32",
                    "name": "linkKey",
                    "type": "bytes32"
                }
            ],
            "name": "getLinkingAnyUri",
            "outputs": [
                {
                    "internalType": "string",
                    "name": "",
                    "type": "string"
                }
            ],
            "stateMutability": "view",
            "type": "function"
        },
        {
            "inputs": [
                {
                    "internalType": "uint256",
                    "name": "fromProfileId",
                    "type": "uint256"
                },
                {
                    "internalType": "bytes32",
                    "name": "linkType",
                    "type": "bytes32"
                }
            ],
            "name": "getLinkingAnyUris",
            "outputs": [
                {
                    "internalType": "string[]",
                    "name": "results",
                    "type": "string[]"
                }
            ],
            "stateMutability": "view",
            "type": "function"
        },
        {
            "inputs": [
                {
                    "internalType": "bytes32",
                    "name": "linkKey",
                    "type": "bytes32"
                }
            ],
            "name": "getLinkingERC721",
            "outputs": [
                {
                    "components": [
                        {
                            "internalType": "address",
                            "name": "tokenAddress",
                            "type": "address"
                        },
                        {
                            "internalType": "uint256",
                            "name": "erc721TokenId",
                            "type": "uint256"
                        }
                    ],
                    "internalType": "struct DataTypes.ERC721Struct",
                    "name": "",
                    "type": "tuple"
                }
            ],
            "stateMutability": "view",
            "type": "function"
        },
        {
            "inputs": [
                {
                    "internalType": "uint256",
                    "name": "fromProfileId",
                    "type": "uint256"
                },
                {
                    "internalType": "bytes32",
                    "name": "linkType",
                    "type": "bytes32"
                }
            ],
            "name": "getLinkingERC721s",
            "outputs": [
                {
                    "components": [
                        {
                            "internalType": "address",
                            "name": "tokenAddress",
                            "type": "address"
                        },
                        {
                            "internalType": "uint256",
                            "name": "erc721TokenId",
                            "type": "uint256"
                        }
                    ],
                    "internalType": "struct DataTypes.ERC721Struct[]",
                    "name": "results",
                    "type": "tuple[]"
                }
            ],
            "stateMutability": "view",
            "type": "function"
        },
        {
            "inputs": [
                {
                    "internalType": "bytes32",
                    "name": "linkKey",
                    "type": "bytes32"
                }
            ],
            "name": "getLinkingLinklistId",
            "outputs": [
                {
                    "internalType": "uint256",
                    "name": "linklistId",
                    "type": "uint256"
                }
            ],
            "stateMutability": "view",
            "type": "function"
        },
        {
            "inputs": [
                {
                    "internalType": "uint256",
                    "name": "fromProfileId",
                    "type": "uint256"
                },
                {
                    "internalType": "bytes32",
                    "name": "linkType",
                    "type": "bytes32"
                }
            ],
            "name": "getLinkingLinklistIds",
            "outputs": [
                {
                    "internalType": "uint256[]",
                    "name": "linklistIds",
                    "type": "uint256[]"
                }
            ],
            "stateMutability": "view",
            "type": "function"
        },
        {
            "inputs": [
                {
                    "internalType": "bytes32",
                    "name": "linkKey",
                    "type": "bytes32"
                }
            ],
            "name": "getLinkingNote",
            "outputs": [
                {
                    "components": [
                        {
                            "internalType": "uint256",
                            "name": "profileId",
                            "type": "uint256"
                        },
                        {
                            "internalType": "uint256",
                            "name": "noteId",
                            "type": "uint256"
                        }
                    ],
                    "internalType": "struct DataTypes.NoteStruct",
                    "name": "",
                    "type": "tuple"
                }
            ],
            "stateMutability": "view",
            "type": "function"
        },
        {
            "inputs": [
                {
                    "internalType": "uint256",
                    "name": "fromProfileId",
                    "type": "uint256"
                },
                {
                    "internalType": "bytes32",
                    "name": "linkType",
                    "type": "bytes32"
                }
            ],
            "name": "getLinkingNotes",
            "outputs": [
                {
                    "components": [
                        {
                            "internalType": "bytes32",
                            "name": "linkItemType",
                            "type": "bytes32"
                        },
                        {
                            "internalType": "bytes32",
                            "name": "linkKey",
                            "type": "bytes32"
                        },
                        {
                            "internalType": "string",
                            "name": "contentUri",
                            "type": "string"
                        },
                        {
                            "internalType": "address",
                            "name": "linkModule",
                            "type": "address"
                        },
                        {
                            "internalType": "address",
                            "name": "mintModule",
                            "type": "address"
                        },
                        {
                            "internalType": "address",
                            "name": "mintNFT",
                            "type": "address"
                        },
                        {
                            "internalType": "bool",
                            "name": "deleted",
                            "type": "bool"
                        },
                        {
                            "internalType": "bool",
                            "name": "locked",
                            "type": "bool"
                        }
                    ],
                    "internalType": "struct DataTypes.Note[]",
                    "name": "results",
                    "type": "tuple[]"
                }
            ],
            "stateMutability": "view",
            "type": "function"
        },
        {
            "inputs": [
                {
                    "internalType": "bytes32",
                    "name": "linkKey",
                    "type": "bytes32"
                }
            ],
            "name": "getLinkingProfileId",
            "outputs": [
                {
                    "internalType": "uint256",
                    "name": "profileId",
                    "type": "uint256"
                }
            ],
            "stateMutability": "view",
            "type": "function"
        },
        {
            "inputs": [
                {
                    "internalType": "uint256",
                    "name": "fromProfileId",
                    "type": "uint256"
                },
                {
                    "internalType": "bytes32",
                    "name": "linkType",
                    "type": "bytes32"
                }
            ],
            "name": "getLinkingProfileIds",
            "outputs": [
                {
                    "internalType": "uint256[]",
                    "name": "results",
                    "type": "uint256[]"
                }
            ],
            "stateMutability": "view",
            "type": "function"
        },
        {
            "inputs": [
                {
                    "internalType": "uint256",
                    "name": "profileId",
                    "type": "uint256"
                },
                {
                    "internalType": "uint256",
                    "name": "offset",
                    "type": "uint256"
                },
                {
                    "internalType": "uint256",
                    "name": "limit",
                    "type": "uint256"
                }
            ],
            "name": "getNotesByProfileId",
            "outputs": [
                {
                    "components": [
                        {
                            "internalType": "bytes32",
                            "name": "linkItemType",
                            "type": "bytes32"
                        },
                        {
                            "internalType": "bytes32",
                            "name": "linkKey",
                            "type": "bytes32"
                        },
                        {
                            "internalType": "string",
                            "name": "contentUri",
                            "type": "string"
                        },
                        {
                            "internalType": "address",
                            "name": "linkModule",
                            "type": "address"
                        },
                        {
                            "internalType": "address",
                            "name": "mintModule",
                            "type": "address"
                        },
                        {
                            "internalType": "address",
                            "name": "mintNFT",
                            "type": "address"
                        },
                        {
                            "internalType": "bool",
                            "name": "deleted",
                            "type": "bool"
                        },
                        {
                            "internalType": "bool",
                            "name": "locked",
                            "type": "bool"
                        }
                    ],
                    "internalType": "struct DataTypes.Note[]",
                    "name": "results",
                    "type": "tuple[]"
                }
            ],
            "stateMutability": "view",
            "type": "function"
        },
        {
            "inputs": [
                {
                    "internalType": "address",
                    "name": "_web3Entry",
                    "type": "address"
                },
                {
                    "internalType": "address",
                    "name": "_linklist",
                    "type": "address"
                }
            ],
            "name": "initialize",
            "outputs": [],
            "stateMutability": "nonpayable",
            "type": "function"
        },
        {
            "inputs": [
                {
                    "components": [
                        {
                            "internalType": "uint256",
                            "name": "fromProfileId",
                            "type": "uint256"
                        },
                        {
                            "internalType": "uint256[]",
                            "name": "toProfileIds",
                            "type": "uint256[]"
                        },
                        {
                            "internalType": "bytes[]",
                            "name": "data",
                            "type": "bytes[]"
                        },
                        {
                            "internalType": "address[]",
                            "name": "toAddresses",
                            "type": "address[]"
                        },
                        {
                            "internalType": "bytes32",
                            "name": "linkType",
                            "type": "bytes32"
                        }
                    ],
                    "internalType": "struct DataTypes.linkProfilesInBatchData",
                    "name": "vars",
                    "type": "tuple"
                }
            ],
            "name": "linkProfilesInBatch",
            "outputs": [],
            "stateMutability": "nonpayable",
            "type": "function"
        },
        {
            "inputs": [],
            "name": "linklist",
            "outputs": [
                {
                    "internalType": "address",
                    "name": "",
                    "type": "address"
                }
            ],
            "stateMutability": "view",
            "type": "function"
        },
        {
            "inputs": [],
            "name": "web3Entry",
            "outputs": [
                {
                    "internalType": "address",
                    "name": "",
                    "type": "address"
                }
            ],
            "stateMutability": "view",
            "type": "function"
        }
    ],
    "bytecode": "0x608060405234801561001057600080fd5b50612433806100206000396000f3fe608060405234801561001057600080fd5b50600436106101165760003560e01c80635440522b116100a257806363c008751161007157806363c00875146102a157806376ae90ef146102b457806383d37175146102d45780638654af2714610245578063e1332272146102e757600080fd5b80635440522b14610225578063548d583f146102455780635f799cc61461026157806362c3ed301461028157600080fd5b80633c4c447a116100e95780633c4c447a146101ab5780633e7cb539146101c0578063485cc955146101d15780634a7906b9146101e45780635428b9311461021257600080fd5b806306bee8d41461011b5780631964a4211461014b5780632260c7d21461016b5780632c4225991461018b575b600080fd5b60015461012e906001600160a01b031681565b6040516001600160a01b0390911681526020015b60405180910390f35b61015e61015936600461169e565b610300565b604051610142919061171c565b61017e61017936600461169e565b6103f9565b604051610142919061177e565b61019e61019936600461169e565b6104e8565b60405161014291906117c2565b6101be6101b936600461188d565b610743565b005b61012e6101ce3660046118c7565b90565b6101be6101df3660046118f8565b610a01565b6101f76101f23660046118c7565b610afd565b60408051825181526020928301519281019290925201610142565b6101be610220366004611931565b610b7b565b6102386102333660046118c7565b610f12565b604051610142919061196c565b6102536101ce3660046118c7565b604051908152602001610142565b61027461026f3660046118c7565b610f90565b604051610142919061198c565b61029461028f36600461169e565b611002565b604051610142919061199f565b61017e6102af36600461169e565b6110f1565b6102c76102c236600461169e565b61130b565b60405161014291906119ff565b61019e6102e2366004611a40565b6113fa565b60005461012e906201000090046001600160a01b031681565b60008054604051636b87086360e11b81526004810185905260248101849052606092916201000090046001600160a01b03169063d70e10c690604401602060405180830381865afa158015610359573d6000803e3d6000fd5b505050506040513d601f19601f8201168201806040525081019061037d9190611a6c565b60015460405163732795d560e11b8152600481018390529192506001600160a01b03169063e64f2baa90602401600060405180830381865afa1580156103c7573d6000803e3d6000fd5b505050506040513d6000823e601f3d908101601f191682016040526103ef9190810190611bc6565b9150505b92915050565b60008054604051636b87086360e11b81526004810185905260248101849052606092916201000090046001600160a01b03169063d70e10c690604401602060405180830381865afa158015610452573d6000803e3d6000fd5b505050506040513d601f19601f820116820180604052508101906104769190611a6c565b60015460405163ed6223cf60e01b8152600481018390529192506001600160a01b03169063ed6223cf90602401600060405180830381865afa1580156104c0573d6000803e3d6000fd5b505050506040513d6000823e601f3d908101601f191682016040526103ef9190810190611c7b565b60008054604051636b87086360e11b81526004810185905260248101849052606092916201000090046001600160a01b03169063d70e10c690604401602060405180830381865afa158015610541573d6000803e3d6000fd5b505050506040513d601f19601f820116820180604052508101906105659190611a6c565b600154604051635e9f678b60e01b8152600481018390529192506000916001600160a01b0390911690635e9f678b90602401600060405180830381865afa1580156105b4573d6000803e3d6000fd5b505050506040513d6000823e601f3d908101601f191682016040526105dc9190810190611d3b565b905080516001600160401b038111156105f7576105f7611a85565b60405190808252806020026020018201604052801561063057816020015b61061d611659565b8152602001906001900390816106155790505b50925060005b815181101561073a57600060029054906101000a90046001600160a01b03166001600160a01b031663db491e8083838151811061067557610675611dcb565b60200260200101516000015184848151811061069357610693611dcb565b6020026020010151602001516040518363ffffffff1660e01b81526004016106c5929190918252602082015260400190565b600060405180830381865afa1580156106e2573d6000803e3d6000fd5b505050506040513d6000823e601f3d908101601f1916820160405261070a9190810190611e0a565b84828151811061071c5761071c611dcb565b6020026020010181905250808061073290611ef6565b915050610636565b50505092915050565b6107506040820182611f11565b905061075f6020830183611f11565b9050146107a95760405162461bcd60e51b8152602060048201526013602482015272082e4e4c2f298cadccee8d09ad2e6dac2e8c6d606b1b60448201526064015b60405180910390fd5b60005b6107b96020830183611f11565b90508110156108f157600054604080516080810190915283358152620100009091046001600160a01b03169063a914c76e906020808201906107fd90870187611f11565b8681811061080d5761080d611dcb565b905060200201358152602001856080013581526020018580604001906108339190611f11565b8681811061084357610843611dcb565b90506020028101906108559190611f61565b8080601f01602080910402602001604051908101604052809392919081815260200183838082843760009201919091525050509152506040516001600160e01b031960e084901b1681526108ac9190600401611fa7565b600060405180830381600087803b1580156108c657600080fd5b505af11580156108da573d6000803e3d6000fd5b5050505080806108e990611ef6565b9150506107ac565b5060005b6109026060830183611f11565b90508110156109fd5760005460408051606080820190925284358152620100009092046001600160a01b031691630ab6beba91602082019061094690870187611f11565b8681811061095657610956611dcb565b905060200201602081019061096b9190611fe0565b6001600160a01b0390811682526080870135602092830152604080516001600160e01b031960e087901b1681528451600482015292840151909116602483015291909101516044820152606401600060405180830381600087803b1580156109d257600080fd5b505af11580156109e6573d6000803e3d6000fd5b5050505080806109f590611ef6565b9150506108f5565b5050565b600054610100900460ff16610a1c5760005460ff1615610a20565b303b155b610a835760405162461bcd60e51b815260206004820152602e60248201527f496e697469616c697a61626c653a20636f6e747261637420697320616c72656160448201526d191e481a5b9a5d1a585b1a5e995960921b60648201526084016107a0565b600054610100900460ff16158015610aa5576000805461ffff19166101011790555b6000805462010000600160b01b031916620100006001600160a01b038681169190910291909117909155600180546001600160a01b0319169184169190911790558015610af8576000805461ff00191690555b505050565b604080518082018252600080825260208201526001549151634a7906b960e01b81526004810184905290916001600160a01b031690634a7906b9906024016040805180830381865afa158015610b57573d6000803e3d6000fd5b505050506040513d601f19601f820116820180604052508101906103f39190611ffd565b6000546040805160a08101909152338152620100009091046001600160a01b03169063bd5f69cb9060208101610bb18580611f61565b8080601f016020809104026020016040519081016040528093929190818152602001838380828437600092019190915250505090825250602090810190610bfa90860186611f61565b8080601f016020809104026020016040519081016040528093929190818152602001838380828437600092019190915250505090825250602001610c446060860160408701611fe0565b6001600160a01b03168152602001610c5f6060860186611f61565b8080601f01602080910402602001604051908101604052809392919081815260200183838082843760009201919091525050509152506040516001600160e01b031960e084901b168152610cb69190600401612019565b600060405180830381600087803b158015610cd057600080fd5b505af1158015610ce4573d6000803e3d6000fd5b505060008054604051631bb4d23160e01b81523360048201529193506201000090046001600160a01b03169150631bb4d23190602401602060405180830381865afa158015610d37573d6000803e3d6000fd5b505050506040513d601f19601f82011682018060405250810190610d5b9190611a6c565b6000546040805160e081019091528281529192506201000090046001600160a01b0316906329c301c29060208101610d966080870187611f61565b8080601f016020809104026020016040519081016040528093929190818152602001838380828437600092019190915250505090825250602001610de060c0870160a08801611fe0565b6001600160a01b03168152602001610dfb60c0870187611f61565b8080601f016020809104026020016040519081016040528093929190818152602001838380828437600092019190915250505090825250602001610e46610100870160e08801611fe0565b6001600160a01b03168152602001610e62610100870187611f61565b8080601f016020809104026020016040519081016040528093929190818152602001838380828437600092019190915250505090825250602001610eae6101408701610120880161209a565b15158152506040518263ffffffff1660e01b8152600401610ecf91906120b7565b6020604051808303816000875af1158015610eee573d6000803e3d6000fd5b505050506040513d601f19601f82011682018060405250810190610af89190611a6c565b604080518082018252600080825260208201526001549151635440522b60e01b81526004810184905290916001600160a01b031690635440522b906024016040805180830381865afa158015610f6c573d6000803e3d6000fd5b505050506040513d601f19601f820116820180604052508101906103f3919061219a565b600154604051632fbcce6360e11b8152600481018390526060916001600160a01b031690635f799cc690602401600060405180830381865afa158015610fda573d6000803e3d6000fd5b505050506040513d6000823e601f3d908101601f191682016040526103f391908101906121b6565b60008054604051636b87086360e11b81526004810185905260248101849052606092916201000090046001600160a01b03169063d70e10c690604401602060405180830381865afa15801561105b573d6000803e3d6000fd5b505050506040513d601f19601f8201168201806040525081019061107f9190611a6c565b600154604051639037c0f960e01b8152600481018390529192506001600160a01b031690639037c0f990602401600060405180830381865afa1580156110c9573d6000803e3d6000fd5b505050506040513d6000823e601f3d908101601f191682016040526103ef91908101906121ea565b60008054604051636b87086360e11b81526004810185905260248101849052606092916201000090046001600160a01b03169063d70e10c690604401602060405180830381865afa15801561114a573d6000803e3d6000fd5b505050506040513d601f19601f8201168201806040525081019061116e9190611a6c565b60015460405163a72d231760e01b8152600481018390529192506000916001600160a01b039091169063a72d231790602401600060405180830381865afa1580156111bd573d6000803e3d6000fd5b505050506040513d6000823e601f3d908101601f191682016040526111e59190810190611c7b565b80519091506000805b8281101561123d5761121884828151811061120b5761120b611dcb565b60200260200101516115c3565b1561122b578161122781611ef6565b9250505b8061123581611ef6565b9150506111ee565b50806001600160401b0381111561125657611256611a85565b60405190808252806020026020018201604052801561127f578160200160208202803683370190505b5094506000805b838110156112ff576112a385828151811061120b5761120b611dcb565b156112ed578481815181106112ba576112ba611dcb565b60200260200101518783815181106112d4576112d4611dcb565b6020908102919091010152816112e981611ef6565b9250505b806112f781611ef6565b915050611286565b50505050505092915050565b60008054604051636b87086360e11b81526004810185905260248101849052606092916201000090046001600160a01b03169063d70e10c690604401602060405180830381865afa158015611364573d6000803e3d6000fd5b505050506040513d601f19601f820116820180604052508101906113889190611a6c565b600154604051635c369ec360e01b8152600481018390529192506001600160a01b031690635c369ec390602401600060405180830381865afa1580156113d2573d6000803e3d6000fd5b505050506040513d6000823e601f3d908101601f191682016040526103ef919081019061227a565b60008054604051633c23d3d960e21b815260048101869052606092916201000090046001600160a01b03169063f08f4f6490602401600060405180830381865afa15801561144c573d6000803e3d6000fd5b505050506040513d6000823e601f3d908101601f191682016040526114749190810190612308565b60600151905061148d8361148886846123ce565b611643565b9250826001600160401b038111156114a7576114a7611a85565b6040519080825280602002602001820160405280156114e057816020015b6114cd611659565b8152602001906001900390816114c55790505b5091508084106114f057506115bc565b835b6114fc84866123e5565b8110156115b9576000546040516301b6923d60e71b81526004810188905260248101839052620100009091046001600160a01b03169063db491e8090604401600060405180830381865afa158015611558573d6000803e3d6000fd5b505050506040513d6000823e601f3d908101601f191682016040526115809190810190611e0a565b8361158b87846123ce565b8151811061159b5761159b611dcb565b602002602001018190525080806115b190611ef6565b9150506114f2565b50505b9392505050565b60008054604051633c23d3d960e21b815260048101849052620100009091046001600160a01b03169063f08f4f6490602401600060405180830381865afa158015611612573d6000803e3d6000fd5b505050506040513d6000823e601f3d908101601f1916820160405261163a9190810190612308565b51151592915050565b600081831061165257816115bc565b5090919050565b604080516101008101825260008082526020820181905260609282018390529181018290526080810182905260a0810182905260c0810182905260e081019190915290565b600080604083850312156116b157600080fd5b50508035926020909101359150565b60005b838110156116db5781810151838201526020016116c3565b838111156116ea576000848401525b50505050565b600081518084526117088160208601602086016116c0565b601f01601f19169290920160200192915050565b6000602080830181845280855180835260408601915060408160051b870101925083870160005b8281101561177157603f1988860301845261175f8583516116f0565b94509285019290850190600101611743565b5092979650505050505050565b6020808252825182820181905260009190848201906040850190845b818110156117b65783518352928401929184019160010161179a565b50909695505050505050565b60006020808301818452808551808352604092508286019150828160051b87010184880160005b8381101561187f57603f198984030185528151610100815185528882015189860152878201518189870152611820828701826116f0565b6060848101516001600160a01b039081169189019190915260808086015182169089015260a0808601519091169088015260c08085015115159088015260e09384015115159390960192909252505093860193908601906001016117e9565b509098975050505050505050565b60006020828403121561189f57600080fd5b81356001600160401b038111156118b557600080fd5b820160a081850312156115bc57600080fd5b6000602082840312156118d957600080fd5b5035919050565b6001600160a01b03811681146118f557600080fd5b50565b6000806040838503121561190b57600080fd5b8235611916816118e0565b91506020830135611926816118e0565b809150509250929050565b60006020828403121561194357600080fd5b81356001600160401b0381111561195957600080fd5b820161014081850312156115bc57600080fd5b81516001600160a01b0316815260208083015190820152604081016103f3565b6020815260006115bc60208301846116f0565b602080825282518282018190526000919060409081850190868401855b828110156119f2576119e284835180516001600160a01b03168252602090810151910152565b92840192908501906001016119bc565b5091979650505050505050565b6020808252825182820181905260009190848201906040850190845b818110156117b65783516001600160a01b031683529284019291840191600101611a1b565b600080600060608486031215611a5557600080fd5b505081359360208301359350604090920135919050565b600060208284031215611a7e57600080fd5b5051919050565b634e487b7160e01b600052604160045260246000fd5b604080519081016001600160401b0381118282101715611abd57611abd611a85565b60405290565b60405161010081016001600160401b0381118282101715611abd57611abd611a85565b60405160c081016001600160401b0381118282101715611abd57611abd611a85565b604051601f8201601f191681016001600160401b0381118282101715611b3057611b30611a85565b604052919050565b60006001600160401b03821115611b5157611b51611a85565b5060051b60200190565b600082601f830112611b6c57600080fd5b81516001600160401b03811115611b8557611b85611a85565b611b98601f8201601f1916602001611b08565b818152846020838601011115611bad57600080fd5b611bbe8260208301602087016116c0565b949350505050565b60006020808385031215611bd957600080fd5b82516001600160401b0380821115611bf057600080fd5b818501915085601f830112611c0457600080fd5b8151611c17611c1282611b38565b611b08565b81815260059190911b83018401908481019088831115611c3657600080fd5b8585015b83811015611c6e57805185811115611c525760008081fd5b611c608b89838a0101611b5b565b845250918601918601611c3a565b5098975050505050505050565b60006020808385031215611c8e57600080fd5b82516001600160401b03811115611ca457600080fd5b8301601f81018513611cb557600080fd5b8051611cc3611c1282611b38565b81815260059190911b82018301908381019087831115611ce257600080fd5b928401925b82841015611d0057835182529284019290840190611ce7565b979650505050505050565b600060408284031215611d1d57600080fd5b611d25611a9b565b9050815181526020820151602082015292915050565b60006020808385031215611d4e57600080fd5b82516001600160401b03811115611d6457600080fd5b8301601f81018513611d7557600080fd5b8051611d83611c1282611b38565b81815260069190911b82018301908381019087831115611da257600080fd5b928401925b82841015611d0057611db98885611d0b565b82528482019150604084019350611da7565b634e487b7160e01b600052603260045260246000fd5b8051611dec816118e0565b919050565b80151581146118f557600080fd5b8051611dec81611df1565b600060208284031215611e1c57600080fd5b81516001600160401b0380821115611e3357600080fd5b908301906101008286031215611e4857600080fd5b611e50611ac3565b8251815260208301516020820152604083015182811115611e7057600080fd5b611e7c87828601611b5b565b604083015250611e8e60608401611de1565b6060820152611e9f60808401611de1565b6080820152611eb060a08401611de1565b60a0820152611ec160c08401611dff565b60c0820152611ed260e08401611dff565b60e082015295945050505050565b634e487b7160e01b600052601160045260246000fd5b6000600019821415611f0a57611f0a611ee0565b5060010190565b6000808335601e19843603018112611f2857600080fd5b8301803591506001600160401b03821115611f4257600080fd5b6020019150600581901b3603821315611f5a57600080fd5b9250929050565b6000808335601e19843603018112611f7857600080fd5b8301803591506001600160401b03821115611f9257600080fd5b602001915036819003821315611f5a57600080fd5b60208152815160208201526020820151604082015260408201516060820152600060608301516080808401526103ef60a08401826116f0565b600060208284031215611ff257600080fd5b81356115bc816118e0565b60006040828403121561200f57600080fd5b6115bc8383611d0b565b60208152600060018060a01b03808451166020840152602084015160a0604085015261204860c08501826116f0565b90506040850151601f198086840301606087015261206683836116f0565b925083606088015116608087015260808701519350808684030160a0870152505061209181836116f0565b95945050505050565b6000602082840312156120ac57600080fd5b81356115bc81611df1565b60208152815160208201526000602083015160e060408401526120de6101008401826116f0565b60408501516001600160a01b03908116606086810191909152860151858303601f1990810160808801529293509161211684846116f0565b93508160808801511660a087015260a08701519250808685030160c0870152505061214182826116f0565b91505060c084015161215760e085018215159052565b509392505050565b60006040828403121561217157600080fd5b612179611a9b565b90508151612186816118e0565b808252506020820151602082015292915050565b6000604082840312156121ac57600080fd5b6115bc838361215f565b6000602082840312156121c857600080fd5b81516001600160401b038111156121de57600080fd5b6103ef84828501611b5b565b600060208083850312156121fd57600080fd5b82516001600160401b0381111561221357600080fd5b8301601f8101851361222457600080fd5b8051612232611c1282611b38565b81815260069190911b8201830190838101908783111561225157600080fd5b928401925b82841015611d0057612268888561215f565b82528482019150604084019350612256565b6000602080838503121561228d57600080fd5b82516001600160401b038111156122a357600080fd5b8301601f810185136122b457600080fd5b80516122c2611c1282611b38565b81815260059190911b820183019083810190878311156122e157600080fd5b928401925b82841015611d005783516122f9816118e0565b825292840192908401906122e6565b60006020828403121561231a57600080fd5b81516001600160401b038082111561233157600080fd5b9083019060c0828603121561234557600080fd5b61234d611ae6565b8251815260208301518281111561236357600080fd5b61236f87828601611b5b565b60208301525060408301518281111561238757600080fd5b61239387828601611b5b565b604083015250606083015160608201526123af60808401611de1565b60808201526123c060a08401611de1565b60a082015295945050505050565b6000828210156123e0576123e0611ee0565b500390565b600082198211156123f8576123f8611ee0565b50019056fea26469706673582212209baa3f27beee44fd33d31909f6b252c6961fdb4a5e3a65ec4fde93dc2bcf3d0c64736f6c634300080a0033",
    "linkReferences": {},
    "deployedLinkReferences": {}
}