{
  "_format": "hh-sol-artifact-1",
  "contractName": "Tips",
  "sourceName": "contracts/misc/Tips.sol",
  "abi": [
    {
      "inputs": [],
      "name": "ErrCallerNotCharacterOwner",
      "type": "error"
    },
    {
      "anonymous": false,
      "inputs": [
        {
          "indexed": false,
          "internalType": "uint8",
          "name": "version",
          "type": "uint8"
        }
      ],
      "name": "Initialized",
      "type": "event"
    },
    {
      "anonymous": false,
      "inputs": [
        {
          "indexed": true,
          "internalType": "uint256",
          "name": "fromCharacterId",
          "type": "uint256"
        },
        {
          "indexed": true,
          "internalType": "uint256",
          "name": "toCharacterId",
          "type": "uint256"
        },
        {
          "indexed": false,
          "internalType": "address",
          "name": "token",
          "type": "address"
        },
        {
          "indexed": false,
          "internalType": "uint256",
          "name": "amount",
          "type": "uint256"
        }
      ],
      "name": "TipCharacter",
      "type": "event"
    },
    {
      "anonymous": false,
      "inputs": [
        {
          "indexed": true,
          "internalType": "uint256",
          "name": "fromCharacterId",
          "type": "uint256"
        },
        {
          "indexed": true,
          "internalType": "uint256",
          "name": "toCharacterId",
          "type": "uint256"
        },
        {
          "indexed": true,
          "internalType": "uint256",
          "name": "toNoteId",
          "type": "uint256"
        },
        {
          "indexed": false,
          "internalType": "address",
          "name": "token",
          "type": "address"
        },
        {
          "indexed": false,
          "internalType": "uint256",
          "name": "amount",
          "type": "uint256"
        }
      ],
      "name": "TipCharacterForNote",
      "type": "event"
    },
    {
      "inputs": [],
      "name": "ERC1820_REGISTRY",
      "outputs": [
        {
          "internalType": "contract IERC1820Registry",
          "name": "",
          "type": "address"
        }
      ],
      "stateMutability": "view",
      "type": "function"
    },
    {
      "inputs": [],
      "name": "TOKENS_RECIPIENT_INTERFACE_HASH",
      "outputs": [
        {
          "internalType": "bytes32",
          "name": "",
          "type": "bytes32"
        }
      ],
      "stateMutability": "view",
      "type": "function"
    },
    {
      "inputs": [],
      "name": "getToken",
      "outputs": [
        {
          "internalType": "address",
          "name": "",
          "type": "address"
        }
      ],
      "stateMutability": "view",
      "type": "function"
    },
    {
      "inputs": [],
      "name": "getWeb3Entry",
      "outputs": [
        {
          "internalType": "address",
          "name": "",
          "type": "address"
        }
      ],
      "stateMutability": "view",
      "type": "function"
    },
    {
      "inputs": [
        {
          "internalType": "address",
          "name": "web3Entry_",
          "type": "address"
        },
        {
          "internalType": "address",
          "name": "token_",
          "type": "address"
        }
      ],
      "name": "initialize",
      "outputs": [],
      "stateMutability": "nonpayable",
      "type": "function"
    },
    {
      "inputs": [
        {
          "internalType": "address",
          "name": "",
          "type": "address"
        },
        {
          "internalType": "address",
          "name": "from",
          "type": "address"
        },
        {
          "internalType": "address",
          "name": "to",
          "type": "address"
        },
        {
          "internalType": "uint256",
          "name": "amount",
          "type": "uint256"
        },
        {
          "internalType": "bytes",
          "name": "userData",
          "type": "bytes"
        },
        {
          "internalType": "bytes",
          "name": "operatorData",
          "type": "bytes"
        }
      ],
      "name": "tokensReceived",
      "outputs": [],
      "stateMutability": "nonpayable",
      "type": "function"
    }
  ],
  "bytecode": "0x608060405234801561001057600080fd5b50610995806100206000396000f3fe608060405234801561001057600080fd5b50600436106100615760003560e01c806223de2914610066578063013eb1771461007b57806321df0da7146100b3578063485cc955146100c457806372581cc0146100d7578063d1fc884c1461010c575b600080fd5b61007961007436600461079a565b610123565b005b610096731820a4b7618bde71dce8cdc73aab6c95905fad2481565b6040516001600160a01b0390911681526020015b60405180910390f35b6001546001600160a01b0316610096565b6100796100d236600461084b565b6102ff565b6100fe7fb281fc8c12954d22544db45de3159a39272895b169a852b314f9cc762e44c53b81565b6040519081526020016100aa565b6000546201000090046001600160a01b0316610096565b6001546001600160a01b031633146101785760405162461bcd60e51b81526020600482015260136024820152722a34b8399d1034b73b30b634b2103a37b5b2b760691b60448201526064015b60405180910390fd5b306001600160a01b038716146101c95760405162461bcd60e51b81526020600482015260166024820152752a34b8399d1034b73b30b634b2103932b1b2b4bb32b960511b604482015260640161016f565b6000836101d75782826101da565b84845b8080601f016020809104026020016040519081016040528093929190818152602001838380828437600092019190915250508251929350505060400361025957600080828060200190518101906102319190610884565b6001549193509150610252908b90849084906001600160a01b03168c6104dc565b50506102f4565b80516060036102ac5760008060008380602001905181019061027b91906108a8565b9250925092506102a48b848484600160009054906101000a90046001600160a01b03168e61053a565b5050506102f4565b60405162461bcd60e51b815260206004820152601760248201527f546970733a20756e6b6e6f776e20726563656976696e67000000000000000000604482015260640161016f565b505050505050505050565b600054610100900460ff161580801561031f5750600054600160ff909116105b806103395750303b158015610339575060005460ff166001145b61039c5760405162461bcd60e51b815260206004820152602e60248201527f496e697469616c697a61626c653a20636f6e747261637420697320616c72656160448201526d191e481a5b9a5d1a585b1a5e995960921b606482015260840161016f565b6000805460ff1916600117905580156103bf576000805461ff0019166101001790555b6000805462010000600160b01b031916620100006001600160a01b038681169190910291909117909155600180546001600160a01b0319169184169190911790556040516329965a1d60e01b815230600482018190527fb281fc8c12954d22544db45de3159a39272895b169a852b314f9cc762e44c53b60248301526044820152731820a4b7618bde71dce8cdc73aab6c95905fad24906329965a1d90606401600060405180830381600087803b15801561047957600080fd5b505af115801561048d573d6000803e3d6000fd5b5050505080156104d7576000805461ff0019169055604051600181527f7f26b83ff96e1f2b6a682f133852f6798a09c465da95921460cefb38474024989060200160405180910390a15b505050565b6104e98585858585610597565b600154604080516001600160a01b03909216825260208201839052849186917f9aa19e93d7c44ea227cf13c500c5e9bfcc7df95775b643011bf571ac13fa6038910160405180910390a35050505050565b6105478686868585610597565b604080516001600160a01b0384168152602081018390528491869188917f3cfc312a05bba2ef0c4efdf6a7a4ef883e9e35f403da1b4cbc810b3ba738dab5910160405180910390a4505050505050565b6000546040516331a9108f60e11b815260048101869052620100009091046001600160a01b031690636352211e90602401602060405180830381865afa1580156105e5573d6000803e3d6000fd5b505050506040513d601f19601f8201168201806040525081019061060991906108d6565b6001600160a01b0316856001600160a01b03161461063a57604051630f3a621360e41b815260040160405180910390fd5b604080516020810186905290810184905260009060600160408051808303601f19018152908290526000546331a9108f60e11b8352600483018790529092506001600160a01b0385811692639bd9bbc69262010000900490911690636352211e90602401602060405180830381865afa1580156106bb573d6000803e3d6000fd5b505050506040513d601f19601f820116820180604052508101906106df91906108d6565b84846040518463ffffffff1660e01b81526004016106ff939291906108fa565b600060405180830381600087803b15801561071957600080fd5b505af115801561072d573d6000803e3d6000fd5b50505050505050505050565b6001600160a01b038116811461074e57600080fd5b50565b60008083601f84011261076357600080fd5b50813567ffffffffffffffff81111561077b57600080fd5b60208301915083602082850101111561079357600080fd5b9250929050565b60008060008060008060008060c0898b0312156107b657600080fd5b88356107c181610739565b975060208901356107d181610739565b965060408901356107e181610739565b955060608901359450608089013567ffffffffffffffff8082111561080557600080fd5b6108118c838d01610751565b909650945060a08b013591508082111561082a57600080fd5b506108378b828c01610751565b999c989b5096995094979396929594505050565b6000806040838503121561085e57600080fd5b823561086981610739565b9150602083013561087981610739565b809150509250929050565b6000806040838503121561089757600080fd5b505080516020909101519092909150565b6000806000606084860312156108bd57600080fd5b8351925060208401519150604084015190509250925092565b6000602082840312156108e857600080fd5b81516108f381610739565b9392505050565b60018060a01b038416815260006020848184015260606040840152835180606085015260005b8181101561093c57858101830151858201608001528201610920565b506000608082860101526080601f19601f8301168501019250505094935050505056fea26469706673582212205a1fbc6fc8a22147ee33115b6ea2185a937aabb830b21b5ae7b48eaa253b1e4264736f6c63430008100033",
  "linkReferences": {},
  "deployedLinkReferences": {}
}