{
  "_format": "hh-sol-artifact-1",
  "contractName": "Tips",
  "sourceName": "contracts/misc/Tips.sol",
  "abi": [
    {
      "inputs": [],
      "name": "ErrCallerNotCharacterOwner",
      "type": "error"
    },
    {
      "anonymous": false,
      "inputs": [
        {
          "indexed": false,
          "internalType": "uint8",
          "name": "version",
          "type": "uint8"
        }
      ],
      "name": "Initialized",
      "type": "event"
    },
    {
      "anonymous": false,
      "inputs": [
        {
          "indexed": true,
          "internalType": "uint256",
          "name": "fromCharacterId",
          "type": "uint256"
        },
        {
          "indexed": true,
          "internalType": "uint256",
          "name": "toCharacterId",
          "type": "uint256"
        },
        {
          "indexed": false,
          "internalType": "address",
          "name": "token",
          "type": "address"
        },
        {
          "indexed": false,
          "internalType": "uint256",
          "name": "amount",
          "type": "uint256"
        }
      ],
      "name": "TipCharacter",
      "type": "event"
    },
    {
      "anonymous": false,
      "inputs": [
        {
          "indexed": true,
          "internalType": "uint256",
          "name": "fromCharacterId",
          "type": "uint256"
        },
        {
          "indexed": true,
          "internalType": "uint256",
          "name": "toCharacterId",
          "type": "uint256"
        },
        {
          "indexed": true,
          "internalType": "uint256",
          "name": "toNoteId",
          "type": "uint256"
        },
        {
          "indexed": false,
          "internalType": "address",
          "name": "token",
          "type": "address"
        },
        {
          "indexed": false,
          "internalType": "uint256",
          "name": "amount",
          "type": "uint256"
        }
      ],
      "name": "TipCharacterForNote",
      "type": "event"
    },
    {
      "inputs": [
        {
          "internalType": "address",
          "name": "web3Entry_",
          "type": "address"
        }
      ],
      "name": "initialize",
      "outputs": [],
      "stateMutability": "nonpayable",
      "type": "function"
    },
    {
      "inputs": [
        {
          "internalType": "uint256",
          "name": "fromCharacterId",
          "type": "uint256"
        },
        {
          "internalType": "uint256",
          "name": "toCharacterId",
          "type": "uint256"
        },
        {
          "internalType": "address",
          "name": "token",
          "type": "address"
        },
        {
          "internalType": "uint256",
          "name": "amount",
          "type": "uint256"
        }
      ],
      "name": "tipCharacter",
      "outputs": [],
      "stateMutability": "nonpayable",
      "type": "function"
    },
    {
      "inputs": [
        {
          "internalType": "uint256",
          "name": "fromCharacterId",
          "type": "uint256"
        },
        {
          "internalType": "uint256",
          "name": "toCharacterId",
          "type": "uint256"
        },
        {
          "internalType": "uint256",
          "name": "toNoteId",
          "type": "uint256"
        },
        {
          "internalType": "address",
          "name": "token",
          "type": "address"
        },
        {
          "internalType": "uint256",
          "name": "amount",
          "type": "uint256"
        }
      ],
      "name": "tipCharacterForNote",
      "outputs": [],
      "stateMutability": "nonpayable",
      "type": "function"
    },
    {
      "inputs": [],
      "name": "web3Entry",
      "outputs": [
        {
          "internalType": "address",
          "name": "",
          "type": "address"
        }
      ],
      "stateMutability": "view",
      "type": "function"
    }
  ],
  "bytecode": "0x608060405234801561001057600080fd5b50610954806100206000396000f3fe608060405234801561001057600080fd5b506004361061004c5760003560e01c806304dc936c146100515780632ce549c614610066578063c4d66de814610079578063e13322721461008c575b600080fd5b61006461005f3660046107c0565b6100c1565b005b6100646100743660046107ff565b610237565b610064610087366004610848565b6103b0565b6000546100a5906201000090046001600160a01b031681565b6040516001600160a01b03909116815260200160405180910390f35b600080546040516331a9108f60e11b815260048101879052620100009091046001600160a01b031690636352211e90602401602060405180830381865afa158015610110573d6000803e3d6000fd5b505050506040513d601f19601f82011682018060405250810190610134919061086c565b9050336001600160a01b0382161461015f57604051630f3a621360e41b815260040160405180910390fd5b600080546040516331a9108f60e11b815260048101879052620100009091046001600160a01b031690636352211e90602401602060405180830381865afa1580156101ae573d6000803e3d6000fd5b505050506040513d601f19601f820116820180604052508101906101d2919061086c565b90506101e96001600160a01b0385163383866104e1565b604080516001600160a01b038616815260208101859052869188917f9aa19e93d7c44ea227cf13c500c5e9bfcc7df95775b643011bf571ac13fa6038910160405180910390a3505050505050565b600080546040516331a9108f60e11b815260048101889052620100009091046001600160a01b031690636352211e90602401602060405180830381865afa158015610286573d6000803e3d6000fd5b505050506040513d601f19601f820116820180604052508101906102aa919061086c565b9050336001600160a01b038216146102d557604051630f3a621360e41b815260040160405180910390fd5b600080546040516331a9108f60e11b815260048101889052620100009091046001600160a01b031690636352211e90602401602060405180830381865afa158015610324573d6000803e3d6000fd5b505050506040513d601f19601f82011682018060405250810190610348919061086c565b905061035f6001600160a01b0385163383866104e1565b604080516001600160a01b038616815260208101859052869188918a917f3cfc312a05bba2ef0c4efdf6a7a4ef883e9e35f403da1b4cbc810b3ba738dab5910160405180910390a450505050505050565b600054610100900460ff16158080156103d05750600054600160ff909116105b806103ea5750303b1580156103ea575060005460ff166001145b6104525760405162461bcd60e51b815260206004820152602e60248201527f496e697469616c697a61626c653a20636f6e747261637420697320616c72656160448201526d191e481a5b9a5d1a585b1a5e995960921b60648201526084015b60405180910390fd5b6000805460ff191660011790558015610475576000805461ff0019166101001790555b6000805462010000600160b01b031916620100006001600160a01b0385160217905580156104dd576000805461ff0019169055604051600181527f7f26b83ff96e1f2b6a682f133852f6798a09c465da95921460cefb38474024989060200160405180910390a15b5050565b604080516001600160a01b0385811660248301528416604482015260648082018490528251808303909101815260849091019091526020810180516001600160e01b03166323b872dd60e01b17905261053b908590610541565b50505050565b6000610596826040518060400160405280602081526020017f5361666545524332303a206c6f772d6c6576656c2063616c6c206661696c6564815250856001600160a01b03166106189092919063ffffffff16565b80519091501561061357808060200190518101906105b49190610889565b6106135760405162461bcd60e51b815260206004820152602a60248201527f5361666545524332303a204552433230206f7065726174696f6e20646964206e6044820152691bdd081cdd58d8d9595960b21b6064820152608401610449565b505050565b6060610627848460008561062f565b949350505050565b6060824710156106905760405162461bcd60e51b815260206004820152602660248201527f416464726573733a20696e73756666696369656e742062616c616e636520666f6044820152651c8818d85b1b60d21b6064820152608401610449565b600080866001600160a01b031685876040516106ac91906108cf565b60006040518083038185875af1925050503d80600081146106e9576040519150601f19603f3d011682016040523d82523d6000602084013e6106ee565b606091505b50915091506106ff8783838761070a565b979650505050505050565b60608315610779578251600003610772576001600160a01b0385163b6107725760405162461bcd60e51b815260206004820152601d60248201527f416464726573733a2063616c6c20746f206e6f6e2d636f6e74726163740000006044820152606401610449565b5081610627565b610627838381511561078e5781518083602001fd5b8060405162461bcd60e51b815260040161044991906108eb565b6001600160a01b03811681146107bd57600080fd5b50565b600080600080608085870312156107d657600080fd5b843593506020850135925060408501356107ef816107a8565b9396929550929360600135925050565b600080600080600060a0868803121561081757600080fd5b8535945060208601359350604086013592506060860135610837816107a8565b949793965091946080013592915050565b60006020828403121561085a57600080fd5b8135610865816107a8565b9392505050565b60006020828403121561087e57600080fd5b8151610865816107a8565b60006020828403121561089b57600080fd5b8151801515811461086557600080fd5b60005b838110156108c65781810151838201526020016108ae565b50506000910152565b600082516108e18184602087016108ab565b9190910192915050565b602081526000825180602084015261090a8160408501602087016108ab565b601f01601f1916919091016040019291505056fea264697066735822122056b261bab720af690f011a5daa40bdb3e2fd7527fabfa5aff9bf8b57e056bba964736f6c63430008100033",
  "linkReferences": {},
  "deployedLinkReferences": {}
}