{
  "_format": "hh-sol-artifact-1",
  "contractName": "TipsWithFee",
  "sourceName": "contracts/misc/TipsWithFee.sol",
  "abi": [
    {
      "anonymous": false,
      "inputs": [
        {
          "indexed": false,
          "internalType": "uint8",
          "name": "version",
          "type": "uint8"
        }
      ],
      "name": "Initialized",
      "type": "event"
    },
    {
      "anonymous": false,
      "inputs": [
        {
          "indexed": true,
          "internalType": "uint256",
          "name": "fromCharacterId",
          "type": "uint256"
        },
        {
          "indexed": true,
          "internalType": "uint256",
          "name": "toCharacterId",
          "type": "uint256"
        },
        {
          "indexed": false,
          "internalType": "address",
          "name": "token",
          "type": "address"
        },
        {
          "indexed": false,
          "internalType": "uint256",
          "name": "amount",
          "type": "uint256"
        },
        {
          "indexed": false,
          "internalType": "uint256",
          "name": "fee",
          "type": "uint256"
        },
        {
          "indexed": false,
          "internalType": "address",
          "name": "feeReceiver",
          "type": "address"
        }
      ],
      "name": "TipCharacter",
      "type": "event"
    },
    {
      "anonymous": false,
      "inputs": [
        {
          "indexed": true,
          "internalType": "uint256",
          "name": "fromCharacterId",
          "type": "uint256"
        },
        {
          "indexed": true,
          "internalType": "uint256",
          "name": "toCharacterId",
          "type": "uint256"
        },
        {
          "indexed": true,
          "internalType": "uint256",
          "name": "toNoteId",
          "type": "uint256"
        },
        {
          "indexed": false,
          "internalType": "address",
          "name": "token",
          "type": "address"
        },
        {
          "indexed": false,
          "internalType": "uint256",
          "name": "amount",
          "type": "uint256"
        },
        {
          "indexed": false,
          "internalType": "uint256",
          "name": "fee",
          "type": "uint256"
        },
        {
          "indexed": false,
          "internalType": "address",
          "name": "feeReceiver",
          "type": "address"
        }
      ],
      "name": "TipCharacterForNote",
      "type": "event"
    },
    {
      "inputs": [],
      "name": "ERC1820_REGISTRY",
      "outputs": [
        {
          "internalType": "contract IERC1820Registry",
          "name": "",
          "type": "address"
        }
      ],
      "stateMutability": "view",
      "type": "function"
    },
    {
      "inputs": [],
      "name": "TOKENS_RECIPIENT_INTERFACE_HASH",
      "outputs": [
        {
          "internalType": "bytes32",
          "name": "",
          "type": "bytes32"
        }
      ],
      "stateMutability": "view",
      "type": "function"
    },
    {
      "inputs": [
        {
          "internalType": "address",
          "name": "feeReceiver",
          "type": "address"
        },
        {
          "internalType": "uint256",
          "name": "characterId",
          "type": "uint256"
        },
        {
          "internalType": "uint256",
          "name": "noteId",
          "type": "uint256"
        },
        {
          "internalType": "uint256",
          "name": "tipAmount",
          "type": "uint256"
        }
      ],
      "name": "getFeeAmount",
      "outputs": [
        {
          "internalType": "uint256",
          "name": "",
          "type": "uint256"
        }
      ],
      "stateMutability": "view",
      "type": "function"
    },
    {
      "inputs": [
        {
          "internalType": "address",
          "name": "feeReceiver",
          "type": "address"
        },
        {
          "internalType": "uint256",
          "name": "characterId",
          "type": "uint256"
        },
        {
          "internalType": "uint256",
          "name": "noteId",
          "type": "uint256"
        }
      ],
      "name": "getFeeFraction",
      "outputs": [
        {
          "internalType": "uint256",
          "name": "",
          "type": "uint256"
        }
      ],
      "stateMutability": "view",
      "type": "function"
    },
    {
      "inputs": [],
      "name": "getToken",
      "outputs": [
        {
          "internalType": "address",
          "name": "",
          "type": "address"
        }
      ],
      "stateMutability": "view",
      "type": "function"
    },
    {
      "inputs": [],
      "name": "getWeb3Entry",
      "outputs": [
        {
          "internalType": "address",
          "name": "",
          "type": "address"
        }
      ],
      "stateMutability": "view",
      "type": "function"
    },
    {
      "inputs": [
        {
          "internalType": "address",
          "name": "web3Entry_",
          "type": "address"
        },
        {
          "internalType": "address",
          "name": "token_",
          "type": "address"
        }
      ],
      "name": "initialize",
      "outputs": [],
      "stateMutability": "nonpayable",
      "type": "function"
    },
    {
      "inputs": [
        {
          "internalType": "address",
          "name": "feeReceiver",
          "type": "address"
        },
        {
          "internalType": "uint256",
          "name": "fraction",
          "type": "uint256"
        }
      ],
      "name": "setDefaultFeeFraction",
      "outputs": [],
      "stateMutability": "nonpayable",
      "type": "function"
    },
    {
      "inputs": [
        {
          "internalType": "address",
          "name": "feeReceiver",
          "type": "address"
        },
        {
          "internalType": "uint256",
          "name": "characterId",
          "type": "uint256"
        },
        {
          "internalType": "uint256",
          "name": "fraction",
          "type": "uint256"
        }
      ],
      "name": "setFeeFraction4Character",
      "outputs": [],
      "stateMutability": "nonpayable",
      "type": "function"
    },
    {
      "inputs": [
        {
          "internalType": "address",
          "name": "feeReceiver",
          "type": "address"
        },
        {
          "internalType": "uint256",
          "name": "characterId",
          "type": "uint256"
        },
        {
          "internalType": "uint256",
          "name": "noteId",
          "type": "uint256"
        },
        {
          "internalType": "uint256",
          "name": "fraction",
          "type": "uint256"
        }
      ],
      "name": "setFeeFraction4Note",
      "outputs": [],
      "stateMutability": "nonpayable",
      "type": "function"
    },
    {
      "inputs": [
        {
          "internalType": "address",
          "name": "",
          "type": "address"
        },
        {
          "internalType": "address",
          "name": "from",
          "type": "address"
        },
        {
          "internalType": "address",
          "name": "to",
          "type": "address"
        },
        {
          "internalType": "uint256",
          "name": "amount",
          "type": "uint256"
        },
        {
          "internalType": "bytes",
          "name": "userData",
          "type": "bytes"
        },
        {
          "internalType": "bytes",
          "name": "operatorData",
          "type": "bytes"
        }
      ],
      "name": "tokensReceived",
      "outputs": [],
      "stateMutability": "nonpayable",
      "type": "function"
    }
  ],
  "bytecode": "0x608060405234801561001057600080fd5b50610f59806100206000396000f3fe608060405234801561001057600080fd5b50600436106100a85760003560e01c806373a2e2f61161007157806373a2e2f614610153578063c094753414610166578063d1fc884c14610179578063dab75ac414610190578063e09a8c9d146101a3578063f047dfe2146101b657600080fd5b806223de29146100ad578063013eb177146100c257806321df0da7146100fa578063485cc9551461010b57806372581cc01461011e575b600080fd5b6100c06100bb366004610bac565b6101c9565b005b6100dd731820a4b7618bde71dce8cdc73aab6c95905fad2481565b6040516001600160a01b0390911681526020015b60405180910390f35b6001546001600160a01b03166100dd565b6100c0610119366004610c5d565b6103c2565b6101457fb281fc8c12954d22544db45de3159a39272895b169a852b314f9cc762e44c53b81565b6040519081526020016100f1565b6100c0610161366004610c96565b61059f565b6100c0610174366004610cd1565b61061d565b6000546201000090046001600160a01b03166100dd565b61014561019e366004610c96565b610691565b6101456101b1366004610cd1565b6106a8565b6100c06101c4366004610d06565b6106bf565b6001546001600160a01b031633146102285760405162461bcd60e51b815260206004820152601a60248201527f54697073576974684665653a20696e76616c696420746f6b656e00000000000060448201526064015b60405180910390fd5b306001600160a01b038716146102805760405162461bcd60e51b815260206004820152601d60248201527f54697073576974684665653a20696e76616c6964207265636569766572000000604482015260640161021f565b60008361028e578282610291565b84845b8080601f0160208091040260200160405190810160405280939291908181526020018383808284376000920191909152505082519293505050606003610317576000806000838060200190518101906102ea9190610d32565b600154929550909350915061030f908c90859085906001600160a01b03168d86610729565b5050506103b7565b805160800361036f576000806000808480602001905181019061033a9190610d6b565b93509350935093506103668c858585600160009054906101000a90046001600160a01b03168f87610741565b505050506103b7565b60405162461bcd60e51b815260206004820152601e60248201527f54697073576974684665653a20756e6b6e6f776e20726563656976696e670000604482015260640161021f565b505050505050505050565b600054610100900460ff16158080156103e25750600054600160ff909116105b806103fc5750303b1580156103fc575060005460ff166001145b61045f5760405162461bcd60e51b815260206004820152602e60248201527f496e697469616c697a61626c653a20636f6e747261637420697320616c72656160448201526d191e481a5b9a5d1a585b1a5e995960921b606482015260840161021f565b6000805460ff191660011790558015610482576000805461ff0019166101001790555b6000805462010000600160b01b031916620100006001600160a01b038681169190910291909117909155600180546001600160a01b0319169184169190911790556040516329965a1d60e01b815230600482018190527fb281fc8c12954d22544db45de3159a39272895b169a852b314f9cc762e44c53b60248301526044820152731820a4b7618bde71dce8cdc73aab6c95905fad24906329965a1d90606401600060405180830381600087803b15801561053c57600080fd5b505af1158015610550573d6000803e3d6000fd5b50505050801561059a576000805461ff0019169055604051600181527f7f26b83ff96e1f2b6a682f133852f6798a09c465da95921460cefb38474024989060200160405180910390a15b505050565b836001600160a01b03811633146105c85760405162461bcd60e51b815260040161021f90610dac565b816127108111156105eb5760405162461bcd60e51b815260040161021f90610def565b50506001600160a01b039093166000908152600460209081526040808320948352938152838220928252919091522055565b826001600160a01b03811633146106465760405162461bcd60e51b815260040161021f90610dac565b816127108111156106695760405162461bcd60e51b815260040161021f90610def565b50506001600160a01b0390921660009081526003602090815260408083209383529290522055565b600061069f85858585610759565b95945050505050565b60006106b584848461078d565b90505b9392505050565b816001600160a01b03811633146106e85760405162461bcd60e51b815260040161021f90610dac565b8161271081111561070b5760405162461bcd60e51b815260040161021f90610def565b50506001600160a01b03909116600090815260026020526040902055565b6107398686866000878787610817565b505050505050565b61075087878787878787610817565b50505050505050565b60008061076786868661078d565b905060006127106107788386610e47565b6107829190610e66565b979650505050505050565b6001600160a01b0383166000908152600460209081526040808320858452825280832084845290915281205480156107c65790506106b8565b506001600160a01b038416600090815260036020908152604080832086845290915290205480156107f85790506106b8565b505050506001600160a01b031660009081526002602052604090205490565b6000546040516331a9108f60e11b815260048101889052620100009091046001600160a01b031690636352211e90602401602060405180830381865afa158015610865573d6000803e3d6000fd5b505050506040513d601f19601f820116820180604052508101906108899190610e88565b6001600160a01b0316876001600160a01b0316146108fc5760405162461bcd60e51b815260206004820152602a60248201527f54697073576974684665653a2063616c6c6572206973206e6f7420636861726160448201526931ba32b91037bbb732b960b11b606482015260840161021f565b600061090a82878786610759565b60408051602081018a9052908101889052606081018790526001600160a01b038416608082015290915060009060a00160408051808303601f19018152908290526000546331a9108f60e11b8352600483018a90529092506001600160a01b0387811692639bd9bbc69262010000900490911690636352211e90602401602060405180830381865afa1580156109a4573d6000803e3d6000fd5b505050506040513d601f19601f820116820180604052508101906109c89190610e88565b6109d28588610ea5565b846040518463ffffffff1660e01b81526004016109f193929190610ebe565b600060405180830381600087803b158015610a0b57600080fd5b505af1158015610a1f573d6000803e3d6000fd5b5050604051634decdde360e11b81526001600160a01b0388169250639bd9bbc69150610a5390869086908690600401610ebe565b600060405180830381600087803b158015610a6d57600080fd5b505af1158015610a81573d6000803e3d6000fd5b5050505085600003610ae757604080516001600160a01b0387811682526020820187905281830185905285166060820152905188918a917fe85973dbedb22b7bd536a7fcbb9f715209c8f322820a033769c3ac1b32d869039181900360800190a36103b7565b604080516001600160a01b038088168252602082018790529181018490529084166060820152869088908a907f0ddb521664a7f42e06a3fd4ba77dbc587a4ca7d02c1cb72633639ce51c9550b59060800160405180910390a4505050505050505050565b6001600160a01b0381168114610b6057600080fd5b50565b60008083601f840112610b7557600080fd5b50813567ffffffffffffffff811115610b8d57600080fd5b602083019150836020828501011115610ba557600080fd5b9250929050565b60008060008060008060008060c0898b031215610bc857600080fd5b8835610bd381610b4b565b97506020890135610be381610b4b565b96506040890135610bf381610b4b565b955060608901359450608089013567ffffffffffffffff80821115610c1757600080fd5b610c238c838d01610b63565b909650945060a08b0135915080821115610c3c57600080fd5b50610c498b828c01610b63565b999c989b5096995094979396929594505050565b60008060408385031215610c7057600080fd5b8235610c7b81610b4b565b91506020830135610c8b81610b4b565b809150509250929050565b60008060008060808587031215610cac57600080fd5b8435610cb781610b4b565b966020860135965060408601359560600135945092505050565b600080600060608486031215610ce657600080fd5b8335610cf181610b4b565b95602085013595506040909401359392505050565b60008060408385031215610d1957600080fd5b8235610d2481610b4b565b946020939093013593505050565b600080600060608486031215610d4757600080fd5b83519250602084015191506040840151610d6081610b4b565b809150509250925092565b60008060008060808587031215610d8157600080fd5b8451935060208501519250604085015191506060850151610da181610b4b565b939692955090935050565b60208082526023908201527f54697073576974684665653a2063616c6c6572206973206e6f742072656365696040820152623b32b960e91b606082015260800190565b60208082526022908201527f54697073576974684665653a206672616374696f6e206f7574206f662072616e604082015261676560f01b606082015260800190565b634e487b7160e01b600052601160045260246000fd5b6000816000190483118215151615610e6157610e61610e31565b500290565b600082610e8357634e487b7160e01b600052601260045260246000fd5b500490565b600060208284031215610e9a57600080fd5b81516106b881610b4b565b81810381811115610eb857610eb8610e31565b92915050565b60018060a01b038416815260006020848184015260606040840152835180606085015260005b81811015610f0057858101830151858201608001528201610ee4565b506000608082860101526080601f19601f8301168501019250505094935050505056fea2646970667358221220cbb52f9a6959b6ae40157f38ad21b6044c761a622d1b34d5d3c8c6caa1afe4e164736f6c63430008100033",
  "linkReferences": {},
  "deployedLinkReferences": {}
}