{
  "_format": "hh-sol-artifact-1",
  "contractName": "TipsWithConfig",
  "sourceName": "contracts/misc/TipsWithConfig.sol",
  "abi": [
    {
      "anonymous": false,
      "inputs": [
        {
          "indexed": true,
          "internalType": "uint256",
          "name": "tipConfigId",
          "type": "uint256"
        }
      ],
      "name": "CancelTips4Character",
      "type": "event"
    },
    {
      "anonymous": false,
      "inputs": [
        {
          "indexed": true,
          "internalType": "uint256",
          "name": "tipConfigId",
          "type": "uint256"
        },
        {
          "indexed": true,
          "internalType": "uint256",
          "name": "fromCharacterId",
          "type": "uint256"
        },
        {
          "indexed": true,
          "internalType": "uint256",
          "name": "toCharacterId",
          "type": "uint256"
        },
        {
          "indexed": false,
          "internalType": "address",
          "name": "token",
          "type": "address"
        },
        {
          "indexed": false,
          "internalType": "uint256",
          "name": "amount",
          "type": "uint256"
        },
        {
          "indexed": false,
          "internalType": "uint256",
          "name": "fee",
          "type": "uint256"
        },
        {
          "indexed": false,
          "internalType": "address",
          "name": "feeReceiver",
          "type": "address"
        },
        {
          "indexed": false,
          "internalType": "uint256",
          "name": "currentRound",
          "type": "uint256"
        }
      ],
      "name": "CollectTips4Character",
      "type": "event"
    },
    {
      "anonymous": false,
      "inputs": [
        {
          "indexed": false,
          "internalType": "uint8",
          "name": "version",
          "type": "uint8"
        }
      ],
      "name": "Initialized",
      "type": "event"
    },
    {
      "anonymous": false,
      "inputs": [
        {
          "indexed": true,
          "internalType": "uint256",
          "name": "tipConfigId",
          "type": "uint256"
        },
        {
          "indexed": true,
          "internalType": "uint256",
          "name": "fromCharacterId",
          "type": "uint256"
        },
        {
          "indexed": true,
          "internalType": "uint256",
          "name": "toCharacterId",
          "type": "uint256"
        },
        {
          "indexed": false,
          "internalType": "address",
          "name": "token",
          "type": "address"
        },
        {
          "indexed": false,
          "internalType": "uint256",
          "name": "amount",
          "type": "uint256"
        },
        {
          "indexed": false,
          "internalType": "uint256",
          "name": "startTime",
          "type": "uint256"
        },
        {
          "indexed": false,
          "internalType": "uint256",
          "name": "endTime",
          "type": "uint256"
        },
        {
          "indexed": false,
          "internalType": "uint256",
          "name": "interval",
          "type": "uint256"
        },
        {
          "indexed": false,
          "internalType": "address",
          "name": "feeReceiver",
          "type": "address"
        },
        {
          "indexed": false,
          "internalType": "uint256",
          "name": "totalRound",
          "type": "uint256"
        }
      ],
      "name": "SetTipsConfig4Character",
      "type": "event"
    },
    {
      "inputs": [
        {
          "internalType": "uint256",
          "name": "tipConfigId",
          "type": "uint256"
        }
      ],
      "name": "cancelTips4Character",
      "outputs": [],
      "stateMutability": "nonpayable",
      "type": "function"
    },
    {
      "inputs": [
        {
          "internalType": "uint256",
          "name": "tipConfigId",
          "type": "uint256"
        }
      ],
      "name": "collectTips4Character",
      "outputs": [],
      "stateMutability": "nonpayable",
      "type": "function"
    },
    {
      "inputs": [
        {
          "internalType": "address",
          "name": "feeReceiver",
          "type": "address"
        },
        {
          "internalType": "uint256",
          "name": "characterId",
          "type": "uint256"
        },
        {
          "internalType": "uint256",
          "name": "tipAmount",
          "type": "uint256"
        }
      ],
      "name": "getFeeAmount",
      "outputs": [
        {
          "internalType": "uint256",
          "name": "",
          "type": "uint256"
        }
      ],
      "stateMutability": "view",
      "type": "function"
    },
    {
      "inputs": [
        {
          "internalType": "address",
          "name": "feeReceiver",
          "type": "address"
        },
        {
          "internalType": "uint256",
          "name": "characterId",
          "type": "uint256"
        }
      ],
      "name": "getFeeFraction",
      "outputs": [
        {
          "internalType": "uint256",
          "name": "",
          "type": "uint256"
        }
      ],
      "stateMutability": "view",
      "type": "function"
    },
    {
      "inputs": [
        {
          "internalType": "uint256",
          "name": "tipConfigId",
          "type": "uint256"
        }
      ],
      "name": "getTipsConfig",
      "outputs": [
        {
          "components": [
            {
              "internalType": "uint256",
              "name": "id",
              "type": "uint256"
            },
            {
              "internalType": "uint256",
              "name": "fromCharacterId",
              "type": "uint256"
            },
            {
              "internalType": "uint256",
              "name": "toCharacterId",
              "type": "uint256"
            },
            {
              "internalType": "address",
              "name": "token",
              "type": "address"
            },
            {
              "internalType": "uint256",
              "name": "amount",
              "type": "uint256"
            },
            {
              "internalType": "uint256",
              "name": "startTime",
              "type": "uint256"
            },
            {
              "internalType": "uint256",
              "name": "endTime",
              "type": "uint256"
            },
            {
              "internalType": "uint256",
              "name": "interval",
              "type": "uint256"
            },
            {
              "internalType": "address",
              "name": "feeReceiver",
              "type": "address"
            },
            {
              "internalType": "uint256",
              "name": "totalRound",
              "type": "uint256"
            },
            {
              "internalType": "uint256",
              "name": "currentRound",
              "type": "uint256"
            }
          ],
          "internalType": "struct ITipsWithConfig.TipsConfig",
          "name": "config",
          "type": "tuple"
        }
      ],
      "stateMutability": "view",
      "type": "function"
    },
    {
      "inputs": [
        {
          "internalType": "uint256",
          "name": "fromCharacterId",
          "type": "uint256"
        },
        {
          "internalType": "uint256",
          "name": "toCharacterId",
          "type": "uint256"
        }
      ],
      "name": "getTipsConfigId",
      "outputs": [
        {
          "internalType": "uint256",
          "name": "",
          "type": "uint256"
        }
      ],
      "stateMutability": "view",
      "type": "function"
    },
    {
      "inputs": [],
      "name": "getWeb3Entry",
      "outputs": [
        {
          "internalType": "address",
          "name": "",
          "type": "address"
        }
      ],
      "stateMutability": "view",
      "type": "function"
    },
    {
      "inputs": [
        {
          "internalType": "address",
          "name": "web3Entry_",
          "type": "address"
        }
      ],
      "name": "initialize",
      "outputs": [],
      "stateMutability": "nonpayable",
      "type": "function"
    },
    {
      "inputs": [
        {
          "internalType": "address",
          "name": "feeReceiver",
          "type": "address"
        },
        {
          "internalType": "uint256",
          "name": "fraction",
          "type": "uint256"
        }
      ],
      "name": "setDefaultFeeFraction",
      "outputs": [],
      "stateMutability": "nonpayable",
      "type": "function"
    },
    {
      "inputs": [
        {
          "internalType": "address",
          "name": "feeReceiver",
          "type": "address"
        },
        {
          "internalType": "uint256",
          "name": "characterId",
          "type": "uint256"
        },
        {
          "internalType": "uint256",
          "name": "fraction",
          "type": "uint256"
        }
      ],
      "name": "setFeeFraction4Character",
      "outputs": [],
      "stateMutability": "nonpayable",
      "type": "function"
    },
    {
      "inputs": [
        {
          "internalType": "uint256",
          "name": "fromCharacterId",
          "type": "uint256"
        },
        {
          "internalType": "uint256",
          "name": "toCharacterId",
          "type": "uint256"
        },
        {
          "internalType": "address",
          "name": "token",
          "type": "address"
        },
        {
          "internalType": "uint256",
          "name": "amount",
          "type": "uint256"
        },
        {
          "internalType": "uint256",
          "name": "startTime",
          "type": "uint256"
        },
        {
          "internalType": "uint256",
          "name": "endTime",
          "type": "uint256"
        },
        {
          "internalType": "uint256",
          "name": "interval",
          "type": "uint256"
        },
        {
          "internalType": "address",
          "name": "feeReceiver",
          "type": "address"
        }
      ],
      "name": "setTipsConfig4Character",
      "outputs": [],
      "stateMutability": "nonpayable",
      "type": "function"
    }
  ],
  "bytecode": "0x608060405234801561001057600080fd5b5060018055611556806100246000396000f3fe608060405234801561001057600080fd5b50600436106100a95760003560e01c8063c094753411610071578063c094753414610133578063c4d66de814610146578063d1fc884c14610159578063d3901d5514610174578063ebb13a4414610187578063f047dfe21461019a57600080fd5b80631973b65f146100ae57806348d1535f146100c357806360b1ab51146100ec5780637df7aaa5146100ff578063af70f33b14610112575b600080fd5b6100c16100bc366004611128565b6101ad565b005b6100d66100d1366004611128565b6101ca565b6040516100e39190611141565b60405180910390f35b6100c16100fa366004611128565b6102d5565b6100c161010d3660046111f4565b6104ac565b610125610120366004611267565b610899565b6040519081526020016100e3565b6100c1610141366004611289565b6108bd565b6100c16101543660046112be565b610931565b6002546040516001600160a01b0390911681526020016100e3565b610125610182366004611289565b610a56565b6101256101953660046112e2565b610a6b565b6100c16101a83660046112e2565b610a77565b6101b5610ae1565b6101be81610b3a565b6101c760018055565b50565b61023960405180610160016040528060008152602001600081526020016000815260200160006001600160a01b031681526020016000815260200160008152602001600081526020016000815260200160006001600160a01b0316815260200160008152602001600081525090565b506000908152600460208181526040928390208351610160810185528154815260018201549281019290925260028101549382019390935260038301546001600160a01b039081166060830152918301546080820152600583015460a0820152600683015460c0820152600783015460e082015260088301549091166101008201526009820154610120820152600a9091015461014082015290565b600081815260046020526040902080546103425760405162461bcd60e51b815260206004820152602360248201527f5469707357697468436f6e6669673a20696e76616c696420746970436f6e666960448201526219d25960ea1b60648201526084015b60405180910390fd5b60025460018201546040516331a9108f60e11b81526001600160a01b0390921691636352211e916103799160040190815260200190565b602060405180830381865afa158015610396573d6000803e3d6000fd5b505050506040513d601f19601f820116820180604052508101906103ba919061130e565b6001600160a01b0316336001600160a01b0316146103ea5760405162461bcd60e51b81526004016103399061132b565b80546103f590610b3a565b600180820154600090815260056020818152604080842060028088015486529083528185208590558654855260049283905281852085815595860185905585018490556003850180546001600160a01b03199081169091559185018490559184018390556006840183905560078401839055600884018054909116905560098301829055600a909201819055905183917fdb448c0d4de0acc0fc0a7780db8fdca40a629dedd17a730ea7f3f07ca558a32c91a25050565b6002546040516331a9108f60e11b8152600481018a90526001600160a01b0390911690636352211e90602401602060405180830381865afa1580156104f5573d6000803e3d6000fd5b505050506040513d601f19601f82011682018060405250810190610519919061130e565b6001600160a01b0316336001600160a01b0316146105495760405162461bcd60e51b81526004016103399061132b565b600082116105b15760405162461bcd60e51b815260206004820152602f60248201527f5469707357697468436f6e6669673a20696e74657276616c206d75737420626560448201526e02067726561746572207468616e203608c1b6064820152608401610339565b600085116106175760405162461bcd60e51b815260206004820152602d60248201527f5469707357697468436f6e6669673a20616d6f756e74206d757374206265206760448201526c0726561746572207468616e203609c1b6064820152608401610339565b6106218285611384565b8310156106705760405162461bcd60e51b815260206004820152601f60248201527f5469707357697468436f6e6669673a20696e76616c696420656e6454696d65006044820152606401610339565b60008881526005602090815260408083208a8452909152902054801561069e5761069981610b3a565b6106d1565b6003600081546106ad90611397565b918290555060008a81526005602090815260408083208c8452909152902081905590505b60006106de868686610dee565b90506040518061016001604052808381526020018b81526020018a8152602001896001600160a01b03168152602001888152602001878152602001868152602001858152602001846001600160a01b0316815260200182815260200160008152506004600084815260200190815260200160002060008201518160000155602082015181600101556040820151816002015560608201518160030160006101000a8154816001600160a01b0302191690836001600160a01b031602179055506080820151816004015560a0820151816005015560c0820151816006015560e082015181600701556101008201518160080160006101000a8154816001600160a01b0302191690836001600160a01b03160217905550610120820151816009015561014082015181600a0155905050888a837f456dbf468515737c81729b6d9baa90ff1c570951727d37244a2077dc10910c578b8b8b8b8b8b8a60405161088597969594939291906001600160a01b039788168152602081019690965260408601949094526060850192909252608084015290921660a082015260c081019190915260e00190565b60405180910390a450505050505050505050565b60008281526005602090815260408083208484529091528120545b90505b92915050565b826001600160a01b03811633146108e65760405162461bcd60e51b8152600401610339906113b0565b816127108111156109095760405162461bcd60e51b8152600401610339906113fa565b50506001600160a01b0390921660009081526007602090815260408083209383529290522055565b600054610100900460ff16158080156109515750600054600160ff909116105b8061096b5750303b15801561096b575060005460ff166001145b6109ce5760405162461bcd60e51b815260206004820152602e60248201527f496e697469616c697a61626c653a20636f6e747261637420697320616c72656160448201526d191e481a5b9a5d1a585b1a5e995960921b6064820152608401610339565b6000805460ff1916600117905580156109f1576000805461ff0019166101001790555b600280546001600160a01b0319166001600160a01b0384161790558015610a52576000805461ff0019169055604051600181527f7f26b83ff96e1f2b6a682f133852f6798a09c465da95921460cefb38474024989060200160405180910390a15b5050565b6000610a63848484610e10565b949350505050565b60006108b48383610e3f565b816001600160a01b0381163314610aa05760405162461bcd60e51b8152600401610339906113b0565b81612710811115610ac35760405162461bcd60e51b8152600401610339906113fa565b50506001600160a01b03909116600090815260066020526040902055565b600260015403610b335760405162461bcd60e51b815260206004820152601f60248201527f5265656e7472616e637947756172643a207265656e7472616e742063616c6c006044820152606401610339565b6002600155565b60008181526004602052604090206005810154421015610b58575050565b806009015481600a015410610b6b575050565b6040805161016081018252825481526001830154602082015260028301549181019190915260038201546001600160a01b03908116606083015260048301546080830152600583015460a0830152600683015460c0830152600783015460e08301526008830154166101008201526009820154610120820152600a8201546101408201526000908190610bfd90610e8e565b90925090508015610de857600a830182905560025460018401546040516331a9108f60e11b815260048101919091526000916001600160a01b031690636352211e90602401602060405180830381865afa158015610c5f573d6000803e3d6000fd5b505050506040513d601f19601f82011682018060405250810190610c83919061130e565b60028054908601546040516331a9108f60e11b81529293506000926001600160a01b0390921691636352211e91610cc09160040190815260200190565b602060405180830381865afa158015610cdd573d6000803e3d6000fd5b505050506040513d601f19601f82011682018060405250810190610d01919061130e565b60088601546002870154919250600091610d25916001600160a01b03169086610e10565b9050610d4c8383610d36848861143f565b60038a01546001600160a01b0316929190610ee8565b8015610d755760088601546003870154610d75916001600160a01b039182169186911684610ee8565b600286015460018701548754600389015460088a0154604080516001600160a01b039384168152602081018b905290810187905291166060820152608081018990527f726bf87ba0ea2feaec8cc35eb966db69376eb4e7161c98d93f5593066f95fef89060a00160405180910390a45050505b50505050565b600081610dfb858561143f565b610e059190611452565b610a63906001611384565b600080610e1d8585610e3f565b9050612710610e2c8285611474565b610e369190611452565b95945050505050565b6001600160a01b03821660009081526007602090815260408083208484529091528120548015610e705790506108b7565b5050506001600160a01b031660009081526006602052604090205490565b6000806000610ea68460a00151428660e00151610dee565b9050836101200151811115610ebd57506101208301515b80846080015185610140015183610ed4919061143f565b610ede9190611474565b9250925050915091565b604080516001600160a01b038581166024830152848116604483015260648083018590528351808403909101815260849092018352602080830180516001600160e01b03166323b872dd60e01b17905283518085019094528084527f5361666545524332303a206c6f772d6c6576656c2063616c6c206661696c656490840152610de892879291600091610f80918516908490611005565b9050805160001480610fa1575080806020019051810190610fa1919061148b565b6110005760405162461bcd60e51b815260206004820152602a60248201527f5361666545524332303a204552433230206f7065726174696f6e20646964206e6044820152691bdd081cdd58d8d9595960b21b6064820152608401610339565b505050565b6060610a63848460008585600080866001600160a01b0316858760405161102c91906114d1565b60006040518083038185875af1925050503d8060008114611069576040519150601f19603f3d011682016040523d82523d6000602084013e61106e565b606091505b509150915061107f8783838761108a565b979650505050505050565b606083156110f95782516000036110f2576001600160a01b0385163b6110f25760405162461bcd60e51b815260206004820152601d60248201527f416464726573733a2063616c6c20746f206e6f6e2d636f6e74726163740000006044820152606401610339565b5081610a63565b610a63838381511561110e5781518083602001fd5b8060405162461bcd60e51b815260040161033991906114ed565b60006020828403121561113a57600080fd5b5035919050565b600061016082019050825182526020830151602083015260408301516040830152606083015161117c60608401826001600160a01b03169052565b506080830151608083015260a083015160a083015260c083015160c083015260e083015160e0830152610100808401516111c0828501826001600160a01b03169052565b5050610120838101519083015261014092830151929091019190915290565b6001600160a01b03811681146101c757600080fd5b600080600080600080600080610100898b03121561121157600080fd5b8835975060208901359650604089013561122a816111df565b9550606089013594506080890135935060a0890135925060c0890135915060e0890135611256816111df565b809150509295985092959890939650565b6000806040838503121561127a57600080fd5b50508035926020909101359150565b60008060006060848603121561129e57600080fd5b83356112a9816111df565b95602085013595506040909401359392505050565b6000602082840312156112d057600080fd5b81356112db816111df565b9392505050565b600080604083850312156112f557600080fd5b8235611300816111df565b946020939093013593505050565b60006020828403121561132057600080fd5b81516112db816111df565b60208082526023908201527f5469707357697468436f6e6669673a206e6f7420636861726163746572206f776040820152623732b960e91b606082015260800190565b634e487b7160e01b600052601160045260246000fd5b808201808211156108b7576108b761136e565b6000600182016113a9576113a961136e565b5060010190565b6020808252602a908201527f5469707357697468436f6e6669673a2063616c6c6572206973206e6f7420666560408201526932903932b1b2b4bb32b960b11b606082015260800190565b60208082526025908201527f5469707357697468436f6e6669673a206672616374696f6e206f7574206f662060408201526472616e676560d81b606082015260800190565b818103818111156108b7576108b761136e565b60008261146f57634e487b7160e01b600052601260045260246000fd5b500490565b80820281158282048414176108b7576108b761136e565b60006020828403121561149d57600080fd5b815180151581146112db57600080fd5b60005b838110156114c85781810151838201526020016114b0565b50506000910152565b600082516114e38184602087016114ad565b9190910192915050565b602081526000825180602084015261150c8160408501602087016114ad565b601f01601f1916919091016040019291505056fea2646970667358221220cd7b05ba084494543728622baea62374a3843d5a96591531c228037eaf1d87a864736f6c63430008120033",
  "linkReferences": {},
  "deployedLinkReferences": {}
}