{
  "_format": "hh-sol-artifact-1",
  "contractName": "TipsWithConfig",
  "sourceName": "contracts/misc/TipsWithConfig.sol",
  "abi": [
    {
      "anonymous": false,
      "inputs": [
        {
          "indexed": true,
          "internalType": "uint256",
          "name": "tipConfigId",
          "type": "uint256"
        },
        {
          "indexed": true,
          "internalType": "uint256",
          "name": "fromCharacterId",
          "type": "uint256"
        },
        {
          "indexed": true,
          "internalType": "uint256",
          "name": "toCharacterId",
          "type": "uint256"
        },
        {
          "indexed": false,
          "internalType": "address",
          "name": "token",
          "type": "address"
        },
        {
          "indexed": false,
          "internalType": "uint256",
          "name": "amount",
          "type": "uint256"
        },
        {
          "indexed": false,
          "internalType": "uint256",
          "name": "fee",
          "type": "uint256"
        },
        {
          "indexed": false,
          "internalType": "address",
          "name": "feeReceiver",
          "type": "address"
        },
        {
          "indexed": false,
          "internalType": "uint256",
          "name": "currentRound",
          "type": "uint256"
        }
      ],
      "name": "CollectTips4Character",
      "type": "event"
    },
    {
      "anonymous": false,
      "inputs": [
        {
          "indexed": false,
          "internalType": "uint8",
          "name": "version",
          "type": "uint8"
        }
      ],
      "name": "Initialized",
      "type": "event"
    },
    {
      "anonymous": false,
      "inputs": [
        {
          "indexed": true,
          "internalType": "uint256",
          "name": "tipConfigId",
          "type": "uint256"
        },
        {
          "indexed": true,
          "internalType": "uint256",
          "name": "fromCharacterId",
          "type": "uint256"
        },
        {
          "indexed": true,
          "internalType": "uint256",
          "name": "toCharacterId",
          "type": "uint256"
        },
        {
          "indexed": false,
          "internalType": "address",
          "name": "token",
          "type": "address"
        },
        {
          "indexed": false,
          "internalType": "uint256",
          "name": "amount",
          "type": "uint256"
        },
        {
          "indexed": false,
          "internalType": "uint256",
          "name": "startTime",
          "type": "uint256"
        },
        {
          "indexed": false,
          "internalType": "uint256",
          "name": "endTime",
          "type": "uint256"
        },
        {
          "indexed": false,
          "internalType": "uint256",
          "name": "interval",
          "type": "uint256"
        },
        {
          "indexed": false,
          "internalType": "address",
          "name": "feeReceiver",
          "type": "address"
        },
        {
          "indexed": false,
          "internalType": "uint256",
          "name": "totalRound",
          "type": "uint256"
        }
      ],
      "name": "SetTipsConfig4Character",
      "type": "event"
    },
    {
      "inputs": [
        {
          "internalType": "uint256",
          "name": "tipConfigId",
          "type": "uint256"
        }
      ],
      "name": "collectTips4Character",
      "outputs": [],
      "stateMutability": "nonpayable",
      "type": "function"
    },
    {
      "inputs": [
        {
          "internalType": "address",
          "name": "feeReceiver",
          "type": "address"
        },
        {
          "internalType": "uint256",
          "name": "characterId",
          "type": "uint256"
        },
        {
          "internalType": "uint256",
          "name": "tipAmount",
          "type": "uint256"
        }
      ],
      "name": "getFeeAmount",
      "outputs": [
        {
          "internalType": "uint256",
          "name": "",
          "type": "uint256"
        }
      ],
      "stateMutability": "view",
      "type": "function"
    },
    {
      "inputs": [
        {
          "internalType": "address",
          "name": "feeReceiver",
          "type": "address"
        },
        {
          "internalType": "uint256",
          "name": "characterId",
          "type": "uint256"
        }
      ],
      "name": "getFeeFraction",
      "outputs": [
        {
          "internalType": "uint256",
          "name": "",
          "type": "uint256"
        }
      ],
      "stateMutability": "view",
      "type": "function"
    },
    {
      "inputs": [
        {
          "internalType": "uint256",
          "name": "tipConfigId",
          "type": "uint256"
        }
      ],
      "name": "getTipsConfig",
      "outputs": [
        {
          "components": [
            {
              "internalType": "uint256",
              "name": "id",
              "type": "uint256"
            },
            {
              "internalType": "uint256",
              "name": "fromCharacterId",
              "type": "uint256"
            },
            {
              "internalType": "uint256",
              "name": "toCharacterId",
              "type": "uint256"
            },
            {
              "internalType": "address",
              "name": "token",
              "type": "address"
            },
            {
              "internalType": "uint256",
              "name": "amount",
              "type": "uint256"
            },
            {
              "internalType": "uint256",
              "name": "startTime",
              "type": "uint256"
            },
            {
              "internalType": "uint256",
              "name": "endTime",
              "type": "uint256"
            },
            {
              "internalType": "uint256",
              "name": "interval",
              "type": "uint256"
            },
            {
              "internalType": "address",
              "name": "feeReceiver",
              "type": "address"
            },
            {
              "internalType": "uint256",
              "name": "totalRound",
              "type": "uint256"
            },
            {
              "internalType": "uint256",
              "name": "currentRound",
              "type": "uint256"
            }
          ],
          "internalType": "struct ITipsWithConfig.TipsConfig",
          "name": "config",
          "type": "tuple"
        }
      ],
      "stateMutability": "view",
      "type": "function"
    },
    {
      "inputs": [
        {
          "internalType": "uint256",
          "name": "fromCharacterId",
          "type": "uint256"
        },
        {
          "internalType": "uint256",
          "name": "toCharacterId",
          "type": "uint256"
        }
      ],
      "name": "getTipsConfigId",
      "outputs": [
        {
          "internalType": "uint256",
          "name": "",
          "type": "uint256"
        }
      ],
      "stateMutability": "view",
      "type": "function"
    },
    {
      "inputs": [],
      "name": "getWeb3Entry",
      "outputs": [
        {
          "internalType": "address",
          "name": "",
          "type": "address"
        }
      ],
      "stateMutability": "view",
      "type": "function"
    },
    {
      "inputs": [
        {
          "internalType": "address",
          "name": "web3Entry_",
          "type": "address"
        }
      ],
      "name": "initialize",
      "outputs": [],
      "stateMutability": "nonpayable",
      "type": "function"
    },
    {
      "inputs": [
        {
          "internalType": "address",
          "name": "feeReceiver",
          "type": "address"
        },
        {
          "internalType": "uint256",
          "name": "fraction",
          "type": "uint256"
        }
      ],
      "name": "setDefaultFeeFraction",
      "outputs": [],
      "stateMutability": "nonpayable",
      "type": "function"
    },
    {
      "inputs": [
        {
          "internalType": "address",
          "name": "feeReceiver",
          "type": "address"
        },
        {
          "internalType": "uint256",
          "name": "characterId",
          "type": "uint256"
        },
        {
          "internalType": "uint256",
          "name": "fraction",
          "type": "uint256"
        }
      ],
      "name": "setFeeFraction4Character",
      "outputs": [],
      "stateMutability": "nonpayable",
      "type": "function"
    },
    {
      "inputs": [
        {
          "internalType": "uint256",
          "name": "fromCharacterId",
          "type": "uint256"
        },
        {
          "internalType": "uint256",
          "name": "toCharacterId",
          "type": "uint256"
        },
        {
          "internalType": "address",
          "name": "token",
          "type": "address"
        },
        {
          "internalType": "uint256",
          "name": "amount",
          "type": "uint256"
        },
        {
          "internalType": "uint256",
          "name": "startTime",
          "type": "uint256"
        },
        {
          "internalType": "uint256",
          "name": "endTime",
          "type": "uint256"
        },
        {
          "internalType": "uint256",
          "name": "interval",
          "type": "uint256"
        },
        {
          "internalType": "address",
          "name": "feeReceiver",
          "type": "address"
        }
      ],
      "name": "setTipsConfig4Character",
      "outputs": [],
      "stateMutability": "nonpayable",
      "type": "function"
    }
  ],
  "bytecode": "0x608060405234801561001057600080fd5b506001805561130d806100246000396000f3fe608060405234801561001057600080fd5b506004361061009e5760003560e01c8063c4d66de811610066578063c4d66de814610128578063d1fc884c1461013b578063d3901d5514610156578063ebb13a4414610169578063f047dfe21461017c57600080fd5b80631973b65f146100a357806348d1535f146100b85780637df7aaa5146100e1578063af70f33b146100f4578063c094753414610115575b600080fd5b6100b66100b1366004610f22565b61018f565b005b6100cb6100c6366004610f22565b6101ac565b6040516100d89190610f3b565b60405180910390f35b6100b66100ef366004610fee565b6102b7565b610107610102366004611061565b610690565b6040519081526020016100d8565b6100b6610123366004611083565b6106b4565b6100b66101363660046110b8565b610728565b6002546040516001600160a01b0390911681526020016100d8565b610107610164366004611083565b61084d565b6101076101773660046110dc565b610862565b6100b661018a3660046110dc565b61086e565b6101976108d8565b6101a081610931565b6101a960018055565b50565b61021b60405180610160016040528060008152602001600081526020016000815260200160006001600160a01b031681526020016000815260200160008152602001600081526020016000815260200160006001600160a01b0316815260200160008152602001600081525090565b506000908152600460208181526040928390208351610160810185528154815260018201549281019290925260028101549382019390935260038301546001600160a01b039081166060830152918301546080820152600583015460a0820152600683015460c0820152600783015460e082015260088301549091166101008201526009820154610120820152600a9091015461014082015290565b6102bf6108d8565b6002546040516331a9108f60e11b8152600481018a90526001600160a01b0390911690636352211e90602401602060405180830381865afa158015610308573d6000803e3d6000fd5b505050506040513d601f19601f8201168201806040525081019061032c9190611108565b6001600160a01b0316336001600160a01b03161461039d5760405162461bcd60e51b815260206004820152602360248201527f5469707357697468436f6e6669673a206e6f7420636861726163746572206f776044820152623732b960e91b60648201526084015b60405180910390fd5b600082116104055760405162461bcd60e51b815260206004820152602f60248201527f5469707357697468436f6e6669673a20696e74657276616c206d75737420626560448201526e02067726561746572207468616e203608c1b6064820152608401610394565b61040f828561113b565b83101561045e5760405162461bcd60e51b815260206004820152601f60248201527f5469707357697468436f6e6669673a20696e76616c696420656e6454696d65006044820152606401610394565b60008881526005602090815260408083208a8452909152902054801561048c5761048781610931565b6104bf565b60036000815461049b9061114e565b918290555060008a81526005602090815260408083208c8452909152902081905590505b60006104cc868686610be5565b90506040518061016001604052808381526020018b81526020018a8152602001896001600160a01b03168152602001888152602001878152602001868152602001858152602001846001600160a01b0316815260200182815260200160008152506004600084815260200190815260200160002060008201518160000155602082015181600101556040820151816002015560608201518160030160006101000a8154816001600160a01b0302191690836001600160a01b031602179055506080820151816004015560a0820151816005015560c0820151816006015560e082015181600701556101008201518160080160006101000a8154816001600160a01b0302191690836001600160a01b03160217905550610120820151816009015561014082015181600a0155905050888a837f456dbf468515737c81729b6d9baa90ff1c570951727d37244a2077dc10910c578b8b8b8b8b8b8a60405161067397969594939291906001600160a01b039788168152602081019690965260408601949094526060850192909252608084015290921660a082015260c081019190915260e00190565b60405180910390a4505061068660018055565b5050505050505050565b60008281526005602090815260408083208484529091528120545b90505b92915050565b826001600160a01b03811633146106dd5760405162461bcd60e51b815260040161039490611167565b816127108111156107005760405162461bcd60e51b8152600401610394906111b1565b50506001600160a01b0390921660009081526007602090815260408083209383529290522055565b600054610100900460ff16158080156107485750600054600160ff909116105b806107625750303b158015610762575060005460ff166001145b6107c55760405162461bcd60e51b815260206004820152602e60248201527f496e697469616c697a61626c653a20636f6e747261637420697320616c72656160448201526d191e481a5b9a5d1a585b1a5e995960921b6064820152608401610394565b6000805460ff1916600117905580156107e8576000805461ff0019166101001790555b600280546001600160a01b0319166001600160a01b0384161790558015610849576000805461ff0019169055604051600181527f7f26b83ff96e1f2b6a682f133852f6798a09c465da95921460cefb38474024989060200160405180910390a15b5050565b600061085a848484610c07565b949350505050565b60006106ab8383610c39565b816001600160a01b03811633146108975760405162461bcd60e51b815260040161039490611167565b816127108111156108ba5760405162461bcd60e51b8152600401610394906111b1565b50506001600160a01b03909116600090815260066020526040902055565b60026001540361092a5760405162461bcd60e51b815260206004820152601f60248201527f5265656e7472616e637947756172643a207265656e7472616e742063616c6c006044820152606401610394565b6002600155565b6000818152600460205260409020600581015442101561094f575050565b806009015481600a015410610962575050565b6040805161016081018252825481526001830154602082015260028301549181019190915260038201546001600160a01b03908116606083015260048301546080830152600583015460a0830152600683015460c0830152600783015460e08301526008830154166101008201526009820154610120820152600a82015461014082015260009081906109f490610c88565b90925090508015610bdf57600a830182905560025460018401546040516331a9108f60e11b815260048101919091526000916001600160a01b031690636352211e90602401602060405180830381865afa158015610a56573d6000803e3d6000fd5b505050506040513d601f19601f82011682018060405250810190610a7a9190611108565b60028054908601546040516331a9108f60e11b81529293506000926001600160a01b0390921691636352211e91610ab79160040190815260200190565b602060405180830381865afa158015610ad4573d6000803e3d6000fd5b505050506040513d601f19601f82011682018060405250810190610af89190611108565b60088601546002870154919250600091610b1c916001600160a01b03169086610c07565b9050610b438383610b2d84886111f6565b60038a01546001600160a01b0316929190610ce2565b8015610b6c5760088601546003870154610b6c916001600160a01b039182169186911684610ce2565b600286015460018701548754600389015460088a0154604080516001600160a01b039384168152602081018b905290810187905291166060820152608081018990527f726bf87ba0ea2feaec8cc35eb966db69376eb4e7161c98d93f5593066f95fef89060a00160405180910390a45050505b50505050565b600081610bf285856111f6565b610bfc9190611209565b61085a90600161113b565b600080610c148585610c39565b90506000612710610c25838661122b565b610c2f9190611209565b9695505050505050565b6001600160a01b03821660009081526007602090815260408083208484529091528120548015610c6a5790506106ae565b5050506001600160a01b031660009081526006602052604090205490565b6000806000610ca08460a00151428660e00151610be5565b9050836101200151811115610cb757506101208301515b80846080015185610140015183610cce91906111f6565b610cd8919061122b565b9250925050915091565b604080516001600160a01b038581166024830152848116604483015260648083018590528351808403909101815260849092018352602080830180516001600160e01b03166323b872dd60e01b17905283518085019094528084527f5361666545524332303a206c6f772d6c6576656c2063616c6c206661696c656490840152610bdf92879291600091610d7a918516908490610dff565b9050805160001480610d9b575080806020019051810190610d9b9190611242565b610dfa5760405162461bcd60e51b815260206004820152602a60248201527f5361666545524332303a204552433230206f7065726174696f6e20646964206e6044820152691bdd081cdd58d8d9595960b21b6064820152608401610394565b505050565b606061085a848460008585600080866001600160a01b03168587604051610e269190611288565b60006040518083038185875af1925050503d8060008114610e63576040519150601f19603f3d011682016040523d82523d6000602084013e610e68565b606091505b5091509150610e7987838387610e84565b979650505050505050565b60608315610ef3578251600003610eec576001600160a01b0385163b610eec5760405162461bcd60e51b815260206004820152601d60248201527f416464726573733a2063616c6c20746f206e6f6e2d636f6e74726163740000006044820152606401610394565b508161085a565b61085a8383815115610f085781518083602001fd5b8060405162461bcd60e51b815260040161039491906112a4565b600060208284031215610f3457600080fd5b5035919050565b6000610160820190508251825260208301516020830152604083015160408301526060830151610f7660608401826001600160a01b03169052565b506080830151608083015260a083015160a083015260c083015160c083015260e083015160e083015261010080840151610fba828501826001600160a01b03169052565b5050610120838101519083015261014092830151929091019190915290565b6001600160a01b03811681146101a957600080fd5b600080600080600080600080610100898b03121561100b57600080fd5b8835975060208901359650604089013561102481610fd9565b9550606089013594506080890135935060a0890135925060c0890135915060e089013561105081610fd9565b809150509295985092959890939650565b6000806040838503121561107457600080fd5b50508035926020909101359150565b60008060006060848603121561109857600080fd5b83356110a381610fd9565b95602085013595506040909401359392505050565b6000602082840312156110ca57600080fd5b81356110d581610fd9565b9392505050565b600080604083850312156110ef57600080fd5b82356110fa81610fd9565b946020939093013593505050565b60006020828403121561111a57600080fd5b81516110d581610fd9565b634e487b7160e01b600052601160045260246000fd5b808201808211156106ae576106ae611125565b60006001820161116057611160611125565b5060010190565b6020808252602a908201527f5469707357697468436f6e6669673a2063616c6c6572206973206e6f7420666560408201526932903932b1b2b4bb32b960b11b606082015260800190565b60208082526025908201527f5469707357697468436f6e6669673a206672616374696f6e206f7574206f662060408201526472616e676560d81b606082015260800190565b818103818111156106ae576106ae611125565b60008261122657634e487b7160e01b600052601260045260246000fd5b500490565b80820281158282048414176106ae576106ae611125565b60006020828403121561125457600080fd5b815180151581146110d557600080fd5b60005b8381101561127f578181015183820152602001611267565b50506000910152565b6000825161129a818460208701611264565b9190910192915050565b60208152600082518060208401526112c3816040850160208701611264565b601f01601f1916919091016040019291505056fea26469706673582212205df09634988dba849f120a019fecf7cb06ff941e46a27aea7369be752791553b64736f6c63430008120033",
  "linkReferences": {},
  "deployedLinkReferences": {}
}