{
  "_format": "hh-sol-artifact-1",
  "contractName": "Web3Entry",
  "sourceName": "contracts/Web3Entry.sol",
  "abi": [
    {
      "anonymous": false,
      "inputs": [
        {
          "indexed": true,
          "internalType": "address",
          "name": "owner",
          "type": "address"
        },
        {
          "indexed": true,
          "internalType": "address",
          "name": "approved",
          "type": "address"
        },
        {
          "indexed": true,
          "internalType": "uint256",
          "name": "tokenId",
          "type": "uint256"
        }
      ],
      "name": "Approval",
      "type": "event"
    },
    {
      "anonymous": false,
      "inputs": [
        {
          "indexed": true,
          "internalType": "address",
          "name": "owner",
          "type": "address"
        },
        {
          "indexed": true,
          "internalType": "address",
          "name": "operator",
          "type": "address"
        },
        {
          "indexed": false,
          "internalType": "bool",
          "name": "approved",
          "type": "bool"
        }
      ],
      "name": "ApprovalForAll",
      "type": "event"
    },
    {
      "anonymous": false,
      "inputs": [
        {
          "indexed": false,
          "internalType": "uint8",
          "name": "version",
          "type": "uint8"
        }
      ],
      "name": "Initialized",
      "type": "event"
    },
    {
      "anonymous": false,
      "inputs": [
        {
          "indexed": true,
          "internalType": "address",
          "name": "from",
          "type": "address"
        },
        {
          "indexed": true,
          "internalType": "address",
          "name": "to",
          "type": "address"
        },
        {
          "indexed": true,
          "internalType": "uint256",
          "name": "tokenId",
          "type": "uint256"
        }
      ],
      "name": "Transfer",
      "type": "event"
    },
    {
      "inputs": [
        {
          "internalType": "uint256",
          "name": "characterId",
          "type": "uint256"
        },
        {
          "internalType": "uint256",
          "name": "noteId",
          "type": "uint256"
        },
        {
          "internalType": "address[]",
          "name": "blacklist",
          "type": "address[]"
        },
        {
          "internalType": "address[]",
          "name": "whitelist",
          "type": "address[]"
        }
      ],
      "name": "addOperators4Note",
      "outputs": [],
      "stateMutability": "nonpayable",
      "type": "function"
    },
    {
      "inputs": [
        {
          "internalType": "address",
          "name": "to",
          "type": "address"
        },
        {
          "internalType": "uint256",
          "name": "tokenId",
          "type": "uint256"
        }
      ],
      "name": "approve",
      "outputs": [],
      "stateMutability": "nonpayable",
      "type": "function"
    },
    {
      "inputs": [
        {
          "internalType": "address",
          "name": "owner",
          "type": "address"
        }
      ],
      "name": "balanceOf",
      "outputs": [
        {
          "internalType": "uint256",
          "name": "",
          "type": "uint256"
        }
      ],
      "stateMutability": "view",
      "type": "function"
    },
    {
      "inputs": [
        {
          "internalType": "uint256",
          "name": "tokenId",
          "type": "uint256"
        }
      ],
      "name": "burn",
      "outputs": [],
      "stateMutability": "nonpayable",
      "type": "function"
    },
    {
      "inputs": [
        {
          "components": [
            {
              "internalType": "address",
              "name": "to",
              "type": "address"
            },
            {
              "internalType": "string",
              "name": "handle",
              "type": "string"
            },
            {
              "internalType": "string",
              "name": "uri",
              "type": "string"
            },
            {
              "internalType": "address",
              "name": "linkModule",
              "type": "address"
            },
            {
              "internalType": "bytes",
              "name": "linkModuleInitData",
              "type": "bytes"
            }
          ],
          "internalType": "struct DataTypes.CreateCharacterData",
          "name": "vars",
          "type": "tuple"
        }
      ],
      "name": "createCharacter",
      "outputs": [],
      "stateMutability": "nonpayable",
      "type": "function"
    },
    {
      "inputs": [
        {
          "components": [
            {
              "internalType": "uint256",
              "name": "fromCharacterId",
              "type": "uint256"
            },
            {
              "internalType": "address",
              "name": "to",
              "type": "address"
            },
            {
              "internalType": "bytes32",
              "name": "linkType",
              "type": "bytes32"
            }
          ],
          "internalType": "struct DataTypes.createThenLinkCharacterData",
          "name": "vars",
          "type": "tuple"
        }
      ],
      "name": "createThenLinkCharacter",
      "outputs": [],
      "stateMutability": "nonpayable",
      "type": "function"
    },
    {
      "inputs": [
        {
          "internalType": "uint256",
          "name": "characterId",
          "type": "uint256"
        },
        {
          "internalType": "uint256",
          "name": "noteId",
          "type": "uint256"
        }
      ],
      "name": "deleteNote",
      "outputs": [],
      "stateMutability": "nonpayable",
      "type": "function"
    },
    {
      "inputs": [
        {
          "internalType": "uint256",
          "name": "tokenId",
          "type": "uint256"
        }
      ],
      "name": "getApproved",
      "outputs": [
        {
          "internalType": "address",
          "name": "",
          "type": "address"
        }
      ],
      "stateMutability": "view",
      "type": "function"
    },
    {
      "inputs": [
        {
          "internalType": "uint256",
          "name": "characterId",
          "type": "uint256"
        }
      ],
      "name": "getCharacter",
      "outputs": [
        {
          "components": [
            {
              "internalType": "uint256",
              "name": "characterId",
              "type": "uint256"
            },
            {
              "internalType": "string",
              "name": "handle",
              "type": "string"
            },
            {
              "internalType": "string",
              "name": "uri",
              "type": "string"
            },
            {
              "internalType": "uint256",
              "name": "noteCount",
              "type": "uint256"
            },
            {
              "internalType": "address",
              "name": "socialToken",
              "type": "address"
            },
            {
              "internalType": "address",
              "name": "linkModule",
              "type": "address"
            }
          ],
          "internalType": "struct DataTypes.Character",
          "name": "",
          "type": "tuple"
        }
      ],
      "stateMutability": "view",
      "type": "function"
    },
    {
      "inputs": [
        {
          "internalType": "string",
          "name": "handle",
          "type": "string"
        }
      ],
      "name": "getCharacterByHandle",
      "outputs": [
        {
          "components": [
            {
              "internalType": "uint256",
              "name": "characterId",
              "type": "uint256"
            },
            {
              "internalType": "string",
              "name": "handle",
              "type": "string"
            },
            {
              "internalType": "string",
              "name": "uri",
              "type": "string"
            },
            {
              "internalType": "uint256",
              "name": "noteCount",
              "type": "uint256"
            },
            {
              "internalType": "address",
              "name": "socialToken",
              "type": "address"
            },
            {
              "internalType": "address",
              "name": "linkModule",
              "type": "address"
            }
          ],
          "internalType": "struct DataTypes.Character",
          "name": "",
          "type": "tuple"
        }
      ],
      "stateMutability": "view",
      "type": "function"
    },
    {
      "inputs": [
        {
          "internalType": "uint256",
          "name": "characterId",
          "type": "uint256"
        }
      ],
      "name": "getCharacterUri",
      "outputs": [
        {
          "internalType": "string",
          "name": "",
          "type": "string"
        }
      ],
      "stateMutability": "view",
      "type": "function"
    },
    {
      "inputs": [
        {
          "internalType": "uint256",
          "name": "characterId",
          "type": "uint256"
        }
      ],
      "name": "getHandle",
      "outputs": [
        {
          "internalType": "string",
          "name": "",
          "type": "string"
        }
      ],
      "stateMutability": "view",
      "type": "function"
    },
    {
      "inputs": [
        {
          "internalType": "address",
          "name": "account",
          "type": "address"
        }
      ],
      "name": "getLinkModule4Address",
      "outputs": [
        {
          "internalType": "address",
          "name": "",
          "type": "address"
        }
      ],
      "stateMutability": "view",
      "type": "function"
    },
    {
      "inputs": [
        {
          "internalType": "address",
          "name": "tokenAddress",
          "type": "address"
        },
        {
          "internalType": "uint256",
          "name": "tokenId",
          "type": "uint256"
        }
      ],
      "name": "getLinkModule4ERC721",
      "outputs": [
        {
          "internalType": "address",
          "name": "",
          "type": "address"
        }
      ],
      "stateMutability": "view",
      "type": "function"
    },
    {
      "inputs": [
        {
          "internalType": "uint256",
          "name": "tokenId",
          "type": "uint256"
        }
      ],
      "name": "getLinkModule4Linklist",
      "outputs": [
        {
          "internalType": "address",
          "name": "",
          "type": "address"
        }
      ],
      "stateMutability": "view",
      "type": "function"
    },
    {
      "inputs": [],
      "name": "getLinklistContract",
      "outputs": [
        {
          "internalType": "address",
          "name": "",
          "type": "address"
        }
      ],
      "stateMutability": "view",
      "type": "function"
    },
    {
      "inputs": [
        {
          "internalType": "uint256",
          "name": "characterId",
          "type": "uint256"
        },
        {
          "internalType": "bytes32",
          "name": "linkType",
          "type": "bytes32"
        }
      ],
      "name": "getLinklistId",
      "outputs": [
        {
          "internalType": "uint256",
          "name": "",
          "type": "uint256"
        }
      ],
      "stateMutability": "view",
      "type": "function"
    },
    {
      "inputs": [
        {
          "internalType": "uint256",
          "name": "linkListId",
          "type": "uint256"
        }
      ],
      "name": "getLinklistType",
      "outputs": [
        {
          "internalType": "bytes32",
          "name": "",
          "type": "bytes32"
        }
      ],
      "stateMutability": "view",
      "type": "function"
    },
    {
      "inputs": [
        {
          "internalType": "uint256",
          "name": "tokenId",
          "type": "uint256"
        }
      ],
      "name": "getLinklistUri",
      "outputs": [
        {
          "internalType": "string",
          "name": "",
          "type": "string"
        }
      ],
      "stateMutability": "view",
      "type": "function"
    },
    {
      "inputs": [
        {
          "internalType": "uint256",
          "name": "characterId",
          "type": "uint256"
        },
        {
          "internalType": "uint256",
          "name": "noteId",
          "type": "uint256"
        }
      ],
      "name": "getNote",
      "outputs": [
        {
          "components": [
            {
              "internalType": "bytes32",
              "name": "linkItemType",
              "type": "bytes32"
            },
            {
              "internalType": "bytes32",
              "name": "linkKey",
              "type": "bytes32"
            },
            {
              "internalType": "string",
              "name": "contentUri",
              "type": "string"
            },
            {
              "internalType": "address",
              "name": "linkModule",
              "type": "address"
            },
            {
              "internalType": "address",
              "name": "mintModule",
              "type": "address"
            },
            {
              "internalType": "address",
              "name": "mintNFT",
              "type": "address"
            },
            {
              "internalType": "bool",
              "name": "deleted",
              "type": "bool"
            },
            {
              "internalType": "bool",
              "name": "locked",
              "type": "bool"
            }
          ],
          "internalType": "struct DataTypes.Note",
          "name": "",
          "type": "tuple"
        }
      ],
      "stateMutability": "view",
      "type": "function"
    },
    {
      "inputs": [
        {
          "internalType": "uint256",
          "name": "characterId",
          "type": "uint256"
        },
        {
          "internalType": "address",
          "name": "operator",
          "type": "address"
        }
      ],
      "name": "getOperatorPermissions",
      "outputs": [
        {
          "internalType": "uint256",
          "name": "",
          "type": "uint256"
        }
      ],
      "stateMutability": "view",
      "type": "function"
    },
    {
      "inputs": [
        {
          "internalType": "uint256",
          "name": "characterId",
          "type": "uint256"
        }
      ],
      "name": "getOperators",
      "outputs": [
        {
          "internalType": "address[]",
          "name": "",
          "type": "address[]"
        }
      ],
      "stateMutability": "view",
      "type": "function"
    },
    {
      "inputs": [
        {
          "internalType": "uint256",
          "name": "characterId",
          "type": "uint256"
        },
        {
          "internalType": "uint256",
          "name": "noteId",
          "type": "uint256"
        }
      ],
      "name": "getOperators4Note",
      "outputs": [
        {
          "internalType": "address[]",
          "name": "blacklist",
          "type": "address[]"
        },
        {
          "internalType": "address[]",
          "name": "whitelist",
          "type": "address[]"
        }
      ],
      "stateMutability": "view",
      "type": "function"
    },
    {
      "inputs": [
        {
          "internalType": "address",
          "name": "account",
          "type": "address"
        }
      ],
      "name": "getPrimaryCharacterId",
      "outputs": [
        {
          "internalType": "uint256",
          "name": "",
          "type": "uint256"
        }
      ],
      "stateMutability": "view",
      "type": "function"
    },
    {
      "inputs": [],
      "name": "getRevision",
      "outputs": [
        {
          "internalType": "uint256",
          "name": "",
          "type": "uint256"
        }
      ],
      "stateMutability": "pure",
      "type": "function"
    },
    {
      "inputs": [
        {
          "internalType": "uint256",
          "name": "characterId",
          "type": "uint256"
        },
        {
          "internalType": "address",
          "name": "operator",
          "type": "address"
        },
        {
          "internalType": "uint256",
          "name": "permissionBitMap",
          "type": "uint256"
        }
      ],
      "name": "grantOperatorPermissions",
      "outputs": [],
      "stateMutability": "nonpayable",
      "type": "function"
    },
    {
      "inputs": [
        {
          "internalType": "uint256",
          "name": "characterId",
          "type": "uint256"
        },
        {
          "internalType": "uint256",
          "name": "noteId",
          "type": "uint256"
        },
        {
          "internalType": "address",
          "name": "operator",
          "type": "address"
        }
      ],
      "name": "hasNotePermission",
      "outputs": [
        {
          "internalType": "bool",
          "name": "",
          "type": "bool"
        }
      ],
      "stateMutability": "view",
      "type": "function"
    },
    {
      "inputs": [
        {
          "internalType": "string",
          "name": "_name",
          "type": "string"
        },
        {
          "internalType": "string",
          "name": "_symbol",
          "type": "string"
        },
        {
          "internalType": "address",
          "name": "_linklistContract",
          "type": "address"
        },
        {
          "internalType": "address",
          "name": "_mintNFTImpl",
          "type": "address"
        },
        {
          "internalType": "address",
          "name": "_periphery",
          "type": "address"
        },
        {
          "internalType": "address",
          "name": "_resolver",
          "type": "address"
        }
      ],
      "name": "initialize",
      "outputs": [],
      "stateMutability": "nonpayable",
      "type": "function"
    },
    {
      "inputs": [
        {
          "internalType": "address",
          "name": "owner",
          "type": "address"
        },
        {
          "internalType": "address",
          "name": "operator",
          "type": "address"
        }
      ],
      "name": "isApprovedForAll",
      "outputs": [
        {
          "internalType": "bool",
          "name": "",
          "type": "bool"
        }
      ],
      "stateMutability": "view",
      "type": "function"
    },
    {
      "inputs": [
        {
          "internalType": "uint256",
          "name": "characterId",
          "type": "uint256"
        }
      ],
      "name": "isPrimaryCharacter",
      "outputs": [
        {
          "internalType": "bool",
          "name": "",
          "type": "bool"
        }
      ],
      "stateMutability": "view",
      "type": "function"
    },
    {
      "inputs": [
        {
          "components": [
            {
              "internalType": "uint256",
              "name": "fromCharacterId",
              "type": "uint256"
            },
            {
              "internalType": "address",
              "name": "ethAddress",
              "type": "address"
            },
            {
              "internalType": "bytes32",
              "name": "linkType",
              "type": "bytes32"
            },
            {
              "internalType": "bytes",
              "name": "data",
              "type": "bytes"
            }
          ],
          "internalType": "struct DataTypes.linkAddressData",
          "name": "vars",
          "type": "tuple"
        }
      ],
      "name": "linkAddress",
      "outputs": [],
      "stateMutability": "nonpayable",
      "type": "function"
    },
    {
      "inputs": [
        {
          "components": [
            {
              "internalType": "uint256",
              "name": "fromCharacterId",
              "type": "uint256"
            },
            {
              "internalType": "string",
              "name": "toUri",
              "type": "string"
            },
            {
              "internalType": "bytes32",
              "name": "linkType",
              "type": "bytes32"
            },
            {
              "internalType": "bytes",
              "name": "data",
              "type": "bytes"
            }
          ],
          "internalType": "struct DataTypes.linkAnyUriData",
          "name": "vars",
          "type": "tuple"
        }
      ],
      "name": "linkAnyUri",
      "outputs": [],
      "stateMutability": "nonpayable",
      "type": "function"
    },
    {
      "inputs": [
        {
          "components": [
            {
              "internalType": "uint256",
              "name": "fromCharacterId",
              "type": "uint256"
            },
            {
              "internalType": "uint256",
              "name": "toCharacterId",
              "type": "uint256"
            },
            {
              "internalType": "bytes32",
              "name": "linkType",
              "type": "bytes32"
            },
            {
              "internalType": "bytes",
              "name": "data",
              "type": "bytes"
            }
          ],
          "internalType": "struct DataTypes.linkCharacterData",
          "name": "vars",
          "type": "tuple"
        }
      ],
      "name": "linkCharacter",
      "outputs": [],
      "stateMutability": "nonpayable",
      "type": "function"
    },
    {
      "inputs": [
        {
          "components": [
            {
              "internalType": "uint256",
              "name": "fromCharacterId",
              "type": "uint256"
            },
            {
              "internalType": "address",
              "name": "tokenAddress",
              "type": "address"
            },
            {
              "internalType": "uint256",
              "name": "tokenId",
              "type": "uint256"
            },
            {
              "internalType": "bytes32",
              "name": "linkType",
              "type": "bytes32"
            },
            {
              "internalType": "bytes",
              "name": "data",
              "type": "bytes"
            }
          ],
          "internalType": "struct DataTypes.linkERC721Data",
          "name": "vars",
          "type": "tuple"
        }
      ],
      "name": "linkERC721",
      "outputs": [],
      "stateMutability": "nonpayable",
      "type": "function"
    },
    {
      "inputs": [
        {
          "components": [
            {
              "internalType": "uint256",
              "name": "fromCharacterId",
              "type": "uint256"
            },
            {
              "internalType": "uint256",
              "name": "toLinkListId",
              "type": "uint256"
            },
            {
              "internalType": "bytes32",
              "name": "linkType",
              "type": "bytes32"
            },
            {
              "internalType": "bytes",
              "name": "data",
              "type": "bytes"
            }
          ],
          "internalType": "struct DataTypes.linkLinklistData",
          "name": "vars",
          "type": "tuple"
        }
      ],
      "name": "linkLinklist",
      "outputs": [],
      "stateMutability": "nonpayable",
      "type": "function"
    },
    {
      "inputs": [
        {
          "components": [
            {
              "internalType": "uint256",
              "name": "fromCharacterId",
              "type": "uint256"
            },
            {
              "internalType": "uint256",
              "name": "toCharacterId",
              "type": "uint256"
            },
            {
              "internalType": "uint256",
              "name": "toNoteId",
              "type": "uint256"
            },
            {
              "internalType": "bytes32",
              "name": "linkType",
              "type": "bytes32"
            },
            {
              "internalType": "bytes",
              "name": "data",
              "type": "bytes"
            }
          ],
          "internalType": "struct DataTypes.linkNoteData",
          "name": "vars",
          "type": "tuple"
        }
      ],
      "name": "linkNote",
      "outputs": [],
      "stateMutability": "nonpayable",
      "type": "function"
    },
    {
      "inputs": [
        {
          "internalType": "uint256",
          "name": "characterId",
          "type": "uint256"
        },
        {
          "internalType": "uint256",
          "name": "noteId",
          "type": "uint256"
        }
      ],
      "name": "lockNote",
      "outputs": [],
      "stateMutability": "nonpayable",
      "type": "function"
    },
    {
      "inputs": [
        {
          "internalType": "address",
          "name": "newbieVilla",
          "type": "address"
        },
        {
          "internalType": "uint256[]",
          "name": "characterIds",
          "type": "uint256[]"
        }
      ],
      "name": "migrateOperator",
      "outputs": [],
      "stateMutability": "nonpayable",
      "type": "function"
    },
    {
      "inputs": [
        {
          "components": [
            {
              "internalType": "uint256",
              "name": "characterId",
              "type": "uint256"
            },
            {
              "internalType": "uint256",
              "name": "noteId",
              "type": "uint256"
            },
            {
              "internalType": "address",
              "name": "to",
              "type": "address"
            },
            {
              "internalType": "bytes",
              "name": "mintModuleData",
              "type": "bytes"
            }
          ],
          "internalType": "struct DataTypes.MintNoteData",
          "name": "vars",
          "type": "tuple"
        }
      ],
      "name": "mintNote",
      "outputs": [
        {
          "internalType": "uint256",
          "name": "",
          "type": "uint256"
        }
      ],
      "stateMutability": "nonpayable",
      "type": "function"
    },
    {
      "inputs": [],
      "name": "name",
      "outputs": [
        {
          "internalType": "string",
          "name": "",
          "type": "string"
        }
      ],
      "stateMutability": "view",
      "type": "function"
    },
    {
      "inputs": [
        {
          "internalType": "uint256",
          "name": "tokenId",
          "type": "uint256"
        }
      ],
      "name": "ownerOf",
      "outputs": [
        {
          "internalType": "address",
          "name": "",
          "type": "address"
        }
      ],
      "stateMutability": "view",
      "type": "function"
    },
    {
      "inputs": [
        {
          "components": [
            {
              "internalType": "uint256",
              "name": "characterId",
              "type": "uint256"
            },
            {
              "internalType": "string",
              "name": "contentUri",
              "type": "string"
            },
            {
              "internalType": "address",
              "name": "linkModule",
              "type": "address"
            },
            {
              "internalType": "bytes",
              "name": "linkModuleInitData",
              "type": "bytes"
            },
            {
              "internalType": "address",
              "name": "mintModule",
              "type": "address"
            },
            {
              "internalType": "bytes",
              "name": "mintModuleInitData",
              "type": "bytes"
            },
            {
              "internalType": "bool",
              "name": "locked",
              "type": "bool"
            }
          ],
          "internalType": "struct DataTypes.PostNoteData",
          "name": "vars",
          "type": "tuple"
        }
      ],
      "name": "postNote",
      "outputs": [
        {
          "internalType": "uint256",
          "name": "",
          "type": "uint256"
        }
      ],
      "stateMutability": "nonpayable",
      "type": "function"
    },
    {
      "inputs": [
        {
          "components": [
            {
              "internalType": "uint256",
              "name": "characterId",
              "type": "uint256"
            },
            {
              "internalType": "string",
              "name": "contentUri",
              "type": "string"
            },
            {
              "internalType": "address",
              "name": "linkModule",
              "type": "address"
            },
            {
              "internalType": "bytes",
              "name": "linkModuleInitData",
              "type": "bytes"
            },
            {
              "internalType": "address",
              "name": "mintModule",
              "type": "address"
            },
            {
              "internalType": "bytes",
              "name": "mintModuleInitData",
              "type": "bytes"
            },
            {
              "internalType": "bool",
              "name": "locked",
              "type": "bool"
            }
          ],
          "internalType": "struct DataTypes.PostNoteData",
          "name": "noteData",
          "type": "tuple"
        },
        {
          "internalType": "address",
          "name": "ethAddress",
          "type": "address"
        }
      ],
      "name": "postNote4Address",
      "outputs": [
        {
          "internalType": "uint256",
          "name": "",
          "type": "uint256"
        }
      ],
      "stateMutability": "nonpayable",
      "type": "function"
    },
    {
      "inputs": [
        {
          "components": [
            {
              "internalType": "uint256",
              "name": "characterId",
              "type": "uint256"
            },
            {
              "internalType": "string",
              "name": "contentUri",
              "type": "string"
            },
            {
              "internalType": "address",
              "name": "linkModule",
              "type": "address"
            },
            {
              "internalType": "bytes",
              "name": "linkModuleInitData",
              "type": "bytes"
            },
            {
              "internalType": "address",
              "name": "mintModule",
              "type": "address"
            },
            {
              "internalType": "bytes",
              "name": "mintModuleInitData",
              "type": "bytes"
            },
            {
              "internalType": "bool",
              "name": "locked",
              "type": "bool"
            }
          ],
          "internalType": "struct DataTypes.PostNoteData",
          "name": "postNoteData",
          "type": "tuple"
        },
        {
          "internalType": "string",
          "name": "uri",
          "type": "string"
        }
      ],
      "name": "postNote4AnyUri",
      "outputs": [
        {
          "internalType": "uint256",
          "name": "",
          "type": "uint256"
        }
      ],
      "stateMutability": "nonpayable",
      "type": "function"
    },
    {
      "inputs": [
        {
          "components": [
            {
              "internalType": "uint256",
              "name": "characterId",
              "type": "uint256"
            },
            {
              "internalType": "string",
              "name": "contentUri",
              "type": "string"
            },
            {
              "internalType": "address",
              "name": "linkModule",
              "type": "address"
            },
            {
              "internalType": "bytes",
              "name": "linkModuleInitData",
              "type": "bytes"
            },
            {
              "internalType": "address",
              "name": "mintModule",
              "type": "address"
            },
            {
              "internalType": "bytes",
              "name": "mintModuleInitData",
              "type": "bytes"
            },
            {
              "internalType": "bool",
              "name": "locked",
              "type": "bool"
            }
          ],
          "internalType": "struct DataTypes.PostNoteData",
          "name": "postNoteData",
          "type": "tuple"
        },
        {
          "internalType": "uint256",
          "name": "toCharacterId",
          "type": "uint256"
        }
      ],
      "name": "postNote4Character",
      "outputs": [
        {
          "internalType": "uint256",
          "name": "",
          "type": "uint256"
        }
      ],
      "stateMutability": "nonpayable",
      "type": "function"
    },
    {
      "inputs": [
        {
          "components": [
            {
              "internalType": "uint256",
              "name": "characterId",
              "type": "uint256"
            },
            {
              "internalType": "string",
              "name": "contentUri",
              "type": "string"
            },
            {
              "internalType": "address",
              "name": "linkModule",
              "type": "address"
            },
            {
              "internalType": "bytes",
              "name": "linkModuleInitData",
              "type": "bytes"
            },
            {
              "internalType": "address",
              "name": "mintModule",
              "type": "address"
            },
            {
              "internalType": "bytes",
              "name": "mintModuleInitData",
              "type": "bytes"
            },
            {
              "internalType": "bool",
              "name": "locked",
              "type": "bool"
            }
          ],
          "internalType": "struct DataTypes.PostNoteData",
          "name": "postNoteData",
          "type": "tuple"
        },
        {
          "components": [
            {
              "internalType": "address",
              "name": "tokenAddress",
              "type": "address"
            },
            {
              "internalType": "uint256",
              "name": "erc721TokenId",
              "type": "uint256"
            }
          ],
          "internalType": "struct DataTypes.ERC721Struct",
          "name": "erc721",
          "type": "tuple"
        }
      ],
      "name": "postNote4ERC721",
      "outputs": [
        {
          "internalType": "uint256",
          "name": "",
          "type": "uint256"
        }
      ],
      "stateMutability": "nonpayable",
      "type": "function"
    },
    {
      "inputs": [
        {
          "components": [
            {
              "internalType": "uint256",
              "name": "characterId",
              "type": "uint256"
            },
            {
              "internalType": "string",
              "name": "contentUri",
              "type": "string"
            },
            {
              "internalType": "address",
              "name": "linkModule",
              "type": "address"
            },
            {
              "internalType": "bytes",
              "name": "linkModuleInitData",
              "type": "bytes"
            },
            {
              "internalType": "address",
              "name": "mintModule",
              "type": "address"
            },
            {
              "internalType": "bytes",
              "name": "mintModuleInitData",
              "type": "bytes"
            },
            {
              "internalType": "bool",
              "name": "locked",
              "type": "bool"
            }
          ],
          "internalType": "struct DataTypes.PostNoteData",
          "name": "noteData",
          "type": "tuple"
        },
        {
          "internalType": "uint256",
          "name": "toLinklistId",
          "type": "uint256"
        }
      ],
      "name": "postNote4Linklist",
      "outputs": [
        {
          "internalType": "uint256",
          "name": "",
          "type": "uint256"
        }
      ],
      "stateMutability": "nonpayable",
      "type": "function"
    },
    {
      "inputs": [
        {
          "components": [
            {
              "internalType": "uint256",
              "name": "characterId",
              "type": "uint256"
            },
            {
              "internalType": "string",
              "name": "contentUri",
              "type": "string"
            },
            {
              "internalType": "address",
              "name": "linkModule",
              "type": "address"
            },
            {
              "internalType": "bytes",
              "name": "linkModuleInitData",
              "type": "bytes"
            },
            {
              "internalType": "address",
              "name": "mintModule",
              "type": "address"
            },
            {
              "internalType": "bytes",
              "name": "mintModuleInitData",
              "type": "bytes"
            },
            {
              "internalType": "bool",
              "name": "locked",
              "type": "bool"
            }
          ],
          "internalType": "struct DataTypes.PostNoteData",
          "name": "postNoteData",
          "type": "tuple"
        },
        {
          "components": [
            {
              "internalType": "uint256",
              "name": "characterId",
              "type": "uint256"
            },
            {
              "internalType": "uint256",
              "name": "noteId",
              "type": "uint256"
            }
          ],
          "internalType": "struct DataTypes.NoteStruct",
          "name": "note",
          "type": "tuple"
        }
      ],
      "name": "postNote4Note",
      "outputs": [
        {
          "internalType": "uint256",
          "name": "",
          "type": "uint256"
        }
      ],
      "stateMutability": "nonpayable",
      "type": "function"
    },
    {
      "inputs": [
        {
          "internalType": "uint256",
          "name": "characterId",
          "type": "uint256"
        },
        {
          "internalType": "uint256",
          "name": "noteId",
          "type": "uint256"
        },
        {
          "internalType": "address[]",
          "name": "blacklist",
          "type": "address[]"
        },
        {
          "internalType": "address[]",
          "name": "whitelist",
          "type": "address[]"
        }
      ],
      "name": "removeOperators4Note",
      "outputs": [],
      "stateMutability": "nonpayable",
      "type": "function"
    },
    {
      "inputs": [],
      "name": "resolver",
      "outputs": [
        {
          "internalType": "address",
          "name": "",
          "type": "address"
        }
      ],
      "stateMutability": "view",
      "type": "function"
    },
    {
      "inputs": [
        {
          "internalType": "address",
          "name": "from",
          "type": "address"
        },
        {
          "internalType": "address",
          "name": "to",
          "type": "address"
        },
        {
          "internalType": "uint256",
          "name": "tokenId",
          "type": "uint256"
        }
      ],
      "name": "safeTransferFrom",
      "outputs": [],
      "stateMutability": "nonpayable",
      "type": "function"
    },
    {
      "inputs": [
        {
          "internalType": "address",
          "name": "from",
          "type": "address"
        },
        {
          "internalType": "address",
          "name": "to",
          "type": "address"
        },
        {
          "internalType": "uint256",
          "name": "tokenId",
          "type": "uint256"
        },
        {
          "internalType": "bytes",
          "name": "_data",
          "type": "bytes"
        }
      ],
      "name": "safeTransferFrom",
      "outputs": [],
      "stateMutability": "nonpayable",
      "type": "function"
    },
    {
      "inputs": [
        {
          "internalType": "address",
          "name": "operator",
          "type": "address"
        },
        {
          "internalType": "bool",
          "name": "approved",
          "type": "bool"
        }
      ],
      "name": "setApprovalForAll",
      "outputs": [],
      "stateMutability": "nonpayable",
      "type": "function"
    },
    {
      "inputs": [
        {
          "internalType": "uint256",
          "name": "characterId",
          "type": "uint256"
        },
        {
          "internalType": "string",
          "name": "newUri",
          "type": "string"
        }
      ],
      "name": "setCharacterUri",
      "outputs": [],
      "stateMutability": "nonpayable",
      "type": "function"
    },
    {
      "inputs": [
        {
          "internalType": "uint256",
          "name": "characterId",
          "type": "uint256"
        },
        {
          "internalType": "string",
          "name": "newHandle",
          "type": "string"
        }
      ],
      "name": "setHandle",
      "outputs": [],
      "stateMutability": "nonpayable",
      "type": "function"
    },
    {
      "inputs": [
        {
          "components": [
            {
              "internalType": "address",
              "name": "account",
              "type": "address"
            },
            {
              "internalType": "address",
              "name": "linkModule",
              "type": "address"
            },
            {
              "internalType": "bytes",
              "name": "linkModuleInitData",
              "type": "bytes"
            }
          ],
          "internalType": "struct DataTypes.setLinkModule4AddressData",
          "name": "vars",
          "type": "tuple"
        }
      ],
      "name": "setLinkModule4Address",
      "outputs": [],
      "stateMutability": "nonpayable",
      "type": "function"
    },
    {
      "inputs": [
        {
          "components": [
            {
              "internalType": "uint256",
              "name": "linklistId",
              "type": "uint256"
            },
            {
              "internalType": "address",
              "name": "linkModule",
              "type": "address"
            },
            {
              "internalType": "bytes",
              "name": "linkModuleInitData",
              "type": "bytes"
            }
          ],
          "internalType": "struct DataTypes.setLinkModule4LinklistData",
          "name": "vars",
          "type": "tuple"
        }
      ],
      "name": "setLinkModule4Linklist",
      "outputs": [],
      "stateMutability": "nonpayable",
      "type": "function"
    },
    {
      "inputs": [
        {
          "internalType": "uint256",
          "name": "linklistId",
          "type": "uint256"
        },
        {
          "internalType": "string",
          "name": "uri",
          "type": "string"
        }
      ],
      "name": "setLinklistUri",
      "outputs": [],
      "stateMutability": "nonpayable",
      "type": "function"
    },
    {
      "inputs": [
        {
          "components": [
            {
              "internalType": "uint256",
              "name": "characterId",
              "type": "uint256"
            },
            {
              "internalType": "uint256",
              "name": "noteId",
              "type": "uint256"
            },
            {
              "internalType": "address",
              "name": "mintModule",
              "type": "address"
            },
            {
              "internalType": "bytes",
              "name": "mintModuleInitData",
              "type": "bytes"
            }
          ],
          "internalType": "struct DataTypes.setMintModule4NoteData",
          "name": "vars",
          "type": "tuple"
        }
      ],
      "name": "setMintModule4Note",
      "outputs": [],
      "stateMutability": "nonpayable",
      "type": "function"
    },
    {
      "inputs": [
        {
          "internalType": "uint256",
          "name": "characterId",
          "type": "uint256"
        },
        {
          "internalType": "uint256",
          "name": "noteId",
          "type": "uint256"
        },
        {
          "internalType": "string",
          "name": "newUri",
          "type": "string"
        }
      ],
      "name": "setNoteUri",
      "outputs": [],
      "stateMutability": "nonpayable",
      "type": "function"
    },
    {
      "inputs": [
        {
          "internalType": "uint256",
          "name": "characterId",
          "type": "uint256"
        }
      ],
      "name": "setPrimaryCharacterId",
      "outputs": [],
      "stateMutability": "nonpayable",
      "type": "function"
    },
    {
      "inputs": [
        {
          "internalType": "uint256",
          "name": "characterId",
          "type": "uint256"
        },
        {
          "internalType": "address",
          "name": "tokenAddress",
          "type": "address"
        }
      ],
      "name": "setSocialToken",
      "outputs": [],
      "stateMutability": "nonpayable",
      "type": "function"
    },
    {
      "inputs": [
        {
          "internalType": "bytes4",
          "name": "interfaceId",
          "type": "bytes4"
        }
      ],
      "name": "supportsInterface",
      "outputs": [
        {
          "internalType": "bool",
          "name": "",
          "type": "bool"
        }
      ],
      "stateMutability": "view",
      "type": "function"
    },
    {
      "inputs": [],
      "name": "symbol",
      "outputs": [
        {
          "internalType": "string",
          "name": "",
          "type": "string"
        }
      ],
      "stateMutability": "view",
      "type": "function"
    },
    {
      "inputs": [
        {
          "internalType": "uint256",
          "name": "index",
          "type": "uint256"
        }
      ],
      "name": "tokenByIndex",
      "outputs": [
        {
          "internalType": "uint256",
          "name": "",
          "type": "uint256"
        }
      ],
      "stateMutability": "view",
      "type": "function"
    },
    {
      "inputs": [
        {
          "internalType": "address",
          "name": "owner",
          "type": "address"
        },
        {
          "internalType": "uint256",
          "name": "index",
          "type": "uint256"
        }
      ],
      "name": "tokenOfOwnerByIndex",
      "outputs": [
        {
          "internalType": "uint256",
          "name": "",
          "type": "uint256"
        }
      ],
      "stateMutability": "view",
      "type": "function"
    },
    {
      "inputs": [
        {
          "internalType": "uint256",
          "name": "characterId",
          "type": "uint256"
        }
      ],
      "name": "tokenURI",
      "outputs": [
        {
          "internalType": "string",
          "name": "",
          "type": "string"
        }
      ],
      "stateMutability": "view",
      "type": "function"
    },
    {
      "inputs": [],
      "name": "totalSupply",
      "outputs": [
        {
          "internalType": "uint256",
          "name": "",
          "type": "uint256"
        }
      ],
      "stateMutability": "view",
      "type": "function"
    },
    {
      "inputs": [
        {
          "internalType": "address",
          "name": "from",
          "type": "address"
        },
        {
          "internalType": "address",
          "name": "to",
          "type": "address"
        },
        {
          "internalType": "uint256",
          "name": "tokenId",
          "type": "uint256"
        }
      ],
      "name": "transferFrom",
      "outputs": [],
      "stateMutability": "nonpayable",
      "type": "function"
    },
    {
      "inputs": [
        {
          "components": [
            {
              "internalType": "uint256",
              "name": "fromCharacterId",
              "type": "uint256"
            },
            {
              "internalType": "address",
              "name": "ethAddress",
              "type": "address"
            },
            {
              "internalType": "bytes32",
              "name": "linkType",
              "type": "bytes32"
            }
          ],
          "internalType": "struct DataTypes.unlinkAddressData",
          "name": "vars",
          "type": "tuple"
        }
      ],
      "name": "unlinkAddress",
      "outputs": [],
      "stateMutability": "nonpayable",
      "type": "function"
    },
    {
      "inputs": [
        {
          "components": [
            {
              "internalType": "uint256",
              "name": "fromCharacterId",
              "type": "uint256"
            },
            {
              "internalType": "string",
              "name": "toUri",
              "type": "string"
            },
            {
              "internalType": "bytes32",
              "name": "linkType",
              "type": "bytes32"
            }
          ],
          "internalType": "struct DataTypes.unlinkAnyUriData",
          "name": "vars",
          "type": "tuple"
        }
      ],
      "name": "unlinkAnyUri",
      "outputs": [],
      "stateMutability": "nonpayable",
      "type": "function"
    },
    {
      "inputs": [
        {
          "components": [
            {
              "internalType": "uint256",
              "name": "fromCharacterId",
              "type": "uint256"
            },
            {
              "internalType": "uint256",
              "name": "toCharacterId",
              "type": "uint256"
            },
            {
              "internalType": "bytes32",
              "name": "linkType",
              "type": "bytes32"
            }
          ],
          "internalType": "struct DataTypes.unlinkCharacterData",
          "name": "vars",
          "type": "tuple"
        }
      ],
      "name": "unlinkCharacter",
      "outputs": [],
      "stateMutability": "nonpayable",
      "type": "function"
    },
    {
      "inputs": [
        {
          "components": [
            {
              "internalType": "uint256",
              "name": "fromCharacterId",
              "type": "uint256"
            },
            {
              "internalType": "address",
              "name": "tokenAddress",
              "type": "address"
            },
            {
              "internalType": "uint256",
              "name": "tokenId",
              "type": "uint256"
            },
            {
              "internalType": "bytes32",
              "name": "linkType",
              "type": "bytes32"
            }
          ],
          "internalType": "struct DataTypes.unlinkERC721Data",
          "name": "vars",
          "type": "tuple"
        }
      ],
      "name": "unlinkERC721",
      "outputs": [],
      "stateMutability": "nonpayable",
      "type": "function"
    },
    {
      "inputs": [
        {
          "components": [
            {
              "internalType": "uint256",
              "name": "fromCharacterId",
              "type": "uint256"
            },
            {
              "internalType": "uint256",
              "name": "toLinkListId",
              "type": "uint256"
            },
            {
              "internalType": "bytes32",
              "name": "linkType",
              "type": "bytes32"
            }
          ],
          "internalType": "struct DataTypes.unlinkLinklistData",
          "name": "vars",
          "type": "tuple"
        }
      ],
      "name": "unlinkLinklist",
      "outputs": [],
      "stateMutability": "nonpayable",
      "type": "function"
    },
    {
      "inputs": [
        {
          "components": [
            {
              "internalType": "uint256",
              "name": "fromCharacterId",
              "type": "uint256"
            },
            {
              "internalType": "uint256",
              "name": "toCharacterId",
              "type": "uint256"
            },
            {
              "internalType": "uint256",
              "name": "toNoteId",
              "type": "uint256"
            },
            {
              "internalType": "bytes32",
              "name": "linkType",
              "type": "bytes32"
            }
          ],
          "internalType": "struct DataTypes.unlinkNoteData",
          "name": "vars",
          "type": "tuple"
        }
      ],
      "name": "unlinkNote",
      "outputs": [],
      "stateMutability": "nonpayable",
      "type": "function"
    }
  ],
  "bytecode": "0x608060405234801561001057600080fd5b50615f7280620000216000396000f3fe608060405234801561001057600080fd5b50600436106104495760003560e01c806370bff5ff11610241578063b9d328451161013b578063db491e80116100c3578063ef0828ab11610087578063ef0828ab14610a82578063f2ad807514610a95578063f316bacd14610aa8578063f6479d7714610abb578063fe9299fb14610ace57600080fd5b8063db491e80146109ed578063dca2713514610a0d578063e56f2fe414610a20578063e985e9c514610a33578063ec81d19414610a6f57600080fd5b8063cb8e757e1161010a578063cb8e757e14610976578063cd69fe6114610989578063d23b320b1461099c578063d70e10c6146109af578063dabb0531146109da57600080fd5b8063b9d328451461092c578063c053f6b81461093f578063c2a6fe3b14610950578063c87b56dd1461096357600080fd5b806395d89b41116101c9578063a22cb4651161018d578063a22cb465146108cd578063a6e6178d146108e0578063a7ccb4bf146108f3578063af90b11214610906578063b88d4fde1461091957600080fd5b806395d89b411461086c57806395d9fa7d146108745780639864c307146108875780639a4dec181461089a5780639a50248d146108ad57600080fd5b80638af64fc9116102105780638af64fc9146107ea5780638b4ca06a146107fd57806392f7070b1461081057806393f057e514610823578063952be0ef1461083657600080fd5b806370bff5ff1461079e57806374f345cf146107b1578063867884e6146107c45780638734bbfc146107d757600080fd5b80632f745c591161035257806347f94de7116102da578063601b3dee1161029e578063601b3dee14610732578063628b644a146107455780636352211e146107585780636bf55d5f1461076b57806370a082311461078b57600080fd5b806347f94de7146106c557806349186953146106d85780634f6ccce7146106f95780635a936d101461070c5780635fb881831461071f57600080fd5b8063388f508311610321578063388f50831461066657806340ad34d81461067957806342842e0e1461068c57806342966c681461069f57806344b82a24146106b257600080fd5b80632f745c591461060157806331b9d08c14610614578063327b2a031461064057806333f06ee61461065357600080fd5b80631316529d116103d5578063206657f2116103a4578063206657f2146105695780632209d1451461057c57806323b872dd146105b257806329c301c2146105c55780632abc6bf6146105d857600080fd5b80631316529d1461052a578063144a3e831461053b57806318160ddd1461054e578063188b04b31461055657600080fd5b806308cb68ff1161041c57806308cb68ff146104c9578063095ea7b3146104de578063097c8f0a146104f15780630c4dd5f2146105045780630ff982441461051757600080fd5b806301ffc9a71461044e57806304f3bcec1461047657806306fdde03146104a1578063081812fc146104b6575b600080fd5b61046161045c3660046147bd565b610af7565b60405190151581526020015b60405180910390f35b601754610489906001600160a01b031681565b6040516001600160a01b03909116815260200161046d565b6104a9610b22565b60405161046d9190614832565b6104896104c4366004614845565b610bb4565b6104dc6104d7366004614876565b610c4e565b005b6104dc6104ec3660046148cf565b610ce7565b6104dc6104ff36600461493f565b610dfd565b6104dc610512366004614876565b610f64565b6104dc610525366004614993565b61106e565b60045b60405190815260200161046d565b6104a9610549366004614845565b61116f565b60085461052d565b6104dc6105643660046149c1565b61117a565b6104dc6105773660046149f5565b611279565b61048961058a3660046148cf565b6001600160a01b03918216600090815260106020908152604080832093835292905220541690565b6104dc6105c0366004614a2d565b611311565b61052d6105d3366004614a6f565b611342565b61052d6105e6366004614aa3565b6001600160a01b03166000908152600c602052604090205490565b61052d61060f3660046148cf565b6113f0565b610489610622366004614aa3565b6001600160a01b039081166000908152601160205260409020541690565b61052d61064e366004614ad2565b611486565b6104dc610661366004614b58565b61164b565b6104dc6106743660046149c1565b611732565b6104dc610687366004614b96565b611787565b6104dc61069a366004614a2d565b611803565b6104dc6106ad366004614845565b61181e565b61052d6106c0366004614bb2565b6118bb565b6104dc6106d3366004614b58565b611933565b6106eb6106e6366004614bf6565b61199a565b60405161046d929190614c5c565b61052d610707366004614845565b6119f3565b6104dc61071a366004614993565b611a86565b6104dc61072d3660046149c1565b611b18565b610461610740366004614c8a565b611b6d565b6104dc610753366004614cc3565b611b84565b610489610766366004614845565b611c07565b61077e610779366004614845565b611c7e565b60405161046d9190614d15565b61052d610799366004614aa3565b611c98565b6104dc6107ac366004614d28565b611d1f565b6104dc6107bf366004614bf6565b611db0565b6104dc6107d2366004614b96565b611e2a565b6104616107e5366004614845565b611e9c565b6104dc6107f8366004614d28565b611eca565b61052d61080b366004614845565b611f23565b61052d61081e366004614daa565b611f8f565b6104dc610831366004614993565b612025565b61052d610844366004614dfb565b60009182526019602090815260408084206001600160a01b0393909316845291905290205490565b6104a9612096565b6104dc610882366004614dfb565b6120a5565b6104dc6108953660046149c1565b6120fe565b61052d6108a8366004614ad2565b612153565b6108c06108bb366004614e20565b61225d565b60405161046d9190614e61565b6104dc6108db366004614eed565b61240c565b6104dc6108ee366004614b58565b612417565b61052d6109013660046149c1565b612463565b61052d610914366004614bb2565b612507565b6104dc610927366004615004565b612547565b6104dc61093a366004615081565b612579565b6013546001600160a01b0316610489565b6104dc61095e366004614bf6565b61264a565b6104a9610971366004614845565b6126bc565b6104dc610984366004615081565b612761565b6104dc610997366004615081565b6127d3565b6104dc6109aa3660046149c1565b6127e7565b61052d6109bd366004614bf6565b6000918252600d6020908152604080842092845291905290205490565b6108c06109e8366004614845565b612863565b610a006109fb366004614bf6565b6129ea565b60405161046d91906150b5565b6104a9610a1b366004614845565b612b4b565b6104dc610a2e36600461514b565b612bbd565b610461610a41366004615205565b6001600160a01b03918216600090815260056020908152604080832093909416825291909152205460ff1690565b6104a9610a7d366004614845565b612d72565b6104dc610a90366004614876565b612d92565b6104dc610aa3366004614845565b612e03565b61052d610ab6366004615233565b612e52565b6104dc610ac9366004614993565b612fb0565b610489610adc366004614845565b6000908152600f60205260409020546001600160a01b031690565b60006001600160e01b0319821663780e9d6360e01b1480610b1c5750610b1c82612ff6565b92915050565b606060008054610b319061528e565b80601f0160208091040260200160405190810160405280929190818152602001828054610b5d9061528e565b8015610baa5780601f10610b7f57610100808354040283529160200191610baa565b820191906000526020600020905b815481529060010190602001808311610b8d57829003601f168201915b5050505050905090565b6000818152600260205260408120546001600160a01b0316610c325760405162461bcd60e51b815260206004820152602c60248201527f4552433732313a20617070726f76656420717565727920666f72206e6f6e657860448201526b34b9ba32b73a103a37b5b2b760a11b60648201526084015b60405180910390fd5b506000908152600460205260409020546001600160a01b031690565b73__$69db18565ecbefece480e92cc5f8fb1274$__63dfc34f25610c756020840184614aa3565b610c856040850160208601614aa3565b610c9260408601866152c3565b60116040518663ffffffff1660e01b8152600401610cb4959493929190615332565b60006040518083038186803b158015610ccc57600080fd5b505af4158015610ce0573d6000803e3d6000fd5b5050505050565b6000610cf282611c07565b9050806001600160a01b0316836001600160a01b03161415610d605760405162461bcd60e51b815260206004820152602160248201527f4552433732313a20617070726f76616c20746f2063757272656e74206f776e656044820152603960f91b6064820152608401610c29565b336001600160a01b0382161480610d7c5750610d7c8133610a41565b610dee5760405162461bcd60e51b815260206004820152603860248201527f4552433732313a20617070726f76652063616c6c6572206973206e6f74206f7760448201527f6e6572206e6f7220617070726f76656420666f7220616c6c00000000000000006064820152608401610c29565b610df88383613046565b505050565b60005b81811015610f5e576000838383818110610e1c57610e1c615371565b9050602002013590506000610e3082611c07565b90506000866001600160a01b0316826001600160a01b031614610e5757600160ec1b610e64565b67100000000fffffff60b01b5b600084815260186020526040812091925090610e7f906130b4565b905060005b8151811015610f485773__$bfdcc7011a2e80c167e18378382b8de19c$__633f1816ce86848481518110610eba57610eba615371565b60209081029190910101516040516001600160e01b031960e085901b16815260048101929092526001600160a01b0316602482015260448101869052601860648201526019608482015260a40160006040518083038186803b158015610f1f57600080fd5b505af4158015610f33573d6000803e3d6000fd5b5050505080610f419061539d565b9050610e84565b505050505080610f579061539d565b9050610e00565b50505050565b6013546040516367880d6160e11b8152823560048201526000916001600160a01b03169063cf101ac290602401602060405180830381865afa158015610fae573d6000803e3d6000fd5b505050506040513d601f19601f82011682018060405250810190610fd291906153b8565b9050610fdf8160c16130c1565b73__$69db18565ecbefece480e92cc5f8fb1274$__636252159e833561100b6040860160208701614aa3565b61101860408701876152c3565b600f6040518663ffffffff1660e01b815260040161103a9594939291906153d1565b60006040518083038186803b15801561105257600080fd5b505af4158015611066573d6000803e3d6000fd5b505050505050565b61107a813560b26130c1565b6040516331a9108f60e11b81528135600482015273__$e2c9a8f399964af47bb173600dd9e5f662$__90633019fadd9083903090636352211e90602401602060405180830381865afa1580156110d4573d6000803e3d6000fd5b505050506040513d601f19601f820116820180604052508101906110f891906153fc565b60135485356000908152600d60209081526040808320818a0135845282529182902054825160e088901b6001600160e01b031916815286356004820152918601356024830152949091013560448201526001600160a01b0392831660648201529116608482015260a481019190915260c401610cb4565b6060610b1c826126bc565b611186813560b26130c1565b611193816020013561317a565b73__$e2c9a8f399964af47bb173600dd9e5f662$__63957f8a988235602084013560408501356111c660608701876152c3565b6040516331a9108f60e11b8152883560048201523090636352211e90602401602060405180830381865afa158015611202573d6000803e3d6000fd5b505050506040513d601f19601f8201168201806040525081019061122691906153fc565b6013546020808b01356000908152600a9091526040908190206005015490516001600160e01b031960e08b901b168152610cb4989796959493926001600160a01b03908116921690600d90600401615419565b6112848360026130c1565b604051631f8c0b6760e11b8152600481018490526001600160a01b038316602482015260448101829052601860648201526019608482015273__$bfdcc7011a2e80c167e18378382b8de19c$__90633f1816ce9060a4015b60006040518083038186803b1580156112f457600080fd5b505af4158015611308573d6000803e3d6000fd5b50505050505050565b61131b33826131d3565b6113375760405162461bcd60e51b8152600401610c2990615473565b610df88383836132ca565b6000611350823560ec6130c1565b81356000908152600a60205260408120600301805482906113709061539d565b91829055506040516342a34a5360e01b815290915073__$2873850e5b3f5697aafc2f5cd9f27cc884$__906342a34a53906113b990869085906000908190600e906004016155ce565b60006040518083038186803b1580156113d157600080fd5b505af41580156113e5573d6000803e3d6000fd5b509295945050505050565b60006113fb83611c98565b821061145d5760405162461bcd60e51b815260206004820152602b60248201527f455243373231456e756d657261626c653a206f776e657220696e646578206f7560448201526a74206f6620626f756e647360a81b6064820152608401610c29565b506001600160a01b03919091166000908152600660209081526040808320938352929052205490565b6000611494833560ca6130c1565b6114ae6114a46020840184614aa3565b8360200135613471565b6013546545524337323160d01b906000906001600160a01b0316632ea24efc826114db6020880188614aa3565b6040516001600160e01b031960e085901b16815260048101929092526001600160a01b03166024820152602087013560448201526064016020604051808303816000875af1158015611531573d6000803e3d6000fd5b505050506040513d601f19601f8201168201806040525081019061155591906153b8565b85356000908152600a6020526040812060030180549293509091829061157a9061539d565b9182905550905073__$2873850e5b3f5697aafc2f5cd9f27cc884$__6342a34a53878386866115ac60208c018c614aa3565b8b602001356040516020016115df92919060609290921b6bffffffffffffffffffffffff19168252601482015260340190565b604051602081830303815290604052600e6040518763ffffffff1660e01b815260040161161196959493929190615613565b60006040518083038186803b15801561162957600080fd5b505af415801561163d573d6000803e3d6000fd5b509298975050505050505050565b6013546040516367880d6160e11b8152600481018590526000916001600160a01b03169063cf101ac290602401602060405180830381865afa158015611695573d6000803e3d6000fd5b505050506040513d601f19601f820116820180604052508101906116b991906153b8565b90506116c68160b16130c1565b601354604051633c17845760e11b81526001600160a01b039091169063782f08ae906116fa9087908790879060040161565e565b600060405180830381600087803b15801561171457600080fd5b505af1158015611728573d6000803e3d6000fd5b5050505050505050565b61173e813560b96130c1565b60135460405163e4bb4f2360e01b815273__$e2c9a8f399964af47bb173600dd9e5f662$__9163e4bb4f2391610cb49185916001600160a01b0390911690600d90600401615678565b611793813560b66130c1565b60135460408051635cebf08d60e11b81528335600482015260208401356024820152908301356044820152606083013560648201526001600160a01b039091166084820152600d60a482015273__$e2c9a8f399964af47bb173600dd9e5f662$__9063b9d7e11a9060c401610cb4565b610df883838360405180602001604052806000815250612547565b6000818152600a6020526040808220905161183c91600101906156e6565b60408051918290039091206000818152600b6020908152838220829055858252600a905291822082815590925090611877600183018261468c565b61188560028301600061468c565b50600060038201556004810180546001600160a01b03199081169091556005909101805490911690556118b782613521565b5050565b60006118c9833560c86130c1565b82356000908152600a60205260408120600301805467131a5b9adb1a5cdd60c21b928592909182906118fa9061539d565b919050819055905073__$2873850e5b3f5697aafc2f5cd9f27cc884$__6342a34a53878386868a6040516020016115df91815260200190565b61193e8360b06130c1565b6000838152600a6020526040902061195a9060020183836146c6565b50827f17d7c9f69270ba135480ef16837f38b9d37d3ab291cbd3ba03982290c6631997838360405161198d929190615782565b60405180910390a2505050565b6000828152601a60209081526040808320848452909152902060609081906119c1906130b4565b6000858152601a6020908152604080832087845290915290209092506119e9906002016130b4565b90505b9250929050565b60006119fe60085490565b8210611a615760405162461bcd60e51b815260206004820152602c60248201527f455243373231456e756d657261626c653a20676c6f62616c20696e646578206f60448201526b7574206f6620626f756e647360a01b6064820152608401610c29565b60088281548110611a7457611a74615371565b90600052602060002001549050919050565b611a92813560be6130c1565b60135481356000818152600d60209081526040808320818701358085529083529281902054905163d862986560e01b8152600481019490945290850135602484015260448301919091526001600160a01b039092166064820152608481019190915273__$e2c9a8f399964af47bb173600dd9e5f662$__9063d86298659060a401610cb4565b611b24813560bb6130c1565b6013546040516332f107bf60e01b815273__$e2c9a8f399964af47bb173600dd9e5f662$__916332f107bf91610cb49185916001600160a01b0390911690600d90600401615796565b6000611b7a848484613580565b90505b9392505050565b611b8e8484613616565b611b9884846136c2565b6040516001626802bf60e01b0319815273__$2873850e5b3f5697aafc2f5cd9f27cc884$__9063ff97fd4190611bdb908790879087908790600e90600401615813565b60006040518083038186803b158015611bf357600080fd5b505af4158015611728573d6000803e3d6000fd5b6000818152600260205260408120546001600160a01b031680610b1c5760405162461bcd60e51b815260206004820152602960248201527f4552433732313a206f776e657220717565727920666f72206e6f6e657869737460448201526832b73a103a37b5b2b760b91b6064820152608401610c29565b6000818152601860205260409020606090610b1c906130b4565b60006001600160a01b038216611d035760405162461bcd60e51b815260206004820152602a60248201527f4552433732313a2062616c616e636520717565727920666f7220746865207a65604482015269726f206164647265737360b01b6064820152608401610c29565b506001600160a01b031660009081526003602052604090205490565b611d2a8660046130c1565b611d3486866136c2565b604051638973c4ed60e01b815273__$bfdcc7011a2e80c167e18378382b8de19c$__90638973c4ed90611d7890899089908990899089908990601a90600401615871565b60006040518083038186803b158015611d9057600080fd5b505af4158015611da4573d6000803e3d6000fd5b50505050505050505050565b611dbb8260c46130c1565b611dc582826136c2565b6000828152600e60209081526040808320848452825291829020600501805460ff60a81b1916600160a81b179055905182815283917f036469f3e73c83520cdefa197d7a9c854c2f8bc0164b82e9f2bd4aa7e150fd3091015b60405180910390a25050565b611e36813560b86130c1565b60135481356000908152600d6020908152604080832060608601358452909152908190205490516317e9a8b160e31b815273__$e2c9a8f399964af47bb173600dd9e5f662$__9263bf4d458892610cb49286926001600160a01b031691906004016158b9565b600080611ea883611c07565b6001600160a01b03166000908152600c60205260409020549290921492915050565b611ed58660036130c1565b611edf86866136c2565b604051631e6dafab60e31b815273__$bfdcc7011a2e80c167e18378382b8de19c$__9063f36d7d5890611d7890899089908990899089908990601a90600401615871565b60135460405162fba02760e01b8152600481018390526000916001600160a01b03169062fba02790602401602060405180830381865afa158015611f6b573d6000803e3d6000fd5b505050506040513d601f19601f82011682018060405250810190610b1c91906153b8565b6000611f9d833560c76130c1565b82356000908152600a602052604081206003018054664164647265737360c81b926001600160a01b0386169290918290611fd69061539d565b919050819055905073__$2873850e5b3f5697aafc2f5cd9f27cc884$__6342a34a53878386868a6040516020016115df919060609190911b6bffffffffffffffffffffffff1916815260140190565b612031813560ba6130c1565b60135481356000908152600d6020908152604080832081860135845290915290819020549051633d7f9b3d60e11b815273__$e2c9a8f399964af47bb173600dd9e5f662$__92637aff367a92610cb49286926001600160a01b0316919060040161590b565b606060018054610b319061528e565b6120b08260016130c1565b6040516384b44a2f60e01b8152600481018390526001600160a01b0382166024820152600a604482015273__$d8529f0216812a2dec6b96adf1943c3537$__906384b44a2f9060640161103a565b61210a813560bd6130c1565b601354604051635fe5df1d60e11b815273__$e2c9a8f399964af47bb173600dd9e5f662$__9163bfcbbe3a91610cb49185916001600160a01b0390911690600d90600401615953565b6000612161833560c96130c1565b601354604051635cb46be760e01b81526000600482018190528435602483015260208501356044830152634e6f746560e01b9290916001600160a01b0390911690635cb46be7906064016020604051808303816000875af11580156121ca573d6000803e3d6000fd5b505050506040513d601f19601f820116820180604052508101906121ee91906153b8565b85356000908152600a602052604081206003018054929350909182906122139061539d565b919050819055905073__$2873850e5b3f5697aafc2f5cd9f27cc884$__6342a34a53878386868a600001358b602001356040516020016115df929190918252602082015260400190565b61226561474a565b600083836040516122779291906159b3565b604080519182900382206000818152600b602090815283822054808352600a82529184902060c08601909452835485526001840180549396509194939290840191906122c29061528e565b80601f01602080910402602001604051908101604052809291908181526020018280546122ee9061528e565b801561233b5780601f106123105761010080835404028352916020019161233b565b820191906000526020600020905b81548152906001019060200180831161231e57829003601f168201915b505050505081526020016002820180546123549061528e565b80601f01602080910402602001604051908101604052809291908181526020018280546123809061528e565b80156123cd5780601f106123a2576101008083540402835291602001916123cd565b820191906000526020600020905b8154815290600101906020018083116123b057829003601f168201915b50505091835250506003820154602082015260048201546001600160a01b03908116604083015260059092015490911660609091015295945050505050565b6118b7338383613777565b6124228360006130c1565b60405163130f361d60e01b815273__$d8529f0216812a2dec6b96adf1943c3537$__9063130f361d906112dc90869086908690600b90600a906004016159c3565b6000612474823560208401356136c2565b73__$2873850e5b3f5697aafc2f5cd9f27cc884$__635be69415833560208501356124a56060870160408801614aa3565b6124b260608801886152c3565b6014546040516001600160e01b031960e089901b1681526124ea9695949392916001600160a01b031690600a90600e906004016159f1565b602060405180830381865af4158015611f6b573d6000803e3d6000fd5b6000612515833560c66130c1565b82356000908152600a6020526040812060030180546821b430b930b1ba32b960b91b928592909182906118fa9061539d565b61255133836131d3565b61256d5760405162461bcd60e51b8152600401610c2990615473565b610f5e84848484613846565b612585813560b56130c1565b612597816020013582604001356136c2565b6040516331a9108f60e11b81528135600482015273__$e2c9a8f399964af47bb173600dd9e5f662$__9063018212d19083903090636352211e90602401602060405180830381865afa1580156125f1573d6000803e3d6000fd5b505050506040513d601f19601f8201168201806040525081019061261591906153fc565b6013546040516001600160e01b031960e086901b168152610cb49392916001600160a01b031690600e90600d90600401615a3f565b6126558260c56130c1565b61265f82826136c2565b6000828152600e60209081526040808320848452825291829020600501805460ff60a01b1916600160a01b179055905182815283917f4f1db9708b537c1d26a7af4b235fd079bf2342d92a276e27eb6c8717e8bbcf939101611e1e565b6000818152600a602052604090206002018054606091906126dc9061528e565b80601f01602080910402602001604051908101604052809291908181526020018280546127089061528e565b80156127555780601f1061272a57610100808354040283529160200191612755565b820191906000526020600020905b81548152906001019060200180831161273857829003601f168201915b50505050509050919050565b61276d813560b76130c1565b61278a6127806040830160208401614aa3565b8260400135613471565b601354604051638f3334ff60e01b815273__$e2c9a8f399964af47bb173600dd9e5f662$__91638f3334ff91610cb49185916001600160a01b0390911690600d90600401615abe565b6127e46127df82615b21565b613879565b50565b6127f3813560c06130c1565b612802813560208301356136c2565b73__$69db18565ecbefece480e92cc5f8fb1274$__6320828a02823560208401356128336060860160408701614aa3565b61284060608701876152c3565b600e6040518763ffffffff1660e01b8152600401610cb496959493929190615bd4565b61286b61474a565b600a60008381526020019081526020016000206040518060c0016040529081600082015481526020016001820180546128a39061528e565b80601f01602080910402602001604051908101604052809291908181526020018280546128cf9061528e565b801561291c5780601f106128f15761010080835404028352916020019161291c565b820191906000526020600020905b8154815290600101906020018083116128ff57829003601f168201915b505050505081526020016002820180546129359061528e565b80601f01602080910402602001604051908101604052809291908181526020018280546129619061528e565b80156129ae5780601f10612983576101008083540402835291602001916129ae565b820191906000526020600020905b81548152906001019060200180831161299157829003601f168201915b50505091835250506003820154602082015260048201546001600160a01b03908116604083015260059092015490911660609091015292915050565b60408051610100808201835260008083526020808401829052606084860181905284018290526080840182905260a0840182905260c0840182905260e08401829052868252600e81528482208683528152908490208451928301855280548352600181015491830191909152600281018054939492939192840191612a6e9061528e565b80601f0160208091040260200160405190810160405280929190818152602001828054612a9a9061528e565b8015612ae75780601f10612abc57610100808354040283529160200191612ae7565b820191906000526020600020905b815481529060010190602001808311612aca57829003601f168201915b505050918352505060038201546001600160a01b039081166020830152600483015481166040830152600590920154918216606082015260ff600160a01b8304811615156080830152600160a81b909204909116151560a090910152905092915050565b601354604051632b05429560e21b8152600481018390526060916001600160a01b03169063ac150a5490602401600060405180830381865afa158015612b95573d6000803e3d6000fd5b505050506040513d6000823e601f3d908101601f19168201604052610b1c9190810190615c15565b601454600160a81b900460ff1615808015612be557506014546001600160a01b90910460ff16105b80612c065750303b158015612c065750601454600160a01b900460ff166001145b612c695760405162461bcd60e51b815260206004820152602e60248201527f496e697469616c697a61626c653a20636f6e747261637420697320616c72656160448201526d191e481a5b9a5d1a585b1a5e995960921b6064820152608401610c29565b6014805460ff60a01b1916600160a01b1790558015612c96576014805460ff60a81b1916600160a81b1790555b612ca28989898961394e565b601380546001600160a01b03199081166001600160a01b0388811691909117909255601480548216878416179055601580548216868416179055601780549091169184169190911790556040514281527f400175a56dd3710794078f7b9dbe8296ac94c5a248dfd51bb22ed4ab9eaa9fbf9060200160405180910390a18015612d67576014805460ff60a81b19169055604051600181527f7f26b83ff96e1f2b6a682f133852f6798a09c465da95921460cefb38474024989060200160405180910390a15b505050505050505050565b6000818152600a602052604090206001018054606091906126dc9061528e565b612d9e813560bc6130c1565b60135481356000908152600d602090815260408083208186013584529091529081902054905163bf5c00c160e01b815273__$e2c9a8f399964af47bb173600dd9e5f662$__9263bf5c00c192610cb49286926001600160a01b03169190600401615c82565b612e0c8161399f565b336000818152600c602052604080822080549085905590519092839285927fce95332e6082aebeb8058a7b56d1a109f67d6550552ed04d36aca4a6acd4d7de9190a45050565b6000612e60843560cb6130c1565b601354604051633610bf0960e11b815265416e7955726960d01b916000916001600160a01b0390911690636c217e1290612ea29084908990899060040161565e565b6020604051808303816000875af1158015612ec1573d6000803e3d6000fd5b505050506040513d601f19601f82011682018060405250810190612ee591906153b8565b86356000908152600a60205260408120600301805492935090918290612f0a9061539d565b919050819055905073__$2873850e5b3f5697aafc2f5cd9f27cc884$__6342a34a53888386868b8b604051602001612f439291906159b3565b604051602081830303815290604052600e6040518763ffffffff1660e01b8152600401612f7596959493929190615613565b60006040518083038186803b158015612f8d57600080fd5b505af4158015612fa1573d6000803e3d6000fd5b50929998505050505050505050565b612fbc813560b46130c1565b6127e48135612fd16040840160208501614aa3565b836040013560405180604001604052806002815260200161060f60f31b815250613a20565b60006001600160e01b031982166380ac58cd60e01b148061302757506001600160e01b03198216635b5e139f60e01b145b80610b1c57506301ffc9a760e01b6001600160e01b0319831614610b1c565b600081815260046020526040902080546001600160a01b0319166001600160a01b038416908117909155819061307b82611c07565b6001600160a01b03167f8c5be1e5ebec7d5bd14f71427d1e84f3dd0314c0f7b2291e5b200ac8c7c3b92560405160405180910390a45050565b60606000611b7d83613c9d565b60006130cc83611c07565b9050336001600160a01b03821614156130e457505050565b326001600160a01b03821614801561310657506015546001600160a01b031633145b1561311057505050565b6000838152601960209081526040808320338452909152902054600190831c8116141561313c57505050565b60405162461bcd60e51b81526020600482015260136024820152722737ba22b737bab3b42832b936b4b9b9b4b7b760691b6044820152606401610c29565b6000818152600260205260409020546001600160a01b03166127e45760405162461bcd60e51b81526020600482015260126024820152714368617261637465724e6f7445786973747360701b6044820152606401610c29565b6000818152600260205260408120546001600160a01b031661324c5760405162461bcd60e51b815260206004820152602c60248201527f4552433732313a206f70657261746f7220717565727920666f72206e6f6e657860448201526b34b9ba32b73a103a37b5b2b760a11b6064820152608401610c29565b600061325783611c07565b9050806001600160a01b0316846001600160a01b031614806132925750836001600160a01b031661328784610bb4565b6001600160a01b0316145b806132c257506001600160a01b0380821660009081526005602090815260408083209388168352929052205460ff165b949350505050565b826001600160a01b03166132dd82611c07565b6001600160a01b0316146133415760405162461bcd60e51b815260206004820152602560248201527f4552433732313a207472616e736665722066726f6d20696e636f72726563742060448201526437bbb732b960d91b6064820152608401610c29565b6001600160a01b0382166133a35760405162461bcd60e51b8152602060048201526024808201527f4552433732313a207472616e7366657220746f20746865207a65726f206164646044820152637265737360e01b6064820152608401610c29565b6133ae838383613cf8565b6133b9600082613046565b6001600160a01b03831660009081526003602052604081208054600192906133e2908490615cda565b90915550506001600160a01b0382166000908152600360205260408120805460019290613410908490615cf1565b909155505060008181526002602052604080822080546001600160a01b0319166001600160a01b0386811691821790925591518493918716917fddf252ad1be2c89b69c2b068fc378daa952ba7f163c4a11628f55a4df523b3ef91a4505050565b6040516331a9108f60e11b8152600481018290526001600160a01b03831690636352211e90602401602060405180830381865afa1580156134b6573d6000803e3d6000fd5b505050506040513d601f19601f820116820180604052508101906134da91906153fc565b6001600160a01b03166118b75760405162461bcd60e51b815260206004820152600f60248201526e5245433732314e6f7445786973747360881b6044820152606401610c29565b61352b33826131d3565b6135775760405162461bcd60e51b815260206004820152601b60248201527f4e4654426173653a204e6f744f776e65724f72417070726f76656400000000006044820152606401610c29565b6127e481613e1c565b6000838152601a6020908152604080832085845290915281206135a39083613ec3565b156135b057506000611b7d565b6000848152601a6020908152604080832086845290915290206135d69060020183613ec3565b156135e357506001611b7d565b60008481526019602090815260408083206001600160a01b0386168452909152902054611b7a9060c31c60019081161490565b600061362183611c07565b9050336001600160a01b038216141561363957505050565b326001600160a01b03821614801561365b57506015546001600160a01b031633145b1561366557505050565b613670838333613580565b1561367a57505050565b60405162461bcd60e51b815260206004820152601e60248201527f4e6f74456e6f7567685065726d697373696f6e466f72546869734e6f746500006044820152606401610c29565b6000828152600e60209081526040808320848452909152902060050154600160a01b900460ff16156137265760405162461bcd60e51b815260206004820152600d60248201526c139bdd19525cd1195b195d1959609a1b6044820152606401610c29565b6000828152600a60205260409020600301548111156118b75760405162461bcd60e51b815260206004820152600d60248201526c4e6f74654e6f7445786973747360981b6044820152606401610c29565b816001600160a01b0316836001600160a01b031614156137d95760405162461bcd60e51b815260206004820152601960248201527f4552433732313a20617070726f766520746f2063616c6c6572000000000000006044820152606401610c29565b6001600160a01b03838116600081815260056020908152604080832094871680845294825291829020805460ff191686151590811790915591519182527f17307eab39ab6107e8899845ad3d59bd9653f200f220920489ca2b5937696c31910160405180910390a3505050565b6138518484846132ca565b61385d84848484613ee5565b610f5e5760405162461bcd60e51b8152600401610c2990615d09565b600060126000815461388a9061539d565b9182905550825190915061389e9082613fe3565b604051632902741560e01b815273__$d8529f0216812a2dec6b96adf1943c3537$__906329027415906138e09085906001908690600b90600a90600401615d5b565b60006040518083038186803b1580156138f857600080fd5b505af415801561390c573d6000803e3d6000fd5b505083516001600160a01b03166000908152600c6020526040902054151591506118b790505790516001600160a01b03166000908152600c6020526040902055565b61395a84848484613ffd565b7f414cd0b34676984f09a5f76ce9718d4062e50283abe0e7e274a9a5b4e0c99c308484848442604051613991959493929190615e04565b60405180910390a150505050565b60006139aa82611c07565b9050336001600160a01b03821614806139e05750326001600160a01b0382161480156139e057506015546001600160a01b031633145b6118b75760405162461bcd60e51b81526020600482015260116024820152702737ba21b430b930b1ba32b927bbb732b960791b6044820152606401610c29565b6001600160a01b0383166000908152600c602052604090205415613a9c5760405162461bcd60e51b815260206004820152602d60248201527f546172676574206164647265737320616c726561647920686173207072696d6160448201526c393c9031b430b930b1ba32b91760991b6064820152608401610c29565b6000601260008154613aad9061539d565b91829055509050613abe8482613fe3565b73__$d8529f0216812a2dec6b96adf1943c3537$__63290274156040518060a00160405280876001600160a01b03168152602001613b06886001600160a01b03166014614016565b815260200160405180602001604052806000815250815260200160006001600160a01b0316815260200160405180602001604052806000815250815250600084600b600a6040518663ffffffff1660e01b8152600401613b6a959493929190615d5b565b60006040518083038186803b158015613b8257600080fd5b505af4158015613b96573d6000803e3d6000fd5b505050506001600160a01b0384166000908152600c602052604090819020829055516331a9108f60e11b81526004810186905273__$e2c9a8f399964af47bb173600dd9e5f662$__9063957f8a989087908490879087903090636352211e90602401602060405180830381865afa158015613c15573d6000803e3d6000fd5b505050506040513d601f19601f82011682018060405250810190613c3991906153fc565b6013546040516001600160e01b031960e089901b168152613c719695949392916001600160a01b031690600090600d90600401615e3e565b60006040518083038186803b158015613c8957600080fd5b505af4158015612d67573d6000803e3d6000fd5b60608160000180548060200260200160405190810160405280929190818152602001828054801561275557602002820191906000526020600020905b815481526020019060010190808311613cd95750505050509050919050565b6000818152601860205260408120613d0f906141b1565b600083815260186020526040812091925090613d2a906130b4565b905060005b82811015613dd857600084815260196020526040812083518290859085908110613d5b57613d5b615371565b60200260200101516001600160a01b03166001600160a01b0316815260200190815260200160002081905550613dc5828281518110613d9c57613d9c615371565b6020026020010151601860008781526020019081526020016000206141bb90919063ffffffff16565b5080613dd08161539d565b915050613d2f565b506001600160a01b0385166000908152600c602052604090205415613e11576001600160a01b0385166000908152600c60205260408120555b610ce08585856141d0565b6000613e2782611c07565b9050613e3581600084613cf8565b613e40600083613046565b6001600160a01b0381166000908152600360205260408120805460019290613e69908490615cda565b909155505060008281526002602052604080822080546001600160a01b0319169055518391906001600160a01b038416907fddf252ad1be2c89b69c2b068fc378daa952ba7f163c4a11628f55a4df523b3ef908390a45050565b6001600160a01b03811660009081526001830160205260408120541515611b7d565b60006001600160a01b0384163b15613fd857604051630a85bd0160e11b81526001600160a01b0385169063150b7a0290613f29903390899088908890600401615e96565b6020604051808303816000875af1925050508015613f64575060408051601f3d908101601f19168201909252613f6191810190615ed3565b60015b613fbe573d808015613f92576040519150601f19603f3d011682016040523d82523d6000602084013e613f97565b606091505b508051613fb65760405162461bcd60e51b8152600401610c2990615d09565b805181602001fd5b6001600160e01b031916630a85bd0160e11b1490506132c2565b506001949350505050565b6118b7828260405180602001604052806000815250614288565b614009600085856146c6565b50610ce0600183836146c6565b60606000614025836002615ef0565b614030906002615cf1565b6001600160401b0381111561404757614047614f19565b6040519080825280601f01601f191660200182016040528015614071576020820181803683370190505b509050600360fc1b8160008151811061408c5761408c615371565b60200101906001600160f81b031916908160001a905350600f60fb1b816001815181106140bb576140bb615371565b60200101906001600160f81b031916908160001a90535060006140df846002615ef0565b6140ea906001615cf1565b90505b6001811115614162576f181899199a1a9b1b9c1cb0b131b232b360811b85600f166010811061411e5761411e615371565b1a60f81b82828151811061413457614134615371565b60200101906001600160f81b031916908160001a90535060049490941c9361415b81615f0f565b90506140ed565b508315611b7d5760405162461bcd60e51b815260206004820181905260248201527f537472696e67733a20686578206c656e67746820696e73756666696369656e746044820152606401610c29565b6000610b1c825490565b6000611b7d836001600160a01b0384166142bb565b6001600160a01b03831661422b5761422681600880546000838152600960205260408120829055600182018355919091527ff3f7a9fe364faab93b216da50a3214154f22a0a2b415b23a84c8169e8b636ee30155565b61424e565b816001600160a01b0316836001600160a01b03161461424e5761424e83826143ae565b6001600160a01b03821661426557610df88161444b565b826001600160a01b0316826001600160a01b031614610df857610df882826144fa565b614292838361453e565b61429f6000848484613ee5565b610df85760405162461bcd60e51b8152600401610c2990615d09565b600081815260018301602052604081205480156143a45760006142df600183615cda565b85549091506000906142f390600190615cda565b905081811461435857600086600001828154811061431357614313615371565b906000526020600020015490508087600001848154811061433657614336615371565b6000918252602080832090910192909255918252600188019052604090208390555b855486908061436957614369615f26565b600190038181906000526020600020016000905590558560010160008681526020019081526020016000206000905560019350505050610b1c565b6000915050610b1c565b600060016143bb84611c98565b6143c59190615cda565b600083815260076020526040902054909150808214614418576001600160a01b03841660009081526006602090815260408083208584528252808320548484528184208190558352600790915290208190555b5060009182526007602090815260408084208490556001600160a01b039094168352600681528383209183525290812055565b60085460009061445d90600190615cda565b6000838152600960205260408120546008805493945090928490811061448557614485615371565b9060005260206000200154905080600883815481106144a6576144a6615371565b60009182526020808320909101929092558281526009909152604080822084905585825281205560088054806144de576144de615f26565b6001900381819060005260206000200160009055905550505050565b600061450583611c98565b6001600160a01b039093166000908152600660209081526040808320868452825280832085905593825260079052919091209190915550565b6001600160a01b0382166145945760405162461bcd60e51b815260206004820181905260248201527f4552433732313a206d696e7420746f20746865207a65726f20616464726573736044820152606401610c29565b6000818152600260205260409020546001600160a01b0316156145f95760405162461bcd60e51b815260206004820152601c60248201527f4552433732313a20746f6b656e20616c7265616479206d696e746564000000006044820152606401610c29565b61460560008383613cf8565b6001600160a01b038216600090815260036020526040812080546001929061462e908490615cf1565b909155505060008181526002602052604080822080546001600160a01b0319166001600160a01b03861690811790915590518392907fddf252ad1be2c89b69c2b068fc378daa952ba7f163c4a11628f55a4df523b3ef908290a45050565b5080546146989061528e565b6000825580601f106146a8575050565b601f0160209004906000526020600020908101906127e49190614792565b8280546146d29061528e565b90600052602060002090601f0160209004810192826146f4576000855561473a565b82601f1061470d5782800160ff1982351617855561473a565b8280016001018555821561473a579182015b8281111561473a57823582559160200191906001019061471f565b50614746929150614792565b5090565b6040518060c001604052806000815260200160608152602001606081526020016000815260200160006001600160a01b0316815260200160006001600160a01b031681525090565b5b808211156147465760008155600101614793565b6001600160e01b0319811681146127e457600080fd5b6000602082840312156147cf57600080fd5b8135611b7d816147a7565b60005b838110156147f55781810151838201526020016147dd565b83811115610f5e5750506000910152565b6000815180845261481e8160208601602086016147da565b601f01601f19169290920160200192915050565b602081526000611b7d6020830184614806565b60006020828403121561485757600080fd5b5035919050565b60006060828403121561487057600080fd5b50919050565b60006020828403121561488857600080fd5b81356001600160401b0381111561489e57600080fd5b6132c28482850161485e565b6001600160a01b03811681146127e457600080fd5b80356148ca816148aa565b919050565b600080604083850312156148e257600080fd5b82356148ed816148aa565b946020939093013593505050565b60008083601f84011261490d57600080fd5b5081356001600160401b0381111561492457600080fd5b6020830191508360208260051b85010111156119ec57600080fd5b60008060006040848603121561495457600080fd5b833561495f816148aa565b925060208401356001600160401b0381111561497a57600080fd5b614986868287016148fb565b9497909650939450505050565b6000606082840312156149a557600080fd5b611b7d838361485e565b60006080828403121561487057600080fd5b6000602082840312156149d357600080fd5b81356001600160401b038111156149e957600080fd5b6132c2848285016149af565b600080600060608486031215614a0a57600080fd5b833592506020840135614a1c816148aa565b929592945050506040919091013590565b600080600060608486031215614a4257600080fd5b8335614a4d816148aa565b92506020840135614a1c816148aa565b600060e0828403121561487057600080fd5b600060208284031215614a8157600080fd5b81356001600160401b03811115614a9757600080fd5b6132c284828501614a5d565b600060208284031215614ab557600080fd5b8135611b7d816148aa565b60006040828403121561487057600080fd5b60008060608385031215614ae557600080fd5b82356001600160401b03811115614afb57600080fd5b614b0785828601614a5d565b9250506119e98460208501614ac0565b60008083601f840112614b2957600080fd5b5081356001600160401b03811115614b4057600080fd5b6020830191508360208285010111156119ec57600080fd5b600080600060408486031215614b6d57600080fd5b8335925060208401356001600160401b03811115614b8a57600080fd5b61498686828701614b17565b600060808284031215614ba857600080fd5b611b7d83836149af565b60008060408385031215614bc557600080fd5b82356001600160401b03811115614bdb57600080fd5b614be785828601614a5d565b95602094909401359450505050565b60008060408385031215614c0957600080fd5b50508035926020909101359150565b600081518084526020808501945080840160005b83811015614c515781516001600160a01b031687529582019590820190600101614c2c565b509495945050505050565b604081526000614c6f6040830185614c18565b8281036020840152614c818185614c18565b95945050505050565b600080600060608486031215614c9f57600080fd5b83359250602084013591506040840135614cb8816148aa565b809150509250925092565b60008060008060608587031215614cd957600080fd5b843593506020850135925060408501356001600160401b03811115614cfd57600080fd5b614d0987828801614b17565b95989497509550505050565b602081526000611b7d6020830184614c18565b60008060008060008060808789031215614d4157600080fd5b863595506020870135945060408701356001600160401b0380821115614d6657600080fd5b614d728a838b016148fb565b90965094506060890135915080821115614d8b57600080fd5b50614d9889828a016148fb565b979a9699509497509295939492505050565b60008060408385031215614dbd57600080fd5b82356001600160401b03811115614dd357600080fd5b614ddf85828601614a5d565b9250506020830135614df0816148aa565b809150509250929050565b60008060408385031215614e0e57600080fd5b823591506020830135614df0816148aa565b60008060208385031215614e3357600080fd5b82356001600160401b03811115614e4957600080fd5b614e5585828601614b17565b90969095509350505050565b60208152815160208201526000602083015160c06040840152614e8760e0840182614806565b90506040840151601f19848303016060850152614ea48282614806565b91505060608401516080840152608084015160018060a01b0380821660a08601528060a08701511660c086015250508091505092915050565b803580151581146148ca57600080fd5b60008060408385031215614f0057600080fd5b8235614f0b816148aa565b91506119e960208401614edd565b634e487b7160e01b600052604160045260246000fd5b60405160a081016001600160401b0381118282101715614f5157614f51614f19565b60405290565b604051601f8201601f191681016001600160401b0381118282101715614f7f57614f7f614f19565b604052919050565b60006001600160401b03821115614fa057614fa0614f19565b50601f01601f191660200190565b600082601f830112614fbf57600080fd5b8135614fd2614fcd82614f87565b614f57565b818152846020838601011115614fe757600080fd5b816020850160208301376000918101602001919091529392505050565b6000806000806080858703121561501a57600080fd5b8435615025816148aa565b93506020850135615035816148aa565b92506040850135915060608501356001600160401b0381111561505757600080fd5b61506387828801614fae565b91505092959194509250565b600060a0828403121561487057600080fd5b60006020828403121561509357600080fd5b81356001600160401b038111156150a957600080fd5b6132c28482850161506f565b602081528151602082015260208201516040820152600060408301516101008060608501526150e8610120850183614806565b9150606085015160018060a01b0380821660808701528060808801511660a0870152505060a085015161512660c08601826001600160a01b03169052565b5060c085015180151560e08601525060e0850151801515858301525090949350505050565b60008060008060008060008060c0898b03121561516757600080fd5b88356001600160401b038082111561517e57600080fd5b61518a8c838d01614b17565b909a50985060208b01359150808211156151a357600080fd5b506151b08b828c01614b17565b90975095505060408901356151c4816148aa565b935060608901356151d4816148aa565b925060808901356151e4816148aa565b915060a08901356151f4816148aa565b809150509295985092959890939650565b6000806040838503121561521857600080fd5b8235615223816148aa565b91506020830135614df0816148aa565b60008060006040848603121561524857600080fd5b83356001600160401b038082111561525f57600080fd5b61526b87838801614a5d565b9450602086013591508082111561528157600080fd5b5061498686828701614b17565b600181811c908216806152a257607f821691505b6020821081141561487057634e487b7160e01b600052602260045260246000fd5b6000808335601e198436030181126152da57600080fd5b8301803591506001600160401b038211156152f457600080fd5b6020019150368190038213156119ec57600080fd5b81835281816020850137506000828201602090810191909152601f909101601f19169091010190565b6001600160a01b0386811682528516602082015260806040820181905260009061535f9083018587615309565b90508260608301529695505050505050565b634e487b7160e01b600052603260045260246000fd5b634e487b7160e01b600052601160045260246000fd5b60006000198214156153b1576153b1615387565b5060010190565b6000602082840312156153ca57600080fd5b5051919050565b8581526001600160a01b038516602082015260806040820181905260009061535f9083018587615309565b60006020828403121561540e57600080fd5b8151611b7d816148aa565b60006101008b83528a6020840152896040840152806060840152615440818401898b615309565b6001600160a01b03978816608085015295871660a084015250509190931660c082015260e0019190915295945050505050565b60208082526031908201527f4552433732313a207472616e736665722063616c6c6572206973206e6f74206f6040820152701ddb995c881b9bdc88185c1c1c9bdd9959607a1b606082015260800190565b6000808335601e198436030181126154db57600080fd5b83016020810192503590506001600160401b038111156154fa57600080fd5b8036038313156119ec57600080fd5b80358252600061551c60208301836154c4565b60e0602086015261553160e086018284615309565b9150506040830135615542816148aa565b6001600160a01b03818116604087015261555f60608601866154c4565b92508684036060880152615574848483615309565b93505060808501359150615587826148aa565b16608085015261559a60a08401846154c4565b85830360a08701526155ad838284615309565b925050506155bd60c08401614edd565b151560c08501528091505092915050565b60c0815260006155e160c0830188615509565b602083810197909752604083019590955250606081019290925281830360808301526000835260a09091015201919050565b60c08152600061562660c0830189615509565b876020840152866040840152856060840152828103608084015261564a8186614806565b9150508260a0830152979650505050505050565b838152604060208201526000614c81604083018486615309565b606081528335606082015260006020850135615693816148aa565b6001600160a01b038181166080850152604087013560a08501526156ba60608801886154c4565b9250608060c08601526156d160e086018483615309565b96909116602085015250505060400152919050565b600080835481600182811c91508083168061570257607f831692505b602080841082141561572257634e487b7160e01b86526022600452602486fd5b818015615736576001811461574757615774565b60ff19861689528489019650615774565b60008a81526020902060005b8681101561576c5781548b820152908501908301615753565b505084890196505b509498975050505050505050565b602081526000611b7a602083018486615309565b606081528335606082015260006157b060208601866154c4565b6080808501526157c460e085018284615309565b915050604086013560a08401526157de60608701876154c4565b848303605f190160c08601526157f5838284615309565b6001600160a01b039790971660208601525050505060400152919050565b85815284602082015260806040820152600061535f608083018587615309565b8183526000602080850194508260005b85811015614c51578135615856816148aa565b6001600160a01b031687529582019590820190600101615843565b87815286602082015260a06040820152600061589160a083018789615833565b82810360608401526158a4818688615833565b91505082608083015298975050505050505050565b8335815260c0810160208501356158cf816148aa565b6001600160a01b039081166020840152604086810135908401526060958601359583019590955292909316608084015260a09092019190915290565b8335815260a081016020850135615921816148aa565b6001600160a01b0390811660208401526040958601359583019590955292909316606084015260809092019190915290565b606081528335606082015260208401356080820152604084013560a0820152600061598160608601866154c4565b608060c085015261599660e085018284615309565b6001600160a01b0396909616602085015250505060400152919050565b8183823760009101908152919050565b8581526080602082015260006159dd608083018688615309565b604083019490945250606001529392505050565b888152876020820152600060018060a01b03808916604084015260e06060840152615a2060e08401888a615309565b951660808301525060a081019290925260c09091015295945050505050565b60a08152853560a0820152602086013560c0820152604086013560e082015260608601356101008201526000615a7860808801886154c4565b60a0610120850152615a8f61014085018284615309565b6001600160a01b0398891660208601529690971660408401525050606081019290925260809091015292915050565b606081528335606082015260006020850135615ad9816148aa565b60018060a01b038082166080850152604087013560a0850152606087013560c0850152615b0960808801886154c4565b925060a060e08601526156d161010086018483615309565b600060a08236031215615b3357600080fd5b615b3b614f2f565b615b44836148bf565b815260208301356001600160401b0380821115615b6057600080fd5b615b6c36838701614fae565b60208401526040850135915080821115615b8557600080fd5b615b9136838701614fae565b6040840152615ba2606086016148bf565b60608401526080850135915080821115615bbb57600080fd5b50615bc836828601614fae565b60808301525092915050565b86815285602082015260018060a01b038516604082015260a060608201526000615c0260a083018587615309565b9050826080830152979650505050505050565b600060208284031215615c2757600080fd5b81516001600160401b03811115615c3d57600080fd5b8201601f81018413615c4e57600080fd5b8051615c5c614fcd82614f87565b818152856020838501011115615c7157600080fd5b614c818260208301602086016147da565b60608152833560608201526000615c9c60208601866154c4565b60606080850152615cb160c085018284615309565b60409788013560a08601526001600160a01b039690961660208501525050509092019190915290565b600082821015615cec57615cec615387565b500390565b60008219821115615d0457615d04615387565b500190565b60208082526032908201527f4552433732313a207472616e7366657220746f206e6f6e20455243373231526560408201527131b2b4bb32b91034b6b83632b6b2b73a32b960711b606082015260800190565b60a08152600060018060a01b038088511660a0840152602088015160a060c0850152615d8b610140850182614806565b90506040890151609f19808684030160e0870152615da98383614806565b92508360608c01511661010087015260808b0151935080868403016101208701525050615dd68183614806565b92505050615de8602083018715159052565b8460408301528360608301528260808301529695505050505050565b606081526000615e18606083018789615309565b8281036020840152615e2b818688615309565b9150508260408301529695505050505050565b60006101008a8352896020840152886040840152806060840152615e6481840189614806565b6001600160a01b03978816608085015295871660a084015250509190931660c082015260e00191909152949350505050565b6001600160a01b0385811682528416602082015260408101839052608060608201819052600090615ec990830184614806565b9695505050505050565b600060208284031215615ee557600080fd5b8151611b7d816147a7565b6000816000190483118215151615615f0a57615f0a615387565b500290565b600081615f1e57615f1e615387565b506000190190565b634e487b7160e01b600052603160045260246000fdfea264697066735822122040fae1086739e5b32a48bc19eca084c93fc4f2771bfea31f671c5cd2848ff92b64736f6c634300080a0033",
  "linkReferences": {
    "contracts/libraries/CharacterLogic.sol": {
      "CharacterLogic": [
        {
          "length": 20,
          "start": 8445
        },
        {
          "length": 20,
          "start": 9298
        },
        {
          "length": 20,
          "start": 14542
        },
        {
          "length": 20,
          "start": 15073
        }
      ]
    },
    "contracts/libraries/LinkLogic.sol": {
      "LinkLogic": [
        {
          "length": 20,
          "start": 4273
        },
        {
          "length": 20,
          "start": 4534
        },
        {
          "length": 20,
          "start": 6001
        },
        {
          "length": 20,
          "start": 6146
        },
        {
          "length": 20,
          "start": 6935
        },
        {
          "length": 20,
          "start": 6999
        },
        {
          "length": 20,
          "start": 7818
        },
        {
          "length": 20,
          "start": 8324
        },
        {
          "length": 20,
          "start": 8509
        },
        {
          "length": 20,
          "start": 9678
        },
        {
          "length": 20,
          "start": 10173
        },
        {
          "length": 20,
          "start": 11761
        },
        {
          "length": 20,
          "start": 15340
        }
      ]
    },
    "contracts/libraries/LinkModuleLogic.sol": {
      "LinkModuleLogic": [
        {
          "length": 20,
          "start": 3185
        },
        {
          "length": 20,
          "start": 4098
        },
        {
          "length": 20,
          "start": 10277
        }
      ]
    },
    "contracts/libraries/OperatorLogic.sol": {
      "OperatorLogic": [
        {
          "length": 20,
          "start": 3760
        },
        {
          "length": 20,
          "start": 4831
        },
        {
          "length": 20,
          "start": 7524
        },
        {
          "length": 20,
          "start": 7951
        }
      ]
    },
    "contracts/libraries/PostLogic.sol": {
      "PostLogic": [
        {
          "length": 20,
          "start": 5032
        },
        {
          "length": 20,
          "start": 5540
        },
        {
          "length": 20,
          "start": 6437
        },
        {
          "length": 20,
          "start": 7115
        },
        {
          "length": 20,
          "start": 8193
        },
        {
          "length": 20,
          "start": 8766
        },
        {
          "length": 20,
          "start": 9367
        },
        {
          "length": 20,
          "start": 12085
        }
      ]
    }
  },
  "deployedLinkReferences": {
    "contracts/libraries/CharacterLogic.sol": {
      "CharacterLogic": [
        {
          "length": 20,
          "start": 8412
        },
        {
          "length": 20,
          "start": 9265
        },
        {
          "length": 20,
          "start": 14509
        },
        {
          "length": 20,
          "start": 15040
        }
      ]
    },
    "contracts/libraries/LinkLogic.sol": {
      "LinkLogic": [
        {
          "length": 20,
          "start": 4240
        },
        {
          "length": 20,
          "start": 4501
        },
        {
          "length": 20,
          "start": 5968
        },
        {
          "length": 20,
          "start": 6113
        },
        {
          "length": 20,
          "start": 6902
        },
        {
          "length": 20,
          "start": 6966
        },
        {
          "length": 20,
          "start": 7785
        },
        {
          "length": 20,
          "start": 8291
        },
        {
          "length": 20,
          "start": 8476
        },
        {
          "length": 20,
          "start": 9645
        },
        {
          "length": 20,
          "start": 10140
        },
        {
          "length": 20,
          "start": 11728
        },
        {
          "length": 20,
          "start": 15307
        }
      ]
    },
    "contracts/libraries/LinkModuleLogic.sol": {
      "LinkModuleLogic": [
        {
          "length": 20,
          "start": 3152
        },
        {
          "length": 20,
          "start": 4065
        },
        {
          "length": 20,
          "start": 10244
        }
      ]
    },
    "contracts/libraries/OperatorLogic.sol": {
      "OperatorLogic": [
        {
          "length": 20,
          "start": 3727
        },
        {
          "length": 20,
          "start": 4798
        },
        {
          "length": 20,
          "start": 7491
        },
        {
          "length": 20,
          "start": 7918
        }
      ]
    },
    "contracts/libraries/PostLogic.sol": {
      "PostLogic": [
        {
          "length": 20,
          "start": 4999
        },
        {
          "length": 20,
          "start": 5507
        },
        {
          "length": 20,
          "start": 6404
        },
        {
          "length": 20,
          "start": 7082
        },
        {
          "length": 20,
          "start": 8160
        },
        {
          "length": 20,
          "start": 8733
        },
        {
          "length": 20,
          "start": 9334
        },
        {
          "length": 20,
          "start": 12052
        }
      ]
    }
  }
}