{
    "_format": "hh-sol-artifact-1",
    "contractName": "Web3Entry",
    "sourceName": "contracts/Web3Entry.sol",
    "abi": [
        {
            "anonymous": false,
            "inputs": [
                {
                    "indexed": true,
                    "internalType": "address",
                    "name": "owner",
                    "type": "address"
                },
                {
                    "indexed": true,
                    "internalType": "address",
                    "name": "approved",
                    "type": "address"
                },
                {
                    "indexed": true,
                    "internalType": "uint256",
                    "name": "tokenId",
                    "type": "uint256"
                }
            ],
            "name": "Approval",
            "type": "event"
        },
        {
            "anonymous": false,
            "inputs": [
                {
                    "indexed": true,
                    "internalType": "address",
                    "name": "owner",
                    "type": "address"
                },
                {
                    "indexed": true,
                    "internalType": "address",
                    "name": "operator",
                    "type": "address"
                },
                {
                    "indexed": false,
                    "internalType": "bool",
                    "name": "approved",
                    "type": "bool"
                }
            ],
            "name": "ApprovalForAll",
            "type": "event"
        },
        {
            "anonymous": false,
            "inputs": [
                {
                    "indexed": true,
                    "internalType": "address",
                    "name": "from",
                    "type": "address"
                },
                {
                    "indexed": true,
                    "internalType": "address",
                    "name": "to",
                    "type": "address"
                },
                {
                    "indexed": true,
                    "internalType": "uint256",
                    "name": "tokenId",
                    "type": "uint256"
                }
            ],
            "name": "Transfer",
            "type": "event"
        },
        {
            "inputs": [
                {
                    "internalType": "address",
                    "name": "to",
                    "type": "address"
                },
                {
                    "internalType": "uint256",
                    "name": "tokenId",
                    "type": "uint256"
                }
            ],
            "name": "approve",
            "outputs": [],
            "stateMutability": "nonpayable",
            "type": "function"
        },
        {
            "inputs": [
                {
                    "internalType": "uint256",
                    "name": "linklistId",
                    "type": "uint256"
                },
                {
                    "internalType": "uint256",
                    "name": "profileId",
                    "type": "uint256"
                }
            ],
            "name": "attachLinklist",
            "outputs": [],
            "stateMutability": "nonpayable",
            "type": "function"
        },
        {
            "inputs": [
                {
                    "internalType": "address",
                    "name": "owner",
                    "type": "address"
                }
            ],
            "name": "balanceOf",
            "outputs": [
                {
                    "internalType": "uint256",
                    "name": "",
                    "type": "uint256"
                }
            ],
            "stateMutability": "view",
            "type": "function"
        },
        {
            "inputs": [
                {
                    "internalType": "uint256",
                    "name": "tokenId",
                    "type": "uint256"
                }
            ],
            "name": "burn",
            "outputs": [],
            "stateMutability": "nonpayable",
            "type": "function"
        },
        {
            "inputs": [
                {
                    "components": [
                        {
                            "internalType": "address",
                            "name": "to",
                            "type": "address"
                        },
                        {
                            "internalType": "string",
                            "name": "handle",
                            "type": "string"
                        },
                        {
                            "internalType": "string",
                            "name": "uri",
                            "type": "string"
                        },
                        {
                            "internalType": "address",
                            "name": "linkModule",
                            "type": "address"
                        },
                        {
                            "internalType": "bytes",
                            "name": "linkModuleInitData",
                            "type": "bytes"
                        }
                    ],
                    "internalType": "struct DataTypes.CreateProfileData",
                    "name": "vars",
                    "type": "tuple"
                }
            ],
            "name": "createProfile",
            "outputs": [],
            "stateMutability": "nonpayable",
            "type": "function"
        },
        {
            "inputs": [
                {
                    "components": [
                        {
                            "internalType": "uint256",
                            "name": "fromProfileId",
                            "type": "uint256"
                        },
                        {
                            "internalType": "address",
                            "name": "to",
                            "type": "address"
                        },
                        {
                            "internalType": "bytes32",
                            "name": "linkType",
                            "type": "bytes32"
                        }
                    ],
                    "internalType": "struct DataTypes.createThenLinkProfileData",
                    "name": "vars",
                    "type": "tuple"
                }
            ],
            "name": "createThenLinkProfile",
            "outputs": [],
            "stateMutability": "nonpayable",
            "type": "function"
        },
        {
            "inputs": [
                {
                    "internalType": "uint256",
                    "name": "profileId",
                    "type": "uint256"
                },
                {
                    "internalType": "uint256",
                    "name": "noteId",
                    "type": "uint256"
                }
            ],
            "name": "deleteNote",
            "outputs": [],
            "stateMutability": "nonpayable",
            "type": "function"
        },
        {
            "inputs": [
                {
                    "internalType": "uint256",
                    "name": "linklistId",
                    "type": "uint256"
                },
                {
                    "internalType": "uint256",
                    "name": "profileId",
                    "type": "uint256"
                }
            ],
            "name": "detachLinklist",
            "outputs": [],
            "stateMutability": "nonpayable",
            "type": "function"
        },
        {
            "inputs": [
                {
                    "internalType": "uint256",
                    "name": "tokenId",
                    "type": "uint256"
                }
            ],
            "name": "getApproved",
            "outputs": [
                {
                    "internalType": "address",
                    "name": "",
                    "type": "address"
                }
            ],
            "stateMutability": "view",
            "type": "function"
        },
        {
            "inputs": [
                {
                    "internalType": "uint256",
                    "name": "profileId",
                    "type": "uint256"
                }
            ],
            "name": "getHandle",
            "outputs": [
                {
                    "internalType": "string",
                    "name": "",
                    "type": "string"
                }
            ],
            "stateMutability": "view",
            "type": "function"
        },
        {
            "inputs": [
                {
                    "internalType": "address",
                    "name": "account",
                    "type": "address"
                }
            ],
            "name": "getLinkModule4Address",
            "outputs": [
                {
                    "internalType": "address",
                    "name": "",
                    "type": "address"
                }
            ],
            "stateMutability": "view",
            "type": "function"
        },
        {
            "inputs": [
                {
                    "internalType": "address",
                    "name": "tokenAddress",
                    "type": "address"
                },
                {
                    "internalType": "uint256",
                    "name": "tokenId",
                    "type": "uint256"
                }
            ],
            "name": "getLinkModule4ERC721",
            "outputs": [
                {
                    "internalType": "address",
                    "name": "",
                    "type": "address"
                }
            ],
            "stateMutability": "view",
            "type": "function"
        },
        {
            "inputs": [
                {
                    "internalType": "uint256",
                    "name": "tokenId",
                    "type": "uint256"
                }
            ],
            "name": "getLinkModule4Linklist",
            "outputs": [
                {
                    "internalType": "address",
                    "name": "",
                    "type": "address"
                }
            ],
            "stateMutability": "view",
            "type": "function"
        },
        {
            "inputs": [
                {
                    "internalType": "uint256",
                    "name": "fromProfileId",
                    "type": "uint256"
                },
                {
                    "internalType": "bytes32",
                    "name": "linkType",
                    "type": "bytes32"
                }
            ],
            "name": "getLinkingProfileIds",
            "outputs": [
                {
                    "internalType": "uint256[]",
                    "name": "results",
                    "type": "uint256[]"
                }
            ],
            "stateMutability": "view",
            "type": "function"
        },
        {
            "inputs": [],
            "name": "getLinklistContract",
            "outputs": [
                {
                    "internalType": "address",
                    "name": "",
                    "type": "address"
                }
            ],
            "stateMutability": "view",
            "type": "function"
        },
        {
            "inputs": [
                {
                    "internalType": "uint256",
                    "name": "profileId",
                    "type": "uint256"
                },
                {
                    "internalType": "bytes32",
                    "name": "linkType",
                    "type": "bytes32"
                }
            ],
            "name": "getLinklistUri",
            "outputs": [
                {
                    "internalType": "string",
                    "name": "",
                    "type": "string"
                }
            ],
            "stateMutability": "view",
            "type": "function"
        },
        {
            "inputs": [
                {
                    "internalType": "uint256",
                    "name": "profileId",
                    "type": "uint256"
                },
                {
                    "internalType": "uint256",
                    "name": "noteId",
                    "type": "uint256"
                }
            ],
            "name": "getNote",
            "outputs": [
                {
                    "components": [
                        {
                            "internalType": "bytes32",
                            "name": "linkItemType",
                            "type": "bytes32"
                        },
                        {
                            "internalType": "uint256",
                            "name": "linklistId",
                            "type": "uint256"
                        },
                        {
                            "internalType": "bytes32",
                            "name": "linkKey",
                            "type": "bytes32"
                        },
                        {
                            "internalType": "string",
                            "name": "contentUri",
                            "type": "string"
                        },
                        {
                            "internalType": "address",
                            "name": "linkModule",
                            "type": "address"
                        },
                        {
                            "internalType": "address",
                            "name": "mintModule",
                            "type": "address"
                        },
                        {
                            "internalType": "address",
                            "name": "mintNFT",
                            "type": "address"
                        },
                        {
                            "internalType": "bool",
                            "name": "deleted",
                            "type": "bool"
                        }
                    ],
                    "internalType": "struct DataTypes.Note",
                    "name": "",
                    "type": "tuple"
                }
            ],
            "stateMutability": "view",
            "type": "function"
        },
        {
            "inputs": [
                {
                    "internalType": "address",
                    "name": "account",
                    "type": "address"
                }
            ],
            "name": "getPrimaryProfileId",
            "outputs": [
                {
                    "internalType": "uint256",
                    "name": "",
                    "type": "uint256"
                }
            ],
            "stateMutability": "view",
            "type": "function"
        },
        {
            "inputs": [
                {
                    "internalType": "uint256",
                    "name": "profileId",
                    "type": "uint256"
                }
            ],
            "name": "getProfile",
            "outputs": [
                {
                    "components": [
                        {
                            "internalType": "uint256",
                            "name": "profileId",
                            "type": "uint256"
                        },
                        {
                            "internalType": "string",
                            "name": "handle",
                            "type": "string"
                        },
                        {
                            "internalType": "string",
                            "name": "uri",
                            "type": "string"
                        },
                        {
                            "internalType": "uint256",
                            "name": "noteCount",
                            "type": "uint256"
                        },
                        {
                            "internalType": "address",
                            "name": "socialToken",
                            "type": "address"
                        },
                        {
                            "internalType": "address",
                            "name": "linkModule",
                            "type": "address"
                        }
                    ],
                    "internalType": "struct DataTypes.Profile",
                    "name": "",
                    "type": "tuple"
                }
            ],
            "stateMutability": "view",
            "type": "function"
        },
        {
            "inputs": [
                {
                    "internalType": "string",
                    "name": "handle",
                    "type": "string"
                }
            ],
            "name": "getProfileByHandle",
            "outputs": [
                {
                    "components": [
                        {
                            "internalType": "uint256",
                            "name": "profileId",
                            "type": "uint256"
                        },
                        {
                            "internalType": "string",
                            "name": "handle",
                            "type": "string"
                        },
                        {
                            "internalType": "string",
                            "name": "uri",
                            "type": "string"
                        },
                        {
                            "internalType": "uint256",
                            "name": "noteCount",
                            "type": "uint256"
                        },
                        {
                            "internalType": "address",
                            "name": "socialToken",
                            "type": "address"
                        },
                        {
                            "internalType": "address",
                            "name": "linkModule",
                            "type": "address"
                        }
                    ],
                    "internalType": "struct DataTypes.Profile",
                    "name": "",
                    "type": "tuple"
                }
            ],
            "stateMutability": "view",
            "type": "function"
        },
        {
            "inputs": [
                {
                    "internalType": "uint256",
                    "name": "profileId",
                    "type": "uint256"
                }
            ],
            "name": "getProfileUri",
            "outputs": [
                {
                    "internalType": "string",
                    "name": "",
                    "type": "string"
                }
            ],
            "stateMutability": "view",
            "type": "function"
        },
        {
            "inputs": [],
            "name": "getRevision",
            "outputs": [
                {
                    "internalType": "uint256",
                    "name": "",
                    "type": "uint256"
                }
            ],
            "stateMutability": "pure",
            "type": "function"
        },
        {
            "inputs": [
                {
                    "internalType": "string",
                    "name": "_name",
                    "type": "string"
                },
                {
                    "internalType": "string",
                    "name": "_symbol",
                    "type": "string"
                },
                {
                    "internalType": "address",
                    "name": "_linklistContract",
                    "type": "address"
                },
                {
                    "internalType": "address",
                    "name": "_mintNFTImpl",
                    "type": "address"
                }
            ],
            "name": "initialize",
            "outputs": [],
            "stateMutability": "nonpayable",
            "type": "function"
        },
        {
            "inputs": [
                {
                    "internalType": "address",
                    "name": "owner",
                    "type": "address"
                },
                {
                    "internalType": "address",
                    "name": "operator",
                    "type": "address"
                }
            ],
            "name": "isApprovedForAll",
            "outputs": [
                {
                    "internalType": "bool",
                    "name": "",
                    "type": "bool"
                }
            ],
            "stateMutability": "view",
            "type": "function"
        },
        {
            "inputs": [
                {
                    "internalType": "uint256",
                    "name": "profileId",
                    "type": "uint256"
                }
            ],
            "name": "isPrimaryProfile",
            "outputs": [
                {
                    "internalType": "bool",
                    "name": "",
                    "type": "bool"
                }
            ],
            "stateMutability": "view",
            "type": "function"
        },
        {
            "inputs": [
                {
                    "components": [
                        {
                            "internalType": "uint256",
                            "name": "fromProfileId",
                            "type": "uint256"
                        },
                        {
                            "internalType": "address",
                            "name": "ethAddress",
                            "type": "address"
                        },
                        {
                            "internalType": "bytes32",
                            "name": "linkType",
                            "type": "bytes32"
                        },
                        {
                            "internalType": "bytes",
                            "name": "data",
                            "type": "bytes"
                        }
                    ],
                    "internalType": "struct DataTypes.linkAddressData",
                    "name": "vars",
                    "type": "tuple"
                }
            ],
            "name": "linkAddress",
            "outputs": [],
            "stateMutability": "nonpayable",
            "type": "function"
        },
        {
            "inputs": [
                {
                    "components": [
                        {
                            "internalType": "uint256",
                            "name": "fromProfileId",
                            "type": "uint256"
                        },
                        {
                            "internalType": "string",
                            "name": "toUri",
                            "type": "string"
                        },
                        {
                            "internalType": "bytes32",
                            "name": "linkType",
                            "type": "bytes32"
                        },
                        {
                            "internalType": "bytes",
                            "name": "data",
                            "type": "bytes"
                        }
                    ],
                    "internalType": "struct DataTypes.linkAnyData",
                    "name": "vars",
                    "type": "tuple"
                }
            ],
            "name": "linkAny",
            "outputs": [],
            "stateMutability": "nonpayable",
            "type": "function"
        },
        {
            "inputs": [
                {
                    "components": [
                        {
                            "internalType": "uint256",
                            "name": "fromProfileId",
                            "type": "uint256"
                        },
                        {
                            "internalType": "address",
                            "name": "tokenAddress",
                            "type": "address"
                        },
                        {
                            "internalType": "uint256",
                            "name": "tokenId",
                            "type": "uint256"
                        },
                        {
                            "internalType": "bytes32",
                            "name": "linkType",
                            "type": "bytes32"
                        },
                        {
                            "internalType": "bytes",
                            "name": "data",
                            "type": "bytes"
                        }
                    ],
                    "internalType": "struct DataTypes.linkERC721Data",
                    "name": "vars",
                    "type": "tuple"
                }
            ],
            "name": "linkERC721",
            "outputs": [],
            "stateMutability": "nonpayable",
            "type": "function"
        },
        {
            "inputs": [
                {
                    "components": [
                        {
                            "internalType": "uint256",
                            "name": "fromProfileId",
                            "type": "uint256"
                        },
                        {
                            "internalType": "uint256",
                            "name": "toLinkListId",
                            "type": "uint256"
                        },
                        {
                            "internalType": "bytes32",
                            "name": "linkType",
                            "type": "bytes32"
                        },
                        {
                            "internalType": "bytes",
                            "name": "data",
                            "type": "bytes"
                        }
                    ],
                    "internalType": "struct DataTypes.linkLinklistData",
                    "name": "vars",
                    "type": "tuple"
                }
            ],
            "name": "linkLinklist",
            "outputs": [],
            "stateMutability": "nonpayable",
            "type": "function"
        },
        {
            "inputs": [
                {
                    "components": [
                        {
                            "internalType": "uint256",
                            "name": "fromProfileId",
                            "type": "uint256"
                        },
                        {
                            "internalType": "uint256",
                            "name": "toProfileId",
                            "type": "uint256"
                        },
                        {
                            "internalType": "uint256",
                            "name": "toNoteId",
                            "type": "uint256"
                        },
                        {
                            "internalType": "bytes32",
                            "name": "linkType",
                            "type": "bytes32"
                        },
                        {
                            "internalType": "bytes",
                            "name": "data",
                            "type": "bytes"
                        }
                    ],
                    "internalType": "struct DataTypes.linkNoteData",
                    "name": "vars",
                    "type": "tuple"
                }
            ],
            "name": "linkNote",
            "outputs": [],
            "stateMutability": "nonpayable",
            "type": "function"
        },
        {
            "inputs": [
                {
                    "components": [
                        {
                            "internalType": "uint256",
                            "name": "fromProfileId",
                            "type": "uint256"
                        },
                        {
                            "internalType": "uint256",
                            "name": "toProfileId",
                            "type": "uint256"
                        },
                        {
                            "internalType": "bytes32",
                            "name": "linkType",
                            "type": "bytes32"
                        },
                        {
                            "internalType": "bytes",
                            "name": "data",
                            "type": "bytes"
                        }
                    ],
                    "internalType": "struct DataTypes.linkProfileData",
                    "name": "vars",
                    "type": "tuple"
                }
            ],
            "name": "linkProfile",
            "outputs": [],
            "stateMutability": "nonpayable",
            "type": "function"
        },
        {
            "inputs": [
                {
                    "internalType": "uint256",
                    "name": "fromProfileId",
                    "type": "uint256"
                },
                {
                    "components": [
                        {
                            "internalType": "uint256",
                            "name": "fromProfileId",
                            "type": "uint256"
                        },
                        {
                            "internalType": "uint256",
                            "name": "toProfileId",
                            "type": "uint256"
                        },
                        {
                            "internalType": "bytes32",
                            "name": "linkType",
                            "type": "bytes32"
                        }
                    ],
                    "internalType": "struct DataTypes.ProfileLinkStruct",
                    "name": "linkData",
                    "type": "tuple"
                },
                {
                    "internalType": "bytes32",
                    "name": "linkType",
                    "type": "bytes32"
                }
            ],
            "name": "linkProfileLink",
            "outputs": [],
            "stateMutability": "nonpayable",
            "type": "function"
        },
        {
            "inputs": [
                {
                    "components": [
                        {
                            "internalType": "uint256",
                            "name": "profileId",
                            "type": "uint256"
                        },
                        {
                            "internalType": "uint256",
                            "name": "noteId",
                            "type": "uint256"
                        },
                        {
                            "internalType": "address",
                            "name": "to",
                            "type": "address"
                        },
                        {
                            "internalType": "bytes",
                            "name": "mintModuleData",
                            "type": "bytes"
                        }
                    ],
                    "internalType": "struct DataTypes.MintNoteData",
                    "name": "vars",
                    "type": "tuple"
                }
            ],
            "name": "mintNote",
            "outputs": [
                {
                    "internalType": "uint256",
                    "name": "",
                    "type": "uint256"
                }
            ],
            "stateMutability": "nonpayable",
            "type": "function"
        },
        {
            "inputs": [],
            "name": "name",
            "outputs": [
                {
                    "internalType": "string",
                    "name": "",
                    "type": "string"
                }
            ],
            "stateMutability": "view",
            "type": "function"
        },
        {
            "inputs": [
                {
                    "internalType": "uint256",
                    "name": "tokenId",
                    "type": "uint256"
                }
            ],
            "name": "ownerOf",
            "outputs": [
                {
                    "internalType": "address",
                    "name": "",
                    "type": "address"
                }
            ],
            "stateMutability": "view",
            "type": "function"
        },
        {
            "inputs": [
                {
                    "components": [
                        {
                            "internalType": "uint256",
                            "name": "profileId",
                            "type": "uint256"
                        },
                        {
                            "internalType": "string",
                            "name": "contentUri",
                            "type": "string"
                        },
                        {
                            "internalType": "address",
                            "name": "linkModule",
                            "type": "address"
                        },
                        {
                            "internalType": "bytes",
                            "name": "linkModuleInitData",
                            "type": "bytes"
                        },
                        {
                            "internalType": "address",
                            "name": "mintModule",
                            "type": "address"
                        },
                        {
                            "internalType": "bytes",
                            "name": "mintModuleInitData",
                            "type": "bytes"
                        }
                    ],
                    "internalType": "struct DataTypes.PostNoteData",
                    "name": "vars",
                    "type": "tuple"
                }
            ],
            "name": "postNote",
            "outputs": [
                {
                    "internalType": "uint256",
                    "name": "",
                    "type": "uint256"
                }
            ],
            "stateMutability": "nonpayable",
            "type": "function"
        },
        {
            "inputs": [
                {
                    "components": [
                        {
                            "internalType": "uint256",
                            "name": "profileId",
                            "type": "uint256"
                        },
                        {
                            "internalType": "string",
                            "name": "contentUri",
                            "type": "string"
                        },
                        {
                            "internalType": "address",
                            "name": "linkModule",
                            "type": "address"
                        },
                        {
                            "internalType": "bytes",
                            "name": "linkModuleInitData",
                            "type": "bytes"
                        },
                        {
                            "internalType": "address",
                            "name": "mintModule",
                            "type": "address"
                        },
                        {
                            "internalType": "bytes",
                            "name": "mintModuleInitData",
                            "type": "bytes"
                        }
                    ],
                    "internalType": "struct DataTypes.PostNoteData",
                    "name": "noteData",
                    "type": "tuple"
                },
                {
                    "internalType": "uint256",
                    "name": "fromProfileId",
                    "type": "uint256"
                },
                {
                    "internalType": "address",
                    "name": "ethAddress",
                    "type": "address"
                },
                {
                    "internalType": "bytes32",
                    "name": "linkType",
                    "type": "bytes32"
                }
            ],
            "name": "postNote4AddressLink",
            "outputs": [
                {
                    "internalType": "uint256",
                    "name": "",
                    "type": "uint256"
                }
            ],
            "stateMutability": "nonpayable",
            "type": "function"
        },
        {
            "inputs": [
                {
                    "components": [
                        {
                            "internalType": "uint256",
                            "name": "profileId",
                            "type": "uint256"
                        },
                        {
                            "internalType": "string",
                            "name": "contentUri",
                            "type": "string"
                        },
                        {
                            "internalType": "address",
                            "name": "linkModule",
                            "type": "address"
                        },
                        {
                            "internalType": "bytes",
                            "name": "linkModuleInitData",
                            "type": "bytes"
                        },
                        {
                            "internalType": "address",
                            "name": "mintModule",
                            "type": "address"
                        },
                        {
                            "internalType": "bytes",
                            "name": "mintModuleInitData",
                            "type": "bytes"
                        }
                    ],
                    "internalType": "struct DataTypes.PostNoteData",
                    "name": "noteData",
                    "type": "tuple"
                },
                {
                    "internalType": "uint256",
                    "name": "fromProfileId",
                    "type": "uint256"
                },
                {
                    "internalType": "string",
                    "name": "toUri",
                    "type": "string"
                },
                {
                    "internalType": "bytes32",
                    "name": "linkType",
                    "type": "bytes32"
                }
            ],
            "name": "postNote4AnyLink",
            "outputs": [
                {
                    "internalType": "uint256",
                    "name": "",
                    "type": "uint256"
                }
            ],
            "stateMutability": "nonpayable",
            "type": "function"
        },
        {
            "inputs": [
                {
                    "components": [
                        {
                            "internalType": "uint256",
                            "name": "profileId",
                            "type": "uint256"
                        },
                        {
                            "internalType": "string",
                            "name": "contentUri",
                            "type": "string"
                        },
                        {
                            "internalType": "address",
                            "name": "linkModule",
                            "type": "address"
                        },
                        {
                            "internalType": "bytes",
                            "name": "linkModuleInitData",
                            "type": "bytes"
                        },
                        {
                            "internalType": "address",
                            "name": "mintModule",
                            "type": "address"
                        },
                        {
                            "internalType": "bytes",
                            "name": "mintModuleInitData",
                            "type": "bytes"
                        }
                    ],
                    "internalType": "struct DataTypes.PostNoteData",
                    "name": "noteData",
                    "type": "tuple"
                },
                {
                    "internalType": "uint256",
                    "name": "fromProfileId",
                    "type": "uint256"
                },
                {
                    "internalType": "address",
                    "name": "tokenAddress",
                    "type": "address"
                },
                {
                    "internalType": "uint256",
                    "name": "tokenId",
                    "type": "uint256"
                },
                {
                    "internalType": "bytes32",
                    "name": "linkType",
                    "type": "bytes32"
                }
            ],
            "name": "postNote4ERC721Link",
            "outputs": [
                {
                    "internalType": "uint256",
                    "name": "",
                    "type": "uint256"
                }
            ],
            "stateMutability": "nonpayable",
            "type": "function"
        },
        {
            "inputs": [
                {
                    "components": [
                        {
                            "internalType": "uint256",
                            "name": "profileId",
                            "type": "uint256"
                        },
                        {
                            "internalType": "string",
                            "name": "contentUri",
                            "type": "string"
                        },
                        {
                            "internalType": "address",
                            "name": "linkModule",
                            "type": "address"
                        },
                        {
                            "internalType": "bytes",
                            "name": "linkModuleInitData",
                            "type": "bytes"
                        },
                        {
                            "internalType": "address",
                            "name": "mintModule",
                            "type": "address"
                        },
                        {
                            "internalType": "bytes",
                            "name": "mintModuleInitData",
                            "type": "bytes"
                        }
                    ],
                    "internalType": "struct DataTypes.PostNoteData",
                    "name": "noteData",
                    "type": "tuple"
                },
                {
                    "internalType": "uint256",
                    "name": "fromProfileId",
                    "type": "uint256"
                },
                {
                    "internalType": "uint256",
                    "name": "toLinkListId",
                    "type": "uint256"
                },
                {
                    "internalType": "bytes32",
                    "name": "linkType",
                    "type": "bytes32"
                }
            ],
            "name": "postNote4LinklistLink",
            "outputs": [
                {
                    "internalType": "uint256",
                    "name": "",
                    "type": "uint256"
                }
            ],
            "stateMutability": "nonpayable",
            "type": "function"
        },
        {
            "inputs": [
                {
                    "components": [
                        {
                            "internalType": "uint256",
                            "name": "profileId",
                            "type": "uint256"
                        },
                        {
                            "internalType": "string",
                            "name": "contentUri",
                            "type": "string"
                        },
                        {
                            "internalType": "address",
                            "name": "linkModule",
                            "type": "address"
                        },
                        {
                            "internalType": "bytes",
                            "name": "linkModuleInitData",
                            "type": "bytes"
                        },
                        {
                            "internalType": "address",
                            "name": "mintModule",
                            "type": "address"
                        },
                        {
                            "internalType": "bytes",
                            "name": "mintModuleInitData",
                            "type": "bytes"
                        }
                    ],
                    "internalType": "struct DataTypes.PostNoteData",
                    "name": "noteData",
                    "type": "tuple"
                },
                {
                    "internalType": "uint256",
                    "name": "fromProfileId",
                    "type": "uint256"
                },
                {
                    "internalType": "uint256",
                    "name": "toProfileId",
                    "type": "uint256"
                },
                {
                    "internalType": "uint256",
                    "name": "toNoteId",
                    "type": "uint256"
                },
                {
                    "internalType": "bytes32",
                    "name": "linkType",
                    "type": "bytes32"
                }
            ],
            "name": "postNote4NoteLink",
            "outputs": [
                {
                    "internalType": "uint256",
                    "name": "",
                    "type": "uint256"
                }
            ],
            "stateMutability": "nonpayable",
            "type": "function"
        },
        {
            "inputs": [
                {
                    "components": [
                        {
                            "internalType": "uint256",
                            "name": "profileId",
                            "type": "uint256"
                        },
                        {
                            "internalType": "string",
                            "name": "contentUri",
                            "type": "string"
                        },
                        {
                            "internalType": "address",
                            "name": "linkModule",
                            "type": "address"
                        },
                        {
                            "internalType": "bytes",
                            "name": "linkModuleInitData",
                            "type": "bytes"
                        },
                        {
                            "internalType": "address",
                            "name": "mintModule",
                            "type": "address"
                        },
                        {
                            "internalType": "bytes",
                            "name": "mintModuleInitData",
                            "type": "bytes"
                        }
                    ],
                    "internalType": "struct DataTypes.PostNoteData",
                    "name": "noteData",
                    "type": "tuple"
                },
                {
                    "internalType": "uint256",
                    "name": "fromProfileId",
                    "type": "uint256"
                },
                {
                    "internalType": "uint256",
                    "name": "toProfileId",
                    "type": "uint256"
                },
                {
                    "internalType": "bytes32",
                    "name": "linkType",
                    "type": "bytes32"
                }
            ],
            "name": "postNote4ProfileLink",
            "outputs": [
                {
                    "internalType": "uint256",
                    "name": "",
                    "type": "uint256"
                }
            ],
            "stateMutability": "nonpayable",
            "type": "function"
        },
        {
            "inputs": [
                {
                    "internalType": "address",
                    "name": "from",
                    "type": "address"
                },
                {
                    "internalType": "address",
                    "name": "to",
                    "type": "address"
                },
                {
                    "internalType": "uint256",
                    "name": "tokenId",
                    "type": "uint256"
                }
            ],
            "name": "safeTransferFrom",
            "outputs": [],
            "stateMutability": "nonpayable",
            "type": "function"
        },
        {
            "inputs": [
                {
                    "internalType": "address",
                    "name": "from",
                    "type": "address"
                },
                {
                    "internalType": "address",
                    "name": "to",
                    "type": "address"
                },
                {
                    "internalType": "uint256",
                    "name": "tokenId",
                    "type": "uint256"
                },
                {
                    "internalType": "bytes",
                    "name": "_data",
                    "type": "bytes"
                }
            ],
            "name": "safeTransferFrom",
            "outputs": [],
            "stateMutability": "nonpayable",
            "type": "function"
        },
        {
            "inputs": [
                {
                    "internalType": "address",
                    "name": "operator",
                    "type": "address"
                },
                {
                    "internalType": "bool",
                    "name": "approved",
                    "type": "bool"
                }
            ],
            "name": "setApprovalForAll",
            "outputs": [],
            "stateMutability": "nonpayable",
            "type": "function"
        },
        {
            "inputs": [
                {
                    "internalType": "uint256",
                    "name": "profileId",
                    "type": "uint256"
                },
                {
                    "internalType": "string",
                    "name": "newHandle",
                    "type": "string"
                }
            ],
            "name": "setHandle",
            "outputs": [],
            "stateMutability": "nonpayable",
            "type": "function"
        },
        {
            "inputs": [
                {
                    "components": [
                        {
                            "internalType": "address",
                            "name": "account",
                            "type": "address"
                        },
                        {
                            "internalType": "address",
                            "name": "linkModule",
                            "type": "address"
                        },
                        {
                            "internalType": "bytes",
                            "name": "linkModuleInitData",
                            "type": "bytes"
                        }
                    ],
                    "internalType": "struct DataTypes.setLinkModule4AddressData",
                    "name": "vars",
                    "type": "tuple"
                }
            ],
            "name": "setLinkModule4Address",
            "outputs": [],
            "stateMutability": "nonpayable",
            "type": "function"
        },
        {
            "inputs": [
                {
                    "components": [
                        {
                            "internalType": "address",
                            "name": "tokenAddress",
                            "type": "address"
                        },
                        {
                            "internalType": "uint256",
                            "name": "tokenId",
                            "type": "uint256"
                        },
                        {
                            "internalType": "address",
                            "name": "linkModule",
                            "type": "address"
                        },
                        {
                            "internalType": "bytes",
                            "name": "linkModuleInitData",
                            "type": "bytes"
                        }
                    ],
                    "internalType": "struct DataTypes.setLinkModule4ERC721Data",
                    "name": "vars",
                    "type": "tuple"
                }
            ],
            "name": "setLinkModule4ERC721",
            "outputs": [],
            "stateMutability": "nonpayable",
            "type": "function"
        },
        {
            "inputs": [
                {
                    "components": [
                        {
                            "internalType": "uint256",
                            "name": "linklistId",
                            "type": "uint256"
                        },
                        {
                            "internalType": "address",
                            "name": "linkModule",
                            "type": "address"
                        },
                        {
                            "internalType": "bytes",
                            "name": "linkModuleInitData",
                            "type": "bytes"
                        }
                    ],
                    "internalType": "struct DataTypes.setLinkModule4LinklistData",
                    "name": "vars",
                    "type": "tuple"
                }
            ],
            "name": "setLinkModule4Linklist",
            "outputs": [],
            "stateMutability": "nonpayable",
            "type": "function"
        },
        {
            "inputs": [
                {
                    "components": [
                        {
                            "internalType": "uint256",
                            "name": "profileId",
                            "type": "uint256"
                        },
                        {
                            "internalType": "uint256",
                            "name": "noteId",
                            "type": "uint256"
                        },
                        {
                            "internalType": "address",
                            "name": "linkModule",
                            "type": "address"
                        },
                        {
                            "internalType": "bytes",
                            "name": "linkModuleInitData",
                            "type": "bytes"
                        }
                    ],
                    "internalType": "struct DataTypes.setLinkModule4NoteData",
                    "name": "vars",
                    "type": "tuple"
                }
            ],
            "name": "setLinkModule4Note",
            "outputs": [],
            "stateMutability": "nonpayable",
            "type": "function"
        },
        {
            "inputs": [
                {
                    "components": [
                        {
                            "internalType": "uint256",
                            "name": "profileId",
                            "type": "uint256"
                        },
                        {
                            "internalType": "address",
                            "name": "linkModule",
                            "type": "address"
                        },
                        {
                            "internalType": "bytes",
                            "name": "linkModuleInitData",
                            "type": "bytes"
                        }
                    ],
                    "internalType": "struct DataTypes.setLinkModule4ProfileData",
                    "name": "vars",
                    "type": "tuple"
                }
            ],
            "name": "setLinkModule4Profile",
            "outputs": [],
            "stateMutability": "nonpayable",
            "type": "function"
        },
        {
            "inputs": [
                {
                    "internalType": "uint256",
                    "name": "linklistId",
                    "type": "uint256"
                },
                {
                    "internalType": "string",
                    "name": "uri",
                    "type": "string"
                }
            ],
            "name": "setLinklistUri",
            "outputs": [],
            "stateMutability": "nonpayable",
            "type": "function"
        },
        {
            "inputs": [
                {
                    "components": [
                        {
                            "internalType": "uint256",
                            "name": "profileId",
                            "type": "uint256"
                        },
                        {
                            "internalType": "uint256",
                            "name": "noteId",
                            "type": "uint256"
                        },
                        {
                            "internalType": "address",
                            "name": "mintModule",
                            "type": "address"
                        },
                        {
                            "internalType": "bytes",
                            "name": "mintModuleInitData",
                            "type": "bytes"
                        }
                    ],
                    "internalType": "struct DataTypes.setMintModule4NoteData",
                    "name": "vars",
                    "type": "tuple"
                }
            ],
            "name": "setMintModule4Note",
            "outputs": [],
            "stateMutability": "nonpayable",
            "type": "function"
        },
        {
            "inputs": [
                {
                    "internalType": "uint256",
                    "name": "profileId",
                    "type": "uint256"
                }
            ],
            "name": "setPrimaryProfileId",
            "outputs": [],
            "stateMutability": "nonpayable",
            "type": "function"
        },
        {
            "inputs": [
                {
                    "internalType": "uint256",
                    "name": "profileId",
                    "type": "uint256"
                },
                {
                    "internalType": "string",
                    "name": "newUri",
                    "type": "string"
                }
            ],
            "name": "setProfileUri",
            "outputs": [],
            "stateMutability": "nonpayable",
            "type": "function"
        },
        {
            "inputs": [
                {
                    "internalType": "uint256",
                    "name": "profileId",
                    "type": "uint256"
                },
                {
                    "internalType": "address",
                    "name": "tokenAddress",
                    "type": "address"
                }
            ],
            "name": "setSocialToken",
            "outputs": [],
            "stateMutability": "nonpayable",
            "type": "function"
        },
        {
            "inputs": [
                {
                    "internalType": "bytes4",
                    "name": "interfaceId",
                    "type": "bytes4"
                }
            ],
            "name": "supportsInterface",
            "outputs": [
                {
                    "internalType": "bool",
                    "name": "",
                    "type": "bool"
                }
            ],
            "stateMutability": "view",
            "type": "function"
        },
        {
            "inputs": [],
            "name": "symbol",
            "outputs": [
                {
                    "internalType": "string",
                    "name": "",
                    "type": "string"
                }
            ],
            "stateMutability": "view",
            "type": "function"
        },
        {
            "inputs": [
                {
                    "internalType": "uint256",
                    "name": "index",
                    "type": "uint256"
                }
            ],
            "name": "tokenByIndex",
            "outputs": [
                {
                    "internalType": "uint256",
                    "name": "",
                    "type": "uint256"
                }
            ],
            "stateMutability": "view",
            "type": "function"
        },
        {
            "inputs": [
                {
                    "internalType": "address",
                    "name": "owner",
                    "type": "address"
                },
                {
                    "internalType": "uint256",
                    "name": "index",
                    "type": "uint256"
                }
            ],
            "name": "tokenOfOwnerByIndex",
            "outputs": [
                {
                    "internalType": "uint256",
                    "name": "",
                    "type": "uint256"
                }
            ],
            "stateMutability": "view",
            "type": "function"
        },
        {
            "inputs": [
                {
                    "internalType": "uint256",
                    "name": "profileId",
                    "type": "uint256"
                }
            ],
            "name": "tokenURI",
            "outputs": [
                {
                    "internalType": "string",
                    "name": "",
                    "type": "string"
                }
            ],
            "stateMutability": "view",
            "type": "function"
        },
        {
            "inputs": [],
            "name": "totalSupply",
            "outputs": [
                {
                    "internalType": "uint256",
                    "name": "",
                    "type": "uint256"
                }
            ],
            "stateMutability": "view",
            "type": "function"
        },
        {
            "inputs": [
                {
                    "internalType": "address",
                    "name": "from",
                    "type": "address"
                },
                {
                    "internalType": "address",
                    "name": "to",
                    "type": "address"
                },
                {
                    "internalType": "uint256",
                    "name": "tokenId",
                    "type": "uint256"
                }
            ],
            "name": "transferFrom",
            "outputs": [],
            "stateMutability": "nonpayable",
            "type": "function"
        },
        {
            "inputs": [
                {
                    "components": [
                        {
                            "internalType": "uint256",
                            "name": "fromProfileId",
                            "type": "uint256"
                        },
                        {
                            "internalType": "address",
                            "name": "ethAddress",
                            "type": "address"
                        },
                        {
                            "internalType": "bytes32",
                            "name": "linkType",
                            "type": "bytes32"
                        },
                        {
                            "internalType": "bytes",
                            "name": "data",
                            "type": "bytes"
                        }
                    ],
                    "internalType": "struct DataTypes.linkAddressData",
                    "name": "vars",
                    "type": "tuple"
                }
            ],
            "name": "unlinkAddress",
            "outputs": [],
            "stateMutability": "nonpayable",
            "type": "function"
        },
        {
            "inputs": [
                {
                    "components": [
                        {
                            "internalType": "uint256",
                            "name": "fromProfileId",
                            "type": "uint256"
                        },
                        {
                            "internalType": "string",
                            "name": "toUri",
                            "type": "string"
                        },
                        {
                            "internalType": "bytes32",
                            "name": "linkType",
                            "type": "bytes32"
                        }
                    ],
                    "internalType": "struct DataTypes.unlinkAnyData",
                    "name": "vars",
                    "type": "tuple"
                }
            ],
            "name": "unlinkAny",
            "outputs": [],
            "stateMutability": "nonpayable",
            "type": "function"
        },
        {
            "inputs": [
                {
                    "components": [
                        {
                            "internalType": "uint256",
                            "name": "fromProfileId",
                            "type": "uint256"
                        },
                        {
                            "internalType": "address",
                            "name": "tokenAddress",
                            "type": "address"
                        },
                        {
                            "internalType": "uint256",
                            "name": "tokenId",
                            "type": "uint256"
                        },
                        {
                            "internalType": "bytes32",
                            "name": "linkType",
                            "type": "bytes32"
                        }
                    ],
                    "internalType": "struct DataTypes.unlinkERC721Data",
                    "name": "vars",
                    "type": "tuple"
                }
            ],
            "name": "unlinkERC721",
            "outputs": [],
            "stateMutability": "nonpayable",
            "type": "function"
        },
        {
            "inputs": [
                {
                    "components": [
                        {
                            "internalType": "uint256",
                            "name": "fromProfileId",
                            "type": "uint256"
                        },
                        {
                            "internalType": "uint256",
                            "name": "toLinkListId",
                            "type": "uint256"
                        },
                        {
                            "internalType": "bytes32",
                            "name": "linkType",
                            "type": "bytes32"
                        },
                        {
                            "internalType": "bytes",
                            "name": "data",
                            "type": "bytes"
                        }
                    ],
                    "internalType": "struct DataTypes.linkLinklistData",
                    "name": "vars",
                    "type": "tuple"
                }
            ],
            "name": "unlinkLinklist",
            "outputs": [],
            "stateMutability": "nonpayable",
            "type": "function"
        },
        {
            "inputs": [
                {
                    "components": [
                        {
                            "internalType": "uint256",
                            "name": "fromProfileId",
                            "type": "uint256"
                        },
                        {
                            "internalType": "uint256",
                            "name": "toProfileId",
                            "type": "uint256"
                        },
                        {
                            "internalType": "uint256",
                            "name": "toNoteId",
                            "type": "uint256"
                        },
                        {
                            "internalType": "bytes32",
                            "name": "linkType",
                            "type": "bytes32"
                        }
                    ],
                    "internalType": "struct DataTypes.unlinkNoteData",
                    "name": "vars",
                    "type": "tuple"
                }
            ],
            "name": "unlinkNote",
            "outputs": [],
            "stateMutability": "nonpayable",
            "type": "function"
        },
        {
            "inputs": [
                {
                    "components": [
                        {
                            "internalType": "uint256",
                            "name": "fromProfileId",
                            "type": "uint256"
                        },
                        {
                            "internalType": "uint256",
                            "name": "toProfileId",
                            "type": "uint256"
                        },
                        {
                            "internalType": "bytes32",
                            "name": "linkType",
                            "type": "bytes32"
                        }
                    ],
                    "internalType": "struct DataTypes.unlinkProfileData",
                    "name": "vars",
                    "type": "tuple"
                }
            ],
            "name": "unlinkProfile",
            "outputs": [],
            "stateMutability": "nonpayable",
            "type": "function"
        },
        {
            "inputs": [
                {
                    "internalType": "uint256",
                    "name": "fromProfileId",
                    "type": "uint256"
                },
                {
                    "components": [
                        {
                            "internalType": "uint256",
                            "name": "fromProfileId",
                            "type": "uint256"
                        },
                        {
                            "internalType": "uint256",
                            "name": "toProfileId",
                            "type": "uint256"
                        },
                        {
                            "internalType": "bytes32",
                            "name": "linkType",
                            "type": "bytes32"
                        }
                    ],
                    "internalType": "struct DataTypes.ProfileLinkStruct",
                    "name": "linkData",
                    "type": "tuple"
                },
                {
                    "internalType": "bytes32",
                    "name": "linkType",
                    "type": "bytes32"
                }
            ],
            "name": "unlinkProfileLink",
            "outputs": [],
            "stateMutability": "nonpayable",
            "type": "function"
        }
    ],
    "bytecode": "0x608060405234801561001057600080fd5b50615c2580620000216000396000f3fe608060405234801561001057600080fd5b50600436106104125760003560e01c806369492c9711610220578063b9ad7c7f11610130578063cba4f5cc116100b8578063db8c198d11610087578063db8c198d1461097e578063e985e9c514610991578063ec81d194146109cd578063f08f4f64146109e0578063fe9299fb146109f357600080fd5b8063cba4f5cc14610925578063d23b320b14610938578063d36a2dce1461094b578063db491e801461095e57600080fd5b8063c2a6fe3b116100ff578063c2a6fe3b146108c6578063c387c453146108d9578063c7009c6b146108ec578063c87b56dd146108ff578063cb8e757e1461091257600080fd5b8063b9ad7c7f1461087c578063b9d328451461088f578063bd5f69cb146108a2578063c053f6b8146108b557600080fd5b806395d89b41116101b3578063a22cb46511610182578063a22cb4651461081d578063a6e6178d14610830578063a7ccb4bf14610843578063a914c76e14610856578063b88d4fde1461086957600080fd5b806395d89b41146107dc57806395d9fa7d146107e457806395e76010146107f75780639864c3071461080a57600080fd5b8063867884e6116101ef578063867884e61461079057806386833c88146107a35780638e4bf54e146107b65780638f15b414146107c957600080fd5b806369492c971461074457806370a08231146107575780637936da0e1461076a5780637c392b511461077d57600080fd5b8063295cb43e116103265780634bebcd17116102ae578063515d42d21161027d578063515d42d2146106d8578063570477fb146106eb5780635b507cfd146106fe5780636352211e1461071157806363c008751461072457600080fd5b80634bebcd171461068c5780634cab71ec1461069f5780634f23983a146106b25780634f6ccce7146106c557600080fd5b8063388f5083116102f5578063388f50831461062d57806340ad34d81461064057806342842e0e1461065357806342966c6814610666578063437867831461067957600080fd5b8063295cb43e146105c85780632f745c59146105db57806331b9d08c146105ee57806333f06ee61461061a57600080fd5b80630c4dd5f2116103a957806321f4f26f1161037857806321f4f26f146105465780632209d1451461055957806323b872dd1461058f578063251a99cf146105a257806326540240146105b557600080fd5b80630c4dd5f2146104fb5780631316529d1461050e57806318160ddd146105155780631bb4d2311461051d57600080fd5b8063095ea7b3116103e5578063095ea7b3146104945780630a871e60146104a75780630ab6beba146104c85780630c16de10146104db57600080fd5b806301ffc9a71461041757806306fdde031461043f578063081812fc1461045457806308cb68ff1461047f575b600080fd5b61042a610425366004614927565b610a1c565b60405190151581526020015b60405180910390f35b610447610a47565b604051610436919061499c565b6104676104623660046149af565b610ad9565b6040516001600160a01b039091168152602001610436565b61049261048d3660046149e0565b610b73565b005b6104926104a2366004614a29565b610c0c565b6104ba6104b5366004614a67565b610d22565b604051908152602001610436565b6104926104d6366004614ad1565b610e4f565b6104ee6104e9366004614b35565b610e8c565b6040516104369190614b76565b6104926105093660046149e0565b61103b565b60036104ba565b6008546104ba565b6104ba61052b366004614bf2565b6001600160a01b03166000908152600c602052604090205490565b6104ba610554366004614c0f565b6110a0565b610467610567366004614a29565b6001600160a01b03918216600090815260106020908152604080832093835292905220541690565b61049261059d366004614c62565b61117e565b6104926105b0366004614ad1565b6111af565b6104ba6105c3366004614ca3565b61129f565b6104926105d63660046149af565b6112fd565b6104ba6105e9366004614a29565b611343565b6104676105fc366004614bf2565b6001600160a01b039081166000908152601160205260409020541690565b610492610628366004614d03565b6113d9565b61049261063b366004614d60565b61144d565b61049261064e366004614d94565b611556565b610492610661366004614c62565b611663565b6104926106743660046149af565b61167e565b6104ba610687366004614c0f565b6116c2565b6104ba61069a366004614db0565b611714565b6104476106ad366004614e0c565b61175e565b6104926106c0366004614d60565b6117eb565b6104ba6106d33660046149af565b6118cd565b6104926106e6366004614e0c565b611960565b6104926106f9366004614e2e565b611a98565b61049261070c3660046149e0565b611b93565b61046761071f3660046149af565b611c0c565b610737610732366004614e0c565b611c83565b6040516104369190614e64565b610492610752366004614d60565b611e51565b6104ba610765366004614bf2565b611ed7565b610492610778366004614e0c565b611f5e565b61049261078b366004614d03565b61201a565b61049261079e366004614d94565b61207f565b6104926107b1366004614d60565b6121a1565b6104926107c43660046149e0565b61227e565b6104926107d7366004614ea8565b612368565b6104476124af565b6104926107f2366004614f3c565b6124be565b6104ba610805366004614f6c565b612544565b610492610818366004614d60565b61258a565b61049261082b366004614fe3565b61264f565b61049261083e366004614d03565b61265e565b6104ba610851366004614d60565b6126d4565b610492610864366004614d60565b61278d565b610492610877366004615083565b6127fa565b61049261088a366004614d60565b612832565b61049261089d366004615143565b61293c565b6104926108b0366004615143565b612ad3565b6013546001600160a01b0316610467565b6104926108d4366004614e0c565b612bd3565b61042a6108e73660046149af565b612c15565b6104926108fa366004614e2e565b612c43565b61044761090d3660046149af565b612d1e565b610492610920366004615143565b612dc3565b6104476109333660046149af565b612eeb565b610492610946366004614d60565b612ef6565b6104ba610959366004615177565b612f70565b61097161096c366004614e0c565b61301e565b60405161043691906151ab565b61049261098c366004614d60565b613186565b61042a61099f36600461523d565b6001600160a01b03918216600090815260056020908152604080832093909416825291909152205460ff1690565b6104476109db3660046149af565b6131d0565b6104ee6109ee3660046149af565b6131f0565b610467610a013660046149af565b6000908152600f60205260409020546001600160a01b031690565b60006001600160e01b0319821663780e9d6360e01b1480610a415750610a4182613377565b92915050565b606060008054610a569061526b565b80601f0160208091040260200160405190810160405280929190818152602001828054610a829061526b565b8015610acf5780601f10610aa457610100808354040283529160200191610acf565b820191906000526020600020905b815481529060010190602001808311610ab257829003601f168201915b5050505050905090565b6000818152600260205260408120546001600160a01b0316610b575760405162461bcd60e51b815260206004820152602c60248201527f4552433732313a20617070726f76656420717565727920666f72206e6f6e657860448201526b34b9ba32b73a103a37b5b2b760a11b60648201526084015b60405180910390fd5b506000908152600460205260409020546001600160a01b031690565b73__$69db18565ecbefece480e92cc5f8fb1274$__63dfc34f25610b9a6020840184614bf2565b610baa6040850160208601614bf2565b610bb760408601866152a0565b60116040518663ffffffff1660e01b8152600401610bd995949392919061530f565b60006040518083038186803b158015610bf157600080fd5b505af4158015610c05573d6000803e3d6000fd5b5050505050565b6000610c1782611c0c565b9050806001600160a01b0316836001600160a01b03161415610c855760405162461bcd60e51b815260206004820152602160248201527f4552433732313a20617070726f76616c20746f2063757272656e74206f776e656044820152603960f91b6064820152608401610b4e565b336001600160a01b0382161480610ca15750610ca1813361099f565b610d135760405162461bcd60e51b815260206004820152603860248201527f4552433732313a20617070726f76652063616c6c6572206973206e6f74206f7760448201527f6e6572206e6f7220617070726f76656420666f7220616c6c00000000000000006064820152608401610b4e565b610d1d83836133c7565b505050565b6000610d2e8635613435565b610d388484613490565b6000858152600d6020908152604080832085845282528083205490516bffffffffffffffffffffffff19606089901b16928101929092526034820186905291694552433732314c696e6b60b01b916054015b6040516020818303038152906040528051906020012090506000600a60008a815260200190815260200160002060030160008154610dc790615364565b91829055506040516317e60d8d60e31b815290915073__$2873850e5b3f5697aafc2f5cd9f27cc884$__9063bf306c6890610e11908d908590899089908990600e90600401615472565b60006040518083038186803b158015610e2957600080fd5b505af4158015610e3d573d6000803e3d6000fd5b50929c9b505050505050505050505050565b610e898135610e646040840160208501614bf2565b836040013560405180604001604052806002815260200161060f60f31b815250613540565b50565b610e94614830565b60008383604051610ea69291906154ae565b604080519182900382206000818152600b602090815283822054808352600a82529184902060c0860190945283548552600184018054939650919493929084019190610ef19061526b565b80601f0160208091040260200160405190810160405280929190818152602001828054610f1d9061526b565b8015610f6a5780601f10610f3f57610100808354040283529160200191610f6a565b820191906000526020600020905b815481529060010190602001808311610f4d57829003601f168201915b50505050508152602001600282018054610f839061526b565b80601f0160208091040260200160405190810160405280929190818152602001828054610faf9061526b565b8015610ffc5780601f10610fd157610100808354040283529160200191610ffc565b820191906000526020600020905b815481529060010190602001808311610fdf57829003601f168201915b50505091835250506003820154602082015260048201546001600160a01b03908116604083015260059092015490911660609091015295945050505050565b61104581356136e8565b73__$69db18565ecbefece480e92cc5f8fb1274$__636252159e82356110716040850160208601614bf2565b61107e60408601866152a0565b600f6040518663ffffffff1660e01b8152600401610bd99594939291906154be565b60006110ac8535613435565b6000848152600d60209081526040808320858452825280832054878452600a9092528220600301805491926a50726f66696c654c696e6b60a81b9287929082906110f590615364565b91829055506040516317e60d8d60e31b815290915073__$2873850e5b3f5697aafc2f5cd9f27cc884$__9063bf306c689061113f908c908590899089908990600e90600401615472565b60006040518083038186803b15801561115757600080fd5b505af415801561116b573d6000803e3d6000fd5b509296505050505050505b949350505050565b61118833826137a8565b6111a45760405162461bcd60e51b8152600401610b4e906154e9565b610d1d83838361389b565b6111b98135613435565b6111c68160200135613a42565b80356000818152600d60209081526040808320818601358452909152902054906111f1908290613a99565b6013546040516391e5454b60e01b815260048101839052602084013560248201526001600160a01b03909116906391e5454b90604401600060405180830381600087803b15801561124157600080fd5b505af1158015611255573d6000803e3d6000fd5b50506040805190850135815260208086013593508535925033917f08a14b775e42bf92e94f9d72aba57ad213485e0c20e373c9f5dd161fb81890a291015b60405180910390a45050565b60006112ab8535613435565b6000848152600d60209081526040808320858452825280832054878452600a9092528220600301805491926a416464726573734c696e6b60a81b926001600160a01b038816929082906110f590615364565b61130681613435565b336000818152600c6020526040808220849055518392917f444dbf26d795c263ce4e5f2fccaac8e71b73cb37091f74e9e4f76cd98b55f8d391a350565b600061134e83611ed7565b82106113b05760405162461bcd60e51b815260206004820152602b60248201527f455243373231456e756d657261626c653a206f776e657220696e646578206f7560448201526a74206f6620626f756e647360a81b6064820152608401610b4e565b506001600160a01b03919091166000908152600660209081526040808320938352929052205490565b6113e2836136e8565b601354604051633c17845760e11b81526001600160a01b039091169063782f08ae906114169086908690869060040161553a565b600060405180830381600087803b15801561143057600080fd5b505af1158015611444573d6000803e3d6000fd5b50505050505050565b6114578135613435565b60006114698235604084013533613b49565b6013549091506001600160a01b031663ed386e658261148e6040860160208701614bf2565b6040516001600160e01b031960e085901b16815260048101929092526001600160a01b03166024820152604401600060405180830381600087803b1580156114d557600080fd5b505af11580156114e9573d6000803e3d6000fd5b506114fe925050506040830160208401614bf2565b6001600160a01b031682600001357f3dad60a88f1d8ee170dfbeb8c65c705bd47922f205e774e10e49e4e53d93a8bd84604001358460405161154a929190918252602082015260400190565b60405180910390a35050565b6115608135613435565b61156d8160200135613a42565b61157f81602001358260400135613c6a565b80356000818152600d6020908152604080832060608601358452909152902054906115ab908290613a99565b601354604080516281eec360e31b815260048101849052602085013560248201529084013560448201526001600160a01b039091169063040f761890606401600060405180830381600087803b15801561160457600080fd5b505af1158015611618573d6000803e3d6000fd5b50506040805160608601358152602081810186905282870135945086013592508535917fd27a71fc88ac85c4657b81c4d24a9cd9a034971683620f179a19d179fe0a956d9101611293565b610d1d838383604051806020016040528060008152506127fa565b61168781613cbb565b6000818152600a602052604080822090516116a5916001019061555d565b60408051918290039091206000908152600b602052908120555050565b60006116ce8535613435565b6000848152600d60209081526040808320858452825280832054878452600a909252822060030180549192674c6973744c696e6b60c01b9287929082906110f590615364565b60006117208635613435565b6000858152600d60209081526040808320858452825280832054815192830188905290820186905291674e6f74654c696e6b60c01b91606001610d8a565b6000828152600d6020908152604080832084845290915290819020546013549151632b05429560e21b8152600481018290526060926001600160a01b03169063ac150a5490602401600060405180830381865afa1580156117c3573d6000803e3d6000fd5b505050506040513d6000823e601f3d908101601f1916820160405261117691908101906155f9565b6117f58135613435565b60006118078235604084013533613b49565b6013549091506001600160a01b031663cc18ac388261182960208601866152a0565b6040518463ffffffff1660e01b81526004016118479392919061553a565b600060405180830381600087803b15801561186157600080fd5b505af1158015611875573d6000803e3d6000fd5b5050833591507f77c508b3ce1f699c73e46a33df0ab0010d3d5f3e1270839381b85e618aef0fce90506118ab60208501856152a0565b8560400135856040516118c19493929190615666565b60405180910390a25050565b60006118d860085490565b821061193b5760405162461bcd60e51b815260206004820152602c60248201527f455243373231456e756d657261626c653a20676c6f62616c20696e646578206f60448201526b7574206f6620626f756e647360a01b6064820152608401610b4e565b6008828154811061194e5761194e61568d565b90600052602060002001549050919050565b60135460405162fba02760e01b8152600481018490526000916001600160a01b03169062fba02790602401602060405180830381865afa1580156119a8573d6000803e3d6000fd5b505050506040513d601f19601f820116820180604052508101906119cc91906156a3565b6000838152600d6020908152604080832084845290915290205490915015611a425760405162461bcd60e51b815260206004820152602360248201527f53616d652074797065206c696e6b6c69737420616c726561647920657869737460448201526232b21760e91b6064820152608401610b4e565b611a4c8383613d1a565b6000828152600d60209081526040808320848452909152808220859055518291849186917f94703ec1dd639b589d05fa7c0c14ee1e83b906bfb5f50642cc7ea415a817228891a4505050565b611aa183613435565b6000838152600d60209081526040808320848452909152902054611ac58185613a99565b60135460408051630e14bb7560e31b81526004810184905285356024820152602086013560448201529085013560648201526001600160a01b03909116906370a5dba890608401600060405180830381600087803b158015611b2657600080fd5b505af1158015611b3a573d6000803e3d6000fd5b505060408051863581526020808801359082015281870135918101919091528492508691507f90fe9f3bf41416d9a567460a40443ef7aea47220fa342bc0e07fd01c93ffc7e1906060015b60405180910390a350505050565b611b9d8135613435565b73__$da066dc100670b51e733250a114f607b42$__631e2b88ba8235611bc96040850160208601614bf2565b611bd660408601866152a0565b86356000908152600a60205260409081902090516001600160e01b031960e088901b168152610bd99594939291906004016154be565b6000818152600260205260408120546001600160a01b031680610a415760405162461bcd60e51b815260206004820152602960248201527f4552433732313a206f776e657220717565727920666f72206e6f6e657869737460448201526832b73a103a37b5b2b760b91b6064820152608401610b4e565b6000828152600d6020908152604080832084845290915280822054601354915163a72d231760e01b81526004810182905260609391926001600160a01b03169063a72d231790602401600060405180830381865afa158015611ce9573d6000803e3d6000fd5b505050506040513d6000823e601f3d908101601f19168201604052611d1191908101906156bc565b80519091506000805b82811015611d8157611d5c848281518110611d3757611d3761568d565b60200260200101516000908152600260205260409020546001600160a01b0316151590565b15611d6f5781611d6b81615364565b9250505b80611d7981615364565b915050611d1a565b50806001600160401b03811115611d9a57611d9a615016565b604051908082528060200260200182016040528015611dc3578160200160208202803683370190505b5094506000905060005b82811015611e4657611dea848281518110611d3757611d3761568d565b15611e3457838181518110611e0157611e0161568d565b6020026020010151868381518110611e1b57611e1b61568d565b602090810291909101015281611e3081615364565b9250505b80611e3e81615364565b915050611dcd565b505050505092915050565b611e6b611e616020830183614bf2565b8260200135613d8a565b73__$69db18565ecbefece480e92cc5f8fb1274$__63384afeb3611e926020840184614bf2565b6020840135611ea76060860160408701614bf2565b611eb460608701876152a0565b60106040518763ffffffff1660e01b8152600401610bd996959493929190615761565b60006001600160a01b038216611f425760405162461bcd60e51b815260206004820152602a60248201527f4552433732313a2062616c616e636520717565727920666f7220746865207a65604482015269726f206164647265737360b01b6064820152608401610b4e565b506001600160a01b031660009081526003602052604090205490565b60135460405162fba02760e01b8152600481018490526000916001600160a01b03169062fba02790602401602060405180830381865afa158015611fa6573d6000803e3d6000fd5b505050506040513d601f19601f82011682018060405250810190611fca91906156a3565b6000838152600d60209081526040808320848452909152808220829055519192508291849186917f5751ba9aebec2dcd504f8865b0e0c98a772403773fe528fce2fce580c9a8a1659190a4505050565b61202383613435565b6000838152600a6020526040902061203f906002018383614878565b50827fc6b6b2c87fb0784186dd03398c7203c866d0ae59539fa3158aecbc86cb587a9583836040516120729291906157a8565b60405180910390a2505050565b6120898135613435565b80356000818152600d6020908152604080832060608601358452909152902054906120b5908290613a99565b6013546001600160a01b0316630370a161826120d76040860160208701614bf2565b604080516001600160e01b031960e086901b16815260048101939093526001600160a01b0390911660248301528501356044820152606401600060405180830381600087803b15801561212957600080fd5b505af115801561213d573d6000803e3d6000fd5b50505060408301803591506121559060208501614bf2565b6001600160a01b031683600001357fd87f9606a19988b6cf42d250d484940673ce551ab5f80289051cc343ff13121c856060013585604051611293929190918252602082015260400190565b6121ab8135613435565b80356000818152600d60209081526040808320818601358452909152902054906121d6908290613a99565b60135460405163c70881c560e01b815260048101839052602084013560248201526001600160a01b039091169063c70881c590604401600060405180830381600087803b15801561222657600080fd5b505af115801561223a573d6000803e3d6000fd5b5050505080826020013583600001357f42b4ce79acc0bdbfa79f30ba8758f3a465824adff1ea290b6d5aeeeef05eb14f856040013560405161129391815260200190565b6122888135613435565b80356000818152600d60209081526040808320818601358452909152902054906122b3908290613a99565b6013546001600160a01b0316638e013fb0826122d260208601866152a0565b6040518463ffffffff1660e01b81526004016122f09392919061553a565b600060405180830381600087803b15801561230a57600080fd5b505af115801561231e573d6000803e3d6000fd5b5050833591507f30c740190e772199ffeb095b72d8a53da7bbd09a55668530ee288e33b28ecebd905061235460208501856152a0565b85604001356040516118c1939291906157bc565b601454600160a81b900460ff1661238c57601454600160a01b900460ff1615612390565b303b155b6123f35760405162461bcd60e51b815260206004820152602e60248201527f496e697469616c697a61626c653a20636f6e747261637420697320616c72656160448201526d191e481a5b9a5d1a585b1a5e995960921b6064820152608401610b4e565b601454600160a81b900460ff1615801561241d576014805461ffff60a01b191661010160a01b1790555b61242987878787613e44565b601380546001600160a01b038086166001600160a01b03199283161790925560148054928516929091169190911790556040517f400175a56dd3710794078f7b9dbe8296ac94c5a248dfd51bb22ed4ab9eaa9fbf9061248b9042815260200190565b60405180910390a18015611444576014805460ff60a81b1916905550505050505050565b606060018054610a569061526b565b6124c782613435565b60405163470c9bf360e11b8152600481018390526001600160a01b0382166024820152600a604482015273__$da066dc100670b51e733250a114f607b42$__90638e1937e69060640160006040518083038186803b15801561252857600080fd5b505af415801561253c573d6000803e3d6000fd5b505050505050565b60006125508635613435565b6000858152600d602090815260408083208584528252808320549051909266416e794c696e6b60c81b929091610d8a9189918991016157e0565b6125948135613435565b60006125a68235604084013533613b49565b6013546040516360e6a7c160e11b815260048101839052602085013560248201529192506001600160a01b03169063c1cd4f8290604401600060405180830381600087803b1580156125f757600080fd5b505af115801561260b573d6000803e3d6000fd5b5050505080826020013583600001357f2e398bc911c0eb636118bc7906bdfa98b2ccf6ef7ee76e3f07068d0eee488e3f856040013560405161129391815260200190565b61265a338383613e95565b5050565b61266783613435565b60405163c57cb53760e01b815273__$da066dc100670b51e733250a114f607b42$__9063c57cb537906126a890869086908690600b90600a90600401615803565b60006040518083038186803b1580156126c057600080fd5b505af4158015611444573d6000803e3d6000fd5b600073__$2873850e5b3f5697aafc2f5cd9f27cc884$__6379b8a998833560208501356127076060870160408801614bf2565b61271460608801886152a0565b6014546040516001600160e01b031960e089901b16815261274c9695949392916001600160a01b031690600a90600e90600401615831565b602060405180830381865af4158015612769573d6000803e3d6000fd5b505050506040513d601f19601f82011682018060405250810190610a4191906156a3565b6127978135613435565b6127a48160200135613a42565b610e898135602083013560408401356127c060608601866152a0565b8080601f016020809104026020016040519081016040528093929190818152602001838380828437600092019190915250613f6492505050565b61280433836137a8565b6128205760405162461bcd60e51b8152600401610b4e906154e9565b61282c848484846140c2565b50505050565b61283c8135613435565b80356000818152600d6020908152604080832081860135845290915290205490612867908290613a99565b6013546001600160a01b0316635956da73826128896040860160208701614bf2565b6040516001600160e01b031960e085901b16815260048101929092526001600160a01b03166024820152604401600060405180830381600087803b1580156128d057600080fd5b505af11580156128e4573d6000803e3d6000fd5b506128f9925050506040830160208401614bf2565b6001600160a01b031682600001357f93453451dd1d041ffa18c6c1f3f2e21a6d73c3d8d32deaf595b53a14914c8715846040013560405161154a91815260200190565b6129468135613435565b6129538160200135613a42565b60006129658235606084013533613b49565b60135460408051635cb46be760e01b815260048101849052602086013560248201529085013560448201529192506001600160a01b031690635cb46be790606401600060405180830381600087803b1580156129c057600080fd5b505af11580156129d4573d6000803e3d6000fd5b505050506020808301356000908152600e8252604080822081860135835290925220600401546001600160a01b03168015612a83576001600160a01b03811663f0f555733360208601356040870135612a3060808901896152a0565b6040518663ffffffff1660e01b8152600401612a5095949392919061587f565b600060405180830381600087803b158015612a6a57600080fd5b505af1158015612a7e573d6000803e3d6000fd5b505050505b60408051606085013581526020818101859052828601359290860135918635917f3cae5b1196087b560b6735377bbf745e5754f8082348a432b806afa01686ef48910160405180910390a4505050565b601254612ae19060016140f5565b601255612afc612af46020830183614bf2565b601254614101565b6012546040516328837e1960e21b815273__$da066dc100670b51e733250a114f607b42$__9163a20df86491612b4091859160019190600b90600a906004016158b8565b60006040518083038186803b158015612b5857600080fd5b505af4158015612b6c573d6000803e3d6000fd5b50600c925060009150612b8490506020840184614bf2565b6001600160a01b03168152602081019190915260400160002054610e8957601254600c6000612bb66020850185614bf2565b6001600160a01b0316815260208101919091526040016000205550565b612bdc82613435565b612be68282613c6a565b6000918252600e602090815260408084209284529190529020600601805460ff60a01b1916600160a01b179055565b600080612c2183611c0c565b6001600160a01b03166000908152600c60205260409020549290921492915050565b612c4c83613435565b6000612c59848333613b49565b6013546040805163494c4d9960e01b81526004810184905286356024820152602087013560448201529086013560648201529192506001600160a01b03169063494c4d9990608401600060405180830381600087803b158015612cbb57600080fd5b505af1158015612ccf573d6000803e3d6000fd5b505060408051863581526020808801359082015281870135918101919091528492508691507ff0697acc3f194ceead566f2dffb676a7d4aaf14d0a2fad93923e778e4b40ae0d90606001611b85565b6000818152600a60205260409020600201805460609190612d3e9061526b565b80601f0160208091040260200160405190810160405280929190818152602001828054612d6a9061526b565b8015612db75780601f10612d8c57610100808354040283529160200191612db7565b820191906000526020600020905b815481529060010190602001808311612d9a57829003601f168201915b50505050509050919050565b612dcd8135613435565b612dea612de06040830160208401614bf2565b8260400135613490565b6000612dfc8235606084013533613b49565b6013549091506001600160a01b0316632ea24efc82612e216040860160208701614bf2565b604080516001600160e01b031960e086901b16815260048101939093526001600160a01b0390911660248301528501356044820152606401600060405180830381600087803b158015612e7357600080fd5b505af1158015612e87573d6000803e3d6000fd5b5050506040830180359150612e9f9060208501614bf2565b6001600160a01b031683600001357f72413a1a5c43b255ad065653bf49db3c79ff7853ddaa4f4962ccd05e5368ad77856060013585604051611293929190918252602082015260400190565b6060610a4182612d1e565b612f008135613435565b612f0f81356020830135613c6a565b73__$69db18565ecbefece480e92cc5f8fb1274$__6320828a0282356020840135612f406060860160408701614bf2565b612f4d60608701876152a0565b600e6040518763ffffffff1660e01b8152600401610bd996959493929190615999565b6000612f7c8235613435565b81356000908152600a6020526040812060030180548290612f9c90615364565b91829055506040516317e60d8d60e31b815290915073__$2873850e5b3f5697aafc2f5cd9f27cc884$__9063bf306c6890612fe7908690859060009081908190600e90600401615472565b60006040518083038186803b158015612fff57600080fd5b505af4158015613013573d6000803e3d6000fd5b509295945050505050565b60408051610100810182526000808252602082018190529181018290526060808201526080810182905260a0810182905260c0810182905260e0810191909152600e60008481526020019081526020016000206000838152602001908152602001600020604051806101000160405290816000820154815260200160018201548152602001600282015481526020016003820180546130bc9061526b565b80601f01602080910402602001604051908101604052809291908181526020018280546130e89061526b565b80156131355780601f1061310a57610100808354040283529160200191613135565b820191906000526020600020905b81548152906001019060200180831161311857829003601f168201915b505050918352505060048201546001600160a01b0390811660208301526005830154811660408301526006909201549182166060820152600160a01b90910460ff1615156080909101529392505050565b6131908135613435565b61319f81356020830135613c6a565b73__$69db18565ecbefece480e92cc5f8fb1274$__631f2ffb6982356020840135612f406060860160408701614bf2565b6000818152600a60205260409020600101805460609190612d3e9061526b565b6131f8614830565b600a60008381526020019081526020016000206040518060c0016040529081600082015481526020016001820180546132309061526b565b80601f016020809104026020016040519081016040528092919081815260200182805461325c9061526b565b80156132a95780601f1061327e576101008083540402835291602001916132a9565b820191906000526020600020905b81548152906001019060200180831161328c57829003601f168201915b505050505081526020016002820180546132c29061526b565b80601f01602080910402602001604051908101604052809291908181526020018280546132ee9061526b565b801561333b5780601f106133105761010080835404028352916020019161333b565b820191906000526020600020905b81548152906001019060200180831161331e57829003601f168201915b50505091835250506003820154602082015260048201546001600160a01b03908116604083015260059092015490911660609091015292915050565b60006001600160e01b031982166380ac58cd60e01b14806133a857506001600160e01b03198216635b5e139f60e01b145b80610a4157506301ffc9a760e01b6001600160e01b0319831614610a41565b600081815260046020526040902080546001600160a01b0319166001600160a01b03841690811790915581906133fc82611c0c565b6001600160a01b03167f8c5be1e5ebec7d5bd14f71427d1e84f3dd0314c0f7b2291e5b200ac8c7c3b92560405160405180910390a45050565b61343e81611c0c565b6001600160a01b0316336001600160a01b031614610e895760405162461bcd60e51b815260206004820152600f60248201526e2737ba283937b334b632a7bbb732b960891b6044820152606401610b4e565b6040516331a9108f60e11b8152600481018290526001600160a01b03831690636352211e90602401602060405180830381865afa1580156134d5573d6000803e3d6000fd5b505050506040513d601f19601f820116820180604052508101906134f991906159c7565b6001600160a01b031661265a5760405162461bcd60e51b815260206004820152600f60248201526e5245433732314e6f7445786973747360881b6044820152606401610b4e565b61354984613435565b6001600160a01b0383166000908152600c6020526040902054156135c35760405162461bcd60e51b815260206004820152602b60248201527f546172676574206164647265737320616c726561647920686173207072696d6160448201526a393c90383937b334b6329760a91b6064820152608401610b4e565b60006012600081546135d490615364565b918290555090506135e58482614101565b73__$da066dc100670b51e733250a114f607b42$__63a20df8646040518060a00160405280876001600160a01b0316815260200161362d886001600160a01b0316601461424f565b815260200160405180602001604052806000815250815260200160006001600160a01b0316815260200160405180602001604052806000815250815250600084600b600a6040518663ffffffff1660e01b81526004016136919594939291906159e4565b60006040518083038186803b1580156136a957600080fd5b505af41580156136bd573d6000803e3d6000fd5b5050506001600160a01b0385166000908152600c6020526040902082905550610c0585828585613f64565b6013546040516331a9108f60e11b8152600481018390526001600160a01b0390911690636352211e90602401602060405180830381865afa158015613731573d6000803e3d6000fd5b505050506040513d601f19601f8201168201806040525081019061375591906159c7565b6001600160a01b0316336001600160a01b031614610e895760405162461bcd60e51b815260206004820152601060248201526f2737ba2634b735a634b9ba27bbb732b960811b6044820152606401610b4e565b6000818152600260205260408120546001600160a01b03166138215760405162461bcd60e51b815260206004820152602c60248201527f4552433732313a206f70657261746f7220717565727920666f72206e6f6e657860448201526b34b9ba32b73a103a37b5b2b760a11b6064820152608401610b4e565b600061382c83611c0c565b9050806001600160a01b0316846001600160a01b031614806138675750836001600160a01b031661385c84610ad9565b6001600160a01b0316145b8061117657506001600160a01b0380821660009081526005602090815260408083209388168352929052205460ff16611176565b826001600160a01b03166138ae82611c0c565b6001600160a01b0316146139125760405162461bcd60e51b815260206004820152602560248201527f4552433732313a207472616e736665722066726f6d20696e636f72726563742060448201526437bbb732b960d91b6064820152608401610b4e565b6001600160a01b0382166139745760405162461bcd60e51b8152602060048201526024808201527f4552433732313a207472616e7366657220746f20746865207a65726f206164646044820152637265737360e01b6064820152608401610b4e565b61397f8383836143ea565b61398a6000826133c7565b6001600160a01b03831660009081526003602052604081208054600192906139b3908490615a71565b90915550506001600160a01b03821660009081526003602052604081208054600192906139e1908490615a88565b909155505060008181526002602052604080822080546001600160a01b0319166001600160a01b0386811691821790925591518493918716917fddf252ad1be2c89b69c2b068fc378daa952ba7f163c4a11628f55a4df523b3ef91a4505050565b6000818152600260205260409020546001600160a01b0316610e895760405162461bcd60e51b815260206004820152601060248201526f50726f66696c654e6f7445786973747360801b6044820152606401610b4e565b60135460405163124fe93760e21b8152600481018490526001600160a01b039091169063493fa4dc90602401602060405180830381865afa158015613ae2573d6000803e3d6000fd5b505050506040513d601f19601f82011682018060405250810190613b0691906156a3565b811461265a5760405162461bcd60e51b8152602060048201526012602482015271155b985d1d1858da1959131a5b9adb1a5cdd60721b6044820152606401610b4e565b6000838152600d6020908152604080832085845290915290205480613c6357613bea6001601360009054906101000a90046001600160a01b03166001600160a01b03166318160ddd6040518163ffffffff1660e01b8152600401602060405180830381865afa158015613bc0573d6000803e3d6000fd5b505050506040513d601f19601f82011682018060405250810190613be491906156a3565b906140f5565b60135460405163644ee7e760e11b81526001600160a01b038581166004830152602482018790526044820184905292935091169063c89dcfce90606401600060405180830381600087803b158015613c4157600080fd5b505af1158015613c55573d6000803e3d6000fd5b50505050613c638185611960565b9392505050565b6000828152600a602052604090206003015481111561265a5760405162461bcd60e51b815260206004820152600d60248201526c4e6f74654e6f7445786973747360981b6044820152606401610b4e565b613cc533826137a8565b613d115760405162461bcd60e51b815260206004820152601b60248201527f4e4654426173653a204e6f744f776e65724f72417070726f76656400000000006044820152606401610b4e565b610e898161442d565b613d2381613435565b601354604051631c5b266960e21b815260048101849052336024820152604481018390526001600160a01b039091169063716c99a490606401600060405180830381600087803b158015613d7657600080fd5b505af115801561253c573d6000803e3d6000fd5b6040516331a9108f60e11b8152600481018290526001600160a01b03831690636352211e90602401602060405180830381865afa158015613dcf573d6000803e3d6000fd5b505050506040513d601f19601f82011682018060405250810190613df391906159c7565b6001600160a01b0316336001600160a01b03161461265a5760405162461bcd60e51b815260206004820152600e60248201526d2737ba22a9219b9918a7bbb732b960911b6044820152606401610b4e565b613e50848484846144d4565b7f414cd0b34676984f09a5f76ce9718d4062e50283abe0e7e274a9a5b4e0c99c308484848442604051613e87959493929190615aa0565b60405180910390a150505050565b816001600160a01b0316836001600160a01b03161415613ef75760405162461bcd60e51b815260206004820152601960248201527f4552433732313a20617070726f766520746f2063616c6c6572000000000000006044820152606401610b4e565b6001600160a01b03838116600081815260056020908152604080832094871680845294825291829020805460ff191686151590811790915591519182527f17307eab39ab6107e8899845ad3d59bd9653f200f220920489ca2b5937696c31910160405180910390a3505050565b6000613f71858433613b49565b601354604051637bf0b88d60e11b815260048101839052602481018790529192506001600160a01b03169063f7e1711a90604401600060405180830381600087803b158015613fbf57600080fd5b505af1158015613fd3573d6000803e3d6000fd5b5050506000858152600a60205260409020600501546001600160a01b031615905061407c57600061400386611c0c565b6000868152600a60205260409081902060050154905163366531f960e11b81529192506001600160a01b031690636cca63f29061404890849089908890600401615ada565b600060405180830381600087803b15801561406257600080fd5b505af1158015614076573d6000803e3d6000fd5b50505050505b60408051848152602081018390528591879133917fbc914995d574dd9ef2df364e4eee2b85deda3ba35d054a62425fba1b97275716910160405180910390a45050505050565b6140cd84848461389b565b6140d9848484846144ed565b61282c5760405162461bcd60e51b8152600401610b4e90615b01565b6000613c638284615a88565b6001600160a01b0382166141575760405162461bcd60e51b815260206004820181905260248201527f4552433732313a206d696e7420746f20746865207a65726f20616464726573736044820152606401610b4e565b6000818152600260205260409020546001600160a01b0316156141bc5760405162461bcd60e51b815260206004820152601c60248201527f4552433732313a20746f6b656e20616c7265616479206d696e746564000000006044820152606401610b4e565b6141c8600083836143ea565b6001600160a01b03821660009081526003602052604081208054600192906141f1908490615a88565b909155505060008181526002602052604080822080546001600160a01b0319166001600160a01b03861690811790915590518392907fddf252ad1be2c89b69c2b068fc378daa952ba7f163c4a11628f55a4df523b3ef908290a45050565b6060600061425e836002615b53565b614269906002615a88565b6001600160401b0381111561428057614280615016565b6040519080825280601f01601f1916602001820160405280156142aa576020820181803683370190505b509050600360fc1b816000815181106142c5576142c561568d565b60200101906001600160f81b031916908160001a905350600f60fb1b816001815181106142f4576142f461568d565b60200101906001600160f81b031916908160001a9053506000614318846002615b53565b614323906001615a88565b90505b600181111561439b576f181899199a1a9b1b9c1cb0b131b232b360811b85600f16601081106143575761435761568d565b1a60f81b82828151811061436d5761436d61568d565b60200101906001600160f81b031916908160001a90535060049490941c9361439481615b72565b9050614326565b508315613c635760405162461bcd60e51b815260206004820181905260248201527f537472696e67733a20686578206c656e67746820696e73756666696369656e746044820152606401610b4e565b6001600160a01b0383166000908152600c602052604090205415614422576001600160a01b0383166000908152600c60205260408120555b610d1d8383836145e8565b600061443882611c0c565b9050614446816000846143ea565b6144516000836133c7565b6001600160a01b038116600090815260036020526040812080546001929061447a908490615a71565b909155505060008281526002602052604080822080546001600160a01b0319169055518391906001600160a01b038416907fddf252ad1be2c89b69c2b068fc378daa952ba7f163c4a11628f55a4df523b3ef908390a45050565b6144e060008585614878565b50610c0560018383614878565b60006001600160a01b0384163b156145e057604051630a85bd0160e11b81526001600160a01b0385169063150b7a0290614531903390899088908890600401615b89565b6020604051808303816000875af192505050801561456c575060408051601f3d908101601f1916820190925261456991810190615bbc565b60015b6145c6573d80801561459a576040519150601f19603f3d011682016040523d82523d6000602084013e61459f565b606091505b5080516145be5760405162461bcd60e51b8152600401610b4e90615b01565b805181602001fd5b6001600160e01b031916630a85bd0160e11b149050611176565b506001611176565b6001600160a01b0383166146435761463e81600880546000838152600960205260408120829055600182018355919091527ff3f7a9fe364faab93b216da50a3214154f22a0a2b415b23a84c8169e8b636ee30155565b614666565b816001600160a01b0316836001600160a01b0316146146665761466683826146a0565b6001600160a01b03821661467d57610d1d8161473d565b826001600160a01b0316826001600160a01b031614610d1d57610d1d82826147ec565b600060016146ad84611ed7565b6146b79190615a71565b60008381526007602052604090205490915080821461470a576001600160a01b03841660009081526006602090815260408083208584528252808320548484528184208190558352600790915290208190555b5060009182526007602090815260408084208490556001600160a01b039094168352600681528383209183525290812055565b60085460009061474f90600190615a71565b600083815260096020526040812054600880549394509092849081106147775761477761568d565b9060005260206000200154905080600883815481106147985761479861568d565b60009182526020808320909101929092558281526009909152604080822084905585825281205560088054806147d0576147d0615bd9565b6001900381819060005260206000200160009055905550505050565b60006147f783611ed7565b6001600160a01b039093166000908152600660209081526040808320868452825280832085905593825260079052919091209190915550565b6040518060c001604052806000815260200160608152602001606081526020016000815260200160006001600160a01b0316815260200160006001600160a01b031681525090565b8280546148849061526b565b90600052602060002090601f0160209004810192826148a657600085556148ec565b82601f106148bf5782800160ff198235161785556148ec565b828001600101855582156148ec579182015b828111156148ec5782358255916020019190600101906148d1565b506148f89291506148fc565b5090565b5b808211156148f857600081556001016148fd565b6001600160e01b031981168114610e8957600080fd5b60006020828403121561493957600080fd5b8135613c6381614911565b60005b8381101561495f578181015183820152602001614947565b8381111561282c5750506000910152565b60008151808452614988816020860160208601614944565b601f01601f19169290920160200192915050565b602081526000613c636020830184614970565b6000602082840312156149c157600080fd5b5035919050565b6000606082840312156149da57600080fd5b50919050565b6000602082840312156149f257600080fd5b81356001600160401b03811115614a0857600080fd5b611176848285016149c8565b6001600160a01b0381168114610e8957600080fd5b60008060408385031215614a3c57600080fd5b8235614a4781614a14565b946020939093013593505050565b600060c082840312156149da57600080fd5b600080600080600060a08688031215614a7f57600080fd5b85356001600160401b03811115614a9557600080fd5b614aa188828901614a55565b955050602086013593506040860135614ab981614a14565b94979396509394606081013594506080013592915050565b600060608284031215614ae357600080fd5b613c6383836149c8565b60008083601f840112614aff57600080fd5b5081356001600160401b03811115614b1657600080fd5b602083019150836020828501011115614b2e57600080fd5b9250929050565b60008060208385031215614b4857600080fd5b82356001600160401b03811115614b5e57600080fd5b614b6a85828601614aed565b90969095509350505050565b60208152815160208201526000602083015160c06040840152614b9c60e0840182614970565b90506040840151601f19848303016060850152614bb98282614970565b91505060608401516080840152608084015160018060a01b0380821660a08601528060a08701511660c086015250508091505092915050565b600060208284031215614c0457600080fd5b8135613c6381614a14565b60008060008060808587031215614c2557600080fd5b84356001600160401b03811115614c3b57600080fd5b614c4787828801614a55565b97602087013597506040870135966060013595509350505050565b600080600060608486031215614c7757600080fd5b8335614c8281614a14565b92506020840135614c9281614a14565b929592945050506040919091013590565b60008060008060808587031215614cb957600080fd5b84356001600160401b03811115614ccf57600080fd5b614cdb87828801614a55565b945050602085013592506040850135614cf381614a14565b9396929550929360600135925050565b600080600060408486031215614d1857600080fd5b8335925060208401356001600160401b03811115614d3557600080fd5b614d4186828701614aed565b9497909650939450505050565b6000608082840312156149da57600080fd5b600060208284031215614d7257600080fd5b81356001600160401b03811115614d8857600080fd5b61117684828501614d4e565b600060808284031215614da657600080fd5b613c638383614d4e565b600080600080600060a08688031215614dc857600080fd5b85356001600160401b03811115614dde57600080fd5b614dea88828901614a55565b9860208801359850604088013597606081013597506080013595509350505050565b60008060408385031215614e1f57600080fd5b50508035926020909101359150565b600080600060a08486031215614e4357600080fd5b83359250614e5485602086016149c8565b9150608084013590509250925092565b6020808252825182820181905260009190848201906040850190845b81811015614e9c57835183529284019291840191600101614e80565b50909695505050505050565b60008060008060008060808789031215614ec157600080fd5b86356001600160401b0380821115614ed857600080fd5b614ee48a838b01614aed565b90985096506020890135915080821115614efd57600080fd5b50614f0a89828a01614aed565b9095509350506040870135614f1e81614a14565b91506060870135614f2e81614a14565b809150509295509295509295565b60008060408385031215614f4f57600080fd5b823591506020830135614f6181614a14565b809150509250929050565b600080600080600060808688031215614f8457600080fd5b85356001600160401b0380821115614f9b57600080fd5b614fa789838a01614a55565b9650602088013595506040880135915080821115614fc457600080fd5b50614fd188828901614aed565b96999598509660600135949350505050565b60008060408385031215614ff657600080fd5b823561500181614a14565b915060208301358015158114614f6157600080fd5b634e487b7160e01b600052604160045260246000fd5b604051601f8201601f191681016001600160401b038111828210171561505457615054615016565b604052919050565b60006001600160401b0382111561507557615075615016565b50601f01601f191660200190565b6000806000806080858703121561509957600080fd5b84356150a481614a14565b935060208501356150b481614a14565b92506040850135915060608501356001600160401b038111156150d657600080fd5b8501601f810187136150e757600080fd5b80356150fa6150f58261505c565b61502c565b81815288602083850101111561510f57600080fd5b8160208401602083013760006020838301015280935050505092959194509250565b600060a082840312156149da57600080fd5b60006020828403121561515557600080fd5b81356001600160401b0381111561516b57600080fd5b61117684828501615131565b60006020828403121561518957600080fd5b81356001600160401b0381111561519f57600080fd5b61117684828501614a55565b60208152815160208201526020820151604082015260408201516060820152600060608301516101008060808501526151e8610120850183614970565b9150608085015160018060a01b0380821660a08701528060a08801511660c0870152505060c085015161522660e08601826001600160a01b03169052565b5060e0850151801515858301525090949350505050565b6000806040838503121561525057600080fd5b823561525b81614a14565b91506020830135614f6181614a14565b600181811c9082168061527f57607f821691505b602082108114156149da57634e487b7160e01b600052602260045260246000fd5b6000808335601e198436030181126152b757600080fd5b8301803591506001600160401b038211156152d157600080fd5b602001915036819003821315614b2e57600080fd5b81835281816020850137506000828201602090810191909152601f909101601f19169091010190565b6001600160a01b0386811682528516602082015260806040820181905260009061533c90830185876152e6565b90508260608301529695505050505050565b634e487b7160e01b600052601160045260246000fd5b60006000198214156153785761537861534e565b5060010190565b6000808335601e1984360301811261539657600080fd5b83016020810192503590506001600160401b038111156153b557600080fd5b803603831315614b2e57600080fd5b8035825260006153d7602083018361537f565b60c060208601526153ec60c0860182846152e6565b91505060408301356153fd81614a14565b6001600160a01b03818116604087015261541a606086018661537f565b9250868403606088015261542f8484836152e6565b9350506080850135915061544282614a14565b16608085015261545560a084018461537f565b85830360a08701526154688382846152e6565b9695505050505050565b60c08152600061548560c08301896153c4565b60208301979097525060408101949094526060840192909252608083015260a090910152919050565b8183823760009101908152919050565b8581526001600160a01b038516602082015260806040820181905260009061533c90830185876152e6565b60208082526031908201527f4552433732313a207472616e736665722063616c6c6572206973206e6f74206f6040820152701ddb995c881b9bdc88185c1c1c9bdd9959607a1b606082015260800190565b8381526040602082015260006155546040830184866152e6565b95945050505050565b600080835481600182811c91508083168061557957607f831692505b602080841082141561559957634e487b7160e01b86526022600452602486fd5b8180156155ad57600181146155be576155eb565b60ff198616895284890196506155eb565b60008a81526020902060005b868110156155e35781548b8201529085019083016155ca565b505084890196505b509498975050505050505050565b60006020828403121561560b57600080fd5b81516001600160401b0381111561562157600080fd5b8201601f8101841361563257600080fd5b80516156406150f58261505c565b81815285602083850101111561565557600080fd5b615554826020830160208601614944565b60608152600061567a6060830186886152e6565b6020830194909452506040015292915050565b634e487b7160e01b600052603260045260246000fd5b6000602082840312156156b557600080fd5b5051919050565b600060208083850312156156cf57600080fd5b82516001600160401b03808211156156e657600080fd5b818501915085601f8301126156fa57600080fd5b81518181111561570c5761570c615016565b8060051b915061571d84830161502c565b818152918301840191848101908884111561573757600080fd5b938501935b838510156157555784518252938501939085019061573c565b98975050505050505050565b6001600160a01b038781168252602082018790528516604082015260a06060820181905260009061579590830185876152e6565b9050826080830152979650505050505050565b6020815260006111766020830184866152e6565b6040815260006157d06040830185876152e6565b9050826020830152949350505050565b664c696e6b416e7960c81b81528183600783013760009101600701908152919050565b85815260806020820152600061581d6080830186886152e6565b604083019490945250606001529392505050565b888152876020820152600060018060a01b03808916604084015260e0606084015261586060e08401888a6152e6565b951660808301525060a081019290925260c09091015295945050505050565b60018060a01b03861681528460208201528360408201526080606082015260006158ad6080830184866152e6565b979650505050505050565b60a08152600086356158c981614a14565b6001600160a01b0381811660a08501526158e660208a018a61537f565b925060a060c08601526158fe610140860184836152e6565b92505061590e60408a018a61537f565b609f19808786030160e08801526159268583856152e6565b945060608c0135925061593883614a14565b83831661010088015261594e60808d018d61537f565b945092508087860301610120880152505061596a8383836152e6565b935050505061597d602083018715159052565b8460408301528360608301528260808301529695505050505050565b86815285602082015260018060a01b038516604082015260a06060820152600061579560a0830185876152e6565b6000602082840312156159d957600080fd5b8151613c6381614a14565b60a08152600060018060a01b038088511660a0840152602088015160a060c0850152615a14610140850182614970565b90506040890151609f19808684030160e0870152615a328383614970565b92508360608c01511661010087015260808b0151935080868403016101208701525050615a5f8183614970565b9250505061597d602083018715159052565b600082821015615a8357615a8361534e565b500390565b60008219821115615a9b57615a9b61534e565b500190565b606081526000615ab46060830187896152e6565b8281036020840152615ac78186886152e6565b9150508260408301529695505050505050565b60018060a01b03841681528260208201526060604082015260006155546060830184614970565b60208082526032908201527f4552433732313a207472616e7366657220746f206e6f6e20455243373231526560408201527131b2b4bb32b91034b6b83632b6b2b73a32b960711b606082015260800190565b6000816000190483118215151615615b6d57615b6d61534e565b500290565b600081615b8157615b8161534e565b506000190190565b6001600160a01b038581168252841660208201526040810183905260806060820181905260009061546890830184614970565b600060208284031215615bce57600080fd5b8151613c6381614911565b634e487b7160e01b600052603160045260246000fdfea2646970667358221220d683a180fbe98d868ab2d6c5d5db91d31df512de6a9cf32e85fd3f463cc24d8764736f6c634300080a0033",
    "linkReferences": {
        "contracts/libraries/LinkModuleLogic.sol": {
            "LinkModuleLogic": [
                {
                    "length": 20,
                    "start": 2966
                },
                {
                    "length": 20,
                    "start": 4200
                },
                {
                    "length": 20,
                    "start": 7822
                },
                {
                    "length": 20,
                    "start": 12082
                },
                {
                    "length": 20,
                    "start": 12738
                }
            ]
        },
        "contracts/libraries/PostLogic.sol": {
            "PostLogic": [
                {
                    "length": 20,
                    "start": 3583
                },
                {
                    "length": 20,
                    "start": 4397
                },
                {
                    "length": 20,
                    "start": 9977
                },
                {
                    "length": 20,
                    "start": 12244
                }
            ]
        },
        "contracts/libraries/ProfileLogic.sol": {
            "ProfileLogic": [
                {
                    "length": 20,
                    "start": 7104
                },
                {
                    "length": 20,
                    "start": 9492
                },
                {
                    "length": 20,
                    "start": 9879
                },
                {
                    "length": 20,
                    "start": 11055
                },
                {
                    "length": 20,
                    "start": 13832
                }
            ]
        }
    },
    "deployedLinkReferences": {
        "contracts/libraries/LinkModuleLogic.sol": {
            "LinkModuleLogic": [
                {
                    "length": 20,
                    "start": 2933
                },
                {
                    "length": 20,
                    "start": 4167
                },
                {
                    "length": 20,
                    "start": 7789
                },
                {
                    "length": 20,
                    "start": 12049
                },
                {
                    "length": 20,
                    "start": 12705
                }
            ]
        },
        "contracts/libraries/PostLogic.sol": {
            "PostLogic": [
                {
                    "length": 20,
                    "start": 3550
                },
                {
                    "length": 20,
                    "start": 4364
                },
                {
                    "length": 20,
                    "start": 9944
                },
                {
                    "length": 20,
                    "start": 12211
                }
            ]
        },
        "contracts/libraries/ProfileLogic.sol": {
            "ProfileLogic": [
                {
                    "length": 20,
                    "start": 7071
                },
                {
                    "length": 20,
                    "start": 9459
                },
                {
                    "length": 20,
                    "start": 9846
                },
                {
                    "length": 20,
                    "start": 11022
                },
                {
                    "length": 20,
                    "start": 13799
                }
            ]
        }
    }
}