{
    "_format": "hh-sol-artifact-1",
    "contractName": "Web3Entry",
    "sourceName": "contracts/Web3Entry.sol",
    "abi": [
        {
            "anonymous": false,
            "inputs": [
                {
                    "indexed": true,
                    "internalType": "address",
                    "name": "owner",
                    "type": "address"
                },
                {
                    "indexed": true,
                    "internalType": "address",
                    "name": "approved",
                    "type": "address"
                },
                {
                    "indexed": true,
                    "internalType": "uint256",
                    "name": "tokenId",
                    "type": "uint256"
                }
            ],
            "name": "Approval",
            "type": "event"
        },
        {
            "anonymous": false,
            "inputs": [
                {
                    "indexed": true,
                    "internalType": "address",
                    "name": "owner",
                    "type": "address"
                },
                {
                    "indexed": true,
                    "internalType": "address",
                    "name": "operator",
                    "type": "address"
                },
                {
                    "indexed": false,
                    "internalType": "bool",
                    "name": "approved",
                    "type": "bool"
                }
            ],
            "name": "ApprovalForAll",
            "type": "event"
        },
        {
            "anonymous": false,
            "inputs": [
                {
                    "indexed": true,
                    "internalType": "address",
                    "name": "from",
                    "type": "address"
                },
                {
                    "indexed": true,
                    "internalType": "address",
                    "name": "to",
                    "type": "address"
                },
                {
                    "indexed": true,
                    "internalType": "uint256",
                    "name": "tokenId",
                    "type": "uint256"
                }
            ],
            "name": "Transfer",
            "type": "event"
        },
        {
            "inputs": [
                {
                    "internalType": "address",
                    "name": "to",
                    "type": "address"
                },
                {
                    "internalType": "uint256",
                    "name": "tokenId",
                    "type": "uint256"
                }
            ],
            "name": "approve",
            "outputs": [],
            "stateMutability": "nonpayable",
            "type": "function"
        },
        {
            "inputs": [
                {
                    "internalType": "uint256",
                    "name": "linklistId",
                    "type": "uint256"
                },
                {
                    "internalType": "uint256",
                    "name": "profileId",
                    "type": "uint256"
                }
            ],
            "name": "attachLinklist",
            "outputs": [],
            "stateMutability": "nonpayable",
            "type": "function"
        },
        {
            "inputs": [
                {
                    "internalType": "address",
                    "name": "owner",
                    "type": "address"
                }
            ],
            "name": "balanceOf",
            "outputs": [
                {
                    "internalType": "uint256",
                    "name": "",
                    "type": "uint256"
                }
            ],
            "stateMutability": "view",
            "type": "function"
        },
        {
            "inputs": [
                {
                    "internalType": "uint256",
                    "name": "tokenId",
                    "type": "uint256"
                }
            ],
            "name": "burn",
            "outputs": [],
            "stateMutability": "nonpayable",
            "type": "function"
        },
        {
            "inputs": [
                {
                    "components": [
                        {
                            "internalType": "address",
                            "name": "to",
                            "type": "address"
                        },
                        {
                            "internalType": "string",
                            "name": "handle",
                            "type": "string"
                        },
                        {
                            "internalType": "string",
                            "name": "uri",
                            "type": "string"
                        },
                        {
                            "internalType": "address",
                            "name": "linkModule",
                            "type": "address"
                        },
                        {
                            "internalType": "bytes",
                            "name": "linkModuleInitData",
                            "type": "bytes"
                        }
                    ],
                    "internalType": "struct DataTypes.CreateProfileData",
                    "name": "vars",
                    "type": "tuple"
                }
            ],
            "name": "createProfile",
            "outputs": [],
            "stateMutability": "nonpayable",
            "type": "function"
        },
        {
            "inputs": [
                {
                    "components": [
                        {
                            "internalType": "uint256",
                            "name": "fromProfileId",
                            "type": "uint256"
                        },
                        {
                            "internalType": "address",
                            "name": "to",
                            "type": "address"
                        },
                        {
                            "internalType": "bytes32",
                            "name": "linkType",
                            "type": "bytes32"
                        }
                    ],
                    "internalType": "struct DataTypes.createThenLinkProfileData",
                    "name": "vars",
                    "type": "tuple"
                }
            ],
            "name": "createThenLinkProfile",
            "outputs": [],
            "stateMutability": "nonpayable",
            "type": "function"
        },
        {
            "inputs": [
                {
                    "internalType": "uint256",
                    "name": "profileId",
                    "type": "uint256"
                },
                {
                    "internalType": "uint256",
                    "name": "noteId",
                    "type": "uint256"
                }
            ],
            "name": "deleteNote",
            "outputs": [],
            "stateMutability": "nonpayable",
            "type": "function"
        },
        {
            "inputs": [
                {
                    "internalType": "uint256",
                    "name": "linklistId",
                    "type": "uint256"
                },
                {
                    "internalType": "uint256",
                    "name": "profileId",
                    "type": "uint256"
                }
            ],
            "name": "detachLinklist",
            "outputs": [],
            "stateMutability": "nonpayable",
            "type": "function"
        },
        {
            "inputs": [
                {
                    "internalType": "uint256",
                    "name": "tokenId",
                    "type": "uint256"
                }
            ],
            "name": "getApproved",
            "outputs": [
                {
                    "internalType": "address",
                    "name": "",
                    "type": "address"
                }
            ],
            "stateMutability": "view",
            "type": "function"
        },
        {
            "inputs": [
                {
                    "internalType": "uint256",
                    "name": "profileId",
                    "type": "uint256"
                }
            ],
            "name": "getHandle",
            "outputs": [
                {
                    "internalType": "string",
                    "name": "",
                    "type": "string"
                }
            ],
            "stateMutability": "view",
            "type": "function"
        },
        {
            "inputs": [
                {
                    "internalType": "address",
                    "name": "account",
                    "type": "address"
                }
            ],
            "name": "getLinkModule4Address",
            "outputs": [
                {
                    "internalType": "address",
                    "name": "",
                    "type": "address"
                }
            ],
            "stateMutability": "view",
            "type": "function"
        },
        {
            "inputs": [
                {
                    "internalType": "address",
                    "name": "tokenAddress",
                    "type": "address"
                },
                {
                    "internalType": "uint256",
                    "name": "tokenId",
                    "type": "uint256"
                }
            ],
            "name": "getLinkModule4ERC721",
            "outputs": [
                {
                    "internalType": "address",
                    "name": "",
                    "type": "address"
                }
            ],
            "stateMutability": "view",
            "type": "function"
        },
        {
            "inputs": [
                {
                    "internalType": "uint256",
                    "name": "tokenId",
                    "type": "uint256"
                }
            ],
            "name": "getLinkModule4Linklist",
            "outputs": [
                {
                    "internalType": "address",
                    "name": "",
                    "type": "address"
                }
            ],
            "stateMutability": "view",
            "type": "function"
        },
        {
            "inputs": [],
            "name": "getLinklistContract",
            "outputs": [
                {
                    "internalType": "address",
                    "name": "",
                    "type": "address"
                }
            ],
            "stateMutability": "view",
            "type": "function"
        },
        {
            "inputs": [
                {
                    "internalType": "uint256",
                    "name": "profileId",
                    "type": "uint256"
                },
                {
                    "internalType": "bytes32",
                    "name": "linkType",
                    "type": "bytes32"
                }
            ],
            "name": "getLinklistId",
            "outputs": [
                {
                    "internalType": "uint256",
                    "name": "",
                    "type": "uint256"
                }
            ],
            "stateMutability": "view",
            "type": "function"
        },
        {
            "inputs": [
                {
                    "internalType": "uint256",
                    "name": "linkListId",
                    "type": "uint256"
                }
            ],
            "name": "getLinklistType",
            "outputs": [
                {
                    "internalType": "bytes32",
                    "name": "",
                    "type": "bytes32"
                }
            ],
            "stateMutability": "view",
            "type": "function"
        },
        {
            "inputs": [
                {
                    "internalType": "uint256",
                    "name": "tokenId",
                    "type": "uint256"
                }
            ],
            "name": "getLinklistUri",
            "outputs": [
                {
                    "internalType": "string",
                    "name": "",
                    "type": "string"
                }
            ],
            "stateMutability": "view",
            "type": "function"
        },
        {
            "inputs": [
                {
                    "internalType": "uint256",
                    "name": "profileId",
                    "type": "uint256"
                },
                {
                    "internalType": "uint256",
                    "name": "noteId",
                    "type": "uint256"
                }
            ],
            "name": "getNote",
            "outputs": [
                {
                    "components": [
                        {
                            "internalType": "bytes32",
                            "name": "linkItemType",
                            "type": "bytes32"
                        },
                        {
                            "internalType": "bytes32",
                            "name": "linkKey",
                            "type": "bytes32"
                        },
                        {
                            "internalType": "string",
                            "name": "contentUri",
                            "type": "string"
                        },
                        {
                            "internalType": "address",
                            "name": "linkModule",
                            "type": "address"
                        },
                        {
                            "internalType": "address",
                            "name": "mintModule",
                            "type": "address"
                        },
                        {
                            "internalType": "address",
                            "name": "mintNFT",
                            "type": "address"
                        },
                        {
                            "internalType": "bool",
                            "name": "deleted",
                            "type": "bool"
                        }
                    ],
                    "internalType": "struct DataTypes.Note",
                    "name": "",
                    "type": "tuple"
                }
            ],
            "stateMutability": "view",
            "type": "function"
        },
        {
            "inputs": [
                {
                    "internalType": "uint256",
                    "name": "profileId",
                    "type": "uint256"
                },
                {
                    "internalType": "uint256",
                    "name": "offset",
                    "type": "uint256"
                },
                {
                    "internalType": "uint256",
                    "name": "limit",
                    "type": "uint256"
                }
            ],
            "name": "getNotesByProfileId",
            "outputs": [
                {
                    "components": [
                        {
                            "internalType": "bytes32",
                            "name": "linkItemType",
                            "type": "bytes32"
                        },
                        {
                            "internalType": "bytes32",
                            "name": "linkKey",
                            "type": "bytes32"
                        },
                        {
                            "internalType": "string",
                            "name": "contentUri",
                            "type": "string"
                        },
                        {
                            "internalType": "address",
                            "name": "linkModule",
                            "type": "address"
                        },
                        {
                            "internalType": "address",
                            "name": "mintModule",
                            "type": "address"
                        },
                        {
                            "internalType": "address",
                            "name": "mintNFT",
                            "type": "address"
                        },
                        {
                            "internalType": "bool",
                            "name": "deleted",
                            "type": "bool"
                        }
                    ],
                    "internalType": "struct DataTypes.Note[]",
                    "name": "results",
                    "type": "tuple[]"
                }
            ],
            "stateMutability": "view",
            "type": "function"
        },
        {
            "inputs": [
                {
                    "internalType": "address",
                    "name": "account",
                    "type": "address"
                }
            ],
            "name": "getPrimaryProfileId",
            "outputs": [
                {
                    "internalType": "uint256",
                    "name": "",
                    "type": "uint256"
                }
            ],
            "stateMutability": "view",
            "type": "function"
        },
        {
            "inputs": [
                {
                    "internalType": "uint256",
                    "name": "profileId",
                    "type": "uint256"
                }
            ],
            "name": "getProfile",
            "outputs": [
                {
                    "components": [
                        {
                            "internalType": "uint256",
                            "name": "profileId",
                            "type": "uint256"
                        },
                        {
                            "internalType": "string",
                            "name": "handle",
                            "type": "string"
                        },
                        {
                            "internalType": "string",
                            "name": "uri",
                            "type": "string"
                        },
                        {
                            "internalType": "uint256",
                            "name": "noteCount",
                            "type": "uint256"
                        },
                        {
                            "internalType": "address",
                            "name": "socialToken",
                            "type": "address"
                        },
                        {
                            "internalType": "address",
                            "name": "linkModule",
                            "type": "address"
                        }
                    ],
                    "internalType": "struct DataTypes.Profile",
                    "name": "",
                    "type": "tuple"
                }
            ],
            "stateMutability": "view",
            "type": "function"
        },
        {
            "inputs": [
                {
                    "internalType": "string",
                    "name": "handle",
                    "type": "string"
                }
            ],
            "name": "getProfileByHandle",
            "outputs": [
                {
                    "components": [
                        {
                            "internalType": "uint256",
                            "name": "profileId",
                            "type": "uint256"
                        },
                        {
                            "internalType": "string",
                            "name": "handle",
                            "type": "string"
                        },
                        {
                            "internalType": "string",
                            "name": "uri",
                            "type": "string"
                        },
                        {
                            "internalType": "uint256",
                            "name": "noteCount",
                            "type": "uint256"
                        },
                        {
                            "internalType": "address",
                            "name": "socialToken",
                            "type": "address"
                        },
                        {
                            "internalType": "address",
                            "name": "linkModule",
                            "type": "address"
                        }
                    ],
                    "internalType": "struct DataTypes.Profile",
                    "name": "",
                    "type": "tuple"
                }
            ],
            "stateMutability": "view",
            "type": "function"
        },
        {
            "inputs": [
                {
                    "internalType": "uint256",
                    "name": "profileId",
                    "type": "uint256"
                }
            ],
            "name": "getProfileUri",
            "outputs": [
                {
                    "internalType": "string",
                    "name": "",
                    "type": "string"
                }
            ],
            "stateMutability": "view",
            "type": "function"
        },
        {
            "inputs": [],
            "name": "getRevision",
            "outputs": [
                {
                    "internalType": "uint256",
                    "name": "",
                    "type": "uint256"
                }
            ],
            "stateMutability": "pure",
            "type": "function"
        },
        {
            "inputs": [
                {
                    "internalType": "string",
                    "name": "_name",
                    "type": "string"
                },
                {
                    "internalType": "string",
                    "name": "_symbol",
                    "type": "string"
                },
                {
                    "internalType": "address",
                    "name": "_linklistContract",
                    "type": "address"
                },
                {
                    "internalType": "address",
                    "name": "_mintNFTImpl",
                    "type": "address"
                }
            ],
            "name": "initialize",
            "outputs": [],
            "stateMutability": "nonpayable",
            "type": "function"
        },
        {
            "inputs": [
                {
                    "internalType": "address",
                    "name": "owner",
                    "type": "address"
                },
                {
                    "internalType": "address",
                    "name": "operator",
                    "type": "address"
                }
            ],
            "name": "isApprovedForAll",
            "outputs": [
                {
                    "internalType": "bool",
                    "name": "",
                    "type": "bool"
                }
            ],
            "stateMutability": "view",
            "type": "function"
        },
        {
            "inputs": [
                {
                    "internalType": "uint256",
                    "name": "profileId",
                    "type": "uint256"
                }
            ],
            "name": "isPrimaryProfile",
            "outputs": [
                {
                    "internalType": "bool",
                    "name": "",
                    "type": "bool"
                }
            ],
            "stateMutability": "view",
            "type": "function"
        },
        {
            "inputs": [
                {
                    "internalType": "address",
                    "name": "account",
                    "type": "address"
                }
            ],
            "name": "isWhitelistedContracts",
            "outputs": [
                {
                    "internalType": "bool",
                    "name": "",
                    "type": "bool"
                }
            ],
            "stateMutability": "view",
            "type": "function"
        },
        {
            "inputs": [
                {
                    "components": [
                        {
                            "internalType": "uint256",
                            "name": "fromProfileId",
                            "type": "uint256"
                        },
                        {
                            "internalType": "address",
                            "name": "ethAddress",
                            "type": "address"
                        },
                        {
                            "internalType": "bytes32",
                            "name": "linkType",
                            "type": "bytes32"
                        },
                        {
                            "internalType": "bytes",
                            "name": "data",
                            "type": "bytes"
                        }
                    ],
                    "internalType": "struct DataTypes.linkAddressData",
                    "name": "vars",
                    "type": "tuple"
                }
            ],
            "name": "linkAddress",
            "outputs": [],
            "stateMutability": "nonpayable",
            "type": "function"
        },
        {
            "inputs": [
                {
                    "components": [
                        {
                            "internalType": "uint256",
                            "name": "fromProfileId",
                            "type": "uint256"
                        },
                        {
                            "internalType": "string",
                            "name": "toUri",
                            "type": "string"
                        },
                        {
                            "internalType": "bytes32",
                            "name": "linkType",
                            "type": "bytes32"
                        },
                        {
                            "internalType": "bytes",
                            "name": "data",
                            "type": "bytes"
                        }
                    ],
                    "internalType": "struct DataTypes.linkAnyData",
                    "name": "vars",
                    "type": "tuple"
                }
            ],
            "name": "linkAny",
            "outputs": [],
            "stateMutability": "nonpayable",
            "type": "function"
        },
        {
            "inputs": [
                {
                    "components": [
                        {
                            "internalType": "uint256",
                            "name": "fromProfileId",
                            "type": "uint256"
                        },
                        {
                            "internalType": "address",
                            "name": "tokenAddress",
                            "type": "address"
                        },
                        {
                            "internalType": "uint256",
                            "name": "tokenId",
                            "type": "uint256"
                        },
                        {
                            "internalType": "bytes32",
                            "name": "linkType",
                            "type": "bytes32"
                        },
                        {
                            "internalType": "bytes",
                            "name": "data",
                            "type": "bytes"
                        }
                    ],
                    "internalType": "struct DataTypes.linkERC721Data",
                    "name": "vars",
                    "type": "tuple"
                }
            ],
            "name": "linkERC721",
            "outputs": [],
            "stateMutability": "nonpayable",
            "type": "function"
        },
        {
            "inputs": [
                {
                    "components": [
                        {
                            "internalType": "uint256",
                            "name": "fromProfileId",
                            "type": "uint256"
                        },
                        {
                            "internalType": "uint256",
                            "name": "toLinkListId",
                            "type": "uint256"
                        },
                        {
                            "internalType": "bytes32",
                            "name": "linkType",
                            "type": "bytes32"
                        },
                        {
                            "internalType": "bytes",
                            "name": "data",
                            "type": "bytes"
                        }
                    ],
                    "internalType": "struct DataTypes.linkLinklistData",
                    "name": "vars",
                    "type": "tuple"
                }
            ],
            "name": "linkLinklist",
            "outputs": [],
            "stateMutability": "nonpayable",
            "type": "function"
        },
        {
            "inputs": [
                {
                    "components": [
                        {
                            "internalType": "uint256",
                            "name": "fromProfileId",
                            "type": "uint256"
                        },
                        {
                            "internalType": "uint256",
                            "name": "toProfileId",
                            "type": "uint256"
                        },
                        {
                            "internalType": "uint256",
                            "name": "toNoteId",
                            "type": "uint256"
                        },
                        {
                            "internalType": "bytes32",
                            "name": "linkType",
                            "type": "bytes32"
                        },
                        {
                            "internalType": "bytes",
                            "name": "data",
                            "type": "bytes"
                        }
                    ],
                    "internalType": "struct DataTypes.linkNoteData",
                    "name": "vars",
                    "type": "tuple"
                }
            ],
            "name": "linkNote",
            "outputs": [],
            "stateMutability": "nonpayable",
            "type": "function"
        },
        {
            "inputs": [
                {
                    "components": [
                        {
                            "internalType": "uint256",
                            "name": "fromProfileId",
                            "type": "uint256"
                        },
                        {
                            "internalType": "uint256",
                            "name": "toProfileId",
                            "type": "uint256"
                        },
                        {
                            "internalType": "bytes32",
                            "name": "linkType",
                            "type": "bytes32"
                        },
                        {
                            "internalType": "bytes",
                            "name": "data",
                            "type": "bytes"
                        }
                    ],
                    "internalType": "struct DataTypes.linkProfileData",
                    "name": "vars",
                    "type": "tuple"
                }
            ],
            "name": "linkProfile",
            "outputs": [],
            "stateMutability": "nonpayable",
            "type": "function"
        },
        {
            "inputs": [
                {
                    "internalType": "uint256",
                    "name": "fromProfileId",
                    "type": "uint256"
                },
                {
                    "components": [
                        {
                            "internalType": "uint256",
                            "name": "fromProfileId",
                            "type": "uint256"
                        },
                        {
                            "internalType": "uint256",
                            "name": "toProfileId",
                            "type": "uint256"
                        },
                        {
                            "internalType": "bytes32",
                            "name": "linkType",
                            "type": "bytes32"
                        }
                    ],
                    "internalType": "struct DataTypes.ProfileLinkStruct",
                    "name": "linkData",
                    "type": "tuple"
                },
                {
                    "internalType": "bytes32",
                    "name": "linkType",
                    "type": "bytes32"
                }
            ],
            "name": "linkProfileLink",
            "outputs": [],
            "stateMutability": "nonpayable",
            "type": "function"
        },
        {
            "inputs": [
                {
                    "components": [
                        {
                            "internalType": "uint256",
                            "name": "profileId",
                            "type": "uint256"
                        },
                        {
                            "internalType": "uint256",
                            "name": "noteId",
                            "type": "uint256"
                        },
                        {
                            "internalType": "address",
                            "name": "to",
                            "type": "address"
                        },
                        {
                            "internalType": "bytes",
                            "name": "mintModuleData",
                            "type": "bytes"
                        }
                    ],
                    "internalType": "struct DataTypes.MintNoteData",
                    "name": "vars",
                    "type": "tuple"
                }
            ],
            "name": "mintNote",
            "outputs": [
                {
                    "internalType": "uint256",
                    "name": "",
                    "type": "uint256"
                }
            ],
            "stateMutability": "nonpayable",
            "type": "function"
        },
        {
            "inputs": [],
            "name": "name",
            "outputs": [
                {
                    "internalType": "string",
                    "name": "",
                    "type": "string"
                }
            ],
            "stateMutability": "view",
            "type": "function"
        },
        {
            "inputs": [
                {
                    "internalType": "uint256",
                    "name": "tokenId",
                    "type": "uint256"
                }
            ],
            "name": "ownerOf",
            "outputs": [
                {
                    "internalType": "address",
                    "name": "",
                    "type": "address"
                }
            ],
            "stateMutability": "view",
            "type": "function"
        },
        {
            "inputs": [
                {
                    "components": [
                        {
                            "internalType": "uint256",
                            "name": "profileId",
                            "type": "uint256"
                        },
                        {
                            "internalType": "string",
                            "name": "contentUri",
                            "type": "string"
                        },
                        {
                            "internalType": "address",
                            "name": "linkModule",
                            "type": "address"
                        },
                        {
                            "internalType": "bytes",
                            "name": "linkModuleInitData",
                            "type": "bytes"
                        },
                        {
                            "internalType": "address",
                            "name": "mintModule",
                            "type": "address"
                        },
                        {
                            "internalType": "bytes",
                            "name": "mintModuleInitData",
                            "type": "bytes"
                        }
                    ],
                    "internalType": "struct DataTypes.PostNoteData",
                    "name": "vars",
                    "type": "tuple"
                }
            ],
            "name": "postNote",
            "outputs": [
                {
                    "internalType": "uint256",
                    "name": "",
                    "type": "uint256"
                }
            ],
            "stateMutability": "nonpayable",
            "type": "function"
        },
        {
            "inputs": [
                {
                    "components": [
                        {
                            "internalType": "uint256",
                            "name": "profileId",
                            "type": "uint256"
                        },
                        {
                            "internalType": "string",
                            "name": "contentUri",
                            "type": "string"
                        },
                        {
                            "internalType": "address",
                            "name": "linkModule",
                            "type": "address"
                        },
                        {
                            "internalType": "bytes",
                            "name": "linkModuleInitData",
                            "type": "bytes"
                        },
                        {
                            "internalType": "address",
                            "name": "mintModule",
                            "type": "address"
                        },
                        {
                            "internalType": "bytes",
                            "name": "mintModuleInitData",
                            "type": "bytes"
                        }
                    ],
                    "internalType": "struct DataTypes.PostNoteData",
                    "name": "noteData",
                    "type": "tuple"
                },
                {
                    "components": [
                        {
                            "internalType": "uint256",
                            "name": "fromProfileId",
                            "type": "uint256"
                        },
                        {
                            "internalType": "address",
                            "name": "ethAddress",
                            "type": "address"
                        },
                        {
                            "internalType": "bytes32",
                            "name": "linkType",
                            "type": "bytes32"
                        },
                        {
                            "internalType": "bytes",
                            "name": "data",
                            "type": "bytes"
                        }
                    ],
                    "internalType": "struct DataTypes.linkAddressData",
                    "name": "linkData",
                    "type": "tuple"
                }
            ],
            "name": "postNote4AddressLink",
            "outputs": [
                {
                    "internalType": "uint256",
                    "name": "",
                    "type": "uint256"
                }
            ],
            "stateMutability": "nonpayable",
            "type": "function"
        },
        {
            "inputs": [
                {
                    "components": [
                        {
                            "internalType": "uint256",
                            "name": "profileId",
                            "type": "uint256"
                        },
                        {
                            "internalType": "string",
                            "name": "contentUri",
                            "type": "string"
                        },
                        {
                            "internalType": "address",
                            "name": "linkModule",
                            "type": "address"
                        },
                        {
                            "internalType": "bytes",
                            "name": "linkModuleInitData",
                            "type": "bytes"
                        },
                        {
                            "internalType": "address",
                            "name": "mintModule",
                            "type": "address"
                        },
                        {
                            "internalType": "bytes",
                            "name": "mintModuleInitData",
                            "type": "bytes"
                        }
                    ],
                    "internalType": "struct DataTypes.PostNoteData",
                    "name": "noteData",
                    "type": "tuple"
                },
                {
                    "components": [
                        {
                            "internalType": "uint256",
                            "name": "fromProfileId",
                            "type": "uint256"
                        },
                        {
                            "internalType": "string",
                            "name": "toUri",
                            "type": "string"
                        },
                        {
                            "internalType": "bytes32",
                            "name": "linkType",
                            "type": "bytes32"
                        },
                        {
                            "internalType": "bytes",
                            "name": "data",
                            "type": "bytes"
                        }
                    ],
                    "internalType": "struct DataTypes.linkAnyData",
                    "name": "linkData",
                    "type": "tuple"
                }
            ],
            "name": "postNote4AnyLink",
            "outputs": [
                {
                    "internalType": "uint256",
                    "name": "",
                    "type": "uint256"
                }
            ],
            "stateMutability": "nonpayable",
            "type": "function"
        },
        {
            "inputs": [
                {
                    "components": [
                        {
                            "internalType": "uint256",
                            "name": "profileId",
                            "type": "uint256"
                        },
                        {
                            "internalType": "string",
                            "name": "contentUri",
                            "type": "string"
                        },
                        {
                            "internalType": "address",
                            "name": "linkModule",
                            "type": "address"
                        },
                        {
                            "internalType": "bytes",
                            "name": "linkModuleInitData",
                            "type": "bytes"
                        },
                        {
                            "internalType": "address",
                            "name": "mintModule",
                            "type": "address"
                        },
                        {
                            "internalType": "bytes",
                            "name": "mintModuleInitData",
                            "type": "bytes"
                        }
                    ],
                    "internalType": "struct DataTypes.PostNoteData",
                    "name": "noteData",
                    "type": "tuple"
                },
                {
                    "components": [
                        {
                            "internalType": "uint256",
                            "name": "fromProfileId",
                            "type": "uint256"
                        },
                        {
                            "internalType": "address",
                            "name": "tokenAddress",
                            "type": "address"
                        },
                        {
                            "internalType": "uint256",
                            "name": "tokenId",
                            "type": "uint256"
                        },
                        {
                            "internalType": "bytes32",
                            "name": "linkType",
                            "type": "bytes32"
                        },
                        {
                            "internalType": "bytes",
                            "name": "data",
                            "type": "bytes"
                        }
                    ],
                    "internalType": "struct DataTypes.linkERC721Data",
                    "name": "linkData",
                    "type": "tuple"
                }
            ],
            "name": "postNote4ERC721Link",
            "outputs": [
                {
                    "internalType": "uint256",
                    "name": "",
                    "type": "uint256"
                }
            ],
            "stateMutability": "nonpayable",
            "type": "function"
        },
        {
            "inputs": [
                {
                    "components": [
                        {
                            "internalType": "uint256",
                            "name": "profileId",
                            "type": "uint256"
                        },
                        {
                            "internalType": "string",
                            "name": "contentUri",
                            "type": "string"
                        },
                        {
                            "internalType": "address",
                            "name": "linkModule",
                            "type": "address"
                        },
                        {
                            "internalType": "bytes",
                            "name": "linkModuleInitData",
                            "type": "bytes"
                        },
                        {
                            "internalType": "address",
                            "name": "mintModule",
                            "type": "address"
                        },
                        {
                            "internalType": "bytes",
                            "name": "mintModuleInitData",
                            "type": "bytes"
                        }
                    ],
                    "internalType": "struct DataTypes.PostNoteData",
                    "name": "noteData",
                    "type": "tuple"
                },
                {
                    "components": [
                        {
                            "internalType": "uint256",
                            "name": "fromProfileId",
                            "type": "uint256"
                        },
                        {
                            "internalType": "uint256",
                            "name": "toLinkListId",
                            "type": "uint256"
                        },
                        {
                            "internalType": "bytes32",
                            "name": "linkType",
                            "type": "bytes32"
                        },
                        {
                            "internalType": "bytes",
                            "name": "data",
                            "type": "bytes"
                        }
                    ],
                    "internalType": "struct DataTypes.linkLinklistData",
                    "name": "linkData",
                    "type": "tuple"
                }
            ],
            "name": "postNote4LinklistLink",
            "outputs": [
                {
                    "internalType": "uint256",
                    "name": "",
                    "type": "uint256"
                }
            ],
            "stateMutability": "nonpayable",
            "type": "function"
        },
        {
            "inputs": [
                {
                    "components": [
                        {
                            "internalType": "uint256",
                            "name": "profileId",
                            "type": "uint256"
                        },
                        {
                            "internalType": "string",
                            "name": "contentUri",
                            "type": "string"
                        },
                        {
                            "internalType": "address",
                            "name": "linkModule",
                            "type": "address"
                        },
                        {
                            "internalType": "bytes",
                            "name": "linkModuleInitData",
                            "type": "bytes"
                        },
                        {
                            "internalType": "address",
                            "name": "mintModule",
                            "type": "address"
                        },
                        {
                            "internalType": "bytes",
                            "name": "mintModuleInitData",
                            "type": "bytes"
                        }
                    ],
                    "internalType": "struct DataTypes.PostNoteData",
                    "name": "noteData",
                    "type": "tuple"
                },
                {
                    "components": [
                        {
                            "internalType": "uint256",
                            "name": "fromProfileId",
                            "type": "uint256"
                        },
                        {
                            "internalType": "uint256",
                            "name": "toProfileId",
                            "type": "uint256"
                        },
                        {
                            "internalType": "uint256",
                            "name": "toNoteId",
                            "type": "uint256"
                        },
                        {
                            "internalType": "bytes32",
                            "name": "linkType",
                            "type": "bytes32"
                        },
                        {
                            "internalType": "bytes",
                            "name": "data",
                            "type": "bytes"
                        }
                    ],
                    "internalType": "struct DataTypes.linkNoteData",
                    "name": "linkData",
                    "type": "tuple"
                }
            ],
            "name": "postNote4NoteLink",
            "outputs": [
                {
                    "internalType": "uint256",
                    "name": "",
                    "type": "uint256"
                }
            ],
            "stateMutability": "nonpayable",
            "type": "function"
        },
        {
            "inputs": [
                {
                    "components": [
                        {
                            "internalType": "uint256",
                            "name": "profileId",
                            "type": "uint256"
                        },
                        {
                            "internalType": "string",
                            "name": "contentUri",
                            "type": "string"
                        },
                        {
                            "internalType": "address",
                            "name": "linkModule",
                            "type": "address"
                        },
                        {
                            "internalType": "bytes",
                            "name": "linkModuleInitData",
                            "type": "bytes"
                        },
                        {
                            "internalType": "address",
                            "name": "mintModule",
                            "type": "address"
                        },
                        {
                            "internalType": "bytes",
                            "name": "mintModuleInitData",
                            "type": "bytes"
                        }
                    ],
                    "internalType": "struct DataTypes.PostNoteData",
                    "name": "noteData",
                    "type": "tuple"
                },
                {
                    "components": [
                        {
                            "internalType": "uint256",
                            "name": "fromProfileId",
                            "type": "uint256"
                        },
                        {
                            "internalType": "uint256",
                            "name": "toProfileId",
                            "type": "uint256"
                        },
                        {
                            "internalType": "bytes32",
                            "name": "linkType",
                            "type": "bytes32"
                        },
                        {
                            "internalType": "bytes",
                            "name": "data",
                            "type": "bytes"
                        }
                    ],
                    "internalType": "struct DataTypes.linkProfileData",
                    "name": "linkData",
                    "type": "tuple"
                }
            ],
            "name": "postNote4ProfileLink",
            "outputs": [
                {
                    "internalType": "uint256",
                    "name": "",
                    "type": "uint256"
                }
            ],
            "stateMutability": "nonpayable",
            "type": "function"
        },
        {
            "inputs": [
                {
                    "internalType": "address",
                    "name": "from",
                    "type": "address"
                },
                {
                    "internalType": "address",
                    "name": "to",
                    "type": "address"
                },
                {
                    "internalType": "uint256",
                    "name": "tokenId",
                    "type": "uint256"
                }
            ],
            "name": "safeTransferFrom",
            "outputs": [],
            "stateMutability": "nonpayable",
            "type": "function"
        },
        {
            "inputs": [
                {
                    "internalType": "address",
                    "name": "from",
                    "type": "address"
                },
                {
                    "internalType": "address",
                    "name": "to",
                    "type": "address"
                },
                {
                    "internalType": "uint256",
                    "name": "tokenId",
                    "type": "uint256"
                },
                {
                    "internalType": "bytes",
                    "name": "_data",
                    "type": "bytes"
                }
            ],
            "name": "safeTransferFrom",
            "outputs": [],
            "stateMutability": "nonpayable",
            "type": "function"
        },
        {
            "inputs": [
                {
                    "internalType": "address",
                    "name": "operator",
                    "type": "address"
                },
                {
                    "internalType": "bool",
                    "name": "approved",
                    "type": "bool"
                }
            ],
            "name": "setApprovalForAll",
            "outputs": [],
            "stateMutability": "nonpayable",
            "type": "function"
        },
        {
            "inputs": [
                {
                    "internalType": "uint256",
                    "name": "profileId",
                    "type": "uint256"
                },
                {
                    "internalType": "string",
                    "name": "newHandle",
                    "type": "string"
                }
            ],
            "name": "setHandle",
            "outputs": [],
            "stateMutability": "nonpayable",
            "type": "function"
        },
        {
            "inputs": [
                {
                    "components": [
                        {
                            "internalType": "address",
                            "name": "account",
                            "type": "address"
                        },
                        {
                            "internalType": "address",
                            "name": "linkModule",
                            "type": "address"
                        },
                        {
                            "internalType": "bytes",
                            "name": "linkModuleInitData",
                            "type": "bytes"
                        }
                    ],
                    "internalType": "struct DataTypes.setLinkModule4AddressData",
                    "name": "vars",
                    "type": "tuple"
                }
            ],
            "name": "setLinkModule4Address",
            "outputs": [],
            "stateMutability": "nonpayable",
            "type": "function"
        },
        {
            "inputs": [
                {
                    "components": [
                        {
                            "internalType": "address",
                            "name": "tokenAddress",
                            "type": "address"
                        },
                        {
                            "internalType": "uint256",
                            "name": "tokenId",
                            "type": "uint256"
                        },
                        {
                            "internalType": "address",
                            "name": "linkModule",
                            "type": "address"
                        },
                        {
                            "internalType": "bytes",
                            "name": "linkModuleInitData",
                            "type": "bytes"
                        }
                    ],
                    "internalType": "struct DataTypes.setLinkModule4ERC721Data",
                    "name": "vars",
                    "type": "tuple"
                }
            ],
            "name": "setLinkModule4ERC721",
            "outputs": [],
            "stateMutability": "nonpayable",
            "type": "function"
        },
        {
            "inputs": [
                {
                    "components": [
                        {
                            "internalType": "uint256",
                            "name": "linklistId",
                            "type": "uint256"
                        },
                        {
                            "internalType": "address",
                            "name": "linkModule",
                            "type": "address"
                        },
                        {
                            "internalType": "bytes",
                            "name": "linkModuleInitData",
                            "type": "bytes"
                        }
                    ],
                    "internalType": "struct DataTypes.setLinkModule4LinklistData",
                    "name": "vars",
                    "type": "tuple"
                }
            ],
            "name": "setLinkModule4Linklist",
            "outputs": [],
            "stateMutability": "nonpayable",
            "type": "function"
        },
        {
            "inputs": [
                {
                    "components": [
                        {
                            "internalType": "uint256",
                            "name": "profileId",
                            "type": "uint256"
                        },
                        {
                            "internalType": "uint256",
                            "name": "noteId",
                            "type": "uint256"
                        },
                        {
                            "internalType": "address",
                            "name": "linkModule",
                            "type": "address"
                        },
                        {
                            "internalType": "bytes",
                            "name": "linkModuleInitData",
                            "type": "bytes"
                        }
                    ],
                    "internalType": "struct DataTypes.setLinkModule4NoteData",
                    "name": "vars",
                    "type": "tuple"
                }
            ],
            "name": "setLinkModule4Note",
            "outputs": [],
            "stateMutability": "nonpayable",
            "type": "function"
        },
        {
            "inputs": [
                {
                    "components": [
                        {
                            "internalType": "uint256",
                            "name": "profileId",
                            "type": "uint256"
                        },
                        {
                            "internalType": "address",
                            "name": "linkModule",
                            "type": "address"
                        },
                        {
                            "internalType": "bytes",
                            "name": "linkModuleInitData",
                            "type": "bytes"
                        }
                    ],
                    "internalType": "struct DataTypes.setLinkModule4ProfileData",
                    "name": "vars",
                    "type": "tuple"
                }
            ],
            "name": "setLinkModule4Profile",
            "outputs": [],
            "stateMutability": "nonpayable",
            "type": "function"
        },
        {
            "inputs": [
                {
                    "internalType": "uint256",
                    "name": "linklistId",
                    "type": "uint256"
                },
                {
                    "internalType": "string",
                    "name": "uri",
                    "type": "string"
                }
            ],
            "name": "setLinklistUri",
            "outputs": [],
            "stateMutability": "nonpayable",
            "type": "function"
        },
        {
            "inputs": [
                {
                    "components": [
                        {
                            "internalType": "uint256",
                            "name": "profileId",
                            "type": "uint256"
                        },
                        {
                            "internalType": "uint256",
                            "name": "noteId",
                            "type": "uint256"
                        },
                        {
                            "internalType": "address",
                            "name": "mintModule",
                            "type": "address"
                        },
                        {
                            "internalType": "bytes",
                            "name": "mintModuleInitData",
                            "type": "bytes"
                        }
                    ],
                    "internalType": "struct DataTypes.setMintModule4NoteData",
                    "name": "vars",
                    "type": "tuple"
                }
            ],
            "name": "setMintModule4Note",
            "outputs": [],
            "stateMutability": "nonpayable",
            "type": "function"
        },
        {
            "inputs": [
                {
                    "internalType": "uint256",
                    "name": "profileId",
                    "type": "uint256"
                }
            ],
            "name": "setPrimaryProfileId",
            "outputs": [],
            "stateMutability": "nonpayable",
            "type": "function"
        },
        {
            "inputs": [
                {
                    "internalType": "uint256",
                    "name": "profileId",
                    "type": "uint256"
                },
                {
                    "internalType": "string",
                    "name": "newUri",
                    "type": "string"
                }
            ],
            "name": "setProfileUri",
            "outputs": [],
            "stateMutability": "nonpayable",
            "type": "function"
        },
        {
            "inputs": [
                {
                    "internalType": "uint256",
                    "name": "profileId",
                    "type": "uint256"
                },
                {
                    "internalType": "address",
                    "name": "tokenAddress",
                    "type": "address"
                }
            ],
            "name": "setSocialToken",
            "outputs": [],
            "stateMutability": "nonpayable",
            "type": "function"
        },
        {
            "inputs": [
                {
                    "internalType": "bytes4",
                    "name": "interfaceId",
                    "type": "bytes4"
                }
            ],
            "name": "supportsInterface",
            "outputs": [
                {
                    "internalType": "bool",
                    "name": "",
                    "type": "bool"
                }
            ],
            "stateMutability": "view",
            "type": "function"
        },
        {
            "inputs": [],
            "name": "symbol",
            "outputs": [
                {
                    "internalType": "string",
                    "name": "",
                    "type": "string"
                }
            ],
            "stateMutability": "view",
            "type": "function"
        },
        {
            "inputs": [
                {
                    "internalType": "uint256",
                    "name": "index",
                    "type": "uint256"
                }
            ],
            "name": "tokenByIndex",
            "outputs": [
                {
                    "internalType": "uint256",
                    "name": "",
                    "type": "uint256"
                }
            ],
            "stateMutability": "view",
            "type": "function"
        },
        {
            "inputs": [
                {
                    "internalType": "address",
                    "name": "owner",
                    "type": "address"
                },
                {
                    "internalType": "uint256",
                    "name": "index",
                    "type": "uint256"
                }
            ],
            "name": "tokenOfOwnerByIndex",
            "outputs": [
                {
                    "internalType": "uint256",
                    "name": "",
                    "type": "uint256"
                }
            ],
            "stateMutability": "view",
            "type": "function"
        },
        {
            "inputs": [
                {
                    "internalType": "uint256",
                    "name": "profileId",
                    "type": "uint256"
                }
            ],
            "name": "tokenURI",
            "outputs": [
                {
                    "internalType": "string",
                    "name": "",
                    "type": "string"
                }
            ],
            "stateMutability": "view",
            "type": "function"
        },
        {
            "inputs": [],
            "name": "totalSupply",
            "outputs": [
                {
                    "internalType": "uint256",
                    "name": "",
                    "type": "uint256"
                }
            ],
            "stateMutability": "view",
            "type": "function"
        },
        {
            "inputs": [
                {
                    "internalType": "address",
                    "name": "from",
                    "type": "address"
                },
                {
                    "internalType": "address",
                    "name": "to",
                    "type": "address"
                },
                {
                    "internalType": "uint256",
                    "name": "tokenId",
                    "type": "uint256"
                }
            ],
            "name": "transferFrom",
            "outputs": [],
            "stateMutability": "nonpayable",
            "type": "function"
        },
        {
            "inputs": [
                {
                    "components": [
                        {
                            "internalType": "uint256",
                            "name": "fromProfileId",
                            "type": "uint256"
                        },
                        {
                            "internalType": "address",
                            "name": "ethAddress",
                            "type": "address"
                        },
                        {
                            "internalType": "bytes32",
                            "name": "linkType",
                            "type": "bytes32"
                        },
                        {
                            "internalType": "bytes",
                            "name": "data",
                            "type": "bytes"
                        }
                    ],
                    "internalType": "struct DataTypes.linkAddressData",
                    "name": "vars",
                    "type": "tuple"
                }
            ],
            "name": "unlinkAddress",
            "outputs": [],
            "stateMutability": "nonpayable",
            "type": "function"
        },
        {
            "inputs": [
                {
                    "components": [
                        {
                            "internalType": "uint256",
                            "name": "fromProfileId",
                            "type": "uint256"
                        },
                        {
                            "internalType": "string",
                            "name": "toUri",
                            "type": "string"
                        },
                        {
                            "internalType": "bytes32",
                            "name": "linkType",
                            "type": "bytes32"
                        }
                    ],
                    "internalType": "struct DataTypes.unlinkAnyData",
                    "name": "vars",
                    "type": "tuple"
                }
            ],
            "name": "unlinkAny",
            "outputs": [],
            "stateMutability": "nonpayable",
            "type": "function"
        },
        {
            "inputs": [
                {
                    "components": [
                        {
                            "internalType": "uint256",
                            "name": "fromProfileId",
                            "type": "uint256"
                        },
                        {
                            "internalType": "address",
                            "name": "tokenAddress",
                            "type": "address"
                        },
                        {
                            "internalType": "uint256",
                            "name": "tokenId",
                            "type": "uint256"
                        },
                        {
                            "internalType": "bytes32",
                            "name": "linkType",
                            "type": "bytes32"
                        }
                    ],
                    "internalType": "struct DataTypes.unlinkERC721Data",
                    "name": "vars",
                    "type": "tuple"
                }
            ],
            "name": "unlinkERC721",
            "outputs": [],
            "stateMutability": "nonpayable",
            "type": "function"
        },
        {
            "inputs": [
                {
                    "components": [
                        {
                            "internalType": "uint256",
                            "name": "fromProfileId",
                            "type": "uint256"
                        },
                        {
                            "internalType": "uint256",
                            "name": "toLinkListId",
                            "type": "uint256"
                        },
                        {
                            "internalType": "bytes32",
                            "name": "linkType",
                            "type": "bytes32"
                        },
                        {
                            "internalType": "bytes",
                            "name": "data",
                            "type": "bytes"
                        }
                    ],
                    "internalType": "struct DataTypes.linkLinklistData",
                    "name": "vars",
                    "type": "tuple"
                }
            ],
            "name": "unlinkLinklist",
            "outputs": [],
            "stateMutability": "nonpayable",
            "type": "function"
        },
        {
            "inputs": [
                {
                    "components": [
                        {
                            "internalType": "uint256",
                            "name": "fromProfileId",
                            "type": "uint256"
                        },
                        {
                            "internalType": "uint256",
                            "name": "toProfileId",
                            "type": "uint256"
                        },
                        {
                            "internalType": "uint256",
                            "name": "toNoteId",
                            "type": "uint256"
                        },
                        {
                            "internalType": "bytes32",
                            "name": "linkType",
                            "type": "bytes32"
                        }
                    ],
                    "internalType": "struct DataTypes.unlinkNoteData",
                    "name": "vars",
                    "type": "tuple"
                }
            ],
            "name": "unlinkNote",
            "outputs": [],
            "stateMutability": "nonpayable",
            "type": "function"
        },
        {
            "inputs": [
                {
                    "components": [
                        {
                            "internalType": "uint256",
                            "name": "fromProfileId",
                            "type": "uint256"
                        },
                        {
                            "internalType": "uint256",
                            "name": "toProfileId",
                            "type": "uint256"
                        },
                        {
                            "internalType": "bytes32",
                            "name": "linkType",
                            "type": "bytes32"
                        }
                    ],
                    "internalType": "struct DataTypes.unlinkProfileData",
                    "name": "vars",
                    "type": "tuple"
                }
            ],
            "name": "unlinkProfile",
            "outputs": [],
            "stateMutability": "nonpayable",
            "type": "function"
        },
        {
            "inputs": [
                {
                    "internalType": "uint256",
                    "name": "fromProfileId",
                    "type": "uint256"
                },
                {
                    "components": [
                        {
                            "internalType": "uint256",
                            "name": "fromProfileId",
                            "type": "uint256"
                        },
                        {
                            "internalType": "uint256",
                            "name": "toProfileId",
                            "type": "uint256"
                        },
                        {
                            "internalType": "bytes32",
                            "name": "linkType",
                            "type": "bytes32"
                        }
                    ],
                    "internalType": "struct DataTypes.ProfileLinkStruct",
                    "name": "linkData",
                    "type": "tuple"
                },
                {
                    "internalType": "bytes32",
                    "name": "linkType",
                    "type": "bytes32"
                }
            ],
            "name": "unlinkProfileLink",
            "outputs": [],
            "stateMutability": "nonpayable",
            "type": "function"
        }
    ],
    "bytecode": "0x608060405234801561001057600080fd5b5061550e806100206000396000f3fe608060405234801561001057600080fd5b50600436106104335760003560e01c80637c392b5111610236578063b9d328451161013b578063d23b320b116100c3578063dca2713511610087578063dca2713514610a0d578063e985e9c514610a20578063ec81d19414610a5c578063f08f4f6414610a6f578063fe9299fb14610a8257600080fd5b8063d23b320b14610989578063d36a2dce1461099c578063d70e10c6146109af578063db491e80146109da578063db8c198d146109fa57600080fd5b8063c387c4531161010a578063c387c4531461092a578063c7009c6b1461093d578063c87b56dd14610950578063cb8e757e14610963578063cba4f5cc1461097657600080fd5b8063b9d32845146108e0578063bd5f69cb146108f3578063c053f6b814610906578063c2a6fe3b1461091757600080fd5b806395d9fa7d116101be578063a6e6178d1161018d578063a6e6178d14610881578063a7ccb4bf14610894578063a914c76e146108a7578063b88d4fde146108ba578063b9ad7c7f146108cd57600080fd5b806395d9fa7d146108185780639864c3071461082b578063a10f53d81461083e578063a22cb4651461086e57600080fd5b806386833c881161020557806386833c88146107c45780638b4ca06a146107d75780638e4bf54e146107ea5780638f15b414146107fd57806395d89b411461081057600080fd5b80637c392b511461076b5780637cf474831461077e57806383d3717514610791578063867884e6146107b157600080fd5b80632f745c591161033c5780634f6ccce7116102c45780635bf1aaaa116102935780635bf1aaaa1461070c5780636352211e1461071f57806369492c971461073257806370a08231146107455780637936da0e1461075857600080fd5b80634f6ccce7146106c0578063515d42d2146106d3578063570477fb146106e65780635b507cfd146106f957600080fd5b806340ad34d81161030b57806340ad34d81461066157806342842e0e1461067457806342966c6814610687578063490da8541461069a5780634f23983a146106ad57600080fd5b80632f745c59146105fc57806331b9d08c1461060f57806333f06ee61461063b578063388f50831461064e57600080fd5b80631316529d116103bf57806323b872dd1161038e57806323b872dd1461059d578063251a99cf146105b0578063295cb43e146105c35780632c8bd87e146105d65780632e0e9a62146105e957600080fd5b80631316529d1461052f57806318160ddd146105365780631bb4d2311461053e5780632209d1451461056757600080fd5b806308cb68ff1161040657806308cb68ff146104c1578063095ea7b3146104d65780630ab6beba146104e95780630c16de10146104fc5780630c4dd5f21461051c57600080fd5b806301a0f5a71461043857806301ffc9a71461045e57806306fdde0314610481578063081812fc14610496575b600080fd5b61044b6104463660046140a9565b610aab565b6040519081526020015b60405180910390f35b61047161046c366004614122565b610ba5565b6040519015158152602001610455565b610489610bd0565b6040516104559190614197565b6104a96104a43660046141aa565b610c62565b6040516001600160a01b039091168152602001610455565b6104d46104cf3660046141d5565b610cfc565b005b6104d46104e436600461421e565b610d95565b6104d46104f736600461424a565b610eab565b61050f61050a3660046142ae565b610ee8565b60405161045591906142ef565b6104d461052a3660046141d5565b611097565b600361044b565b60085461044b565b61044b61054c36600461436b565b6001600160a01b03166000908152600c602052604090205490565b6104a961057536600461421e565b6001600160a01b03918216600090815260106020908152604080832093835292905220541690565b6104d46105ab366004614388565b6110fc565b6104d46105be36600461424a565b61112d565b6104d46105d13660046141aa565b6111bd565b61044b6105e43660046143db565b611203565b61044b6105f73660046140a9565b61127a565b61044b61060a36600461421e565b6112bc565b6104a961061d36600461436b565b6001600160a01b039081166000908152601160205260409020541690565b6104d4610649366004614434565b611352565b6104d461065c36600461447f565b6113c6565b6104d461066f3660046144b3565b611419565b6104d4610682366004614388565b611493565b6104d46106953660046141aa565b6114ae565b61044b6106a83660046140a9565b61154b565b6104d46106bb36600461447f565b6115a8565b61044b6106ce3660046141aa565b6115fb565b6104d46106e13660046144cf565b61168e565b6104d46106f43660046144f1565b6117bc565b6104d46107073660046141d5565b61185b565b61044b61071a3660046143db565b6118d4565b6104a961072d3660046141aa565b611911565b6104d461074036600461447f565b611988565b61044b61075336600461436b565b611a0e565b6104d46107663660046144cf565b611a95565b6104d4610779366004614434565b611b5a565b61044b61078c3660046140a9565b611bbf565b6107a461079f366004614527565b611c04565b60405161045591906145c2565b6104d46107bf3660046144b3565b611e1a565b6104d46107d236600461447f565b611e8a565b61044b6107e53660046141aa565b611ef9565b6104d46107f83660046141d5565b611f65565b6104d461080b366004614624565b611fd4565b61048961211b565b6104d46108263660046146b8565b61212a565b6104d461083936600461447f565b6121b0565b61047161084c36600461436b565b6001600160a01b03167396e96b7af62d628ce7eb2016d2c1d2786614ea731490565b6104d461087c3660046146e8565b612203565b6104d461088f366004614434565b612212565b61044b6108a236600461447f565b61225c565b6104d46108b536600461447f565b612300565b6104d46108c8366004614788565b6123fd565b6104d46108db36600461447f565b612435565b6104d46108ee366004614836565b6124a4565b6104d4610901366004614836565b61250c565b6013546001600160a01b03166104a9565b6104d46109253660046144cf565b61260c565b6104716109383660046141aa565b61264e565b6104d461094b3660046144f1565b61267c565b61048961095e3660046141aa565b6126d2565b6104d4610971366004614836565b612777565b6104896109843660046141aa565b6127e7565b6104d461099736600461447f565b6127f2565b61044b6109aa36600461486a565b61286c565b61044b6109bd3660046144cf565b6000918252600d6020908152604080842092845291905290205490565b6109ed6109e83660046144cf565b612918565b604051610455919061489e565b6104d4610a0836600461447f565b612a5e565b610489610a1b3660046141aa565b612aa8565b610471610a2e3660046148b1565b6001600160a01b03918216600090815260056020908152604080832093909416825291909152205460ff1690565b610489610a6a3660046141aa565b612b1a565b61050f610a7d3660046141aa565b612b3a565b6104a9610a903660046141aa565b6000908152600f60205260409020546001600160a01b031690565b6000610ab78335612cc1565b66416e794c696e6b60c81b6000610ad160208501856148df565b604051602001610ae2929190614925565b6040516020818303038152906040528051906020012090506000600a60008660000135815260200190815260200160002060030160008154610b239061495e565b9182905550604051631d642ea560e11b815290915073__$2873850e5b3f5697aafc2f5cd9f27cc884$__90633ac85d4a90610b6b908990859088908890600e90600401614a95565b60006040518083038186803b158015610b8357600080fd5b505af4158015610b97573d6000803e3d6000fd5b509298975050505050505050565b60006001600160e01b0319821663780e9d6360e01b1480610bca5750610bca82612d49565b92915050565b606060008054610bdf90614acc565b80601f0160208091040260200160405190810160405280929190818152602001828054610c0b90614acc565b8015610c585780601f10610c2d57610100808354040283529160200191610c58565b820191906000526020600020905b815481529060010190602001808311610c3b57829003601f168201915b5050505050905090565b6000818152600260205260408120546001600160a01b0316610ce05760405162461bcd60e51b815260206004820152602c60248201527f4552433732313a20617070726f76656420717565727920666f72206e6f6e657860448201526b34b9ba32b73a103a37b5b2b760a11b60648201526084015b60405180910390fd5b506000908152600460205260409020546001600160a01b031690565b73__$69db18565ecbefece480e92cc5f8fb1274$__63dfc34f25610d23602084018461436b565b610d33604085016020860161436b565b610d4060408601866148df565b60116040518663ffffffff1660e01b8152600401610d62959493929190614b01565b60006040518083038186803b158015610d7a57600080fd5b505af4158015610d8e573d6000803e3d6000fd5b5050505050565b6000610da082611911565b9050806001600160a01b0316836001600160a01b03161415610e0e5760405162461bcd60e51b815260206004820152602160248201527f4552433732313a20617070726f76616c20746f2063757272656e74206f776e656044820152603960f91b6064820152608401610cd7565b336001600160a01b0382161480610e2a5750610e2a8133610a2e565b610e9c5760405162461bcd60e51b815260206004820152603860248201527f4552433732313a20617070726f76652063616c6c6572206973206e6f74206f7760448201527f6e6572206e6f7220617070726f76656420666f7220616c6c00000000000000006064820152608401610cd7565b610ea68383612d99565b505050565b610ee58135610ec0604084016020850161436b565b836040013560405180604001604052806002815260200161060f60f31b815250612e07565b50565b610ef0613f64565b60008383604051610f02929190614b40565b604080519182900382206000818152600b602090815283822054808352600a82529184902060c0860190945283548552600184018054939650919493929084019190610f4d90614acc565b80601f0160208091040260200160405190810160405280929190818152602001828054610f7990614acc565b8015610fc65780601f10610f9b57610100808354040283529160200191610fc6565b820191906000526020600020905b815481529060010190602001808311610fa957829003601f168201915b50505050508152602001600282018054610fdf90614acc565b80601f016020809104026020016040519081016040528092919081815260200182805461100b90614acc565b80156110585780601f1061102d57610100808354040283529160200191611058565b820191906000526020600020905b81548152906001019060200180831161103b57829003601f168201915b50505091835250506003820154602082015260048201546001600160a01b03908116604083015260059092015490911660609091015295945050505050565b6110a18135613096565b73__$69db18565ecbefece480e92cc5f8fb1274$__636252159e82356110cd604085016020860161436b565b6110da60408601866148df565b600f6040518663ffffffff1660e01b8152600401610d62959493929190614b50565b6111063382613156565b6111225760405162461bcd60e51b8152600401610cd790614b7b565b610ea683838361324d565b6111378135612cc1565b60135481356000818152600d60209081526040808320818701358085529083529281902054905163eb23376360e01b8152600481019490945290850135602484015260448301919091526001600160a01b039092166064820152608481019190915273__$e2c9a8f399964af47bb173600dd9e5f662$__9063eb2337639060a401610d62565b6111c681612cc1565b336000818152600c6020526040808220849055518392917f444dbf26d795c263ce4e5f2fccaac8e71b73cb37091f74e9e4f76cd98b55f8d391a350565b600061120f8335612cc1565b61122c611222604084016020850161436b565b83604001356133f4565b694552433732314c696e6b60b01b600061124c604085016020860161436b565b6040805160609290921b6bffffffffffffffffffffffff191660208301528501356034820152605401610ae2565b60006112868335612cc1565b81356000908152600a6020908152604082206003018054674c6973744c696e6b60c01b93928601359291908290610b239061495e565b60006112c783611a0e565b82106113295760405162461bcd60e51b815260206004820152602b60248201527f455243373231456e756d657261626c653a206f776e657220696e646578206f7560448201526a74206f6620626f756e647360a81b6064820152608401610cd7565b506001600160a01b03919091166000908152600660209081526040808320938352929052205490565b61135b83613096565b601354604051633c17845760e11b81526001600160a01b039091169063782f08ae9061138f90869086908690600401614bcc565b600060405180830381600087803b1580156113a957600080fd5b505af11580156113bd573d6000803e3d6000fd5b50505050505050565b6113d08135612cc1565b60135460405163e4bb4f2360e01b815273__$e2c9a8f399964af47bb173600dd9e5f662$__9163e4bb4f2391610d629185916001600160a01b0390911690600d90600401614c3d565b6114238135612cc1565b60135460408051635cebf08d60e11b81528335600482015260208401356024820152908301356044820152606083013560648201526001600160a01b039091166084820152600d60a482015273__$e2c9a8f399964af47bb173600dd9e5f662$__9063b9d7e11a9060c401610d62565b610ea6838383604051806020016040528060008152506123fd565b6114b7816134a4565b6000818152600a602052604080822090516114d59160010190614c6b565b60408051918290039091206000818152600b6020908152838220829055858252600a9052918220828155909250906115106001830182613fac565b61151e600283016000613fac565b50600060038201556004810180546001600160a01b03199081169091556005909101805490911690555050565b60006115578335612cc1565b6a416464726573734c696e6b60a81b6000611578604085016020860161436b565b84356000908152600a6020526040812060030180546001600160a01b0393909316935090918290610b239061495e565b6115b28135612cc1565b60135460405163283b0d6160e21b815273__$e2c9a8f399964af47bb173600dd9e5f662$__9163a0ec358491610d629185916001600160a01b0390911690600d90600401614d07565b600061160660085490565b82106116695760405162461bcd60e51b815260206004820152602c60248201527f455243373231456e756d657261626c653a20676c6f62616c20696e646578206f60448201526b7574206f6620626f756e647360a01b6064820152608401610cd7565b6008828154811061167c5761167c614d84565b90600052602060002001549050919050565b61169781612cc1565b60135460405162fba02760e01b8152600481018490526000916001600160a01b03169062fba02790602401602060405180830381865afa1580156116df573d6000803e3d6000fd5b505050506040513d601f19601f820116820180604052508101906117039190614d9a565b601354604051631c5b266960e21b815260048101869052336024820152604481018590529192506001600160a01b03169063716c99a490606401600060405180830381600087803b15801561175757600080fd5b505af115801561176b573d6000803e3d6000fd5b5050506000838152600d6020908152604080832085845290915280822086905551839250849186917f94703ec1dd639b589d05fa7c0c14ee1e83b906bfb5f50642cc7ea415a81722889190a4505050565b6117c583612cc1565b60135482356000908152600d602090815260408083208187013584529091529081902054905163d1b430f760e01b815273__$e2c9a8f399964af47bb173600dd9e5f662$__9263d1b430f79261182f928892889288926001600160a01b0390921691600401614db3565b60006040518083038186803b15801561184757600080fd5b505af41580156113bd573d6000803e3d6000fd5b6118658135612cc1565b73__$da066dc100670b51e733250a114f607b42$__631e2b88ba8235611891604085016020860161436b565b61189e60408601866148df565b86356000908152600a60205260409081902090516001600160e01b031960e088901b168152610d62959493929190600401614b50565b60006118e08335612cc1565b60408051602084810135908201528382013591810191909152674e6f74654c696e6b60c01b90600090606001610ae2565b6000818152600260205260408120546001600160a01b031680610bca5760405162461bcd60e51b815260206004820152602960248201527f4552433732313a206f776e657220717565727920666f72206e6f6e657869737460448201526832b73a103a37b5b2b760b91b6064820152608401610cd7565b6119a2611998602083018361436b565b8260200135613503565b73__$69db18565ecbefece480e92cc5f8fb1274$__63384afeb36119c9602084018461436b565b60208401356119de606086016040870161436b565b6119eb60608701876148df565b60106040518763ffffffff1660e01b8152600401610d6296959493929190614e00565b60006001600160a01b038216611a795760405162461bcd60e51b815260206004820152602a60248201527f4552433732313a2062616c616e636520717565727920666f7220746865207a65604482015269726f206164647265737360b01b6064820152608401610cd7565b506001600160a01b031660009081526003602052604090205490565b611a9e81612cc1565b60135460405162fba02760e01b8152600481018490526000916001600160a01b03169062fba02790602401602060405180830381865afa158015611ae6573d6000803e3d6000fd5b505050506040513d601f19601f82011682018060405250810190611b0a9190614d9a565b6000838152600d60209081526040808320848452909152808220829055519192508291849186917f5751ba9aebec2dcd504f8865b0e0c98a772403773fe528fce2fce580c9a8a1659190a4505050565b611b6383612cc1565b6000838152600a60205260409020611b7f906002018383613fe6565b50827fc6b6b2c87fb0784186dd03398c7203c866d0ae59539fa3158aecbc86cb587a958383604051611bb2929190614e47565b60405180910390a2505050565b6000611bcb8335612cc1565b81356000908152600a60209081526040822060030180546a50726f66696c654c696e6b60a81b93928601359291908290610b239061495e565b6000838152600a6020526040902060030154606090611c2c83611c278684614e5b565b6135bd565b9250826001600160401b03811115611c4657611c4661471b565b604051908082528060200260200182016040528015611cae57816020015b6040805160e0810182526000808252602080830182905260609383018490529282018190526080820181905260a0820181905260c08201528252600019909201910181611c645790505b509150808410611cbe5750611e13565b835b83811015611e1057600e600087815260200190815260200160002060008281526020019081526020016000206040518060e00160405290816000820154815260200160018201548152602001600282018054611d1b90614acc565b80601f0160208091040260200160405190810160405280929190818152602001828054611d4790614acc565b8015611d945780601f10611d6957610100808354040283529160200191611d94565b820191906000526020600020905b815481529060010190602001808311611d7757829003601f168201915b505050918352505060038201546001600160a01b0390811660208301526004830154811660408301526005909201549182166060820152600160a01b90910460ff1615156080909101528351849083908110611df257611df2614d84565b60200260200101819052508080611e089061495e565b915050611cc0565b50505b9392505050565b611e248135612cc1565b60135481356000908152600d6020908152604080832060608601358452909152908190205490516317e9a8b160e31b815273__$e2c9a8f399964af47bb173600dd9e5f662$__9263bf4d458892610d629286926001600160a01b03169190600401614e72565b611e948135612cc1565b60135481356000908152600d6020908152604080832081860135845290915290819020549051631a530d7760e21b815273__$e2c9a8f399964af47bb173600dd9e5f662$__9263694c35dc92610d629286926001600160a01b03169190600401614eeb565b60135460405162fba02760e01b8152600481018390526000916001600160a01b03169062fba02790602401602060405180830381865afa158015611f41573d6000803e3d6000fd5b505050506040513d601f19601f82011682018060405250810190610bca9190614d9a565b611f6f8135612cc1565b60135481356000908152600d6020908152604080832081860135845290915290819020549051634c1aaf3160e01b815273__$e2c9a8f399964af47bb173600dd9e5f662$__92634c1aaf3192610d629286926001600160a01b03169190600401614efe565b601454600160a81b900460ff16611ff857601454600160a01b900460ff1615611ffc565b303b155b61205f5760405162461bcd60e51b815260206004820152602e60248201527f496e697469616c697a61626c653a20636f6e747261637420697320616c72656160448201526d191e481a5b9a5d1a585b1a5e995960921b6064820152608401610cd7565b601454600160a81b900460ff16158015612089576014805461ffff60a01b191661010160a01b1790555b612095878787876135d3565b601380546001600160a01b038086166001600160a01b03199283161790925560148054928516929091169190911790556040517f400175a56dd3710794078f7b9dbe8296ac94c5a248dfd51bb22ed4ab9eaa9fbf906120f79042815260200190565b60405180910390a180156113bd576014805460ff60a81b1916905550505050505050565b606060018054610bdf90614acc565b61213382612cc1565b60405163470c9bf360e11b8152600481018390526001600160a01b0382166024820152600a604482015273__$da066dc100670b51e733250a114f607b42$__90638e1937e69060640160006040518083038186803b15801561219457600080fd5b505af41580156121a8573d6000803e3d6000fd5b505050505050565b6121ba8135612cc1565b601354604051635fe5df1d60e11b815273__$e2c9a8f399964af47bb173600dd9e5f662$__9163bfcbbe3a91610d629185916001600160a01b0390911690600d90600401614eeb565b61220e338383613624565b5050565b61221b83612cc1565b60405163c57cb53760e01b815273__$da066dc100670b51e733250a114f607b42$__9063c57cb5379061182f90869086908690600b90600a90600401614f56565b600061226d823560208401356136f3565b73__$2873850e5b3f5697aafc2f5cd9f27cc884$__6379b8a9988335602085013561229e606087016040880161436b565b6122ab60608801886148df565b6014546040516001600160e01b031960e089901b1681526122e39695949392916001600160a01b031690600a90600e90600401614f84565b602060405180830381865af4158015611f41573d6000803e3d6000fd5b61230a8135612cc1565b61231781602001356137a8565b73__$e2c9a8f399964af47bb173600dd9e5f662$__634fcfb9b082356020840135604085013561234a60608701876148df565b6040516331a9108f60e11b8152883560048201523090636352211e90602401602060405180830381865afa158015612386573d6000803e3d6000fd5b505050506040513d601f19601f820116820180604052508101906123aa9190614fd2565b6013546020808b01356000908152600a9091526040908190206005015490516001600160e01b031960e08b901b168152610d62989796959493926001600160a01b03908116921690600d90600401614fef565b6124073383613156565b6124235760405162461bcd60e51b8152600401610cd790614b7b565b61242f848484846137ff565b50505050565b61243f8135612cc1565b60135481356000908152600d60209081526040808320818601358452909152908190205490516352bff63d60e01b815273__$e2c9a8f399964af47bb173600dd9e5f662$__926352bff63d92610d629286926001600160a01b03169190600401614c3d565b6124ae8135612cc1565b6124c0816020013582604001356136f3565b601354604051631619823f60e31b815273__$e2c9a8f399964af47bb173600dd9e5f662$__9163b0cc11f891610d629185916001600160a01b0390911690600e90600d90600401615049565b60125461251a9060016150bf565b60125561253561252d602083018361436b565b601254613832565b6012546040516328837e1960e21b815273__$da066dc100670b51e733250a114f607b42$__9163a20df8649161257991859160019190600b90600a906004016150d7565b60006040518083038186803b15801561259157600080fd5b505af41580156125a5573d6000803e3d6000fd5b50600c9250600091506125bd9050602084018461436b565b6001600160a01b03168152602081019190915260400160002054610ee557601254600c60006125ef602085018561436b565b6001600160a01b0316815260208101919091526040016000205550565b61261582612cc1565b61261f82826136f3565b6000918252600e602090815260408084209284529190529020600501805460ff60a01b1916600160a01b179055565b60008061265a83611911565b6001600160a01b03166000908152600c60205260409020549290921492915050565b61268583612cc1565b6013546040516327e70cd360e01b815273__$e2c9a8f399964af47bb173600dd9e5f662$__916327e70cd39161182f918791879187916001600160a01b0390911690600d90600401614db3565b6000818152600a602052604090206002018054606091906126f290614acc565b80601f016020809104026020016040519081016040528092919081815260200182805461271e90614acc565b801561276b5780601f106127405761010080835404028352916020019161276b565b820191906000526020600020905b81548152906001019060200180831161274e57829003601f168201915b50505050509050919050565b6127818135612cc1565b61279e612794604083016020840161436b565b82604001356133f4565b601354604051638f3334ff60e01b815273__$e2c9a8f399964af47bb173600dd9e5f662$__91638f3334ff91610d629185916001600160a01b0390911690600d906004016151b8565b6060610bca826126d2565b6127fc8135612cc1565b61280b813560208301356136f3565b73__$69db18565ecbefece480e92cc5f8fb1274$__6320828a028235602084013561283c606086016040870161436b565b61284960608701876148df565b600e6040518763ffffffff1660e01b8152600401610d6296959493929190615230565b60006128788235612cc1565b81356000908152600a60205260408120600301805482906128989061495e565b9182905550604051631d642ea560e11b815290915073__$2873850e5b3f5697aafc2f5cd9f27cc884$__90633ac85d4a906128e190869085906000908190600e90600401614a95565b60006040518083038186803b1580156128f957600080fd5b505af415801561290d573d6000803e3d6000fd5b509295945050505050565b6040805160e0808201835260008083526020808401829052606084860181905284018290526080840182905260a0840182905260c08401829052868252600e8152848220868352815290849020845192830185528054835260018101549183019190915260028101805493949293919284019161299490614acc565b80601f01602080910402602001604051908101604052809291908181526020018280546129c090614acc565b8015612a0d5780601f106129e257610100808354040283529160200191612a0d565b820191906000526020600020905b8154815290600101906020018083116129f057829003601f168201915b505050918352505060038201546001600160a01b0390811660208301526004830154811660408301526005909201549182166060820152600160a01b90910460ff1615156080909101529392505050565b612a688135612cc1565b612a77813560208301356136f3565b73__$69db18565ecbefece480e92cc5f8fb1274$__631f2ffb698235602084013561283c606086016040870161436b565b601354604051632b05429560e21b8152600481018390526060916001600160a01b03169063ac150a5490602401600060405180830381865afa158015612af2573d6000803e3d6000fd5b505050506040513d6000823e601f3d908101601f19168201604052610bca919081019061525e565b6000818152600a602052604090206001018054606091906126f290614acc565b612b42613f64565b600a60008381526020019081526020016000206040518060c001604052908160008201548152602001600182018054612b7a90614acc565b80601f0160208091040260200160405190810160405280929190818152602001828054612ba690614acc565b8015612bf35780601f10612bc857610100808354040283529160200191612bf3565b820191906000526020600020905b815481529060010190602001808311612bd657829003601f168201915b50505050508152602001600282018054612c0c90614acc565b80601f0160208091040260200160405190810160405280929190818152602001828054612c3890614acc565b8015612c855780601f10612c5a57610100808354040283529160200191612c85565b820191906000526020600020905b815481529060010190602001808311612c6857829003601f168201915b50505091835250506003820154602082015260048201546001600160a01b03908116604083015260059092015490911660609091015292915050565b6000612ccc82611911565b9050336001600160a01b0382161480612d0b5750326001600160a01b038216148015612d0b57507396e96b7af62d628ce7eb2016d2c1d2786614ea7333145b61220e5760405162461bcd60e51b815260206004820152600f60248201526e2737ba283937b334b632a7bbb732b960891b6044820152606401610cd7565b60006001600160e01b031982166380ac58cd60e01b1480612d7a57506001600160e01b03198216635b5e139f60e01b145b80610bca57506301ffc9a760e01b6001600160e01b0319831614610bca565b600081815260046020526040902080546001600160a01b0319166001600160a01b0384169081179091558190612dce82611911565b6001600160a01b03167f8c5be1e5ebec7d5bd14f71427d1e84f3dd0314c0f7b2291e5b200ac8c7c3b92560405160405180910390a45050565b612e1084612cc1565b6001600160a01b0383166000908152600c602052604090205415612e8a5760405162461bcd60e51b815260206004820152602b60248201527f546172676574206164647265737320616c726561647920686173207072696d6160448201526a393c90383937b334b6329760a91b6064820152608401610cd7565b6000601260008154612e9b9061495e565b91829055509050612eac8482613832565b73__$da066dc100670b51e733250a114f607b42$__63a20df8646040518060a00160405280876001600160a01b03168152602001612ef4886001600160a01b03166014613980565b815260200160405180602001604052806000815250815260200160006001600160a01b0316815260200160405180602001604052806000815250815250600084600b600a6040518663ffffffff1660e01b8152600401612f589594939291906152cb565b60006040518083038186803b158015612f7057600080fd5b505af4158015612f84573d6000803e3d6000fd5b505050506001600160a01b0384166000908152600c602052604090819020829055516331a9108f60e11b81526004810186905273__$e2c9a8f399964af47bb173600dd9e5f662$__90634fcfb9b09087908490879087903090636352211e90602401602060405180830381865afa158015613003573d6000803e3d6000fd5b505050506040513d601f19601f820116820180604052508101906130279190614fd2565b6013546040516001600160e01b031960e089901b16815261305f9695949392916001600160a01b031690600090600d90600401615358565b60006040518083038186803b15801561307757600080fd5b505af415801561308b573d6000803e3d6000fd5b505050505050505050565b6013546040516331a9108f60e11b8152600481018390526001600160a01b0390911690636352211e90602401602060405180830381865afa1580156130df573d6000803e3d6000fd5b505050506040513d601f19601f820116820180604052508101906131039190614fd2565b6001600160a01b0316336001600160a01b031614610ee55760405162461bcd60e51b815260206004820152601060248201526f2737ba2634b735a634b9ba27bbb732b960811b6044820152606401610cd7565b6000818152600260205260408120546001600160a01b03166131cf5760405162461bcd60e51b815260206004820152602c60248201527f4552433732313a206f70657261746f7220717565727920666f72206e6f6e657860448201526b34b9ba32b73a103a37b5b2b760a11b6064820152608401610cd7565b60006131da83611911565b9050806001600160a01b0316846001600160a01b031614806132155750836001600160a01b031661320a84610c62565b6001600160a01b0316145b8061324557506001600160a01b0380821660009081526005602090815260408083209388168352929052205460ff165b949350505050565b826001600160a01b031661326082611911565b6001600160a01b0316146132c45760405162461bcd60e51b815260206004820152602560248201527f4552433732313a207472616e736665722066726f6d20696e636f72726563742060448201526437bbb732b960d91b6064820152608401610cd7565b6001600160a01b0382166133265760405162461bcd60e51b8152602060048201526024808201527f4552433732313a207472616e7366657220746f20746865207a65726f206164646044820152637265737360e01b6064820152608401610cd7565b613331838383613b1b565b61333c600082612d99565b6001600160a01b0383166000908152600360205260408120805460019290613365908490614e5b565b90915550506001600160a01b03821660009081526003602052604081208054600192906133939084906150bf565b909155505060008181526002602052604080822080546001600160a01b0319166001600160a01b0386811691821790925591518493918716917fddf252ad1be2c89b69c2b068fc378daa952ba7f163c4a11628f55a4df523b3ef91a4505050565b6040516331a9108f60e11b8152600481018290526001600160a01b03831690636352211e90602401602060405180830381865afa158015613439573d6000803e3d6000fd5b505050506040513d601f19601f8201168201806040525081019061345d9190614fd2565b6001600160a01b031661220e5760405162461bcd60e51b815260206004820152600f60248201526e5245433732314e6f7445786973747360881b6044820152606401610cd7565b6134ae3382613156565b6134fa5760405162461bcd60e51b815260206004820152601b60248201527f4e4654426173653a204e6f744f776e65724f72417070726f76656400000000006044820152606401610cd7565b610ee581613b5e565b6040516331a9108f60e11b8152600481018290526001600160a01b03831690636352211e90602401602060405180830381865afa158015613548573d6000803e3d6000fd5b505050506040513d601f19601f8201168201806040525081019061356c9190614fd2565b6001600160a01b0316336001600160a01b03161461220e5760405162461bcd60e51b815260206004820152600e60248201526d2737ba22a9219b9918a7bbb732b960911b6044820152606401610cd7565b60008183106135cc5781611e13565b5090919050565b6135df84848484613c05565b7f414cd0b34676984f09a5f76ce9718d4062e50283abe0e7e274a9a5b4e0c99c3084848484426040516136169594939291906153b0565b60405180910390a150505050565b816001600160a01b0316836001600160a01b031614156136865760405162461bcd60e51b815260206004820152601960248201527f4552433732313a20617070726f766520746f2063616c6c6572000000000000006044820152606401610cd7565b6001600160a01b03838116600081815260056020908152604080832094871680845294825291829020805460ff191686151590811790915591519182527f17307eab39ab6107e8899845ad3d59bd9653f200f220920489ca2b5937696c31910160405180910390a3505050565b6000828152600e60209081526040808320848452909152902060050154600160a01b900460ff16156137575760405162461bcd60e51b815260206004820152600d60248201526c139bdd19525cd1195b195d1959609a1b6044820152606401610cd7565b6000828152600a602052604090206003015481111561220e5760405162461bcd60e51b815260206004820152600d60248201526c4e6f74654e6f7445786973747360981b6044820152606401610cd7565b6000818152600260205260409020546001600160a01b0316610ee55760405162461bcd60e51b815260206004820152601060248201526f50726f66696c654e6f7445786973747360801b6044820152606401610cd7565b61380a84848461324d565b61381684848484613c1e565b61242f5760405162461bcd60e51b8152600401610cd7906153ea565b6001600160a01b0382166138885760405162461bcd60e51b815260206004820181905260248201527f4552433732313a206d696e7420746f20746865207a65726f20616464726573736044820152606401610cd7565b6000818152600260205260409020546001600160a01b0316156138ed5760405162461bcd60e51b815260206004820152601c60248201527f4552433732313a20746f6b656e20616c7265616479206d696e746564000000006044820152606401610cd7565b6138f960008383613b1b565b6001600160a01b03821660009081526003602052604081208054600192906139229084906150bf565b909155505060008181526002602052604080822080546001600160a01b0319166001600160a01b03861690811790915590518392907fddf252ad1be2c89b69c2b068fc378daa952ba7f163c4a11628f55a4df523b3ef908290a45050565b6060600061398f83600261543c565b61399a9060026150bf565b6001600160401b038111156139b1576139b161471b565b6040519080825280601f01601f1916602001820160405280156139db576020820181803683370190505b509050600360fc1b816000815181106139f6576139f6614d84565b60200101906001600160f81b031916908160001a905350600f60fb1b81600181518110613a2557613a25614d84565b60200101906001600160f81b031916908160001a9053506000613a4984600261543c565b613a549060016150bf565b90505b6001811115613acc576f181899199a1a9b1b9c1cb0b131b232b360811b85600f1660108110613a8857613a88614d84565b1a60f81b828281518110613a9e57613a9e614d84565b60200101906001600160f81b031916908160001a90535060049490941c93613ac58161545b565b9050613a57565b508315611e135760405162461bcd60e51b815260206004820181905260248201527f537472696e67733a20686578206c656e67746820696e73756666696369656e746044820152606401610cd7565b6001600160a01b0383166000908152600c602052604090205415613b53576001600160a01b0383166000908152600c60205260408120555b610ea6838383613d1c565b6000613b6982611911565b9050613b7781600084613b1b565b613b82600083612d99565b6001600160a01b0381166000908152600360205260408120805460019290613bab908490614e5b565b909155505060008281526002602052604080822080546001600160a01b0319169055518391906001600160a01b038416907fddf252ad1be2c89b69c2b068fc378daa952ba7f163c4a11628f55a4df523b3ef908390a45050565b613c1160008585613fe6565b50610d8e60018383613fe6565b60006001600160a01b0384163b15613d1157604051630a85bd0160e11b81526001600160a01b0385169063150b7a0290613c62903390899088908890600401615472565b6020604051808303816000875af1925050508015613c9d575060408051601f3d908101601f19168201909252613c9a918101906154a5565b60015b613cf7573d808015613ccb576040519150601f19603f3d011682016040523d82523d6000602084013e613cd0565b606091505b508051613cef5760405162461bcd60e51b8152600401610cd7906153ea565b805181602001fd5b6001600160e01b031916630a85bd0160e11b149050613245565b506001949350505050565b6001600160a01b038316613d7757613d7281600880546000838152600960205260408120829055600182018355919091527ff3f7a9fe364faab93b216da50a3214154f22a0a2b415b23a84c8169e8b636ee30155565b613d9a565b816001600160a01b0316836001600160a01b031614613d9a57613d9a8382613dd4565b6001600160a01b038216613db157610ea681613e71565b826001600160a01b0316826001600160a01b031614610ea657610ea68282613f20565b60006001613de184611a0e565b613deb9190614e5b565b600083815260076020526040902054909150808214613e3e576001600160a01b03841660009081526006602090815260408083208584528252808320548484528184208190558352600790915290208190555b5060009182526007602090815260408084208490556001600160a01b039094168352600681528383209183525290812055565b600854600090613e8390600190614e5b565b60008381526009602052604081205460088054939450909284908110613eab57613eab614d84565b906000526020600020015490508060088381548110613ecc57613ecc614d84565b6000918252602080832090910192909255828152600990915260408082208490558582528120556008805480613f0457613f046154c2565b6001900381819060005260206000200160009055905550505050565b6000613f2b83611a0e565b6001600160a01b039093166000908152600660209081526040808320868452825280832085905593825260079052919091209190915550565b6040518060c001604052806000815260200160608152602001606081526020016000815260200160006001600160a01b0316815260200160006001600160a01b031681525090565b508054613fb890614acc565b6000825580601f10613fc8575050565b601f016020900490600052602060002090810190610ee5919061406a565b828054613ff290614acc565b90600052602060002090601f016020900481019282614014576000855561405a565b82601f1061402d5782800160ff1982351617855561405a565b8280016001018555821561405a579182015b8281111561405a57823582559160200191906001019061403f565b5061406692915061406a565b5090565b5b80821115614066576000815560010161406b565b600060c0828403121561409157600080fd5b50919050565b60006080828403121561409157600080fd5b600080604083850312156140bc57600080fd5b82356001600160401b03808211156140d357600080fd5b6140df8683870161407f565b935060208501359150808211156140f557600080fd5b5061410285828601614097565b9150509250929050565b6001600160e01b031981168114610ee557600080fd5b60006020828403121561413457600080fd5b8135611e138161410c565b60005b8381101561415a578181015183820152602001614142565b8381111561242f5750506000910152565b6000815180845261418381602086016020860161413f565b601f01601f19169290920160200192915050565b602081526000611e13602083018461416b565b6000602082840312156141bc57600080fd5b5035919050565b60006060828403121561409157600080fd5b6000602082840312156141e757600080fd5b81356001600160401b038111156141fd57600080fd5b613245848285016141c3565b6001600160a01b0381168114610ee557600080fd5b6000806040838503121561423157600080fd5b823561423c81614209565b946020939093013593505050565b60006060828403121561425c57600080fd5b611e1383836141c3565b60008083601f84011261427857600080fd5b5081356001600160401b0381111561428f57600080fd5b6020830191508360208285010111156142a757600080fd5b9250929050565b600080602083850312156142c157600080fd5b82356001600160401b038111156142d757600080fd5b6142e385828601614266565b90969095509350505050565b60208152815160208201526000602083015160c0604084015261431560e084018261416b565b90506040840151601f19848303016060850152614332828261416b565b91505060608401516080840152608084015160018060a01b0380821660a08601528060a08701511660c086015250508091505092915050565b60006020828403121561437d57600080fd5b8135611e1381614209565b60008060006060848603121561439d57600080fd5b83356143a881614209565b925060208401356143b881614209565b929592945050506040919091013590565b600060a0828403121561409157600080fd5b600080604083850312156143ee57600080fd5b82356001600160401b038082111561440557600080fd5b6144118683870161407f565b9350602085013591508082111561442757600080fd5b50614102858286016143c9565b60008060006040848603121561444957600080fd5b8335925060208401356001600160401b0381111561446657600080fd5b61447286828701614266565b9497909650939450505050565b60006020828403121561449157600080fd5b81356001600160401b038111156144a757600080fd5b61324584828501614097565b6000608082840312156144c557600080fd5b611e138383614097565b600080604083850312156144e257600080fd5b50508035926020909101359150565b600080600060a0848603121561450657600080fd5b8335925061451785602086016141c3565b9150608084013590509250925092565b60008060006060848603121561453c57600080fd5b505081359360208301359350604090920135919050565b80518252602081015160208301526000604082015160e0604085015261457c60e085018261416b565b9050606083015160018060a01b0380821660608701528060808601511660808701528060a08601511660a0870152505060c0830151151560c08501528091505092915050565b6000602080830181845280855180835260408601915060408160051b870101925083870160005b8281101561461757603f19888603018452614605858351614553565b945092850192908501906001016145e9565b5092979650505050505050565b6000806000806000806080878903121561463d57600080fd5b86356001600160401b038082111561465457600080fd5b6146608a838b01614266565b9098509650602089013591508082111561467957600080fd5b5061468689828a01614266565b909550935050604087013561469a81614209565b915060608701356146aa81614209565b809150509295509295509295565b600080604083850312156146cb57600080fd5b8235915060208301356146dd81614209565b809150509250929050565b600080604083850312156146fb57600080fd5b823561470681614209565b9150602083013580151581146146dd57600080fd5b634e487b7160e01b600052604160045260246000fd5b604051601f8201601f191681016001600160401b03811182821017156147595761475961471b565b604052919050565b60006001600160401b0382111561477a5761477a61471b565b50601f01601f191660200190565b6000806000806080858703121561479e57600080fd5b84356147a981614209565b935060208501356147b981614209565b92506040850135915060608501356001600160401b038111156147db57600080fd5b8501601f810187136147ec57600080fd5b80356147ff6147fa82614761565b614731565b81815288602083850101111561481457600080fd5b8160208401602083013760006020838301015280935050505092959194509250565b60006020828403121561484857600080fd5b81356001600160401b0381111561485e57600080fd5b613245848285016143c9565b60006020828403121561487c57600080fd5b81356001600160401b0381111561489257600080fd5b6132458482850161407f565b602081526000611e136020830184614553565b600080604083850312156148c457600080fd5b82356148cf81614209565b915060208301356146dd81614209565b6000808335601e198436030181126148f657600080fd5b8301803591506001600160401b0382111561491057600080fd5b6020019150368190038213156142a757600080fd5b664c696e6b416e7960c81b81528183600783013760009101600701908152919050565b634e487b7160e01b600052601160045260246000fd5b600060001982141561497257614972614948565b5060010190565b6000808335601e1984360301811261499057600080fd5b83016020810192503590506001600160401b038111156149af57600080fd5b8036038313156142a757600080fd5b81835281816020850137506000828201602090810191909152601f909101601f19169091010190565b8035825260006149fa6020830183614979565b60c06020860152614a0f60c0860182846149be565b9150506040830135614a2081614209565b6001600160a01b038181166040870152614a3d6060860186614979565b92508684036060880152614a528484836149be565b93505060808501359150614a6582614209565b166080850152614a7860a0840184614979565b85830360a0870152614a8b8382846149be565b9695505050505050565b60a081526000614aa860a08301886149e7565b90508560208301528460408301528360608301528260808301529695505050505050565b600181811c90821680614ae057607f821691505b6020821081141561409157634e487b7160e01b600052602260045260246000fd5b6001600160a01b03868116825285166020820152608060408201819052600090614b2e90830185876149be565b90508260608301529695505050505050565b8183823760009101908152919050565b8581526001600160a01b0385166020820152608060408201819052600090614b2e90830185876149be565b60208082526031908201527f4552433732313a207472616e736665722063616c6c6572206973206e6f74206f6040820152701ddb995c881b9bdc88185c1c1c9bdd9959607a1b606082015260800190565b838152604060208201526000614be66040830184866149be565b95945050505050565b8035825260006020820135614c0381614209565b6001600160a01b0316602084015260408281013590840152614c286060830183614979565b60806060860152614be66080860182846149be565b606081526000614c506060830186614bef565b6001600160a01b039490941660208301525060400152919050565b600080835481600182811c915080831680614c8757607f831692505b6020808410821415614ca757634e487b7160e01b86526022600452602486fd5b818015614cbb5760018114614ccc57614cf9565b60ff19861689528489019650614cf9565b60008a81526020902060005b86811015614cf15781548b820152908501908301614cd8565b505084890196505b509498975050505050505050565b60608152833560608201526000614d216020860186614979565b608080850152614d3560e0850182846149be565b915050604086013560a0840152614d4f6060870187614979565b848303605f190160c0860152614d668382846149be565b6001600160a01b039790971660208601525050505060400152919050565b634e487b7160e01b600052603260045260246000fd5b600060208284031215614dac57600080fd5b5051919050565b85815260e08101614ddb60208301878035825260208082013590830152604090810135910152565b60808201949094526001600160a01b039290921660a083015260c09091015292915050565b6001600160a01b038781168252602082018790528516604082015260a060608201819052600090614e3490830185876149be565b9050826080830152979650505050505050565b6020815260006132456020830184866149be565b600082821015614e6d57614e6d614948565b500390565b8335815260c081016020850135614e8881614209565b6001600160a01b039081166020840152604086810135908401526060958601359583019590955292909316608084015260a09092019190915290565b8035825260208101356020830152604081013560408301526000614c286060830183614979565b606081526000614c506060830186614ec4565b60608152833560608201526000614f186020860186614979565b60606080850152614f2d60c0850182846149be565b60409788013560a08601526001600160a01b039690961660208501525050509092019190915290565b858152608060208201526000614f706080830186886149be565b604083019490945250606001529392505050565b888152876020820152600060018060a01b03808916604084015260e06060840152614fb360e08401888a6149be565b951660808301525060a081019290925260c09091015295945050505050565b600060208284031215614fe457600080fd5b8151611e1381614209565b60006101008b83528a6020840152896040840152806060840152615016818401898b6149be565b6001600160a01b03978816608085015295871660a084015250509190931660c082015260e0019190915295945050505050565b6080815284356080820152602085013560a0820152604085013560c0820152606085013560e082015260006150816080870187614979565b60a0610100850152615098610120850182846149be565b6001600160a01b039790971660208501525050506040810192909252606090910152919050565b600082198211156150d2576150d2614948565b500190565b60a08152600086356150e881614209565b6001600160a01b0381811660a085015261510560208a018a614979565b925060a060c086015261511d610140860184836149be565b92505061512d60408a018a614979565b609f19808786030160e08801526151458583856149be565b945060608c0135925061515783614209565b83831661010088015261516d60808d018d614979565b94509250808786030161012088015250506151898383836149be565b935050505061519c602083018715159052565b8460408301528360608301528260808301529695505050505050565b6060815283356060820152600060208501356151d381614209565b60018060a01b038082166080850152604087013560a0850152606087013560c08501526152036080880188614979565b925060a060e086015261521b610100860184836149be565b96909116602085015250505060400152919050565b86815285602082015260018060a01b038516604082015260a060608201526000614e3460a0830185876149be565b60006020828403121561527057600080fd5b81516001600160401b0381111561528657600080fd5b8201601f8101841361529757600080fd5b80516152a56147fa82614761565b8181528560208385010111156152ba57600080fd5b614be682602083016020860161413f565b60a08152600060018060a01b038088511660a0840152602088015160a060c08501526152fb61014085018261416b565b90506040890151609f19808684030160e0870152615319838361416b565b92508360608c01511661010087015260808b0151935080868403016101208701525050615346818361416b565b9250505061519c602083018715159052565b60006101008a835289602084015288604084015280606084015261537e8184018961416b565b6001600160a01b03978816608085015295871660a084015250509190931660c082015260e00191909152949350505050565b6060815260006153c46060830187896149be565b82810360208401526153d78186886149be565b9150508260408301529695505050505050565b60208082526032908201527f4552433732313a207472616e7366657220746f206e6f6e20455243373231526560408201527131b2b4bb32b91034b6b83632b6b2b73a32b960711b606082015260800190565b600081600019048311821515161561545657615456614948565b500290565b60008161546a5761546a614948565b506000190190565b6001600160a01b0385811682528416602082015260408101839052608060608201819052600090614a8b9083018461416b565b6000602082840312156154b757600080fd5b8151611e138161410c565b634e487b7160e01b600052603160045260246000fdfea2646970667358221220b64f4e1df68ba723153cbaa2967726fe2532c4fcc7f1bae1361689a4d940fc5f64736f6c634300080a0033",
    "linkReferences": {
        "contracts/libraries/LinkLogic.sol": {
            "LinkLogic": [
                {
                    "length": 20,
                    "start": 4539
                },
                {
                    "length": 20,
                    "start": 5122
                },
                {
                    "length": 20,
                    "start": 5265
                },
                {
                    "length": 20,
                    "start": 5604
                },
                {
                    "length": 20,
                    "start": 6167
                },
                {
                    "length": 20,
                    "start": 7799
                },
                {
                    "length": 20,
                    "start": 7910
                },
                {
                    "length": 20,
                    "start": 8129
                },
                {
                    "length": 20,
                    "start": 8684
                },
                {
                    "length": 20,
                    "start": 9017
                },
                {
                    "length": 20,
                    "start": 9361
                },
                {
                    "length": 20,
                    "start": 9458
                },
                {
                    "length": 20,
                    "start": 9911
                },
                {
                    "length": 20,
                    "start": 10192
                },
                {
                    "length": 20,
                    "start": 12249
                }
            ]
        },
        "contracts/libraries/LinkModuleLogic.sol": {
            "LinkModuleLogic": [
                {
                    "length": 20,
                    "start": 3358
                },
                {
                    "length": 20,
                    "start": 4291
                },
                {
                    "length": 20,
                    "start": 6596
                },
                {
                    "length": 20,
                    "start": 10285
                },
                {
                    "length": 20,
                    "start": 10905
                }
            ]
        },
        "contracts/libraries/PostLogic.sol": {
            "PostLogic": [
                {
                    "length": 20,
                    "start": 2906
                },
                {
                    "length": 20,
                    "start": 8847
                },
                {
                    "length": 20,
                    "start": 10447
                }
            ]
        },
        "contracts/libraries/ProfileLogic.sol": {
            "ProfileLogic": [
                {
                    "length": 20,
                    "start": 6279
                },
                {
                    "length": 20,
                    "start": 8575
                },
                {
                    "length": 20,
                    "start": 8778
                },
                {
                    "length": 20,
                    "start": 9575
                },
                {
                    "length": 20,
                    "start": 11982
                }
            ]
        }
    },
    "deployedLinkReferences": {
        "contracts/libraries/LinkLogic.sol": {
            "LinkLogic": [
                {
                    "length": 20,
                    "start": 4507
                },
                {
                    "length": 20,
                    "start": 5090
                },
                {
                    "length": 20,
                    "start": 5233
                },
                {
                    "length": 20,
                    "start": 5572
                },
                {
                    "length": 20,
                    "start": 6135
                },
                {
                    "length": 20,
                    "start": 7767
                },
                {
                    "length": 20,
                    "start": 7878
                },
                {
                    "length": 20,
                    "start": 8097
                },
                {
                    "length": 20,
                    "start": 8652
                },
                {
                    "length": 20,
                    "start": 8985
                },
                {
                    "length": 20,
                    "start": 9329
                },
                {
                    "length": 20,
                    "start": 9426
                },
                {
                    "length": 20,
                    "start": 9879
                },
                {
                    "length": 20,
                    "start": 10160
                },
                {
                    "length": 20,
                    "start": 12217
                }
            ]
        },
        "contracts/libraries/LinkModuleLogic.sol": {
            "LinkModuleLogic": [
                {
                    "length": 20,
                    "start": 3326
                },
                {
                    "length": 20,
                    "start": 4259
                },
                {
                    "length": 20,
                    "start": 6564
                },
                {
                    "length": 20,
                    "start": 10253
                },
                {
                    "length": 20,
                    "start": 10873
                }
            ]
        },
        "contracts/libraries/PostLogic.sol": {
            "PostLogic": [
                {
                    "length": 20,
                    "start": 2874
                },
                {
                    "length": 20,
                    "start": 8815
                },
                {
                    "length": 20,
                    "start": 10415
                }
            ]
        },
        "contracts/libraries/ProfileLogic.sol": {
            "ProfileLogic": [
                {
                    "length": 20,
                    "start": 6247
                },
                {
                    "length": 20,
                    "start": 8543
                },
                {
                    "length": 20,
                    "start": 8746
                },
                {
                    "length": 20,
                    "start": 9543
                },
                {
                    "length": 20,
                    "start": 11950
                }
            ]
        }
    }
}