{
    "_format": "hh-sol-artifact-1",
    "contractName": "Web3Entry",
    "sourceName": "contracts/Web3Entry.sol",
    "abi": [
        {
            "anonymous": false,
            "inputs": [
                {
                    "indexed": true,
                    "internalType": "address",
                    "name": "owner",
                    "type": "address"
                },
                {
                    "indexed": true,
                    "internalType": "address",
                    "name": "approved",
                    "type": "address"
                },
                {
                    "indexed": true,
                    "internalType": "uint256",
                    "name": "tokenId",
                    "type": "uint256"
                }
            ],
            "name": "Approval",
            "type": "event"
        },
        {
            "anonymous": false,
            "inputs": [
                {
                    "indexed": true,
                    "internalType": "address",
                    "name": "owner",
                    "type": "address"
                },
                {
                    "indexed": true,
                    "internalType": "address",
                    "name": "operator",
                    "type": "address"
                },
                {
                    "indexed": false,
                    "internalType": "bool",
                    "name": "approved",
                    "type": "bool"
                }
            ],
            "name": "ApprovalForAll",
            "type": "event"
        },
        {
            "anonymous": false,
            "inputs": [
                {
                    "indexed": true,
                    "internalType": "address",
                    "name": "from",
                    "type": "address"
                },
                {
                    "indexed": true,
                    "internalType": "address",
                    "name": "to",
                    "type": "address"
                },
                {
                    "indexed": true,
                    "internalType": "uint256",
                    "name": "tokenId",
                    "type": "uint256"
                }
            ],
            "name": "Transfer",
            "type": "event"
        },
        {
            "inputs": [
                {
                    "internalType": "address",
                    "name": "to",
                    "type": "address"
                },
                {
                    "internalType": "uint256",
                    "name": "tokenId",
                    "type": "uint256"
                }
            ],
            "name": "approve",
            "outputs": [],
            "stateMutability": "nonpayable",
            "type": "function"
        },
        {
            "inputs": [
                {
                    "internalType": "uint256",
                    "name": "linklistId",
                    "type": "uint256"
                },
                {
                    "internalType": "uint256",
                    "name": "profileId",
                    "type": "uint256"
                }
            ],
            "name": "attachLinklist",
            "outputs": [],
            "stateMutability": "nonpayable",
            "type": "function"
        },
        {
            "inputs": [
                {
                    "internalType": "address",
                    "name": "owner",
                    "type": "address"
                }
            ],
            "name": "balanceOf",
            "outputs": [
                {
                    "internalType": "uint256",
                    "name": "",
                    "type": "uint256"
                }
            ],
            "stateMutability": "view",
            "type": "function"
        },
        {
            "inputs": [
                {
                    "internalType": "uint256",
                    "name": "tokenId",
                    "type": "uint256"
                }
            ],
            "name": "burn",
            "outputs": [],
            "stateMutability": "nonpayable",
            "type": "function"
        },
        {
            "inputs": [
                {
                    "internalType": "string",
                    "name": "handle",
                    "type": "string"
                },
                {
                    "internalType": "address",
                    "name": "account",
                    "type": "address"
                }
            ],
            "name": "canCreate",
            "outputs": [
                {
                    "internalType": "bool",
                    "name": "",
                    "type": "bool"
                }
            ],
            "stateMutability": "view",
            "type": "function"
        },
        {
            "inputs": [
                {
                    "components": [
                        {
                            "internalType": "address",
                            "name": "to",
                            "type": "address"
                        },
                        {
                            "internalType": "string",
                            "name": "handle",
                            "type": "string"
                        },
                        {
                            "internalType": "string",
                            "name": "uri",
                            "type": "string"
                        },
                        {
                            "internalType": "address",
                            "name": "linkModule",
                            "type": "address"
                        },
                        {
                            "internalType": "bytes",
                            "name": "linkModuleInitData",
                            "type": "bytes"
                        }
                    ],
                    "internalType": "struct DataTypes.CreateProfileData",
                    "name": "vars",
                    "type": "tuple"
                }
            ],
            "name": "createProfile",
            "outputs": [],
            "stateMutability": "nonpayable",
            "type": "function"
        },
        {
            "inputs": [
                {
                    "components": [
                        {
                            "internalType": "uint256",
                            "name": "fromProfileId",
                            "type": "uint256"
                        },
                        {
                            "internalType": "address",
                            "name": "to",
                            "type": "address"
                        },
                        {
                            "internalType": "bytes32",
                            "name": "linkType",
                            "type": "bytes32"
                        }
                    ],
                    "internalType": "struct DataTypes.createThenLinkProfileData",
                    "name": "vars",
                    "type": "tuple"
                }
            ],
            "name": "createThenLinkProfile",
            "outputs": [],
            "stateMutability": "nonpayable",
            "type": "function"
        },
        {
            "inputs": [
                {
                    "internalType": "uint256",
                    "name": "profileId",
                    "type": "uint256"
                },
                {
                    "internalType": "uint256",
                    "name": "noteId",
                    "type": "uint256"
                }
            ],
            "name": "deleteNote",
            "outputs": [],
            "stateMutability": "nonpayable",
            "type": "function"
        },
        {
            "inputs": [
                {
                    "internalType": "uint256",
                    "name": "linklistId",
                    "type": "uint256"
                },
                {
                    "internalType": "uint256",
                    "name": "profileId",
                    "type": "uint256"
                }
            ],
            "name": "detachLinklist",
            "outputs": [],
            "stateMutability": "nonpayable",
            "type": "function"
        },
        {
            "inputs": [
                {
                    "internalType": "uint256",
                    "name": "tokenId",
                    "type": "uint256"
                }
            ],
            "name": "getApproved",
            "outputs": [
                {
                    "internalType": "address",
                    "name": "",
                    "type": "address"
                }
            ],
            "stateMutability": "view",
            "type": "function"
        },
        {
            "inputs": [
                {
                    "internalType": "uint256",
                    "name": "profileId",
                    "type": "uint256"
                }
            ],
            "name": "getDispatcher",
            "outputs": [
                {
                    "internalType": "address",
                    "name": "",
                    "type": "address"
                }
            ],
            "stateMutability": "view",
            "type": "function"
        },
        {
            "inputs": [
                {
                    "internalType": "uint256",
                    "name": "profileId",
                    "type": "uint256"
                }
            ],
            "name": "getHandle",
            "outputs": [
                {
                    "internalType": "string",
                    "name": "",
                    "type": "string"
                }
            ],
            "stateMutability": "view",
            "type": "function"
        },
        {
            "inputs": [
                {
                    "internalType": "address",
                    "name": "account",
                    "type": "address"
                }
            ],
            "name": "getLinkModule4Address",
            "outputs": [
                {
                    "internalType": "address",
                    "name": "",
                    "type": "address"
                }
            ],
            "stateMutability": "view",
            "type": "function"
        },
        {
            "inputs": [
                {
                    "internalType": "address",
                    "name": "tokenAddress",
                    "type": "address"
                },
                {
                    "internalType": "uint256",
                    "name": "tokenId",
                    "type": "uint256"
                }
            ],
            "name": "getLinkModule4ERC721",
            "outputs": [
                {
                    "internalType": "address",
                    "name": "",
                    "type": "address"
                }
            ],
            "stateMutability": "view",
            "type": "function"
        },
        {
            "inputs": [
                {
                    "internalType": "uint256",
                    "name": "tokenId",
                    "type": "uint256"
                }
            ],
            "name": "getLinkModule4Linklist",
            "outputs": [
                {
                    "internalType": "address",
                    "name": "",
                    "type": "address"
                }
            ],
            "stateMutability": "view",
            "type": "function"
        },
        {
            "inputs": [],
            "name": "getLinklistContract",
            "outputs": [
                {
                    "internalType": "address",
                    "name": "",
                    "type": "address"
                }
            ],
            "stateMutability": "view",
            "type": "function"
        },
        {
            "inputs": [
                {
                    "internalType": "uint256",
                    "name": "profileId",
                    "type": "uint256"
                },
                {
                    "internalType": "bytes32",
                    "name": "linkType",
                    "type": "bytes32"
                }
            ],
            "name": "getLinklistId",
            "outputs": [
                {
                    "internalType": "uint256",
                    "name": "",
                    "type": "uint256"
                }
            ],
            "stateMutability": "view",
            "type": "function"
        },
        {
            "inputs": [
                {
                    "internalType": "uint256",
                    "name": "linkListId",
                    "type": "uint256"
                }
            ],
            "name": "getLinklistType",
            "outputs": [
                {
                    "internalType": "bytes32",
                    "name": "",
                    "type": "bytes32"
                }
            ],
            "stateMutability": "view",
            "type": "function"
        },
        {
            "inputs": [
                {
                    "internalType": "uint256",
                    "name": "tokenId",
                    "type": "uint256"
                }
            ],
            "name": "getLinklistUri",
            "outputs": [
                {
                    "internalType": "string",
                    "name": "",
                    "type": "string"
                }
            ],
            "stateMutability": "view",
            "type": "function"
        },
        {
            "inputs": [
                {
                    "internalType": "uint256",
                    "name": "profileId",
                    "type": "uint256"
                },
                {
                    "internalType": "uint256",
                    "name": "noteId",
                    "type": "uint256"
                }
            ],
            "name": "getNote",
            "outputs": [
                {
                    "components": [
                        {
                            "internalType": "bytes32",
                            "name": "linkItemType",
                            "type": "bytes32"
                        },
                        {
                            "internalType": "bytes32",
                            "name": "linkKey",
                            "type": "bytes32"
                        },
                        {
                            "internalType": "string",
                            "name": "contentUri",
                            "type": "string"
                        },
                        {
                            "internalType": "address",
                            "name": "linkModule",
                            "type": "address"
                        },
                        {
                            "internalType": "address",
                            "name": "mintModule",
                            "type": "address"
                        },
                        {
                            "internalType": "address",
                            "name": "mintNFT",
                            "type": "address"
                        },
                        {
                            "internalType": "bool",
                            "name": "deleted",
                            "type": "bool"
                        }
                    ],
                    "internalType": "struct DataTypes.Note",
                    "name": "",
                    "type": "tuple"
                }
            ],
            "stateMutability": "view",
            "type": "function"
        },
        {
            "inputs": [
                {
                    "internalType": "uint256",
                    "name": "profileId",
                    "type": "uint256"
                },
                {
                    "internalType": "uint256",
                    "name": "offset",
                    "type": "uint256"
                },
                {
                    "internalType": "uint256",
                    "name": "limit",
                    "type": "uint256"
                }
            ],
            "name": "getNotesByProfileId",
            "outputs": [
                {
                    "components": [
                        {
                            "internalType": "bytes32",
                            "name": "linkItemType",
                            "type": "bytes32"
                        },
                        {
                            "internalType": "bytes32",
                            "name": "linkKey",
                            "type": "bytes32"
                        },
                        {
                            "internalType": "string",
                            "name": "contentUri",
                            "type": "string"
                        },
                        {
                            "internalType": "address",
                            "name": "linkModule",
                            "type": "address"
                        },
                        {
                            "internalType": "address",
                            "name": "mintModule",
                            "type": "address"
                        },
                        {
                            "internalType": "address",
                            "name": "mintNFT",
                            "type": "address"
                        },
                        {
                            "internalType": "bool",
                            "name": "deleted",
                            "type": "bool"
                        }
                    ],
                    "internalType": "struct DataTypes.Note[]",
                    "name": "results",
                    "type": "tuple[]"
                }
            ],
            "stateMutability": "view",
            "type": "function"
        },
        {
            "inputs": [],
            "name": "getPeriphery",
            "outputs": [
                {
                    "internalType": "address",
                    "name": "",
                    "type": "address"
                }
            ],
            "stateMutability": "view",
            "type": "function"
        },
        {
            "inputs": [
                {
                    "internalType": "address",
                    "name": "account",
                    "type": "address"
                }
            ],
            "name": "getPrimaryProfileId",
            "outputs": [
                {
                    "internalType": "uint256",
                    "name": "",
                    "type": "uint256"
                }
            ],
            "stateMutability": "view",
            "type": "function"
        },
        {
            "inputs": [
                {
                    "internalType": "uint256",
                    "name": "profileId",
                    "type": "uint256"
                }
            ],
            "name": "getProfile",
            "outputs": [
                {
                    "components": [
                        {
                            "internalType": "uint256",
                            "name": "profileId",
                            "type": "uint256"
                        },
                        {
                            "internalType": "string",
                            "name": "handle",
                            "type": "string"
                        },
                        {
                            "internalType": "string",
                            "name": "uri",
                            "type": "string"
                        },
                        {
                            "internalType": "uint256",
                            "name": "noteCount",
                            "type": "uint256"
                        },
                        {
                            "internalType": "address",
                            "name": "socialToken",
                            "type": "address"
                        },
                        {
                            "internalType": "address",
                            "name": "linkModule",
                            "type": "address"
                        }
                    ],
                    "internalType": "struct DataTypes.Profile",
                    "name": "",
                    "type": "tuple"
                }
            ],
            "stateMutability": "view",
            "type": "function"
        },
        {
            "inputs": [
                {
                    "internalType": "string",
                    "name": "handle",
                    "type": "string"
                }
            ],
            "name": "getProfileByHandle",
            "outputs": [
                {
                    "components": [
                        {
                            "internalType": "uint256",
                            "name": "profileId",
                            "type": "uint256"
                        },
                        {
                            "internalType": "string",
                            "name": "handle",
                            "type": "string"
                        },
                        {
                            "internalType": "string",
                            "name": "uri",
                            "type": "string"
                        },
                        {
                            "internalType": "uint256",
                            "name": "noteCount",
                            "type": "uint256"
                        },
                        {
                            "internalType": "address",
                            "name": "socialToken",
                            "type": "address"
                        },
                        {
                            "internalType": "address",
                            "name": "linkModule",
                            "type": "address"
                        }
                    ],
                    "internalType": "struct DataTypes.Profile",
                    "name": "",
                    "type": "tuple"
                }
            ],
            "stateMutability": "view",
            "type": "function"
        },
        {
            "inputs": [
                {
                    "internalType": "uint256",
                    "name": "profileId",
                    "type": "uint256"
                }
            ],
            "name": "getProfileUri",
            "outputs": [
                {
                    "internalType": "string",
                    "name": "",
                    "type": "string"
                }
            ],
            "stateMutability": "view",
            "type": "function"
        },
        {
            "inputs": [],
            "name": "getResolver",
            "outputs": [
                {
                    "internalType": "address",
                    "name": "",
                    "type": "address"
                }
            ],
            "stateMutability": "view",
            "type": "function"
        },
        {
            "inputs": [],
            "name": "getRevision",
            "outputs": [
                {
                    "internalType": "uint256",
                    "name": "",
                    "type": "uint256"
                }
            ],
            "stateMutability": "pure",
            "type": "function"
        },
        {
            "inputs": [
                {
                    "internalType": "string",
                    "name": "_name",
                    "type": "string"
                },
                {
                    "internalType": "string",
                    "name": "_symbol",
                    "type": "string"
                },
                {
                    "internalType": "address",
                    "name": "_linklistContract",
                    "type": "address"
                },
                {
                    "internalType": "address",
                    "name": "_mintNFTImpl",
                    "type": "address"
                },
                {
                    "internalType": "address",
                    "name": "_periphery",
                    "type": "address"
                },
                {
                    "internalType": "address",
                    "name": "_resolver",
                    "type": "address"
                }
            ],
            "name": "initialize",
            "outputs": [],
            "stateMutability": "nonpayable",
            "type": "function"
        },
        {
            "inputs": [
                {
                    "internalType": "address",
                    "name": "owner",
                    "type": "address"
                },
                {
                    "internalType": "address",
                    "name": "operator",
                    "type": "address"
                }
            ],
            "name": "isApprovedForAll",
            "outputs": [
                {
                    "internalType": "bool",
                    "name": "",
                    "type": "bool"
                }
            ],
            "stateMutability": "view",
            "type": "function"
        },
        {
            "inputs": [
                {
                    "internalType": "uint256",
                    "name": "profileId",
                    "type": "uint256"
                }
            ],
            "name": "isPrimaryProfile",
            "outputs": [
                {
                    "internalType": "bool",
                    "name": "",
                    "type": "bool"
                }
            ],
            "stateMutability": "view",
            "type": "function"
        },
        {
            "inputs": [
                {
                    "components": [
                        {
                            "internalType": "uint256",
                            "name": "fromProfileId",
                            "type": "uint256"
                        },
                        {
                            "internalType": "address",
                            "name": "ethAddress",
                            "type": "address"
                        },
                        {
                            "internalType": "bytes32",
                            "name": "linkType",
                            "type": "bytes32"
                        },
                        {
                            "internalType": "bytes",
                            "name": "data",
                            "type": "bytes"
                        }
                    ],
                    "internalType": "struct DataTypes.linkAddressData",
                    "name": "vars",
                    "type": "tuple"
                }
            ],
            "name": "linkAddress",
            "outputs": [],
            "stateMutability": "nonpayable",
            "type": "function"
        },
        {
            "inputs": [
                {
                    "components": [
                        {
                            "internalType": "uint256",
                            "name": "fromProfileId",
                            "type": "uint256"
                        },
                        {
                            "internalType": "string",
                            "name": "toUri",
                            "type": "string"
                        },
                        {
                            "internalType": "bytes32",
                            "name": "linkType",
                            "type": "bytes32"
                        },
                        {
                            "internalType": "bytes",
                            "name": "data",
                            "type": "bytes"
                        }
                    ],
                    "internalType": "struct DataTypes.linkAnyUriData",
                    "name": "vars",
                    "type": "tuple"
                }
            ],
            "name": "linkAnyUri",
            "outputs": [],
            "stateMutability": "nonpayable",
            "type": "function"
        },
        {
            "inputs": [
                {
                    "components": [
                        {
                            "internalType": "uint256",
                            "name": "fromProfileId",
                            "type": "uint256"
                        },
                        {
                            "internalType": "address",
                            "name": "tokenAddress",
                            "type": "address"
                        },
                        {
                            "internalType": "uint256",
                            "name": "tokenId",
                            "type": "uint256"
                        },
                        {
                            "internalType": "bytes32",
                            "name": "linkType",
                            "type": "bytes32"
                        },
                        {
                            "internalType": "bytes",
                            "name": "data",
                            "type": "bytes"
                        }
                    ],
                    "internalType": "struct DataTypes.linkERC721Data",
                    "name": "vars",
                    "type": "tuple"
                }
            ],
            "name": "linkERC721",
            "outputs": [],
            "stateMutability": "nonpayable",
            "type": "function"
        },
        {
            "inputs": [
                {
                    "components": [
                        {
                            "internalType": "uint256",
                            "name": "fromProfileId",
                            "type": "uint256"
                        },
                        {
                            "internalType": "uint256",
                            "name": "toLinkListId",
                            "type": "uint256"
                        },
                        {
                            "internalType": "bytes32",
                            "name": "linkType",
                            "type": "bytes32"
                        },
                        {
                            "internalType": "bytes",
                            "name": "data",
                            "type": "bytes"
                        }
                    ],
                    "internalType": "struct DataTypes.linkLinklistData",
                    "name": "vars",
                    "type": "tuple"
                }
            ],
            "name": "linkLinklist",
            "outputs": [],
            "stateMutability": "nonpayable",
            "type": "function"
        },
        {
            "inputs": [
                {
                    "components": [
                        {
                            "internalType": "uint256",
                            "name": "fromProfileId",
                            "type": "uint256"
                        },
                        {
                            "internalType": "uint256",
                            "name": "toProfileId",
                            "type": "uint256"
                        },
                        {
                            "internalType": "uint256",
                            "name": "toNoteId",
                            "type": "uint256"
                        },
                        {
                            "internalType": "bytes32",
                            "name": "linkType",
                            "type": "bytes32"
                        },
                        {
                            "internalType": "bytes",
                            "name": "data",
                            "type": "bytes"
                        }
                    ],
                    "internalType": "struct DataTypes.linkNoteData",
                    "name": "vars",
                    "type": "tuple"
                }
            ],
            "name": "linkNote",
            "outputs": [],
            "stateMutability": "nonpayable",
            "type": "function"
        },
        {
            "inputs": [
                {
                    "components": [
                        {
                            "internalType": "uint256",
                            "name": "fromProfileId",
                            "type": "uint256"
                        },
                        {
                            "internalType": "uint256",
                            "name": "toProfileId",
                            "type": "uint256"
                        },
                        {
                            "internalType": "bytes32",
                            "name": "linkType",
                            "type": "bytes32"
                        },
                        {
                            "internalType": "bytes",
                            "name": "data",
                            "type": "bytes"
                        }
                    ],
                    "internalType": "struct DataTypes.linkProfileData",
                    "name": "vars",
                    "type": "tuple"
                }
            ],
            "name": "linkProfile",
            "outputs": [],
            "stateMutability": "nonpayable",
            "type": "function"
        },
        {
            "inputs": [
                {
                    "internalType": "uint256",
                    "name": "fromProfileId",
                    "type": "uint256"
                },
                {
                    "components": [
                        {
                            "internalType": "uint256",
                            "name": "fromProfileId",
                            "type": "uint256"
                        },
                        {
                            "internalType": "uint256",
                            "name": "toProfileId",
                            "type": "uint256"
                        },
                        {
                            "internalType": "bytes32",
                            "name": "linkType",
                            "type": "bytes32"
                        }
                    ],
                    "internalType": "struct DataTypes.ProfileLinkStruct",
                    "name": "linkData",
                    "type": "tuple"
                },
                {
                    "internalType": "bytes32",
                    "name": "linkType",
                    "type": "bytes32"
                }
            ],
            "name": "linkProfileLink",
            "outputs": [],
            "stateMutability": "nonpayable",
            "type": "function"
        },
        {
            "inputs": [
                {
                    "components": [
                        {
                            "internalType": "uint256",
                            "name": "profileId",
                            "type": "uint256"
                        },
                        {
                            "internalType": "uint256",
                            "name": "noteId",
                            "type": "uint256"
                        },
                        {
                            "internalType": "address",
                            "name": "to",
                            "type": "address"
                        },
                        {
                            "internalType": "bytes",
                            "name": "mintModuleData",
                            "type": "bytes"
                        }
                    ],
                    "internalType": "struct DataTypes.MintNoteData",
                    "name": "vars",
                    "type": "tuple"
                }
            ],
            "name": "mintNote",
            "outputs": [
                {
                    "internalType": "uint256",
                    "name": "",
                    "type": "uint256"
                }
            ],
            "stateMutability": "nonpayable",
            "type": "function"
        },
        {
            "inputs": [],
            "name": "name",
            "outputs": [
                {
                    "internalType": "string",
                    "name": "",
                    "type": "string"
                }
            ],
            "stateMutability": "view",
            "type": "function"
        },
        {
            "inputs": [
                {
                    "internalType": "uint256",
                    "name": "tokenId",
                    "type": "uint256"
                }
            ],
            "name": "ownerOf",
            "outputs": [
                {
                    "internalType": "address",
                    "name": "",
                    "type": "address"
                }
            ],
            "stateMutability": "view",
            "type": "function"
        },
        {
            "inputs": [
                {
                    "components": [
                        {
                            "internalType": "uint256",
                            "name": "profileId",
                            "type": "uint256"
                        },
                        {
                            "internalType": "string",
                            "name": "contentUri",
                            "type": "string"
                        },
                        {
                            "internalType": "address",
                            "name": "linkModule",
                            "type": "address"
                        },
                        {
                            "internalType": "bytes",
                            "name": "linkModuleInitData",
                            "type": "bytes"
                        },
                        {
                            "internalType": "address",
                            "name": "mintModule",
                            "type": "address"
                        },
                        {
                            "internalType": "bytes",
                            "name": "mintModuleInitData",
                            "type": "bytes"
                        }
                    ],
                    "internalType": "struct DataTypes.PostNoteData",
                    "name": "vars",
                    "type": "tuple"
                }
            ],
            "name": "postNote",
            "outputs": [
                {
                    "internalType": "uint256",
                    "name": "",
                    "type": "uint256"
                }
            ],
            "stateMutability": "nonpayable",
            "type": "function"
        },
        {
            "inputs": [
                {
                    "components": [
                        {
                            "internalType": "uint256",
                            "name": "profileId",
                            "type": "uint256"
                        },
                        {
                            "internalType": "string",
                            "name": "contentUri",
                            "type": "string"
                        },
                        {
                            "internalType": "address",
                            "name": "linkModule",
                            "type": "address"
                        },
                        {
                            "internalType": "bytes",
                            "name": "linkModuleInitData",
                            "type": "bytes"
                        },
                        {
                            "internalType": "address",
                            "name": "mintModule",
                            "type": "address"
                        },
                        {
                            "internalType": "bytes",
                            "name": "mintModuleInitData",
                            "type": "bytes"
                        }
                    ],
                    "internalType": "struct DataTypes.PostNoteData",
                    "name": "noteData",
                    "type": "tuple"
                },
                {
                    "internalType": "address",
                    "name": "ethAddress",
                    "type": "address"
                }
            ],
            "name": "postNote4AddressLink",
            "outputs": [
                {
                    "internalType": "uint256",
                    "name": "",
                    "type": "uint256"
                }
            ],
            "stateMutability": "nonpayable",
            "type": "function"
        },
        {
            "inputs": [
                {
                    "components": [
                        {
                            "internalType": "uint256",
                            "name": "profileId",
                            "type": "uint256"
                        },
                        {
                            "internalType": "string",
                            "name": "contentUri",
                            "type": "string"
                        },
                        {
                            "internalType": "address",
                            "name": "linkModule",
                            "type": "address"
                        },
                        {
                            "internalType": "bytes",
                            "name": "linkModuleInitData",
                            "type": "bytes"
                        },
                        {
                            "internalType": "address",
                            "name": "mintModule",
                            "type": "address"
                        },
                        {
                            "internalType": "bytes",
                            "name": "mintModuleInitData",
                            "type": "bytes"
                        }
                    ],
                    "internalType": "struct DataTypes.PostNoteData",
                    "name": "postNoteData",
                    "type": "tuple"
                },
                {
                    "internalType": "string",
                    "name": "uri",
                    "type": "string"
                }
            ],
            "name": "postNote4AnyUri",
            "outputs": [
                {
                    "internalType": "uint256",
                    "name": "",
                    "type": "uint256"
                }
            ],
            "stateMutability": "nonpayable",
            "type": "function"
        },
        {
            "inputs": [
                {
                    "components": [
                        {
                            "internalType": "uint256",
                            "name": "profileId",
                            "type": "uint256"
                        },
                        {
                            "internalType": "string",
                            "name": "contentUri",
                            "type": "string"
                        },
                        {
                            "internalType": "address",
                            "name": "linkModule",
                            "type": "address"
                        },
                        {
                            "internalType": "bytes",
                            "name": "linkModuleInitData",
                            "type": "bytes"
                        },
                        {
                            "internalType": "address",
                            "name": "mintModule",
                            "type": "address"
                        },
                        {
                            "internalType": "bytes",
                            "name": "mintModuleInitData",
                            "type": "bytes"
                        }
                    ],
                    "internalType": "struct DataTypes.PostNoteData",
                    "name": "postNoteData",
                    "type": "tuple"
                },
                {
                    "components": [
                        {
                            "internalType": "address",
                            "name": "tokenAddress",
                            "type": "address"
                        },
                        {
                            "internalType": "uint256",
                            "name": "erc721TokenId",
                            "type": "uint256"
                        }
                    ],
                    "internalType": "struct DataTypes.ERC721Struct",
                    "name": "erc721",
                    "type": "tuple"
                }
            ],
            "name": "postNote4ERC721Link",
            "outputs": [
                {
                    "internalType": "uint256",
                    "name": "",
                    "type": "uint256"
                }
            ],
            "stateMutability": "nonpayable",
            "type": "function"
        },
        {
            "inputs": [
                {
                    "components": [
                        {
                            "internalType": "uint256",
                            "name": "profileId",
                            "type": "uint256"
                        },
                        {
                            "internalType": "string",
                            "name": "contentUri",
                            "type": "string"
                        },
                        {
                            "internalType": "address",
                            "name": "linkModule",
                            "type": "address"
                        },
                        {
                            "internalType": "bytes",
                            "name": "linkModuleInitData",
                            "type": "bytes"
                        },
                        {
                            "internalType": "address",
                            "name": "mintModule",
                            "type": "address"
                        },
                        {
                            "internalType": "bytes",
                            "name": "mintModuleInitData",
                            "type": "bytes"
                        }
                    ],
                    "internalType": "struct DataTypes.PostNoteData",
                    "name": "noteData",
                    "type": "tuple"
                },
                {
                    "internalType": "uint256",
                    "name": "toLinklistId",
                    "type": "uint256"
                }
            ],
            "name": "postNote4LinklistLink",
            "outputs": [
                {
                    "internalType": "uint256",
                    "name": "",
                    "type": "uint256"
                }
            ],
            "stateMutability": "nonpayable",
            "type": "function"
        },
        {
            "inputs": [
                {
                    "components": [
                        {
                            "internalType": "uint256",
                            "name": "profileId",
                            "type": "uint256"
                        },
                        {
                            "internalType": "string",
                            "name": "contentUri",
                            "type": "string"
                        },
                        {
                            "internalType": "address",
                            "name": "linkModule",
                            "type": "address"
                        },
                        {
                            "internalType": "bytes",
                            "name": "linkModuleInitData",
                            "type": "bytes"
                        },
                        {
                            "internalType": "address",
                            "name": "mintModule",
                            "type": "address"
                        },
                        {
                            "internalType": "bytes",
                            "name": "mintModuleInitData",
                            "type": "bytes"
                        }
                    ],
                    "internalType": "struct DataTypes.PostNoteData",
                    "name": "postNoteData",
                    "type": "tuple"
                },
                {
                    "components": [
                        {
                            "internalType": "uint256",
                            "name": "profileId",
                            "type": "uint256"
                        },
                        {
                            "internalType": "uint256",
                            "name": "noteId",
                            "type": "uint256"
                        }
                    ],
                    "internalType": "struct DataTypes.NoteStruct",
                    "name": "note",
                    "type": "tuple"
                }
            ],
            "name": "postNote4NoteLink",
            "outputs": [
                {
                    "internalType": "uint256",
                    "name": "",
                    "type": "uint256"
                }
            ],
            "stateMutability": "nonpayable",
            "type": "function"
        },
        {
            "inputs": [
                {
                    "components": [
                        {
                            "internalType": "uint256",
                            "name": "profileId",
                            "type": "uint256"
                        },
                        {
                            "internalType": "string",
                            "name": "contentUri",
                            "type": "string"
                        },
                        {
                            "internalType": "address",
                            "name": "linkModule",
                            "type": "address"
                        },
                        {
                            "internalType": "bytes",
                            "name": "linkModuleInitData",
                            "type": "bytes"
                        },
                        {
                            "internalType": "address",
                            "name": "mintModule",
                            "type": "address"
                        },
                        {
                            "internalType": "bytes",
                            "name": "mintModuleInitData",
                            "type": "bytes"
                        }
                    ],
                    "internalType": "struct DataTypes.PostNoteData",
                    "name": "postNoteData",
                    "type": "tuple"
                },
                {
                    "internalType": "uint256",
                    "name": "toProfileId",
                    "type": "uint256"
                }
            ],
            "name": "postNote4ProfileLink",
            "outputs": [
                {
                    "internalType": "uint256",
                    "name": "",
                    "type": "uint256"
                }
            ],
            "stateMutability": "nonpayable",
            "type": "function"
        },
        {
            "inputs": [],
            "name": "resolver",
            "outputs": [
                {
                    "internalType": "address",
                    "name": "",
                    "type": "address"
                }
            ],
            "stateMutability": "view",
            "type": "function"
        },
        {
            "inputs": [
                {
                    "internalType": "address",
                    "name": "from",
                    "type": "address"
                },
                {
                    "internalType": "address",
                    "name": "to",
                    "type": "address"
                },
                {
                    "internalType": "uint256",
                    "name": "tokenId",
                    "type": "uint256"
                }
            ],
            "name": "safeTransferFrom",
            "outputs": [],
            "stateMutability": "nonpayable",
            "type": "function"
        },
        {
            "inputs": [
                {
                    "internalType": "address",
                    "name": "from",
                    "type": "address"
                },
                {
                    "internalType": "address",
                    "name": "to",
                    "type": "address"
                },
                {
                    "internalType": "uint256",
                    "name": "tokenId",
                    "type": "uint256"
                },
                {
                    "internalType": "bytes",
                    "name": "_data",
                    "type": "bytes"
                }
            ],
            "name": "safeTransferFrom",
            "outputs": [],
            "stateMutability": "nonpayable",
            "type": "function"
        },
        {
            "inputs": [
                {
                    "internalType": "address",
                    "name": "operator",
                    "type": "address"
                },
                {
                    "internalType": "bool",
                    "name": "approved",
                    "type": "bool"
                }
            ],
            "name": "setApprovalForAll",
            "outputs": [],
            "stateMutability": "nonpayable",
            "type": "function"
        },
        {
            "inputs": [
                {
                    "internalType": "uint256",
                    "name": "profileId",
                    "type": "uint256"
                },
                {
                    "internalType": "address",
                    "name": "dispatcher",
                    "type": "address"
                }
            ],
            "name": "setDispatcher",
            "outputs": [],
            "stateMutability": "nonpayable",
            "type": "function"
        },
        {
            "inputs": [
                {
                    "internalType": "uint256",
                    "name": "profileId",
                    "type": "uint256"
                },
                {
                    "internalType": "string",
                    "name": "newHandle",
                    "type": "string"
                }
            ],
            "name": "setHandle",
            "outputs": [],
            "stateMutability": "nonpayable",
            "type": "function"
        },
        {
            "inputs": [
                {
                    "components": [
                        {
                            "internalType": "address",
                            "name": "account",
                            "type": "address"
                        },
                        {
                            "internalType": "address",
                            "name": "linkModule",
                            "type": "address"
                        },
                        {
                            "internalType": "bytes",
                            "name": "linkModuleInitData",
                            "type": "bytes"
                        }
                    ],
                    "internalType": "struct DataTypes.setLinkModule4AddressData",
                    "name": "vars",
                    "type": "tuple"
                }
            ],
            "name": "setLinkModule4Address",
            "outputs": [],
            "stateMutability": "nonpayable",
            "type": "function"
        },
        {
            "inputs": [
                {
                    "components": [
                        {
                            "internalType": "address",
                            "name": "tokenAddress",
                            "type": "address"
                        },
                        {
                            "internalType": "uint256",
                            "name": "tokenId",
                            "type": "uint256"
                        },
                        {
                            "internalType": "address",
                            "name": "linkModule",
                            "type": "address"
                        },
                        {
                            "internalType": "bytes",
                            "name": "linkModuleInitData",
                            "type": "bytes"
                        }
                    ],
                    "internalType": "struct DataTypes.setLinkModule4ERC721Data",
                    "name": "vars",
                    "type": "tuple"
                }
            ],
            "name": "setLinkModule4ERC721",
            "outputs": [],
            "stateMutability": "nonpayable",
            "type": "function"
        },
        {
            "inputs": [
                {
                    "components": [
                        {
                            "internalType": "uint256",
                            "name": "linklistId",
                            "type": "uint256"
                        },
                        {
                            "internalType": "address",
                            "name": "linkModule",
                            "type": "address"
                        },
                        {
                            "internalType": "bytes",
                            "name": "linkModuleInitData",
                            "type": "bytes"
                        }
                    ],
                    "internalType": "struct DataTypes.setLinkModule4LinklistData",
                    "name": "vars",
                    "type": "tuple"
                }
            ],
            "name": "setLinkModule4Linklist",
            "outputs": [],
            "stateMutability": "nonpayable",
            "type": "function"
        },
        {
            "inputs": [
                {
                    "components": [
                        {
                            "internalType": "uint256",
                            "name": "profileId",
                            "type": "uint256"
                        },
                        {
                            "internalType": "uint256",
                            "name": "noteId",
                            "type": "uint256"
                        },
                        {
                            "internalType": "address",
                            "name": "linkModule",
                            "type": "address"
                        },
                        {
                            "internalType": "bytes",
                            "name": "linkModuleInitData",
                            "type": "bytes"
                        }
                    ],
                    "internalType": "struct DataTypes.setLinkModule4NoteData",
                    "name": "vars",
                    "type": "tuple"
                }
            ],
            "name": "setLinkModule4Note",
            "outputs": [],
            "stateMutability": "nonpayable",
            "type": "function"
        },
        {
            "inputs": [
                {
                    "components": [
                        {
                            "internalType": "uint256",
                            "name": "profileId",
                            "type": "uint256"
                        },
                        {
                            "internalType": "address",
                            "name": "linkModule",
                            "type": "address"
                        },
                        {
                            "internalType": "bytes",
                            "name": "linkModuleInitData",
                            "type": "bytes"
                        }
                    ],
                    "internalType": "struct DataTypes.setLinkModule4ProfileData",
                    "name": "vars",
                    "type": "tuple"
                }
            ],
            "name": "setLinkModule4Profile",
            "outputs": [],
            "stateMutability": "nonpayable",
            "type": "function"
        },
        {
            "inputs": [
                {
                    "internalType": "uint256",
                    "name": "linklistId",
                    "type": "uint256"
                },
                {
                    "internalType": "string",
                    "name": "uri",
                    "type": "string"
                }
            ],
            "name": "setLinklistUri",
            "outputs": [],
            "stateMutability": "nonpayable",
            "type": "function"
        },
        {
            "inputs": [
                {
                    "components": [
                        {
                            "internalType": "uint256",
                            "name": "profileId",
                            "type": "uint256"
                        },
                        {
                            "internalType": "uint256",
                            "name": "noteId",
                            "type": "uint256"
                        },
                        {
                            "internalType": "address",
                            "name": "mintModule",
                            "type": "address"
                        },
                        {
                            "internalType": "bytes",
                            "name": "mintModuleInitData",
                            "type": "bytes"
                        }
                    ],
                    "internalType": "struct DataTypes.setMintModule4NoteData",
                    "name": "vars",
                    "type": "tuple"
                }
            ],
            "name": "setMintModule4Note",
            "outputs": [],
            "stateMutability": "nonpayable",
            "type": "function"
        },
        {
            "inputs": [
                {
                    "internalType": "uint256",
                    "name": "profileId",
                    "type": "uint256"
                }
            ],
            "name": "setPrimaryProfileId",
            "outputs": [],
            "stateMutability": "nonpayable",
            "type": "function"
        },
        {
            "inputs": [
                {
                    "internalType": "uint256",
                    "name": "profileId",
                    "type": "uint256"
                },
                {
                    "internalType": "string",
                    "name": "newUri",
                    "type": "string"
                }
            ],
            "name": "setProfileUri",
            "outputs": [],
            "stateMutability": "nonpayable",
            "type": "function"
        },
        {
            "inputs": [],
            "name": "setResolver",
            "outputs": [],
            "stateMutability": "nonpayable",
            "type": "function"
        },
        {
            "inputs": [
                {
                    "internalType": "uint256",
                    "name": "profileId",
                    "type": "uint256"
                },
                {
                    "internalType": "address",
                    "name": "tokenAddress",
                    "type": "address"
                }
            ],
            "name": "setSocialToken",
            "outputs": [],
            "stateMutability": "nonpayable",
            "type": "function"
        },
        {
            "inputs": [
                {
                    "internalType": "bytes4",
                    "name": "interfaceId",
                    "type": "bytes4"
                }
            ],
            "name": "supportsInterface",
            "outputs": [
                {
                    "internalType": "bool",
                    "name": "",
                    "type": "bool"
                }
            ],
            "stateMutability": "view",
            "type": "function"
        },
        {
            "inputs": [],
            "name": "symbol",
            "outputs": [
                {
                    "internalType": "string",
                    "name": "",
                    "type": "string"
                }
            ],
            "stateMutability": "view",
            "type": "function"
        },
        {
            "inputs": [
                {
                    "internalType": "uint256",
                    "name": "index",
                    "type": "uint256"
                }
            ],
            "name": "tokenByIndex",
            "outputs": [
                {
                    "internalType": "uint256",
                    "name": "",
                    "type": "uint256"
                }
            ],
            "stateMutability": "view",
            "type": "function"
        },
        {
            "inputs": [
                {
                    "internalType": "address",
                    "name": "owner",
                    "type": "address"
                },
                {
                    "internalType": "uint256",
                    "name": "index",
                    "type": "uint256"
                }
            ],
            "name": "tokenOfOwnerByIndex",
            "outputs": [
                {
                    "internalType": "uint256",
                    "name": "",
                    "type": "uint256"
                }
            ],
            "stateMutability": "view",
            "type": "function"
        },
        {
            "inputs": [
                {
                    "internalType": "uint256",
                    "name": "profileId",
                    "type": "uint256"
                }
            ],
            "name": "tokenURI",
            "outputs": [
                {
                    "internalType": "string",
                    "name": "",
                    "type": "string"
                }
            ],
            "stateMutability": "view",
            "type": "function"
        },
        {
            "inputs": [],
            "name": "totalSupply",
            "outputs": [
                {
                    "internalType": "uint256",
                    "name": "",
                    "type": "uint256"
                }
            ],
            "stateMutability": "view",
            "type": "function"
        },
        {
            "inputs": [
                {
                    "internalType": "address",
                    "name": "from",
                    "type": "address"
                },
                {
                    "internalType": "address",
                    "name": "to",
                    "type": "address"
                },
                {
                    "internalType": "uint256",
                    "name": "tokenId",
                    "type": "uint256"
                }
            ],
            "name": "transferFrom",
            "outputs": [],
            "stateMutability": "nonpayable",
            "type": "function"
        },
        {
            "inputs": [
                {
                    "components": [
                        {
                            "internalType": "uint256",
                            "name": "fromProfileId",
                            "type": "uint256"
                        },
                        {
                            "internalType": "address",
                            "name": "ethAddress",
                            "type": "address"
                        },
                        {
                            "internalType": "bytes32",
                            "name": "linkType",
                            "type": "bytes32"
                        },
                        {
                            "internalType": "bytes",
                            "name": "data",
                            "type": "bytes"
                        }
                    ],
                    "internalType": "struct DataTypes.linkAddressData",
                    "name": "vars",
                    "type": "tuple"
                }
            ],
            "name": "unlinkAddress",
            "outputs": [],
            "stateMutability": "nonpayable",
            "type": "function"
        },
        {
            "inputs": [
                {
                    "components": [
                        {
                            "internalType": "uint256",
                            "name": "fromProfileId",
                            "type": "uint256"
                        },
                        {
                            "internalType": "string",
                            "name": "toUri",
                            "type": "string"
                        },
                        {
                            "internalType": "bytes32",
                            "name": "linkType",
                            "type": "bytes32"
                        }
                    ],
                    "internalType": "struct DataTypes.unlinkAnyUriData",
                    "name": "vars",
                    "type": "tuple"
                }
            ],
            "name": "unlinkAnyUri",
            "outputs": [],
            "stateMutability": "nonpayable",
            "type": "function"
        },
        {
            "inputs": [
                {
                    "components": [
                        {
                            "internalType": "uint256",
                            "name": "fromProfileId",
                            "type": "uint256"
                        },
                        {
                            "internalType": "address",
                            "name": "tokenAddress",
                            "type": "address"
                        },
                        {
                            "internalType": "uint256",
                            "name": "tokenId",
                            "type": "uint256"
                        },
                        {
                            "internalType": "bytes32",
                            "name": "linkType",
                            "type": "bytes32"
                        }
                    ],
                    "internalType": "struct DataTypes.unlinkERC721Data",
                    "name": "vars",
                    "type": "tuple"
                }
            ],
            "name": "unlinkERC721",
            "outputs": [],
            "stateMutability": "nonpayable",
            "type": "function"
        },
        {
            "inputs": [
                {
                    "components": [
                        {
                            "internalType": "uint256",
                            "name": "fromProfileId",
                            "type": "uint256"
                        },
                        {
                            "internalType": "uint256",
                            "name": "toLinkListId",
                            "type": "uint256"
                        },
                        {
                            "internalType": "bytes32",
                            "name": "linkType",
                            "type": "bytes32"
                        },
                        {
                            "internalType": "bytes",
                            "name": "data",
                            "type": "bytes"
                        }
                    ],
                    "internalType": "struct DataTypes.linkLinklistData",
                    "name": "vars",
                    "type": "tuple"
                }
            ],
            "name": "unlinkLinklist",
            "outputs": [],
            "stateMutability": "nonpayable",
            "type": "function"
        },
        {
            "inputs": [
                {
                    "components": [
                        {
                            "internalType": "uint256",
                            "name": "fromProfileId",
                            "type": "uint256"
                        },
                        {
                            "internalType": "uint256",
                            "name": "toProfileId",
                            "type": "uint256"
                        },
                        {
                            "internalType": "uint256",
                            "name": "toNoteId",
                            "type": "uint256"
                        },
                        {
                            "internalType": "bytes32",
                            "name": "linkType",
                            "type": "bytes32"
                        }
                    ],
                    "internalType": "struct DataTypes.unlinkNoteData",
                    "name": "vars",
                    "type": "tuple"
                }
            ],
            "name": "unlinkNote",
            "outputs": [],
            "stateMutability": "nonpayable",
            "type": "function"
        },
        {
            "inputs": [
                {
                    "components": [
                        {
                            "internalType": "uint256",
                            "name": "fromProfileId",
                            "type": "uint256"
                        },
                        {
                            "internalType": "uint256",
                            "name": "toProfileId",
                            "type": "uint256"
                        },
                        {
                            "internalType": "bytes32",
                            "name": "linkType",
                            "type": "bytes32"
                        }
                    ],
                    "internalType": "struct DataTypes.unlinkProfileData",
                    "name": "vars",
                    "type": "tuple"
                }
            ],
            "name": "unlinkProfile",
            "outputs": [],
            "stateMutability": "nonpayable",
            "type": "function"
        },
        {
            "inputs": [
                {
                    "internalType": "uint256",
                    "name": "fromProfileId",
                    "type": "uint256"
                },
                {
                    "components": [
                        {
                            "internalType": "uint256",
                            "name": "fromProfileId",
                            "type": "uint256"
                        },
                        {
                            "internalType": "uint256",
                            "name": "toProfileId",
                            "type": "uint256"
                        },
                        {
                            "internalType": "bytes32",
                            "name": "linkType",
                            "type": "bytes32"
                        }
                    ],
                    "internalType": "struct DataTypes.ProfileLinkStruct",
                    "name": "linkData",
                    "type": "tuple"
                },
                {
                    "internalType": "bytes32",
                    "name": "linkType",
                    "type": "bytes32"
                }
            ],
            "name": "unlinkProfileLink",
            "outputs": [],
            "stateMutability": "nonpayable",
            "type": "function"
        }
    ],
    "bytecode": "0x608060405234801561001057600080fd5b50615e0480620000216000396000f3fe608060405234801561001057600080fd5b50600436106104755760003560e01c806383d3717511610257578063c053f6b811610146578063db491e80116100c3578063e985e9c511610087578063e985e9c514610aca578063ec81d19414610b06578063ef0828ab14610b19578063f08f4f6414610b2c578063fe9299fb14610b3f57600080fd5b8063db491e8014610a46578063db8c198d14610a66578063dca2713514610a79578063e3500b4814610a8c578063e56f2fe414610ab757600080fd5b8063cb8e757e1161010a578063cb8e757e146109cf578063cba4f5cc146109e2578063d23b320b146109f5578063d36a2dce14610a08578063d70e10c614610a1b57600080fd5b8063c053f6b814610972578063c2a6fe3b14610983578063c387c45314610996578063c7009c6b146109a9578063c87b56dd146109bc57600080fd5b8063a6e6178d116101d4578063b9ad7c7f11610198578063b9ad7c7f14610913578063b9d3284514610926578063bd5f69cb14610939578063bd64494a1461094c578063bfd24f471461095f57600080fd5b8063a6e6178d146108b6578063a7ccb4bf146108c9578063a914c76e146108dc578063a9dc491d146108ef578063b88d4fde1461090057600080fd5b806395d9fa7d1161021b57806395d9fa7d146108575780639864c3071461086a57806399e1b0aa1461087d5780639c78a69514610890578063a22cb465146108a357600080fd5b806383d37175146107f6578063867884e61461081657806386833c88146108295780638b4ca06a1461083c57806395d89b411461084f57600080fd5b806331b9d08c11610373578063570477fb116102f057806370a08231116102b457806370a082311461079757806373029952146107aa5780637936da0e146107bd5780637c392b51146107d05780637daca6d0146107e357600080fd5b8063570477fb146107385780635b507cfd1461074b5780635fb881831461075e5780636352211e1461077157806369492c971461078457600080fd5b806342842e0e1161033757806342842e0e146106c357806342966c68146106d65780634f6ccce7146106e9578063515d42d2146106fc578063540528b91461070f57600080fd5b806331b9d08c1461064b57806333f06ee614610677578063388f50831461068a5780633f065f7f1461069d57806340ad34d8146106b057600080fd5b80631316529d1161040157806323b872dd116103c557806323b872dd146105ee578063251a99cf14610601578063295cb43e146106145780632c2631cb146106275780632f745c591461063857600080fd5b80631316529d146105635780631426165a1461057457806318160ddd146105875780631bb4d2311461058f5780632209d145146105b857600080fd5b806308cb68ff1161044857806308cb68ff146104f5578063095ea7b31461050a5780630ab6beba1461051d5780630c16de10146105305780630c4dd5f21461055057600080fd5b806301ffc9a71461047a57806304f3bcec146104a257806306fdde03146104cd578063081812fc146104e2575b600080fd5b61048d610488366004614831565b610b68565b60405190151581526020015b60405180910390f35b6017546104b5906001600160a01b031681565b6040516001600160a01b039091168152602001610499565b6104d5610b93565b60405161049991906148a6565b6104b56104f03660046148b9565b610c25565b6105086105033660046148ea565b610cbf565b005b610508610518366004614933565b610d58565b61050861052b36600461495f565b610e6e565b61054361053e3660046149c3565b610eab565b6040516104999190614a04565b61050861055e3660046148ea565b61105a565b60035b604051908152602001610499565b610566610582366004614a92565b6110bf565b600854610566565b61056661059d366004614ad6565b6001600160a01b03166000908152600c602052604090205490565b6104b56105c6366004614933565b6001600160a01b03918216600090815260106020908152604080832093835292905220541690565b6105086105fc366004614af3565b6111a1565b61050861060f36600461495f565b6111d2565b6105086106223660046148b9565b611262565b6015546001600160a01b03166104b5565b610566610646366004614933565b6112a8565b6104b5610659366004614ad6565b6001600160a01b039081166000908152601160205260409020541690565b610508610685366004614b34565b61133e565b610508610698366004614b91565b6113b2565b6105666106ab366004614bd7565b611405565b6105086106be366004614c25565b611538565b6105086106d1366004614af3565b6115b2565b6105086106e43660046148b9565b6115cd565b6105666106f73660046148b9565b61166a565b61050861070a366004614c41565b6116fd565b6104b561071d3660046148b9565b6000908152601660205260409020546001600160a01b031690565b610508610746366004614c63565b61182b565b6105086107593660046148ea565b6118ca565b61050861076c366004614b91565b611943565b6104b561077f3660046148b9565b611996565b610508610792366004614b91565b611a0d565b6105666107a5366004614ad6565b611a93565b6105666107b8366004614bd7565b611b1a565b6105086107cb366004614c41565b611cc1565b6105086107de366004614b34565b611d86565b61048d6107f1366004614c99565b611deb565b610809610804366004614cef565b611f72565b6040516104999190614d8a565b610508610824366004614c25565b612187565b610508610837366004614b91565b6121f7565b61056661084a3660046148b9565b612266565b6104d56122d2565b610508610865366004614dec565b6122e1565b610508610878366004614b91565b612367565b61056661088b366004614a92565b6123ba565b61056661089e366004614e1c565b6123fa565b6105086108b1366004614e77565b61256f565b6105086108c4366004614b34565b61257e565b6105666108d7366004614b91565b612616565b6105086108ea366004614b91565b6126ba565b6017546001600160a01b03166104b5565b61050861090e366004614f17565b6127b7565b610508610921366004614b91565b6127ef565b610508610934366004614fd7565b61285e565b610508610947366004614fd7565b6128c6565b61056661095a36600461500b565b612a23565b61050861096d366004614dec565b612ab2565b6013546001600160a01b03166104b5565b610508610991366004614c41565b612ac5565b61048d6109a43660046148b9565b612b07565b6105086109b7366004614c63565b612b35565b6104d56109ca3660046148b9565b612b8b565b6105086109dd366004614fd7565b612c30565b6104d56109f03660046148b9565b612ca0565b610508610a03366004614b91565b612cab565b610566610a16366004615051565b612d25565b610566610a29366004614c41565b6000918252600d6020908152604080842092845291905290205490565b610a59610a54366004614c41565b612dd1565b6040516104999190615085565b610508610a74366004614b91565b612f17565b6104d5610a873660046148b9565b612f61565b610508601780546001600160a01b03191673a5fa5302be191fa9f8e7c35cf5758d8bfdf4c90f179055565b610508610ac5366004615098565b612fd3565b61048d610ad8366004615152565b6001600160a01b03918216600090815260056020908152604080832093909416825291909152205460ff1690565b6104d5610b143660046148b9565b613130565b610508610b273660046148ea565b613150565b610543610b3a3660046148b9565b6131bf565b6104b5610b4d3660046148b9565b6000908152600f60205260409020546001600160a01b031690565b60006001600160e01b0319821663780e9d6360e01b1480610b8d5750610b8d82613346565b92915050565b606060008054610ba290615180565b80601f0160208091040260200160405190810160405280929190818152602001828054610bce90615180565b8015610c1b5780601f10610bf057610100808354040283529160200191610c1b565b820191906000526020600020905b815481529060010190602001808311610bfe57829003601f168201915b5050505050905090565b6000818152600260205260408120546001600160a01b0316610ca35760405162461bcd60e51b815260206004820152602c60248201527f4552433732313a20617070726f76656420717565727920666f72206e6f6e657860448201526b34b9ba32b73a103a37b5b2b760a11b60648201526084015b60405180910390fd5b506000908152600460205260409020546001600160a01b031690565b73__$69db18565ecbefece480e92cc5f8fb1274$__63dfc34f25610ce66020840184614ad6565b610cf66040850160208601614ad6565b610d0360408601866151b5565b60116040518663ffffffff1660e01b8152600401610d25959493929190615224565b60006040518083038186803b158015610d3d57600080fd5b505af4158015610d51573d6000803e3d6000fd5b5050505050565b6000610d6382611996565b9050806001600160a01b0316836001600160a01b03161415610dd15760405162461bcd60e51b815260206004820152602160248201527f4552433732313a20617070726f76616c20746f2063757272656e74206f776e656044820152603960f91b6064820152608401610c9a565b336001600160a01b0382161480610ded5750610ded8133610ad8565b610e5f5760405162461bcd60e51b815260206004820152603860248201527f4552433732313a20617070726f76652063616c6c6572206973206e6f74206f7760448201527f6e6572206e6f7220617070726f76656420666f7220616c6c00000000000000006064820152608401610c9a565b610e698383613396565b505050565b610ea88135610e836040840160208501614ad6565b836040013560405180604001604052806002815260200161060f60f31b815250613404565b50565b610eb3614700565b60008383604051610ec5929190615263565b604080519182900382206000818152600b602090815283822054808352600a82529184902060c0860190945283548552600184018054939650919493929084019190610f1090615180565b80601f0160208091040260200160405190810160405280929190818152602001828054610f3c90615180565b8015610f895780601f10610f5e57610100808354040283529160200191610f89565b820191906000526020600020905b815481529060010190602001808311610f6c57829003601f168201915b50505050508152602001600282018054610fa290615180565b80601f0160208091040260200160405190810160405280929190818152602001828054610fce90615180565b801561101b5780601f10610ff05761010080835404028352916020019161101b565b820191906000526020600020905b815481529060010190602001808311610ffe57829003601f168201915b50505091835250506003820154602082015260048201546001600160a01b03908116604083015260059092015490911660609091015295945050505050565b6110648135613688565b73__$69db18565ecbefece480e92cc5f8fb1274$__636252159e82356110906040850160208601614ad6565b61109d60408601866151b5565b600f6040518663ffffffff1660e01b8152600401610d25959493929190615273565b60006110cb8335613748565b82356000908152600a602052604081206003018054674c6973744c696e6b60c01b928592909182906110fc906152b4565b919050819055905073__$2873850e5b3f5697aafc2f5cd9f27cc884$__6340f00f42878386868a60405160200161113591815260200190565b604051602081830303815290604052600e6040518763ffffffff1660e01b8152600401611167969594939291906153c2565b60006040518083038186803b15801561117f57600080fd5b505af4158015611193573d6000803e3d6000fd5b509298975050505050505050565b6111ab33826137e8565b6111c75760405162461bcd60e51b8152600401610c9a9061540d565b610e698383836138df565b6111dc8135613748565b60135481356000818152600d60209081526040808320818701358085529083529281902054905163eb23376360e01b8152600481019490945290850135602484015260448301919091526001600160a01b039092166064820152608481019190915273__$e2c9a8f399964af47bb173600dd9e5f662$__9063eb2337639060a401610d25565b61126b81613748565b336000818152600c6020526040808220849055518392917f444dbf26d795c263ce4e5f2fccaac8e71b73cb37091f74e9e4f76cd98b55f8d391a350565b60006112b383611a93565b82106113155760405162461bcd60e51b815260206004820152602b60248201527f455243373231456e756d657261626c653a206f776e657220696e646578206f7560448201526a74206f6620626f756e647360a81b6064820152608401610c9a565b506001600160a01b03919091166000908152600660209081526040808320938352929052205490565b61134783613688565b601354604051633c17845760e11b81526001600160a01b039091169063782f08ae9061137b9086908690869060040161545e565b600060405180830381600087803b15801561139557600080fd5b505af11580156113a9573d6000803e3d6000fd5b50505050505050565b6113bc8135613748565b60135460405163e4bb4f2360e01b815273__$e2c9a8f399964af47bb173600dd9e5f662$__9163e4bb4f2391610d259185916001600160a01b0390911690600d906004016154cf565b60006114118335613748565b604051634e6f746560e01b602080830191909152833560248301528301356044820152674e6f74654c696e6b60c01b9060009060640160408051808303601f19018152908290528051602091820120601354635cb46be760e01b8452600060048501528735602485015291870135604484015292506001600160a01b031690635cb46be790606401600060405180830381600087803b1580156114b357600080fd5b505af11580156114c7573d6000803e3d6000fd5b50505085356000908152600a6020526040812060030180549192509082906114ee906152b4565b919050819055905073__$2873850e5b3f5697aafc2f5cd9f27cc884$__6340f00f42878386868a600001358b60200135604051602001611135929190918252602082015260400190565b6115428135613748565b60135460408051635cebf08d60e11b81528335600482015260208401356024820152908301356044820152606083013560648201526001600160a01b039091166084820152600d60a482015273__$e2c9a8f399964af47bb173600dd9e5f662$__9063b9d7e11a9060c401610d25565b610e69838383604051806020016040528060008152506127b7565b6115d681613a86565b6000818152600a602052604080822090516115f491600101906154fd565b60408051918290039091206000818152600b6020908152838220829055858252600a90529182208281559092509061162f6001830182614748565b61163d600283016000614748565b50600060038201556004810180546001600160a01b03199081169091556005909101805490911690555050565b600061167560085490565b82106116d85760405162461bcd60e51b815260206004820152602c60248201527f455243373231456e756d657261626c653a20676c6f62616c20696e646578206f60448201526b7574206f6620626f756e647360a01b6064820152608401610c9a565b600882815481106116eb576116eb615599565b90600052602060002001549050919050565b61170681613748565b60135460405162fba02760e01b8152600481018490526000916001600160a01b03169062fba02790602401602060405180830381865afa15801561174e573d6000803e3d6000fd5b505050506040513d601f19601f8201168201806040525081019061177291906155af565b601354604051631c5b266960e21b815260048101869052336024820152604481018590529192506001600160a01b03169063716c99a490606401600060405180830381600087803b1580156117c657600080fd5b505af11580156117da573d6000803e3d6000fd5b5050506000838152600d6020908152604080832085845290915280822086905551839250849186917f94703ec1dd639b589d05fa7c0c14ee1e83b906bfb5f50642cc7ea415a81722889190a4505050565b61183483613748565b60135482356000908152600d602090815260408083208187013584529091529081902054905163d1b430f760e01b815273__$e2c9a8f399964af47bb173600dd9e5f662$__9263d1b430f79261189e928892889288926001600160a01b03909216916004016155c8565b60006040518083038186803b1580156118b657600080fd5b505af41580156113a9573d6000803e3d6000fd5b6118d48135613748565b73__$da066dc100670b51e733250a114f607b42$__631e2b88ba82356119006040850160208601614ad6565b61190d60408601866151b5565b86356000908152600a60205260409081902090516001600160e01b031960e088901b168152610d25959493929190600401615273565b61194d8135613748565b6013546040516332f107bf60e01b815273__$e2c9a8f399964af47bb173600dd9e5f662$__916332f107bf91610d259185916001600160a01b0390911690600d90600401615615565b6000818152600260205260408120546001600160a01b031680610b8d5760405162461bcd60e51b815260206004820152602960248201527f4552433732313a206f776e657220717565727920666f72206e6f6e657869737460448201526832b73a103a37b5b2b760b91b6064820152608401610c9a565b611a27611a1d6020830183614ad6565b8260200135613ae5565b73__$69db18565ecbefece480e92cc5f8fb1274$__63384afeb3611a4e6020840184614ad6565b6020840135611a636060860160408701614ad6565b611a7060608701876151b5565b60106040518763ffffffff1660e01b8152600401610d2596959493929190615692565b60006001600160a01b038216611afe5760405162461bcd60e51b815260206004820152602a60248201527f4552433732313a2062616c616e636520717565727920666f7220746865207a65604482015269726f206164647265737360b01b6064820152608401610c9a565b506001600160a01b031660009081526003602052604090205490565b6000611b268335613748565b611b40611b366020840184614ad6565b8360200135613b9f565b694552433732314c696e6b60b01b6000611b5d6020850185614ad6565b8460200135604051602001611b9f9291906545524337323160d01b815260609290921b6bffffffffffffffffffffffff19166006830152601a820152603a0190565b60408051601f1981840301815291905280516020918201206013549092506001600160a01b031690632ea24efc90600090611bdc90880188614ad6565b6040516001600160e01b031960e085901b16815260048101929092526001600160a01b0316602482015260208701356044820152606401600060405180830381600087803b158015611c2d57600080fd5b505af1158015611c41573d6000803e3d6000fd5b50505085356000908152600a602052604081206003018054919250908290611c68906152b4565b9182905550905073__$2873850e5b3f5697aafc2f5cd9f27cc884$__6340f00f4287838686611c9a60208c018c614ad6565b604080516001600160a01b039092166020838101919091528d013590820152606001611135565b611cca81613748565b60135460405162fba02760e01b8152600481018490526000916001600160a01b03169062fba02790602401602060405180830381865afa158015611d12573d6000803e3d6000fd5b505050506040513d601f19601f82011682018060405250810190611d3691906155af565b6000838152600d60209081526040808320848452909152808220829055519192508291849186917f5751ba9aebec2dcd504f8865b0e0c98a772403773fe528fce2fce580c9a8a1659190a4505050565b611d8f83613748565b6000838152600a60205260409020611dab906002018383614782565b50827fc6b6b2c87fb0784186dd03398c7203c866d0ae59539fa3158aecbc86cb587a958383604051611dde9291906156d9565b60405180910390a2505050565b6017546000906001600160a01b0316611e0657506001611f6b565b60175460405163599d32cd60e01b81526000916001600160a01b03169063599d32cd90611e3990889088906004016156d9565b602060405180830381865afa158015611e56573d6000803e3d6000fd5b505050506040513d601f19601f82011682018060405250810190611e7a91906156ed565b601754604051630354faeb60e41b81529192506000916001600160a01b039091169063354faeb090611eb290899089906004016156d9565b602060405180830381865afa158015611ecf573d6000803e3d6000fd5b505050506040513d601f19601f82011682018060405250810190611ef391906156ed565b9050836001600160a01b0316826001600160a01b03161480611f265750836001600160a01b0316816001600160a01b0316145b15611f3657600192505050611f6b565b6001600160a01b038216158015611f5457506001600160a01b038116155b15611f6457600192505050611f6b565b6000925050505b9392505050565b6000838152600a6020526040902060030154606090611f9a83611f95868461570a565b613c4f565b9250826001600160401b03811115611fb457611fb4614eaa565b60405190808252806020026020018201604052801561201c57816020015b6040805160e0810182526000808252602080830182905260609383018490529282018190526080820181905260a0820181905260c08201528252600019909201910181611fd25790505b50915080841061202c5750611f6b565b835b8381101561217e57600e600087815260200190815260200160002060008281526020019081526020016000206040518060e0016040529081600082015481526020016001820154815260200160028201805461208990615180565b80601f01602080910402602001604051908101604052809291908181526020018280546120b590615180565b80156121025780601f106120d757610100808354040283529160200191612102565b820191906000526020600020905b8154815290600101906020018083116120e557829003601f168201915b505050918352505060038201546001600160a01b0390811660208301526004830154811660408301526005909201549182166060820152600160a01b90910460ff161515608090910152835184908390811061216057612160615599565b60200260200101819052508080612176906152b4565b91505061202e565b50509392505050565b6121918135613748565b60135481356000908152600d6020908152604080832060608601358452909152908190205490516317e9a8b160e31b815273__$e2c9a8f399964af47bb173600dd9e5f662$__9263bf4d458892610d259286926001600160a01b03169190600401615721565b6122018135613748565b60135481356000908152600d6020908152604080832081860135845290915290819020549051631a530d7760e21b815273__$e2c9a8f399964af47bb173600dd9e5f662$__9263694c35dc92610d259286926001600160a01b0316919060040161579a565b60135460405162fba02760e01b8152600481018390526000916001600160a01b03169062fba02790602401602060405180830381865afa1580156122ae573d6000803e3d6000fd5b505050506040513d601f19601f82011682018060405250810190610b8d91906155af565b606060018054610ba290615180565b6122ea82613748565b60405163470c9bf360e11b8152600481018390526001600160a01b0382166024820152600a604482015273__$da066dc100670b51e733250a114f607b42$__90638e1937e69060640160006040518083038186803b15801561234b57600080fd5b505af415801561235f573d6000803e3d6000fd5b505050505050565b6123718135613748565b601354604051635fe5df1d60e11b815273__$e2c9a8f399964af47bb173600dd9e5f662$__9163bfcbbe3a91610d259185916001600160a01b0390911690600d9060040161579a565b60006123c68335613748565b82356000908152600a6020526040812060030180546a50726f66696c654c696e6b60a81b928592909182906110fc906152b4565b60006124068435613748565b60405166416e794c696e6b60c81b9060009061242890869086906020016157ad565b60408051601f19818403018152908290528051602090910120601354633610bf0960e11b83529092506001600160a01b031690636c217e1290612474906000908990899060040161545e565b600060405180830381600087803b15801561248e57600080fd5b505af11580156124a2573d6000803e3d6000fd5b50505086356000908152600a6020526040812060030180549192509082906124c9906152b4565b919050819055905073__$2873850e5b3f5697aafc2f5cd9f27cc884$__6340f00f42888386868b8b6040516020016125029291906156d9565b604051602081830303815290604052600e6040518763ffffffff1660e01b8152600401612534969594939291906153c2565b60006040518083038186803b15801561254c57600080fd5b505af4158015612560573d6000803e3d6000fd5b50929998505050505050505050565b61257a338383613c65565b5050565b61258783613748565b61259582826107f186611996565b6125d55760405162461bcd60e51b815260206004820152601160248201527048616e646c654e6f74456c696769626c6560781b6044820152606401610c9a565b60405163c57cb53760e01b815273__$da066dc100670b51e733250a114f607b42$__9063c57cb5379061189e90869086908690600b90600a906004016157cc565b600061262782356020840135613d34565b73__$2873850e5b3f5697aafc2f5cd9f27cc884$__6379b8a998833560208501356126586060870160408801614ad6565b61266560608801886151b5565b6014546040516001600160e01b031960e089901b16815261269d9695949392916001600160a01b031690600a90600e906004016157fa565b602060405180830381865af41580156122ae573d6000803e3d6000fd5b6126c48135613748565b6126d18160200135613de9565b73__$e2c9a8f399964af47bb173600dd9e5f662$__634fcfb9b082356020840135604085013561270460608701876151b5565b6040516331a9108f60e11b8152883560048201523090636352211e90602401602060405180830381865afa158015612740573d6000803e3d6000fd5b505050506040513d601f19601f8201168201806040525081019061276491906156ed565b6013546020808b01356000908152600a9091526040908190206005015490516001600160e01b031960e08b901b168152610d25989796959493926001600160a01b03908116921690600d90600401615848565b6127c133836137e8565b6127dd5760405162461bcd60e51b8152600401610c9a9061540d565b6127e984848484613e40565b50505050565b6127f98135613748565b60135481356000908152600d60209081526040808320818601358452909152908190205490516352bff63d60e01b815273__$e2c9a8f399964af47bb173600dd9e5f662$__926352bff63d92610d259286926001600160a01b031691906004016154cf565b6128688135613748565b61287a81602001358260400135613d34565b601354604051631619823f60e31b815273__$e2c9a8f399964af47bb173600dd9e5f662$__9163b0cc11f891610d259185916001600160a01b0390911690600e90600d906004016158a2565b6128e36128d660208301836151b5565b6107f16020850185614ad6565b6129235760405162461bcd60e51b815260206004820152601160248201527048616e646c654e6f74456c696769626c6560781b6044820152606401610c9a565b601254612931906001615918565b60125561294c6129446020830183614ad6565b601254613e73565b6012546040516328837e1960e21b815273__$da066dc100670b51e733250a114f607b42$__9163a20df8649161299091859160019190600b90600a90600401615930565b60006040518083038186803b1580156129a857600080fd5b505af41580156129bc573d6000803e3d6000fd5b50600c9250600091506129d490506020840184614ad6565b6001600160a01b03168152602081019190915260400160002054610ea857601254600c6000612a066020850185614ad6565b6001600160a01b0316815260208101919091526040016000205550565b6000612a2f8335613748565b82356000908152600a6020526040812060030180546a416464726573734c696e6b60a81b926001600160a01b0386169290918290612a6c906152b4565b919050819055905073__$2873850e5b3f5697aafc2f5cd9f27cc884$__6340f00f42878386868a60405160200161113591906001600160a01b0391909116815260200190565b612abb82613fc1565b61257a828261403f565b612ace82613748565b612ad88282613d34565b6000918252600e602090815260408084209284529190529020600501805460ff60a01b1916600160a01b179055565b600080612b1383611996565b6001600160a01b03166000908152600c60205260409020549290921492915050565b612b3e83613748565b6013546040516327e70cd360e01b815273__$e2c9a8f399964af47bb173600dd9e5f662$__916327e70cd39161189e918791879187916001600160a01b0390911690600d906004016155c8565b6000818152600a60205260409020600201805460609190612bab90615180565b80601f0160208091040260200160405190810160405280929190818152602001828054612bd790615180565b8015612c245780601f10612bf957610100808354040283529160200191612c24565b820191906000526020600020905b815481529060010190602001808311612c0757829003601f168201915b50505050509050919050565b612c3a8135613748565b612c57612c4d6040830160208401614ad6565b8260400135613b9f565b601354604051638f3334ff60e01b815273__$e2c9a8f399964af47bb173600dd9e5f662$__91638f3334ff91610d259185916001600160a01b0390911690600d90600401615a11565b6060610b8d82612b8b565b612cb58135613748565b612cc481356020830135613d34565b73__$69db18565ecbefece480e92cc5f8fb1274$__6320828a0282356020840135612cf56060860160408701614ad6565b612d0260608701876151b5565b600e6040518763ffffffff1660e01b8152600401610d2596959493929190615a89565b6000612d318235613748565b81356000908152600a6020526040812060030180548290612d51906152b4565b918290555060405163207807a160e11b815290915073__$2873850e5b3f5697aafc2f5cd9f27cc884$__906340f00f4290612d9a90869085906000908190600e90600401615ab7565b60006040518083038186803b158015612db257600080fd5b505af4158015612dc6573d6000803e3d6000fd5b509295945050505050565b6040805160e0808201835260008083526020808401829052606084860181905284018290526080840182905260a0840182905260c08401829052868252600e81528482208683528152908490208451928301855280548352600181015491830191909152600281018054939492939192840191612e4d90615180565b80601f0160208091040260200160405190810160405280929190818152602001828054612e7990615180565b8015612ec65780601f10612e9b57610100808354040283529160200191612ec6565b820191906000526020600020905b815481529060010190602001808311612ea957829003601f168201915b505050918352505060038201546001600160a01b0390811660208301526004830154811660408301526005909201549182166060820152600160a01b90910460ff1615156080909101529392505050565b612f218135613748565b612f3081356020830135613d34565b73__$69db18565ecbefece480e92cc5f8fb1274$__631f2ffb6982356020840135612cf56060860160408701614ad6565b601354604051632b05429560e21b8152600481018390526060916001600160a01b03169063ac150a5490602401600060405180830381865afa158015612fab573d6000803e3d6000fd5b505050506040513d6000823e601f3d908101601f19168201604052610b8d9190810190615afc565b601454600160a81b900460ff16612ff757601454600160a01b900460ff1615612ffb565b303b155b61305e5760405162461bcd60e51b815260206004820152602e60248201527f496e697469616c697a61626c653a20636f6e747261637420697320616c72656160448201526d191e481a5b9a5d1a585b1a5e995960921b6064820152608401610c9a565b601454600160a81b900460ff16158015613088576014805461ffff60a01b191661010160a01b1790555b613094898989896140a3565b601380546001600160a01b03199081166001600160a01b0388811691909117909255601480548216878416179055601580548216868416179055601780549091169184169190911790556040514281527f400175a56dd3710794078f7b9dbe8296ac94c5a248dfd51bb22ed4ab9eaa9fbf9060200160405180910390a18015613125576014805460ff60a81b191690555b505050505050505050565b6000818152600a60205260409020600101805460609190612bab90615180565b61315a8135613748565b60135481356000908152600d602090815260408083208186013584529091529081902054905163bf5c00c160e01b815273__$e2c9a8f399964af47bb173600dd9e5f662$__9263bf5c00c192610d259286926001600160a01b03169190600401615b69565b6131c7614700565b600a60008381526020019081526020016000206040518060c0016040529081600082015481526020016001820180546131ff90615180565b80601f016020809104026020016040519081016040528092919081815260200182805461322b90615180565b80156132785780601f1061324d57610100808354040283529160200191613278565b820191906000526020600020905b81548152906001019060200180831161325b57829003601f168201915b5050505050815260200160028201805461329190615180565b80601f01602080910402602001604051908101604052809291908181526020018280546132bd90615180565b801561330a5780601f106132df5761010080835404028352916020019161330a565b820191906000526020600020905b8154815290600101906020018083116132ed57829003601f168201915b50505091835250506003820154602082015260048201546001600160a01b03908116604083015260059092015490911660609091015292915050565b60006001600160e01b031982166380ac58cd60e01b148061337757506001600160e01b03198216635b5e139f60e01b145b80610b8d57506301ffc9a760e01b6001600160e01b0319831614610b8d565b600081815260046020526040902080546001600160a01b0319166001600160a01b03841690811790915581906133cb82611996565b6001600160a01b03167f8c5be1e5ebec7d5bd14f71427d1e84f3dd0314c0f7b2291e5b200ac8c7c3b92560405160405180910390a45050565b61340d84613748565b6001600160a01b0383166000908152600c6020526040902054156134875760405162461bcd60e51b815260206004820152602b60248201527f546172676574206164647265737320616c726561647920686173207072696d6160448201526a393c90383937b334b6329760a91b6064820152608401610c9a565b6000601260008154613498906152b4565b918290555090506134a98482613e73565b73__$da066dc100670b51e733250a114f607b42$__63a20df8646040518060a00160405280876001600160a01b031681526020016134f1886001600160a01b031660146140f4565b815260200160405180602001604052806000815250815260200160006001600160a01b0316815260200160405180602001604052806000815250815250600084600b600a6040518663ffffffff1660e01b8152600401613555959493929190615bc1565b60006040518083038186803b15801561356d57600080fd5b505af4158015613581573d6000803e3d6000fd5b505050506001600160a01b0384166000908152600c602052604090819020829055516331a9108f60e11b81526004810186905273__$e2c9a8f399964af47bb173600dd9e5f662$__90634fcfb9b09087908490879087903090636352211e90602401602060405180830381865afa158015613600573d6000803e3d6000fd5b505050506040513d601f19601f8201168201806040525081019061362491906156ed565b6013546040516001600160e01b031960e089901b16815261365c9695949392916001600160a01b031690600090600d90600401615c4e565b60006040518083038186803b15801561367457600080fd5b505af4158015613125573d6000803e3d6000fd5b6013546040516331a9108f60e11b8152600481018390526001600160a01b0390911690636352211e90602401602060405180830381865afa1580156136d1573d6000803e3d6000fd5b505050506040513d601f19601f820116820180604052508101906136f591906156ed565b6001600160a01b0316336001600160a01b031614610ea85760405162461bcd60e51b815260206004820152601060248201526f2737ba2634b735a634b9ba27bbb732b960811b6044820152606401610c9a565b600061375382611996565b9050336001600160a01b038216148061378257506000828152601660205260409020546001600160a01b031633145b806137aa5750326001600160a01b0382161480156137aa57506015546001600160a01b031633145b61257a5760405162461bcd60e51b815260206004820152600f60248201526e2737ba283937b334b632a7bbb732b960891b6044820152606401610c9a565b6000818152600260205260408120546001600160a01b03166138615760405162461bcd60e51b815260206004820152602c60248201527f4552433732313a206f70657261746f7220717565727920666f72206e6f6e657860448201526b34b9ba32b73a103a37b5b2b760a11b6064820152608401610c9a565b600061386c83611996565b9050806001600160a01b0316846001600160a01b031614806138a75750836001600160a01b031661389c84610c25565b6001600160a01b0316145b806138d757506001600160a01b0380821660009081526005602090815260408083209388168352929052205460ff165b949350505050565b826001600160a01b03166138f282611996565b6001600160a01b0316146139565760405162461bcd60e51b815260206004820152602560248201527f4552433732313a207472616e736665722066726f6d20696e636f72726563742060448201526437bbb732b960d91b6064820152608401610c9a565b6001600160a01b0382166139b85760405162461bcd60e51b8152602060048201526024808201527f4552433732313a207472616e7366657220746f20746865207a65726f206164646044820152637265737360e01b6064820152608401610c9a565b6139c383838361428f565b6139ce600082613396565b6001600160a01b03831660009081526003602052604081208054600192906139f790849061570a565b90915550506001600160a01b0382166000908152600360205260408120805460019290613a25908490615918565b909155505060008181526002602052604080822080546001600160a01b0319166001600160a01b0386811691821790925591518493918716917fddf252ad1be2c89b69c2b068fc378daa952ba7f163c4a11628f55a4df523b3ef91a4505050565b613a9033826137e8565b613adc5760405162461bcd60e51b815260206004820152601b60248201527f4e4654426173653a204e6f744f776e65724f72417070726f76656400000000006044820152606401610c9a565b610ea8816142fa565b6040516331a9108f60e11b8152600481018290526001600160a01b03831690636352211e90602401602060405180830381865afa158015613b2a573d6000803e3d6000fd5b505050506040513d601f19601f82011682018060405250810190613b4e91906156ed565b6001600160a01b0316336001600160a01b03161461257a5760405162461bcd60e51b815260206004820152600e60248201526d2737ba22a9219b9918a7bbb732b960911b6044820152606401610c9a565b6040516331a9108f60e11b8152600481018290526001600160a01b03831690636352211e90602401602060405180830381865afa158015613be4573d6000803e3d6000fd5b505050506040513d601f19601f82011682018060405250810190613c0891906156ed565b6001600160a01b031661257a5760405162461bcd60e51b815260206004820152600f60248201526e5245433732314e6f7445786973747360881b6044820152606401610c9a565b6000818310613c5e5781611f6b565b5090919050565b816001600160a01b0316836001600160a01b03161415613cc75760405162461bcd60e51b815260206004820152601960248201527f4552433732313a20617070726f766520746f2063616c6c6572000000000000006044820152606401610c9a565b6001600160a01b03838116600081815260056020908152604080832094871680845294825291829020805460ff191686151590811790915591519182527f17307eab39ab6107e8899845ad3d59bd9653f200f220920489ca2b5937696c31910160405180910390a3505050565b6000828152600e60209081526040808320848452909152902060050154600160a01b900460ff1615613d985760405162461bcd60e51b815260206004820152600d60248201526c139bdd19525cd1195b195d1959609a1b6044820152606401610c9a565b6000828152600a602052604090206003015481111561257a5760405162461bcd60e51b815260206004820152600d60248201526c4e6f74654e6f7445786973747360981b6044820152606401610c9a565b6000818152600260205260409020546001600160a01b0316610ea85760405162461bcd60e51b815260206004820152601060248201526f50726f66696c654e6f7445786973747360801b6044820152606401610c9a565b613e4b8484846138df565b613e57848484846143a1565b6127e95760405162461bcd60e51b8152600401610c9a90615ca6565b6001600160a01b038216613ec95760405162461bcd60e51b815260206004820181905260248201527f4552433732313a206d696e7420746f20746865207a65726f20616464726573736044820152606401610c9a565b6000818152600260205260409020546001600160a01b031615613f2e5760405162461bcd60e51b815260206004820152601c60248201527f4552433732313a20746f6b656e20616c7265616479206d696e746564000000006044820152606401610c9a565b613f3a6000838361428f565b6001600160a01b0382166000908152600360205260408120805460019290613f63908490615918565b909155505060008181526002602052604080822080546001600160a01b0319166001600160a01b03861690811790915590518392907fddf252ad1be2c89b69c2b068fc378daa952ba7f163c4a11628f55a4df523b3ef908290a45050565b6000613fcc82611996565b9050336001600160a01b03821614806137aa5750326001600160a01b0382161480156137aa57506015546001600160a01b0316331461257a5760405162461bcd60e51b815260206004820152600f60248201526e2737ba283937b334b632a7bbb732b960891b6044820152606401610c9a565b60008281526016602090815260409182902080546001600160a01b0319166001600160a01b038516908117909155915142815284917f7557fcfe5715156a688dd4ab724febd306cec5637d46a8c9d7af125ddd07bae8910160405180910390a35050565b6140af8484848461449f565b7f414cd0b34676984f09a5f76ce9718d4062e50283abe0e7e274a9a5b4e0c99c3084848484426040516140e6959493929190615cf8565b60405180910390a150505050565b60606000614103836002615d32565b61410e906002615918565b6001600160401b0381111561412557614125614eaa565b6040519080825280601f01601f19166020018201604052801561414f576020820181803683370190505b509050600360fc1b8160008151811061416a5761416a615599565b60200101906001600160f81b031916908160001a905350600f60fb1b8160018151811061419957614199615599565b60200101906001600160f81b031916908160001a90535060006141bd846002615d32565b6141c8906001615918565b90505b6001811115614240576f181899199a1a9b1b9c1cb0b131b232b360811b85600f16601081106141fc576141fc615599565b1a60f81b82828151811061421257614212615599565b60200101906001600160f81b031916908160001a90535060049490941c9361423981615d51565b90506141cb565b508315611f6b5760405162461bcd60e51b815260206004820181905260248201527f537472696e67733a20686578206c656e67746820696e73756666696369656e746044820152606401610c9a565b6000818152601660205260409020546001600160a01b0316156142b7576142b781600061403f565b6001600160a01b0383166000908152600c6020526040902054156142ef576001600160a01b0383166000908152600c60205260408120555b610e698383836144b8565b600061430582611996565b90506143138160008461428f565b61431e600083613396565b6001600160a01b038116600090815260036020526040812080546001929061434790849061570a565b909155505060008281526002602052604080822080546001600160a01b0319169055518391906001600160a01b038416907fddf252ad1be2c89b69c2b068fc378daa952ba7f163c4a11628f55a4df523b3ef908390a45050565b60006001600160a01b0384163b1561449457604051630a85bd0160e11b81526001600160a01b0385169063150b7a02906143e5903390899088908890600401615d68565b6020604051808303816000875af1925050508015614420575060408051601f3d908101601f1916820190925261441d91810190615d9b565b60015b61447a573d80801561444e576040519150601f19603f3d011682016040523d82523d6000602084013e614453565b606091505b5080516144725760405162461bcd60e51b8152600401610c9a90615ca6565b805181602001fd5b6001600160e01b031916630a85bd0160e11b1490506138d7565b506001949350505050565b6144ab60008585614782565b50610d5160018383614782565b6001600160a01b0383166145135761450e81600880546000838152600960205260408120829055600182018355919091527ff3f7a9fe364faab93b216da50a3214154f22a0a2b415b23a84c8169e8b636ee30155565b614536565b816001600160a01b0316836001600160a01b031614614536576145368382614570565b6001600160a01b03821661454d57610e698161460d565b826001600160a01b0316826001600160a01b031614610e6957610e6982826146bc565b6000600161457d84611a93565b614587919061570a565b6000838152600760205260409020549091508082146145da576001600160a01b03841660009081526006602090815260408083208584528252808320548484528184208190558352600790915290208190555b5060009182526007602090815260408084208490556001600160a01b039094168352600681528383209183525290812055565b60085460009061461f9060019061570a565b6000838152600960205260408120546008805493945090928490811061464757614647615599565b90600052602060002001549050806008838154811061466857614668615599565b60009182526020808320909101929092558281526009909152604080822084905585825281205560088054806146a0576146a0615db8565b6001900381819060005260206000200160009055905550505050565b60006146c783611a93565b6001600160a01b039093166000908152600660209081526040808320868452825280832085905593825260079052919091209190915550565b6040518060c001604052806000815260200160608152602001606081526020016000815260200160006001600160a01b0316815260200160006001600160a01b031681525090565b50805461475490615180565b6000825580601f10614764575050565b601f016020900490600052602060002090810190610ea89190614806565b82805461478e90615180565b90600052602060002090601f0160209004810192826147b057600085556147f6565b82601f106147c95782800160ff198235161785556147f6565b828001600101855582156147f6579182015b828111156147f65782358255916020019190600101906147db565b50614802929150614806565b5090565b5b808211156148025760008155600101614807565b6001600160e01b031981168114610ea857600080fd5b60006020828403121561484357600080fd5b8135611f6b8161481b565b60005b83811015614869578181015183820152602001614851565b838111156127e95750506000910152565b6000815180845261489281602086016020860161484e565b601f01601f19169290920160200192915050565b602081526000611f6b602083018461487a565b6000602082840312156148cb57600080fd5b5035919050565b6000606082840312156148e457600080fd5b50919050565b6000602082840312156148fc57600080fd5b81356001600160401b0381111561491257600080fd5b6138d7848285016148d2565b6001600160a01b0381168114610ea857600080fd5b6000806040838503121561494657600080fd5b82356149518161491e565b946020939093013593505050565b60006060828403121561497157600080fd5b611f6b83836148d2565b60008083601f84011261498d57600080fd5b5081356001600160401b038111156149a457600080fd5b6020830191508360208285010111156149bc57600080fd5b9250929050565b600080602083850312156149d657600080fd5b82356001600160401b038111156149ec57600080fd5b6149f88582860161497b565b90969095509350505050565b60208152815160208201526000602083015160c06040840152614a2a60e084018261487a565b90506040840151601f19848303016060850152614a47828261487a565b91505060608401516080840152608084015160018060a01b0380821660a08601528060a08701511660c086015250508091505092915050565b600060c082840312156148e457600080fd5b60008060408385031215614aa557600080fd5b82356001600160401b03811115614abb57600080fd5b614ac785828601614a80565b95602094909401359450505050565b600060208284031215614ae857600080fd5b8135611f6b8161491e565b600080600060608486031215614b0857600080fd5b8335614b138161491e565b92506020840135614b238161491e565b929592945050506040919091013590565b600080600060408486031215614b4957600080fd5b8335925060208401356001600160401b03811115614b6657600080fd5b614b728682870161497b565b9497909650939450505050565b6000608082840312156148e457600080fd5b600060208284031215614ba357600080fd5b81356001600160401b03811115614bb957600080fd5b6138d784828501614b7f565b6000604082840312156148e457600080fd5b60008060608385031215614bea57600080fd5b82356001600160401b03811115614c0057600080fd5b614c0c85828601614a80565b925050614c1c8460208501614bc5565b90509250929050565b600060808284031215614c3757600080fd5b611f6b8383614b7f565b60008060408385031215614c5457600080fd5b50508035926020909101359150565b600080600060a08486031215614c7857600080fd5b83359250614c8985602086016148d2565b9150608084013590509250925092565b600080600060408486031215614cae57600080fd5b83356001600160401b03811115614cc457600080fd5b614cd08682870161497b565b9094509250506020840135614ce48161491e565b809150509250925092565b600080600060608486031215614d0457600080fd5b505081359360208301359350604090920135919050565b80518252602081015160208301526000604082015160e06040850152614d4460e085018261487a565b9050606083015160018060a01b0380821660608701528060808601511660808701528060a08601511660a0870152505060c0830151151560c08501528091505092915050565b6000602080830181845280855180835260408601915060408160051b870101925083870160005b82811015614ddf57603f19888603018452614dcd858351614d1b565b94509285019290850190600101614db1565b5092979650505050505050565b60008060408385031215614dff57600080fd5b823591506020830135614e118161491e565b809150509250929050565b600080600060408486031215614e3157600080fd5b83356001600160401b0380821115614e4857600080fd5b614e5487838801614a80565b94506020860135915080821115614e6a57600080fd5b50614b728682870161497b565b60008060408385031215614e8a57600080fd5b8235614e958161491e565b915060208301358015158114614e1157600080fd5b634e487b7160e01b600052604160045260246000fd5b604051601f8201601f191681016001600160401b0381118282101715614ee857614ee8614eaa565b604052919050565b60006001600160401b03821115614f0957614f09614eaa565b50601f01601f191660200190565b60008060008060808587031215614f2d57600080fd5b8435614f388161491e565b93506020850135614f488161491e565b92506040850135915060608501356001600160401b03811115614f6a57600080fd5b8501601f81018713614f7b57600080fd5b8035614f8e614f8982614ef0565b614ec0565b818152886020838501011115614fa357600080fd5b8160208401602083013760006020838301015280935050505092959194509250565b600060a082840312156148e457600080fd5b600060208284031215614fe957600080fd5b81356001600160401b03811115614fff57600080fd5b6138d784828501614fc5565b6000806040838503121561501e57600080fd5b82356001600160401b0381111561503457600080fd5b61504085828601614a80565b9250506020830135614e118161491e565b60006020828403121561506357600080fd5b81356001600160401b0381111561507957600080fd5b6138d784828501614a80565b602081526000611f6b6020830184614d1b565b60008060008060008060008060c0898b0312156150b457600080fd5b88356001600160401b03808211156150cb57600080fd5b6150d78c838d0161497b565b909a50985060208b01359150808211156150f057600080fd5b506150fd8b828c0161497b565b90975095505060408901356151118161491e565b935060608901356151218161491e565b925060808901356151318161491e565b915060a08901356151418161491e565b809150509295985092959890939650565b6000806040838503121561516557600080fd5b82356151708161491e565b91506020830135614e118161491e565b600181811c9082168061519457607f821691505b602082108114156148e457634e487b7160e01b600052602260045260246000fd5b6000808335601e198436030181126151cc57600080fd5b8301803591506001600160401b038211156151e657600080fd5b6020019150368190038213156149bc57600080fd5b81835281816020850137506000828201602090810191909152601f909101601f19169091010190565b6001600160a01b0386811682528516602082015260806040820181905260009061525190830185876151fb565b90508260608301529695505050505050565b8183823760009101908152919050565b8581526001600160a01b038516602082015260806040820181905260009061525190830185876151fb565b634e487b7160e01b600052601160045260246000fd5b60006000198214156152c8576152c861529e565b5060010190565b6000808335601e198436030181126152e657600080fd5b83016020810192503590506001600160401b0381111561530557600080fd5b8036038313156149bc57600080fd5b80358252600061532760208301836152cf565b60c0602086015261533c60c0860182846151fb565b915050604083013561534d8161491e565b6001600160a01b03818116604087015261536a60608601866152cf565b9250868403606088015261537f8484836151fb565b935050608085013591506153928261491e565b1660808501526153a560a08401846152cf565b85830360a08701526153b88382846151fb565b9695505050505050565b60c0815260006153d560c0830189615314565b87602084015286604084015285606084015282810360808401526153f9818661487a565b9150508260a0830152979650505050505050565b60208082526031908201527f4552433732313a207472616e736665722063616c6c6572206973206e6f74206f6040820152701ddb995c881b9bdc88185c1c1c9bdd9959607a1b606082015260800190565b8381526040602082015260006154786040830184866151fb565b95945050505050565b80358252600060208201356154958161491e565b6001600160a01b03166020840152604082810135908401526154ba60608301836152cf565b608060608601526154786080860182846151fb565b6060815260006154e26060830186615481565b6001600160a01b039490941660208301525060400152919050565b600080835481600182811c91508083168061551957607f831692505b602080841082141561553957634e487b7160e01b86526022600452602486fd5b81801561554d576001811461555e5761558b565b60ff1986168952848901965061558b565b60008a81526020902060005b868110156155835781548b82015290850190830161556a565b505084890196505b509498975050505050505050565b634e487b7160e01b600052603260045260246000fd5b6000602082840312156155c157600080fd5b5051919050565b85815260e081016155f060208301878035825260208082013590830152604090810135910152565b60808201949094526001600160a01b039290921660a083015260c09091015292915050565b6060815283356060820152600061562f60208601866152cf565b60808085015261564360e0850182846151fb565b915050604086013560a084015261565d60608701876152cf565b848303605f190160c08601526156748382846151fb565b6001600160a01b039790971660208601525050505060400152919050565b6001600160a01b038781168252602082018790528516604082015260a0606082018190526000906156c690830185876151fb565b9050826080830152979650505050505050565b6020815260006138d76020830184866151fb565b6000602082840312156156ff57600080fd5b8151611f6b8161491e565b60008282101561571c5761571c61529e565b500390565b8335815260c0810160208501356157378161491e565b6001600160a01b039081166020840152604086810135908401526060958601359583019590955292909316608084015260a09092019190915290565b80358252602081013560208301526040810135604083015260006154ba60608301836152cf565b6060815260006154e26060830186615773565b62416e7960e81b81528183600383013760009101600301908152919050565b8581526080602082015260006157e66080830186886151fb565b604083019490945250606001529392505050565b888152876020820152600060018060a01b03808916604084015260e0606084015261582960e08401888a6151fb565b951660808301525060a081019290925260c09091015295945050505050565b60006101008b83528a602084015289604084015280606084015261586f818401898b6151fb565b6001600160a01b03978816608085015295871660a084015250509190931660c082015260e0019190915295945050505050565b6080815284356080820152602085013560a0820152604085013560c0820152606085013560e082015260006158da60808701876152cf565b60a06101008501526158f1610120850182846151fb565b6001600160a01b039790971660208501525050506040810192909252606090910152919050565b6000821982111561592b5761592b61529e565b500190565b60a08152600086356159418161491e565b6001600160a01b0381811660a085015261595e60208a018a6152cf565b925060a060c0860152615976610140860184836151fb565b92505061598660408a018a6152cf565b609f19808786030160e088015261599e8583856151fb565b945060608c013592506159b08361491e565b8383166101008801526159c660808d018d6152cf565b94509250808786030161012088015250506159e28383836151fb565b93505050506159f5602083018715159052565b8460408301528360608301528260808301529695505050505050565b606081528335606082015260006020850135615a2c8161491e565b60018060a01b038082166080850152604087013560a0850152606087013560c0850152615a5c60808801886152cf565b925060a060e0860152615a74610100860184836151fb565b96909116602085015250505060400152919050565b86815285602082015260018060a01b038516604082015260a0606082015260006156c660a0830185876151fb565b60c081526000615aca60c0830188615314565b602083810197909752604083019590955250606081019290925281830360808301526000835260a09091015201919050565b600060208284031215615b0e57600080fd5b81516001600160401b03811115615b2457600080fd5b8201601f81018413615b3557600080fd5b8051615b43614f8982614ef0565b818152856020838501011115615b5857600080fd5b61547882602083016020860161484e565b60608152833560608201526000615b8360208601866152cf565b60606080850152615b9860c0850182846151fb565b60409788013560a08601526001600160a01b039690961660208501525050509092019190915290565b60a08152600060018060a01b038088511660a0840152602088015160a060c0850152615bf161014085018261487a565b90506040890151609f19808684030160e0870152615c0f838361487a565b92508360608c01511661010087015260808b0151935080868403016101208701525050615c3c818361487a565b925050506159f5602083018715159052565b60006101008a8352896020840152886040840152806060840152615c748184018961487a565b6001600160a01b03978816608085015295871660a084015250509190931660c082015260e00191909152949350505050565b60208082526032908201527f4552433732313a207472616e7366657220746f206e6f6e20455243373231526560408201527131b2b4bb32b91034b6b83632b6b2b73a32b960711b606082015260800190565b606081526000615d0c6060830187896151fb565b8281036020840152615d1f8186886151fb565b9150508260408301529695505050505050565b6000816000190483118215151615615d4c57615d4c61529e565b500290565b600081615d6057615d6061529e565b506000190190565b6001600160a01b03858116825284166020820152604081018390526080606082018190526000906153b89083018461487a565b600060208284031215615dad57600080fd5b8151611f6b8161481b565b634e487b7160e01b600052603160045260246000fdfea2646970667358221220545c2fef34785f758c865649b0587e7130a536c8272d884ab67a56ff67b060cf64736f6c634300080a0033",
    "linkReferences": {
        "contracts/libraries/LinkLogic.sol": {
            "LinkLogic": [
                {
                    "length": 20,
                    "start": 4705
                },
                {
                    "length": 20,
                    "start": 5103
                },
                {
                    "length": 20,
                    "start": 5553
                },
                {
                    "length": 20,
                    "start": 6279
                },
                {
                    "length": 20,
                    "start": 6528
                },
                {
                    "length": 20,
                    "start": 8677
                },
                {
                    "length": 20,
                    "start": 8788
                },
                {
                    "length": 20,
                    "start": 9124
                },
                {
                    "length": 20,
                    "start": 9972
                },
                {
                    "length": 20,
                    "start": 10316
                },
                {
                    "length": 20,
                    "start": 10413
                },
                {
                    "length": 20,
                    "start": 11121
                },
                {
                    "length": 20,
                    "start": 11402
                },
                {
                    "length": 20,
                    "start": 12717
                },
                {
                    "length": 20,
                    "start": 13783
                }
            ]
        },
        "contracts/libraries/LinkModuleLogic.sol": {
            "LinkModuleLogic": [
                {
                    "length": 20,
                    "start": 3298
                },
                {
                    "length": 20,
                    "start": 4231
                },
                {
                    "length": 20,
                    "start": 6730
                },
                {
                    "length": 20,
                    "start": 11495
                },
                {
                    "length": 20,
                    "start": 12115
                }
            ]
        },
        "contracts/libraries/PostLogic.sol": {
            "PostLogic": [
                {
                    "length": 20,
                    "start": 4391
                },
                {
                    "length": 20,
                    "start": 5401
                },
                {
                    "length": 20,
                    "start": 7314
                },
                {
                    "length": 20,
                    "start": 9460
                },
                {
                    "length": 20,
                    "start": 9802
                },
                {
                    "length": 20,
                    "start": 10903
                },
                {
                    "length": 20,
                    "start": 11657
                }
            ]
        },
        "contracts/libraries/ProfileLogic.sol": {
            "ProfileLogic": [
                {
                    "length": 20,
                    "start": 6391
                },
                {
                    "length": 20,
                    "start": 9015
                },
                {
                    "length": 20,
                    "start": 9733
                },
                {
                    "length": 20,
                    "start": 10623
                },
                {
                    "length": 20,
                    "start": 13516
                }
            ]
        }
    },
    "deployedLinkReferences": {
        "contracts/libraries/LinkLogic.sol": {
            "LinkLogic": [
                {
                    "length": 20,
                    "start": 4672
                },
                {
                    "length": 20,
                    "start": 5070
                },
                {
                    "length": 20,
                    "start": 5520
                },
                {
                    "length": 20,
                    "start": 6246
                },
                {
                    "length": 20,
                    "start": 6495
                },
                {
                    "length": 20,
                    "start": 8644
                },
                {
                    "length": 20,
                    "start": 8755
                },
                {
                    "length": 20,
                    "start": 9091
                },
                {
                    "length": 20,
                    "start": 9939
                },
                {
                    "length": 20,
                    "start": 10283
                },
                {
                    "length": 20,
                    "start": 10380
                },
                {
                    "length": 20,
                    "start": 11088
                },
                {
                    "length": 20,
                    "start": 11369
                },
                {
                    "length": 20,
                    "start": 12684
                },
                {
                    "length": 20,
                    "start": 13750
                }
            ]
        },
        "contracts/libraries/LinkModuleLogic.sol": {
            "LinkModuleLogic": [
                {
                    "length": 20,
                    "start": 3265
                },
                {
                    "length": 20,
                    "start": 4198
                },
                {
                    "length": 20,
                    "start": 6697
                },
                {
                    "length": 20,
                    "start": 11462
                },
                {
                    "length": 20,
                    "start": 12082
                }
            ]
        },
        "contracts/libraries/PostLogic.sol": {
            "PostLogic": [
                {
                    "length": 20,
                    "start": 4358
                },
                {
                    "length": 20,
                    "start": 5368
                },
                {
                    "length": 20,
                    "start": 7281
                },
                {
                    "length": 20,
                    "start": 9427
                },
                {
                    "length": 20,
                    "start": 9769
                },
                {
                    "length": 20,
                    "start": 10870
                },
                {
                    "length": 20,
                    "start": 11624
                }
            ]
        },
        "contracts/libraries/ProfileLogic.sol": {
            "ProfileLogic": [
                {
                    "length": 20,
                    "start": 6358
                },
                {
                    "length": 20,
                    "start": 8982
                },
                {
                    "length": 20,
                    "start": 9700
                },
                {
                    "length": 20,
                    "start": 10590
                },
                {
                    "length": 20,
                    "start": 13483
                }
            ]
        }
    }
}