{
  "_format": "hh-sol-artifact-1",
  "contractName": "Web3Entry",
  "sourceName": "contracts/Web3Entry.sol",
  "abi": [
    {
      "anonymous": false,
      "inputs": [
        {
          "indexed": true,
          "internalType": "address",
          "name": "owner",
          "type": "address"
        },
        {
          "indexed": true,
          "internalType": "address",
          "name": "approved",
          "type": "address"
        },
        {
          "indexed": true,
          "internalType": "uint256",
          "name": "tokenId",
          "type": "uint256"
        }
      ],
      "name": "Approval",
      "type": "event"
    },
    {
      "anonymous": false,
      "inputs": [
        {
          "indexed": true,
          "internalType": "address",
          "name": "owner",
          "type": "address"
        },
        {
          "indexed": true,
          "internalType": "address",
          "name": "operator",
          "type": "address"
        },
        {
          "indexed": false,
          "internalType": "bool",
          "name": "approved",
          "type": "bool"
        }
      ],
      "name": "ApprovalForAll",
      "type": "event"
    },
    {
      "anonymous": false,
      "inputs": [
        {
          "indexed": true,
          "internalType": "address",
          "name": "from",
          "type": "address"
        },
        {
          "indexed": true,
          "internalType": "address",
          "name": "to",
          "type": "address"
        },
        {
          "indexed": true,
          "internalType": "uint256",
          "name": "tokenId",
          "type": "uint256"
        }
      ],
      "name": "Transfer",
      "type": "event"
    },
    {
      "inputs": [
        {
          "internalType": "address",
          "name": "to",
          "type": "address"
        },
        {
          "internalType": "uint256",
          "name": "tokenId",
          "type": "uint256"
        }
      ],
      "name": "approve",
      "outputs": [],
      "stateMutability": "nonpayable",
      "type": "function"
    },
    {
      "inputs": [
        {
          "internalType": "uint256",
          "name": "linklistId",
          "type": "uint256"
        },
        {
          "internalType": "uint256",
          "name": "profileId",
          "type": "uint256"
        }
      ],
      "name": "attachLinklist",
      "outputs": [],
      "stateMutability": "nonpayable",
      "type": "function"
    },
    {
      "inputs": [
        {
          "internalType": "address",
          "name": "owner",
          "type": "address"
        }
      ],
      "name": "balanceOf",
      "outputs": [
        {
          "internalType": "uint256",
          "name": "",
          "type": "uint256"
        }
      ],
      "stateMutability": "view",
      "type": "function"
    },
    {
      "inputs": [
        {
          "components": [
            {
              "internalType": "address",
              "name": "to",
              "type": "address"
            },
            {
              "internalType": "string",
              "name": "handle",
              "type": "string"
            },
            {
              "internalType": "string",
              "name": "uri",
              "type": "string"
            },
            {
              "internalType": "address",
              "name": "linkModule",
              "type": "address"
            },
            {
              "internalType": "bytes",
              "name": "linkModuleInitData",
              "type": "bytes"
            }
          ],
          "internalType": "struct DataTypes.CreateProfileData",
          "name": "profileData",
          "type": "tuple"
        }
      ],
      "name": "createProfile",
      "outputs": [],
      "stateMutability": "nonpayable",
      "type": "function"
    },
    {
      "inputs": [
        {
          "internalType": "uint256",
          "name": "fromProfileId",
          "type": "uint256"
        },
        {
          "internalType": "address",
          "name": "to",
          "type": "address"
        },
        {
          "internalType": "bytes32",
          "name": "linkType",
          "type": "bytes32"
        }
      ],
      "name": "createThenLinkProfile",
      "outputs": [],
      "stateMutability": "nonpayable",
      "type": "function"
    },
    {
      "inputs": [
        {
          "internalType": "uint256",
          "name": "linklistId",
          "type": "uint256"
        },
        {
          "internalType": "uint256",
          "name": "profileId",
          "type": "uint256"
        }
      ],
      "name": "detachLinklist",
      "outputs": [],
      "stateMutability": "nonpayable",
      "type": "function"
    },
    {
      "inputs": [
        {
          "internalType": "uint256",
          "name": "tokenId",
          "type": "uint256"
        }
      ],
      "name": "getApproved",
      "outputs": [
        {
          "internalType": "address",
          "name": "",
          "type": "address"
        }
      ],
      "stateMutability": "view",
      "type": "function"
    },
    {
      "inputs": [
        {
          "internalType": "uint256",
          "name": "profileId",
          "type": "uint256"
        }
      ],
      "name": "getHandle",
      "outputs": [
        {
          "internalType": "string",
          "name": "",
          "type": "string"
        }
      ],
      "stateMutability": "view",
      "type": "function"
    },
    {
      "inputs": [
        {
          "internalType": "address",
          "name": "account",
          "type": "address"
        }
      ],
      "name": "getLinkModule4Address",
      "outputs": [
        {
          "internalType": "address",
          "name": "",
          "type": "address"
        }
      ],
      "stateMutability": "view",
      "type": "function"
    },
    {
      "inputs": [
        {
          "internalType": "address",
          "name": "tokenAddress",
          "type": "address"
        },
        {
          "internalType": "uint256",
          "name": "tokenId",
          "type": "uint256"
        }
      ],
      "name": "getLinkModule4ERC721",
      "outputs": [
        {
          "internalType": "address",
          "name": "",
          "type": "address"
        }
      ],
      "stateMutability": "view",
      "type": "function"
    },
    {
      "inputs": [
        {
          "components": [
            {
              "internalType": "uint256",
              "name": "linklistId",
              "type": "uint256"
            },
            {
              "internalType": "bytes",
              "name": "content",
              "type": "bytes"
            }
          ],
          "internalType": "struct DataTypes.LinkData",
          "name": "linkData",
          "type": "tuple"
        }
      ],
      "name": "getLinkModule4Link",
      "outputs": [
        {
          "internalType": "address",
          "name": "",
          "type": "address"
        }
      ],
      "stateMutability": "view",
      "type": "function"
    },
    {
      "inputs": [
        {
          "internalType": "uint256",
          "name": "tokenId",
          "type": "uint256"
        }
      ],
      "name": "getLinkModule4Linklist",
      "outputs": [
        {
          "internalType": "address",
          "name": "",
          "type": "address"
        }
      ],
      "stateMutability": "view",
      "type": "function"
    },
    {
      "inputs": [
        {
          "internalType": "uint256",
          "name": "profileId",
          "type": "uint256"
        }
      ],
      "name": "getLinkModule4Profile",
      "outputs": [
        {
          "internalType": "address",
          "name": "",
          "type": "address"
        }
      ],
      "stateMutability": "view",
      "type": "function"
    },
    {
      "inputs": [
        {
          "internalType": "uint256",
          "name": "fromProfileId",
          "type": "uint256"
        },
        {
          "internalType": "bytes32",
          "name": "linkType",
          "type": "bytes32"
        }
      ],
      "name": "getLinkingProfileIds",
      "outputs": [
        {
          "internalType": "uint256[]",
          "name": "",
          "type": "uint256[]"
        }
      ],
      "stateMutability": "view",
      "type": "function"
    },
    {
      "inputs": [],
      "name": "getLinklistContract",
      "outputs": [
        {
          "internalType": "address",
          "name": "",
          "type": "address"
        }
      ],
      "stateMutability": "view",
      "type": "function"
    },
    {
      "inputs": [
        {
          "internalType": "uint256",
          "name": "profileId",
          "type": "uint256"
        },
        {
          "internalType": "bytes32",
          "name": "linkType",
          "type": "bytes32"
        }
      ],
      "name": "getLinklistUri",
      "outputs": [
        {
          "internalType": "string",
          "name": "",
          "type": "string"
        }
      ],
      "stateMutability": "view",
      "type": "function"
    },
    {
      "inputs": [
        {
          "components": [
            {
              "internalType": "uint256",
              "name": "linklistId",
              "type": "uint256"
            },
            {
              "internalType": "bytes",
              "name": "content",
              "type": "bytes"
            }
          ],
          "internalType": "struct DataTypes.LinkData",
          "name": "linkData",
          "type": "tuple"
        }
      ],
      "name": "getMintModule4Link",
      "outputs": [
        {
          "internalType": "address",
          "name": "",
          "type": "address"
        }
      ],
      "stateMutability": "view",
      "type": "function"
    },
    {
      "inputs": [
        {
          "internalType": "uint256",
          "name": "profileId",
          "type": "uint256"
        },
        {
          "internalType": "uint256",
          "name": "noteId",
          "type": "uint256"
        }
      ],
      "name": "getMintModule4Note",
      "outputs": [
        {
          "internalType": "address",
          "name": "",
          "type": "address"
        }
      ],
      "stateMutability": "view",
      "type": "function"
    },
    {
      "inputs": [
        {
          "internalType": "uint256",
          "name": "profileId",
          "type": "uint256"
        },
        {
          "internalType": "uint256",
          "name": "noteId",
          "type": "uint256"
        }
      ],
      "name": "getNoteUri",
      "outputs": [
        {
          "internalType": "string",
          "name": "",
          "type": "string"
        }
      ],
      "stateMutability": "view",
      "type": "function"
    },
    {
      "inputs": [
        {
          "internalType": "address",
          "name": "account",
          "type": "address"
        }
      ],
      "name": "getPrimaryProfileId",
      "outputs": [
        {
          "internalType": "uint256",
          "name": "",
          "type": "uint256"
        }
      ],
      "stateMutability": "view",
      "type": "function"
    },
    {
      "inputs": [
        {
          "internalType": "uint256",
          "name": "profileId",
          "type": "uint256"
        }
      ],
      "name": "getProfile",
      "outputs": [
        {
          "components": [
            {
              "internalType": "uint256",
              "name": "profileId",
              "type": "uint256"
            },
            {
              "internalType": "string",
              "name": "handle",
              "type": "string"
            },
            {
              "internalType": "string",
              "name": "uri",
              "type": "string"
            },
            {
              "internalType": "uint256",
              "name": "noteCount",
              "type": "uint256"
            },
            {
              "internalType": "address",
              "name": "socialToken",
              "type": "address"
            },
            {
              "internalType": "address",
              "name": "linkModule",
              "type": "address"
            }
          ],
          "internalType": "struct DataTypes.Profile",
          "name": "",
          "type": "tuple"
        }
      ],
      "stateMutability": "view",
      "type": "function"
    },
    {
      "inputs": [
        {
          "internalType": "string",
          "name": "handle",
          "type": "string"
        }
      ],
      "name": "getProfileByHandle",
      "outputs": [
        {
          "components": [
            {
              "internalType": "uint256",
              "name": "profileId",
              "type": "uint256"
            },
            {
              "internalType": "string",
              "name": "handle",
              "type": "string"
            },
            {
              "internalType": "string",
              "name": "uri",
              "type": "string"
            },
            {
              "internalType": "uint256",
              "name": "noteCount",
              "type": "uint256"
            },
            {
              "internalType": "address",
              "name": "socialToken",
              "type": "address"
            },
            {
              "internalType": "address",
              "name": "linkModule",
              "type": "address"
            }
          ],
          "internalType": "struct DataTypes.Profile",
          "name": "",
          "type": "tuple"
        }
      ],
      "stateMutability": "view",
      "type": "function"
    },
    {
      "inputs": [
        {
          "internalType": "uint256",
          "name": "profileId",
          "type": "uint256"
        }
      ],
      "name": "getProfileUri",
      "outputs": [
        {
          "internalType": "string",
          "name": "",
          "type": "string"
        }
      ],
      "stateMutability": "view",
      "type": "function"
    },
    {
      "inputs": [
        {
          "internalType": "string",
          "name": "_name",
          "type": "string"
        },
        {
          "internalType": "string",
          "name": "_symbol",
          "type": "string"
        },
        {
          "internalType": "address",
          "name": "_linkListContract",
          "type": "address"
        },
        {
          "internalType": "address",
          "name": "_mintNFTImpl",
          "type": "address"
        }
      ],
      "name": "initialize",
      "outputs": [],
      "stateMutability": "nonpayable",
      "type": "function"
    },
    {
      "inputs": [
        {
          "internalType": "address",
          "name": "owner",
          "type": "address"
        },
        {
          "internalType": "address",
          "name": "operator",
          "type": "address"
        }
      ],
      "name": "isApprovedForAll",
      "outputs": [
        {
          "internalType": "bool",
          "name": "",
          "type": "bool"
        }
      ],
      "stateMutability": "view",
      "type": "function"
    },
    {
      "inputs": [
        {
          "internalType": "uint256",
          "name": "profileId",
          "type": "uint256"
        }
      ],
      "name": "isPrimaryProfile",
      "outputs": [
        {
          "internalType": "bool",
          "name": "",
          "type": "bool"
        }
      ],
      "stateMutability": "view",
      "type": "function"
    },
    {
      "inputs": [
        {
          "internalType": "uint256",
          "name": "fromProfileId",
          "type": "uint256"
        },
        {
          "internalType": "address",
          "name": "ethAddress",
          "type": "address"
        },
        {
          "internalType": "bytes32",
          "name": "linkType",
          "type": "bytes32"
        }
      ],
      "name": "linkAddress",
      "outputs": [],
      "stateMutability": "nonpayable",
      "type": "function"
    },
    {
      "inputs": [
        {
          "internalType": "uint256",
          "name": "fromProfileId",
          "type": "uint256"
        }
      ],
      "name": "linkAddressLink",
      "outputs": [],
      "stateMutability": "nonpayable",
      "type": "function"
    },
    {
      "inputs": [
        {
          "internalType": "uint256",
          "name": "fromProfileId",
          "type": "uint256"
        },
        {
          "internalType": "string",
          "name": "toUri",
          "type": "string"
        },
        {
          "internalType": "bytes32",
          "name": "linkType",
          "type": "bytes32"
        }
      ],
      "name": "linkAny",
      "outputs": [],
      "stateMutability": "nonpayable",
      "type": "function"
    },
    {
      "inputs": [
        {
          "internalType": "uint256",
          "name": "fromProfileId",
          "type": "uint256"
        },
        {
          "internalType": "address",
          "name": "tokenAddress",
          "type": "address"
        },
        {
          "internalType": "uint256",
          "name": "tokenId",
          "type": "uint256"
        },
        {
          "internalType": "bytes32",
          "name": "linkType",
          "type": "bytes32"
        }
      ],
      "name": "linkERC721",
      "outputs": [],
      "stateMutability": "nonpayable",
      "type": "function"
    },
    {
      "inputs": [
        {
          "internalType": "uint256",
          "name": "fromProfileId",
          "type": "uint256"
        },
        {
          "internalType": "uint256",
          "name": "linkListId",
          "type": "uint256"
        },
        {
          "internalType": "bytes32",
          "name": "linkType",
          "type": "bytes32"
        }
      ],
      "name": "linkLinklist",
      "outputs": [],
      "stateMutability": "nonpayable",
      "type": "function"
    },
    {
      "inputs": [
        {
          "internalType": "uint256",
          "name": "fromProfileId",
          "type": "uint256"
        },
        {
          "internalType": "uint256",
          "name": "toProfileId",
          "type": "uint256"
        },
        {
          "internalType": "uint256",
          "name": "toNoteId",
          "type": "uint256"
        },
        {
          "internalType": "bytes32",
          "name": "linkType",
          "type": "bytes32"
        }
      ],
      "name": "linkNote",
      "outputs": [],
      "stateMutability": "nonpayable",
      "type": "function"
    },
    {
      "inputs": [
        {
          "internalType": "uint256",
          "name": "fromProfileId",
          "type": "uint256"
        }
      ],
      "name": "linkNoteLink",
      "outputs": [],
      "stateMutability": "nonpayable",
      "type": "function"
    },
    {
      "inputs": [
        {
          "internalType": "uint256",
          "name": "fromProfileId",
          "type": "uint256"
        },
        {
          "internalType": "uint256",
          "name": "toProfileId",
          "type": "uint256"
        },
        {
          "internalType": "bytes32",
          "name": "linkType",
          "type": "bytes32"
        }
      ],
      "name": "linkProfile",
      "outputs": [],
      "stateMutability": "nonpayable",
      "type": "function"
    },
    {
      "inputs": [
        {
          "internalType": "uint256",
          "name": "fromProfileId",
          "type": "uint256"
        }
      ],
      "name": "linkProfileLink",
      "outputs": [],
      "stateMutability": "nonpayable",
      "type": "function"
    },
    {
      "inputs": [
        {
          "components": [
            {
              "internalType": "uint256",
              "name": "linklistId",
              "type": "uint256"
            },
            {
              "internalType": "bytes",
              "name": "content",
              "type": "bytes"
            }
          ],
          "internalType": "struct DataTypes.LinkData",
          "name": "linkData",
          "type": "tuple"
        },
        {
          "internalType": "address",
          "name": "to",
          "type": "address"
        }
      ],
      "name": "mintAddressLink",
      "outputs": [],
      "stateMutability": "nonpayable",
      "type": "function"
    },
    {
      "inputs": [
        {
          "components": [
            {
              "internalType": "uint256",
              "name": "linklistId",
              "type": "uint256"
            },
            {
              "internalType": "bytes",
              "name": "content",
              "type": "bytes"
            }
          ],
          "internalType": "struct DataTypes.LinkData",
          "name": "linkData",
          "type": "tuple"
        },
        {
          "internalType": "address",
          "name": "to",
          "type": "address"
        }
      ],
      "name": "mintAnyLink",
      "outputs": [],
      "stateMutability": "nonpayable",
      "type": "function"
    },
    {
      "inputs": [
        {
          "components": [
            {
              "internalType": "uint256",
              "name": "linklistId",
              "type": "uint256"
            },
            {
              "internalType": "bytes",
              "name": "content",
              "type": "bytes"
            }
          ],
          "internalType": "struct DataTypes.LinkData",
          "name": "linkData",
          "type": "tuple"
        },
        {
          "internalType": "address",
          "name": "to",
          "type": "address"
        }
      ],
      "name": "mintERC721Link",
      "outputs": [],
      "stateMutability": "nonpayable",
      "type": "function"
    },
    {
      "inputs": [
        {
          "components": [
            {
              "internalType": "uint256",
              "name": "linklistId",
              "type": "uint256"
            },
            {
              "internalType": "bytes",
              "name": "content",
              "type": "bytes"
            }
          ],
          "internalType": "struct DataTypes.LinkData",
          "name": "linkData",
          "type": "tuple"
        },
        {
          "internalType": "address",
          "name": "to",
          "type": "address"
        }
      ],
      "name": "mintLinklistLink",
      "outputs": [],
      "stateMutability": "nonpayable",
      "type": "function"
    },
    {
      "inputs": [
        {
          "internalType": "uint256",
          "name": "profileId",
          "type": "uint256"
        },
        {
          "internalType": "uint256",
          "name": "noteId",
          "type": "uint256"
        },
        {
          "internalType": "address",
          "name": "to",
          "type": "address"
        },
        {
          "internalType": "bytes",
          "name": "mintModuleData",
          "type": "bytes"
        }
      ],
      "name": "mintNote",
      "outputs": [
        {
          "internalType": "uint256",
          "name": "",
          "type": "uint256"
        }
      ],
      "stateMutability": "nonpayable",
      "type": "function"
    },
    {
      "inputs": [
        {
          "components": [
            {
              "internalType": "uint256",
              "name": "linklistId",
              "type": "uint256"
            },
            {
              "internalType": "bytes",
              "name": "content",
              "type": "bytes"
            }
          ],
          "internalType": "struct DataTypes.LinkData",
          "name": "linkData",
          "type": "tuple"
        },
        {
          "internalType": "address",
          "name": "to",
          "type": "address"
        }
      ],
      "name": "mintNoteLink",
      "outputs": [],
      "stateMutability": "nonpayable",
      "type": "function"
    },
    {
      "inputs": [
        {
          "components": [
            {
              "internalType": "uint256",
              "name": "linklistId",
              "type": "uint256"
            },
            {
              "internalType": "bytes",
              "name": "content",
              "type": "bytes"
            }
          ],
          "internalType": "struct DataTypes.LinkData",
          "name": "linkData",
          "type": "tuple"
        },
        {
          "internalType": "address",
          "name": "to",
          "type": "address"
        }
      ],
      "name": "mintProfileLink",
      "outputs": [],
      "stateMutability": "nonpayable",
      "type": "function"
    },
    {
      "inputs": [],
      "name": "name",
      "outputs": [
        {
          "internalType": "string",
          "name": "",
          "type": "string"
        }
      ],
      "stateMutability": "view",
      "type": "function"
    },
    {
      "inputs": [
        {
          "internalType": "uint256",
          "name": "tokenId",
          "type": "uint256"
        }
      ],
      "name": "ownerOf",
      "outputs": [
        {
          "internalType": "address",
          "name": "",
          "type": "address"
        }
      ],
      "stateMutability": "view",
      "type": "function"
    },
    {
      "inputs": [
        {
          "components": [
            {
              "internalType": "uint256",
              "name": "profileId",
              "type": "uint256"
            },
            {
              "internalType": "string",
              "name": "contentUri",
              "type": "string"
            },
            {
              "internalType": "address",
              "name": "linkModule",
              "type": "address"
            },
            {
              "internalType": "bytes",
              "name": "linkModuleInitData",
              "type": "bytes"
            },
            {
              "internalType": "address",
              "name": "mintModule",
              "type": "address"
            },
            {
              "internalType": "bytes",
              "name": "mintModuleInitData",
              "type": "bytes"
            }
          ],
          "internalType": "struct DataTypes.PostNoteData",
          "name": "noteData",
          "type": "tuple"
        }
      ],
      "name": "postNote",
      "outputs": [
        {
          "internalType": "uint256",
          "name": "",
          "type": "uint256"
        }
      ],
      "stateMutability": "nonpayable",
      "type": "function"
    },
    {
      "inputs": [
        {
          "components": [
            {
              "internalType": "uint256",
              "name": "profileId",
              "type": "uint256"
            },
            {
              "internalType": "string",
              "name": "contentUri",
              "type": "string"
            },
            {
              "internalType": "address",
              "name": "linkModule",
              "type": "address"
            },
            {
              "internalType": "bytes",
              "name": "linkModuleInitData",
              "type": "bytes"
            },
            {
              "internalType": "address",
              "name": "mintModule",
              "type": "address"
            },
            {
              "internalType": "bytes",
              "name": "mintModuleInitData",
              "type": "bytes"
            }
          ],
          "internalType": "struct DataTypes.PostNoteData",
          "name": "noteData",
          "type": "tuple"
        },
        {
          "components": [
            {
              "internalType": "uint256",
              "name": "linklistId",
              "type": "uint256"
            },
            {
              "internalType": "bytes",
              "name": "content",
              "type": "bytes"
            }
          ],
          "internalType": "struct DataTypes.LinkData",
          "name": "linkData",
          "type": "tuple"
        }
      ],
      "name": "postNoteWithLink",
      "outputs": [],
      "stateMutability": "nonpayable",
      "type": "function"
    },
    {
      "inputs": [
        {
          "internalType": "address",
          "name": "from",
          "type": "address"
        },
        {
          "internalType": "address",
          "name": "to",
          "type": "address"
        },
        {
          "internalType": "uint256",
          "name": "tokenId",
          "type": "uint256"
        }
      ],
      "name": "safeTransferFrom",
      "outputs": [],
      "stateMutability": "nonpayable",
      "type": "function"
    },
    {
      "inputs": [
        {
          "internalType": "address",
          "name": "from",
          "type": "address"
        },
        {
          "internalType": "address",
          "name": "to",
          "type": "address"
        },
        {
          "internalType": "uint256",
          "name": "tokenId",
          "type": "uint256"
        },
        {
          "internalType": "bytes",
          "name": "_data",
          "type": "bytes"
        }
      ],
      "name": "safeTransferFrom",
      "outputs": [],
      "stateMutability": "nonpayable",
      "type": "function"
    },
    {
      "inputs": [
        {
          "internalType": "address",
          "name": "operator",
          "type": "address"
        },
        {
          "internalType": "bool",
          "name": "approved",
          "type": "bool"
        }
      ],
      "name": "setApprovalForAll",
      "outputs": [],
      "stateMutability": "nonpayable",
      "type": "function"
    },
    {
      "inputs": [
        {
          "internalType": "uint256",
          "name": "profileId",
          "type": "uint256"
        },
        {
          "internalType": "string",
          "name": "newHandle",
          "type": "string"
        }
      ],
      "name": "setHandle",
      "outputs": [],
      "stateMutability": "nonpayable",
      "type": "function"
    },
    {
      "inputs": [
        {
          "internalType": "address",
          "name": "account",
          "type": "address"
        },
        {
          "internalType": "address",
          "name": "linkModule",
          "type": "address"
        },
        {
          "internalType": "bytes",
          "name": "linkModuleInitData",
          "type": "bytes"
        }
      ],
      "name": "setLinkModule4Address",
      "outputs": [],
      "stateMutability": "nonpayable",
      "type": "function"
    },
    {
      "inputs": [
        {
          "internalType": "address",
          "name": "tokenAddress",
          "type": "address"
        },
        {
          "internalType": "uint256",
          "name": "tokenId",
          "type": "uint256"
        },
        {
          "internalType": "address",
          "name": "linkModule",
          "type": "address"
        },
        {
          "internalType": "bytes",
          "name": "linkModuleInitData",
          "type": "bytes"
        }
      ],
      "name": "setLinkModule4ERC721",
      "outputs": [],
      "stateMutability": "nonpayable",
      "type": "function"
    },
    {
      "inputs": [
        {
          "components": [
            {
              "internalType": "uint256",
              "name": "linklistId",
              "type": "uint256"
            },
            {
              "internalType": "bytes",
              "name": "content",
              "type": "bytes"
            }
          ],
          "internalType": "struct DataTypes.LinkData",
          "name": "linkData",
          "type": "tuple"
        },
        {
          "internalType": "address",
          "name": "linkModule",
          "type": "address"
        },
        {
          "internalType": "bytes",
          "name": "linkModuleInitData",
          "type": "bytes"
        }
      ],
      "name": "setLinkModule4Link",
      "outputs": [],
      "stateMutability": "nonpayable",
      "type": "function"
    },
    {
      "inputs": [
        {
          "internalType": "uint256",
          "name": "tokenId",
          "type": "uint256"
        },
        {
          "internalType": "address",
          "name": "linkModule",
          "type": "address"
        },
        {
          "internalType": "bytes",
          "name": "linkModuleInitData",
          "type": "bytes"
        }
      ],
      "name": "setLinkModule4Linklist",
      "outputs": [],
      "stateMutability": "nonpayable",
      "type": "function"
    },
    {
      "inputs": [
        {
          "internalType": "uint256",
          "name": "profileId",
          "type": "uint256"
        },
        {
          "internalType": "uint256",
          "name": "noteId",
          "type": "uint256"
        },
        {
          "internalType": "address",
          "name": "linkModule",
          "type": "address"
        },
        {
          "internalType": "bytes",
          "name": "linkModuleInitData",
          "type": "bytes"
        }
      ],
      "name": "setLinkModule4Note",
      "outputs": [],
      "stateMutability": "nonpayable",
      "type": "function"
    },
    {
      "inputs": [
        {
          "internalType": "uint256",
          "name": "profileId",
          "type": "uint256"
        },
        {
          "internalType": "address",
          "name": "linkModule",
          "type": "address"
        },
        {
          "internalType": "bytes",
          "name": "linkModuleInitData",
          "type": "bytes"
        }
      ],
      "name": "setLinkModule4Profile",
      "outputs": [],
      "stateMutability": "nonpayable",
      "type": "function"
    },
    {
      "inputs": [
        {
          "internalType": "uint256",
          "name": "linkListId",
          "type": "uint256"
        },
        {
          "internalType": "string",
          "name": "uri",
          "type": "string"
        }
      ],
      "name": "setLinklistUri",
      "outputs": [],
      "stateMutability": "nonpayable",
      "type": "function"
    },
    {
      "inputs": [
        {
          "components": [
            {
              "internalType": "uint256",
              "name": "linklistId",
              "type": "uint256"
            },
            {
              "internalType": "bytes",
              "name": "content",
              "type": "bytes"
            }
          ],
          "internalType": "struct DataTypes.LinkData",
          "name": "linkData",
          "type": "tuple"
        },
        {
          "internalType": "address",
          "name": "mintModule",
          "type": "address"
        },
        {
          "internalType": "bytes",
          "name": "mintModuleInitData",
          "type": "bytes"
        }
      ],
      "name": "setMintModule4Link",
      "outputs": [],
      "stateMutability": "nonpayable",
      "type": "function"
    },
    {
      "inputs": [
        {
          "internalType": "uint256",
          "name": "profileId",
          "type": "uint256"
        },
        {
          "internalType": "uint256",
          "name": "noteId",
          "type": "uint256"
        },
        {
          "internalType": "address",
          "name": "mintModule",
          "type": "address"
        },
        {
          "internalType": "bytes",
          "name": "mintModuleInitData",
          "type": "bytes"
        }
      ],
      "name": "setMintModule4Note",
      "outputs": [],
      "stateMutability": "nonpayable",
      "type": "function"
    },
    {
      "inputs": [
        {
          "internalType": "uint256",
          "name": "profileId",
          "type": "uint256"
        }
      ],
      "name": "setPrimaryProfileId",
      "outputs": [],
      "stateMutability": "nonpayable",
      "type": "function"
    },
    {
      "inputs": [
        {
          "internalType": "uint256",
          "name": "profileId",
          "type": "uint256"
        },
        {
          "internalType": "string",
          "name": "newUri",
          "type": "string"
        }
      ],
      "name": "setProfileUri",
      "outputs": [],
      "stateMutability": "nonpayable",
      "type": "function"
    },
    {
      "inputs": [
        {
          "internalType": "uint256",
          "name": "profileId",
          "type": "uint256"
        },
        {
          "internalType": "address",
          "name": "tokenAddress",
          "type": "address"
        }
      ],
      "name": "setSocialToken",
      "outputs": [],
      "stateMutability": "nonpayable",
      "type": "function"
    },
    {
      "inputs": [
        {
          "internalType": "bytes4",
          "name": "interfaceId",
          "type": "bytes4"
        }
      ],
      "name": "supportsInterface",
      "outputs": [
        {
          "internalType": "bool",
          "name": "",
          "type": "bool"
        }
      ],
      "stateMutability": "view",
      "type": "function"
    },
    {
      "inputs": [],
      "name": "symbol",
      "outputs": [
        {
          "internalType": "string",
          "name": "",
          "type": "string"
        }
      ],
      "stateMutability": "view",
      "type": "function"
    },
    {
      "inputs": [
        {
          "internalType": "uint256",
          "name": "index",
          "type": "uint256"
        }
      ],
      "name": "tokenByIndex",
      "outputs": [
        {
          "internalType": "uint256",
          "name": "",
          "type": "uint256"
        }
      ],
      "stateMutability": "view",
      "type": "function"
    },
    {
      "inputs": [
        {
          "internalType": "address",
          "name": "owner",
          "type": "address"
        },
        {
          "internalType": "uint256",
          "name": "index",
          "type": "uint256"
        }
      ],
      "name": "tokenOfOwnerByIndex",
      "outputs": [
        {
          "internalType": "uint256",
          "name": "",
          "type": "uint256"
        }
      ],
      "stateMutability": "view",
      "type": "function"
    },
    {
      "inputs": [
        {
          "internalType": "uint256",
          "name": "profileId",
          "type": "uint256"
        }
      ],
      "name": "tokenURI",
      "outputs": [
        {
          "internalType": "string",
          "name": "",
          "type": "string"
        }
      ],
      "stateMutability": "view",
      "type": "function"
    },
    {
      "inputs": [],
      "name": "totalSupply",
      "outputs": [
        {
          "internalType": "uint256",
          "name": "",
          "type": "uint256"
        }
      ],
      "stateMutability": "view",
      "type": "function"
    },
    {
      "inputs": [
        {
          "internalType": "address",
          "name": "from",
          "type": "address"
        },
        {
          "internalType": "address",
          "name": "to",
          "type": "address"
        },
        {
          "internalType": "uint256",
          "name": "tokenId",
          "type": "uint256"
        }
      ],
      "name": "transferFrom",
      "outputs": [],
      "stateMutability": "nonpayable",
      "type": "function"
    },
    {
      "inputs": [
        {
          "internalType": "uint256",
          "name": "fromProfileId",
          "type": "uint256"
        },
        {
          "internalType": "address",
          "name": "ethAddress",
          "type": "address"
        },
        {
          "internalType": "bytes32",
          "name": "linkType",
          "type": "bytes32"
        }
      ],
      "name": "unlinkAddress",
      "outputs": [],
      "stateMutability": "nonpayable",
      "type": "function"
    },
    {
      "inputs": [
        {
          "internalType": "uint256",
          "name": "fromProfileId",
          "type": "uint256"
        },
        {
          "internalType": "address",
          "name": "tokenAddress",
          "type": "address"
        },
        {
          "internalType": "uint256",
          "name": "tokenId",
          "type": "uint256"
        },
        {
          "internalType": "bytes32",
          "name": "linkType",
          "type": "bytes32"
        }
      ],
      "name": "unlinkERC721",
      "outputs": [],
      "stateMutability": "nonpayable",
      "type": "function"
    },
    {
      "inputs": [
        {
          "internalType": "uint256",
          "name": "fromProfileId",
          "type": "uint256"
        },
        {
          "internalType": "uint256",
          "name": "toProfileId",
          "type": "uint256"
        },
        {
          "internalType": "uint256",
          "name": "toNoteId",
          "type": "uint256"
        },
        {
          "internalType": "bytes32",
          "name": "linkType",
          "type": "bytes32"
        }
      ],
      "name": "unlinkNote",
      "outputs": [],
      "stateMutability": "nonpayable",
      "type": "function"
    },
    {
      "inputs": [
        {
          "internalType": "uint256",
          "name": "fromProfileId",
          "type": "uint256"
        },
        {
          "internalType": "uint256",
          "name": "toProfileId",
          "type": "uint256"
        },
        {
          "internalType": "bytes32",
          "name": "linkType",
          "type": "bytes32"
        }
      ],
      "name": "unlinkProfile",
      "outputs": [],
      "stateMutability": "nonpayable",
      "type": "function"
    }
  ],
  "bytecode": "0x608060405234801561001057600080fd5b506154bf806100206000396000f3fe608060405234801561001057600080fd5b50600436106104335760003560e01c806363c0087511610236578063ac5f1ee61161013b578063e2dc9882116100c3578063ec81d19411610087578063ec81d19414610980578063efa4b2fd1461081d578063f08f4f6414610993578063f262bec1146109a6578063fe9299fb146109b457600080fd5b8063e2dc988214610910578063e51a325b1461091e578063e72f208c14610931578063e985e9c514610944578063e9bed0cf1461058157600080fd5b8063c387c4531161010a578063c387c453146108c4578063c87b56dd146108d7578063cb433823146105ee578063cba4f5cc146108ea578063d36a2dce146108fd57600080fd5b8063ac5f1ee6146104db578063b88d4fde1461088d578063bd5f69cb146108a0578063c053f6b8146108b357600080fd5b8063865be2b9116101be57806395d89b411161018d57806395d89b411461083e57806395d9fa7d1461084657806397550f1314610859578063a22cb46514610867578063a6e6178d1461087a57600080fd5b8063865be2b91461080a5780638b9b59681461081d5780638f15b4141461082b578063906da4991461058157600080fd5b80637936da0e116102055780637936da0e146107a95780637c392b51146107bc5780637e9a8292146107cf57806384b7743a146107e4578063862b531c146107f757600080fd5b806363c008751461076357806370a082311461078357806373f1c929146107965780637653bd8e146104db57600080fd5b806326f87bf21161033c5780634af3eb42116102c45780634f831557116102935780634f83155714610711578063515d42d21461073d578063580e0103146104db578063605787d61461050d5780636352211e1461075057600080fd5b80634af3eb42146106d85780634c4a593f146104db5780634cab71ec146106eb5780634f6ccce7146106fe57600080fd5b80632f745c591161030b5780632f745c591461063c57806331b9d08c1461064f57806333f06ee61461067b57806342842e0e1461068e5780634ac8250b146106a157600080fd5b806326f87bf2146105ee578063295cb43e146106025780632a59de7a146106155780632c2e08811461062957600080fd5b80630f84fe8c116103bf5780631e8e76641161038e5780631e8e7664146105815780631f4f68b3146104db5780632209d14514610592578063231fcfbe146105c857806323b872dd146105db57600080fd5b80630f84fe8c146105205780631808dda01461053357806318160ddd146105465780631bb4d2311461055857600080fd5b8063081812fc11610406578063081812fc1461049d578063095ea7b3146104c85780630bce4b6e146104db5780630c16de10146104ed5780630d17b01f1461050d57600080fd5b806301ffc9a7146104385780630336bf551461046057806306f30bc91461047557806306fdde0314610488575b600080fd5b61044b6104463660046144d7565b6109dd565b60405190151581526020015b60405180910390f35b61047361046e3660046144f4565b610a08565b005b610473610483366004614583565b610b8e565b610490610c24565b6040516104579190614644565b6104b06104ab366004614657565b610cb6565b6040516001600160a01b039091168152602001610457565b6104736104d6366004614670565b610d4b565b6104736104e93660046146b4565b5050565b6105006104fb366004614705565b610e5c565b6040516104579190614746565b61047361051b3660046147c2565b505050565b61047361052e3660046147c2565b61100b565b6104736105413660046147fa565b6110fb565b6008545b604051908152602001610457565b61054a610566366004614826565b6001600160a01b03166000908152600c602052604090205490565b61047361058f366004614657565b50565b6104b06105a0366004614670565b6001600160a01b03918216600090815260126020908152604080832093835292905220541690565b6104736105d6366004614583565b611118565b6104736105e9366004614843565b61122b565b6104b06105fc366004614873565b50600090565b610473610610366004614657565b61125c565b6104736106233660046148a7565b50505050565b6104736106373660046148f9565b6112a2565b61054a61064a366004614670565b6113eb565b6104b061065d366004614826565b6001600160a01b039081166000908152601160205260409020541690565b61047361068936600461495d565b611481565b61047361069c366004614843565b6114f5565b6104b06106af3660046149a8565b60009182526010602090815260408084209284529190529020600501546001600160a01b031690565b6104736106e63660046147fa565b611510565b6104906106f93660046149a8565b61167c565b61054a61070c366004614657565b611711565b6104b061071f366004614657565b6000908152600a60205260409020600501546001600160a01b031690565b61047361074b3660046149a8565b6117a4565b6104b061075e366004614657565b6118e7565b6107766107713660046149a8565b61195e565b60405161045791906149ca565b61054a610791366004614826565b6119eb565b6104736107a4366004614a0e565b611a72565b6104736107b73660046149a8565b611a87565b6104736107ca36600461495d565b611b44565b6104736107dd366004614a4b565b5050505050565b6104736107f2366004614a0e565b611b69565b61054a610805366004614583565b611b7e565b6104736108183660046144f4565b611de8565b610473610623366004614a85565b610473610839366004614af3565b611e06565b610490611f44565b610473610854366004614b87565b611f53565b61047361051b3660046147fa565b610473610875366004614bac565b612021565b61047361088836600461495d565b61202c565b61047361089b366004614c4c565b6121e6565b6104736108ae366004614cfa565b612218565b600e546001600160a01b03166104b0565b61044b6108d2366004614657565b612489565b6104906108e5366004614657565b6124b7565b6104906108f8366004614657565b61255c565b61054a61090b366004614d46565b612567565b6104736104e9366004614d7a565b61049061092c3660046149a8565b61262e565b61047361093f366004614ddd565b6126df565b61044b610952366004614e05565b6001600160a01b03918216600090815260056020908152604080832093909416825291909152205460ff1690565b61049061098e366004614657565b6127fe565b6105006109a1366004614657565b61281e565b610473610623366004614ddd565b6104b06109c2366004614657565b6000908152601360205260409020546001600160a01b031690565b60006001600160e01b0319821663780e9d6360e01b1480610a025750610a02826129a5565b92915050565b610a11846129f5565b610a1a83612a5e565b610a248383612ac2565b6000848152600f6020908152604080832084845290915280822054600e54915163124fe93760e21b8152600481018290529092916001600160a01b03169063493fa4dc90602401602060405180830381865afa158015610a88573d6000803e3d6000fd5b505050506040513d601f19601f82011682018060405250810190610aac9190614e33565b9050858114610ad65760405162461bcd60e51b8152600401610acd90614e4c565b60405180910390fd5b600e546040516281eec360e31b81526004810184905260248101879052604481018690526001600160a01b039091169063040f761890606401600060405180830381600087803b158015610b2957600080fd5b505af1158015610b3d573d6000803e3d6000fd5b505050508385877fd27a71fc88ac85c4657b81c4d24a9cd9a034971683620f179a19d179fe0a956d8686604051610b7e929190918252602082015260400190565b60405180910390a4505050505050565b610b97856129f5565b610ba18585612ac2565b6000610be586868686868080601f016020809104026020016040519081016040528093929190818152602001838380828437600092019190915250612b2392505050565b9050836001600160a01b031685877f36e973ebf2a1c9c4006aaad244866e6dea9a0e85770deea599b193a9eb51b8f78442604051610b7e929190614e81565b606060008054610c3390614ea3565b80601f0160208091040260200160405190810160405280929190818152602001828054610c5f90614ea3565b8015610cac5780601f10610c8157610100808354040283529160200191610cac565b820191906000526020600020905b815481529060010190602001808311610c8f57829003601f168201915b5050505050905090565b6000818152600260205260408120546001600160a01b0316610d2f5760405162461bcd60e51b815260206004820152602c60248201527f4552433732313a20617070726f76656420717565727920666f72206e6f6e657860448201526b34b9ba32b73a103a37b5b2b760a11b6064820152608401610acd565b506000908152600460205260409020546001600160a01b031690565b6000610d56826118e7565b9050806001600160a01b0316836001600160a01b03161415610dc45760405162461bcd60e51b815260206004820152602160248201527f4552433732313a20617070726f76616c20746f2063757272656e74206f776e656044820152603960f91b6064820152608401610acd565b336001600160a01b0382161480610de05750610de08133610952565b610e525760405162461bcd60e51b815260206004820152603860248201527f4552433732313a20617070726f76652063616c6c6572206973206e6f74206f7760448201527f6e6572206e6f7220617070726f76656420666f7220616c6c00000000000000006064820152608401610acd565b61051b8383612bd5565b610e6461436c565b60008383604051610e76929190614ed8565b604080519182900382206000818152600b602090815283822054808352600a82529184902060c0860190945283548552600184018054939650919493929084019190610ec190614ea3565b80601f0160208091040260200160405190810160405280929190818152602001828054610eed90614ea3565b8015610f3a5780601f10610f0f57610100808354040283529160200191610f3a565b820191906000526020600020905b815481529060010190602001808311610f1d57829003601f168201915b50505050508152602001600282018054610f5390614ea3565b80601f0160208091040260200160405190810160405280929190818152602001828054610f7f90614ea3565b8015610fcc5780601f10610fa157610100808354040283529160200191610fcc565b820191906000526020600020905b815481529060010190602001808311610faf57829003601f168201915b50505091835250506003820154602082015260048201546001600160a01b03908116604083015260059092015490911660609091015295945050505050565b611014836129f5565b6001600160a01b0382166000908152600c60205260409020541561108e5760405162461bcd60e51b815260206004820152602b60248201527f546172676574206164647265737320616c726561647920686173207072696d6160448201526a393c90383937b334b6329760a91b6064820152608401610acd565b6040516bffffffffffffffffffffffff19606084901b1660208201526000906110d39060340160408051601f1981840301815260208301909152600082529085612c43565b6001600160a01b0384166000908152600c602052604090208190559050610623848284612da8565b611104836129f5565b61110d82612a5e565b61051b838383612da8565b611121856129f5565b61112b8585612ac2565b6001600160a01b03831615611170576000858152601060209081526040808320878452909152902060040180546001600160a01b0319166001600160a01b0385161790555b60405163f033607760e01b81526000906001600160a01b0385169063f0336077906111a5908990899088908890600401614f11565b6000604051808303816000875af11580156111c4573d6000803e3d6000fd5b505050506040513d6000823e601f3d908101601f191682016040526111ec9190810190614f6b565b9050836001600160a01b031685877f889c6317f76b8527935ed434226767d05f8b7c664d99f6f787e62efd558f6f018442604051610b7e929190614e81565b6112353382612f69565b6112515760405162461bcd60e51b8152600401610acd90614fb3565b61051b83838361305c565b611265816129f5565b336000818152600c6020526040808220849055518392917f444dbf26d795c263ce4e5f2fccaac8e71b73cb37091f74e9e4f76cd98b55f8d391a350565b336001600160a01b038516146112fa5760405162461bcd60e51b815260206004820152601a60248201527f57656233456e7472793a204e6f74416464726573734f776e65720000000000006044820152606401610acd565b6001600160a01b0384811660009081526011602052604080822080546001600160a01b0319169387169384179055516349e2252d60e01b81529091906349e2252d9061134e90889087908790600401615004565b6000604051808303816000875af115801561136d573d6000803e3d6000fd5b505050506040513d6000823e601f3d908101601f191682016040526113959190810190614f6b565b9050836001600160a01b0316856001600160a01b03167f7685796f9ddd10aa092582edf9c2a9ea78db9685e6f997342b6ab22268a730d883426040516113dc929190614e81565b60405180910390a35050505050565b60006113f6836119eb565b82106114585760405162461bcd60e51b815260206004820152602b60248201527f455243373231456e756d657261626c653a206f776e657220696e646578206f7560448201526a74206f6620626f756e647360a81b6064820152608401610acd565b506001600160a01b03919091166000908152600660209081526040808320938352929052205490565b61148a83613203565b600e54604051633c17845760e11b81526001600160a01b039091169063782f08ae906114be90869086908690600401615029565b600060405180830381600087803b1580156114d857600080fd5b505af11580156114ec573d6000803e3d6000fd5b50505050505050565b61051b838383604051806020016040528060008152506121e6565b611519836129f5565b61152282612a5e565b6000838152600f6020908152604080832084845290915280822054600e54915163124fe93760e21b8152600481018290529092916001600160a01b03169063493fa4dc90602401602060405180830381865afa158015611586573d6000803e3d6000fd5b505050506040513d601f19601f820116820180604052508101906115aa9190614e33565b90508481146115cb5760405162461bcd60e51b8152600401610acd90614e4c565b600e546040516391e5454b60e01b815260048101849052602481018690526001600160a01b03909116906391e5454b90604401600060405180830381600087803b15801561161857600080fd5b505af115801561162c573d6000803e3d6000fd5b505050508385336001600160a01b03167f08a14b775e42bf92e94f9d72aba57ad213485e0c20e373c9f5dd161fb81890a28660405161166d91815260200190565b60405180910390a45050505050565b6000828152600f602090815260408083208484529091529081902054600e549151632b05429560e21b8152600481018290526060926001600160a01b03169063ac150a5490602401600060405180830381865afa1580156116e1573d6000803e3d6000fd5b505050506040513d6000823e601f3d908101601f191682016040526117099190810190614f6b565b949350505050565b600061171c60085490565b821061177f5760405162461bcd60e51b815260206004820152602c60248201527f455243373231456e756d657261626c653a20676c6f62616c20696e646578206f60448201526b7574206f6620626f756e647360a01b6064820152608401610acd565b6008828154811061179257611792615043565b90600052602060002001549050919050565b600e5460405162fba02760e01b8152600481018490526000916001600160a01b03169062fba02790602401602060405180830381865afa1580156117ec573d6000803e3d6000fd5b505050506040513d601f19601f820116820180604052508101906118109190614e33565b6000838152600f60209081526040808320848452909152902054909150156118865760405162461bcd60e51b815260206004820152602360248201527f53616d652074797065206c696e6b6c69737420616c726561647920657869737460448201526232b21760e91b6064820152608401610acd565b61189083836132d0565b6000828152600f602090815260408083208484528252918290208590559051828152849184917f67bae8d4fe58681100be2bf95a6e6a62fbecbbd3e30cfb4392731c3686f187c491015b60405180910390a3505050565b6000818152600260205260408120546001600160a01b031680610a025760405162461bcd60e51b815260206004820152602960248201527f4552433732313a206f776e657220717565727920666f72206e6f6e657869737460448201526832b73a103a37b5b2b760b91b6064820152608401610acd565b6000828152600f602090815260408083208484529091529081902054600e54915163a72d231760e01b8152600481018290526060926001600160a01b03169063a72d231790602401600060405180830381865afa1580156119c3573d6000803e3d6000fd5b505050506040513d6000823e601f3d908101601f191682016040526117099190810190615059565b60006001600160a01b038216611a565760405162461bcd60e51b815260206004820152602a60248201527f4552433732313a2062616c616e636520717565727920666f7220746865207a65604482015269726f206164647265737360b01b6064820152608401610acd565b506001600160a01b031660009081526003602052604090205490565b611a7b846129f5565b61062384848484613348565b600e5460405162fba02760e01b8152600481018490526000916001600160a01b03169062fba02790602401602060405180830381865afa158015611acf573d6000803e3d6000fd5b505050506040513d601f19601f82011682018060405250810190611af39190614e33565b6000838152600f602090815260408083208484528252808320929092559051828152919250849184917fdc9bb7aeae49bac3416d55a8bea99f42bc0b3ae9912563dadc37d7729b84893891016118da565b611b4d836129f5565b6000838152600a602052604090206106239060020183836143b4565b611b72846129f5565b610623848484846134e8565b600085815260106020908152604080832087845290915281206006015481906001600160a01b031680611ca057611c688888600a60008c81526020019081526020016000206001018054611bd190614ea3565b80601f0160208091040260200160405190810160405280929190818152602001828054611bfd90614ea3565b8015611c4a5780601f10611c1f57610100808354040283529160200191611c4a565b820191906000526020600020905b815481529060010190602001808311611c2d57829003601f168201915b50506014546201000090046001600160a01b03169250613644915050565b60008981526010602090815260408083208b8452909152902060060180546001600160a01b0319166001600160a01b03831617905590505b6040516335313c2160e11b81526001600160a01b038781166004830152821690636a627842906024016020604051808303816000875af1158015611ce8573d6000803e3d6000fd5b505050506040513d601f19601f82011682018060405250810190611d0c9190614e33565b60008981526010602090815260408083208b84529091529081902060050154905163efb5730560e01b81529193506001600160a01b031690819063efb5730590611d60908c908c908b908b90600401614f11565b600060405180830381600087803b158015611d7a57600080fd5b505af1158015611d8e573d6000803e3d6000fd5b505050508789886001600160a01b03167f1776a8feba9963250b5ddde89ea29cc0d76c2a9cac349c97e54d0a21f85a024f868a8a42604051611dd394939291906150fe565b60405180910390a45090979650505050505050565b611df1846129f5565b611dfa83612a5e565b61062384848484613741565b601454610100900460ff16611e215760145460ff1615611e25565b303b155b611e885760405162461bcd60e51b815260206004820152602e60248201527f496e697469616c697a61626c653a20636f6e747261637420697320616c72656160448201526d191e481a5b9a5d1a585b1a5e995960921b6064820152608401610acd565b601454610100900460ff16158015611eaa576014805461ffff19166101011790555b611eb6878787876138d7565b600e80546001600160a01b0319166001600160a01b03858116919091179091556014805462010000600160b01b03191662010000928516929092029190911790556040514281527f400175a56dd3710794078f7b9dbe8296ac94c5a248dfd51bb22ed4ab9eaa9fbf9060200160405180910390a180156114ec576014805461ff001916905550505050505050565b606060018054610c3390614ea3565b611f5c826129f5565b6000828152600a60205260409020600401546001600160a01b031615611fc45760405162461bcd60e51b815260206004820152601c60248201527f57656233456e7472793a20536f6369616c546f6b656e457869737473000000006044820152606401610acd565b6000828152600a602052604080822060040180546001600160a01b0319166001600160a01b03851690811790915590519091849133917f276c2d4b7f7beaa1847ff9c41b9d2e0e57482efe8051eea98eea653bfca3ac4591a45050565b6104e9338383613928565b612035836129f5565b6000838152600a60205260408120600101805461205190614ea3565b80601f016020809104026020016040519081016040528092919081815260200182805461207d90614ea3565b80156120ca5780601f1061209f576101008083540402835291602001916120ca565b820191906000526020600020905b8154815290600101906020018083116120ad57829003601f168201915b50505050509050600081805190602001209050600b60008281526020019081526020016000206000905560008484604051612106929190614ed8565b60405180910390209050600b60008281526020019081526020016000205460001461216d5760405162461bcd60e51b815260206004820152601760248201527657656233456e7472793a2048616e646c6545786973747360481b6044820152606401610acd565b6000818152600b60209081526040808320899055888352600a90915290206121999060010186866143b4565b5085336001600160a01b03167f9d175e377ed0c2f6df0cefe4efe069e62eaa3dad046bb8c88e293a776c3cf96e87876040516121d6929190615129565b60405180910390a3505050505050565b6121f03383612f69565b61220c5760405162461bcd60e51b8152600401610acd90614fb3565b610623848484846139ef565b60006122b361222a602084018461513d565b8080601f01602080910402602001604051908101604052809392919081815260200183838082843760009201919091525061226c92505050604085018561513d565b8080601f0160208091040260200160405190810160405280939291908181526020018383808284376000920191909152506122ae925050506020860186614826565b612c43565b9050600c60006122c66020850185614826565b6001600160a01b031681526020810191909152604001600020546123115780600c60006122f66020860186614826565b6001600160a01b031681526020810191909152604001600020555b6000818152600a60205260409020600501546001600160a01b031661233c6080840160608501614826565b6001600160a01b03161461238a5761235a6080830160608401614826565b6000828152600a6020526040902060050180546001600160a01b0319166001600160a01b03929092169190911790555b6060600061239d60808501858401614826565b6001600160a01b03161461051b576123bb6080840160608501614826565b6001600160a01b03166335aa84b0836123d7608087018761513d565b6040518463ffffffff1660e01b81526004016123f593929190615029565b6000604051808303816000875af1158015612414573d6000803e3d6000fd5b505050506040513d6000823e601f3d908101601f1916820160405261243c9190810190614f6b565b905061244e6080840160608501614826565b6001600160a01b0316827f2852faa26318de2c5b2d5e319f7b3c29f0cd77f50c67559a4082bf5763c4d59f83426040516118da929190614e81565b600080612495836118e7565b6001600160a01b03166000908152600c60205260409020549290921492915050565b6000818152600a602052604090206002018054606091906124d790614ea3565b80601f016020809104026020016040519081016040528092919081815260200182805461250390614ea3565b80156125505780601f1061252557610100808354040283529160200191612550565b820191906000526020600020905b81548152906001019060200180831161253357829003601f168201915b50505050509050919050565b6060610a02826124b7565b600061257382356129f5565b610a028235612585602085018561513d565b6125956060870160408801614826565b6125a2606088018861513d565b8080601f0160208091040260200160405190810160405280939291908181526020018383808284376000920191909152506125e79250505060a0890160808a01614826565b6125f460a08a018a61513d565b8080601f016020809104026020016040519081016040528093929190818152602001838380828437600092019190915250613a2292505050565b6000828152601060209081526040808320848452909152902060030180546060919061265990614ea3565b80601f016020809104026020016040519081016040528092919081815260200182805461268590614ea3565b80156126d25780601f106126a7576101008083540402835291602001916126d2565b820191906000526020600020905b8154815290600101906020018083116126b557829003601f168201915b5050505050905092915050565b6126e8846129f5565b6000848152600a60205260409020600501546001600160a01b03848116911614612737576000848152600a6020526040902060050180546001600160a01b0319166001600160a01b0385161790555b60606001600160a01b038416156127c25760405163035aa84b60e41b81526001600160a01b038516906335aa84b09061277890889087908790600401615029565b6000604051808303816000875af1158015612797573d6000803e3d6000fd5b505050506040513d6000823e601f3d908101601f191682016040526127bf9190810190614f6b565b90505b836001600160a01b0316857f2852faa26318de2c5b2d5e319f7b3c29f0cd77f50c67559a4082bf5763c4d59f83426040516113dc929190614e81565b6000818152600a602052604090206001018054606091906124d790614ea3565b61282661436c565b600a60008381526020019081526020016000206040518060c00160405290816000820154815260200160018201805461285e90614ea3565b80601f016020809104026020016040519081016040528092919081815260200182805461288a90614ea3565b80156128d75780601f106128ac576101008083540402835291602001916128d7565b820191906000526020600020905b8154815290600101906020018083116128ba57829003601f168201915b505050505081526020016002820180546128f090614ea3565b80601f016020809104026020016040519081016040528092919081815260200182805461291c90614ea3565b80156129695780601f1061293e57610100808354040283529160200191612969565b820191906000526020600020905b81548152906001019060200180831161294c57829003601f168201915b50505091835250506003820154602082015260048201546001600160a01b03908116604083015260059092015490911660609091015292915050565b60006001600160e01b031982166380ac58cd60e01b14806129d657506001600160e01b03198216635b5e139f60e01b145b80610a0257506301ffc9a760e01b6001600160e01b0319831614610a02565b6129fe816118e7565b6001600160a01b0316336001600160a01b03161461058f5760405162461bcd60e51b815260206004820152601a60248201527f57656233456e7472793a204e6f7450726f66696c654f776e65720000000000006044820152606401610acd565b6000818152600260205260409020546001600160a01b031661058f5760405162461bcd60e51b815260206004820152601b60248201527f57656233456e7472793a2050726f66696c654e6f7445786973747300000000006044820152606401610acd565b6000828152600a60205260409020600301548111156104e95760405162461bcd60e51b815260206004820152601860248201527f57656233456e7472793a204e6f74654e6f7445786973747300000000000000006044820152606401610acd565b60008481526010602090815260408083208684529091529081902060050180546001600160a01b0319166001600160a01b0385169081179091559051633ee9bd4f60e11b815260609190637dd37a9e90612b8590889088908790600401615183565b6000604051808303816000875af1158015612ba4573d6000803e3d6000fd5b505050506040513d6000823e601f3d908101601f19168201604052612bcc9190810190614f6b565b95945050505050565b600081815260046020526040902080546001600160a01b0319166001600160a01b0384169081179091558190612c0a826118e7565b6001600160a01b03167f8c5be1e5ebec7d5bd14f71427d1e84f3dd0314c0f7b2291e5b200ac8c7c3b92560405160405180910390a45050565b82516020808501919091206000818152600b909252604082205415612ca45760405162461bcd60e51b815260206004820152601760248201527657656233456e7472793a2048616e646c6545786973747360481b6044820152606401610acd565b600d60008154612cb3906151b8565b9190508190559150612cec6040518060400160405280600f81526020016e12b21034b99031b932b0ba34b7339760891b81525083613c6c565b612cf68383613cb1565b6000818152600b60209081526040808320859055848352600a82529091208381558651612d2b92600190920191880190614438565b506000828152600a602090815260409091208551612d5192600290920191870190614438565b50826001600160a01b0316336001600160a01b0316837fa5802a04162552328d75eaac538a033704a7c3beab65d0a83e52da1c8c9b7cdf8842604051612d98929190614e81565b60405180910390a4509392505050565b6000838152600f6020908152604080832084845290915290205480612ebf57612e496001600e60009054906101000a90046001600160a01b03166001600160a01b03166318160ddd6040518163ffffffff1660e01b8152600401602060405180830381865afa158015612e1f573d6000803e3d6000fd5b505050506040513d601f19601f82011682018060405250810190612e439190614e33565b90613dff565b600e5460405163644ee7e760e11b815233600482015260248101859052604481018390529192506001600160a01b03169063c89dcfce90606401600060405180830381600087803b158015612e9d57600080fd5b505af1158015612eb1573d6000803e3d6000fd5b50505050612ebf81856117a4565b600e54604051637bf0b88d60e11b815260048101839052602481018590526001600160a01b039091169063f7e1711a90604401600060405180830381600087803b158015612f0c57600080fd5b505af1158015612f20573d6000803e3d6000fd5b5050604080518581526020810185905286935087925033917fbc914995d574dd9ef2df364e4eee2b85deda3ba35d054a62425fba1b97275716910160405180910390a450505050565b6000818152600260205260408120546001600160a01b0316612fe25760405162461bcd60e51b815260206004820152602c60248201527f4552433732313a206f70657261746f7220717565727920666f72206e6f6e657860448201526b34b9ba32b73a103a37b5b2b760a11b6064820152608401610acd565b6000612fed836118e7565b9050806001600160a01b0316846001600160a01b031614806130285750836001600160a01b031661301d84610cb6565b6001600160a01b0316145b8061170957506001600160a01b0380821660009081526005602090815260408083209388168352929052205460ff16611709565b826001600160a01b031661306f826118e7565b6001600160a01b0316146130d35760405162461bcd60e51b815260206004820152602560248201527f4552433732313a207472616e736665722066726f6d20696e636f72726563742060448201526437bbb732b960d91b6064820152608401610acd565b6001600160a01b0382166131355760405162461bcd60e51b8152602060048201526024808201527f4552433732313a207472616e7366657220746f20746865207a65726f206164646044820152637265737360e01b6064820152608401610acd565b613140838383613e12565b61314b600082612bd5565b6001600160a01b03831660009081526003602052604081208054600192906131749084906151d3565b90915550506001600160a01b03821660009081526003602052604081208054600192906131a29084906151ea565b909155505060008181526002602052604080822080546001600160a01b0319166001600160a01b0386811691821790925591518493918716917fddf252ad1be2c89b69c2b068fc378daa952ba7f163c4a11628f55a4df523b3ef91a4505050565b600e546040516331a9108f60e11b8152600481018390526001600160a01b0390911690636352211e90602401602060405180830381865afa15801561324c573d6000803e3d6000fd5b505050506040513d601f19601f820116820180604052508101906132709190615202565b6001600160a01b0316336001600160a01b03161461058f5760405162461bcd60e51b815260206004820152601b60248201527f57656233456e7472793a204e6f744c696e6b4c6973744f776e657200000000006044820152606401610acd565b6132d9816129f5565b600e54604051631c5b266960e21b815260048101849052336024820152604481018390526001600160a01b039091169063716c99a490606401600060405180830381600087803b15801561332c57600080fd5b505af1158015613340573d6000803e3d6000fd5b505050505050565b6000848152600f6020908152604080832084845290915290205480613435576133bf6001600e60009054906101000a90046001600160a01b03166001600160a01b03166318160ddd6040518163ffffffff1660e01b8152600401602060405180830381865afa158015612e1f573d6000803e3d6000fd5b600e5460405163644ee7e760e11b815233600482015260248101859052604481018390529192506001600160a01b03169063c89dcfce90606401600060405180830381600087803b15801561341357600080fd5b505af1158015613427573d6000803e3d6000fd5b5050505061343581866117a4565b600e54604051630ba893bf60e21b8152600481018390526001600160a01b0386811660248301526044820186905290911690632ea24efc90606401600060405180830381600087803b15801561348a57600080fd5b505af115801561349e573d6000803e3d6000fd5b5050505082846001600160a01b0316867f72413a1a5c43b255ad065653bf49db3c79ff7853ddaa4f4962ccd05e5368ad77858560405161166d929190918252602082015260400190565b6000848152600f6020908152604080832084845290915280822054600e54915163124fe93760e21b8152600481018290529092916001600160a01b03169063493fa4dc90602401602060405180830381865afa15801561354c573d6000803e3d6000fd5b505050506040513d601f19601f820116820180604052508101906135709190614e33565b90508581146135915760405162461bcd60e51b8152600401610acd90614e4c565b600e54604051630370a16160e01b8152600481018490526001600160a01b0387811660248301526044820187905290911690630370a16190606401600060405180830381600087803b1580156135e657600080fd5b505af11580156135fa573d6000803e3d6000fd5b5050505083856001600160a01b0316877fd87f9606a19988b6cf42d250d484940673ce551ab5f80289051cc343ff13121c8686604051610b7e929190918252602082015260400190565b60008061365083613e55565b9050600061365d8561521f565b905060008561366b89613ef2565b61367489613ef2565b60405160200161368693929190615256565b60405160208183030381529060405290506000826136a38a613ef2565b6136ac8a613ef2565b6040516020016136be939291906152ba565b60408051601f19818403018152908290526317eb5c4360e11b825291506001600160a01b03851690632fd6b88690613702908c908c9030908890889060040161531a565b600060405180830381600087803b15801561371c57600080fd5b505af1158015613730573d6000803e3d6000fd5b50959b9a5050505050505050505050565b6000848152600f602090815260408083208484529091529020548061382e576137b86001600e60009054906101000a90046001600160a01b03166001600160a01b03166318160ddd6040518163ffffffff1660e01b8152600401602060405180830381865afa158015612e1f573d6000803e3d6000fd5b600e5460405163644ee7e760e11b815233600482015260248101859052604481018390529192506001600160a01b03169063c89dcfce90606401600060405180830381600087803b15801561380c57600080fd5b505af1158015613820573d6000803e3d6000fd5b5050505061382e81866117a4565b600e54604051635cb46be760e01b81526004810183905260248101869052604481018590526001600160a01b0390911690635cb46be790606401600060405180830381600087803b15801561388257600080fd5b505af1158015613896573d6000803e3d6000fd5b505050508284867f3cae5b1196087b560b6735377bbf745e5754f8082348a432b806afa01686ef48858560405161166d929190918252602082015260400190565b6138e384848484613fef565b7f414cd0b34676984f09a5f76ce9718d4062e50283abe0e7e274a9a5b4e0c99c30848484844260405161391a959493929190615359565b60405180910390a150505050565b816001600160a01b0316836001600160a01b0316141561398a5760405162461bcd60e51b815260206004820152601960248201527f4552433732313a20617070726f766520746f2063616c6c6572000000000000006044820152606401610acd565b6001600160a01b03838116600081815260056020908152604080832094871680845294825291829020805460ff191686151590811790915591519182527f17307eab39ab6107e8899845ad3d59bd9653f200f220920489ca2b5937696c3191016118da565b6139fa84848461305c565b613a0684848484614008565b6106235760405162461bcd60e51b8152600401610acd90615393565b6000878152600a6020526040812060030180548291908290613a43906151b8565b918290555060008a8152601060209081526040808320848452909152902060018155909150613a769060030189896143b4565b50600089815260106020908152604080832084845290915290206004810180546001600160a01b03199081166001600160a01b038a81169182179093556005909301805490911691871691909117905560609015613b485760405163f033607760e01b81526001600160a01b0388169063f033607790613afe908d9086908b90600401615183565b6000604051808303816000875af1158015613b1d573d6000803e3d6000fd5b505050506040513d6000823e601f3d908101601f19168201604052613b459190810190614f6b565b90505b60606001600160a01b03861615613bd357604051633ee9bd4f60e11b81526001600160a01b03871690637dd37a9e90613b89908e9087908a90600401615183565b6000604051808303816000875af1158015613ba8573d6000803e3d6000fd5b505050506040513d6000823e601f3d908101601f19168201604052613bd09190810190614f6b565b90505b876001600160a01b0316838c7f889c6317f76b8527935ed434226767d05f8b7c664d99f6f787e62efd558f6f018542604051613c10929190614e81565b60405180910390a4856001600160a01b0316838c7f36e973ebf2a1c9c4006aaad244866e6dea9a0e85770deea599b193a9eb51b8f78442604051613c55929190614e81565b60405180910390a450909998505050505050505050565b6104e98282604051602401613c82929190614e81565b60408051601f198184030181529190526020810180516001600160e01b03166309710a9d60e41b179052614103565b6001600160a01b038216613d075760405162461bcd60e51b815260206004820181905260248201527f4552433732313a206d696e7420746f20746865207a65726f20616464726573736044820152606401610acd565b6000818152600260205260409020546001600160a01b031615613d6c5760405162461bcd60e51b815260206004820152601c60248201527f4552433732313a20746f6b656e20616c7265616479206d696e746564000000006044820152606401610acd565b613d7860008383613e12565b6001600160a01b0382166000908152600360205260408120805460019290613da19084906151ea565b909155505060008181526002602052604080822080546001600160a01b0319166001600160a01b03861690811790915590518392907fddf252ad1be2c89b69c2b068fc378daa952ba7f163c4a11628f55a4df523b3ef908290a45050565b6000613e0b82846151ea565b9392505050565b6001600160a01b0383166000908152600c602052604090205415613e4a576001600160a01b0383166000908152600c60205260408120555b61051b838383614124565b6000604051733d602d80600a3d3981f3363d3d373d3d3d363d7360601b81528260601b60148201526e5af43d82803e903d91602b57fd5bf360881b60288201526037816000f09150506001600160a01b038116613eed5760405162461bcd60e51b8152602060048201526016602482015275115490cc4c4d8dce8818dc99585d194819985a5b195960521b6044820152606401610acd565b919050565b606081613f165750506040805180820190915260018152600360fc1b602082015290565b8160005b8115613f405780613f2a816151b8565b9150613f399050600a836153fb565b9150613f1a565b6000816001600160401b03811115613f5a57613f5a614bdf565b6040519080825280601f01601f191660200182016040528015613f84576020820181803683370190505b5090505b841561170957613f996001836151d3565b9150613fa6600a8661540f565b613fb19060306151ea565b60f81b818381518110613fc657613fc6615043565b60200101906001600160f81b031916908160001a905350613fe8600a866153fb565b9450613f88565b613ffb600085856143b4565b506107dd600183836143b4565b60006001600160a01b0384163b156140fb57604051630a85bd0160e11b81526001600160a01b0385169063150b7a029061404c903390899088908890600401615423565b6020604051808303816000875af1925050508015614087575060408051601f3d908101601f1916820190925261408491810190615456565b60015b6140e1573d8080156140b5576040519150601f19603f3d011682016040523d82523d6000602084013e6140ba565b606091505b5080516140d95760405162461bcd60e51b8152600401610acd90615393565b805181602001fd5b6001600160e01b031916630a85bd0160e11b149050611709565b506001611709565b80516a636f6e736f6c652e6c6f67602083016000808483855afa5050505050565b6001600160a01b03831661417f5761417a81600880546000838152600960205260408120829055600182018355919091527ff3f7a9fe364faab93b216da50a3214154f22a0a2b415b23a84c8169e8b636ee30155565b6141a2565b816001600160a01b0316836001600160a01b0316146141a2576141a283826141dc565b6001600160a01b0382166141b95761051b81614279565b826001600160a01b0316826001600160a01b03161461051b5761051b8282614328565b600060016141e9846119eb565b6141f391906151d3565b600083815260076020526040902054909150808214614246576001600160a01b03841660009081526006602090815260408083208584528252808320548484528184208190558352600790915290208190555b5060009182526007602090815260408084208490556001600160a01b039094168352600681528383209183525290812055565b60085460009061428b906001906151d3565b600083815260096020526040812054600880549394509092849081106142b3576142b3615043565b9060005260206000200154905080600883815481106142d4576142d4615043565b600091825260208083209091019290925582815260099091526040808220849055858252812055600880548061430c5761430c615473565b6001900381819060005260206000200160009055905550505050565b6000614333836119eb565b6001600160a01b039093166000908152600660209081526040808320868452825280832085905593825260079052919091209190915550565b6040518060c001604052806000815260200160608152602001606081526020016000815260200160006001600160a01b0316815260200160006001600160a01b031681525090565b8280546143c090614ea3565b90600052602060002090601f0160209004810192826143e25760008555614428565b82601f106143fb5782800160ff19823516178555614428565b82800160010185558215614428579182015b8281111561442857823582559160200191906001019061440d565b506144349291506144ac565b5090565b82805461444490614ea3565b90600052602060002090601f0160209004810192826144665760008555614428565b82601f1061447f57805160ff1916838001178555614428565b82800160010185558215614428579182015b82811115614428578251825591602001919060010190614491565b5b8082111561443457600081556001016144ad565b6001600160e01b03198116811461058f57600080fd5b6000602082840312156144e957600080fd5b8135613e0b816144c1565b6000806000806080858703121561450a57600080fd5b5050823594602084013594506040840135936060013592509050565b6001600160a01b038116811461058f57600080fd5b60008083601f84011261454d57600080fd5b5081356001600160401b0381111561456457600080fd5b60208301915083602082850101111561457c57600080fd5b9250929050565b60008060008060006080868803121561459b57600080fd5b853594506020860135935060408601356145b481614526565b925060608601356001600160401b038111156145cf57600080fd5b6145db8882890161453b565b969995985093965092949392505050565b60005b838110156146075781810151838201526020016145ef565b838111156106235750506000910152565b600081518084526146308160208601602086016145ec565b601f01601f19169290920160200192915050565b602081526000613e0b6020830184614618565b60006020828403121561466957600080fd5b5035919050565b6000806040838503121561468357600080fd5b823561468e81614526565b946020939093013593505050565b6000604082840312156146ae57600080fd5b50919050565b600080604083850312156146c757600080fd5b82356001600160401b038111156146dd57600080fd5b6146e98582860161469c565b92505060208301356146fa81614526565b809150509250929050565b6000806020838503121561471857600080fd5b82356001600160401b0381111561472e57600080fd5b61473a8582860161453b565b90969095509350505050565b60208152815160208201526000602083015160c0604084015261476c60e0840182614618565b90506040840151601f198483030160608501526147898282614618565b91505060608401516080840152608084015160018060a01b0380821660a08601528060a08701511660c086015250508091505092915050565b6000806000606084860312156147d757600080fd5b8335925060208401356147e981614526565b929592945050506040919091013590565b60008060006060848603121561480f57600080fd5b505081359360208301359350604090920135919050565b60006020828403121561483857600080fd5b8135613e0b81614526565b60008060006060848603121561485857600080fd5b833561486381614526565b925060208401356147e981614526565b60006020828403121561488557600080fd5b81356001600160401b0381111561489b57600080fd5b6117098482850161469c565b600080600080606085870312156148bd57600080fd5b8435935060208501356001600160401b038111156148da57600080fd5b6148e68782880161453b565b9598909750949560400135949350505050565b6000806000806060858703121561490f57600080fd5b843561491a81614526565b9350602085013561492a81614526565b925060408501356001600160401b0381111561494557600080fd5b6149518782880161453b565b95989497509550505050565b60008060006040848603121561497257600080fd5b8335925060208401356001600160401b0381111561498f57600080fd5b61499b8682870161453b565b9497909650939450505050565b600080604083850312156149bb57600080fd5b50508035926020909101359150565b6020808252825182820181905260009190848201906040850190845b81811015614a02578351835292840192918401916001016149e6565b50909695505050505050565b60008060008060808587031215614a2457600080fd5b843593506020850135614a3681614526565b93969395505050506040820135916060013590565b600080600080600060808688031215614a6357600080fd5b8535614a6e81614526565b94506020860135935060408601356145b481614526565b60008060008060608587031215614a9b57600080fd5b84356001600160401b0380821115614ab257600080fd5b614abe8883890161469c565b955060208701359150614ad082614526565b90935060408601359080821115614ae657600080fd5b506149518782880161453b565b60008060008060008060808789031215614b0c57600080fd5b86356001600160401b0380821115614b2357600080fd5b614b2f8a838b0161453b565b90985096506020890135915080821115614b4857600080fd5b50614b5589828a0161453b565b9095509350506040870135614b6981614526565b91506060870135614b7981614526565b809150509295509295509295565b60008060408385031215614b9a57600080fd5b8235915060208301356146fa81614526565b60008060408385031215614bbf57600080fd5b8235614bca81614526565b9150602083013580151581146146fa57600080fd5b634e487b7160e01b600052604160045260246000fd5b604051601f8201601f191681016001600160401b0381118282101715614c1d57614c1d614bdf565b604052919050565b60006001600160401b03821115614c3e57614c3e614bdf565b50601f01601f191660200190565b60008060008060808587031215614c6257600080fd5b8435614c6d81614526565b93506020850135614c7d81614526565b92506040850135915060608501356001600160401b03811115614c9f57600080fd5b8501601f81018713614cb057600080fd5b8035614cc3614cbe82614c25565b614bf5565b818152886020838501011115614cd857600080fd5b8160208401602083013760006020838301015280935050505092959194509250565b600060208284031215614d0c57600080fd5b81356001600160401b03811115614d2257600080fd5b820160a08185031215613e0b57600080fd5b600060c082840312156146ae57600080fd5b600060208284031215614d5857600080fd5b81356001600160401b03811115614d6e57600080fd5b61170984828501614d34565b60008060408385031215614d8d57600080fd5b82356001600160401b0380821115614da457600080fd5b614db086838701614d34565b93506020850135915080821115614dc657600080fd5b50614dd38582860161469c565b9150509250929050565b60008060008060608587031215614df357600080fd5b84359350602085013561492a81614526565b60008060408385031215614e1857600080fd5b8235614e2381614526565b915060208301356146fa81614526565b600060208284031215614e4557600080fd5b5051919050565b6020808252818101527f57656233456e7472793a20756e617574686f7269736564206c696e6b4c697374604082015260600190565b604081526000614e946040830185614618565b90508260208301529392505050565b600181811c90821680614eb757607f821691505b602082108114156146ae57634e487b7160e01b600052602260045260246000fd5b8183823760009101908152919050565b81835281816020850137506000828201602090810191909152601f909101601f19169091010190565b848152836020820152606060408201526000614f31606083018486614ee8565b9695505050505050565b6000614f49614cbe84614c25565b9050828152838383011115614f5d57600080fd5b613e0b8360208301846145ec565b600060208284031215614f7d57600080fd5b81516001600160401b03811115614f9357600080fd5b8201601f81018413614fa457600080fd5b61170984825160208401614f3b565b60208082526031908201527f4552433732313a207472616e736665722063616c6c6572206973206e6f74206f6040820152701ddb995c881b9bdc88185c1c1c9bdd9959607a1b606082015260800190565b6001600160a01b0384168152604060208201819052600090612bcc9083018486614ee8565b838152604060208201526000612bcc604083018486614ee8565b634e487b7160e01b600052603260045260246000fd5b6000602080838503121561506c57600080fd5b82516001600160401b038082111561508357600080fd5b818501915085601f83011261509757600080fd5b8151818111156150a9576150a9614bdf565b8060051b91506150ba848301614bf5565b81815291830184019184810190888411156150d457600080fd5b938501935b838510156150f2578451825293850193908501906150d9565b98975050505050505050565b848152606060208201526000615118606083018587614ee8565b905082604083015295945050505050565b602081526000611709602083018486614ee8565b6000808335601e1984360301811261515457600080fd5b8301803591506001600160401b0382111561516e57600080fd5b60200191503681900382131561457c57600080fd5b838152826020820152606060408201526000612bcc6060830184614618565b634e487b7160e01b600052601160045260246000fd5b60006000198214156151cc576151cc6151a2565b5060010190565b6000828210156151e5576151e56151a2565b500390565b600082198211156151fd576151fd6151a2565b500190565b60006020828403121561521457600080fd5b8151613e0b81614526565b805160208201516001600160e01b0319808216929190600483101561524e5780818460040360031b1b83161693505b505050919050565b600084516152688184602089016145ec565b652d4d696e742d60d01b908301908152845161528b8160068401602089016145ec565b602d60f81b6006929091019182015283516152ad8160078401602088016145ec565b0160070195945050505050565b6001600160e01b031984168152652d4d696e742d60d01b600482015282516000906152ec81600a8501602088016145ec565b602d60f81b600a91840191820152835161530d81600b8401602088016145ec565b01600b0195945050505050565b85815284602082015260018060a01b038416604082015260a06060820152600061534760a0830185614618565b82810360808401526150f28185614618565b60608152600061536d606083018789614ee8565b8281036020840152615380818688614ee8565b9150508260408301529695505050505050565b60208082526032908201527f4552433732313a207472616e7366657220746f206e6f6e20455243373231526560408201527131b2b4bb32b91034b6b83632b6b2b73a32b960711b606082015260800190565b634e487b7160e01b600052601260045260246000fd5b60008261540a5761540a6153e5565b500490565b60008261541e5761541e6153e5565b500690565b6001600160a01b0385811682528416602082015260408101839052608060608201819052600090614f3190830184614618565b60006020828403121561546857600080fd5b8151613e0b816144c1565b634e487b7160e01b600052603160045260246000fdfea2646970667358221220c40ba448dfc33770bf45fd3b95c2c4a34148bc8e21fea2190643c0dea9ab8a6264736f6c634300080a0033",
  "linkReferences": {},
  "deployedLinkReferences": {}
}