{
    "_format": "hh-sol-artifact-1",
    "contractName": "Web3Entry",
    "sourceName": "contracts/Web3Entry.sol",
    "abi": [
        {
            "anonymous": false,
            "inputs": [
                {
                    "indexed": true,
                    "internalType": "address",
                    "name": "owner",
                    "type": "address"
                },
                {
                    "indexed": true,
                    "internalType": "address",
                    "name": "approved",
                    "type": "address"
                },
                {
                    "indexed": true,
                    "internalType": "uint256",
                    "name": "tokenId",
                    "type": "uint256"
                }
            ],
            "name": "Approval",
            "type": "event"
        },
        {
            "anonymous": false,
            "inputs": [
                {
                    "indexed": true,
                    "internalType": "address",
                    "name": "owner",
                    "type": "address"
                },
                {
                    "indexed": true,
                    "internalType": "address",
                    "name": "operator",
                    "type": "address"
                },
                {
                    "indexed": false,
                    "internalType": "bool",
                    "name": "approved",
                    "type": "bool"
                }
            ],
            "name": "ApprovalForAll",
            "type": "event"
        },
        {
            "anonymous": false,
            "inputs": [
                {
                    "indexed": true,
                    "internalType": "address",
                    "name": "from",
                    "type": "address"
                },
                {
                    "indexed": true,
                    "internalType": "address",
                    "name": "to",
                    "type": "address"
                },
                {
                    "indexed": true,
                    "internalType": "uint256",
                    "name": "tokenId",
                    "type": "uint256"
                }
            ],
            "name": "Transfer",
            "type": "event"
        },
        {
            "inputs": [
                {
                    "internalType": "address",
                    "name": "to",
                    "type": "address"
                },
                {
                    "internalType": "uint256",
                    "name": "tokenId",
                    "type": "uint256"
                }
            ],
            "name": "approve",
            "outputs": [],
            "stateMutability": "nonpayable",
            "type": "function"
        },
        {
            "inputs": [
                {
                    "internalType": "uint256",
                    "name": "linklistId",
                    "type": "uint256"
                },
                {
                    "internalType": "uint256",
                    "name": "profileId",
                    "type": "uint256"
                }
            ],
            "name": "attachLinklist",
            "outputs": [],
            "stateMutability": "nonpayable",
            "type": "function"
        },
        {
            "inputs": [
                {
                    "internalType": "address",
                    "name": "owner",
                    "type": "address"
                }
            ],
            "name": "balanceOf",
            "outputs": [
                {
                    "internalType": "uint256",
                    "name": "",
                    "type": "uint256"
                }
            ],
            "stateMutability": "view",
            "type": "function"
        },
        {
            "inputs": [
                {
                    "internalType": "uint256",
                    "name": "tokenId",
                    "type": "uint256"
                }
            ],
            "name": "burn",
            "outputs": [],
            "stateMutability": "nonpayable",
            "type": "function"
        },
        {
            "inputs": [
                {
                    "components": [
                        {
                            "internalType": "address",
                            "name": "to",
                            "type": "address"
                        },
                        {
                            "internalType": "string",
                            "name": "handle",
                            "type": "string"
                        },
                        {
                            "internalType": "string",
                            "name": "uri",
                            "type": "string"
                        },
                        {
                            "internalType": "address",
                            "name": "linkModule",
                            "type": "address"
                        },
                        {
                            "internalType": "bytes",
                            "name": "linkModuleInitData",
                            "type": "bytes"
                        }
                    ],
                    "internalType": "struct DataTypes.CreateProfileData",
                    "name": "vars",
                    "type": "tuple"
                }
            ],
            "name": "createProfile",
            "outputs": [],
            "stateMutability": "nonpayable",
            "type": "function"
        },
        {
            "inputs": [
                {
                    "components": [
                        {
                            "internalType": "uint256",
                            "name": "fromProfileId",
                            "type": "uint256"
                        },
                        {
                            "internalType": "address",
                            "name": "to",
                            "type": "address"
                        },
                        {
                            "internalType": "bytes32",
                            "name": "linkType",
                            "type": "bytes32"
                        }
                    ],
                    "internalType": "struct DataTypes.createThenLinkProfileData",
                    "name": "vars",
                    "type": "tuple"
                }
            ],
            "name": "createThenLinkProfile",
            "outputs": [],
            "stateMutability": "nonpayable",
            "type": "function"
        },
        {
            "inputs": [
                {
                    "internalType": "uint256",
                    "name": "profileId",
                    "type": "uint256"
                },
                {
                    "internalType": "uint256",
                    "name": "noteId",
                    "type": "uint256"
                }
            ],
            "name": "deleteNote",
            "outputs": [],
            "stateMutability": "nonpayable",
            "type": "function"
        },
        {
            "inputs": [
                {
                    "internalType": "uint256",
                    "name": "linklistId",
                    "type": "uint256"
                },
                {
                    "internalType": "uint256",
                    "name": "profileId",
                    "type": "uint256"
                }
            ],
            "name": "detachLinklist",
            "outputs": [],
            "stateMutability": "nonpayable",
            "type": "function"
        },
        {
            "inputs": [
                {
                    "internalType": "uint256",
                    "name": "tokenId",
                    "type": "uint256"
                }
            ],
            "name": "getApproved",
            "outputs": [
                {
                    "internalType": "address",
                    "name": "",
                    "type": "address"
                }
            ],
            "stateMutability": "view",
            "type": "function"
        },
        {
            "inputs": [
                {
                    "internalType": "uint256",
                    "name": "profileId",
                    "type": "uint256"
                }
            ],
            "name": "getHandle",
            "outputs": [
                {
                    "internalType": "string",
                    "name": "",
                    "type": "string"
                }
            ],
            "stateMutability": "view",
            "type": "function"
        },
        {
            "inputs": [
                {
                    "internalType": "address",
                    "name": "account",
                    "type": "address"
                }
            ],
            "name": "getLinkModule4Address",
            "outputs": [
                {
                    "internalType": "address",
                    "name": "",
                    "type": "address"
                }
            ],
            "stateMutability": "view",
            "type": "function"
        },
        {
            "inputs": [
                {
                    "internalType": "address",
                    "name": "tokenAddress",
                    "type": "address"
                },
                {
                    "internalType": "uint256",
                    "name": "tokenId",
                    "type": "uint256"
                }
            ],
            "name": "getLinkModule4ERC721",
            "outputs": [
                {
                    "internalType": "address",
                    "name": "",
                    "type": "address"
                }
            ],
            "stateMutability": "view",
            "type": "function"
        },
        {
            "inputs": [
                {
                    "internalType": "uint256",
                    "name": "tokenId",
                    "type": "uint256"
                }
            ],
            "name": "getLinkModule4Linklist",
            "outputs": [
                {
                    "internalType": "address",
                    "name": "",
                    "type": "address"
                }
            ],
            "stateMutability": "view",
            "type": "function"
        },
        {
            "inputs": [
                {
                    "internalType": "uint256",
                    "name": "fromProfileId",
                    "type": "uint256"
                },
                {
                    "internalType": "bytes32",
                    "name": "linkType",
                    "type": "bytes32"
                }
            ],
            "name": "getLinkingProfileIds",
            "outputs": [
                {
                    "internalType": "uint256[]",
                    "name": "results",
                    "type": "uint256[]"
                }
            ],
            "stateMutability": "view",
            "type": "function"
        },
        {
            "inputs": [],
            "name": "getLinklistContract",
            "outputs": [
                {
                    "internalType": "address",
                    "name": "",
                    "type": "address"
                }
            ],
            "stateMutability": "view",
            "type": "function"
        },
        {
            "inputs": [
                {
                    "internalType": "uint256",
                    "name": "profileId",
                    "type": "uint256"
                },
                {
                    "internalType": "bytes32",
                    "name": "linkType",
                    "type": "bytes32"
                }
            ],
            "name": "getLinklistUri",
            "outputs": [
                {
                    "internalType": "string",
                    "name": "",
                    "type": "string"
                }
            ],
            "stateMutability": "view",
            "type": "function"
        },
        {
            "inputs": [
                {
                    "internalType": "uint256",
                    "name": "profileId",
                    "type": "uint256"
                },
                {
                    "internalType": "uint256",
                    "name": "noteId",
                    "type": "uint256"
                }
            ],
            "name": "getNote",
            "outputs": [
                {
                    "components": [
                        {
                            "internalType": "bytes32",
                            "name": "linkItemType",
                            "type": "bytes32"
                        },
                        {
                            "internalType": "bytes32",
                            "name": "linkKey",
                            "type": "bytes32"
                        },
                        {
                            "internalType": "string",
                            "name": "contentUri",
                            "type": "string"
                        },
                        {
                            "internalType": "address",
                            "name": "linkModule",
                            "type": "address"
                        },
                        {
                            "internalType": "address",
                            "name": "mintModule",
                            "type": "address"
                        },
                        {
                            "internalType": "address",
                            "name": "mintNFT",
                            "type": "address"
                        },
                        {
                            "internalType": "bool",
                            "name": "deleted",
                            "type": "bool"
                        }
                    ],
                    "internalType": "struct DataTypes.Note",
                    "name": "",
                    "type": "tuple"
                }
            ],
            "stateMutability": "view",
            "type": "function"
        },
        {
            "inputs": [
                {
                    "internalType": "address",
                    "name": "account",
                    "type": "address"
                }
            ],
            "name": "getPrimaryProfileId",
            "outputs": [
                {
                    "internalType": "uint256",
                    "name": "",
                    "type": "uint256"
                }
            ],
            "stateMutability": "view",
            "type": "function"
        },
        {
            "inputs": [
                {
                    "internalType": "uint256",
                    "name": "profileId",
                    "type": "uint256"
                }
            ],
            "name": "getProfile",
            "outputs": [
                {
                    "components": [
                        {
                            "internalType": "uint256",
                            "name": "profileId",
                            "type": "uint256"
                        },
                        {
                            "internalType": "string",
                            "name": "handle",
                            "type": "string"
                        },
                        {
                            "internalType": "string",
                            "name": "uri",
                            "type": "string"
                        },
                        {
                            "internalType": "uint256",
                            "name": "noteCount",
                            "type": "uint256"
                        },
                        {
                            "internalType": "address",
                            "name": "socialToken",
                            "type": "address"
                        },
                        {
                            "internalType": "address",
                            "name": "linkModule",
                            "type": "address"
                        }
                    ],
                    "internalType": "struct DataTypes.Profile",
                    "name": "",
                    "type": "tuple"
                }
            ],
            "stateMutability": "view",
            "type": "function"
        },
        {
            "inputs": [
                {
                    "internalType": "string",
                    "name": "handle",
                    "type": "string"
                }
            ],
            "name": "getProfileByHandle",
            "outputs": [
                {
                    "components": [
                        {
                            "internalType": "uint256",
                            "name": "profileId",
                            "type": "uint256"
                        },
                        {
                            "internalType": "string",
                            "name": "handle",
                            "type": "string"
                        },
                        {
                            "internalType": "string",
                            "name": "uri",
                            "type": "string"
                        },
                        {
                            "internalType": "uint256",
                            "name": "noteCount",
                            "type": "uint256"
                        },
                        {
                            "internalType": "address",
                            "name": "socialToken",
                            "type": "address"
                        },
                        {
                            "internalType": "address",
                            "name": "linkModule",
                            "type": "address"
                        }
                    ],
                    "internalType": "struct DataTypes.Profile",
                    "name": "",
                    "type": "tuple"
                }
            ],
            "stateMutability": "view",
            "type": "function"
        },
        {
            "inputs": [
                {
                    "internalType": "uint256",
                    "name": "profileId",
                    "type": "uint256"
                }
            ],
            "name": "getProfileUri",
            "outputs": [
                {
                    "internalType": "string",
                    "name": "",
                    "type": "string"
                }
            ],
            "stateMutability": "view",
            "type": "function"
        },
        {
            "inputs": [],
            "name": "getRevision",
            "outputs": [
                {
                    "internalType": "uint256",
                    "name": "",
                    "type": "uint256"
                }
            ],
            "stateMutability": "pure",
            "type": "function"
        },
        {
            "inputs": [
                {
                    "internalType": "string",
                    "name": "_name",
                    "type": "string"
                },
                {
                    "internalType": "string",
                    "name": "_symbol",
                    "type": "string"
                },
                {
                    "internalType": "address",
                    "name": "_linklistContract",
                    "type": "address"
                },
                {
                    "internalType": "address",
                    "name": "_mintNFTImpl",
                    "type": "address"
                }
            ],
            "name": "initialize",
            "outputs": [],
            "stateMutability": "nonpayable",
            "type": "function"
        },
        {
            "inputs": [
                {
                    "internalType": "address",
                    "name": "owner",
                    "type": "address"
                },
                {
                    "internalType": "address",
                    "name": "operator",
                    "type": "address"
                }
            ],
            "name": "isApprovedForAll",
            "outputs": [
                {
                    "internalType": "bool",
                    "name": "",
                    "type": "bool"
                }
            ],
            "stateMutability": "view",
            "type": "function"
        },
        {
            "inputs": [
                {
                    "internalType": "uint256",
                    "name": "profileId",
                    "type": "uint256"
                }
            ],
            "name": "isPrimaryProfile",
            "outputs": [
                {
                    "internalType": "bool",
                    "name": "",
                    "type": "bool"
                }
            ],
            "stateMutability": "view",
            "type": "function"
        },
        {
            "inputs": [
                {
                    "components": [
                        {
                            "internalType": "uint256",
                            "name": "fromProfileId",
                            "type": "uint256"
                        },
                        {
                            "internalType": "address",
                            "name": "ethAddress",
                            "type": "address"
                        },
                        {
                            "internalType": "bytes32",
                            "name": "linkType",
                            "type": "bytes32"
                        },
                        {
                            "internalType": "bytes",
                            "name": "data",
                            "type": "bytes"
                        }
                    ],
                    "internalType": "struct DataTypes.linkAddressData",
                    "name": "vars",
                    "type": "tuple"
                }
            ],
            "name": "linkAddress",
            "outputs": [],
            "stateMutability": "nonpayable",
            "type": "function"
        },
        {
            "inputs": [
                {
                    "components": [
                        {
                            "internalType": "uint256",
                            "name": "fromProfileId",
                            "type": "uint256"
                        },
                        {
                            "internalType": "string",
                            "name": "toUri",
                            "type": "string"
                        },
                        {
                            "internalType": "bytes32",
                            "name": "linkType",
                            "type": "bytes32"
                        },
                        {
                            "internalType": "bytes",
                            "name": "data",
                            "type": "bytes"
                        }
                    ],
                    "internalType": "struct DataTypes.linkAnyData",
                    "name": "vars",
                    "type": "tuple"
                }
            ],
            "name": "linkAny",
            "outputs": [],
            "stateMutability": "nonpayable",
            "type": "function"
        },
        {
            "inputs": [
                {
                    "components": [
                        {
                            "internalType": "uint256",
                            "name": "fromProfileId",
                            "type": "uint256"
                        },
                        {
                            "internalType": "address",
                            "name": "tokenAddress",
                            "type": "address"
                        },
                        {
                            "internalType": "uint256",
                            "name": "tokenId",
                            "type": "uint256"
                        },
                        {
                            "internalType": "bytes32",
                            "name": "linkType",
                            "type": "bytes32"
                        },
                        {
                            "internalType": "bytes",
                            "name": "data",
                            "type": "bytes"
                        }
                    ],
                    "internalType": "struct DataTypes.linkERC721Data",
                    "name": "vars",
                    "type": "tuple"
                }
            ],
            "name": "linkERC721",
            "outputs": [],
            "stateMutability": "nonpayable",
            "type": "function"
        },
        {
            "inputs": [
                {
                    "components": [
                        {
                            "internalType": "uint256",
                            "name": "fromProfileId",
                            "type": "uint256"
                        },
                        {
                            "internalType": "uint256",
                            "name": "toLinkListId",
                            "type": "uint256"
                        },
                        {
                            "internalType": "bytes32",
                            "name": "linkType",
                            "type": "bytes32"
                        },
                        {
                            "internalType": "bytes",
                            "name": "data",
                            "type": "bytes"
                        }
                    ],
                    "internalType": "struct DataTypes.linkLinklistData",
                    "name": "vars",
                    "type": "tuple"
                }
            ],
            "name": "linkLinklist",
            "outputs": [],
            "stateMutability": "nonpayable",
            "type": "function"
        },
        {
            "inputs": [
                {
                    "components": [
                        {
                            "internalType": "uint256",
                            "name": "fromProfileId",
                            "type": "uint256"
                        },
                        {
                            "internalType": "uint256",
                            "name": "toProfileId",
                            "type": "uint256"
                        },
                        {
                            "internalType": "uint256",
                            "name": "toNoteId",
                            "type": "uint256"
                        },
                        {
                            "internalType": "bytes32",
                            "name": "linkType",
                            "type": "bytes32"
                        },
                        {
                            "internalType": "bytes",
                            "name": "data",
                            "type": "bytes"
                        }
                    ],
                    "internalType": "struct DataTypes.linkNoteData",
                    "name": "vars",
                    "type": "tuple"
                }
            ],
            "name": "linkNote",
            "outputs": [],
            "stateMutability": "nonpayable",
            "type": "function"
        },
        {
            "inputs": [
                {
                    "components": [
                        {
                            "internalType": "uint256",
                            "name": "fromProfileId",
                            "type": "uint256"
                        },
                        {
                            "internalType": "uint256",
                            "name": "toProfileId",
                            "type": "uint256"
                        },
                        {
                            "internalType": "bytes32",
                            "name": "linkType",
                            "type": "bytes32"
                        },
                        {
                            "internalType": "bytes",
                            "name": "data",
                            "type": "bytes"
                        }
                    ],
                    "internalType": "struct DataTypes.linkProfileData",
                    "name": "vars",
                    "type": "tuple"
                }
            ],
            "name": "linkProfile",
            "outputs": [],
            "stateMutability": "nonpayable",
            "type": "function"
        },
        {
            "inputs": [
                {
                    "internalType": "uint256",
                    "name": "fromProfileId",
                    "type": "uint256"
                },
                {
                    "components": [
                        {
                            "internalType": "uint256",
                            "name": "fromProfileId",
                            "type": "uint256"
                        },
                        {
                            "internalType": "uint256",
                            "name": "toProfileId",
                            "type": "uint256"
                        },
                        {
                            "internalType": "bytes32",
                            "name": "linkType",
                            "type": "bytes32"
                        }
                    ],
                    "internalType": "struct DataTypes.ProfileLinkStruct",
                    "name": "linkData",
                    "type": "tuple"
                },
                {
                    "internalType": "bytes32",
                    "name": "linkType",
                    "type": "bytes32"
                }
            ],
            "name": "linkProfileLink",
            "outputs": [],
            "stateMutability": "nonpayable",
            "type": "function"
        },
        {
            "inputs": [
                {
                    "components": [
                        {
                            "internalType": "uint256",
                            "name": "profileId",
                            "type": "uint256"
                        },
                        {
                            "internalType": "uint256",
                            "name": "noteId",
                            "type": "uint256"
                        },
                        {
                            "internalType": "address",
                            "name": "to",
                            "type": "address"
                        },
                        {
                            "internalType": "bytes",
                            "name": "mintModuleData",
                            "type": "bytes"
                        }
                    ],
                    "internalType": "struct DataTypes.MintNoteData",
                    "name": "vars",
                    "type": "tuple"
                }
            ],
            "name": "mintNote",
            "outputs": [
                {
                    "internalType": "uint256",
                    "name": "",
                    "type": "uint256"
                }
            ],
            "stateMutability": "nonpayable",
            "type": "function"
        },
        {
            "inputs": [],
            "name": "name",
            "outputs": [
                {
                    "internalType": "string",
                    "name": "",
                    "type": "string"
                }
            ],
            "stateMutability": "view",
            "type": "function"
        },
        {
            "inputs": [
                {
                    "internalType": "uint256",
                    "name": "tokenId",
                    "type": "uint256"
                }
            ],
            "name": "ownerOf",
            "outputs": [
                {
                    "internalType": "address",
                    "name": "",
                    "type": "address"
                }
            ],
            "stateMutability": "view",
            "type": "function"
        },
        {
            "inputs": [
                {
                    "components": [
                        {
                            "internalType": "uint256",
                            "name": "profileId",
                            "type": "uint256"
                        },
                        {
                            "internalType": "string",
                            "name": "contentUri",
                            "type": "string"
                        },
                        {
                            "internalType": "address",
                            "name": "linkModule",
                            "type": "address"
                        },
                        {
                            "internalType": "bytes",
                            "name": "linkModuleInitData",
                            "type": "bytes"
                        },
                        {
                            "internalType": "address",
                            "name": "mintModule",
                            "type": "address"
                        },
                        {
                            "internalType": "bytes",
                            "name": "mintModuleInitData",
                            "type": "bytes"
                        }
                    ],
                    "internalType": "struct DataTypes.PostNoteData",
                    "name": "vars",
                    "type": "tuple"
                }
            ],
            "name": "postNote",
            "outputs": [
                {
                    "internalType": "uint256",
                    "name": "",
                    "type": "uint256"
                }
            ],
            "stateMutability": "nonpayable",
            "type": "function"
        },
        {
            "inputs": [
                {
                    "components": [
                        {
                            "internalType": "uint256",
                            "name": "profileId",
                            "type": "uint256"
                        },
                        {
                            "internalType": "string",
                            "name": "contentUri",
                            "type": "string"
                        },
                        {
                            "internalType": "address",
                            "name": "linkModule",
                            "type": "address"
                        },
                        {
                            "internalType": "bytes",
                            "name": "linkModuleInitData",
                            "type": "bytes"
                        },
                        {
                            "internalType": "address",
                            "name": "mintModule",
                            "type": "address"
                        },
                        {
                            "internalType": "bytes",
                            "name": "mintModuleInitData",
                            "type": "bytes"
                        }
                    ],
                    "internalType": "struct DataTypes.PostNoteData",
                    "name": "noteData",
                    "type": "tuple"
                },
                {
                    "components": [
                        {
                            "internalType": "uint256",
                            "name": "fromProfileId",
                            "type": "uint256"
                        },
                        {
                            "internalType": "address",
                            "name": "ethAddress",
                            "type": "address"
                        },
                        {
                            "internalType": "bytes32",
                            "name": "linkType",
                            "type": "bytes32"
                        },
                        {
                            "internalType": "bytes",
                            "name": "data",
                            "type": "bytes"
                        }
                    ],
                    "internalType": "struct DataTypes.linkAddressData",
                    "name": "linkData",
                    "type": "tuple"
                }
            ],
            "name": "postNote4AddressLink",
            "outputs": [
                {
                    "internalType": "uint256",
                    "name": "",
                    "type": "uint256"
                }
            ],
            "stateMutability": "nonpayable",
            "type": "function"
        },
        {
            "inputs": [
                {
                    "components": [
                        {
                            "internalType": "uint256",
                            "name": "profileId",
                            "type": "uint256"
                        },
                        {
                            "internalType": "string",
                            "name": "contentUri",
                            "type": "string"
                        },
                        {
                            "internalType": "address",
                            "name": "linkModule",
                            "type": "address"
                        },
                        {
                            "internalType": "bytes",
                            "name": "linkModuleInitData",
                            "type": "bytes"
                        },
                        {
                            "internalType": "address",
                            "name": "mintModule",
                            "type": "address"
                        },
                        {
                            "internalType": "bytes",
                            "name": "mintModuleInitData",
                            "type": "bytes"
                        }
                    ],
                    "internalType": "struct DataTypes.PostNoteData",
                    "name": "noteData",
                    "type": "tuple"
                },
                {
                    "components": [
                        {
                            "internalType": "uint256",
                            "name": "fromProfileId",
                            "type": "uint256"
                        },
                        {
                            "internalType": "string",
                            "name": "toUri",
                            "type": "string"
                        },
                        {
                            "internalType": "bytes32",
                            "name": "linkType",
                            "type": "bytes32"
                        },
                        {
                            "internalType": "bytes",
                            "name": "data",
                            "type": "bytes"
                        }
                    ],
                    "internalType": "struct DataTypes.linkAnyData",
                    "name": "linkData",
                    "type": "tuple"
                }
            ],
            "name": "postNote4AnyLink",
            "outputs": [
                {
                    "internalType": "uint256",
                    "name": "",
                    "type": "uint256"
                }
            ],
            "stateMutability": "nonpayable",
            "type": "function"
        },
        {
            "inputs": [
                {
                    "components": [
                        {
                            "internalType": "uint256",
                            "name": "profileId",
                            "type": "uint256"
                        },
                        {
                            "internalType": "string",
                            "name": "contentUri",
                            "type": "string"
                        },
                        {
                            "internalType": "address",
                            "name": "linkModule",
                            "type": "address"
                        },
                        {
                            "internalType": "bytes",
                            "name": "linkModuleInitData",
                            "type": "bytes"
                        },
                        {
                            "internalType": "address",
                            "name": "mintModule",
                            "type": "address"
                        },
                        {
                            "internalType": "bytes",
                            "name": "mintModuleInitData",
                            "type": "bytes"
                        }
                    ],
                    "internalType": "struct DataTypes.PostNoteData",
                    "name": "noteData",
                    "type": "tuple"
                },
                {
                    "components": [
                        {
                            "internalType": "uint256",
                            "name": "fromProfileId",
                            "type": "uint256"
                        },
                        {
                            "internalType": "address",
                            "name": "tokenAddress",
                            "type": "address"
                        },
                        {
                            "internalType": "uint256",
                            "name": "tokenId",
                            "type": "uint256"
                        },
                        {
                            "internalType": "bytes32",
                            "name": "linkType",
                            "type": "bytes32"
                        },
                        {
                            "internalType": "bytes",
                            "name": "data",
                            "type": "bytes"
                        }
                    ],
                    "internalType": "struct DataTypes.linkERC721Data",
                    "name": "linkData",
                    "type": "tuple"
                }
            ],
            "name": "postNote4ERC721Link",
            "outputs": [
                {
                    "internalType": "uint256",
                    "name": "",
                    "type": "uint256"
                }
            ],
            "stateMutability": "nonpayable",
            "type": "function"
        },
        {
            "inputs": [
                {
                    "components": [
                        {
                            "internalType": "uint256",
                            "name": "profileId",
                            "type": "uint256"
                        },
                        {
                            "internalType": "string",
                            "name": "contentUri",
                            "type": "string"
                        },
                        {
                            "internalType": "address",
                            "name": "linkModule",
                            "type": "address"
                        },
                        {
                            "internalType": "bytes",
                            "name": "linkModuleInitData",
                            "type": "bytes"
                        },
                        {
                            "internalType": "address",
                            "name": "mintModule",
                            "type": "address"
                        },
                        {
                            "internalType": "bytes",
                            "name": "mintModuleInitData",
                            "type": "bytes"
                        }
                    ],
                    "internalType": "struct DataTypes.PostNoteData",
                    "name": "noteData",
                    "type": "tuple"
                },
                {
                    "components": [
                        {
                            "internalType": "uint256",
                            "name": "fromProfileId",
                            "type": "uint256"
                        },
                        {
                            "internalType": "uint256",
                            "name": "toLinkListId",
                            "type": "uint256"
                        },
                        {
                            "internalType": "bytes32",
                            "name": "linkType",
                            "type": "bytes32"
                        },
                        {
                            "internalType": "bytes",
                            "name": "data",
                            "type": "bytes"
                        }
                    ],
                    "internalType": "struct DataTypes.linkLinklistData",
                    "name": "linkData",
                    "type": "tuple"
                }
            ],
            "name": "postNote4LinklistLink",
            "outputs": [
                {
                    "internalType": "uint256",
                    "name": "",
                    "type": "uint256"
                }
            ],
            "stateMutability": "nonpayable",
            "type": "function"
        },
        {
            "inputs": [
                {
                    "components": [
                        {
                            "internalType": "uint256",
                            "name": "profileId",
                            "type": "uint256"
                        },
                        {
                            "internalType": "string",
                            "name": "contentUri",
                            "type": "string"
                        },
                        {
                            "internalType": "address",
                            "name": "linkModule",
                            "type": "address"
                        },
                        {
                            "internalType": "bytes",
                            "name": "linkModuleInitData",
                            "type": "bytes"
                        },
                        {
                            "internalType": "address",
                            "name": "mintModule",
                            "type": "address"
                        },
                        {
                            "internalType": "bytes",
                            "name": "mintModuleInitData",
                            "type": "bytes"
                        }
                    ],
                    "internalType": "struct DataTypes.PostNoteData",
                    "name": "noteData",
                    "type": "tuple"
                },
                {
                    "components": [
                        {
                            "internalType": "uint256",
                            "name": "fromProfileId",
                            "type": "uint256"
                        },
                        {
                            "internalType": "uint256",
                            "name": "toProfileId",
                            "type": "uint256"
                        },
                        {
                            "internalType": "uint256",
                            "name": "toNoteId",
                            "type": "uint256"
                        },
                        {
                            "internalType": "bytes32",
                            "name": "linkType",
                            "type": "bytes32"
                        },
                        {
                            "internalType": "bytes",
                            "name": "data",
                            "type": "bytes"
                        }
                    ],
                    "internalType": "struct DataTypes.linkNoteData",
                    "name": "linkData",
                    "type": "tuple"
                }
            ],
            "name": "postNote4NoteLink",
            "outputs": [
                {
                    "internalType": "uint256",
                    "name": "",
                    "type": "uint256"
                }
            ],
            "stateMutability": "nonpayable",
            "type": "function"
        },
        {
            "inputs": [
                {
                    "components": [
                        {
                            "internalType": "uint256",
                            "name": "profileId",
                            "type": "uint256"
                        },
                        {
                            "internalType": "string",
                            "name": "contentUri",
                            "type": "string"
                        },
                        {
                            "internalType": "address",
                            "name": "linkModule",
                            "type": "address"
                        },
                        {
                            "internalType": "bytes",
                            "name": "linkModuleInitData",
                            "type": "bytes"
                        },
                        {
                            "internalType": "address",
                            "name": "mintModule",
                            "type": "address"
                        },
                        {
                            "internalType": "bytes",
                            "name": "mintModuleInitData",
                            "type": "bytes"
                        }
                    ],
                    "internalType": "struct DataTypes.PostNoteData",
                    "name": "noteData",
                    "type": "tuple"
                },
                {
                    "components": [
                        {
                            "internalType": "uint256",
                            "name": "fromProfileId",
                            "type": "uint256"
                        },
                        {
                            "internalType": "uint256",
                            "name": "toProfileId",
                            "type": "uint256"
                        },
                        {
                            "internalType": "bytes32",
                            "name": "linkType",
                            "type": "bytes32"
                        },
                        {
                            "internalType": "bytes",
                            "name": "data",
                            "type": "bytes"
                        }
                    ],
                    "internalType": "struct DataTypes.linkProfileData",
                    "name": "linkData",
                    "type": "tuple"
                }
            ],
            "name": "postNote4ProfileLink",
            "outputs": [
                {
                    "internalType": "uint256",
                    "name": "",
                    "type": "uint256"
                }
            ],
            "stateMutability": "nonpayable",
            "type": "function"
        },
        {
            "inputs": [
                {
                    "internalType": "address",
                    "name": "from",
                    "type": "address"
                },
                {
                    "internalType": "address",
                    "name": "to",
                    "type": "address"
                },
                {
                    "internalType": "uint256",
                    "name": "tokenId",
                    "type": "uint256"
                }
            ],
            "name": "safeTransferFrom",
            "outputs": [],
            "stateMutability": "nonpayable",
            "type": "function"
        },
        {
            "inputs": [
                {
                    "internalType": "address",
                    "name": "from",
                    "type": "address"
                },
                {
                    "internalType": "address",
                    "name": "to",
                    "type": "address"
                },
                {
                    "internalType": "uint256",
                    "name": "tokenId",
                    "type": "uint256"
                },
                {
                    "internalType": "bytes",
                    "name": "_data",
                    "type": "bytes"
                }
            ],
            "name": "safeTransferFrom",
            "outputs": [],
            "stateMutability": "nonpayable",
            "type": "function"
        },
        {
            "inputs": [
                {
                    "internalType": "address",
                    "name": "operator",
                    "type": "address"
                },
                {
                    "internalType": "bool",
                    "name": "approved",
                    "type": "bool"
                }
            ],
            "name": "setApprovalForAll",
            "outputs": [],
            "stateMutability": "nonpayable",
            "type": "function"
        },
        {
            "inputs": [
                {
                    "internalType": "uint256",
                    "name": "profileId",
                    "type": "uint256"
                },
                {
                    "internalType": "string",
                    "name": "newHandle",
                    "type": "string"
                }
            ],
            "name": "setHandle",
            "outputs": [],
            "stateMutability": "nonpayable",
            "type": "function"
        },
        {
            "inputs": [
                {
                    "components": [
                        {
                            "internalType": "address",
                            "name": "account",
                            "type": "address"
                        },
                        {
                            "internalType": "address",
                            "name": "linkModule",
                            "type": "address"
                        },
                        {
                            "internalType": "bytes",
                            "name": "linkModuleInitData",
                            "type": "bytes"
                        }
                    ],
                    "internalType": "struct DataTypes.setLinkModule4AddressData",
                    "name": "vars",
                    "type": "tuple"
                }
            ],
            "name": "setLinkModule4Address",
            "outputs": [],
            "stateMutability": "nonpayable",
            "type": "function"
        },
        {
            "inputs": [
                {
                    "components": [
                        {
                            "internalType": "address",
                            "name": "tokenAddress",
                            "type": "address"
                        },
                        {
                            "internalType": "uint256",
                            "name": "tokenId",
                            "type": "uint256"
                        },
                        {
                            "internalType": "address",
                            "name": "linkModule",
                            "type": "address"
                        },
                        {
                            "internalType": "bytes",
                            "name": "linkModuleInitData",
                            "type": "bytes"
                        }
                    ],
                    "internalType": "struct DataTypes.setLinkModule4ERC721Data",
                    "name": "vars",
                    "type": "tuple"
                }
            ],
            "name": "setLinkModule4ERC721",
            "outputs": [],
            "stateMutability": "nonpayable",
            "type": "function"
        },
        {
            "inputs": [
                {
                    "components": [
                        {
                            "internalType": "uint256",
                            "name": "linklistId",
                            "type": "uint256"
                        },
                        {
                            "internalType": "address",
                            "name": "linkModule",
                            "type": "address"
                        },
                        {
                            "internalType": "bytes",
                            "name": "linkModuleInitData",
                            "type": "bytes"
                        }
                    ],
                    "internalType": "struct DataTypes.setLinkModule4LinklistData",
                    "name": "vars",
                    "type": "tuple"
                }
            ],
            "name": "setLinkModule4Linklist",
            "outputs": [],
            "stateMutability": "nonpayable",
            "type": "function"
        },
        {
            "inputs": [
                {
                    "components": [
                        {
                            "internalType": "uint256",
                            "name": "profileId",
                            "type": "uint256"
                        },
                        {
                            "internalType": "uint256",
                            "name": "noteId",
                            "type": "uint256"
                        },
                        {
                            "internalType": "address",
                            "name": "linkModule",
                            "type": "address"
                        },
                        {
                            "internalType": "bytes",
                            "name": "linkModuleInitData",
                            "type": "bytes"
                        }
                    ],
                    "internalType": "struct DataTypes.setLinkModule4NoteData",
                    "name": "vars",
                    "type": "tuple"
                }
            ],
            "name": "setLinkModule4Note",
            "outputs": [],
            "stateMutability": "nonpayable",
            "type": "function"
        },
        {
            "inputs": [
                {
                    "components": [
                        {
                            "internalType": "uint256",
                            "name": "profileId",
                            "type": "uint256"
                        },
                        {
                            "internalType": "address",
                            "name": "linkModule",
                            "type": "address"
                        },
                        {
                            "internalType": "bytes",
                            "name": "linkModuleInitData",
                            "type": "bytes"
                        }
                    ],
                    "internalType": "struct DataTypes.setLinkModule4ProfileData",
                    "name": "vars",
                    "type": "tuple"
                }
            ],
            "name": "setLinkModule4Profile",
            "outputs": [],
            "stateMutability": "nonpayable",
            "type": "function"
        },
        {
            "inputs": [
                {
                    "internalType": "uint256",
                    "name": "linklistId",
                    "type": "uint256"
                },
                {
                    "internalType": "string",
                    "name": "uri",
                    "type": "string"
                }
            ],
            "name": "setLinklistUri",
            "outputs": [],
            "stateMutability": "nonpayable",
            "type": "function"
        },
        {
            "inputs": [
                {
                    "components": [
                        {
                            "internalType": "uint256",
                            "name": "profileId",
                            "type": "uint256"
                        },
                        {
                            "internalType": "uint256",
                            "name": "noteId",
                            "type": "uint256"
                        },
                        {
                            "internalType": "address",
                            "name": "mintModule",
                            "type": "address"
                        },
                        {
                            "internalType": "bytes",
                            "name": "mintModuleInitData",
                            "type": "bytes"
                        }
                    ],
                    "internalType": "struct DataTypes.setMintModule4NoteData",
                    "name": "vars",
                    "type": "tuple"
                }
            ],
            "name": "setMintModule4Note",
            "outputs": [],
            "stateMutability": "nonpayable",
            "type": "function"
        },
        {
            "inputs": [
                {
                    "internalType": "uint256",
                    "name": "profileId",
                    "type": "uint256"
                }
            ],
            "name": "setPrimaryProfileId",
            "outputs": [],
            "stateMutability": "nonpayable",
            "type": "function"
        },
        {
            "inputs": [
                {
                    "internalType": "uint256",
                    "name": "profileId",
                    "type": "uint256"
                },
                {
                    "internalType": "string",
                    "name": "newUri",
                    "type": "string"
                }
            ],
            "name": "setProfileUri",
            "outputs": [],
            "stateMutability": "nonpayable",
            "type": "function"
        },
        {
            "inputs": [
                {
                    "internalType": "uint256",
                    "name": "profileId",
                    "type": "uint256"
                },
                {
                    "internalType": "address",
                    "name": "tokenAddress",
                    "type": "address"
                }
            ],
            "name": "setSocialToken",
            "outputs": [],
            "stateMutability": "nonpayable",
            "type": "function"
        },
        {
            "inputs": [
                {
                    "internalType": "bytes4",
                    "name": "interfaceId",
                    "type": "bytes4"
                }
            ],
            "name": "supportsInterface",
            "outputs": [
                {
                    "internalType": "bool",
                    "name": "",
                    "type": "bool"
                }
            ],
            "stateMutability": "view",
            "type": "function"
        },
        {
            "inputs": [],
            "name": "symbol",
            "outputs": [
                {
                    "internalType": "string",
                    "name": "",
                    "type": "string"
                }
            ],
            "stateMutability": "view",
            "type": "function"
        },
        {
            "inputs": [
                {
                    "internalType": "uint256",
                    "name": "index",
                    "type": "uint256"
                }
            ],
            "name": "tokenByIndex",
            "outputs": [
                {
                    "internalType": "uint256",
                    "name": "",
                    "type": "uint256"
                }
            ],
            "stateMutability": "view",
            "type": "function"
        },
        {
            "inputs": [
                {
                    "internalType": "address",
                    "name": "owner",
                    "type": "address"
                },
                {
                    "internalType": "uint256",
                    "name": "index",
                    "type": "uint256"
                }
            ],
            "name": "tokenOfOwnerByIndex",
            "outputs": [
                {
                    "internalType": "uint256",
                    "name": "",
                    "type": "uint256"
                }
            ],
            "stateMutability": "view",
            "type": "function"
        },
        {
            "inputs": [
                {
                    "internalType": "uint256",
                    "name": "profileId",
                    "type": "uint256"
                }
            ],
            "name": "tokenURI",
            "outputs": [
                {
                    "internalType": "string",
                    "name": "",
                    "type": "string"
                }
            ],
            "stateMutability": "view",
            "type": "function"
        },
        {
            "inputs": [],
            "name": "totalSupply",
            "outputs": [
                {
                    "internalType": "uint256",
                    "name": "",
                    "type": "uint256"
                }
            ],
            "stateMutability": "view",
            "type": "function"
        },
        {
            "inputs": [
                {
                    "internalType": "address",
                    "name": "from",
                    "type": "address"
                },
                {
                    "internalType": "address",
                    "name": "to",
                    "type": "address"
                },
                {
                    "internalType": "uint256",
                    "name": "tokenId",
                    "type": "uint256"
                }
            ],
            "name": "transferFrom",
            "outputs": [],
            "stateMutability": "nonpayable",
            "type": "function"
        },
        {
            "inputs": [
                {
                    "components": [
                        {
                            "internalType": "uint256",
                            "name": "fromProfileId",
                            "type": "uint256"
                        },
                        {
                            "internalType": "address",
                            "name": "ethAddress",
                            "type": "address"
                        },
                        {
                            "internalType": "bytes32",
                            "name": "linkType",
                            "type": "bytes32"
                        },
                        {
                            "internalType": "bytes",
                            "name": "data",
                            "type": "bytes"
                        }
                    ],
                    "internalType": "struct DataTypes.linkAddressData",
                    "name": "vars",
                    "type": "tuple"
                }
            ],
            "name": "unlinkAddress",
            "outputs": [],
            "stateMutability": "nonpayable",
            "type": "function"
        },
        {
            "inputs": [
                {
                    "components": [
                        {
                            "internalType": "uint256",
                            "name": "fromProfileId",
                            "type": "uint256"
                        },
                        {
                            "internalType": "string",
                            "name": "toUri",
                            "type": "string"
                        },
                        {
                            "internalType": "bytes32",
                            "name": "linkType",
                            "type": "bytes32"
                        }
                    ],
                    "internalType": "struct DataTypes.unlinkAnyData",
                    "name": "vars",
                    "type": "tuple"
                }
            ],
            "name": "unlinkAny",
            "outputs": [],
            "stateMutability": "nonpayable",
            "type": "function"
        },
        {
            "inputs": [
                {
                    "components": [
                        {
                            "internalType": "uint256",
                            "name": "fromProfileId",
                            "type": "uint256"
                        },
                        {
                            "internalType": "address",
                            "name": "tokenAddress",
                            "type": "address"
                        },
                        {
                            "internalType": "uint256",
                            "name": "tokenId",
                            "type": "uint256"
                        },
                        {
                            "internalType": "bytes32",
                            "name": "linkType",
                            "type": "bytes32"
                        }
                    ],
                    "internalType": "struct DataTypes.unlinkERC721Data",
                    "name": "vars",
                    "type": "tuple"
                }
            ],
            "name": "unlinkERC721",
            "outputs": [],
            "stateMutability": "nonpayable",
            "type": "function"
        },
        {
            "inputs": [
                {
                    "components": [
                        {
                            "internalType": "uint256",
                            "name": "fromProfileId",
                            "type": "uint256"
                        },
                        {
                            "internalType": "uint256",
                            "name": "toLinkListId",
                            "type": "uint256"
                        },
                        {
                            "internalType": "bytes32",
                            "name": "linkType",
                            "type": "bytes32"
                        },
                        {
                            "internalType": "bytes",
                            "name": "data",
                            "type": "bytes"
                        }
                    ],
                    "internalType": "struct DataTypes.linkLinklistData",
                    "name": "vars",
                    "type": "tuple"
                }
            ],
            "name": "unlinkLinklist",
            "outputs": [],
            "stateMutability": "nonpayable",
            "type": "function"
        },
        {
            "inputs": [
                {
                    "components": [
                        {
                            "internalType": "uint256",
                            "name": "fromProfileId",
                            "type": "uint256"
                        },
                        {
                            "internalType": "uint256",
                            "name": "toProfileId",
                            "type": "uint256"
                        },
                        {
                            "internalType": "uint256",
                            "name": "toNoteId",
                            "type": "uint256"
                        },
                        {
                            "internalType": "bytes32",
                            "name": "linkType",
                            "type": "bytes32"
                        }
                    ],
                    "internalType": "struct DataTypes.unlinkNoteData",
                    "name": "vars",
                    "type": "tuple"
                }
            ],
            "name": "unlinkNote",
            "outputs": [],
            "stateMutability": "nonpayable",
            "type": "function"
        },
        {
            "inputs": [
                {
                    "components": [
                        {
                            "internalType": "uint256",
                            "name": "fromProfileId",
                            "type": "uint256"
                        },
                        {
                            "internalType": "uint256",
                            "name": "toProfileId",
                            "type": "uint256"
                        },
                        {
                            "internalType": "bytes32",
                            "name": "linkType",
                            "type": "bytes32"
                        }
                    ],
                    "internalType": "struct DataTypes.unlinkProfileData",
                    "name": "vars",
                    "type": "tuple"
                }
            ],
            "name": "unlinkProfile",
            "outputs": [],
            "stateMutability": "nonpayable",
            "type": "function"
        },
        {
            "inputs": [
                {
                    "internalType": "uint256",
                    "name": "fromProfileId",
                    "type": "uint256"
                },
                {
                    "components": [
                        {
                            "internalType": "uint256",
                            "name": "fromProfileId",
                            "type": "uint256"
                        },
                        {
                            "internalType": "uint256",
                            "name": "toProfileId",
                            "type": "uint256"
                        },
                        {
                            "internalType": "bytes32",
                            "name": "linkType",
                            "type": "bytes32"
                        }
                    ],
                    "internalType": "struct DataTypes.ProfileLinkStruct",
                    "name": "linkData",
                    "type": "tuple"
                },
                {
                    "internalType": "bytes32",
                    "name": "linkType",
                    "type": "bytes32"
                }
            ],
            "name": "unlinkProfileLink",
            "outputs": [],
            "stateMutability": "nonpayable",
            "type": "function"
        }
    ],
    "bytecode": "0x608060405234801561001057600080fd5b506159ff80620000216000396000f3fe608060405234801561001057600080fd5b50600436106104125760003560e01c806369492c9711610220578063b9ad7c7f11610130578063cba4f5cc116100b8578063db8c198d11610087578063db8c198d1461097e578063e985e9c514610991578063ec81d194146109cd578063f08f4f64146109e0578063fe9299fb146109f357600080fd5b8063cba4f5cc14610925578063d23b320b14610938578063d36a2dce1461094b578063db491e801461095e57600080fd5b8063c2a6fe3b116100ff578063c2a6fe3b146108c6578063c387c453146108d9578063c7009c6b146108ec578063c87b56dd146108ff578063cb8e757e1461091257600080fd5b8063b9ad7c7f1461087c578063b9d328451461088f578063bd5f69cb146108a2578063c053f6b8146108b557600080fd5b80638f15b414116101b3578063a22cb46511610182578063a22cb4651461081d578063a6e6178d14610830578063a7ccb4bf14610843578063a914c76e14610856578063b88d4fde1461086957600080fd5b80638f15b414146107dc57806395d89b41146107ef57806395d9fa7d146107f75780639864c3071461080a57600080fd5b80637cf47483116101ef5780637cf4748314610790578063867884e6146107a357806386833c88146107b65780638e4bf54e146107c957600080fd5b806369492c971461074457806370a08231146107575780637936da0e1461076a5780637c392b511461077d57600080fd5b80632e0e9a62116103265780634cab71ec116102ae578063570477fb1161027d578063570477fb146106d85780635b507cfd146106eb5780635bf1aaaa146106fe5780636352211e1461071157806363c008751461072457600080fd5b80634cab71ec1461068c5780634f23983a1461069f5780634f6ccce7146106b2578063515d42d2146106c557600080fd5b8063388f5083116102f5578063388f50831461062d57806340ad34d81461064057806342842e0e1461065357806342966c6814610666578063490da8541461067957600080fd5b80632e0e9a62146105c85780632f745c59146105db57806331b9d08c146105ee57806333f06ee61461061a57600080fd5b80630c4dd5f2116103a95780632209d145116103785780632209d1451461054657806323b872dd1461057c578063251a99cf1461058f578063295cb43e146105a25780632c8bd87e146105b557600080fd5b80630c4dd5f2146104fb5780631316529d1461050e57806318160ddd146105155780631bb4d2311461051d57600080fd5b806308cb68ff116103e557806308cb68ff146104a0578063095ea7b3146104b55780630ab6beba146104c85780630c16de10146104db57600080fd5b806301a0f5a71461041757806301ffc9a71461043d57806306fdde0314610460578063081812fc14610475575b600080fd5b61042a610425366004614869565b610a1c565b6040519081526020015b60405180910390f35b61045061044b3660046148e2565b610b16565b6040519015158152602001610434565b610468610b41565b6040516104349190614957565b61048861048336600461496a565b610bd3565b6040516001600160a01b039091168152602001610434565b6104b36104ae366004614995565b610c6d565b005b6104b36104c33660046149de565b610d06565b6104b36104d6366004614a0a565b610e1c565b6104ee6104e9366004614a6e565b610e59565b6040516104349190614aaf565b6104b3610509366004614995565b611008565b600361042a565b60085461042a565b61042a61052b366004614b2b565b6001600160a01b03166000908152600c602052604090205490565b6104886105543660046149de565b6001600160a01b03918216600090815260106020908152604080832093835292905220541690565b6104b361058a366004614b48565b61106d565b6104b361059d366004614a0a565b61109e565b6104b36105b036600461496a565b61118e565b61042a6105c3366004614b9b565b6111d4565b61042a6105d6366004614869565b61124b565b61042a6105e93660046149de565b61128d565b6104886105fc366004614b2b565b6001600160a01b039081166000908152601160205260409020541690565b6104b3610628366004614bf4565b611323565b6104b361063b366004614c3f565b611397565b6104b361064e366004614c73565b6114a0565b6104b3610661366004614b48565b6115ad565b6104b361067436600461496a565b6115c8565b61042a610687366004614869565b61160c565b61046861069a366004614c8f565b611669565b6104b36106ad366004614c3f565b6116fe565b61042a6106c036600461496a565b6117e0565b6104b36106d3366004614c8f565b611873565b6104b36106e6366004614cb1565b6119ab565b6104b36106f9366004614995565b611aa6565b61042a61070c366004614b9b565b611b1f565b61048861071f36600461496a565b611b5c565b610737610732366004614c8f565b611bd3565b6040516104349190614ce7565b6104b3610752366004614c3f565b611da1565b61042a610765366004614b2b565b611e27565b6104b3610778366004614c8f565b611eae565b6104b361078b366004614bf4565b611f6a565b61042a61079e366004614869565b611fcf565b6104b36107b1366004614c73565b612014565b6104b36107c4366004614c3f565b612136565b6104b36107d7366004614995565b612213565b6104b36107ea366004614d2b565b6122fd565b610468612444565b6104b3610805366004614dbf565b612453565b6104b3610818366004614c3f565b6124d9565b6104b361082b366004614def565b61259e565b6104b361083e366004614bf4565b6125ad565b61042a610851366004614c3f565b612623565b6104b3610864366004614c3f565b6126dc565b6104b3610877366004614e8f565b612749565b6104b361088a366004614c3f565b612781565b6104b361089d366004614f3d565b61288b565b6104b36108b0366004614f3d565b612a22565b6013546001600160a01b0316610488565b6104b36108d4366004614c8f565b612b22565b6104506108e736600461496a565b612b64565b6104b36108fa366004614cb1565b612b92565b61046861090d36600461496a565b612c6d565b6104b3610920366004614f3d565b612d12565b61046861093336600461496a565b612e3a565b6104b3610946366004614c3f565b612e45565b61042a610959366004614f71565b612ebf565b61097161096c366004614c8f565b612f6b565b6040516104349190614fa5565b6104b361098c366004614c3f565b6130b1565b61045061099f36600461501c565b6001600160a01b03918216600090815260056020908152604080832093909416825291909152205460ff1690565b6104686109db36600461496a565b6130fb565b6104ee6109ee36600461496a565b61311b565b610488610a0136600461496a565b6000908152600f60205260409020546001600160a01b031690565b6000610a2883356132a2565b66416e794c696e6b60c81b6000610a42602085018561504a565b604051602001610a53929190615090565b6040516020818303038152906040528051906020012090506000600a60008660000135815260200190815260200160002060030160008154610a94906150c9565b9182905550604051631d642ea560e11b815290915073__$2873850e5b3f5697aafc2f5cd9f27cc884$__90633ac85d4a90610adc908990859088908890600e90600401615200565b60006040518083038186803b158015610af457600080fd5b505af4158015610b08573d6000803e3d6000fd5b509298975050505050505050565b60006001600160e01b0319821663780e9d6360e01b1480610b3b5750610b3b826132fd565b92915050565b606060008054610b5090615237565b80601f0160208091040260200160405190810160405280929190818152602001828054610b7c90615237565b8015610bc95780601f10610b9e57610100808354040283529160200191610bc9565b820191906000526020600020905b815481529060010190602001808311610bac57829003601f168201915b5050505050905090565b6000818152600260205260408120546001600160a01b0316610c515760405162461bcd60e51b815260206004820152602c60248201527f4552433732313a20617070726f76656420717565727920666f72206e6f6e657860448201526b34b9ba32b73a103a37b5b2b760a11b60648201526084015b60405180910390fd5b506000908152600460205260409020546001600160a01b031690565b73__$69db18565ecbefece480e92cc5f8fb1274$__63dfc34f25610c946020840184614b2b565b610ca46040850160208601614b2b565b610cb1604086018661504a565b60116040518663ffffffff1660e01b8152600401610cd395949392919061526c565b60006040518083038186803b158015610ceb57600080fd5b505af4158015610cff573d6000803e3d6000fd5b5050505050565b6000610d1182611b5c565b9050806001600160a01b0316836001600160a01b03161415610d7f5760405162461bcd60e51b815260206004820152602160248201527f4552433732313a20617070726f76616c20746f2063757272656e74206f776e656044820152603960f91b6064820152608401610c48565b336001600160a01b0382161480610d9b5750610d9b813361099f565b610e0d5760405162461bcd60e51b815260206004820152603860248201527f4552433732313a20617070726f76652063616c6c6572206973206e6f74206f7760448201527f6e6572206e6f7220617070726f76656420666f7220616c6c00000000000000006064820152608401610c48565b610e17838361334d565b505050565b610e568135610e316040840160208501614b2b565b836040013560405180604001604052806002815260200161060f60f31b8152506133bb565b50565b610e6161475e565b60008383604051610e739291906152ab565b604080519182900382206000818152600b602090815283822054808352600a82529184902060c0860190945283548552600184018054939650919493929084019190610ebe90615237565b80601f0160208091040260200160405190810160405280929190818152602001828054610eea90615237565b8015610f375780601f10610f0c57610100808354040283529160200191610f37565b820191906000526020600020905b815481529060010190602001808311610f1a57829003601f168201915b50505050508152602001600282018054610f5090615237565b80601f0160208091040260200160405190810160405280929190818152602001828054610f7c90615237565b8015610fc95780601f10610f9e57610100808354040283529160200191610fc9565b820191906000526020600020905b815481529060010190602001808311610fac57829003601f168201915b50505091835250506003820154602082015260048201546001600160a01b03908116604083015260059092015490911660609091015295945050505050565b6110128135613563565b73__$69db18565ecbefece480e92cc5f8fb1274$__636252159e823561103e6040850160208601614b2b565b61104b604086018661504a565b600f6040518663ffffffff1660e01b8152600401610cd39594939291906152bb565b6110773382613623565b6110935760405162461bcd60e51b8152600401610c48906152e6565b610e17838383613716565b6110a881356132a2565b6110b581602001356138bd565b80356000818152600d60209081526040808320818601358452909152902054906110e0908290613914565b6013546040516391e5454b60e01b815260048101839052602084013560248201526001600160a01b03909116906391e5454b90604401600060405180830381600087803b15801561113057600080fd5b505af1158015611144573d6000803e3d6000fd5b50506040805190850135815260208086013593508535925033917f08a14b775e42bf92e94f9d72aba57ad213485e0c20e373c9f5dd161fb81890a291015b60405180910390a45050565b611197816132a2565b336000818152600c6020526040808220849055518392917f444dbf26d795c263ce4e5f2fccaac8e71b73cb37091f74e9e4f76cd98b55f8d391a350565b60006111e083356132a2565b6111fd6111f36040840160208501614b2b565b83604001356139c4565b694552433732314c696e6b60b01b600061121d6040850160208601614b2b565b6040805160609290921b6bffffffffffffffffffffffff191660208301528501356034820152605401610a53565b600061125783356132a2565b81356000908152600a6020908152604082206003018054674c6973744c696e6b60c01b93928601359291908290610a94906150c9565b600061129883611e27565b82106112fa5760405162461bcd60e51b815260206004820152602b60248201527f455243373231456e756d657261626c653a206f776e657220696e646578206f7560448201526a74206f6620626f756e647360a81b6064820152608401610c48565b506001600160a01b03919091166000908152600660209081526040808320938352929052205490565b61132c83613563565b601354604051633c17845760e11b81526001600160a01b039091169063782f08ae9061136090869086908690600401615337565b600060405180830381600087803b15801561137a57600080fd5b505af115801561138e573d6000803e3d6000fd5b50505050505050565b6113a181356132a2565b60006113b38235604084013533613a74565b6013549091506001600160a01b031663ed386e65826113d86040860160208701614b2b565b6040516001600160e01b031960e085901b16815260048101929092526001600160a01b03166024820152604401600060405180830381600087803b15801561141f57600080fd5b505af1158015611433573d6000803e3d6000fd5b50611448925050506040830160208401614b2b565b6001600160a01b031682600001357f3dad60a88f1d8ee170dfbeb8c65c705bd47922f205e774e10e49e4e53d93a8bd846040013584604051611494929190918252602082015260400190565b60405180910390a35050565b6114aa81356132a2565b6114b781602001356138bd565b6114c981602001358260400135613b95565b80356000818152600d6020908152604080832060608601358452909152902054906114f5908290613914565b601354604080516281eec360e31b815260048101849052602085013560248201529084013560448201526001600160a01b039091169063040f761890606401600060405180830381600087803b15801561154e57600080fd5b505af1158015611562573d6000803e3d6000fd5b50506040805160608601358152602081810186905282870135945086013592508535917fd27a71fc88ac85c4657b81c4d24a9cd9a034971683620f179a19d179fe0a956d9101611182565b610e1783838360405180602001604052806000815250612749565b6115d181613be6565b6000818152600a602052604080822090516115ef916001019061535a565b60408051918290039091206000908152600b602052908120555050565b600061161883356132a2565b6a416464726573734c696e6b60a81b60006116396040850160208601614b2b565b84356000908152600a6020526040812060030180546001600160a01b0393909316935090918290610a94906150c9565b6000828152600d6020908152604080832084845290915290819020546013549151632b05429560e21b8152600481018290526060926001600160a01b03169063ac150a5490602401600060405180830381865afa1580156116ce573d6000803e3d6000fd5b505050506040513d6000823e601f3d908101601f191682016040526116f691908101906153f6565b949350505050565b61170881356132a2565b600061171a8235604084013533613a74565b6013549091506001600160a01b031663cc18ac388261173c602086018661504a565b6040518463ffffffff1660e01b815260040161175a93929190615337565b600060405180830381600087803b15801561177457600080fd5b505af1158015611788573d6000803e3d6000fd5b5050833591507f77c508b3ce1f699c73e46a33df0ab0010d3d5f3e1270839381b85e618aef0fce90506117be602085018561504a565b8560400135856040516117d49493929190615463565b60405180910390a25050565b60006117eb60085490565b821061184e5760405162461bcd60e51b815260206004820152602c60248201527f455243373231456e756d657261626c653a20676c6f62616c20696e646578206f60448201526b7574206f6620626f756e647360a01b6064820152608401610c48565b600882815481106118615761186161548a565b90600052602060002001549050919050565b60135460405162fba02760e01b8152600481018490526000916001600160a01b03169062fba02790602401602060405180830381865afa1580156118bb573d6000803e3d6000fd5b505050506040513d601f19601f820116820180604052508101906118df91906154a0565b6000838152600d60209081526040808320848452909152902054909150156119555760405162461bcd60e51b815260206004820152602360248201527f53616d652074797065206c696e6b6c69737420616c726561647920657869737460448201526232b21760e91b6064820152608401610c48565b61195f8383613c45565b6000828152600d60209081526040808320848452909152808220859055518291849186917f94703ec1dd639b589d05fa7c0c14ee1e83b906bfb5f50642cc7ea415a817228891a4505050565b6119b4836132a2565b6000838152600d602090815260408083208484529091529020546119d88185613914565b60135460408051630e14bb7560e31b81526004810184905285356024820152602086013560448201529085013560648201526001600160a01b03909116906370a5dba890608401600060405180830381600087803b158015611a3957600080fd5b505af1158015611a4d573d6000803e3d6000fd5b505060408051863581526020808801359082015281870135918101919091528492508691507f90fe9f3bf41416d9a567460a40443ef7aea47220fa342bc0e07fd01c93ffc7e1906060015b60405180910390a350505050565b611ab081356132a2565b73__$da066dc100670b51e733250a114f607b42$__631e2b88ba8235611adc6040850160208601614b2b565b611ae9604086018661504a565b86356000908152600a60205260409081902090516001600160e01b031960e088901b168152610cd39594939291906004016152bb565b6000611b2b83356132a2565b60408051602084810135908201528382013591810191909152674e6f74654c696e6b60c01b90600090606001610a53565b6000818152600260205260408120546001600160a01b031680610b3b5760405162461bcd60e51b815260206004820152602960248201527f4552433732313a206f776e657220717565727920666f72206e6f6e657869737460448201526832b73a103a37b5b2b760b91b6064820152608401610c48565b6000828152600d6020908152604080832084845290915280822054601354915163a72d231760e01b81526004810182905260609391926001600160a01b03169063a72d231790602401600060405180830381865afa158015611c39573d6000803e3d6000fd5b505050506040513d6000823e601f3d908101601f19168201604052611c6191908101906154b9565b80519091506000805b82811015611cd157611cac848281518110611c8757611c8761548a565b60200260200101516000908152600260205260409020546001600160a01b0316151590565b15611cbf5781611cbb816150c9565b9250505b80611cc9816150c9565b915050611c6a565b50806001600160401b03811115611cea57611cea614e22565b604051908082528060200260200182016040528015611d13578160200160208202803683370190505b5094506000905060005b82811015611d9657611d3a848281518110611c8757611c8761548a565b15611d8457838181518110611d5157611d5161548a565b6020026020010151868381518110611d6b57611d6b61548a565b602090810291909101015281611d80816150c9565b9250505b80611d8e816150c9565b915050611d1d565b505050505092915050565b611dbb611db16020830183614b2b565b8260200135613cb5565b73__$69db18565ecbefece480e92cc5f8fb1274$__63384afeb3611de26020840184614b2b565b6020840135611df76060860160408701614b2b565b611e04606087018761504a565b60106040518763ffffffff1660e01b8152600401610cd39695949392919061555e565b60006001600160a01b038216611e925760405162461bcd60e51b815260206004820152602a60248201527f4552433732313a2062616c616e636520717565727920666f7220746865207a65604482015269726f206164647265737360b01b6064820152608401610c48565b506001600160a01b031660009081526003602052604090205490565b60135460405162fba02760e01b8152600481018490526000916001600160a01b03169062fba02790602401602060405180830381865afa158015611ef6573d6000803e3d6000fd5b505050506040513d601f19601f82011682018060405250810190611f1a91906154a0565b6000838152600d60209081526040808320848452909152808220829055519192508291849186917f5751ba9aebec2dcd504f8865b0e0c98a772403773fe528fce2fce580c9a8a1659190a4505050565b611f73836132a2565b6000838152600a60205260409020611f8f9060020183836147a6565b50827fc6b6b2c87fb0784186dd03398c7203c866d0ae59539fa3158aecbc86cb587a958383604051611fc29291906155a5565b60405180910390a2505050565b6000611fdb83356132a2565b81356000908152600a60209081526040822060030180546a50726f66696c654c696e6b60a81b93928601359291908290610a94906150c9565b61201e81356132a2565b80356000818152600d60209081526040808320606086013584529091529020549061204a908290613914565b6013546001600160a01b0316630370a1618261206c6040860160208701614b2b565b604080516001600160e01b031960e086901b16815260048101939093526001600160a01b0390911660248301528501356044820152606401600060405180830381600087803b1580156120be57600080fd5b505af11580156120d2573d6000803e3d6000fd5b50505060408301803591506120ea9060208501614b2b565b6001600160a01b031683600001357fd87f9606a19988b6cf42d250d484940673ce551ab5f80289051cc343ff13121c856060013585604051611182929190918252602082015260400190565b61214081356132a2565b80356000818152600d602090815260408083208186013584529091529020549061216b908290613914565b60135460405163c70881c560e01b815260048101839052602084013560248201526001600160a01b039091169063c70881c590604401600060405180830381600087803b1580156121bb57600080fd5b505af11580156121cf573d6000803e3d6000fd5b5050505080826020013583600001357f42b4ce79acc0bdbfa79f30ba8758f3a465824adff1ea290b6d5aeeeef05eb14f856040013560405161118291815260200190565b61221d81356132a2565b80356000818152600d6020908152604080832081860135845290915290205490612248908290613914565b6013546001600160a01b0316638e013fb082612267602086018661504a565b6040518463ffffffff1660e01b815260040161228593929190615337565b600060405180830381600087803b15801561229f57600080fd5b505af11580156122b3573d6000803e3d6000fd5b5050833591507f30c740190e772199ffeb095b72d8a53da7bbd09a55668530ee288e33b28ecebd90506122e9602085018561504a565b85604001356040516117d4939291906155b9565b601454600160a81b900460ff1661232157601454600160a01b900460ff1615612325565b303b155b6123885760405162461bcd60e51b815260206004820152602e60248201527f496e697469616c697a61626c653a20636f6e747261637420697320616c72656160448201526d191e481a5b9a5d1a585b1a5e995960921b6064820152608401610c48565b601454600160a81b900460ff161580156123b2576014805461ffff60a01b191661010160a01b1790555b6123be87878787613d6f565b601380546001600160a01b038086166001600160a01b03199283161790925560148054928516929091169190911790556040517f400175a56dd3710794078f7b9dbe8296ac94c5a248dfd51bb22ed4ab9eaa9fbf906124209042815260200190565b60405180910390a1801561138e576014805460ff60a81b1916905550505050505050565b606060018054610b5090615237565b61245c826132a2565b60405163470c9bf360e11b8152600481018390526001600160a01b0382166024820152600a604482015273__$da066dc100670b51e733250a114f607b42$__90638e1937e69060640160006040518083038186803b1580156124bd57600080fd5b505af41580156124d1573d6000803e3d6000fd5b505050505050565b6124e381356132a2565b60006124f58235604084013533613a74565b6013546040516360e6a7c160e11b815260048101839052602085013560248201529192506001600160a01b03169063c1cd4f8290604401600060405180830381600087803b15801561254657600080fd5b505af115801561255a573d6000803e3d6000fd5b5050505080826020013583600001357f2e398bc911c0eb636118bc7906bdfa98b2ccf6ef7ee76e3f07068d0eee488e3f856040013560405161118291815260200190565b6125a9338383613dc0565b5050565b6125b6836132a2565b60405163c57cb53760e01b815273__$da066dc100670b51e733250a114f607b42$__9063c57cb537906125f790869086908690600b90600a906004016155dd565b60006040518083038186803b15801561260f57600080fd5b505af415801561138e573d6000803e3d6000fd5b600073__$2873850e5b3f5697aafc2f5cd9f27cc884$__6379b8a998833560208501356126566060870160408801614b2b565b612663606088018861504a565b6014546040516001600160e01b031960e089901b16815261269b9695949392916001600160a01b031690600a90600e9060040161560b565b602060405180830381865af41580156126b8573d6000803e3d6000fd5b505050506040513d601f19601f82011682018060405250810190610b3b91906154a0565b6126e681356132a2565b6126f381602001356138bd565b610e5681356020830135604084013561270f606086018661504a565b8080601f016020809104026020016040519081016040528093929190818152602001838380828437600092019190915250613e8f92505050565b6127533383613623565b61276f5760405162461bcd60e51b8152600401610c48906152e6565b61277b84848484613fed565b50505050565b61278b81356132a2565b80356000818152600d60209081526040808320818601358452909152902054906127b6908290613914565b6013546001600160a01b0316635956da73826127d86040860160208701614b2b565b6040516001600160e01b031960e085901b16815260048101929092526001600160a01b03166024820152604401600060405180830381600087803b15801561281f57600080fd5b505af1158015612833573d6000803e3d6000fd5b50612848925050506040830160208401614b2b565b6001600160a01b031682600001357f93453451dd1d041ffa18c6c1f3f2e21a6d73c3d8d32deaf595b53a14914c8715846040013560405161149491815260200190565b61289581356132a2565b6128a281602001356138bd565b60006128b48235606084013533613a74565b60135460408051635cb46be760e01b815260048101849052602086013560248201529085013560448201529192506001600160a01b031690635cb46be790606401600060405180830381600087803b15801561290f57600080fd5b505af1158015612923573d6000803e3d6000fd5b505050506020808301356000908152600e8252604080822081860135835290925220600301546001600160a01b031680156129d2576001600160a01b03811663f0f55573336020860135604087013561297f608089018961504a565b6040518663ffffffff1660e01b815260040161299f959493929190615659565b600060405180830381600087803b1580156129b957600080fd5b505af11580156129cd573d6000803e3d6000fd5b505050505b60408051606085013581526020818101859052828601359290860135918635917f3cae5b1196087b560b6735377bbf745e5754f8082348a432b806afa01686ef48910160405180910390a4505050565b601254612a30906001614020565b601255612a4b612a436020830183614b2b565b60125461402c565b6012546040516328837e1960e21b815273__$da066dc100670b51e733250a114f607b42$__9163a20df86491612a8f91859160019190600b90600a90600401615692565b60006040518083038186803b158015612aa757600080fd5b505af4158015612abb573d6000803e3d6000fd5b50600c925060009150612ad390506020840184614b2b565b6001600160a01b03168152602081019190915260400160002054610e5657601254600c6000612b056020850185614b2b565b6001600160a01b0316815260208101919091526040016000205550565b612b2b826132a2565b612b358282613b95565b6000918252600e602090815260408084209284529190529020600501805460ff60a01b1916600160a01b179055565b600080612b7083611b5c565b6001600160a01b03166000908152600c60205260409020549290921492915050565b612b9b836132a2565b6000612ba8848333613a74565b6013546040805163494c4d9960e01b81526004810184905286356024820152602087013560448201529086013560648201529192506001600160a01b03169063494c4d9990608401600060405180830381600087803b158015612c0a57600080fd5b505af1158015612c1e573d6000803e3d6000fd5b505060408051863581526020808801359082015281870135918101919091528492508691507ff0697acc3f194ceead566f2dffb676a7d4aaf14d0a2fad93923e778e4b40ae0d90606001611a98565b6000818152600a60205260409020600201805460609190612c8d90615237565b80601f0160208091040260200160405190810160405280929190818152602001828054612cb990615237565b8015612d065780601f10612cdb57610100808354040283529160200191612d06565b820191906000526020600020905b815481529060010190602001808311612ce957829003601f168201915b50505050509050919050565b612d1c81356132a2565b612d39612d2f6040830160208401614b2b565b82604001356139c4565b6000612d4b8235606084013533613a74565b6013549091506001600160a01b0316632ea24efc82612d706040860160208701614b2b565b604080516001600160e01b031960e086901b16815260048101939093526001600160a01b0390911660248301528501356044820152606401600060405180830381600087803b158015612dc257600080fd5b505af1158015612dd6573d6000803e3d6000fd5b5050506040830180359150612dee9060208501614b2b565b6001600160a01b031683600001357f72413a1a5c43b255ad065653bf49db3c79ff7853ddaa4f4962ccd05e5368ad77856060013585604051611182929190918252602082015260400190565b6060610b3b82612c6d565b612e4f81356132a2565b612e5e81356020830135613b95565b73__$69db18565ecbefece480e92cc5f8fb1274$__6320828a0282356020840135612e8f6060860160408701614b2b565b612e9c606087018761504a565b600e6040518763ffffffff1660e01b8152600401610cd396959493929190615773565b6000612ecb82356132a2565b81356000908152600a6020526040812060030180548290612eeb906150c9565b9182905550604051631d642ea560e11b815290915073__$2873850e5b3f5697aafc2f5cd9f27cc884$__90633ac85d4a90612f3490869085906000908190600e90600401615200565b60006040518083038186803b158015612f4c57600080fd5b505af4158015612f60573d6000803e3d6000fd5b509295945050505050565b6040805160e0808201835260008083526020808401829052606084860181905284018290526080840182905260a0840182905260c08401829052868252600e81528482208683528152908490208451928301855280548352600181015491830191909152600281018054939492939192840191612fe790615237565b80601f016020809104026020016040519081016040528092919081815260200182805461301390615237565b80156130605780601f1061303557610100808354040283529160200191613060565b820191906000526020600020905b81548152906001019060200180831161304357829003601f168201915b505050918352505060038201546001600160a01b0390811660208301526004830154811660408301526005909201549182166060820152600160a01b90910460ff1615156080909101529392505050565b6130bb81356132a2565b6130ca81356020830135613b95565b73__$69db18565ecbefece480e92cc5f8fb1274$__631f2ffb6982356020840135612e8f6060860160408701614b2b565b6000818152600a60205260409020600101805460609190612c8d90615237565b61312361475e565b600a60008381526020019081526020016000206040518060c00160405290816000820154815260200160018201805461315b90615237565b80601f016020809104026020016040519081016040528092919081815260200182805461318790615237565b80156131d45780601f106131a9576101008083540402835291602001916131d4565b820191906000526020600020905b8154815290600101906020018083116131b757829003601f168201915b505050505081526020016002820180546131ed90615237565b80601f016020809104026020016040519081016040528092919081815260200182805461321990615237565b80156132665780601f1061323b57610100808354040283529160200191613266565b820191906000526020600020905b81548152906001019060200180831161324957829003601f168201915b50505091835250506003820154602082015260048201546001600160a01b03908116604083015260059092015490911660609091015292915050565b6132ab81611b5c565b6001600160a01b0316336001600160a01b031614610e565760405162461bcd60e51b815260206004820152600f60248201526e2737ba283937b334b632a7bbb732b960891b6044820152606401610c48565b60006001600160e01b031982166380ac58cd60e01b148061332e57506001600160e01b03198216635b5e139f60e01b145b80610b3b57506301ffc9a760e01b6001600160e01b0319831614610b3b565b600081815260046020526040902080546001600160a01b0319166001600160a01b038416908117909155819061338282611b5c565b6001600160a01b03167f8c5be1e5ebec7d5bd14f71427d1e84f3dd0314c0f7b2291e5b200ac8c7c3b92560405160405180910390a45050565b6133c4846132a2565b6001600160a01b0383166000908152600c60205260409020541561343e5760405162461bcd60e51b815260206004820152602b60248201527f546172676574206164647265737320616c726561647920686173207072696d6160448201526a393c90383937b334b6329760a91b6064820152608401610c48565b600060126000815461344f906150c9565b91829055509050613460848261402c565b73__$da066dc100670b51e733250a114f607b42$__63a20df8646040518060a00160405280876001600160a01b031681526020016134a8886001600160a01b0316601461417a565b815260200160405180602001604052806000815250815260200160006001600160a01b0316815260200160405180602001604052806000815250815250600084600b600a6040518663ffffffff1660e01b815260040161350c9594939291906157a1565b60006040518083038186803b15801561352457600080fd5b505af4158015613538573d6000803e3d6000fd5b5050506001600160a01b0385166000908152600c6020526040902082905550610cff85828585613e8f565b6013546040516331a9108f60e11b8152600481018390526001600160a01b0390911690636352211e90602401602060405180830381865afa1580156135ac573d6000803e3d6000fd5b505050506040513d601f19601f820116820180604052508101906135d0919061582e565b6001600160a01b0316336001600160a01b031614610e565760405162461bcd60e51b815260206004820152601060248201526f2737ba2634b735a634b9ba27bbb732b960811b6044820152606401610c48565b6000818152600260205260408120546001600160a01b031661369c5760405162461bcd60e51b815260206004820152602c60248201527f4552433732313a206f70657261746f7220717565727920666f72206e6f6e657860448201526b34b9ba32b73a103a37b5b2b760a11b6064820152608401610c48565b60006136a783611b5c565b9050806001600160a01b0316846001600160a01b031614806136e25750836001600160a01b03166136d784610bd3565b6001600160a01b0316145b806116f657506001600160a01b0380821660009081526005602090815260408083209388168352929052205460ff166116f6565b826001600160a01b031661372982611b5c565b6001600160a01b03161461378d5760405162461bcd60e51b815260206004820152602560248201527f4552433732313a207472616e736665722066726f6d20696e636f72726563742060448201526437bbb732b960d91b6064820152608401610c48565b6001600160a01b0382166137ef5760405162461bcd60e51b8152602060048201526024808201527f4552433732313a207472616e7366657220746f20746865207a65726f206164646044820152637265737360e01b6064820152608401610c48565b6137fa838383614315565b61380560008261334d565b6001600160a01b038316600090815260036020526040812080546001929061382e90849061584b565b90915550506001600160a01b038216600090815260036020526040812080546001929061385c908490615862565b909155505060008181526002602052604080822080546001600160a01b0319166001600160a01b0386811691821790925591518493918716917fddf252ad1be2c89b69c2b068fc378daa952ba7f163c4a11628f55a4df523b3ef91a4505050565b6000818152600260205260409020546001600160a01b0316610e565760405162461bcd60e51b815260206004820152601060248201526f50726f66696c654e6f7445786973747360801b6044820152606401610c48565b60135460405163124fe93760e21b8152600481018490526001600160a01b039091169063493fa4dc90602401602060405180830381865afa15801561395d573d6000803e3d6000fd5b505050506040513d601f19601f8201168201806040525081019061398191906154a0565b81146125a95760405162461bcd60e51b8152602060048201526012602482015271155b985d1d1858da1959131a5b9adb1a5cdd60721b6044820152606401610c48565b6040516331a9108f60e11b8152600481018290526001600160a01b03831690636352211e90602401602060405180830381865afa158015613a09573d6000803e3d6000fd5b505050506040513d601f19601f82011682018060405250810190613a2d919061582e565b6001600160a01b03166125a95760405162461bcd60e51b815260206004820152600f60248201526e5245433732314e6f7445786973747360881b6044820152606401610c48565b6000838152600d6020908152604080832085845290915290205480613b8e57613b156001601360009054906101000a90046001600160a01b03166001600160a01b03166318160ddd6040518163ffffffff1660e01b8152600401602060405180830381865afa158015613aeb573d6000803e3d6000fd5b505050506040513d601f19601f82011682018060405250810190613b0f91906154a0565b90614020565b60135460405163644ee7e760e11b81526001600160a01b038581166004830152602482018790526044820184905292935091169063c89dcfce90606401600060405180830381600087803b158015613b6c57600080fd5b505af1158015613b80573d6000803e3d6000fd5b50505050613b8e8185611873565b9392505050565b6000828152600a60205260409020600301548111156125a95760405162461bcd60e51b815260206004820152600d60248201526c4e6f74654e6f7445786973747360981b6044820152606401610c48565b613bf03382613623565b613c3c5760405162461bcd60e51b815260206004820152601b60248201527f4e4654426173653a204e6f744f776e65724f72417070726f76656400000000006044820152606401610c48565b610e5681614358565b613c4e816132a2565b601354604051631c5b266960e21b815260048101849052336024820152604481018390526001600160a01b039091169063716c99a490606401600060405180830381600087803b158015613ca157600080fd5b505af11580156124d1573d6000803e3d6000fd5b6040516331a9108f60e11b8152600481018290526001600160a01b03831690636352211e90602401602060405180830381865afa158015613cfa573d6000803e3d6000fd5b505050506040513d601f19601f82011682018060405250810190613d1e919061582e565b6001600160a01b0316336001600160a01b0316146125a95760405162461bcd60e51b815260206004820152600e60248201526d2737ba22a9219b9918a7bbb732b960911b6044820152606401610c48565b613d7b848484846143ff565b7f414cd0b34676984f09a5f76ce9718d4062e50283abe0e7e274a9a5b4e0c99c308484848442604051613db295949392919061587a565b60405180910390a150505050565b816001600160a01b0316836001600160a01b03161415613e225760405162461bcd60e51b815260206004820152601960248201527f4552433732313a20617070726f766520746f2063616c6c6572000000000000006044820152606401610c48565b6001600160a01b03838116600081815260056020908152604080832094871680845294825291829020805460ff191686151590811790915591519182527f17307eab39ab6107e8899845ad3d59bd9653f200f220920489ca2b5937696c31910160405180910390a3505050565b6000613e9c858433613a74565b601354604051637bf0b88d60e11b815260048101839052602481018790529192506001600160a01b03169063f7e1711a90604401600060405180830381600087803b158015613eea57600080fd5b505af1158015613efe573d6000803e3d6000fd5b5050506000858152600a60205260409020600501546001600160a01b0316159050613fa7576000613f2e86611b5c565b6000868152600a60205260409081902060050154905163366531f960e11b81529192506001600160a01b031690636cca63f290613f73908490899088906004016158b4565b600060405180830381600087803b158015613f8d57600080fd5b505af1158015613fa1573d6000803e3d6000fd5b50505050505b60408051848152602081018390528591879133917fbc914995d574dd9ef2df364e4eee2b85deda3ba35d054a62425fba1b97275716910160405180910390a45050505050565b613ff8848484613716565b61400484848484614418565b61277b5760405162461bcd60e51b8152600401610c48906158db565b6000613b8e8284615862565b6001600160a01b0382166140825760405162461bcd60e51b815260206004820181905260248201527f4552433732313a206d696e7420746f20746865207a65726f20616464726573736044820152606401610c48565b6000818152600260205260409020546001600160a01b0316156140e75760405162461bcd60e51b815260206004820152601c60248201527f4552433732313a20746f6b656e20616c7265616479206d696e746564000000006044820152606401610c48565b6140f360008383614315565b6001600160a01b038216600090815260036020526040812080546001929061411c908490615862565b909155505060008181526002602052604080822080546001600160a01b0319166001600160a01b03861690811790915590518392907fddf252ad1be2c89b69c2b068fc378daa952ba7f163c4a11628f55a4df523b3ef908290a45050565b6060600061418983600261592d565b614194906002615862565b6001600160401b038111156141ab576141ab614e22565b6040519080825280601f01601f1916602001820160405280156141d5576020820181803683370190505b509050600360fc1b816000815181106141f0576141f061548a565b60200101906001600160f81b031916908160001a905350600f60fb1b8160018151811061421f5761421f61548a565b60200101906001600160f81b031916908160001a905350600061424384600261592d565b61424e906001615862565b90505b60018111156142c6576f181899199a1a9b1b9c1cb0b131b232b360811b85600f16601081106142825761428261548a565b1a60f81b8282815181106142985761429861548a565b60200101906001600160f81b031916908160001a90535060049490941c936142bf8161594c565b9050614251565b508315613b8e5760405162461bcd60e51b815260206004820181905260248201527f537472696e67733a20686578206c656e67746820696e73756666696369656e746044820152606401610c48565b6001600160a01b0383166000908152600c60205260409020541561434d576001600160a01b0383166000908152600c60205260408120555b610e17838383614516565b600061436382611b5c565b905061437181600084614315565b61437c60008361334d565b6001600160a01b03811660009081526003602052604081208054600192906143a590849061584b565b909155505060008281526002602052604080822080546001600160a01b0319169055518391906001600160a01b038416907fddf252ad1be2c89b69c2b068fc378daa952ba7f163c4a11628f55a4df523b3ef908390a45050565b61440b600085856147a6565b50610cff600183836147a6565b60006001600160a01b0384163b1561450b57604051630a85bd0160e11b81526001600160a01b0385169063150b7a029061445c903390899088908890600401615963565b6020604051808303816000875af1925050508015614497575060408051601f3d908101601f1916820190925261449491810190615996565b60015b6144f1573d8080156144c5576040519150601f19603f3d011682016040523d82523d6000602084013e6144ca565b606091505b5080516144e95760405162461bcd60e51b8152600401610c48906158db565b805181602001fd5b6001600160e01b031916630a85bd0160e11b1490506116f6565b506001949350505050565b6001600160a01b0383166145715761456c81600880546000838152600960205260408120829055600182018355919091527ff3f7a9fe364faab93b216da50a3214154f22a0a2b415b23a84c8169e8b636ee30155565b614594565b816001600160a01b0316836001600160a01b0316146145945761459483826145ce565b6001600160a01b0382166145ab57610e178161466b565b826001600160a01b0316826001600160a01b031614610e1757610e17828261471a565b600060016145db84611e27565b6145e5919061584b565b600083815260076020526040902054909150808214614638576001600160a01b03841660009081526006602090815260408083208584528252808320548484528184208190558352600790915290208190555b5060009182526007602090815260408084208490556001600160a01b039094168352600681528383209183525290812055565b60085460009061467d9060019061584b565b600083815260096020526040812054600880549394509092849081106146a5576146a561548a565b9060005260206000200154905080600883815481106146c6576146c661548a565b60009182526020808320909101929092558281526009909152604080822084905585825281205560088054806146fe576146fe6159b3565b6001900381819060005260206000200160009055905550505050565b600061472583611e27565b6001600160a01b039093166000908152600660209081526040808320868452825280832085905593825260079052919091209190915550565b6040518060c001604052806000815260200160608152602001606081526020016000815260200160006001600160a01b0316815260200160006001600160a01b031681525090565b8280546147b290615237565b90600052602060002090601f0160209004810192826147d4576000855561481a565b82601f106147ed5782800160ff1982351617855561481a565b8280016001018555821561481a579182015b8281111561481a5782358255916020019190600101906147ff565b5061482692915061482a565b5090565b5b80821115614826576000815560010161482b565b600060c0828403121561485157600080fd5b50919050565b60006080828403121561485157600080fd5b6000806040838503121561487c57600080fd5b82356001600160401b038082111561489357600080fd5b61489f8683870161483f565b935060208501359150808211156148b557600080fd5b506148c285828601614857565b9150509250929050565b6001600160e01b031981168114610e5657600080fd5b6000602082840312156148f457600080fd5b8135613b8e816148cc565b60005b8381101561491a578181015183820152602001614902565b8381111561277b5750506000910152565b600081518084526149438160208601602086016148ff565b601f01601f19169290920160200192915050565b602081526000613b8e602083018461492b565b60006020828403121561497c57600080fd5b5035919050565b60006060828403121561485157600080fd5b6000602082840312156149a757600080fd5b81356001600160401b038111156149bd57600080fd5b6116f684828501614983565b6001600160a01b0381168114610e5657600080fd5b600080604083850312156149f157600080fd5b82356149fc816149c9565b946020939093013593505050565b600060608284031215614a1c57600080fd5b613b8e8383614983565b60008083601f840112614a3857600080fd5b5081356001600160401b03811115614a4f57600080fd5b602083019150836020828501011115614a6757600080fd5b9250929050565b60008060208385031215614a8157600080fd5b82356001600160401b03811115614a9757600080fd5b614aa385828601614a26565b90969095509350505050565b60208152815160208201526000602083015160c06040840152614ad560e084018261492b565b90506040840151601f19848303016060850152614af2828261492b565b91505060608401516080840152608084015160018060a01b0380821660a08601528060a08701511660c086015250508091505092915050565b600060208284031215614b3d57600080fd5b8135613b8e816149c9565b600080600060608486031215614b5d57600080fd5b8335614b68816149c9565b92506020840135614b78816149c9565b929592945050506040919091013590565b600060a0828403121561485157600080fd5b60008060408385031215614bae57600080fd5b82356001600160401b0380821115614bc557600080fd5b614bd18683870161483f565b93506020850135915080821115614be757600080fd5b506148c285828601614b89565b600080600060408486031215614c0957600080fd5b8335925060208401356001600160401b03811115614c2657600080fd5b614c3286828701614a26565b9497909650939450505050565b600060208284031215614c5157600080fd5b81356001600160401b03811115614c6757600080fd5b6116f684828501614857565b600060808284031215614c8557600080fd5b613b8e8383614857565b60008060408385031215614ca257600080fd5b50508035926020909101359150565b600080600060a08486031215614cc657600080fd5b83359250614cd78560208601614983565b9150608084013590509250925092565b6020808252825182820181905260009190848201906040850190845b81811015614d1f57835183529284019291840191600101614d03565b50909695505050505050565b60008060008060008060808789031215614d4457600080fd5b86356001600160401b0380821115614d5b57600080fd5b614d678a838b01614a26565b90985096506020890135915080821115614d8057600080fd5b50614d8d89828a01614a26565b9095509350506040870135614da1816149c9565b91506060870135614db1816149c9565b809150509295509295509295565b60008060408385031215614dd257600080fd5b823591506020830135614de4816149c9565b809150509250929050565b60008060408385031215614e0257600080fd5b8235614e0d816149c9565b915060208301358015158114614de457600080fd5b634e487b7160e01b600052604160045260246000fd5b604051601f8201601f191681016001600160401b0381118282101715614e6057614e60614e22565b604052919050565b60006001600160401b03821115614e8157614e81614e22565b50601f01601f191660200190565b60008060008060808587031215614ea557600080fd5b8435614eb0816149c9565b93506020850135614ec0816149c9565b92506040850135915060608501356001600160401b03811115614ee257600080fd5b8501601f81018713614ef357600080fd5b8035614f06614f0182614e68565b614e38565b818152886020838501011115614f1b57600080fd5b8160208401602083013760006020838301015280935050505092959194509250565b600060208284031215614f4f57600080fd5b81356001600160401b03811115614f6557600080fd5b6116f684828501614b89565b600060208284031215614f8357600080fd5b81356001600160401b03811115614f9957600080fd5b6116f68482850161483f565b6020815281516020820152602082015160408201526000604083015160e06060840152614fd661010084018261492b565b9050606084015160018060a01b0380821660808601528060808701511660a08601528060a08701511660c0860152505060c0840151151560e08401528091505092915050565b6000806040838503121561502f57600080fd5b823561503a816149c9565b91506020830135614de4816149c9565b6000808335601e1984360301811261506157600080fd5b8301803591506001600160401b0382111561507b57600080fd5b602001915036819003821315614a6757600080fd5b664c696e6b416e7960c81b81528183600783013760009101600701908152919050565b634e487b7160e01b600052601160045260246000fd5b60006000198214156150dd576150dd6150b3565b5060010190565b6000808335601e198436030181126150fb57600080fd5b83016020810192503590506001600160401b0381111561511a57600080fd5b803603831315614a6757600080fd5b81835281816020850137506000828201602090810191909152601f909101601f19169091010190565b80358252600061516560208301836150e4565b60c0602086015261517a60c086018284615129565b915050604083013561518b816149c9565b6001600160a01b0381811660408701526151a860608601866150e4565b925086840360608801526151bd848483615129565b935050608085013591506151d0826149c9565b1660808501526151e360a08401846150e4565b85830360a08701526151f6838284615129565b9695505050505050565b60a08152600061521360a0830188615152565b90508560208301528460408301528360608301528260808301529695505050505050565b600181811c9082168061524b57607f821691505b6020821081141561485157634e487b7160e01b600052602260045260246000fd5b6001600160a01b038681168252851660208201526080604082018190526000906152999083018587615129565b90508260608301529695505050505050565b8183823760009101908152919050565b8581526001600160a01b03851660208201526080604082018190526000906152999083018587615129565b60208082526031908201527f4552433732313a207472616e736665722063616c6c6572206973206e6f74206f6040820152701ddb995c881b9bdc88185c1c1c9bdd9959607a1b606082015260800190565b838152604060208201526000615351604083018486615129565b95945050505050565b600080835481600182811c91508083168061537657607f831692505b602080841082141561539657634e487b7160e01b86526022600452602486fd5b8180156153aa57600181146153bb576153e8565b60ff198616895284890196506153e8565b60008a81526020902060005b868110156153e05781548b8201529085019083016153c7565b505084890196505b509498975050505050505050565b60006020828403121561540857600080fd5b81516001600160401b0381111561541e57600080fd5b8201601f8101841361542f57600080fd5b805161543d614f0182614e68565b81815285602083850101111561545257600080fd5b6153518260208301602086016148ff565b606081526000615477606083018688615129565b6020830194909452506040015292915050565b634e487b7160e01b600052603260045260246000fd5b6000602082840312156154b257600080fd5b5051919050565b600060208083850312156154cc57600080fd5b82516001600160401b03808211156154e357600080fd5b818501915085601f8301126154f757600080fd5b81518181111561550957615509614e22565b8060051b915061551a848301614e38565b818152918301840191848101908884111561553457600080fd5b938501935b8385101561555257845182529385019390850190615539565b98975050505050505050565b6001600160a01b038781168252602082018790528516604082015260a0606082018190526000906155929083018587615129565b9050826080830152979650505050505050565b6020815260006116f6602083018486615129565b6040815260006155cd604083018587615129565b9050826020830152949350505050565b8581526080602082015260006155f7608083018688615129565b604083019490945250606001529392505050565b888152876020820152600060018060a01b03808916604084015260e0606084015261563a60e08401888a615129565b951660808301525060a081019290925260c09091015295945050505050565b60018060a01b0386168152846020820152836040820152608060608201526000615687608083018486615129565b979650505050505050565b60a08152600086356156a3816149c9565b6001600160a01b0381811660a08501526156c060208a018a6150e4565b925060a060c08601526156d861014086018483615129565b9250506156e860408a018a6150e4565b609f19808786030160e0880152615700858385615129565b945060608c01359250615712836149c9565b83831661010088015261572860808d018d6150e4565b9450925080878603016101208801525050615744838383615129565b9350505050615757602083018715159052565b8460408301528360608301528260808301529695505050505050565b86815285602082015260018060a01b038516604082015260a06060820152600061559260a083018587615129565b60a08152600060018060a01b038088511660a0840152602088015160a060c08501526157d161014085018261492b565b90506040890151609f19808684030160e08701526157ef838361492b565b92508360608c01511661010087015260808b015193508086840301610120870152505061581c818361492b565b92505050615757602083018715159052565b60006020828403121561584057600080fd5b8151613b8e816149c9565b60008282101561585d5761585d6150b3565b500390565b60008219821115615875576158756150b3565b500190565b60608152600061588e606083018789615129565b82810360208401526158a1818688615129565b9150508260408301529695505050505050565b60018060a01b0384168152826020820152606060408201526000615351606083018461492b565b60208082526032908201527f4552433732313a207472616e7366657220746f206e6f6e20455243373231526560408201527131b2b4bb32b91034b6b83632b6b2b73a32b960711b606082015260800190565b6000816000190483118215151615615947576159476150b3565b500290565b60008161595b5761595b6150b3565b506000190190565b6001600160a01b03858116825284166020820152604081018390526080606082018190526000906151f69083018461492b565b6000602082840312156159a857600080fd5b8151613b8e816148cc565b634e487b7160e01b600052603160045260246000fdfea2646970667358221220e8df141516b5082c22a8111ee10d74d21da1b0cf0f47696053bbeb78d15322e264736f6c634300080a0033",
    "linkReferences": {
        "contracts/libraries/LinkModuleLogic.sol": {
            "LinkModuleLogic": [
                {
                    "length": 20,
                    "start": 3216
                },
                {
                    "length": 20,
                    "start": 4149
                },
                {
                    "length": 20,
                    "start": 7646
                },
                {
                    "length": 20,
                    "start": 11905
                },
                {
                    "length": 20,
                    "start": 12525
                }
            ]
        },
        "contracts/libraries/PostLogic.sol": {
            "PostLogic": [
                {
                    "length": 20,
                    "start": 2764
                },
                {
                    "length": 20,
                    "start": 9800
                },
                {
                    "length": 20,
                    "start": 12067
                }
            ]
        },
        "contracts/libraries/ProfileLogic.sol": {
            "ProfileLogic": [
                {
                    "length": 20,
                    "start": 6867
                },
                {
                    "length": 20,
                    "start": 9385
                },
                {
                    "length": 20,
                    "start": 9702
                },
                {
                    "length": 20,
                    "start": 10878
                },
                {
                    "length": 20,
                    "start": 13443
                }
            ]
        }
    },
    "deployedLinkReferences": {
        "contracts/libraries/LinkModuleLogic.sol": {
            "LinkModuleLogic": [
                {
                    "length": 20,
                    "start": 3183
                },
                {
                    "length": 20,
                    "start": 4116
                },
                {
                    "length": 20,
                    "start": 7613
                },
                {
                    "length": 20,
                    "start": 11872
                },
                {
                    "length": 20,
                    "start": 12492
                }
            ]
        },
        "contracts/libraries/PostLogic.sol": {
            "PostLogic": [
                {
                    "length": 20,
                    "start": 2731
                },
                {
                    "length": 20,
                    "start": 9767
                },
                {
                    "length": 20,
                    "start": 12034
                }
            ]
        },
        "contracts/libraries/ProfileLogic.sol": {
            "ProfileLogic": [
                {
                    "length": 20,
                    "start": 6834
                },
                {
                    "length": 20,
                    "start": 9352
                },
                {
                    "length": 20,
                    "start": 9669
                },
                {
                    "length": 20,
                    "start": 10845
                },
                {
                    "length": 20,
                    "start": 13410
                }
            ]
        }
    }
}