{
    "_format": "hh-sol-artifact-1",
    "contractName": "Web3Entry",
    "sourceName": "contracts/Web3Entry.sol",
    "abi": [
        {
            "anonymous": false,
            "inputs": [
                {
                    "indexed": true,
                    "internalType": "address",
                    "name": "owner",
                    "type": "address"
                },
                {
                    "indexed": true,
                    "internalType": "address",
                    "name": "approved",
                    "type": "address"
                },
                {
                    "indexed": true,
                    "internalType": "uint256",
                    "name": "tokenId",
                    "type": "uint256"
                }
            ],
            "name": "Approval",
            "type": "event"
        },
        {
            "anonymous": false,
            "inputs": [
                {
                    "indexed": true,
                    "internalType": "address",
                    "name": "owner",
                    "type": "address"
                },
                {
                    "indexed": true,
                    "internalType": "address",
                    "name": "operator",
                    "type": "address"
                },
                {
                    "indexed": false,
                    "internalType": "bool",
                    "name": "approved",
                    "type": "bool"
                }
            ],
            "name": "ApprovalForAll",
            "type": "event"
        },
        {
            "anonymous": false,
            "inputs": [
                {
                    "indexed": true,
                    "internalType": "address",
                    "name": "from",
                    "type": "address"
                },
                {
                    "indexed": true,
                    "internalType": "address",
                    "name": "to",
                    "type": "address"
                },
                {
                    "indexed": true,
                    "internalType": "uint256",
                    "name": "tokenId",
                    "type": "uint256"
                }
            ],
            "name": "Transfer",
            "type": "event"
        },
        {
            "inputs": [
                {
                    "internalType": "address",
                    "name": "to",
                    "type": "address"
                },
                {
                    "internalType": "uint256",
                    "name": "tokenId",
                    "type": "uint256"
                }
            ],
            "name": "approve",
            "outputs": [],
            "stateMutability": "nonpayable",
            "type": "function"
        },
        {
            "inputs": [
                {
                    "internalType": "uint256",
                    "name": "linklistId",
                    "type": "uint256"
                },
                {
                    "internalType": "uint256",
                    "name": "profileId",
                    "type": "uint256"
                }
            ],
            "name": "attachLinklist",
            "outputs": [],
            "stateMutability": "nonpayable",
            "type": "function"
        },
        {
            "inputs": [
                {
                    "internalType": "address",
                    "name": "owner",
                    "type": "address"
                }
            ],
            "name": "balanceOf",
            "outputs": [
                {
                    "internalType": "uint256",
                    "name": "",
                    "type": "uint256"
                }
            ],
            "stateMutability": "view",
            "type": "function"
        },
        {
            "inputs": [
                {
                    "internalType": "uint256",
                    "name": "tokenId",
                    "type": "uint256"
                }
            ],
            "name": "burn",
            "outputs": [],
            "stateMutability": "nonpayable",
            "type": "function"
        },
        {
            "inputs": [
                {
                    "components": [
                        {
                            "internalType": "address",
                            "name": "to",
                            "type": "address"
                        },
                        {
                            "internalType": "string",
                            "name": "handle",
                            "type": "string"
                        },
                        {
                            "internalType": "string",
                            "name": "uri",
                            "type": "string"
                        },
                        {
                            "internalType": "address",
                            "name": "linkModule",
                            "type": "address"
                        },
                        {
                            "internalType": "bytes",
                            "name": "linkModuleInitData",
                            "type": "bytes"
                        }
                    ],
                    "internalType": "struct DataTypes.CreateProfileData",
                    "name": "vars",
                    "type": "tuple"
                }
            ],
            "name": "createProfile",
            "outputs": [],
            "stateMutability": "nonpayable",
            "type": "function"
        },
        {
            "inputs": [
                {
                    "internalType": "uint256",
                    "name": "fromProfileId",
                    "type": "uint256"
                },
                {
                    "internalType": "address",
                    "name": "to",
                    "type": "address"
                },
                {
                    "internalType": "bytes32",
                    "name": "linkType",
                    "type": "bytes32"
                }
            ],
            "name": "createThenLinkProfile",
            "outputs": [],
            "stateMutability": "nonpayable",
            "type": "function"
        },
        {
            "inputs": [
                {
                    "internalType": "uint256",
                    "name": "fromProfileId",
                    "type": "uint256"
                },
                {
                    "internalType": "address",
                    "name": "to",
                    "type": "address"
                },
                {
                    "internalType": "bytes32",
                    "name": "linkType",
                    "type": "bytes32"
                },
                {
                    "internalType": "bytes",
                    "name": "data",
                    "type": "bytes"
                }
            ],
            "name": "createThenLinkProfileV2",
            "outputs": [],
            "stateMutability": "nonpayable",
            "type": "function"
        },
        {
            "inputs": [
                {
                    "internalType": "uint256",
                    "name": "profileId",
                    "type": "uint256"
                },
                {
                    "internalType": "uint256",
                    "name": "noteId",
                    "type": "uint256"
                }
            ],
            "name": "deleteNote",
            "outputs": [],
            "stateMutability": "nonpayable",
            "type": "function"
        },
        {
            "inputs": [
                {
                    "internalType": "uint256",
                    "name": "linklistId",
                    "type": "uint256"
                },
                {
                    "internalType": "uint256",
                    "name": "profileId",
                    "type": "uint256"
                }
            ],
            "name": "detachLinklist",
            "outputs": [],
            "stateMutability": "nonpayable",
            "type": "function"
        },
        {
            "inputs": [
                {
                    "internalType": "uint256",
                    "name": "tokenId",
                    "type": "uint256"
                }
            ],
            "name": "getApproved",
            "outputs": [
                {
                    "internalType": "address",
                    "name": "",
                    "type": "address"
                }
            ],
            "stateMutability": "view",
            "type": "function"
        },
        {
            "inputs": [
                {
                    "internalType": "uint256",
                    "name": "profileId",
                    "type": "uint256"
                }
            ],
            "name": "getHandle",
            "outputs": [
                {
                    "internalType": "string",
                    "name": "",
                    "type": "string"
                }
            ],
            "stateMutability": "view",
            "type": "function"
        },
        {
            "inputs": [
                {
                    "internalType": "address",
                    "name": "account",
                    "type": "address"
                }
            ],
            "name": "getLinkModule4Address",
            "outputs": [
                {
                    "internalType": "address",
                    "name": "",
                    "type": "address"
                }
            ],
            "stateMutability": "view",
            "type": "function"
        },
        {
            "inputs": [
                {
                    "internalType": "address",
                    "name": "tokenAddress",
                    "type": "address"
                },
                {
                    "internalType": "uint256",
                    "name": "tokenId",
                    "type": "uint256"
                }
            ],
            "name": "getLinkModule4ERC721",
            "outputs": [
                {
                    "internalType": "address",
                    "name": "",
                    "type": "address"
                }
            ],
            "stateMutability": "view",
            "type": "function"
        },
        {
            "inputs": [
                {
                    "internalType": "uint256",
                    "name": "tokenId",
                    "type": "uint256"
                }
            ],
            "name": "getLinkModule4Linklist",
            "outputs": [
                {
                    "internalType": "address",
                    "name": "",
                    "type": "address"
                }
            ],
            "stateMutability": "view",
            "type": "function"
        },
        {
            "inputs": [
                {
                    "internalType": "uint256",
                    "name": "fromProfileId",
                    "type": "uint256"
                },
                {
                    "internalType": "bytes32",
                    "name": "linkType",
                    "type": "bytes32"
                }
            ],
            "name": "getLinkingProfileIds",
            "outputs": [
                {
                    "internalType": "uint256[]",
                    "name": "results",
                    "type": "uint256[]"
                }
            ],
            "stateMutability": "view",
            "type": "function"
        },
        {
            "inputs": [],
            "name": "getLinklistContract",
            "outputs": [
                {
                    "internalType": "address",
                    "name": "",
                    "type": "address"
                }
            ],
            "stateMutability": "view",
            "type": "function"
        },
        {
            "inputs": [
                {
                    "internalType": "uint256",
                    "name": "profileId",
                    "type": "uint256"
                },
                {
                    "internalType": "bytes32",
                    "name": "linkType",
                    "type": "bytes32"
                }
            ],
            "name": "getLinklistUri",
            "outputs": [
                {
                    "internalType": "string",
                    "name": "",
                    "type": "string"
                }
            ],
            "stateMutability": "view",
            "type": "function"
        },
        {
            "inputs": [
                {
                    "internalType": "uint256",
                    "name": "profileId",
                    "type": "uint256"
                },
                {
                    "internalType": "uint256",
                    "name": "noteId",
                    "type": "uint256"
                }
            ],
            "name": "getNote",
            "outputs": [
                {
                    "components": [
                        {
                            "internalType": "bytes32",
                            "name": "linkItemType",
                            "type": "bytes32"
                        },
                        {
                            "internalType": "uint256",
                            "name": "linklistId",
                            "type": "uint256"
                        },
                        {
                            "internalType": "bytes32",
                            "name": "linkKey",
                            "type": "bytes32"
                        },
                        {
                            "internalType": "string",
                            "name": "contentUri",
                            "type": "string"
                        },
                        {
                            "internalType": "address",
                            "name": "linkModule",
                            "type": "address"
                        },
                        {
                            "internalType": "address",
                            "name": "mintModule",
                            "type": "address"
                        },
                        {
                            "internalType": "address",
                            "name": "mintNFT",
                            "type": "address"
                        },
                        {
                            "internalType": "bool",
                            "name": "deleted",
                            "type": "bool"
                        }
                    ],
                    "internalType": "struct DataTypes.Note",
                    "name": "",
                    "type": "tuple"
                }
            ],
            "stateMutability": "view",
            "type": "function"
        },
        {
            "inputs": [
                {
                    "internalType": "address",
                    "name": "account",
                    "type": "address"
                }
            ],
            "name": "getPrimaryProfileId",
            "outputs": [
                {
                    "internalType": "uint256",
                    "name": "",
                    "type": "uint256"
                }
            ],
            "stateMutability": "view",
            "type": "function"
        },
        {
            "inputs": [
                {
                    "internalType": "uint256",
                    "name": "profileId",
                    "type": "uint256"
                }
            ],
            "name": "getProfile",
            "outputs": [
                {
                    "components": [
                        {
                            "internalType": "uint256",
                            "name": "profileId",
                            "type": "uint256"
                        },
                        {
                            "internalType": "string",
                            "name": "handle",
                            "type": "string"
                        },
                        {
                            "internalType": "string",
                            "name": "uri",
                            "type": "string"
                        },
                        {
                            "internalType": "uint256",
                            "name": "noteCount",
                            "type": "uint256"
                        },
                        {
                            "internalType": "address",
                            "name": "socialToken",
                            "type": "address"
                        },
                        {
                            "internalType": "address",
                            "name": "linkModule",
                            "type": "address"
                        }
                    ],
                    "internalType": "struct DataTypes.Profile",
                    "name": "",
                    "type": "tuple"
                }
            ],
            "stateMutability": "view",
            "type": "function"
        },
        {
            "inputs": [
                {
                    "internalType": "string",
                    "name": "handle",
                    "type": "string"
                }
            ],
            "name": "getProfileByHandle",
            "outputs": [
                {
                    "components": [
                        {
                            "internalType": "uint256",
                            "name": "profileId",
                            "type": "uint256"
                        },
                        {
                            "internalType": "string",
                            "name": "handle",
                            "type": "string"
                        },
                        {
                            "internalType": "string",
                            "name": "uri",
                            "type": "string"
                        },
                        {
                            "internalType": "uint256",
                            "name": "noteCount",
                            "type": "uint256"
                        },
                        {
                            "internalType": "address",
                            "name": "socialToken",
                            "type": "address"
                        },
                        {
                            "internalType": "address",
                            "name": "linkModule",
                            "type": "address"
                        }
                    ],
                    "internalType": "struct DataTypes.Profile",
                    "name": "",
                    "type": "tuple"
                }
            ],
            "stateMutability": "view",
            "type": "function"
        },
        {
            "inputs": [
                {
                    "internalType": "uint256",
                    "name": "profileId",
                    "type": "uint256"
                }
            ],
            "name": "getProfileUri",
            "outputs": [
                {
                    "internalType": "string",
                    "name": "",
                    "type": "string"
                }
            ],
            "stateMutability": "view",
            "type": "function"
        },
        {
            "inputs": [],
            "name": "getRevision",
            "outputs": [
                {
                    "internalType": "uint256",
                    "name": "",
                    "type": "uint256"
                }
            ],
            "stateMutability": "pure",
            "type": "function"
        },
        {
            "inputs": [
                {
                    "internalType": "string",
                    "name": "_name",
                    "type": "string"
                },
                {
                    "internalType": "string",
                    "name": "_symbol",
                    "type": "string"
                },
                {
                    "internalType": "address",
                    "name": "_linklistContract",
                    "type": "address"
                },
                {
                    "internalType": "address",
                    "name": "_mintNFTImpl",
                    "type": "address"
                }
            ],
            "name": "initialize",
            "outputs": [],
            "stateMutability": "nonpayable",
            "type": "function"
        },
        {
            "inputs": [
                {
                    "internalType": "address",
                    "name": "owner",
                    "type": "address"
                },
                {
                    "internalType": "address",
                    "name": "operator",
                    "type": "address"
                }
            ],
            "name": "isApprovedForAll",
            "outputs": [
                {
                    "internalType": "bool",
                    "name": "",
                    "type": "bool"
                }
            ],
            "stateMutability": "view",
            "type": "function"
        },
        {
            "inputs": [
                {
                    "internalType": "uint256",
                    "name": "profileId",
                    "type": "uint256"
                }
            ],
            "name": "isPrimaryProfile",
            "outputs": [
                {
                    "internalType": "bool",
                    "name": "",
                    "type": "bool"
                }
            ],
            "stateMutability": "view",
            "type": "function"
        },
        {
            "inputs": [
                {
                    "internalType": "uint256",
                    "name": "fromProfileId",
                    "type": "uint256"
                },
                {
                    "internalType": "address",
                    "name": "ethAddress",
                    "type": "address"
                },
                {
                    "internalType": "bytes32",
                    "name": "linkType",
                    "type": "bytes32"
                }
            ],
            "name": "linkAddress",
            "outputs": [],
            "stateMutability": "nonpayable",
            "type": "function"
        },
        {
            "inputs": [
                {
                    "internalType": "uint256",
                    "name": "fromProfileId",
                    "type": "uint256"
                },
                {
                    "internalType": "string",
                    "name": "toUri",
                    "type": "string"
                },
                {
                    "internalType": "bytes32",
                    "name": "linkType",
                    "type": "bytes32"
                }
            ],
            "name": "linkAny",
            "outputs": [],
            "stateMutability": "nonpayable",
            "type": "function"
        },
        {
            "inputs": [
                {
                    "internalType": "uint256",
                    "name": "fromProfileId",
                    "type": "uint256"
                },
                {
                    "internalType": "address",
                    "name": "tokenAddress",
                    "type": "address"
                },
                {
                    "internalType": "uint256",
                    "name": "tokenId",
                    "type": "uint256"
                },
                {
                    "internalType": "bytes32",
                    "name": "linkType",
                    "type": "bytes32"
                }
            ],
            "name": "linkERC721",
            "outputs": [],
            "stateMutability": "nonpayable",
            "type": "function"
        },
        {
            "inputs": [
                {
                    "internalType": "uint256",
                    "name": "fromProfileId",
                    "type": "uint256"
                },
                {
                    "internalType": "uint256",
                    "name": "toLinkListId",
                    "type": "uint256"
                },
                {
                    "internalType": "bytes32",
                    "name": "linkType",
                    "type": "bytes32"
                }
            ],
            "name": "linkLinklist",
            "outputs": [],
            "stateMutability": "nonpayable",
            "type": "function"
        },
        {
            "inputs": [
                {
                    "internalType": "uint256",
                    "name": "fromProfileId",
                    "type": "uint256"
                },
                {
                    "internalType": "uint256",
                    "name": "toProfileId",
                    "type": "uint256"
                },
                {
                    "internalType": "uint256",
                    "name": "toNoteId",
                    "type": "uint256"
                },
                {
                    "internalType": "bytes32",
                    "name": "linkType",
                    "type": "bytes32"
                },
                {
                    "internalType": "bytes",
                    "name": "data",
                    "type": "bytes"
                }
            ],
            "name": "linkNote",
            "outputs": [],
            "stateMutability": "nonpayable",
            "type": "function"
        },
        {
            "inputs": [
                {
                    "internalType": "uint256",
                    "name": "fromProfileId",
                    "type": "uint256"
                },
                {
                    "internalType": "uint256",
                    "name": "toProfileId",
                    "type": "uint256"
                },
                {
                    "internalType": "bytes32",
                    "name": "linkType",
                    "type": "bytes32"
                }
            ],
            "name": "linkProfile",
            "outputs": [],
            "stateMutability": "nonpayable",
            "type": "function"
        },
        {
            "inputs": [
                {
                    "internalType": "uint256",
                    "name": "fromProfileId",
                    "type": "uint256"
                },
                {
                    "components": [
                        {
                            "internalType": "uint256",
                            "name": "fromProfileId",
                            "type": "uint256"
                        },
                        {
                            "internalType": "uint256",
                            "name": "toProfileId",
                            "type": "uint256"
                        },
                        {
                            "internalType": "bytes32",
                            "name": "linkType",
                            "type": "bytes32"
                        }
                    ],
                    "internalType": "struct DataTypes.ProfileLinkStruct",
                    "name": "linkData",
                    "type": "tuple"
                },
                {
                    "internalType": "bytes32",
                    "name": "linkType",
                    "type": "bytes32"
                }
            ],
            "name": "linkProfileLink",
            "outputs": [],
            "stateMutability": "nonpayable",
            "type": "function"
        },
        {
            "inputs": [
                {
                    "internalType": "uint256",
                    "name": "fromProfileId",
                    "type": "uint256"
                },
                {
                    "internalType": "uint256",
                    "name": "toProfileId",
                    "type": "uint256"
                },
                {
                    "internalType": "bytes32",
                    "name": "linkType",
                    "type": "bytes32"
                },
                {
                    "internalType": "bytes",
                    "name": "data",
                    "type": "bytes"
                }
            ],
            "name": "linkProfileV2",
            "outputs": [],
            "stateMutability": "nonpayable",
            "type": "function"
        },
        {
            "inputs": [
                {
                    "internalType": "uint256",
                    "name": "profileId",
                    "type": "uint256"
                },
                {
                    "internalType": "uint256",
                    "name": "noteId",
                    "type": "uint256"
                },
                {
                    "internalType": "address",
                    "name": "to",
                    "type": "address"
                },
                {
                    "internalType": "bytes",
                    "name": "mintModuleData",
                    "type": "bytes"
                }
            ],
            "name": "mintNote",
            "outputs": [
                {
                    "internalType": "uint256",
                    "name": "",
                    "type": "uint256"
                }
            ],
            "stateMutability": "nonpayable",
            "type": "function"
        },
        {
            "inputs": [],
            "name": "name",
            "outputs": [
                {
                    "internalType": "string",
                    "name": "",
                    "type": "string"
                }
            ],
            "stateMutability": "view",
            "type": "function"
        },
        {
            "inputs": [
                {
                    "internalType": "uint256",
                    "name": "tokenId",
                    "type": "uint256"
                }
            ],
            "name": "ownerOf",
            "outputs": [
                {
                    "internalType": "address",
                    "name": "",
                    "type": "address"
                }
            ],
            "stateMutability": "view",
            "type": "function"
        },
        {
            "inputs": [
                {
                    "components": [
                        {
                            "internalType": "uint256",
                            "name": "profileId",
                            "type": "uint256"
                        },
                        {
                            "internalType": "string",
                            "name": "contentUri",
                            "type": "string"
                        },
                        {
                            "internalType": "address",
                            "name": "linkModule",
                            "type": "address"
                        },
                        {
                            "internalType": "bytes",
                            "name": "linkModuleInitData",
                            "type": "bytes"
                        },
                        {
                            "internalType": "address",
                            "name": "mintModule",
                            "type": "address"
                        },
                        {
                            "internalType": "bytes",
                            "name": "mintModuleInitData",
                            "type": "bytes"
                        }
                    ],
                    "internalType": "struct DataTypes.PostNoteData",
                    "name": "vars",
                    "type": "tuple"
                }
            ],
            "name": "postNote",
            "outputs": [
                {
                    "internalType": "uint256",
                    "name": "",
                    "type": "uint256"
                }
            ],
            "stateMutability": "nonpayable",
            "type": "function"
        },
        {
            "inputs": [
                {
                    "components": [
                        {
                            "internalType": "uint256",
                            "name": "profileId",
                            "type": "uint256"
                        },
                        {
                            "internalType": "string",
                            "name": "contentUri",
                            "type": "string"
                        },
                        {
                            "internalType": "address",
                            "name": "linkModule",
                            "type": "address"
                        },
                        {
                            "internalType": "bytes",
                            "name": "linkModuleInitData",
                            "type": "bytes"
                        },
                        {
                            "internalType": "address",
                            "name": "mintModule",
                            "type": "address"
                        },
                        {
                            "internalType": "bytes",
                            "name": "mintModuleInitData",
                            "type": "bytes"
                        }
                    ],
                    "internalType": "struct DataTypes.PostNoteData",
                    "name": "noteData",
                    "type": "tuple"
                },
                {
                    "internalType": "uint256",
                    "name": "fromProfileId",
                    "type": "uint256"
                },
                {
                    "internalType": "address",
                    "name": "ethAddress",
                    "type": "address"
                },
                {
                    "internalType": "bytes32",
                    "name": "linkType",
                    "type": "bytes32"
                }
            ],
            "name": "postNote4AddressLink",
            "outputs": [
                {
                    "internalType": "uint256",
                    "name": "",
                    "type": "uint256"
                }
            ],
            "stateMutability": "nonpayable",
            "type": "function"
        },
        {
            "inputs": [
                {
                    "components": [
                        {
                            "internalType": "uint256",
                            "name": "profileId",
                            "type": "uint256"
                        },
                        {
                            "internalType": "string",
                            "name": "contentUri",
                            "type": "string"
                        },
                        {
                            "internalType": "address",
                            "name": "linkModule",
                            "type": "address"
                        },
                        {
                            "internalType": "bytes",
                            "name": "linkModuleInitData",
                            "type": "bytes"
                        },
                        {
                            "internalType": "address",
                            "name": "mintModule",
                            "type": "address"
                        },
                        {
                            "internalType": "bytes",
                            "name": "mintModuleInitData",
                            "type": "bytes"
                        }
                    ],
                    "internalType": "struct DataTypes.PostNoteData",
                    "name": "noteData",
                    "type": "tuple"
                },
                {
                    "internalType": "uint256",
                    "name": "fromProfileId",
                    "type": "uint256"
                },
                {
                    "internalType": "string",
                    "name": "toUri",
                    "type": "string"
                },
                {
                    "internalType": "bytes32",
                    "name": "linkType",
                    "type": "bytes32"
                }
            ],
            "name": "postNote4AnyLink",
            "outputs": [
                {
                    "internalType": "uint256",
                    "name": "",
                    "type": "uint256"
                }
            ],
            "stateMutability": "nonpayable",
            "type": "function"
        },
        {
            "inputs": [
                {
                    "components": [
                        {
                            "internalType": "uint256",
                            "name": "profileId",
                            "type": "uint256"
                        },
                        {
                            "internalType": "string",
                            "name": "contentUri",
                            "type": "string"
                        },
                        {
                            "internalType": "address",
                            "name": "linkModule",
                            "type": "address"
                        },
                        {
                            "internalType": "bytes",
                            "name": "linkModuleInitData",
                            "type": "bytes"
                        },
                        {
                            "internalType": "address",
                            "name": "mintModule",
                            "type": "address"
                        },
                        {
                            "internalType": "bytes",
                            "name": "mintModuleInitData",
                            "type": "bytes"
                        }
                    ],
                    "internalType": "struct DataTypes.PostNoteData",
                    "name": "noteData",
                    "type": "tuple"
                },
                {
                    "internalType": "uint256",
                    "name": "fromProfileId",
                    "type": "uint256"
                },
                {
                    "internalType": "address",
                    "name": "tokenAddress",
                    "type": "address"
                },
                {
                    "internalType": "uint256",
                    "name": "tokenId",
                    "type": "uint256"
                },
                {
                    "internalType": "bytes32",
                    "name": "linkType",
                    "type": "bytes32"
                }
            ],
            "name": "postNote4ERC721Link",
            "outputs": [
                {
                    "internalType": "uint256",
                    "name": "",
                    "type": "uint256"
                }
            ],
            "stateMutability": "nonpayable",
            "type": "function"
        },
        {
            "inputs": [
                {
                    "components": [
                        {
                            "internalType": "uint256",
                            "name": "profileId",
                            "type": "uint256"
                        },
                        {
                            "internalType": "string",
                            "name": "contentUri",
                            "type": "string"
                        },
                        {
                            "internalType": "address",
                            "name": "linkModule",
                            "type": "address"
                        },
                        {
                            "internalType": "bytes",
                            "name": "linkModuleInitData",
                            "type": "bytes"
                        },
                        {
                            "internalType": "address",
                            "name": "mintModule",
                            "type": "address"
                        },
                        {
                            "internalType": "bytes",
                            "name": "mintModuleInitData",
                            "type": "bytes"
                        }
                    ],
                    "internalType": "struct DataTypes.PostNoteData",
                    "name": "noteData",
                    "type": "tuple"
                },
                {
                    "internalType": "uint256",
                    "name": "fromProfileId",
                    "type": "uint256"
                },
                {
                    "internalType": "uint256",
                    "name": "toLinkListId",
                    "type": "uint256"
                },
                {
                    "internalType": "bytes32",
                    "name": "linkType",
                    "type": "bytes32"
                }
            ],
            "name": "postNote4LinklistLink",
            "outputs": [
                {
                    "internalType": "uint256",
                    "name": "",
                    "type": "uint256"
                }
            ],
            "stateMutability": "nonpayable",
            "type": "function"
        },
        {
            "inputs": [
                {
                    "components": [
                        {
                            "internalType": "uint256",
                            "name": "profileId",
                            "type": "uint256"
                        },
                        {
                            "internalType": "string",
                            "name": "contentUri",
                            "type": "string"
                        },
                        {
                            "internalType": "address",
                            "name": "linkModule",
                            "type": "address"
                        },
                        {
                            "internalType": "bytes",
                            "name": "linkModuleInitData",
                            "type": "bytes"
                        },
                        {
                            "internalType": "address",
                            "name": "mintModule",
                            "type": "address"
                        },
                        {
                            "internalType": "bytes",
                            "name": "mintModuleInitData",
                            "type": "bytes"
                        }
                    ],
                    "internalType": "struct DataTypes.PostNoteData",
                    "name": "noteData",
                    "type": "tuple"
                },
                {
                    "internalType": "uint256",
                    "name": "fromProfileId",
                    "type": "uint256"
                },
                {
                    "internalType": "uint256",
                    "name": "toProfileId",
                    "type": "uint256"
                },
                {
                    "internalType": "uint256",
                    "name": "toNoteId",
                    "type": "uint256"
                },
                {
                    "internalType": "bytes32",
                    "name": "linkType",
                    "type": "bytes32"
                }
            ],
            "name": "postNote4NoteLink",
            "outputs": [
                {
                    "internalType": "uint256",
                    "name": "",
                    "type": "uint256"
                }
            ],
            "stateMutability": "nonpayable",
            "type": "function"
        },
        {
            "inputs": [
                {
                    "components": [
                        {
                            "internalType": "uint256",
                            "name": "profileId",
                            "type": "uint256"
                        },
                        {
                            "internalType": "string",
                            "name": "contentUri",
                            "type": "string"
                        },
                        {
                            "internalType": "address",
                            "name": "linkModule",
                            "type": "address"
                        },
                        {
                            "internalType": "bytes",
                            "name": "linkModuleInitData",
                            "type": "bytes"
                        },
                        {
                            "internalType": "address",
                            "name": "mintModule",
                            "type": "address"
                        },
                        {
                            "internalType": "bytes",
                            "name": "mintModuleInitData",
                            "type": "bytes"
                        }
                    ],
                    "internalType": "struct DataTypes.PostNoteData",
                    "name": "noteData",
                    "type": "tuple"
                },
                {
                    "internalType": "uint256",
                    "name": "fromProfileId",
                    "type": "uint256"
                },
                {
                    "internalType": "uint256",
                    "name": "toProfileId",
                    "type": "uint256"
                },
                {
                    "internalType": "bytes32",
                    "name": "linkType",
                    "type": "bytes32"
                }
            ],
            "name": "postNote4ProfileLink",
            "outputs": [
                {
                    "internalType": "uint256",
                    "name": "",
                    "type": "uint256"
                }
            ],
            "stateMutability": "nonpayable",
            "type": "function"
        },
        {
            "inputs": [
                {
                    "internalType": "address",
                    "name": "from",
                    "type": "address"
                },
                {
                    "internalType": "address",
                    "name": "to",
                    "type": "address"
                },
                {
                    "internalType": "uint256",
                    "name": "tokenId",
                    "type": "uint256"
                }
            ],
            "name": "safeTransferFrom",
            "outputs": [],
            "stateMutability": "nonpayable",
            "type": "function"
        },
        {
            "inputs": [
                {
                    "internalType": "address",
                    "name": "from",
                    "type": "address"
                },
                {
                    "internalType": "address",
                    "name": "to",
                    "type": "address"
                },
                {
                    "internalType": "uint256",
                    "name": "tokenId",
                    "type": "uint256"
                },
                {
                    "internalType": "bytes",
                    "name": "_data",
                    "type": "bytes"
                }
            ],
            "name": "safeTransferFrom",
            "outputs": [],
            "stateMutability": "nonpayable",
            "type": "function"
        },
        {
            "inputs": [
                {
                    "internalType": "address",
                    "name": "operator",
                    "type": "address"
                },
                {
                    "internalType": "bool",
                    "name": "approved",
                    "type": "bool"
                }
            ],
            "name": "setApprovalForAll",
            "outputs": [],
            "stateMutability": "nonpayable",
            "type": "function"
        },
        {
            "inputs": [
                {
                    "internalType": "uint256",
                    "name": "profileId",
                    "type": "uint256"
                },
                {
                    "internalType": "string",
                    "name": "newHandle",
                    "type": "string"
                }
            ],
            "name": "setHandle",
            "outputs": [],
            "stateMutability": "nonpayable",
            "type": "function"
        },
        {
            "inputs": [
                {
                    "internalType": "address",
                    "name": "account",
                    "type": "address"
                },
                {
                    "internalType": "address",
                    "name": "linkModule",
                    "type": "address"
                },
                {
                    "internalType": "bytes",
                    "name": "linkModuleInitData",
                    "type": "bytes"
                }
            ],
            "name": "setLinkModule4Address",
            "outputs": [],
            "stateMutability": "nonpayable",
            "type": "function"
        },
        {
            "inputs": [
                {
                    "internalType": "address",
                    "name": "tokenAddress",
                    "type": "address"
                },
                {
                    "internalType": "uint256",
                    "name": "tokenId",
                    "type": "uint256"
                },
                {
                    "internalType": "address",
                    "name": "linkModule",
                    "type": "address"
                },
                {
                    "internalType": "bytes",
                    "name": "linkModuleInitData",
                    "type": "bytes"
                }
            ],
            "name": "setLinkModule4ERC721",
            "outputs": [],
            "stateMutability": "nonpayable",
            "type": "function"
        },
        {
            "inputs": [
                {
                    "internalType": "uint256",
                    "name": "linklistId",
                    "type": "uint256"
                },
                {
                    "internalType": "address",
                    "name": "linkModule",
                    "type": "address"
                },
                {
                    "internalType": "bytes",
                    "name": "linkModuleInitData",
                    "type": "bytes"
                }
            ],
            "name": "setLinkModule4Linklist",
            "outputs": [],
            "stateMutability": "nonpayable",
            "type": "function"
        },
        {
            "inputs": [
                {
                    "internalType": "uint256",
                    "name": "profileId",
                    "type": "uint256"
                },
                {
                    "internalType": "uint256",
                    "name": "noteId",
                    "type": "uint256"
                },
                {
                    "internalType": "address",
                    "name": "linkModule",
                    "type": "address"
                },
                {
                    "internalType": "bytes",
                    "name": "linkModuleInitData",
                    "type": "bytes"
                }
            ],
            "name": "setLinkModule4Note",
            "outputs": [],
            "stateMutability": "nonpayable",
            "type": "function"
        },
        {
            "inputs": [
                {
                    "internalType": "uint256",
                    "name": "profileId",
                    "type": "uint256"
                },
                {
                    "internalType": "address",
                    "name": "linkModule",
                    "type": "address"
                },
                {
                    "internalType": "bytes",
                    "name": "linkModuleInitData",
                    "type": "bytes"
                }
            ],
            "name": "setLinkModule4Profile",
            "outputs": [],
            "stateMutability": "nonpayable",
            "type": "function"
        },
        {
            "inputs": [
                {
                    "internalType": "uint256",
                    "name": "linklistId",
                    "type": "uint256"
                },
                {
                    "internalType": "string",
                    "name": "uri",
                    "type": "string"
                }
            ],
            "name": "setLinklistUri",
            "outputs": [],
            "stateMutability": "nonpayable",
            "type": "function"
        },
        {
            "inputs": [
                {
                    "internalType": "uint256",
                    "name": "profileId",
                    "type": "uint256"
                },
                {
                    "internalType": "uint256",
                    "name": "noteId",
                    "type": "uint256"
                },
                {
                    "internalType": "address",
                    "name": "mintModule",
                    "type": "address"
                },
                {
                    "internalType": "bytes",
                    "name": "mintModuleInitData",
                    "type": "bytes"
                }
            ],
            "name": "setMintModule4Note",
            "outputs": [],
            "stateMutability": "nonpayable",
            "type": "function"
        },
        {
            "inputs": [
                {
                    "internalType": "uint256",
                    "name": "profileId",
                    "type": "uint256"
                }
            ],
            "name": "setPrimaryProfileId",
            "outputs": [],
            "stateMutability": "nonpayable",
            "type": "function"
        },
        {
            "inputs": [
                {
                    "internalType": "uint256",
                    "name": "profileId",
                    "type": "uint256"
                },
                {
                    "internalType": "string",
                    "name": "newUri",
                    "type": "string"
                }
            ],
            "name": "setProfileUri",
            "outputs": [],
            "stateMutability": "nonpayable",
            "type": "function"
        },
        {
            "inputs": [
                {
                    "internalType": "uint256",
                    "name": "profileId",
                    "type": "uint256"
                },
                {
                    "internalType": "address",
                    "name": "tokenAddress",
                    "type": "address"
                }
            ],
            "name": "setSocialToken",
            "outputs": [],
            "stateMutability": "nonpayable",
            "type": "function"
        },
        {
            "inputs": [
                {
                    "internalType": "bytes4",
                    "name": "interfaceId",
                    "type": "bytes4"
                }
            ],
            "name": "supportsInterface",
            "outputs": [
                {
                    "internalType": "bool",
                    "name": "",
                    "type": "bool"
                }
            ],
            "stateMutability": "view",
            "type": "function"
        },
        {
            "inputs": [],
            "name": "symbol",
            "outputs": [
                {
                    "internalType": "string",
                    "name": "",
                    "type": "string"
                }
            ],
            "stateMutability": "view",
            "type": "function"
        },
        {
            "inputs": [
                {
                    "internalType": "uint256",
                    "name": "index",
                    "type": "uint256"
                }
            ],
            "name": "tokenByIndex",
            "outputs": [
                {
                    "internalType": "uint256",
                    "name": "",
                    "type": "uint256"
                }
            ],
            "stateMutability": "view",
            "type": "function"
        },
        {
            "inputs": [
                {
                    "internalType": "address",
                    "name": "owner",
                    "type": "address"
                },
                {
                    "internalType": "uint256",
                    "name": "index",
                    "type": "uint256"
                }
            ],
            "name": "tokenOfOwnerByIndex",
            "outputs": [
                {
                    "internalType": "uint256",
                    "name": "",
                    "type": "uint256"
                }
            ],
            "stateMutability": "view",
            "type": "function"
        },
        {
            "inputs": [
                {
                    "internalType": "uint256",
                    "name": "profileId",
                    "type": "uint256"
                }
            ],
            "name": "tokenURI",
            "outputs": [
                {
                    "internalType": "string",
                    "name": "",
                    "type": "string"
                }
            ],
            "stateMutability": "view",
            "type": "function"
        },
        {
            "inputs": [],
            "name": "totalSupply",
            "outputs": [
                {
                    "internalType": "uint256",
                    "name": "",
                    "type": "uint256"
                }
            ],
            "stateMutability": "view",
            "type": "function"
        },
        {
            "inputs": [
                {
                    "internalType": "address",
                    "name": "from",
                    "type": "address"
                },
                {
                    "internalType": "address",
                    "name": "to",
                    "type": "address"
                },
                {
                    "internalType": "uint256",
                    "name": "tokenId",
                    "type": "uint256"
                }
            ],
            "name": "transferFrom",
            "outputs": [],
            "stateMutability": "nonpayable",
            "type": "function"
        },
        {
            "inputs": [
                {
                    "internalType": "uint256",
                    "name": "fromProfileId",
                    "type": "uint256"
                },
                {
                    "internalType": "address",
                    "name": "ethAddress",
                    "type": "address"
                },
                {
                    "internalType": "bytes32",
                    "name": "linkType",
                    "type": "bytes32"
                }
            ],
            "name": "unlinkAddress",
            "outputs": [],
            "stateMutability": "nonpayable",
            "type": "function"
        },
        {
            "inputs": [
                {
                    "internalType": "uint256",
                    "name": "fromProfileId",
                    "type": "uint256"
                },
                {
                    "internalType": "string",
                    "name": "toUri",
                    "type": "string"
                },
                {
                    "internalType": "bytes32",
                    "name": "linkType",
                    "type": "bytes32"
                }
            ],
            "name": "unlinkAny",
            "outputs": [],
            "stateMutability": "nonpayable",
            "type": "function"
        },
        {
            "inputs": [
                {
                    "internalType": "uint256",
                    "name": "fromProfileId",
                    "type": "uint256"
                },
                {
                    "internalType": "address",
                    "name": "tokenAddress",
                    "type": "address"
                },
                {
                    "internalType": "uint256",
                    "name": "tokenId",
                    "type": "uint256"
                },
                {
                    "internalType": "bytes32",
                    "name": "linkType",
                    "type": "bytes32"
                }
            ],
            "name": "unlinkERC721",
            "outputs": [],
            "stateMutability": "nonpayable",
            "type": "function"
        },
        {
            "inputs": [
                {
                    "internalType": "uint256",
                    "name": "fromProfileId",
                    "type": "uint256"
                },
                {
                    "internalType": "uint256",
                    "name": "toLinkListId",
                    "type": "uint256"
                },
                {
                    "internalType": "bytes32",
                    "name": "linkType",
                    "type": "bytes32"
                }
            ],
            "name": "unlinkLinklist",
            "outputs": [],
            "stateMutability": "nonpayable",
            "type": "function"
        },
        {
            "inputs": [
                {
                    "internalType": "uint256",
                    "name": "fromProfileId",
                    "type": "uint256"
                },
                {
                    "internalType": "uint256",
                    "name": "toProfileId",
                    "type": "uint256"
                },
                {
                    "internalType": "uint256",
                    "name": "toNoteId",
                    "type": "uint256"
                },
                {
                    "internalType": "bytes32",
                    "name": "linkType",
                    "type": "bytes32"
                }
            ],
            "name": "unlinkNote",
            "outputs": [],
            "stateMutability": "nonpayable",
            "type": "function"
        },
        {
            "inputs": [
                {
                    "internalType": "uint256",
                    "name": "fromProfileId",
                    "type": "uint256"
                },
                {
                    "internalType": "uint256",
                    "name": "toProfileId",
                    "type": "uint256"
                },
                {
                    "internalType": "bytes32",
                    "name": "linkType",
                    "type": "bytes32"
                }
            ],
            "name": "unlinkProfile",
            "outputs": [],
            "stateMutability": "nonpayable",
            "type": "function"
        },
        {
            "inputs": [
                {
                    "internalType": "uint256",
                    "name": "fromProfileId",
                    "type": "uint256"
                },
                {
                    "components": [
                        {
                            "internalType": "uint256",
                            "name": "fromProfileId",
                            "type": "uint256"
                        },
                        {
                            "internalType": "uint256",
                            "name": "toProfileId",
                            "type": "uint256"
                        },
                        {
                            "internalType": "bytes32",
                            "name": "linkType",
                            "type": "bytes32"
                        }
                    ],
                    "internalType": "struct DataTypes.ProfileLinkStruct",
                    "name": "linkData",
                    "type": "tuple"
                },
                {
                    "internalType": "bytes32",
                    "name": "linkType",
                    "type": "bytes32"
                }
            ],
            "name": "unlinkProfileLink",
            "outputs": [],
            "stateMutability": "nonpayable",
            "type": "function"
        }
    ],
    "bytecode": "0x608060405234801561001057600080fd5b50615ef680620000216000396000f3fe608060405234801561001057600080fd5b50600436106104285760003560e01c8063605787d61161022b578063b75db76511610130578063d36a2dce116100b8578063ec81d19411610087578063ec81d194146109e3578063f08f4f64146109f6578063f262bec114610a09578063f98839df14610a1c578063fe9299fb14610a2f57600080fd5b8063d36a2dce14610961578063db491e8014610974578063e72f208c14610994578063e985e9c5146109a757600080fd5b8063c2a6fe3b116100ff578063c2a6fe3b14610902578063c387c45314610915578063c7009c6b14610928578063c87b56dd1461093b578063cba4f5cc1461094e57600080fd5b8063b75db765146108b8578063b88d4fde146108cb578063bd5f69cb146108de578063c053f6b8146108f157600080fd5b8063862b531c116101b357806395e760101161018257806395e760101461085957806397550f131461086c578063a22cb4651461087f578063a6e6178d14610892578063b40d5a57146108a557600080fd5b8063862b531c146108185780638f15b4141461082b57806395d89b411461083e57806395d9fa7d1461084657600080fd5b806373f1c929116101fa57806373f1c929146107b95780637936da0e146107cc5780637c392b51146107df5780637e9a8292146107f257806384b7743a1461080557600080fd5b8063605787d6146107605780636352211e1461077357806363c008751461078657806370a08231146107a657600080fd5b8063265402401161033157806343786783116102b95780634cab71ec116102885780634cab71ec146107015780634f6ccce714610714578063515d42d214610727578063570477fb1461073a5780635bfc909a1461074d57600080fd5b806343786783146106b55780634ab463ee146106c85780634af3eb42146106db5780634bebcd17146106ee57600080fd5b80632f745c59116103005780632f745c591461063d57806331b9d08c1461065057806333f06ee61461067c57806342842e0e1461068f57806342966c68146106a257600080fd5b806326540240146105f1578063295cb43e146106045780632a59de7a146106175780632c2e08811461062a57600080fd5b80630f84fe8c116103b45780631bb4d231116103835780631bb4d2311461055957806321f4f26f146105825780632209d14514610595578063231fcfbe146105cb57806323b872dd146105de57600080fd5b80630f84fe8c146105245780631316529d146105375780631808dda01461053e57806318160ddd1461055157600080fd5b8063081812fc116103fb578063081812fc14610492578063095ea7b3146104bd5780630a871e60146104d05780630c16de10146104f15780630d17b01f1461051157600080fd5b806301ffc9a71461042d5780630336bf551461045557806306f30bc91461046a57806306fdde031461047d575b600080fd5b61044061043b3660046149b9565b610a58565b60405190151581526020015b60405180910390f35b6104686104633660046149d6565b610a83565b005b610468610478366004614a65565b610b7a565b610485610c06565b60405161044c9190614b26565b6104a56104a0366004614b39565b610c98565b6040516001600160a01b03909116815260200161044c565b6104686104cb366004614b52565b610d32565b6104e36104de366004614b96565b610e48565b60405190815260200161044c565b6105046104ff366004614c00565b610f75565b60405161044c9190614c41565b61046861051f366004614cbd565b611124565b610468610532366004614cbd565b611201565b60026104e3565b61046861054c366004614cf5565b611227565b6008546104e3565b6104e3610567366004614d21565b6001600160a01b03166000908152600c602052604090205490565b6104e3610590366004614d3e565b61125f565b6104a56105a3366004614b52565b6001600160a01b03918216600090815260106020908152604080832093835292905220541690565b6104686105d9366004614a65565b61133d565b6104686105ec366004614d91565b611392565b6104e36105ff366004614dc1565b6113c3565b610468610612366004614b39565b611421565b610468610625366004614e21565b611467565b610468610638366004614e73565b611529565b6104e361064b366004614b52565b611674565b6104a561065e366004614d21565b6001600160a01b039081166000908152601160205260409020541690565b61046861068a366004614ed7565b61170a565b61046861069d366004614d91565b61177e565b6104686106b0366004614b39565b611799565b6104e36106c3366004614d3e565b6117dd565b6104686106d6366004614f22565b61182f565b6104686106e9366004614cf5565b61188a565b6104e36106fc366004614f65565b611970565b61048561070f366004614fc1565b6119ba565b6104e3610722366004614b39565b611a47565b610468610735366004614fc1565b611ada565b610468610748366004614fe3565b611c12565b61046861075b366004615024565b611d03565b61046861076e366004614cbd565b611d45565b6104a5610781366004614b39565b611e06565b610799610794366004614fc1565b611e7d565b60405161044c9190615070565b6104e36107b4366004614d21565b61204b565b6104686107c73660046150b4565b6120d2565b6104686107da366004614fc1565b6121a7565b6104686107ed366004614ed7565b612263565b6104686108003660046150f1565b6122c8565b6104686108133660046150b4565b6123e1565b6104e3610826366004614a65565b6124c1565b61046861083936600461512b565b612561565b6104856126a8565b6104686108543660046151bf565b6126b7565b6104e36108673660046151ef565b61273d565b61046861087a366004614cf5565b612783565b61046861088d366004615266565b612833565b6104686108a0366004614ed7565b612842565b6104686108b3366004614e21565b6128b8565b6104686108c6366004615299565b61297f565b6104686108d936600461536f565b612aee565b6104686108ec36600461541d565b612b20565b6013546001600160a01b03166104a5565b610468610910366004614fc1565b612c21565b610440610923366004614b39565b612c63565b610468610936366004614fe3565b612c91565b610485610949366004614b39565b612d6c565b61048561095c366004614b39565b612e11565b6104e361096f366004615457565b612e1c565b610987610982366004614fc1565b612eca565b60405161044c919061548b565b6104686109a236600461551d565b613032565b6104406109b5366004615545565b6001600160a01b03918216600090815260056020908152604080832093909416825291909152205460ff1690565b6104856109f1366004614b39565b6130be565b610504610a04366004614b39565b6130de565b610468610a1736600461551d565b613265565b610468610a2a366004614cf5565b613351565b6104a5610a3d366004614b39565b6000908152600f60205260409020546001600160a01b031690565b60006001600160e01b0319821663780e9d6360e01b1480610a7d5750610a7d82613417565b92915050565b610a8c84613467565b610a95836134c2565b610a9f8383613519565b6000848152600d60209081526040808320848452909152902054610ac3818661356a565b6013546040516281eec360e31b81526004810183905260248101869052604481018590526001600160a01b039091169063040f761890606401600060405180830381600087803b158015610b1657600080fd5b505af1158015610b2a573d6000803e3d6000fd5b505050508284867fd27a71fc88ac85c4657b81c4d24a9cd9a034971683620f179a19d179fe0a956d8585604051610b6b929190918252602082015260400190565b60405180910390a45050505050565b610b8385613467565b610b8d8585613519565b604051631041450160e11b815273__$1e68a60ae0444699fe08192a29ecc09930$__906320828a0290610bcf9088908890889088908890600e9060040161559c565b60006040518083038186803b158015610be757600080fd5b505af4158015610bfb573d6000803e3d6000fd5b505050505050505050565b606060008054610c15906155dd565b80601f0160208091040260200160405190810160405280929190818152602001828054610c41906155dd565b8015610c8e5780601f10610c6357610100808354040283529160200191610c8e565b820191906000526020600020905b815481529060010190602001808311610c7157829003601f168201915b5050505050905090565b6000818152600260205260408120546001600160a01b0316610d165760405162461bcd60e51b815260206004820152602c60248201527f4552433732313a20617070726f76656420717565727920666f72206e6f6e657860448201526b34b9ba32b73a103a37b5b2b760a11b60648201526084015b60405180910390fd5b506000908152600460205260409020546001600160a01b031690565b6000610d3d82611e06565b9050806001600160a01b0316836001600160a01b03161415610dab5760405162461bcd60e51b815260206004820152602160248201527f4552433732313a20617070726f76616c20746f2063757272656e74206f776e656044820152603960f91b6064820152608401610d0d565b336001600160a01b0382161480610dc75750610dc781336109b5565b610e395760405162461bcd60e51b815260206004820152603860248201527f4552433732313a20617070726f76652063616c6c6572206973206e6f74206f7760448201527f6e6572206e6f7220617070726f76656420666f7220616c6c00000000000000006064820152608401610d0d565b610e43838361361a565b505050565b6000610e548635613467565b610e5e8484613688565b6000858152600d6020908152604080832085845282528083205490516bffffffffffffffffffffffff19606089901b16928101929092526034820186905291694552433732314c696e6b60b01b916054015b6040516020818303038152906040528051906020012090506000600a60008a815260200190815260200160002060030160008154610eed90615628565b91829055506040516317e60d8d60e31b815290915073__$2873850e5b3f5697aafc2f5cd9f27cc884$__9063bf306c6890610f37908d908590899089908990600e9060040161572c565b60006040518083038186803b158015610f4f57600080fd5b505af4158015610f63573d6000803e3d6000fd5b50929c9b505050505050505050505050565b610f7d6148c2565b60008383604051610f8f929190615768565b604080519182900382206000818152600b602090815283822054808352600a82529184902060c0860190945283548552600184018054939650919493929084019190610fda906155dd565b80601f0160208091040260200160405190810160405280929190818152602001828054611006906155dd565b80156110535780601f1061102857610100808354040283529160200191611053565b820191906000526020600020905b81548152906001019060200180831161103657829003601f168201915b5050505050815260200160028201805461106c906155dd565b80601f0160208091040260200160405190810160405280929190818152602001828054611098906155dd565b80156110e55780601f106110ba576101008083540402835291602001916110e5565b820191906000526020600020905b8154815290600101906020018083116110c857829003601f168201915b50505091835250506003820154602082015260048201546001600160a01b03908116604083015260059092015490911660609091015295945050505050565b61112d83613467565b6000838152600d60209081526040808320848452909152902054611151818561356a565b601354604051635956da7360e01b8152600481018390526001600160a01b03858116602483015290911690635956da7390604401600060405180830381600087803b15801561119f57600080fd5b505af11580156111b3573d6000803e3d6000fd5b50505050826001600160a01b0316847f93453451dd1d041ffa18c6c1f3f2e21a6d73c3d8d32deaf595b53a14914c8715846040516111f391815260200190565b60405180910390a350505050565b610e4383838360405180604001604052806002815260200161060f60f31b815250613738565b61123083613467565b611239826134c2565b610e4383838360405180604001604052806002815260200161060f60f31b8152506138dc565b600061126b8535613467565b6000848152600d60209081526040808320858452825280832054878452600a9092528220600301805491926a50726f66696c654c696e6b60a81b9287929082906112b490615628565b91829055506040516317e60d8d60e31b815290915073__$2873850e5b3f5697aafc2f5cd9f27cc884$__9063bf306c68906112fe908c908590899089908990600e9060040161572c565b60006040518083038186803b15801561131657600080fd5b505af415801561132a573d6000803e3d6000fd5b509296505050505050505b949350505050565b61134685613467565b6113508585613519565b604051631f2ffb6960e01b815273__$1e68a60ae0444699fe08192a29ecc09930$__90631f2ffb6990610bcf9088908890889088908890600e9060040161559c565b61139c3382613a30565b6113b85760405162461bcd60e51b8152600401610d0d90615778565b610e43838383613b23565b60006113cf8535613467565b6000848152600d60209081526040808320858452825280832054878452600a9092528220600301805491926a416464726573734c696e6b60a81b926001600160a01b038816929082906112b490615628565b61142a81613467565b336000818152600c6020526040808220849055518392917f444dbf26d795c263ce4e5f2fccaac8e71b73cb37091f74e9e4f76cd98b55f8d391a350565b61147084613467565b600061147d858333613cca565b601354604051631983158760e31b81529192506001600160a01b03169063cc18ac38906114b2908490889088906004016157c9565b600060405180830381600087803b1580156114cc57600080fd5b505af11580156114e0573d6000803e3d6000fd5b50505050847f77c508b3ce1f699c73e46a33df0ab0010d3d5f3e1270839381b85e618aef0fce8585858560405161151a94939291906157ec565b60405180910390a25050505050565b336001600160a01b038516146115735760405162461bcd60e51b815260206004820152600f60248201526e2737ba20b2323932b9b9a7bbb732b960891b6044820152606401610d0d565b6001600160a01b0383161561166e576001600160a01b0384811660009081526011602052604080822080546001600160a01b0319169387169384179055516349e2252d60e01b81529091906349e2252d906115d690889087908790600401615813565b6000604051808303816000875af11580156115f5573d6000803e3d6000fd5b505050506040513d6000823e601f3d908101601f1916820160405261161d9190810190615868565b9050836001600160a01b0316856001600160a01b03167f7685796f9ddd10aa092582edf9c2a9ea78db9685e6f997342b6ab22268a730d883426040516116649291906158b0565b60405180910390a3505b50505050565b600061167f8361204b565b82106116e15760405162461bcd60e51b815260206004820152602b60248201527f455243373231456e756d657261626c653a206f776e657220696e646578206f7560448201526a74206f6620626f756e647360a81b6064820152608401610d0d565b506001600160a01b03919091166000908152600660209081526040808320938352929052205490565b61171383613deb565b601354604051633c17845760e11b81526001600160a01b039091169063782f08ae90611747908690869086906004016157c9565b600060405180830381600087803b15801561176157600080fd5b505af1158015611775573d6000803e3d6000fd5b50505050505050565b610e4383838360405180602001604052806000815250612aee565b6117a281613eab565b6000818152600a602052604080822090516117c091600101906158d2565b60408051918290039091206000908152600b602052908120555050565b60006117e98535613467565b6000848152600d60209081526040808320858452825280832054878452600a909252822060030180549192674c6973744c696e6b60c01b9287929082906112b490615628565b61183885613467565b611841846134c2565b61188385858585858080601f0160208091040260200160405190810160405280939291908181526020018383808284376000920191909152506138dc92505050565b5050505050565b61189383613467565b61189c826134c2565b6000838152600d602090815260408083208484529091529020546118c0818561356a565b6013546040516391e5454b60e01b815260048101839052602481018590526001600160a01b03909116906391e5454b90604401600060405180830381600087803b15801561190d57600080fd5b505af1158015611921573d6000803e3d6000fd5b505050508284336001600160a01b03167f08a14b775e42bf92e94f9d72aba57ad213485e0c20e373c9f5dd161fb81890a28560405161196291815260200190565b60405180910390a450505050565b600061197c8635613467565b6000858152600d60209081526040808320858452825280832054815192830188905290820186905291674e6f74654c696e6b60c01b91606001610eb0565b6000828152600d6020908152604080832084845290915290819020546013549151632b05429560e21b8152600481018290526060926001600160a01b03169063ac150a5490602401600060405180830381865afa158015611a1f573d6000803e3d6000fd5b505050506040513d6000823e601f3d908101601f191682016040526113359190810190615868565b6000611a5260085490565b8210611ab55760405162461bcd60e51b815260206004820152602c60248201527f455243373231456e756d657261626c653a20676c6f62616c20696e646578206f60448201526b7574206f6620626f756e647360a01b6064820152608401610d0d565b60088281548110611ac857611ac861596e565b90600052602060002001549050919050565b60135460405162fba02760e01b8152600481018490526000916001600160a01b03169062fba02790602401602060405180830381865afa158015611b22573d6000803e3d6000fd5b505050506040513d601f19601f82011682018060405250810190611b469190615984565b6000838152600d6020908152604080832084845290915290205490915015611bbc5760405162461bcd60e51b815260206004820152602360248201527f53616d652074797065206c696e6b6c69737420616c726561647920657869737460448201526232b21760e91b6064820152608401610d0d565b611bc68383613f0a565b6000828152600d60209081526040808320848452909152808220859055518291849186917f94703ec1dd639b589d05fa7c0c14ee1e83b906bfb5f50642cc7ea415a817228891a4505050565b611c1b83613467565b6000838152600d60209081526040808320848452909152902054611c3f818561356a565b60135460408051630e14bb7560e31b81526004810184905285356024820152602086013560448201529085013560648201526001600160a01b03909116906370a5dba890608401600060405180830381600087803b158015611ca057600080fd5b505af1158015611cb4573d6000803e3d6000fd5b505060408051863581526020808801359082015281870135918101919091528492508691507f90fe9f3bf41416d9a567460a40443ef7aea47220fa342bc0e07fd01c93ffc7e1906060016111f3565b61188385858585858080601f01602080910402602001604051908101604052809392919081815260200183838082843760009201919091525061373892505050565b611d4e83613467565b6000611d5b848333613cca565b60135460405163ed386e6560e01b8152600481018390526001600160a01b03868116602483015292935091169063ed386e6590604401600060405180830381600087803b158015611dab57600080fd5b505af1158015611dbf573d6000803e3d6000fd5b505060408051858152602081018590526001600160a01b03871693508792507f3dad60a88f1d8ee170dfbeb8c65c705bd47922f205e774e10e49e4e53d93a8bd91016111f3565b6000818152600260205260408120546001600160a01b031680610a7d5760405162461bcd60e51b815260206004820152602960248201527f4552433732313a206f776e657220717565727920666f72206e6f6e657869737460448201526832b73a103a37b5b2b760b91b6064820152608401610d0d565b6000828152600d6020908152604080832084845290915280822054601354915163a72d231760e01b81526004810182905260609391926001600160a01b03169063a72d231790602401600060405180830381865afa158015611ee3573d6000803e3d6000fd5b505050506040513d6000823e601f3d908101601f19168201604052611f0b919081019061599d565b80519091506000805b82811015611f7b57611f56848281518110611f3157611f3161596e565b60200260200101516000908152600260205260409020546001600160a01b0316151590565b15611f695781611f6581615628565b9250505b80611f7381615628565b915050611f14565b50806001600160401b03811115611f9457611f94615302565b604051908082528060200260200182016040528015611fbd578160200160208202803683370190505b5094506000905060005b8281101561204057611fe4848281518110611f3157611f3161596e565b1561202e57838181518110611ffb57611ffb61596e565b60200260200101518683815181106120155761201561596e565b60209081029190910101528161202a81615628565b9250505b8061203881615628565b915050611fc7565b505050505092915050565b60006001600160a01b0382166120b65760405162461bcd60e51b815260206004820152602a60248201527f4552433732313a2062616c616e636520717565727920666f7220746865207a65604482015269726f206164647265737360b01b6064820152608401610d0d565b506001600160a01b031660009081526003602052604090205490565b6120db84613467565b6120e58383613688565b60006120f2858333613cca565b601354604051630ba893bf60e21b8152600481018390526001600160a01b03878116602483015260448201879052929350911690632ea24efc90606401600060405180830381600087803b15801561214957600080fd5b505af115801561215d573d6000803e3d6000fd5b5050505082846001600160a01b0316867f72413a1a5c43b255ad065653bf49db3c79ff7853ddaa4f4962ccd05e5368ad778585604051610b6b929190918252602082015260400190565b60135460405162fba02760e01b8152600481018490526000916001600160a01b03169062fba02790602401602060405180830381865afa1580156121ef573d6000803e3d6000fd5b505050506040513d601f19601f820116820180604052508101906122139190615984565b6000838152600d60209081526040808320848452909152808220829055519192508291849186917f5751ba9aebec2dcd504f8865b0e0c98a772403773fe528fce2fce580c9a8a1659190a4505050565b61226c83613467565b6000838152600a6020526040902061228890600201838361490a565b50827fc6b6b2c87fb0784186dd03398c7203c866d0ae59539fa3158aecbc86cb587a9583836040516122bb929190615a42565b60405180910390a2505050565b6122d28585613f7a565b6001600160a01b03831615611883576001600160a01b03858116600090815260106020908152604080832088845290915280822080546001600160a01b031916938716938417905551630378cd8b60e61b815290919063de3362c090612342908990899088908890600401615a56565b6000604051808303816000875af1158015612361573d6000803e3d6000fd5b505050506040513d6000823e601f3d908101601f191682016040526123899190810190615868565b9050836001600160a01b031685876001600160a01b03167fd0411ae508eec872740a07b3a8da69f9a925547a40bbbdb612971a050c61e19e84426040516123d19291906158b0565b60405180910390a4505050505050565b6123ea84613467565b6000848152600d6020908152604080832084845290915290205461240e818661356a565b601354604051630370a16160e01b8152600481018390526001600160a01b0386811660248301526044820186905290911690630370a16190606401600060405180830381600087803b15801561246357600080fd5b505af1158015612477573d6000803e3d6000fd5b5050505082846001600160a01b0316867fd87f9606a19988b6cf42d250d484940673ce551ab5f80289051cc343ff13121c8585604051610b6b929190918252602082015260400190565b601454604051630f37153360e31b815260009173__$1e68a60ae0444699fe08192a29ecc09930$__916379b8a99891612516918a918a918a918a918a916001600160a01b031690600a90600e90600401615a7e565b602060405180830381865af4158015612533573d6000803e3d6000fd5b505050506040513d601f19601f820116820180604052508101906125579190615984565b9695505050505050565b601454600160a81b900460ff1661258557601454600160a01b900460ff1615612589565b303b155b6125ec5760405162461bcd60e51b815260206004820152602e60248201527f496e697469616c697a61626c653a20636f6e747261637420697320616c72656160448201526d191e481a5b9a5d1a585b1a5e995960921b6064820152608401610d0d565b601454600160a81b900460ff16158015612616576014805461ffff60a01b191661010160a01b1790555b61262287878787614034565b601380546001600160a01b038086166001600160a01b03199283161790925560148054928516929091169190911790556040517f400175a56dd3710794078f7b9dbe8296ac94c5a248dfd51bb22ed4ab9eaa9fbf906126849042815260200190565b60405180910390a18015611775576014805460ff60a81b1916905550505050505050565b606060018054610c15906155dd565b6126c082613467565b60405163470c9bf360e11b8152600481018390526001600160a01b0382166024820152600a604482015273__$da066dc100670b51e733250a114f607b42$__90638e1937e69060640160006040518083038186803b15801561272157600080fd5b505af4158015612735573d6000803e3d6000fd5b505050505050565b60006127498635613467565b6000858152600d602090815260408083208584528252808320549051909266416e794c696e6b60c81b929091610eb0918991899101615acc565b61278c83613467565b6000612799848333613cca565b6013546040516360e6a7c160e11b815260048101839052602481018690529192506001600160a01b03169063c1cd4f8290604401600060405180830381600087803b1580156127e757600080fd5b505af11580156127fb573d6000803e3d6000fd5b505050508083857f2e398bc911c0eb636118bc7906bdfa98b2ccf6ef7ee76e3f07068d0eee488e3f8560405161196291815260200190565b61283e338383614085565b5050565b61284b83613467565b60405163c57cb53760e01b815273__$da066dc100670b51e733250a114f607b42$__9063c57cb5379061288c90869086908690600b90600a90600401615aef565b60006040518083038186803b1580156128a457600080fd5b505af4158015611775573d6000803e3d6000fd5b6128c184613467565b6000848152600d602090815260408083208484529091529020546128e5818661356a565b6013546040516308e013fb60e41b81526001600160a01b0390911690638e013fb090612919908490889088906004016157c9565b600060405180830381600087803b15801561293357600080fd5b505af1158015612947573d6000803e3d6000fd5b50505050847f30c740190e772199ffeb095b72d8a53da7bbd09a55668530ee288e33b28ecebd85858560405161151a93929190615b1d565b61298886613467565b612991856134c2565b600061299e878533613cca565b601354604051635cb46be760e01b81526004810183905260248101899052604481018890529192506001600160a01b031690635cb46be790606401600060405180830381600087803b1580156129f357600080fd5b505af1158015612a07573d6000803e3d6000fd5b5050506000878152600e602090815260408083208984529091529020600401546001600160a01b031690508015612a9f5760405163f0f5557360e01b81526001600160a01b0382169063f0f5557390612a6c9033908b908b908a908a90600401615b41565b600060405180830381600087803b158015612a8657600080fd5b505af1158015612a9a573d6000803e3d6000fd5b505050505b8587897f3cae5b1196087b560b6735377bbf745e5754f8082348a432b806afa01686ef488886604051612adc929190918252602082015260400190565b60405180910390a45050505050505050565b612af83383613a30565b612b145760405162461bcd60e51b8152600401610d0d90615778565b61166e84848484614154565b601254612b2e906001614187565b601255612b49612b416020830183614d21565b601254614193565b6012546040516328837e1960e21b815273__$da066dc100670b51e733250a114f607b42$__9163a20df86491612b8d91859160019190600b90600a90600401615b7a565b60006040518083038186803b158015612ba557600080fd5b505af4158015612bb9573d6000803e3d6000fd5b50600c925060009150612bd190506020840184614d21565b6001600160a01b03168152602081019190915260400160002054612c1e57601254600c6000612c036020850185614d21565b6001600160a01b031681526020810191909152604001600020555b50565b612c2a82613467565b612c348282613519565b6000918252600e602090815260408084209284529190529020600601805460ff60a01b1916600160a01b179055565b600080612c6f83611e06565b6001600160a01b03166000908152600c60205260409020549290921492915050565b612c9a83613467565b6000612ca7848333613cca565b6013546040805163494c4d9960e01b81526004810184905286356024820152602087013560448201529086013560648201529192506001600160a01b03169063494c4d9990608401600060405180830381600087803b158015612d0957600080fd5b505af1158015612d1d573d6000803e3d6000fd5b505060408051863581526020808801359082015281870135918101919091528492508691507ff0697acc3f194ceead566f2dffb676a7d4aaf14d0a2fad93923e778e4b40ae0d906060016111f3565b6000818152600a60205260409020600201805460609190612d8c906155dd565b80601f0160208091040260200160405190810160405280929190818152602001828054612db8906155dd565b8015612e055780601f10612dda57610100808354040283529160200191612e05565b820191906000526020600020905b815481529060010190602001808311612de857829003601f168201915b50505050509050919050565b6060610a7d82612d6c565b6000612e288235613467565b81356000908152600a6020526040812060030180548290612e4890615628565b91829055506040516317e60d8d60e31b815290915073__$2873850e5b3f5697aafc2f5cd9f27cc884$__9063bf306c6890612e93908690859060009081908190600e9060040161572c565b60006040518083038186803b158015612eab57600080fd5b505af4158015612ebf573d6000803e3d6000fd5b509295945050505050565b60408051610100810182526000808252602082018190529181018290526060808201526080810182905260a0810182905260c0810182905260e0810191909152600e6000848152602001908152602001600020600083815260200190815260200160002060405180610100016040529081600082015481526020016001820154815260200160028201548152602001600382018054612f68906155dd565b80601f0160208091040260200160405190810160405280929190818152602001828054612f94906155dd565b8015612fe15780601f10612fb657610100808354040283529160200191612fe1565b820191906000526020600020905b815481529060010190602001808311612fc457829003601f168201915b505050918352505060048201546001600160a01b0390811660208301526005830154811660408301526006909201549182166060820152600160a01b90910460ff1615156080909101529392505050565b61303b84613467565b6000848152600a6020526040908190209051630f15c45d60e11b815273__$da066dc100670b51e733250a114f607b42$__91631e2b88ba9161308891889188918891889190600401615c5b565b60006040518083038186803b1580156130a057600080fd5b505af41580156130b4573d6000803e3d6000fd5b5050505050505050565b6000818152600a60205260409020600101805460609190612d8c906155dd565b6130e66148c2565b600a60008381526020019081526020016000206040518060c00160405290816000820154815260200160018201805461311e906155dd565b80601f016020809104026020016040519081016040528092919081815260200182805461314a906155dd565b80156131975780601f1061316c57610100808354040283529160200191613197565b820191906000526020600020905b81548152906001019060200180831161317a57829003601f168201915b505050505081526020016002820180546131b0906155dd565b80601f01602080910402602001604051908101604052809291908181526020018280546131dc906155dd565b80156132295780601f106131fe57610100808354040283529160200191613229565b820191906000526020600020905b81548152906001019060200180831161320c57829003601f168201915b50505091835250506003820154602082015260048201546001600160a01b03908116604083015260059092015490911660609091015292915050565b61326e84613deb565b6001600160a01b0383161561166e576000848152600f602052604080822080546001600160a01b0319166001600160a01b038716908117909155905163035aa84b60e41b81526335aa84b0906132cc908890879087906004016157c9565b6000604051808303816000875af11580156132eb573d6000803e3d6000fd5b505050506040513d6000823e601f3d908101601f191682016040526133139190810190615868565b9050836001600160a01b0316857f63dbee1d4ec714c8d35de5e060e27c372b6a409081cdb917c86ea48fdad89b4b83426040516116649291906158b0565b61335a83613467565b6000838152600d6020908152604080832084845290915290205461337e818561356a565b60135460405163c70881c560e01b815260048101839052602481018590526001600160a01b039091169063c70881c590604401600060405180830381600087803b1580156133cb57600080fd5b505af11580156133df573d6000803e3d6000fd5b505050508083857f42b4ce79acc0bdbfa79f30ba8758f3a465824adff1ea290b6d5aeeeef05eb14f8560405161196291815260200190565b60006001600160e01b031982166380ac58cd60e01b148061344857506001600160e01b03198216635b5e139f60e01b145b80610a7d57506301ffc9a760e01b6001600160e01b0319831614610a7d565b61347081611e06565b6001600160a01b0316336001600160a01b031614612c1e5760405162461bcd60e51b815260206004820152600f60248201526e2737ba283937b334b632a7bbb732b960891b6044820152606401610d0d565b6000818152600260205260409020546001600160a01b0316612c1e5760405162461bcd60e51b815260206004820152601060248201526f50726f66696c654e6f7445786973747360801b6044820152606401610d0d565b6000828152600a602052604090206003015481111561283e5760405162461bcd60e51b815260206004820152600d60248201526c4e6f74654e6f7445786973747360981b6044820152606401610d0d565b60135460405163124fe93760e21b8152600481018490526001600160a01b039091169063493fa4dc90602401602060405180830381865afa1580156135b3573d6000803e3d6000fd5b505050506040513d601f19601f820116820180604052508101906135d79190615984565b811461283e5760405162461bcd60e51b8152602060048201526012602482015271155b985d1d1858da1959131a5b9adb1a5cdd60721b6044820152606401610d0d565b600081815260046020526040902080546001600160a01b0319166001600160a01b038416908117909155819061364f82611e06565b6001600160a01b03167f8c5be1e5ebec7d5bd14f71427d1e84f3dd0314c0f7b2291e5b200ac8c7c3b92560405160405180910390a45050565b6040516331a9108f60e11b8152600481018290526001600160a01b03831690636352211e90602401602060405180830381865afa1580156136cd573d6000803e3d6000fd5b505050506040513d601f19601f820116820180604052508101906136f19190615c98565b6001600160a01b031661283e5760405162461bcd60e51b815260206004820152600f60248201526e5245433732314e6f7445786973747360881b6044820152606401610d0d565b61374184613467565b6001600160a01b0383166000908152600c6020526040902054156137bb5760405162461bcd60e51b815260206004820152602b60248201527f546172676574206164647265737320616c726561647920686173207072696d6160448201526a393c90383937b334b6329760a91b6064820152608401610d0d565b60006012600081546137cc90615628565b918290555090506137dd8482614193565b73__$da066dc100670b51e733250a114f607b42$__63a20df8646040518060a00160405280876001600160a01b03168152602001613825886001600160a01b031660146142e1565b815260200160405180602001604052806000815250815260200160006001600160a01b0316815260200160405180602001604052806000815250815250600084600b600a6040518663ffffffff1660e01b8152600401613889959493929190615cb5565b60006040518083038186803b1580156138a157600080fd5b505af41580156138b5573d6000803e3d6000fd5b5050506001600160a01b0385166000908152600c6020526040902082905550611883858285855b60006138e9858433613cca565b601354604051637bf0b88d60e11b815260048101839052602481018790529192506001600160a01b03169063f7e1711a90604401600060405180830381600087803b15801561393757600080fd5b505af115801561394b573d6000803e3d6000fd5b5050506000858152600a60205260409020600501546001600160a01b03161590506139f457600061397b86611e06565b6000868152600a60205260409081902060050154905163366531f960e11b81529192506001600160a01b031690636cca63f2906139c090849089908890600401615d42565b600060405180830381600087803b1580156139da57600080fd5b505af11580156139ee573d6000803e3d6000fd5b50505050505b60408051848152602081018390528591879133917fbc914995d574dd9ef2df364e4eee2b85deda3ba35d054a62425fba1b972757169101610b6b565b6000818152600260205260408120546001600160a01b0316613aa95760405162461bcd60e51b815260206004820152602c60248201527f4552433732313a206f70657261746f7220717565727920666f72206e6f6e657860448201526b34b9ba32b73a103a37b5b2b760a11b6064820152608401610d0d565b6000613ab483611e06565b9050806001600160a01b0316846001600160a01b03161480613aef5750836001600160a01b0316613ae484610c98565b6001600160a01b0316145b8061133557506001600160a01b0380821660009081526005602090815260408083209388168352929052205460ff16611335565b826001600160a01b0316613b3682611e06565b6001600160a01b031614613b9a5760405162461bcd60e51b815260206004820152602560248201527f4552433732313a207472616e736665722066726f6d20696e636f72726563742060448201526437bbb732b960d91b6064820152608401610d0d565b6001600160a01b038216613bfc5760405162461bcd60e51b8152602060048201526024808201527f4552433732313a207472616e7366657220746f20746865207a65726f206164646044820152637265737360e01b6064820152608401610d0d565b613c0783838361447c565b613c1260008261361a565b6001600160a01b0383166000908152600360205260408120805460019290613c3b908490615d69565b90915550506001600160a01b0382166000908152600360205260408120805460019290613c69908490615d80565b909155505060008181526002602052604080822080546001600160a01b0319166001600160a01b0386811691821790925591518493918716917fddf252ad1be2c89b69c2b068fc378daa952ba7f163c4a11628f55a4df523b3ef91a4505050565b6000838152600d6020908152604080832085845290915290205480613de457613d6b6001601360009054906101000a90046001600160a01b03166001600160a01b03166318160ddd6040518163ffffffff1660e01b8152600401602060405180830381865afa158015613d41573d6000803e3d6000fd5b505050506040513d601f19601f82011682018060405250810190613d659190615984565b90614187565b60135460405163644ee7e760e11b81526001600160a01b038581166004830152602482018790526044820184905292935091169063c89dcfce90606401600060405180830381600087803b158015613dc257600080fd5b505af1158015613dd6573d6000803e3d6000fd5b50505050613de48185611ada565b9392505050565b6013546040516331a9108f60e11b8152600481018390526001600160a01b0390911690636352211e90602401602060405180830381865afa158015613e34573d6000803e3d6000fd5b505050506040513d601f19601f82011682018060405250810190613e589190615c98565b6001600160a01b0316336001600160a01b031614612c1e5760405162461bcd60e51b815260206004820152601060248201526f2737ba2634b735a634b9ba27bbb732b960811b6044820152606401610d0d565b613eb53382613a30565b613f015760405162461bcd60e51b815260206004820152601b60248201527f4e4654426173653a204e6f744f776e65724f72417070726f76656400000000006044820152606401610d0d565b612c1e816144bf565b613f1381613467565b601354604051631c5b266960e21b815260048101849052336024820152604481018390526001600160a01b039091169063716c99a490606401600060405180830381600087803b158015613f6657600080fd5b505af1158015612735573d6000803e3d6000fd5b6040516331a9108f60e11b8152600481018290526001600160a01b03831690636352211e90602401602060405180830381865afa158015613fbf573d6000803e3d6000fd5b505050506040513d601f19601f82011682018060405250810190613fe39190615c98565b6001600160a01b0316336001600160a01b03161461283e5760405162461bcd60e51b815260206004820152600e60248201526d2737ba22a9219b9918a7bbb732b960911b6044820152606401610d0d565b61404084848484614566565b7f414cd0b34676984f09a5f76ce9718d4062e50283abe0e7e274a9a5b4e0c99c308484848442604051614077959493929190615d98565b60405180910390a150505050565b816001600160a01b0316836001600160a01b031614156140e75760405162461bcd60e51b815260206004820152601960248201527f4552433732313a20617070726f766520746f2063616c6c6572000000000000006044820152606401610d0d565b6001600160a01b03838116600081815260056020908152604080832094871680845294825291829020805460ff191686151590811790915591519182527f17307eab39ab6107e8899845ad3d59bd9653f200f220920489ca2b5937696c31910160405180910390a3505050565b61415f848484613b23565b61416b8484848461457f565b61166e5760405162461bcd60e51b8152600401610d0d90615dd2565b6000613de48284615d80565b6001600160a01b0382166141e95760405162461bcd60e51b815260206004820181905260248201527f4552433732313a206d696e7420746f20746865207a65726f20616464726573736044820152606401610d0d565b6000818152600260205260409020546001600160a01b03161561424e5760405162461bcd60e51b815260206004820152601c60248201527f4552433732313a20746f6b656e20616c7265616479206d696e746564000000006044820152606401610d0d565b61425a6000838361447c565b6001600160a01b0382166000908152600360205260408120805460019290614283908490615d80565b909155505060008181526002602052604080822080546001600160a01b0319166001600160a01b03861690811790915590518392907fddf252ad1be2c89b69c2b068fc378daa952ba7f163c4a11628f55a4df523b3ef908290a45050565b606060006142f0836002615e24565b6142fb906002615d80565b6001600160401b0381111561431257614312615302565b6040519080825280601f01601f19166020018201604052801561433c576020820181803683370190505b509050600360fc1b816000815181106143575761435761596e565b60200101906001600160f81b031916908160001a905350600f60fb1b816001815181106143865761438661596e565b60200101906001600160f81b031916908160001a90535060006143aa846002615e24565b6143b5906001615d80565b90505b600181111561442d576f181899199a1a9b1b9c1cb0b131b232b360811b85600f16601081106143e9576143e961596e565b1a60f81b8282815181106143ff576143ff61596e565b60200101906001600160f81b031916908160001a90535060049490941c9361442681615e43565b90506143b8565b508315613de45760405162461bcd60e51b815260206004820181905260248201527f537472696e67733a20686578206c656e67746820696e73756666696369656e746044820152606401610d0d565b6001600160a01b0383166000908152600c6020526040902054156144b4576001600160a01b0383166000908152600c60205260408120555b610e4383838361467a565b60006144ca82611e06565b90506144d88160008461447c565b6144e360008361361a565b6001600160a01b038116600090815260036020526040812080546001929061450c908490615d69565b909155505060008281526002602052604080822080546001600160a01b0319169055518391906001600160a01b038416907fddf252ad1be2c89b69c2b068fc378daa952ba7f163c4a11628f55a4df523b3ef908390a45050565b6145726000858561490a565b506118836001838361490a565b60006001600160a01b0384163b1561467257604051630a85bd0160e11b81526001600160a01b0385169063150b7a02906145c3903390899088908890600401615e5a565b6020604051808303816000875af19250505080156145fe575060408051601f3d908101601f191682019092526145fb91810190615e8d565b60015b614658573d80801561462c576040519150601f19603f3d011682016040523d82523d6000602084013e614631565b606091505b5080516146505760405162461bcd60e51b8152600401610d0d90615dd2565b805181602001fd5b6001600160e01b031916630a85bd0160e11b149050611335565b506001611335565b6001600160a01b0383166146d5576146d081600880546000838152600960205260408120829055600182018355919091527ff3f7a9fe364faab93b216da50a3214154f22a0a2b415b23a84c8169e8b636ee30155565b6146f8565b816001600160a01b0316836001600160a01b0316146146f8576146f88382614732565b6001600160a01b03821661470f57610e43816147cf565b826001600160a01b0316826001600160a01b031614610e4357610e43828261487e565b6000600161473f8461204b565b6147499190615d69565b60008381526007602052604090205490915080821461479c576001600160a01b03841660009081526006602090815260408083208584528252808320548484528184208190558352600790915290208190555b5060009182526007602090815260408084208490556001600160a01b039094168352600681528383209183525290812055565b6008546000906147e190600190615d69565b600083815260096020526040812054600880549394509092849081106148095761480961596e565b90600052602060002001549050806008838154811061482a5761482a61596e565b600091825260208083209091019290925582815260099091526040808220849055858252812055600880548061486257614862615eaa565b6001900381819060005260206000200160009055905550505050565b60006148898361204b565b6001600160a01b039093166000908152600660209081526040808320868452825280832085905593825260079052919091209190915550565b6040518060c001604052806000815260200160608152602001606081526020016000815260200160006001600160a01b0316815260200160006001600160a01b031681525090565b828054614916906155dd565b90600052602060002090601f016020900481019282614938576000855561497e565b82601f106149515782800160ff1982351617855561497e565b8280016001018555821561497e579182015b8281111561497e578235825591602001919060010190614963565b5061498a92915061498e565b5090565b5b8082111561498a576000815560010161498f565b6001600160e01b031981168114612c1e57600080fd5b6000602082840312156149cb57600080fd5b8135613de4816149a3565b600080600080608085870312156149ec57600080fd5b5050823594602084013594506040840135936060013592509050565b6001600160a01b0381168114612c1e57600080fd5b60008083601f840112614a2f57600080fd5b5081356001600160401b03811115614a4657600080fd5b602083019150836020828501011115614a5e57600080fd5b9250929050565b600080600080600060808688031215614a7d57600080fd5b85359450602086013593506040860135614a9681614a08565b925060608601356001600160401b03811115614ab157600080fd5b614abd88828901614a1d565b969995985093965092949392505050565b60005b83811015614ae9578181015183820152602001614ad1565b8381111561166e5750506000910152565b60008151808452614b12816020860160208601614ace565b601f01601f19169290920160200192915050565b602081526000613de46020830184614afa565b600060208284031215614b4b57600080fd5b5035919050565b60008060408385031215614b6557600080fd5b8235614b7081614a08565b946020939093013593505050565b600060c08284031215614b9057600080fd5b50919050565b600080600080600060a08688031215614bae57600080fd5b85356001600160401b03811115614bc457600080fd5b614bd088828901614b7e565b955050602086013593506040860135614be881614a08565b94979396509394606081013594506080013592915050565b60008060208385031215614c1357600080fd5b82356001600160401b03811115614c2957600080fd5b614c3585828601614a1d565b90969095509350505050565b60208152815160208201526000602083015160c06040840152614c6760e0840182614afa565b90506040840151601f19848303016060850152614c848282614afa565b91505060608401516080840152608084015160018060a01b0380821660a08601528060a08701511660c086015250508091505092915050565b600080600060608486031215614cd257600080fd5b833592506020840135614ce481614a08565b929592945050506040919091013590565b600080600060608486031215614d0a57600080fd5b505081359360208301359350604090920135919050565b600060208284031215614d3357600080fd5b8135613de481614a08565b60008060008060808587031215614d5457600080fd5b84356001600160401b03811115614d6a57600080fd5b614d7687828801614b7e565b97602087013597506040870135966060013595509350505050565b600080600060608486031215614da657600080fd5b8335614db181614a08565b92506020840135614ce481614a08565b60008060008060808587031215614dd757600080fd5b84356001600160401b03811115614ded57600080fd5b614df987828801614b7e565b945050602085013592506040850135614e1181614a08565b9396929550929360600135925050565b60008060008060608587031215614e3757600080fd5b8435935060208501356001600160401b03811115614e5457600080fd5b614e6087828801614a1d565b9598909750949560400135949350505050565b60008060008060608587031215614e8957600080fd5b8435614e9481614a08565b93506020850135614ea481614a08565b925060408501356001600160401b03811115614ebf57600080fd5b614ecb87828801614a1d565b95989497509550505050565b600080600060408486031215614eec57600080fd5b8335925060208401356001600160401b03811115614f0957600080fd5b614f1586828701614a1d565b9497909650939450505050565b600080600080600060808688031215614f3a57600080fd5b85359450602086013593506040860135925060608601356001600160401b03811115614ab157600080fd5b600080600080600060a08688031215614f7d57600080fd5b85356001600160401b03811115614f9357600080fd5b614f9f88828901614b7e565b9860208801359850604088013597606081013597506080013595509350505050565b60008060408385031215614fd457600080fd5b50508035926020909101359150565b600080600083850360a0811215614ff957600080fd5b843593506060601f198201121561500f57600080fd5b50602084019150608084013590509250925092565b60008060008060006080868803121561503c57600080fd5b85359450602086013561504e81614a08565b93506040860135925060608601356001600160401b03811115614ab157600080fd5b6020808252825182820181905260009190848201906040850190845b818110156150a85783518352928401929184019160010161508c565b50909695505050505050565b600080600080608085870312156150ca57600080fd5b8435935060208501356150dc81614a08565b93969395505050506040820135916060013590565b60008060008060006080868803121561510957600080fd5b853561511481614a08565b9450602086013593506040860135614a9681614a08565b6000806000806000806080878903121561514457600080fd5b86356001600160401b038082111561515b57600080fd5b6151678a838b01614a1d565b9098509650602089013591508082111561518057600080fd5b5061518d89828a01614a1d565b90955093505060408701356151a181614a08565b915060608701356151b181614a08565b809150509295509295509295565b600080604083850312156151d257600080fd5b8235915060208301356151e481614a08565b809150509250929050565b60008060008060006080868803121561520757600080fd5b85356001600160401b038082111561521e57600080fd5b61522a89838a01614b7e565b965060208801359550604088013591508082111561524757600080fd5b5061525488828901614a1d565b96999598509660600135949350505050565b6000806040838503121561527957600080fd5b823561528481614a08565b9150602083013580151581146151e457600080fd5b60008060008060008060a087890312156152b257600080fd5b8635955060208701359450604087013593506060870135925060808701356001600160401b038111156152e457600080fd5b6152f089828a01614a1d565b979a9699509497509295939492505050565b634e487b7160e01b600052604160045260246000fd5b604051601f8201601f191681016001600160401b038111828210171561534057615340615302565b604052919050565b60006001600160401b0382111561536157615361615302565b50601f01601f191660200190565b6000806000806080858703121561538557600080fd5b843561539081614a08565b935060208501356153a081614a08565b92506040850135915060608501356001600160401b038111156153c257600080fd5b8501601f810187136153d357600080fd5b80356153e66153e182615348565b615318565b8181528860208385010111156153fb57600080fd5b8160208401602083013760006020838301015280935050505092959194509250565b60006020828403121561542f57600080fd5b81356001600160401b0381111561544557600080fd5b820160a08185031215613de457600080fd5b60006020828403121561546957600080fd5b81356001600160401b0381111561547f57600080fd5b61133584828501614b7e565b60208152815160208201526020820151604082015260408201516060820152600060608301516101008060808501526154c8610120850183614afa565b9150608085015160018060a01b0380821660a08701528060a08801511660c0870152505060c085015161550660e08601826001600160a01b03169052565b5060e0850151801515858301525090949350505050565b6000806000806060858703121561553357600080fd5b843593506020850135614ea481614a08565b6000806040838503121561555857600080fd5b823561556381614a08565b915060208301356151e481614a08565b81835281816020850137506000828201602090810191909152601f909101601f19169091010190565b86815285602082015260018060a01b038516604082015260a0606082015260006155ca60a083018587615573565b9050826080830152979650505050505050565b600181811c908216806155f157607f821691505b60208210811415614b9057634e487b7160e01b600052602260045260246000fd5b634e487b7160e01b600052601160045260246000fd5b600060001982141561563c5761563c615612565b5060010190565b6000808335601e1984360301811261565a57600080fd5b83016020810192503590506001600160401b0381111561567957600080fd5b803603831315614a5e57600080fd5b80358252600061569b6020830183615643565b60c060208601526156b060c086018284615573565b91505060408301356156c181614a08565b6001600160a01b0381811660408701526156de6060860186615643565b925086840360608801526156f3848483615573565b9350506080850135915061570682614a08565b16608085015261571960a0840184615643565b85830360a0870152612557838284615573565b60c08152600061573f60c0830189615688565b60208301979097525060408101949094526060840192909252608083015260a090910152919050565b8183823760009101908152919050565b60208082526031908201527f4552433732313a207472616e736665722063616c6c6572206973206e6f74206f6040820152701ddb995c881b9bdc88185c1c1c9bdd9959607a1b606082015260800190565b8381526040602082015260006157e3604083018486615573565b95945050505050565b606081526000615800606083018688615573565b6020830194909452506040015292915050565b6001600160a01b03841681526040602082018190526000906157e39083018486615573565b60006158466153e184615348565b905082815283838301111561585a57600080fd5b613de4836020830184614ace565b60006020828403121561587a57600080fd5b81516001600160401b0381111561589057600080fd5b8201601f810184136158a157600080fd5b61133584825160208401615838565b6040815260006158c36040830185614afa565b90508260208301529392505050565b600080835481600182811c9150808316806158ee57607f831692505b602080841082141561590e57634e487b7160e01b86526022600452602486fd5b818015615922576001811461593357615960565b60ff19861689528489019650615960565b60008a81526020902060005b868110156159585781548b82015290850190830161593f565b505084890196505b509498975050505050505050565b634e487b7160e01b600052603260045260246000fd5b60006020828403121561599657600080fd5b5051919050565b600060208083850312156159b057600080fd5b82516001600160401b03808211156159c757600080fd5b818501915085601f8301126159db57600080fd5b8151818111156159ed576159ed615302565b8060051b91506159fe848301615318565b8181529183018401918481019088841115615a1857600080fd5b938501935b83851015615a3657845182529385019390850190615a1d565b98975050505050505050565b602081526000611335602083018486615573565b60018060a01b0385168152836020820152606060408201526000612557606083018486615573565b888152876020820152600060018060a01b03808916604084015260e06060840152615aad60e08401888a615573565b951660808301525060a081019290925260c09091015295945050505050565b664c696e6b416e7960c81b81528183600783013760009101600701908152919050565b858152608060208201526000615b09608083018688615573565b604083019490945250606001529392505050565b604081526000615b31604083018587615573565b9050826020830152949350505050565b60018060a01b0386168152846020820152836040820152608060608201526000615b6f608083018486615573565b979650505050505050565b60a0815260008635615b8b81614a08565b6001600160a01b0381811660a0850152615ba860208a018a615643565b925060a060c0860152615bc061014086018483615573565b925050615bd060408a018a615643565b609f19808786030160e0880152615be8858385615573565b945060608c01359250615bfa83614a08565b838316610100880152615c1060808d018d615643565b9450925080878603016101208801525050615c2c838383615573565b9350505050615c3f602083018715159052565b8460408301528360608301528260808301529695505050505050565b8581526001600160a01b0385166020820152608060408201819052600090615c869083018587615573565b90508260608301529695505050505050565b600060208284031215615caa57600080fd5b8151613de481614a08565b60a08152600060018060a01b038088511660a0840152602088015160a060c0850152615ce5610140850182614afa565b90506040890151609f19808684030160e0870152615d038383614afa565b92508360608c01511661010087015260808b0151935080868403016101208701525050615d308183614afa565b92505050615c3f602083018715159052565b60018060a01b03841681528260208201526060604082015260006157e36060830184614afa565b600082821015615d7b57615d7b615612565b500390565b60008219821115615d9357615d93615612565b500190565b606081526000615dac606083018789615573565b8281036020840152615dbf818688615573565b9150508260408301529695505050505050565b60208082526032908201527f4552433732313a207472616e7366657220746f206e6f6e20455243373231526560408201527131b2b4bb32b91034b6b83632b6b2b73a32b960711b606082015260800190565b6000816000190483118215151615615e3e57615e3e615612565b500290565b600081615e5257615e52615612565b506000190190565b6001600160a01b038581168252841660208201526040810183905260806060820181905260009061255790830184614afa565b600060208284031215615e9f57600080fd5b8151613de4816149a3565b634e487b7160e01b600052603160045260246000fdfea2646970667358221220975f460b14c23ef7942f04a4c40c3708c194671b2b642b1272526b61b27a3a5364736f6c634300080a0033",
    "linkReferences": {
        "contracts/libraries/InteractionLogic.sol": {
            "InteractionLogic": [
                {
                    "length": 20,
                    "start": 3005
                },
                {
                    "length": 20,
                    "start": 4992
                },
                {
                    "length": 20,
                    "start": 9463
                }
            ]
        },
        "contracts/libraries/PostLogic.sol": {
            "PostLogic": [
                {
                    "length": 20,
                    "start": 3877
                },
                {
                    "length": 20,
                    "start": 4844
                },
                {
                    "length": 20,
                    "start": 11904
                }
            ]
        },
        "contracts/libraries/ProfileLogic.sol": {
            "ProfileLogic": [
                {
                    "length": 20,
                    "start": 9997
                },
                {
                    "length": 20,
                    "start": 10363
                },
                {
                    "length": 20,
                    "start": 11132
                },
                {
                    "length": 20,
                    "start": 12410
                },
                {
                    "length": 20,
                    "start": 14336
                }
            ]
        }
    },
    "deployedLinkReferences": {
        "contracts/libraries/InteractionLogic.sol": {
            "InteractionLogic": [
                {
                    "length": 20,
                    "start": 2972
                },
                {
                    "length": 20,
                    "start": 4959
                },
                {
                    "length": 20,
                    "start": 9430
                }
            ]
        },
        "contracts/libraries/PostLogic.sol": {
            "PostLogic": [
                {
                    "length": 20,
                    "start": 3844
                },
                {
                    "length": 20,
                    "start": 4811
                },
                {
                    "length": 20,
                    "start": 11871
                }
            ]
        },
        "contracts/libraries/ProfileLogic.sol": {
            "ProfileLogic": [
                {
                    "length": 20,
                    "start": 9964
                },
                {
                    "length": 20,
                    "start": 10330
                },
                {
                    "length": 20,
                    "start": 11099
                },
                {
                    "length": 20,
                    "start": 12377
                },
                {
                    "length": 20,
                    "start": 14303
                }
            ]
        }
    }
}