{
  "_format": "hh-sol-artifact-1",
  "contractName": "Web3Entry",
  "sourceName": "contracts/Web3Entry.sol",
  "abi": [
    {
      "anonymous": false,
      "inputs": [
        {
          "indexed": true,
          "internalType": "address",
          "name": "owner",
          "type": "address"
        },
        {
          "indexed": true,
          "internalType": "address",
          "name": "approved",
          "type": "address"
        },
        {
          "indexed": true,
          "internalType": "uint256",
          "name": "tokenId",
          "type": "uint256"
        }
      ],
      "name": "Approval",
      "type": "event"
    },
    {
      "anonymous": false,
      "inputs": [
        {
          "indexed": true,
          "internalType": "address",
          "name": "owner",
          "type": "address"
        },
        {
          "indexed": true,
          "internalType": "address",
          "name": "operator",
          "type": "address"
        },
        {
          "indexed": false,
          "internalType": "bool",
          "name": "approved",
          "type": "bool"
        }
      ],
      "name": "ApprovalForAll",
      "type": "event"
    },
    {
      "anonymous": false,
      "inputs": [
        {
          "indexed": false,
          "internalType": "uint8",
          "name": "version",
          "type": "uint8"
        }
      ],
      "name": "Initialized",
      "type": "event"
    },
    {
      "anonymous": false,
      "inputs": [
        {
          "indexed": true,
          "internalType": "address",
          "name": "from",
          "type": "address"
        },
        {
          "indexed": true,
          "internalType": "address",
          "name": "to",
          "type": "address"
        },
        {
          "indexed": true,
          "internalType": "uint256",
          "name": "tokenId",
          "type": "uint256"
        }
      ],
      "name": "Transfer",
      "type": "event"
    },
    {
      "inputs": [
        {
          "internalType": "address",
          "name": "to",
          "type": "address"
        },
        {
          "internalType": "uint256",
          "name": "tokenId",
          "type": "uint256"
        }
      ],
      "name": "approve",
      "outputs": [],
      "stateMutability": "nonpayable",
      "type": "function"
    },
    {
      "inputs": [
        {
          "internalType": "address",
          "name": "owner",
          "type": "address"
        }
      ],
      "name": "balanceOf",
      "outputs": [
        {
          "internalType": "uint256",
          "name": "",
          "type": "uint256"
        }
      ],
      "stateMutability": "view",
      "type": "function"
    },
    {
      "inputs": [
        {
          "internalType": "uint256",
          "name": "tokenId",
          "type": "uint256"
        }
      ],
      "name": "burn",
      "outputs": [],
      "stateMutability": "nonpayable",
      "type": "function"
    },
    {
      "inputs": [
        {
          "components": [
            {
              "internalType": "address",
              "name": "to",
              "type": "address"
            },
            {
              "internalType": "string",
              "name": "handle",
              "type": "string"
            },
            {
              "internalType": "string",
              "name": "uri",
              "type": "string"
            },
            {
              "internalType": "address",
              "name": "linkModule",
              "type": "address"
            },
            {
              "internalType": "bytes",
              "name": "linkModuleInitData",
              "type": "bytes"
            }
          ],
          "internalType": "struct DataTypes.CreateCharacterData",
          "name": "vars",
          "type": "tuple"
        }
      ],
      "name": "createCharacter",
      "outputs": [],
      "stateMutability": "nonpayable",
      "type": "function"
    },
    {
      "inputs": [
        {
          "components": [
            {
              "internalType": "uint256",
              "name": "fromCharacterId",
              "type": "uint256"
            },
            {
              "internalType": "address",
              "name": "to",
              "type": "address"
            },
            {
              "internalType": "bytes32",
              "name": "linkType",
              "type": "bytes32"
            }
          ],
          "internalType": "struct DataTypes.createThenLinkCharacterData",
          "name": "vars",
          "type": "tuple"
        }
      ],
      "name": "createThenLinkCharacter",
      "outputs": [],
      "stateMutability": "nonpayable",
      "type": "function"
    },
    {
      "inputs": [
        {
          "internalType": "uint256",
          "name": "characterId",
          "type": "uint256"
        },
        {
          "internalType": "uint256",
          "name": "noteId",
          "type": "uint256"
        }
      ],
      "name": "deleteNote",
      "outputs": [],
      "stateMutability": "nonpayable",
      "type": "function"
    },
    {
      "inputs": [
        {
          "internalType": "uint256",
          "name": "tokenId",
          "type": "uint256"
        }
      ],
      "name": "getApproved",
      "outputs": [
        {
          "internalType": "address",
          "name": "",
          "type": "address"
        }
      ],
      "stateMutability": "view",
      "type": "function"
    },
    {
      "inputs": [
        {
          "internalType": "uint256",
          "name": "characterId",
          "type": "uint256"
        }
      ],
      "name": "getCharacter",
      "outputs": [
        {
          "components": [
            {
              "internalType": "uint256",
              "name": "characterId",
              "type": "uint256"
            },
            {
              "internalType": "string",
              "name": "handle",
              "type": "string"
            },
            {
              "internalType": "string",
              "name": "uri",
              "type": "string"
            },
            {
              "internalType": "uint256",
              "name": "noteCount",
              "type": "uint256"
            },
            {
              "internalType": "address",
              "name": "socialToken",
              "type": "address"
            },
            {
              "internalType": "address",
              "name": "linkModule",
              "type": "address"
            }
          ],
          "internalType": "struct DataTypes.Character",
          "name": "",
          "type": "tuple"
        }
      ],
      "stateMutability": "view",
      "type": "function"
    },
    {
      "inputs": [
        {
          "internalType": "string",
          "name": "handle",
          "type": "string"
        }
      ],
      "name": "getCharacterByHandle",
      "outputs": [
        {
          "components": [
            {
              "internalType": "uint256",
              "name": "characterId",
              "type": "uint256"
            },
            {
              "internalType": "string",
              "name": "handle",
              "type": "string"
            },
            {
              "internalType": "string",
              "name": "uri",
              "type": "string"
            },
            {
              "internalType": "uint256",
              "name": "noteCount",
              "type": "uint256"
            },
            {
              "internalType": "address",
              "name": "socialToken",
              "type": "address"
            },
            {
              "internalType": "address",
              "name": "linkModule",
              "type": "address"
            }
          ],
          "internalType": "struct DataTypes.Character",
          "name": "",
          "type": "tuple"
        }
      ],
      "stateMutability": "view",
      "type": "function"
    },
    {
      "inputs": [
        {
          "internalType": "uint256",
          "name": "characterId",
          "type": "uint256"
        }
      ],
      "name": "getCharacterUri",
      "outputs": [
        {
          "internalType": "string",
          "name": "",
          "type": "string"
        }
      ],
      "stateMutability": "view",
      "type": "function"
    },
    {
      "inputs": [
        {
          "internalType": "uint256",
          "name": "characterId",
          "type": "uint256"
        }
      ],
      "name": "getHandle",
      "outputs": [
        {
          "internalType": "string",
          "name": "",
          "type": "string"
        }
      ],
      "stateMutability": "view",
      "type": "function"
    },
    {
      "inputs": [
        {
          "internalType": "address",
          "name": "account",
          "type": "address"
        }
      ],
      "name": "getLinkModule4Address",
      "outputs": [
        {
          "internalType": "address",
          "name": "",
          "type": "address"
        }
      ],
      "stateMutability": "view",
      "type": "function"
    },
    {
      "inputs": [
        {
          "internalType": "address",
          "name": "tokenAddress",
          "type": "address"
        },
        {
          "internalType": "uint256",
          "name": "tokenId",
          "type": "uint256"
        }
      ],
      "name": "getLinkModule4ERC721",
      "outputs": [
        {
          "internalType": "address",
          "name": "",
          "type": "address"
        }
      ],
      "stateMutability": "view",
      "type": "function"
    },
    {
      "inputs": [
        {
          "internalType": "uint256",
          "name": "tokenId",
          "type": "uint256"
        }
      ],
      "name": "getLinkModule4Linklist",
      "outputs": [
        {
          "internalType": "address",
          "name": "",
          "type": "address"
        }
      ],
      "stateMutability": "view",
      "type": "function"
    },
    {
      "inputs": [],
      "name": "getLinklistContract",
      "outputs": [
        {
          "internalType": "address",
          "name": "",
          "type": "address"
        }
      ],
      "stateMutability": "view",
      "type": "function"
    },
    {
      "inputs": [
        {
          "internalType": "uint256",
          "name": "characterId",
          "type": "uint256"
        },
        {
          "internalType": "bytes32",
          "name": "linkType",
          "type": "bytes32"
        }
      ],
      "name": "getLinklistId",
      "outputs": [
        {
          "internalType": "uint256",
          "name": "",
          "type": "uint256"
        }
      ],
      "stateMutability": "view",
      "type": "function"
    },
    {
      "inputs": [
        {
          "internalType": "uint256",
          "name": "linkListId",
          "type": "uint256"
        }
      ],
      "name": "getLinklistType",
      "outputs": [
        {
          "internalType": "bytes32",
          "name": "",
          "type": "bytes32"
        }
      ],
      "stateMutability": "view",
      "type": "function"
    },
    {
      "inputs": [
        {
          "internalType": "uint256",
          "name": "tokenId",
          "type": "uint256"
        }
      ],
      "name": "getLinklistUri",
      "outputs": [
        {
          "internalType": "string",
          "name": "",
          "type": "string"
        }
      ],
      "stateMutability": "view",
      "type": "function"
    },
    {
      "inputs": [
        {
          "internalType": "uint256",
          "name": "characterId",
          "type": "uint256"
        },
        {
          "internalType": "uint256",
          "name": "noteId",
          "type": "uint256"
        }
      ],
      "name": "getNote",
      "outputs": [
        {
          "components": [
            {
              "internalType": "bytes32",
              "name": "linkItemType",
              "type": "bytes32"
            },
            {
              "internalType": "bytes32",
              "name": "linkKey",
              "type": "bytes32"
            },
            {
              "internalType": "string",
              "name": "contentUri",
              "type": "string"
            },
            {
              "internalType": "address",
              "name": "linkModule",
              "type": "address"
            },
            {
              "internalType": "address",
              "name": "mintModule",
              "type": "address"
            },
            {
              "internalType": "address",
              "name": "mintNFT",
              "type": "address"
            },
            {
              "internalType": "bool",
              "name": "deleted",
              "type": "bool"
            },
            {
              "internalType": "bool",
              "name": "locked",
              "type": "bool"
            }
          ],
          "internalType": "struct DataTypes.Note",
          "name": "",
          "type": "tuple"
        }
      ],
      "stateMutability": "view",
      "type": "function"
    },
    {
      "inputs": [
        {
          "internalType": "uint256",
          "name": "characterId",
          "type": "uint256"
        },
        {
          "internalType": "address",
          "name": "operator",
          "type": "address"
        }
      ],
      "name": "getOperatorPermissions",
      "outputs": [
        {
          "internalType": "uint256",
          "name": "",
          "type": "uint256"
        }
      ],
      "stateMutability": "view",
      "type": "function"
    },
    {
      "inputs": [
        {
          "internalType": "uint256",
          "name": "characterId",
          "type": "uint256"
        }
      ],
      "name": "getOperators",
      "outputs": [
        {
          "internalType": "address[]",
          "name": "",
          "type": "address[]"
        }
      ],
      "stateMutability": "view",
      "type": "function"
    },
    {
      "inputs": [
        {
          "internalType": "uint256",
          "name": "characterId",
          "type": "uint256"
        },
        {
          "internalType": "uint256",
          "name": "noteId",
          "type": "uint256"
        }
      ],
      "name": "getOperators4Note",
      "outputs": [
        {
          "internalType": "address[]",
          "name": "blocklist",
          "type": "address[]"
        },
        {
          "internalType": "address[]",
          "name": "allowlist",
          "type": "address[]"
        }
      ],
      "stateMutability": "view",
      "type": "function"
    },
    {
      "inputs": [
        {
          "internalType": "address",
          "name": "account",
          "type": "address"
        }
      ],
      "name": "getPrimaryCharacterId",
      "outputs": [
        {
          "internalType": "uint256",
          "name": "",
          "type": "uint256"
        }
      ],
      "stateMutability": "view",
      "type": "function"
    },
    {
      "inputs": [],
      "name": "getRevision",
      "outputs": [
        {
          "internalType": "uint256",
          "name": "",
          "type": "uint256"
        }
      ],
      "stateMutability": "pure",
      "type": "function"
    },
    {
      "inputs": [
        {
          "internalType": "uint256",
          "name": "characterId",
          "type": "uint256"
        },
        {
          "internalType": "address",
          "name": "operator",
          "type": "address"
        },
        {
          "internalType": "uint256",
          "name": "permissionBitMap",
          "type": "uint256"
        }
      ],
      "name": "grantOperatorPermissions",
      "outputs": [],
      "stateMutability": "nonpayable",
      "type": "function"
    },
    {
      "inputs": [
        {
          "internalType": "uint256",
          "name": "characterId",
          "type": "uint256"
        },
        {
          "internalType": "uint256",
          "name": "noteId",
          "type": "uint256"
        },
        {
          "internalType": "address[]",
          "name": "blocklist",
          "type": "address[]"
        },
        {
          "internalType": "address[]",
          "name": "allowlist",
          "type": "address[]"
        }
      ],
      "name": "grantOperators4Note",
      "outputs": [],
      "stateMutability": "nonpayable",
      "type": "function"
    },
    {
      "inputs": [
        {
          "internalType": "string",
          "name": "_name",
          "type": "string"
        },
        {
          "internalType": "string",
          "name": "_symbol",
          "type": "string"
        },
        {
          "internalType": "address",
          "name": "_linklistContract",
          "type": "address"
        },
        {
          "internalType": "address",
          "name": "_mintNFTImpl",
          "type": "address"
        },
        {
          "internalType": "address",
          "name": "_periphery",
          "type": "address"
        },
        {
          "internalType": "address",
          "name": "_resolver",
          "type": "address"
        }
      ],
      "name": "initialize",
      "outputs": [],
      "stateMutability": "nonpayable",
      "type": "function"
    },
    {
      "inputs": [
        {
          "internalType": "address",
          "name": "owner",
          "type": "address"
        },
        {
          "internalType": "address",
          "name": "operator",
          "type": "address"
        }
      ],
      "name": "isApprovedForAll",
      "outputs": [
        {
          "internalType": "bool",
          "name": "",
          "type": "bool"
        }
      ],
      "stateMutability": "view",
      "type": "function"
    },
    {
      "inputs": [
        {
          "internalType": "uint256",
          "name": "characterId",
          "type": "uint256"
        },
        {
          "internalType": "uint256",
          "name": "noteId",
          "type": "uint256"
        },
        {
          "internalType": "address",
          "name": "operator",
          "type": "address"
        }
      ],
      "name": "isOperatorAllowedForNote",
      "outputs": [
        {
          "internalType": "bool",
          "name": "",
          "type": "bool"
        }
      ],
      "stateMutability": "view",
      "type": "function"
    },
    {
      "inputs": [
        {
          "internalType": "uint256",
          "name": "characterId",
          "type": "uint256"
        }
      ],
      "name": "isPrimaryCharacter",
      "outputs": [
        {
          "internalType": "bool",
          "name": "",
          "type": "bool"
        }
      ],
      "stateMutability": "view",
      "type": "function"
    },
    {
      "inputs": [
        {
          "components": [
            {
              "internalType": "uint256",
              "name": "fromCharacterId",
              "type": "uint256"
            },
            {
              "internalType": "address",
              "name": "ethAddress",
              "type": "address"
            },
            {
              "internalType": "bytes32",
              "name": "linkType",
              "type": "bytes32"
            },
            {
              "internalType": "bytes",
              "name": "data",
              "type": "bytes"
            }
          ],
          "internalType": "struct DataTypes.linkAddressData",
          "name": "vars",
          "type": "tuple"
        }
      ],
      "name": "linkAddress",
      "outputs": [],
      "stateMutability": "nonpayable",
      "type": "function"
    },
    {
      "inputs": [
        {
          "components": [
            {
              "internalType": "uint256",
              "name": "fromCharacterId",
              "type": "uint256"
            },
            {
              "internalType": "string",
              "name": "toUri",
              "type": "string"
            },
            {
              "internalType": "bytes32",
              "name": "linkType",
              "type": "bytes32"
            },
            {
              "internalType": "bytes",
              "name": "data",
              "type": "bytes"
            }
          ],
          "internalType": "struct DataTypes.linkAnyUriData",
          "name": "vars",
          "type": "tuple"
        }
      ],
      "name": "linkAnyUri",
      "outputs": [],
      "stateMutability": "nonpayable",
      "type": "function"
    },
    {
      "inputs": [
        {
          "components": [
            {
              "internalType": "uint256",
              "name": "fromCharacterId",
              "type": "uint256"
            },
            {
              "internalType": "uint256",
              "name": "toCharacterId",
              "type": "uint256"
            },
            {
              "internalType": "bytes32",
              "name": "linkType",
              "type": "bytes32"
            },
            {
              "internalType": "bytes",
              "name": "data",
              "type": "bytes"
            }
          ],
          "internalType": "struct DataTypes.linkCharacterData",
          "name": "vars",
          "type": "tuple"
        }
      ],
      "name": "linkCharacter",
      "outputs": [],
      "stateMutability": "nonpayable",
      "type": "function"
    },
    {
      "inputs": [
        {
          "components": [
            {
              "internalType": "uint256",
              "name": "fromCharacterId",
              "type": "uint256"
            },
            {
              "internalType": "address",
              "name": "tokenAddress",
              "type": "address"
            },
            {
              "internalType": "uint256",
              "name": "tokenId",
              "type": "uint256"
            },
            {
              "internalType": "bytes32",
              "name": "linkType",
              "type": "bytes32"
            },
            {
              "internalType": "bytes",
              "name": "data",
              "type": "bytes"
            }
          ],
          "internalType": "struct DataTypes.linkERC721Data",
          "name": "vars",
          "type": "tuple"
        }
      ],
      "name": "linkERC721",
      "outputs": [],
      "stateMutability": "nonpayable",
      "type": "function"
    },
    {
      "inputs": [
        {
          "components": [
            {
              "internalType": "uint256",
              "name": "fromCharacterId",
              "type": "uint256"
            },
            {
              "internalType": "uint256",
              "name": "toLinkListId",
              "type": "uint256"
            },
            {
              "internalType": "bytes32",
              "name": "linkType",
              "type": "bytes32"
            },
            {
              "internalType": "bytes",
              "name": "data",
              "type": "bytes"
            }
          ],
          "internalType": "struct DataTypes.linkLinklistData",
          "name": "vars",
          "type": "tuple"
        }
      ],
      "name": "linkLinklist",
      "outputs": [],
      "stateMutability": "nonpayable",
      "type": "function"
    },
    {
      "inputs": [
        {
          "components": [
            {
              "internalType": "uint256",
              "name": "fromCharacterId",
              "type": "uint256"
            },
            {
              "internalType": "uint256",
              "name": "toCharacterId",
              "type": "uint256"
            },
            {
              "internalType": "uint256",
              "name": "toNoteId",
              "type": "uint256"
            },
            {
              "internalType": "bytes32",
              "name": "linkType",
              "type": "bytes32"
            },
            {
              "internalType": "bytes",
              "name": "data",
              "type": "bytes"
            }
          ],
          "internalType": "struct DataTypes.linkNoteData",
          "name": "vars",
          "type": "tuple"
        }
      ],
      "name": "linkNote",
      "outputs": [],
      "stateMutability": "nonpayable",
      "type": "function"
    },
    {
      "inputs": [
        {
          "internalType": "uint256",
          "name": "characterId",
          "type": "uint256"
        },
        {
          "internalType": "uint256",
          "name": "noteId",
          "type": "uint256"
        }
      ],
      "name": "lockNote",
      "outputs": [],
      "stateMutability": "nonpayable",
      "type": "function"
    },
    {
      "inputs": [
        {
          "components": [
            {
              "internalType": "uint256",
              "name": "characterId",
              "type": "uint256"
            },
            {
              "internalType": "uint256",
              "name": "noteId",
              "type": "uint256"
            },
            {
              "internalType": "address",
              "name": "to",
              "type": "address"
            },
            {
              "internalType": "bytes",
              "name": "mintModuleData",
              "type": "bytes"
            }
          ],
          "internalType": "struct DataTypes.MintNoteData",
          "name": "vars",
          "type": "tuple"
        }
      ],
      "name": "mintNote",
      "outputs": [
        {
          "internalType": "uint256",
          "name": "",
          "type": "uint256"
        }
      ],
      "stateMutability": "nonpayable",
      "type": "function"
    },
    {
      "inputs": [],
      "name": "name",
      "outputs": [
        {
          "internalType": "string",
          "name": "",
          "type": "string"
        }
      ],
      "stateMutability": "view",
      "type": "function"
    },
    {
      "inputs": [
        {
          "internalType": "uint256",
          "name": "tokenId",
          "type": "uint256"
        }
      ],
      "name": "ownerOf",
      "outputs": [
        {
          "internalType": "address",
          "name": "",
          "type": "address"
        }
      ],
      "stateMutability": "view",
      "type": "function"
    },
    {
      "inputs": [
        {
          "components": [
            {
              "internalType": "uint256",
              "name": "characterId",
              "type": "uint256"
            },
            {
              "internalType": "string",
              "name": "contentUri",
              "type": "string"
            },
            {
              "internalType": "address",
              "name": "linkModule",
              "type": "address"
            },
            {
              "internalType": "bytes",
              "name": "linkModuleInitData",
              "type": "bytes"
            },
            {
              "internalType": "address",
              "name": "mintModule",
              "type": "address"
            },
            {
              "internalType": "bytes",
              "name": "mintModuleInitData",
              "type": "bytes"
            },
            {
              "internalType": "bool",
              "name": "locked",
              "type": "bool"
            }
          ],
          "internalType": "struct DataTypes.PostNoteData",
          "name": "vars",
          "type": "tuple"
        }
      ],
      "name": "postNote",
      "outputs": [
        {
          "internalType": "uint256",
          "name": "",
          "type": "uint256"
        }
      ],
      "stateMutability": "nonpayable",
      "type": "function"
    },
    {
      "inputs": [
        {
          "components": [
            {
              "internalType": "uint256",
              "name": "characterId",
              "type": "uint256"
            },
            {
              "internalType": "string",
              "name": "contentUri",
              "type": "string"
            },
            {
              "internalType": "address",
              "name": "linkModule",
              "type": "address"
            },
            {
              "internalType": "bytes",
              "name": "linkModuleInitData",
              "type": "bytes"
            },
            {
              "internalType": "address",
              "name": "mintModule",
              "type": "address"
            },
            {
              "internalType": "bytes",
              "name": "mintModuleInitData",
              "type": "bytes"
            },
            {
              "internalType": "bool",
              "name": "locked",
              "type": "bool"
            }
          ],
          "internalType": "struct DataTypes.PostNoteData",
          "name": "noteData",
          "type": "tuple"
        },
        {
          "internalType": "address",
          "name": "ethAddress",
          "type": "address"
        }
      ],
      "name": "postNote4Address",
      "outputs": [
        {
          "internalType": "uint256",
          "name": "",
          "type": "uint256"
        }
      ],
      "stateMutability": "nonpayable",
      "type": "function"
    },
    {
      "inputs": [
        {
          "components": [
            {
              "internalType": "uint256",
              "name": "characterId",
              "type": "uint256"
            },
            {
              "internalType": "string",
              "name": "contentUri",
              "type": "string"
            },
            {
              "internalType": "address",
              "name": "linkModule",
              "type": "address"
            },
            {
              "internalType": "bytes",
              "name": "linkModuleInitData",
              "type": "bytes"
            },
            {
              "internalType": "address",
              "name": "mintModule",
              "type": "address"
            },
            {
              "internalType": "bytes",
              "name": "mintModuleInitData",
              "type": "bytes"
            },
            {
              "internalType": "bool",
              "name": "locked",
              "type": "bool"
            }
          ],
          "internalType": "struct DataTypes.PostNoteData",
          "name": "postNoteData",
          "type": "tuple"
        },
        {
          "internalType": "string",
          "name": "uri",
          "type": "string"
        }
      ],
      "name": "postNote4AnyUri",
      "outputs": [
        {
          "internalType": "uint256",
          "name": "",
          "type": "uint256"
        }
      ],
      "stateMutability": "nonpayable",
      "type": "function"
    },
    {
      "inputs": [
        {
          "components": [
            {
              "internalType": "uint256",
              "name": "characterId",
              "type": "uint256"
            },
            {
              "internalType": "string",
              "name": "contentUri",
              "type": "string"
            },
            {
              "internalType": "address",
              "name": "linkModule",
              "type": "address"
            },
            {
              "internalType": "bytes",
              "name": "linkModuleInitData",
              "type": "bytes"
            },
            {
              "internalType": "address",
              "name": "mintModule",
              "type": "address"
            },
            {
              "internalType": "bytes",
              "name": "mintModuleInitData",
              "type": "bytes"
            },
            {
              "internalType": "bool",
              "name": "locked",
              "type": "bool"
            }
          ],
          "internalType": "struct DataTypes.PostNoteData",
          "name": "postNoteData",
          "type": "tuple"
        },
        {
          "internalType": "uint256",
          "name": "toCharacterId",
          "type": "uint256"
        }
      ],
      "name": "postNote4Character",
      "outputs": [
        {
          "internalType": "uint256",
          "name": "",
          "type": "uint256"
        }
      ],
      "stateMutability": "nonpayable",
      "type": "function"
    },
    {
      "inputs": [
        {
          "components": [
            {
              "internalType": "uint256",
              "name": "characterId",
              "type": "uint256"
            },
            {
              "internalType": "string",
              "name": "contentUri",
              "type": "string"
            },
            {
              "internalType": "address",
              "name": "linkModule",
              "type": "address"
            },
            {
              "internalType": "bytes",
              "name": "linkModuleInitData",
              "type": "bytes"
            },
            {
              "internalType": "address",
              "name": "mintModule",
              "type": "address"
            },
            {
              "internalType": "bytes",
              "name": "mintModuleInitData",
              "type": "bytes"
            },
            {
              "internalType": "bool",
              "name": "locked",
              "type": "bool"
            }
          ],
          "internalType": "struct DataTypes.PostNoteData",
          "name": "postNoteData",
          "type": "tuple"
        },
        {
          "components": [
            {
              "internalType": "address",
              "name": "tokenAddress",
              "type": "address"
            },
            {
              "internalType": "uint256",
              "name": "erc721TokenId",
              "type": "uint256"
            }
          ],
          "internalType": "struct DataTypes.ERC721Struct",
          "name": "erc721",
          "type": "tuple"
        }
      ],
      "name": "postNote4ERC721",
      "outputs": [
        {
          "internalType": "uint256",
          "name": "",
          "type": "uint256"
        }
      ],
      "stateMutability": "nonpayable",
      "type": "function"
    },
    {
      "inputs": [
        {
          "components": [
            {
              "internalType": "uint256",
              "name": "characterId",
              "type": "uint256"
            },
            {
              "internalType": "string",
              "name": "contentUri",
              "type": "string"
            },
            {
              "internalType": "address",
              "name": "linkModule",
              "type": "address"
            },
            {
              "internalType": "bytes",
              "name": "linkModuleInitData",
              "type": "bytes"
            },
            {
              "internalType": "address",
              "name": "mintModule",
              "type": "address"
            },
            {
              "internalType": "bytes",
              "name": "mintModuleInitData",
              "type": "bytes"
            },
            {
              "internalType": "bool",
              "name": "locked",
              "type": "bool"
            }
          ],
          "internalType": "struct DataTypes.PostNoteData",
          "name": "noteData",
          "type": "tuple"
        },
        {
          "internalType": "uint256",
          "name": "toLinklistId",
          "type": "uint256"
        }
      ],
      "name": "postNote4Linklist",
      "outputs": [
        {
          "internalType": "uint256",
          "name": "",
          "type": "uint256"
        }
      ],
      "stateMutability": "nonpayable",
      "type": "function"
    },
    {
      "inputs": [
        {
          "components": [
            {
              "internalType": "uint256",
              "name": "characterId",
              "type": "uint256"
            },
            {
              "internalType": "string",
              "name": "contentUri",
              "type": "string"
            },
            {
              "internalType": "address",
              "name": "linkModule",
              "type": "address"
            },
            {
              "internalType": "bytes",
              "name": "linkModuleInitData",
              "type": "bytes"
            },
            {
              "internalType": "address",
              "name": "mintModule",
              "type": "address"
            },
            {
              "internalType": "bytes",
              "name": "mintModuleInitData",
              "type": "bytes"
            },
            {
              "internalType": "bool",
              "name": "locked",
              "type": "bool"
            }
          ],
          "internalType": "struct DataTypes.PostNoteData",
          "name": "postNoteData",
          "type": "tuple"
        },
        {
          "components": [
            {
              "internalType": "uint256",
              "name": "characterId",
              "type": "uint256"
            },
            {
              "internalType": "uint256",
              "name": "noteId",
              "type": "uint256"
            }
          ],
          "internalType": "struct DataTypes.NoteStruct",
          "name": "note",
          "type": "tuple"
        }
      ],
      "name": "postNote4Note",
      "outputs": [
        {
          "internalType": "uint256",
          "name": "",
          "type": "uint256"
        }
      ],
      "stateMutability": "nonpayable",
      "type": "function"
    },
    {
      "inputs": [],
      "name": "resolver",
      "outputs": [
        {
          "internalType": "address",
          "name": "",
          "type": "address"
        }
      ],
      "stateMutability": "view",
      "type": "function"
    },
    {
      "inputs": [
        {
          "internalType": "address",
          "name": "from",
          "type": "address"
        },
        {
          "internalType": "address",
          "name": "to",
          "type": "address"
        },
        {
          "internalType": "uint256",
          "name": "tokenId",
          "type": "uint256"
        }
      ],
      "name": "safeTransferFrom",
      "outputs": [],
      "stateMutability": "nonpayable",
      "type": "function"
    },
    {
      "inputs": [
        {
          "internalType": "address",
          "name": "from",
          "type": "address"
        },
        {
          "internalType": "address",
          "name": "to",
          "type": "address"
        },
        {
          "internalType": "uint256",
          "name": "tokenId",
          "type": "uint256"
        },
        {
          "internalType": "bytes",
          "name": "_data",
          "type": "bytes"
        }
      ],
      "name": "safeTransferFrom",
      "outputs": [],
      "stateMutability": "nonpayable",
      "type": "function"
    },
    {
      "inputs": [
        {
          "internalType": "address",
          "name": "operator",
          "type": "address"
        },
        {
          "internalType": "bool",
          "name": "approved",
          "type": "bool"
        }
      ],
      "name": "setApprovalForAll",
      "outputs": [],
      "stateMutability": "nonpayable",
      "type": "function"
    },
    {
      "inputs": [
        {
          "internalType": "uint256",
          "name": "characterId",
          "type": "uint256"
        },
        {
          "internalType": "string",
          "name": "newUri",
          "type": "string"
        }
      ],
      "name": "setCharacterUri",
      "outputs": [],
      "stateMutability": "nonpayable",
      "type": "function"
    },
    {
      "inputs": [
        {
          "internalType": "uint256",
          "name": "characterId",
          "type": "uint256"
        },
        {
          "internalType": "string",
          "name": "newHandle",
          "type": "string"
        }
      ],
      "name": "setHandle",
      "outputs": [],
      "stateMutability": "nonpayable",
      "type": "function"
    },
    {
      "inputs": [
        {
          "components": [
            {
              "internalType": "address",
              "name": "account",
              "type": "address"
            },
            {
              "internalType": "address",
              "name": "linkModule",
              "type": "address"
            },
            {
              "internalType": "bytes",
              "name": "linkModuleInitData",
              "type": "bytes"
            }
          ],
          "internalType": "struct DataTypes.setLinkModule4AddressData",
          "name": "vars",
          "type": "tuple"
        }
      ],
      "name": "setLinkModule4Address",
      "outputs": [],
      "stateMutability": "nonpayable",
      "type": "function"
    },
    {
      "inputs": [
        {
          "components": [
            {
              "internalType": "uint256",
              "name": "linklistId",
              "type": "uint256"
            },
            {
              "internalType": "address",
              "name": "linkModule",
              "type": "address"
            },
            {
              "internalType": "bytes",
              "name": "linkModuleInitData",
              "type": "bytes"
            }
          ],
          "internalType": "struct DataTypes.setLinkModule4LinklistData",
          "name": "vars",
          "type": "tuple"
        }
      ],
      "name": "setLinkModule4Linklist",
      "outputs": [],
      "stateMutability": "nonpayable",
      "type": "function"
    },
    {
      "inputs": [
        {
          "internalType": "uint256",
          "name": "linklistId",
          "type": "uint256"
        },
        {
          "internalType": "string",
          "name": "uri",
          "type": "string"
        }
      ],
      "name": "setLinklistUri",
      "outputs": [],
      "stateMutability": "nonpayable",
      "type": "function"
    },
    {
      "inputs": [
        {
          "components": [
            {
              "internalType": "uint256",
              "name": "characterId",
              "type": "uint256"
            },
            {
              "internalType": "uint256",
              "name": "noteId",
              "type": "uint256"
            },
            {
              "internalType": "address",
              "name": "mintModule",
              "type": "address"
            },
            {
              "internalType": "bytes",
              "name": "mintModuleInitData",
              "type": "bytes"
            }
          ],
          "internalType": "struct DataTypes.setMintModule4NoteData",
          "name": "vars",
          "type": "tuple"
        }
      ],
      "name": "setMintModule4Note",
      "outputs": [],
      "stateMutability": "nonpayable",
      "type": "function"
    },
    {
      "inputs": [
        {
          "internalType": "uint256",
          "name": "characterId",
          "type": "uint256"
        },
        {
          "internalType": "uint256",
          "name": "noteId",
          "type": "uint256"
        },
        {
          "internalType": "string",
          "name": "newUri",
          "type": "string"
        }
      ],
      "name": "setNoteUri",
      "outputs": [],
      "stateMutability": "nonpayable",
      "type": "function"
    },
    {
      "inputs": [
        {
          "internalType": "uint256",
          "name": "characterId",
          "type": "uint256"
        }
      ],
      "name": "setPrimaryCharacterId",
      "outputs": [],
      "stateMutability": "nonpayable",
      "type": "function"
    },
    {
      "inputs": [
        {
          "internalType": "uint256",
          "name": "characterId",
          "type": "uint256"
        },
        {
          "internalType": "address",
          "name": "tokenAddress",
          "type": "address"
        }
      ],
      "name": "setSocialToken",
      "outputs": [],
      "stateMutability": "nonpayable",
      "type": "function"
    },
    {
      "inputs": [
        {
          "internalType": "bytes4",
          "name": "interfaceId",
          "type": "bytes4"
        }
      ],
      "name": "supportsInterface",
      "outputs": [
        {
          "internalType": "bool",
          "name": "",
          "type": "bool"
        }
      ],
      "stateMutability": "view",
      "type": "function"
    },
    {
      "inputs": [],
      "name": "symbol",
      "outputs": [
        {
          "internalType": "string",
          "name": "",
          "type": "string"
        }
      ],
      "stateMutability": "view",
      "type": "function"
    },
    {
      "inputs": [
        {
          "internalType": "uint256",
          "name": "index",
          "type": "uint256"
        }
      ],
      "name": "tokenByIndex",
      "outputs": [
        {
          "internalType": "uint256",
          "name": "",
          "type": "uint256"
        }
      ],
      "stateMutability": "view",
      "type": "function"
    },
    {
      "inputs": [
        {
          "internalType": "address",
          "name": "owner",
          "type": "address"
        },
        {
          "internalType": "uint256",
          "name": "index",
          "type": "uint256"
        }
      ],
      "name": "tokenOfOwnerByIndex",
      "outputs": [
        {
          "internalType": "uint256",
          "name": "",
          "type": "uint256"
        }
      ],
      "stateMutability": "view",
      "type": "function"
    },
    {
      "inputs": [
        {
          "internalType": "uint256",
          "name": "characterId",
          "type": "uint256"
        }
      ],
      "name": "tokenURI",
      "outputs": [
        {
          "internalType": "string",
          "name": "",
          "type": "string"
        }
      ],
      "stateMutability": "view",
      "type": "function"
    },
    {
      "inputs": [],
      "name": "totalSupply",
      "outputs": [
        {
          "internalType": "uint256",
          "name": "",
          "type": "uint256"
        }
      ],
      "stateMutability": "view",
      "type": "function"
    },
    {
      "inputs": [
        {
          "internalType": "address",
          "name": "from",
          "type": "address"
        },
        {
          "internalType": "address",
          "name": "to",
          "type": "address"
        },
        {
          "internalType": "uint256",
          "name": "tokenId",
          "type": "uint256"
        }
      ],
      "name": "transferFrom",
      "outputs": [],
      "stateMutability": "nonpayable",
      "type": "function"
    },
    {
      "inputs": [
        {
          "components": [
            {
              "internalType": "uint256",
              "name": "fromCharacterId",
              "type": "uint256"
            },
            {
              "internalType": "address",
              "name": "ethAddress",
              "type": "address"
            },
            {
              "internalType": "bytes32",
              "name": "linkType",
              "type": "bytes32"
            }
          ],
          "internalType": "struct DataTypes.unlinkAddressData",
          "name": "vars",
          "type": "tuple"
        }
      ],
      "name": "unlinkAddress",
      "outputs": [],
      "stateMutability": "nonpayable",
      "type": "function"
    },
    {
      "inputs": [
        {
          "components": [
            {
              "internalType": "uint256",
              "name": "fromCharacterId",
              "type": "uint256"
            },
            {
              "internalType": "string",
              "name": "toUri",
              "type": "string"
            },
            {
              "internalType": "bytes32",
              "name": "linkType",
              "type": "bytes32"
            }
          ],
          "internalType": "struct DataTypes.unlinkAnyUriData",
          "name": "vars",
          "type": "tuple"
        }
      ],
      "name": "unlinkAnyUri",
      "outputs": [],
      "stateMutability": "nonpayable",
      "type": "function"
    },
    {
      "inputs": [
        {
          "components": [
            {
              "internalType": "uint256",
              "name": "fromCharacterId",
              "type": "uint256"
            },
            {
              "internalType": "uint256",
              "name": "toCharacterId",
              "type": "uint256"
            },
            {
              "internalType": "bytes32",
              "name": "linkType",
              "type": "bytes32"
            }
          ],
          "internalType": "struct DataTypes.unlinkCharacterData",
          "name": "vars",
          "type": "tuple"
        }
      ],
      "name": "unlinkCharacter",
      "outputs": [],
      "stateMutability": "nonpayable",
      "type": "function"
    },
    {
      "inputs": [
        {
          "components": [
            {
              "internalType": "uint256",
              "name": "fromCharacterId",
              "type": "uint256"
            },
            {
              "internalType": "address",
              "name": "tokenAddress",
              "type": "address"
            },
            {
              "internalType": "uint256",
              "name": "tokenId",
              "type": "uint256"
            },
            {
              "internalType": "bytes32",
              "name": "linkType",
              "type": "bytes32"
            }
          ],
          "internalType": "struct DataTypes.unlinkERC721Data",
          "name": "vars",
          "type": "tuple"
        }
      ],
      "name": "unlinkERC721",
      "outputs": [],
      "stateMutability": "nonpayable",
      "type": "function"
    },
    {
      "inputs": [
        {
          "components": [
            {
              "internalType": "uint256",
              "name": "fromCharacterId",
              "type": "uint256"
            },
            {
              "internalType": "uint256",
              "name": "toLinkListId",
              "type": "uint256"
            },
            {
              "internalType": "bytes32",
              "name": "linkType",
              "type": "bytes32"
            }
          ],
          "internalType": "struct DataTypes.unlinkLinklistData",
          "name": "vars",
          "type": "tuple"
        }
      ],
      "name": "unlinkLinklist",
      "outputs": [],
      "stateMutability": "nonpayable",
      "type": "function"
    },
    {
      "inputs": [
        {
          "components": [
            {
              "internalType": "uint256",
              "name": "fromCharacterId",
              "type": "uint256"
            },
            {
              "internalType": "uint256",
              "name": "toCharacterId",
              "type": "uint256"
            },
            {
              "internalType": "uint256",
              "name": "toNoteId",
              "type": "uint256"
            },
            {
              "internalType": "bytes32",
              "name": "linkType",
              "type": "bytes32"
            }
          ],
          "internalType": "struct DataTypes.unlinkNoteData",
          "name": "vars",
          "type": "tuple"
        }
      ],
      "name": "unlinkNote",
      "outputs": [],
      "stateMutability": "nonpayable",
      "type": "function"
    }
  ],
  "bytecode": "0x608060405234801561001057600080fd5b50615d7180620000216000396000f3fe608060405234801561001057600080fd5b50600436106104335760003560e01c806374f345cf11610236578063c053f6b81161013b578063dc17b6de116100c3578063ef0828ab11610087578063ef0828ab14610a46578063f2ad807514610a59578063f316bacd14610a6c578063f6479d7714610a7f578063fe9299fb14610a9257600080fd5b8063dc17b6de146109be578063dca27135146109d1578063e56f2fe4146109e4578063e985e9c5146109f7578063ec81d19414610a3357600080fd5b8063cd69fe611161010a578063cd69fe611461093a578063d23b320b1461094d578063d70e10c614610960578063dabb05311461098b578063db491e801461099e57600080fd5b8063c053f6b8146108f0578063c2a6fe3b14610901578063c87b56dd14610914578063cb8e757e1461092757600080fd5b80639864c307116101be578063a6e6178d1161018d578063a6e6178d14610891578063a7ccb4bf146108a4578063af90b112146108b7578063b88d4fde146108ca578063b9d32845146108dd57600080fd5b80639864c307146108385780639a4dec181461084b5780639a50248d1461085e578063a22cb4651461087e57600080fd5b806392f7070b1161020557806392f7070b146107c157806393f057e5146107d4578063952be0ef146107e757806395d89b411461081d57806395d9fa7d1461082557600080fd5b806374f345cf14610775578063867884e6146107885780638734bbfc1461079b5780638b4ca06a146107ae57600080fd5b80632f745c591161033c57806347f94de7116102c45780635fb88183116102935780635fb8818314610709578063628b644a1461071c5780636352211e1461072f5780636bf55d5f1461074257806370a082311461076257600080fd5b806347f94de7146106af57806349186953146106c25780634f6ccce7146106e35780635a936d10146106f657600080fd5b8063388f50831161030b578063388f50831461065057806340ad34d81461066357806342842e0e1461067657806342966c681461068957806344b82a241461069c57600080fd5b80632f745c59146105eb57806331b9d08c146105fe578063327b2a031461062a57806333f06ee61461063d57600080fd5b8063144a3e83116103bf5780632209d1451161038e5780632209d1451461055357806323b872dd1461058957806328fbb8051461059c57806329c301c2146105af5780632abc6bf6146105c257600080fd5b8063144a3e831461051257806318160ddd14610525578063188b04b31461052d578063206657f21461054057600080fd5b806308cb68ff1161040657806308cb68ff146104b3578063095ea7b3146104c85780630c4dd5f2146104db5780630ff98244146104ee5780631316529d1461050157600080fd5b806301ffc9a71461043857806304f3bcec1461046057806306fdde031461048b578063081812fc146104a0575b600080fd5b61044b61044636600461460c565b610abb565b60405190151581526020015b60405180910390f35b601754610473906001600160a01b031681565b6040516001600160a01b039091168152602001610457565b610493610ae6565b6040516104579190614681565b6104736104ae366004614694565b610b78565b6104c66104c13660046146c5565b610c12565b005b6104c66104d636600461471e565b610cab565b6104c66104e93660046146c5565b610dc1565b6104c66104fc36600461474a565b610ecb565b60045b604051908152602001610457565b610493610520366004614694565b610fcc565b600854610504565b6104c661053b366004614778565b610fd7565b6104c661054e3660046147ac565b6110d6565b61047361056136600461471e565b6001600160a01b03918216600090815260106020908152604080832093835292905220541690565b6104c66105973660046147e4565b61116e565b61044b6105aa366004614814565b61119f565b6105046105bd36600461485f565b6111b6565b6105046105d0366004614893565b6001600160a01b03166000908152600c602052604090205490565b6105046105f936600461471e565b611264565b61047361060c366004614893565b6001600160a01b039081166000908152601160205260409020541690565b6105046106383660046148c2565b6112fa565b6104c661064b366004614948565b6114bf565b6104c661065e366004614778565b6115a6565b6104c6610671366004614993565b6115fb565b6104c66106843660046147e4565b611677565b6104c6610697366004614694565b611692565b6105046106aa3660046149af565b61172f565b6104c66106bd366004614948565b6117a7565b6106d56106d03660046149f3565b61180e565b604051610457929190614a59565b6105046106f1366004614694565b61187f565b6104c661070436600461474a565b611912565b6104c6610717366004614778565b6119a4565b6104c661072a366004614a7e565b6119f9565b61047361073d366004614694565b611a7c565b610755610750366004614694565b611af3565b6040516104579190614ad0565b610504610770366004614893565b611b0d565b6104c66107833660046149f3565b611b94565b6104c6610796366004614993565b611c0e565b61044b6107a9366004614694565b611c80565b6105046107bc366004614694565b611cae565b6105046107cf366004614ae3565b611d1a565b6104c66107e236600461474a565b611db0565b6105046107f5366004614b34565b60009182526019602090815260408084206001600160a01b0393909316845291905290205490565b610493611e21565b6104c6610833366004614b34565b611e30565b6104c6610846366004614778565b611e89565b6105046108593660046148c2565b611ede565b61087161086c366004614b59565b611fe8565b6040516104579190614b9a565b6104c661088c366004614c26565b612197565b6104c661089f366004614948565b6121a2565b6105046108b2366004614778565b6121ee565b6105046108c53660046149af565b612292565b6104c66108d8366004614d3d565b6122d2565b6104c66108eb366004614dba565b61230a565b6013546001600160a01b0316610473565b6104c661090f3660046149f3565b6123db565b610493610922366004614694565b61244d565b6104c6610935366004614dba565b6124f2565b6104c6610948366004614dba565b612564565b6104c661095b366004614778565b612578565b61050461096e3660046149f3565b6000918252600d6020908152604080842092845291905290205490565b610871610999366004614694565b6125f4565b6109b16109ac3660046149f3565b61277b565b6040516104579190614dee565b6104c66109cc366004614ec8565b6128dc565b6104936109df366004614694565b61296d565b6104c66109f2366004614f4a565b6129df565b61044b610a05366004615004565b6001600160a01b03918216600090815260056020908152604080832093909416825291909152205460ff1690565b610493610a41366004614694565b612b94565b6104c6610a543660046146c5565b612bb4565b6104c6610a67366004614694565b612c25565b610504610a7a366004615032565b612c74565b6104c6610a8d36600461474a565b612dd2565b610473610aa0366004614694565b6000908152600f60205260409020546001600160a01b031690565b60006001600160e01b0319821663780e9d6360e01b1480610ae05750610ae082612e18565b92915050565b606060008054610af59061508d565b80601f0160208091040260200160405190810160405280929190818152602001828054610b219061508d565b8015610b6e5780601f10610b4357610100808354040283529160200191610b6e565b820191906000526020600020905b815481529060010190602001808311610b5157829003601f168201915b5050505050905090565b6000818152600260205260408120546001600160a01b0316610bf65760405162461bcd60e51b815260206004820152602c60248201527f4552433732313a20617070726f76656420717565727920666f72206e6f6e657860448201526b34b9ba32b73a103a37b5b2b760a11b60648201526084015b60405180910390fd5b506000908152600460205260409020546001600160a01b031690565b73__$69db18565ecbefece480e92cc5f8fb1274$__63dfc34f25610c396020840184614893565b610c496040850160208601614893565b610c5660408601866150c2565b60116040518663ffffffff1660e01b8152600401610c78959493929190615131565b60006040518083038186803b158015610c9057600080fd5b505af4158015610ca4573d6000803e3d6000fd5b5050505050565b6000610cb682611a7c565b9050806001600160a01b0316836001600160a01b03161415610d245760405162461bcd60e51b815260206004820152602160248201527f4552433732313a20617070726f76616c20746f2063757272656e74206f776e656044820152603960f91b6064820152608401610bed565b336001600160a01b0382161480610d405750610d408133610a05565b610db25760405162461bcd60e51b815260206004820152603860248201527f4552433732313a20617070726f76652063616c6c6572206973206e6f74206f7760448201527f6e6572206e6f7220617070726f76656420666f7220616c6c00000000000000006064820152608401610bed565b610dbc8383612e68565b505050565b6013546040516367880d6160e11b8152823560048201526000916001600160a01b03169063cf101ac290602401602060405180830381865afa158015610e0b573d6000803e3d6000fd5b505050506040513d601f19601f82011682018060405250810190610e2f9190615170565b9050610e3c8160c1612ed6565b73__$69db18565ecbefece480e92cc5f8fb1274$__636252159e8335610e686040860160208701614893565b610e7560408701876150c2565b600f6040518663ffffffff1660e01b8152600401610e97959493929190615189565b60006040518083038186803b158015610eaf57600080fd5b505af4158015610ec3573d6000803e3d6000fd5b505050505050565b610ed7813560b2612ed6565b6040516331a9108f60e11b81528135600482015273__$e2c9a8f399964af47bb173600dd9e5f662$__90633019fadd9083903090636352211e90602401602060405180830381865afa158015610f31573d6000803e3d6000fd5b505050506040513d601f19601f82011682018060405250810190610f5591906151b4565b60135485356000908152600d60209081526040808320818a0135845282529182902054825160e088901b6001600160e01b031916815286356004820152918601356024830152949091013560448201526001600160a01b0392831660648201529116608482015260a481019190915260c401610c78565b6060610ae08261244d565b610fe3813560b2612ed6565b610ff08160200135612f8f565b73__$e2c9a8f399964af47bb173600dd9e5f662$__63957f8a9882356020840135604085013561102360608701876150c2565b6040516331a9108f60e11b8152883560048201523090636352211e90602401602060405180830381865afa15801561105f573d6000803e3d6000fd5b505050506040513d601f19601f8201168201806040525081019061108391906151b4565b6013546020808b01356000908152600a9091526040908190206005015490516001600160e01b031960e08b901b168152610c78989796959493926001600160a01b03908116921690600d906004016151d1565b6110e1836002612ed6565b604051631f8c0b6760e11b8152600481018490526001600160a01b038316602482015260448101829052601860648201526019608482015273__$bfdcc7011a2e80c167e18378382b8de19c$__90633f1816ce9060a4015b60006040518083038186803b15801561115157600080fd5b505af4158015611165573d6000803e3d6000fd5b50505050505050565b6111783382612fe8565b6111945760405162461bcd60e51b8152600401610bed9061522b565b610dbc8383836130df565b60006111ac848484613286565b90505b9392505050565b60006111c4823560ec612ed6565b81356000908152600a60205260408120600301805482906111e490615292565b91829055506040516342a34a5360e01b815290915073__$2873850e5b3f5697aafc2f5cd9f27cc884$__906342a34a539061122d90869085906000908190600e906004016153b7565b60006040518083038186803b15801561124557600080fd5b505af4158015611259573d6000803e3d6000fd5b509295945050505050565b600061126f83611b0d565b82106112d15760405162461bcd60e51b815260206004820152602b60248201527f455243373231456e756d657261626c653a206f776e657220696e646578206f7560448201526a74206f6620626f756e647360a81b6064820152608401610bed565b506001600160a01b03919091166000908152600660209081526040808320938352929052205490565b6000611308833560ca612ed6565b6113226113186020840184614893565b8360200135613349565b6013546545524337323160d01b906000906001600160a01b0316632ea24efc8261134f6020880188614893565b6040516001600160e01b031960e085901b16815260048101929092526001600160a01b03166024820152602087013560448201526064016020604051808303816000875af11580156113a5573d6000803e3d6000fd5b505050506040513d601f19601f820116820180604052508101906113c99190615170565b85356000908152600a602052604081206003018054929350909182906113ee90615292565b9182905550905073__$2873850e5b3f5697aafc2f5cd9f27cc884$__6342a34a538783868661142060208c018c614893565b8b6020013560405160200161145392919060609290921b6bffffffffffffffffffffffff19168252601482015260340190565b604051602081830303815290604052600e6040518763ffffffff1660e01b8152600401611485969594939291906153fc565b60006040518083038186803b15801561149d57600080fd5b505af41580156114b1573d6000803e3d6000fd5b509298975050505050505050565b6013546040516367880d6160e11b8152600481018590526000916001600160a01b03169063cf101ac290602401602060405180830381865afa158015611509573d6000803e3d6000fd5b505050506040513d601f19601f8201168201806040525081019061152d9190615170565b905061153a8160b1612ed6565b601354604051633c17845760e11b81526001600160a01b039091169063782f08ae9061156e90879087908790600401615447565b600060405180830381600087803b15801561158857600080fd5b505af115801561159c573d6000803e3d6000fd5b5050505050505050565b6115b2813560b9612ed6565b60135460405163e4bb4f2360e01b815273__$e2c9a8f399964af47bb173600dd9e5f662$__9163e4bb4f2391610c789185916001600160a01b0390911690600d90600401615461565b611607813560b6612ed6565b60135460408051635cebf08d60e11b81528335600482015260208401356024820152908301356044820152606083013560648201526001600160a01b039091166084820152600d60a482015273__$e2c9a8f399964af47bb173600dd9e5f662$__9063b9d7e11a9060c401610c78565b610dbc838383604051806020016040528060008152506122d2565b6000818152600a602052604080822090516116b091600101906154cf565b60408051918290039091206000818152600b6020908152838220829055858252600a9052918220828155909250906116eb60018301826144db565b6116f96002830160006144db565b50600060038201556004810180546001600160a01b031990811690915560059091018054909116905561172b826133f9565b5050565b600061173d833560c8612ed6565b82356000908152600a60205260408120600301805467131a5b9adb1a5cdd60c21b9285929091829061176e90615292565b919050819055905073__$2873850e5b3f5697aafc2f5cd9f27cc884$__6342a34a53878386868a60405160200161145391815260200190565b6117b28360b0612ed6565b6000838152600a602052604090206117ce906002018383614515565b50827f17d7c9f69270ba135480ef16837f38b9d37d3ab291cbd3ba03982290c6631997838360405161180192919061556b565b60405180910390a2505050565b6000828152601a602090815260408083208484528252808320805484526001019091529020606090819061184190613458565b6000858152601a60209081526040808320878452825280832060028101548452600301909152902090925061187590613458565b90505b9250929050565b600061188a60085490565b82106118ed5760405162461bcd60e51b815260206004820152602c60248201527f455243373231456e756d657261626c653a20676c6f62616c20696e646578206f60448201526b7574206f6620626f756e647360a01b6064820152608401610bed565b600882815481106119005761190061557f565b90600052602060002001549050919050565b61191e813560be612ed6565b60135481356000818152600d60209081526040808320818701358085529083529281902054905163d862986560e01b8152600481019490945290850135602484015260448301919091526001600160a01b039092166064820152608481019190915273__$e2c9a8f399964af47bb173600dd9e5f662$__9063d86298659060a401610c78565b6119b0813560bb612ed6565b6013546040516332f107bf60e01b815273__$e2c9a8f399964af47bb173600dd9e5f662$__916332f107bf91610c789185916001600160a01b0390911690600d90600401615595565b611a038484613465565b611a0d8484613511565b6040516001626802bf60e01b0319815273__$2873850e5b3f5697aafc2f5cd9f27cc884$__9063ff97fd4190611a50908790879087908790600e90600401615612565b60006040518083038186803b158015611a6857600080fd5b505af415801561159c573d6000803e3d6000fd5b6000818152600260205260408120546001600160a01b031680610ae05760405162461bcd60e51b815260206004820152602960248201527f4552433732313a206f776e657220717565727920666f72206e6f6e657869737460448201526832b73a103a37b5b2b760b91b6064820152608401610bed565b6000818152601860205260409020606090610ae090613458565b60006001600160a01b038216611b785760405162461bcd60e51b815260206004820152602a60248201527f4552433732313a2062616c616e636520717565727920666f7220746865207a65604482015269726f206164647265737360b01b6064820152608401610bed565b506001600160a01b031660009081526003602052604090205490565b611b9f8260c4612ed6565b611ba98282613511565b6000828152600e60209081526040808320848452825291829020600501805460ff60a81b1916600160a81b179055905182815283917f036469f3e73c83520cdefa197d7a9c854c2f8bc0164b82e9f2bd4aa7e150fd3091015b60405180910390a25050565b611c1a813560b8612ed6565b60135481356000908152600d6020908152604080832060608601358452909152908190205490516317e9a8b160e31b815273__$e2c9a8f399964af47bb173600dd9e5f662$__9263bf4d458892610c789286926001600160a01b03169190600401615632565b600080611c8c83611a7c565b6001600160a01b03166000908152600c60205260409020549290921492915050565b60135460405162fba02760e01b8152600481018390526000916001600160a01b03169062fba02790602401602060405180830381865afa158015611cf6573d6000803e3d6000fd5b505050506040513d601f19601f82011682018060405250810190610ae09190615170565b6000611d28833560c7612ed6565b82356000908152600a602052604081206003018054664164647265737360c81b926001600160a01b0386169290918290611d6190615292565b919050819055905073__$2873850e5b3f5697aafc2f5cd9f27cc884$__6342a34a53878386868a604051602001611453919060609190911b6bffffffffffffffffffffffff1916815260140190565b611dbc813560ba612ed6565b60135481356000908152600d6020908152604080832081860135845290915290819020549051633d7f9b3d60e11b815273__$e2c9a8f399964af47bb173600dd9e5f662$__92637aff367a92610c789286926001600160a01b03169190600401615684565b606060018054610af59061508d565b611e3b826001612ed6565b6040516384b44a2f60e01b8152600481018390526001600160a01b0382166024820152600a604482015273__$d8529f0216812a2dec6b96adf1943c3537$__906384b44a2f90606401610e97565b611e95813560bd612ed6565b601354604051635fe5df1d60e11b815273__$e2c9a8f399964af47bb173600dd9e5f662$__9163bfcbbe3a91610c789185916001600160a01b0390911690600d906004016156cc565b6000611eec833560c9612ed6565b601354604051635cb46be760e01b81526000600482018190528435602483015260208501356044830152634e6f746560e01b9290916001600160a01b0390911690635cb46be7906064016020604051808303816000875af1158015611f55573d6000803e3d6000fd5b505050506040513d601f19601f82011682018060405250810190611f799190615170565b85356000908152600a60205260408120600301805492935090918290611f9e90615292565b919050819055905073__$2873850e5b3f5697aafc2f5cd9f27cc884$__6342a34a53878386868a600001358b60200135604051602001611453929190918252602082015260400190565b611ff0614599565b6000838360405161200292919061572c565b604080519182900382206000818152600b602090815283822054808352600a82529184902060c086019094528354855260018401805493965091949392908401919061204d9061508d565b80601f01602080910402602001604051908101604052809291908181526020018280546120799061508d565b80156120c65780601f1061209b576101008083540402835291602001916120c6565b820191906000526020600020905b8154815290600101906020018083116120a957829003601f168201915b505050505081526020016002820180546120df9061508d565b80601f016020809104026020016040519081016040528092919081815260200182805461210b9061508d565b80156121585780601f1061212d57610100808354040283529160200191612158565b820191906000526020600020905b81548152906001019060200180831161213b57829003601f168201915b50505091835250506003820154602082015260048201546001600160a01b03908116604083015260059092015490911660609091015295945050505050565b61172b3383836135c6565b6121ad836000612ed6565b60405163130f361d60e01b815273__$d8529f0216812a2dec6b96adf1943c3537$__9063130f361d9061113990869086908690600b90600a9060040161573c565b60006121ff82356020840135613511565b73__$2873850e5b3f5697aafc2f5cd9f27cc884$__635be69415833560208501356122306060870160408801614893565b61223d60608801886150c2565b6014546040516001600160e01b031960e089901b1681526122759695949392916001600160a01b031690600a90600e9060040161576a565b602060405180830381865af4158015611cf6573d6000803e3d6000fd5b60006122a0833560c6612ed6565b82356000908152600a6020526040812060030180546821b430b930b1ba32b960b91b9285929091829061176e90615292565b6122dc3383612fe8565b6122f85760405162461bcd60e51b8152600401610bed9061522b565b61230484848484613695565b50505050565b612316813560b5612ed6565b61232881602001358260400135613511565b6040516331a9108f60e11b81528135600482015273__$e2c9a8f399964af47bb173600dd9e5f662$__9063018212d19083903090636352211e90602401602060405180830381865afa158015612382573d6000803e3d6000fd5b505050506040513d601f19601f820116820180604052508101906123a691906151b4565b6013546040516001600160e01b031960e086901b168152610c789392916001600160a01b031690600e90600d906004016157b8565b6123e68260c5612ed6565b6123f08282613511565b6000828152600e60209081526040808320848452825291829020600501805460ff60a01b1916600160a01b179055905182815283917f4f1db9708b537c1d26a7af4b235fd079bf2342d92a276e27eb6c8717e8bbcf939101611c02565b6000818152600a6020526040902060020180546060919061246d9061508d565b80601f01602080910402602001604051908101604052809291908181526020018280546124999061508d565b80156124e65780601f106124bb576101008083540402835291602001916124e6565b820191906000526020600020905b8154815290600101906020018083116124c957829003601f168201915b50505050509050919050565b6124fe813560b7612ed6565b61251b6125116040830160208401614893565b8260400135613349565b601354604051638f3334ff60e01b815273__$e2c9a8f399964af47bb173600dd9e5f662$__91638f3334ff91610c789185916001600160a01b0390911690600d90600401615837565b6125756125708261589a565b6136c8565b50565b612584813560c0612ed6565b61259381356020830135613511565b73__$69db18565ecbefece480e92cc5f8fb1274$__6320828a02823560208401356125c46060860160408701614893565b6125d160608701876150c2565b600e6040518763ffffffff1660e01b8152600401610c789695949392919061594d565b6125fc614599565b600a60008381526020019081526020016000206040518060c0016040529081600082015481526020016001820180546126349061508d565b80601f01602080910402602001604051908101604052809291908181526020018280546126609061508d565b80156126ad5780601f10612682576101008083540402835291602001916126ad565b820191906000526020600020905b81548152906001019060200180831161269057829003601f168201915b505050505081526020016002820180546126c69061508d565b80601f01602080910402602001604051908101604052809291908181526020018280546126f29061508d565b801561273f5780601f106127145761010080835404028352916020019161273f565b820191906000526020600020905b81548152906001019060200180831161272257829003601f168201915b50505091835250506003820154602082015260048201546001600160a01b03908116604083015260059092015490911660609091015292915050565b60408051610100808201835260008083526020808401829052606084860181905284018290526080840182905260a0840182905260c0840182905260e08401829052868252600e815284822086835281529084902084519283018552805483526001810154918301919091526002810180549394929391928401916127ff9061508d565b80601f016020809104026020016040519081016040528092919081815260200182805461282b9061508d565b80156128785780601f1061284d57610100808354040283529160200191612878565b820191906000526020600020905b81548152906001019060200180831161285b57829003601f168201915b505050918352505060038201546001600160a01b039081166020830152600483015481166040830152600590920154918216606082015260ff600160a01b8304811615156080830152600160a81b909204909116151560a090910152905092915050565b6128e7866003612ed6565b6128f18686613511565b604051630afb883f60e41b815273__$bfdcc7011a2e80c167e18378382b8de19c$__9063afb883f09061293590899089908990899089908990601a906004016159cc565b60006040518083038186803b15801561294d57600080fd5b505af4158015612961573d6000803e3d6000fd5b50505050505050505050565b601354604051632b05429560e21b8152600481018390526060916001600160a01b03169063ac150a5490602401600060405180830381865afa1580156129b7573d6000803e3d6000fd5b505050506040513d6000823e601f3d908101601f19168201604052610ae09190810190615a14565b601454600160a81b900460ff1615808015612a0757506014546001600160a01b90910460ff16105b80612a285750303b158015612a285750601454600160a01b900460ff166001145b612a8b5760405162461bcd60e51b815260206004820152602e60248201527f496e697469616c697a61626c653a20636f6e747261637420697320616c72656160448201526d191e481a5b9a5d1a585b1a5e995960921b6064820152608401610bed565b6014805460ff60a01b1916600160a01b1790558015612ab8576014805460ff60a81b1916600160a81b1790555b612ac48989898961379d565b601380546001600160a01b03199081166001600160a01b0388811691909117909255601480548216878416179055601580548216868416179055601780549091169184169190911790556040514281527f400175a56dd3710794078f7b9dbe8296ac94c5a248dfd51bb22ed4ab9eaa9fbf9060200160405180910390a18015612b89576014805460ff60a81b19169055604051600181527f7f26b83ff96e1f2b6a682f133852f6798a09c465da95921460cefb38474024989060200160405180910390a15b505050505050505050565b6000818152600a6020526040902060010180546060919061246d9061508d565b612bc0813560bc612ed6565b60135481356000908152600d602090815260408083208186013584529091529081902054905163bf5c00c160e01b815273__$e2c9a8f399964af47bb173600dd9e5f662$__9263bf5c00c192610c789286926001600160a01b03169190600401615a81565b612c2e816137ee565b336000818152600c602052604080822080549085905590519092839285927fce95332e6082aebeb8058a7b56d1a109f67d6550552ed04d36aca4a6acd4d7de9190a45050565b6000612c82843560cb612ed6565b601354604051633610bf0960e11b815265416e7955726960d01b916000916001600160a01b0390911690636c217e1290612cc490849089908990600401615447565b6020604051808303816000875af1158015612ce3573d6000803e3d6000fd5b505050506040513d601f19601f82011682018060405250810190612d079190615170565b86356000908152600a60205260408120600301805492935090918290612d2c90615292565b919050819055905073__$2873850e5b3f5697aafc2f5cd9f27cc884$__6342a34a53888386868b8b604051602001612d6592919061572c565b604051602081830303815290604052600e6040518763ffffffff1660e01b8152600401612d97969594939291906153fc565b60006040518083038186803b158015612daf57600080fd5b505af4158015612dc3573d6000803e3d6000fd5b50929998505050505050505050565b612dde813560b4612ed6565b6125758135612df36040840160208501614893565b836040013560405180604001604052806002815260200161060f60f31b81525061386f565b60006001600160e01b031982166380ac58cd60e01b1480612e4957506001600160e01b03198216635b5e139f60e01b145b80610ae057506301ffc9a760e01b6001600160e01b0319831614610ae0565b600081815260046020526040902080546001600160a01b0319166001600160a01b0384169081179091558190612e9d82611a7c565b6001600160a01b03167f8c5be1e5ebec7d5bd14f71427d1e84f3dd0314c0f7b2291e5b200ac8c7c3b92560405160405180910390a45050565b6000612ee183611a7c565b9050336001600160a01b0382161415612ef957505050565b326001600160a01b038216148015612f1b57506015546001600160a01b031633145b15612f2557505050565b6000838152601960209081526040808320338452909152902054600190831c81161415612f5157505050565b60405162461bcd60e51b81526020600482015260136024820152722737ba22b737bab3b42832b936b4b9b9b4b7b760691b6044820152606401610bed565b6000818152600260205260409020546001600160a01b03166125755760405162461bcd60e51b81526020600482015260126024820152714368617261637465724e6f7445786973747360701b6044820152606401610bed565b6000818152600260205260408120546001600160a01b03166130615760405162461bcd60e51b815260206004820152602c60248201527f4552433732313a206f70657261746f7220717565727920666f72206e6f6e657860448201526b34b9ba32b73a103a37b5b2b760a11b6064820152608401610bed565b600061306c83611a7c565b9050806001600160a01b0316846001600160a01b031614806130a75750836001600160a01b031661309c84610b78565b6001600160a01b0316145b806130d757506001600160a01b0380821660009081526005602090815260408083209388168352929052205460ff165b949350505050565b826001600160a01b03166130f282611a7c565b6001600160a01b0316146131565760405162461bcd60e51b815260206004820152602560248201527f4552433732313a207472616e736665722066726f6d20696e636f72726563742060448201526437bbb732b960d91b6064820152608401610bed565b6001600160a01b0382166131b85760405162461bcd60e51b8152602060048201526024808201527f4552433732313a207472616e7366657220746f20746865207a65726f206164646044820152637265737360e01b6064820152608401610bed565b6131c3838383613aec565b6131ce600082612e68565b6001600160a01b03831660009081526003602052604081208054600192906131f7908490615ad9565b90915550506001600160a01b0382166000908152600360205260408120805460019290613225908490615af0565b909155505060008181526002602052604080822080546001600160a01b0319166001600160a01b0386811691821790925591518493918716917fddf252ad1be2c89b69c2b068fc378daa952ba7f163c4a11628f55a4df523b3ef91a4505050565b6000838152601a6020908152604080832085845282528083208054808552600190910190925282206132b89084613c10565b156132c75760009150506111af565b506000848152601a602090815260408083208684528252808320600281015480855260039091019092529091206132fe9084613c10565b1561330d5760019150506111af565b60008581526019602090815260408083206001600160a01b03871684529091529020546133409060c31c60019081161490565b95945050505050565b6040516331a9108f60e11b8152600481018290526001600160a01b03831690636352211e90602401602060405180830381865afa15801561338e573d6000803e3d6000fd5b505050506040513d601f19601f820116820180604052508101906133b291906151b4565b6001600160a01b031661172b5760405162461bcd60e51b815260206004820152600f60248201526e5245433732314e6f7445786973747360881b6044820152606401610bed565b6134033382612fe8565b61344f5760405162461bcd60e51b815260206004820152601b60248201527f4e4654426173653a204e6f744f776e65724f72417070726f76656400000000006044820152606401610bed565b61257581613c32565b606060006111af83613cd9565b600061347083611a7c565b9050336001600160a01b038216141561348857505050565b326001600160a01b0382161480156134aa57506015546001600160a01b031633145b156134b457505050565b6134bf838333613286565b156134c957505050565b60405162461bcd60e51b815260206004820152601e60248201527f4e6f74456e6f7567685065726d697373696f6e466f72546869734e6f746500006044820152606401610bed565b6000828152600e60209081526040808320848452909152902060050154600160a01b900460ff16156135755760405162461bcd60e51b815260206004820152600d60248201526c139bdd19525cd1195b195d1959609a1b6044820152606401610bed565b6000828152600a602052604090206003015481111561172b5760405162461bcd60e51b815260206004820152600d60248201526c4e6f74654e6f7445786973747360981b6044820152606401610bed565b816001600160a01b0316836001600160a01b031614156136285760405162461bcd60e51b815260206004820152601960248201527f4552433732313a20617070726f766520746f2063616c6c6572000000000000006044820152606401610bed565b6001600160a01b03838116600081815260056020908152604080832094871680845294825291829020805460ff191686151590811790915591519182527f17307eab39ab6107e8899845ad3d59bd9653f200f220920489ca2b5937696c31910160405180910390a3505050565b6136a08484846130df565b6136ac84848484613d34565b6123045760405162461bcd60e51b8152600401610bed90615b08565b60006012600081546136d990615292565b918290555082519091506136ed9082613e32565b604051632902741560e01b815273__$d8529f0216812a2dec6b96adf1943c3537$__9063290274159061372f9085906001908690600b90600a90600401615b5a565b60006040518083038186803b15801561374757600080fd5b505af415801561375b573d6000803e3d6000fd5b505083516001600160a01b03166000908152600c60205260409020541515915061172b90505790516001600160a01b03166000908152600c6020526040902055565b6137a984848484613e4c565b7f414cd0b34676984f09a5f76ce9718d4062e50283abe0e7e274a9a5b4e0c99c3084848484426040516137e0959493929190615c03565b60405180910390a150505050565b60006137f982611a7c565b9050336001600160a01b038216148061382f5750326001600160a01b03821614801561382f57506015546001600160a01b031633145b61172b5760405162461bcd60e51b81526020600482015260116024820152702737ba21b430b930b1ba32b927bbb732b960791b6044820152606401610bed565b6001600160a01b0383166000908152600c6020526040902054156138eb5760405162461bcd60e51b815260206004820152602d60248201527f546172676574206164647265737320616c726561647920686173207072696d6160448201526c393c9031b430b930b1ba32b91760991b6064820152608401610bed565b60006012600081546138fc90615292565b9182905550905061390d8482613e32565b73__$d8529f0216812a2dec6b96adf1943c3537$__63290274156040518060a00160405280876001600160a01b03168152602001613955886001600160a01b03166014613e65565b815260200160405180602001604052806000815250815260200160006001600160a01b0316815260200160405180602001604052806000815250815250600084600b600a6040518663ffffffff1660e01b81526004016139b9959493929190615b5a565b60006040518083038186803b1580156139d157600080fd5b505af41580156139e5573d6000803e3d6000fd5b505050506001600160a01b0384166000908152600c602052604090819020829055516331a9108f60e11b81526004810186905273__$e2c9a8f399964af47bb173600dd9e5f662$__9063957f8a989087908490879087903090636352211e90602401602060405180830381865afa158015613a64573d6000803e3d6000fd5b505050506040513d601f19601f82011682018060405250810190613a8891906151b4565b6013546040516001600160e01b031960e089901b168152613ac09695949392916001600160a01b031690600090600d90600401615c3d565b60006040518083038186803b158015613ad857600080fd5b505af4158015612b89573d6000803e3d6000fd5b6000818152601860205260408120613b0390614000565b600083815260186020526040812091925090613b1e90613458565b905060005b82811015613bcc57600084815260196020526040812083518290859085908110613b4f57613b4f61557f565b60200260200101516001600160a01b03166001600160a01b0316815260200190815260200160002081905550613bb9828281518110613b9057613b9061557f565b60200260200101516018600087815260200190815260200160002061400a90919063ffffffff16565b5080613bc481615292565b915050613b23565b506001600160a01b0385166000908152600c602052604090205415613c05576001600160a01b0385166000908152600c60205260408120555b610ca485858561401f565b6001600160a01b038116600090815260018301602052604081205415156111af565b6000613c3d82611a7c565b9050613c4b81600084613aec565b613c56600083612e68565b6001600160a01b0381166000908152600360205260408120805460019290613c7f908490615ad9565b909155505060008281526002602052604080822080546001600160a01b0319169055518391906001600160a01b038416907fddf252ad1be2c89b69c2b068fc378daa952ba7f163c4a11628f55a4df523b3ef908390a45050565b6060816000018054806020026020016040519081016040528092919081815260200182805480156124e657602002820191906000526020600020905b815481526020019060010190808311613d155750505050509050919050565b60006001600160a01b0384163b15613e2757604051630a85bd0160e11b81526001600160a01b0385169063150b7a0290613d78903390899088908890600401615c95565b6020604051808303816000875af1925050508015613db3575060408051601f3d908101601f19168201909252613db091810190615cd2565b60015b613e0d573d808015613de1576040519150601f19603f3d011682016040523d82523d6000602084013e613de6565b606091505b508051613e055760405162461bcd60e51b8152600401610bed90615b08565b805181602001fd5b6001600160e01b031916630a85bd0160e11b1490506130d7565b506001949350505050565b61172b8282604051806020016040528060008152506140d7565b613e5860008585614515565b50610ca460018383614515565b60606000613e74836002615cef565b613e7f906002615af0565b6001600160401b03811115613e9657613e96614c52565b6040519080825280601f01601f191660200182016040528015613ec0576020820181803683370190505b509050600360fc1b81600081518110613edb57613edb61557f565b60200101906001600160f81b031916908160001a905350600f60fb1b81600181518110613f0a57613f0a61557f565b60200101906001600160f81b031916908160001a9053506000613f2e846002615cef565b613f39906001615af0565b90505b6001811115613fb1576f181899199a1a9b1b9c1cb0b131b232b360811b85600f1660108110613f6d57613f6d61557f565b1a60f81b828281518110613f8357613f8361557f565b60200101906001600160f81b031916908160001a90535060049490941c93613faa81615d0e565b9050613f3c565b5083156111af5760405162461bcd60e51b815260206004820181905260248201527f537472696e67733a20686578206c656e67746820696e73756666696369656e746044820152606401610bed565b6000610ae0825490565b60006111af836001600160a01b03841661410a565b6001600160a01b03831661407a5761407581600880546000838152600960205260408120829055600182018355919091527ff3f7a9fe364faab93b216da50a3214154f22a0a2b415b23a84c8169e8b636ee30155565b61409d565b816001600160a01b0316836001600160a01b03161461409d5761409d83826141fd565b6001600160a01b0382166140b457610dbc8161429a565b826001600160a01b0316826001600160a01b031614610dbc57610dbc8282614349565b6140e1838361438d565b6140ee6000848484613d34565b610dbc5760405162461bcd60e51b8152600401610bed90615b08565b600081815260018301602052604081205480156141f357600061412e600183615ad9565b855490915060009061414290600190615ad9565b90508181146141a75760008660000182815481106141625761416261557f565b90600052602060002001549050808760000184815481106141855761418561557f565b6000918252602080832090910192909255918252600188019052604090208390555b85548690806141b8576141b8615d25565b600190038181906000526020600020016000905590558560010160008681526020019081526020016000206000905560019350505050610ae0565b6000915050610ae0565b6000600161420a84611b0d565b6142149190615ad9565b600083815260076020526040902054909150808214614267576001600160a01b03841660009081526006602090815260408083208584528252808320548484528184208190558352600790915290208190555b5060009182526007602090815260408084208490556001600160a01b039094168352600681528383209183525290812055565b6008546000906142ac90600190615ad9565b600083815260096020526040812054600880549394509092849081106142d4576142d461557f565b9060005260206000200154905080600883815481106142f5576142f561557f565b600091825260208083209091019290925582815260099091526040808220849055858252812055600880548061432d5761432d615d25565b6001900381819060005260206000200160009055905550505050565b600061435483611b0d565b6001600160a01b039093166000908152600660209081526040808320868452825280832085905593825260079052919091209190915550565b6001600160a01b0382166143e35760405162461bcd60e51b815260206004820181905260248201527f4552433732313a206d696e7420746f20746865207a65726f20616464726573736044820152606401610bed565b6000818152600260205260409020546001600160a01b0316156144485760405162461bcd60e51b815260206004820152601c60248201527f4552433732313a20746f6b656e20616c7265616479206d696e746564000000006044820152606401610bed565b61445460008383613aec565b6001600160a01b038216600090815260036020526040812080546001929061447d908490615af0565b909155505060008181526002602052604080822080546001600160a01b0319166001600160a01b03861690811790915590518392907fddf252ad1be2c89b69c2b068fc378daa952ba7f163c4a11628f55a4df523b3ef908290a45050565b5080546144e79061508d565b6000825580601f106144f7575050565b601f01602090049060005260206000209081019061257591906145e1565b8280546145219061508d565b90600052602060002090601f0160209004810192826145435760008555614589565b82601f1061455c5782800160ff19823516178555614589565b82800160010185558215614589579182015b8281111561458957823582559160200191906001019061456e565b506145959291506145e1565b5090565b6040518060c001604052806000815260200160608152602001606081526020016000815260200160006001600160a01b0316815260200160006001600160a01b031681525090565b5b8082111561459557600081556001016145e2565b6001600160e01b03198116811461257557600080fd5b60006020828403121561461e57600080fd5b81356111af816145f6565b60005b8381101561464457818101518382015260200161462c565b838111156123045750506000910152565b6000815180845261466d816020860160208601614629565b601f01601f19169290920160200192915050565b6020815260006111af6020830184614655565b6000602082840312156146a657600080fd5b5035919050565b6000606082840312156146bf57600080fd5b50919050565b6000602082840312156146d757600080fd5b81356001600160401b038111156146ed57600080fd5b6130d7848285016146ad565b6001600160a01b038116811461257557600080fd5b8035614719816146f9565b919050565b6000806040838503121561473157600080fd5b823561473c816146f9565b946020939093013593505050565b60006060828403121561475c57600080fd5b6111af83836146ad565b6000608082840312156146bf57600080fd5b60006020828403121561478a57600080fd5b81356001600160401b038111156147a057600080fd5b6130d784828501614766565b6000806000606084860312156147c157600080fd5b8335925060208401356147d3816146f9565b929592945050506040919091013590565b6000806000606084860312156147f957600080fd5b8335614804816146f9565b925060208401356147d3816146f9565b60008060006060848603121561482957600080fd5b83359250602084013591506040840135614842816146f9565b809150509250925092565b600060e082840312156146bf57600080fd5b60006020828403121561487157600080fd5b81356001600160401b0381111561488757600080fd5b6130d78482850161484d565b6000602082840312156148a557600080fd5b81356111af816146f9565b6000604082840312156146bf57600080fd5b600080606083850312156148d557600080fd5b82356001600160401b038111156148eb57600080fd5b6148f78582860161484d565b92505061187584602085016148b0565b60008083601f84011261491957600080fd5b5081356001600160401b0381111561493057600080fd5b60208301915083602082850101111561187857600080fd5b60008060006040848603121561495d57600080fd5b8335925060208401356001600160401b0381111561497a57600080fd5b61498686828701614907565b9497909650939450505050565b6000608082840312156149a557600080fd5b6111af8383614766565b600080604083850312156149c257600080fd5b82356001600160401b038111156149d857600080fd5b6149e48582860161484d565b95602094909401359450505050565b60008060408385031215614a0657600080fd5b50508035926020909101359150565b600081518084526020808501945080840160005b83811015614a4e5781516001600160a01b031687529582019590820190600101614a29565b509495945050505050565b604081526000614a6c6040830185614a15565b82810360208401526133408185614a15565b60008060008060608587031215614a9457600080fd5b843593506020850135925060408501356001600160401b03811115614ab857600080fd5b614ac487828801614907565b95989497509550505050565b6020815260006111af6020830184614a15565b60008060408385031215614af657600080fd5b82356001600160401b03811115614b0c57600080fd5b614b188582860161484d565b9250506020830135614b29816146f9565b809150509250929050565b60008060408385031215614b4757600080fd5b823591506020830135614b29816146f9565b60008060208385031215614b6c57600080fd5b82356001600160401b03811115614b8257600080fd5b614b8e85828601614907565b90969095509350505050565b60208152815160208201526000602083015160c06040840152614bc060e0840182614655565b90506040840151601f19848303016060850152614bdd8282614655565b91505060608401516080840152608084015160018060a01b0380821660a08601528060a08701511660c086015250508091505092915050565b8035801515811461471957600080fd5b60008060408385031215614c3957600080fd5b8235614c44816146f9565b915061187560208401614c16565b634e487b7160e01b600052604160045260246000fd5b60405160a081016001600160401b0381118282101715614c8a57614c8a614c52565b60405290565b604051601f8201601f191681016001600160401b0381118282101715614cb857614cb8614c52565b604052919050565b60006001600160401b03821115614cd957614cd9614c52565b50601f01601f191660200190565b600082601f830112614cf857600080fd5b8135614d0b614d0682614cc0565b614c90565b818152846020838601011115614d2057600080fd5b816020850160208301376000918101602001919091529392505050565b60008060008060808587031215614d5357600080fd5b8435614d5e816146f9565b93506020850135614d6e816146f9565b92506040850135915060608501356001600160401b03811115614d9057600080fd5b614d9c87828801614ce7565b91505092959194509250565b600060a082840312156146bf57600080fd5b600060208284031215614dcc57600080fd5b81356001600160401b03811115614de257600080fd5b6130d784828501614da8565b60208152815160208201526020820151604082015260006040830151610100806060850152614e21610120850183614655565b9150606085015160018060a01b0380821660808701528060808801511660a0870152505060a0850151614e5f60c08601826001600160a01b03169052565b5060c085015180151560e08601525060e0850151801515858301525090949350505050565b60008083601f840112614e9657600080fd5b5081356001600160401b03811115614ead57600080fd5b6020830191508360208260051b850101111561187857600080fd5b60008060008060008060808789031215614ee157600080fd5b863595506020870135945060408701356001600160401b0380821115614f0657600080fd5b614f128a838b01614e84565b90965094506060890135915080821115614f2b57600080fd5b50614f3889828a01614e84565b979a9699509497509295939492505050565b60008060008060008060008060c0898b031215614f6657600080fd5b88356001600160401b0380821115614f7d57600080fd5b614f898c838d01614907565b909a50985060208b0135915080821115614fa257600080fd5b50614faf8b828c01614907565b9097509550506040890135614fc3816146f9565b93506060890135614fd3816146f9565b92506080890135614fe3816146f9565b915060a0890135614ff3816146f9565b809150509295985092959890939650565b6000806040838503121561501757600080fd5b8235615022816146f9565b91506020830135614b29816146f9565b60008060006040848603121561504757600080fd5b83356001600160401b038082111561505e57600080fd5b61506a8783880161484d565b9450602086013591508082111561508057600080fd5b5061498686828701614907565b600181811c908216806150a157607f821691505b602082108114156146bf57634e487b7160e01b600052602260045260246000fd5b6000808335601e198436030181126150d957600080fd5b8301803591506001600160401b038211156150f357600080fd5b60200191503681900382131561187857600080fd5b81835281816020850137506000828201602090810191909152601f909101601f19169091010190565b6001600160a01b0386811682528516602082015260806040820181905260009061515e9083018587615108565b90508260608301529695505050505050565b60006020828403121561518257600080fd5b5051919050565b8581526001600160a01b038516602082015260806040820181905260009061515e9083018587615108565b6000602082840312156151c657600080fd5b81516111af816146f9565b60006101008b83528a60208401528960408401528060608401526151f8818401898b615108565b6001600160a01b03978816608085015295871660a084015250509190931660c082015260e0019190915295945050505050565b60208082526031908201527f4552433732313a207472616e736665722063616c6c6572206973206e6f74206f6040820152701ddb995c881b9bdc88185c1c1c9bdd9959607a1b606082015260800190565b634e487b7160e01b600052601160045260246000fd5b60006000198214156152a6576152a661527c565b5060010190565b6000808335601e198436030181126152c457600080fd5b83016020810192503590506001600160401b038111156152e357600080fd5b80360383131561187857600080fd5b80358252600061530560208301836152ad565b60e0602086015261531a60e086018284615108565b915050604083013561532b816146f9565b6001600160a01b03818116604087015261534860608601866152ad565b9250868403606088015261535d848483615108565b93505060808501359150615370826146f9565b16608085015261538360a08401846152ad565b85830360a0870152615396838284615108565b925050506153a660c08401614c16565b151560c08501528091505092915050565b60c0815260006153ca60c08301886152f2565b602083810197909752604083019590955250606081019290925281830360808301526000835260a09091015201919050565b60c08152600061540f60c08301896152f2565b87602084015286604084015285606084015282810360808401526154338186614655565b9150508260a0830152979650505050505050565b838152604060208201526000613340604083018486615108565b60608152833560608201526000602085013561547c816146f9565b6001600160a01b038181166080850152604087013560a08501526154a360608801886152ad565b9250608060c08601526154ba60e086018483615108565b96909116602085015250505060400152919050565b600080835481600182811c9150808316806154eb57607f831692505b602080841082141561550b57634e487b7160e01b86526022600452602486fd5b81801561551f57600181146155305761555d565b60ff1986168952848901965061555d565b60008a81526020902060005b868110156155555781548b82015290850190830161553c565b505084890196505b509498975050505050505050565b6020815260006111ac602083018486615108565b634e487b7160e01b600052603260045260246000fd5b606081528335606082015260006155af60208601866152ad565b6080808501526155c360e085018284615108565b915050604086013560a08401526155dd60608701876152ad565b848303605f190160c08601526155f4838284615108565b6001600160a01b039790971660208601525050505060400152919050565b85815284602082015260806040820152600061515e608083018587615108565b8335815260c081016020850135615648816146f9565b6001600160a01b039081166020840152604086810135908401526060958601359583019590955292909316608084015260a09092019190915290565b8335815260a08101602085013561569a816146f9565b6001600160a01b0390811660208401526040958601359583019590955292909316606084015260809092019190915290565b606081528335606082015260208401356080820152604084013560a082015260006156fa60608601866152ad565b608060c085015261570f60e085018284615108565b6001600160a01b0396909616602085015250505060400152919050565b8183823760009101908152919050565b858152608060208201526000615756608083018688615108565b604083019490945250606001529392505050565b888152876020820152600060018060a01b03808916604084015260e0606084015261579960e08401888a615108565b951660808301525060a081019290925260c09091015295945050505050565b60a08152853560a0820152602086013560c0820152604086013560e0820152606086013561010082015260006157f160808801886152ad565b60a061012085015261580861014085018284615108565b6001600160a01b0398891660208601529690971660408401525050606081019290925260809091015292915050565b606081528335606082015260006020850135615852816146f9565b60018060a01b038082166080850152604087013560a0850152606087013560c085015261588260808801886152ad565b925060a060e08601526154ba61010086018483615108565b600060a082360312156158ac57600080fd5b6158b4614c68565b6158bd8361470e565b815260208301356001600160401b03808211156158d957600080fd5b6158e536838701614ce7565b602084015260408501359150808211156158fe57600080fd5b61590a36838701614ce7565b604084015261591b6060860161470e565b6060840152608085013591508082111561593457600080fd5b5061594136828601614ce7565b60808301525092915050565b86815285602082015260018060a01b038516604082015260a06060820152600061597b60a083018587615108565b9050826080830152979650505050505050565b8183526000602080850194508260005b85811015614a4e5781356159b1816146f9565b6001600160a01b03168752958201959082019060010161599e565b87815286602082015260a0604082015260006159ec60a08301878961598e565b82810360608401526159ff81868861598e565b91505082608083015298975050505050505050565b600060208284031215615a2657600080fd5b81516001600160401b03811115615a3c57600080fd5b8201601f81018413615a4d57600080fd5b8051615a5b614d0682614cc0565b818152856020838501011115615a7057600080fd5b613340826020830160208601614629565b60608152833560608201526000615a9b60208601866152ad565b60606080850152615ab060c085018284615108565b60409788013560a08601526001600160a01b039690961660208501525050509092019190915290565b600082821015615aeb57615aeb61527c565b500390565b60008219821115615b0357615b0361527c565b500190565b60208082526032908201527f4552433732313a207472616e7366657220746f206e6f6e20455243373231526560408201527131b2b4bb32b91034b6b83632b6b2b73a32b960711b606082015260800190565b60a08152600060018060a01b038088511660a0840152602088015160a060c0850152615b8a610140850182614655565b90506040890151609f19808684030160e0870152615ba88383614655565b92508360608c01511661010087015260808b0151935080868403016101208701525050615bd58183614655565b92505050615be7602083018715159052565b8460408301528360608301528260808301529695505050505050565b606081526000615c17606083018789615108565b8281036020840152615c2a818688615108565b9150508260408301529695505050505050565b60006101008a8352896020840152886040840152806060840152615c6381840189614655565b6001600160a01b03978816608085015295871660a084015250509190931660c082015260e00191909152949350505050565b6001600160a01b0385811682528416602082015260408101839052608060608201819052600090615cc890830184614655565b9695505050505050565b600060208284031215615ce457600080fd5b81516111af816145f6565b6000816000190483118215151615615d0957615d0961527c565b500290565b600081615d1d57615d1d61527c565b506000190190565b634e487b7160e01b600052603160045260246000fdfea2646970667358221220990b8597f233e68cc07bc5f708adfd09d3e81b0e0680d3b40724565c1c64e34464736f6c634300080a0033",
  "linkReferences": {
    "contracts/libraries/CharacterLogic.sol": {
      "CharacterLogic": [
        {
          "length": 20,
          "start": 7816
        },
        {
          "length": 20,
          "start": 8669
        },
        {
          "length": 20,
          "start": 14109
        },
        {
          "length": 20,
          "start": 14640
        }
      ]
    },
    "contracts/libraries/LinkLogic.sol": {
      "LinkLogic": [
        {
          "length": 20,
          "start": 3854
        },
        {
          "length": 20,
          "start": 4115
        },
        {
          "length": 20,
          "start": 5605
        },
        {
          "length": 20,
          "start": 5750
        },
        {
          "length": 20,
          "start": 6563
        },
        {
          "length": 20,
          "start": 6627
        },
        {
          "length": 20,
          "start": 7278
        },
        {
          "length": 20,
          "start": 7695
        },
        {
          "length": 20,
          "start": 7880
        },
        {
          "length": 20,
          "start": 9055
        },
        {
          "length": 20,
          "start": 9550
        },
        {
          "length": 20,
          "start": 11283
        },
        {
          "length": 20,
          "start": 14907
        }
      ]
    },
    "contracts/libraries/LinkModuleLogic.sol": {
      "LinkModuleLogic": [
        {
          "length": 20,
          "start": 3125
        },
        {
          "length": 20,
          "start": 3679
        },
        {
          "length": 20,
          "start": 9654
        }
      ]
    },
    "contracts/libraries/OperatorLogic.sol": {
      "OperatorLogic": [
        {
          "length": 20,
          "start": 4412
        },
        {
          "length": 20,
          "start": 10529
        }
      ]
    },
    "contracts/libraries/PostLogic.sol": {
      "PostLogic": [
        {
          "length": 20,
          "start": 4636
        },
        {
          "length": 20,
          "start": 5144
        },
        {
          "length": 20,
          "start": 6041
        },
        {
          "length": 20,
          "start": 6720
        },
        {
          "length": 20,
          "start": 7564
        },
        {
          "length": 20,
          "start": 8137
        },
        {
          "length": 20,
          "start": 8738
        },
        {
          "length": 20,
          "start": 11607
        }
      ]
    }
  },
  "deployedLinkReferences": {
    "contracts/libraries/CharacterLogic.sol": {
      "CharacterLogic": [
        {
          "length": 20,
          "start": 7783
        },
        {
          "length": 20,
          "start": 8636
        },
        {
          "length": 20,
          "start": 14076
        },
        {
          "length": 20,
          "start": 14607
        }
      ]
    },
    "contracts/libraries/LinkLogic.sol": {
      "LinkLogic": [
        {
          "length": 20,
          "start": 3821
        },
        {
          "length": 20,
          "start": 4082
        },
        {
          "length": 20,
          "start": 5572
        },
        {
          "length": 20,
          "start": 5717
        },
        {
          "length": 20,
          "start": 6530
        },
        {
          "length": 20,
          "start": 6594
        },
        {
          "length": 20,
          "start": 7245
        },
        {
          "length": 20,
          "start": 7662
        },
        {
          "length": 20,
          "start": 7847
        },
        {
          "length": 20,
          "start": 9022
        },
        {
          "length": 20,
          "start": 9517
        },
        {
          "length": 20,
          "start": 11250
        },
        {
          "length": 20,
          "start": 14874
        }
      ]
    },
    "contracts/libraries/LinkModuleLogic.sol": {
      "LinkModuleLogic": [
        {
          "length": 20,
          "start": 3092
        },
        {
          "length": 20,
          "start": 3646
        },
        {
          "length": 20,
          "start": 9621
        }
      ]
    },
    "contracts/libraries/OperatorLogic.sol": {
      "OperatorLogic": [
        {
          "length": 20,
          "start": 4379
        },
        {
          "length": 20,
          "start": 10496
        }
      ]
    },
    "contracts/libraries/PostLogic.sol": {
      "PostLogic": [
        {
          "length": 20,
          "start": 4603
        },
        {
          "length": 20,
          "start": 5111
        },
        {
          "length": 20,
          "start": 6008
        },
        {
          "length": 20,
          "start": 6687
        },
        {
          "length": 20,
          "start": 7531
        },
        {
          "length": 20,
          "start": 8104
        },
        {
          "length": 20,
          "start": 8705
        },
        {
          "length": 20,
          "start": 11574
        }
      ]
    }
  }
}