{
    "_format": "hh-sol-artifact-1",
    "contractName": "Web3Entry",
    "sourceName": "contracts/Web3Entry.sol",
    "abi": [
        {
            "anonymous": false,
            "inputs": [
                {
                    "indexed": true,
                    "internalType": "address",
                    "name": "owner",
                    "type": "address"
                },
                {
                    "indexed": true,
                    "internalType": "address",
                    "name": "approved",
                    "type": "address"
                },
                {
                    "indexed": true,
                    "internalType": "uint256",
                    "name": "tokenId",
                    "type": "uint256"
                }
            ],
            "name": "Approval",
            "type": "event"
        },
        {
            "anonymous": false,
            "inputs": [
                {
                    "indexed": true,
                    "internalType": "address",
                    "name": "owner",
                    "type": "address"
                },
                {
                    "indexed": true,
                    "internalType": "address",
                    "name": "operator",
                    "type": "address"
                },
                {
                    "indexed": false,
                    "internalType": "bool",
                    "name": "approved",
                    "type": "bool"
                }
            ],
            "name": "ApprovalForAll",
            "type": "event"
        },
        {
            "anonymous": false,
            "inputs": [
                {
                    "indexed": true,
                    "internalType": "address",
                    "name": "from",
                    "type": "address"
                },
                {
                    "indexed": true,
                    "internalType": "address",
                    "name": "to",
                    "type": "address"
                },
                {
                    "indexed": true,
                    "internalType": "uint256",
                    "name": "tokenId",
                    "type": "uint256"
                }
            ],
            "name": "Transfer",
            "type": "event"
        },
        {
            "inputs": [
                {
                    "internalType": "address",
                    "name": "to",
                    "type": "address"
                },
                {
                    "internalType": "uint256",
                    "name": "tokenId",
                    "type": "uint256"
                }
            ],
            "name": "approve",
            "outputs": [],
            "stateMutability": "nonpayable",
            "type": "function"
        },
        {
            "inputs": [
                {
                    "internalType": "uint256",
                    "name": "linklistId",
                    "type": "uint256"
                },
                {
                    "internalType": "uint256",
                    "name": "profileId",
                    "type": "uint256"
                }
            ],
            "name": "attachLinklist",
            "outputs": [],
            "stateMutability": "nonpayable",
            "type": "function"
        },
        {
            "inputs": [
                {
                    "internalType": "address",
                    "name": "owner",
                    "type": "address"
                }
            ],
            "name": "balanceOf",
            "outputs": [
                {
                    "internalType": "uint256",
                    "name": "",
                    "type": "uint256"
                }
            ],
            "stateMutability": "view",
            "type": "function"
        },
        {
            "inputs": [
                {
                    "internalType": "uint256",
                    "name": "tokenId",
                    "type": "uint256"
                }
            ],
            "name": "burn",
            "outputs": [],
            "stateMutability": "nonpayable",
            "type": "function"
        },
        {
            "inputs": [
                {
                    "internalType": "string",
                    "name": "handle",
                    "type": "string"
                },
                {
                    "internalType": "address",
                    "name": "account",
                    "type": "address"
                }
            ],
            "name": "canCreate",
            "outputs": [
                {
                    "internalType": "bool",
                    "name": "",
                    "type": "bool"
                }
            ],
            "stateMutability": "view",
            "type": "function"
        },
        {
            "inputs": [
                {
                    "components": [
                        {
                            "internalType": "address",
                            "name": "to",
                            "type": "address"
                        },
                        {
                            "internalType": "string",
                            "name": "handle",
                            "type": "string"
                        },
                        {
                            "internalType": "string",
                            "name": "uri",
                            "type": "string"
                        },
                        {
                            "internalType": "address",
                            "name": "linkModule",
                            "type": "address"
                        },
                        {
                            "internalType": "bytes",
                            "name": "linkModuleInitData",
                            "type": "bytes"
                        }
                    ],
                    "internalType": "struct DataTypes.CreateProfileData",
                    "name": "vars",
                    "type": "tuple"
                }
            ],
            "name": "createProfile",
            "outputs": [],
            "stateMutability": "nonpayable",
            "type": "function"
        },
        {
            "inputs": [
                {
                    "components": [
                        {
                            "internalType": "uint256",
                            "name": "fromProfileId",
                            "type": "uint256"
                        },
                        {
                            "internalType": "address",
                            "name": "to",
                            "type": "address"
                        },
                        {
                            "internalType": "bytes32",
                            "name": "linkType",
                            "type": "bytes32"
                        }
                    ],
                    "internalType": "struct DataTypes.createThenLinkProfileData",
                    "name": "vars",
                    "type": "tuple"
                }
            ],
            "name": "createThenLinkProfile",
            "outputs": [],
            "stateMutability": "nonpayable",
            "type": "function"
        },
        {
            "inputs": [
                {
                    "internalType": "uint256",
                    "name": "profileId",
                    "type": "uint256"
                },
                {
                    "internalType": "uint256",
                    "name": "noteId",
                    "type": "uint256"
                }
            ],
            "name": "deleteNote",
            "outputs": [],
            "stateMutability": "nonpayable",
            "type": "function"
        },
        {
            "inputs": [
                {
                    "internalType": "uint256",
                    "name": "linklistId",
                    "type": "uint256"
                },
                {
                    "internalType": "uint256",
                    "name": "profileId",
                    "type": "uint256"
                }
            ],
            "name": "detachLinklist",
            "outputs": [],
            "stateMutability": "nonpayable",
            "type": "function"
        },
        {
            "inputs": [
                {
                    "internalType": "uint256",
                    "name": "tokenId",
                    "type": "uint256"
                }
            ],
            "name": "getApproved",
            "outputs": [
                {
                    "internalType": "address",
                    "name": "",
                    "type": "address"
                }
            ],
            "stateMutability": "view",
            "type": "function"
        },
        {
            "inputs": [
                {
                    "internalType": "uint256",
                    "name": "profileId",
                    "type": "uint256"
                }
            ],
            "name": "getDispatcher",
            "outputs": [
                {
                    "internalType": "address",
                    "name": "",
                    "type": "address"
                }
            ],
            "stateMutability": "view",
            "type": "function"
        },
        {
            "inputs": [
                {
                    "internalType": "uint256",
                    "name": "profileId",
                    "type": "uint256"
                }
            ],
            "name": "getHandle",
            "outputs": [
                {
                    "internalType": "string",
                    "name": "",
                    "type": "string"
                }
            ],
            "stateMutability": "view",
            "type": "function"
        },
        {
            "inputs": [
                {
                    "internalType": "address",
                    "name": "account",
                    "type": "address"
                }
            ],
            "name": "getLinkModule4Address",
            "outputs": [
                {
                    "internalType": "address",
                    "name": "",
                    "type": "address"
                }
            ],
            "stateMutability": "view",
            "type": "function"
        },
        {
            "inputs": [
                {
                    "internalType": "address",
                    "name": "tokenAddress",
                    "type": "address"
                },
                {
                    "internalType": "uint256",
                    "name": "tokenId",
                    "type": "uint256"
                }
            ],
            "name": "getLinkModule4ERC721",
            "outputs": [
                {
                    "internalType": "address",
                    "name": "",
                    "type": "address"
                }
            ],
            "stateMutability": "view",
            "type": "function"
        },
        {
            "inputs": [
                {
                    "internalType": "uint256",
                    "name": "tokenId",
                    "type": "uint256"
                }
            ],
            "name": "getLinkModule4Linklist",
            "outputs": [
                {
                    "internalType": "address",
                    "name": "",
                    "type": "address"
                }
            ],
            "stateMutability": "view",
            "type": "function"
        },
        {
            "inputs": [],
            "name": "getLinklistContract",
            "outputs": [
                {
                    "internalType": "address",
                    "name": "",
                    "type": "address"
                }
            ],
            "stateMutability": "view",
            "type": "function"
        },
        {
            "inputs": [
                {
                    "internalType": "uint256",
                    "name": "profileId",
                    "type": "uint256"
                },
                {
                    "internalType": "bytes32",
                    "name": "linkType",
                    "type": "bytes32"
                }
            ],
            "name": "getLinklistId",
            "outputs": [
                {
                    "internalType": "uint256",
                    "name": "",
                    "type": "uint256"
                }
            ],
            "stateMutability": "view",
            "type": "function"
        },
        {
            "inputs": [
                {
                    "internalType": "uint256",
                    "name": "linkListId",
                    "type": "uint256"
                }
            ],
            "name": "getLinklistType",
            "outputs": [
                {
                    "internalType": "bytes32",
                    "name": "",
                    "type": "bytes32"
                }
            ],
            "stateMutability": "view",
            "type": "function"
        },
        {
            "inputs": [
                {
                    "internalType": "uint256",
                    "name": "tokenId",
                    "type": "uint256"
                }
            ],
            "name": "getLinklistUri",
            "outputs": [
                {
                    "internalType": "string",
                    "name": "",
                    "type": "string"
                }
            ],
            "stateMutability": "view",
            "type": "function"
        },
        {
            "inputs": [
                {
                    "internalType": "uint256",
                    "name": "profileId",
                    "type": "uint256"
                },
                {
                    "internalType": "uint256",
                    "name": "noteId",
                    "type": "uint256"
                }
            ],
            "name": "getNote",
            "outputs": [
                {
                    "components": [
                        {
                            "internalType": "bytes32",
                            "name": "linkItemType",
                            "type": "bytes32"
                        },
                        {
                            "internalType": "bytes32",
                            "name": "linkKey",
                            "type": "bytes32"
                        },
                        {
                            "internalType": "string",
                            "name": "contentUri",
                            "type": "string"
                        },
                        {
                            "internalType": "address",
                            "name": "linkModule",
                            "type": "address"
                        },
                        {
                            "internalType": "address",
                            "name": "mintModule",
                            "type": "address"
                        },
                        {
                            "internalType": "address",
                            "name": "mintNFT",
                            "type": "address"
                        },
                        {
                            "internalType": "bool",
                            "name": "deleted",
                            "type": "bool"
                        },
                        {
                            "internalType": "bool",
                            "name": "locked",
                            "type": "bool"
                        }
                    ],
                    "internalType": "struct DataTypes.Note",
                    "name": "",
                    "type": "tuple"
                }
            ],
            "stateMutability": "view",
            "type": "function"
        },
        {
            "inputs": [
                {
                    "internalType": "uint256",
                    "name": "profileId",
                    "type": "uint256"
                },
                {
                    "internalType": "uint256",
                    "name": "offset",
                    "type": "uint256"
                },
                {
                    "internalType": "uint256",
                    "name": "limit",
                    "type": "uint256"
                }
            ],
            "name": "getNotesByProfileId",
            "outputs": [
                {
                    "components": [
                        {
                            "internalType": "bytes32",
                            "name": "linkItemType",
                            "type": "bytes32"
                        },
                        {
                            "internalType": "bytes32",
                            "name": "linkKey",
                            "type": "bytes32"
                        },
                        {
                            "internalType": "string",
                            "name": "contentUri",
                            "type": "string"
                        },
                        {
                            "internalType": "address",
                            "name": "linkModule",
                            "type": "address"
                        },
                        {
                            "internalType": "address",
                            "name": "mintModule",
                            "type": "address"
                        },
                        {
                            "internalType": "address",
                            "name": "mintNFT",
                            "type": "address"
                        },
                        {
                            "internalType": "bool",
                            "name": "deleted",
                            "type": "bool"
                        },
                        {
                            "internalType": "bool",
                            "name": "locked",
                            "type": "bool"
                        }
                    ],
                    "internalType": "struct DataTypes.Note[]",
                    "name": "results",
                    "type": "tuple[]"
                }
            ],
            "stateMutability": "view",
            "type": "function"
        },
        {
            "inputs": [],
            "name": "getPeriphery",
            "outputs": [
                {
                    "internalType": "address",
                    "name": "",
                    "type": "address"
                }
            ],
            "stateMutability": "view",
            "type": "function"
        },
        {
            "inputs": [
                {
                    "internalType": "address",
                    "name": "account",
                    "type": "address"
                }
            ],
            "name": "getPrimaryProfileId",
            "outputs": [
                {
                    "internalType": "uint256",
                    "name": "",
                    "type": "uint256"
                }
            ],
            "stateMutability": "view",
            "type": "function"
        },
        {
            "inputs": [
                {
                    "internalType": "uint256",
                    "name": "profileId",
                    "type": "uint256"
                }
            ],
            "name": "getProfile",
            "outputs": [
                {
                    "components": [
                        {
                            "internalType": "uint256",
                            "name": "profileId",
                            "type": "uint256"
                        },
                        {
                            "internalType": "string",
                            "name": "handle",
                            "type": "string"
                        },
                        {
                            "internalType": "string",
                            "name": "uri",
                            "type": "string"
                        },
                        {
                            "internalType": "uint256",
                            "name": "noteCount",
                            "type": "uint256"
                        },
                        {
                            "internalType": "address",
                            "name": "socialToken",
                            "type": "address"
                        },
                        {
                            "internalType": "address",
                            "name": "linkModule",
                            "type": "address"
                        }
                    ],
                    "internalType": "struct DataTypes.Profile",
                    "name": "",
                    "type": "tuple"
                }
            ],
            "stateMutability": "view",
            "type": "function"
        },
        {
            "inputs": [
                {
                    "internalType": "string",
                    "name": "handle",
                    "type": "string"
                }
            ],
            "name": "getProfileByHandle",
            "outputs": [
                {
                    "components": [
                        {
                            "internalType": "uint256",
                            "name": "profileId",
                            "type": "uint256"
                        },
                        {
                            "internalType": "string",
                            "name": "handle",
                            "type": "string"
                        },
                        {
                            "internalType": "string",
                            "name": "uri",
                            "type": "string"
                        },
                        {
                            "internalType": "uint256",
                            "name": "noteCount",
                            "type": "uint256"
                        },
                        {
                            "internalType": "address",
                            "name": "socialToken",
                            "type": "address"
                        },
                        {
                            "internalType": "address",
                            "name": "linkModule",
                            "type": "address"
                        }
                    ],
                    "internalType": "struct DataTypes.Profile",
                    "name": "",
                    "type": "tuple"
                }
            ],
            "stateMutability": "view",
            "type": "function"
        },
        {
            "inputs": [
                {
                    "internalType": "uint256",
                    "name": "profileId",
                    "type": "uint256"
                }
            ],
            "name": "getProfileUri",
            "outputs": [
                {
                    "internalType": "string",
                    "name": "",
                    "type": "string"
                }
            ],
            "stateMutability": "view",
            "type": "function"
        },
        {
            "inputs": [],
            "name": "getResolver",
            "outputs": [
                {
                    "internalType": "address",
                    "name": "",
                    "type": "address"
                }
            ],
            "stateMutability": "view",
            "type": "function"
        },
        {
            "inputs": [],
            "name": "getRevision",
            "outputs": [
                {
                    "internalType": "uint256",
                    "name": "",
                    "type": "uint256"
                }
            ],
            "stateMutability": "pure",
            "type": "function"
        },
        {
            "inputs": [
                {
                    "internalType": "string",
                    "name": "_name",
                    "type": "string"
                },
                {
                    "internalType": "string",
                    "name": "_symbol",
                    "type": "string"
                },
                {
                    "internalType": "address",
                    "name": "_linklistContract",
                    "type": "address"
                },
                {
                    "internalType": "address",
                    "name": "_mintNFTImpl",
                    "type": "address"
                },
                {
                    "internalType": "address",
                    "name": "_periphery",
                    "type": "address"
                },
                {
                    "internalType": "address",
                    "name": "_resolver",
                    "type": "address"
                }
            ],
            "name": "initialize",
            "outputs": [],
            "stateMutability": "nonpayable",
            "type": "function"
        },
        {
            "inputs": [
                {
                    "internalType": "address",
                    "name": "owner",
                    "type": "address"
                },
                {
                    "internalType": "address",
                    "name": "operator",
                    "type": "address"
                }
            ],
            "name": "isApprovedForAll",
            "outputs": [
                {
                    "internalType": "bool",
                    "name": "",
                    "type": "bool"
                }
            ],
            "stateMutability": "view",
            "type": "function"
        },
        {
            "inputs": [
                {
                    "internalType": "uint256",
                    "name": "profileId",
                    "type": "uint256"
                }
            ],
            "name": "isPrimaryProfile",
            "outputs": [
                {
                    "internalType": "bool",
                    "name": "",
                    "type": "bool"
                }
            ],
            "stateMutability": "view",
            "type": "function"
        },
        {
            "inputs": [
                {
                    "components": [
                        {
                            "internalType": "uint256",
                            "name": "fromProfileId",
                            "type": "uint256"
                        },
                        {
                            "internalType": "address",
                            "name": "ethAddress",
                            "type": "address"
                        },
                        {
                            "internalType": "bytes32",
                            "name": "linkType",
                            "type": "bytes32"
                        },
                        {
                            "internalType": "bytes",
                            "name": "data",
                            "type": "bytes"
                        }
                    ],
                    "internalType": "struct DataTypes.linkAddressData",
                    "name": "vars",
                    "type": "tuple"
                }
            ],
            "name": "linkAddress",
            "outputs": [],
            "stateMutability": "nonpayable",
            "type": "function"
        },
        {
            "inputs": [
                {
                    "components": [
                        {
                            "internalType": "uint256",
                            "name": "fromProfileId",
                            "type": "uint256"
                        },
                        {
                            "internalType": "string",
                            "name": "toUri",
                            "type": "string"
                        },
                        {
                            "internalType": "bytes32",
                            "name": "linkType",
                            "type": "bytes32"
                        },
                        {
                            "internalType": "bytes",
                            "name": "data",
                            "type": "bytes"
                        }
                    ],
                    "internalType": "struct DataTypes.linkAnyUriData",
                    "name": "vars",
                    "type": "tuple"
                }
            ],
            "name": "linkAnyUri",
            "outputs": [],
            "stateMutability": "nonpayable",
            "type": "function"
        },
        {
            "inputs": [
                {
                    "components": [
                        {
                            "internalType": "uint256",
                            "name": "fromProfileId",
                            "type": "uint256"
                        },
                        {
                            "internalType": "address",
                            "name": "tokenAddress",
                            "type": "address"
                        },
                        {
                            "internalType": "uint256",
                            "name": "tokenId",
                            "type": "uint256"
                        },
                        {
                            "internalType": "bytes32",
                            "name": "linkType",
                            "type": "bytes32"
                        },
                        {
                            "internalType": "bytes",
                            "name": "data",
                            "type": "bytes"
                        }
                    ],
                    "internalType": "struct DataTypes.linkERC721Data",
                    "name": "vars",
                    "type": "tuple"
                }
            ],
            "name": "linkERC721",
            "outputs": [],
            "stateMutability": "nonpayable",
            "type": "function"
        },
        {
            "inputs": [
                {
                    "components": [
                        {
                            "internalType": "uint256",
                            "name": "fromProfileId",
                            "type": "uint256"
                        },
                        {
                            "internalType": "uint256",
                            "name": "toLinkListId",
                            "type": "uint256"
                        },
                        {
                            "internalType": "bytes32",
                            "name": "linkType",
                            "type": "bytes32"
                        },
                        {
                            "internalType": "bytes",
                            "name": "data",
                            "type": "bytes"
                        }
                    ],
                    "internalType": "struct DataTypes.linkLinklistData",
                    "name": "vars",
                    "type": "tuple"
                }
            ],
            "name": "linkLinklist",
            "outputs": [],
            "stateMutability": "nonpayable",
            "type": "function"
        },
        {
            "inputs": [
                {
                    "components": [
                        {
                            "internalType": "uint256",
                            "name": "fromProfileId",
                            "type": "uint256"
                        },
                        {
                            "internalType": "uint256",
                            "name": "toProfileId",
                            "type": "uint256"
                        },
                        {
                            "internalType": "uint256",
                            "name": "toNoteId",
                            "type": "uint256"
                        },
                        {
                            "internalType": "bytes32",
                            "name": "linkType",
                            "type": "bytes32"
                        },
                        {
                            "internalType": "bytes",
                            "name": "data",
                            "type": "bytes"
                        }
                    ],
                    "internalType": "struct DataTypes.linkNoteData",
                    "name": "vars",
                    "type": "tuple"
                }
            ],
            "name": "linkNote",
            "outputs": [],
            "stateMutability": "nonpayable",
            "type": "function"
        },
        {
            "inputs": [
                {
                    "components": [
                        {
                            "internalType": "uint256",
                            "name": "fromProfileId",
                            "type": "uint256"
                        },
                        {
                            "internalType": "uint256",
                            "name": "toProfileId",
                            "type": "uint256"
                        },
                        {
                            "internalType": "bytes32",
                            "name": "linkType",
                            "type": "bytes32"
                        },
                        {
                            "internalType": "bytes",
                            "name": "data",
                            "type": "bytes"
                        }
                    ],
                    "internalType": "struct DataTypes.linkProfileData",
                    "name": "vars",
                    "type": "tuple"
                }
            ],
            "name": "linkProfile",
            "outputs": [],
            "stateMutability": "nonpayable",
            "type": "function"
        },
        {
            "inputs": [
                {
                    "internalType": "uint256",
                    "name": "fromProfileId",
                    "type": "uint256"
                },
                {
                    "components": [
                        {
                            "internalType": "uint256",
                            "name": "fromProfileId",
                            "type": "uint256"
                        },
                        {
                            "internalType": "uint256",
                            "name": "toProfileId",
                            "type": "uint256"
                        },
                        {
                            "internalType": "bytes32",
                            "name": "linkType",
                            "type": "bytes32"
                        }
                    ],
                    "internalType": "struct DataTypes.ProfileLinkStruct",
                    "name": "linkData",
                    "type": "tuple"
                },
                {
                    "internalType": "bytes32",
                    "name": "linkType",
                    "type": "bytes32"
                }
            ],
            "name": "linkProfileLink",
            "outputs": [],
            "stateMutability": "nonpayable",
            "type": "function"
        },
        {
            "inputs": [
                {
                    "internalType": "uint256",
                    "name": "profileId",
                    "type": "uint256"
                },
                {
                    "internalType": "uint256",
                    "name": "noteId",
                    "type": "uint256"
                }
            ],
            "name": "lockNote",
            "outputs": [],
            "stateMutability": "nonpayable",
            "type": "function"
        },
        {
            "inputs": [
                {
                    "components": [
                        {
                            "internalType": "uint256",
                            "name": "profileId",
                            "type": "uint256"
                        },
                        {
                            "internalType": "uint256",
                            "name": "noteId",
                            "type": "uint256"
                        },
                        {
                            "internalType": "address",
                            "name": "to",
                            "type": "address"
                        },
                        {
                            "internalType": "bytes",
                            "name": "mintModuleData",
                            "type": "bytes"
                        }
                    ],
                    "internalType": "struct DataTypes.MintNoteData",
                    "name": "vars",
                    "type": "tuple"
                }
            ],
            "name": "mintNote",
            "outputs": [
                {
                    "internalType": "uint256",
                    "name": "",
                    "type": "uint256"
                }
            ],
            "stateMutability": "nonpayable",
            "type": "function"
        },
        {
            "inputs": [],
            "name": "name",
            "outputs": [
                {
                    "internalType": "string",
                    "name": "",
                    "type": "string"
                }
            ],
            "stateMutability": "view",
            "type": "function"
        },
        {
            "inputs": [
                {
                    "internalType": "uint256",
                    "name": "tokenId",
                    "type": "uint256"
                }
            ],
            "name": "ownerOf",
            "outputs": [
                {
                    "internalType": "address",
                    "name": "",
                    "type": "address"
                }
            ],
            "stateMutability": "view",
            "type": "function"
        },
        {
            "inputs": [
                {
                    "components": [
                        {
                            "internalType": "uint256",
                            "name": "profileId",
                            "type": "uint256"
                        },
                        {
                            "internalType": "string",
                            "name": "contentUri",
                            "type": "string"
                        },
                        {
                            "internalType": "address",
                            "name": "linkModule",
                            "type": "address"
                        },
                        {
                            "internalType": "bytes",
                            "name": "linkModuleInitData",
                            "type": "bytes"
                        },
                        {
                            "internalType": "address",
                            "name": "mintModule",
                            "type": "address"
                        },
                        {
                            "internalType": "bytes",
                            "name": "mintModuleInitData",
                            "type": "bytes"
                        },
                        {
                            "internalType": "bool",
                            "name": "locked",
                            "type": "bool"
                        }
                    ],
                    "internalType": "struct DataTypes.PostNoteData",
                    "name": "vars",
                    "type": "tuple"
                }
            ],
            "name": "postNote",
            "outputs": [
                {
                    "internalType": "uint256",
                    "name": "",
                    "type": "uint256"
                }
            ],
            "stateMutability": "nonpayable",
            "type": "function"
        },
        {
            "inputs": [
                {
                    "components": [
                        {
                            "internalType": "uint256",
                            "name": "profileId",
                            "type": "uint256"
                        },
                        {
                            "internalType": "string",
                            "name": "contentUri",
                            "type": "string"
                        },
                        {
                            "internalType": "address",
                            "name": "linkModule",
                            "type": "address"
                        },
                        {
                            "internalType": "bytes",
                            "name": "linkModuleInitData",
                            "type": "bytes"
                        },
                        {
                            "internalType": "address",
                            "name": "mintModule",
                            "type": "address"
                        },
                        {
                            "internalType": "bytes",
                            "name": "mintModuleInitData",
                            "type": "bytes"
                        },
                        {
                            "internalType": "bool",
                            "name": "locked",
                            "type": "bool"
                        }
                    ],
                    "internalType": "struct DataTypes.PostNoteData",
                    "name": "noteData",
                    "type": "tuple"
                },
                {
                    "internalType": "address",
                    "name": "ethAddress",
                    "type": "address"
                }
            ],
            "name": "postNote4Address",
            "outputs": [
                {
                    "internalType": "uint256",
                    "name": "",
                    "type": "uint256"
                }
            ],
            "stateMutability": "nonpayable",
            "type": "function"
        },
        {
            "inputs": [
                {
                    "components": [
                        {
                            "internalType": "uint256",
                            "name": "profileId",
                            "type": "uint256"
                        },
                        {
                            "internalType": "string",
                            "name": "contentUri",
                            "type": "string"
                        },
                        {
                            "internalType": "address",
                            "name": "linkModule",
                            "type": "address"
                        },
                        {
                            "internalType": "bytes",
                            "name": "linkModuleInitData",
                            "type": "bytes"
                        },
                        {
                            "internalType": "address",
                            "name": "mintModule",
                            "type": "address"
                        },
                        {
                            "internalType": "bytes",
                            "name": "mintModuleInitData",
                            "type": "bytes"
                        },
                        {
                            "internalType": "bool",
                            "name": "locked",
                            "type": "bool"
                        }
                    ],
                    "internalType": "struct DataTypes.PostNoteData",
                    "name": "postNoteData",
                    "type": "tuple"
                },
                {
                    "internalType": "string",
                    "name": "uri",
                    "type": "string"
                }
            ],
            "name": "postNote4AnyUri",
            "outputs": [
                {
                    "internalType": "uint256",
                    "name": "",
                    "type": "uint256"
                }
            ],
            "stateMutability": "nonpayable",
            "type": "function"
        },
        {
            "inputs": [
                {
                    "components": [
                        {
                            "internalType": "uint256",
                            "name": "profileId",
                            "type": "uint256"
                        },
                        {
                            "internalType": "string",
                            "name": "contentUri",
                            "type": "string"
                        },
                        {
                            "internalType": "address",
                            "name": "linkModule",
                            "type": "address"
                        },
                        {
                            "internalType": "bytes",
                            "name": "linkModuleInitData",
                            "type": "bytes"
                        },
                        {
                            "internalType": "address",
                            "name": "mintModule",
                            "type": "address"
                        },
                        {
                            "internalType": "bytes",
                            "name": "mintModuleInitData",
                            "type": "bytes"
                        },
                        {
                            "internalType": "bool",
                            "name": "locked",
                            "type": "bool"
                        }
                    ],
                    "internalType": "struct DataTypes.PostNoteData",
                    "name": "postNoteData",
                    "type": "tuple"
                },
                {
                    "components": [
                        {
                            "internalType": "address",
                            "name": "tokenAddress",
                            "type": "address"
                        },
                        {
                            "internalType": "uint256",
                            "name": "erc721TokenId",
                            "type": "uint256"
                        }
                    ],
                    "internalType": "struct DataTypes.ERC721Struct",
                    "name": "erc721",
                    "type": "tuple"
                }
            ],
            "name": "postNote4ERC721",
            "outputs": [
                {
                    "internalType": "uint256",
                    "name": "",
                    "type": "uint256"
                }
            ],
            "stateMutability": "nonpayable",
            "type": "function"
        },
        {
            "inputs": [
                {
                    "components": [
                        {
                            "internalType": "uint256",
                            "name": "profileId",
                            "type": "uint256"
                        },
                        {
                            "internalType": "string",
                            "name": "contentUri",
                            "type": "string"
                        },
                        {
                            "internalType": "address",
                            "name": "linkModule",
                            "type": "address"
                        },
                        {
                            "internalType": "bytes",
                            "name": "linkModuleInitData",
                            "type": "bytes"
                        },
                        {
                            "internalType": "address",
                            "name": "mintModule",
                            "type": "address"
                        },
                        {
                            "internalType": "bytes",
                            "name": "mintModuleInitData",
                            "type": "bytes"
                        },
                        {
                            "internalType": "bool",
                            "name": "locked",
                            "type": "bool"
                        }
                    ],
                    "internalType": "struct DataTypes.PostNoteData",
                    "name": "noteData",
                    "type": "tuple"
                },
                {
                    "internalType": "uint256",
                    "name": "toLinklistId",
                    "type": "uint256"
                }
            ],
            "name": "postNote4Linklist",
            "outputs": [
                {
                    "internalType": "uint256",
                    "name": "",
                    "type": "uint256"
                }
            ],
            "stateMutability": "nonpayable",
            "type": "function"
        },
        {
            "inputs": [
                {
                    "components": [
                        {
                            "internalType": "uint256",
                            "name": "profileId",
                            "type": "uint256"
                        },
                        {
                            "internalType": "string",
                            "name": "contentUri",
                            "type": "string"
                        },
                        {
                            "internalType": "address",
                            "name": "linkModule",
                            "type": "address"
                        },
                        {
                            "internalType": "bytes",
                            "name": "linkModuleInitData",
                            "type": "bytes"
                        },
                        {
                            "internalType": "address",
                            "name": "mintModule",
                            "type": "address"
                        },
                        {
                            "internalType": "bytes",
                            "name": "mintModuleInitData",
                            "type": "bytes"
                        },
                        {
                            "internalType": "bool",
                            "name": "locked",
                            "type": "bool"
                        }
                    ],
                    "internalType": "struct DataTypes.PostNoteData",
                    "name": "postNoteData",
                    "type": "tuple"
                },
                {
                    "components": [
                        {
                            "internalType": "uint256",
                            "name": "profileId",
                            "type": "uint256"
                        },
                        {
                            "internalType": "uint256",
                            "name": "noteId",
                            "type": "uint256"
                        }
                    ],
                    "internalType": "struct DataTypes.NoteStruct",
                    "name": "note",
                    "type": "tuple"
                }
            ],
            "name": "postNote4Note",
            "outputs": [
                {
                    "internalType": "uint256",
                    "name": "",
                    "type": "uint256"
                }
            ],
            "stateMutability": "nonpayable",
            "type": "function"
        },
        {
            "inputs": [
                {
                    "components": [
                        {
                            "internalType": "uint256",
                            "name": "profileId",
                            "type": "uint256"
                        },
                        {
                            "internalType": "string",
                            "name": "contentUri",
                            "type": "string"
                        },
                        {
                            "internalType": "address",
                            "name": "linkModule",
                            "type": "address"
                        },
                        {
                            "internalType": "bytes",
                            "name": "linkModuleInitData",
                            "type": "bytes"
                        },
                        {
                            "internalType": "address",
                            "name": "mintModule",
                            "type": "address"
                        },
                        {
                            "internalType": "bytes",
                            "name": "mintModuleInitData",
                            "type": "bytes"
                        },
                        {
                            "internalType": "bool",
                            "name": "locked",
                            "type": "bool"
                        }
                    ],
                    "internalType": "struct DataTypes.PostNoteData",
                    "name": "postNoteData",
                    "type": "tuple"
                },
                {
                    "internalType": "uint256",
                    "name": "toProfileId",
                    "type": "uint256"
                }
            ],
            "name": "postNote4Profile",
            "outputs": [
                {
                    "internalType": "uint256",
                    "name": "",
                    "type": "uint256"
                }
            ],
            "stateMutability": "nonpayable",
            "type": "function"
        },
        {
            "inputs": [],
            "name": "resolver",
            "outputs": [
                {
                    "internalType": "address",
                    "name": "",
                    "type": "address"
                }
            ],
            "stateMutability": "view",
            "type": "function"
        },
        {
            "inputs": [
                {
                    "internalType": "address",
                    "name": "from",
                    "type": "address"
                },
                {
                    "internalType": "address",
                    "name": "to",
                    "type": "address"
                },
                {
                    "internalType": "uint256",
                    "name": "tokenId",
                    "type": "uint256"
                }
            ],
            "name": "safeTransferFrom",
            "outputs": [],
            "stateMutability": "nonpayable",
            "type": "function"
        },
        {
            "inputs": [
                {
                    "internalType": "address",
                    "name": "from",
                    "type": "address"
                },
                {
                    "internalType": "address",
                    "name": "to",
                    "type": "address"
                },
                {
                    "internalType": "uint256",
                    "name": "tokenId",
                    "type": "uint256"
                },
                {
                    "internalType": "bytes",
                    "name": "_data",
                    "type": "bytes"
                }
            ],
            "name": "safeTransferFrom",
            "outputs": [],
            "stateMutability": "nonpayable",
            "type": "function"
        },
        {
            "inputs": [
                {
                    "internalType": "address",
                    "name": "operator",
                    "type": "address"
                },
                {
                    "internalType": "bool",
                    "name": "approved",
                    "type": "bool"
                }
            ],
            "name": "setApprovalForAll",
            "outputs": [],
            "stateMutability": "nonpayable",
            "type": "function"
        },
        {
            "inputs": [
                {
                    "internalType": "uint256",
                    "name": "profileId",
                    "type": "uint256"
                },
                {
                    "internalType": "address",
                    "name": "dispatcher",
                    "type": "address"
                }
            ],
            "name": "setDispatcher",
            "outputs": [],
            "stateMutability": "nonpayable",
            "type": "function"
        },
        {
            "inputs": [
                {
                    "internalType": "uint256",
                    "name": "profileId",
                    "type": "uint256"
                },
                {
                    "internalType": "string",
                    "name": "newHandle",
                    "type": "string"
                }
            ],
            "name": "setHandle",
            "outputs": [],
            "stateMutability": "nonpayable",
            "type": "function"
        },
        {
            "inputs": [
                {
                    "components": [
                        {
                            "internalType": "address",
                            "name": "account",
                            "type": "address"
                        },
                        {
                            "internalType": "address",
                            "name": "linkModule",
                            "type": "address"
                        },
                        {
                            "internalType": "bytes",
                            "name": "linkModuleInitData",
                            "type": "bytes"
                        }
                    ],
                    "internalType": "struct DataTypes.setLinkModule4AddressData",
                    "name": "vars",
                    "type": "tuple"
                }
            ],
            "name": "setLinkModule4Address",
            "outputs": [],
            "stateMutability": "nonpayable",
            "type": "function"
        },
        {
            "inputs": [
                {
                    "components": [
                        {
                            "internalType": "address",
                            "name": "tokenAddress",
                            "type": "address"
                        },
                        {
                            "internalType": "uint256",
                            "name": "tokenId",
                            "type": "uint256"
                        },
                        {
                            "internalType": "address",
                            "name": "linkModule",
                            "type": "address"
                        },
                        {
                            "internalType": "bytes",
                            "name": "linkModuleInitData",
                            "type": "bytes"
                        }
                    ],
                    "internalType": "struct DataTypes.setLinkModule4ERC721Data",
                    "name": "vars",
                    "type": "tuple"
                }
            ],
            "name": "setLinkModule4ERC721",
            "outputs": [],
            "stateMutability": "nonpayable",
            "type": "function"
        },
        {
            "inputs": [
                {
                    "components": [
                        {
                            "internalType": "uint256",
                            "name": "linklistId",
                            "type": "uint256"
                        },
                        {
                            "internalType": "address",
                            "name": "linkModule",
                            "type": "address"
                        },
                        {
                            "internalType": "bytes",
                            "name": "linkModuleInitData",
                            "type": "bytes"
                        }
                    ],
                    "internalType": "struct DataTypes.setLinkModule4LinklistData",
                    "name": "vars",
                    "type": "tuple"
                }
            ],
            "name": "setLinkModule4Linklist",
            "outputs": [],
            "stateMutability": "nonpayable",
            "type": "function"
        },
        {
            "inputs": [
                {
                    "components": [
                        {
                            "internalType": "uint256",
                            "name": "profileId",
                            "type": "uint256"
                        },
                        {
                            "internalType": "uint256",
                            "name": "noteId",
                            "type": "uint256"
                        },
                        {
                            "internalType": "address",
                            "name": "linkModule",
                            "type": "address"
                        },
                        {
                            "internalType": "bytes",
                            "name": "linkModuleInitData",
                            "type": "bytes"
                        }
                    ],
                    "internalType": "struct DataTypes.setLinkModule4NoteData",
                    "name": "vars",
                    "type": "tuple"
                }
            ],
            "name": "setLinkModule4Note",
            "outputs": [],
            "stateMutability": "nonpayable",
            "type": "function"
        },
        {
            "inputs": [
                {
                    "components": [
                        {
                            "internalType": "uint256",
                            "name": "profileId",
                            "type": "uint256"
                        },
                        {
                            "internalType": "address",
                            "name": "linkModule",
                            "type": "address"
                        },
                        {
                            "internalType": "bytes",
                            "name": "linkModuleInitData",
                            "type": "bytes"
                        }
                    ],
                    "internalType": "struct DataTypes.setLinkModule4ProfileData",
                    "name": "vars",
                    "type": "tuple"
                }
            ],
            "name": "setLinkModule4Profile",
            "outputs": [],
            "stateMutability": "nonpayable",
            "type": "function"
        },
        {
            "inputs": [
                {
                    "internalType": "uint256",
                    "name": "linklistId",
                    "type": "uint256"
                },
                {
                    "internalType": "string",
                    "name": "uri",
                    "type": "string"
                }
            ],
            "name": "setLinklistUri",
            "outputs": [],
            "stateMutability": "nonpayable",
            "type": "function"
        },
        {
            "inputs": [
                {
                    "components": [
                        {
                            "internalType": "uint256",
                            "name": "profileId",
                            "type": "uint256"
                        },
                        {
                            "internalType": "uint256",
                            "name": "noteId",
                            "type": "uint256"
                        },
                        {
                            "internalType": "address",
                            "name": "mintModule",
                            "type": "address"
                        },
                        {
                            "internalType": "bytes",
                            "name": "mintModuleInitData",
                            "type": "bytes"
                        }
                    ],
                    "internalType": "struct DataTypes.setMintModule4NoteData",
                    "name": "vars",
                    "type": "tuple"
                }
            ],
            "name": "setMintModule4Note",
            "outputs": [],
            "stateMutability": "nonpayable",
            "type": "function"
        },
        {
            "inputs": [
                {
                    "internalType": "uint256",
                    "name": "profileId",
                    "type": "uint256"
                },
                {
                    "internalType": "uint256",
                    "name": "noteId",
                    "type": "uint256"
                },
                {
                    "internalType": "string",
                    "name": "newUri",
                    "type": "string"
                }
            ],
            "name": "setNoteUri",
            "outputs": [],
            "stateMutability": "nonpayable",
            "type": "function"
        },
        {
            "inputs": [
                {
                    "internalType": "uint256",
                    "name": "profileId",
                    "type": "uint256"
                }
            ],
            "name": "setPrimaryProfileId",
            "outputs": [],
            "stateMutability": "nonpayable",
            "type": "function"
        },
        {
            "inputs": [
                {
                    "internalType": "uint256",
                    "name": "profileId",
                    "type": "uint256"
                },
                {
                    "internalType": "string",
                    "name": "newUri",
                    "type": "string"
                }
            ],
            "name": "setProfileUri",
            "outputs": [],
            "stateMutability": "nonpayable",
            "type": "function"
        },
        {
            "inputs": [
                {
                    "internalType": "uint256",
                    "name": "profileId",
                    "type": "uint256"
                },
                {
                    "internalType": "address",
                    "name": "tokenAddress",
                    "type": "address"
                }
            ],
            "name": "setSocialToken",
            "outputs": [],
            "stateMutability": "nonpayable",
            "type": "function"
        },
        {
            "inputs": [
                {
                    "internalType": "bytes4",
                    "name": "interfaceId",
                    "type": "bytes4"
                }
            ],
            "name": "supportsInterface",
            "outputs": [
                {
                    "internalType": "bool",
                    "name": "",
                    "type": "bool"
                }
            ],
            "stateMutability": "view",
            "type": "function"
        },
        {
            "inputs": [],
            "name": "symbol",
            "outputs": [
                {
                    "internalType": "string",
                    "name": "",
                    "type": "string"
                }
            ],
            "stateMutability": "view",
            "type": "function"
        },
        {
            "inputs": [
                {
                    "internalType": "uint256",
                    "name": "index",
                    "type": "uint256"
                }
            ],
            "name": "tokenByIndex",
            "outputs": [
                {
                    "internalType": "uint256",
                    "name": "",
                    "type": "uint256"
                }
            ],
            "stateMutability": "view",
            "type": "function"
        },
        {
            "inputs": [
                {
                    "internalType": "address",
                    "name": "owner",
                    "type": "address"
                },
                {
                    "internalType": "uint256",
                    "name": "index",
                    "type": "uint256"
                }
            ],
            "name": "tokenOfOwnerByIndex",
            "outputs": [
                {
                    "internalType": "uint256",
                    "name": "",
                    "type": "uint256"
                }
            ],
            "stateMutability": "view",
            "type": "function"
        },
        {
            "inputs": [
                {
                    "internalType": "uint256",
                    "name": "profileId",
                    "type": "uint256"
                }
            ],
            "name": "tokenURI",
            "outputs": [
                {
                    "internalType": "string",
                    "name": "",
                    "type": "string"
                }
            ],
            "stateMutability": "view",
            "type": "function"
        },
        {
            "inputs": [],
            "name": "totalSupply",
            "outputs": [
                {
                    "internalType": "uint256",
                    "name": "",
                    "type": "uint256"
                }
            ],
            "stateMutability": "view",
            "type": "function"
        },
        {
            "inputs": [
                {
                    "internalType": "address",
                    "name": "from",
                    "type": "address"
                },
                {
                    "internalType": "address",
                    "name": "to",
                    "type": "address"
                },
                {
                    "internalType": "uint256",
                    "name": "tokenId",
                    "type": "uint256"
                }
            ],
            "name": "transferFrom",
            "outputs": [],
            "stateMutability": "nonpayable",
            "type": "function"
        },
        {
            "inputs": [
                {
                    "components": [
                        {
                            "internalType": "uint256",
                            "name": "fromProfileId",
                            "type": "uint256"
                        },
                        {
                            "internalType": "address",
                            "name": "ethAddress",
                            "type": "address"
                        },
                        {
                            "internalType": "bytes32",
                            "name": "linkType",
                            "type": "bytes32"
                        },
                        {
                            "internalType": "bytes",
                            "name": "data",
                            "type": "bytes"
                        }
                    ],
                    "internalType": "struct DataTypes.linkAddressData",
                    "name": "vars",
                    "type": "tuple"
                }
            ],
            "name": "unlinkAddress",
            "outputs": [],
            "stateMutability": "nonpayable",
            "type": "function"
        },
        {
            "inputs": [
                {
                    "components": [
                        {
                            "internalType": "uint256",
                            "name": "fromProfileId",
                            "type": "uint256"
                        },
                        {
                            "internalType": "string",
                            "name": "toUri",
                            "type": "string"
                        },
                        {
                            "internalType": "bytes32",
                            "name": "linkType",
                            "type": "bytes32"
                        }
                    ],
                    "internalType": "struct DataTypes.unlinkAnyUriData",
                    "name": "vars",
                    "type": "tuple"
                }
            ],
            "name": "unlinkAnyUri",
            "outputs": [],
            "stateMutability": "nonpayable",
            "type": "function"
        },
        {
            "inputs": [
                {
                    "components": [
                        {
                            "internalType": "uint256",
                            "name": "fromProfileId",
                            "type": "uint256"
                        },
                        {
                            "internalType": "address",
                            "name": "tokenAddress",
                            "type": "address"
                        },
                        {
                            "internalType": "uint256",
                            "name": "tokenId",
                            "type": "uint256"
                        },
                        {
                            "internalType": "bytes32",
                            "name": "linkType",
                            "type": "bytes32"
                        }
                    ],
                    "internalType": "struct DataTypes.unlinkERC721Data",
                    "name": "vars",
                    "type": "tuple"
                }
            ],
            "name": "unlinkERC721",
            "outputs": [],
            "stateMutability": "nonpayable",
            "type": "function"
        },
        {
            "inputs": [
                {
                    "components": [
                        {
                            "internalType": "uint256",
                            "name": "fromProfileId",
                            "type": "uint256"
                        },
                        {
                            "internalType": "uint256",
                            "name": "toLinkListId",
                            "type": "uint256"
                        },
                        {
                            "internalType": "bytes32",
                            "name": "linkType",
                            "type": "bytes32"
                        },
                        {
                            "internalType": "bytes",
                            "name": "data",
                            "type": "bytes"
                        }
                    ],
                    "internalType": "struct DataTypes.linkLinklistData",
                    "name": "vars",
                    "type": "tuple"
                }
            ],
            "name": "unlinkLinklist",
            "outputs": [],
            "stateMutability": "nonpayable",
            "type": "function"
        },
        {
            "inputs": [
                {
                    "components": [
                        {
                            "internalType": "uint256",
                            "name": "fromProfileId",
                            "type": "uint256"
                        },
                        {
                            "internalType": "uint256",
                            "name": "toProfileId",
                            "type": "uint256"
                        },
                        {
                            "internalType": "uint256",
                            "name": "toNoteId",
                            "type": "uint256"
                        },
                        {
                            "internalType": "bytes32",
                            "name": "linkType",
                            "type": "bytes32"
                        }
                    ],
                    "internalType": "struct DataTypes.unlinkNoteData",
                    "name": "vars",
                    "type": "tuple"
                }
            ],
            "name": "unlinkNote",
            "outputs": [],
            "stateMutability": "nonpayable",
            "type": "function"
        },
        {
            "inputs": [
                {
                    "components": [
                        {
                            "internalType": "uint256",
                            "name": "fromProfileId",
                            "type": "uint256"
                        },
                        {
                            "internalType": "uint256",
                            "name": "toProfileId",
                            "type": "uint256"
                        },
                        {
                            "internalType": "bytes32",
                            "name": "linkType",
                            "type": "bytes32"
                        }
                    ],
                    "internalType": "struct DataTypes.unlinkProfileData",
                    "name": "vars",
                    "type": "tuple"
                }
            ],
            "name": "unlinkProfile",
            "outputs": [],
            "stateMutability": "nonpayable",
            "type": "function"
        },
        {
            "inputs": [
                {
                    "internalType": "uint256",
                    "name": "fromProfileId",
                    "type": "uint256"
                },
                {
                    "components": [
                        {
                            "internalType": "uint256",
                            "name": "fromProfileId",
                            "type": "uint256"
                        },
                        {
                            "internalType": "uint256",
                            "name": "toProfileId",
                            "type": "uint256"
                        },
                        {
                            "internalType": "bytes32",
                            "name": "linkType",
                            "type": "bytes32"
                        }
                    ],
                    "internalType": "struct DataTypes.ProfileLinkStruct",
                    "name": "linkData",
                    "type": "tuple"
                },
                {
                    "internalType": "bytes32",
                    "name": "linkType",
                    "type": "bytes32"
                }
            ],
            "name": "unlinkProfileLink",
            "outputs": [],
            "stateMutability": "nonpayable",
            "type": "function"
        }
    ],
    "bytecode": "0x608060405234801561001057600080fd5b50615f5980620000216000396000f3fe608060405234801561001057600080fd5b50600436106104805760003560e01c80637c392b5111610257578063bfd24f4711610146578063db491e80116100c3578063ec81d19411610087578063ec81d19414610af9578063ef0828ab14610b0c578063f08f4f6414610b1f578063f316bacd14610b32578063fe9299fb14610b4557600080fd5b8063db491e8014610a64578063db8c198d14610a84578063dca2713514610a97578063e56f2fe414610aaa578063e985e9c514610abd57600080fd5b8063c87b56dd1161010a578063c87b56dd146109ed578063cb8e757e14610a00578063cba4f5cc14610a13578063d23b320b14610a26578063d70e10c614610a3957600080fd5b8063bfd24f4714610990578063c053f6b8146109a3578063c2a6fe3b146109b4578063c387c453146109c7578063c7009c6b146109da57600080fd5b80639a4dec18116101d4578063a9dc491d11610198578063a9dc491d14610933578063b88d4fde14610944578063b9ad7c7f14610957578063b9d328451461096a578063bd5f69cb1461097d57600080fd5b80639a4dec18146108d4578063a22cb465146108e7578063a6e6178d146108fa578063a7ccb4bf1461090d578063a914c76e1461092057600080fd5b80638b4ca06a1161021b5780638b4ca06a1461088057806392f7070b1461089357806395d89b41146108a657806395d9fa7d146108ae5780639864c307146108c157600080fd5b80637c392b51146108145780637daca6d01461082757806383d371751461083a578063867884e61461085a57806386833c881461086d57600080fd5b806331b9d08c11610373578063540528b9116102f05780636352211e116102b45780636352211e146107b557806369492c97146107c857806370a08231146107db57806374f345cf146107ee5780637936da0e1461080157600080fd5b8063540528b914610740578063570477fb146107695780635b507cfd1461077c5780635fb881831461078f578063628b644a146107a257600080fd5b806342842e0e1161033757806342842e0e146106e157806342966c68146106f457806344b82a24146107075780634f6ccce71461071a578063515d42d21461072d57600080fd5b806331b9d08c14610669578063327b2a031461069557806333f06ee6146106a8578063388f5083146106bb57806340ad34d8146106ce57600080fd5b806318160ddd11610401578063295cb43e116103c5578063295cb43e1461060c57806329c301c21461061f5780632c2631cb146106325780632f745c59146106435780632ff5b07e1461065657600080fd5b806318160ddd1461057f5780631bb4d231146105875780632209d145146105b057806323b872dd146105e6578063251a99cf146105f957600080fd5b8063095ea7b311610448578063095ea7b3146105155780630ab6beba146105285780630c16de101461053b5780630c4dd5f21461055b5780631316529d1461056e57600080fd5b806301ffc9a71461048557806304f3bcec146104ad57806306fdde03146104d8578063081812fc146104ed57806308cb68ff14610500575b600080fd5b610498610493366004614911565b610b6e565b60405190151581526020015b60405180910390f35b6017546104c0906001600160a01b031681565b6040516001600160a01b0390911681526020016104a4565b6104e0610b99565b6040516104a49190614986565b6104c06104fb366004614999565b610c2b565b61051361050e3660046149ca565b610cc5565b005b610513610523366004614a13565b610d5e565b610513610536366004614a3f565b610e74565b61054e610549366004614aa3565b610eb1565b6040516104a49190614ae4565b6105136105693660046149ca565b611060565b60035b6040519081526020016104a4565b600854610571565b610571610595366004614b60565b6001600160a01b03166000908152600c602052604090205490565b6104c06105be366004614a13565b6001600160a01b03918216600090815260106020908152604080832093835292905220541690565b6105136105f4366004614b7d565b6110c5565b610513610607366004614a3f565b6110f6565b61051361061a366004614999565b611186565b61057161062d366004614bd0565b6111cc565b6015546001600160a01b03166104c0565b610571610651366004614a13565b611278565b610571610664366004614c04565b61130e565b6104c0610677366004614b60565b6001600160a01b039081166000908152601160205260409020541690565b6105716106a3366004614c5a565b6113ef565b6105136106b6366004614ca8565b611546565b6105136106c9366004614d05565b6115ba565b6105136106dc366004614d39565b61160d565b6105136106ef366004614b7d565b611687565b610513610702366004614999565b6116a2565b610571610715366004614c04565b61173f565b610571610728366004614999565b61177c565b61051361073b366004614d55565b61180f565b6104c061074e366004614999565b6000908152601660205260409020546001600160a01b031690565b610513610777366004614d77565b61193d565b61051361078a3660046149ca565b6119dc565b61051361079d366004614d05565b611a55565b6105136107b0366004614dad565b611aa8565b6104c06107c3366004614999565b611b86565b6105136107d6366004614d05565b611bfd565b6105716107e9366004614b60565b611c83565b6105136107fc366004614d55565b611d0a565b61051361080f366004614d55565b611d81565b610513610822366004614ca8565b611e46565b610498610835366004614dff565b611eab565b61084d610848366004614e55565b612032565b6040516104a49190614f03565b610513610868366004614d39565b61222b565b61051361087b366004614d05565b61229b565b61057161088e366004614999565b61230a565b6105716108a1366004614f65565b612376565b6104e061240a565b6105136108bc366004614fb6565b612419565b6105136108cf366004614d05565b61249f565b6105716108e2366004614c5a565b6124f2565b6105136108f5366004614ff0565b6125fa565b610513610908366004614ca8565b612605565b61057161091b366004614d05565b61269d565b61051361092e366004614d05565b612741565b6017546001600160a01b03166104c0565b610513610952366004615089565b61283e565b610513610965366004614d05565b612876565b610513610978366004615149565b6128e5565b61051361098b366004615149565b61294d565b61051361099e366004614fb6565b612aaa565b6013546001600160a01b03166104c0565b6105136109c2366004614d55565b612abd565b6104986109d5366004614999565b612aff565b6105136109e8366004614d77565b612b2d565b6104e06109fb366004614999565b612b83565b610513610a0e366004615149565b612c28565b6104e0610a21366004614999565b612c98565b610513610a34366004614d05565b612ca3565b610571610a47366004614d55565b6000918252600d6020908152604080842092845291905290205490565b610a77610a72366004614d55565b612d1d565b6040516104a4919061517d565b610513610a92366004614d05565b612e56565b6104e0610aa5366004614999565b612ea0565b610513610ab8366004615190565b612f12565b610498610acb36600461524a565b6001600160a01b03918216600090815260056020908152604080832093909416825291909152205460ff1690565b6104e0610b07366004614999565b61306f565b610513610b1a3660046149ca565b61308f565b61054e610b2d366004614999565b6130fe565b610571610b40366004615278565b613285565b6104c0610b53366004614999565b6000908152600f60205260409020546001600160a01b031690565b60006001600160e01b0319821663780e9d6360e01b1480610b935750610b93826133e1565b92915050565b606060008054610ba8906152d3565b80601f0160208091040260200160405190810160405280929190818152602001828054610bd4906152d3565b8015610c215780601f10610bf657610100808354040283529160200191610c21565b820191906000526020600020905b815481529060010190602001808311610c0457829003601f168201915b5050505050905090565b6000818152600260205260408120546001600160a01b0316610ca95760405162461bcd60e51b815260206004820152602c60248201527f4552433732313a20617070726f76656420717565727920666f72206e6f6e657860448201526b34b9ba32b73a103a37b5b2b760a11b60648201526084015b60405180910390fd5b506000908152600460205260409020546001600160a01b031690565b73__$69db18565ecbefece480e92cc5f8fb1274$__63dfc34f25610cec6020840184614b60565b610cfc6040850160208601614b60565b610d096040860186615308565b60116040518663ffffffff1660e01b8152600401610d2b959493929190615377565b60006040518083038186803b158015610d4357600080fd5b505af4158015610d57573d6000803e3d6000fd5b5050505050565b6000610d6982611b86565b9050806001600160a01b0316836001600160a01b03161415610dd75760405162461bcd60e51b815260206004820152602160248201527f4552433732313a20617070726f76616c20746f2063757272656e74206f776e656044820152603960f91b6064820152608401610ca0565b336001600160a01b0382161480610df35750610df38133610acb565b610e655760405162461bcd60e51b815260206004820152603860248201527f4552433732313a20617070726f76652063616c6c6572206973206e6f74206f7760448201527f6e6572206e6f7220617070726f76656420666f7220616c6c00000000000000006064820152608401610ca0565b610e6f8383613431565b505050565b610eae8135610e896040840160208501614b60565b836040013560405180604001604052806002815260200161060f60f31b81525061349f565b50565b610eb961479b565b60008383604051610ecb9291906153b6565b604080519182900382206000818152600b602090815283822054808352600a82529184902060c0860190945283548552600184018054939650919493929084019190610f16906152d3565b80601f0160208091040260200160405190810160405280929190818152602001828054610f42906152d3565b8015610f8f5780601f10610f6457610100808354040283529160200191610f8f565b820191906000526020600020905b815481529060010190602001808311610f7257829003601f168201915b50505050508152602001600282018054610fa8906152d3565b80601f0160208091040260200160405190810160405280929190818152602001828054610fd4906152d3565b80156110215780601f10610ff657610100808354040283529160200191611021565b820191906000526020600020905b81548152906001019060200180831161100457829003601f168201915b50505091835250506003820154602082015260048201546001600160a01b03908116604083015260059092015490911660609091015295945050505050565b61106a8135613723565b73__$69db18565ecbefece480e92cc5f8fb1274$__636252159e82356110966040850160208601614b60565b6110a36040860186615308565b600f6040518663ffffffff1660e01b8152600401610d2b9594939291906153c6565b6110cf33826137e3565b6110eb5760405162461bcd60e51b8152600401610ca0906153f1565b610e6f8383836138da565b6111008135613a81565b60135481356000818152600d60209081526040808320818701358085529083529281902054905163eb23376360e01b8152600481019490945290850135602484015260448301919091526001600160a01b039092166064820152608481019190915273__$e2c9a8f399964af47bb173600dd9e5f662$__9063eb2337639060a401610d2b565b61118f81613a81565b336000818152600c6020526040808220849055518392917f444dbf26d795c263ce4e5f2fccaac8e71b73cb37091f74e9e4f76cd98b55f8d391a350565b60006111d88235613a81565b81356000908152600a60205260408120600301805482906111f890615458565b91829055506040516342a34a5360e01b815290915073__$2873850e5b3f5697aafc2f5cd9f27cc884$__906342a34a539061124190869085906000908190600e9060040161557d565b60006040518083038186803b15801561125957600080fd5b505af415801561126d573d6000803e3d6000fd5b509295945050505050565b600061128383611c83565b82106112e55760405162461bcd60e51b815260206004820152602b60248201527f455243373231456e756d657261626c653a206f776e657220696e646578206f7560448201526a74206f6620626f756e647360a81b6064820152608401610ca0565b506001600160a01b03919091166000908152600660209081526040808320938352929052205490565b600061131a8335613a81565b82356000908152600a6020526040812060030180546650726f66696c6560c81b9285929091829061134a90615458565b919050819055905073__$2873850e5b3f5697aafc2f5cd9f27cc884$__6342a34a53878386868a60405160200161138391815260200190565b604051602081830303815290604052600e6040518763ffffffff1660e01b81526004016113b5969594939291906155c2565b60006040518083038186803b1580156113cd57600080fd5b505af41580156113e1573d6000803e3d6000fd5b509298975050505050505050565b60006113fb8335613a81565b61141561140b6020840184614b60565b8360200135613b21565b6013546545524337323160d01b906000906001600160a01b0316632ea24efc826114426020880188614b60565b6040516001600160e01b031960e085901b16815260048101929092526001600160a01b03166024820152602087013560448201526064016020604051808303816000875af1158015611498573d6000803e3d6000fd5b505050506040513d601f19601f820116820180604052508101906114bc919061560d565b85356000908152600a602052604081206003018054929350909182906114e190615458565b9182905550905073__$2873850e5b3f5697aafc2f5cd9f27cc884$__6342a34a538783868661151360208c018c614b60565b8b6020013560405160200161138392919060609290921b6bffffffffffffffffffffffff19168252601482015260340190565b61154f83613723565b601354604051633c17845760e11b81526001600160a01b039091169063782f08ae9061158390869086908690600401615626565b600060405180830381600087803b15801561159d57600080fd5b505af11580156115b1573d6000803e3d6000fd5b50505050505050565b6115c48135613a81565b60135460405163e4bb4f2360e01b815273__$e2c9a8f399964af47bb173600dd9e5f662$__9163e4bb4f2391610d2b9185916001600160a01b0390911690600d90600401615697565b6116178135613a81565b60135460408051635cebf08d60e11b81528335600482015260208401356024820152908301356044820152606083013560648201526001600160a01b039091166084820152600d60a482015273__$e2c9a8f399964af47bb173600dd9e5f662$__9063b9d7e11a9060c401610d2b565b610e6f8383836040518060200160405280600081525061283e565b6000818152600a602052604080822090516116c091600101906156c5565b60408051918290039091206000818152600b6020908152838220829055858252600a9052918220828155909250906116fb60018301826147e3565b6117096002830160006147e3565b50600060038201556004810180546001600160a01b031990811690915560059091018054909116905561173b82613bd1565b5050565b600061174b8335613a81565b82356000908152600a60205260408120600301805467131a5b9adb1a5cdd60c21b9285929091829061134a90615458565b600061178760085490565b82106117ea5760405162461bcd60e51b815260206004820152602c60248201527f455243373231456e756d657261626c653a20676c6f62616c20696e646578206f60448201526b7574206f6620626f756e647360a01b6064820152608401610ca0565b600882815481106117fd576117fd615761565b90600052602060002001549050919050565b61181881613a81565b60135460405162fba02760e01b8152600481018490526000916001600160a01b03169062fba02790602401602060405180830381865afa158015611860573d6000803e3d6000fd5b505050506040513d601f19601f82011682018060405250810190611884919061560d565b601354604051631c5b266960e21b815260048101869052336024820152604481018590529192506001600160a01b03169063716c99a490606401600060405180830381600087803b1580156118d857600080fd5b505af11580156118ec573d6000803e3d6000fd5b5050506000838152600d6020908152604080832085845290915280822086905551839250849186917f94703ec1dd639b589d05fa7c0c14ee1e83b906bfb5f50642cc7ea415a81722889190a4505050565b61194683613a81565b60135482356000908152600d602090815260408083208187013584529091529081902054905163d1b430f760e01b815273__$e2c9a8f399964af47bb173600dd9e5f662$__9263d1b430f7926119b0928892889288926001600160a01b0390921691600401615777565b60006040518083038186803b1580156119c857600080fd5b505af41580156115b1573d6000803e3d6000fd5b6119e68135613a81565b73__$da066dc100670b51e733250a114f607b42$__631e2b88ba8235611a126040850160208601614b60565b611a1f6040860186615308565b86356000908152600a60205260409081902090516001600160e01b031960e088901b168152610d2b9594939291906004016153c6565b611a5f8135613a81565b6013546040516332f107bf60e01b815273__$e2c9a8f399964af47bb173600dd9e5f662$__916332f107bf91610d2b9185916001600160a01b0390911690600d906004016157c4565b611ab184613a81565b611abb8484613c30565b6000848152600e60209081526040808320868452909152902060050154600160a81b900460ff1615611b1c5760405162461bcd60e51b815260206004820152600a602482015269139bdd19531bd8dad95960b21b6044820152606401610ca0565b6000848152600e602090815260408083208684529091529020611b4390600201838361481d565b50837f179143dd0d35a50f482efc003aa5b84a0c3a40d74e9cc2d7ea3053b9e8c37697848484604051611b7893929190615626565b60405180910390a250505050565b6000818152600260205260408120546001600160a01b031680610b935760405162461bcd60e51b815260206004820152602960248201527f4552433732313a206f776e657220717565727920666f72206e6f6e657869737460448201526832b73a103a37b5b2b760b91b6064820152608401610ca0565b611c17611c0d6020830183614b60565b8260200135613ce5565b73__$69db18565ecbefece480e92cc5f8fb1274$__63384afeb3611c3e6020840184614b60565b6020840135611c536060860160408701614b60565b611c606060870187615308565b60106040518763ffffffff1660e01b8152600401610d2b96959493929190615841565b60006001600160a01b038216611cee5760405162461bcd60e51b815260206004820152602a60248201527f4552433732313a2062616c616e636520717565727920666f7220746865207a65604482015269726f206164647265737360b01b6064820152608401610ca0565b506001600160a01b031660009081526003602052604090205490565b611d1382613a81565b611d1d8282613c30565b6000828152600e60209081526040808320848452825291829020600501805460ff60a81b1916600160a81b179055905182815283917f036469f3e73c83520cdefa197d7a9c854c2f8bc0164b82e9f2bd4aa7e150fd30910160405180910390a25050565b611d8a81613a81565b60135460405162fba02760e01b8152600481018490526000916001600160a01b03169062fba02790602401602060405180830381865afa158015611dd2573d6000803e3d6000fd5b505050506040513d601f19601f82011682018060405250810190611df6919061560d565b6000838152600d60209081526040808320848452909152808220829055519192508291849186917f5751ba9aebec2dcd504f8865b0e0c98a772403773fe528fce2fce580c9a8a1659190a4505050565b611e4f83613a81565b6000838152600a60205260409020611e6b90600201838361481d565b50827fc6b6b2c87fb0784186dd03398c7203c866d0ae59539fa3158aecbc86cb587a958383604051611e9e929190615888565b60405180910390a2505050565b6017546000906001600160a01b0316611ec65750600161202b565b60175460405163599d32cd60e01b81526000916001600160a01b03169063599d32cd90611ef99088908890600401615888565b602060405180830381865afa158015611f16573d6000803e3d6000fd5b505050506040513d601f19601f82011682018060405250810190611f3a919061589c565b601754604051630354faeb60e41b81529192506000916001600160a01b039091169063354faeb090611f729089908990600401615888565b602060405180830381865afa158015611f8f573d6000803e3d6000fd5b505050506040513d601f19601f82011682018060405250810190611fb3919061589c565b9050836001600160a01b0316826001600160a01b03161480611fe65750836001600160a01b0316816001600160a01b0316145b15611ff65760019250505061202b565b6001600160a01b03821615801561201457506001600160a01b038116155b156120245760019250505061202b565b6000925050505b9392505050565b6000838152600a602052604090206003015460609061205a8361205586846158b9565b613d9f565b9250826001600160401b038111156120745761207461501c565b6040519080825280602002602001820160405280156120ad57816020015b61209a6148a1565b8152602001906001900390816120925790505b5091508084106120bd575061202b565b835b8381101561222257600e6000878152602001908152602001600020600082815260200190815260200160002060405180610100016040529081600082015481526020016001820154815260200160028201805461211b906152d3565b80601f0160208091040260200160405190810160405280929190818152602001828054612147906152d3565b80156121945780601f1061216957610100808354040283529160200191612194565b820191906000526020600020905b81548152906001019060200180831161217757829003601f168201915b505050918352505060038201546001600160a01b039081166020830152600483015481166040830152600590920154918216606082015260ff600160a01b8304811615156080830152600160a81b909204909116151560a090910152835184908390811061220457612204615761565b6020026020010181905250808061221a90615458565b9150506120bf565b50509392505050565b6122358135613a81565b60135481356000908152600d6020908152604080832060608601358452909152908190205490516317e9a8b160e31b815273__$e2c9a8f399964af47bb173600dd9e5f662$__9263bf4d458892610d2b9286926001600160a01b031691906004016158d0565b6122a58135613a81565b60135481356000908152600d6020908152604080832081860135845290915290819020549051631a530d7760e21b815273__$e2c9a8f399964af47bb173600dd9e5f662$__9263694c35dc92610d2b9286926001600160a01b03169190600401615949565b60135460405162fba02760e01b8152600481018390526000916001600160a01b03169062fba02790602401602060405180830381865afa158015612352573d6000803e3d6000fd5b505050506040513d601f19601f82011682018060405250810190610b93919061560d565b60006123828335613a81565b82356000908152600a602052604081206003018054664164647265737360c81b926001600160a01b03861692909182906123bb90615458565b919050819055905073__$2873850e5b3f5697aafc2f5cd9f27cc884$__6342a34a53878386868a604051602001611383919060609190911b6bffffffffffffffffffffffff1916815260140190565b606060018054610ba8906152d3565b61242282613a81565b60405163470c9bf360e11b8152600481018390526001600160a01b0382166024820152600a604482015273__$da066dc100670b51e733250a114f607b42$__90638e1937e69060640160006040518083038186803b15801561248357600080fd5b505af4158015612497573d6000803e3d6000fd5b505050505050565b6124a98135613a81565b601354604051635fe5df1d60e11b815273__$e2c9a8f399964af47bb173600dd9e5f662$__9163bfcbbe3a91610d2b9185916001600160a01b0390911690600d90600401615949565b60006124fe8335613a81565b601354604051635cb46be760e01b81526000600482018190528435602483015260208501356044830152634e6f746560e01b9290916001600160a01b0390911690635cb46be7906064016020604051808303816000875af1158015612567573d6000803e3d6000fd5b505050506040513d601f19601f8201168201806040525081019061258b919061560d565b85356000908152600a602052604081206003018054929350909182906125b090615458565b919050819055905073__$2873850e5b3f5697aafc2f5cd9f27cc884$__6342a34a53878386868a600001358b60200135604051602001611383929190918252602082015260400190565b61173b338383613db5565b61260e83613a81565b61261c828261083586611b86565b61265c5760405162461bcd60e51b815260206004820152601160248201527048616e646c654e6f74456c696769626c6560781b6044820152606401610ca0565b60405163c57cb53760e01b815273__$da066dc100670b51e733250a114f607b42$__9063c57cb537906119b090869086908690600b90600a9060040161595c565b60006126ae82356020840135613c30565b73__$2873850e5b3f5697aafc2f5cd9f27cc884$__6379b8a998833560208501356126df6060870160408801614b60565b6126ec6060880188615308565b6014546040516001600160e01b031960e089901b1681526127249695949392916001600160a01b031690600a90600e9060040161598a565b602060405180830381865af4158015612352573d6000803e3d6000fd5b61274b8135613a81565b6127588160200135613e84565b73__$e2c9a8f399964af47bb173600dd9e5f662$__634fcfb9b082356020840135604085013561278b6060870187615308565b6040516331a9108f60e11b8152883560048201523090636352211e90602401602060405180830381865afa1580156127c7573d6000803e3d6000fd5b505050506040513d601f19601f820116820180604052508101906127eb919061589c565b6013546020808b01356000908152600a9091526040908190206005015490516001600160e01b031960e08b901b168152610d2b989796959493926001600160a01b03908116921690600d906004016159d8565b61284833836137e3565b6128645760405162461bcd60e51b8152600401610ca0906153f1565b61287084848484613edb565b50505050565b6128808135613a81565b60135481356000908152600d60209081526040808320818601358452909152908190205490516352bff63d60e01b815273__$e2c9a8f399964af47bb173600dd9e5f662$__926352bff63d92610d2b9286926001600160a01b03169190600401615697565b6128ef8135613a81565b61290181602001358260400135613c30565b601354604051631619823f60e31b815273__$e2c9a8f399964af47bb173600dd9e5f662$__9163b0cc11f891610d2b9185916001600160a01b0390911690600e90600d90600401615a32565b61296a61295d6020830183615308565b6108356020850185614b60565b6129aa5760405162461bcd60e51b815260206004820152601160248201527048616e646c654e6f74456c696769626c6560781b6044820152606401610ca0565b6012546129b8906001615aa8565b6012556129d36129cb6020830183614b60565b601254613f0e565b6012546040516328837e1960e21b815273__$da066dc100670b51e733250a114f607b42$__9163a20df86491612a1791859160019190600b90600a90600401615ac0565b60006040518083038186803b158015612a2f57600080fd5b505af4158015612a43573d6000803e3d6000fd5b50600c925060009150612a5b90506020840184614b60565b6001600160a01b03168152602081019190915260400160002054610eae57601254600c6000612a8d6020850185614b60565b6001600160a01b0316815260208101919091526040016000205550565b612ab38261405c565b61173b82826140da565b612ac682613a81565b612ad08282613c30565b6000918252600e602090815260408084209284529190529020600501805460ff60a01b1916600160a01b179055565b600080612b0b83611b86565b6001600160a01b03166000908152600c60205260409020549290921492915050565b612b3683613a81565b6013546040516327e70cd360e01b815273__$e2c9a8f399964af47bb173600dd9e5f662$__916327e70cd3916119b0918791879187916001600160a01b0390911690600d90600401615777565b6000818152600a60205260409020600201805460609190612ba3906152d3565b80601f0160208091040260200160405190810160405280929190818152602001828054612bcf906152d3565b8015612c1c5780601f10612bf157610100808354040283529160200191612c1c565b820191906000526020600020905b815481529060010190602001808311612bff57829003601f168201915b50505050509050919050565b612c328135613a81565b612c4f612c456040830160208401614b60565b8260400135613b21565b601354604051638f3334ff60e01b815273__$e2c9a8f399964af47bb173600dd9e5f662$__91638f3334ff91610d2b9185916001600160a01b0390911690600d90600401615ba1565b6060610b9382612b83565b612cad8135613a81565b612cbc81356020830135613c30565b73__$69db18565ecbefece480e92cc5f8fb1274$__6320828a0282356020840135612ced6060860160408701614b60565b612cfa6060870187615308565b600e6040518763ffffffff1660e01b8152600401610d2b96959493929190615c19565b612d256148a1565b600e60008481526020019081526020016000206000838152602001908152602001600020604051806101000160405290816000820154815260200160018201548152602001600282018054612d79906152d3565b80601f0160208091040260200160405190810160405280929190818152602001828054612da5906152d3565b8015612df25780601f10612dc757610100808354040283529160200191612df2565b820191906000526020600020905b815481529060010190602001808311612dd557829003601f168201915b505050918352505060038201546001600160a01b039081166020830152600483015481166040830152600590920154918216606082015260ff600160a01b8304811615156080830152600160a81b909204909116151560a090910152905092915050565b612e608135613a81565b612e6f81356020830135613c30565b73__$69db18565ecbefece480e92cc5f8fb1274$__631f2ffb6982356020840135612ced6060860160408701614b60565b601354604051632b05429560e21b8152600481018390526060916001600160a01b03169063ac150a5490602401600060405180830381865afa158015612eea573d6000803e3d6000fd5b505050506040513d6000823e601f3d908101601f19168201604052610b939190810190615c47565b601454600160a81b900460ff16612f3657601454600160a01b900460ff1615612f3a565b303b155b612f9d5760405162461bcd60e51b815260206004820152602e60248201527f496e697469616c697a61626c653a20636f6e747261637420697320616c72656160448201526d191e481a5b9a5d1a585b1a5e995960921b6064820152608401610ca0565b601454600160a81b900460ff16158015612fc7576014805461ffff60a01b191661010160a01b1790555b612fd38989898961413e565b601380546001600160a01b03199081166001600160a01b0388811691909117909255601480548216878416179055601580548216868416179055601780549091169184169190911790556040514281527f400175a56dd3710794078f7b9dbe8296ac94c5a248dfd51bb22ed4ab9eaa9fbf9060200160405180910390a18015613064576014805460ff60a81b191690555b505050505050505050565b6000818152600a60205260409020600101805460609190612ba3906152d3565b6130998135613a81565b60135481356000908152600d602090815260408083208186013584529091529081902054905163bf5c00c160e01b815273__$e2c9a8f399964af47bb173600dd9e5f662$__9263bf5c00c192610d2b9286926001600160a01b03169190600401615cb4565b61310661479b565b600a60008381526020019081526020016000206040518060c00160405290816000820154815260200160018201805461313e906152d3565b80601f016020809104026020016040519081016040528092919081815260200182805461316a906152d3565b80156131b75780601f1061318c576101008083540402835291602001916131b7565b820191906000526020600020905b81548152906001019060200180831161319a57829003601f168201915b505050505081526020016002820180546131d0906152d3565b80601f01602080910402602001604051908101604052809291908181526020018280546131fc906152d3565b80156132495780601f1061321e57610100808354040283529160200191613249565b820191906000526020600020905b81548152906001019060200180831161322c57829003601f168201915b50505091835250506003820154602082015260048201546001600160a01b03908116604083015260059092015490911660609091015292915050565b60006132918435613a81565b601354604051633610bf0960e11b815265416e7955726960d01b916000916001600160a01b0390911690636c217e12906132d390849089908990600401615626565b6020604051808303816000875af11580156132f2573d6000803e3d6000fd5b505050506040513d601f19601f82011682018060405250810190613316919061560d565b86356000908152600a6020526040812060030180549293509091829061333b90615458565b919050819055905073__$2873850e5b3f5697aafc2f5cd9f27cc884$__6342a34a53888386868b8b6040516020016133749291906153b6565b604051602081830303815290604052600e6040518763ffffffff1660e01b81526004016133a6969594939291906155c2565b60006040518083038186803b1580156133be57600080fd5b505af41580156133d2573d6000803e3d6000fd5b50929998505050505050505050565b60006001600160e01b031982166380ac58cd60e01b148061341257506001600160e01b03198216635b5e139f60e01b145b80610b9357506301ffc9a760e01b6001600160e01b0319831614610b93565b600081815260046020526040902080546001600160a01b0319166001600160a01b038416908117909155819061346682611b86565b6001600160a01b03167f8c5be1e5ebec7d5bd14f71427d1e84f3dd0314c0f7b2291e5b200ac8c7c3b92560405160405180910390a45050565b6134a884613a81565b6001600160a01b0383166000908152600c6020526040902054156135225760405162461bcd60e51b815260206004820152602b60248201527f546172676574206164647265737320616c726561647920686173207072696d6160448201526a393c90383937b334b6329760a91b6064820152608401610ca0565b600060126000815461353390615458565b918290555090506135448482613f0e565b73__$da066dc100670b51e733250a114f607b42$__63a20df8646040518060a00160405280876001600160a01b0316815260200161358c886001600160a01b0316601461418f565b815260200160405180602001604052806000815250815260200160006001600160a01b0316815260200160405180602001604052806000815250815250600084600b600a6040518663ffffffff1660e01b81526004016135f0959493929190615d0c565b60006040518083038186803b15801561360857600080fd5b505af415801561361c573d6000803e3d6000fd5b505050506001600160a01b0384166000908152600c602052604090819020829055516331a9108f60e11b81526004810186905273__$e2c9a8f399964af47bb173600dd9e5f662$__90634fcfb9b09087908490879087903090636352211e90602401602060405180830381865afa15801561369b573d6000803e3d6000fd5b505050506040513d601f19601f820116820180604052508101906136bf919061589c565b6013546040516001600160e01b031960e089901b1681526136f79695949392916001600160a01b031690600090600d90600401615d99565b60006040518083038186803b15801561370f57600080fd5b505af4158015613064573d6000803e3d6000fd5b6013546040516331a9108f60e11b8152600481018390526001600160a01b0390911690636352211e90602401602060405180830381865afa15801561376c573d6000803e3d6000fd5b505050506040513d601f19601f82011682018060405250810190613790919061589c565b6001600160a01b0316336001600160a01b031614610eae5760405162461bcd60e51b815260206004820152601060248201526f2737ba2634b735a634b9ba27bbb732b960811b6044820152606401610ca0565b6000818152600260205260408120546001600160a01b031661385c5760405162461bcd60e51b815260206004820152602c60248201527f4552433732313a206f70657261746f7220717565727920666f72206e6f6e657860448201526b34b9ba32b73a103a37b5b2b760a11b6064820152608401610ca0565b600061386783611b86565b9050806001600160a01b0316846001600160a01b031614806138a25750836001600160a01b031661389784610c2b565b6001600160a01b0316145b806138d257506001600160a01b0380821660009081526005602090815260408083209388168352929052205460ff165b949350505050565b826001600160a01b03166138ed82611b86565b6001600160a01b0316146139515760405162461bcd60e51b815260206004820152602560248201527f4552433732313a207472616e736665722066726f6d20696e636f72726563742060448201526437bbb732b960d91b6064820152608401610ca0565b6001600160a01b0382166139b35760405162461bcd60e51b8152602060048201526024808201527f4552433732313a207472616e7366657220746f20746865207a65726f206164646044820152637265737360e01b6064820152608401610ca0565b6139be83838361432a565b6139c9600082613431565b6001600160a01b03831660009081526003602052604081208054600192906139f29084906158b9565b90915550506001600160a01b0382166000908152600360205260408120805460019290613a20908490615aa8565b909155505060008181526002602052604080822080546001600160a01b0319166001600160a01b0386811691821790925591518493918716917fddf252ad1be2c89b69c2b068fc378daa952ba7f163c4a11628f55a4df523b3ef91a4505050565b6000613a8c82611b86565b9050336001600160a01b0382161480613abb57506000828152601660205260409020546001600160a01b031633145b80613ae35750326001600160a01b038216148015613ae357506015546001600160a01b031633145b61173b5760405162461bcd60e51b815260206004820152600f60248201526e2737ba283937b334b632a7bbb732b960891b6044820152606401610ca0565b6040516331a9108f60e11b8152600481018290526001600160a01b03831690636352211e90602401602060405180830381865afa158015613b66573d6000803e3d6000fd5b505050506040513d601f19601f82011682018060405250810190613b8a919061589c565b6001600160a01b031661173b5760405162461bcd60e51b815260206004820152600f60248201526e5245433732314e6f7445786973747360881b6044820152606401610ca0565b613bdb33826137e3565b613c275760405162461bcd60e51b815260206004820152601b60248201527f4e4654426173653a204e6f744f776e65724f72417070726f76656400000000006044820152606401610ca0565b610eae81614395565b6000828152600e60209081526040808320848452909152902060050154600160a01b900460ff1615613c945760405162461bcd60e51b815260206004820152600d60248201526c139bdd19525cd1195b195d1959609a1b6044820152606401610ca0565b6000828152600a602052604090206003015481111561173b5760405162461bcd60e51b815260206004820152600d60248201526c4e6f74654e6f7445786973747360981b6044820152606401610ca0565b6040516331a9108f60e11b8152600481018290526001600160a01b03831690636352211e90602401602060405180830381865afa158015613d2a573d6000803e3d6000fd5b505050506040513d601f19601f82011682018060405250810190613d4e919061589c565b6001600160a01b0316336001600160a01b03161461173b5760405162461bcd60e51b815260206004820152600e60248201526d2737ba22a9219b9918a7bbb732b960911b6044820152606401610ca0565b6000818310613dae578161202b565b5090919050565b816001600160a01b0316836001600160a01b03161415613e175760405162461bcd60e51b815260206004820152601960248201527f4552433732313a20617070726f766520746f2063616c6c6572000000000000006044820152606401610ca0565b6001600160a01b03838116600081815260056020908152604080832094871680845294825291829020805460ff191686151590811790915591519182527f17307eab39ab6107e8899845ad3d59bd9653f200f220920489ca2b5937696c31910160405180910390a3505050565b6000818152600260205260409020546001600160a01b0316610eae5760405162461bcd60e51b815260206004820152601060248201526f50726f66696c654e6f7445786973747360801b6044820152606401610ca0565b613ee68484846138da565b613ef28484848461443c565b6128705760405162461bcd60e51b8152600401610ca090615df1565b6001600160a01b038216613f645760405162461bcd60e51b815260206004820181905260248201527f4552433732313a206d696e7420746f20746865207a65726f20616464726573736044820152606401610ca0565b6000818152600260205260409020546001600160a01b031615613fc95760405162461bcd60e51b815260206004820152601c60248201527f4552433732313a20746f6b656e20616c7265616479206d696e746564000000006044820152606401610ca0565b613fd56000838361432a565b6001600160a01b0382166000908152600360205260408120805460019290613ffe908490615aa8565b909155505060008181526002602052604080822080546001600160a01b0319166001600160a01b03861690811790915590518392907fddf252ad1be2c89b69c2b068fc378daa952ba7f163c4a11628f55a4df523b3ef908290a45050565b600061406782611b86565b9050336001600160a01b0382161480613ae35750326001600160a01b038216148015613ae357506015546001600160a01b0316331461173b5760405162461bcd60e51b815260206004820152600f60248201526e2737ba283937b334b632a7bbb732b960891b6044820152606401610ca0565b60008281526016602090815260409182902080546001600160a01b0319166001600160a01b038516908117909155915142815284917f7557fcfe5715156a688dd4ab724febd306cec5637d46a8c9d7af125ddd07bae8910160405180910390a35050565b61414a8484848461453a565b7f414cd0b34676984f09a5f76ce9718d4062e50283abe0e7e274a9a5b4e0c99c308484848442604051614181959493929190615e43565b60405180910390a150505050565b6060600061419e836002615e7d565b6141a9906002615aa8565b6001600160401b038111156141c0576141c061501c565b6040519080825280601f01601f1916602001820160405280156141ea576020820181803683370190505b509050600360fc1b8160008151811061420557614205615761565b60200101906001600160f81b031916908160001a905350600f60fb1b8160018151811061423457614234615761565b60200101906001600160f81b031916908160001a9053506000614258846002615e7d565b614263906001615aa8565b90505b60018111156142db576f181899199a1a9b1b9c1cb0b131b232b360811b85600f166010811061429757614297615761565b1a60f81b8282815181106142ad576142ad615761565b60200101906001600160f81b031916908160001a90535060049490941c936142d481615e9c565b9050614266565b50831561202b5760405162461bcd60e51b815260206004820181905260248201527f537472696e67733a20686578206c656e67746820696e73756666696369656e746044820152606401610ca0565b6000818152601660205260409020546001600160a01b031615614352576143528160006140da565b6001600160a01b0383166000908152600c60205260409020541561438a576001600160a01b0383166000908152600c60205260408120555b610e6f838383614553565b60006143a082611b86565b90506143ae8160008461432a565b6143b9600083613431565b6001600160a01b03811660009081526003602052604081208054600192906143e29084906158b9565b909155505060008281526002602052604080822080546001600160a01b0319169055518391906001600160a01b038416907fddf252ad1be2c89b69c2b068fc378daa952ba7f163c4a11628f55a4df523b3ef908390a45050565b60006001600160a01b0384163b1561452f57604051630a85bd0160e11b81526001600160a01b0385169063150b7a0290614480903390899088908890600401615eb3565b6020604051808303816000875af19250505080156144bb575060408051601f3d908101601f191682019092526144b891810190615ef0565b60015b614515573d8080156144e9576040519150601f19603f3d011682016040523d82523d6000602084013e6144ee565b606091505b50805161450d5760405162461bcd60e51b8152600401610ca090615df1565b805181602001fd5b6001600160e01b031916630a85bd0160e11b1490506138d2565b506001949350505050565b6145466000858561481d565b50610d576001838361481d565b6001600160a01b0383166145ae576145a981600880546000838152600960205260408120829055600182018355919091527ff3f7a9fe364faab93b216da50a3214154f22a0a2b415b23a84c8169e8b636ee30155565b6145d1565b816001600160a01b0316836001600160a01b0316146145d1576145d1838261460b565b6001600160a01b0382166145e857610e6f816146a8565b826001600160a01b0316826001600160a01b031614610e6f57610e6f8282614757565b6000600161461884611c83565b61462291906158b9565b600083815260076020526040902054909150808214614675576001600160a01b03841660009081526006602090815260408083208584528252808320548484528184208190558352600790915290208190555b5060009182526007602090815260408084208490556001600160a01b039094168352600681528383209183525290812055565b6008546000906146ba906001906158b9565b600083815260096020526040812054600880549394509092849081106146e2576146e2615761565b90600052602060002001549050806008838154811061470357614703615761565b600091825260208083209091019290925582815260099091526040808220849055858252812055600880548061473b5761473b615f0d565b6001900381819060005260206000200160009055905550505050565b600061476283611c83565b6001600160a01b039093166000908152600660209081526040808320868452825280832085905593825260079052919091209190915550565b6040518060c001604052806000815260200160608152602001606081526020016000815260200160006001600160a01b0316815260200160006001600160a01b031681525090565b5080546147ef906152d3565b6000825580601f106147ff575050565b601f016020900490600052602060002090810190610eae91906148e6565b828054614829906152d3565b90600052602060002090601f01602090048101928261484b5760008555614891565b82601f106148645782800160ff19823516178555614891565b82800160010185558215614891579182015b82811115614891578235825591602001919060010190614876565b5061489d9291506148e6565b5090565b604080516101008101825260008082526020820181905260609282018390529181018290526080810182905260a0810182905260c0810182905260e081019190915290565b5b8082111561489d57600081556001016148e7565b6001600160e01b031981168114610eae57600080fd5b60006020828403121561492357600080fd5b813561202b816148fb565b60005b83811015614949578181015183820152602001614931565b838111156128705750506000910152565b6000815180845261497281602086016020860161492e565b601f01601f19169290920160200192915050565b60208152600061202b602083018461495a565b6000602082840312156149ab57600080fd5b5035919050565b6000606082840312156149c457600080fd5b50919050565b6000602082840312156149dc57600080fd5b81356001600160401b038111156149f257600080fd5b6138d2848285016149b2565b6001600160a01b0381168114610eae57600080fd5b60008060408385031215614a2657600080fd5b8235614a31816149fe565b946020939093013593505050565b600060608284031215614a5157600080fd5b61202b83836149b2565b60008083601f840112614a6d57600080fd5b5081356001600160401b03811115614a8457600080fd5b602083019150836020828501011115614a9c57600080fd5b9250929050565b60008060208385031215614ab657600080fd5b82356001600160401b03811115614acc57600080fd5b614ad885828601614a5b565b90969095509350505050565b60208152815160208201526000602083015160c06040840152614b0a60e084018261495a565b90506040840151601f19848303016060850152614b27828261495a565b91505060608401516080840152608084015160018060a01b0380821660a08601528060a08701511660c086015250508091505092915050565b600060208284031215614b7257600080fd5b813561202b816149fe565b600080600060608486031215614b9257600080fd5b8335614b9d816149fe565b92506020840135614bad816149fe565b929592945050506040919091013590565b600060e082840312156149c457600080fd5b600060208284031215614be257600080fd5b81356001600160401b03811115614bf857600080fd5b6138d284828501614bbe565b60008060408385031215614c1757600080fd5b82356001600160401b03811115614c2d57600080fd5b614c3985828601614bbe565b95602094909401359450505050565b6000604082840312156149c457600080fd5b60008060608385031215614c6d57600080fd5b82356001600160401b03811115614c8357600080fd5b614c8f85828601614bbe565b925050614c9f8460208501614c48565b90509250929050565b600080600060408486031215614cbd57600080fd5b8335925060208401356001600160401b03811115614cda57600080fd5b614ce686828701614a5b565b9497909650939450505050565b6000608082840312156149c457600080fd5b600060208284031215614d1757600080fd5b81356001600160401b03811115614d2d57600080fd5b6138d284828501614cf3565b600060808284031215614d4b57600080fd5b61202b8383614cf3565b60008060408385031215614d6857600080fd5b50508035926020909101359150565b600080600060a08486031215614d8c57600080fd5b83359250614d9d85602086016149b2565b9150608084013590509250925092565b60008060008060608587031215614dc357600080fd5b843593506020850135925060408501356001600160401b03811115614de757600080fd5b614df387828801614a5b565b95989497509550505050565b600080600060408486031215614e1457600080fd5b83356001600160401b03811115614e2a57600080fd5b614e3686828701614a5b565b9094509250506020840135614e4a816149fe565b809150509250925092565b600080600060608486031215614e6a57600080fd5b505081359360208301359350604090920135919050565b600061010082518452602083015160208501526040830151816040860152614eab8286018261495a565b915050606083015160018060a01b0380821660608701528060808601511660808701528060a08601511660a0870152505060c0830151151560c085015260e0830151614efb60e086018215159052565b509392505050565b6000602080830181845280855180835260408601915060408160051b870101925083870160005b82811015614f5857603f19888603018452614f46858351614e81565b94509285019290850190600101614f2a565b5092979650505050505050565b60008060408385031215614f7857600080fd5b82356001600160401b03811115614f8e57600080fd5b614f9a85828601614bbe565b9250506020830135614fab816149fe565b809150509250929050565b60008060408385031215614fc957600080fd5b823591506020830135614fab816149fe565b80358015158114614feb57600080fd5b919050565b6000806040838503121561500357600080fd5b823561500e816149fe565b9150614c9f60208401614fdb565b634e487b7160e01b600052604160045260246000fd5b604051601f8201601f191681016001600160401b038111828210171561505a5761505a61501c565b604052919050565b60006001600160401b0382111561507b5761507b61501c565b50601f01601f191660200190565b6000806000806080858703121561509f57600080fd5b84356150aa816149fe565b935060208501356150ba816149fe565b92506040850135915060608501356001600160401b038111156150dc57600080fd5b8501601f810187136150ed57600080fd5b80356151006150fb82615062565b615032565b81815288602083850101111561511557600080fd5b8160208401602083013760006020838301015280935050505092959194509250565b600060a082840312156149c457600080fd5b60006020828403121561515b57600080fd5b81356001600160401b0381111561517157600080fd5b6138d284828501615137565b60208152600061202b6020830184614e81565b60008060008060008060008060c0898b0312156151ac57600080fd5b88356001600160401b03808211156151c357600080fd5b6151cf8c838d01614a5b565b909a50985060208b01359150808211156151e857600080fd5b506151f58b828c01614a5b565b9097509550506040890135615209816149fe565b93506060890135615219816149fe565b92506080890135615229816149fe565b915060a0890135615239816149fe565b809150509295985092959890939650565b6000806040838503121561525d57600080fd5b8235615268816149fe565b91506020830135614fab816149fe565b60008060006040848603121561528d57600080fd5b83356001600160401b03808211156152a457600080fd5b6152b087838801614bbe565b945060208601359150808211156152c657600080fd5b50614ce686828701614a5b565b600181811c908216806152e757607f821691505b602082108114156149c457634e487b7160e01b600052602260045260246000fd5b6000808335601e1984360301811261531f57600080fd5b8301803591506001600160401b0382111561533957600080fd5b602001915036819003821315614a9c57600080fd5b81835281816020850137506000828201602090810191909152601f909101601f19169091010190565b6001600160a01b038681168252851660208201526080604082018190526000906153a4908301858761534e565b90508260608301529695505050505050565b8183823760009101908152919050565b8581526001600160a01b03851660208201526080604082018190526000906153a4908301858761534e565b60208082526031908201527f4552433732313a207472616e736665722063616c6c6572206973206e6f74206f6040820152701ddb995c881b9bdc88185c1c1c9bdd9959607a1b606082015260800190565b634e487b7160e01b600052601160045260246000fd5b600060001982141561546c5761546c615442565b5060010190565b6000808335601e1984360301811261548a57600080fd5b83016020810192503590506001600160401b038111156154a957600080fd5b803603831315614a9c57600080fd5b8035825260006154cb6020830183615473565b60e060208601526154e060e08601828461534e565b91505060408301356154f1816149fe565b6001600160a01b03818116604087015261550e6060860186615473565b9250868403606088015261552384848361534e565b93505060808501359150615536826149fe565b16608085015261554960a0840184615473565b85830360a087015261555c83828461534e565b9250505061556c60c08401614fdb565b151560c08501528091505092915050565b60c08152600061559060c08301886154b8565b602083810197909752604083019590955250606081019290925281830360808301526000835260a09091015201919050565b60c0815260006155d560c08301896154b8565b87602084015286604084015285606084015282810360808401526155f9818661495a565b9150508260a0830152979650505050505050565b60006020828403121561561f57600080fd5b5051919050565b83815260406020820152600061564060408301848661534e565b95945050505050565b803582526000602082013561565d816149fe565b6001600160a01b03166020840152604082810135908401526156826060830183615473565b6080606086015261564060808601828461534e565b6060815260006156aa6060830186615649565b6001600160a01b039490941660208301525060400152919050565b600080835481600182811c9150808316806156e157607f831692505b602080841082141561570157634e487b7160e01b86526022600452602486fd5b818015615715576001811461572657615753565b60ff19861689528489019650615753565b60008a81526020902060005b8681101561574b5781548b820152908501908301615732565b505084890196505b509498975050505050505050565b634e487b7160e01b600052603260045260246000fd5b85815260e0810161579f60208301878035825260208082013590830152604090810135910152565b60808201949094526001600160a01b039290921660a083015260c09091015292915050565b606081528335606082015260006157de6020860186615473565b6080808501526157f260e08501828461534e565b915050604086013560a084015261580c6060870187615473565b848303605f190160c086015261582383828461534e565b6001600160a01b039790971660208601525050505060400152919050565b6001600160a01b038781168252602082018790528516604082015260a060608201819052600090615875908301858761534e565b9050826080830152979650505050505050565b6020815260006138d260208301848661534e565b6000602082840312156158ae57600080fd5b815161202b816149fe565b6000828210156158cb576158cb615442565b500390565b8335815260c0810160208501356158e6816149fe565b6001600160a01b039081166020840152604086810135908401526060958601359583019590955292909316608084015260a09092019190915290565b80358252602081013560208301526040810135604083015260006156826060830183615473565b6060815260006156aa6060830186615922565b85815260806020820152600061597660808301868861534e565b604083019490945250606001529392505050565b888152876020820152600060018060a01b03808916604084015260e060608401526159b960e08401888a61534e565b951660808301525060a081019290925260c09091015295945050505050565b60006101008b83528a60208401528960408401528060608401526159ff818401898b61534e565b6001600160a01b03978816608085015295871660a084015250509190931660c082015260e0019190915295945050505050565b6080815284356080820152602085013560a0820152604085013560c0820152606085013560e08201526000615a6a6080870187615473565b60a0610100850152615a816101208501828461534e565b6001600160a01b039790971660208501525050506040810192909252606090910152919050565b60008219821115615abb57615abb615442565b500190565b60a0815260008635615ad1816149fe565b6001600160a01b0381811660a0850152615aee60208a018a615473565b925060a060c0860152615b066101408601848361534e565b925050615b1660408a018a615473565b609f19808786030160e0880152615b2e85838561534e565b945060608c01359250615b40836149fe565b838316610100880152615b5660808d018d615473565b9450925080878603016101208801525050615b7283838361534e565b9350505050615b85602083018715159052565b8460408301528360608301528260808301529695505050505050565b606081528335606082015260006020850135615bbc816149fe565b60018060a01b038082166080850152604087013560a0850152606087013560c0850152615bec6080880188615473565b925060a060e0860152615c046101008601848361534e565b96909116602085015250505060400152919050565b86815285602082015260018060a01b038516604082015260a06060820152600061587560a08301858761534e565b600060208284031215615c5957600080fd5b81516001600160401b03811115615c6f57600080fd5b8201601f81018413615c8057600080fd5b8051615c8e6150fb82615062565b818152856020838501011115615ca357600080fd5b61564082602083016020860161492e565b60608152833560608201526000615cce6020860186615473565b60606080850152615ce360c08501828461534e565b60409788013560a08601526001600160a01b039690961660208501525050509092019190915290565b60a08152600060018060a01b038088511660a0840152602088015160a060c0850152615d3c61014085018261495a565b90506040890151609f19808684030160e0870152615d5a838361495a565b92508360608c01511661010087015260808b0151935080868403016101208701525050615d87818361495a565b92505050615b85602083018715159052565b60006101008a8352896020840152886040840152806060840152615dbf8184018961495a565b6001600160a01b03978816608085015295871660a084015250509190931660c082015260e00191909152949350505050565b60208082526032908201527f4552433732313a207472616e7366657220746f206e6f6e20455243373231526560408201527131b2b4bb32b91034b6b83632b6b2b73a32b960711b606082015260800190565b606081526000615e5760608301878961534e565b8281036020840152615e6a81868861534e565b9150508260408301529695505050505050565b6000816000190483118215151615615e9757615e97615442565b500290565b600081615eab57615eab615442565b506000190190565b6001600160a01b0385811682528416602082015260408101839052608060608201819052600090615ee69083018461495a565b9695505050505050565b600060208284031215615f0257600080fd5b815161202b816148fb565b634e487b7160e01b600052603160045260246000fdfea2646970667358221220ee25c368492c52e78399f9f1637e955ed53ca5155ad4f0f4be63a095a7cdc46864736f6c634300080a0033",
    "linkReferences": {
        "contracts/libraries/LinkLogic.sol": {
            "LinkLogic": [
                {
                    "length": 20,
                    "start": 4485
                },
                {
                    "length": 20,
                    "start": 5623
                },
                {
                    "length": 20,
                    "start": 5766
                },
                {
                    "length": 20,
                    "start": 6553
                },
                {
                    "length": 20,
                    "start": 6802
                },
                {
                    "length": 20,
                    "start": 8841
                },
                {
                    "length": 20,
                    "start": 8952
                },
                {
                    "length": 20,
                    "start": 9436
                },
                {
                    "length": 20,
                    "start": 10107
                },
                {
                    "length": 20,
                    "start": 10451
                },
                {
                    "length": 20,
                    "start": 10548
                },
                {
                    "length": 20,
                    "start": 11113
                },
                {
                    "length": 20,
                    "start": 11394
                },
                {
                    "length": 20,
                    "start": 12524
                },
                {
                    "length": 20,
                    "start": 13938
                }
            ]
        },
        "contracts/libraries/LinkModuleLogic.sol": {
            "LinkModuleLogic": [
                {
                    "length": 20,
                    "start": 3304
                },
                {
                    "length": 20,
                    "start": 4237
                },
                {
                    "length": 20,
                    "start": 7226
                },
                {
                    "length": 20,
                    "start": 11487
                },
                {
                    "length": 20,
                    "start": 11922
                }
            ]
        },
        "contracts/libraries/PostLogic.sol": {
            "PostLogic": [
                {
                    "length": 20,
                    "start": 4656
                },
                {
                    "length": 20,
                    "start": 4981
                },
                {
                    "length": 20,
                    "start": 5387
                },
                {
                    "length": 20,
                    "start": 9190
                },
                {
                    "length": 20,
                    "start": 9691
                },
                {
                    "length": 20,
                    "start": 9937
                },
                {
                    "length": 20,
                    "start": 13158
                }
            ]
        },
        "contracts/libraries/ProfileLogic.sol": {
            "ProfileLogic": [
                {
                    "length": 20,
                    "start": 6665
                },
                {
                    "length": 20,
                    "start": 9327
                },
                {
                    "length": 20,
                    "start": 9868
                },
                {
                    "length": 20,
                    "start": 10758
                },
                {
                    "length": 20,
                    "start": 13671
                }
            ]
        }
    },
    "deployedLinkReferences": {
        "contracts/libraries/LinkLogic.sol": {
            "LinkLogic": [
                {
                    "length": 20,
                    "start": 4452
                },
                {
                    "length": 20,
                    "start": 5590
                },
                {
                    "length": 20,
                    "start": 5733
                },
                {
                    "length": 20,
                    "start": 6520
                },
                {
                    "length": 20,
                    "start": 6769
                },
                {
                    "length": 20,
                    "start": 8808
                },
                {
                    "length": 20,
                    "start": 8919
                },
                {
                    "length": 20,
                    "start": 9403
                },
                {
                    "length": 20,
                    "start": 10074
                },
                {
                    "length": 20,
                    "start": 10418
                },
                {
                    "length": 20,
                    "start": 10515
                },
                {
                    "length": 20,
                    "start": 11080
                },
                {
                    "length": 20,
                    "start": 11361
                },
                {
                    "length": 20,
                    "start": 12491
                },
                {
                    "length": 20,
                    "start": 13905
                }
            ]
        },
        "contracts/libraries/LinkModuleLogic.sol": {
            "LinkModuleLogic": [
                {
                    "length": 20,
                    "start": 3271
                },
                {
                    "length": 20,
                    "start": 4204
                },
                {
                    "length": 20,
                    "start": 7193
                },
                {
                    "length": 20,
                    "start": 11454
                },
                {
                    "length": 20,
                    "start": 11889
                }
            ]
        },
        "contracts/libraries/PostLogic.sol": {
            "PostLogic": [
                {
                    "length": 20,
                    "start": 4623
                },
                {
                    "length": 20,
                    "start": 4948
                },
                {
                    "length": 20,
                    "start": 5354
                },
                {
                    "length": 20,
                    "start": 9157
                },
                {
                    "length": 20,
                    "start": 9658
                },
                {
                    "length": 20,
                    "start": 9904
                },
                {
                    "length": 20,
                    "start": 13125
                }
            ]
        },
        "contracts/libraries/ProfileLogic.sol": {
            "ProfileLogic": [
                {
                    "length": 20,
                    "start": 6632
                },
                {
                    "length": 20,
                    "start": 9294
                },
                {
                    "length": 20,
                    "start": 9835
                },
                {
                    "length": 20,
                    "start": 10725
                },
                {
                    "length": 20,
                    "start": 13638
                }
            ]
        }
    }
}