{
  "_format": "hh-sol-artifact-1",
  "contractName": "Web3Entry",
  "sourceName": "contracts/Web3Entry.sol",
  "abi": [
    {
      "inputs": [
        {
          "internalType": "uint256",
          "name": "characterId",
          "type": "uint256"
        }
      ],
      "name": "ErrCharacterNotExists",
      "type": "error"
    },
    {
      "inputs": [],
      "name": "ErrHandleContainsInvalidCharacters",
      "type": "error"
    },
    {
      "inputs": [],
      "name": "ErrHandleExists",
      "type": "error"
    },
    {
      "inputs": [],
      "name": "ErrHandleLengthInvalid",
      "type": "error"
    },
    {
      "inputs": [],
      "name": "ErrNotCharacterOwner",
      "type": "error"
    },
    {
      "inputs": [],
      "name": "ErrNotEnoughPermission",
      "type": "error"
    },
    {
      "inputs": [],
      "name": "ErrNotEnoughPermissionForThisNote",
      "type": "error"
    },
    {
      "inputs": [],
      "name": "ErrNoteIsDeleted",
      "type": "error"
    },
    {
      "inputs": [],
      "name": "ErrNoteLocked",
      "type": "error"
    },
    {
      "inputs": [],
      "name": "ErrNoteNotExists",
      "type": "error"
    },
    {
      "inputs": [],
      "name": "ErrSignatureExpired",
      "type": "error"
    },
    {
      "inputs": [],
      "name": "ErrSignatureInvalid",
      "type": "error"
    },
    {
      "inputs": [],
      "name": "ErrSocialTokenExists",
      "type": "error"
    },
    {
      "inputs": [],
      "name": "ErrTokenNotExists",
      "type": "error"
    },
    {
      "anonymous": false,
      "inputs": [
        {
          "indexed": true,
          "internalType": "address",
          "name": "owner",
          "type": "address"
        },
        {
          "indexed": true,
          "internalType": "address",
          "name": "approved",
          "type": "address"
        },
        {
          "indexed": true,
          "internalType": "uint256",
          "name": "tokenId",
          "type": "uint256"
        }
      ],
      "name": "Approval",
      "type": "event"
    },
    {
      "anonymous": false,
      "inputs": [
        {
          "indexed": true,
          "internalType": "address",
          "name": "owner",
          "type": "address"
        },
        {
          "indexed": true,
          "internalType": "address",
          "name": "operator",
          "type": "address"
        },
        {
          "indexed": false,
          "internalType": "bool",
          "name": "approved",
          "type": "bool"
        }
      ],
      "name": "ApprovalForAll",
      "type": "event"
    },
    {
      "anonymous": false,
      "inputs": [
        {
          "indexed": false,
          "internalType": "uint8",
          "name": "version",
          "type": "uint8"
        }
      ],
      "name": "Initialized",
      "type": "event"
    },
    {
      "anonymous": false,
      "inputs": [
        {
          "indexed": true,
          "internalType": "address",
          "name": "from",
          "type": "address"
        },
        {
          "indexed": true,
          "internalType": "address",
          "name": "to",
          "type": "address"
        },
        {
          "indexed": true,
          "internalType": "uint256",
          "name": "tokenId",
          "type": "uint256"
        }
      ],
      "name": "Transfer",
      "type": "event"
    },
    {
      "inputs": [
        {
          "internalType": "address",
          "name": "to",
          "type": "address"
        },
        {
          "internalType": "uint256",
          "name": "tokenId",
          "type": "uint256"
        }
      ],
      "name": "approve",
      "outputs": [],
      "stateMutability": "nonpayable",
      "type": "function"
    },
    {
      "inputs": [
        {
          "internalType": "address",
          "name": "owner",
          "type": "address"
        }
      ],
      "name": "balanceOf",
      "outputs": [
        {
          "internalType": "uint256",
          "name": "",
          "type": "uint256"
        }
      ],
      "stateMutability": "view",
      "type": "function"
    },
    {
      "inputs": [
        {
          "internalType": "uint256",
          "name": "tokenId",
          "type": "uint256"
        }
      ],
      "name": "burn",
      "outputs": [],
      "stateMutability": "nonpayable",
      "type": "function"
    },
    {
      "inputs": [
        {
          "internalType": "uint256",
          "name": "linklistId",
          "type": "uint256"
        }
      ],
      "name": "burnLinklist",
      "outputs": [],
      "stateMutability": "nonpayable",
      "type": "function"
    },
    {
      "inputs": [
        {
          "components": [
            {
              "internalType": "address",
              "name": "to",
              "type": "address"
            },
            {
              "internalType": "string",
              "name": "handle",
              "type": "string"
            },
            {
              "internalType": "string",
              "name": "uri",
              "type": "string"
            },
            {
              "internalType": "address",
              "name": "linkModule",
              "type": "address"
            },
            {
              "internalType": "bytes",
              "name": "linkModuleInitData",
              "type": "bytes"
            }
          ],
          "internalType": "struct DataTypes.CreateCharacterData",
          "name": "vars",
          "type": "tuple"
        }
      ],
      "name": "createCharacter",
      "outputs": [
        {
          "internalType": "uint256",
          "name": "characterId",
          "type": "uint256"
        }
      ],
      "stateMutability": "nonpayable",
      "type": "function"
    },
    {
      "inputs": [
        {
          "components": [
            {
              "internalType": "uint256",
              "name": "fromCharacterId",
              "type": "uint256"
            },
            {
              "internalType": "address",
              "name": "to",
              "type": "address"
            },
            {
              "internalType": "bytes32",
              "name": "linkType",
              "type": "bytes32"
            }
          ],
          "internalType": "struct DataTypes.createThenLinkCharacterData",
          "name": "vars",
          "type": "tuple"
        }
      ],
      "name": "createThenLinkCharacter",
      "outputs": [
        {
          "internalType": "uint256",
          "name": "characterId",
          "type": "uint256"
        }
      ],
      "stateMutability": "nonpayable",
      "type": "function"
    },
    {
      "inputs": [
        {
          "internalType": "uint256",
          "name": "characterId",
          "type": "uint256"
        },
        {
          "internalType": "uint256",
          "name": "noteId",
          "type": "uint256"
        }
      ],
      "name": "deleteNote",
      "outputs": [],
      "stateMutability": "nonpayable",
      "type": "function"
    },
    {
      "inputs": [
        {
          "internalType": "uint256",
          "name": "tokenId",
          "type": "uint256"
        }
      ],
      "name": "getApproved",
      "outputs": [
        {
          "internalType": "address",
          "name": "",
          "type": "address"
        }
      ],
      "stateMutability": "view",
      "type": "function"
    },
    {
      "inputs": [
        {
          "internalType": "uint256",
          "name": "characterId",
          "type": "uint256"
        }
      ],
      "name": "getCharacter",
      "outputs": [
        {
          "components": [
            {
              "internalType": "uint256",
              "name": "characterId",
              "type": "uint256"
            },
            {
              "internalType": "string",
              "name": "handle",
              "type": "string"
            },
            {
              "internalType": "string",
              "name": "uri",
              "type": "string"
            },
            {
              "internalType": "uint256",
              "name": "noteCount",
              "type": "uint256"
            },
            {
              "internalType": "address",
              "name": "socialToken",
              "type": "address"
            },
            {
              "internalType": "address",
              "name": "linkModule",
              "type": "address"
            }
          ],
          "internalType": "struct DataTypes.Character",
          "name": "",
          "type": "tuple"
        }
      ],
      "stateMutability": "view",
      "type": "function"
    },
    {
      "inputs": [
        {
          "internalType": "string",
          "name": "handle",
          "type": "string"
        }
      ],
      "name": "getCharacterByHandle",
      "outputs": [
        {
          "components": [
            {
              "internalType": "uint256",
              "name": "characterId",
              "type": "uint256"
            },
            {
              "internalType": "string",
              "name": "handle",
              "type": "string"
            },
            {
              "internalType": "string",
              "name": "uri",
              "type": "string"
            },
            {
              "internalType": "uint256",
              "name": "noteCount",
              "type": "uint256"
            },
            {
              "internalType": "address",
              "name": "socialToken",
              "type": "address"
            },
            {
              "internalType": "address",
              "name": "linkModule",
              "type": "address"
            }
          ],
          "internalType": "struct DataTypes.Character",
          "name": "",
          "type": "tuple"
        }
      ],
      "stateMutability": "view",
      "type": "function"
    },
    {
      "inputs": [
        {
          "internalType": "uint256",
          "name": "characterId",
          "type": "uint256"
        }
      ],
      "name": "getCharacterUri",
      "outputs": [
        {
          "internalType": "string",
          "name": "",
          "type": "string"
        }
      ],
      "stateMutability": "view",
      "type": "function"
    },
    {
      "inputs": [],
      "name": "getDomainSeparator",
      "outputs": [
        {
          "internalType": "bytes32",
          "name": "",
          "type": "bytes32"
        }
      ],
      "stateMutability": "view",
      "type": "function"
    },
    {
      "inputs": [
        {
          "internalType": "uint256",
          "name": "characterId",
          "type": "uint256"
        }
      ],
      "name": "getHandle",
      "outputs": [
        {
          "internalType": "string",
          "name": "",
          "type": "string"
        }
      ],
      "stateMutability": "view",
      "type": "function"
    },
    {
      "inputs": [],
      "name": "getLinklistContract",
      "outputs": [
        {
          "internalType": "address",
          "name": "",
          "type": "address"
        }
      ],
      "stateMutability": "view",
      "type": "function"
    },
    {
      "inputs": [
        {
          "internalType": "uint256",
          "name": "characterId",
          "type": "uint256"
        },
        {
          "internalType": "bytes32",
          "name": "linkType",
          "type": "bytes32"
        }
      ],
      "name": "getLinklistId",
      "outputs": [
        {
          "internalType": "uint256",
          "name": "",
          "type": "uint256"
        }
      ],
      "stateMutability": "view",
      "type": "function"
    },
    {
      "inputs": [
        {
          "internalType": "uint256",
          "name": "linkListId",
          "type": "uint256"
        }
      ],
      "name": "getLinklistType",
      "outputs": [
        {
          "internalType": "bytes32",
          "name": "",
          "type": "bytes32"
        }
      ],
      "stateMutability": "view",
      "type": "function"
    },
    {
      "inputs": [
        {
          "internalType": "uint256",
          "name": "tokenId",
          "type": "uint256"
        }
      ],
      "name": "getLinklistUri",
      "outputs": [
        {
          "internalType": "string",
          "name": "",
          "type": "string"
        }
      ],
      "stateMutability": "view",
      "type": "function"
    },
    {
      "inputs": [
        {
          "internalType": "uint256",
          "name": "characterId",
          "type": "uint256"
        },
        {
          "internalType": "uint256",
          "name": "noteId",
          "type": "uint256"
        }
      ],
      "name": "getNote",
      "outputs": [
        {
          "components": [
            {
              "internalType": "bytes32",
              "name": "linkItemType",
              "type": "bytes32"
            },
            {
              "internalType": "bytes32",
              "name": "linkKey",
              "type": "bytes32"
            },
            {
              "internalType": "string",
              "name": "contentUri",
              "type": "string"
            },
            {
              "internalType": "address",
              "name": "linkModule",
              "type": "address"
            },
            {
              "internalType": "address",
              "name": "mintModule",
              "type": "address"
            },
            {
              "internalType": "address",
              "name": "mintNFT",
              "type": "address"
            },
            {
              "internalType": "bool",
              "name": "deleted",
              "type": "bool"
            },
            {
              "internalType": "bool",
              "name": "locked",
              "type": "bool"
            }
          ],
          "internalType": "struct DataTypes.Note",
          "name": "",
          "type": "tuple"
        }
      ],
      "stateMutability": "view",
      "type": "function"
    },
    {
      "inputs": [
        {
          "internalType": "uint256",
          "name": "characterId",
          "type": "uint256"
        },
        {
          "internalType": "address",
          "name": "operator",
          "type": "address"
        }
      ],
      "name": "getOperatorPermissions",
      "outputs": [
        {
          "internalType": "uint256",
          "name": "",
          "type": "uint256"
        }
      ],
      "stateMutability": "view",
      "type": "function"
    },
    {
      "inputs": [
        {
          "internalType": "uint256",
          "name": "characterId",
          "type": "uint256"
        }
      ],
      "name": "getOperators",
      "outputs": [
        {
          "internalType": "address[]",
          "name": "",
          "type": "address[]"
        }
      ],
      "stateMutability": "view",
      "type": "function"
    },
    {
      "inputs": [
        {
          "internalType": "uint256",
          "name": "characterId",
          "type": "uint256"
        },
        {
          "internalType": "uint256",
          "name": "noteId",
          "type": "uint256"
        }
      ],
      "name": "getOperators4Note",
      "outputs": [
        {
          "internalType": "address[]",
          "name": "blocklist",
          "type": "address[]"
        },
        {
          "internalType": "address[]",
          "name": "allowlist",
          "type": "address[]"
        }
      ],
      "stateMutability": "view",
      "type": "function"
    },
    {
      "inputs": [
        {
          "internalType": "address",
          "name": "account",
          "type": "address"
        }
      ],
      "name": "getPrimaryCharacterId",
      "outputs": [
        {
          "internalType": "uint256",
          "name": "",
          "type": "uint256"
        }
      ],
      "stateMutability": "view",
      "type": "function"
    },
    {
      "inputs": [],
      "name": "getRevision",
      "outputs": [
        {
          "internalType": "uint256",
          "name": "",
          "type": "uint256"
        }
      ],
      "stateMutability": "pure",
      "type": "function"
    },
    {
      "inputs": [
        {
          "internalType": "uint256",
          "name": "characterId",
          "type": "uint256"
        },
        {
          "internalType": "address",
          "name": "operator",
          "type": "address"
        },
        {
          "internalType": "uint256",
          "name": "permissionBitMap",
          "type": "uint256"
        }
      ],
      "name": "grantOperatorPermissions",
      "outputs": [],
      "stateMutability": "nonpayable",
      "type": "function"
    },
    {
      "inputs": [
        {
          "internalType": "uint256",
          "name": "characterId",
          "type": "uint256"
        },
        {
          "internalType": "address",
          "name": "operator",
          "type": "address"
        },
        {
          "internalType": "uint256",
          "name": "permissionBitMap",
          "type": "uint256"
        },
        {
          "components": [
            {
              "internalType": "uint8",
              "name": "v",
              "type": "uint8"
            },
            {
              "internalType": "bytes32",
              "name": "r",
              "type": "bytes32"
            },
            {
              "internalType": "bytes32",
              "name": "s",
              "type": "bytes32"
            },
            {
              "internalType": "uint256",
              "name": "deadline",
              "type": "uint256"
            }
          ],
          "internalType": "struct DataTypes.EIP712Signature",
          "name": "sig",
          "type": "tuple"
        }
      ],
      "name": "grantOperatorPermissionsWithSig",
      "outputs": [],
      "stateMutability": "nonpayable",
      "type": "function"
    },
    {
      "inputs": [
        {
          "internalType": "uint256",
          "name": "characterId",
          "type": "uint256"
        },
        {
          "internalType": "uint256",
          "name": "noteId",
          "type": "uint256"
        },
        {
          "internalType": "address[]",
          "name": "blocklist",
          "type": "address[]"
        },
        {
          "internalType": "address[]",
          "name": "allowlist",
          "type": "address[]"
        }
      ],
      "name": "grantOperators4Note",
      "outputs": [],
      "stateMutability": "nonpayable",
      "type": "function"
    },
    {
      "inputs": [
        {
          "internalType": "string",
          "name": "name_",
          "type": "string"
        },
        {
          "internalType": "string",
          "name": "symbol_",
          "type": "string"
        },
        {
          "internalType": "address",
          "name": "linklist_",
          "type": "address"
        },
        {
          "internalType": "address",
          "name": "mintNFTImpl_",
          "type": "address"
        },
        {
          "internalType": "address",
          "name": "periphery_",
          "type": "address"
        },
        {
          "internalType": "address",
          "name": "newbieVilla_",
          "type": "address"
        }
      ],
      "name": "initialize",
      "outputs": [],
      "stateMutability": "nonpayable",
      "type": "function"
    },
    {
      "inputs": [
        {
          "internalType": "address",
          "name": "owner",
          "type": "address"
        },
        {
          "internalType": "address",
          "name": "operator",
          "type": "address"
        }
      ],
      "name": "isApprovedForAll",
      "outputs": [
        {
          "internalType": "bool",
          "name": "",
          "type": "bool"
        }
      ],
      "stateMutability": "view",
      "type": "function"
    },
    {
      "inputs": [
        {
          "internalType": "uint256",
          "name": "characterId",
          "type": "uint256"
        },
        {
          "internalType": "uint256",
          "name": "noteId",
          "type": "uint256"
        },
        {
          "internalType": "address",
          "name": "operator",
          "type": "address"
        }
      ],
      "name": "isOperatorAllowedForNote",
      "outputs": [
        {
          "internalType": "bool",
          "name": "",
          "type": "bool"
        }
      ],
      "stateMutability": "view",
      "type": "function"
    },
    {
      "inputs": [
        {
          "internalType": "uint256",
          "name": "characterId",
          "type": "uint256"
        }
      ],
      "name": "isPrimaryCharacter",
      "outputs": [
        {
          "internalType": "bool",
          "name": "",
          "type": "bool"
        }
      ],
      "stateMutability": "view",
      "type": "function"
    },
    {
      "inputs": [
        {
          "components": [
            {
              "internalType": "uint256",
              "name": "fromCharacterId",
              "type": "uint256"
            },
            {
              "internalType": "address",
              "name": "ethAddress",
              "type": "address"
            },
            {
              "internalType": "bytes32",
              "name": "linkType",
              "type": "bytes32"
            },
            {
              "internalType": "bytes",
              "name": "data",
              "type": "bytes"
            }
          ],
          "internalType": "struct DataTypes.linkAddressData",
          "name": "vars",
          "type": "tuple"
        }
      ],
      "name": "linkAddress",
      "outputs": [],
      "stateMutability": "nonpayable",
      "type": "function"
    },
    {
      "inputs": [
        {
          "components": [
            {
              "internalType": "uint256",
              "name": "fromCharacterId",
              "type": "uint256"
            },
            {
              "internalType": "string",
              "name": "toUri",
              "type": "string"
            },
            {
              "internalType": "bytes32",
              "name": "linkType",
              "type": "bytes32"
            },
            {
              "internalType": "bytes",
              "name": "data",
              "type": "bytes"
            }
          ],
          "internalType": "struct DataTypes.linkAnyUriData",
          "name": "vars",
          "type": "tuple"
        }
      ],
      "name": "linkAnyUri",
      "outputs": [],
      "stateMutability": "nonpayable",
      "type": "function"
    },
    {
      "inputs": [
        {
          "components": [
            {
              "internalType": "uint256",
              "name": "fromCharacterId",
              "type": "uint256"
            },
            {
              "internalType": "uint256",
              "name": "toCharacterId",
              "type": "uint256"
            },
            {
              "internalType": "bytes32",
              "name": "linkType",
              "type": "bytes32"
            },
            {
              "internalType": "bytes",
              "name": "data",
              "type": "bytes"
            }
          ],
          "internalType": "struct DataTypes.linkCharacterData",
          "name": "vars",
          "type": "tuple"
        }
      ],
      "name": "linkCharacter",
      "outputs": [],
      "stateMutability": "nonpayable",
      "type": "function"
    },
    {
      "inputs": [
        {
          "components": [
            {
              "internalType": "uint256",
              "name": "fromCharacterId",
              "type": "uint256"
            },
            {
              "internalType": "address",
              "name": "tokenAddress",
              "type": "address"
            },
            {
              "internalType": "uint256",
              "name": "tokenId",
              "type": "uint256"
            },
            {
              "internalType": "bytes32",
              "name": "linkType",
              "type": "bytes32"
            },
            {
              "internalType": "bytes",
              "name": "data",
              "type": "bytes"
            }
          ],
          "internalType": "struct DataTypes.linkERC721Data",
          "name": "vars",
          "type": "tuple"
        }
      ],
      "name": "linkERC721",
      "outputs": [],
      "stateMutability": "nonpayable",
      "type": "function"
    },
    {
      "inputs": [
        {
          "components": [
            {
              "internalType": "uint256",
              "name": "fromCharacterId",
              "type": "uint256"
            },
            {
              "internalType": "uint256",
              "name": "toLinkListId",
              "type": "uint256"
            },
            {
              "internalType": "bytes32",
              "name": "linkType",
              "type": "bytes32"
            },
            {
              "internalType": "bytes",
              "name": "data",
              "type": "bytes"
            }
          ],
          "internalType": "struct DataTypes.linkLinklistData",
          "name": "vars",
          "type": "tuple"
        }
      ],
      "name": "linkLinklist",
      "outputs": [],
      "stateMutability": "nonpayable",
      "type": "function"
    },
    {
      "inputs": [
        {
          "components": [
            {
              "internalType": "uint256",
              "name": "fromCharacterId",
              "type": "uint256"
            },
            {
              "internalType": "uint256",
              "name": "toCharacterId",
              "type": "uint256"
            },
            {
              "internalType": "uint256",
              "name": "toNoteId",
              "type": "uint256"
            },
            {
              "internalType": "bytes32",
              "name": "linkType",
              "type": "bytes32"
            },
            {
              "internalType": "bytes",
              "name": "data",
              "type": "bytes"
            }
          ],
          "internalType": "struct DataTypes.linkNoteData",
          "name": "vars",
          "type": "tuple"
        }
      ],
      "name": "linkNote",
      "outputs": [],
      "stateMutability": "nonpayable",
      "type": "function"
    },
    {
      "inputs": [
        {
          "internalType": "uint256",
          "name": "characterId",
          "type": "uint256"
        },
        {
          "internalType": "uint256",
          "name": "noteId",
          "type": "uint256"
        }
      ],
      "name": "lockNote",
      "outputs": [],
      "stateMutability": "nonpayable",
      "type": "function"
    },
    {
      "inputs": [
        {
          "components": [
            {
              "internalType": "uint256",
              "name": "characterId",
              "type": "uint256"
            },
            {
              "internalType": "uint256",
              "name": "noteId",
              "type": "uint256"
            },
            {
              "internalType": "address",
              "name": "to",
              "type": "address"
            },
            {
              "internalType": "bytes",
              "name": "mintModuleData",
              "type": "bytes"
            }
          ],
          "internalType": "struct DataTypes.MintNoteData",
          "name": "vars",
          "type": "tuple"
        }
      ],
      "name": "mintNote",
      "outputs": [
        {
          "internalType": "uint256",
          "name": "tokenId",
          "type": "uint256"
        }
      ],
      "stateMutability": "nonpayable",
      "type": "function"
    },
    {
      "inputs": [
        {
          "internalType": "bytes[]",
          "name": "data",
          "type": "bytes[]"
        }
      ],
      "name": "multicall",
      "outputs": [
        {
          "internalType": "bytes[]",
          "name": "results",
          "type": "bytes[]"
        }
      ],
      "stateMutability": "nonpayable",
      "type": "function"
    },
    {
      "inputs": [],
      "name": "name",
      "outputs": [
        {
          "internalType": "string",
          "name": "",
          "type": "string"
        }
      ],
      "stateMutability": "view",
      "type": "function"
    },
    {
      "inputs": [
        {
          "internalType": "address",
          "name": "owner",
          "type": "address"
        }
      ],
      "name": "nonces",
      "outputs": [
        {
          "internalType": "uint256",
          "name": "",
          "type": "uint256"
        }
      ],
      "stateMutability": "view",
      "type": "function"
    },
    {
      "inputs": [
        {
          "internalType": "uint256",
          "name": "tokenId",
          "type": "uint256"
        }
      ],
      "name": "ownerOf",
      "outputs": [
        {
          "internalType": "address",
          "name": "",
          "type": "address"
        }
      ],
      "stateMutability": "view",
      "type": "function"
    },
    {
      "inputs": [
        {
          "components": [
            {
              "internalType": "uint256",
              "name": "characterId",
              "type": "uint256"
            },
            {
              "internalType": "string",
              "name": "contentUri",
              "type": "string"
            },
            {
              "internalType": "address",
              "name": "linkModule",
              "type": "address"
            },
            {
              "internalType": "bytes",
              "name": "linkModuleInitData",
              "type": "bytes"
            },
            {
              "internalType": "address",
              "name": "mintModule",
              "type": "address"
            },
            {
              "internalType": "bytes",
              "name": "mintModuleInitData",
              "type": "bytes"
            },
            {
              "internalType": "bool",
              "name": "locked",
              "type": "bool"
            }
          ],
          "internalType": "struct DataTypes.PostNoteData",
          "name": "vars",
          "type": "tuple"
        }
      ],
      "name": "postNote",
      "outputs": [
        {
          "internalType": "uint256",
          "name": "noteId",
          "type": "uint256"
        }
      ],
      "stateMutability": "nonpayable",
      "type": "function"
    },
    {
      "inputs": [
        {
          "components": [
            {
              "internalType": "uint256",
              "name": "characterId",
              "type": "uint256"
            },
            {
              "internalType": "string",
              "name": "contentUri",
              "type": "string"
            },
            {
              "internalType": "address",
              "name": "linkModule",
              "type": "address"
            },
            {
              "internalType": "bytes",
              "name": "linkModuleInitData",
              "type": "bytes"
            },
            {
              "internalType": "address",
              "name": "mintModule",
              "type": "address"
            },
            {
              "internalType": "bytes",
              "name": "mintModuleInitData",
              "type": "bytes"
            },
            {
              "internalType": "bool",
              "name": "locked",
              "type": "bool"
            }
          ],
          "internalType": "struct DataTypes.PostNoteData",
          "name": "vars",
          "type": "tuple"
        },
        {
          "internalType": "address",
          "name": "ethAddress",
          "type": "address"
        }
      ],
      "name": "postNote4Address",
      "outputs": [
        {
          "internalType": "uint256",
          "name": "",
          "type": "uint256"
        }
      ],
      "stateMutability": "nonpayable",
      "type": "function"
    },
    {
      "inputs": [
        {
          "components": [
            {
              "internalType": "uint256",
              "name": "characterId",
              "type": "uint256"
            },
            {
              "internalType": "string",
              "name": "contentUri",
              "type": "string"
            },
            {
              "internalType": "address",
              "name": "linkModule",
              "type": "address"
            },
            {
              "internalType": "bytes",
              "name": "linkModuleInitData",
              "type": "bytes"
            },
            {
              "internalType": "address",
              "name": "mintModule",
              "type": "address"
            },
            {
              "internalType": "bytes",
              "name": "mintModuleInitData",
              "type": "bytes"
            },
            {
              "internalType": "bool",
              "name": "locked",
              "type": "bool"
            }
          ],
          "internalType": "struct DataTypes.PostNoteData",
          "name": "vars",
          "type": "tuple"
        },
        {
          "internalType": "string",
          "name": "uri",
          "type": "string"
        }
      ],
      "name": "postNote4AnyUri",
      "outputs": [
        {
          "internalType": "uint256",
          "name": "",
          "type": "uint256"
        }
      ],
      "stateMutability": "nonpayable",
      "type": "function"
    },
    {
      "inputs": [
        {
          "components": [
            {
              "internalType": "uint256",
              "name": "characterId",
              "type": "uint256"
            },
            {
              "internalType": "string",
              "name": "contentUri",
              "type": "string"
            },
            {
              "internalType": "address",
              "name": "linkModule",
              "type": "address"
            },
            {
              "internalType": "bytes",
              "name": "linkModuleInitData",
              "type": "bytes"
            },
            {
              "internalType": "address",
              "name": "mintModule",
              "type": "address"
            },
            {
              "internalType": "bytes",
              "name": "mintModuleInitData",
              "type": "bytes"
            },
            {
              "internalType": "bool",
              "name": "locked",
              "type": "bool"
            }
          ],
          "internalType": "struct DataTypes.PostNoteData",
          "name": "vars",
          "type": "tuple"
        },
        {
          "internalType": "uint256",
          "name": "toCharacterId",
          "type": "uint256"
        }
      ],
      "name": "postNote4Character",
      "outputs": [
        {
          "internalType": "uint256",
          "name": "",
          "type": "uint256"
        }
      ],
      "stateMutability": "nonpayable",
      "type": "function"
    },
    {
      "inputs": [
        {
          "components": [
            {
              "internalType": "uint256",
              "name": "characterId",
              "type": "uint256"
            },
            {
              "internalType": "string",
              "name": "contentUri",
              "type": "string"
            },
            {
              "internalType": "address",
              "name": "linkModule",
              "type": "address"
            },
            {
              "internalType": "bytes",
              "name": "linkModuleInitData",
              "type": "bytes"
            },
            {
              "internalType": "address",
              "name": "mintModule",
              "type": "address"
            },
            {
              "internalType": "bytes",
              "name": "mintModuleInitData",
              "type": "bytes"
            },
            {
              "internalType": "bool",
              "name": "locked",
              "type": "bool"
            }
          ],
          "internalType": "struct DataTypes.PostNoteData",
          "name": "vars",
          "type": "tuple"
        },
        {
          "components": [
            {
              "internalType": "address",
              "name": "tokenAddress",
              "type": "address"
            },
            {
              "internalType": "uint256",
              "name": "erc721TokenId",
              "type": "uint256"
            }
          ],
          "internalType": "struct DataTypes.ERC721Struct",
          "name": "erc721",
          "type": "tuple"
        }
      ],
      "name": "postNote4ERC721",
      "outputs": [
        {
          "internalType": "uint256",
          "name": "",
          "type": "uint256"
        }
      ],
      "stateMutability": "nonpayable",
      "type": "function"
    },
    {
      "inputs": [
        {
          "components": [
            {
              "internalType": "uint256",
              "name": "characterId",
              "type": "uint256"
            },
            {
              "internalType": "string",
              "name": "contentUri",
              "type": "string"
            },
            {
              "internalType": "address",
              "name": "linkModule",
              "type": "address"
            },
            {
              "internalType": "bytes",
              "name": "linkModuleInitData",
              "type": "bytes"
            },
            {
              "internalType": "address",
              "name": "mintModule",
              "type": "address"
            },
            {
              "internalType": "bytes",
              "name": "mintModuleInitData",
              "type": "bytes"
            },
            {
              "internalType": "bool",
              "name": "locked",
              "type": "bool"
            }
          ],
          "internalType": "struct DataTypes.PostNoteData",
          "name": "vars",
          "type": "tuple"
        },
        {
          "internalType": "uint256",
          "name": "toLinklistId",
          "type": "uint256"
        }
      ],
      "name": "postNote4Linklist",
      "outputs": [
        {
          "internalType": "uint256",
          "name": "",
          "type": "uint256"
        }
      ],
      "stateMutability": "nonpayable",
      "type": "function"
    },
    {
      "inputs": [
        {
          "components": [
            {
              "internalType": "uint256",
              "name": "characterId",
              "type": "uint256"
            },
            {
              "internalType": "string",
              "name": "contentUri",
              "type": "string"
            },
            {
              "internalType": "address",
              "name": "linkModule",
              "type": "address"
            },
            {
              "internalType": "bytes",
              "name": "linkModuleInitData",
              "type": "bytes"
            },
            {
              "internalType": "address",
              "name": "mintModule",
              "type": "address"
            },
            {
              "internalType": "bytes",
              "name": "mintModuleInitData",
              "type": "bytes"
            },
            {
              "internalType": "bool",
              "name": "locked",
              "type": "bool"
            }
          ],
          "internalType": "struct DataTypes.PostNoteData",
          "name": "vars",
          "type": "tuple"
        },
        {
          "components": [
            {
              "internalType": "uint256",
              "name": "characterId",
              "type": "uint256"
            },
            {
              "internalType": "uint256",
              "name": "noteId",
              "type": "uint256"
            }
          ],
          "internalType": "struct DataTypes.NoteStruct",
          "name": "note",
          "type": "tuple"
        }
      ],
      "name": "postNote4Note",
      "outputs": [
        {
          "internalType": "uint256",
          "name": "",
          "type": "uint256"
        }
      ],
      "stateMutability": "nonpayable",
      "type": "function"
    },
    {
      "inputs": [],
      "name": "resolver",
      "outputs": [
        {
          "internalType": "address",
          "name": "",
          "type": "address"
        }
      ],
      "stateMutability": "view",
      "type": "function"
    },
    {
      "inputs": [
        {
          "internalType": "address",
          "name": "from",
          "type": "address"
        },
        {
          "internalType": "address",
          "name": "to",
          "type": "address"
        },
        {
          "internalType": "uint256",
          "name": "tokenId",
          "type": "uint256"
        }
      ],
      "name": "safeTransferFrom",
      "outputs": [],
      "stateMutability": "nonpayable",
      "type": "function"
    },
    {
      "inputs": [
        {
          "internalType": "address",
          "name": "from",
          "type": "address"
        },
        {
          "internalType": "address",
          "name": "to",
          "type": "address"
        },
        {
          "internalType": "uint256",
          "name": "tokenId",
          "type": "uint256"
        },
        {
          "internalType": "bytes",
          "name": "_data",
          "type": "bytes"
        }
      ],
      "name": "safeTransferFrom",
      "outputs": [],
      "stateMutability": "nonpayable",
      "type": "function"
    },
    {
      "inputs": [
        {
          "internalType": "address",
          "name": "operator",
          "type": "address"
        },
        {
          "internalType": "bool",
          "name": "approved",
          "type": "bool"
        }
      ],
      "name": "setApprovalForAll",
      "outputs": [],
      "stateMutability": "nonpayable",
      "type": "function"
    },
    {
      "inputs": [
        {
          "internalType": "uint256",
          "name": "characterId",
          "type": "uint256"
        },
        {
          "internalType": "string",
          "name": "newUri",
          "type": "string"
        }
      ],
      "name": "setCharacterUri",
      "outputs": [],
      "stateMutability": "nonpayable",
      "type": "function"
    },
    {
      "inputs": [
        {
          "internalType": "uint256",
          "name": "characterId",
          "type": "uint256"
        },
        {
          "internalType": "string",
          "name": "newHandle",
          "type": "string"
        }
      ],
      "name": "setHandle",
      "outputs": [],
      "stateMutability": "nonpayable",
      "type": "function"
    },
    {
      "inputs": [
        {
          "components": [
            {
              "internalType": "uint256",
              "name": "characterId",
              "type": "uint256"
            },
            {
              "internalType": "address",
              "name": "linkModule",
              "type": "address"
            },
            {
              "internalType": "bytes",
              "name": "linkModuleInitData",
              "type": "bytes"
            }
          ],
          "internalType": "struct DataTypes.setLinkModule4CharacterData",
          "name": "vars",
          "type": "tuple"
        }
      ],
      "name": "setLinkModule4Character",
      "outputs": [],
      "stateMutability": "nonpayable",
      "type": "function"
    },
    {
      "inputs": [
        {
          "components": [
            {
              "internalType": "uint256",
              "name": "characterId",
              "type": "uint256"
            },
            {
              "internalType": "uint256",
              "name": "noteId",
              "type": "uint256"
            },
            {
              "internalType": "address",
              "name": "linkModule",
              "type": "address"
            },
            {
              "internalType": "bytes",
              "name": "linkModuleInitData",
              "type": "bytes"
            }
          ],
          "internalType": "struct DataTypes.setLinkModule4NoteData",
          "name": "vars",
          "type": "tuple"
        }
      ],
      "name": "setLinkModule4Note",
      "outputs": [],
      "stateMutability": "nonpayable",
      "type": "function"
    },
    {
      "inputs": [
        {
          "internalType": "uint256",
          "name": "linklistId",
          "type": "uint256"
        },
        {
          "internalType": "bytes32",
          "name": "linkType",
          "type": "bytes32"
        }
      ],
      "name": "setLinklistType",
      "outputs": [],
      "stateMutability": "nonpayable",
      "type": "function"
    },
    {
      "inputs": [
        {
          "internalType": "uint256",
          "name": "linklistId",
          "type": "uint256"
        },
        {
          "internalType": "string",
          "name": "uri",
          "type": "string"
        }
      ],
      "name": "setLinklistUri",
      "outputs": [],
      "stateMutability": "nonpayable",
      "type": "function"
    },
    {
      "inputs": [
        {
          "components": [
            {
              "internalType": "uint256",
              "name": "characterId",
              "type": "uint256"
            },
            {
              "internalType": "uint256",
              "name": "noteId",
              "type": "uint256"
            },
            {
              "internalType": "address",
              "name": "mintModule",
              "type": "address"
            },
            {
              "internalType": "bytes",
              "name": "mintModuleInitData",
              "type": "bytes"
            }
          ],
          "internalType": "struct DataTypes.setMintModule4NoteData",
          "name": "vars",
          "type": "tuple"
        }
      ],
      "name": "setMintModule4Note",
      "outputs": [],
      "stateMutability": "nonpayable",
      "type": "function"
    },
    {
      "inputs": [
        {
          "internalType": "uint256",
          "name": "characterId",
          "type": "uint256"
        },
        {
          "internalType": "uint256",
          "name": "noteId",
          "type": "uint256"
        },
        {
          "internalType": "string",
          "name": "newUri",
          "type": "string"
        }
      ],
      "name": "setNoteUri",
      "outputs": [],
      "stateMutability": "nonpayable",
      "type": "function"
    },
    {
      "inputs": [
        {
          "internalType": "uint256",
          "name": "characterId",
          "type": "uint256"
        }
      ],
      "name": "setPrimaryCharacterId",
      "outputs": [],
      "stateMutability": "nonpayable",
      "type": "function"
    },
    {
      "inputs": [
        {
          "internalType": "uint256",
          "name": "characterId",
          "type": "uint256"
        },
        {
          "internalType": "address",
          "name": "tokenAddress",
          "type": "address"
        }
      ],
      "name": "setSocialToken",
      "outputs": [],
      "stateMutability": "nonpayable",
      "type": "function"
    },
    {
      "inputs": [
        {
          "internalType": "bytes4",
          "name": "interfaceId",
          "type": "bytes4"
        }
      ],
      "name": "supportsInterface",
      "outputs": [
        {
          "internalType": "bool",
          "name": "",
          "type": "bool"
        }
      ],
      "stateMutability": "view",
      "type": "function"
    },
    {
      "inputs": [],
      "name": "symbol",
      "outputs": [
        {
          "internalType": "string",
          "name": "",
          "type": "string"
        }
      ],
      "stateMutability": "view",
      "type": "function"
    },
    {
      "inputs": [
        {
          "internalType": "uint256",
          "name": "index",
          "type": "uint256"
        }
      ],
      "name": "tokenByIndex",
      "outputs": [
        {
          "internalType": "uint256",
          "name": "",
          "type": "uint256"
        }
      ],
      "stateMutability": "view",
      "type": "function"
    },
    {
      "inputs": [
        {
          "internalType": "address",
          "name": "owner",
          "type": "address"
        },
        {
          "internalType": "uint256",
          "name": "index",
          "type": "uint256"
        }
      ],
      "name": "tokenOfOwnerByIndex",
      "outputs": [
        {
          "internalType": "uint256",
          "name": "",
          "type": "uint256"
        }
      ],
      "stateMutability": "view",
      "type": "function"
    },
    {
      "inputs": [
        {
          "internalType": "uint256",
          "name": "characterId",
          "type": "uint256"
        }
      ],
      "name": "tokenURI",
      "outputs": [
        {
          "internalType": "string",
          "name": "",
          "type": "string"
        }
      ],
      "stateMutability": "view",
      "type": "function"
    },
    {
      "inputs": [],
      "name": "totalSupply",
      "outputs": [
        {
          "internalType": "uint256",
          "name": "",
          "type": "uint256"
        }
      ],
      "stateMutability": "view",
      "type": "function"
    },
    {
      "inputs": [
        {
          "internalType": "address",
          "name": "from",
          "type": "address"
        },
        {
          "internalType": "address",
          "name": "to",
          "type": "address"
        },
        {
          "internalType": "uint256",
          "name": "tokenId",
          "type": "uint256"
        }
      ],
      "name": "transferFrom",
      "outputs": [],
      "stateMutability": "nonpayable",
      "type": "function"
    },
    {
      "inputs": [
        {
          "components": [
            {
              "internalType": "uint256",
              "name": "fromCharacterId",
              "type": "uint256"
            },
            {
              "internalType": "address",
              "name": "ethAddress",
              "type": "address"
            },
            {
              "internalType": "bytes32",
              "name": "linkType",
              "type": "bytes32"
            }
          ],
          "internalType": "struct DataTypes.unlinkAddressData",
          "name": "vars",
          "type": "tuple"
        }
      ],
      "name": "unlinkAddress",
      "outputs": [],
      "stateMutability": "nonpayable",
      "type": "function"
    },
    {
      "inputs": [
        {
          "components": [
            {
              "internalType": "uint256",
              "name": "fromCharacterId",
              "type": "uint256"
            },
            {
              "internalType": "string",
              "name": "toUri",
              "type": "string"
            },
            {
              "internalType": "bytes32",
              "name": "linkType",
              "type": "bytes32"
            }
          ],
          "internalType": "struct DataTypes.unlinkAnyUriData",
          "name": "vars",
          "type": "tuple"
        }
      ],
      "name": "unlinkAnyUri",
      "outputs": [],
      "stateMutability": "nonpayable",
      "type": "function"
    },
    {
      "inputs": [
        {
          "components": [
            {
              "internalType": "uint256",
              "name": "fromCharacterId",
              "type": "uint256"
            },
            {
              "internalType": "uint256",
              "name": "toCharacterId",
              "type": "uint256"
            },
            {
              "internalType": "bytes32",
              "name": "linkType",
              "type": "bytes32"
            }
          ],
          "internalType": "struct DataTypes.unlinkCharacterData",
          "name": "vars",
          "type": "tuple"
        }
      ],
      "name": "unlinkCharacter",
      "outputs": [],
      "stateMutability": "nonpayable",
      "type": "function"
    },
    {
      "inputs": [
        {
          "components": [
            {
              "internalType": "uint256",
              "name": "fromCharacterId",
              "type": "uint256"
            },
            {
              "internalType": "address",
              "name": "tokenAddress",
              "type": "address"
            },
            {
              "internalType": "uint256",
              "name": "tokenId",
              "type": "uint256"
            },
            {
              "internalType": "bytes32",
              "name": "linkType",
              "type": "bytes32"
            }
          ],
          "internalType": "struct DataTypes.unlinkERC721Data",
          "name": "vars",
          "type": "tuple"
        }
      ],
      "name": "unlinkERC721",
      "outputs": [],
      "stateMutability": "nonpayable",
      "type": "function"
    },
    {
      "inputs": [
        {
          "components": [
            {
              "internalType": "uint256",
              "name": "fromCharacterId",
              "type": "uint256"
            },
            {
              "internalType": "uint256",
              "name": "toLinkListId",
              "type": "uint256"
            },
            {
              "internalType": "bytes32",
              "name": "linkType",
              "type": "bytes32"
            }
          ],
          "internalType": "struct DataTypes.unlinkLinklistData",
          "name": "vars",
          "type": "tuple"
        }
      ],
      "name": "unlinkLinklist",
      "outputs": [],
      "stateMutability": "nonpayable",
      "type": "function"
    },
    {
      "inputs": [
        {
          "components": [
            {
              "internalType": "uint256",
              "name": "fromCharacterId",
              "type": "uint256"
            },
            {
              "internalType": "uint256",
              "name": "toCharacterId",
              "type": "uint256"
            },
            {
              "internalType": "uint256",
              "name": "toNoteId",
              "type": "uint256"
            },
            {
              "internalType": "bytes32",
              "name": "linkType",
              "type": "bytes32"
            }
          ],
          "internalType": "struct DataTypes.unlinkNoteData",
          "name": "vars",
          "type": "tuple"
        }
      ],
      "name": "unlinkNote",
      "outputs": [],
      "stateMutability": "nonpayable",
      "type": "function"
    }
  ],
  "bytecode": "0x608060405234801561001057600080fd5b50615ff180620000216000396000f3fe608060405234801561001057600080fd5b50600436106104545760003560e01c806392f7070b11610241578063cb8e757e1161013b578063e56f2fe4116100c3578063f2ad807511610087578063f2ad807514610a7c578063f316bacd14610a8f578063f6479d7714610aa2578063f7ea450814610ab5578063fd2d866f14610ac857600080fd5b8063e56f2fe4146109ff578063e985e9c514610a12578063ec81d19414610a4e578063ed24911d14610a61578063ef0828ab14610a6957600080fd5b8063dabb05311161010a578063dabb053114610993578063db491e80146109a6578063db8c198d146109c6578063dc17b6de146109d9578063dca27135146109ec57600080fd5b8063cb8e757e1461092f578063cd69fe6114610942578063d23b320b14610955578063d70e10c61461096857600080fd5b8063a6e6178d116101c9578063b9d328451161018d578063b9d32845146108d2578063bac62d43146108e5578063c053f6b8146108f8578063c2a6fe3b14610909578063c87b56dd1461091c57600080fd5b8063a6e6178d14610866578063a7ccb4bf14610879578063ac9650d81461088c578063af90b112146108ac578063b88d4fde146108bf57600080fd5b806395d9fa7d1161021057806395d9fa7d146107fa5780639864c3071461080d5780639a4dec18146108205780639a50248d14610833578063a22cb4651461085357600080fd5b806392f7070b1461079657806393f057e5146107a9578063952be0ef146107bc57806395d89b41146107f257600080fd5b806340ad34d811610352578063628b644a116102da578063753d662d1161029e578063753d662d146107215780637ecebe0014610734578063867884e61461075d5780638734bbfc146107705780638b4ca06a1461078357600080fd5b8063628b644a146106b55780636352211e146106c85780636bf55d5f146106db57806370a08231146106fb57806374f345cf1461070e57600080fd5b806347f94de71161032157806347f94de714610648578063491869531461065b5780634f6ccce71461067c5780635a936d101461068f5780635fb88183146106a257600080fd5b806340ad34d8146105fc57806342842e0e1461060f57806342966c681461062257806344b82a241461063557600080fd5b8063188b04b3116103e05780632abc6bf6116103a45780632abc6bf6146105875780632f745c59146105b0578063327b2a03146105c357806333f06ee6146105d6578063388f5083146105e957600080fd5b8063188b04b314610528578063206657f21461053b57806323b872dd1461054e57806328fbb8051461056157806329c301c21461057457600080fd5b8063095ea7b311610427578063095ea7b3146104d45780630ff98244146104e95780631316529d146104fc578063144a3e831461050d57806318160ddd1461052057600080fd5b806301ffc9a71461045957806304f3bcec1461048157806306fdde03146104ac578063081812fc146104c1575b600080fd5b61046c610467366004614a42565b610adb565b60405190151581526020015b60405180910390f35b601754610494906001600160a01b031681565b6040516001600160a01b039091168152602001610478565b6104b4610b06565b6040516104789190614aaf565b6104946104cf366004614ac2565b610b98565b6104e76104e2366004614af7565b610c25565b005b6104e76104f7366004614b33565b610d3a565b60045b604051908152602001610478565b6104b461051b366004614ac2565b610de6565b6008546104ff565b6104e7610536366004614b61565b610df1565b6104e7610549366004614b95565b610e8f565b6104e761055c366004614bca565b610ea5565b61046c61056f366004614bf6565b610ed6565b6104ff610582366004614c3d565b610eed565b6104ff610595366004614c71565b6001600160a01b03166000908152600c602052604090205490565b6104ff6105be366004614af7565b610f7e565b6104ff6105d1366004614c9e565b611014565b6104e76105e4366004614d2b565b6111a3565b6104e76105f7366004614b61565b61128a565b6104e761060a366004614d76565b61130f565b6104e761061d366004614bca565b61138b565b6104e7610630366004614ac2565b6113a6565b6104ff610643366004614d92565b611443565b6104e7610656366004614d2b565b6114a4565b61066e610669366004614dd6565b61150b565b604051610478929190614e3c565b6104ff61068a366004614ac2565b611563565b6104e761069d366004614b33565b6115f6565b6104e76106b0366004614b61565b61166f565b6104e76106c3366004614e61565b6116dd565b6104946106d6366004614ac2565b61176a565b6106ee6106e9366004614ac2565b6117e1565b6040516104789190614eb3565b6104ff610709366004614c71565b6117fb565b6104e761071c366004614dd6565b611882565b6104e761072f366004614ec6565b6118fc565b6104ff610742366004614c71565b6001600160a01b03166000908152601c602052604090205490565b6104e761076b366004614d76565b6119df565b61046c61077e366004614ac2565b611a89565b6104ff610791366004614ac2565b611ab7565b6104ff6107a4366004614f0d565b611b23565b6104e76107b7366004614b33565b611b9e565b6104ff6107ca366004614f51565b60009182526019602090815260408084206001600160a01b0393909316845291905290205490565b6104b4611c3e565b6104e7610808366004614f51565b611c4d565b6104e761081b366004614b61565b611d0e565b6104ff61082e366004614c9e565b611d6f565b610846610841366004614f74565b611e5a565b6040516104789190614fb5565b6104e7610861366004615041565b612009565b6104e7610874366004614d2b565b612014565b6104ff610887366004614b61565b6120f4565b61089f61089a3660046150af565b612195565b60405161047891906150e4565b6104ff6108ba366004614d92565b612289565b6104e76108cd366004615231565b6122b0565b6104e76108e03660046152aa565b6122e8565b6104e76108f3366004614dd6565b61239b565b6013546001600160a01b0316610494565b6104e7610917366004614dd6565b612463565b6104b461092a366004614ac2565b6124d5565b6104e761093d3660046152aa565b6125a1565b6104ff6109503660046152aa565b612630565b6104e7610963366004614b61565b612645565b6104ff610976366004614dd6565b6000918252600d6020908152604080842092845291905290205490565b6108466109a1366004614ac2565b6126d0565b6109b96109b4366004614dd6565b61287f565b60405161047891906152de565b6104e76109d4366004614b61565b6129e0565b6104e76109e7366004615374565b612a4a565b6104b46109fa366004614ac2565b612adb565b6104e7610a0d3660046153f6565b612b4d565b61046c610a203660046154a7565b6001600160a01b03918216600090815260056020908152604080832093909416825291909152205460ff1690565b6104b4610a5c366004614ac2565b612cda565b6104ff612d1f565b6104e7610a773660046154d1565b612d2e565b6104e7610a8a366004614ac2565b612db8565b6104ff610a9d366004615505565b612e09565b6104ff610ab0366004614b33565b612f4a565b6104e7610ac3366004614ac2565b613065565b6104e7610ad63660046154d1565b6131f3565b60006001600160e01b0319821663780e9d6360e01b1480610b005750610b008261326e565b92915050565b606060008054610b1590615560565b80601f0160208091040260200160405190810160405280929190818152602001828054610b4190615560565b8015610b8e5780601f10610b6357610100808354040283529160200191610b8e565b820191906000526020600020905b815481529060010190602001808311610b7157829003601f168201915b5050505050905090565b6000610ba3826132be565b610c095760405162461bcd60e51b815260206004820152602c60248201527f4552433732313a20617070726f76656420717565727920666f72206e6f6e657860448201526b34b9ba32b73a103a37b5b2b760a11b60648201526084015b60405180910390fd5b506000908152600460205260409020546001600160a01b031690565b6000610c308261176a565b9050806001600160a01b0316836001600160a01b031603610c9d5760405162461bcd60e51b815260206004820152602160248201527f4552433732313a20617070726f76616c20746f2063757272656e74206f776e656044820152603960f91b6064820152608401610c00565b336001600160a01b0382161480610cb95750610cb98133610a20565b610d2b5760405162461bcd60e51b815260206004820152603860248201527f4552433732313a20617070726f76652063616c6c6572206973206e6f74206f7760448201527f6e6572206e6f7220617070726f76656420666f7220616c6c00000000000000006064820152608401610c00565b610d3583836132db565b505050565b610d46813560b2613349565b60135481356000818152600d6020908152604080832081870135808552908352928190205490516337fb824760e11b815273__$e2c9a8f399964af47bb173600dd9e5f662$__95636ff7048e95610db39590948901359390926001600160a01b0390921691600401615594565b60006040518083038186803b158015610dcb57600080fd5b505af4158015610ddf573d6000803e3d6000fd5b5050505050565b6060610b00826124d5565b610dfd813560b2613349565b610e0a81602001356133da565b73__$e2c9a8f399964af47bb173600dd9e5f662$__639ec52a23823560208401356040850135610e3d60608701876155c0565b6013546020808a01356000908152600a9091526040908190206005015490516001600160e01b031960e08a901b168152610db39796959493926001600160a01b03908116921690600d9060040161562f565b610e9a836002613349565b610d35838383613406565b610eaf3382613462565b610ecb5760405162461bcd60e51b8152600401610c009061567c565b610d3583838361354c565b6000610ee38484846136f9565b90505b9392505050565b6000610efb823560ec613349565b610f058235613783565b6040516342a34a5360e01b815290915073__$2873850e5b3f5697aafc2f5cd9f27cc884$__906342a34a5390610f4990859085906000908190600e906004016157d4565b60006040518083038186803b158015610f6157600080fd5b505af4158015610f75573d6000803e3d6000fd5b50505050919050565b6000610f89836117fb565b8210610feb5760405162461bcd60e51b815260206004820152602b60248201527f455243373231456e756d657261626c653a206f776e657220696e646578206f7560448201526a74206f6620626f756e647360a81b6064820152608401610c00565b506001600160a01b03919091166000908152600660209081526040808320938352929052205490565b6000611022833560ca613349565b6545524337323160d01b60006110388535613783565b6013549091506000906001600160a01b0316632ea24efc8261105d6020890189614c71565b6040516001600160e01b031960e085901b16815260048101929092526001600160a01b03166024820152602088013560448201526064016020604051808303816000875af11580156110b3573d6000803e3d6000fd5b505050506040513d601f19601f820116820180604052508101906110d79190615819565b905073__$2873850e5b3f5697aafc2f5cd9f27cc884$__6342a34a538784868561110460208c018c614c71565b8b6020013560405160200161113792919060609290921b6bffffffffffffffffffffffff19168252601482015260340190565b604051602081830303815290604052600e6040518763ffffffff1660e01b815260040161116996959493929190615832565b60006040518083038186803b15801561118157600080fd5b505af4158015611195573d6000803e3d6000fd5b509398975050505050505050565b6013546040516367880d6160e11b8152600481018590526000916001600160a01b03169063cf101ac290602401602060405180830381865afa1580156111ed573d6000803e3d6000fd5b505050506040513d601f19601f820116820180604052508101906112119190615819565b905061121e8160b1613349565b601354604051633c17845760e11b81526001600160a01b039091169063782f08ae906112529087908790879060040161587d565b600060405180830381600087803b15801561126c57600080fd5b505af1158015611280573d6000803e3d6000fd5b5050505050505050565b611296813560b9613349565b73__$e2c9a8f399964af47bb173600dd9e5f662$__63a4159c6b82356112c26040850160208601614c71565b6013546040805160e086901b6001600160e01b031916815260048101949094526001600160a01b0392831660248501528601356044840152166064820152600d608482015260a401610db3565b61131b813560b6613349565b60135460408051631d4deabf60e01b81528335600482015260208401356024820152908301356044820152606083013560648201526001600160a01b039091166084820152600d60a482015273__$e2c9a8f399964af47bb173600dd9e5f662$__90631d4deabf9060c401610db3565b610d35838383604051806020016040528060008152506122b0565b6000818152600a602052604080822090516113c49160010190615897565b60408051918290039091206000818152600b6020908152838220829055858252600a9052918220828155909250906113ff6001830182614991565b61140d600283016000614991565b50600060038201556004810180546001600160a01b031990811690915560059091018054909116905561143f826137ac565b5050565b6000611451833560c8613349565b67131a5b9adb1a5cdd60c21b60006114698535613783565b905060008460001b905073__$2873850e5b3f5697aafc2f5cd9f27cc884$__6342a34a53878486858a60405160200161113791815260200190565b6114af8360b0613349565b6000838152600a602052604090206002016114cb828483615953565b50827f17d7c9f69270ba135480ef16837f38b9d37d3ab291cbd3ba03982290c663199783836040516114fe929190615a12565b60405180910390a2505050565b6000828152601a60209081526040808320848452909152902060609081906115329061380b565b6000858152601a60209081526040808320878452909152902090925061155a9060020161380b565b90509250929050565b600061156e60085490565b82106115d15760405162461bcd60e51b815260206004820152602c60248201527f455243373231456e756d657261626c653a20676c6f62616c20696e646578206f60448201526b7574206f6620626f756e647360a01b6064820152608401610c00565b600882815481106115e4576115e4615a26565b90600052602060002001549050919050565b611602813560be613349565b60135481356000818152600d602090815260408083208187013580855290835292819020549051633fe4fe3960e11b815273__$e2c9a8f399964af47bb173600dd9e5f662$__95637fc9fc7295610db39590948901359390926001600160a01b0390921691600401615594565b61167b813560bb613349565b73__$e2c9a8f399964af47bb173600dd9e5f662$__6348391dcb82356116a460208501856155c0565b601354604080516001600160e01b031960e088901b168152610db39594939291890135916001600160a01b031690600d90600401615a3c565b6116e78484613818565b6116f1848461387d565b6116fb84846138f4565b6040516001626802bf60e01b0319815273__$2873850e5b3f5697aafc2f5cd9f27cc884$__9063ff97fd419061173e908790879087908790600e90600401615a7d565b60006040518083038186803b15801561175657600080fd5b505af4158015611280573d6000803e3d6000fd5b6000818152600260205260408120546001600160a01b031680610b005760405162461bcd60e51b815260206004820152602960248201527f4552433732313a206f776e657220717565727920666f72206e6f6e657869737460448201526832b73a103a37b5b2b760b91b6064820152608401610c00565b6000818152601860205260409020606090610b009061380b565b60006001600160a01b0382166118665760405162461bcd60e51b815260206004820152602a60248201527f4552433732313a2062616c616e636520717565727920666f7220746865207a65604482015269726f206164647265737360b01b6064820152608401610c00565b506001600160a01b031660009081526003602052604090205490565b61188d8260c4613349565b611897828261387d565b6000828152600e60209081526040808320848452825291829020600501805460ff60a81b1916600160a81b179055905182815283917f036469f3e73c83520cdefa197d7a9c854c2f8bc0164b82e9f2bd4aa7e150fd3091015b60405180910390a25050565b60006119078561176a565b6001600160a01b038181166000908152601c6020908152604080832080546001810190915581517f53f5e122d65c239c5936ed0eb8ce8ea2c1e77831749ec178c59c5cd4a792fe04938101939093529082018a90529288166060808301919091526080820188905260a08201939093529185013560c083015291925060e0016040516020818303038152906040528051906020012090506119d36119cc6119ac613939565b8360405161190160f01b8152600281019290925260228201526042902090565b83856139af565b50610ddf858585613406565b6119eb813560b8613349565b73__$e2c9a8f399964af47bb173600dd9e5f662$__63154246368235611a176040850160208601614c71565b60135485356000908152600d6020908152604080832060608a013580855292529182902054825160e088901b6001600160e01b031916815260048101969096526001600160a01b03948516602487015291880135604486015260648501529116608483015260a482015260c401610db3565b600080611a958361176a565b6001600160a01b03166000908152600c60205260409020549290921492915050565b60135460405162fba02760e01b8152600481018390526000916001600160a01b03169062fba02790602401602060405180830381865afa158015611aff573d6000803e3d6000fd5b505050506040513d601f19601f82011682018060405250810190610b009190615819565b6000611b31833560c7613349565b664164647265737360c81b6000611b488535613783565b6040516bffffffffffffffffffffffff19606087901b1660208201529091506001600160a01b0385169073__$2873850e5b3f5697aafc2f5cd9f27cc884$__906342a34a53908890859087908690603401611137565b611baa813560ba613349565b73__$e2c9a8f399964af47bb173600dd9e5f662$__6393c96a528235611bd66040850160208601614c71565b60135485356000908152600d60209081526040808320818a013580855292529182902054915160e087901b6001600160e01b031916815260048101959095526001600160a01b039384166024860152604485015291166064830152608482015260a401610db3565b606060018054610b1590615560565b611c58826001613349565b6000828152600a60205260409020600401546001600160a01b031615611c915760405163fe6f50e560e01b815260040160405180910390fd5b6040516384b44a2f60e01b8152600481018390526001600160a01b0382166024820152600a604482015273__$d8529f0216812a2dec6b96adf1943c3537$__906384b44a2f9060640160006040518083038186803b158015611cf257600080fd5b505af4158015611d06573d6000803e3d6000fd5b505050505050565b611d1a813560bd613349565b60135460408051632ca904df60e01b815273__$e2c9a8f399964af47bb173600dd9e5f662$__92632ca904df92610db392863592602088013592880135916001600160a01b0390911690600d90600401615594565b6000611d7d833560c9613349565b634e6f746560e01b6000611d918535613783565b601354604051635cb46be760e01b815260006004820181905287356024830152602088013560448301529293506001600160a01b0390911690635cb46be7906064016020604051808303816000875af1158015611df2573d6000803e3d6000fd5b505050506040513d601f19601f82011682018060405250810190611e169190615819565b905073__$2873850e5b3f5697aafc2f5cd9f27cc884$__6342a34a53878486858a600001358b60200135604051602001611137929190918252602082015260400190565b611e626149cb565b60008383604051611e74929190615aaf565b604080519182900382206000818152600b602090815283822054808352600a82529184902060c0860190945283548552600184018054939650919493929084019190611ebf90615560565b80601f0160208091040260200160405190810160405280929190818152602001828054611eeb90615560565b8015611f385780601f10611f0d57610100808354040283529160200191611f38565b820191906000526020600020905b815481529060010190602001808311611f1b57829003601f168201915b50505050508152602001600282018054611f5190615560565b80601f0160208091040260200160405190810160405280929190818152602001828054611f7d90615560565b8015611fca5780601f10611f9f57610100808354040283529160200191611fca565b820191906000526020600020905b815481529060010190602001808311611fad57829003601f168201915b50505091835250506003820154602082015260048201546001600160a01b03908116604083015260059092015490911660609091015295945050505050565b61143f338383613a8c565b61201f836000613349565b61203f8282604051612032929190615aaf565b6040518091039020613b5a565b61207e82828080601f016020809104026020016040519081016040528093929190818152602001838380828437600092019190915250613b8792505050565b60405163130f361d60e01b815273__$d8529f0216812a2dec6b96adf1943c3537$__9063130f361d906120bf90869086908690600b90600a90600401615abf565b60006040518083038186803b1580156120d757600080fd5b505af41580156120eb573d6000803e3d6000fd5b50505050505050565b60006121058235602084013561387d565b73__$2873850e5b3f5697aafc2f5cd9f27cc884$__639d2e06f0833560208501356121366060870160408801614c71565b61214360608801886155c0565b6014546040516001600160e01b031960e089901b1681526121789695949392916001600160a01b031690600e90600401615aed565b602060405180830381865af4158015611aff573d6000803e3d6000fd5b6060816001600160401b038111156121af576121af615146565b6040519080825280602002602001820160405280156121e257816020015b60608152602001906001900390816121cd5790505b50905060005b82811015612282576122523085858481811061220657612206615a26565b905060200281019061221891906155c0565b8080601f016020809104026020016040519081016040528093929190818152602001838380828437600092019190915250613bf492505050565b82828151811061226457612264615a26565b6020026020010181905250808061227a90615b47565b9150506121e8565b5092915050565b6000612297833560c6613349565b6821b430b930b1ba32b960b91b60006114698535613783565b6122ba3383613462565b6122d65760405162461bcd60e51b8152600401610c009061567c565b6122e284848484613c19565b50505050565b6122f4813560b5613349565b6123068160200135826040013561387d565b73__$e2c9a8f399964af47bb173600dd9e5f662$__6371bd9b06823560208401356040850135606086013561233e60808801886155c0565b6013546020808b01356000908152600e82526040808220818e013583529092528190206003015490516001600160e01b031960e08b901b168152610db3989796959493926001600160a01b03908116921690600d90600401615b60565b6013546040516367880d6160e11b8152600481018490526000916001600160a01b03169063cf101ac290602401602060405180830381865afa1580156123e5573d6000803e3d6000fd5b505050506040513d601f19601f820116820180604052508101906124099190615819565b90506124168160b1613349565b60135460405163015800dd60e71b815273__$e2c9a8f399964af47bb173600dd9e5f662$__9163ac006e80916120bf918591889188916001600160a01b0390911690600d90600401615594565b61246e8260c5613349565b612478828261387d565b6000828152600e60209081526040808320848452825291829020600501805460ff60a01b1916600160a01b179055905182815283917f4f1db9708b537c1d26a7af4b235fd079bf2342d92a276e27eb6c8717e8bbcf9391016118f0565b6060816124e1816132be565b6124fe576040516366012df560e11b815260040160405180910390fd5b6000838152600a60205260409020600201805461251a90615560565b80601f016020809104026020016040519081016040528092919081815260200182805461254690615560565b80156125935780601f1061256857610100808354040283529160200191612593565b820191906000526020600020905b81548152906001019060200180831161257657829003601f168201915b505050505091505b50919050565b6125ad813560b7613349565b73__$e2c9a8f399964af47bb173600dd9e5f662$__63f35deae182356125d96040850160208601614c71565b6013546040805160e086901b6001600160e01b031916815260048101949094526001600160a01b039283166024850152860135604484015260608601356064840152166084820152600d60a482015260c401610db3565b6000610b0061263e83615bb6565b6001613c4c565b612651813560c2613349565b6126608135602083013561387d565b61266f813560208301356138f4565b73__$2873850e5b3f5697aafc2f5cd9f27cc884$__6320828a02823560208401356126a06060860160408701614c71565b6126ad60608701876155c0565b600e6040518763ffffffff1660e01b8152600401610db396959493929190615c69565b6126d86149cb565b816126e2816132be565b6126ff576040516366012df560e11b815260040160405180910390fd5b600a60008481526020019081526020016000206040518060c00160405290816000820154815260200160018201805461273790615560565b80601f016020809104026020016040519081016040528092919081815260200182805461276390615560565b80156127b05780601f10612785576101008083540402835291602001916127b0565b820191906000526020600020905b81548152906001019060200180831161279357829003601f168201915b505050505081526020016002820180546127c990615560565b80601f01602080910402602001604051908101604052809291908181526020018280546127f590615560565b80156128425780601f1061281757610100808354040283529160200191612842565b820191906000526020600020905b81548152906001019060200180831161282557829003601f168201915b50505091835250506003820154602082015260048201546001600160a01b0390811660408301526005909201549091166060909101529392505050565b60408051610100808201835260008083526020808401829052606084860181905284018290526080840182905260a0840182905260c0840182905260e08401829052868252600e8152848220868352815290849020845192830185528054835260018101549183019190915260028101805493949293919284019161290390615560565b80601f016020809104026020016040519081016040528092919081815260200182805461292f90615560565b801561297c5780601f106129515761010080835404028352916020019161297c565b820191906000526020600020905b81548152906001019060200180831161295f57829003601f168201915b505050918352505060038201546001600160a01b039081166020830152600483015481166040830152600590920154918216606082015260ff600160a01b8304811615156080830152600160a81b909204909116151560a090910152905092915050565b6129ec813560c0613349565b6129fb81356020830135613818565b612a0a8135602083013561387d565b612a19813560208301356138f4565b73__$2873850e5b3f5697aafc2f5cd9f27cc884$__631f2ffb69823560208401356126a06060860160408701614c71565b612a55866003613349565b612a5f868661387d565b604051630afb883f60e41b815273__$bfdcc7011a2e80c167e18378382b8de19c$__9063afb883f090612aa390899089908990899089908990601a90600401615ce6565b60006040518083038186803b158015612abb57600080fd5b505af4158015612acf573d6000803e3d6000fd5b50505050505050505050565b601354604051632b05429560e21b8152600481018390526060916001600160a01b03169063ac150a5490602401600060405180830381865afa158015612b25573d6000803e3d6000fd5b505050506040513d6000823e601f3d908101601f19168201604052610b009190810190615d2e565b601454600390600160a81b900460ff16158015612b78575060145460ff808316600160a01b90920416105b612bdb5760405162461bcd60e51b815260206004820152602e60248201527f496e697469616c697a61626c653a20636f6e747261637420697320616c72656160448201526d191e481a5b9a5d1a585b1a5e995960921b6064820152608401610c00565b6014805460ff60a81b1960ff8416600160a01b021661ffff60a01b1990911617600160a81b179055612c0f89898989613d29565b601380546001600160a01b03199081166001600160a01b0388811691909117909255601480548216878416179055601580548216868416179055601b80549091169184169190911790556040514281527f400175a56dd3710794078f7b9dbe8296ac94c5a248dfd51bb22ed4ab9eaa9fbf9060200160405180910390a16014805460ff60a81b1916905560405160ff821681527f7f26b83ff96e1f2b6a682f133852f6798a09c465da95921460cefb38474024989060200160405180910390a1505050505050505050565b606081612ce6816132be565b612d03576040516366012df560e11b815260040160405180910390fd5b6000838152600a60205260409020600101805461251a90615560565b6000612d29613939565b905090565b612d3a813560bc613349565b73__$e2c9a8f399964af47bb173600dd9e5f662$__631873e2188235612d6360208501856155c0565b60135486356000908152600d60209081526040808320818b01358085529252918290205491516001600160e01b031960e089901b168152610db39695949391926001600160a01b039092169190600401615a3c565b612dc181613d7a565b326000908152600c6020526040808220805490849055905190918291849133917fce95332e6082aebeb8058a7b56d1a109f67d6550552ed04d36aca4a6acd4d7de9190a45050565b6000612e17843560cb613349565b65416e7955726960d01b6000612e2d8635613783565b601354604051633610bf0960e11b81529192506000916001600160a01b0390911690636c217e1290612e679084908a908a9060040161587d565b6020604051808303816000875af1158015612e86573d6000803e3d6000fd5b505050506040513d601f19601f82011682018060405250810190612eaa9190615819565b905073__$2873850e5b3f5697aafc2f5cd9f27cc884$__6342a34a53888486858b8b604051602001612edd929190615aaf565b604051602081830303815290604052600e6040518763ffffffff1660e01b8152600401612f0f96959493929190615832565b60006040518083038186803b158015612f2757600080fd5b505af4158015612f3b573d6000803e3d6000fd5b50939998505050505050505050565b6000612f58823560b4613349565b612fe66040518060a00160405280846020016020810190612f799190614c71565b6001600160a01b03168152602001612fa2856020016020810190612f9d9190614c71565b613de0565b815260200160405180602001604052806000815250815260200160006001600160a01b03168152602001604051806020016040528060008152508152506000613c4c565b60135460408051639ec52a2360e01b8152853560048201526024810184905290850135604482015260e06064820152600060e482018190526001600160a01b03909216608482015260a4810191909152600d60c482015290915073__$e2c9a8f399964af47bb173600dd9e5f662$__90639ec52a239061010401610f49565b6013546040516367880d6160e11b8152600481018390526000916001600160a01b03169063cf101ac290602401602060405180830381865afa1580156130af573d6000803e3d6000fd5b505050506040513d601f19601f820116820180604052508101906130d39190615819565b90506130de8161176a565b6001600160a01b0316336001600160a01b03161461310f57604051631b0c476f60e11b815260040160405180910390fd5b60135460405162fba02760e01b8152600481018490526000916001600160a01b03169062fba02790602401602060405180830381865afa158015613157573d6000803e3d6000fd5b505050506040513d601f19601f8201168201806040525081019061317b9190615819565b6000838152600d60209081526040808320848452909152808220919091556013549051630852cd8d60e31b8152600481018690529192506001600160a01b0316906342966c6890602401600060405180830381600087803b1580156131df57600080fd5b505af11580156120eb573d6000803e3d6000fd5b6131ff813560bf613349565b73__$d8529f0216812a2dec6b96adf1943c3537$__631dc83133823561322b6040850160208601614c71565b61323860408601866155c0565b86356000908152600a60205260409081902090516001600160e01b031960e088901b168152610db3959493929190600401615d9b565b60006001600160e01b031982166380ac58cd60e01b148061329f57506001600160e01b03198216635b5e139f60e01b145b80610b0057506301ffc9a760e01b6001600160e01b0319831614610b00565b6000908152600260205260409020546001600160a01b0316151590565b600081815260046020526040902080546001600160a01b0319166001600160a01b03841690811790915581906133108261176a565b6001600160a01b03167f8c5be1e5ebec7d5bd14f71427d1e84f3dd0314c0f7b2291e5b200ac8c7c3b92560405160405180910390a45050565b61335282613ee9565b1561335b575050565b6015546001600160a01b03163303613397576000828152601960209081526040808320328452909152902054600190821c811603613397575050565b6000828152601960209081526040808320338452909152902054600190821c8116036133c1575050565b604051632c4bc2b960e21b815260040160405180910390fd5b6133e3816132be565b613403576040516375af0fc960e11b815260048101829052602401610c00565b50565b604051631f8c0b6760e11b8152600481018490526001600160a01b038316602482015260448101829052601860648201526019608482015273__$bfdcc7011a2e80c167e18378382b8de19c$__90633f1816ce9060a4016120bf565b600061346d826132be565b6134ce5760405162461bcd60e51b815260206004820152602c60248201527f4552433732313a206f70657261746f7220717565727920666f72206e6f6e657860448201526b34b9ba32b73a103a37b5b2b760a11b6064820152608401610c00565b60006134d98361176a565b9050806001600160a01b0316846001600160a01b031614806135145750836001600160a01b031661350984610b98565b6001600160a01b0316145b8061354457506001600160a01b0380821660009081526005602090815260408083209388168352929052205460ff165b949350505050565b826001600160a01b031661355f8261176a565b6001600160a01b0316146135c35760405162461bcd60e51b815260206004820152602560248201527f4552433732313a207472616e736665722066726f6d20696e636f72726563742060448201526437bbb732b960d91b6064820152608401610c00565b6001600160a01b0382166136255760405162461bcd60e51b8152602060048201526024808201527f4552433732313a207472616e7366657220746f20746865207a65726f206164646044820152637265737360e01b6064820152608401610c00565b613630838383613f49565b61363b6000826132db565b6001600160a01b0383166000908152600360205260408120805460019290613664908490615dc6565b90915550506001600160a01b0382166000908152600360205260408120805460019290613692908490615dd9565b909155505060008181526002602052604080822080546001600160a01b0319166001600160a01b0386811691821790925591518493918716917fddf252ad1be2c89b69c2b068fc378daa952ba7f163c4a11628f55a4df523b3ef91a4610d3583838361401b565b6000838152601a60209081526040808320858452909152812061371c8184614058565b1561372b576000915050610ee6565b6137386002820184614058565b15613747576001915050610ee6565b60008581526019602090815260408083206001600160a01b038716845290915290205461377a9060c31c60019081161490565b95945050505050565b6000818152600a60205260408120600301805482906137a190615b47565b918290555092915050565b6137b63382613462565b6138025760405162461bcd60e51b815260206004820152601b60248201527f4e4654426173653a204e6f744f776e65724f72417070726f76656400000000006044820152606401610c00565b6134038161407a565b60606000610ee683614129565b61382182613ee9565b1561382a575050565b6015546001600160a01b03163303613850576138478282326136f9565b15613850575050565b61385b8282336136f9565b15613864575050565b604051631a1d1d4760e11b815260040160405180910390fd5b6000828152600e60209081526040808320848452909152902060050154600160a01b900460ff16156138c257604051631f0fc8f560e11b815260040160405180910390fd5b6000828152600a602052604090206003015481111561143f576040516364783acb60e01b815260040160405180910390fd5b6000828152600e60209081526040808320848452909152902060050154600160a81b900460ff161561143f57604051630bc06a0f60e21b815260040160405180910390fd5b60007f8b73c3c69bb8fe3d512ecc4cf759cc79239f7b179b0ffacaa9a75d522b39400f613964610b06565b8051602091820120604080519283019390935291810191909152600160608201524660808201523060a082015260c00160405160208183030381529060405280519060200120905090565b42816060013510156139d3576040516275e96160e01b815260040160405180910390fd5b60006001846139e56020850185615dec565b604080516000815260208181018084529490945260ff9092168282015291850135606082015290840135608082015260a0016020604051602081039080840390855afa158015613a39573d6000803e3d6000fd5b5050604051601f1901519150506001600160a01b0381161580613a6e5750826001600160a01b0316816001600160a01b031614155b156122e257604051636a9ca51760e01b815260040160405180910390fd5b816001600160a01b0316836001600160a01b031603613aed5760405162461bcd60e51b815260206004820152601960248201527f4552433732313a20617070726f766520746f2063616c6c6572000000000000006044820152606401610c00565b6001600160a01b03838116600081815260056020908152604080832094871680845294825291829020805460ff191686151590811790915591519182527f17307eab39ab6107e8899845ad3d59bd9653f200f220920489ca2b5937696c31910160405180910390a3505050565b6000818152600b60205260409020541561340357604051631b659b9f60e21b815260040160405180910390fd5b80518190601f811180613b9a5750600381105b15613bb857604051636f819c2160e11b815260040160405180910390fd5b60005b818110156122e257613bec838281518110613bd857613bd8615a26565b01602001516001600160f81b031916614185565b600101613bbb565b6060610ee68383604051806060016040528060278152602001615f9560279139614233565b613c2484848461354c565b613c30848484846142ab565b6122e25760405162461bcd60e51b8152600401610c0090615e0f565b6000613c62836020015180519060200120613b5a565b8115613c7557613c758360200151613b87565b601260008154613c8490615b47565b91829055508351909150613c9890826143ac565b73__$d8529f0216812a2dec6b96adf1943c3537$__634daae5688460000151856020015186604001518760600151886080015187600b600a6040518963ffffffff1660e01b8152600401613cf3989796959493929190615e61565b60006040518083038186803b158015613d0b57600080fd5b505af4158015613d1f573d6000803e3d6000fd5b5050505092915050565b613d35848484846143c6565b7f414cd0b34676984f09a5f76ce9718d4062e50283abe0e7e274a9a5b4e0c99c308484848442604051613d6c959493929190615ed8565b60405180910390a150505050565b6000613d858261176a565b6015549091506001600160a01b031633148015613daa5750326001600160a01b038216145b15613db3575050565b6001600160a01b0381163303613dc7575050565b604051631b0c476f60e11b815260040160405180910390fd5b60408051602a80825260608281019093526f181899199a1a9b1b9c1cb0b131b232b360811b916001600160a01b0385169160009190602082018180368337019050509050600360fc1b81600081518110613e3c57613e3c615a26565b60200101906001600160f81b031916908160001a905350600f60fb1b81600181518110613e6b57613e6b615a26565b60200101906001600160f81b031916908160001a90535060295b6001811115613ee0578383600f1660108110613ea357613ea3615a26565b1a60f81b828281518110613eb957613eb9615a26565b60200101906001600160f81b031916908160001a90535060049290921c9160001901613e85565b50949350505050565b600080613ef58361176a565b90506001600160a01b0381163303613f105750600192915050565b6015546001600160a01b031633148015613f325750326001600160a01b038216145b15613f405750600192915050565b50600092915050565b601b546001600160a01b03848116911614614010576000818152601860205260408120613f75906143e1565b600083815260186020526040812091925090613f909061380b565b905060005b82811015613fd257613fc084838381518110613fb357613fb3615a26565b60200260200101516143eb565b80613fca81615b47565b915050613f95565b506001600160a01b0385166000908152600c602052604090205483900361400d576001600160a01b0385166000908152600c60205260408120555b50505b610d35838383614424565b6001600160a01b0382166000908152600c60205260408120549003610d35576001600160a01b03919091166000908152600c602052604090205550565b6001600160a01b03811660009081526001830160205260408120541515610ee6565b60006140858261176a565b905061409381600084613f49565b61409e6000836132db565b6001600160a01b03811660009081526003602052604081208054600192906140c7908490615dc6565b909155505060008281526002602052604080822080546001600160a01b0319169055518391906001600160a01b038416907fddf252ad1be2c89b69c2b068fc378daa952ba7f163c4a11628f55a4df523b3ef908390a461143f8160008461401b565b60608160000180548060200260200160405190810160405280929190818152602001828054801561417957602002820191906000526020600020905b815481526020019060010190808311614165575b50505050509050919050565b600360fc1b6001600160f81b0319821610806141ae5750603d60f91b6001600160f81b03198216115b806141de5750603960f81b6001600160f81b031982161180156141de5750606160f81b6001600160f81b03198216105b80156141f85750602d60f81b6001600160f81b0319821614155b80156142125750605f60f81b6001600160f81b0319821614155b15613403576040516001621693dd60e01b0319815260040160405180910390fd5b6060600080856001600160a01b0316856040516142509190615f12565b600060405180830381855af49150503d806000811461428b576040519150601f19603f3d011682016040523d82523d6000602084013e614290565b606091505b50915091506142a1868383876144dc565b9695505050505050565b60006001600160a01b0384163b156143a157604051630a85bd0160e11b81526001600160a01b0385169063150b7a02906142ef903390899088908890600401615f2e565b6020604051808303816000875af192505050801561432a575060408051601f3d908101601f1916820190925261432791810190615f61565b60015b614387573d808015614358576040519150601f19603f3d011682016040523d82523d6000602084013e61435d565b606091505b50805160000361437f5760405162461bcd60e51b8152600401610c0090615e0f565b805181602001fd5b6001600160e01b031916630a85bd0160e11b149050613544565b506001949350505050565b61143f828260405180602001604052806000815250614555565b60006143d3848683615953565b506001610ddf828483615953565b6000610b00825490565b60008281526019602090815260408083206001600160a01b0385168452825280832083905584835260189091529020610d359082614588565b6001600160a01b03831661447f5761447a81600880546000838152600960205260408120829055600182018355919091527ff3f7a9fe364faab93b216da50a3214154f22a0a2b415b23a84c8169e8b636ee30155565b6144a2565b816001600160a01b0316836001600160a01b0316146144a2576144a2838261459d565b6001600160a01b0382166144b957610d358161463a565b826001600160a01b0316826001600160a01b031614610d3557610d3582826146e9565b6060831561454b578251600003614544576001600160a01b0385163b6145445760405162461bcd60e51b815260206004820152601d60248201527f416464726573733a2063616c6c20746f206e6f6e2d636f6e74726163740000006044820152606401610c00565b5081613544565b613544838361472d565b61455f8383614757565b61456c60008484846142ab565b610d355760405162461bcd60e51b8152600401610c0090615e0f565b6000610ee6836001600160a01b03841661489e565b600060016145aa846117fb565b6145b49190615dc6565b600083815260076020526040902054909150808214614607576001600160a01b03841660009081526006602090815260408083208584528252808320548484528184208190558352600790915290208190555b5060009182526007602090815260408084208490556001600160a01b039094168352600681528383209183525290812055565b60085460009061464c90600190615dc6565b6000838152600960205260408120546008805493945090928490811061467457614674615a26565b90600052602060002001549050806008838154811061469557614695615a26565b60009182526020808320909101929092558281526009909152604080822084905585825281205560088054806146cd576146cd615f7e565b6001900381819060005260206000200160009055905550505050565b60006146f4836117fb565b6001600160a01b039093166000908152600660209081526040808320868452825280832085905593825260079052919091209190915550565b81511561473d5781518083602001fd5b8060405162461bcd60e51b8152600401610c009190614aaf565b6001600160a01b0382166147ad5760405162461bcd60e51b815260206004820181905260248201527f4552433732313a206d696e7420746f20746865207a65726f20616464726573736044820152606401610c00565b6147b6816132be565b156148035760405162461bcd60e51b815260206004820152601c60248201527f4552433732313a20746f6b656e20616c7265616479206d696e746564000000006044820152606401610c00565b61480f60008383613f49565b6001600160a01b0382166000908152600360205260408120805460019290614838908490615dd9565b909155505060008181526002602052604080822080546001600160a01b0319166001600160a01b03861690811790915590518392907fddf252ad1be2c89b69c2b068fc378daa952ba7f163c4a11628f55a4df523b3ef908290a461143f6000838361401b565b600081815260018301602052604081205480156149875760006148c2600183615dc6565b85549091506000906148d690600190615dc6565b905081811461493b5760008660000182815481106148f6576148f6615a26565b906000526020600020015490508087600001848154811061491957614919615a26565b6000918252602080832090910192909255918252600188019052604090208390555b855486908061494c5761494c615f7e565b600190038181906000526020600020016000905590558560010160008681526020019081526020016000206000905560019350505050610b00565b6000915050610b00565b50805461499d90615560565b6000825580601f106149ad575050565b601f0160209004906000526020600020908101906134039190614a13565b6040518060c001604052806000815260200160608152602001606081526020016000815260200160006001600160a01b0316815260200160006001600160a01b031681525090565b5b80821115614a285760008155600101614a14565b5090565b6001600160e01b03198116811461340357600080fd5b600060208284031215614a5457600080fd5b8135610ee681614a2c565b60005b83811015614a7a578181015183820152602001614a62565b50506000910152565b60008151808452614a9b816020860160208601614a5f565b601f01601f19169290920160200192915050565b602081526000610ee66020830184614a83565b600060208284031215614ad457600080fd5b5035919050565b80356001600160a01b0381168114614af257600080fd5b919050565b60008060408385031215614b0a57600080fd5b614b1383614adb565b946020939093013593505050565b60006060828403121561259b57600080fd5b600060608284031215614b4557600080fd5b610ee68383614b21565b60006080828403121561259b57600080fd5b600060208284031215614b7357600080fd5b81356001600160401b03811115614b8957600080fd5b61354484828501614b4f565b600080600060608486031215614baa57600080fd5b83359250614bba60208501614adb565b9150604084013590509250925092565b600080600060608486031215614bdf57600080fd5b614be884614adb565b9250614bba60208501614adb565b600080600060608486031215614c0b57600080fd5b8335925060208401359150614c2260408501614adb565b90509250925092565b600060e0828403121561259b57600080fd5b600060208284031215614c4f57600080fd5b81356001600160401b03811115614c6557600080fd5b61354484828501614c2b565b600060208284031215614c8357600080fd5b610ee682614adb565b60006040828403121561259b57600080fd5b60008060608385031215614cb157600080fd5b82356001600160401b03811115614cc757600080fd5b614cd385828601614c2b565b92505061155a8460208501614c8c565b60008083601f840112614cf557600080fd5b5081356001600160401b03811115614d0c57600080fd5b602083019150836020828501011115614d2457600080fd5b9250929050565b600080600060408486031215614d4057600080fd5b8335925060208401356001600160401b03811115614d5d57600080fd5b614d6986828701614ce3565b9497909650939450505050565b600060808284031215614d8857600080fd5b610ee68383614b4f565b60008060408385031215614da557600080fd5b82356001600160401b03811115614dbb57600080fd5b614dc785828601614c2b565b95602094909401359450505050565b60008060408385031215614de957600080fd5b50508035926020909101359150565b600081518084526020808501945080840160005b83811015614e315781516001600160a01b031687529582019590820190600101614e0c565b509495945050505050565b604081526000614e4f6040830185614df8565b828103602084015261377a8185614df8565b60008060008060608587031215614e7757600080fd5b843593506020850135925060408501356001600160401b03811115614e9b57600080fd5b614ea787828801614ce3565b95989497509550505050565b602081526000610ee66020830184614df8565b60008060008060e08587031215614edc57600080fd5b84359350614eec60208601614adb565b925060408501359150614f028660608701614b4f565b905092959194509250565b60008060408385031215614f2057600080fd5b82356001600160401b03811115614f3657600080fd5b614f4285828601614c2b565b92505061155a60208401614adb565b60008060408385031215614f6457600080fd5b8235915061155a60208401614adb565b60008060208385031215614f8757600080fd5b82356001600160401b03811115614f9d57600080fd5b614fa985828601614ce3565b90969095509350505050565b60208152815160208201526000602083015160c06040840152614fdb60e0840182614a83565b90506040840151601f19848303016060850152614ff88282614a83565b91505060608401516080840152608084015160018060a01b0380821660a08601528060a08701511660c086015250508091505092915050565b80358015158114614af257600080fd5b6000806040838503121561505457600080fd5b61505d83614adb565b915061155a60208401615031565b60008083601f84011261507d57600080fd5b5081356001600160401b0381111561509457600080fd5b6020830191508360208260051b8501011115614d2457600080fd5b600080602083850312156150c257600080fd5b82356001600160401b038111156150d857600080fd5b614fa98582860161506b565b6000602080830181845280855180835260408601915060408160051b870101925083870160005b8281101561513957603f19888603018452615127858351614a83565b9450928501929085019060010161510b565b5092979650505050505050565b634e487b7160e01b600052604160045260246000fd5b60405160a081016001600160401b038111828210171561517e5761517e615146565b60405290565b604051601f8201601f191681016001600160401b03811182821017156151ac576151ac615146565b604052919050565b60006001600160401b038211156151cd576151cd615146565b50601f01601f191660200190565b600082601f8301126151ec57600080fd5b81356151ff6151fa826151b4565b615184565b81815284602083860101111561521457600080fd5b816020850160208301376000918101602001919091529392505050565b6000806000806080858703121561524757600080fd5b61525085614adb565b935061525e60208601614adb565b92506040850135915060608501356001600160401b0381111561528057600080fd5b61528c878288016151db565b91505092959194509250565b600060a0828403121561259b57600080fd5b6000602082840312156152bc57600080fd5b81356001600160401b038111156152d257600080fd5b61354484828501615298565b60208152815160208201526020820151604082015260006040830151610100806060850152615311610120850183614a83565b9150606085015160018060a01b0380821660808701528060808801511660a0870152505060a085015161534f60c08601826001600160a01b03169052565b5060c085015180151560e08601525060e0850151801515858301525090949350505050565b6000806000806000806080878903121561538d57600080fd5b863595506020870135945060408701356001600160401b03808211156153b257600080fd5b6153be8a838b0161506b565b909650945060608901359150808211156153d757600080fd5b506153e489828a0161506b565b979a9699509497509295939492505050565b60008060008060008060008060c0898b03121561541257600080fd5b88356001600160401b038082111561542957600080fd5b6154358c838d01614ce3565b909a50985060208b013591508082111561544e57600080fd5b5061545b8b828c01614ce3565b909750955061546e905060408a01614adb565b935061547c60608a01614adb565b925061548a60808a01614adb565b915061549860a08a01614adb565b90509295985092959890939650565b600080604083850312156154ba57600080fd5b6154c383614adb565b915061155a60208401614adb565b6000602082840312156154e357600080fd5b81356001600160401b038111156154f957600080fd5b61354484828501614b21565b60008060006040848603121561551a57600080fd5b83356001600160401b038082111561553157600080fd5b61553d87838801614c2b565b9450602086013591508082111561555357600080fd5b50614d6986828701614ce3565b600181811c9082168061557457607f821691505b60208210810361259b57634e487b7160e01b600052602260045260246000fd5b948552602085019390935260408401919091526001600160a01b03166060830152608082015260a00190565b6000808335601e198436030181126155d757600080fd5b8301803591506001600160401b038211156155f157600080fd5b602001915036819003821315614d2457600080fd5b81835281816020850137506000828201602090810191909152601f909101601f19169091010190565b88815287602082015286604082015260e06060820152600061565560e083018789615606565b6001600160a01b0395861660808401529390941660a082015260c001529695505050505050565b60208082526031908201527f4552433732313a207472616e736665722063616c6c6572206973206e6f74206f6040820152701ddb995c881b9bdc88185c1c1c9bdd9959607a1b606082015260800190565b6000808335601e198436030181126156e457600080fd5b83016020810192503590506001600160401b0381111561570357600080fd5b803603821315614d2457600080fd5b80358252600061572560208301836156cd565b60e0602086015261573a60e086018284615606565b91505061574960408401614adb565b6001600160a01b03818116604087015261576660608601866156cd565b9250868403606088015261577b848483615606565b9350508061578b60808701614adb565b16608087015250506157a060a08401846156cd565b85830360a08701526157b3838284615606565b925050506157c360c08401615031565b151560c08501528091505092915050565b60c0815260006157e760c0830188615712565b602083810197909752604083019590955250606081019290925281830360808301526000835260a09091015201919050565b60006020828403121561582b57600080fd5b5051919050565b60c08152600061584560c0830189615712565b87602084015286604084015285606084015282810360808401526158698186614a83565b9150508260a0830152979650505050505050565b83815260406020820152600061377a604083018486615606565b60008083546158a581615560565b600182811680156158bd57600181146158d257615901565b60ff1984168752821515830287019450615901565b8760005260208060002060005b858110156158f85781548a8201529084019082016158df565b50505082870194505b50929695505050505050565b601f821115610d3557600081815260208120601f850160051c810160208610156159345750805b601f850160051c820191505b81811015611d0657828155600101615940565b6001600160401b0383111561596a5761596a615146565b61597e836159788354615560565b8361590d565b6000601f8411600181146159b2576000851561599a5750838201355b600019600387901b1c1916600186901b178355610ddf565b600083815260209020601f19861690835b828110156159e357868501358255602094850194600190920191016159c3565b5086821015615a005760001960f88860031b161c19848701351681555b505060018560011b0183555050505050565b602081526000610ee3602083018486615606565b634e487b7160e01b600052603260045260246000fd5b86815260a060208201526000615a5660a083018789615606565b6040830195909552506001600160a01b039290921660608301526080909101529392505050565b858152846020820152608060408201526000615a9d608083018587615606565b90508260608301529695505050505050565b8183823760009101908152919050565b858152608060208201526000615ad9608083018688615606565b604083019490945250606001529392505050565b878152866020820152600060018060a01b03808816604084015260c06060840152615b1c60c084018789615606565b941660808301525060a0015295945050505050565b634e487b7160e01b600052601160045260246000fd5b600060018201615b5957615b59615b31565b5060010190565b60006101008b83528a6020840152896040840152886060840152806080840152615b8d818401888a615606565b6001600160a01b0396871660a08501529490951660c08301525060e00152979650505050505050565b600060a08236031215615bc857600080fd5b615bd061515c565b615bd983614adb565b815260208301356001600160401b0380821115615bf557600080fd5b615c01368387016151db565b60208401526040850135915080821115615c1a57600080fd5b615c26368387016151db565b6040840152615c3760608601614adb565b60608401526080850135915080821115615c5057600080fd5b50615c5d368286016151db565b60808301525092915050565b86815285602082015260018060a01b038516604082015260a060608201526000615c9760a083018587615606565b9050826080830152979650505050505050565b8183526000602080850194508260005b85811015614e31576001600160a01b03615cd383614adb565b1687529582019590820190600101615cba565b87815286602082015260a060408201526000615d0660a083018789615caa565b8281036060840152615d19818688615caa565b91505082608083015298975050505050505050565b600060208284031215615d4057600080fd5b81516001600160401b03811115615d5657600080fd5b8201601f81018413615d6757600080fd5b8051615d756151fa826151b4565b818152856020838501011115615d8a57600080fd5b61377a826020830160208601614a5f565b8581526001600160a01b0385166020820152608060408201819052600090615a9d9083018587615606565b81810381811115610b0057610b00615b31565b80820180821115610b0057610b00615b31565b600060208284031215615dfe57600080fd5b813560ff81168114610ee657600080fd5b60208082526032908201527f4552433732313a207472616e7366657220746f206e6f6e20455243373231526560408201527131b2b4bb32b91034b6b83632b6b2b73a32b960711b606082015260800190565b6001600160a01b03898116825261010060208301819052600091615e878483018c614a83565b91508382036040850152615e9b828b614a83565b908916606085015283810360808501529050615eb78188614a83565b60a0840196909652505060c081019290925260e09091015295945050505050565b606081526000615eec606083018789615606565b8281036020840152615eff818688615606565b9150508260408301529695505050505050565b60008251615f24818460208701614a5f565b9190910192915050565b6001600160a01b03858116825284166020820152604081018390526080606082018190526000906142a190830184614a83565b600060208284031215615f7357600080fd5b8151610ee681614a2c565b634e487b7160e01b600052603160045260246000fdfe416464726573733a206c6f772d6c6576656c2064656c65676174652063616c6c206661696c6564a2646970667358221220cb941abbfece4ee9a963b3069e9ff1aaa36425eed7b40124af765b8b032657fc64736f6c63430008120033",
  "linkReferences": {
    "contracts/libraries/CharacterLogic.sol": {
      "CharacterLogic": [
        {
          "length": 20,
          "start": 7390
        },
        {
          "length": 20,
          "start": 8366
        },
        {
          "length": 20,
          "start": 12834
        },
        {
          "length": 20,
          "start": 15547
        }
      ]
    },
    "contracts/libraries/LinkLogic.sol": {
      "LinkLogic": [
        {
          "length": 20,
          "start": 3482
        },
        {
          "length": 20,
          "start": 3629
        },
        {
          "length": 20,
          "start": 4793
        },
        {
          "length": 20,
          "start": 5002
        },
        {
          "length": 20,
          "start": 5718
        },
        {
          "length": 20,
          "start": 5790
        },
        {
          "length": 20,
          "start": 6670
        },
        {
          "length": 20,
          "start": 7117
        },
        {
          "length": 20,
          "start": 7502
        },
        {
          "length": 20,
          "start": 9001
        },
        {
          "length": 20,
          "start": 9289
        },
        {
          "length": 20,
          "start": 9680
        },
        {
          "length": 20,
          "start": 11613
        },
        {
          "length": 20,
          "start": 12387
        }
      ]
    },
    "contracts/libraries/OperatorLogic.sol": {
      "OperatorLogic": [
        {
          "length": 20,
          "start": 10895
        },
        {
          "length": 20,
          "start": 13409
        }
      ]
    },
    "contracts/libraries/PostLogic.sol": {
      "PostLogic": [
        {
          "length": 20,
          "start": 3896
        },
        {
          "length": 20,
          "start": 4348
        },
        {
          "length": 20,
          "start": 5270
        },
        {
          "length": 20,
          "start": 5934
        },
        {
          "length": 20,
          "start": 7061
        },
        {
          "length": 20,
          "start": 7739
        },
        {
          "length": 20,
          "start": 8488
        },
        {
          "length": 20,
          "start": 9874
        },
        {
          "length": 20,
          "start": 10812
        },
        {
          "length": 20,
          "start": 11983
        }
      ]
    }
  },
  "deployedLinkReferences": {
    "contracts/libraries/CharacterLogic.sol": {
      "CharacterLogic": [
        {
          "length": 20,
          "start": 7357
        },
        {
          "length": 20,
          "start": 8333
        },
        {
          "length": 20,
          "start": 12801
        },
        {
          "length": 20,
          "start": 15514
        }
      ]
    },
    "contracts/libraries/LinkLogic.sol": {
      "LinkLogic": [
        {
          "length": 20,
          "start": 3449
        },
        {
          "length": 20,
          "start": 3596
        },
        {
          "length": 20,
          "start": 4760
        },
        {
          "length": 20,
          "start": 4969
        },
        {
          "length": 20,
          "start": 5685
        },
        {
          "length": 20,
          "start": 5757
        },
        {
          "length": 20,
          "start": 6637
        },
        {
          "length": 20,
          "start": 7084
        },
        {
          "length": 20,
          "start": 7469
        },
        {
          "length": 20,
          "start": 8968
        },
        {
          "length": 20,
          "start": 9256
        },
        {
          "length": 20,
          "start": 9647
        },
        {
          "length": 20,
          "start": 11580
        },
        {
          "length": 20,
          "start": 12354
        }
      ]
    },
    "contracts/libraries/OperatorLogic.sol": {
      "OperatorLogic": [
        {
          "length": 20,
          "start": 10862
        },
        {
          "length": 20,
          "start": 13376
        }
      ]
    },
    "contracts/libraries/PostLogic.sol": {
      "PostLogic": [
        {
          "length": 20,
          "start": 3863
        },
        {
          "length": 20,
          "start": 4315
        },
        {
          "length": 20,
          "start": 5237
        },
        {
          "length": 20,
          "start": 5901
        },
        {
          "length": 20,
          "start": 7028
        },
        {
          "length": 20,
          "start": 7706
        },
        {
          "length": 20,
          "start": 8455
        },
        {
          "length": 20,
          "start": 9841
        },
        {
          "length": 20,
          "start": 10779
        },
        {
          "length": 20,
          "start": 11950
        }
      ]
    }
  }
}