{
    "_format": "hh-sol-artifact-1",
    "contractName": "Web3Entry",
    "sourceName": "contracts/Web3Entry.sol",
    "abi": [
        {
            "anonymous": false,
            "inputs": [
                {
                    "indexed": true,
                    "internalType": "address",
                    "name": "owner",
                    "type": "address"
                },
                {
                    "indexed": true,
                    "internalType": "address",
                    "name": "approved",
                    "type": "address"
                },
                {
                    "indexed": true,
                    "internalType": "uint256",
                    "name": "tokenId",
                    "type": "uint256"
                }
            ],
            "name": "Approval",
            "type": "event"
        },
        {
            "anonymous": false,
            "inputs": [
                {
                    "indexed": true,
                    "internalType": "address",
                    "name": "owner",
                    "type": "address"
                },
                {
                    "indexed": true,
                    "internalType": "address",
                    "name": "operator",
                    "type": "address"
                },
                {
                    "indexed": false,
                    "internalType": "bool",
                    "name": "approved",
                    "type": "bool"
                }
            ],
            "name": "ApprovalForAll",
            "type": "event"
        },
        {
            "anonymous": false,
            "inputs": [
                {
                    "indexed": true,
                    "internalType": "address",
                    "name": "from",
                    "type": "address"
                },
                {
                    "indexed": true,
                    "internalType": "address",
                    "name": "to",
                    "type": "address"
                },
                {
                    "indexed": true,
                    "internalType": "uint256",
                    "name": "tokenId",
                    "type": "uint256"
                }
            ],
            "name": "Transfer",
            "type": "event"
        },
        {
            "inputs": [
                {
                    "internalType": "address",
                    "name": "to",
                    "type": "address"
                },
                {
                    "internalType": "uint256",
                    "name": "tokenId",
                    "type": "uint256"
                }
            ],
            "name": "approve",
            "outputs": [],
            "stateMutability": "nonpayable",
            "type": "function"
        },
        {
            "inputs": [
                {
                    "internalType": "uint256",
                    "name": "linklistId",
                    "type": "uint256"
                },
                {
                    "internalType": "uint256",
                    "name": "profileId",
                    "type": "uint256"
                }
            ],
            "name": "attachLinklist",
            "outputs": [],
            "stateMutability": "nonpayable",
            "type": "function"
        },
        {
            "inputs": [
                {
                    "internalType": "address",
                    "name": "owner",
                    "type": "address"
                }
            ],
            "name": "balanceOf",
            "outputs": [
                {
                    "internalType": "uint256",
                    "name": "",
                    "type": "uint256"
                }
            ],
            "stateMutability": "view",
            "type": "function"
        },
        {
            "inputs": [
                {
                    "components": [
                        {
                            "internalType": "address",
                            "name": "to",
                            "type": "address"
                        },
                        {
                            "internalType": "string",
                            "name": "handle",
                            "type": "string"
                        },
                        {
                            "internalType": "string",
                            "name": "uri",
                            "type": "string"
                        },
                        {
                            "internalType": "address",
                            "name": "linkModule",
                            "type": "address"
                        },
                        {
                            "internalType": "bytes",
                            "name": "linkModuleInitData",
                            "type": "bytes"
                        }
                    ],
                    "internalType": "struct DataTypes.CreateProfileData",
                    "name": "vars",
                    "type": "tuple"
                }
            ],
            "name": "createProfile",
            "outputs": [],
            "stateMutability": "nonpayable",
            "type": "function"
        },
        {
            "inputs": [
                {
                    "internalType": "uint256",
                    "name": "fromProfileId",
                    "type": "uint256"
                },
                {
                    "internalType": "address",
                    "name": "to",
                    "type": "address"
                },
                {
                    "internalType": "bytes32",
                    "name": "linkType",
                    "type": "bytes32"
                }
            ],
            "name": "createThenLinkProfile",
            "outputs": [],
            "stateMutability": "nonpayable",
            "type": "function"
        },
        {
            "inputs": [
                {
                    "internalType": "uint256",
                    "name": "linklistId",
                    "type": "uint256"
                },
                {
                    "internalType": "uint256",
                    "name": "profileId",
                    "type": "uint256"
                }
            ],
            "name": "detachLinklist",
            "outputs": [],
            "stateMutability": "nonpayable",
            "type": "function"
        },
        {
            "inputs": [
                {
                    "internalType": "uint256",
                    "name": "tokenId",
                    "type": "uint256"
                }
            ],
            "name": "getApproved",
            "outputs": [
                {
                    "internalType": "address",
                    "name": "",
                    "type": "address"
                }
            ],
            "stateMutability": "view",
            "type": "function"
        },
        {
            "inputs": [
                {
                    "internalType": "uint256",
                    "name": "profileId",
                    "type": "uint256"
                }
            ],
            "name": "getHandle",
            "outputs": [
                {
                    "internalType": "string",
                    "name": "",
                    "type": "string"
                }
            ],
            "stateMutability": "view",
            "type": "function"
        },
        {
            "inputs": [
                {
                    "internalType": "address",
                    "name": "account",
                    "type": "address"
                }
            ],
            "name": "getLinkModule4Address",
            "outputs": [
                {
                    "internalType": "address",
                    "name": "",
                    "type": "address"
                }
            ],
            "stateMutability": "view",
            "type": "function"
        },
        {
            "inputs": [
                {
                    "internalType": "address",
                    "name": "tokenAddress",
                    "type": "address"
                },
                {
                    "internalType": "uint256",
                    "name": "tokenId",
                    "type": "uint256"
                }
            ],
            "name": "getLinkModule4ERC721",
            "outputs": [
                {
                    "internalType": "address",
                    "name": "",
                    "type": "address"
                }
            ],
            "stateMutability": "view",
            "type": "function"
        },
        {
            "inputs": [
                {
                    "internalType": "uint256",
                    "name": "tokenId",
                    "type": "uint256"
                }
            ],
            "name": "getLinkModule4Linklist",
            "outputs": [
                {
                    "internalType": "address",
                    "name": "",
                    "type": "address"
                }
            ],
            "stateMutability": "view",
            "type": "function"
        },
        {
            "inputs": [
                {
                    "internalType": "uint256",
                    "name": "fromProfileId",
                    "type": "uint256"
                },
                {
                    "internalType": "bytes32",
                    "name": "linkType",
                    "type": "bytes32"
                }
            ],
            "name": "getLinkingProfileIds",
            "outputs": [
                {
                    "internalType": "uint256[]",
                    "name": "",
                    "type": "uint256[]"
                }
            ],
            "stateMutability": "view",
            "type": "function"
        },
        {
            "inputs": [],
            "name": "getLinklistContract",
            "outputs": [
                {
                    "internalType": "address",
                    "name": "",
                    "type": "address"
                }
            ],
            "stateMutability": "view",
            "type": "function"
        },
        {
            "inputs": [
                {
                    "internalType": "uint256",
                    "name": "profileId",
                    "type": "uint256"
                },
                {
                    "internalType": "bytes32",
                    "name": "linkType",
                    "type": "bytes32"
                }
            ],
            "name": "getLinklistUri",
            "outputs": [
                {
                    "internalType": "string",
                    "name": "",
                    "type": "string"
                }
            ],
            "stateMutability": "view",
            "type": "function"
        },
        {
            "inputs": [
                {
                    "internalType": "uint256",
                    "name": "profileId",
                    "type": "uint256"
                },
                {
                    "internalType": "uint256",
                    "name": "noteId",
                    "type": "uint256"
                }
            ],
            "name": "getNote",
            "outputs": [
                {
                    "components": [
                        {
                            "internalType": "bytes32",
                            "name": "linkItemType",
                            "type": "bytes32"
                        },
                        {
                            "internalType": "uint256",
                            "name": "linklistId",
                            "type": "uint256"
                        },
                        {
                            "internalType": "bytes32",
                            "name": "linkKey",
                            "type": "bytes32"
                        },
                        {
                            "internalType": "string",
                            "name": "contentUri",
                            "type": "string"
                        },
                        {
                            "internalType": "address",
                            "name": "linkModule",
                            "type": "address"
                        },
                        {
                            "internalType": "address",
                            "name": "mintModule",
                            "type": "address"
                        },
                        {
                            "internalType": "address",
                            "name": "mintNFT",
                            "type": "address"
                        }
                    ],
                    "internalType": "struct DataTypes.Note",
                    "name": "",
                    "type": "tuple"
                }
            ],
            "stateMutability": "view",
            "type": "function"
        },
        {
            "inputs": [
                {
                    "internalType": "address",
                    "name": "account",
                    "type": "address"
                }
            ],
            "name": "getPrimaryProfileId",
            "outputs": [
                {
                    "internalType": "uint256",
                    "name": "",
                    "type": "uint256"
                }
            ],
            "stateMutability": "view",
            "type": "function"
        },
        {
            "inputs": [
                {
                    "internalType": "uint256",
                    "name": "profileId",
                    "type": "uint256"
                }
            ],
            "name": "getProfile",
            "outputs": [
                {
                    "components": [
                        {
                            "internalType": "uint256",
                            "name": "profileId",
                            "type": "uint256"
                        },
                        {
                            "internalType": "string",
                            "name": "handle",
                            "type": "string"
                        },
                        {
                            "internalType": "string",
                            "name": "uri",
                            "type": "string"
                        },
                        {
                            "internalType": "uint256",
                            "name": "noteCount",
                            "type": "uint256"
                        },
                        {
                            "internalType": "address",
                            "name": "socialToken",
                            "type": "address"
                        },
                        {
                            "internalType": "address",
                            "name": "linkModule",
                            "type": "address"
                        }
                    ],
                    "internalType": "struct DataTypes.Profile",
                    "name": "",
                    "type": "tuple"
                }
            ],
            "stateMutability": "view",
            "type": "function"
        },
        {
            "inputs": [
                {
                    "internalType": "string",
                    "name": "handle",
                    "type": "string"
                }
            ],
            "name": "getProfileByHandle",
            "outputs": [
                {
                    "components": [
                        {
                            "internalType": "uint256",
                            "name": "profileId",
                            "type": "uint256"
                        },
                        {
                            "internalType": "string",
                            "name": "handle",
                            "type": "string"
                        },
                        {
                            "internalType": "string",
                            "name": "uri",
                            "type": "string"
                        },
                        {
                            "internalType": "uint256",
                            "name": "noteCount",
                            "type": "uint256"
                        },
                        {
                            "internalType": "address",
                            "name": "socialToken",
                            "type": "address"
                        },
                        {
                            "internalType": "address",
                            "name": "linkModule",
                            "type": "address"
                        }
                    ],
                    "internalType": "struct DataTypes.Profile",
                    "name": "",
                    "type": "tuple"
                }
            ],
            "stateMutability": "view",
            "type": "function"
        },
        {
            "inputs": [
                {
                    "internalType": "uint256",
                    "name": "profileId",
                    "type": "uint256"
                }
            ],
            "name": "getProfileUri",
            "outputs": [
                {
                    "internalType": "string",
                    "name": "",
                    "type": "string"
                }
            ],
            "stateMutability": "view",
            "type": "function"
        },
        {
            "inputs": [],
            "name": "getRevision",
            "outputs": [
                {
                    "internalType": "uint256",
                    "name": "",
                    "type": "uint256"
                }
            ],
            "stateMutability": "pure",
            "type": "function"
        },
        {
            "inputs": [
                {
                    "internalType": "string",
                    "name": "_name",
                    "type": "string"
                },
                {
                    "internalType": "string",
                    "name": "_symbol",
                    "type": "string"
                },
                {
                    "internalType": "address",
                    "name": "_linklistContract",
                    "type": "address"
                },
                {
                    "internalType": "address",
                    "name": "_mintNFTImpl",
                    "type": "address"
                }
            ],
            "name": "initialize",
            "outputs": [],
            "stateMutability": "nonpayable",
            "type": "function"
        },
        {
            "inputs": [
                {
                    "internalType": "address",
                    "name": "owner",
                    "type": "address"
                },
                {
                    "internalType": "address",
                    "name": "operator",
                    "type": "address"
                }
            ],
            "name": "isApprovedForAll",
            "outputs": [
                {
                    "internalType": "bool",
                    "name": "",
                    "type": "bool"
                }
            ],
            "stateMutability": "view",
            "type": "function"
        },
        {
            "inputs": [
                {
                    "internalType": "uint256",
                    "name": "profileId",
                    "type": "uint256"
                }
            ],
            "name": "isPrimaryProfile",
            "outputs": [
                {
                    "internalType": "bool",
                    "name": "",
                    "type": "bool"
                }
            ],
            "stateMutability": "view",
            "type": "function"
        },
        {
            "inputs": [
                {
                    "internalType": "uint256",
                    "name": "fromProfileId",
                    "type": "uint256"
                },
                {
                    "internalType": "address",
                    "name": "ethAddress",
                    "type": "address"
                },
                {
                    "internalType": "bytes32",
                    "name": "linkType",
                    "type": "bytes32"
                }
            ],
            "name": "linkAddress",
            "outputs": [],
            "stateMutability": "nonpayable",
            "type": "function"
        },
        {
            "inputs": [
                {
                    "internalType": "uint256",
                    "name": "fromProfileId",
                    "type": "uint256"
                },
                {
                    "internalType": "string",
                    "name": "toUri",
                    "type": "string"
                },
                {
                    "internalType": "bytes32",
                    "name": "linkType",
                    "type": "bytes32"
                }
            ],
            "name": "linkAny",
            "outputs": [],
            "stateMutability": "nonpayable",
            "type": "function"
        },
        {
            "inputs": [
                {
                    "internalType": "uint256",
                    "name": "fromProfileId",
                    "type": "uint256"
                },
                {
                    "internalType": "address",
                    "name": "tokenAddress",
                    "type": "address"
                },
                {
                    "internalType": "uint256",
                    "name": "tokenId",
                    "type": "uint256"
                },
                {
                    "internalType": "bytes32",
                    "name": "linkType",
                    "type": "bytes32"
                }
            ],
            "name": "linkERC721",
            "outputs": [],
            "stateMutability": "nonpayable",
            "type": "function"
        },
        {
            "inputs": [
                {
                    "internalType": "uint256",
                    "name": "fromProfileId",
                    "type": "uint256"
                },
                {
                    "internalType": "uint256",
                    "name": "toLinkListId",
                    "type": "uint256"
                },
                {
                    "internalType": "bytes32",
                    "name": "linkType",
                    "type": "bytes32"
                }
            ],
            "name": "linkLinklist",
            "outputs": [],
            "stateMutability": "nonpayable",
            "type": "function"
        },
        {
            "inputs": [
                {
                    "internalType": "uint256",
                    "name": "fromProfileId",
                    "type": "uint256"
                },
                {
                    "internalType": "uint256",
                    "name": "toProfileId",
                    "type": "uint256"
                },
                {
                    "internalType": "uint256",
                    "name": "toNoteId",
                    "type": "uint256"
                },
                {
                    "internalType": "bytes32",
                    "name": "linkType",
                    "type": "bytes32"
                }
            ],
            "name": "linkNote",
            "outputs": [],
            "stateMutability": "nonpayable",
            "type": "function"
        },
        {
            "inputs": [
                {
                    "internalType": "uint256",
                    "name": "fromProfileId",
                    "type": "uint256"
                },
                {
                    "internalType": "uint256",
                    "name": "toProfileId",
                    "type": "uint256"
                },
                {
                    "internalType": "bytes32",
                    "name": "linkType",
                    "type": "bytes32"
                }
            ],
            "name": "linkProfile",
            "outputs": [],
            "stateMutability": "nonpayable",
            "type": "function"
        },
        {
            "inputs": [
                {
                    "internalType": "uint256",
                    "name": "fromProfileId",
                    "type": "uint256"
                },
                {
                    "components": [
                        {
                            "internalType": "uint256",
                            "name": "fromProfileId",
                            "type": "uint256"
                        },
                        {
                            "internalType": "uint256",
                            "name": "toProfileId",
                            "type": "uint256"
                        },
                        {
                            "internalType": "bytes32",
                            "name": "linkType",
                            "type": "bytes32"
                        }
                    ],
                    "internalType": "struct DataTypes.ProfileLinkStruct",
                    "name": "linkData",
                    "type": "tuple"
                },
                {
                    "internalType": "bytes32",
                    "name": "linkType",
                    "type": "bytes32"
                }
            ],
            "name": "linkProfileLink",
            "outputs": [],
            "stateMutability": "nonpayable",
            "type": "function"
        },
        {
            "inputs": [
                {
                    "internalType": "uint256",
                    "name": "profileId",
                    "type": "uint256"
                },
                {
                    "internalType": "uint256",
                    "name": "noteId",
                    "type": "uint256"
                },
                {
                    "internalType": "address",
                    "name": "to",
                    "type": "address"
                },
                {
                    "internalType": "bytes",
                    "name": "mintModuleData",
                    "type": "bytes"
                }
            ],
            "name": "mintNote",
            "outputs": [
                {
                    "internalType": "uint256",
                    "name": "",
                    "type": "uint256"
                }
            ],
            "stateMutability": "nonpayable",
            "type": "function"
        },
        {
            "inputs": [],
            "name": "name",
            "outputs": [
                {
                    "internalType": "string",
                    "name": "",
                    "type": "string"
                }
            ],
            "stateMutability": "view",
            "type": "function"
        },
        {
            "inputs": [
                {
                    "internalType": "uint256",
                    "name": "tokenId",
                    "type": "uint256"
                }
            ],
            "name": "ownerOf",
            "outputs": [
                {
                    "internalType": "address",
                    "name": "",
                    "type": "address"
                }
            ],
            "stateMutability": "view",
            "type": "function"
        },
        {
            "inputs": [
                {
                    "components": [
                        {
                            "internalType": "uint256",
                            "name": "profileId",
                            "type": "uint256"
                        },
                        {
                            "internalType": "string",
                            "name": "contentUri",
                            "type": "string"
                        },
                        {
                            "internalType": "address",
                            "name": "linkModule",
                            "type": "address"
                        },
                        {
                            "internalType": "bytes",
                            "name": "linkModuleInitData",
                            "type": "bytes"
                        },
                        {
                            "internalType": "address",
                            "name": "mintModule",
                            "type": "address"
                        },
                        {
                            "internalType": "bytes",
                            "name": "mintModuleInitData",
                            "type": "bytes"
                        }
                    ],
                    "internalType": "struct DataTypes.PostNoteData",
                    "name": "vars",
                    "type": "tuple"
                }
            ],
            "name": "postNote",
            "outputs": [
                {
                    "internalType": "uint256",
                    "name": "",
                    "type": "uint256"
                }
            ],
            "stateMutability": "nonpayable",
            "type": "function"
        },
        {
            "inputs": [
                {
                    "components": [
                        {
                            "internalType": "uint256",
                            "name": "profileId",
                            "type": "uint256"
                        },
                        {
                            "internalType": "string",
                            "name": "contentUri",
                            "type": "string"
                        },
                        {
                            "internalType": "address",
                            "name": "linkModule",
                            "type": "address"
                        },
                        {
                            "internalType": "bytes",
                            "name": "linkModuleInitData",
                            "type": "bytes"
                        },
                        {
                            "internalType": "address",
                            "name": "mintModule",
                            "type": "address"
                        },
                        {
                            "internalType": "bytes",
                            "name": "mintModuleInitData",
                            "type": "bytes"
                        }
                    ],
                    "internalType": "struct DataTypes.PostNoteData",
                    "name": "noteData",
                    "type": "tuple"
                },
                {
                    "internalType": "uint256",
                    "name": "fromProfileId",
                    "type": "uint256"
                },
                {
                    "internalType": "address",
                    "name": "ethAddress",
                    "type": "address"
                },
                {
                    "internalType": "bytes32",
                    "name": "linkType",
                    "type": "bytes32"
                }
            ],
            "name": "postNote4AddressLink",
            "outputs": [
                {
                    "internalType": "uint256",
                    "name": "",
                    "type": "uint256"
                }
            ],
            "stateMutability": "nonpayable",
            "type": "function"
        },
        {
            "inputs": [
                {
                    "components": [
                        {
                            "internalType": "uint256",
                            "name": "profileId",
                            "type": "uint256"
                        },
                        {
                            "internalType": "string",
                            "name": "contentUri",
                            "type": "string"
                        },
                        {
                            "internalType": "address",
                            "name": "linkModule",
                            "type": "address"
                        },
                        {
                            "internalType": "bytes",
                            "name": "linkModuleInitData",
                            "type": "bytes"
                        },
                        {
                            "internalType": "address",
                            "name": "mintModule",
                            "type": "address"
                        },
                        {
                            "internalType": "bytes",
                            "name": "mintModuleInitData",
                            "type": "bytes"
                        }
                    ],
                    "internalType": "struct DataTypes.PostNoteData",
                    "name": "noteData",
                    "type": "tuple"
                },
                {
                    "internalType": "uint256",
                    "name": "fromProfileId",
                    "type": "uint256"
                },
                {
                    "internalType": "string",
                    "name": "toUri",
                    "type": "string"
                },
                {
                    "internalType": "bytes32",
                    "name": "linkType",
                    "type": "bytes32"
                }
            ],
            "name": "postNote4AnyLink",
            "outputs": [
                {
                    "internalType": "uint256",
                    "name": "",
                    "type": "uint256"
                }
            ],
            "stateMutability": "nonpayable",
            "type": "function"
        },
        {
            "inputs": [
                {
                    "components": [
                        {
                            "internalType": "uint256",
                            "name": "profileId",
                            "type": "uint256"
                        },
                        {
                            "internalType": "string",
                            "name": "contentUri",
                            "type": "string"
                        },
                        {
                            "internalType": "address",
                            "name": "linkModule",
                            "type": "address"
                        },
                        {
                            "internalType": "bytes",
                            "name": "linkModuleInitData",
                            "type": "bytes"
                        },
                        {
                            "internalType": "address",
                            "name": "mintModule",
                            "type": "address"
                        },
                        {
                            "internalType": "bytes",
                            "name": "mintModuleInitData",
                            "type": "bytes"
                        }
                    ],
                    "internalType": "struct DataTypes.PostNoteData",
                    "name": "noteData",
                    "type": "tuple"
                },
                {
                    "internalType": "uint256",
                    "name": "fromProfileId",
                    "type": "uint256"
                },
                {
                    "internalType": "address",
                    "name": "tokenAddress",
                    "type": "address"
                },
                {
                    "internalType": "uint256",
                    "name": "tokenId",
                    "type": "uint256"
                },
                {
                    "internalType": "bytes32",
                    "name": "linkType",
                    "type": "bytes32"
                }
            ],
            "name": "postNote4ERC721Link",
            "outputs": [
                {
                    "internalType": "uint256",
                    "name": "",
                    "type": "uint256"
                }
            ],
            "stateMutability": "nonpayable",
            "type": "function"
        },
        {
            "inputs": [
                {
                    "components": [
                        {
                            "internalType": "uint256",
                            "name": "profileId",
                            "type": "uint256"
                        },
                        {
                            "internalType": "string",
                            "name": "contentUri",
                            "type": "string"
                        },
                        {
                            "internalType": "address",
                            "name": "linkModule",
                            "type": "address"
                        },
                        {
                            "internalType": "bytes",
                            "name": "linkModuleInitData",
                            "type": "bytes"
                        },
                        {
                            "internalType": "address",
                            "name": "mintModule",
                            "type": "address"
                        },
                        {
                            "internalType": "bytes",
                            "name": "mintModuleInitData",
                            "type": "bytes"
                        }
                    ],
                    "internalType": "struct DataTypes.PostNoteData",
                    "name": "noteData",
                    "type": "tuple"
                },
                {
                    "internalType": "uint256",
                    "name": "fromProfileId",
                    "type": "uint256"
                },
                {
                    "internalType": "uint256",
                    "name": "toLinkListId",
                    "type": "uint256"
                },
                {
                    "internalType": "bytes32",
                    "name": "linkType",
                    "type": "bytes32"
                }
            ],
            "name": "postNote4LinklistLink",
            "outputs": [
                {
                    "internalType": "uint256",
                    "name": "",
                    "type": "uint256"
                }
            ],
            "stateMutability": "nonpayable",
            "type": "function"
        },
        {
            "inputs": [
                {
                    "components": [
                        {
                            "internalType": "uint256",
                            "name": "profileId",
                            "type": "uint256"
                        },
                        {
                            "internalType": "string",
                            "name": "contentUri",
                            "type": "string"
                        },
                        {
                            "internalType": "address",
                            "name": "linkModule",
                            "type": "address"
                        },
                        {
                            "internalType": "bytes",
                            "name": "linkModuleInitData",
                            "type": "bytes"
                        },
                        {
                            "internalType": "address",
                            "name": "mintModule",
                            "type": "address"
                        },
                        {
                            "internalType": "bytes",
                            "name": "mintModuleInitData",
                            "type": "bytes"
                        }
                    ],
                    "internalType": "struct DataTypes.PostNoteData",
                    "name": "noteData",
                    "type": "tuple"
                },
                {
                    "internalType": "uint256",
                    "name": "fromProfileId",
                    "type": "uint256"
                },
                {
                    "internalType": "uint256",
                    "name": "toProfileId",
                    "type": "uint256"
                },
                {
                    "internalType": "uint256",
                    "name": "toNoteId",
                    "type": "uint256"
                },
                {
                    "internalType": "bytes32",
                    "name": "linkType",
                    "type": "bytes32"
                }
            ],
            "name": "postNote4NoteLink",
            "outputs": [
                {
                    "internalType": "uint256",
                    "name": "",
                    "type": "uint256"
                }
            ],
            "stateMutability": "nonpayable",
            "type": "function"
        },
        {
            "inputs": [
                {
                    "components": [
                        {
                            "internalType": "uint256",
                            "name": "profileId",
                            "type": "uint256"
                        },
                        {
                            "internalType": "string",
                            "name": "contentUri",
                            "type": "string"
                        },
                        {
                            "internalType": "address",
                            "name": "linkModule",
                            "type": "address"
                        },
                        {
                            "internalType": "bytes",
                            "name": "linkModuleInitData",
                            "type": "bytes"
                        },
                        {
                            "internalType": "address",
                            "name": "mintModule",
                            "type": "address"
                        },
                        {
                            "internalType": "bytes",
                            "name": "mintModuleInitData",
                            "type": "bytes"
                        }
                    ],
                    "internalType": "struct DataTypes.PostNoteData",
                    "name": "noteData",
                    "type": "tuple"
                },
                {
                    "internalType": "uint256",
                    "name": "fromProfileId",
                    "type": "uint256"
                },
                {
                    "internalType": "uint256",
                    "name": "toProfileId",
                    "type": "uint256"
                },
                {
                    "internalType": "bytes32",
                    "name": "linkType",
                    "type": "bytes32"
                }
            ],
            "name": "postNote4ProfileLink",
            "outputs": [
                {
                    "internalType": "uint256",
                    "name": "",
                    "type": "uint256"
                }
            ],
            "stateMutability": "nonpayable",
            "type": "function"
        },
        {
            "inputs": [
                {
                    "internalType": "address",
                    "name": "from",
                    "type": "address"
                },
                {
                    "internalType": "address",
                    "name": "to",
                    "type": "address"
                },
                {
                    "internalType": "uint256",
                    "name": "tokenId",
                    "type": "uint256"
                }
            ],
            "name": "safeTransferFrom",
            "outputs": [],
            "stateMutability": "nonpayable",
            "type": "function"
        },
        {
            "inputs": [
                {
                    "internalType": "address",
                    "name": "from",
                    "type": "address"
                },
                {
                    "internalType": "address",
                    "name": "to",
                    "type": "address"
                },
                {
                    "internalType": "uint256",
                    "name": "tokenId",
                    "type": "uint256"
                },
                {
                    "internalType": "bytes",
                    "name": "_data",
                    "type": "bytes"
                }
            ],
            "name": "safeTransferFrom",
            "outputs": [],
            "stateMutability": "nonpayable",
            "type": "function"
        },
        {
            "inputs": [
                {
                    "internalType": "address",
                    "name": "operator",
                    "type": "address"
                },
                {
                    "internalType": "bool",
                    "name": "approved",
                    "type": "bool"
                }
            ],
            "name": "setApprovalForAll",
            "outputs": [],
            "stateMutability": "nonpayable",
            "type": "function"
        },
        {
            "inputs": [
                {
                    "internalType": "uint256",
                    "name": "profileId",
                    "type": "uint256"
                },
                {
                    "internalType": "string",
                    "name": "newHandle",
                    "type": "string"
                }
            ],
            "name": "setHandle",
            "outputs": [],
            "stateMutability": "nonpayable",
            "type": "function"
        },
        {
            "inputs": [
                {
                    "internalType": "address",
                    "name": "account",
                    "type": "address"
                },
                {
                    "internalType": "address",
                    "name": "linkModule",
                    "type": "address"
                },
                {
                    "internalType": "bytes",
                    "name": "linkModuleInitData",
                    "type": "bytes"
                }
            ],
            "name": "setLinkModule4Address",
            "outputs": [],
            "stateMutability": "nonpayable",
            "type": "function"
        },
        {
            "inputs": [
                {
                    "internalType": "address",
                    "name": "tokenAddress",
                    "type": "address"
                },
                {
                    "internalType": "uint256",
                    "name": "tokenId",
                    "type": "uint256"
                },
                {
                    "internalType": "address",
                    "name": "linkModule",
                    "type": "address"
                },
                {
                    "internalType": "bytes",
                    "name": "linkModuleInitData",
                    "type": "bytes"
                }
            ],
            "name": "setLinkModule4ERC721",
            "outputs": [],
            "stateMutability": "nonpayable",
            "type": "function"
        },
        {
            "inputs": [
                {
                    "internalType": "uint256",
                    "name": "linklistId",
                    "type": "uint256"
                },
                {
                    "internalType": "address",
                    "name": "linkModule",
                    "type": "address"
                },
                {
                    "internalType": "bytes",
                    "name": "linkModuleInitData",
                    "type": "bytes"
                }
            ],
            "name": "setLinkModule4Linklist",
            "outputs": [],
            "stateMutability": "nonpayable",
            "type": "function"
        },
        {
            "inputs": [
                {
                    "internalType": "uint256",
                    "name": "profileId",
                    "type": "uint256"
                },
                {
                    "internalType": "uint256",
                    "name": "noteId",
                    "type": "uint256"
                },
                {
                    "internalType": "address",
                    "name": "linkModule",
                    "type": "address"
                },
                {
                    "internalType": "bytes",
                    "name": "linkModuleInitData",
                    "type": "bytes"
                }
            ],
            "name": "setLinkModule4Note",
            "outputs": [],
            "stateMutability": "nonpayable",
            "type": "function"
        },
        {
            "inputs": [
                {
                    "internalType": "uint256",
                    "name": "profileId",
                    "type": "uint256"
                },
                {
                    "internalType": "address",
                    "name": "linkModule",
                    "type": "address"
                },
                {
                    "internalType": "bytes",
                    "name": "linkModuleInitData",
                    "type": "bytes"
                }
            ],
            "name": "setLinkModule4Profile",
            "outputs": [],
            "stateMutability": "nonpayable",
            "type": "function"
        },
        {
            "inputs": [
                {
                    "internalType": "uint256",
                    "name": "linklistId",
                    "type": "uint256"
                },
                {
                    "internalType": "string",
                    "name": "uri",
                    "type": "string"
                }
            ],
            "name": "setLinklistUri",
            "outputs": [],
            "stateMutability": "nonpayable",
            "type": "function"
        },
        {
            "inputs": [
                {
                    "internalType": "uint256",
                    "name": "profileId",
                    "type": "uint256"
                },
                {
                    "internalType": "uint256",
                    "name": "noteId",
                    "type": "uint256"
                },
                {
                    "internalType": "address",
                    "name": "mintModule",
                    "type": "address"
                },
                {
                    "internalType": "bytes",
                    "name": "mintModuleInitData",
                    "type": "bytes"
                }
            ],
            "name": "setMintModule4Note",
            "outputs": [],
            "stateMutability": "nonpayable",
            "type": "function"
        },
        {
            "inputs": [
                {
                    "internalType": "uint256",
                    "name": "profileId",
                    "type": "uint256"
                }
            ],
            "name": "setPrimaryProfileId",
            "outputs": [],
            "stateMutability": "nonpayable",
            "type": "function"
        },
        {
            "inputs": [
                {
                    "internalType": "uint256",
                    "name": "profileId",
                    "type": "uint256"
                },
                {
                    "internalType": "string",
                    "name": "newUri",
                    "type": "string"
                }
            ],
            "name": "setProfileUri",
            "outputs": [],
            "stateMutability": "nonpayable",
            "type": "function"
        },
        {
            "inputs": [
                {
                    "internalType": "uint256",
                    "name": "profileId",
                    "type": "uint256"
                },
                {
                    "internalType": "address",
                    "name": "tokenAddress",
                    "type": "address"
                }
            ],
            "name": "setSocialToken",
            "outputs": [],
            "stateMutability": "nonpayable",
            "type": "function"
        },
        {
            "inputs": [
                {
                    "internalType": "bytes4",
                    "name": "interfaceId",
                    "type": "bytes4"
                }
            ],
            "name": "supportsInterface",
            "outputs": [
                {
                    "internalType": "bool",
                    "name": "",
                    "type": "bool"
                }
            ],
            "stateMutability": "view",
            "type": "function"
        },
        {
            "inputs": [],
            "name": "symbol",
            "outputs": [
                {
                    "internalType": "string",
                    "name": "",
                    "type": "string"
                }
            ],
            "stateMutability": "view",
            "type": "function"
        },
        {
            "inputs": [
                {
                    "internalType": "uint256",
                    "name": "index",
                    "type": "uint256"
                }
            ],
            "name": "tokenByIndex",
            "outputs": [
                {
                    "internalType": "uint256",
                    "name": "",
                    "type": "uint256"
                }
            ],
            "stateMutability": "view",
            "type": "function"
        },
        {
            "inputs": [
                {
                    "internalType": "address",
                    "name": "owner",
                    "type": "address"
                },
                {
                    "internalType": "uint256",
                    "name": "index",
                    "type": "uint256"
                }
            ],
            "name": "tokenOfOwnerByIndex",
            "outputs": [
                {
                    "internalType": "uint256",
                    "name": "",
                    "type": "uint256"
                }
            ],
            "stateMutability": "view",
            "type": "function"
        },
        {
            "inputs": [
                {
                    "internalType": "uint256",
                    "name": "profileId",
                    "type": "uint256"
                }
            ],
            "name": "tokenURI",
            "outputs": [
                {
                    "internalType": "string",
                    "name": "",
                    "type": "string"
                }
            ],
            "stateMutability": "view",
            "type": "function"
        },
        {
            "inputs": [],
            "name": "totalSupply",
            "outputs": [
                {
                    "internalType": "uint256",
                    "name": "",
                    "type": "uint256"
                }
            ],
            "stateMutability": "view",
            "type": "function"
        },
        {
            "inputs": [
                {
                    "internalType": "address",
                    "name": "from",
                    "type": "address"
                },
                {
                    "internalType": "address",
                    "name": "to",
                    "type": "address"
                },
                {
                    "internalType": "uint256",
                    "name": "tokenId",
                    "type": "uint256"
                }
            ],
            "name": "transferFrom",
            "outputs": [],
            "stateMutability": "nonpayable",
            "type": "function"
        },
        {
            "inputs": [
                {
                    "internalType": "uint256",
                    "name": "fromProfileId",
                    "type": "uint256"
                },
                {
                    "internalType": "address",
                    "name": "ethAddress",
                    "type": "address"
                },
                {
                    "internalType": "bytes32",
                    "name": "linkType",
                    "type": "bytes32"
                }
            ],
            "name": "unlinkAddress",
            "outputs": [],
            "stateMutability": "nonpayable",
            "type": "function"
        },
        {
            "inputs": [
                {
                    "internalType": "uint256",
                    "name": "fromProfileId",
                    "type": "uint256"
                },
                {
                    "internalType": "string",
                    "name": "toUri",
                    "type": "string"
                },
                {
                    "internalType": "bytes32",
                    "name": "linkType",
                    "type": "bytes32"
                }
            ],
            "name": "unlinkAny",
            "outputs": [],
            "stateMutability": "nonpayable",
            "type": "function"
        },
        {
            "inputs": [
                {
                    "internalType": "uint256",
                    "name": "fromProfileId",
                    "type": "uint256"
                },
                {
                    "internalType": "address",
                    "name": "tokenAddress",
                    "type": "address"
                },
                {
                    "internalType": "uint256",
                    "name": "tokenId",
                    "type": "uint256"
                },
                {
                    "internalType": "bytes32",
                    "name": "linkType",
                    "type": "bytes32"
                }
            ],
            "name": "unlinkERC721",
            "outputs": [],
            "stateMutability": "nonpayable",
            "type": "function"
        },
        {
            "inputs": [
                {
                    "internalType": "uint256",
                    "name": "fromProfileId",
                    "type": "uint256"
                },
                {
                    "internalType": "uint256",
                    "name": "toLinkListId",
                    "type": "uint256"
                },
                {
                    "internalType": "bytes32",
                    "name": "linkType",
                    "type": "bytes32"
                }
            ],
            "name": "unlinkLinklist",
            "outputs": [],
            "stateMutability": "nonpayable",
            "type": "function"
        },
        {
            "inputs": [
                {
                    "internalType": "uint256",
                    "name": "fromProfileId",
                    "type": "uint256"
                },
                {
                    "internalType": "uint256",
                    "name": "toProfileId",
                    "type": "uint256"
                },
                {
                    "internalType": "uint256",
                    "name": "toNoteId",
                    "type": "uint256"
                },
                {
                    "internalType": "bytes32",
                    "name": "linkType",
                    "type": "bytes32"
                }
            ],
            "name": "unlinkNote",
            "outputs": [],
            "stateMutability": "nonpayable",
            "type": "function"
        },
        {
            "inputs": [
                {
                    "internalType": "uint256",
                    "name": "fromProfileId",
                    "type": "uint256"
                },
                {
                    "internalType": "uint256",
                    "name": "toProfileId",
                    "type": "uint256"
                },
                {
                    "internalType": "bytes32",
                    "name": "linkType",
                    "type": "bytes32"
                }
            ],
            "name": "unlinkProfile",
            "outputs": [],
            "stateMutability": "nonpayable",
            "type": "function"
        },
        {
            "inputs": [
                {
                    "internalType": "uint256",
                    "name": "fromProfileId",
                    "type": "uint256"
                },
                {
                    "components": [
                        {
                            "internalType": "uint256",
                            "name": "fromProfileId",
                            "type": "uint256"
                        },
                        {
                            "internalType": "uint256",
                            "name": "toProfileId",
                            "type": "uint256"
                        },
                        {
                            "internalType": "bytes32",
                            "name": "linkType",
                            "type": "bytes32"
                        }
                    ],
                    "internalType": "struct DataTypes.ProfileLinkStruct",
                    "name": "linkData",
                    "type": "tuple"
                },
                {
                    "internalType": "bytes32",
                    "name": "linkType",
                    "type": "bytes32"
                }
            ],
            "name": "unlinkProfileLink",
            "outputs": [],
            "stateMutability": "nonpayable",
            "type": "function"
        }
    ],
    "bytecode": "0x608060405234801561001057600080fd5b5061598980620000216000396000f3fe608060405234801561001057600080fd5b50600436106103fc5760003560e01c80636352211e11610215578063b40d5a5711610125578063d36a2dce116100b8578063ec81d19411610087578063ec81d1941461096b578063f08f4f641461097e578063f262bec114610991578063f98839df146109a4578063fe9299fb146109b757600080fd5b8063d36a2dce146108e9578063db491e80146108fc578063e72f208c1461091c578063e985e9c51461092f57600080fd5b8063c387c453116100f4578063c387c4531461089d578063c7009c6b146108b0578063c87b56dd146108c3578063cba4f5cc146108d657600080fd5b8063b40d5a5714610853578063b88d4fde14610866578063bd5f69cb14610879578063c053f6b81461088c57600080fd5b8063862b531c116101a857806395d9fa7d1161017757806395d9fa7d146107f457806395e760101461080757806397550f131461081a578063a22cb4651461082d578063a6e6178d1461084057600080fd5b8063862b531c146107b3578063865be2b9146107c65780638f15b414146107d957806395d89b41146107ec57600080fd5b80637936da0e116101e45780637936da0e146107675780637c392b511461077a5780637e9a82921461078d57806384b7743a146107a057600080fd5b80636352211e1461070e57806363c008751461072157806370a082311461074157806373f1c9291461075457600080fd5b806323b872dd1161031057806342842e0e116102a35780634cab71ec116102725780634cab71ec146106af5780634f6ccce7146106c2578063515d42d2146106d5578063570477fb146106e8578063605787d6146106fb57600080fd5b806342842e0e1461066357806343786783146106765780634af3eb42146106895780634bebcd171461069c57600080fd5b80632c2e0881116102df5780632c2e0881146105fe5780632f745c591461061157806331b9d08c1461062457806333f06ee61461065057600080fd5b806323b872dd146105b257806326540240146105c5578063295cb43e146105d85780632a59de7a146105eb57600080fd5b80630d17b01f1161039357806318160ddd1161036257806318160ddd146105255780631bb4d2311461052d57806321f4f26f146105565780632209d14514610569578063231fcfbe1461059f57600080fd5b80630d17b01f146104e55780630f84fe8c146104f85780631316529d1461050b5780631808dda01461051257600080fd5b8063081812fc116103cf578063081812fc14610466578063095ea7b3146104915780630a871e60146104a45780630c16de10146104c557600080fd5b806301ffc9a7146104015780630336bf551461042957806306f30bc91461043e57806306fdde0314610451575b600080fd5b61041461040f366004614623565b6109e0565b60405190151581526020015b60405180910390f35b61043c610437366004614640565b610a0b565b005b61043c61044c3660046146cf565b610b02565b610459610c1a565b6040516104209190614790565b6104796104743660046147a3565b610cac565b6040516001600160a01b039091168152602001610420565b61043c61049f3660046147bc565b610d46565b6104b76104b2366004614800565b610e5c565b604051908152602001610420565b6104d86104d336600461486a565b610f89565b60405161042091906148ab565b61043c6104f3366004614927565b611138565b61043c610506366004614927565b611215565b60016104b7565b61043c61052036600461495f565b6113c2565b6008546104b7565b6104b761053b36600461498b565b6001600160a01b03166000908152600c602052604090205490565b6104b76105643660046149a8565b6113df565b6104796105773660046147bc565b6001600160a01b03918216600090815260126020908152604080832093835292905220541690565b61043c6105ad3660046146cf565b6114bd565b61043c6105c03660046149fb565b6115c4565b6104b76105d3366004614a2b565b6115f5565b61043c6105e63660046147a3565b611653565b61043c6105f9366004614a8b565b611699565b61043c61060c366004614add565b61175b565b6104b761061f3660046147bc565b6118b3565b61047961063236600461498b565b6001600160a01b039081166000908152601360205260409020541690565b61043c61065e366004614b41565b611949565b61043c6106713660046149fb565b6119bd565b6104b76106843660046149a8565b6119d8565b61043c61069736600461495f565b611a2a565b6104b76106aa366004614b8c565b611b10565b6104596106bd366004614be8565b611b5a565b6104b76106d03660046147a3565b611be7565b61043c6106e3366004614be8565b611c7a565b61043c6106f6366004614c0a565b611d82565b61043c610709366004614927565b611e73565b61047961071c3660046147a3565b611f34565b61073461072f366004614be8565b611fab565b6040516104209190614c4b565b6104b761074f36600461498b565b612038565b61043c610762366004614c8f565b6120bf565b61043c610775366004614be8565b6120de565b61043c610788366004614b41565b61216b565b61043c61079b366004614ccc565b6121d0565b61043c6107ae366004614c8f565b6122d9565b6104b76107c13660046146cf565b6122ee565b61043c6107d4366004614640565b612394565b61043c6107e7366004614d06565b6123b2565b6104596124f0565b61043c610802366004614d9a565b6124ff565b6104b7610815366004614dca565b6125cd565b61043c61082836600461495f565b612613565b61043c61083b366004614e41565b6126c3565b61043c61084e366004614b41565b6126d2565b61043c610861366004614a8b565b612748565b61043c610874366004614ee1565b61280f565b61043c610887366004614f8f565b612841565b600e546001600160a01b0316610479565b6104146108ab3660046147a3565b612942565b61043c6108be366004614c0a565b612970565b6104596108d13660046147a3565b612992565b6104596108e43660046147a3565b612a37565b6104b76108f7366004614fc9565b612a42565b61090f61090a366004614be8565b612af0565b6040516104209190614ffd565b61043c61092a366004615072565b612c3d565b61041461093d36600461509a565b6001600160a01b03918216600090815260056020908152604080832093909416825291909152205460ff1690565b6104596109793660046147a3565b612ced565b6104d861098c3660046147a3565b612d0d565b61043c61099f366004615072565b612e94565b61043c6109b236600461495f565b612f80565b6104796109c53660046147a3565b6000908152601160205260409020546001600160a01b031690565b60006001600160e01b0319821663780e9d6360e01b1480610a055750610a0582613046565b92915050565b610a1484613096565b610a1d836130ff565b610a278383613163565b6000848152600f60209081526040808320848452909152902054610a4b81866131c4565b600e546040516281eec360e31b81526004810183905260248101869052604481018590526001600160a01b039091169063040f761890606401600060405180830381600087803b158015610a9e57600080fd5b505af1158015610ab2573d6000803e3d6000fd5b505050508284867fd27a71fc88ac85c4657b81c4d24a9cd9a034971683620f179a19d179fe0a956d8585604051610af3929190918252602082015260400190565b60405180910390a45050505050565b610b0b85613096565b610b158585613163565b6001600160a01b03831615610c1357600085815260106020908152604080832087845290915280822060050180546001600160a01b0319166001600160a01b0387169081179091559051633ee9bd4f60e11b8152637dd37a9e90610b839089908990889088906004016150f1565b6000604051808303816000875af1158015610ba2573d6000803e3d6000fd5b505050506040513d6000823e601f3d908101601f19168201604052610bca9190810190615141565b9050836001600160a01b031685877f36e973ebf2a1c9c4006aaad244866e6dea9a0e85770deea599b193a9eb51b8f78442604051610c09929190615189565b60405180910390a4505b5050505050565b606060008054610c29906151ab565b80601f0160208091040260200160405190810160405280929190818152602001828054610c55906151ab565b8015610ca25780601f10610c7757610100808354040283529160200191610ca2565b820191906000526020600020905b815481529060010190602001808311610c8557829003601f168201915b5050505050905090565b6000818152600260205260408120546001600160a01b0316610d2a5760405162461bcd60e51b815260206004820152602c60248201527f4552433732313a20617070726f76656420717565727920666f72206e6f6e657860448201526b34b9ba32b73a103a37b5b2b760a11b60648201526084015b60405180910390fd5b506000908152600460205260409020546001600160a01b031690565b6000610d5182611f34565b9050806001600160a01b0316836001600160a01b03161415610dbf5760405162461bcd60e51b815260206004820152602160248201527f4552433732313a20617070726f76616c20746f2063757272656e74206f776e656044820152603960f91b6064820152608401610d21565b336001600160a01b0382161480610ddb5750610ddb813361093d565b610e4d5760405162461bcd60e51b815260206004820152603860248201527f4552433732313a20617070726f76652063616c6c6572206973206e6f74206f7760448201527f6e6572206e6f7220617070726f76656420666f7220616c6c00000000000000006064820152608401610d21565b610e57838361327f565b505050565b6000610e688635613096565b610e7284846132ed565b6000858152600f6020908152604080832085845282528083205490516bffffffffffffffffffffffff19606089901b16928101929092526034820186905291694552433732314c696e6b60b01b916054015b6040516020818303038152906040528051906020012090506000600a60008a815260200190815260200160002060030160008154610f01906151f6565b91829055506040516317e60d8d60e31b815290915073__$2873850e5b3f5697aafc2f5cd9f27cc884$__9063bf306c6890610f4b908d9085908990899089906010906004016152fa565b60006040518083038186803b158015610f6357600080fd5b505af4158015610f77573d6000803e3d6000fd5b50929c9b505050505050505050505050565b610f9161452c565b60008383604051610fa3929190615336565b604080519182900382206000818152600b602090815283822054808352600a82529184902060c0860190945283548552600184018054939650919493929084019190610fee906151ab565b80601f016020809104026020016040519081016040528092919081815260200182805461101a906151ab565b80156110675780601f1061103c57610100808354040283529160200191611067565b820191906000526020600020905b81548152906001019060200180831161104a57829003601f168201915b50505050508152602001600282018054611080906151ab565b80601f01602080910402602001604051908101604052809291908181526020018280546110ac906151ab565b80156110f95780601f106110ce576101008083540402835291602001916110f9565b820191906000526020600020905b8154815290600101906020018083116110dc57829003601f168201915b50505091835250506003820154602082015260048201546001600160a01b03908116604083015260059092015490911660609091015295945050505050565b61114183613096565b6000838152600f6020908152604080832084845290915290205461116581856131c4565b600e54604051635956da7360e01b8152600481018390526001600160a01b03858116602483015290911690635956da7390604401600060405180830381600087803b1580156111b357600080fd5b505af11580156111c7573d6000803e3d6000fd5b50505050826001600160a01b0316847f93453451dd1d041ffa18c6c1f3f2e21a6d73c3d8d32deaf595b53a14914c87158460405161120791815260200190565b60405180910390a350505050565b61121e83613096565b6001600160a01b0382166000908152600c6020526040902054156112985760405162461bcd60e51b815260206004820152602b60248201527f546172676574206164647265737320616c726561647920686173207072696d6160448201526a393c90383937b334b6329760a91b6064820152608401610d21565b6000600d600081546112a9906151f6565b918290555090506112ba83826133ab565b73__$da066dc100670b51e733250a114f607b42$__63a20df8646040518060a00160405280866001600160a01b03168152602001611302876001600160a01b031660146134f9565b815260200160405180602001604052806000815250815260200160006001600160a01b0316815260200160405180602001604052806000815250815250600084600b600a6040518663ffffffff1660e01b8152600401611366959493929190615346565b60006040518083038186803b15801561137e57600080fd5b505af4158015611392573d6000803e3d6000fd5b5050506001600160a01b0384166000908152600c60205260409020829055506113bc84828461369b565b50505050565b6113cb83613096565b6113d4826130ff565b610e5783838361369b565b60006113eb8535613096565b6000848152600f60209081526040808320858452825280832054878452600a9092528220600301805491926a50726f66696c654c696e6b60a81b928792908290611434906151f6565b91829055506040516317e60d8d60e31b815290915073__$2873850e5b3f5697aafc2f5cd9f27cc884$__9063bf306c689061147e908c9085908990899089906010906004016152fa565b60006040518083038186803b15801561149657600080fd5b505af41580156114aa573d6000803e3d6000fd5b509296505050505050505b949350505050565b6114c685613096565b6114d08585613163565b6001600160a01b03831615610c13576000858152601060209081526040808320878452909152808220600490810180546001600160a01b0319166001600160a01b038816908117909155915163f033607760e01b815263f03360779161153e918a918a9189918991016150f1565b6000604051808303816000875af115801561155d573d6000803e3d6000fd5b505050506040513d6000823e601f3d908101601f191682016040526115859190810190615141565b9050836001600160a01b031685877f889c6317f76b8527935ed434226767d05f8b7c664d99f6f787e62efd558f6f018442604051610c09929190615189565b6115ce338261374a565b6115ea5760405162461bcd60e51b8152600401610d21906153ef565b610e5783838361383d565b60006116018535613096565b6000848152600f60209081526040808320858452825280832054878452600a9092528220600301805491926a416464726573734c696e6b60a81b926001600160a01b03881692908290611434906151f6565b61165c81613096565b336000818152600c6020526040808220849055518392917f444dbf26d795c263ce4e5f2fccaac8e71b73cb37091f74e9e4f76cd98b55f8d391a350565b6116a284613096565b60006116af8583336139e4565b600e54604051631983158760e31b81529192506001600160a01b03169063cc18ac38906116e490849088908890600401615440565b600060405180830381600087803b1580156116fe57600080fd5b505af1158015611712573d6000803e3d6000fd5b50505050847f77c508b3ce1f699c73e46a33df0ab0010d3d5f3e1270839381b85e618aef0fce8585858560405161174c9493929190615463565b60405180910390a25050505050565b336001600160a01b038516146117b35760405162461bcd60e51b815260206004820152601a60248201527f57656233456e7472793a204e6f74416464726573734f776e65720000000000006044820152606401610d21565b6001600160a01b038316156113bc576001600160a01b0384811660009081526013602052604080822080546001600160a01b0319169387169384179055516349e2252d60e01b81529091906349e2252d906118169088908790879060040161548a565b6000604051808303816000875af1158015611835573d6000803e3d6000fd5b505050506040513d6000823e601f3d908101601f1916820160405261185d9190810190615141565b9050836001600160a01b0316856001600160a01b03167f7685796f9ddd10aa092582edf9c2a9ea78db9685e6f997342b6ab22268a730d883426040516118a4929190615189565b60405180910390a35050505050565b60006118be83612038565b82106119205760405162461bcd60e51b815260206004820152602b60248201527f455243373231456e756d657261626c653a206f776e657220696e646578206f7560448201526a74206f6620626f756e647360a81b6064820152608401610d21565b506001600160a01b03919091166000908152600660209081526040808320938352929052205490565b61195283613afe565b600e54604051633c17845760e11b81526001600160a01b039091169063782f08ae9061198690869086908690600401615440565b600060405180830381600087803b1580156119a057600080fd5b505af11580156119b4573d6000803e3d6000fd5b50505050505050565b610e578383836040518060200160405280600081525061280f565b60006119e48535613096565b6000848152600f60209081526040808320858452825280832054878452600a909252822060030180549192674c6973744c696e6b60c01b928792908290611434906151f6565b611a3383613096565b611a3c826130ff565b6000838152600f60209081526040808320848452909152902054611a6081856131c4565b600e546040516391e5454b60e01b815260048101839052602481018590526001600160a01b03909116906391e5454b90604401600060405180830381600087803b158015611aad57600080fd5b505af1158015611ac1573d6000803e3d6000fd5b505050508284336001600160a01b03167f08a14b775e42bf92e94f9d72aba57ad213485e0c20e373c9f5dd161fb81890a285604051611b0291815260200190565b60405180910390a450505050565b6000611b1c8635613096565b6000858152600f60209081526040808320858452825280832054815192830188905290820186905291674e6f74654c696e6b60c01b91606001610ec4565b6000828152600f602090815260408083208484529091529081902054600e549151632b05429560e21b8152600481018290526060926001600160a01b03169063ac150a5490602401600060405180830381865afa158015611bbf573d6000803e3d6000fd5b505050506040513d6000823e601f3d908101601f191682016040526114b59190810190615141565b6000611bf260085490565b8210611c555760405162461bcd60e51b815260206004820152602c60248201527f455243373231456e756d657261626c653a20676c6f62616c20696e646578206f60448201526b7574206f6620626f756e647360a01b6064820152608401610d21565b60088281548110611c6857611c686154af565b90600052602060002001549050919050565b600e5460405162fba02760e01b8152600481018490526000916001600160a01b03169062fba02790602401602060405180830381865afa158015611cc2573d6000803e3d6000fd5b505050506040513d601f19601f82011682018060405250810190611ce691906154c5565b6000838152600f6020908152604080832084845290915290205490915015611d5c5760405162461bcd60e51b815260206004820152602360248201527f53616d652074797065206c696e6b6c69737420616c726561647920657869737460448201526232b21760e91b6064820152608401610d21565b611d668383613bcb565b6000918252600f60209081526040808420928452919052902055565b611d8b83613096565b6000838152600f60209081526040808320848452909152902054611daf81856131c4565b600e5460408051630e14bb7560e31b81526004810184905285356024820152602086013560448201529085013560648201526001600160a01b03909116906370a5dba890608401600060405180830381600087803b158015611e1057600080fd5b505af1158015611e24573d6000803e3d6000fd5b505060408051863581526020808801359082015281870135918101919091528492508691507f90fe9f3bf41416d9a567460a40443ef7aea47220fa342bc0e07fd01c93ffc7e190606001611207565b611e7c83613096565b6000611e898483336139e4565b600e5460405163ed386e6560e01b8152600481018390526001600160a01b03868116602483015292935091169063ed386e6590604401600060405180830381600087803b158015611ed957600080fd5b505af1158015611eed573d6000803e3d6000fd5b505060408051858152602081018590526001600160a01b03871693508792507f3dad60a88f1d8ee170dfbeb8c65c705bd47922f205e774e10e49e4e53d93a8bd9101611207565b6000818152600260205260408120546001600160a01b031680610a055760405162461bcd60e51b815260206004820152602960248201527f4552433732313a206f776e657220717565727920666f72206e6f6e657869737460448201526832b73a103a37b5b2b760b91b6064820152608401610d21565b6000828152600f602090815260408083208484529091529081902054600e54915163a72d231760e01b8152600481018290526060926001600160a01b03169063a72d231790602401600060405180830381865afa158015612010573d6000803e3d6000fd5b505050506040513d6000823e601f3d908101601f191682016040526114b591908101906154de565b60006001600160a01b0382166120a35760405162461bcd60e51b815260206004820152602a60248201527f4552433732313a2062616c616e636520717565727920666f7220746865207a65604482015269726f206164647265737360b01b6064820152608401610d21565b506001600160a01b031660009081526003602052604090205490565b6120c884613096565b6120d283836132ed565b6113bc84848484613c43565b600e5460405162fba02760e01b8152600481018490526000916001600160a01b03169062fba02790602401602060405180830381865afa158015612126573d6000803e3d6000fd5b505050506040513d601f19601f8201168201806040525081019061214a91906154c5565b6000928352600f602090815260408085209285529190528220919091555050565b61217483613096565b6000838152600a60205260409020612190906002018383614574565b50827fc6b6b2c87fb0784186dd03398c7203c866d0ae59539fa3158aecbc86cb587a9583836040516121c3929190615583565b60405180910390a2505050565b6121da8585613d05565b6001600160a01b03831615610c13576001600160a01b03858116600090815260126020908152604080832088845290915280822080546001600160a01b031916938716938417905551630378cd8b60e61b815290919063de3362c09061224a908990899088908890600401615597565b6000604051808303816000875af1158015612269573d6000803e3d6000fd5b505050506040513d6000823e601f3d908101601f191682016040526122919190810190615141565b9050836001600160a01b031685876001600160a01b03167fd0411ae508eec872740a07b3a8da69f9a925547a40bbbdb612971a050c61e19e8442604051610c09929190615189565b6122e284613096565b6113bc84848484613dce565b601454604051630f37153360e31b815260009173__$1e68a60ae0444699fe08192a29ecc09930$__916379b8a99891612349918a918a918a918a918a916201000090046001600160a01b031690600a906010906004016155bf565b602060405180830381865af4158015612366573d6000803e3d6000fd5b505050506040513d601f19601f8201168201806040525081019061238a91906154c5565b9695505050505050565b61239d84613096565b6123a6836130ff565b6113bc84848484613ea5565b601454610100900460ff166123cd5760145460ff16156123d1565b303b155b6124345760405162461bcd60e51b815260206004820152602e60248201527f496e697469616c697a61626c653a20636f6e747261637420697320616c72656160448201526d191e481a5b9a5d1a585b1a5e995960921b6064820152608401610d21565b601454610100900460ff16158015612456576014805461ffff19166101011790555b61246287878787613f5c565b600e80546001600160a01b0319166001600160a01b03858116919091179091556014805462010000600160b01b03191662010000928516929092029190911790556040514281527f400175a56dd3710794078f7b9dbe8296ac94c5a248dfd51bb22ed4ab9eaa9fbf9060200160405180910390a180156119b4576014805461ff001916905550505050505050565b606060018054610c29906151ab565b61250882613096565b6000828152600a60205260409020600401546001600160a01b0316156125705760405162461bcd60e51b815260206004820152601c60248201527f57656233456e7472793a20536f6369616c546f6b656e457869737473000000006044820152606401610d21565b6000828152600a602052604080822060040180546001600160a01b0319166001600160a01b03851690811790915590519091849133917f276c2d4b7f7beaa1847ff9c41b9d2e0e57482efe8051eea98eea653bfca3ac4591a45050565b60006125d98635613096565b6000858152600f602090815260408083208584528252808320549051909266416e794c696e6b60c81b929091610ec491899189910161560d565b61261c83613096565b60006126298483336139e4565b600e546040516360e6a7c160e11b815260048101839052602481018690529192506001600160a01b03169063c1cd4f8290604401600060405180830381600087803b15801561267757600080fd5b505af115801561268b573d6000803e3d6000fd5b505050508083857f2e398bc911c0eb636118bc7906bdfa98b2ccf6ef7ee76e3f07068d0eee488e3f85604051611b0291815260200190565b6126ce338383613fad565b5050565b6126db83613096565b60405163c57cb53760e01b815273__$da066dc100670b51e733250a114f607b42$__9063c57cb5379061271c90869086908690600b90600a90600401615630565b60006040518083038186803b15801561273457600080fd5b505af41580156119b4573d6000803e3d6000fd5b61275184613096565b6000848152600f6020908152604080832084845290915290205461277581866131c4565b600e546040516308e013fb60e41b81526001600160a01b0390911690638e013fb0906127a990849088908890600401615440565b600060405180830381600087803b1580156127c357600080fd5b505af11580156127d7573d6000803e3d6000fd5b50505050847f30c740190e772199ffeb095b72d8a53da7bbd09a55668530ee288e33b28ecebd85858560405161174c9392919061565e565b612819338361374a565b6128355760405162461bcd60e51b8152600401610d21906153ef565b6113bc8484848461407c565b600d5461284f9060016140af565b600d5561286a612862602083018361498b565b600d546133ab565b600d546040516328837e1960e21b815273__$da066dc100670b51e733250a114f607b42$__9163a20df864916128ae91859160019190600b90600a90600401615682565b60006040518083038186803b1580156128c657600080fd5b505af41580156128da573d6000803e3d6000fd5b50600c9250600091506128f29050602084018461498b565b6001600160a01b0316815260208101919091526040016000205461293f57600d54600c6000612924602085018561498b565b6001600160a01b031681526020810191909152604001600020555b50565b60008061294e83611f34565b6001600160a01b03166000908152600c60205260409020549290921492915050565b61297983613096565b610e57838261298d36869003860186615747565b6140bb565b6000818152600a602052604090206002018054606091906129b2906151ab565b80601f01602080910402602001604051908101604052809291908181526020018280546129de906151ab565b8015612a2b5780601f10612a0057610100808354040283529160200191612a2b565b820191906000526020600020905b815481529060010190602001808311612a0e57829003601f168201915b50505050509050919050565b6060610a0582612992565b6000612a4e8235613096565b81356000908152600a6020526040812060030180548290612a6e906151f6565b91829055506040516317e60d8d60e31b815290915073__$2873850e5b3f5697aafc2f5cd9f27cc884$__9063bf306c6890612ab99086908590600090819081906010906004016152fa565b60006040518083038186803b158015612ad157600080fd5b505af4158015612ae5573d6000803e3d6000fd5b509295945050505050565b6040805160e0810182526000808252602082018190529181018290526060808201526080810182905260a0810182905260c08101919091526010600084815260200190815260200160002060008381526020019081526020016000206040518060e0016040529081600082015481526020016001820154815260200160028201548152602001600382018054612b85906151ab565b80601f0160208091040260200160405190810160405280929190818152602001828054612bb1906151ab565b8015612bfe5780601f10612bd357610100808354040283529160200191612bfe565b820191906000526020600020905b815481529060010190602001808311612be157829003601f168201915b505050918352505060048201546001600160a01b0390811660208301526005830154811660408301526006909201549091166060909101529392505050565b612c4684613096565b6000848152600a60205260409020600501546001600160a01b038481169116146113bc576000848152600a6020526040908190209051630f15c45d60e11b815273__$da066dc100670b51e733250a114f607b42$__91631e2b88ba91612cb7918891889188918891906004016157a2565b60006040518083038186803b158015612ccf57600080fd5b505af4158015612ce3573d6000803e3d6000fd5b5050505050505050565b6000818152600a602052604090206001018054606091906129b2906151ab565b612d1561452c565b600a60008381526020019081526020016000206040518060c001604052908160008201548152602001600182018054612d4d906151ab565b80601f0160208091040260200160405190810160405280929190818152602001828054612d79906151ab565b8015612dc65780601f10612d9b57610100808354040283529160200191612dc6565b820191906000526020600020905b815481529060010190602001808311612da957829003601f168201915b50505050508152602001600282018054612ddf906151ab565b80601f0160208091040260200160405190810160405280929190818152602001828054612e0b906151ab565b8015612e585780601f10612e2d57610100808354040283529160200191612e58565b820191906000526020600020905b815481529060010190602001808311612e3b57829003601f168201915b50505091835250506003820154602082015260048201546001600160a01b03908116604083015260059092015490911660609091015292915050565b612e9d84613afe565b6001600160a01b038316156113bc5760008481526011602052604080822080546001600160a01b0319166001600160a01b038716908117909155905163035aa84b60e41b81526335aa84b090612efb90889087908790600401615440565b6000604051808303816000875af1158015612f1a573d6000803e3d6000fd5b505050506040513d6000823e601f3d908101601f19168201604052612f429190810190615141565b9050836001600160a01b0316857f63dbee1d4ec714c8d35de5e060e27c372b6a409081cdb917c86ea48fdad89b4b83426040516118a4929190615189565b612f8983613096565b6000838152600f60209081526040808320848452909152902054612fad81856131c4565b600e5460405163c70881c560e01b815260048101839052602481018590526001600160a01b039091169063c70881c590604401600060405180830381600087803b158015612ffa57600080fd5b505af115801561300e573d6000803e3d6000fd5b505050508083857f6fbf599841dedc952cdfb5ee854ae5cc0e4cdedf58097101bc0104597b75e10885604051611b0291815260200190565b60006001600160e01b031982166380ac58cd60e01b148061307757506001600160e01b03198216635b5e139f60e01b145b80610a0557506301ffc9a760e01b6001600160e01b0319831614610a05565b61309f81611f34565b6001600160a01b0316336001600160a01b03161461293f5760405162461bcd60e51b815260206004820152601a60248201527f57656233456e7472793a204e6f7450726f66696c654f776e65720000000000006044820152606401610d21565b6000818152600260205260409020546001600160a01b031661293f5760405162461bcd60e51b815260206004820152601b60248201527f57656233456e7472793a2050726f66696c654e6f7445786973747300000000006044820152606401610d21565b6000828152600a60205260409020600301548111156126ce5760405162461bcd60e51b815260206004820152601860248201527f57656233456e7472793a204e6f74654e6f7445786973747300000000000000006044820152606401610d21565b600e5460405163124fe93760e21b8152600481018490526001600160a01b039091169063493fa4dc90602401602060405180830381865afa15801561320d573d6000803e3d6000fd5b505050506040513d601f19601f8201168201806040525081019061323191906154c5565b81146126ce5760405162461bcd60e51b815260206004820152601e60248201527f57656233456e7472793a20756e6174746163686564206c696e6b4c69737400006044820152606401610d21565b600081815260046020526040902080546001600160a01b0319166001600160a01b03841690811790915581906132b482611f34565b6001600160a01b03167f8c5be1e5ebec7d5bd14f71427d1e84f3dd0314c0f7b2291e5b200ac8c7c3b92560405160405180910390a45050565b6040516331a9108f60e11b8152600481018290526001600160a01b03831690636352211e90602401602060405180830381865afa158015613332573d6000803e3d6000fd5b505050506040513d601f19601f8201168201806040525081019061335691906157df565b6001600160a01b03166126ce5760405162461bcd60e51b815260206004820152601a60248201527f57656233456e7472793a205245433732314e6f744578697374730000000000006044820152606401610d21565b6001600160a01b0382166134015760405162461bcd60e51b815260206004820181905260248201527f4552433732313a206d696e7420746f20746865207a65726f20616464726573736044820152606401610d21565b6000818152600260205260409020546001600160a01b0316156134665760405162461bcd60e51b815260206004820152601c60248201527f4552433732313a20746f6b656e20616c7265616479206d696e746564000000006044820152606401610d21565b6134726000838361418d565b6001600160a01b038216600090815260036020526040812080546001929061349b9084906157fc565b909155505060008181526002602052604080822080546001600160a01b0319166001600160a01b03861690811790915590518392907fddf252ad1be2c89b69c2b068fc378daa952ba7f163c4a11628f55a4df523b3ef908290a45050565b60606000613508836002615814565b6135139060026157fc565b6001600160401b0381111561352a5761352a614e74565b6040519080825280601f01601f191660200182016040528015613554576020820181803683370190505b509050600360fc1b8160008151811061356f5761356f6154af565b60200101906001600160f81b031916908160001a905350600f60fb1b8160018151811061359e5761359e6154af565b60200101906001600160f81b031916908160001a90535060006135c2846002615814565b6135cd9060016157fc565b90505b6001811115613645576f181899199a1a9b1b9c1cb0b131b232b360811b85600f1660108110613601576136016154af565b1a60f81b828281518110613617576136176154af565b60200101906001600160f81b031916908160001a90535060049490941c9361363e81615833565b90506135d0565b5083156136945760405162461bcd60e51b815260206004820181905260248201527f537472696e67733a20686578206c656e67746820696e73756666696369656e746044820152606401610d21565b9392505050565b60006136a88483336139e4565b600e54604051637bf0b88d60e11b815260048101839052602481018690529192506001600160a01b03169063f7e1711a90604401600060405180830381600087803b1580156136f657600080fd5b505af115801561370a573d6000803e3d6000fd5b5050604080518581526020810185905286935087925033917fbc914995d574dd9ef2df364e4eee2b85deda3ba35d054a62425fba1b972757169101611b02565b6000818152600260205260408120546001600160a01b03166137c35760405162461bcd60e51b815260206004820152602c60248201527f4552433732313a206f70657261746f7220717565727920666f72206e6f6e657860448201526b34b9ba32b73a103a37b5b2b760a11b6064820152608401610d21565b60006137ce83611f34565b9050806001600160a01b0316846001600160a01b031614806138095750836001600160a01b03166137fe84610cac565b6001600160a01b0316145b806114b557506001600160a01b0380821660009081526005602090815260408083209388168352929052205460ff166114b5565b826001600160a01b031661385082611f34565b6001600160a01b0316146138b45760405162461bcd60e51b815260206004820152602560248201527f4552433732313a207472616e736665722066726f6d20696e636f72726563742060448201526437bbb732b960d91b6064820152608401610d21565b6001600160a01b0382166139165760405162461bcd60e51b8152602060048201526024808201527f4552433732313a207472616e7366657220746f20746865207a65726f206164646044820152637265737360e01b6064820152608401610d21565b61392183838361418d565b61392c60008261327f565b6001600160a01b038316600090815260036020526040812080546001929061395590849061584a565b90915550506001600160a01b03821660009081526003602052604081208054600192906139839084906157fc565b909155505060008181526002602052604080822080546001600160a01b0319166001600160a01b0386811691821790925591518493918716917fddf252ad1be2c89b69c2b068fc378daa952ba7f163c4a11628f55a4df523b3ef91a4505050565b6000838152600f602090815260408083208584529091529020548061369457613a856001600e60009054906101000a90046001600160a01b03166001600160a01b03166318160ddd6040518163ffffffff1660e01b8152600401602060405180830381865afa158015613a5b573d6000803e3d6000fd5b505050506040513d601f19601f82011682018060405250810190613a7f91906154c5565b906140af565b600e5460405163644ee7e760e11b81526001600160a01b038581166004830152602482018790526044820184905292935091169063c89dcfce90606401600060405180830381600087803b158015613adc57600080fd5b505af1158015613af0573d6000803e3d6000fd5b505050506136948185611c7a565b600e546040516331a9108f60e11b8152600481018390526001600160a01b0390911690636352211e90602401602060405180830381865afa158015613b47573d6000803e3d6000fd5b505050506040513d601f19601f82011682018060405250810190613b6b91906157df565b6001600160a01b0316336001600160a01b03161461293f5760405162461bcd60e51b815260206004820152601b60248201527f57656233456e7472793a204e6f744c696e6b4c6973744f776e657200000000006044820152606401610d21565b613bd481613096565b600e54604051631c5b266960e21b815260048101849052336024820152604481018390526001600160a01b039091169063716c99a490606401600060405180830381600087803b158015613c2757600080fd5b505af1158015613c3b573d6000803e3d6000fd5b505050505050565b6000613c508583336139e4565b600e54604051630ba893bf60e21b8152600481018390526001600160a01b03878116602483015260448201879052929350911690632ea24efc90606401600060405180830381600087803b158015613ca757600080fd5b505af1158015613cbb573d6000803e3d6000fd5b5050505082846001600160a01b0316867f72413a1a5c43b255ad065653bf49db3c79ff7853ddaa4f4962ccd05e5368ad778585604051610af3929190918252602082015260400190565b6040516331a9108f60e11b8152600481018290526001600160a01b03831690636352211e90602401602060405180830381865afa158015613d4a573d6000803e3d6000fd5b505050506040513d601f19601f82011682018060405250810190613d6e91906157df565b6001600160a01b0316336001600160a01b0316146126ce5760405162461bcd60e51b815260206004820152601960248201527f57656233456e7472793a204e6f744552433732314f776e6572000000000000006044820152606401610d21565b6000848152600f60209081526040808320848452909152902054613df281866131c4565b600e54604051630370a16160e01b8152600481018390526001600160a01b0386811660248301526044820186905290911690630370a16190606401600060405180830381600087803b158015613e4757600080fd5b505af1158015613e5b573d6000803e3d6000fd5b5050505082846001600160a01b0316867fd87f9606a19988b6cf42d250d484940673ce551ab5f80289051cc343ff13121c8585604051610af3929190918252602082015260400190565b6000613eb28583336139e4565b600e54604051635cb46be760e01b81526004810183905260248101879052604481018690529192506001600160a01b031690635cb46be790606401600060405180830381600087803b158015613f0757600080fd5b505af1158015613f1b573d6000803e3d6000fd5b505050508284867f3cae5b1196087b560b6735377bbf745e5754f8082348a432b806afa01686ef488585604051610af3929190918252602082015260400190565b613f68848484846141d0565b7f414cd0b34676984f09a5f76ce9718d4062e50283abe0e7e274a9a5b4e0c99c308484848442604051613f9f959493929190615861565b60405180910390a150505050565b816001600160a01b0316836001600160a01b0316141561400f5760405162461bcd60e51b815260206004820152601960248201527f4552433732313a20617070726f766520746f2063616c6c6572000000000000006044820152606401610d21565b6001600160a01b03838116600081815260056020908152604080832094871680845294825291829020805460ff191686151590811790915591519182527f17307eab39ab6107e8899845ad3d59bd9653f200f220920489ca2b5937696c31910160405180910390a3505050565b61408784848461383d565b614093848484846141e9565b6113bc5760405162461bcd60e51b8152600401610d219061589b565b600061369482846157fc565b60006140c88484336139e4565b600e546040805163494c4d9960e01b81526004810184905285516024820152602086015160448201529085015160648201529192506001600160a01b03169063494c4d9990608401600060405180830381600087803b15801561412a57600080fd5b505af115801561413e573d6000803e3d6000fd5b505083516020808601516040808801518151948552928401919091528201528592508691507ff0697acc3f194ceead566f2dffb676a7d4aaf14d0a2fad93923e778e4b40ae0d90606001611207565b6001600160a01b0383166000908152600c6020526040902054156141c5576001600160a01b0383166000908152600c60205260408120555b610e578383836142e4565b6141dc60008585614574565b50610c1360018383614574565b60006001600160a01b0384163b156142dc57604051630a85bd0160e11b81526001600160a01b0385169063150b7a029061422d9033908990889088906004016158ed565b6020604051808303816000875af1925050508015614268575060408051601f3d908101601f1916820190925261426591810190615920565b60015b6142c2573d808015614296576040519150601f19603f3d011682016040523d82523d6000602084013e61429b565b606091505b5080516142ba5760405162461bcd60e51b8152600401610d219061589b565b805181602001fd5b6001600160e01b031916630a85bd0160e11b1490506114b5565b5060016114b5565b6001600160a01b03831661433f5761433a81600880546000838152600960205260408120829055600182018355919091527ff3f7a9fe364faab93b216da50a3214154f22a0a2b415b23a84c8169e8b636ee30155565b614362565b816001600160a01b0316836001600160a01b03161461436257614362838261439c565b6001600160a01b03821661437957610e5781614439565b826001600160a01b0316826001600160a01b031614610e5757610e5782826144e8565b600060016143a984612038565b6143b3919061584a565b600083815260076020526040902054909150808214614406576001600160a01b03841660009081526006602090815260408083208584528252808320548484528184208190558352600790915290208190555b5060009182526007602090815260408084208490556001600160a01b039094168352600681528383209183525290812055565b60085460009061444b9060019061584a565b60008381526009602052604081205460088054939450909284908110614473576144736154af565b906000526020600020015490508060088381548110614494576144946154af565b60009182526020808320909101929092558281526009909152604080822084905585825281205560088054806144cc576144cc61593d565b6001900381819060005260206000200160009055905550505050565b60006144f383612038565b6001600160a01b039093166000908152600660209081526040808320868452825280832085905593825260079052919091209190915550565b6040518060c001604052806000815260200160608152602001606081526020016000815260200160006001600160a01b0316815260200160006001600160a01b031681525090565b828054614580906151ab565b90600052602060002090601f0160209004810192826145a257600085556145e8565b82601f106145bb5782800160ff198235161785556145e8565b828001600101855582156145e8579182015b828111156145e85782358255916020019190600101906145cd565b506145f49291506145f8565b5090565b5b808211156145f457600081556001016145f9565b6001600160e01b03198116811461293f57600080fd5b60006020828403121561463557600080fd5b81356136948161460d565b6000806000806080858703121561465657600080fd5b5050823594602084013594506040840135936060013592509050565b6001600160a01b038116811461293f57600080fd5b60008083601f84011261469957600080fd5b5081356001600160401b038111156146b057600080fd5b6020830191508360208285010111156146c857600080fd5b9250929050565b6000806000806000608086880312156146e757600080fd5b8535945060208601359350604086013561470081614672565b925060608601356001600160401b0381111561471b57600080fd5b61472788828901614687565b969995985093965092949392505050565b60005b8381101561475357818101518382015260200161473b565b838111156113bc5750506000910152565b6000815180845261477c816020860160208601614738565b601f01601f19169290920160200192915050565b6020815260006136946020830184614764565b6000602082840312156147b557600080fd5b5035919050565b600080604083850312156147cf57600080fd5b82356147da81614672565b946020939093013593505050565b600060c082840312156147fa57600080fd5b50919050565b600080600080600060a0868803121561481857600080fd5b85356001600160401b0381111561482e57600080fd5b61483a888289016147e8565b95505060208601359350604086013561485281614672565b94979396509394606081013594506080013592915050565b6000806020838503121561487d57600080fd5b82356001600160401b0381111561489357600080fd5b61489f85828601614687565b90969095509350505050565b60208152815160208201526000602083015160c060408401526148d160e0840182614764565b90506040840151601f198483030160608501526148ee8282614764565b91505060608401516080840152608084015160018060a01b0380821660a08601528060a08701511660c086015250508091505092915050565b60008060006060848603121561493c57600080fd5b83359250602084013561494e81614672565b929592945050506040919091013590565b60008060006060848603121561497457600080fd5b505081359360208301359350604090920135919050565b60006020828403121561499d57600080fd5b813561369481614672565b600080600080608085870312156149be57600080fd5b84356001600160401b038111156149d457600080fd5b6149e0878288016147e8565b97602087013597506040870135966060013595509350505050565b600080600060608486031215614a1057600080fd5b8335614a1b81614672565b9250602084013561494e81614672565b60008060008060808587031215614a4157600080fd5b84356001600160401b03811115614a5757600080fd5b614a63878288016147e8565b945050602085013592506040850135614a7b81614672565b9396929550929360600135925050565b60008060008060608587031215614aa157600080fd5b8435935060208501356001600160401b03811115614abe57600080fd5b614aca87828801614687565b9598909750949560400135949350505050565b60008060008060608587031215614af357600080fd5b8435614afe81614672565b93506020850135614b0e81614672565b925060408501356001600160401b03811115614b2957600080fd5b614b3587828801614687565b95989497509550505050565b600080600060408486031215614b5657600080fd5b8335925060208401356001600160401b03811115614b7357600080fd5b614b7f86828701614687565b9497909650939450505050565b600080600080600060a08688031215614ba457600080fd5b85356001600160401b03811115614bba57600080fd5b614bc6888289016147e8565b9860208801359850604088013597606081013597506080013595509350505050565b60008060408385031215614bfb57600080fd5b50508035926020909101359150565b600080600083850360a0811215614c2057600080fd5b843593506060601f1982011215614c3657600080fd5b50602084019150608084013590509250925092565b6020808252825182820181905260009190848201906040850190845b81811015614c8357835183529284019291840191600101614c67565b50909695505050505050565b60008060008060808587031215614ca557600080fd5b843593506020850135614cb781614672565b93969395505050506040820135916060013590565b600080600080600060808688031215614ce457600080fd5b8535614cef81614672565b945060208601359350604086013561470081614672565b60008060008060008060808789031215614d1f57600080fd5b86356001600160401b0380821115614d3657600080fd5b614d428a838b01614687565b90985096506020890135915080821115614d5b57600080fd5b50614d6889828a01614687565b9095509350506040870135614d7c81614672565b91506060870135614d8c81614672565b809150509295509295509295565b60008060408385031215614dad57600080fd5b823591506020830135614dbf81614672565b809150509250929050565b600080600080600060808688031215614de257600080fd5b85356001600160401b0380821115614df957600080fd5b614e0589838a016147e8565b9650602088013595506040880135915080821115614e2257600080fd5b50614e2f88828901614687565b96999598509660600135949350505050565b60008060408385031215614e5457600080fd5b8235614e5f81614672565b915060208301358015158114614dbf57600080fd5b634e487b7160e01b600052604160045260246000fd5b604051601f8201601f191681016001600160401b0381118282101715614eb257614eb2614e74565b604052919050565b60006001600160401b03821115614ed357614ed3614e74565b50601f01601f191660200190565b60008060008060808587031215614ef757600080fd5b8435614f0281614672565b93506020850135614f1281614672565b92506040850135915060608501356001600160401b03811115614f3457600080fd5b8501601f81018713614f4557600080fd5b8035614f58614f5382614eba565b614e8a565b818152886020838501011115614f6d57600080fd5b8160208401602083013760006020838301015280935050505092959194509250565b600060208284031215614fa157600080fd5b81356001600160401b03811115614fb757600080fd5b820160a0818503121561369457600080fd5b600060208284031215614fdb57600080fd5b81356001600160401b03811115614ff157600080fd5b6114b5848285016147e8565b602081528151602082015260208201516040820152604082015160608201526000606083015160e06080840152615038610100840182614764565b9050608084015160018060a01b0380821660a08601528060a08701511660c08601528060c08701511660e086015250508091505092915050565b6000806000806060858703121561508857600080fd5b843593506020850135614b0e81614672565b600080604083850312156150ad57600080fd5b82356150b881614672565b91506020830135614dbf81614672565b81835281816020850137506000828201602090810191909152601f909101601f19169091010190565b84815283602082015260606040820152600061238a6060830184866150c8565b600061511f614f5384614eba565b905082815283838301111561513357600080fd5b613694836020830184614738565b60006020828403121561515357600080fd5b81516001600160401b0381111561516957600080fd5b8201601f8101841361517a57600080fd5b6114b584825160208401615111565b60408152600061519c6040830185614764565b90508260208301529392505050565b600181811c908216806151bf57607f821691505b602082108114156147fa57634e487b7160e01b600052602260045260246000fd5b634e487b7160e01b600052601160045260246000fd5b600060001982141561520a5761520a6151e0565b5060010190565b6000808335601e1984360301811261522857600080fd5b83016020810192503590506001600160401b0381111561524757600080fd5b8036038313156146c857600080fd5b8035825260006152696020830183615211565b60c0602086015261527e60c0860182846150c8565b915050604083013561528f81614672565b6001600160a01b0381811660408701526152ac6060860186615211565b925086840360608801526152c18484836150c8565b935050608085013591506152d482614672565b1660808501526152e760a0840184615211565b85830360a087015261238a8382846150c8565b60c08152600061530d60c0830189615256565b60208301979097525060408101949094526060840192909252608083015260a090910152919050565b8183823760009101908152919050565b60a08152600060018060a01b038088511660a0840152602088015160a060c0850152615376610140850182614764565b90506040890151609f19808684030160e08701526153948383614764565b92508360608c01511661010087015260808b01519350808684030161012087015250506153c18183614764565b925050506153d3602083018715159052565b8460408301528360608301528260808301529695505050505050565b60208082526031908201527f4552433732313a207472616e736665722063616c6c6572206973206e6f74206f6040820152701ddb995c881b9bdc88185c1c1c9bdd9959607a1b606082015260800190565b83815260406020820152600061545a6040830184866150c8565b95945050505050565b6060815260006154776060830186886150c8565b6020830194909452506040015292915050565b6001600160a01b038416815260406020820181905260009061545a90830184866150c8565b634e487b7160e01b600052603260045260246000fd5b6000602082840312156154d757600080fd5b5051919050565b600060208083850312156154f157600080fd5b82516001600160401b038082111561550857600080fd5b818501915085601f83011261551c57600080fd5b81518181111561552e5761552e614e74565b8060051b915061553f848301614e8a565b818152918301840191848101908884111561555957600080fd5b938501935b838510156155775784518252938501939085019061555e565b98975050505050505050565b6020815260006114b56020830184866150c8565b60018060a01b038516815283602082015260606040820152600061238a6060830184866150c8565b888152876020820152600060018060a01b03808916604084015260e060608401526155ee60e08401888a6150c8565b951660808301525060a081019290925260c09091015295945050505050565b664c696e6b416e7960c81b81528183600783013760009101600701908152919050565b85815260806020820152600061564a6080830186886150c8565b604083019490945250606001529392505050565b6040815260006156726040830185876150c8565b9050826020830152949350505050565b60a081526000863561569381614672565b6001600160a01b0381811660a08501526156b060208a018a615211565b925060a060c08601526156c8610140860184836150c8565b9250506156d860408a018a615211565b609f19808786030160e08801526156f08583856150c8565b945060608c0135925061570283614672565b83831661010088015261571860808d018d615211565b94509250808786030161012088015250506157348383836150c8565b93505050506153d3602083018715159052565b60006060828403121561575957600080fd5b604051606081018181106001600160401b038211171561577b5761577b614e74565b80604052508235815260208301356020820152604083013560408201528091505092915050565b8581526001600160a01b03851660208201526080604082018190526000906157cd90830185876150c8565b90508260608301529695505050505050565b6000602082840312156157f157600080fd5b815161369481614672565b6000821982111561580f5761580f6151e0565b500190565b600081600019048311821515161561582e5761582e6151e0565b500290565b600081615842576158426151e0565b506000190190565b60008282101561585c5761585c6151e0565b500390565b6060815260006158756060830187896150c8565b82810360208401526158888186886150c8565b9150508260408301529695505050505050565b60208082526032908201527f4552433732313a207472616e7366657220746f206e6f6e20455243373231526560408201527131b2b4bb32b91034b6b83632b6b2b73a32b960711b606082015260800190565b6001600160a01b038581168252841660208201526040810183905260806060820181905260009061238a90830184614764565b60006020828403121561593257600080fd5b81516136948161460d565b634e487b7160e01b600052603160045260246000fdfea264697066735822122060ae579a3932d91009b0274370f3cd49116e9a3f9ecb811ee5a57be4da1d7efc64736f6c634300080a0033",
    "linkReferences": {
        "contracts/libraries/InteractionLogic.sol": {
            "InteractionLogic": [
                {
                    "length": 20,
                    "start": 8996
                }
            ]
        },
        "contracts/libraries/PostLogic.sol": {
            "PostLogic": [
                {
                    "length": 20,
                    "start": 3897
                },
                {
                    "length": 20,
                    "start": 5228
                },
                {
                    "length": 20,
                    "start": 10918
                }
            ]
        },
        "contracts/libraries/ProfileLogic.sol": {
            "ProfileLogic": [
                {
                    "length": 20,
                    "start": 4829
                },
                {
                    "length": 20,
                    "start": 9995
                },
                {
                    "length": 20,
                    "start": 10397
                },
                {
                    "length": 20,
                    "start": 11433
                }
            ]
        }
    },
    "deployedLinkReferences": {
        "contracts/libraries/InteractionLogic.sol": {
            "InteractionLogic": [
                {
                    "length": 20,
                    "start": 8963
                }
            ]
        },
        "contracts/libraries/PostLogic.sol": {
            "PostLogic": [
                {
                    "length": 20,
                    "start": 3864
                },
                {
                    "length": 20,
                    "start": 5195
                },
                {
                    "length": 20,
                    "start": 10885
                }
            ]
        },
        "contracts/libraries/ProfileLogic.sol": {
            "ProfileLogic": [
                {
                    "length": 20,
                    "start": 4796
                },
                {
                    "length": 20,
                    "start": 9962
                },
                {
                    "length": 20,
                    "start": 10364
                },
                {
                    "length": 20,
                    "start": 11400
                }
            ]
        }
    }
}