{
  "_format": "hh-sol-artifact-1",
  "contractName": "Web3Entry",
  "sourceName": "contracts/Web3Entry.sol",
  "abi": [
    {
      "inputs": [
        {
          "internalType": "uint256",
          "name": "characterId",
          "type": "uint256"
        }
      ],
      "name": "ErrCharacterNotExists",
      "type": "error"
    },
    {
      "inputs": [],
      "name": "ErrHandleContainsInvalidCharacters",
      "type": "error"
    },
    {
      "inputs": [],
      "name": "ErrHandleExists",
      "type": "error"
    },
    {
      "inputs": [],
      "name": "ErrHandleLengthInvalid",
      "type": "error"
    },
    {
      "inputs": [],
      "name": "ErrNotAddressOwner",
      "type": "error"
    },
    {
      "inputs": [],
      "name": "ErrNotCharacterOwner",
      "type": "error"
    },
    {
      "inputs": [],
      "name": "ErrNotEnoughPermission",
      "type": "error"
    },
    {
      "inputs": [],
      "name": "ErrNotEnoughPermissionForThisNote",
      "type": "error"
    },
    {
      "inputs": [],
      "name": "ErrNoteIsDeleted",
      "type": "error"
    },
    {
      "inputs": [],
      "name": "ErrNoteLocked",
      "type": "error"
    },
    {
      "inputs": [],
      "name": "ErrNoteNotExists",
      "type": "error"
    },
    {
      "inputs": [],
      "name": "ErrREC721NotExists",
      "type": "error"
    },
    {
      "inputs": [],
      "name": "ErrSocialTokenExists",
      "type": "error"
    },
    {
      "inputs": [],
      "name": "ErrTargetAlreadyHasPrimaryCharacter",
      "type": "error"
    },
    {
      "anonymous": false,
      "inputs": [
        {
          "indexed": true,
          "internalType": "address",
          "name": "owner",
          "type": "address"
        },
        {
          "indexed": true,
          "internalType": "address",
          "name": "approved",
          "type": "address"
        },
        {
          "indexed": true,
          "internalType": "uint256",
          "name": "tokenId",
          "type": "uint256"
        }
      ],
      "name": "Approval",
      "type": "event"
    },
    {
      "anonymous": false,
      "inputs": [
        {
          "indexed": true,
          "internalType": "address",
          "name": "owner",
          "type": "address"
        },
        {
          "indexed": true,
          "internalType": "address",
          "name": "operator",
          "type": "address"
        },
        {
          "indexed": false,
          "internalType": "bool",
          "name": "approved",
          "type": "bool"
        }
      ],
      "name": "ApprovalForAll",
      "type": "event"
    },
    {
      "anonymous": false,
      "inputs": [
        {
          "indexed": false,
          "internalType": "uint8",
          "name": "version",
          "type": "uint8"
        }
      ],
      "name": "Initialized",
      "type": "event"
    },
    {
      "anonymous": false,
      "inputs": [
        {
          "indexed": true,
          "internalType": "address",
          "name": "from",
          "type": "address"
        },
        {
          "indexed": true,
          "internalType": "address",
          "name": "to",
          "type": "address"
        },
        {
          "indexed": true,
          "internalType": "uint256",
          "name": "tokenId",
          "type": "uint256"
        }
      ],
      "name": "Transfer",
      "type": "event"
    },
    {
      "inputs": [
        {
          "internalType": "address",
          "name": "to",
          "type": "address"
        },
        {
          "internalType": "uint256",
          "name": "tokenId",
          "type": "uint256"
        }
      ],
      "name": "approve",
      "outputs": [],
      "stateMutability": "nonpayable",
      "type": "function"
    },
    {
      "inputs": [
        {
          "internalType": "address",
          "name": "owner",
          "type": "address"
        }
      ],
      "name": "balanceOf",
      "outputs": [
        {
          "internalType": "uint256",
          "name": "",
          "type": "uint256"
        }
      ],
      "stateMutability": "view",
      "type": "function"
    },
    {
      "inputs": [
        {
          "internalType": "uint256",
          "name": "tokenId",
          "type": "uint256"
        }
      ],
      "name": "burn",
      "outputs": [],
      "stateMutability": "nonpayable",
      "type": "function"
    },
    {
      "inputs": [
        {
          "components": [
            {
              "internalType": "address",
              "name": "to",
              "type": "address"
            },
            {
              "internalType": "string",
              "name": "handle",
              "type": "string"
            },
            {
              "internalType": "string",
              "name": "uri",
              "type": "string"
            },
            {
              "internalType": "address",
              "name": "linkModule",
              "type": "address"
            },
            {
              "internalType": "bytes",
              "name": "linkModuleInitData",
              "type": "bytes"
            }
          ],
          "internalType": "struct DataTypes.CreateCharacterData",
          "name": "vars",
          "type": "tuple"
        }
      ],
      "name": "createCharacter",
      "outputs": [
        {
          "internalType": "uint256",
          "name": "characterId",
          "type": "uint256"
        }
      ],
      "stateMutability": "nonpayable",
      "type": "function"
    },
    {
      "inputs": [
        {
          "components": [
            {
              "internalType": "uint256",
              "name": "fromCharacterId",
              "type": "uint256"
            },
            {
              "internalType": "address",
              "name": "to",
              "type": "address"
            },
            {
              "internalType": "bytes32",
              "name": "linkType",
              "type": "bytes32"
            }
          ],
          "internalType": "struct DataTypes.createThenLinkCharacterData",
          "name": "vars",
          "type": "tuple"
        }
      ],
      "name": "createThenLinkCharacter",
      "outputs": [],
      "stateMutability": "nonpayable",
      "type": "function"
    },
    {
      "inputs": [
        {
          "internalType": "uint256",
          "name": "characterId",
          "type": "uint256"
        },
        {
          "internalType": "uint256",
          "name": "noteId",
          "type": "uint256"
        }
      ],
      "name": "deleteNote",
      "outputs": [],
      "stateMutability": "nonpayable",
      "type": "function"
    },
    {
      "inputs": [
        {
          "internalType": "uint256",
          "name": "tokenId",
          "type": "uint256"
        }
      ],
      "name": "getApproved",
      "outputs": [
        {
          "internalType": "address",
          "name": "",
          "type": "address"
        }
      ],
      "stateMutability": "view",
      "type": "function"
    },
    {
      "inputs": [
        {
          "internalType": "uint256",
          "name": "characterId",
          "type": "uint256"
        }
      ],
      "name": "getCharacter",
      "outputs": [
        {
          "components": [
            {
              "internalType": "uint256",
              "name": "characterId",
              "type": "uint256"
            },
            {
              "internalType": "string",
              "name": "handle",
              "type": "string"
            },
            {
              "internalType": "string",
              "name": "uri",
              "type": "string"
            },
            {
              "internalType": "uint256",
              "name": "noteCount",
              "type": "uint256"
            },
            {
              "internalType": "address",
              "name": "socialToken",
              "type": "address"
            },
            {
              "internalType": "address",
              "name": "linkModule",
              "type": "address"
            }
          ],
          "internalType": "struct DataTypes.Character",
          "name": "",
          "type": "tuple"
        }
      ],
      "stateMutability": "view",
      "type": "function"
    },
    {
      "inputs": [
        {
          "internalType": "string",
          "name": "handle",
          "type": "string"
        }
      ],
      "name": "getCharacterByHandle",
      "outputs": [
        {
          "components": [
            {
              "internalType": "uint256",
              "name": "characterId",
              "type": "uint256"
            },
            {
              "internalType": "string",
              "name": "handle",
              "type": "string"
            },
            {
              "internalType": "string",
              "name": "uri",
              "type": "string"
            },
            {
              "internalType": "uint256",
              "name": "noteCount",
              "type": "uint256"
            },
            {
              "internalType": "address",
              "name": "socialToken",
              "type": "address"
            },
            {
              "internalType": "address",
              "name": "linkModule",
              "type": "address"
            }
          ],
          "internalType": "struct DataTypes.Character",
          "name": "",
          "type": "tuple"
        }
      ],
      "stateMutability": "view",
      "type": "function"
    },
    {
      "inputs": [
        {
          "internalType": "uint256",
          "name": "characterId",
          "type": "uint256"
        }
      ],
      "name": "getCharacterUri",
      "outputs": [
        {
          "internalType": "string",
          "name": "",
          "type": "string"
        }
      ],
      "stateMutability": "view",
      "type": "function"
    },
    {
      "inputs": [
        {
          "internalType": "uint256",
          "name": "characterId",
          "type": "uint256"
        }
      ],
      "name": "getHandle",
      "outputs": [
        {
          "internalType": "string",
          "name": "",
          "type": "string"
        }
      ],
      "stateMutability": "view",
      "type": "function"
    },
    {
      "inputs": [
        {
          "internalType": "address",
          "name": "account",
          "type": "address"
        }
      ],
      "name": "getLinkModule4Address",
      "outputs": [
        {
          "internalType": "address",
          "name": "",
          "type": "address"
        }
      ],
      "stateMutability": "view",
      "type": "function"
    },
    {
      "inputs": [
        {
          "internalType": "address",
          "name": "tokenAddress",
          "type": "address"
        },
        {
          "internalType": "uint256",
          "name": "tokenId",
          "type": "uint256"
        }
      ],
      "name": "getLinkModule4ERC721",
      "outputs": [
        {
          "internalType": "address",
          "name": "",
          "type": "address"
        }
      ],
      "stateMutability": "view",
      "type": "function"
    },
    {
      "inputs": [
        {
          "internalType": "uint256",
          "name": "tokenId",
          "type": "uint256"
        }
      ],
      "name": "getLinkModule4Linklist",
      "outputs": [
        {
          "internalType": "address",
          "name": "",
          "type": "address"
        }
      ],
      "stateMutability": "view",
      "type": "function"
    },
    {
      "inputs": [],
      "name": "getLinklistContract",
      "outputs": [
        {
          "internalType": "address",
          "name": "",
          "type": "address"
        }
      ],
      "stateMutability": "view",
      "type": "function"
    },
    {
      "inputs": [
        {
          "internalType": "uint256",
          "name": "characterId",
          "type": "uint256"
        },
        {
          "internalType": "bytes32",
          "name": "linkType",
          "type": "bytes32"
        }
      ],
      "name": "getLinklistId",
      "outputs": [
        {
          "internalType": "uint256",
          "name": "",
          "type": "uint256"
        }
      ],
      "stateMutability": "view",
      "type": "function"
    },
    {
      "inputs": [
        {
          "internalType": "uint256",
          "name": "linkListId",
          "type": "uint256"
        }
      ],
      "name": "getLinklistType",
      "outputs": [
        {
          "internalType": "bytes32",
          "name": "",
          "type": "bytes32"
        }
      ],
      "stateMutability": "view",
      "type": "function"
    },
    {
      "inputs": [
        {
          "internalType": "uint256",
          "name": "tokenId",
          "type": "uint256"
        }
      ],
      "name": "getLinklistUri",
      "outputs": [
        {
          "internalType": "string",
          "name": "",
          "type": "string"
        }
      ],
      "stateMutability": "view",
      "type": "function"
    },
    {
      "inputs": [
        {
          "internalType": "uint256",
          "name": "characterId",
          "type": "uint256"
        },
        {
          "internalType": "uint256",
          "name": "noteId",
          "type": "uint256"
        }
      ],
      "name": "getNote",
      "outputs": [
        {
          "components": [
            {
              "internalType": "bytes32",
              "name": "linkItemType",
              "type": "bytes32"
            },
            {
              "internalType": "bytes32",
              "name": "linkKey",
              "type": "bytes32"
            },
            {
              "internalType": "string",
              "name": "contentUri",
              "type": "string"
            },
            {
              "internalType": "address",
              "name": "linkModule",
              "type": "address"
            },
            {
              "internalType": "address",
              "name": "mintModule",
              "type": "address"
            },
            {
              "internalType": "address",
              "name": "mintNFT",
              "type": "address"
            },
            {
              "internalType": "bool",
              "name": "deleted",
              "type": "bool"
            },
            {
              "internalType": "bool",
              "name": "locked",
              "type": "bool"
            }
          ],
          "internalType": "struct DataTypes.Note",
          "name": "",
          "type": "tuple"
        }
      ],
      "stateMutability": "view",
      "type": "function"
    },
    {
      "inputs": [
        {
          "internalType": "uint256",
          "name": "characterId",
          "type": "uint256"
        },
        {
          "internalType": "address",
          "name": "operator",
          "type": "address"
        }
      ],
      "name": "getOperatorPermissions",
      "outputs": [
        {
          "internalType": "uint256",
          "name": "",
          "type": "uint256"
        }
      ],
      "stateMutability": "view",
      "type": "function"
    },
    {
      "inputs": [
        {
          "internalType": "uint256",
          "name": "characterId",
          "type": "uint256"
        }
      ],
      "name": "getOperators",
      "outputs": [
        {
          "internalType": "address[]",
          "name": "",
          "type": "address[]"
        }
      ],
      "stateMutability": "view",
      "type": "function"
    },
    {
      "inputs": [
        {
          "internalType": "uint256",
          "name": "characterId",
          "type": "uint256"
        },
        {
          "internalType": "uint256",
          "name": "noteId",
          "type": "uint256"
        }
      ],
      "name": "getOperators4Note",
      "outputs": [
        {
          "internalType": "address[]",
          "name": "blocklist",
          "type": "address[]"
        },
        {
          "internalType": "address[]",
          "name": "allowlist",
          "type": "address[]"
        }
      ],
      "stateMutability": "view",
      "type": "function"
    },
    {
      "inputs": [
        {
          "internalType": "address",
          "name": "account",
          "type": "address"
        }
      ],
      "name": "getPrimaryCharacterId",
      "outputs": [
        {
          "internalType": "uint256",
          "name": "",
          "type": "uint256"
        }
      ],
      "stateMutability": "view",
      "type": "function"
    },
    {
      "inputs": [],
      "name": "getRevision",
      "outputs": [
        {
          "internalType": "uint256",
          "name": "",
          "type": "uint256"
        }
      ],
      "stateMutability": "pure",
      "type": "function"
    },
    {
      "inputs": [
        {
          "internalType": "uint256",
          "name": "characterId",
          "type": "uint256"
        },
        {
          "internalType": "address",
          "name": "operator",
          "type": "address"
        },
        {
          "internalType": "uint256",
          "name": "permissionBitMap",
          "type": "uint256"
        }
      ],
      "name": "grantOperatorPermissions",
      "outputs": [],
      "stateMutability": "nonpayable",
      "type": "function"
    },
    {
      "inputs": [
        {
          "internalType": "uint256",
          "name": "characterId",
          "type": "uint256"
        },
        {
          "internalType": "uint256",
          "name": "noteId",
          "type": "uint256"
        },
        {
          "internalType": "address[]",
          "name": "blocklist",
          "type": "address[]"
        },
        {
          "internalType": "address[]",
          "name": "allowlist",
          "type": "address[]"
        }
      ],
      "name": "grantOperators4Note",
      "outputs": [],
      "stateMutability": "nonpayable",
      "type": "function"
    },
    {
      "inputs": [
        {
          "internalType": "string",
          "name": "name_",
          "type": "string"
        },
        {
          "internalType": "string",
          "name": "symbol_",
          "type": "string"
        },
        {
          "internalType": "address",
          "name": "linklist_",
          "type": "address"
        },
        {
          "internalType": "address",
          "name": "mintNFTImpl_",
          "type": "address"
        },
        {
          "internalType": "address",
          "name": "periphery_",
          "type": "address"
        }
      ],
      "name": "initialize",
      "outputs": [],
      "stateMutability": "nonpayable",
      "type": "function"
    },
    {
      "inputs": [
        {
          "internalType": "address",
          "name": "owner",
          "type": "address"
        },
        {
          "internalType": "address",
          "name": "operator",
          "type": "address"
        }
      ],
      "name": "isApprovedForAll",
      "outputs": [
        {
          "internalType": "bool",
          "name": "",
          "type": "bool"
        }
      ],
      "stateMutability": "view",
      "type": "function"
    },
    {
      "inputs": [
        {
          "internalType": "uint256",
          "name": "characterId",
          "type": "uint256"
        },
        {
          "internalType": "uint256",
          "name": "noteId",
          "type": "uint256"
        },
        {
          "internalType": "address",
          "name": "operator",
          "type": "address"
        }
      ],
      "name": "isOperatorAllowedForNote",
      "outputs": [
        {
          "internalType": "bool",
          "name": "",
          "type": "bool"
        }
      ],
      "stateMutability": "view",
      "type": "function"
    },
    {
      "inputs": [
        {
          "internalType": "uint256",
          "name": "characterId",
          "type": "uint256"
        }
      ],
      "name": "isPrimaryCharacter",
      "outputs": [
        {
          "internalType": "bool",
          "name": "",
          "type": "bool"
        }
      ],
      "stateMutability": "view",
      "type": "function"
    },
    {
      "inputs": [
        {
          "components": [
            {
              "internalType": "uint256",
              "name": "fromCharacterId",
              "type": "uint256"
            },
            {
              "internalType": "address",
              "name": "ethAddress",
              "type": "address"
            },
            {
              "internalType": "bytes32",
              "name": "linkType",
              "type": "bytes32"
            },
            {
              "internalType": "bytes",
              "name": "data",
              "type": "bytes"
            }
          ],
          "internalType": "struct DataTypes.linkAddressData",
          "name": "vars",
          "type": "tuple"
        }
      ],
      "name": "linkAddress",
      "outputs": [],
      "stateMutability": "nonpayable",
      "type": "function"
    },
    {
      "inputs": [
        {
          "components": [
            {
              "internalType": "uint256",
              "name": "fromCharacterId",
              "type": "uint256"
            },
            {
              "internalType": "string",
              "name": "toUri",
              "type": "string"
            },
            {
              "internalType": "bytes32",
              "name": "linkType",
              "type": "bytes32"
            },
            {
              "internalType": "bytes",
              "name": "data",
              "type": "bytes"
            }
          ],
          "internalType": "struct DataTypes.linkAnyUriData",
          "name": "vars",
          "type": "tuple"
        }
      ],
      "name": "linkAnyUri",
      "outputs": [],
      "stateMutability": "nonpayable",
      "type": "function"
    },
    {
      "inputs": [
        {
          "components": [
            {
              "internalType": "uint256",
              "name": "fromCharacterId",
              "type": "uint256"
            },
            {
              "internalType": "uint256",
              "name": "toCharacterId",
              "type": "uint256"
            },
            {
              "internalType": "bytes32",
              "name": "linkType",
              "type": "bytes32"
            },
            {
              "internalType": "bytes",
              "name": "data",
              "type": "bytes"
            }
          ],
          "internalType": "struct DataTypes.linkCharacterData",
          "name": "vars",
          "type": "tuple"
        }
      ],
      "name": "linkCharacter",
      "outputs": [],
      "stateMutability": "nonpayable",
      "type": "function"
    },
    {
      "inputs": [
        {
          "components": [
            {
              "internalType": "uint256",
              "name": "fromCharacterId",
              "type": "uint256"
            },
            {
              "internalType": "address",
              "name": "tokenAddress",
              "type": "address"
            },
            {
              "internalType": "uint256",
              "name": "tokenId",
              "type": "uint256"
            },
            {
              "internalType": "bytes32",
              "name": "linkType",
              "type": "bytes32"
            },
            {
              "internalType": "bytes",
              "name": "data",
              "type": "bytes"
            }
          ],
          "internalType": "struct DataTypes.linkERC721Data",
          "name": "vars",
          "type": "tuple"
        }
      ],
      "name": "linkERC721",
      "outputs": [],
      "stateMutability": "nonpayable",
      "type": "function"
    },
    {
      "inputs": [
        {
          "components": [
            {
              "internalType": "uint256",
              "name": "fromCharacterId",
              "type": "uint256"
            },
            {
              "internalType": "uint256",
              "name": "toLinkListId",
              "type": "uint256"
            },
            {
              "internalType": "bytes32",
              "name": "linkType",
              "type": "bytes32"
            },
            {
              "internalType": "bytes",
              "name": "data",
              "type": "bytes"
            }
          ],
          "internalType": "struct DataTypes.linkLinklistData",
          "name": "vars",
          "type": "tuple"
        }
      ],
      "name": "linkLinklist",
      "outputs": [],
      "stateMutability": "nonpayable",
      "type": "function"
    },
    {
      "inputs": [
        {
          "components": [
            {
              "internalType": "uint256",
              "name": "fromCharacterId",
              "type": "uint256"
            },
            {
              "internalType": "uint256",
              "name": "toCharacterId",
              "type": "uint256"
            },
            {
              "internalType": "uint256",
              "name": "toNoteId",
              "type": "uint256"
            },
            {
              "internalType": "bytes32",
              "name": "linkType",
              "type": "bytes32"
            },
            {
              "internalType": "bytes",
              "name": "data",
              "type": "bytes"
            }
          ],
          "internalType": "struct DataTypes.linkNoteData",
          "name": "vars",
          "type": "tuple"
        }
      ],
      "name": "linkNote",
      "outputs": [],
      "stateMutability": "nonpayable",
      "type": "function"
    },
    {
      "inputs": [
        {
          "internalType": "uint256",
          "name": "characterId",
          "type": "uint256"
        },
        {
          "internalType": "uint256",
          "name": "noteId",
          "type": "uint256"
        }
      ],
      "name": "lockNote",
      "outputs": [],
      "stateMutability": "nonpayable",
      "type": "function"
    },
    {
      "inputs": [
        {
          "components": [
            {
              "internalType": "uint256",
              "name": "characterId",
              "type": "uint256"
            },
            {
              "internalType": "uint256",
              "name": "noteId",
              "type": "uint256"
            },
            {
              "internalType": "address",
              "name": "to",
              "type": "address"
            },
            {
              "internalType": "bytes",
              "name": "mintModuleData",
              "type": "bytes"
            }
          ],
          "internalType": "struct DataTypes.MintNoteData",
          "name": "vars",
          "type": "tuple"
        }
      ],
      "name": "mintNote",
      "outputs": [
        {
          "internalType": "uint256",
          "name": "",
          "type": "uint256"
        }
      ],
      "stateMutability": "nonpayable",
      "type": "function"
    },
    {
      "inputs": [],
      "name": "name",
      "outputs": [
        {
          "internalType": "string",
          "name": "",
          "type": "string"
        }
      ],
      "stateMutability": "view",
      "type": "function"
    },
    {
      "inputs": [
        {
          "internalType": "uint256",
          "name": "tokenId",
          "type": "uint256"
        }
      ],
      "name": "ownerOf",
      "outputs": [
        {
          "internalType": "address",
          "name": "",
          "type": "address"
        }
      ],
      "stateMutability": "view",
      "type": "function"
    },
    {
      "inputs": [
        {
          "components": [
            {
              "internalType": "uint256",
              "name": "characterId",
              "type": "uint256"
            },
            {
              "internalType": "string",
              "name": "contentUri",
              "type": "string"
            },
            {
              "internalType": "address",
              "name": "linkModule",
              "type": "address"
            },
            {
              "internalType": "bytes",
              "name": "linkModuleInitData",
              "type": "bytes"
            },
            {
              "internalType": "address",
              "name": "mintModule",
              "type": "address"
            },
            {
              "internalType": "bytes",
              "name": "mintModuleInitData",
              "type": "bytes"
            },
            {
              "internalType": "bool",
              "name": "locked",
              "type": "bool"
            }
          ],
          "internalType": "struct DataTypes.PostNoteData",
          "name": "vars",
          "type": "tuple"
        }
      ],
      "name": "postNote",
      "outputs": [
        {
          "internalType": "uint256",
          "name": "",
          "type": "uint256"
        }
      ],
      "stateMutability": "nonpayable",
      "type": "function"
    },
    {
      "inputs": [
        {
          "components": [
            {
              "internalType": "uint256",
              "name": "characterId",
              "type": "uint256"
            },
            {
              "internalType": "string",
              "name": "contentUri",
              "type": "string"
            },
            {
              "internalType": "address",
              "name": "linkModule",
              "type": "address"
            },
            {
              "internalType": "bytes",
              "name": "linkModuleInitData",
              "type": "bytes"
            },
            {
              "internalType": "address",
              "name": "mintModule",
              "type": "address"
            },
            {
              "internalType": "bytes",
              "name": "mintModuleInitData",
              "type": "bytes"
            },
            {
              "internalType": "bool",
              "name": "locked",
              "type": "bool"
            }
          ],
          "internalType": "struct DataTypes.PostNoteData",
          "name": "noteData",
          "type": "tuple"
        },
        {
          "internalType": "address",
          "name": "ethAddress",
          "type": "address"
        }
      ],
      "name": "postNote4Address",
      "outputs": [
        {
          "internalType": "uint256",
          "name": "",
          "type": "uint256"
        }
      ],
      "stateMutability": "nonpayable",
      "type": "function"
    },
    {
      "inputs": [
        {
          "components": [
            {
              "internalType": "uint256",
              "name": "characterId",
              "type": "uint256"
            },
            {
              "internalType": "string",
              "name": "contentUri",
              "type": "string"
            },
            {
              "internalType": "address",
              "name": "linkModule",
              "type": "address"
            },
            {
              "internalType": "bytes",
              "name": "linkModuleInitData",
              "type": "bytes"
            },
            {
              "internalType": "address",
              "name": "mintModule",
              "type": "address"
            },
            {
              "internalType": "bytes",
              "name": "mintModuleInitData",
              "type": "bytes"
            },
            {
              "internalType": "bool",
              "name": "locked",
              "type": "bool"
            }
          ],
          "internalType": "struct DataTypes.PostNoteData",
          "name": "postNoteData",
          "type": "tuple"
        },
        {
          "internalType": "string",
          "name": "uri",
          "type": "string"
        }
      ],
      "name": "postNote4AnyUri",
      "outputs": [
        {
          "internalType": "uint256",
          "name": "",
          "type": "uint256"
        }
      ],
      "stateMutability": "nonpayable",
      "type": "function"
    },
    {
      "inputs": [
        {
          "components": [
            {
              "internalType": "uint256",
              "name": "characterId",
              "type": "uint256"
            },
            {
              "internalType": "string",
              "name": "contentUri",
              "type": "string"
            },
            {
              "internalType": "address",
              "name": "linkModule",
              "type": "address"
            },
            {
              "internalType": "bytes",
              "name": "linkModuleInitData",
              "type": "bytes"
            },
            {
              "internalType": "address",
              "name": "mintModule",
              "type": "address"
            },
            {
              "internalType": "bytes",
              "name": "mintModuleInitData",
              "type": "bytes"
            },
            {
              "internalType": "bool",
              "name": "locked",
              "type": "bool"
            }
          ],
          "internalType": "struct DataTypes.PostNoteData",
          "name": "postNoteData",
          "type": "tuple"
        },
        {
          "internalType": "uint256",
          "name": "toCharacterId",
          "type": "uint256"
        }
      ],
      "name": "postNote4Character",
      "outputs": [
        {
          "internalType": "uint256",
          "name": "",
          "type": "uint256"
        }
      ],
      "stateMutability": "nonpayable",
      "type": "function"
    },
    {
      "inputs": [
        {
          "components": [
            {
              "internalType": "uint256",
              "name": "characterId",
              "type": "uint256"
            },
            {
              "internalType": "string",
              "name": "contentUri",
              "type": "string"
            },
            {
              "internalType": "address",
              "name": "linkModule",
              "type": "address"
            },
            {
              "internalType": "bytes",
              "name": "linkModuleInitData",
              "type": "bytes"
            },
            {
              "internalType": "address",
              "name": "mintModule",
              "type": "address"
            },
            {
              "internalType": "bytes",
              "name": "mintModuleInitData",
              "type": "bytes"
            },
            {
              "internalType": "bool",
              "name": "locked",
              "type": "bool"
            }
          ],
          "internalType": "struct DataTypes.PostNoteData",
          "name": "postNoteData",
          "type": "tuple"
        },
        {
          "components": [
            {
              "internalType": "address",
              "name": "tokenAddress",
              "type": "address"
            },
            {
              "internalType": "uint256",
              "name": "erc721TokenId",
              "type": "uint256"
            }
          ],
          "internalType": "struct DataTypes.ERC721Struct",
          "name": "erc721",
          "type": "tuple"
        }
      ],
      "name": "postNote4ERC721",
      "outputs": [
        {
          "internalType": "uint256",
          "name": "",
          "type": "uint256"
        }
      ],
      "stateMutability": "nonpayable",
      "type": "function"
    },
    {
      "inputs": [
        {
          "components": [
            {
              "internalType": "uint256",
              "name": "characterId",
              "type": "uint256"
            },
            {
              "internalType": "string",
              "name": "contentUri",
              "type": "string"
            },
            {
              "internalType": "address",
              "name": "linkModule",
              "type": "address"
            },
            {
              "internalType": "bytes",
              "name": "linkModuleInitData",
              "type": "bytes"
            },
            {
              "internalType": "address",
              "name": "mintModule",
              "type": "address"
            },
            {
              "internalType": "bytes",
              "name": "mintModuleInitData",
              "type": "bytes"
            },
            {
              "internalType": "bool",
              "name": "locked",
              "type": "bool"
            }
          ],
          "internalType": "struct DataTypes.PostNoteData",
          "name": "noteData",
          "type": "tuple"
        },
        {
          "internalType": "uint256",
          "name": "toLinklistId",
          "type": "uint256"
        }
      ],
      "name": "postNote4Linklist",
      "outputs": [
        {
          "internalType": "uint256",
          "name": "",
          "type": "uint256"
        }
      ],
      "stateMutability": "nonpayable",
      "type": "function"
    },
    {
      "inputs": [
        {
          "components": [
            {
              "internalType": "uint256",
              "name": "characterId",
              "type": "uint256"
            },
            {
              "internalType": "string",
              "name": "contentUri",
              "type": "string"
            },
            {
              "internalType": "address",
              "name": "linkModule",
              "type": "address"
            },
            {
              "internalType": "bytes",
              "name": "linkModuleInitData",
              "type": "bytes"
            },
            {
              "internalType": "address",
              "name": "mintModule",
              "type": "address"
            },
            {
              "internalType": "bytes",
              "name": "mintModuleInitData",
              "type": "bytes"
            },
            {
              "internalType": "bool",
              "name": "locked",
              "type": "bool"
            }
          ],
          "internalType": "struct DataTypes.PostNoteData",
          "name": "postNoteData",
          "type": "tuple"
        },
        {
          "components": [
            {
              "internalType": "uint256",
              "name": "characterId",
              "type": "uint256"
            },
            {
              "internalType": "uint256",
              "name": "noteId",
              "type": "uint256"
            }
          ],
          "internalType": "struct DataTypes.NoteStruct",
          "name": "note",
          "type": "tuple"
        }
      ],
      "name": "postNote4Note",
      "outputs": [
        {
          "internalType": "uint256",
          "name": "",
          "type": "uint256"
        }
      ],
      "stateMutability": "nonpayable",
      "type": "function"
    },
    {
      "inputs": [],
      "name": "resolver",
      "outputs": [
        {
          "internalType": "address",
          "name": "",
          "type": "address"
        }
      ],
      "stateMutability": "view",
      "type": "function"
    },
    {
      "inputs": [
        {
          "internalType": "address",
          "name": "from",
          "type": "address"
        },
        {
          "internalType": "address",
          "name": "to",
          "type": "address"
        },
        {
          "internalType": "uint256",
          "name": "tokenId",
          "type": "uint256"
        }
      ],
      "name": "safeTransferFrom",
      "outputs": [],
      "stateMutability": "nonpayable",
      "type": "function"
    },
    {
      "inputs": [
        {
          "internalType": "address",
          "name": "from",
          "type": "address"
        },
        {
          "internalType": "address",
          "name": "to",
          "type": "address"
        },
        {
          "internalType": "uint256",
          "name": "tokenId",
          "type": "uint256"
        },
        {
          "internalType": "bytes",
          "name": "_data",
          "type": "bytes"
        }
      ],
      "name": "safeTransferFrom",
      "outputs": [],
      "stateMutability": "nonpayable",
      "type": "function"
    },
    {
      "inputs": [
        {
          "internalType": "address",
          "name": "operator",
          "type": "address"
        },
        {
          "internalType": "bool",
          "name": "approved",
          "type": "bool"
        }
      ],
      "name": "setApprovalForAll",
      "outputs": [],
      "stateMutability": "nonpayable",
      "type": "function"
    },
    {
      "inputs": [
        {
          "internalType": "uint256",
          "name": "characterId",
          "type": "uint256"
        },
        {
          "internalType": "string",
          "name": "newUri",
          "type": "string"
        }
      ],
      "name": "setCharacterUri",
      "outputs": [],
      "stateMutability": "nonpayable",
      "type": "function"
    },
    {
      "inputs": [
        {
          "internalType": "uint256",
          "name": "characterId",
          "type": "uint256"
        },
        {
          "internalType": "string",
          "name": "newHandle",
          "type": "string"
        }
      ],
      "name": "setHandle",
      "outputs": [],
      "stateMutability": "nonpayable",
      "type": "function"
    },
    {
      "inputs": [
        {
          "components": [
            {
              "internalType": "address",
              "name": "account",
              "type": "address"
            },
            {
              "internalType": "address",
              "name": "linkModule",
              "type": "address"
            },
            {
              "internalType": "bytes",
              "name": "linkModuleInitData",
              "type": "bytes"
            }
          ],
          "internalType": "struct DataTypes.setLinkModule4AddressData",
          "name": "vars",
          "type": "tuple"
        }
      ],
      "name": "setLinkModule4Address",
      "outputs": [],
      "stateMutability": "nonpayable",
      "type": "function"
    },
    {
      "inputs": [
        {
          "components": [
            {
              "internalType": "uint256",
              "name": "linklistId",
              "type": "uint256"
            },
            {
              "internalType": "address",
              "name": "linkModule",
              "type": "address"
            },
            {
              "internalType": "bytes",
              "name": "linkModuleInitData",
              "type": "bytes"
            }
          ],
          "internalType": "struct DataTypes.setLinkModule4LinklistData",
          "name": "vars",
          "type": "tuple"
        }
      ],
      "name": "setLinkModule4Linklist",
      "outputs": [],
      "stateMutability": "nonpayable",
      "type": "function"
    },
    {
      "inputs": [
        {
          "internalType": "uint256",
          "name": "linklistId",
          "type": "uint256"
        },
        {
          "internalType": "string",
          "name": "uri",
          "type": "string"
        }
      ],
      "name": "setLinklistUri",
      "outputs": [],
      "stateMutability": "nonpayable",
      "type": "function"
    },
    {
      "inputs": [
        {
          "components": [
            {
              "internalType": "uint256",
              "name": "characterId",
              "type": "uint256"
            },
            {
              "internalType": "uint256",
              "name": "noteId",
              "type": "uint256"
            },
            {
              "internalType": "address",
              "name": "mintModule",
              "type": "address"
            },
            {
              "internalType": "bytes",
              "name": "mintModuleInitData",
              "type": "bytes"
            }
          ],
          "internalType": "struct DataTypes.setMintModule4NoteData",
          "name": "vars",
          "type": "tuple"
        }
      ],
      "name": "setMintModule4Note",
      "outputs": [],
      "stateMutability": "nonpayable",
      "type": "function"
    },
    {
      "inputs": [
        {
          "internalType": "uint256",
          "name": "characterId",
          "type": "uint256"
        },
        {
          "internalType": "uint256",
          "name": "noteId",
          "type": "uint256"
        },
        {
          "internalType": "string",
          "name": "newUri",
          "type": "string"
        }
      ],
      "name": "setNoteUri",
      "outputs": [],
      "stateMutability": "nonpayable",
      "type": "function"
    },
    {
      "inputs": [
        {
          "internalType": "uint256",
          "name": "characterId",
          "type": "uint256"
        }
      ],
      "name": "setPrimaryCharacterId",
      "outputs": [],
      "stateMutability": "nonpayable",
      "type": "function"
    },
    {
      "inputs": [
        {
          "internalType": "uint256",
          "name": "characterId",
          "type": "uint256"
        },
        {
          "internalType": "address",
          "name": "tokenAddress",
          "type": "address"
        }
      ],
      "name": "setSocialToken",
      "outputs": [],
      "stateMutability": "nonpayable",
      "type": "function"
    },
    {
      "inputs": [
        {
          "internalType": "bytes4",
          "name": "interfaceId",
          "type": "bytes4"
        }
      ],
      "name": "supportsInterface",
      "outputs": [
        {
          "internalType": "bool",
          "name": "",
          "type": "bool"
        }
      ],
      "stateMutability": "view",
      "type": "function"
    },
    {
      "inputs": [],
      "name": "symbol",
      "outputs": [
        {
          "internalType": "string",
          "name": "",
          "type": "string"
        }
      ],
      "stateMutability": "view",
      "type": "function"
    },
    {
      "inputs": [
        {
          "internalType": "uint256",
          "name": "index",
          "type": "uint256"
        }
      ],
      "name": "tokenByIndex",
      "outputs": [
        {
          "internalType": "uint256",
          "name": "",
          "type": "uint256"
        }
      ],
      "stateMutability": "view",
      "type": "function"
    },
    {
      "inputs": [
        {
          "internalType": "address",
          "name": "owner",
          "type": "address"
        },
        {
          "internalType": "uint256",
          "name": "index",
          "type": "uint256"
        }
      ],
      "name": "tokenOfOwnerByIndex",
      "outputs": [
        {
          "internalType": "uint256",
          "name": "",
          "type": "uint256"
        }
      ],
      "stateMutability": "view",
      "type": "function"
    },
    {
      "inputs": [
        {
          "internalType": "uint256",
          "name": "characterId",
          "type": "uint256"
        }
      ],
      "name": "tokenURI",
      "outputs": [
        {
          "internalType": "string",
          "name": "",
          "type": "string"
        }
      ],
      "stateMutability": "view",
      "type": "function"
    },
    {
      "inputs": [],
      "name": "totalSupply",
      "outputs": [
        {
          "internalType": "uint256",
          "name": "",
          "type": "uint256"
        }
      ],
      "stateMutability": "view",
      "type": "function"
    },
    {
      "inputs": [
        {
          "internalType": "address",
          "name": "from",
          "type": "address"
        },
        {
          "internalType": "address",
          "name": "to",
          "type": "address"
        },
        {
          "internalType": "uint256",
          "name": "tokenId",
          "type": "uint256"
        }
      ],
      "name": "transferFrom",
      "outputs": [],
      "stateMutability": "nonpayable",
      "type": "function"
    },
    {
      "inputs": [
        {
          "components": [
            {
              "internalType": "uint256",
              "name": "fromCharacterId",
              "type": "uint256"
            },
            {
              "internalType": "address",
              "name": "ethAddress",
              "type": "address"
            },
            {
              "internalType": "bytes32",
              "name": "linkType",
              "type": "bytes32"
            }
          ],
          "internalType": "struct DataTypes.unlinkAddressData",
          "name": "vars",
          "type": "tuple"
        }
      ],
      "name": "unlinkAddress",
      "outputs": [],
      "stateMutability": "nonpayable",
      "type": "function"
    },
    {
      "inputs": [
        {
          "components": [
            {
              "internalType": "uint256",
              "name": "fromCharacterId",
              "type": "uint256"
            },
            {
              "internalType": "string",
              "name": "toUri",
              "type": "string"
            },
            {
              "internalType": "bytes32",
              "name": "linkType",
              "type": "bytes32"
            }
          ],
          "internalType": "struct DataTypes.unlinkAnyUriData",
          "name": "vars",
          "type": "tuple"
        }
      ],
      "name": "unlinkAnyUri",
      "outputs": [],
      "stateMutability": "nonpayable",
      "type": "function"
    },
    {
      "inputs": [
        {
          "components": [
            {
              "internalType": "uint256",
              "name": "fromCharacterId",
              "type": "uint256"
            },
            {
              "internalType": "uint256",
              "name": "toCharacterId",
              "type": "uint256"
            },
            {
              "internalType": "bytes32",
              "name": "linkType",
              "type": "bytes32"
            }
          ],
          "internalType": "struct DataTypes.unlinkCharacterData",
          "name": "vars",
          "type": "tuple"
        }
      ],
      "name": "unlinkCharacter",
      "outputs": [],
      "stateMutability": "nonpayable",
      "type": "function"
    },
    {
      "inputs": [
        {
          "components": [
            {
              "internalType": "uint256",
              "name": "fromCharacterId",
              "type": "uint256"
            },
            {
              "internalType": "address",
              "name": "tokenAddress",
              "type": "address"
            },
            {
              "internalType": "uint256",
              "name": "tokenId",
              "type": "uint256"
            },
            {
              "internalType": "bytes32",
              "name": "linkType",
              "type": "bytes32"
            }
          ],
          "internalType": "struct DataTypes.unlinkERC721Data",
          "name": "vars",
          "type": "tuple"
        }
      ],
      "name": "unlinkERC721",
      "outputs": [],
      "stateMutability": "nonpayable",
      "type": "function"
    },
    {
      "inputs": [
        {
          "components": [
            {
              "internalType": "uint256",
              "name": "fromCharacterId",
              "type": "uint256"
            },
            {
              "internalType": "uint256",
              "name": "toLinkListId",
              "type": "uint256"
            },
            {
              "internalType": "bytes32",
              "name": "linkType",
              "type": "bytes32"
            }
          ],
          "internalType": "struct DataTypes.unlinkLinklistData",
          "name": "vars",
          "type": "tuple"
        }
      ],
      "name": "unlinkLinklist",
      "outputs": [],
      "stateMutability": "nonpayable",
      "type": "function"
    },
    {
      "inputs": [
        {
          "components": [
            {
              "internalType": "uint256",
              "name": "fromCharacterId",
              "type": "uint256"
            },
            {
              "internalType": "uint256",
              "name": "toCharacterId",
              "type": "uint256"
            },
            {
              "internalType": "uint256",
              "name": "toNoteId",
              "type": "uint256"
            },
            {
              "internalType": "bytes32",
              "name": "linkType",
              "type": "bytes32"
            }
          ],
          "internalType": "struct DataTypes.unlinkNoteData",
          "name": "vars",
          "type": "tuple"
        }
      ],
      "name": "unlinkNote",
      "outputs": [],
      "stateMutability": "nonpayable",
      "type": "function"
    }
  ],
  "bytecode": "0x608060405234801561001057600080fd5b50615b8180620000216000396000f3fe608060405234801561001057600080fd5b50600436106104335760003560e01c806374f345cf11610236578063c053f6b81161013b578063db491e80116100c3578063ef0828ab11610087578063ef0828ab14610a46578063f2ad807514610a59578063f316bacd14610a6c578063f6479d7714610a7f578063fe9299fb14610a9257600080fd5b8063db491e80146109b1578063dc17b6de146109d1578063dca27135146109e4578063e985e9c5146109f7578063ec81d19414610a3357600080fd5b8063cd69fe611161010a578063cd69fe611461093a578063d23b320b1461094d578063d70e10c614610960578063dabb05311461098b578063db0ed6a01461099e57600080fd5b8063c053f6b8146108f0578063c2a6fe3b14610901578063c87b56dd14610914578063cb8e757e1461092757600080fd5b80639864c307116101be578063a6e6178d1161018d578063a6e6178d14610891578063a7ccb4bf146108a4578063af90b112146108b7578063b88d4fde146108ca578063b9d32845146108dd57600080fd5b80639864c307146108385780639a4dec181461084b5780639a50248d1461085e578063a22cb4651461087e57600080fd5b806392f7070b1161020557806392f7070b146107c157806393f057e5146107d4578063952be0ef146107e757806395d89b411461081d57806395d9fa7d1461082557600080fd5b806374f345cf14610775578063867884e6146107885780638734bbfc1461079b5780638b4ca06a146107ae57600080fd5b80632f745c591161033c57806347f94de7116102c45780635fb88183116102935780635fb8818314610709578063628b644a1461071c5780636352211e1461072f5780636bf55d5f1461074257806370a082311461076257600080fd5b806347f94de7146106af57806349186953146106c25780634f6ccce7146106e35780635a936d10146106f657600080fd5b8063388f50831161030b578063388f50831461065057806340ad34d81461066357806342842e0e1461067657806342966c681461068957806344b82a241461069c57600080fd5b80632f745c59146105eb57806331b9d08c146105fe578063327b2a031461062a57806333f06ee61461063d57600080fd5b8063144a3e83116103bf5780632209d1451161038e5780632209d1451461055357806323b872dd1461058957806328fbb8051461059c57806329c301c2146105af5780632abc6bf6146105c257600080fd5b8063144a3e831461051257806318160ddd14610525578063188b04b31461052d578063206657f21461054057600080fd5b806308cb68ff1161040657806308cb68ff146104b3578063095ea7b3146104c85780630c4dd5f2146104db5780630ff98244146104ee5780631316529d1461050157600080fd5b806301ffc9a71461043857806304f3bcec1461046057806306fdde031461048b578063081812fc146104a0575b600080fd5b61044b6104463660046143fe565b610abb565b60405190151581526020015b60405180910390f35b601754610473906001600160a01b031681565b6040516001600160a01b039091168152602001610457565b610493610ae6565b604051610457919061446b565b6104736104ae36600461447e565b610b78565b6104c66104c13660046144af565b610c12565b005b6104c66104d63660046144f8565b610ce9565b6104c66104e93660046144af565b610dfe565b6104c66104fc366004614524565b610f08565b60045b604051908152602001610457565b61049361052036600461447e565b610f9a565b600854610504565b6104c661053b366004614552565b610fa5565b6104c661054e366004614586565b611043565b6104736105613660046144f8565b6001600160a01b03918216600090815260106020908152604080832093835292905220541690565b6104c66105973660046145be565b6110db565b61044b6105aa3660046145ee565b61110c565b6105046105bd366004614639565b611123565b6105046105d036600461466d565b6001600160a01b03166000908152600c602052604090205490565b6105046105f93660046144f8565b6111d1565b61047361060c36600461466d565b6001600160a01b039081166000908152601160205260409020541690565b61050461063836600461469c565b611267565b6104c661064b366004614722565b611427565b6104c661065e366004614552565b61150e565b6104c661067136600461476d565b611563565b6104c66106843660046145be565b6115df565b6104c661069736600461447e565b6115fa565b6105046106aa366004614789565b611697565b6104c66106bd366004614722565b61170f565b6106d56106d03660046147cd565b611776565b604051610457929190614833565b6105046106f136600461447e565b6117e7565b6104c6610704366004614524565b61187a565b6104c6610717366004614552565b61190c565b6104c661072a366004614861565b611961565b61047361073d36600461447e565b6119ee565b61075561075036600461447e565b611a65565b60405161045791906148b3565b61050461077036600461466d565b611a7f565b6104c66107833660046147cd565b611b06565b6104c661079636600461476d565b611b80565b61044b6107a936600461447e565b611bf2565b6105046107bc36600461447e565b611c20565b6105046107cf3660046148c6565b611c8c565b6104c66107e2366004614524565b611d1d565b6105046107f5366004614917565b60009182526019602090815260408084206001600160a01b0393909316845291905290205490565b610493611d8e565b6104c6610833366004614917565b611d9d565b6104c6610846366004614552565b611e2f565b61050461085936600461469c565b611e84565b61087161086c36600461493c565b611f8e565b604051610457919061497d565b6104c661088c366004614a09565b61213d565b6104c661089f366004614722565b612148565b6105046108b2366004614552565b6121be565b6105046108c5366004614789565b612262565b6104c66108d8366004614aa2565b6122a2565b6104c66108eb366004614b62565b6122da565b6013546001600160a01b0316610473565b6104c661090f3660046147cd565b612344565b61049361092236600461447e565b6123b6565b6104c6610935366004614b62565b61245b565b610504610948366004614b62565b6124cd565b6104c661095b366004614552565b61260b565b61050461096e3660046147cd565b6000918252600d6020908152604080842092845291905290205490565b61087161099936600461447e565b612696565b6104c66109ac366004614b96565b61281d565b6109c46109bf3660046147cd565b6129c3565b6040516104579190614c3e565b6104c66109df366004614d18565b612b24565b6104936109f236600461447e565b612bb5565b61044b610a05366004614d9a565b6001600160a01b03918216600090815260056020908152604080832093909416825291909152205460ff1690565b610493610a4136600461447e565b612c27565b6104c6610a543660046144af565b612c47565b6104c6610a6736600461447e565b612cb8565b610504610a7a366004614dc8565b612d07565b6104c6610a8d366004614524565b612e65565b610473610aa036600461447e565b6000908152600f60205260409020546001600160a01b031690565b60006001600160e01b0319821663780e9d6360e01b1480610ae05750610ae082612eae565b92915050565b606060008054610af590614e23565b80601f0160208091040260200160405190810160405280929190818152602001828054610b2190614e23565b8015610b6e5780601f10610b4357610100808354040283529160200191610b6e565b820191906000526020600020905b815481529060010190602001808311610b5157829003601f168201915b5050505050905090565b6000818152600260205260408120546001600160a01b0316610bf65760405162461bcd60e51b815260206004820152602c60248201527f4552433732313a20617070726f76656420717565727920666f72206e6f6e657860448201526b34b9ba32b73a103a37b5b2b760a11b60648201526084015b60405180910390fd5b506000908152600460205260409020546001600160a01b031690565b610c1f602082018261466d565b6001600160a01b0316336001600160a01b031614610c505760405163ca67421960e01b815260040160405180910390fd5b73__$69db18565ecbefece480e92cc5f8fb1274$__63dfc34f25610c77602084018461466d565b610c87604085016020860161466d565b610c946040860186614e57565b60116040518663ffffffff1660e01b8152600401610cb6959493929190614ec6565b60006040518083038186803b158015610cce57600080fd5b505af4158015610ce2573d6000803e3d6000fd5b5050505050565b6000610cf4826119ee565b9050806001600160a01b0316836001600160a01b031603610d615760405162461bcd60e51b815260206004820152602160248201527f4552433732313a20617070726f76616c20746f2063757272656e74206f776e656044820152603960f91b6064820152608401610bed565b336001600160a01b0382161480610d7d5750610d7d8133610a05565b610def5760405162461bcd60e51b815260206004820152603860248201527f4552433732313a20617070726f76652063616c6c6572206973206e6f74206f7760448201527f6e6572206e6f7220617070726f76656420666f7220616c6c00000000000000006064820152608401610bed565b610df98383612efe565b505050565b6013546040516367880d6160e11b8152823560048201526000916001600160a01b03169063cf101ac290602401602060405180830381865afa158015610e48573d6000803e3d6000fd5b505050506040513d601f19601f82011682018060405250810190610e6c9190614f05565b9050610e798160c1612f6c565b73__$69db18565ecbefece480e92cc5f8fb1274$__636252159e8335610ea5604086016020870161466d565b610eb26040870187614e57565b600f6040518663ffffffff1660e01b8152600401610ed4959493929190614f1e565b60006040518083038186803b158015610eec57600080fd5b505af4158015610f00573d6000803e3d6000fd5b505050505050565b610f14813560b2612f6c565b60135481356000818152600d6020908152604080832081870135808552908352928190205490516328066f9160e21b8152600481019490945290850135602484015260448301919091526001600160a01b039092166064820152608481019190915273__$e2c9a8f399964af47bb173600dd9e5f662$__9063a019be449060a401610cb6565b6060610ae0826123b6565b610fb1813560b2612f6c565b610fbe8160200135612ffd565b73__$e2c9a8f399964af47bb173600dd9e5f662$__639ec52a23823560208401356040850135610ff16060870187614e57565b6013546020808a01356000908152600a9091526040908190206005015490516001600160e01b031960e08a901b168152610cb69796959493926001600160a01b03908116921690600d90600401614f49565b61104e836002612f6c565b604051631f8c0b6760e11b8152600481018490526001600160a01b038316602482015260448101829052601860648201526019608482015273__$bfdcc7011a2e80c167e18378382b8de19c$__90633f1816ce9060a4015b60006040518083038186803b1580156110be57600080fd5b505af41580156110d2573d6000803e3d6000fd5b50505050505050565b6110e53382613035565b6111015760405162461bcd60e51b8152600401610bed90614f96565b610df983838361312c565b60006111198484846132d3565b90505b9392505050565b6000611131823560ec612f6c565b81356000908152600a602052604081206003018054829061115190614ffd565b91829055506040516342a34a5360e01b815290915073__$2873850e5b3f5697aafc2f5cd9f27cc884$__906342a34a539061119a90869085906000908190600e90600401615120565b60006040518083038186803b1580156111b257600080fd5b505af41580156111c6573d6000803e3d6000fd5b509295945050505050565b60006111dc83611a7f565b821061123e5760405162461bcd60e51b815260206004820152602b60248201527f455243373231456e756d657261626c653a206f776e657220696e646578206f7560448201526a74206f6620626f756e647360a81b6064820152608401610bed565b506001600160a01b03919091166000908152600660209081526040808320938352929052205490565b6000611275833560ca612f6c565b61128f611285602084018461466d565b8360200135613385565b6013546545524337323160d01b906000906001600160a01b0316632ea24efc826112bc602088018861466d565b6040516001600160e01b031960e085901b16815260048101929092526001600160a01b03166024820152602087013560448201526064016020604051808303816000875af1158015611312573d6000803e3d6000fd5b505050506040513d601f19601f820116820180604052508101906113369190614f05565b85356000908152600a6020526040812060030180549293509091829061135b90614ffd565b9182905550905073__$2873850e5b3f5697aafc2f5cd9f27cc884$__6342a34a538783868661138d60208c018c61466d565b8b602001356040516020016113bb92919060609290921b6001600160601b0319168252601482015260340190565b604051602081830303815290604052600e6040518763ffffffff1660e01b81526004016113ed96959493929190615165565b60006040518083038186803b15801561140557600080fd5b505af4158015611419573d6000803e3d6000fd5b509298975050505050505050565b6013546040516367880d6160e11b8152600481018590526000916001600160a01b03169063cf101ac290602401602060405180830381865afa158015611471573d6000803e3d6000fd5b505050506040513d601f19601f820116820180604052508101906114959190614f05565b90506114a28160b1612f6c565b601354604051633c17845760e11b81526001600160a01b039091169063782f08ae906114d6908790879087906004016151b0565b600060405180830381600087803b1580156114f057600080fd5b505af1158015611504573d6000803e3d6000fd5b5050505050505050565b61151a813560b9612f6c565b60135460405163e4bb4f2360e01b815273__$e2c9a8f399964af47bb173600dd9e5f662$__9163e4bb4f2391610cb69185916001600160a01b0390911690600d906004016151ca565b61156f813560b6612f6c565b60135460408051635cebf08d60e11b81528335600482015260208401356024820152908301356044820152606083013560648201526001600160a01b039091166084820152600d60a482015273__$e2c9a8f399964af47bb173600dd9e5f662$__9063b9d7e11a9060c401610cb6565b610df9838383604051806020016040528060008152506122a2565b6000818152600a602052604080822090516116189160010190615238565b60408051918290039091206000818152600b6020908152838220829055858252600a905291822082815590925090611653600183018261434d565b61166160028301600061434d565b50600060038201556004810180546001600160a01b03199081169091556005909101805490911690556116938261341d565b5050565b60006116a5833560c8612f6c565b82356000908152600a60205260408120600301805467131a5b9adb1a5cdd60c21b928592909182906116d690614ffd565b919050819055905073__$2873850e5b3f5697aafc2f5cd9f27cc884$__6342a34a53878386868a6040516020016113bb91815260200190565b61171a8360b0612f6c565b6000838152600a602052604090206002016117368284836152f4565b50827f17d7c9f69270ba135480ef16837f38b9d37d3ab291cbd3ba03982290c663199783836040516117699291906153b3565b60405180910390a2505050565b6000828152601a60209081526040808320848452825280832080548452600101909152902060609081906117a99061347c565b6000858152601a6020908152604080832087845282528083206002810154845260030190915290209092506117dd9061347c565b90505b9250929050565b60006117f260085490565b82106118555760405162461bcd60e51b815260206004820152602c60248201527f455243373231456e756d657261626c653a20676c6f62616c20696e646578206f60448201526b7574206f6620626f756e647360a01b6064820152608401610bed565b60088281548110611868576118686153c7565b90600052602060002001549050919050565b611886813560be612f6c565b60135481356000818152600d60209081526040808320818701358085529083529281902054905163d862986560e01b8152600481019490945290850135602484015260448301919091526001600160a01b039092166064820152608481019190915273__$e2c9a8f399964af47bb173600dd9e5f662$__9063d86298659060a401610cb6565b611918813560bb612f6c565b6013546040516332f107bf60e01b815273__$e2c9a8f399964af47bb173600dd9e5f662$__916332f107bf91610cb69185916001600160a01b0390911690600d906004016153dd565b61196b8484613489565b61197584846134ee565b61197f8484613565565b6040516001626802bf60e01b0319815273__$2873850e5b3f5697aafc2f5cd9f27cc884$__9063ff97fd41906119c2908790879087908790600e9060040161545a565b60006040518083038186803b1580156119da57600080fd5b505af4158015611504573d6000803e3d6000fd5b6000818152600260205260408120546001600160a01b031680610ae05760405162461bcd60e51b815260206004820152602960248201527f4552433732313a206f776e657220717565727920666f72206e6f6e657869737460448201526832b73a103a37b5b2b760b91b6064820152608401610bed565b6000818152601860205260409020606090610ae09061347c565b60006001600160a01b038216611aea5760405162461bcd60e51b815260206004820152602a60248201527f4552433732313a2062616c616e636520717565727920666f7220746865207a65604482015269726f206164647265737360b01b6064820152608401610bed565b506001600160a01b031660009081526003602052604090205490565b611b118260c4612f6c565b611b1b82826134ee565b6000828152600e60209081526040808320848452825291829020600501805460ff60a81b1916600160a81b179055905182815283917f036469f3e73c83520cdefa197d7a9c854c2f8bc0164b82e9f2bd4aa7e150fd3091015b60405180910390a25050565b611b8c813560b8612f6c565b60135481356000908152600d6020908152604080832060608601358452909152908190205490516317e9a8b160e31b815273__$e2c9a8f399964af47bb173600dd9e5f662$__9263bf4d458892610cb69286926001600160a01b0316919060040161547a565b600080611bfe836119ee565b6001600160a01b03166000908152600c60205260409020549290921492915050565b60135460405162fba02760e01b8152600481018390526000916001600160a01b03169062fba02790602401602060405180830381865afa158015611c68573d6000803e3d6000fd5b505050506040513d601f19601f82011682018060405250810190610ae09190614f05565b6000611c9a833560c7612f6c565b82356000908152600a602052604081206003018054664164647265737360c81b926001600160a01b0386169290918290611cd390614ffd565b919050819055905073__$2873850e5b3f5697aafc2f5cd9f27cc884$__6342a34a53878386868a6040516020016113bb919060609190911b6001600160601b031916815260140190565b611d29813560ba612f6c565b60135481356000908152600d6020908152604080832081860135845290915290819020549051633d7f9b3d60e11b815273__$e2c9a8f399964af47bb173600dd9e5f662$__92637aff367a92610cb69286926001600160a01b031691906004016154cc565b606060018054610af590614e23565b611da8826001612f6c565b6000828152600a60205260409020600401546001600160a01b031615611de15760405163fe6f50e560e01b815260040160405180910390fd5b6040516384b44a2f60e01b8152600481018390526001600160a01b0382166024820152600a604482015273__$d8529f0216812a2dec6b96adf1943c3537$__906384b44a2f90606401610ed4565b611e3b813560bd612f6c565b601354604051635fe5df1d60e11b815273__$e2c9a8f399964af47bb173600dd9e5f662$__9163bfcbbe3a91610cb69185916001600160a01b0390911690600d90600401615514565b6000611e92833560c9612f6c565b601354604051635cb46be760e01b81526000600482018190528435602483015260208501356044830152634e6f746560e01b9290916001600160a01b0390911690635cb46be7906064016020604051808303816000875af1158015611efb573d6000803e3d6000fd5b505050506040513d601f19601f82011682018060405250810190611f1f9190614f05565b85356000908152600a60205260408120600301805492935090918290611f4490614ffd565b919050819055905073__$2873850e5b3f5697aafc2f5cd9f27cc884$__6342a34a53878386868a600001358b602001356040516020016113bb929190918252602082015260400190565b611f96614387565b60008383604051611fa8929190615574565b604080519182900382206000818152600b602090815283822054808352600a82529184902060c0860190945283548552600184018054939650919493929084019190611ff390614e23565b80601f016020809104026020016040519081016040528092919081815260200182805461201f90614e23565b801561206c5780601f106120415761010080835404028352916020019161206c565b820191906000526020600020905b81548152906001019060200180831161204f57829003601f168201915b5050505050815260200160028201805461208590614e23565b80601f01602080910402602001604051908101604052809291908181526020018280546120b190614e23565b80156120fe5780601f106120d3576101008083540402835291602001916120fe565b820191906000526020600020905b8154815290600101906020018083116120e157829003601f168201915b50505091835250506003820154602082015260048201546001600160a01b03908116604083015260059092015490911660609091015295945050505050565b6116933383836135aa565b612153836000612f6c565b6121738282604051612166929190615574565b6040518091039020613678565b61217d82826136a5565b60405163130f361d60e01b815273__$d8529f0216812a2dec6b96adf1943c3537$__9063130f361d906110a690869086908690600b90600a90600401615584565b60006121cf823560208401356134ee565b73__$2873850e5b3f5697aafc2f5cd9f27cc884$__635be6941583356020850135612200606087016040880161466d565b61220d6060880188614e57565b6014546040516001600160e01b031960e089901b1681526122459695949392916001600160a01b031690600a90600e906004016155b2565b602060405180830381865af4158015611c68573d6000803e3d6000fd5b6000612270833560c6612f6c565b82356000908152600a6020526040812060030180546821b430b930b1ba32b960b91b928592909182906116d690614ffd565b6122ac3383613035565b6122c85760405162461bcd60e51b8152600401610bed90614f96565b6122d48484848461370b565b50505050565b6122e6813560b5612f6c565b6122f8816020013582604001356134ee565b601354604051631619823f60e31b815273__$e2c9a8f399964af47bb173600dd9e5f662$__9163b0cc11f891610cb69185916001600160a01b0390911690600e90600d90600401615600565b61234f8260c5612f6c565b61235982826134ee565b6000828152600e60209081526040808320848452825291829020600501805460ff60a01b1916600160a01b179055905182815283917f4f1db9708b537c1d26a7af4b235fd079bf2342d92a276e27eb6c8717e8bbcf939101611b74565b6000818152600a602052604090206002018054606091906123d690614e23565b80601f016020809104026020016040519081016040528092919081815260200182805461240290614e23565b801561244f5780601f106124245761010080835404028352916020019161244f565b820191906000526020600020905b81548152906001019060200180831161243257829003601f168201915b50505050509050919050565b612467813560b7612f6c565b61248461247a604083016020840161466d565b8260400135613385565b601354604051638f3334ff60e01b815273__$e2c9a8f399964af47bb173600dd9e5f662$__91638f3334ff91610cb69185916001600160a01b0390911690600d90600401615676565b60006124ed6124df6020840184614e57565b604051612166929190615574565b6125026124fd6020840184614e57565b6136a5565b60126000815461251190614ffd565b9182905550905061252e612528602084018461466d565b8261373e565b60405163470cc98960e11b815273__$d8529f0216812a2dec6b96adf1943c3537$__90638e1993129061256d9085908590600b90600a906004016156d9565b60006040518083038186803b15801561258557600080fd5b505af4158015612599573d6000803e3d6000fd5b50600c9250600091506125b19050602085018561466d565b6001600160a01b03166001600160a01b03168152602001908152602001600020546000036126065780600c60006125eb602086018661466d565b6001600160a01b031681526020810191909152604001600020555b919050565b612617813560c2612f6c565b612626813560208301356134ee565b61263581356020830135613565565b73__$69db18565ecbefece480e92cc5f8fb1274$__6320828a0282356020840135612666606086016040870161466d565b6126736060870187614e57565b600e6040518763ffffffff1660e01b8152600401610cb6969594939291906157a8565b61269e614387565b600a60008381526020019081526020016000206040518060c0016040529081600082015481526020016001820180546126d690614e23565b80601f016020809104026020016040519081016040528092919081815260200182805461270290614e23565b801561274f5780601f106127245761010080835404028352916020019161274f565b820191906000526020600020905b81548152906001019060200180831161273257829003601f168201915b5050505050815260200160028201805461276890614e23565b80601f016020809104026020016040519081016040528092919081815260200182805461279490614e23565b80156127e15780601f106127b6576101008083540402835291602001916127e1565b820191906000526020600020905b8154815290600101906020018083116127c457829003601f168201915b50505091835250506003820154602082015260048201546001600160a01b03908116604083015260059092015490911660609091015292915050565b601454600160a81b900460ff161580801561284557506014546001600160a01b90910460ff16105b806128665750303b1580156128665750601454600160a01b900460ff166001145b6128c95760405162461bcd60e51b815260206004820152602e60248201527f496e697469616c697a61626c653a20636f6e747261637420697320616c72656160448201526d191e481a5b9a5d1a585b1a5e995960921b6064820152608401610bed565b6014805460ff60a01b1916600160a01b17905580156128f6576014805460ff60a81b1916600160a81b1790555b61290288888888613758565b601380546001600160a01b038681166001600160a01b0319928316179092556014805486841690831617905560158054928516929091169190911790556040514281527f400175a56dd3710794078f7b9dbe8296ac94c5a248dfd51bb22ed4ab9eaa9fbf9060200160405180910390a18015611504576014805460ff60a81b19169055604051600181527f7f26b83ff96e1f2b6a682f133852f6798a09c465da95921460cefb38474024989060200160405180910390a15050505050505050565b60408051610100808201835260008083526020808401829052606084860181905284018290526080840182905260a0840182905260c0840182905260e08401829052868252600e81528482208683528152908490208451928301855280548352600181015491830191909152600281018054939492939192840191612a4790614e23565b80601f0160208091040260200160405190810160405280929190818152602001828054612a7390614e23565b8015612ac05780601f10612a9557610100808354040283529160200191612ac0565b820191906000526020600020905b815481529060010190602001808311612aa357829003601f168201915b505050918352505060038201546001600160a01b039081166020830152600483015481166040830152600590920154918216606082015260ff600160a01b8304811615156080830152600160a81b909204909116151560a090910152905092915050565b612b2f866003612f6c565b612b3986866134ee565b604051630afb883f60e41b815273__$bfdcc7011a2e80c167e18378382b8de19c$__9063afb883f090612b7d90899089908990899089908990601a90600401615827565b60006040518083038186803b158015612b9557600080fd5b505af4158015612ba9573d6000803e3d6000fd5b50505050505050505050565b601354604051632b05429560e21b8152600481018390526060916001600160a01b03169063ac150a5490602401600060405180830381865afa158015612bff573d6000803e3d6000fd5b505050506040513d6000823e601f3d908101601f19168201604052610ae0919081019061586f565b6000818152600a602052604090206001018054606091906123d690614e23565b612c53813560bc612f6c565b60135481356000908152600d602090815260408083208186013584529091529081902054905163bf5c00c160e01b815273__$e2c9a8f399964af47bb173600dd9e5f662$__9263bf5c00c192610cb69286926001600160a01b031691906004016158dc565b612cc1816137a9565b336000818152600c602052604080822080549085905590519092839285927fce95332e6082aebeb8058a7b56d1a109f67d6550552ed04d36aca4a6acd4d7de9190a45050565b6000612d15843560cb612f6c565b601354604051633610bf0960e11b815265416e7955726960d01b916000916001600160a01b0390911690636c217e1290612d57908490899089906004016151b0565b6020604051808303816000875af1158015612d76573d6000803e3d6000fd5b505050506040513d601f19601f82011682018060405250810190612d9a9190614f05565b86356000908152600a60205260408120600301805492935090918290612dbf90614ffd565b919050819055905073__$2873850e5b3f5697aafc2f5cd9f27cc884$__6342a34a53888386868b8b604051602001612df8929190615574565b604051602081830303815290604052600e6040518763ffffffff1660e01b8152600401612e2a96959493929190615165565b60006040518083038186803b158015612e4257600080fd5b505af4158015612e56573d6000803e3d6000fd5b50929998505050505050505050565b612e71813560b4612f6c565b612eab8135612e86604084016020850161466d565b836040013560405180604001604052806002815260200161060f60f31b81525061380f565b50565b60006001600160e01b031982166380ac58cd60e01b1480612edf57506001600160e01b03198216635b5e139f60e01b145b80610ae057506301ffc9a760e01b6001600160e01b0319831614610ae0565b600081815260046020526040902080546001600160a01b0319166001600160a01b0384169081179091558190612f33826119ee565b6001600160a01b03167f8c5be1e5ebec7d5bd14f71427d1e84f3dd0314c0f7b2291e5b200ac8c7c3b92560405160405180910390a45050565b612f7582613a33565b15612f7e575050565b6015546001600160a01b03163303612fba576000828152601960209081526040808320328452909152902054600190821c811603612fba575050565b6000828152601960209081526040808320338452909152902054600190821c811603612fe4575050565b604051632c4bc2b960e21b815260040160405180910390fd5b6000818152600260205260409020546001600160a01b0316612eab576040516375af0fc960e11b815260048101829052602401610bed565b6000818152600260205260408120546001600160a01b03166130ae5760405162461bcd60e51b815260206004820152602c60248201527f4552433732313a206f70657261746f7220717565727920666f72206e6f6e657860448201526b34b9ba32b73a103a37b5b2b760a11b6064820152608401610bed565b60006130b9836119ee565b9050806001600160a01b0316846001600160a01b031614806130f45750836001600160a01b03166130e984610b78565b6001600160a01b0316145b8061312457506001600160a01b0380821660009081526005602090815260408083209388168352929052205460ff165b949350505050565b826001600160a01b031661313f826119ee565b6001600160a01b0316146131a35760405162461bcd60e51b815260206004820152602560248201527f4552433732313a207472616e736665722066726f6d20696e636f72726563742060448201526437bbb732b960d91b6064820152608401610bed565b6001600160a01b0382166132055760405162461bcd60e51b8152602060048201526024808201527f4552433732313a207472616e7366657220746f20746865207a65726f206164646044820152637265737360e01b6064820152608401610bed565b613210838383613a93565b61321b600082612efe565b6001600160a01b0383166000908152600360205260408120805460019290613244908490615934565b90915550506001600160a01b0382166000908152600360205260408120805460019290613272908490615947565b909155505060008181526002602052604080822080546001600160a01b0319166001600160a01b0386811691821790925591518493918716917fddf252ad1be2c89b69c2b068fc378daa952ba7f163c4a11628f55a4df523b3ef91a4505050565b6000838152601a6020908152604080832085845282528083208054808552600182019093529083209091906133089085613b4b565b156133185760009250505061111c565b506002810154600081815260038301602052604090206133389085613b4b565b156133485760019250505061111c565b60008681526019602090815260408083206001600160a01b038816845290915290205461337b9060c31c60019081161490565b9695505050505050565b6040516331a9108f60e11b8152600481018290526000906001600160a01b03841690636352211e90602401602060405180830381865afa1580156133cd573d6000803e3d6000fd5b505050506040513d601f19601f820116820180604052508101906133f1919061595a565b90506001600160a01b038116600003610df957604051631b96896160e21b815260040160405180910390fd5b6134273382613035565b6134735760405162461bcd60e51b815260206004820152601b60248201527f4e4654426173653a204e6f744f776e65724f72417070726f76656400000000006044820152606401610bed565b612eab81613b6d565b6060600061111c83613c14565b61349282613a33565b1561349b575050565b6015546001600160a01b031633036134c1576134b88282326132d3565b156134c1575050565b6134cc8282336132d3565b156134d5575050565b604051631a1d1d4760e11b815260040160405180910390fd5b6000828152600e60209081526040808320848452909152902060050154600160a01b900460ff161561353357604051631f0fc8f560e11b815260040160405180910390fd5b6000828152600a6020526040902060030154811115611693576040516364783acb60e01b815260040160405180910390fd5b6000828152600e60209081526040808320848452909152902060050154600160a81b900460ff161561169357604051630bc06a0f60e21b815260040160405180910390fd5b816001600160a01b0316836001600160a01b03160361360b5760405162461bcd60e51b815260206004820152601960248201527f4552433732313a20617070726f766520746f2063616c6c6572000000000000006044820152606401610bed565b6001600160a01b03838116600081815260056020908152604080832094871680845294825291829020805460ff191686151590811790915591519182527f17307eab39ab6107e8899845ad3d59bd9653f200f220920489ca2b5937696c31910160405180910390a3505050565b6000818152600b602052604090205415612eab57604051631b659b9f60e21b815260040160405180910390fd5b8181601f8111806136b65750600381105b156136d457604051636f819c2160e11b815260040160405180910390fd5b60005b81811015610ce2576137038383838181106136f4576136f46153c7565b9050013560f81c60f81b613c6f565b6001016136d7565b61371684848461312c565b61372284848484613d1d565b6122d45760405162461bcd60e51b8152600401610bed90615977565b611693828260405180602001604052806000815250613e1e565b61376484848484613e51565b7f414cd0b34676984f09a5f76ce9718d4062e50283abe0e7e274a9a5b4e0c99c30848484844260405161379b9594939291906159c9565b60405180910390a150505050565b60006137b4826119ee565b6015549091506001600160a01b0316331480156137d95750326001600160a01b038216145b156137e2575050565b6001600160a01b03811633036137f6575050565b604051631b0c476f60e11b815260040160405180910390fd5b6001600160a01b0383166000908152600c602052604090205415613846576040516317a4570160e01b815260040160405180910390fd5b6040516001600160601b0319606085901b16602082015261387f9060340160405160208183030381529060405280519060200120613678565b600060126000815461389090614ffd565b918290555090506138a1848261373e565b73__$d8529f0216812a2dec6b96adf1943c3537$__638e1993126040518060a00160405280876001600160a01b03168152602001876040516020016138f9919060609190911b6001600160601b031916815260140190565b604051602081830303815290604052815260200160405180602001604052806000815250815260200160006001600160a01b031681526020016040518060200160405280600081525081525083600b600a6040518563ffffffff1660e01b81526004016139699493929190615a03565b60006040518083038186803b15801561398157600080fd5b505af4158015613995573d6000803e3d6000fd5b5050506001600160a01b038086166000908152600c60205260408082208590556013549051639ec52a2360e01b815273__$e2c9a8f399964af47bb173600dd9e5f662$__9450639ec52a23936139fc938b9388938b938b9392169190600d90600401615a9a565b60006040518083038186803b158015613a1457600080fd5b505af4158015613a28573d6000803e3d6000fd5b505050505050505050565b600080613a3f836119ee565b90506001600160a01b0381163303613a5a5750600192915050565b6015546001600160a01b031633148015613a7c5750326001600160a01b038216145b15613a8a5750600192915050565b50600092915050565b6000818152601860205260408120613aaa90613e6c565b600083815260186020526040812091925090613ac59061347c565b905060005b82811015613b0757613af584838381518110613ae857613ae86153c7565b6020026020010151613e76565b80613aff81614ffd565b915050613aca565b506001600160a01b0385166000908152600c602052604090205415613b40576001600160a01b0385166000908152600c60205260408120555b610ce2858585613eaf565b6001600160a01b0381166000908152600183016020526040812054151561111c565b6000613b78826119ee565b9050613b8681600084613a93565b613b91600083612efe565b6001600160a01b0381166000908152600360205260408120805460019290613bba908490615934565b909155505060008281526002602052604080822080546001600160a01b0319169055518391906001600160a01b038416907fddf252ad1be2c89b69c2b068fc378daa952ba7f163c4a11628f55a4df523b3ef908390a45050565b60608160000180548060200260200160405190810160405280929190818152602001828054801561244f57602002820191906000526020600020905b815481526020019060010190808311613c505750505050509050919050565b600360fc1b6001600160f81b031982161080613c985750603d60f91b6001600160f81b03198216115b80613cc85750603960f81b6001600160f81b03198216118015613cc85750606160f81b6001600160f81b03198216105b8015613ce25750602d60f81b6001600160f81b0319821614155b8015613cfc5750605f60f81b6001600160f81b0319821614155b15612eab576040516001621693dd60e01b0319815260040160405180910390fd5b60006001600160a01b0384163b15613e1357604051630a85bd0160e11b81526001600160a01b0385169063150b7a0290613d61903390899088908890600401615ae5565b6020604051808303816000875af1925050508015613d9c575060408051601f3d908101601f19168201909252613d9991810190615b18565b60015b613df9573d808015613dca576040519150601f19603f3d011682016040523d82523d6000602084013e613dcf565b606091505b508051600003613df15760405162461bcd60e51b8152600401610bed90615977565b805181602001fd5b6001600160e01b031916630a85bd0160e11b149050613124565b506001949350505050565b613e288383613f67565b613e356000848484613d1d565b610df95760405162461bcd60e51b8152600401610bed90615977565b6000613e5e8486836152f4565b506001610ce28284836152f4565b6000610ae0825490565b60008281526019602090815260408083206001600160a01b0385168452825280832083905584835260189091529020610df990826140b5565b6001600160a01b038316613f0a57613f0581600880546000838152600960205260408120829055600182018355919091527ff3f7a9fe364faab93b216da50a3214154f22a0a2b415b23a84c8169e8b636ee30155565b613f2d565b816001600160a01b0316836001600160a01b031614613f2d57613f2d83826140ca565b6001600160a01b038216613f4457610df981614167565b826001600160a01b0316826001600160a01b031614610df957610df98282614216565b6001600160a01b038216613fbd5760405162461bcd60e51b815260206004820181905260248201527f4552433732313a206d696e7420746f20746865207a65726f20616464726573736044820152606401610bed565b6000818152600260205260409020546001600160a01b0316156140225760405162461bcd60e51b815260206004820152601c60248201527f4552433732313a20746f6b656e20616c7265616479206d696e746564000000006044820152606401610bed565b61402e60008383613a93565b6001600160a01b0382166000908152600360205260408120805460019290614057908490615947565b909155505060008181526002602052604080822080546001600160a01b0319166001600160a01b03861690811790915590518392907fddf252ad1be2c89b69c2b068fc378daa952ba7f163c4a11628f55a4df523b3ef908290a45050565b600061111c836001600160a01b03841661425a565b600060016140d784611a7f565b6140e19190615934565b600083815260076020526040902054909150808214614134576001600160a01b03841660009081526006602090815260408083208584528252808320548484528184208190558352600790915290208190555b5060009182526007602090815260408084208490556001600160a01b039094168352600681528383209183525290812055565b60085460009061417990600190615934565b600083815260096020526040812054600880549394509092849081106141a1576141a16153c7565b9060005260206000200154905080600883815481106141c2576141c26153c7565b60009182526020808320909101929092558281526009909152604080822084905585825281205560088054806141fa576141fa615b35565b6001900381819060005260206000200160009055905550505050565b600061422183611a7f565b6001600160a01b039093166000908152600660209081526040808320868452825280832085905593825260079052919091209190915550565b6000818152600183016020526040812054801561434357600061427e600183615934565b855490915060009061429290600190615934565b90508181146142f75760008660000182815481106142b2576142b26153c7565b90600052602060002001549050808760000184815481106142d5576142d56153c7565b6000918252602080832090910192909255918252600188019052604090208390555b855486908061430857614308615b35565b600190038181906000526020600020016000905590558560010160008681526020019081526020016000206000905560019350505050610ae0565b6000915050610ae0565b50805461435990614e23565b6000825580601f10614369575050565b601f016020900490600052602060002090810190612eab91906143cf565b6040518060c001604052806000815260200160608152602001606081526020016000815260200160006001600160a01b0316815260200160006001600160a01b031681525090565b5b808211156143e457600081556001016143d0565b5090565b6001600160e01b031981168114612eab57600080fd5b60006020828403121561441057600080fd5b813561111c816143e8565b60005b8381101561443657818101518382015260200161441e565b50506000910152565b6000815180845261445781602086016020860161441b565b601f01601f19169290920160200192915050565b60208152600061111c602083018461443f565b60006020828403121561449057600080fd5b5035919050565b6000606082840312156144a957600080fd5b50919050565b6000602082840312156144c157600080fd5b81356001600160401b038111156144d757600080fd5b61312484828501614497565b6001600160a01b0381168114612eab57600080fd5b6000806040838503121561450b57600080fd5b8235614516816144e3565b946020939093013593505050565b60006060828403121561453657600080fd5b61111c8383614497565b6000608082840312156144a957600080fd5b60006020828403121561456457600080fd5b81356001600160401b0381111561457a57600080fd5b61312484828501614540565b60008060006060848603121561459b57600080fd5b8335925060208401356145ad816144e3565b929592945050506040919091013590565b6000806000606084860312156145d357600080fd5b83356145de816144e3565b925060208401356145ad816144e3565b60008060006060848603121561460357600080fd5b8335925060208401359150604084013561461c816144e3565b809150509250925092565b600060e082840312156144a957600080fd5b60006020828403121561464b57600080fd5b81356001600160401b0381111561466157600080fd5b61312484828501614627565b60006020828403121561467f57600080fd5b813561111c816144e3565b6000604082840312156144a957600080fd5b600080606083850312156146af57600080fd5b82356001600160401b038111156146c557600080fd5b6146d185828601614627565b9250506117dd846020850161468a565b60008083601f8401126146f357600080fd5b5081356001600160401b0381111561470a57600080fd5b6020830191508360208285010111156117e057600080fd5b60008060006040848603121561473757600080fd5b8335925060208401356001600160401b0381111561475457600080fd5b614760868287016146e1565b9497909650939450505050565b60006080828403121561477f57600080fd5b61111c8383614540565b6000806040838503121561479c57600080fd5b82356001600160401b038111156147b257600080fd5b6147be85828601614627565b95602094909401359450505050565b600080604083850312156147e057600080fd5b50508035926020909101359150565b600081518084526020808501945080840160005b838110156148285781516001600160a01b031687529582019590820190600101614803565b509495945050505050565b60408152600061484660408301856147ef565b828103602084015261485881856147ef565b95945050505050565b6000806000806060858703121561487757600080fd5b843593506020850135925060408501356001600160401b0381111561489b57600080fd5b6148a7878288016146e1565b95989497509550505050565b60208152600061111c60208301846147ef565b600080604083850312156148d957600080fd5b82356001600160401b038111156148ef57600080fd5b6148fb85828601614627565b925050602083013561490c816144e3565b809150509250929050565b6000806040838503121561492a57600080fd5b82359150602083013561490c816144e3565b6000806020838503121561494f57600080fd5b82356001600160401b0381111561496557600080fd5b614971858286016146e1565b90969095509350505050565b60208152815160208201526000602083015160c060408401526149a360e084018261443f565b90506040840151601f198483030160608501526149c0828261443f565b91505060608401516080840152608084015160018060a01b0380821660a08601528060a08701511660c086015250508091505092915050565b8035801515811461260657600080fd5b60008060408385031215614a1c57600080fd5b8235614a27816144e3565b91506117dd602084016149f9565b634e487b7160e01b600052604160045260246000fd5b604051601f8201601f191681016001600160401b0381118282101715614a7357614a73614a35565b604052919050565b60006001600160401b03821115614a9457614a94614a35565b50601f01601f191660200190565b60008060008060808587031215614ab857600080fd5b8435614ac3816144e3565b93506020850135614ad3816144e3565b92506040850135915060608501356001600160401b03811115614af557600080fd5b8501601f81018713614b0657600080fd5b8035614b19614b1482614a7b565b614a4b565b818152886020838501011115614b2e57600080fd5b8160208401602083013760006020838301015280935050505092959194509250565b600060a082840312156144a957600080fd5b600060208284031215614b7457600080fd5b81356001600160401b03811115614b8a57600080fd5b61312484828501614b50565b600080600080600080600060a0888a031215614bb157600080fd5b87356001600160401b0380821115614bc857600080fd5b614bd48b838c016146e1565b909950975060208a0135915080821115614bed57600080fd5b50614bfa8a828b016146e1565b9096509450506040880135614c0e816144e3565b92506060880135614c1e816144e3565b91506080880135614c2e816144e3565b8091505092959891949750929550565b60208152815160208201526020820151604082015260006040830151610100806060850152614c7161012085018361443f565b9150606085015160018060a01b0380821660808701528060808801511660a0870152505060a0850151614caf60c08601826001600160a01b03169052565b5060c085015180151560e08601525060e0850151801515858301525090949350505050565b60008083601f840112614ce657600080fd5b5081356001600160401b03811115614cfd57600080fd5b6020830191508360208260051b85010111156117e057600080fd5b60008060008060008060808789031215614d3157600080fd5b863595506020870135945060408701356001600160401b0380821115614d5657600080fd5b614d628a838b01614cd4565b90965094506060890135915080821115614d7b57600080fd5b50614d8889828a01614cd4565b979a9699509497509295939492505050565b60008060408385031215614dad57600080fd5b8235614db8816144e3565b9150602083013561490c816144e3565b600080600060408486031215614ddd57600080fd5b83356001600160401b0380821115614df457600080fd5b614e0087838801614627565b94506020860135915080821115614e1657600080fd5b50614760868287016146e1565b600181811c90821680614e3757607f821691505b6020821081036144a957634e487b7160e01b600052602260045260246000fd5b6000808335601e19843603018112614e6e57600080fd5b8301803591506001600160401b03821115614e8857600080fd5b6020019150368190038213156117e057600080fd5b81835281816020850137506000828201602090810191909152601f909101601f19169091010190565b6001600160a01b03868116825285166020820152608060408201819052600090614ef39083018587614e9d565b90508260608301529695505050505050565b600060208284031215614f1757600080fd5b5051919050565b8581526001600160a01b0385166020820152608060408201819052600090614ef39083018587614e9d565b88815287602082015286604082015260e060608201526000614f6f60e083018789614e9d565b6001600160a01b0395861660808401529390941660a082015260c001529695505050505050565b60208082526031908201527f4552433732313a207472616e736665722063616c6c6572206973206e6f74206f6040820152701ddb995c881b9bdc88185c1c1c9bdd9959607a1b606082015260800190565b634e487b7160e01b600052601160045260246000fd5b60006001820161500f5761500f614fe7565b5060010190565b6000808335601e1984360301811261502d57600080fd5b83016020810192503590506001600160401b0381111561504c57600080fd5b8036038213156117e057600080fd5b80358252600061506e6020830183615016565b60e0602086015261508360e086018284614e9d565b9150506040830135615094816144e3565b6001600160a01b0381811660408701526150b16060860186615016565b925086840360608801526150c6848483614e9d565b935050608085013591506150d9826144e3565b1660808501526150ec60a0840184615016565b85830360a08701526150ff838284614e9d565b9250505061510f60c084016149f9565b151560c08501528091505092915050565b60c08152600061513360c083018861505b565b602083810197909752604083019590955250606081019290925281830360808301526000835260a09091015201919050565b60c08152600061517860c083018961505b565b876020840152866040840152856060840152828103608084015261519c818661443f565b9150508260a0830152979650505050505050565b838152604060208201526000614858604083018486614e9d565b6060815283356060820152600060208501356151e5816144e3565b6001600160a01b038181166080850152604087013560a085015261520c6060880188615016565b9250608060c086015261522360e086018483614e9d565b96909116602085015250505060400152919050565b600080835461524681614e23565b6001828116801561525e5760018114615273576152a2565b60ff19841687528215158302870194506152a2565b8760005260208060002060005b858110156152995781548a820152908401908201615280565b50505082870194505b50929695505050505050565b601f821115610df957600081815260208120601f850160051c810160208610156152d55750805b601f850160051c820191505b81811015610f00578281556001016152e1565b6001600160401b0383111561530b5761530b614a35565b61531f836153198354614e23565b836152ae565b6000601f841160018114615353576000851561533b5750838201355b600019600387901b1c1916600186901b178355610ce2565b600083815260209020601f19861690835b828110156153845786850135825560209485019460019092019101615364565b50868210156153a15760001960f88860031b161c19848701351681555b505060018560011b0183555050505050565b602081526000611119602083018486614e9d565b634e487b7160e01b600052603260045260246000fd5b606081528335606082015260006153f76020860186615016565b60808085015261540b60e085018284614e9d565b915050604086013560a08401526154256060870187615016565b848303605f190160c086015261543c838284614e9d565b6001600160a01b039790971660208601525050505060400152919050565b858152846020820152608060408201526000614ef3608083018587614e9d565b8335815260c081016020850135615490816144e3565b6001600160a01b039081166020840152604086810135908401526060958601359583019590955292909316608084015260a09092019190915290565b8335815260a0810160208501356154e2816144e3565b6001600160a01b0390811660208401526040958601359583019590955292909316606084015260809092019190915290565b606081528335606082015260208401356080820152604084013560a082015260006155426060860186615016565b608060c085015261555760e085018284614e9d565b6001600160a01b0396909616602085015250505060400152919050565b8183823760009101908152919050565b85815260806020820152600061559e608083018688614e9d565b604083019490945250606001529392505050565b888152876020820152600060018060a01b03808916604084015260e060608401526155e160e08401888a614e9d565b951660808301525060a081019290925260c09091015295945050505050565b6080815284356080820152602085013560a0820152604085013560c0820152606085013560e082015260006156386080870187615016565b60a061010085015261564f61012085018284614e9d565b6001600160a01b039790971660208501525050506040810192909252606090910152919050565b606081528335606082015260006020850135615691816144e3565b60018060a01b038082166080850152604087013560a0850152606087013560c08501526156c16080880188615016565b925060a060e086015261522361010086018483614e9d565b60808152600085356156ea816144e3565b6001600160a01b0381811660808501526157076020890189615016565b925060a08086015261571e61012086018483614e9d565b92505061572e6040890189615016565b607f19808786030160c0880152615746858385614e9d565b945060608b01359250615758836144e3565b83831660e088015261576d60808c018c615016565b9450925080878603016101008801525050615789838383614e9d565b6020860198909852505050506040810192909252606090910152919050565b86815285602082015260018060a01b038516604082015260a0606082015260006157d660a083018587614e9d565b9050826080830152979650505050505050565b8183526000602080850194508260005b8581101561482857813561580c816144e3565b6001600160a01b0316875295820195908201906001016157f9565b87815286602082015260a06040820152600061584760a0830187896157e9565b828103606084015261585a8186886157e9565b91505082608083015298975050505050505050565b60006020828403121561588157600080fd5b81516001600160401b0381111561589757600080fd5b8201601f810184136158a857600080fd5b80516158b6614b1482614a7b565b8181528560208385010111156158cb57600080fd5b61485882602083016020860161441b565b606081528335606082015260006158f66020860186615016565b6060608085015261590b60c085018284614e9d565b60409788013560a08601526001600160a01b039690961660208501525050509092019190915290565b81810381811115610ae057610ae0614fe7565b80820180821115610ae057610ae0614fe7565b60006020828403121561596c57600080fd5b815161111c816144e3565b60208082526032908201527f4552433732313a207472616e7366657220746f206e6f6e20455243373231526560408201527131b2b4bb32b91034b6b83632b6b2b73a32b960711b606082015260800190565b6060815260006159dd606083018789614e9d565b82810360208401526159f0818688614e9d565b9150508260408301529695505050505050565b60808152600060018060a01b03808751166080840152602087015160a080850152615a3261012085018261443f565b90506040880151607f19808684030160c0870152615a50838361443f565b92508360608b01511660e087015260808a0151935080868403016101008701525050615a7c818361443f565b60208501979097525050506040810192909252606090910152919050565b87815286602082015285604082015260e060608201526000615abf60e083018761443f565b6001600160a01b0395861660808401529390941660a082015260c0015295945050505050565b6001600160a01b038581168252841660208201526040810183905260806060820181905260009061337b9083018461443f565b600060208284031215615b2a57600080fd5b815161111c816143e8565b634e487b7160e01b600052603160045260246000fdfea2646970667358221220ee2ac53880aa3363c968cd2b9368897d9620c03b8812d3dc717ed5da8b46291364736f6c63430008100033",
  "linkReferences": {
    "contracts/libraries/CharacterLogic.sol": {
      "CharacterLogic": [
        {
          "length": 20,
          "start": 7726
        },
        {
          "length": 20,
          "start": 8621
        },
        {
          "length": 20,
          "start": 9566
        },
        {
          "length": 20,
          "start": 14532
        }
      ]
    },
    "contracts/libraries/LinkLogic.sol": {
      "LinkLogic": [
        {
          "length": 20,
          "start": 3993
        },
        {
          "length": 20,
          "start": 4065
        },
        {
          "length": 20,
          "start": 5453
        },
        {
          "length": 20,
          "start": 5598
        },
        {
          "length": 20,
          "start": 6411
        },
        {
          "length": 20,
          "start": 6475
        },
        {
          "length": 20,
          "start": 7136
        },
        {
          "length": 20,
          "start": 7548
        },
        {
          "length": 20,
          "start": 7790
        },
        {
          "length": 20,
          "start": 9003
        },
        {
          "length": 20,
          "start": 9399
        },
        {
          "length": 20,
          "start": 11430
        },
        {
          "length": 20,
          "start": 14823
        }
      ]
    },
    "contracts/libraries/LinkModuleLogic.sol": {
      "LinkModuleLogic": [
        {
          "length": 20,
          "start": 3187
        },
        {
          "length": 20,
          "start": 3740
        },
        {
          "length": 20,
          "start": 9816
        }
      ]
    },
    "contracts/libraries/OperatorLogic.sol": {
      "OperatorLogic": [
        {
          "length": 20,
          "start": 4265
        },
        {
          "length": 20,
          "start": 11113
        }
      ]
    },
    "contracts/libraries/PostLogic.sol": {
      "PostLogic": [
        {
          "length": 20,
          "start": 4489
        },
        {
          "length": 20,
          "start": 4997
        },
        {
          "length": 20,
          "start": 5889
        },
        {
          "length": 20,
          "start": 6578
        },
        {
          "length": 20,
          "start": 7422
        },
        {
          "length": 20,
          "start": 8047
        },
        {
          "length": 20,
          "start": 8690
        },
        {
          "length": 20,
          "start": 11754
        }
      ]
    }
  },
  "deployedLinkReferences": {
    "contracts/libraries/CharacterLogic.sol": {
      "CharacterLogic": [
        {
          "length": 20,
          "start": 7693
        },
        {
          "length": 20,
          "start": 8588
        },
        {
          "length": 20,
          "start": 9533
        },
        {
          "length": 20,
          "start": 14499
        }
      ]
    },
    "contracts/libraries/LinkLogic.sol": {
      "LinkLogic": [
        {
          "length": 20,
          "start": 3960
        },
        {
          "length": 20,
          "start": 4032
        },
        {
          "length": 20,
          "start": 5420
        },
        {
          "length": 20,
          "start": 5565
        },
        {
          "length": 20,
          "start": 6378
        },
        {
          "length": 20,
          "start": 6442
        },
        {
          "length": 20,
          "start": 7103
        },
        {
          "length": 20,
          "start": 7515
        },
        {
          "length": 20,
          "start": 7757
        },
        {
          "length": 20,
          "start": 8970
        },
        {
          "length": 20,
          "start": 9366
        },
        {
          "length": 20,
          "start": 11397
        },
        {
          "length": 20,
          "start": 14790
        }
      ]
    },
    "contracts/libraries/LinkModuleLogic.sol": {
      "LinkModuleLogic": [
        {
          "length": 20,
          "start": 3154
        },
        {
          "length": 20,
          "start": 3707
        },
        {
          "length": 20,
          "start": 9783
        }
      ]
    },
    "contracts/libraries/OperatorLogic.sol": {
      "OperatorLogic": [
        {
          "length": 20,
          "start": 4232
        },
        {
          "length": 20,
          "start": 11080
        }
      ]
    },
    "contracts/libraries/PostLogic.sol": {
      "PostLogic": [
        {
          "length": 20,
          "start": 4456
        },
        {
          "length": 20,
          "start": 4964
        },
        {
          "length": 20,
          "start": 5856
        },
        {
          "length": 20,
          "start": 6545
        },
        {
          "length": 20,
          "start": 7389
        },
        {
          "length": 20,
          "start": 8014
        },
        {
          "length": 20,
          "start": 8657
        },
        {
          "length": 20,
          "start": 11721
        }
      ]
    }
  }
}