{
  "_format": "hh-sol-artifact-1",
  "contractName": "Web3Entry",
  "sourceName": "contracts/Web3Entry.sol",
  "abi": [
    {
      "anonymous": false,
      "inputs": [
        {
          "indexed": true,
          "internalType": "address",
          "name": "owner",
          "type": "address"
        },
        {
          "indexed": true,
          "internalType": "address",
          "name": "approved",
          "type": "address"
        },
        {
          "indexed": true,
          "internalType": "uint256",
          "name": "tokenId",
          "type": "uint256"
        }
      ],
      "name": "Approval",
      "type": "event"
    },
    {
      "anonymous": false,
      "inputs": [
        {
          "indexed": true,
          "internalType": "address",
          "name": "owner",
          "type": "address"
        },
        {
          "indexed": true,
          "internalType": "address",
          "name": "operator",
          "type": "address"
        },
        {
          "indexed": false,
          "internalType": "bool",
          "name": "approved",
          "type": "bool"
        }
      ],
      "name": "ApprovalForAll",
      "type": "event"
    },
    {
      "anonymous": false,
      "inputs": [
        {
          "indexed": true,
          "internalType": "address",
          "name": "from",
          "type": "address"
        },
        {
          "indexed": true,
          "internalType": "address",
          "name": "to",
          "type": "address"
        },
        {
          "indexed": true,
          "internalType": "uint256",
          "name": "tokenId",
          "type": "uint256"
        }
      ],
      "name": "Transfer",
      "type": "event"
    },
    {
      "inputs": [
        {
          "internalType": "address",
          "name": "to",
          "type": "address"
        },
        {
          "internalType": "uint256",
          "name": "tokenId",
          "type": "uint256"
        }
      ],
      "name": "approve",
      "outputs": [],
      "stateMutability": "nonpayable",
      "type": "function"
    },
    {
      "inputs": [
        {
          "internalType": "uint256",
          "name": "linklistId",
          "type": "uint256"
        },
        {
          "internalType": "uint256",
          "name": "profileId",
          "type": "uint256"
        }
      ],
      "name": "attachLinklist",
      "outputs": [],
      "stateMutability": "nonpayable",
      "type": "function"
    },
    {
      "inputs": [
        {
          "internalType": "address",
          "name": "owner",
          "type": "address"
        }
      ],
      "name": "balanceOf",
      "outputs": [
        {
          "internalType": "uint256",
          "name": "",
          "type": "uint256"
        }
      ],
      "stateMutability": "view",
      "type": "function"
    },
    {
      "inputs": [
        {
          "components": [
            {
              "internalType": "address",
              "name": "to",
              "type": "address"
            },
            {
              "internalType": "string",
              "name": "handle",
              "type": "string"
            },
            {
              "internalType": "string",
              "name": "uri",
              "type": "string"
            },
            {
              "internalType": "address",
              "name": "linkModule",
              "type": "address"
            },
            {
              "internalType": "bytes",
              "name": "linkModuleInitData",
              "type": "bytes"
            }
          ],
          "internalType": "struct DataTypes.CreateProfileData",
          "name": "profileData",
          "type": "tuple"
        }
      ],
      "name": "createProfile",
      "outputs": [],
      "stateMutability": "nonpayable",
      "type": "function"
    },
    {
      "inputs": [
        {
          "internalType": "uint256",
          "name": "fromProfileId",
          "type": "uint256"
        },
        {
          "internalType": "address",
          "name": "to",
          "type": "address"
        },
        {
          "internalType": "bytes32",
          "name": "linkType",
          "type": "bytes32"
        }
      ],
      "name": "createThenLinkProfile",
      "outputs": [],
      "stateMutability": "nonpayable",
      "type": "function"
    },
    {
      "inputs": [
        {
          "internalType": "uint256",
          "name": "linklistId",
          "type": "uint256"
        },
        {
          "internalType": "uint256",
          "name": "profileId",
          "type": "uint256"
        }
      ],
      "name": "detachLinklist",
      "outputs": [],
      "stateMutability": "nonpayable",
      "type": "function"
    },
    {
      "inputs": [
        {
          "internalType": "uint256",
          "name": "tokenId",
          "type": "uint256"
        }
      ],
      "name": "getApproved",
      "outputs": [
        {
          "internalType": "address",
          "name": "",
          "type": "address"
        }
      ],
      "stateMutability": "view",
      "type": "function"
    },
    {
      "inputs": [
        {
          "internalType": "uint256",
          "name": "profileId",
          "type": "uint256"
        }
      ],
      "name": "getHandle",
      "outputs": [
        {
          "internalType": "string",
          "name": "",
          "type": "string"
        }
      ],
      "stateMutability": "view",
      "type": "function"
    },
    {
      "inputs": [
        {
          "internalType": "address",
          "name": "account",
          "type": "address"
        }
      ],
      "name": "getLinkModule4Address",
      "outputs": [
        {
          "internalType": "address",
          "name": "",
          "type": "address"
        }
      ],
      "stateMutability": "view",
      "type": "function"
    },
    {
      "inputs": [
        {
          "internalType": "address",
          "name": "tokenAddress",
          "type": "address"
        },
        {
          "internalType": "uint256",
          "name": "tokenId",
          "type": "uint256"
        }
      ],
      "name": "getLinkModule4ERC721",
      "outputs": [
        {
          "internalType": "address",
          "name": "",
          "type": "address"
        }
      ],
      "stateMutability": "view",
      "type": "function"
    },
    {
      "inputs": [
        {
          "internalType": "uint256",
          "name": "tokenId",
          "type": "uint256"
        }
      ],
      "name": "getLinkModule4Linklist",
      "outputs": [
        {
          "internalType": "address",
          "name": "",
          "type": "address"
        }
      ],
      "stateMutability": "view",
      "type": "function"
    },
    {
      "inputs": [
        {
          "internalType": "uint256",
          "name": "profileId",
          "type": "uint256"
        }
      ],
      "name": "getLinkModule4Profile",
      "outputs": [
        {
          "internalType": "address",
          "name": "",
          "type": "address"
        }
      ],
      "stateMutability": "view",
      "type": "function"
    },
    {
      "inputs": [
        {
          "internalType": "uint256",
          "name": "fromProfileId",
          "type": "uint256"
        },
        {
          "internalType": "bytes32",
          "name": "linkType",
          "type": "bytes32"
        }
      ],
      "name": "getLinkingProfileIds",
      "outputs": [
        {
          "internalType": "uint256[]",
          "name": "",
          "type": "uint256[]"
        }
      ],
      "stateMutability": "view",
      "type": "function"
    },
    {
      "inputs": [],
      "name": "getLinklistContract",
      "outputs": [
        {
          "internalType": "address",
          "name": "",
          "type": "address"
        }
      ],
      "stateMutability": "view",
      "type": "function"
    },
    {
      "inputs": [
        {
          "internalType": "uint256",
          "name": "profileId",
          "type": "uint256"
        },
        {
          "internalType": "bytes32",
          "name": "linkType",
          "type": "bytes32"
        }
      ],
      "name": "getLinklistUri",
      "outputs": [
        {
          "internalType": "string",
          "name": "",
          "type": "string"
        }
      ],
      "stateMutability": "view",
      "type": "function"
    },
    {
      "inputs": [
        {
          "internalType": "uint256",
          "name": "profileId",
          "type": "uint256"
        },
        {
          "internalType": "uint256",
          "name": "noteId",
          "type": "uint256"
        }
      ],
      "name": "getMintModule4Note",
      "outputs": [
        {
          "internalType": "address",
          "name": "",
          "type": "address"
        }
      ],
      "stateMutability": "view",
      "type": "function"
    },
    {
      "inputs": [
        {
          "internalType": "uint256",
          "name": "profileId",
          "type": "uint256"
        },
        {
          "internalType": "uint256",
          "name": "noteId",
          "type": "uint256"
        }
      ],
      "name": "getNoteUri",
      "outputs": [
        {
          "internalType": "string",
          "name": "",
          "type": "string"
        }
      ],
      "stateMutability": "view",
      "type": "function"
    },
    {
      "inputs": [
        {
          "internalType": "address",
          "name": "account",
          "type": "address"
        }
      ],
      "name": "getPrimaryProfileId",
      "outputs": [
        {
          "internalType": "uint256",
          "name": "",
          "type": "uint256"
        }
      ],
      "stateMutability": "view",
      "type": "function"
    },
    {
      "inputs": [
        {
          "internalType": "uint256",
          "name": "profileId",
          "type": "uint256"
        }
      ],
      "name": "getProfile",
      "outputs": [
        {
          "components": [
            {
              "internalType": "uint256",
              "name": "profileId",
              "type": "uint256"
            },
            {
              "internalType": "string",
              "name": "handle",
              "type": "string"
            },
            {
              "internalType": "string",
              "name": "uri",
              "type": "string"
            },
            {
              "internalType": "uint256",
              "name": "noteCount",
              "type": "uint256"
            },
            {
              "internalType": "address",
              "name": "socialToken",
              "type": "address"
            },
            {
              "internalType": "address",
              "name": "linkModule",
              "type": "address"
            }
          ],
          "internalType": "struct DataTypes.Profile",
          "name": "",
          "type": "tuple"
        }
      ],
      "stateMutability": "view",
      "type": "function"
    },
    {
      "inputs": [
        {
          "internalType": "string",
          "name": "handle",
          "type": "string"
        }
      ],
      "name": "getProfileByHandle",
      "outputs": [
        {
          "components": [
            {
              "internalType": "uint256",
              "name": "profileId",
              "type": "uint256"
            },
            {
              "internalType": "string",
              "name": "handle",
              "type": "string"
            },
            {
              "internalType": "string",
              "name": "uri",
              "type": "string"
            },
            {
              "internalType": "uint256",
              "name": "noteCount",
              "type": "uint256"
            },
            {
              "internalType": "address",
              "name": "socialToken",
              "type": "address"
            },
            {
              "internalType": "address",
              "name": "linkModule",
              "type": "address"
            }
          ],
          "internalType": "struct DataTypes.Profile",
          "name": "",
          "type": "tuple"
        }
      ],
      "stateMutability": "view",
      "type": "function"
    },
    {
      "inputs": [
        {
          "internalType": "uint256",
          "name": "profileId",
          "type": "uint256"
        }
      ],
      "name": "getProfileUri",
      "outputs": [
        {
          "internalType": "string",
          "name": "",
          "type": "string"
        }
      ],
      "stateMutability": "view",
      "type": "function"
    },
    {
      "inputs": [
        {
          "internalType": "string",
          "name": "_name",
          "type": "string"
        },
        {
          "internalType": "string",
          "name": "_symbol",
          "type": "string"
        },
        {
          "internalType": "address",
          "name": "_linkListContract",
          "type": "address"
        },
        {
          "internalType": "address",
          "name": "_mintNFTImpl",
          "type": "address"
        }
      ],
      "name": "initialize",
      "outputs": [],
      "stateMutability": "nonpayable",
      "type": "function"
    },
    {
      "inputs": [
        {
          "internalType": "address",
          "name": "owner",
          "type": "address"
        },
        {
          "internalType": "address",
          "name": "operator",
          "type": "address"
        }
      ],
      "name": "isApprovedForAll",
      "outputs": [
        {
          "internalType": "bool",
          "name": "",
          "type": "bool"
        }
      ],
      "stateMutability": "view",
      "type": "function"
    },
    {
      "inputs": [
        {
          "internalType": "uint256",
          "name": "profileId",
          "type": "uint256"
        }
      ],
      "name": "isPrimaryProfile",
      "outputs": [
        {
          "internalType": "bool",
          "name": "",
          "type": "bool"
        }
      ],
      "stateMutability": "view",
      "type": "function"
    },
    {
      "inputs": [
        {
          "internalType": "uint256",
          "name": "fromProfileId",
          "type": "uint256"
        },
        {
          "internalType": "address",
          "name": "ethAddress",
          "type": "address"
        },
        {
          "internalType": "bytes32",
          "name": "linkType",
          "type": "bytes32"
        }
      ],
      "name": "linkAddress",
      "outputs": [],
      "stateMutability": "nonpayable",
      "type": "function"
    },
    {
      "inputs": [
        {
          "internalType": "uint256",
          "name": "fromProfileId",
          "type": "uint256"
        },
        {
          "internalType": "string",
          "name": "toUri",
          "type": "string"
        },
        {
          "internalType": "bytes32",
          "name": "linkType",
          "type": "bytes32"
        }
      ],
      "name": "linkAny",
      "outputs": [],
      "stateMutability": "nonpayable",
      "type": "function"
    },
    {
      "inputs": [
        {
          "internalType": "uint256",
          "name": "fromProfileId",
          "type": "uint256"
        },
        {
          "internalType": "address",
          "name": "tokenAddress",
          "type": "address"
        },
        {
          "internalType": "uint256",
          "name": "tokenId",
          "type": "uint256"
        },
        {
          "internalType": "bytes32",
          "name": "linkType",
          "type": "bytes32"
        }
      ],
      "name": "linkERC721",
      "outputs": [],
      "stateMutability": "nonpayable",
      "type": "function"
    },
    {
      "inputs": [
        {
          "internalType": "uint256",
          "name": "fromProfileId",
          "type": "uint256"
        },
        {
          "internalType": "uint256",
          "name": "toLinkListId",
          "type": "uint256"
        },
        {
          "internalType": "bytes32",
          "name": "linkType",
          "type": "bytes32"
        }
      ],
      "name": "linkLinklist",
      "outputs": [],
      "stateMutability": "nonpayable",
      "type": "function"
    },
    {
      "inputs": [
        {
          "internalType": "uint256",
          "name": "fromProfileId",
          "type": "uint256"
        },
        {
          "internalType": "uint256",
          "name": "toProfileId",
          "type": "uint256"
        },
        {
          "internalType": "uint256",
          "name": "toNoteId",
          "type": "uint256"
        },
        {
          "internalType": "bytes32",
          "name": "linkType",
          "type": "bytes32"
        }
      ],
      "name": "linkNote",
      "outputs": [],
      "stateMutability": "nonpayable",
      "type": "function"
    },
    {
      "inputs": [
        {
          "internalType": "uint256",
          "name": "fromProfileId",
          "type": "uint256"
        },
        {
          "internalType": "uint256",
          "name": "toProfileId",
          "type": "uint256"
        },
        {
          "internalType": "bytes32",
          "name": "linkType",
          "type": "bytes32"
        }
      ],
      "name": "linkProfile",
      "outputs": [],
      "stateMutability": "nonpayable",
      "type": "function"
    },
    {
      "inputs": [
        {
          "internalType": "uint256",
          "name": "fromProfileId",
          "type": "uint256"
        },
        {
          "components": [
            {
              "internalType": "uint256",
              "name": "fromProfileId",
              "type": "uint256"
            },
            {
              "internalType": "uint256",
              "name": "toProfileId",
              "type": "uint256"
            },
            {
              "internalType": "bytes32",
              "name": "linkType",
              "type": "bytes32"
            }
          ],
          "internalType": "struct DataTypes.ProfileLinkStruct",
          "name": "linkData",
          "type": "tuple"
        },
        {
          "internalType": "bytes32",
          "name": "linkType",
          "type": "bytes32"
        }
      ],
      "name": "linkProfileLink",
      "outputs": [],
      "stateMutability": "nonpayable",
      "type": "function"
    },
    {
      "inputs": [
        {
          "internalType": "uint256",
          "name": "profileId",
          "type": "uint256"
        },
        {
          "internalType": "uint256",
          "name": "noteId",
          "type": "uint256"
        },
        {
          "internalType": "address",
          "name": "to",
          "type": "address"
        },
        {
          "internalType": "bytes",
          "name": "mintModuleData",
          "type": "bytes"
        }
      ],
      "name": "mintNote",
      "outputs": [
        {
          "internalType": "uint256",
          "name": "",
          "type": "uint256"
        }
      ],
      "stateMutability": "nonpayable",
      "type": "function"
    },
    {
      "inputs": [],
      "name": "name",
      "outputs": [
        {
          "internalType": "string",
          "name": "",
          "type": "string"
        }
      ],
      "stateMutability": "view",
      "type": "function"
    },
    {
      "inputs": [
        {
          "internalType": "uint256",
          "name": "tokenId",
          "type": "uint256"
        }
      ],
      "name": "ownerOf",
      "outputs": [
        {
          "internalType": "address",
          "name": "",
          "type": "address"
        }
      ],
      "stateMutability": "view",
      "type": "function"
    },
    {
      "inputs": [
        {
          "components": [
            {
              "internalType": "uint256",
              "name": "profileId",
              "type": "uint256"
            },
            {
              "internalType": "string",
              "name": "contentUri",
              "type": "string"
            },
            {
              "internalType": "address",
              "name": "linkModule",
              "type": "address"
            },
            {
              "internalType": "bytes",
              "name": "linkModuleInitData",
              "type": "bytes"
            },
            {
              "internalType": "address",
              "name": "mintModule",
              "type": "address"
            },
            {
              "internalType": "bytes",
              "name": "mintModuleInitData",
              "type": "bytes"
            }
          ],
          "internalType": "struct DataTypes.PostNoteData",
          "name": "noteData",
          "type": "tuple"
        }
      ],
      "name": "postNote",
      "outputs": [
        {
          "internalType": "uint256",
          "name": "",
          "type": "uint256"
        }
      ],
      "stateMutability": "nonpayable",
      "type": "function"
    },
    {
      "inputs": [
        {
          "components": [
            {
              "internalType": "uint256",
              "name": "profileId",
              "type": "uint256"
            },
            {
              "internalType": "string",
              "name": "contentUri",
              "type": "string"
            },
            {
              "internalType": "address",
              "name": "linkModule",
              "type": "address"
            },
            {
              "internalType": "bytes",
              "name": "linkModuleInitData",
              "type": "bytes"
            },
            {
              "internalType": "address",
              "name": "mintModule",
              "type": "address"
            },
            {
              "internalType": "bytes",
              "name": "mintModuleInitData",
              "type": "bytes"
            }
          ],
          "internalType": "struct DataTypes.PostNoteData",
          "name": "noteData",
          "type": "tuple"
        },
        {
          "components": [
            {
              "internalType": "uint256",
              "name": "linklistId",
              "type": "uint256"
            },
            {
              "internalType": "bytes",
              "name": "content",
              "type": "bytes"
            }
          ],
          "internalType": "struct DataTypes.LinkData",
          "name": "linkData",
          "type": "tuple"
        }
      ],
      "name": "postNoteWithLink",
      "outputs": [],
      "stateMutability": "nonpayable",
      "type": "function"
    },
    {
      "inputs": [
        {
          "internalType": "address",
          "name": "from",
          "type": "address"
        },
        {
          "internalType": "address",
          "name": "to",
          "type": "address"
        },
        {
          "internalType": "uint256",
          "name": "tokenId",
          "type": "uint256"
        }
      ],
      "name": "safeTransferFrom",
      "outputs": [],
      "stateMutability": "nonpayable",
      "type": "function"
    },
    {
      "inputs": [
        {
          "internalType": "address",
          "name": "from",
          "type": "address"
        },
        {
          "internalType": "address",
          "name": "to",
          "type": "address"
        },
        {
          "internalType": "uint256",
          "name": "tokenId",
          "type": "uint256"
        },
        {
          "internalType": "bytes",
          "name": "_data",
          "type": "bytes"
        }
      ],
      "name": "safeTransferFrom",
      "outputs": [],
      "stateMutability": "nonpayable",
      "type": "function"
    },
    {
      "inputs": [
        {
          "internalType": "address",
          "name": "operator",
          "type": "address"
        },
        {
          "internalType": "bool",
          "name": "approved",
          "type": "bool"
        }
      ],
      "name": "setApprovalForAll",
      "outputs": [],
      "stateMutability": "nonpayable",
      "type": "function"
    },
    {
      "inputs": [
        {
          "internalType": "uint256",
          "name": "profileId",
          "type": "uint256"
        },
        {
          "internalType": "string",
          "name": "newHandle",
          "type": "string"
        }
      ],
      "name": "setHandle",
      "outputs": [],
      "stateMutability": "nonpayable",
      "type": "function"
    },
    {
      "inputs": [
        {
          "internalType": "address",
          "name": "account",
          "type": "address"
        },
        {
          "internalType": "address",
          "name": "linkModule",
          "type": "address"
        },
        {
          "internalType": "bytes",
          "name": "linkModuleInitData",
          "type": "bytes"
        }
      ],
      "name": "setLinkModule4Address",
      "outputs": [],
      "stateMutability": "nonpayable",
      "type": "function"
    },
    {
      "inputs": [
        {
          "internalType": "address",
          "name": "tokenAddress",
          "type": "address"
        },
        {
          "internalType": "uint256",
          "name": "tokenId",
          "type": "uint256"
        },
        {
          "internalType": "address",
          "name": "linkModule",
          "type": "address"
        },
        {
          "internalType": "bytes",
          "name": "linkModuleInitData",
          "type": "bytes"
        }
      ],
      "name": "setLinkModule4ERC721",
      "outputs": [],
      "stateMutability": "nonpayable",
      "type": "function"
    },
    {
      "inputs": [
        {
          "internalType": "uint256",
          "name": "tokenId",
          "type": "uint256"
        },
        {
          "internalType": "address",
          "name": "linkModule",
          "type": "address"
        },
        {
          "internalType": "bytes",
          "name": "linkModuleInitData",
          "type": "bytes"
        }
      ],
      "name": "setLinkModule4Linklist",
      "outputs": [],
      "stateMutability": "nonpayable",
      "type": "function"
    },
    {
      "inputs": [
        {
          "internalType": "uint256",
          "name": "profileId",
          "type": "uint256"
        },
        {
          "internalType": "uint256",
          "name": "noteId",
          "type": "uint256"
        },
        {
          "internalType": "address",
          "name": "linkModule",
          "type": "address"
        },
        {
          "internalType": "bytes",
          "name": "linkModuleInitData",
          "type": "bytes"
        }
      ],
      "name": "setLinkModule4Note",
      "outputs": [],
      "stateMutability": "nonpayable",
      "type": "function"
    },
    {
      "inputs": [
        {
          "internalType": "uint256",
          "name": "profileId",
          "type": "uint256"
        },
        {
          "internalType": "address",
          "name": "linkModule",
          "type": "address"
        },
        {
          "internalType": "bytes",
          "name": "linkModuleInitData",
          "type": "bytes"
        }
      ],
      "name": "setLinkModule4Profile",
      "outputs": [],
      "stateMutability": "nonpayable",
      "type": "function"
    },
    {
      "inputs": [
        {
          "internalType": "uint256",
          "name": "linkListId",
          "type": "uint256"
        },
        {
          "internalType": "string",
          "name": "uri",
          "type": "string"
        }
      ],
      "name": "setLinklistUri",
      "outputs": [],
      "stateMutability": "nonpayable",
      "type": "function"
    },
    {
      "inputs": [
        {
          "internalType": "uint256",
          "name": "profileId",
          "type": "uint256"
        },
        {
          "internalType": "uint256",
          "name": "noteId",
          "type": "uint256"
        },
        {
          "internalType": "address",
          "name": "mintModule",
          "type": "address"
        },
        {
          "internalType": "bytes",
          "name": "mintModuleInitData",
          "type": "bytes"
        }
      ],
      "name": "setMintModule4Note",
      "outputs": [],
      "stateMutability": "nonpayable",
      "type": "function"
    },
    {
      "inputs": [
        {
          "internalType": "uint256",
          "name": "profileId",
          "type": "uint256"
        }
      ],
      "name": "setPrimaryProfileId",
      "outputs": [],
      "stateMutability": "nonpayable",
      "type": "function"
    },
    {
      "inputs": [
        {
          "internalType": "uint256",
          "name": "profileId",
          "type": "uint256"
        },
        {
          "internalType": "string",
          "name": "newUri",
          "type": "string"
        }
      ],
      "name": "setProfileUri",
      "outputs": [],
      "stateMutability": "nonpayable",
      "type": "function"
    },
    {
      "inputs": [
        {
          "internalType": "uint256",
          "name": "profileId",
          "type": "uint256"
        },
        {
          "internalType": "address",
          "name": "tokenAddress",
          "type": "address"
        }
      ],
      "name": "setSocialToken",
      "outputs": [],
      "stateMutability": "nonpayable",
      "type": "function"
    },
    {
      "inputs": [
        {
          "internalType": "bytes4",
          "name": "interfaceId",
          "type": "bytes4"
        }
      ],
      "name": "supportsInterface",
      "outputs": [
        {
          "internalType": "bool",
          "name": "",
          "type": "bool"
        }
      ],
      "stateMutability": "view",
      "type": "function"
    },
    {
      "inputs": [],
      "name": "symbol",
      "outputs": [
        {
          "internalType": "string",
          "name": "",
          "type": "string"
        }
      ],
      "stateMutability": "view",
      "type": "function"
    },
    {
      "inputs": [
        {
          "internalType": "uint256",
          "name": "index",
          "type": "uint256"
        }
      ],
      "name": "tokenByIndex",
      "outputs": [
        {
          "internalType": "uint256",
          "name": "",
          "type": "uint256"
        }
      ],
      "stateMutability": "view",
      "type": "function"
    },
    {
      "inputs": [
        {
          "internalType": "address",
          "name": "owner",
          "type": "address"
        },
        {
          "internalType": "uint256",
          "name": "index",
          "type": "uint256"
        }
      ],
      "name": "tokenOfOwnerByIndex",
      "outputs": [
        {
          "internalType": "uint256",
          "name": "",
          "type": "uint256"
        }
      ],
      "stateMutability": "view",
      "type": "function"
    },
    {
      "inputs": [
        {
          "internalType": "uint256",
          "name": "profileId",
          "type": "uint256"
        }
      ],
      "name": "tokenURI",
      "outputs": [
        {
          "internalType": "string",
          "name": "",
          "type": "string"
        }
      ],
      "stateMutability": "view",
      "type": "function"
    },
    {
      "inputs": [],
      "name": "totalSupply",
      "outputs": [
        {
          "internalType": "uint256",
          "name": "",
          "type": "uint256"
        }
      ],
      "stateMutability": "view",
      "type": "function"
    },
    {
      "inputs": [
        {
          "internalType": "address",
          "name": "from",
          "type": "address"
        },
        {
          "internalType": "address",
          "name": "to",
          "type": "address"
        },
        {
          "internalType": "uint256",
          "name": "tokenId",
          "type": "uint256"
        }
      ],
      "name": "transferFrom",
      "outputs": [],
      "stateMutability": "nonpayable",
      "type": "function"
    },
    {
      "inputs": [
        {
          "internalType": "uint256",
          "name": "fromProfileId",
          "type": "uint256"
        },
        {
          "internalType": "address",
          "name": "ethAddress",
          "type": "address"
        },
        {
          "internalType": "bytes32",
          "name": "linkType",
          "type": "bytes32"
        }
      ],
      "name": "unlinkAddress",
      "outputs": [],
      "stateMutability": "nonpayable",
      "type": "function"
    },
    {
      "inputs": [
        {
          "internalType": "uint256",
          "name": "fromProfileId",
          "type": "uint256"
        },
        {
          "internalType": "string",
          "name": "toUri",
          "type": "string"
        },
        {
          "internalType": "bytes32",
          "name": "linkType",
          "type": "bytes32"
        }
      ],
      "name": "unlinkAny",
      "outputs": [],
      "stateMutability": "nonpayable",
      "type": "function"
    },
    {
      "inputs": [
        {
          "internalType": "uint256",
          "name": "fromProfileId",
          "type": "uint256"
        },
        {
          "internalType": "address",
          "name": "tokenAddress",
          "type": "address"
        },
        {
          "internalType": "uint256",
          "name": "tokenId",
          "type": "uint256"
        },
        {
          "internalType": "bytes32",
          "name": "linkType",
          "type": "bytes32"
        }
      ],
      "name": "unlinkERC721",
      "outputs": [],
      "stateMutability": "nonpayable",
      "type": "function"
    },
    {
      "inputs": [
        {
          "internalType": "uint256",
          "name": "fromProfileId",
          "type": "uint256"
        },
        {
          "internalType": "uint256",
          "name": "toLinkListId",
          "type": "uint256"
        },
        {
          "internalType": "bytes32",
          "name": "linkType",
          "type": "bytes32"
        }
      ],
      "name": "unlinkLinklist",
      "outputs": [],
      "stateMutability": "nonpayable",
      "type": "function"
    },
    {
      "inputs": [
        {
          "internalType": "uint256",
          "name": "fromProfileId",
          "type": "uint256"
        },
        {
          "internalType": "uint256",
          "name": "toProfileId",
          "type": "uint256"
        },
        {
          "internalType": "uint256",
          "name": "toNoteId",
          "type": "uint256"
        },
        {
          "internalType": "bytes32",
          "name": "linkType",
          "type": "bytes32"
        }
      ],
      "name": "unlinkNote",
      "outputs": [],
      "stateMutability": "nonpayable",
      "type": "function"
    },
    {
      "inputs": [
        {
          "internalType": "uint256",
          "name": "fromProfileId",
          "type": "uint256"
        },
        {
          "internalType": "uint256",
          "name": "toProfileId",
          "type": "uint256"
        },
        {
          "internalType": "bytes32",
          "name": "linkType",
          "type": "bytes32"
        }
      ],
      "name": "unlinkProfile",
      "outputs": [],
      "stateMutability": "nonpayable",
      "type": "function"
    },
    {
      "inputs": [
        {
          "internalType": "uint256",
          "name": "fromProfileId",
          "type": "uint256"
        },
        {
          "components": [
            {
              "internalType": "uint256",
              "name": "fromProfileId",
              "type": "uint256"
            },
            {
              "internalType": "uint256",
              "name": "toProfileId",
              "type": "uint256"
            },
            {
              "internalType": "bytes32",
              "name": "linkType",
              "type": "bytes32"
            }
          ],
          "internalType": "struct DataTypes.ProfileLinkStruct",
          "name": "linkData",
          "type": "tuple"
        },
        {
          "internalType": "bytes32",
          "name": "linkType",
          "type": "bytes32"
        }
      ],
      "name": "unlinkProfileLink",
      "outputs": [],
      "stateMutability": "nonpayable",
      "type": "function"
    }
  ],
  "bytecode": "0x608060405234801561001057600080fd5b50615d5680620000216000396000f3fe608060405234801561001057600080fd5b50600436106103d05760003560e01c806370a08231116101ff578063bd5f69cb1161011a578063e51a325b116100ad578063f08f4f641161007c578063f08f4f641461093d578063f262bec114610950578063f98839df14610964578063fe9299fb1461097757600080fd5b8063e51a325b146108c8578063e72f208c146108db578063e985e9c5146108ee578063ec81d1941461092a57600080fd5b8063c87b56dd116100e9578063c87b56dd1461087d578063cba4f5cc14610890578063d36a2dce146108a3578063e2dc9882146108b657600080fd5b8063bd5f69cb14610833578063c053f6b814610846578063c387c45314610857578063c7009c6b1461086a57600080fd5b80638f15b41411610192578063a22cb46511610161578063a22cb465146107e7578063a6e6178d146107fa578063b40d5a571461080d578063b88d4fde1461082057600080fd5b80638f15b414146107a657806395d89b41146107b957806395d9fa7d146107c157806397550f13146107d457600080fd5b80637e9a8292116101ce5780637e9a82921461075a57806384b7743a1461076d578063862b531c14610780578063865be2b91461079357600080fd5b806370a082311461070e57806373f1c929146107215780637936da0e146107345780637c392b511461074757600080fd5b80632a59de7a116102ef5780634cab71ec11610282578063570477fb11610251578063570477fb146106b5578063605787d6146106c85780636352211e146106db57806363c00875146106ee57600080fd5b80634cab71ec146106505780634f6ccce7146106635780634f83155714610676578063515d42d2146106a257600080fd5b806333f06ee6116102be57806333f06ee6146105e057806342842e0e146105f35780634ac8250b146106065780634af3eb421461063d57600080fd5b80632a59de7a1461057b5780632c2e08811461058e5780632f745c59146105a157806331b9d08c146105b457600080fd5b80630f84fe8c116103675780632209d145116103365780632209d1451461050c578063231fcfbe1461054257806323b872dd14610555578063295cb43e1461056857600080fd5b80630f84fe8c146104ab5780631808dda0146104be57806318160ddd146104d15780631bb4d231146104e357600080fd5b8063081812fc116103a3578063081812fc1461043a578063095ea7b3146104655780630c16de10146104785780630d17b01f1461049857600080fd5b806301ffc9a7146103d55780630336bf55146103fd57806306f30bc91461041257806306fdde0314610425575b600080fd5b6103e86103e3366004614d5d565b6109a0565b60405190151581526020015b60405180910390f35b61041061040b366004614d7a565b6109cb565b005b610410610420366004614e09565b610b51565b61042d610be7565b6040516103f49190614eca565b61044d610448366004614edd565b610c79565b6040516001600160a01b0390911681526020016103f4565b610410610473366004614ef6565b610d0e565b61048b610486366004614f22565b610e24565b6040516103f49190614f63565b6104106104a6366004614fdf565b610fd3565b6104106104b9366004614fdf565b611136565b6104106104cc366004615017565b611226565b6008545b6040519081526020016103f4565b6104d56104f1366004615043565b6001600160a01b03166000908152600c602052604090205490565b61044d61051a366004614ef6565b6001600160a01b03918216600090815260126020908152604080832093835292905220541690565b610410610550366004614e09565b611243565b610410610563366004615060565b611356565b610410610576366004614edd565b611387565b610410610589366004615090565b6113cd565b61041061059c3660046150e2565b61148f565b6104d56105af366004614ef6565b6115c9565b61044d6105c2366004615043565b6001600160a01b039081166000908152601360205260409020541690565b6104106105ee366004615146565b61165f565b610410610601366004615060565b6116d3565b61044d610614366004615191565b60009182526010602090815260408084209284529190529020600501546001600160a01b031690565b61041061064b366004615017565b6116ee565b61042d61065e366004615191565b61185a565b6104d5610671366004614edd565b6118ef565b61044d610684366004614edd565b6000908152600a60205260409020600501546001600160a01b031690565b6104106106b0366004615191565b611982565b6104106106c33660046151b3565b611ac5565b6104106106d6366004614fdf565b611c3b565b61044d6106e9366004614edd565b611d06565b6107016106fc366004615191565b611d7d565b6040516103f491906151f4565b6104d561071c366004615043565b611e0a565b61041061072f366004615238565b611e91565b610410610742366004615191565b611ea6565b610410610755366004615146565b611f63565b610410610768366004615275565b611f88565b61041061077b366004615238565b612141565b6104d561078e366004614e09565b612156565b6104106107a1366004614d7a565b6123c0565b6104106107b43660046152af565b6123de565b61042d61251c565b6104106107cf366004615343565b61252b565b6104106107e2366004615017565b6125f9565b6104106107f5366004615373565b6126b7565b610410610808366004615146565b6126c2565b61041061081b366004615090565b61287c565b61041061082e366004615413565b6129d8565b6104106108413660046154c1565b612a0a565b600e546001600160a01b031661044d565b6103e8610865366004614edd565b612c7b565b6104106108783660046151b3565b612ca9565b61042d61088b366004614edd565b612ccb565b61042d61089e366004614edd565b612d70565b6104d56108b1366004615513565b612d7b565b6104106108c4366004615547565b5050565b61042d6108d6366004615191565b612e42565b6104106108e93660046155a6565b612ef3565b6103e86108fc3660046155ce565b6001600160a01b03918216600090815260056020908152604080832093909416825291909152205460ff1690565b61042d610938366004614edd565b613012565b61048b61094b366004614edd565b613032565b61041061095e3660046155a6565b50505050565b610410610972366004615017565b6131b9565b61044d610985366004614edd565b6000908152601160205260409020546001600160a01b031690565b60006001600160e01b0319821663780e9d6360e01b14806109c557506109c582613304565b92915050565b6109d484613354565b6109dd836133c0565b6109e78383613424565b6000848152600f6020908152604080832084845290915280822054600e54915163124fe93760e21b8152600481018290529092916001600160a01b03169063493fa4dc90602401602060405180830381865afa158015610a4b573d6000803e3d6000fd5b505050506040513d601f19601f82011682018060405250810190610a6f91906155fc565b9050858114610a995760405162461bcd60e51b8152600401610a9090615615565b60405180910390fd5b600e546040516281eec360e31b81526004810184905260248101879052604481018690526001600160a01b039091169063040f761890606401600060405180830381600087803b158015610aec57600080fd5b505af1158015610b00573d6000803e3d6000fd5b505050508385877fd27a71fc88ac85c4657b81c4d24a9cd9a034971683620f179a19d179fe0a956d8686604051610b41929190918252602082015260400190565b60405180910390a4505050505050565b610b5a85613354565b610b648585613424565b6000610ba886868686868080601f01602080910402602001604051908101604052809392919081815260200183838082843760009201919091525061348592505050565b9050836001600160a01b031685877f36e973ebf2a1c9c4006aaad244866e6dea9a0e85770deea599b193a9eb51b8f78442604051610b4192919061564a565b606060008054610bf69061566c565b80601f0160208091040260200160405190810160405280929190818152602001828054610c229061566c565b8015610c6f5780601f10610c4457610100808354040283529160200191610c6f565b820191906000526020600020905b815481529060010190602001808311610c5257829003601f168201915b5050505050905090565b6000818152600260205260408120546001600160a01b0316610cf25760405162461bcd60e51b815260206004820152602c60248201527f4552433732313a20617070726f76656420717565727920666f72206e6f6e657860448201526b34b9ba32b73a103a37b5b2b760a11b6064820152608401610a90565b506000908152600460205260409020546001600160a01b031690565b6000610d1982611d06565b9050806001600160a01b0316836001600160a01b03161415610d875760405162461bcd60e51b815260206004820152602160248201527f4552433732313a20617070726f76616c20746f2063757272656e74206f776e656044820152603960f91b6064820152608401610a90565b336001600160a01b0382161480610da35750610da381336108fc565b610e155760405162461bcd60e51b815260206004820152603860248201527f4552433732313a20617070726f76652063616c6c6572206973206e6f74206f7760448201527f6e6572206e6f7220617070726f76656420666f7220616c6c00000000000000006064820152608401610a90565b610e1f8383613537565b505050565b610e2c614bf2565b60008383604051610e3e9291906156a1565b604080519182900382206000818152600b602090815283822054808352600a82529184902060c0860190945283548552600184018054939650919493929084019190610e899061566c565b80601f0160208091040260200160405190810160405280929190818152602001828054610eb59061566c565b8015610f025780601f10610ed757610100808354040283529160200191610f02565b820191906000526020600020905b815481529060010190602001808311610ee557829003601f168201915b50505050508152602001600282018054610f1b9061566c565b80601f0160208091040260200160405190810160405280929190818152602001828054610f479061566c565b8015610f945780601f10610f6957610100808354040283529160200191610f94565b820191906000526020600020905b815481529060010190602001808311610f7757829003601f168201915b50505091835250506003820154602082015260048201546001600160a01b03908116604083015260059092015490911660609091015295945050505050565b610fdc83613354565b6000838152600f6020908152604080832084845290915280822054600e54915163124fe93760e21b8152600481018290529092916001600160a01b03169063493fa4dc90602401602060405180830381865afa158015611040573d6000803e3d6000fd5b505050506040513d601f19601f8201168201806040525081019061106491906155fc565b90508481146110855760405162461bcd60e51b8152600401610a9090615615565b600e54604051635956da7360e01b8152600481018490526001600160a01b03868116602483015290911690635956da7390604401600060405180830381600087803b1580156110d357600080fd5b505af11580156110e7573d6000803e3d6000fd5b50505050836001600160a01b0316857f93453451dd1d041ffa18c6c1f3f2e21a6d73c3d8d32deaf595b53a14914c87158560405161112791815260200190565b60405180910390a35050505050565b61113f83613354565b6001600160a01b0382166000908152600c6020526040902054156111b95760405162461bcd60e51b815260206004820152602b60248201527f546172676574206164647265737320616c726561647920686173207072696d6160448201526a393c90383937b334b6329760a91b6064820152608401610a90565b6040516bffffffffffffffffffffffff19606084901b1660208201526000906111fe9060340160408051601f19818403018152602083019091526000825290856135a5565b6001600160a01b0384166000908152600c60205260409020819055905061095e84828461370a565b61122f83613354565b611238826133c0565b610e1f83838361370a565b61124c85613354565b6112568585613424565b6001600160a01b0383161561129b576000858152601060209081526040808320878452909152902060040180546001600160a01b0319166001600160a01b0385161790555b60405163f033607760e01b81526000906001600160a01b0385169063f0336077906112d09089908990889088906004016156da565b6000604051808303816000875af11580156112ef573d6000803e3d6000fd5b505050506040513d6000823e601f3d908101601f191682016040526113179190810190615734565b9050836001600160a01b031685877f889c6317f76b8527935ed434226767d05f8b7c664d99f6f787e62efd558f6f018442604051610b4192919061564a565b61136033826137b9565b61137c5760405162461bcd60e51b8152600401610a909061577c565b610e1f8383836138ac565b61139081613354565b336000818152600c6020526040808220849055518392917f444dbf26d795c263ce4e5f2fccaac8e71b73cb37091f74e9e4f76cd98b55f8d391a350565b6113d684613354565b60006113e3858333613a53565b600e54604051631983158760e31b81529192506001600160a01b03169063cc18ac3890611418908490889088906004016157cd565b600060405180830381600087803b15801561143257600080fd5b505af1158015611446573d6000803e3d6000fd5b50505050847f77c508b3ce1f699c73e46a33df0ab0010d3d5f3e1270839381b85e618aef0fce8585858560405161148094939291906157e7565b60405180910390a25050505050565b336001600160a01b038516146114e75760405162461bcd60e51b815260206004820152601a60248201527f57656233456e7472793a204e6f74416464726573734f776e65720000000000006044820152606401610a90565b6001600160a01b0384811660009081526013602052604080822080546001600160a01b0319169387169384179055516349e2252d60e01b81529091906349e2252d9061153b9088908790879060040161580e565b6000604051808303816000875af115801561155a573d6000803e3d6000fd5b505050506040513d6000823e601f3d908101601f191682016040526115829190810190615734565b9050836001600160a01b0316856001600160a01b03167f7685796f9ddd10aa092582edf9c2a9ea78db9685e6f997342b6ab22268a730d8834260405161112792919061564a565b60006115d483611e0a565b82106116365760405162461bcd60e51b815260206004820152602b60248201527f455243373231456e756d657261626c653a206f776e657220696e646578206f7560448201526a74206f6620626f756e647360a81b6064820152608401610a90565b506001600160a01b03919091166000908152600660209081526040808320938352929052205490565b61166883613b74565b600e54604051633c17845760e11b81526001600160a01b039091169063782f08ae9061169c908690869086906004016157cd565b600060405180830381600087803b1580156116b657600080fd5b505af11580156116ca573d6000803e3d6000fd5b50505050505050565b610e1f838383604051806020016040528060008152506129d8565b6116f783613354565b611700826133c0565b6000838152600f6020908152604080832084845290915280822054600e54915163124fe93760e21b8152600481018290529092916001600160a01b03169063493fa4dc90602401602060405180830381865afa158015611764573d6000803e3d6000fd5b505050506040513d601f19601f8201168201806040525081019061178891906155fc565b90508481146117a95760405162461bcd60e51b8152600401610a9090615615565b600e546040516391e5454b60e01b815260048101849052602481018690526001600160a01b03909116906391e5454b90604401600060405180830381600087803b1580156117f657600080fd5b505af115801561180a573d6000803e3d6000fd5b505050508385336001600160a01b03167f08a14b775e42bf92e94f9d72aba57ad213485e0c20e373c9f5dd161fb81890a28660405161184b91815260200190565b60405180910390a45050505050565b6000828152600f602090815260408083208484529091529081902054600e549151632b05429560e21b8152600481018290526060926001600160a01b03169063ac150a5490602401600060405180830381865afa1580156118bf573d6000803e3d6000fd5b505050506040513d6000823e601f3d908101601f191682016040526118e79190810190615734565b949350505050565b60006118fa60085490565b821061195d5760405162461bcd60e51b815260206004820152602c60248201527f455243373231456e756d657261626c653a20676c6f62616c20696e646578206f60448201526b7574206f6620626f756e647360a01b6064820152608401610a90565b6008828154811061197057611970615833565b90600052602060002001549050919050565b600e5460405162fba02760e01b8152600481018490526000916001600160a01b03169062fba02790602401602060405180830381865afa1580156119ca573d6000803e3d6000fd5b505050506040513d601f19601f820116820180604052508101906119ee91906155fc565b6000838152600f6020908152604080832084845290915290205490915015611a645760405162461bcd60e51b815260206004820152602360248201527f53616d652074797065206c696e6b6c69737420616c726561647920657869737460448201526232b21760e91b6064820152608401610a90565b611a6e8383613c41565b6000828152600f602090815260408083208484528252918290208590559051828152849184917f67bae8d4fe58681100be2bf95a6e6a62fbecbbd3e30cfb4392731c3686f187c491015b60405180910390a3505050565b611ace83613354565b6000838152600f6020908152604080832084845290915280822054600e54915163124fe93760e21b8152600481018290529092916001600160a01b03169063493fa4dc90602401602060405180830381865afa158015611b32573d6000803e3d6000fd5b505050506040513d601f19601f82011682018060405250810190611b5691906155fc565b9050848114611b775760405162461bcd60e51b8152600401610a9090615615565b600e5460408051630e14bb7560e31b81526004810185905286356024820152602087013560448201529086013560648201526001600160a01b03909116906370a5dba890608401600060405180830381600087803b158015611bd857600080fd5b505af1158015611bec573d6000803e3d6000fd5b505060408051873581526020808901359082015281880135918101919091528592508791507f90fe9f3bf41416d9a567460a40443ef7aea47220fa342bc0e07fd01c93ffc7e190606001611127565b611c4483613354565b6000611c51848333613a53565b600e5460405163ed386e6560e01b8152600481018390526001600160a01b03868116602483015292935091169063ed386e6590604401600060405180830381600087803b158015611ca157600080fd5b505af1158015611cb5573d6000803e3d6000fd5b505060408051858152602081018590526001600160a01b03871693508792507f3dad60a88f1d8ee170dfbeb8c65c705bd47922f205e774e10e49e4e53d93a8bd91015b60405180910390a350505050565b6000818152600260205260408120546001600160a01b0316806109c55760405162461bcd60e51b815260206004820152602960248201527f4552433732313a206f776e657220717565727920666f72206e6f6e657869737460448201526832b73a103a37b5b2b760b91b6064820152608401610a90565b6000828152600f602090815260408083208484529091529081902054600e54915163a72d231760e01b8152600481018290526060926001600160a01b03169063a72d231790602401600060405180830381865afa158015611de2573d6000803e3d6000fd5b505050506040513d6000823e601f3d908101601f191682016040526118e79190810190615849565b60006001600160a01b038216611e755760405162461bcd60e51b815260206004820152602a60248201527f4552433732313a2062616c616e636520717565727920666f7220746865207a65604482015269726f206164647265737360b01b6064820152608401610a90565b506001600160a01b031660009081526003602052604090205490565b611e9a84613354565b61095e84848484613cb9565b600e5460405162fba02760e01b8152600481018490526000916001600160a01b03169062fba02790602401602060405180830381865afa158015611eee573d6000803e3d6000fd5b505050506040513d601f19601f82011682018060405250810190611f1291906155fc565b6000838152600f602090815260408083208484528252808320929092559051828152919250849184917fdc9bb7aeae49bac3416d55a8bea99f42bc0b3ae9912563dadc37d7729b8489389101611ab8565b611f6c83613354565b6000838152600a6020526040902061095e906002018383614c3a565b6040516331a9108f60e11b8152600481018590526001600160a01b03861690636352211e90602401602060405180830381865afa158015611fcd573d6000803e3d6000fd5b505050506040513d601f19601f82011682018060405250810190611ff191906158ee565b6001600160a01b0316336001600160a01b0316146120515760405162461bcd60e51b815260206004820152601e60248201527f57656233456e7472793a204e6f74455243373231546f6b656e4f776e657200006044820152606401610a90565b6001600160a01b03858116600090815260126020908152604080832088845290915280822080546001600160a01b031916938716938417905551630378cd8b60e61b815290919063de3362c0906120b290899089908890889060040161590b565b6000604051808303816000875af11580156120d1573d6000803e3d6000fd5b505050506040513d6000823e601f3d908101601f191682016040526120f99190810190615734565b9050836001600160a01b031685876001600160a01b03167fd0411ae508eec872740a07b3a8da69f9a925547a40bbbdb612971a050c61e19e8442604051610b4192919061564a565b61214a84613354565b61095e84848484613d7b565b600085815260106020908152604080832087845290915281206006015481906001600160a01b031680612278576122408888600a60008c815260200190815260200160002060010180546121a99061566c565b80601f01602080910402602001604051908101604052809291908181526020018280546121d59061566c565b80156122225780601f106121f757610100808354040283529160200191612222565b820191906000526020600020905b81548152906001019060200180831161220557829003601f168201915b50506014546201000090046001600160a01b03169250613ed7915050565b60008981526010602090815260408083208b8452909152902060060180546001600160a01b0319166001600160a01b03831617905590505b6040516335313c2160e11b81526001600160a01b038781166004830152821690636a627842906024016020604051808303816000875af11580156122c0573d6000803e3d6000fd5b505050506040513d601f19601f820116820180604052508101906122e491906155fc565b60008981526010602090815260408083208b84529091529081902060050154905163efb5730560e01b81529193506001600160a01b031690819063efb5730590612338908c908c908b908b906004016156da565b600060405180830381600087803b15801561235257600080fd5b505af1158015612366573d6000803e3d6000fd5b505050508789886001600160a01b03167f1776a8feba9963250b5ddde89ea29cc0d76c2a9cac349c97e54d0a21f85a024f868a8a426040516123ab9493929190615933565b60405180910390a45090979650505050505050565b6123c984613354565b6123d2836133c0565b61095e84848484613fd4565b601454610100900460ff166123f95760145460ff16156123fd565b303b155b6124605760405162461bcd60e51b815260206004820152602e60248201527f496e697469616c697a61626c653a20636f6e747261637420697320616c72656160448201526d191e481a5b9a5d1a585b1a5e995960921b6064820152608401610a90565b601454610100900460ff16158015612482576014805461ffff19166101011790555b61248e8787878761408b565b600e80546001600160a01b0319166001600160a01b03858116919091179091556014805462010000600160b01b03191662010000928516929092029190911790556040514281527f400175a56dd3710794078f7b9dbe8296ac94c5a248dfd51bb22ed4ab9eaa9fbf9060200160405180910390a180156116ca576014805461ff001916905550505050505050565b606060018054610bf69061566c565b61253482613354565b6000828152600a60205260409020600401546001600160a01b03161561259c5760405162461bcd60e51b815260206004820152601c60248201527f57656233456e7472793a20536f6369616c546f6b656e457869737473000000006044820152606401610a90565b6000828152600a602052604080822060040180546001600160a01b0319166001600160a01b03851690811790915590519091849133917f276c2d4b7f7beaa1847ff9c41b9d2e0e57482efe8051eea98eea653bfca3ac4591a45050565b61260283613354565b600061260f848333613a53565b600e546040516360e6a7c160e11b815260048101839052602481018690529192506001600160a01b03169063c1cd4f8290604401600060405180830381600087803b15801561265d57600080fd5b505af1158015612671573d6000803e3d6000fd5b505050508083857f2e398bc911c0eb636118bc7906bdfa98b2ccf6ef7ee76e3f07068d0eee488e3f856040516126a991815260200190565b60405180910390a450505050565b6108c43383836140dc565b6126cb83613354565b6000838152600a6020526040812060010180546126e79061566c565b80601f01602080910402602001604051908101604052809291908181526020018280546127139061566c565b80156127605780601f1061273557610100808354040283529160200191612760565b820191906000526020600020905b81548152906001019060200180831161274357829003601f168201915b50505050509050600081805190602001209050600b6000828152602001908152602001600020600090556000848460405161279c9291906156a1565b60405180910390209050600b6000828152602001908152602001600020546000146128035760405162461bcd60e51b815260206004820152601760248201527657656233456e7472793a2048616e646c6545786973747360481b6044820152606401610a90565b6000818152600b60209081526040808320899055888352600a909152902061282f906001018686614c3a565b5085336001600160a01b03167f9d175e377ed0c2f6df0cefe4efe069e62eaa3dad046bb8c88e293a776c3cf96e878760405161286c92919061595e565b60405180910390a3505050505050565b61288584613354565b6000848152600f6020908152604080832084845290915280822054600e54915163124fe93760e21b8152600481018290529092916001600160a01b03169063493fa4dc90602401602060405180830381865afa1580156128e9573d6000803e3d6000fd5b505050506040513d601f19601f8201168201806040525081019061290d91906155fc565b905085811461292e5760405162461bcd60e51b8152600401610a9090615615565b600e546040516308e013fb60e41b81526001600160a01b0390911690638e013fb090612962908590899089906004016157cd565b600060405180830381600087803b15801561297c57600080fd5b505af1158015612990573d6000803e3d6000fd5b50505050857f30c740190e772199ffeb095b72d8a53da7bbd09a55668530ee288e33b28ecebd8686866040516129c893929190615972565b60405180910390a2505050505050565b6129e233836137b9565b6129fe5760405162461bcd60e51b8152600401610a909061577c565b61095e848484846141a3565b6000612aa5612a1c6020840184615996565b8080601f016020809104026020016040519081016040528093929190818152602001838380828437600092019190915250612a5e925050506040850185615996565b8080601f016020809104026020016040519081016040528093929190818152602001838380828437600092019190915250612aa0925050506020860186615043565b6135a5565b9050600c6000612ab86020850185615043565b6001600160a01b03168152602081019190915260400160002054612b035780600c6000612ae86020860186615043565b6001600160a01b031681526020810191909152604001600020555b6000818152600a60205260409020600501546001600160a01b0316612b2e6080840160608501615043565b6001600160a01b031614612b7c57612b4c6080830160608401615043565b6000828152600a6020526040902060050180546001600160a01b0319166001600160a01b03929092169190911790555b60606000612b8f60808501858401615043565b6001600160a01b031614610e1f57612bad6080840160608501615043565b6001600160a01b03166335aa84b083612bc96080870187615996565b6040518463ffffffff1660e01b8152600401612be7939291906157cd565b6000604051808303816000875af1158015612c06573d6000803e3d6000fd5b505050506040513d6000823e601f3d908101601f19168201604052612c2e9190810190615734565b9050612c406080840160608501615043565b6001600160a01b0316827f2852faa26318de2c5b2d5e319f7b3c29f0cd77f50c67559a4082bf5763c4d59f8342604051611ab892919061564a565b600080612c8783611d06565b6001600160a01b03166000908152600c60205260409020549290921492915050565b612cb283613354565b610e1f8382612cc6368690038601866159dc565b6141d6565b6000818152600a60205260409020600201805460609190612ceb9061566c565b80601f0160208091040260200160405190810160405280929190818152602001828054612d179061566c565b8015612d645780601f10612d3957610100808354040283529160200191612d64565b820191906000526020600020905b815481529060010190602001808311612d4757829003601f168201915b50505050509050919050565b60606109c582612ccb565b6000612d878235613354565b6109c58235612d996020850185615996565b612da96060870160408801615043565b612db66060880188615996565b8080601f016020809104026020016040519081016040528093929190818152602001838380828437600092019190915250612dfb9250505060a0890160808a01615043565b612e0860a08a018a615996565b8080601f0160208091040260200160405190810160405280939291908181526020018383808284376000920191909152506142a892505050565b60008281526010602090815260408083208484529091529020600301805460609190612e6d9061566c565b80601f0160208091040260200160405190810160405280929190818152602001828054612e999061566c565b8015612ee65780601f10612ebb57610100808354040283529160200191612ee6565b820191906000526020600020905b815481529060010190602001808311612ec957829003601f168201915b5050505050905092915050565b612efc84613354565b6000848152600a60205260409020600501546001600160a01b03848116911614612f4b576000848152600a6020526040902060050180546001600160a01b0319166001600160a01b0385161790555b60606001600160a01b03841615612fd65760405163035aa84b60e41b81526001600160a01b038516906335aa84b090612f8c908890879087906004016157cd565b6000604051808303816000875af1158015612fab573d6000803e3d6000fd5b505050506040513d6000823e601f3d908101601f19168201604052612fd39190810190615734565b90505b836001600160a01b0316857f2852faa26318de2c5b2d5e319f7b3c29f0cd77f50c67559a4082bf5763c4d59f834260405161112792919061564a565b6000818152600a60205260409020600101805460609190612ceb9061566c565b61303a614bf2565b600a60008381526020019081526020016000206040518060c0016040529081600082015481526020016001820180546130729061566c565b80601f016020809104026020016040519081016040528092919081815260200182805461309e9061566c565b80156130eb5780601f106130c0576101008083540402835291602001916130eb565b820191906000526020600020905b8154815290600101906020018083116130ce57829003601f168201915b505050505081526020016002820180546131049061566c565b80601f01602080910402602001604051908101604052809291908181526020018280546131309061566c565b801561317d5780601f106131525761010080835404028352916020019161317d565b820191906000526020600020905b81548152906001019060200180831161316057829003601f168201915b50505091835250506003820154602082015260048201546001600160a01b03908116604083015260059092015490911660609091015292915050565b6131c283613354565b6000838152600f6020908152604080832084845290915280822054600e54915163124fe93760e21b8152600481018290529092916001600160a01b03169063493fa4dc90602401602060405180830381865afa158015613226573d6000803e3d6000fd5b505050506040513d601f19601f8201168201806040525081019061324a91906155fc565b905084811461326b5760405162461bcd60e51b8152600401610a9090615615565b600e5460405163c70881c560e01b815260048101849052602481018690526001600160a01b039091169063c70881c590604401600060405180830381600087803b1580156132b857600080fd5b505af11580156132cc573d6000803e3d6000fd5b505050508184867f6fbf599841dedc952cdfb5ee854ae5cc0e4cdedf58097101bc0104597b75e1088660405161184b91815260200190565b60006001600160e01b031982166380ac58cd60e01b148061333557506001600160e01b03198216635b5e139f60e01b145b806109c557506301ffc9a760e01b6001600160e01b03198316146109c5565b61335d81611d06565b6001600160a01b0316336001600160a01b0316146133bd5760405162461bcd60e51b815260206004820152601a60248201527f57656233456e7472793a204e6f7450726f66696c654f776e65720000000000006044820152606401610a90565b50565b6000818152600260205260409020546001600160a01b03166133bd5760405162461bcd60e51b815260206004820152601b60248201527f57656233456e7472793a2050726f66696c654e6f7445786973747300000000006044820152606401610a90565b6000828152600a60205260409020600301548111156108c45760405162461bcd60e51b815260206004820152601860248201527f57656233456e7472793a204e6f74654e6f7445786973747300000000000000006044820152606401610a90565b60008481526010602090815260408083208684529091529081902060050180546001600160a01b0319166001600160a01b0385169081179091559051633ee9bd4f60e11b815260609190637dd37a9e906134e790889088908790600401615a37565b6000604051808303816000875af1158015613506573d6000803e3d6000fd5b505050506040513d6000823e601f3d908101601f1916820160405261352e9190810190615734565b95945050505050565b600081815260046020526040902080546001600160a01b0319166001600160a01b038416908117909155819061356c82611d06565b6001600160a01b03167f8c5be1e5ebec7d5bd14f71427d1e84f3dd0314c0f7b2291e5b200ac8c7c3b92560405160405180910390a45050565b82516020808501919091206000818152600b9092526040822054156136065760405162461bcd60e51b815260206004820152601760248201527657656233456e7472793a2048616e646c6545786973747360481b6044820152606401610a90565b600d6000815461361590615a6c565b919050819055915061364e6040518060400160405280600f81526020016e12b21034b99031b932b0ba34b7339760891b815250836144f2565b6136588383614537565b6000818152600b60209081526040808320859055848352600a8252909120838155865161368d92600190920191880190614cbe565b506000828152600a6020908152604090912085516136b392600290920191870190614cbe565b50826001600160a01b0316336001600160a01b0316837fa5802a04162552328d75eaac538a033704a7c3beab65d0a83e52da1c8c9b7cdf88426040516136fa92919061564a565b60405180910390a4509392505050565b6000613717848333613a53565b600e54604051637bf0b88d60e11b815260048101839052602481018690529192506001600160a01b03169063f7e1711a90604401600060405180830381600087803b15801561376557600080fd5b505af1158015613779573d6000803e3d6000fd5b5050604080518581526020810185905286935087925033917fbc914995d574dd9ef2df364e4eee2b85deda3ba35d054a62425fba1b9727571691016126a9565b6000818152600260205260408120546001600160a01b03166138325760405162461bcd60e51b815260206004820152602c60248201527f4552433732313a206f70657261746f7220717565727920666f72206e6f6e657860448201526b34b9ba32b73a103a37b5b2b760a11b6064820152608401610a90565b600061383d83611d06565b9050806001600160a01b0316846001600160a01b031614806138785750836001600160a01b031661386d84610c79565b6001600160a01b0316145b806118e757506001600160a01b0380821660009081526005602090815260408083209388168352929052205460ff166118e7565b826001600160a01b03166138bf82611d06565b6001600160a01b0316146139235760405162461bcd60e51b815260206004820152602560248201527f4552433732313a207472616e736665722066726f6d20696e636f72726563742060448201526437bbb732b960d91b6064820152608401610a90565b6001600160a01b0382166139855760405162461bcd60e51b8152602060048201526024808201527f4552433732313a207472616e7366657220746f20746865207a65726f206164646044820152637265737360e01b6064820152608401610a90565b613990838383614685565b61399b600082613537565b6001600160a01b03831660009081526003602052604081208054600192906139c4908490615a87565b90915550506001600160a01b03821660009081526003602052604081208054600192906139f2908490615a9e565b909155505060008181526002602052604080822080546001600160a01b0319166001600160a01b0386811691821790925591518493918716917fddf252ad1be2c89b69c2b068fc378daa952ba7f163c4a11628f55a4df523b3ef91a4505050565b6000838152600f6020908152604080832085845290915290205480613b6d57613af46001600e60009054906101000a90046001600160a01b03166001600160a01b03166318160ddd6040518163ffffffff1660e01b8152600401602060405180830381865afa158015613aca573d6000803e3d6000fd5b505050506040513d601f19601f82011682018060405250810190613aee91906155fc565b906146c8565b600e5460405163644ee7e760e11b81526001600160a01b038581166004830152602482018790526044820184905292935091169063c89dcfce90606401600060405180830381600087803b158015613b4b57600080fd5b505af1158015613b5f573d6000803e3d6000fd5b50505050613b6d8185611982565b9392505050565b600e546040516331a9108f60e11b8152600481018390526001600160a01b0390911690636352211e90602401602060405180830381865afa158015613bbd573d6000803e3d6000fd5b505050506040513d601f19601f82011682018060405250810190613be191906158ee565b6001600160a01b0316336001600160a01b0316146133bd5760405162461bcd60e51b815260206004820152601b60248201527f57656233456e7472793a204e6f744c696e6b4c6973744f776e657200000000006044820152606401610a90565b613c4a81613354565b600e54604051631c5b266960e21b815260048101849052336024820152604481018390526001600160a01b039091169063716c99a490606401600060405180830381600087803b158015613c9d57600080fd5b505af1158015613cb1573d6000803e3d6000fd5b505050505050565b6000613cc6858333613a53565b600e54604051630ba893bf60e21b8152600481018390526001600160a01b03878116602483015260448201879052929350911690632ea24efc90606401600060405180830381600087803b158015613d1d57600080fd5b505af1158015613d31573d6000803e3d6000fd5b5050505082846001600160a01b0316867f72413a1a5c43b255ad065653bf49db3c79ff7853ddaa4f4962ccd05e5368ad77858560405161184b929190918252602082015260400190565b6000848152600f6020908152604080832084845290915280822054600e54915163124fe93760e21b8152600481018290529092916001600160a01b03169063493fa4dc90602401602060405180830381865afa158015613ddf573d6000803e3d6000fd5b505050506040513d601f19601f82011682018060405250810190613e0391906155fc565b9050858114613e245760405162461bcd60e51b8152600401610a9090615615565b600e54604051630370a16160e01b8152600481018490526001600160a01b0387811660248301526044820187905290911690630370a16190606401600060405180830381600087803b158015613e7957600080fd5b505af1158015613e8d573d6000803e3d6000fd5b5050505083856001600160a01b0316877fd87f9606a19988b6cf42d250d484940673ce551ab5f80289051cc343ff13121c8686604051610b41929190918252602082015260400190565b600080613ee3836146d4565b90506000613ef085615ab6565b9050600085613efe89614771565b613f0789614771565b604051602001613f1993929190615aed565b6040516020818303038152906040529050600082613f368a614771565b613f3f8a614771565b604051602001613f5193929190615b51565b60408051601f19818403018152908290526317eb5c4360e11b825291506001600160a01b03851690632fd6b88690613f95908c908c90309088908890600401615bb1565b600060405180830381600087803b158015613faf57600080fd5b505af1158015613fc3573d6000803e3d6000fd5b50959b9a5050505050505050505050565b6000613fe1858333613a53565b600e54604051635cb46be760e01b81526004810183905260248101879052604481018690529192506001600160a01b031690635cb46be790606401600060405180830381600087803b15801561403657600080fd5b505af115801561404a573d6000803e3d6000fd5b505050508284867f3cae5b1196087b560b6735377bbf745e5754f8082348a432b806afa01686ef48858560405161184b929190918252602082015260400190565b6140978484848461486e565b7f414cd0b34676984f09a5f76ce9718d4062e50283abe0e7e274a9a5b4e0c99c3084848484426040516140ce959493929190615bf0565b60405180910390a150505050565b816001600160a01b0316836001600160a01b0316141561413e5760405162461bcd60e51b815260206004820152601960248201527f4552433732313a20617070726f766520746f2063616c6c6572000000000000006044820152606401610a90565b6001600160a01b03838116600081815260056020908152604080832094871680845294825291829020805460ff191686151590811790915591519182527f17307eab39ab6107e8899845ad3d59bd9653f200f220920489ca2b5937696c319101611ab8565b6141ae8484846138ac565b6141ba8484848461488e565b61095e5760405162461bcd60e51b8152600401610a9090615c2a565b60006141e3848433613a53565b600e546040805163494c4d9960e01b81526004810184905285516024820152602086015160448201529085015160648201529192506001600160a01b03169063494c4d9990608401600060405180830381600087803b15801561424557600080fd5b505af1158015614259573d6000803e3d6000fd5b505083516020808601516040808801518151948552928401919091528201528592508691507ff0697acc3f194ceead566f2dffb676a7d4aaf14d0a2fad93923e778e4b40ae0d90606001611cf8565b6000878152600a60205260408120600301805482919082906142c990615a6c565b918290555060008a81526010602090815260408083208484529091529020600181559091506142fc906003018989614c3a565b50600089815260106020908152604080832084845290915290206004810180546001600160a01b03199081166001600160a01b038a811691821790935560059093018054909116918716919091179055606090156143ce5760405163f033607760e01b81526001600160a01b0388169063f033607790614384908d9086908b90600401615a37565b6000604051808303816000875af11580156143a3573d6000803e3d6000fd5b505050506040513d6000823e601f3d908101601f191682016040526143cb9190810190615734565b90505b60606001600160a01b0386161561445957604051633ee9bd4f60e11b81526001600160a01b03871690637dd37a9e9061440f908e9087908a90600401615a37565b6000604051808303816000875af115801561442e573d6000803e3d6000fd5b505050506040513d6000823e601f3d908101601f191682016040526144569190810190615734565b90505b876001600160a01b0316838c7f889c6317f76b8527935ed434226767d05f8b7c664d99f6f787e62efd558f6f01854260405161449692919061564a565b60405180910390a4856001600160a01b0316838c7f36e973ebf2a1c9c4006aaad244866e6dea9a0e85770deea599b193a9eb51b8f784426040516144db92919061564a565b60405180910390a450909998505050505050505050565b6108c4828260405160240161450892919061564a565b60408051601f198184030181529190526020810180516001600160e01b03166309710a9d60e41b179052614989565b6001600160a01b03821661458d5760405162461bcd60e51b815260206004820181905260248201527f4552433732313a206d696e7420746f20746865207a65726f20616464726573736044820152606401610a90565b6000818152600260205260409020546001600160a01b0316156145f25760405162461bcd60e51b815260206004820152601c60248201527f4552433732313a20746f6b656e20616c7265616479206d696e746564000000006044820152606401610a90565b6145fe60008383614685565b6001600160a01b0382166000908152600360205260408120805460019290614627908490615a9e565b909155505060008181526002602052604080822080546001600160a01b0319166001600160a01b03861690811790915590518392907fddf252ad1be2c89b69c2b068fc378daa952ba7f163c4a11628f55a4df523b3ef908290a45050565b6001600160a01b0383166000908152600c6020526040902054156146bd576001600160a01b0383166000908152600c60205260408120555b610e1f8383836149aa565b6000613b6d8284615a9e565b6000604051733d602d80600a3d3981f3363d3d373d3d3d363d7360601b81528260601b60148201526e5af43d82803e903d91602b57fd5bf360881b60288201526037816000f09150506001600160a01b03811661476c5760405162461bcd60e51b8152602060048201526016602482015275115490cc4c4d8dce8818dc99585d194819985a5b195960521b6044820152606401610a90565b919050565b6060816147955750506040805180820190915260018152600360fc1b602082015290565b8160005b81156147bf57806147a981615a6c565b91506147b89050600a83615c92565b9150614799565b6000816001600160401b038111156147d9576147d96153a6565b6040519080825280601f01601f191660200182016040528015614803576020820181803683370190505b5090505b84156118e757614818600183615a87565b9150614825600a86615ca6565b614830906030615a9e565b60f81b81838151811061484557614845615833565b60200101906001600160f81b031916908160001a905350614867600a86615c92565b9450614807565b61487a60008585614c3a565b5061488760018383614c3a565b5050505050565b60006001600160a01b0384163b1561498157604051630a85bd0160e11b81526001600160a01b0385169063150b7a02906148d2903390899088908890600401615cba565b6020604051808303816000875af192505050801561490d575060408051601f3d908101601f1916820190925261490a91810190615ced565b60015b614967573d80801561493b576040519150601f19603f3d011682016040523d82523d6000602084013e614940565b606091505b50805161495f5760405162461bcd60e51b8152600401610a9090615c2a565b805181602001fd5b6001600160e01b031916630a85bd0160e11b1490506118e7565b5060016118e7565b80516a636f6e736f6c652e6c6f67602083016000808483855afa5050505050565b6001600160a01b038316614a0557614a0081600880546000838152600960205260408120829055600182018355919091527ff3f7a9fe364faab93b216da50a3214154f22a0a2b415b23a84c8169e8b636ee30155565b614a28565b816001600160a01b0316836001600160a01b031614614a2857614a288382614a62565b6001600160a01b038216614a3f57610e1f81614aff565b826001600160a01b0316826001600160a01b031614610e1f57610e1f8282614bae565b60006001614a6f84611e0a565b614a799190615a87565b600083815260076020526040902054909150808214614acc576001600160a01b03841660009081526006602090815260408083208584528252808320548484528184208190558352600790915290208190555b5060009182526007602090815260408084208490556001600160a01b039094168352600681528383209183525290812055565b600854600090614b1190600190615a87565b60008381526009602052604081205460088054939450909284908110614b3957614b39615833565b906000526020600020015490508060088381548110614b5a57614b5a615833565b6000918252602080832090910192909255828152600990915260408082208490558582528120556008805480614b9257614b92615d0a565b6001900381819060005260206000200160009055905550505050565b6000614bb983611e0a565b6001600160a01b039093166000908152600660209081526040808320868452825280832085905593825260079052919091209190915550565b6040518060c001604052806000815260200160608152602001606081526020016000815260200160006001600160a01b0316815260200160006001600160a01b031681525090565b828054614c469061566c565b90600052602060002090601f016020900481019282614c685760008555614cae565b82601f10614c815782800160ff19823516178555614cae565b82800160010185558215614cae579182015b82811115614cae578235825591602001919060010190614c93565b50614cba929150614d32565b5090565b828054614cca9061566c565b90600052602060002090601f016020900481019282614cec5760008555614cae565b82601f10614d0557805160ff1916838001178555614cae565b82800160010185558215614cae579182015b82811115614cae578251825591602001919060010190614d17565b5b80821115614cba5760008155600101614d33565b6001600160e01b0319811681146133bd57600080fd5b600060208284031215614d6f57600080fd5b8135613b6d81614d47565b60008060008060808587031215614d9057600080fd5b5050823594602084013594506040840135936060013592509050565b6001600160a01b03811681146133bd57600080fd5b60008083601f840112614dd357600080fd5b5081356001600160401b03811115614dea57600080fd5b602083019150836020828501011115614e0257600080fd5b9250929050565b600080600080600060808688031215614e2157600080fd5b85359450602086013593506040860135614e3a81614dac565b925060608601356001600160401b03811115614e5557600080fd5b614e6188828901614dc1565b969995985093965092949392505050565b60005b83811015614e8d578181015183820152602001614e75565b8381111561095e5750506000910152565b60008151808452614eb6816020860160208601614e72565b601f01601f19169290920160200192915050565b602081526000613b6d6020830184614e9e565b600060208284031215614eef57600080fd5b5035919050565b60008060408385031215614f0957600080fd5b8235614f1481614dac565b946020939093013593505050565b60008060208385031215614f3557600080fd5b82356001600160401b03811115614f4b57600080fd5b614f5785828601614dc1565b90969095509350505050565b60208152815160208201526000602083015160c06040840152614f8960e0840182614e9e565b90506040840151601f19848303016060850152614fa68282614e9e565b91505060608401516080840152608084015160018060a01b0380821660a08601528060a08701511660c086015250508091505092915050565b600080600060608486031215614ff457600080fd5b83359250602084013561500681614dac565b929592945050506040919091013590565b60008060006060848603121561502c57600080fd5b505081359360208301359350604090920135919050565b60006020828403121561505557600080fd5b8135613b6d81614dac565b60008060006060848603121561507557600080fd5b833561508081614dac565b9250602084013561500681614dac565b600080600080606085870312156150a657600080fd5b8435935060208501356001600160401b038111156150c357600080fd5b6150cf87828801614dc1565b9598909750949560400135949350505050565b600080600080606085870312156150f857600080fd5b843561510381614dac565b9350602085013561511381614dac565b925060408501356001600160401b0381111561512e57600080fd5b61513a87828801614dc1565b95989497509550505050565b60008060006040848603121561515b57600080fd5b8335925060208401356001600160401b0381111561517857600080fd5b61518486828701614dc1565b9497909650939450505050565b600080604083850312156151a457600080fd5b50508035926020909101359150565b600080600083850360a08112156151c957600080fd5b843593506060601f19820112156151df57600080fd5b50602084019150608084013590509250925092565b6020808252825182820181905260009190848201906040850190845b8181101561522c57835183529284019291840191600101615210565b50909695505050505050565b6000806000806080858703121561524e57600080fd5b84359350602085013561526081614dac565b93969395505050506040820135916060013590565b60008060008060006080868803121561528d57600080fd5b853561529881614dac565b9450602086013593506040860135614e3a81614dac565b600080600080600080608087890312156152c857600080fd5b86356001600160401b03808211156152df57600080fd5b6152eb8a838b01614dc1565b9098509650602089013591508082111561530457600080fd5b5061531189828a01614dc1565b909550935050604087013561532581614dac565b9150606087013561533581614dac565b809150509295509295509295565b6000806040838503121561535657600080fd5b82359150602083013561536881614dac565b809150509250929050565b6000806040838503121561538657600080fd5b823561539181614dac565b91506020830135801515811461536857600080fd5b634e487b7160e01b600052604160045260246000fd5b604051601f8201601f191681016001600160401b03811182821017156153e4576153e46153a6565b604052919050565b60006001600160401b03821115615405576154056153a6565b50601f01601f191660200190565b6000806000806080858703121561542957600080fd5b843561543481614dac565b9350602085013561544481614dac565b92506040850135915060608501356001600160401b0381111561546657600080fd5b8501601f8101871361547757600080fd5b803561548a615485826153ec565b6153bc565b81815288602083850101111561549f57600080fd5b8160208401602083013760006020838301015280935050505092959194509250565b6000602082840312156154d357600080fd5b81356001600160401b038111156154e957600080fd5b820160a08185031215613b6d57600080fd5b600060c0828403121561550d57600080fd5b50919050565b60006020828403121561552557600080fd5b81356001600160401b0381111561553b57600080fd5b6118e7848285016154fb565b6000806040838503121561555a57600080fd5b82356001600160401b038082111561557157600080fd5b61557d868387016154fb565b9350602085013591508082111561559357600080fd5b5083016040818603121561536857600080fd5b600080600080606085870312156155bc57600080fd5b84359350602085013561511381614dac565b600080604083850312156155e157600080fd5b82356155ec81614dac565b9150602083013561536881614dac565b60006020828403121561560e57600080fd5b5051919050565b6020808252818101527f57656233456e7472793a20756e617574686f7269736564206c696e6b4c697374604082015260600190565b60408152600061565d6040830185614e9e565b90508260208301529392505050565b600181811c9082168061568057607f821691505b6020821081141561550d57634e487b7160e01b600052602260045260246000fd5b8183823760009101908152919050565b81835281816020850137506000828201602090810191909152601f909101601f19169091010190565b8481528360208201526060604082015260006156fa6060830184866156b1565b9695505050505050565b6000615712615485846153ec565b905082815283838301111561572657600080fd5b613b6d836020830184614e72565b60006020828403121561574657600080fd5b81516001600160401b0381111561575c57600080fd5b8201601f8101841361576d57600080fd5b6118e784825160208401615704565b60208082526031908201527f4552433732313a207472616e736665722063616c6c6572206973206e6f74206f6040820152701ddb995c881b9bdc88185c1c1c9bdd9959607a1b606082015260800190565b83815260406020820152600061352e6040830184866156b1565b6060815260006157fb6060830186886156b1565b6020830194909452506040015292915050565b6001600160a01b038416815260406020820181905260009061352e90830184866156b1565b634e487b7160e01b600052603260045260246000fd5b6000602080838503121561585c57600080fd5b82516001600160401b038082111561587357600080fd5b818501915085601f83011261588757600080fd5b815181811115615899576158996153a6565b8060051b91506158aa8483016153bc565b81815291830184019184810190888411156158c457600080fd5b938501935b838510156158e2578451825293850193908501906158c9565b98975050505050505050565b60006020828403121561590057600080fd5b8151613b6d81614dac565b60018060a01b03851681528360208201526060604082015260006156fa6060830184866156b1565b84815260606020820152600061594d6060830185876156b1565b905082604083015295945050505050565b6020815260006118e76020830184866156b1565b6040815260006159866040830185876156b1565b9050826020830152949350505050565b6000808335601e198436030181126159ad57600080fd5b8301803591506001600160401b038211156159c757600080fd5b602001915036819003821315614e0257600080fd5b6000606082840312156159ee57600080fd5b604051606081018181106001600160401b0382111715615a1057615a106153a6565b80604052508235815260208301356020820152604083013560408201528091505092915050565b83815282602082015260606040820152600061352e6060830184614e9e565b634e487b7160e01b600052601160045260246000fd5b6000600019821415615a8057615a80615a56565b5060010190565b600082821015615a9957615a99615a56565b500390565b60008219821115615ab157615ab1615a56565b500190565b805160208201516001600160e01b03198082169291906004831015615ae55780818460040360031b1b83161693505b505050919050565b60008451615aff818460208901614e72565b652d4d696e742d60d01b9083019081528451615b22816006840160208901614e72565b602d60f81b600692909101918201528351615b44816007840160208801614e72565b0160070195945050505050565b6001600160e01b031984168152652d4d696e742d60d01b60048201528251600090615b8381600a850160208801614e72565b602d60f81b600a918401918201528351615ba481600b840160208801614e72565b01600b0195945050505050565b85815284602082015260018060a01b038416604082015260a060608201526000615bde60a0830185614e9e565b82810360808401526158e28185614e9e565b606081526000615c046060830187896156b1565b8281036020840152615c178186886156b1565b9150508260408301529695505050505050565b60208082526032908201527f4552433732313a207472616e7366657220746f206e6f6e20455243373231526560408201527131b2b4bb32b91034b6b83632b6b2b73a32b960711b606082015260800190565b634e487b7160e01b600052601260045260246000fd5b600082615ca157615ca1615c7c565b500490565b600082615cb557615cb5615c7c565b500690565b6001600160a01b03858116825284166020820152604081018390526080606082018190526000906156fa90830184614e9e565b600060208284031215615cff57600080fd5b8151613b6d81614d47565b634e487b7160e01b600052603160045260246000fdfea26469706673582212206848ecbbfc889d5a6bd7b64f1b6a9244651b7961b79a3126137d712ca568a4a864736f6c634300080a0033",
  "linkReferences": {},
  "deployedLinkReferences": {}
}