{
  "_format": "hh-sol-artifact-1",
  "contractName": "Web3Entry",
  "sourceName": "contracts/Web3Entry.sol",
  "abi": [
    {
      "inputs": [
        {
          "internalType": "uint256",
          "name": "characterId",
          "type": "uint256"
        }
      ],
      "name": "ErrCharacterNotExists",
      "type": "error"
    },
    {
      "inputs": [],
      "name": "ErrHandleContainsInvalidCharacters",
      "type": "error"
    },
    {
      "inputs": [],
      "name": "ErrHandleExists",
      "type": "error"
    },
    {
      "inputs": [],
      "name": "ErrHandleLengthInvalid",
      "type": "error"
    },
    {
      "inputs": [],
      "name": "ErrNotAddressOwner",
      "type": "error"
    },
    {
      "inputs": [],
      "name": "ErrNotCharacterOwner",
      "type": "error"
    },
    {
      "inputs": [],
      "name": "ErrNotEnoughPermission",
      "type": "error"
    },
    {
      "inputs": [],
      "name": "ErrNotEnoughPermissionForThisNote",
      "type": "error"
    },
    {
      "inputs": [],
      "name": "ErrNoteIsDeleted",
      "type": "error"
    },
    {
      "inputs": [],
      "name": "ErrNoteLocked",
      "type": "error"
    },
    {
      "inputs": [],
      "name": "ErrNoteNotExists",
      "type": "error"
    },
    {
      "inputs": [],
      "name": "ErrSocialTokenExists",
      "type": "error"
    },
    {
      "inputs": [],
      "name": "ErrTargetAlreadyHasPrimaryCharacter",
      "type": "error"
    },
    {
      "anonymous": false,
      "inputs": [
        {
          "indexed": true,
          "internalType": "address",
          "name": "owner",
          "type": "address"
        },
        {
          "indexed": true,
          "internalType": "address",
          "name": "approved",
          "type": "address"
        },
        {
          "indexed": true,
          "internalType": "uint256",
          "name": "tokenId",
          "type": "uint256"
        }
      ],
      "name": "Approval",
      "type": "event"
    },
    {
      "anonymous": false,
      "inputs": [
        {
          "indexed": true,
          "internalType": "address",
          "name": "owner",
          "type": "address"
        },
        {
          "indexed": true,
          "internalType": "address",
          "name": "operator",
          "type": "address"
        },
        {
          "indexed": false,
          "internalType": "bool",
          "name": "approved",
          "type": "bool"
        }
      ],
      "name": "ApprovalForAll",
      "type": "event"
    },
    {
      "anonymous": false,
      "inputs": [
        {
          "indexed": false,
          "internalType": "uint8",
          "name": "version",
          "type": "uint8"
        }
      ],
      "name": "Initialized",
      "type": "event"
    },
    {
      "anonymous": false,
      "inputs": [
        {
          "indexed": true,
          "internalType": "address",
          "name": "from",
          "type": "address"
        },
        {
          "indexed": true,
          "internalType": "address",
          "name": "to",
          "type": "address"
        },
        {
          "indexed": true,
          "internalType": "uint256",
          "name": "tokenId",
          "type": "uint256"
        }
      ],
      "name": "Transfer",
      "type": "event"
    },
    {
      "inputs": [
        {
          "internalType": "address",
          "name": "to",
          "type": "address"
        },
        {
          "internalType": "uint256",
          "name": "tokenId",
          "type": "uint256"
        }
      ],
      "name": "approve",
      "outputs": [],
      "stateMutability": "nonpayable",
      "type": "function"
    },
    {
      "inputs": [
        {
          "internalType": "address",
          "name": "owner",
          "type": "address"
        }
      ],
      "name": "balanceOf",
      "outputs": [
        {
          "internalType": "uint256",
          "name": "",
          "type": "uint256"
        }
      ],
      "stateMutability": "view",
      "type": "function"
    },
    {
      "inputs": [
        {
          "internalType": "uint256",
          "name": "tokenId",
          "type": "uint256"
        }
      ],
      "name": "burn",
      "outputs": [],
      "stateMutability": "nonpayable",
      "type": "function"
    },
    {
      "inputs": [
        {
          "components": [
            {
              "internalType": "address",
              "name": "to",
              "type": "address"
            },
            {
              "internalType": "string",
              "name": "handle",
              "type": "string"
            },
            {
              "internalType": "string",
              "name": "uri",
              "type": "string"
            },
            {
              "internalType": "address",
              "name": "linkModule",
              "type": "address"
            },
            {
              "internalType": "bytes",
              "name": "linkModuleInitData",
              "type": "bytes"
            }
          ],
          "internalType": "struct DataTypes.CreateCharacterData",
          "name": "vars",
          "type": "tuple"
        }
      ],
      "name": "createCharacter",
      "outputs": [
        {
          "internalType": "uint256",
          "name": "characterId",
          "type": "uint256"
        }
      ],
      "stateMutability": "nonpayable",
      "type": "function"
    },
    {
      "inputs": [
        {
          "components": [
            {
              "internalType": "uint256",
              "name": "fromCharacterId",
              "type": "uint256"
            },
            {
              "internalType": "address",
              "name": "to",
              "type": "address"
            },
            {
              "internalType": "bytes32",
              "name": "linkType",
              "type": "bytes32"
            }
          ],
          "internalType": "struct DataTypes.createThenLinkCharacterData",
          "name": "vars",
          "type": "tuple"
        }
      ],
      "name": "createThenLinkCharacter",
      "outputs": [],
      "stateMutability": "nonpayable",
      "type": "function"
    },
    {
      "inputs": [
        {
          "internalType": "uint256",
          "name": "characterId",
          "type": "uint256"
        },
        {
          "internalType": "uint256",
          "name": "noteId",
          "type": "uint256"
        }
      ],
      "name": "deleteNote",
      "outputs": [],
      "stateMutability": "nonpayable",
      "type": "function"
    },
    {
      "inputs": [
        {
          "internalType": "uint256",
          "name": "tokenId",
          "type": "uint256"
        }
      ],
      "name": "getApproved",
      "outputs": [
        {
          "internalType": "address",
          "name": "",
          "type": "address"
        }
      ],
      "stateMutability": "view",
      "type": "function"
    },
    {
      "inputs": [
        {
          "internalType": "uint256",
          "name": "characterId",
          "type": "uint256"
        }
      ],
      "name": "getCharacter",
      "outputs": [
        {
          "components": [
            {
              "internalType": "uint256",
              "name": "characterId",
              "type": "uint256"
            },
            {
              "internalType": "string",
              "name": "handle",
              "type": "string"
            },
            {
              "internalType": "string",
              "name": "uri",
              "type": "string"
            },
            {
              "internalType": "uint256",
              "name": "noteCount",
              "type": "uint256"
            },
            {
              "internalType": "address",
              "name": "socialToken",
              "type": "address"
            },
            {
              "internalType": "address",
              "name": "linkModule",
              "type": "address"
            }
          ],
          "internalType": "struct DataTypes.Character",
          "name": "",
          "type": "tuple"
        }
      ],
      "stateMutability": "view",
      "type": "function"
    },
    {
      "inputs": [
        {
          "internalType": "string",
          "name": "handle",
          "type": "string"
        }
      ],
      "name": "getCharacterByHandle",
      "outputs": [
        {
          "components": [
            {
              "internalType": "uint256",
              "name": "characterId",
              "type": "uint256"
            },
            {
              "internalType": "string",
              "name": "handle",
              "type": "string"
            },
            {
              "internalType": "string",
              "name": "uri",
              "type": "string"
            },
            {
              "internalType": "uint256",
              "name": "noteCount",
              "type": "uint256"
            },
            {
              "internalType": "address",
              "name": "socialToken",
              "type": "address"
            },
            {
              "internalType": "address",
              "name": "linkModule",
              "type": "address"
            }
          ],
          "internalType": "struct DataTypes.Character",
          "name": "",
          "type": "tuple"
        }
      ],
      "stateMutability": "view",
      "type": "function"
    },
    {
      "inputs": [
        {
          "internalType": "uint256",
          "name": "characterId",
          "type": "uint256"
        }
      ],
      "name": "getCharacterUri",
      "outputs": [
        {
          "internalType": "string",
          "name": "",
          "type": "string"
        }
      ],
      "stateMutability": "view",
      "type": "function"
    },
    {
      "inputs": [
        {
          "internalType": "uint256",
          "name": "characterId",
          "type": "uint256"
        }
      ],
      "name": "getHandle",
      "outputs": [
        {
          "internalType": "string",
          "name": "",
          "type": "string"
        }
      ],
      "stateMutability": "view",
      "type": "function"
    },
    {
      "inputs": [
        {
          "internalType": "address",
          "name": "account",
          "type": "address"
        }
      ],
      "name": "getLinkModule4Address",
      "outputs": [
        {
          "internalType": "address",
          "name": "",
          "type": "address"
        }
      ],
      "stateMutability": "view",
      "type": "function"
    },
    {
      "inputs": [
        {
          "internalType": "address",
          "name": "tokenAddress",
          "type": "address"
        },
        {
          "internalType": "uint256",
          "name": "tokenId",
          "type": "uint256"
        }
      ],
      "name": "getLinkModule4ERC721",
      "outputs": [
        {
          "internalType": "address",
          "name": "",
          "type": "address"
        }
      ],
      "stateMutability": "view",
      "type": "function"
    },
    {
      "inputs": [
        {
          "internalType": "uint256",
          "name": "tokenId",
          "type": "uint256"
        }
      ],
      "name": "getLinkModule4Linklist",
      "outputs": [
        {
          "internalType": "address",
          "name": "",
          "type": "address"
        }
      ],
      "stateMutability": "view",
      "type": "function"
    },
    {
      "inputs": [],
      "name": "getLinklistContract",
      "outputs": [
        {
          "internalType": "address",
          "name": "",
          "type": "address"
        }
      ],
      "stateMutability": "view",
      "type": "function"
    },
    {
      "inputs": [
        {
          "internalType": "uint256",
          "name": "characterId",
          "type": "uint256"
        },
        {
          "internalType": "bytes32",
          "name": "linkType",
          "type": "bytes32"
        }
      ],
      "name": "getLinklistId",
      "outputs": [
        {
          "internalType": "uint256",
          "name": "",
          "type": "uint256"
        }
      ],
      "stateMutability": "view",
      "type": "function"
    },
    {
      "inputs": [
        {
          "internalType": "uint256",
          "name": "linkListId",
          "type": "uint256"
        }
      ],
      "name": "getLinklistType",
      "outputs": [
        {
          "internalType": "bytes32",
          "name": "",
          "type": "bytes32"
        }
      ],
      "stateMutability": "view",
      "type": "function"
    },
    {
      "inputs": [
        {
          "internalType": "uint256",
          "name": "tokenId",
          "type": "uint256"
        }
      ],
      "name": "getLinklistUri",
      "outputs": [
        {
          "internalType": "string",
          "name": "",
          "type": "string"
        }
      ],
      "stateMutability": "view",
      "type": "function"
    },
    {
      "inputs": [
        {
          "internalType": "uint256",
          "name": "characterId",
          "type": "uint256"
        },
        {
          "internalType": "uint256",
          "name": "noteId",
          "type": "uint256"
        }
      ],
      "name": "getNote",
      "outputs": [
        {
          "components": [
            {
              "internalType": "bytes32",
              "name": "linkItemType",
              "type": "bytes32"
            },
            {
              "internalType": "bytes32",
              "name": "linkKey",
              "type": "bytes32"
            },
            {
              "internalType": "string",
              "name": "contentUri",
              "type": "string"
            },
            {
              "internalType": "address",
              "name": "linkModule",
              "type": "address"
            },
            {
              "internalType": "address",
              "name": "mintModule",
              "type": "address"
            },
            {
              "internalType": "address",
              "name": "mintNFT",
              "type": "address"
            },
            {
              "internalType": "bool",
              "name": "deleted",
              "type": "bool"
            },
            {
              "internalType": "bool",
              "name": "locked",
              "type": "bool"
            }
          ],
          "internalType": "struct DataTypes.Note",
          "name": "",
          "type": "tuple"
        }
      ],
      "stateMutability": "view",
      "type": "function"
    },
    {
      "inputs": [
        {
          "internalType": "uint256",
          "name": "characterId",
          "type": "uint256"
        },
        {
          "internalType": "address",
          "name": "operator",
          "type": "address"
        }
      ],
      "name": "getOperatorPermissions",
      "outputs": [
        {
          "internalType": "uint256",
          "name": "",
          "type": "uint256"
        }
      ],
      "stateMutability": "view",
      "type": "function"
    },
    {
      "inputs": [
        {
          "internalType": "uint256",
          "name": "characterId",
          "type": "uint256"
        }
      ],
      "name": "getOperators",
      "outputs": [
        {
          "internalType": "address[]",
          "name": "",
          "type": "address[]"
        }
      ],
      "stateMutability": "view",
      "type": "function"
    },
    {
      "inputs": [
        {
          "internalType": "uint256",
          "name": "characterId",
          "type": "uint256"
        },
        {
          "internalType": "uint256",
          "name": "noteId",
          "type": "uint256"
        }
      ],
      "name": "getOperators4Note",
      "outputs": [
        {
          "internalType": "address[]",
          "name": "blocklist",
          "type": "address[]"
        },
        {
          "internalType": "address[]",
          "name": "allowlist",
          "type": "address[]"
        }
      ],
      "stateMutability": "view",
      "type": "function"
    },
    {
      "inputs": [
        {
          "internalType": "address",
          "name": "account",
          "type": "address"
        }
      ],
      "name": "getPrimaryCharacterId",
      "outputs": [
        {
          "internalType": "uint256",
          "name": "",
          "type": "uint256"
        }
      ],
      "stateMutability": "view",
      "type": "function"
    },
    {
      "inputs": [],
      "name": "getRevision",
      "outputs": [
        {
          "internalType": "uint256",
          "name": "",
          "type": "uint256"
        }
      ],
      "stateMutability": "pure",
      "type": "function"
    },
    {
      "inputs": [
        {
          "internalType": "uint256",
          "name": "characterId",
          "type": "uint256"
        },
        {
          "internalType": "address",
          "name": "operator",
          "type": "address"
        },
        {
          "internalType": "uint256",
          "name": "permissionBitMap",
          "type": "uint256"
        }
      ],
      "name": "grantOperatorPermissions",
      "outputs": [],
      "stateMutability": "nonpayable",
      "type": "function"
    },
    {
      "inputs": [
        {
          "internalType": "uint256",
          "name": "characterId",
          "type": "uint256"
        },
        {
          "internalType": "uint256",
          "name": "noteId",
          "type": "uint256"
        },
        {
          "internalType": "address[]",
          "name": "blocklist",
          "type": "address[]"
        },
        {
          "internalType": "address[]",
          "name": "allowlist",
          "type": "address[]"
        }
      ],
      "name": "grantOperators4Note",
      "outputs": [],
      "stateMutability": "nonpayable",
      "type": "function"
    },
    {
      "inputs": [
        {
          "internalType": "string",
          "name": "name_",
          "type": "string"
        },
        {
          "internalType": "string",
          "name": "symbol_",
          "type": "string"
        },
        {
          "internalType": "address",
          "name": "linklist_",
          "type": "address"
        },
        {
          "internalType": "address",
          "name": "mintNFTImpl_",
          "type": "address"
        },
        {
          "internalType": "address",
          "name": "periphery_",
          "type": "address"
        },
        {
          "internalType": "address",
          "name": "newbieVilla_",
          "type": "address"
        }
      ],
      "name": "initialize",
      "outputs": [],
      "stateMutability": "nonpayable",
      "type": "function"
    },
    {
      "inputs": [
        {
          "internalType": "address",
          "name": "owner",
          "type": "address"
        },
        {
          "internalType": "address",
          "name": "operator",
          "type": "address"
        }
      ],
      "name": "isApprovedForAll",
      "outputs": [
        {
          "internalType": "bool",
          "name": "",
          "type": "bool"
        }
      ],
      "stateMutability": "view",
      "type": "function"
    },
    {
      "inputs": [
        {
          "internalType": "uint256",
          "name": "characterId",
          "type": "uint256"
        },
        {
          "internalType": "uint256",
          "name": "noteId",
          "type": "uint256"
        },
        {
          "internalType": "address",
          "name": "operator",
          "type": "address"
        }
      ],
      "name": "isOperatorAllowedForNote",
      "outputs": [
        {
          "internalType": "bool",
          "name": "",
          "type": "bool"
        }
      ],
      "stateMutability": "view",
      "type": "function"
    },
    {
      "inputs": [
        {
          "internalType": "uint256",
          "name": "characterId",
          "type": "uint256"
        }
      ],
      "name": "isPrimaryCharacter",
      "outputs": [
        {
          "internalType": "bool",
          "name": "",
          "type": "bool"
        }
      ],
      "stateMutability": "view",
      "type": "function"
    },
    {
      "inputs": [
        {
          "components": [
            {
              "internalType": "uint256",
              "name": "fromCharacterId",
              "type": "uint256"
            },
            {
              "internalType": "address",
              "name": "ethAddress",
              "type": "address"
            },
            {
              "internalType": "bytes32",
              "name": "linkType",
              "type": "bytes32"
            },
            {
              "internalType": "bytes",
              "name": "data",
              "type": "bytes"
            }
          ],
          "internalType": "struct DataTypes.linkAddressData",
          "name": "vars",
          "type": "tuple"
        }
      ],
      "name": "linkAddress",
      "outputs": [],
      "stateMutability": "nonpayable",
      "type": "function"
    },
    {
      "inputs": [
        {
          "components": [
            {
              "internalType": "uint256",
              "name": "fromCharacterId",
              "type": "uint256"
            },
            {
              "internalType": "string",
              "name": "toUri",
              "type": "string"
            },
            {
              "internalType": "bytes32",
              "name": "linkType",
              "type": "bytes32"
            },
            {
              "internalType": "bytes",
              "name": "data",
              "type": "bytes"
            }
          ],
          "internalType": "struct DataTypes.linkAnyUriData",
          "name": "vars",
          "type": "tuple"
        }
      ],
      "name": "linkAnyUri",
      "outputs": [],
      "stateMutability": "nonpayable",
      "type": "function"
    },
    {
      "inputs": [
        {
          "components": [
            {
              "internalType": "uint256",
              "name": "fromCharacterId",
              "type": "uint256"
            },
            {
              "internalType": "uint256",
              "name": "toCharacterId",
              "type": "uint256"
            },
            {
              "internalType": "bytes32",
              "name": "linkType",
              "type": "bytes32"
            },
            {
              "internalType": "bytes",
              "name": "data",
              "type": "bytes"
            }
          ],
          "internalType": "struct DataTypes.linkCharacterData",
          "name": "vars",
          "type": "tuple"
        }
      ],
      "name": "linkCharacter",
      "outputs": [],
      "stateMutability": "nonpayable",
      "type": "function"
    },
    {
      "inputs": [
        {
          "components": [
            {
              "internalType": "uint256",
              "name": "fromCharacterId",
              "type": "uint256"
            },
            {
              "internalType": "address",
              "name": "tokenAddress",
              "type": "address"
            },
            {
              "internalType": "uint256",
              "name": "tokenId",
              "type": "uint256"
            },
            {
              "internalType": "bytes32",
              "name": "linkType",
              "type": "bytes32"
            },
            {
              "internalType": "bytes",
              "name": "data",
              "type": "bytes"
            }
          ],
          "internalType": "struct DataTypes.linkERC721Data",
          "name": "vars",
          "type": "tuple"
        }
      ],
      "name": "linkERC721",
      "outputs": [],
      "stateMutability": "nonpayable",
      "type": "function"
    },
    {
      "inputs": [
        {
          "components": [
            {
              "internalType": "uint256",
              "name": "fromCharacterId",
              "type": "uint256"
            },
            {
              "internalType": "uint256",
              "name": "toLinkListId",
              "type": "uint256"
            },
            {
              "internalType": "bytes32",
              "name": "linkType",
              "type": "bytes32"
            },
            {
              "internalType": "bytes",
              "name": "data",
              "type": "bytes"
            }
          ],
          "internalType": "struct DataTypes.linkLinklistData",
          "name": "vars",
          "type": "tuple"
        }
      ],
      "name": "linkLinklist",
      "outputs": [],
      "stateMutability": "nonpayable",
      "type": "function"
    },
    {
      "inputs": [
        {
          "components": [
            {
              "internalType": "uint256",
              "name": "fromCharacterId",
              "type": "uint256"
            },
            {
              "internalType": "uint256",
              "name": "toCharacterId",
              "type": "uint256"
            },
            {
              "internalType": "uint256",
              "name": "toNoteId",
              "type": "uint256"
            },
            {
              "internalType": "bytes32",
              "name": "linkType",
              "type": "bytes32"
            },
            {
              "internalType": "bytes",
              "name": "data",
              "type": "bytes"
            }
          ],
          "internalType": "struct DataTypes.linkNoteData",
          "name": "vars",
          "type": "tuple"
        }
      ],
      "name": "linkNote",
      "outputs": [],
      "stateMutability": "nonpayable",
      "type": "function"
    },
    {
      "inputs": [
        {
          "internalType": "uint256",
          "name": "characterId",
          "type": "uint256"
        },
        {
          "internalType": "uint256",
          "name": "noteId",
          "type": "uint256"
        }
      ],
      "name": "lockNote",
      "outputs": [],
      "stateMutability": "nonpayable",
      "type": "function"
    },
    {
      "inputs": [
        {
          "components": [
            {
              "internalType": "uint256",
              "name": "characterId",
              "type": "uint256"
            },
            {
              "internalType": "uint256",
              "name": "noteId",
              "type": "uint256"
            },
            {
              "internalType": "address",
              "name": "to",
              "type": "address"
            },
            {
              "internalType": "bytes",
              "name": "mintModuleData",
              "type": "bytes"
            }
          ],
          "internalType": "struct DataTypes.MintNoteData",
          "name": "vars",
          "type": "tuple"
        }
      ],
      "name": "mintNote",
      "outputs": [
        {
          "internalType": "uint256",
          "name": "tokenId",
          "type": "uint256"
        }
      ],
      "stateMutability": "nonpayable",
      "type": "function"
    },
    {
      "inputs": [
        {
          "internalType": "bytes[]",
          "name": "data",
          "type": "bytes[]"
        }
      ],
      "name": "multicall",
      "outputs": [
        {
          "internalType": "bytes[]",
          "name": "results",
          "type": "bytes[]"
        }
      ],
      "stateMutability": "nonpayable",
      "type": "function"
    },
    {
      "inputs": [],
      "name": "name",
      "outputs": [
        {
          "internalType": "string",
          "name": "",
          "type": "string"
        }
      ],
      "stateMutability": "view",
      "type": "function"
    },
    {
      "inputs": [
        {
          "internalType": "uint256",
          "name": "tokenId",
          "type": "uint256"
        }
      ],
      "name": "ownerOf",
      "outputs": [
        {
          "internalType": "address",
          "name": "",
          "type": "address"
        }
      ],
      "stateMutability": "view",
      "type": "function"
    },
    {
      "inputs": [
        {
          "components": [
            {
              "internalType": "uint256",
              "name": "characterId",
              "type": "uint256"
            },
            {
              "internalType": "string",
              "name": "contentUri",
              "type": "string"
            },
            {
              "internalType": "address",
              "name": "linkModule",
              "type": "address"
            },
            {
              "internalType": "bytes",
              "name": "linkModuleInitData",
              "type": "bytes"
            },
            {
              "internalType": "address",
              "name": "mintModule",
              "type": "address"
            },
            {
              "internalType": "bytes",
              "name": "mintModuleInitData",
              "type": "bytes"
            },
            {
              "internalType": "bool",
              "name": "locked",
              "type": "bool"
            }
          ],
          "internalType": "struct DataTypes.PostNoteData",
          "name": "vars",
          "type": "tuple"
        }
      ],
      "name": "postNote",
      "outputs": [
        {
          "internalType": "uint256",
          "name": "noteId",
          "type": "uint256"
        }
      ],
      "stateMutability": "nonpayable",
      "type": "function"
    },
    {
      "inputs": [
        {
          "components": [
            {
              "internalType": "uint256",
              "name": "characterId",
              "type": "uint256"
            },
            {
              "internalType": "string",
              "name": "contentUri",
              "type": "string"
            },
            {
              "internalType": "address",
              "name": "linkModule",
              "type": "address"
            },
            {
              "internalType": "bytes",
              "name": "linkModuleInitData",
              "type": "bytes"
            },
            {
              "internalType": "address",
              "name": "mintModule",
              "type": "address"
            },
            {
              "internalType": "bytes",
              "name": "mintModuleInitData",
              "type": "bytes"
            },
            {
              "internalType": "bool",
              "name": "locked",
              "type": "bool"
            }
          ],
          "internalType": "struct DataTypes.PostNoteData",
          "name": "vars",
          "type": "tuple"
        },
        {
          "internalType": "address",
          "name": "ethAddress",
          "type": "address"
        }
      ],
      "name": "postNote4Address",
      "outputs": [
        {
          "internalType": "uint256",
          "name": "",
          "type": "uint256"
        }
      ],
      "stateMutability": "nonpayable",
      "type": "function"
    },
    {
      "inputs": [
        {
          "components": [
            {
              "internalType": "uint256",
              "name": "characterId",
              "type": "uint256"
            },
            {
              "internalType": "string",
              "name": "contentUri",
              "type": "string"
            },
            {
              "internalType": "address",
              "name": "linkModule",
              "type": "address"
            },
            {
              "internalType": "bytes",
              "name": "linkModuleInitData",
              "type": "bytes"
            },
            {
              "internalType": "address",
              "name": "mintModule",
              "type": "address"
            },
            {
              "internalType": "bytes",
              "name": "mintModuleInitData",
              "type": "bytes"
            },
            {
              "internalType": "bool",
              "name": "locked",
              "type": "bool"
            }
          ],
          "internalType": "struct DataTypes.PostNoteData",
          "name": "vars",
          "type": "tuple"
        },
        {
          "internalType": "string",
          "name": "uri",
          "type": "string"
        }
      ],
      "name": "postNote4AnyUri",
      "outputs": [
        {
          "internalType": "uint256",
          "name": "",
          "type": "uint256"
        }
      ],
      "stateMutability": "nonpayable",
      "type": "function"
    },
    {
      "inputs": [
        {
          "components": [
            {
              "internalType": "uint256",
              "name": "characterId",
              "type": "uint256"
            },
            {
              "internalType": "string",
              "name": "contentUri",
              "type": "string"
            },
            {
              "internalType": "address",
              "name": "linkModule",
              "type": "address"
            },
            {
              "internalType": "bytes",
              "name": "linkModuleInitData",
              "type": "bytes"
            },
            {
              "internalType": "address",
              "name": "mintModule",
              "type": "address"
            },
            {
              "internalType": "bytes",
              "name": "mintModuleInitData",
              "type": "bytes"
            },
            {
              "internalType": "bool",
              "name": "locked",
              "type": "bool"
            }
          ],
          "internalType": "struct DataTypes.PostNoteData",
          "name": "vars",
          "type": "tuple"
        },
        {
          "internalType": "uint256",
          "name": "toCharacterId",
          "type": "uint256"
        }
      ],
      "name": "postNote4Character",
      "outputs": [
        {
          "internalType": "uint256",
          "name": "",
          "type": "uint256"
        }
      ],
      "stateMutability": "nonpayable",
      "type": "function"
    },
    {
      "inputs": [
        {
          "components": [
            {
              "internalType": "uint256",
              "name": "characterId",
              "type": "uint256"
            },
            {
              "internalType": "string",
              "name": "contentUri",
              "type": "string"
            },
            {
              "internalType": "address",
              "name": "linkModule",
              "type": "address"
            },
            {
              "internalType": "bytes",
              "name": "linkModuleInitData",
              "type": "bytes"
            },
            {
              "internalType": "address",
              "name": "mintModule",
              "type": "address"
            },
            {
              "internalType": "bytes",
              "name": "mintModuleInitData",
              "type": "bytes"
            },
            {
              "internalType": "bool",
              "name": "locked",
              "type": "bool"
            }
          ],
          "internalType": "struct DataTypes.PostNoteData",
          "name": "vars",
          "type": "tuple"
        },
        {
          "components": [
            {
              "internalType": "address",
              "name": "tokenAddress",
              "type": "address"
            },
            {
              "internalType": "uint256",
              "name": "erc721TokenId",
              "type": "uint256"
            }
          ],
          "internalType": "struct DataTypes.ERC721Struct",
          "name": "erc721",
          "type": "tuple"
        }
      ],
      "name": "postNote4ERC721",
      "outputs": [
        {
          "internalType": "uint256",
          "name": "",
          "type": "uint256"
        }
      ],
      "stateMutability": "nonpayable",
      "type": "function"
    },
    {
      "inputs": [
        {
          "components": [
            {
              "internalType": "uint256",
              "name": "characterId",
              "type": "uint256"
            },
            {
              "internalType": "string",
              "name": "contentUri",
              "type": "string"
            },
            {
              "internalType": "address",
              "name": "linkModule",
              "type": "address"
            },
            {
              "internalType": "bytes",
              "name": "linkModuleInitData",
              "type": "bytes"
            },
            {
              "internalType": "address",
              "name": "mintModule",
              "type": "address"
            },
            {
              "internalType": "bytes",
              "name": "mintModuleInitData",
              "type": "bytes"
            },
            {
              "internalType": "bool",
              "name": "locked",
              "type": "bool"
            }
          ],
          "internalType": "struct DataTypes.PostNoteData",
          "name": "vars",
          "type": "tuple"
        },
        {
          "internalType": "uint256",
          "name": "toLinklistId",
          "type": "uint256"
        }
      ],
      "name": "postNote4Linklist",
      "outputs": [
        {
          "internalType": "uint256",
          "name": "",
          "type": "uint256"
        }
      ],
      "stateMutability": "nonpayable",
      "type": "function"
    },
    {
      "inputs": [
        {
          "components": [
            {
              "internalType": "uint256",
              "name": "characterId",
              "type": "uint256"
            },
            {
              "internalType": "string",
              "name": "contentUri",
              "type": "string"
            },
            {
              "internalType": "address",
              "name": "linkModule",
              "type": "address"
            },
            {
              "internalType": "bytes",
              "name": "linkModuleInitData",
              "type": "bytes"
            },
            {
              "internalType": "address",
              "name": "mintModule",
              "type": "address"
            },
            {
              "internalType": "bytes",
              "name": "mintModuleInitData",
              "type": "bytes"
            },
            {
              "internalType": "bool",
              "name": "locked",
              "type": "bool"
            }
          ],
          "internalType": "struct DataTypes.PostNoteData",
          "name": "vars",
          "type": "tuple"
        },
        {
          "components": [
            {
              "internalType": "uint256",
              "name": "characterId",
              "type": "uint256"
            },
            {
              "internalType": "uint256",
              "name": "noteId",
              "type": "uint256"
            }
          ],
          "internalType": "struct DataTypes.NoteStruct",
          "name": "note",
          "type": "tuple"
        }
      ],
      "name": "postNote4Note",
      "outputs": [
        {
          "internalType": "uint256",
          "name": "",
          "type": "uint256"
        }
      ],
      "stateMutability": "nonpayable",
      "type": "function"
    },
    {
      "inputs": [],
      "name": "resolver",
      "outputs": [
        {
          "internalType": "address",
          "name": "",
          "type": "address"
        }
      ],
      "stateMutability": "view",
      "type": "function"
    },
    {
      "inputs": [
        {
          "internalType": "address",
          "name": "from",
          "type": "address"
        },
        {
          "internalType": "address",
          "name": "to",
          "type": "address"
        },
        {
          "internalType": "uint256",
          "name": "tokenId",
          "type": "uint256"
        }
      ],
      "name": "safeTransferFrom",
      "outputs": [],
      "stateMutability": "nonpayable",
      "type": "function"
    },
    {
      "inputs": [
        {
          "internalType": "address",
          "name": "from",
          "type": "address"
        },
        {
          "internalType": "address",
          "name": "to",
          "type": "address"
        },
        {
          "internalType": "uint256",
          "name": "tokenId",
          "type": "uint256"
        },
        {
          "internalType": "bytes",
          "name": "_data",
          "type": "bytes"
        }
      ],
      "name": "safeTransferFrom",
      "outputs": [],
      "stateMutability": "nonpayable",
      "type": "function"
    },
    {
      "inputs": [
        {
          "internalType": "address",
          "name": "operator",
          "type": "address"
        },
        {
          "internalType": "bool",
          "name": "approved",
          "type": "bool"
        }
      ],
      "name": "setApprovalForAll",
      "outputs": [],
      "stateMutability": "nonpayable",
      "type": "function"
    },
    {
      "inputs": [
        {
          "internalType": "uint256",
          "name": "characterId",
          "type": "uint256"
        },
        {
          "internalType": "string",
          "name": "newUri",
          "type": "string"
        }
      ],
      "name": "setCharacterUri",
      "outputs": [],
      "stateMutability": "nonpayable",
      "type": "function"
    },
    {
      "inputs": [
        {
          "internalType": "uint256",
          "name": "characterId",
          "type": "uint256"
        },
        {
          "internalType": "string",
          "name": "newHandle",
          "type": "string"
        }
      ],
      "name": "setHandle",
      "outputs": [],
      "stateMutability": "nonpayable",
      "type": "function"
    },
    {
      "inputs": [
        {
          "components": [
            {
              "internalType": "address",
              "name": "account",
              "type": "address"
            },
            {
              "internalType": "address",
              "name": "linkModule",
              "type": "address"
            },
            {
              "internalType": "bytes",
              "name": "linkModuleInitData",
              "type": "bytes"
            }
          ],
          "internalType": "struct DataTypes.setLinkModule4AddressData",
          "name": "vars",
          "type": "tuple"
        }
      ],
      "name": "setLinkModule4Address",
      "outputs": [],
      "stateMutability": "nonpayable",
      "type": "function"
    },
    {
      "inputs": [
        {
          "components": [
            {
              "internalType": "uint256",
              "name": "linklistId",
              "type": "uint256"
            },
            {
              "internalType": "address",
              "name": "linkModule",
              "type": "address"
            },
            {
              "internalType": "bytes",
              "name": "linkModuleInitData",
              "type": "bytes"
            }
          ],
          "internalType": "struct DataTypes.setLinkModule4LinklistData",
          "name": "vars",
          "type": "tuple"
        }
      ],
      "name": "setLinkModule4Linklist",
      "outputs": [],
      "stateMutability": "nonpayable",
      "type": "function"
    },
    {
      "inputs": [
        {
          "internalType": "uint256",
          "name": "linklistId",
          "type": "uint256"
        },
        {
          "internalType": "string",
          "name": "uri",
          "type": "string"
        }
      ],
      "name": "setLinklistUri",
      "outputs": [],
      "stateMutability": "nonpayable",
      "type": "function"
    },
    {
      "inputs": [
        {
          "components": [
            {
              "internalType": "uint256",
              "name": "characterId",
              "type": "uint256"
            },
            {
              "internalType": "uint256",
              "name": "noteId",
              "type": "uint256"
            },
            {
              "internalType": "address",
              "name": "mintModule",
              "type": "address"
            },
            {
              "internalType": "bytes",
              "name": "mintModuleInitData",
              "type": "bytes"
            }
          ],
          "internalType": "struct DataTypes.setMintModule4NoteData",
          "name": "vars",
          "type": "tuple"
        }
      ],
      "name": "setMintModule4Note",
      "outputs": [],
      "stateMutability": "nonpayable",
      "type": "function"
    },
    {
      "inputs": [
        {
          "internalType": "uint256",
          "name": "characterId",
          "type": "uint256"
        },
        {
          "internalType": "uint256",
          "name": "noteId",
          "type": "uint256"
        },
        {
          "internalType": "string",
          "name": "newUri",
          "type": "string"
        }
      ],
      "name": "setNoteUri",
      "outputs": [],
      "stateMutability": "nonpayable",
      "type": "function"
    },
    {
      "inputs": [
        {
          "internalType": "uint256",
          "name": "characterId",
          "type": "uint256"
        }
      ],
      "name": "setPrimaryCharacterId",
      "outputs": [],
      "stateMutability": "nonpayable",
      "type": "function"
    },
    {
      "inputs": [
        {
          "internalType": "uint256",
          "name": "characterId",
          "type": "uint256"
        },
        {
          "internalType": "address",
          "name": "tokenAddress",
          "type": "address"
        }
      ],
      "name": "setSocialToken",
      "outputs": [],
      "stateMutability": "nonpayable",
      "type": "function"
    },
    {
      "inputs": [
        {
          "internalType": "bytes4",
          "name": "interfaceId",
          "type": "bytes4"
        }
      ],
      "name": "supportsInterface",
      "outputs": [
        {
          "internalType": "bool",
          "name": "",
          "type": "bool"
        }
      ],
      "stateMutability": "view",
      "type": "function"
    },
    {
      "inputs": [],
      "name": "symbol",
      "outputs": [
        {
          "internalType": "string",
          "name": "",
          "type": "string"
        }
      ],
      "stateMutability": "view",
      "type": "function"
    },
    {
      "inputs": [
        {
          "internalType": "uint256",
          "name": "index",
          "type": "uint256"
        }
      ],
      "name": "tokenByIndex",
      "outputs": [
        {
          "internalType": "uint256",
          "name": "",
          "type": "uint256"
        }
      ],
      "stateMutability": "view",
      "type": "function"
    },
    {
      "inputs": [
        {
          "internalType": "address",
          "name": "owner",
          "type": "address"
        },
        {
          "internalType": "uint256",
          "name": "index",
          "type": "uint256"
        }
      ],
      "name": "tokenOfOwnerByIndex",
      "outputs": [
        {
          "internalType": "uint256",
          "name": "",
          "type": "uint256"
        }
      ],
      "stateMutability": "view",
      "type": "function"
    },
    {
      "inputs": [
        {
          "internalType": "uint256",
          "name": "characterId",
          "type": "uint256"
        }
      ],
      "name": "tokenURI",
      "outputs": [
        {
          "internalType": "string",
          "name": "",
          "type": "string"
        }
      ],
      "stateMutability": "view",
      "type": "function"
    },
    {
      "inputs": [],
      "name": "totalSupply",
      "outputs": [
        {
          "internalType": "uint256",
          "name": "",
          "type": "uint256"
        }
      ],
      "stateMutability": "view",
      "type": "function"
    },
    {
      "inputs": [
        {
          "internalType": "address",
          "name": "from",
          "type": "address"
        },
        {
          "internalType": "address",
          "name": "to",
          "type": "address"
        },
        {
          "internalType": "uint256",
          "name": "tokenId",
          "type": "uint256"
        }
      ],
      "name": "transferFrom",
      "outputs": [],
      "stateMutability": "nonpayable",
      "type": "function"
    },
    {
      "inputs": [
        {
          "components": [
            {
              "internalType": "uint256",
              "name": "fromCharacterId",
              "type": "uint256"
            },
            {
              "internalType": "address",
              "name": "ethAddress",
              "type": "address"
            },
            {
              "internalType": "bytes32",
              "name": "linkType",
              "type": "bytes32"
            }
          ],
          "internalType": "struct DataTypes.unlinkAddressData",
          "name": "vars",
          "type": "tuple"
        }
      ],
      "name": "unlinkAddress",
      "outputs": [],
      "stateMutability": "nonpayable",
      "type": "function"
    },
    {
      "inputs": [
        {
          "components": [
            {
              "internalType": "uint256",
              "name": "fromCharacterId",
              "type": "uint256"
            },
            {
              "internalType": "string",
              "name": "toUri",
              "type": "string"
            },
            {
              "internalType": "bytes32",
              "name": "linkType",
              "type": "bytes32"
            }
          ],
          "internalType": "struct DataTypes.unlinkAnyUriData",
          "name": "vars",
          "type": "tuple"
        }
      ],
      "name": "unlinkAnyUri",
      "outputs": [],
      "stateMutability": "nonpayable",
      "type": "function"
    },
    {
      "inputs": [
        {
          "components": [
            {
              "internalType": "uint256",
              "name": "fromCharacterId",
              "type": "uint256"
            },
            {
              "internalType": "uint256",
              "name": "toCharacterId",
              "type": "uint256"
            },
            {
              "internalType": "bytes32",
              "name": "linkType",
              "type": "bytes32"
            }
          ],
          "internalType": "struct DataTypes.unlinkCharacterData",
          "name": "vars",
          "type": "tuple"
        }
      ],
      "name": "unlinkCharacter",
      "outputs": [],
      "stateMutability": "nonpayable",
      "type": "function"
    },
    {
      "inputs": [
        {
          "components": [
            {
              "internalType": "uint256",
              "name": "fromCharacterId",
              "type": "uint256"
            },
            {
              "internalType": "address",
              "name": "tokenAddress",
              "type": "address"
            },
            {
              "internalType": "uint256",
              "name": "tokenId",
              "type": "uint256"
            },
            {
              "internalType": "bytes32",
              "name": "linkType",
              "type": "bytes32"
            }
          ],
          "internalType": "struct DataTypes.unlinkERC721Data",
          "name": "vars",
          "type": "tuple"
        }
      ],
      "name": "unlinkERC721",
      "outputs": [],
      "stateMutability": "nonpayable",
      "type": "function"
    },
    {
      "inputs": [
        {
          "components": [
            {
              "internalType": "uint256",
              "name": "fromCharacterId",
              "type": "uint256"
            },
            {
              "internalType": "uint256",
              "name": "toLinkListId",
              "type": "uint256"
            },
            {
              "internalType": "bytes32",
              "name": "linkType",
              "type": "bytes32"
            }
          ],
          "internalType": "struct DataTypes.unlinkLinklistData",
          "name": "vars",
          "type": "tuple"
        }
      ],
      "name": "unlinkLinklist",
      "outputs": [],
      "stateMutability": "nonpayable",
      "type": "function"
    },
    {
      "inputs": [
        {
          "components": [
            {
              "internalType": "uint256",
              "name": "fromCharacterId",
              "type": "uint256"
            },
            {
              "internalType": "uint256",
              "name": "toCharacterId",
              "type": "uint256"
            },
            {
              "internalType": "uint256",
              "name": "toNoteId",
              "type": "uint256"
            },
            {
              "internalType": "bytes32",
              "name": "linkType",
              "type": "bytes32"
            }
          ],
          "internalType": "struct DataTypes.unlinkNoteData",
          "name": "vars",
          "type": "tuple"
        }
      ],
      "name": "unlinkNote",
      "outputs": [],
      "stateMutability": "nonpayable",
      "type": "function"
    }
  ],
  "bytecode": "0x608060405234801561001057600080fd5b50615c7b80620000216000396000f3fe608060405234801561001057600080fd5b506004361061043e5760003560e01c8063867884e611610236578063c053f6b81161013b578063dc17b6de116100c3578063ef0828ab11610087578063ef0828ab14610a71578063f2ad807514610a84578063f316bacd14610a97578063f6479d7714610aaa578063fe9299fb14610abd57600080fd5b8063dc17b6de146109e9578063dca27135146109fc578063e56f2fe414610a0f578063e985e9c514610a22578063ec81d19414610a5e57600080fd5b8063cd69fe611161010a578063cd69fe6114610965578063d23b320b14610978578063d70e10c61461098b578063dabb0531146109b6578063db491e80146109c957600080fd5b8063c053f6b81461091b578063c2a6fe3b1461092c578063c87b56dd1461093f578063cb8e757e1461095257600080fd5b80639a4dec18116101be578063a7ccb4bf1161018d578063a7ccb4bf146108af578063ac9650d8146108c2578063af90b112146108e2578063b88d4fde146108f5578063b9d328451461090857600080fd5b80639a4dec18146108565780639a50248d14610869578063a22cb46514610889578063a6e6178d1461089c57600080fd5b806393f057e51161020557806393f057e5146107df578063952be0ef146107f257806395d89b411461082857806395d9fa7d146108305780639864c3071461084357600080fd5b8063867884e6146107935780638734bbfc146107a65780638b4ca06a146107b957806392f7070b146107cc57600080fd5b80632f745c591161034757806347f94de7116102cf578063628b644a11610293578063628b644a146107275780636352211e1461073a5780636bf55d5f1461074d57806370a082311461076d57806374f345cf1461078057600080fd5b806347f94de7146106ba57806349186953146106cd5780634f6ccce7146106ee5780635a936d10146107015780635fb881831461071457600080fd5b8063388f508311610316578063388f50831461065b57806340ad34d81461066e57806342842e0e1461068157806342966c681461069457806344b82a24146106a757600080fd5b80632f745c59146105f657806331b9d08c14610609578063327b2a031461063557806333f06ee61461064857600080fd5b8063144a3e83116103ca5780632209d145116103995780632209d1451461055e57806323b872dd1461059457806328fbb805146105a757806329c301c2146105ba5780632abc6bf6146105cd57600080fd5b8063144a3e831461051d57806318160ddd14610530578063188b04b314610538578063206657f21461054b57600080fd5b806308cb68ff1161041157806308cb68ff146104be578063095ea7b3146104d35780630c4dd5f2146104e65780630ff98244146104f95780631316529d1461050c57600080fd5b806301ffc9a71461044357806304f3bcec1461046b57806306fdde0314610496578063081812fc146104ab575b600080fd5b610456610451366004614478565b610ae6565b60405190151581526020015b60405180910390f35b60175461047e906001600160a01b031681565b6040516001600160a01b039091168152602001610462565b61049e610b11565b60405161046291906144e5565b61047e6104b93660046144f8565b610ba3565b6104d16104cc366004614529565b610c3d565b005b6104d16104e1366004614579565b610d14565b6104d16104f4366004614529565b610e29565b6104d16105073660046145a3565b610f33565b60045b604051908152602001610462565b61049e61052b3660046144f8565b610fc5565b60085461050f565b6104d16105463660046145d1565b610fd0565b6104d1610559366004614605565b61106e565b61047e61056c366004614579565b6001600160a01b03918216600090815260106020908152604080832093835292905220541690565b6104d16105a236600461463a565b611106565b6104566105b5366004614666565b611137565b61050f6105c83660046146ad565b61114e565b61050f6105db3660046146e1565b6001600160a01b03166000908152600c602052604090205490565b61050f610604366004614579565b6111df565b61047e6106173660046146e1565b6001600160a01b039081166000908152601160205260409020541690565b61050f61064336600461470e565b611275565b6104d161065636600461479b565b6113ff565b6104d16106693660046145d1565b6114e6565b6104d161067c3660046147e6565b61153b565b6104d161068f36600461463a565b6115b7565b6104d16106a23660046144f8565b6115d2565b61050f6106b5366004614802565b61166f565b6104d16106c836600461479b565b6116d0565b6106e06106db366004614846565b611737565b6040516104629291906148ac565b61050f6106fc3660046144f8565b61178f565b6104d161070f3660046145a3565b611822565b6104d16107223660046145d1565b6118b4565b6104d16107353660046148d1565b611909565b61047e6107483660046144f8565b611996565b61076061075b3660046144f8565b611a0d565b6040516104629190614923565b61050f61077b3660046146e1565b611a27565b6104d161078e366004614846565b611aae565b6104d16107a13660046147e6565b611b28565b6104566107b43660046144f8565b611b9a565b61050f6107c73660046144f8565b611bc8565b61050f6107da366004614936565b611c34565b6104d16107ed3660046145a3565b611caa565b61050f61080036600461497a565b60009182526019602090815260408084206001600160a01b0393909316845291905290205490565b61049e611d1b565b6104d161083e36600461497a565b611d2a565b6104d16108513660046145d1565b611dbc565b61050f61086436600461470e565b611e11565b61087c61087736600461499d565b611efc565b60405161046291906149de565b6104d1610897366004614a6a565b6120ab565b6104d16108aa36600461479b565b6120b6565b61050f6108bd3660046145d1565b61212c565b6108d56108d0366004614ad8565b6121cd565b6040516104629190614b0d565b61050f6108f0366004614802565b6122c1565b6104d1610903366004614bdc565b6122e8565b6104d1610916366004614c98565b612320565b6013546001600160a01b031661047e565b6104d161093a366004614846565b6123ac565b61049e61094d3660046144f8565b61241e565b6104d1610960366004614c98565b6124c3565b61050f610973366004614c98565b612518565b6104d16109863660046145d1565b6125b8565b61050f610999366004614846565b6000918252600d6020908152604080842092845291905290205490565b61087c6109c43660046144f8565b612643565b6109dc6109d7366004614846565b6127ca565b6040516104629190614ccc565b6104d16109f7366004614d62565b61292b565b61049e610a0a3660046144f8565b6129bc565b6104d1610a1d366004614de4565b612a2e565b610456610a30366004614e95565b6001600160a01b03918216600090815260056020908152604080832093909416825291909152205460ff1690565b61049e610a6c3660046144f8565b612bbb565b6104d1610a7f366004614529565b612bdb565b6104d1610a923660046144f8565b612c4c565b61050f610aa5366004614ebf565b612c9b565b6104d1610ab83660046145a3565b612ddc565b61047e610acb3660046144f8565b6000908152600f60205260409020546001600160a01b031690565b60006001600160e01b0319821663780e9d6360e01b1480610b0b5750610b0b82612e25565b92915050565b606060008054610b2090614f1a565b80601f0160208091040260200160405190810160405280929190818152602001828054610b4c90614f1a565b8015610b995780601f10610b6e57610100808354040283529160200191610b99565b820191906000526020600020905b815481529060010190602001808311610b7c57829003601f168201915b5050505050905090565b6000818152600260205260408120546001600160a01b0316610c215760405162461bcd60e51b815260206004820152602c60248201527f4552433732313a20617070726f76656420717565727920666f72206e6f6e657860448201526b34b9ba32b73a103a37b5b2b760a11b60648201526084015b60405180910390fd5b506000908152600460205260409020546001600160a01b031690565b610c4a60208201826146e1565b6001600160a01b0316336001600160a01b031614610c7b5760405163ca67421960e01b815260040160405180910390fd5b73__$69db18565ecbefece480e92cc5f8fb1274$__63dfc34f25610ca260208401846146e1565b610cb260408501602086016146e1565b610cbf6040860186614f4e565b60116040518663ffffffff1660e01b8152600401610ce1959493929190614fbd565b60006040518083038186803b158015610cf957600080fd5b505af4158015610d0d573d6000803e3d6000fd5b5050505050565b6000610d1f82611996565b9050806001600160a01b0316836001600160a01b031603610d8c5760405162461bcd60e51b815260206004820152602160248201527f4552433732313a20617070726f76616c20746f2063757272656e74206f776e656044820152603960f91b6064820152608401610c18565b336001600160a01b0382161480610da85750610da88133610a30565b610e1a5760405162461bcd60e51b815260206004820152603860248201527f4552433732313a20617070726f76652063616c6c6572206973206e6f74206f7760448201527f6e6572206e6f7220617070726f76656420666f7220616c6c00000000000000006064820152608401610c18565b610e248383612e75565b505050565b6013546040516367880d6160e11b8152823560048201526000916001600160a01b03169063cf101ac290602401602060405180830381865afa158015610e73573d6000803e3d6000fd5b505050506040513d601f19601f82011682018060405250810190610e979190614ffc565b9050610ea48160c1612ee3565b73__$69db18565ecbefece480e92cc5f8fb1274$__636252159e8335610ed060408601602087016146e1565b610edd6040870187614f4e565b600f6040518663ffffffff1660e01b8152600401610eff959493929190615015565b60006040518083038186803b158015610f1757600080fd5b505af4158015610f2b573d6000803e3d6000fd5b505050505050565b610f3f813560b2612ee3565b60135481356000818152600d6020908152604080832081870135808552908352928190205490516328066f9160e21b8152600481019490945290850135602484015260448301919091526001600160a01b039092166064820152608481019190915273__$e2c9a8f399964af47bb173600dd9e5f662$__9063a019be449060a401610ce1565b6060610b0b8261241e565b610fdc813560b2612ee3565b610fe98160200135612f74565b73__$e2c9a8f399964af47bb173600dd9e5f662$__639ec52a2382356020840135604085013561101c6060870187614f4e565b6013546020808a01356000908152600a9091526040908190206005015490516001600160e01b031960e08a901b168152610ce19796959493926001600160a01b03908116921690600d90600401615040565b611079836002612ee3565b604051631f8c0b6760e11b8152600481018490526001600160a01b038316602482015260448101829052601860648201526019608482015273__$bfdcc7011a2e80c167e18378382b8de19c$__90633f1816ce9060a4015b60006040518083038186803b1580156110e957600080fd5b505af41580156110fd573d6000803e3d6000fd5b50505050505050565b6111103382612fac565b61112c5760405162461bcd60e51b8152600401610c189061508d565b610e248383836130a3565b6000611144848484613250565b90505b9392505050565b600061115c823560ec612ee3565b61116682356132da565b6040516342a34a5360e01b815290915073__$2873850e5b3f5697aafc2f5cd9f27cc884$__906342a34a53906111aa90859085906000908190600e906004016151e5565b60006040518083038186803b1580156111c257600080fd5b505af41580156111d6573d6000803e3d6000fd5b50505050919050565b60006111ea83611a27565b821061124c5760405162461bcd60e51b815260206004820152602b60248201527f455243373231456e756d657261626c653a206f776e657220696e646578206f7560448201526a74206f6620626f756e647360a81b6064820152608401610c18565b506001600160a01b03919091166000908152600660209081526040808320938352929052205490565b6000611283833560ca612ee3565b6545524337323160d01b600061129985356132da565b6013549091506000906001600160a01b0316632ea24efc826112be60208901896146e1565b6040516001600160e01b031960e085901b16815260048101929092526001600160a01b03166024820152602088013560448201526064016020604051808303816000875af1158015611314573d6000803e3d6000fd5b505050506040513d601f19601f820116820180604052508101906113389190614ffc565b905073__$2873850e5b3f5697aafc2f5cd9f27cc884$__6342a34a538784868561136560208c018c6146e1565b8b6020013560405160200161139392919060609290921b6001600160601b0319168252601482015260340190565b604051602081830303815290604052600e6040518763ffffffff1660e01b81526004016113c59695949392919061522a565b60006040518083038186803b1580156113dd57600080fd5b505af41580156113f1573d6000803e3d6000fd5b509398975050505050505050565b6013546040516367880d6160e11b8152600481018590526000916001600160a01b03169063cf101ac290602401602060405180830381865afa158015611449573d6000803e3d6000fd5b505050506040513d601f19601f8201168201806040525081019061146d9190614ffc565b905061147a8160b1612ee3565b601354604051633c17845760e11b81526001600160a01b039091169063782f08ae906114ae90879087908790600401615275565b600060405180830381600087803b1580156114c857600080fd5b505af11580156114dc573d6000803e3d6000fd5b5050505050505050565b6114f2813560b9612ee3565b60135460405163e4bb4f2360e01b815273__$e2c9a8f399964af47bb173600dd9e5f662$__9163e4bb4f2391610ce19185916001600160a01b0390911690600d9060040161528f565b611547813560b6612ee3565b60135460408051635cebf08d60e11b81528335600482015260208401356024820152908301356044820152606083013560648201526001600160a01b039091166084820152600d60a482015273__$e2c9a8f399964af47bb173600dd9e5f662$__9063b9d7e11a9060c401610ce1565b610e24838383604051806020016040528060008152506122e8565b6000818152600a602052604080822090516115f091600101906152fb565b60408051918290039091206000818152600b6020908152838220829055858252600a90529182208281559092509061162b60018301826143c7565b6116396002830160006143c7565b50600060038201556004810180546001600160a01b031990811690915560059091018054909116905561166b82613303565b5050565b600061167d833560c8612ee3565b67131a5b9adb1a5cdd60c21b600061169585356132da565b905060008460001b905073__$2873850e5b3f5697aafc2f5cd9f27cc884$__6342a34a53878486858a60405160200161139391815260200190565b6116db8360b0612ee3565b6000838152600a602052604090206002016116f78284836153b7565b50827f17d7c9f69270ba135480ef16837f38b9d37d3ab291cbd3ba03982290c6631997838360405161172a929190615476565b60405180910390a2505050565b6000828152601a602090815260408083208484529091529020606090819061175e90613362565b6000858152601a60209081526040808320878452909152902090925061178690600201613362565b90509250929050565b600061179a60085490565b82106117fd5760405162461bcd60e51b815260206004820152602c60248201527f455243373231456e756d657261626c653a20676c6f62616c20696e646578206f60448201526b7574206f6620626f756e647360a01b6064820152608401610c18565b600882815481106118105761181061548a565b90600052602060002001549050919050565b61182e813560be612ee3565b60135481356000818152600d60209081526040808320818701358085529083529281902054905163d862986560e01b8152600481019490945290850135602484015260448301919091526001600160a01b039092166064820152608481019190915273__$e2c9a8f399964af47bb173600dd9e5f662$__9063d86298659060a401610ce1565b6118c0813560bb612ee3565b6013546040516332f107bf60e01b815273__$e2c9a8f399964af47bb173600dd9e5f662$__916332f107bf91610ce19185916001600160a01b0390911690600d906004016154a0565b611913848461336f565b61191d84846133d4565b611927848461344b565b6040516001626802bf60e01b0319815273__$2873850e5b3f5697aafc2f5cd9f27cc884$__9063ff97fd419061196a908790879087908790600e9060040161551d565b60006040518083038186803b15801561198257600080fd5b505af41580156114dc573d6000803e3d6000fd5b6000818152600260205260408120546001600160a01b031680610b0b5760405162461bcd60e51b815260206004820152602960248201527f4552433732313a206f776e657220717565727920666f72206e6f6e657869737460448201526832b73a103a37b5b2b760b91b6064820152608401610c18565b6000818152601860205260409020606090610b0b90613362565b60006001600160a01b038216611a925760405162461bcd60e51b815260206004820152602a60248201527f4552433732313a2062616c616e636520717565727920666f7220746865207a65604482015269726f206164647265737360b01b6064820152608401610c18565b506001600160a01b031660009081526003602052604090205490565b611ab98260c4612ee3565b611ac382826133d4565b6000828152600e60209081526040808320848452825291829020600501805460ff60a81b1916600160a81b179055905182815283917f036469f3e73c83520cdefa197d7a9c854c2f8bc0164b82e9f2bd4aa7e150fd3091015b60405180910390a25050565b611b34813560b8612ee3565b60135481356000908152600d6020908152604080832060608601358452909152908190205490516317e9a8b160e31b815273__$e2c9a8f399964af47bb173600dd9e5f662$__9263bf4d458892610ce19286926001600160a01b0316919060040161553d565b600080611ba683611996565b6001600160a01b03166000908152600c60205260409020549290921492915050565b60135460405162fba02760e01b8152600481018390526000916001600160a01b03169062fba02790602401602060405180830381865afa158015611c10573d6000803e3d6000fd5b505050506040513d601f19601f82011682018060405250810190610b0b9190614ffc565b6000611c42833560c7612ee3565b664164647265737360c81b6000611c5985356132da565b6040516001600160601b0319606087901b1660208201529091506001600160a01b0385169073__$2873850e5b3f5697aafc2f5cd9f27cc884$__906342a34a53908890859087908690603401611393565b611cb6813560ba612ee3565b60135481356000908152600d6020908152604080832081860135845290915290819020549051633d7f9b3d60e11b815273__$e2c9a8f399964af47bb173600dd9e5f662$__92637aff367a92610ce19286926001600160a01b0316919060040161558d565b606060018054610b2090614f1a565b611d35826001612ee3565b6000828152600a60205260409020600401546001600160a01b031615611d6e5760405163fe6f50e560e01b815260040160405180910390fd5b6040516384b44a2f60e01b8152600481018390526001600160a01b0382166024820152600a604482015273__$d8529f0216812a2dec6b96adf1943c3537$__906384b44a2f90606401610eff565b611dc8813560bd612ee3565b601354604051635fe5df1d60e11b815273__$e2c9a8f399964af47bb173600dd9e5f662$__9163bfcbbe3a91610ce19185916001600160a01b0390911690600d906004016155d3565b6000611e1f833560c9612ee3565b634e6f746560e01b6000611e3385356132da565b601354604051635cb46be760e01b815260006004820181905287356024830152602088013560448301529293506001600160a01b0390911690635cb46be7906064016020604051808303816000875af1158015611e94573d6000803e3d6000fd5b505050506040513d601f19601f82011682018060405250810190611eb89190614ffc565b905073__$2873850e5b3f5697aafc2f5cd9f27cc884$__6342a34a53878486858a600001358b60200135604051602001611393929190918252602082015260400190565b611f04614401565b60008383604051611f16929190615633565b604080519182900382206000818152600b602090815283822054808352600a82529184902060c0860190945283548552600184018054939650919493929084019190611f6190614f1a565b80601f0160208091040260200160405190810160405280929190818152602001828054611f8d90614f1a565b8015611fda5780601f10611faf57610100808354040283529160200191611fda565b820191906000526020600020905b815481529060010190602001808311611fbd57829003601f168201915b50505050508152602001600282018054611ff390614f1a565b80601f016020809104026020016040519081016040528092919081815260200182805461201f90614f1a565b801561206c5780601f106120415761010080835404028352916020019161206c565b820191906000526020600020905b81548152906001019060200180831161204f57829003601f168201915b50505091835250506003820154602082015260048201546001600160a01b03908116604083015260059092015490911660609091015295945050505050565b61166b338383613490565b6120c1836000612ee3565b6120e182826040516120d4929190615633565b604051809103902061355e565b6120eb828261358b565b60405163130f361d60e01b815273__$d8529f0216812a2dec6b96adf1943c3537$__9063130f361d906110d190869086908690600b90600a90600401615643565b600061213d823560208401356133d4565b73__$2873850e5b3f5697aafc2f5cd9f27cc884$__639d2e06f08335602085013561216e60608701604088016146e1565b61217b6060880188614f4e565b6014546040516001600160e01b031960e089901b1681526121b09695949392916001600160a01b031690600e90600401615671565b602060405180830381865af4158015611c10573d6000803e3d6000fd5b6060816001600160401b038111156121e7576121e7614b6f565b60405190808252806020026020018201604052801561221a57816020015b60608152602001906001900390816122055790505b50905060005b828110156122ba5761228a3085858481811061223e5761223e61548a565b90506020028101906122509190614f4e565b8080601f0160208091040260200160405190810160405280939291908181526020018383808284376000920191909152506135f192505050565b82828151811061229c5761229c61548a565b602002602001018190525080806122b2906156cb565b915050612220565b5092915050565b60006122cf833560c6612ee3565b6821b430b930b1ba32b960b91b600061169585356132da565b6122f23383612fac565b61230e5760405162461bcd60e51b8152600401610c189061508d565b61231a84848484613616565b50505050565b61232c813560b5612ee3565b61233e816020013582604001356133d4565b6013546020808301356000908152600e8252604080822081860135835290925281902060030154905163fcc57d2f60e01b815273__$e2c9a8f399964af47bb173600dd9e5f662$__9263fcc57d2f92610ce19286926001600160a01b03908116921690600d906004016156e4565b6123b78260c5612ee3565b6123c182826133d4565b6000828152600e60209081526040808320848452825291829020600501805460ff60a01b1916600160a01b179055905182815283917f4f1db9708b537c1d26a7af4b235fd079bf2342d92a276e27eb6c8717e8bbcf939101611b1c565b6000818152600a6020526040902060020180546060919061243e90614f1a565b80601f016020809104026020016040519081016040528092919081815260200182805461246a90614f1a565b80156124b75780601f1061248c576101008083540402835291602001916124b7565b820191906000526020600020905b81548152906001019060200180831161249a57829003601f168201915b50505050509050919050565b6124cf813560b7612ee3565b601354604051638f3334ff60e01b815273__$e2c9a8f399964af47bb173600dd9e5f662$__91638f3334ff91610ce19185916001600160a01b0390911690600d90600401615758565b600061253861252a6020840184614f4e565b6040516120d4929190615633565b61254d6125486020840184614f4e565b61358b565b60126000815461255c906156cb565b9182905550905061257961257360208401846146e1565b82613649565b60405163470cc98960e11b815273__$d8529f0216812a2dec6b96adf1943c3537$__90638e199312906111aa9085908590600b90600a906004016157b9565b6125c4813560c2612ee3565b6125d3813560208301356133d4565b6125e28135602083013561344b565b73__$69db18565ecbefece480e92cc5f8fb1274$__6320828a028235602084013561261360608601604087016146e1565b6126206060870187614f4e565b600e6040518763ffffffff1660e01b8152600401610ce19695949392919061587e565b61264b614401565b600a60008381526020019081526020016000206040518060c00160405290816000820154815260200160018201805461268390614f1a565b80601f01602080910402602001604051908101604052809291908181526020018280546126af90614f1a565b80156126fc5780601f106126d1576101008083540402835291602001916126fc565b820191906000526020600020905b8154815290600101906020018083116126df57829003601f168201915b5050505050815260200160028201805461271590614f1a565b80601f016020809104026020016040519081016040528092919081815260200182805461274190614f1a565b801561278e5780601f106127635761010080835404028352916020019161278e565b820191906000526020600020905b81548152906001019060200180831161277157829003601f168201915b50505091835250506003820154602082015260048201546001600160a01b03908116604083015260059092015490911660609091015292915050565b60408051610100808201835260008083526020808401829052606084860181905284018290526080840182905260a0840182905260c0840182905260e08401829052868252600e8152848220868352815290849020845192830185528054835260018101549183019190915260028101805493949293919284019161284e90614f1a565b80601f016020809104026020016040519081016040528092919081815260200182805461287a90614f1a565b80156128c75780601f1061289c576101008083540402835291602001916128c7565b820191906000526020600020905b8154815290600101906020018083116128aa57829003601f168201915b505050918352505060038201546001600160a01b039081166020830152600483015481166040830152600590920154918216606082015260ff600160a01b8304811615156080830152600160a81b909204909116151560a090910152905092915050565b612936866003612ee3565b61294086866133d4565b604051630afb883f60e41b815273__$bfdcc7011a2e80c167e18378382b8de19c$__9063afb883f09061298490899089908990899089908990601a906004016158fb565b60006040518083038186803b15801561299c57600080fd5b505af41580156129b0573d6000803e3d6000fd5b50505050505050505050565b601354604051632b05429560e21b8152600481018390526060916001600160a01b03169063ac150a5490602401600060405180830381865afa158015612a06573d6000803e3d6000fd5b505050506040513d6000823e601f3d908101601f19168201604052610b0b9190810190615943565b601454600290600160a81b900460ff16158015612a59575060145460ff808316600160a01b90920416105b612abc5760405162461bcd60e51b815260206004820152602e60248201527f496e697469616c697a61626c653a20636f6e747261637420697320616c72656160448201526d191e481a5b9a5d1a585b1a5e995960921b6064820152608401610c18565b6014805460ff60a81b1960ff8416600160a01b021661ffff60a01b1990911617600160a81b179055612af089898989613663565b601380546001600160a01b03199081166001600160a01b0388811691909117909255601480548216878416179055601580548216868416179055601b80549091169184169190911790556040514281527f400175a56dd3710794078f7b9dbe8296ac94c5a248dfd51bb22ed4ab9eaa9fbf9060200160405180910390a16014805460ff60a81b1916905560405160ff821681527f7f26b83ff96e1f2b6a682f133852f6798a09c465da95921460cefb38474024989060200160405180910390a1505050505050505050565b6000818152600a6020526040902060010180546060919061243e90614f1a565b612be7813560bc612ee3565b60135481356000908152600d602090815260408083208186013584529091529081902054905163bf5c00c160e01b815273__$e2c9a8f399964af47bb173600dd9e5f662$__9263bf5c00c192610ce19286926001600160a01b031691906004016159b0565b612c55816136b4565b336000818152600c602052604080822080549085905590519092839285927fce95332e6082aebeb8058a7b56d1a109f67d6550552ed04d36aca4a6acd4d7de9190a45050565b6000612ca9843560cb612ee3565b65416e7955726960d01b6000612cbf86356132da565b601354604051633610bf0960e11b81529192506000916001600160a01b0390911690636c217e1290612cf99084908a908a90600401615275565b6020604051808303816000875af1158015612d18573d6000803e3d6000fd5b505050506040513d601f19601f82011682018060405250810190612d3c9190614ffc565b905073__$2873850e5b3f5697aafc2f5cd9f27cc884$__6342a34a53888486858b8b604051602001612d6f929190615633565b604051602081830303815290604052600e6040518763ffffffff1660e01b8152600401612da19695949392919061522a565b60006040518083038186803b158015612db957600080fd5b505af4158015612dcd573d6000803e3d6000fd5b50939998505050505050505050565b612de8813560b4612ee3565b612e228135612dfd60408401602085016146e1565b836040013560405180604001604052806002815260200161060f60f31b81525061371a565b50565b60006001600160e01b031982166380ac58cd60e01b1480612e5657506001600160e01b03198216635b5e139f60e01b145b80610b0b57506301ffc9a760e01b6001600160e01b0319831614610b0b565b600081815260046020526040902080546001600160a01b0319166001600160a01b0384169081179091558190612eaa82611996565b6001600160a01b03167f8c5be1e5ebec7d5bd14f71427d1e84f3dd0314c0f7b2291e5b200ac8c7c3b92560405160405180910390a45050565b612eec8261392b565b15612ef5575050565b6015546001600160a01b03163303612f31576000828152601960209081526040808320328452909152902054600190821c811603612f31575050565b6000828152601960209081526040808320338452909152902054600190821c811603612f5b575050565b604051632c4bc2b960e21b815260040160405180910390fd5b6000818152600260205260409020546001600160a01b0316612e22576040516375af0fc960e11b815260048101829052602401610c18565b6000818152600260205260408120546001600160a01b03166130255760405162461bcd60e51b815260206004820152602c60248201527f4552433732313a206f70657261746f7220717565727920666f72206e6f6e657860448201526b34b9ba32b73a103a37b5b2b760a11b6064820152608401610c18565b600061303083611996565b9050806001600160a01b0316846001600160a01b0316148061306b5750836001600160a01b031661306084610ba3565b6001600160a01b0316145b8061309b57506001600160a01b0380821660009081526005602090815260408083209388168352929052205460ff165b949350505050565b826001600160a01b03166130b682611996565b6001600160a01b03161461311a5760405162461bcd60e51b815260206004820152602560248201527f4552433732313a207472616e736665722066726f6d20696e636f72726563742060448201526437bbb732b960d91b6064820152608401610c18565b6001600160a01b03821661317c5760405162461bcd60e51b8152602060048201526024808201527f4552433732313a207472616e7366657220746f20746865207a65726f206164646044820152637265737360e01b6064820152608401610c18565b61318783838361398b565b613192600082612e75565b6001600160a01b03831660009081526003602052604081208054600192906131bb908490615a08565b90915550506001600160a01b03821660009081526003602052604081208054600192906131e9908490615a1b565b909155505060008181526002602052604080822080546001600160a01b0319166001600160a01b0386811691821790925591518493918716917fddf252ad1be2c89b69c2b068fc378daa952ba7f163c4a11628f55a4df523b3ef91a4610e24838383613a5d565b6000838152601a6020908152604080832085845290915281206132738184613a9a565b15613282576000915050611147565b61328f6002820184613a9a565b1561329e576001915050611147565b60008581526019602090815260408083206001600160a01b03871684529091529020546132d19060c31c60019081161490565b95945050505050565b6000818152600a60205260408120600301805482906132f8906156cb565b918290555092915050565b61330d3382612fac565b6133595760405162461bcd60e51b815260206004820152601b60248201527f4e4654426173653a204e6f744f776e65724f72417070726f76656400000000006044820152606401610c18565b612e2281613abc565b6060600061114783613b6b565b6133788261392b565b15613381575050565b6015546001600160a01b031633036133a75761339e828232613250565b156133a7575050565b6133b2828233613250565b156133bb575050565b604051631a1d1d4760e11b815260040160405180910390fd5b6000828152600e60209081526040808320848452909152902060050154600160a01b900460ff161561341957604051631f0fc8f560e11b815260040160405180910390fd5b6000828152600a602052604090206003015481111561166b576040516364783acb60e01b815260040160405180910390fd5b6000828152600e60209081526040808320848452909152902060050154600160a81b900460ff161561166b57604051630bc06a0f60e21b815260040160405180910390fd5b816001600160a01b0316836001600160a01b0316036134f15760405162461bcd60e51b815260206004820152601960248201527f4552433732313a20617070726f766520746f2063616c6c6572000000000000006044820152606401610c18565b6001600160a01b03838116600081815260056020908152604080832094871680845294825291829020805460ff191686151590811790915591519182527f17307eab39ab6107e8899845ad3d59bd9653f200f220920489ca2b5937696c31910160405180910390a3505050565b6000818152600b602052604090205415612e2257604051631b659b9f60e21b815260040160405180910390fd5b8181601f81118061359c5750600381105b156135ba57604051636f819c2160e11b815260040160405180910390fd5b60005b81811015610d0d576135e98383838181106135da576135da61548a565b9050013560f81c60f81b613bc6565b6001016135bd565b60606111478383604051806060016040528060278152602001615c1f60279139613c74565b6136218484846130a3565b61362d84848484613cec565b61231a5760405162461bcd60e51b8152600401610c1890615a2e565b61166b828260405180602001604052806000815250613ded565b61366f84848484613e20565b7f414cd0b34676984f09a5f76ce9718d4062e50283abe0e7e274a9a5b4e0c99c3084848484426040516136a6959493929190615a80565b60405180910390a150505050565b60006136bf82611996565b6015549091506001600160a01b0316331480156136e45750326001600160a01b038216145b156136ed575050565b6001600160a01b0381163303613701575050565b604051631b0c476f60e11b815260040160405180910390fd5b6001600160a01b0383166000908152600c602052604090205415613751576040516317a4570160e01b815260040160405180910390fd5b6040516001600160601b0319606085901b16602082015261378a906034016040516020818303038152906040528051906020012061355e565b600060126000815461379b906156cb565b918290555090506137ac8482613649565b73__$d8529f0216812a2dec6b96adf1943c3537$__638e1993126040518060a00160405280876001600160a01b0316815260200187604051602001613804919060609190911b6001600160601b031916815260140190565b604051602081830303815290604052815260200160405180602001604052806000815250815260200160006001600160a01b031681526020016040518060200160405280600081525081525083600b600a6040518563ffffffff1660e01b81526004016138749493929190615aba565b60006040518083038186803b15801561388c57600080fd5b505af41580156138a0573d6000803e3d6000fd5b5050601354604051639ec52a2360e01b815273__$e2c9a8f399964af47bb173600dd9e5f662$__9350639ec52a2392506138f49189918691899189916001600160a01b031690600090600d90600401615b51565b60006040518083038186803b15801561390c57600080fd5b505af4158015613920573d6000803e3d6000fd5b505050505050505050565b60008061393783611996565b90506001600160a01b03811633036139525750600192915050565b6015546001600160a01b0316331480156139745750326001600160a01b038216145b156139825750600192915050565b50600092915050565b601b546001600160a01b03848116911614613a525760008181526018602052604081206139b790613e3b565b6000838152601860205260408120919250906139d290613362565b905060005b82811015613a1457613a02848383815181106139f5576139f561548a565b6020026020010151613e45565b80613a0c816156cb565b9150506139d7565b506001600160a01b0385166000908152600c6020526040902054839003613a4f576001600160a01b0385166000908152600c60205260408120555b50505b610e24838383613e7e565b6001600160a01b0382166000908152600c60205260408120549003610e24576001600160a01b03919091166000908152600c602052604090205550565b6001600160a01b03811660009081526001830160205260408120541515611147565b6000613ac782611996565b9050613ad58160008461398b565b613ae0600083612e75565b6001600160a01b0381166000908152600360205260408120805460019290613b09908490615a08565b909155505060008281526002602052604080822080546001600160a01b0319169055518391906001600160a01b038416907fddf252ad1be2c89b69c2b068fc378daa952ba7f163c4a11628f55a4df523b3ef908390a461166b81600084613a5d565b6060816000018054806020026020016040519081016040528092919081815260200182805480156124b757602002820191906000526020600020905b815481526020019060010190808311613ba75750505050509050919050565b600360fc1b6001600160f81b031982161080613bef5750603d60f91b6001600160f81b03198216115b80613c1f5750603960f81b6001600160f81b03198216118015613c1f5750606160f81b6001600160f81b03198216105b8015613c395750602d60f81b6001600160f81b0319821614155b8015613c535750605f60f81b6001600160f81b0319821614155b15612e22576040516001621693dd60e01b0319815260040160405180910390fd5b6060600080856001600160a01b031685604051613c919190615b9c565b600060405180830381855af49150503d8060008114613ccc576040519150601f19603f3d011682016040523d82523d6000602084013e613cd1565b606091505b5091509150613ce286838387613f36565b9695505050505050565b60006001600160a01b0384163b15613de257604051630a85bd0160e11b81526001600160a01b0385169063150b7a0290613d30903390899088908890600401615bb8565b6020604051808303816000875af1925050508015613d6b575060408051601f3d908101601f19168201909252613d6891810190615beb565b60015b613dc8573d808015613d99576040519150601f19603f3d011682016040523d82523d6000602084013e613d9e565b606091505b508051600003613dc05760405162461bcd60e51b8152600401610c1890615a2e565b805181602001fd5b6001600160e01b031916630a85bd0160e11b14905061309b565b506001949350505050565b613df78383613faf565b613e046000848484613cec565b610e245760405162461bcd60e51b8152600401610c1890615a2e565b6000613e2d8486836153b7565b506001610d0d8284836153b7565b6000610b0b825490565b60008281526019602090815260408083206001600160a01b0385168452825280832083905584835260189091529020610e249082614105565b6001600160a01b038316613ed957613ed481600880546000838152600960205260408120829055600182018355919091527ff3f7a9fe364faab93b216da50a3214154f22a0a2b415b23a84c8169e8b636ee30155565b613efc565b816001600160a01b0316836001600160a01b031614613efc57613efc838261411a565b6001600160a01b038216613f1357610e24816141b7565b826001600160a01b0316826001600160a01b031614610e2457610e248282614266565b60608315613fa5578251600003613f9e576001600160a01b0385163b613f9e5760405162461bcd60e51b815260206004820152601d60248201527f416464726573733a2063616c6c20746f206e6f6e2d636f6e74726163740000006044820152606401610c18565b508161309b565b61309b83836142aa565b6001600160a01b0382166140055760405162461bcd60e51b815260206004820181905260248201527f4552433732313a206d696e7420746f20746865207a65726f20616464726573736044820152606401610c18565b6000818152600260205260409020546001600160a01b03161561406a5760405162461bcd60e51b815260206004820152601c60248201527f4552433732313a20746f6b656e20616c7265616479206d696e746564000000006044820152606401610c18565b6140766000838361398b565b6001600160a01b038216600090815260036020526040812080546001929061409f908490615a1b565b909155505060008181526002602052604080822080546001600160a01b0319166001600160a01b03861690811790915590518392907fddf252ad1be2c89b69c2b068fc378daa952ba7f163c4a11628f55a4df523b3ef908290a461166b60008383613a5d565b6000611147836001600160a01b0384166142d4565b6000600161412784611a27565b6141319190615a08565b600083815260076020526040902054909150808214614184576001600160a01b03841660009081526006602090815260408083208584528252808320548484528184208190558352600790915290208190555b5060009182526007602090815260408084208490556001600160a01b039094168352600681528383209183525290812055565b6008546000906141c990600190615a08565b600083815260096020526040812054600880549394509092849081106141f1576141f161548a565b9060005260206000200154905080600883815481106142125761421261548a565b600091825260208083209091019290925582815260099091526040808220849055858252812055600880548061424a5761424a615c08565b6001900381819060005260206000200160009055905550505050565b600061427183611a27565b6001600160a01b039093166000908152600660209081526040808320868452825280832085905593825260079052919091209190915550565b8151156142ba5781518083602001fd5b8060405162461bcd60e51b8152600401610c1891906144e5565b600081815260018301602052604081205480156143bd5760006142f8600183615a08565b855490915060009061430c90600190615a08565b905081811461437157600086600001828154811061432c5761432c61548a565b906000526020600020015490508087600001848154811061434f5761434f61548a565b6000918252602080832090910192909255918252600188019052604090208390555b855486908061438257614382615c08565b600190038181906000526020600020016000905590558560010160008681526020019081526020016000206000905560019350505050610b0b565b6000915050610b0b565b5080546143d390614f1a565b6000825580601f106143e3575050565b601f016020900490600052602060002090810190612e229190614449565b6040518060c001604052806000815260200160608152602001606081526020016000815260200160006001600160a01b0316815260200160006001600160a01b031681525090565b5b8082111561445e576000815560010161444a565b5090565b6001600160e01b031981168114612e2257600080fd5b60006020828403121561448a57600080fd5b813561114781614462565b60005b838110156144b0578181015183820152602001614498565b50506000910152565b600081518084526144d1816020860160208601614495565b601f01601f19169290920160200192915050565b60208152600061114760208301846144b9565b60006020828403121561450a57600080fd5b5035919050565b60006060828403121561452357600080fd5b50919050565b60006020828403121561453b57600080fd5b81356001600160401b0381111561455157600080fd5b61309b84828501614511565b80356001600160a01b038116811461457457600080fd5b919050565b6000806040838503121561458c57600080fd5b6145958361455d565b946020939093013593505050565b6000606082840312156145b557600080fd5b6111478383614511565b60006080828403121561452357600080fd5b6000602082840312156145e357600080fd5b81356001600160401b038111156145f957600080fd5b61309b848285016145bf565b60008060006060848603121561461a57600080fd5b8335925061462a6020850161455d565b9150604084013590509250925092565b60008060006060848603121561464f57600080fd5b6146588461455d565b925061462a6020850161455d565b60008060006060848603121561467b57600080fd5b83359250602084013591506146926040850161455d565b90509250925092565b600060e0828403121561452357600080fd5b6000602082840312156146bf57600080fd5b81356001600160401b038111156146d557600080fd5b61309b8482850161469b565b6000602082840312156146f357600080fd5b6111478261455d565b60006040828403121561452357600080fd5b6000806060838503121561472157600080fd5b82356001600160401b0381111561473757600080fd5b6147438582860161469b565b92505061178684602085016146fc565b60008083601f84011261476557600080fd5b5081356001600160401b0381111561477c57600080fd5b60208301915083602082850101111561479457600080fd5b9250929050565b6000806000604084860312156147b057600080fd5b8335925060208401356001600160401b038111156147cd57600080fd5b6147d986828701614753565b9497909650939450505050565b6000608082840312156147f857600080fd5b61114783836145bf565b6000806040838503121561481557600080fd5b82356001600160401b0381111561482b57600080fd5b6148378582860161469b565b95602094909401359450505050565b6000806040838503121561485957600080fd5b50508035926020909101359150565b600081518084526020808501945080840160005b838110156148a15781516001600160a01b03168752958201959082019060010161487c565b509495945050505050565b6040815260006148bf6040830185614868565b82810360208401526132d18185614868565b600080600080606085870312156148e757600080fd5b843593506020850135925060408501356001600160401b0381111561490b57600080fd5b61491787828801614753565b95989497509550505050565b6020815260006111476020830184614868565b6000806040838503121561494957600080fd5b82356001600160401b0381111561495f57600080fd5b61496b8582860161469b565b9250506117866020840161455d565b6000806040838503121561498d57600080fd5b823591506117866020840161455d565b600080602083850312156149b057600080fd5b82356001600160401b038111156149c657600080fd5b6149d285828601614753565b90969095509350505050565b60208152815160208201526000602083015160c06040840152614a0460e08401826144b9565b90506040840151601f19848303016060850152614a2182826144b9565b91505060608401516080840152608084015160018060a01b0380821660a08601528060a08701511660c086015250508091505092915050565b8035801515811461457457600080fd5b60008060408385031215614a7d57600080fd5b614a868361455d565b915061178660208401614a5a565b60008083601f840112614aa657600080fd5b5081356001600160401b03811115614abd57600080fd5b6020830191508360208260051b850101111561479457600080fd5b60008060208385031215614aeb57600080fd5b82356001600160401b03811115614b0157600080fd5b6149d285828601614a94565b6000602080830181845280855180835260408601915060408160051b870101925083870160005b82811015614b6257603f19888603018452614b508583516144b9565b94509285019290850190600101614b34565b5092979650505050505050565b634e487b7160e01b600052604160045260246000fd5b604051601f8201601f191681016001600160401b0381118282101715614bad57614bad614b6f565b604052919050565b60006001600160401b03821115614bce57614bce614b6f565b50601f01601f191660200190565b60008060008060808587031215614bf257600080fd5b614bfb8561455d565b9350614c096020860161455d565b92506040850135915060608501356001600160401b03811115614c2b57600080fd5b8501601f81018713614c3c57600080fd5b8035614c4f614c4a82614bb5565b614b85565b818152886020838501011115614c6457600080fd5b8160208401602083013760006020838301015280935050505092959194509250565b600060a0828403121561452357600080fd5b600060208284031215614caa57600080fd5b81356001600160401b03811115614cc057600080fd5b61309b84828501614c86565b60208152815160208201526020820151604082015260006040830151610100806060850152614cff6101208501836144b9565b9150606085015160018060a01b0380821660808701528060808801511660a0870152505060a0850151614d3d60c08601826001600160a01b03169052565b5060c085015180151560e08601525060e0850151801515858301525090949350505050565b60008060008060008060808789031215614d7b57600080fd5b863595506020870135945060408701356001600160401b0380821115614da057600080fd5b614dac8a838b01614a94565b90965094506060890135915080821115614dc557600080fd5b50614dd289828a01614a94565b979a9699509497509295939492505050565b60008060008060008060008060c0898b031215614e0057600080fd5b88356001600160401b0380821115614e1757600080fd5b614e238c838d01614753565b909a50985060208b0135915080821115614e3c57600080fd5b50614e498b828c01614753565b9097509550614e5c905060408a0161455d565b9350614e6a60608a0161455d565b9250614e7860808a0161455d565b9150614e8660a08a0161455d565b90509295985092959890939650565b60008060408385031215614ea857600080fd5b614eb18361455d565b91506117866020840161455d565b600080600060408486031215614ed457600080fd5b83356001600160401b0380821115614eeb57600080fd5b614ef78783880161469b565b94506020860135915080821115614f0d57600080fd5b506147d986828701614753565b600181811c90821680614f2e57607f821691505b60208210810361452357634e487b7160e01b600052602260045260246000fd5b6000808335601e19843603018112614f6557600080fd5b8301803591506001600160401b03821115614f7f57600080fd5b60200191503681900382131561479457600080fd5b81835281816020850137506000828201602090810191909152601f909101601f19169091010190565b6001600160a01b03868116825285166020820152608060408201819052600090614fea9083018587614f94565b90508260608301529695505050505050565b60006020828403121561500e57600080fd5b5051919050565b8581526001600160a01b0385166020820152608060408201819052600090614fea9083018587614f94565b88815287602082015286604082015260e06060820152600061506660e083018789614f94565b6001600160a01b0395861660808401529390941660a082015260c001529695505050505050565b60208082526031908201527f4552433732313a207472616e736665722063616c6c6572206973206e6f74206f6040820152701ddb995c881b9bdc88185c1c1c9bdd9959607a1b606082015260800190565b6000808335601e198436030181126150f557600080fd5b83016020810192503590506001600160401b0381111561511457600080fd5b80360382131561479457600080fd5b80358252600061513660208301836150de565b60e0602086015261514b60e086018284614f94565b91505061515a6040840161455d565b6001600160a01b03818116604087015261517760608601866150de565b9250868403606088015261518c848483614f94565b9350508061519c6080870161455d565b16608087015250506151b160a08401846150de565b85830360a08701526151c4838284614f94565b925050506151d460c08401614a5a565b151560c08501528091505092915050565b60c0815260006151f860c0830188615123565b602083810197909752604083019590955250606081019290925281830360808301526000835260a09091015201919050565b60c08152600061523d60c0830189615123565b876020840152866040840152856060840152828103608084015261526181866144b9565b9150508260a0830152979650505050505050565b8381526040602082015260006132d1604083018486614f94565b606081528335606082015260006152a86020860161455d565b6001600160a01b038181166080850152604087013560a08501526152cf60608801886150de565b9250608060c08601526152e660e086018483614f94565b96909116602085015250505060400152919050565b600080835461530981614f1a565b60018281168015615321576001811461533657615365565b60ff1984168752821515830287019450615365565b8760005260208060002060005b8581101561535c5781548a820152908401908201615343565b50505082870194505b50929695505050505050565b601f821115610e2457600081815260208120601f850160051c810160208610156153985750805b601f850160051c820191505b81811015610f2b578281556001016153a4565b6001600160401b038311156153ce576153ce614b6f565b6153e2836153dc8354614f1a565b83615371565b6000601f84116001811461541657600085156153fe5750838201355b600019600387901b1c1916600186901b178355610d0d565b600083815260209020601f19861690835b828110156154475786850135825560209485019460019092019101615427565b50868210156154645760001960f88860031b161c19848701351681555b505060018560011b0183555050505050565b602081526000611144602083018486614f94565b634e487b7160e01b600052603260045260246000fd5b606081528335606082015260006154ba60208601866150de565b6080808501526154ce60e085018284614f94565b915050604086013560a08401526154e860608701876150de565b848303605f190160c08601526154ff838284614f94565b6001600160a01b039790971660208601525050505060400152919050565b858152846020820152608060408201526000614fea608083018587614f94565b8335815260c081016155516020860161455d565b6001600160a01b039081166020840152604086810135908401526060958601359583019590955292909316608084015260a09092019190915290565b8335815260a081016155a16020860161455d565b6001600160a01b0390811660208401526040958601359583019590955292909316606084015260809092019190915290565b606081528335606082015260208401356080820152604084013560a0820152600061560160608601866150de565b608060c085015261561660e085018284614f94565b6001600160a01b0396909616602085015250505060400152919050565b8183823760009101908152919050565b85815260806020820152600061565d608083018688614f94565b604083019490945250606001529392505050565b878152866020820152600060018060a01b03808816604084015260c060608401526156a060c084018789614f94565b941660808301525060a0015295945050505050565b634e487b7160e01b600052601160045260246000fd5b6000600182016156dd576156dd6156b5565b5060010190565b6080815284356080820152602085013560a0820152604085013560c0820152606085013560e0820152600061571c60808701876150de565b60a061010085015261573361012085018284614f94565b6001600160a01b03978816602086015295909616604084015250506060015292915050565b606081528335606082015260006157716020860161455d565b60018060a01b038082166080850152604087013560a0850152606087013560c08501526157a160808801886150de565b925060a060e08601526152e661010086018483614f94565b6080815260006001600160a01b03806157d18861455d565b1660808401526157e460208801886150de565b60a0808601526157f961012086018284614f94565b91505061580960408901896150de565b607f19808785030160c0880152615821848385614f94565b93508461583060608d0161455d565b1660e088015261584360808c018c6150de565b955092508087850301610100880152505061585f828483614f94565b6020860198909852505050506040810192909252606090910152919050565b86815285602082015260018060a01b038516604082015260a0606082015260006158ac60a083018587614f94565b9050826080830152979650505050505050565b8183526000602080850194508260005b858110156148a1576001600160a01b036158e88361455d565b16875295820195908201906001016158cf565b87815286602082015260a06040820152600061591b60a0830187896158bf565b828103606084015261592e8186886158bf565b91505082608083015298975050505050505050565b60006020828403121561595557600080fd5b81516001600160401b0381111561596b57600080fd5b8201601f8101841361597c57600080fd5b805161598a614c4a82614bb5565b81815285602083850101111561599f57600080fd5b6132d1826020830160208601614495565b606081528335606082015260006159ca60208601866150de565b606060808501526159df60c085018284614f94565b60409788013560a08601526001600160a01b039690961660208501525050509092019190915290565b81810381811115610b0b57610b0b6156b5565b80820180821115610b0b57610b0b6156b5565b60208082526032908201527f4552433732313a207472616e7366657220746f206e6f6e20455243373231526560408201527131b2b4bb32b91034b6b83632b6b2b73a32b960711b606082015260800190565b606081526000615a94606083018789614f94565b8281036020840152615aa7818688614f94565b9150508260408301529695505050505050565b60808152600060018060a01b03808751166080840152602087015160a080850152615ae96101208501826144b9565b90506040880151607f19808684030160c0870152615b0783836144b9565b92508360608b01511660e087015260808a0151935080868403016101008701525050615b3381836144b9565b60208501979097525050506040810192909252606090910152919050565b87815286602082015285604082015260e060608201526000615b7660e08301876144b9565b6001600160a01b0395861660808401529390941660a082015260c0015295945050505050565b60008251615bae818460208701614495565b9190910192915050565b6001600160a01b0385811682528416602082015260408101839052608060608201819052600090613ce2908301846144b9565b600060208284031215615bfd57600080fd5b815161114781614462565b634e487b7160e01b600052603160045260246000fdfe416464726573733a206c6f772d6c6576656c2064656c65676174652063616c6c206661696c6564a2646970667358221220666fe1840792cd007ddeebb496e3e482e5b9f1313cb762950789fe4958e57f9164736f6c63430008100033",
  "linkReferences": {
    "contracts/libraries/CharacterLogic.sol": {
      "CharacterLogic": [
        {
          "length": 20,
          "start": 7611
        },
        {
          "length": 20,
          "start": 8475
        },
        {
          "length": 20,
          "start": 9641
        },
        {
          "length": 20,
          "start": 14287
        }
      ]
    },
    "contracts/libraries/LinkLogic.sol": {
      "LinkLogic": [
        {
          "length": 20,
          "start": 4036
        },
        {
          "length": 20,
          "start": 4108
        },
        {
          "length": 20,
          "start": 5413
        },
        {
          "length": 20,
          "start": 5558
        },
        {
          "length": 20,
          "start": 6323
        },
        {
          "length": 20,
          "start": 6387
        },
        {
          "length": 20,
          "start": 7048
        },
        {
          "length": 20,
          "start": 7433
        },
        {
          "length": 20,
          "start": 7675
        },
        {
          "length": 20,
          "start": 9108
        },
        {
          "length": 20,
          "start": 9474
        },
        {
          "length": 20,
          "start": 11322
        },
        {
          "length": 20,
          "start": 14549
        }
      ]
    },
    "contracts/libraries/LinkModuleLogic.sol": {
      "LinkModuleLogic": [
        {
          "length": 20,
          "start": 3230
        },
        {
          "length": 20,
          "start": 3783
        },
        {
          "length": 20,
          "start": 9733
        }
      ]
    },
    "contracts/libraries/OperatorLogic.sol": {
      "OperatorLogic": [
        {
          "length": 20,
          "start": 4308
        },
        {
          "length": 20,
          "start": 10608
        }
      ]
    },
    "contracts/libraries/PostLogic.sol": {
      "PostLogic": [
        {
          "length": 20,
          "start": 4505
        },
        {
          "length": 20,
          "start": 4957
        },
        {
          "length": 20,
          "start": 5826
        },
        {
          "length": 20,
          "start": 6490
        },
        {
          "length": 20,
          "start": 7329
        },
        {
          "length": 20,
          "start": 7901
        },
        {
          "length": 20,
          "start": 8544
        },
        {
          "length": 20,
          "start": 11617
        }
      ]
    }
  },
  "deployedLinkReferences": {
    "contracts/libraries/CharacterLogic.sol": {
      "CharacterLogic": [
        {
          "length": 20,
          "start": 7578
        },
        {
          "length": 20,
          "start": 8442
        },
        {
          "length": 20,
          "start": 9608
        },
        {
          "length": 20,
          "start": 14254
        }
      ]
    },
    "contracts/libraries/LinkLogic.sol": {
      "LinkLogic": [
        {
          "length": 20,
          "start": 4003
        },
        {
          "length": 20,
          "start": 4075
        },
        {
          "length": 20,
          "start": 5380
        },
        {
          "length": 20,
          "start": 5525
        },
        {
          "length": 20,
          "start": 6290
        },
        {
          "length": 20,
          "start": 6354
        },
        {
          "length": 20,
          "start": 7015
        },
        {
          "length": 20,
          "start": 7400
        },
        {
          "length": 20,
          "start": 7642
        },
        {
          "length": 20,
          "start": 9075
        },
        {
          "length": 20,
          "start": 9441
        },
        {
          "length": 20,
          "start": 11289
        },
        {
          "length": 20,
          "start": 14516
        }
      ]
    },
    "contracts/libraries/LinkModuleLogic.sol": {
      "LinkModuleLogic": [
        {
          "length": 20,
          "start": 3197
        },
        {
          "length": 20,
          "start": 3750
        },
        {
          "length": 20,
          "start": 9700
        }
      ]
    },
    "contracts/libraries/OperatorLogic.sol": {
      "OperatorLogic": [
        {
          "length": 20,
          "start": 4275
        },
        {
          "length": 20,
          "start": 10575
        }
      ]
    },
    "contracts/libraries/PostLogic.sol": {
      "PostLogic": [
        {
          "length": 20,
          "start": 4472
        },
        {
          "length": 20,
          "start": 4924
        },
        {
          "length": 20,
          "start": 5793
        },
        {
          "length": 20,
          "start": 6457
        },
        {
          "length": 20,
          "start": 7296
        },
        {
          "length": 20,
          "start": 7868
        },
        {
          "length": 20,
          "start": 8511
        },
        {
          "length": 20,
          "start": 11584
        }
      ]
    }
  }
}