{
  "_format": "hh-sol-artifact-1",
  "contractName": "Web3Entry",
  "sourceName": "contracts/Web3Entry.sol",
  "abi": [
    {
      "anonymous": false,
      "inputs": [
        {
          "indexed": true,
          "internalType": "address",
          "name": "owner",
          "type": "address"
        },
        {
          "indexed": true,
          "internalType": "address",
          "name": "approved",
          "type": "address"
        },
        {
          "indexed": true,
          "internalType": "uint256",
          "name": "tokenId",
          "type": "uint256"
        }
      ],
      "name": "Approval",
      "type": "event"
    },
    {
      "anonymous": false,
      "inputs": [
        {
          "indexed": true,
          "internalType": "address",
          "name": "owner",
          "type": "address"
        },
        {
          "indexed": true,
          "internalType": "address",
          "name": "operator",
          "type": "address"
        },
        {
          "indexed": false,
          "internalType": "bool",
          "name": "approved",
          "type": "bool"
        }
      ],
      "name": "ApprovalForAll",
      "type": "event"
    },
    {
      "anonymous": false,
      "inputs": [
        {
          "indexed": false,
          "internalType": "uint8",
          "name": "version",
          "type": "uint8"
        }
      ],
      "name": "Initialized",
      "type": "event"
    },
    {
      "anonymous": false,
      "inputs": [
        {
          "indexed": true,
          "internalType": "address",
          "name": "from",
          "type": "address"
        },
        {
          "indexed": true,
          "internalType": "address",
          "name": "to",
          "type": "address"
        },
        {
          "indexed": true,
          "internalType": "uint256",
          "name": "tokenId",
          "type": "uint256"
        }
      ],
      "name": "Transfer",
      "type": "event"
    },
    {
      "inputs": [
        {
          "internalType": "uint256",
          "name": "profileId",
          "type": "uint256"
        },
        {
          "internalType": "string",
          "name": "newUri",
          "type": "string"
        }
      ],
      "name": "_setCharacterUri",
      "outputs": [],
      "stateMutability": "nonpayable",
      "type": "function"
    },
    {
      "inputs": [
        {
          "internalType": "uint256",
          "name": "characterId",
          "type": "uint256"
        },
        {
          "internalType": "address",
          "name": "operator",
          "type": "address"
        }
      ],
      "name": "addOperator",
      "outputs": [],
      "stateMutability": "nonpayable",
      "type": "function"
    },
    {
      "inputs": [
        {
          "internalType": "address",
          "name": "to",
          "type": "address"
        },
        {
          "internalType": "uint256",
          "name": "tokenId",
          "type": "uint256"
        }
      ],
      "name": "approve",
      "outputs": [],
      "stateMutability": "nonpayable",
      "type": "function"
    },
    {
      "inputs": [
        {
          "internalType": "address",
          "name": "owner",
          "type": "address"
        }
      ],
      "name": "balanceOf",
      "outputs": [
        {
          "internalType": "uint256",
          "name": "",
          "type": "uint256"
        }
      ],
      "stateMutability": "view",
      "type": "function"
    },
    {
      "inputs": [
        {
          "internalType": "uint256",
          "name": "tokenId",
          "type": "uint256"
        }
      ],
      "name": "burn",
      "outputs": [],
      "stateMutability": "nonpayable",
      "type": "function"
    },
    {
      "inputs": [
        {
          "components": [
            {
              "internalType": "address",
              "name": "to",
              "type": "address"
            },
            {
              "internalType": "string",
              "name": "handle",
              "type": "string"
            },
            {
              "internalType": "string",
              "name": "uri",
              "type": "string"
            },
            {
              "internalType": "address",
              "name": "linkModule",
              "type": "address"
            },
            {
              "internalType": "bytes",
              "name": "linkModuleInitData",
              "type": "bytes"
            }
          ],
          "internalType": "struct DataTypes.CreateCharacterData",
          "name": "vars",
          "type": "tuple"
        }
      ],
      "name": "createCharacter",
      "outputs": [],
      "stateMutability": "nonpayable",
      "type": "function"
    },
    {
      "inputs": [
        {
          "components": [
            {
              "internalType": "uint256",
              "name": "fromCharacterId",
              "type": "uint256"
            },
            {
              "internalType": "address",
              "name": "to",
              "type": "address"
            },
            {
              "internalType": "bytes32",
              "name": "linkType",
              "type": "bytes32"
            }
          ],
          "internalType": "struct DataTypes.createThenLinkCharacterData",
          "name": "vars",
          "type": "tuple"
        }
      ],
      "name": "createThenLinkCharacter",
      "outputs": [],
      "stateMutability": "nonpayable",
      "type": "function"
    },
    {
      "inputs": [
        {
          "internalType": "uint256",
          "name": "characterId",
          "type": "uint256"
        },
        {
          "internalType": "uint256",
          "name": "noteId",
          "type": "uint256"
        }
      ],
      "name": "deleteNote",
      "outputs": [],
      "stateMutability": "nonpayable",
      "type": "function"
    },
    {
      "inputs": [
        {
          "internalType": "uint256",
          "name": "tokenId",
          "type": "uint256"
        }
      ],
      "name": "getApproved",
      "outputs": [
        {
          "internalType": "address",
          "name": "",
          "type": "address"
        }
      ],
      "stateMutability": "view",
      "type": "function"
    },
    {
      "inputs": [
        {
          "internalType": "uint256",
          "name": "characterId",
          "type": "uint256"
        }
      ],
      "name": "getCharacter",
      "outputs": [
        {
          "components": [
            {
              "internalType": "uint256",
              "name": "characterId",
              "type": "uint256"
            },
            {
              "internalType": "string",
              "name": "handle",
              "type": "string"
            },
            {
              "internalType": "string",
              "name": "uri",
              "type": "string"
            },
            {
              "internalType": "uint256",
              "name": "noteCount",
              "type": "uint256"
            },
            {
              "internalType": "address",
              "name": "socialToken",
              "type": "address"
            },
            {
              "internalType": "address",
              "name": "linkModule",
              "type": "address"
            }
          ],
          "internalType": "struct DataTypes.Character",
          "name": "",
          "type": "tuple"
        }
      ],
      "stateMutability": "view",
      "type": "function"
    },
    {
      "inputs": [
        {
          "internalType": "string",
          "name": "handle",
          "type": "string"
        }
      ],
      "name": "getCharacterByHandle",
      "outputs": [
        {
          "components": [
            {
              "internalType": "uint256",
              "name": "characterId",
              "type": "uint256"
            },
            {
              "internalType": "string",
              "name": "handle",
              "type": "string"
            },
            {
              "internalType": "string",
              "name": "uri",
              "type": "string"
            },
            {
              "internalType": "uint256",
              "name": "noteCount",
              "type": "uint256"
            },
            {
              "internalType": "address",
              "name": "socialToken",
              "type": "address"
            },
            {
              "internalType": "address",
              "name": "linkModule",
              "type": "address"
            }
          ],
          "internalType": "struct DataTypes.Character",
          "name": "",
          "type": "tuple"
        }
      ],
      "stateMutability": "view",
      "type": "function"
    },
    {
      "inputs": [
        {
          "internalType": "uint256",
          "name": "characterId",
          "type": "uint256"
        }
      ],
      "name": "getCharacterUri",
      "outputs": [
        {
          "internalType": "string",
          "name": "",
          "type": "string"
        }
      ],
      "stateMutability": "view",
      "type": "function"
    },
    {
      "inputs": [
        {
          "internalType": "uint256",
          "name": "characterId",
          "type": "uint256"
        }
      ],
      "name": "getHandle",
      "outputs": [
        {
          "internalType": "string",
          "name": "",
          "type": "string"
        }
      ],
      "stateMutability": "view",
      "type": "function"
    },
    {
      "inputs": [
        {
          "internalType": "address",
          "name": "account",
          "type": "address"
        }
      ],
      "name": "getLinkModule4Address",
      "outputs": [
        {
          "internalType": "address",
          "name": "",
          "type": "address"
        }
      ],
      "stateMutability": "view",
      "type": "function"
    },
    {
      "inputs": [
        {
          "internalType": "address",
          "name": "tokenAddress",
          "type": "address"
        },
        {
          "internalType": "uint256",
          "name": "tokenId",
          "type": "uint256"
        }
      ],
      "name": "getLinkModule4ERC721",
      "outputs": [
        {
          "internalType": "address",
          "name": "",
          "type": "address"
        }
      ],
      "stateMutability": "view",
      "type": "function"
    },
    {
      "inputs": [
        {
          "internalType": "uint256",
          "name": "tokenId",
          "type": "uint256"
        }
      ],
      "name": "getLinkModule4Linklist",
      "outputs": [
        {
          "internalType": "address",
          "name": "",
          "type": "address"
        }
      ],
      "stateMutability": "view",
      "type": "function"
    },
    {
      "inputs": [],
      "name": "getLinklistContract",
      "outputs": [
        {
          "internalType": "address",
          "name": "",
          "type": "address"
        }
      ],
      "stateMutability": "view",
      "type": "function"
    },
    {
      "inputs": [
        {
          "internalType": "uint256",
          "name": "characterId",
          "type": "uint256"
        },
        {
          "internalType": "bytes32",
          "name": "linkType",
          "type": "bytes32"
        }
      ],
      "name": "getLinklistId",
      "outputs": [
        {
          "internalType": "uint256",
          "name": "",
          "type": "uint256"
        }
      ],
      "stateMutability": "view",
      "type": "function"
    },
    {
      "inputs": [
        {
          "internalType": "uint256",
          "name": "linkListId",
          "type": "uint256"
        }
      ],
      "name": "getLinklistType",
      "outputs": [
        {
          "internalType": "bytes32",
          "name": "",
          "type": "bytes32"
        }
      ],
      "stateMutability": "view",
      "type": "function"
    },
    {
      "inputs": [
        {
          "internalType": "uint256",
          "name": "tokenId",
          "type": "uint256"
        }
      ],
      "name": "getLinklistUri",
      "outputs": [
        {
          "internalType": "string",
          "name": "",
          "type": "string"
        }
      ],
      "stateMutability": "view",
      "type": "function"
    },
    {
      "inputs": [
        {
          "internalType": "uint256",
          "name": "characterId",
          "type": "uint256"
        },
        {
          "internalType": "uint256",
          "name": "noteId",
          "type": "uint256"
        }
      ],
      "name": "getNote",
      "outputs": [
        {
          "components": [
            {
              "internalType": "bytes32",
              "name": "linkItemType",
              "type": "bytes32"
            },
            {
              "internalType": "bytes32",
              "name": "linkKey",
              "type": "bytes32"
            },
            {
              "internalType": "string",
              "name": "contentUri",
              "type": "string"
            },
            {
              "internalType": "address",
              "name": "linkModule",
              "type": "address"
            },
            {
              "internalType": "address",
              "name": "mintModule",
              "type": "address"
            },
            {
              "internalType": "address",
              "name": "mintNFT",
              "type": "address"
            },
            {
              "internalType": "bool",
              "name": "deleted",
              "type": "bool"
            },
            {
              "internalType": "bool",
              "name": "locked",
              "type": "bool"
            }
          ],
          "internalType": "struct DataTypes.Note",
          "name": "",
          "type": "tuple"
        }
      ],
      "stateMutability": "view",
      "type": "function"
    },
    {
      "inputs": [
        {
          "internalType": "uint256",
          "name": "characterId",
          "type": "uint256"
        },
        {
          "internalType": "address",
          "name": "operator",
          "type": "address"
        }
      ],
      "name": "getOperatorPermissions",
      "outputs": [
        {
          "internalType": "uint256",
          "name": "",
          "type": "uint256"
        }
      ],
      "stateMutability": "view",
      "type": "function"
    },
    {
      "inputs": [
        {
          "internalType": "uint256",
          "name": "characterId",
          "type": "uint256"
        },
        {
          "internalType": "uint256",
          "name": "noteId",
          "type": "uint256"
        },
        {
          "internalType": "address",
          "name": "operator",
          "type": "address"
        }
      ],
      "name": "getOperatorPermissions4Note",
      "outputs": [
        {
          "internalType": "uint256",
          "name": "",
          "type": "uint256"
        }
      ],
      "stateMutability": "view",
      "type": "function"
    },
    {
      "inputs": [
        {
          "internalType": "uint256",
          "name": "characterId",
          "type": "uint256"
        }
      ],
      "name": "getOperators",
      "outputs": [
        {
          "internalType": "address[]",
          "name": "",
          "type": "address[]"
        }
      ],
      "stateMutability": "view",
      "type": "function"
    },
    {
      "inputs": [
        {
          "internalType": "address",
          "name": "account",
          "type": "address"
        }
      ],
      "name": "getPrimaryCharacterId",
      "outputs": [
        {
          "internalType": "uint256",
          "name": "",
          "type": "uint256"
        }
      ],
      "stateMutability": "view",
      "type": "function"
    },
    {
      "inputs": [],
      "name": "getRevision",
      "outputs": [
        {
          "internalType": "uint256",
          "name": "",
          "type": "uint256"
        }
      ],
      "stateMutability": "pure",
      "type": "function"
    },
    {
      "inputs": [
        {
          "internalType": "uint256",
          "name": "characterId",
          "type": "uint256"
        },
        {
          "internalType": "address",
          "name": "operator",
          "type": "address"
        },
        {
          "internalType": "uint256",
          "name": "permissionBitMap",
          "type": "uint256"
        }
      ],
      "name": "grantOperatorPermissions",
      "outputs": [],
      "stateMutability": "nonpayable",
      "type": "function"
    },
    {
      "inputs": [
        {
          "internalType": "uint256",
          "name": "characterId",
          "type": "uint256"
        },
        {
          "internalType": "uint256",
          "name": "noteId",
          "type": "uint256"
        },
        {
          "internalType": "address",
          "name": "operator",
          "type": "address"
        },
        {
          "internalType": "uint256",
          "name": "permissionBitMap",
          "type": "uint256"
        }
      ],
      "name": "grantOperatorPermissions4Note",
      "outputs": [],
      "stateMutability": "nonpayable",
      "type": "function"
    },
    {
      "inputs": [
        {
          "internalType": "string",
          "name": "_name",
          "type": "string"
        },
        {
          "internalType": "string",
          "name": "_symbol",
          "type": "string"
        },
        {
          "internalType": "address",
          "name": "_linklistContract",
          "type": "address"
        },
        {
          "internalType": "address",
          "name": "_mintNFTImpl",
          "type": "address"
        },
        {
          "internalType": "address",
          "name": "_periphery",
          "type": "address"
        },
        {
          "internalType": "address",
          "name": "_resolver",
          "type": "address"
        }
      ],
      "name": "initialize",
      "outputs": [],
      "stateMutability": "nonpayable",
      "type": "function"
    },
    {
      "inputs": [
        {
          "internalType": "address",
          "name": "owner",
          "type": "address"
        },
        {
          "internalType": "address",
          "name": "operator",
          "type": "address"
        }
      ],
      "name": "isApprovedForAll",
      "outputs": [
        {
          "internalType": "bool",
          "name": "",
          "type": "bool"
        }
      ],
      "stateMutability": "view",
      "type": "function"
    },
    {
      "inputs": [
        {
          "internalType": "uint256",
          "name": "characterId",
          "type": "uint256"
        },
        {
          "internalType": "address",
          "name": "operator",
          "type": "address"
        }
      ],
      "name": "isOperator",
      "outputs": [
        {
          "internalType": "bool",
          "name": "",
          "type": "bool"
        }
      ],
      "stateMutability": "view",
      "type": "function"
    },
    {
      "inputs": [
        {
          "internalType": "uint256",
          "name": "characterId",
          "type": "uint256"
        }
      ],
      "name": "isPrimaryCharacter",
      "outputs": [
        {
          "internalType": "bool",
          "name": "",
          "type": "bool"
        }
      ],
      "stateMutability": "view",
      "type": "function"
    },
    {
      "inputs": [
        {
          "components": [
            {
              "internalType": "uint256",
              "name": "fromCharacterId",
              "type": "uint256"
            },
            {
              "internalType": "address",
              "name": "ethAddress",
              "type": "address"
            },
            {
              "internalType": "bytes32",
              "name": "linkType",
              "type": "bytes32"
            },
            {
              "internalType": "bytes",
              "name": "data",
              "type": "bytes"
            }
          ],
          "internalType": "struct DataTypes.linkAddressData",
          "name": "vars",
          "type": "tuple"
        }
      ],
      "name": "linkAddress",
      "outputs": [],
      "stateMutability": "nonpayable",
      "type": "function"
    },
    {
      "inputs": [
        {
          "components": [
            {
              "internalType": "uint256",
              "name": "fromCharacterId",
              "type": "uint256"
            },
            {
              "internalType": "string",
              "name": "toUri",
              "type": "string"
            },
            {
              "internalType": "bytes32",
              "name": "linkType",
              "type": "bytes32"
            },
            {
              "internalType": "bytes",
              "name": "data",
              "type": "bytes"
            }
          ],
          "internalType": "struct DataTypes.linkAnyUriData",
          "name": "vars",
          "type": "tuple"
        }
      ],
      "name": "linkAnyUri",
      "outputs": [],
      "stateMutability": "nonpayable",
      "type": "function"
    },
    {
      "inputs": [
        {
          "components": [
            {
              "internalType": "uint256",
              "name": "fromCharacterId",
              "type": "uint256"
            },
            {
              "internalType": "uint256",
              "name": "toCharacterId",
              "type": "uint256"
            },
            {
              "internalType": "bytes32",
              "name": "linkType",
              "type": "bytes32"
            },
            {
              "internalType": "bytes",
              "name": "data",
              "type": "bytes"
            }
          ],
          "internalType": "struct DataTypes.linkCharacterData",
          "name": "vars",
          "type": "tuple"
        }
      ],
      "name": "linkCharacter",
      "outputs": [],
      "stateMutability": "nonpayable",
      "type": "function"
    },
    {
      "inputs": [
        {
          "components": [
            {
              "internalType": "uint256",
              "name": "fromCharacterId",
              "type": "uint256"
            },
            {
              "internalType": "address",
              "name": "tokenAddress",
              "type": "address"
            },
            {
              "internalType": "uint256",
              "name": "tokenId",
              "type": "uint256"
            },
            {
              "internalType": "bytes32",
              "name": "linkType",
              "type": "bytes32"
            },
            {
              "internalType": "bytes",
              "name": "data",
              "type": "bytes"
            }
          ],
          "internalType": "struct DataTypes.linkERC721Data",
          "name": "vars",
          "type": "tuple"
        }
      ],
      "name": "linkERC721",
      "outputs": [],
      "stateMutability": "nonpayable",
      "type": "function"
    },
    {
      "inputs": [
        {
          "components": [
            {
              "internalType": "uint256",
              "name": "fromCharacterId",
              "type": "uint256"
            },
            {
              "internalType": "uint256",
              "name": "toLinkListId",
              "type": "uint256"
            },
            {
              "internalType": "bytes32",
              "name": "linkType",
              "type": "bytes32"
            },
            {
              "internalType": "bytes",
              "name": "data",
              "type": "bytes"
            }
          ],
          "internalType": "struct DataTypes.linkLinklistData",
          "name": "vars",
          "type": "tuple"
        }
      ],
      "name": "linkLinklist",
      "outputs": [],
      "stateMutability": "nonpayable",
      "type": "function"
    },
    {
      "inputs": [
        {
          "components": [
            {
              "internalType": "uint256",
              "name": "fromCharacterId",
              "type": "uint256"
            },
            {
              "internalType": "uint256",
              "name": "toCharacterId",
              "type": "uint256"
            },
            {
              "internalType": "uint256",
              "name": "toNoteId",
              "type": "uint256"
            },
            {
              "internalType": "bytes32",
              "name": "linkType",
              "type": "bytes32"
            },
            {
              "internalType": "bytes",
              "name": "data",
              "type": "bytes"
            }
          ],
          "internalType": "struct DataTypes.linkNoteData",
          "name": "vars",
          "type": "tuple"
        }
      ],
      "name": "linkNote",
      "outputs": [],
      "stateMutability": "nonpayable",
      "type": "function"
    },
    {
      "inputs": [
        {
          "internalType": "uint256",
          "name": "characterId",
          "type": "uint256"
        },
        {
          "internalType": "uint256",
          "name": "noteId",
          "type": "uint256"
        }
      ],
      "name": "lockNote",
      "outputs": [],
      "stateMutability": "nonpayable",
      "type": "function"
    },
    {
      "inputs": [
        {
          "internalType": "uint256[]",
          "name": "characterIds",
          "type": "uint256[]"
        }
      ],
      "name": "migrateOperator",
      "outputs": [],
      "stateMutability": "nonpayable",
      "type": "function"
    },
    {
      "inputs": [
        {
          "components": [
            {
              "internalType": "uint256",
              "name": "characterId",
              "type": "uint256"
            },
            {
              "internalType": "uint256",
              "name": "noteId",
              "type": "uint256"
            },
            {
              "internalType": "address",
              "name": "to",
              "type": "address"
            },
            {
              "internalType": "bytes",
              "name": "mintModuleData",
              "type": "bytes"
            }
          ],
          "internalType": "struct DataTypes.MintNoteData",
          "name": "vars",
          "type": "tuple"
        }
      ],
      "name": "mintNote",
      "outputs": [
        {
          "internalType": "uint256",
          "name": "",
          "type": "uint256"
        }
      ],
      "stateMutability": "nonpayable",
      "type": "function"
    },
    {
      "inputs": [],
      "name": "name",
      "outputs": [
        {
          "internalType": "string",
          "name": "",
          "type": "string"
        }
      ],
      "stateMutability": "view",
      "type": "function"
    },
    {
      "inputs": [
        {
          "internalType": "uint256",
          "name": "tokenId",
          "type": "uint256"
        }
      ],
      "name": "ownerOf",
      "outputs": [
        {
          "internalType": "address",
          "name": "",
          "type": "address"
        }
      ],
      "stateMutability": "view",
      "type": "function"
    },
    {
      "inputs": [
        {
          "components": [
            {
              "internalType": "uint256",
              "name": "characterId",
              "type": "uint256"
            },
            {
              "internalType": "string",
              "name": "contentUri",
              "type": "string"
            },
            {
              "internalType": "address",
              "name": "linkModule",
              "type": "address"
            },
            {
              "internalType": "bytes",
              "name": "linkModuleInitData",
              "type": "bytes"
            },
            {
              "internalType": "address",
              "name": "mintModule",
              "type": "address"
            },
            {
              "internalType": "bytes",
              "name": "mintModuleInitData",
              "type": "bytes"
            },
            {
              "internalType": "bool",
              "name": "locked",
              "type": "bool"
            }
          ],
          "internalType": "struct DataTypes.PostNoteData",
          "name": "vars",
          "type": "tuple"
        }
      ],
      "name": "postNote",
      "outputs": [
        {
          "internalType": "uint256",
          "name": "",
          "type": "uint256"
        }
      ],
      "stateMutability": "nonpayable",
      "type": "function"
    },
    {
      "inputs": [
        {
          "components": [
            {
              "internalType": "uint256",
              "name": "characterId",
              "type": "uint256"
            },
            {
              "internalType": "string",
              "name": "contentUri",
              "type": "string"
            },
            {
              "internalType": "address",
              "name": "linkModule",
              "type": "address"
            },
            {
              "internalType": "bytes",
              "name": "linkModuleInitData",
              "type": "bytes"
            },
            {
              "internalType": "address",
              "name": "mintModule",
              "type": "address"
            },
            {
              "internalType": "bytes",
              "name": "mintModuleInitData",
              "type": "bytes"
            },
            {
              "internalType": "bool",
              "name": "locked",
              "type": "bool"
            }
          ],
          "internalType": "struct DataTypes.PostNoteData",
          "name": "noteData",
          "type": "tuple"
        },
        {
          "internalType": "address",
          "name": "ethAddress",
          "type": "address"
        }
      ],
      "name": "postNote4Address",
      "outputs": [
        {
          "internalType": "uint256",
          "name": "",
          "type": "uint256"
        }
      ],
      "stateMutability": "nonpayable",
      "type": "function"
    },
    {
      "inputs": [
        {
          "components": [
            {
              "internalType": "uint256",
              "name": "characterId",
              "type": "uint256"
            },
            {
              "internalType": "string",
              "name": "contentUri",
              "type": "string"
            },
            {
              "internalType": "address",
              "name": "linkModule",
              "type": "address"
            },
            {
              "internalType": "bytes",
              "name": "linkModuleInitData",
              "type": "bytes"
            },
            {
              "internalType": "address",
              "name": "mintModule",
              "type": "address"
            },
            {
              "internalType": "bytes",
              "name": "mintModuleInitData",
              "type": "bytes"
            },
            {
              "internalType": "bool",
              "name": "locked",
              "type": "bool"
            }
          ],
          "internalType": "struct DataTypes.PostNoteData",
          "name": "postNoteData",
          "type": "tuple"
        },
        {
          "internalType": "string",
          "name": "uri",
          "type": "string"
        }
      ],
      "name": "postNote4AnyUri",
      "outputs": [
        {
          "internalType": "uint256",
          "name": "",
          "type": "uint256"
        }
      ],
      "stateMutability": "nonpayable",
      "type": "function"
    },
    {
      "inputs": [
        {
          "components": [
            {
              "internalType": "uint256",
              "name": "characterId",
              "type": "uint256"
            },
            {
              "internalType": "string",
              "name": "contentUri",
              "type": "string"
            },
            {
              "internalType": "address",
              "name": "linkModule",
              "type": "address"
            },
            {
              "internalType": "bytes",
              "name": "linkModuleInitData",
              "type": "bytes"
            },
            {
              "internalType": "address",
              "name": "mintModule",
              "type": "address"
            },
            {
              "internalType": "bytes",
              "name": "mintModuleInitData",
              "type": "bytes"
            },
            {
              "internalType": "bool",
              "name": "locked",
              "type": "bool"
            }
          ],
          "internalType": "struct DataTypes.PostNoteData",
          "name": "postNoteData",
          "type": "tuple"
        },
        {
          "internalType": "uint256",
          "name": "toCharacterId",
          "type": "uint256"
        }
      ],
      "name": "postNote4Character",
      "outputs": [
        {
          "internalType": "uint256",
          "name": "",
          "type": "uint256"
        }
      ],
      "stateMutability": "nonpayable",
      "type": "function"
    },
    {
      "inputs": [
        {
          "components": [
            {
              "internalType": "uint256",
              "name": "characterId",
              "type": "uint256"
            },
            {
              "internalType": "string",
              "name": "contentUri",
              "type": "string"
            },
            {
              "internalType": "address",
              "name": "linkModule",
              "type": "address"
            },
            {
              "internalType": "bytes",
              "name": "linkModuleInitData",
              "type": "bytes"
            },
            {
              "internalType": "address",
              "name": "mintModule",
              "type": "address"
            },
            {
              "internalType": "bytes",
              "name": "mintModuleInitData",
              "type": "bytes"
            },
            {
              "internalType": "bool",
              "name": "locked",
              "type": "bool"
            }
          ],
          "internalType": "struct DataTypes.PostNoteData",
          "name": "postNoteData",
          "type": "tuple"
        },
        {
          "components": [
            {
              "internalType": "address",
              "name": "tokenAddress",
              "type": "address"
            },
            {
              "internalType": "uint256",
              "name": "erc721TokenId",
              "type": "uint256"
            }
          ],
          "internalType": "struct DataTypes.ERC721Struct",
          "name": "erc721",
          "type": "tuple"
        }
      ],
      "name": "postNote4ERC721",
      "outputs": [
        {
          "internalType": "uint256",
          "name": "",
          "type": "uint256"
        }
      ],
      "stateMutability": "nonpayable",
      "type": "function"
    },
    {
      "inputs": [
        {
          "components": [
            {
              "internalType": "uint256",
              "name": "characterId",
              "type": "uint256"
            },
            {
              "internalType": "string",
              "name": "contentUri",
              "type": "string"
            },
            {
              "internalType": "address",
              "name": "linkModule",
              "type": "address"
            },
            {
              "internalType": "bytes",
              "name": "linkModuleInitData",
              "type": "bytes"
            },
            {
              "internalType": "address",
              "name": "mintModule",
              "type": "address"
            },
            {
              "internalType": "bytes",
              "name": "mintModuleInitData",
              "type": "bytes"
            },
            {
              "internalType": "bool",
              "name": "locked",
              "type": "bool"
            }
          ],
          "internalType": "struct DataTypes.PostNoteData",
          "name": "noteData",
          "type": "tuple"
        },
        {
          "internalType": "uint256",
          "name": "toLinklistId",
          "type": "uint256"
        }
      ],
      "name": "postNote4Linklist",
      "outputs": [
        {
          "internalType": "uint256",
          "name": "",
          "type": "uint256"
        }
      ],
      "stateMutability": "nonpayable",
      "type": "function"
    },
    {
      "inputs": [
        {
          "components": [
            {
              "internalType": "uint256",
              "name": "characterId",
              "type": "uint256"
            },
            {
              "internalType": "string",
              "name": "contentUri",
              "type": "string"
            },
            {
              "internalType": "address",
              "name": "linkModule",
              "type": "address"
            },
            {
              "internalType": "bytes",
              "name": "linkModuleInitData",
              "type": "bytes"
            },
            {
              "internalType": "address",
              "name": "mintModule",
              "type": "address"
            },
            {
              "internalType": "bytes",
              "name": "mintModuleInitData",
              "type": "bytes"
            },
            {
              "internalType": "bool",
              "name": "locked",
              "type": "bool"
            }
          ],
          "internalType": "struct DataTypes.PostNoteData",
          "name": "postNoteData",
          "type": "tuple"
        },
        {
          "components": [
            {
              "internalType": "uint256",
              "name": "characterId",
              "type": "uint256"
            },
            {
              "internalType": "uint256",
              "name": "noteId",
              "type": "uint256"
            }
          ],
          "internalType": "struct DataTypes.NoteStruct",
          "name": "note",
          "type": "tuple"
        }
      ],
      "name": "postNote4Note",
      "outputs": [
        {
          "internalType": "uint256",
          "name": "",
          "type": "uint256"
        }
      ],
      "stateMutability": "nonpayable",
      "type": "function"
    },
    {
      "inputs": [
        {
          "internalType": "uint256",
          "name": "characterId",
          "type": "uint256"
        },
        {
          "internalType": "address",
          "name": "operator",
          "type": "address"
        }
      ],
      "name": "removeOperator",
      "outputs": [],
      "stateMutability": "nonpayable",
      "type": "function"
    },
    {
      "inputs": [],
      "name": "resolver",
      "outputs": [
        {
          "internalType": "address",
          "name": "",
          "type": "address"
        }
      ],
      "stateMutability": "view",
      "type": "function"
    },
    {
      "inputs": [
        {
          "internalType": "address",
          "name": "from",
          "type": "address"
        },
        {
          "internalType": "address",
          "name": "to",
          "type": "address"
        },
        {
          "internalType": "uint256",
          "name": "tokenId",
          "type": "uint256"
        }
      ],
      "name": "safeTransferFrom",
      "outputs": [],
      "stateMutability": "nonpayable",
      "type": "function"
    },
    {
      "inputs": [
        {
          "internalType": "address",
          "name": "from",
          "type": "address"
        },
        {
          "internalType": "address",
          "name": "to",
          "type": "address"
        },
        {
          "internalType": "uint256",
          "name": "tokenId",
          "type": "uint256"
        },
        {
          "internalType": "bytes",
          "name": "_data",
          "type": "bytes"
        }
      ],
      "name": "safeTransferFrom",
      "outputs": [],
      "stateMutability": "nonpayable",
      "type": "function"
    },
    {
      "inputs": [
        {
          "internalType": "address",
          "name": "operator",
          "type": "address"
        },
        {
          "internalType": "bool",
          "name": "approved",
          "type": "bool"
        }
      ],
      "name": "setApprovalForAll",
      "outputs": [],
      "stateMutability": "nonpayable",
      "type": "function"
    },
    {
      "inputs": [
        {
          "internalType": "uint256",
          "name": "characterId",
          "type": "uint256"
        },
        {
          "internalType": "string",
          "name": "newUri",
          "type": "string"
        }
      ],
      "name": "setCharacterUri",
      "outputs": [],
      "stateMutability": "nonpayable",
      "type": "function"
    },
    {
      "inputs": [
        {
          "internalType": "uint256",
          "name": "characterId",
          "type": "uint256"
        },
        {
          "internalType": "string",
          "name": "newHandle",
          "type": "string"
        }
      ],
      "name": "setHandle",
      "outputs": [],
      "stateMutability": "nonpayable",
      "type": "function"
    },
    {
      "inputs": [
        {
          "components": [
            {
              "internalType": "address",
              "name": "account",
              "type": "address"
            },
            {
              "internalType": "address",
              "name": "linkModule",
              "type": "address"
            },
            {
              "internalType": "bytes",
              "name": "linkModuleInitData",
              "type": "bytes"
            }
          ],
          "internalType": "struct DataTypes.setLinkModule4AddressData",
          "name": "vars",
          "type": "tuple"
        }
      ],
      "name": "setLinkModule4Address",
      "outputs": [],
      "stateMutability": "nonpayable",
      "type": "function"
    },
    {
      "inputs": [
        {
          "components": [
            {
              "internalType": "uint256",
              "name": "linklistId",
              "type": "uint256"
            },
            {
              "internalType": "address",
              "name": "linkModule",
              "type": "address"
            },
            {
              "internalType": "bytes",
              "name": "linkModuleInitData",
              "type": "bytes"
            }
          ],
          "internalType": "struct DataTypes.setLinkModule4LinklistData",
          "name": "",
          "type": "tuple"
        }
      ],
      "name": "setLinkModule4Linklist",
      "outputs": [],
      "stateMutability": "nonpayable",
      "type": "function"
    },
    {
      "inputs": [
        {
          "internalType": "uint256",
          "name": "linklistId",
          "type": "uint256"
        },
        {
          "internalType": "string",
          "name": "uri",
          "type": "string"
        }
      ],
      "name": "setLinklistUri",
      "outputs": [],
      "stateMutability": "nonpayable",
      "type": "function"
    },
    {
      "inputs": [
        {
          "components": [
            {
              "internalType": "uint256",
              "name": "characterId",
              "type": "uint256"
            },
            {
              "internalType": "uint256",
              "name": "noteId",
              "type": "uint256"
            },
            {
              "internalType": "address",
              "name": "mintModule",
              "type": "address"
            },
            {
              "internalType": "bytes",
              "name": "mintModuleInitData",
              "type": "bytes"
            }
          ],
          "internalType": "struct DataTypes.setMintModule4NoteData",
          "name": "vars",
          "type": "tuple"
        }
      ],
      "name": "setMintModule4Note",
      "outputs": [],
      "stateMutability": "nonpayable",
      "type": "function"
    },
    {
      "inputs": [
        {
          "internalType": "uint256",
          "name": "characterId",
          "type": "uint256"
        },
        {
          "internalType": "uint256",
          "name": "noteId",
          "type": "uint256"
        },
        {
          "internalType": "string",
          "name": "newUri",
          "type": "string"
        }
      ],
      "name": "setNoteUri",
      "outputs": [],
      "stateMutability": "nonpayable",
      "type": "function"
    },
    {
      "inputs": [
        {
          "internalType": "uint256",
          "name": "characterId",
          "type": "uint256"
        },
        {
          "internalType": "address",
          "name": "operator",
          "type": "address"
        }
      ],
      "name": "setOperator",
      "outputs": [],
      "stateMutability": "nonpayable",
      "type": "function"
    },
    {
      "inputs": [
        {
          "internalType": "uint256",
          "name": "characterId",
          "type": "uint256"
        }
      ],
      "name": "setPrimaryCharacterId",
      "outputs": [],
      "stateMutability": "nonpayable",
      "type": "function"
    },
    {
      "inputs": [
        {
          "internalType": "uint256",
          "name": "characterId",
          "type": "uint256"
        },
        {
          "internalType": "address",
          "name": "tokenAddress",
          "type": "address"
        }
      ],
      "name": "setSocialToken",
      "outputs": [],
      "stateMutability": "nonpayable",
      "type": "function"
    },
    {
      "inputs": [
        {
          "internalType": "bytes4",
          "name": "interfaceId",
          "type": "bytes4"
        }
      ],
      "name": "supportsInterface",
      "outputs": [
        {
          "internalType": "bool",
          "name": "",
          "type": "bool"
        }
      ],
      "stateMutability": "view",
      "type": "function"
    },
    {
      "inputs": [],
      "name": "symbol",
      "outputs": [
        {
          "internalType": "string",
          "name": "",
          "type": "string"
        }
      ],
      "stateMutability": "view",
      "type": "function"
    },
    {
      "inputs": [
        {
          "internalType": "uint256",
          "name": "index",
          "type": "uint256"
        }
      ],
      "name": "tokenByIndex",
      "outputs": [
        {
          "internalType": "uint256",
          "name": "",
          "type": "uint256"
        }
      ],
      "stateMutability": "view",
      "type": "function"
    },
    {
      "inputs": [
        {
          "internalType": "address",
          "name": "owner",
          "type": "address"
        },
        {
          "internalType": "uint256",
          "name": "index",
          "type": "uint256"
        }
      ],
      "name": "tokenOfOwnerByIndex",
      "outputs": [
        {
          "internalType": "uint256",
          "name": "",
          "type": "uint256"
        }
      ],
      "stateMutability": "view",
      "type": "function"
    },
    {
      "inputs": [
        {
          "internalType": "uint256",
          "name": "characterId",
          "type": "uint256"
        }
      ],
      "name": "tokenURI",
      "outputs": [
        {
          "internalType": "string",
          "name": "",
          "type": "string"
        }
      ],
      "stateMutability": "view",
      "type": "function"
    },
    {
      "inputs": [],
      "name": "totalSupply",
      "outputs": [
        {
          "internalType": "uint256",
          "name": "",
          "type": "uint256"
        }
      ],
      "stateMutability": "view",
      "type": "function"
    },
    {
      "inputs": [
        {
          "internalType": "address",
          "name": "from",
          "type": "address"
        },
        {
          "internalType": "address",
          "name": "to",
          "type": "address"
        },
        {
          "internalType": "uint256",
          "name": "tokenId",
          "type": "uint256"
        }
      ],
      "name": "transferFrom",
      "outputs": [],
      "stateMutability": "nonpayable",
      "type": "function"
    },
    {
      "inputs": [
        {
          "components": [
            {
              "internalType": "uint256",
              "name": "fromCharacterId",
              "type": "uint256"
            },
            {
              "internalType": "address",
              "name": "ethAddress",
              "type": "address"
            },
            {
              "internalType": "bytes32",
              "name": "linkType",
              "type": "bytes32"
            }
          ],
          "internalType": "struct DataTypes.unlinkAddressData",
          "name": "vars",
          "type": "tuple"
        }
      ],
      "name": "unlinkAddress",
      "outputs": [],
      "stateMutability": "nonpayable",
      "type": "function"
    },
    {
      "inputs": [
        {
          "components": [
            {
              "internalType": "uint256",
              "name": "fromCharacterId",
              "type": "uint256"
            },
            {
              "internalType": "string",
              "name": "toUri",
              "type": "string"
            },
            {
              "internalType": "bytes32",
              "name": "linkType",
              "type": "bytes32"
            }
          ],
          "internalType": "struct DataTypes.unlinkAnyUriData",
          "name": "vars",
          "type": "tuple"
        }
      ],
      "name": "unlinkAnyUri",
      "outputs": [],
      "stateMutability": "nonpayable",
      "type": "function"
    },
    {
      "inputs": [
        {
          "components": [
            {
              "internalType": "uint256",
              "name": "fromCharacterId",
              "type": "uint256"
            },
            {
              "internalType": "uint256",
              "name": "toCharacterId",
              "type": "uint256"
            },
            {
              "internalType": "bytes32",
              "name": "linkType",
              "type": "bytes32"
            }
          ],
          "internalType": "struct DataTypes.unlinkCharacterData",
          "name": "vars",
          "type": "tuple"
        }
      ],
      "name": "unlinkCharacter",
      "outputs": [],
      "stateMutability": "nonpayable",
      "type": "function"
    },
    {
      "inputs": [
        {
          "components": [
            {
              "internalType": "uint256",
              "name": "fromCharacterId",
              "type": "uint256"
            },
            {
              "internalType": "address",
              "name": "tokenAddress",
              "type": "address"
            },
            {
              "internalType": "uint256",
              "name": "tokenId",
              "type": "uint256"
            },
            {
              "internalType": "bytes32",
              "name": "linkType",
              "type": "bytes32"
            }
          ],
          "internalType": "struct DataTypes.unlinkERC721Data",
          "name": "vars",
          "type": "tuple"
        }
      ],
      "name": "unlinkERC721",
      "outputs": [],
      "stateMutability": "nonpayable",
      "type": "function"
    },
    {
      "inputs": [
        {
          "components": [
            {
              "internalType": "uint256",
              "name": "fromCharacterId",
              "type": "uint256"
            },
            {
              "internalType": "uint256",
              "name": "toLinkListId",
              "type": "uint256"
            },
            {
              "internalType": "bytes32",
              "name": "linkType",
              "type": "bytes32"
            }
          ],
          "internalType": "struct DataTypes.unlinkLinklistData",
          "name": "vars",
          "type": "tuple"
        }
      ],
      "name": "unlinkLinklist",
      "outputs": [],
      "stateMutability": "nonpayable",
      "type": "function"
    },
    {
      "inputs": [
        {
          "components": [
            {
              "internalType": "uint256",
              "name": "fromCharacterId",
              "type": "uint256"
            },
            {
              "internalType": "uint256",
              "name": "toCharacterId",
              "type": "uint256"
            },
            {
              "internalType": "uint256",
              "name": "toNoteId",
              "type": "uint256"
            },
            {
              "internalType": "bytes32",
              "name": "linkType",
              "type": "bytes32"
            }
          ],
          "internalType": "struct DataTypes.unlinkNoteData",
          "name": "vars",
          "type": "tuple"
        }
      ],
      "name": "unlinkNote",
      "outputs": [],
      "stateMutability": "nonpayable",
      "type": "function"
    }
  ],
  "bytecode": "0x608060405234801561001057600080fd5b50615f9280620000216000396000f3fe608060405234801561001057600080fd5b506004361061046a5760003560e01c8063867884e61161024c578063c053f6b811610146578063e56f2fe4116100c3578063ef0828ab11610087578063ef0828ab14610af6578063f2ad807514610b09578063f316bacd14610b1c578063f6479d7714610b2f578063fe9299fb14610b4257600080fd5b8063e56f2fe414610a6e578063e7a1c1c014610a81578063e985e9c514610a94578063ec81d19414610ad0578063ed84c34514610ae357600080fd5b8063d23b320b1161010a578063d23b320b146109ea578063d70e10c6146109fd578063dabb053114610a28578063db491e8014610a3b578063dca2713514610a5b57600080fd5b8063c053f6b81461098d578063c2a6fe3b1461099e578063c87b56dd146109b1578063cb8e757e146109c4578063cd69fe61146109d757600080fd5b80639864c307116101d4578063a6e6178d11610198578063a6e6178d1461092e578063a7ccb4bf14610941578063af90b11214610954578063b88d4fde14610967578063b9d328451461097a57600080fd5b80639864c307146108c25780639a4dec18146108d55780639a50248d146108e8578063a22cb46514610908578063a48047ba1461091b57600080fd5b806392f7070b1161021b57806392f7070b1461084b57806393f057e51461085e578063952be0ef1461087157806395d89b41146108a757806395d9fa7d146108af57600080fd5b8063867884e6146107ff5780638734bbfc146108125780638b4ca06a1461082557806392ef445d1461083857600080fd5b80632f745c591161036857806347f94de7116102e55780636352211e116102a95780636352211e146107935780636bf55d5f146107a657806370a08231146107c657806374f345cf146107d95780637d46a713146107ec57600080fd5b806347f94de7146107345780634f6ccce7146107475780635a936d101461075a5780635fb881831461076d578063628b644a1461078057600080fd5b806340ad34d81161032c57806340ad34d8146106d557806342842e0e146106e857806342966c68146106fb5780634394954b1461070e57806344b82a241461072157600080fd5b80632f745c591461065d57806331b9d08c14610670578063327b2a031461069c57806333f06ee6146106af578063388f5083146106c257600080fd5b80631316529d116103f65780632209d145116103ba5780632209d1451461059b57806323b872dd146105d157806329c301c2146105e45780632abc6bf6146105f75780632d8723b81461062057600080fd5b80631316529d14610549578063144a3e831461055a57806318160ddd1461056d578063188b04b314610575578063206657f21461058857600080fd5b806308cb68ff1161043d57806308cb68ff146104ea578063095ea7b3146104ff5780630c4dd5f2146105125780630d18d07a146105235780630ff982441461053657600080fd5b806301ffc9a71461046f57806304f3bcec1461049757806306fdde03146104c2578063081812fc146104d7575b600080fd5b61048261047d3660046148d5565b610b6b565b60405190151581526020015b60405180910390f35b6017546104aa906001600160a01b031681565b6040516001600160a01b03909116815260200161048e565b6104ca610b96565b60405161048e919061494a565b6104aa6104e536600461495d565b610c28565b6104fd6104f836600461498e565b610cc2565b005b6104fd61050d3660046149e7565b610d5b565b6104fd61052036600461498e565b50565b6104fd610531366004614a13565b610e71565b6104fd610544366004614a43565b610ee7565b60045b60405190815260200161048e565b6104ca61056836600461495d565b610fe8565b60085461054c565b6104fd610583366004614a71565b610ff3565b6104fd610596366004614aa5565b6110f2565b6104aa6105a93660046149e7565b6001600160a01b03918216600090815260106020908152604080832093835292905220541690565b6104fd6105df366004614add565b611143565b61054c6105f2366004614b1f565b611174565b61054c610605366004614b53565b6001600160a01b03166000908152600c602052604090205490565b61054c61062e366004614b70565b6000928352601a602090815260408085209385529281528284206001600160a01b039290921684525290205490565b61054c61066b3660046149e7565b611222565b6104aa61067e366004614b53565b6001600160a01b039081166000908152601160205260409020541690565b61054c6106aa366004614bbb565b6112b8565b6104fd6106bd366004614c51565b61147d565b6104fd6106d0366004614a71565b611564565b6104fd6106e3366004614c9c565b6115b9565b6104fd6106f6366004614add565b611635565b6104fd61070936600461495d565b611650565b6104fd61071c366004614da3565b6116ed565b61054c61072f366004614de9565b61175a565b6104fd610742366004614c51565b6117d2565b61054c61075536600461495d565b611812565b6104fd610768366004614a43565b6118a5565b6104fd61077b366004614a71565b611937565b6104fd61078e366004614e2d565b61198c565b6104aa6107a136600461495d565b611a1c565b6107b96107b436600461495d565b611a93565b60405161048e9190614e7f565b61054c6107d4366004614b53565b611aad565b6104fd6107e7366004614ecc565b611b34565b6104fd6107fa366004614a13565b611bb2565b6104fd61080d366004614c9c565b611c23565b61048261082036600461495d565b611c95565b61054c61083336600461495d565b611cc3565b6104fd610846366004614eee565b611d2f565b61054c610859366004614f62565b611e02565b6104fd61086c366004614a43565b611e98565b61054c61087f366004614a13565b60009182526019602090815260408084206001600160a01b0393909316845291905290205490565b6104ca611f09565b6104fd6108bd366004614a13565b611f18565b6104fd6108d0366004614a71565b611fa0565b61054c6108e3366004614bbb565b611ff5565b6108fb6108f6366004614fa8565b6120ff565b60405161048e9190614fe9565b6104fd610916366004615075565b6122ae565b610482610929366004614a13565b6122b9565b6104fd61093c366004614c51565b6122f4565b61054c61094f366004614a71565b612375565b61054c610962366004614de9565b612419565b6104fd6109753660046150a1565b612459565b6104fd61098836600461511e565b612491565b6013546001600160a01b03166104aa565b6104fd6109ac366004614ecc565b612562565b6104ca6109bf36600461495d565b6125e0565b6104fd6109d236600461511e565b612685565b6104fd6109e536600461511e565b6126f7565b6104fd6109f8366004614a71565b612708565b61054c610a0b366004614ecc565b6000918252600d6020908152604080842092845291905290205490565b6108fb610a3636600461495d565b612795565b610a4e610a49366004614ecc565b61291c565b60405161048e9190615152565b6104ca610a6936600461495d565b612a7d565b6104fd610a7c3660046151e8565b612aef565b6104fd610a8f366004614a13565b612ca4565b610482610aa23660046152a2565b6001600160a01b03918216600090815260056020908152604080832093909416825291909152205460ff1690565b6104ca610ade36600461495d565b612d66565b6104fd610af13660046152d0565b612d86565b6104fd610b0436600461498e565b612e02565b6104fd610b1736600461495d565b612e73565b61054c610b2a36600461530f565b612ec2565b6104fd610b3d366004614a43565b613020565b6104aa610b5036600461495d565b6000908152600f60205260409020546001600160a01b031690565b60006001600160e01b0319821663780e9d6360e01b1480610b905750610b9082613066565b92915050565b606060008054610ba59061536a565b80601f0160208091040260200160405190810160405280929190818152602001828054610bd19061536a565b8015610c1e5780601f10610bf357610100808354040283529160200191610c1e565b820191906000526020600020905b815481529060010190602001808311610c0157829003601f168201915b5050505050905090565b6000818152600260205260408120546001600160a01b0316610ca65760405162461bcd60e51b815260206004820152602c60248201527f4552433732313a20617070726f76656420717565727920666f72206e6f6e657860448201526b34b9ba32b73a103a37b5b2b760a11b60648201526084015b60405180910390fd5b506000908152600460205260409020546001600160a01b031690565b73__$69db18565ecbefece480e92cc5f8fb1274$__63dfc34f25610ce96020840184614b53565b610cf96040850160208601614b53565b610d06604086018661539f565b60116040518663ffffffff1660e01b8152600401610d2895949392919061540e565b60006040518083038186803b158015610d4057600080fd5b505af4158015610d54573d6000803e3d6000fd5b5050505050565b6000610d6682611a1c565b9050806001600160a01b0316836001600160a01b03161415610dd45760405162461bcd60e51b815260206004820152602160248201527f4552433732313a20617070726f76616c20746f2063757272656e74206f776e656044820152603960f91b6064820152608401610c9d565b336001600160a01b0382161480610df05750610df08133610aa2565b610e625760405162461bcd60e51b815260206004820152603860248201527f4552433732313a20617070726f76652063616c6c6572206973206e6f74206f7760448201527f6e6572206e6f7220617070726f76656420666f7220616c6c00000000000000006064820152608401610c9d565b610e6c83836130b6565b505050565b610e7a82613124565b6000828152601860205260409020610e9290826131a5565b50610e9f828260006131c1565b806001600160a01b0316827faa9506a57073a80893a2d2fdd53f4bd49d281a8548f483ad230f2d5da7f6710c42604051610edb91815260200190565b60405180910390a35050565b610ef3813560b2613220565b6040516331a9108f60e11b81528135600482015273__$e2c9a8f399964af47bb173600dd9e5f662$__90633019fadd9083903090636352211e90602401602060405180830381865afa158015610f4d573d6000803e3d6000fd5b505050506040513d601f19601f82011682018060405250810190610f71919061544d565b60135485356000908152600d60209081526040808320818a0135845282529182902054825160e088901b6001600160e01b031916815286356004820152918601356024830152949091013560448201526001600160a01b0392831660648201529116608482015260a481019190915260c401610d28565b6060610b90826125e0565b610fff813560b2613220565b61100c81602001356132cc565b73__$e2c9a8f399964af47bb173600dd9e5f662$__63957f8a9882356020840135604085013561103f606087018761539f565b6040516331a9108f60e11b8152883560048201523090636352211e90602401602060405180830381865afa15801561107b573d6000803e3d6000fd5b505050506040513d601f19601f8201168201806040525081019061109f919061544d565b6013546020808b01356000908152600a9091526040908190206005015490516001600160e01b031960e08b901b168152610d28989796959493926001600160a01b03908116921690600d9060040161546a565b6110fb83613124565b8061111e57600083815260186020526040902061111890836131a5565b50611138565b60008381526018602052604090206111369083613325565b505b610e6c8383836131c1565b61114d338261333a565b6111695760405162461bcd60e51b8152600401610c9d906154c4565b610e6c83838361342d565b6000611182823560ec613220565b81356000908152600a60205260408120600301805482906111a29061552b565b91829055506040516342a34a5360e01b815290915073__$2873850e5b3f5697aafc2f5cd9f27cc884$__906342a34a53906111eb90869085906000908190600e90600401615650565b60006040518083038186803b15801561120357600080fd5b505af4158015611217573d6000803e3d6000fd5b509295945050505050565b600061122d83611aad565b821061128f5760405162461bcd60e51b815260206004820152602b60248201527f455243373231456e756d657261626c653a206f776e657220696e646578206f7560448201526a74206f6620626f756e647360a81b6064820152608401610c9d565b506001600160a01b03919091166000908152600660209081526040808320938352929052205490565b60006112c6833560ca613220565b6112e06112d66020840184614b53565b83602001356135d4565b6013546545524337323160d01b906000906001600160a01b0316632ea24efc8261130d6020880188614b53565b6040516001600160e01b031960e085901b16815260048101929092526001600160a01b03166024820152602087013560448201526064016020604051808303816000875af1158015611363573d6000803e3d6000fd5b505050506040513d601f19601f820116820180604052508101906113879190615695565b85356000908152600a602052604081206003018054929350909182906113ac9061552b565b9182905550905073__$2873850e5b3f5697aafc2f5cd9f27cc884$__6342a34a53878386866113de60208c018c614b53565b8b6020013560405160200161141192919060609290921b6bffffffffffffffffffffffff19168252601482015260340190565b604051602081830303815290604052600e6040518763ffffffff1660e01b8152600401611443969594939291906156ae565b60006040518083038186803b15801561145b57600080fd5b505af415801561146f573d6000803e3d6000fd5b509298975050505050505050565b6013546040516367880d6160e11b8152600481018590526000916001600160a01b03169063cf101ac290602401602060405180830381865afa1580156114c7573d6000803e3d6000fd5b505050506040513d601f19601f820116820180604052508101906114eb9190615695565b90506114f88160b1613220565b601354604051633c17845760e11b81526001600160a01b039091169063782f08ae9061152c908790879087906004016156f9565b600060405180830381600087803b15801561154657600080fd5b505af115801561155a573d6000803e3d6000fd5b5050505050505050565b611570813560b9613220565b60135460405163e4bb4f2360e01b815273__$e2c9a8f399964af47bb173600dd9e5f662$__9163e4bb4f2391610d289185916001600160a01b0390911690600d9060040161571c565b6115c5813560b6613220565b60135460408051635cebf08d60e11b81528335600482015260208401356024820152908301356044820152606083013560648201526001600160a01b039091166084820152600d60a482015273__$e2c9a8f399964af47bb173600dd9e5f662$__9063b9d7e11a9060c401610d28565b610e6c83838360405180602001604052806000815250612459565b6000818152600a6020526040808220905161166e916001019061578a565b60408051918290039091206000818152600b6020908152838220829055858252600a9052918220828155909250906116a96001830182614730565b6116b7600283016000614730565b50600060038201556004810180546001600160a01b03199081169091556005909101805490911690556116e982613684565b5050565b6116f88260b0613220565b6000828152600a60209081526040909120825161171d9260029092019184019061476a565b50817f17d7c9f69270ba135480ef16837f38b9d37d3ab291cbd3ba03982290c66319978260405161174e919061494a565b60405180910390a25050565b6000611768833560c8613220565b82356000908152600a60205260408120600301805467131a5b9adb1a5cdd60c21b928592909182906117999061552b565b919050819055905073__$2873850e5b3f5697aafc2f5cd9f27cc884$__6342a34a53878386868a60405160200161141191815260200190565b610e6c8383838080601f0160208091040260200160405190810160405280939291908181526020018383808284376000920191909152506116ed92505050565b600061181d60085490565b82106118805760405162461bcd60e51b815260206004820152602c60248201527f455243373231456e756d657261626c653a20676c6f62616c20696e646578206f60448201526b7574206f6620626f756e647360a01b6064820152608401610c9d565b6008828154811061189357611893615826565b90600052602060002001549050919050565b6118b1813560be613220565b60135481356000818152600d60209081526040808320818701358085529083529281902054905163d862986560e01b8152600481019490945290850135602484015260448301919091526001600160a01b039092166064820152608481019190915273__$e2c9a8f399964af47bb173600dd9e5f662$__9063d86298659060a401610d28565b611943813560bb613220565b6013546040516332f107bf60e01b815273__$e2c9a8f399964af47bb173600dd9e5f662$__916332f107bf91610d289185916001600160a01b0390911690600d9060040161583c565b6119978460c3613220565b6119a3848460026136e3565b6119ad84846137ca565b6040516001626802bf60e01b0319815273__$2873850e5b3f5697aafc2f5cd9f27cc884$__9063ff97fd41906119f0908790879087908790600e906004016158b9565b60006040518083038186803b158015611a0857600080fd5b505af415801561155a573d6000803e3d6000fd5b6000818152600260205260408120546001600160a01b031680610b905760405162461bcd60e51b815260206004820152602960248201527f4552433732313a206f776e657220717565727920666f72206e6f6e657869737460448201526832b73a103a37b5b2b760b91b6064820152608401610c9d565b6000818152601860205260409020606090610b909061387f565b60006001600160a01b038216611b185760405162461bcd60e51b815260206004820152602a60248201527f4552433732313a2062616c616e636520717565727920666f7220746865207a65604482015269726f206164647265737360b01b6064820152608401610c9d565b506001600160a01b031660009081526003602052604090205490565b611b3f8260c4613220565b611b4b828260036136e3565b611b5582826137ca565b6000828152600e60209081526040808320848452825291829020600501805460ff60a81b1916600160a81b179055905182815283917f036469f3e73c83520cdefa197d7a9c854c2f8bc0164b82e9f2bd4aa7e150fd30910161174e565b611bbb82613124565b6000828152601860205260409020611bd39082613325565b50611be782826001600160b01b03196131c1565b806001600160a01b0316827f58f51b5bb567864de85c6a422b33491f2418924a44613d7b9341f58657bdd83342604051610edb91815260200190565b611c2f813560b8613220565b60135481356000908152600d6020908152604080832060608601358452909152908190205490516317e9a8b160e31b815273__$e2c9a8f399964af47bb173600dd9e5f662$__9263bf4d458892610d289286926001600160a01b031691906004016158d9565b600080611ca183611a1c565b6001600160a01b03166000908152600c60205260409020549290921492915050565b60135460405162fba02760e01b8152600481018390526000916001600160a01b03169062fba02790602401602060405180830381865afa158015611d0b573d6000803e3d6000fd5b505050506040513d601f19601f82011682018060405250810190610b909190615695565b60005b81811015610e6c576000838383818110611d4e57611d4e615826565b6020908102929092013560008181526016909352604090922054919250506001600160a01b03168015611d8e57611d8e82826001600160b01b03196131c1565b6000828152601860205260408120611da59061387f565b905060005b8151811015611ded57611ddd84838381518110611dc957611dc9615826565b602002602001015160b0600019901b6131c1565b611de68161552b565b9050611daa565b5050505080611dfb9061552b565b9050611d32565b6000611e10833560c7613220565b82356000908152600a602052604081206003018054664164647265737360c81b926001600160a01b0386169290918290611e499061552b565b919050819055905073__$2873850e5b3f5697aafc2f5cd9f27cc884$__6342a34a53878386868a604051602001611411919060609190911b6bffffffffffffffffffffffff1916815260140190565b611ea4813560ba613220565b60135481356000908152600d6020908152604080832081860135845290915290819020549051633d7f9b3d60e11b815273__$e2c9a8f399964af47bb173600dd9e5f662$__92637aff367a92610d289286926001600160a01b0316919060040161592b565b606060018054610ba59061536a565b611f23826001613220565b6040516384b44a2f60e01b8152600481018390526001600160a01b0382166024820152600a604482015273__$d8529f0216812a2dec6b96adf1943c3537$__906384b44a2f9060640160006040518083038186803b158015611f8457600080fd5b505af4158015611f98573d6000803e3d6000fd5b505050505050565b611fac813560bd613220565b601354604051635fe5df1d60e11b815273__$e2c9a8f399964af47bb173600dd9e5f662$__9163bfcbbe3a91610d289185916001600160a01b0390911690600d90600401615973565b6000612003833560c9613220565b601354604051635cb46be760e01b81526000600482018190528435602483015260208501356044830152634e6f746560e01b9290916001600160a01b0390911690635cb46be7906064016020604051808303816000875af115801561206c573d6000803e3d6000fd5b505050506040513d601f19601f820116820180604052508101906120909190615695565b85356000908152600a602052604081206003018054929350909182906120b59061552b565b919050819055905073__$2873850e5b3f5697aafc2f5cd9f27cc884$__6342a34a53878386868a600001358b60200135604051602001611411929190918252602082015260400190565b6121076147ee565b600083836040516121199291906159d3565b604080519182900382206000818152600b602090815283822054808352600a82529184902060c08601909452835485526001840180549396509194939290840191906121649061536a565b80601f01602080910402602001604051908101604052809291908181526020018280546121909061536a565b80156121dd5780601f106121b2576101008083540402835291602001916121dd565b820191906000526020600020905b8154815290600101906020018083116121c057829003601f168201915b505050505081526020016002820180546121f69061536a565b80601f01602080910402602001604051908101604052809291908181526020018280546122229061536a565b801561226f5780601f106122445761010080835404028352916020019161226f565b820191906000526020600020905b81548152906001019060200180831161225257829003601f168201915b50505091835250506003820154602082015260048201546001600160a01b03908116604083015260059092015490911660609091015295945050505050565b6116e933838361388c565b60008281526019602090815260408083206001600160a01b038516845290915281205480156122e95760016122ec565b60005b949350505050565b6122ff836000613220565b60405163130f361d60e01b815273__$d8529f0216812a2dec6b96adf1943c3537$__9063130f361d9061234090869086908690600b90600a906004016159e3565b60006040518083038186803b15801561235857600080fd5b505af415801561236c573d6000803e3d6000fd5b50505050505050565b6000612386823560208401356137ca565b73__$2873850e5b3f5697aafc2f5cd9f27cc884$__635be69415833560208501356123b76060870160408801614b53565b6123c4606088018861539f565b6014546040516001600160e01b031960e089901b1681526123fc9695949392916001600160a01b031690600a90600e90600401615a11565b602060405180830381865af4158015611d0b573d6000803e3d6000fd5b6000612427833560c6613220565b82356000908152600a6020526040812060030180546821b430b930b1ba32b960b91b928592909182906117999061552b565b612463338361333a565b61247f5760405162461bcd60e51b8152600401610c9d906154c4565b61248b84848484613953565b50505050565b61249d813560b5613220565b6124af816020013582604001356137ca565b6040516331a9108f60e11b81528135600482015273__$e2c9a8f399964af47bb173600dd9e5f662$__9063018212d19083903090636352211e90602401602060405180830381865afa158015612509573d6000803e3d6000fd5b505050506040513d601f19601f8201168201806040525081019061252d919061544d565b6013546040516001600160e01b031960e086901b168152610d289392916001600160a01b031690600e90600d90600401615a5f565b61256d8260c5613220565b612579828260046136e3565b61258382826137ca565b6000828152600e60209081526040808320848452825291829020600501805460ff60a01b1916600160a01b179055905182815283917f4f1db9708b537c1d26a7af4b235fd079bf2342d92a276e27eb6c8717e8bbcf93910161174e565b6000818152600a602052604090206002018054606091906126009061536a565b80601f016020809104026020016040519081016040528092919081815260200182805461262c9061536a565b80156126795780601f1061264e57610100808354040283529160200191612679565b820191906000526020600020905b81548152906001019060200180831161265c57829003601f168201915b50505050509050919050565b612691813560b7613220565b6126ae6126a46040830160208401614b53565b82604001356135d4565b601354604051638f3334ff60e01b815273__$e2c9a8f399964af47bb173600dd9e5f662$__91638f3334ff91610d289185916001600160a01b0390911690600d90600401615ade565b61052061270382615b41565b613986565b612714813560c2613220565b6127258135602083013560016136e3565b612734813560208301356137ca565b73__$69db18565ecbefece480e92cc5f8fb1274$__6320828a02823560208401356127656060860160408701614b53565b612772606087018761539f565b600e6040518763ffffffff1660e01b8152600401610d2896959493929190615bf4565b61279d6147ee565b600a60008381526020019081526020016000206040518060c0016040529081600082015481526020016001820180546127d59061536a565b80601f01602080910402602001604051908101604052809291908181526020018280546128019061536a565b801561284e5780601f106128235761010080835404028352916020019161284e565b820191906000526020600020905b81548152906001019060200180831161283157829003601f168201915b505050505081526020016002820180546128679061536a565b80601f01602080910402602001604051908101604052809291908181526020018280546128939061536a565b80156128e05780601f106128b5576101008083540402835291602001916128e0565b820191906000526020600020905b8154815290600101906020018083116128c357829003601f168201915b50505091835250506003820154602082015260048201546001600160a01b03908116604083015260059092015490911660609091015292915050565b60408051610100808201835260008083526020808401829052606084860181905284018290526080840182905260a0840182905260c0840182905260e08401829052868252600e815284822086835281529084902084519283018552805483526001810154918301919091526002810180549394929391928401916129a09061536a565b80601f01602080910402602001604051908101604052809291908181526020018280546129cc9061536a565b8015612a195780601f106129ee57610100808354040283529160200191612a19565b820191906000526020600020905b8154815290600101906020018083116129fc57829003601f168201915b505050918352505060038201546001600160a01b039081166020830152600483015481166040830152600590920154918216606082015260ff600160a01b8304811615156080830152600160a81b909204909116151560a090910152905092915050565b601354604051632b05429560e21b8152600481018390526060916001600160a01b03169063ac150a5490602401600060405180830381865afa158015612ac7573d6000803e3d6000fd5b505050506040513d6000823e601f3d908101601f19168201604052610b909190810190615c35565b601454600160a81b900460ff1615808015612b1757506014546001600160a01b90910460ff16105b80612b385750303b158015612b385750601454600160a01b900460ff166001145b612b9b5760405162461bcd60e51b815260206004820152602e60248201527f496e697469616c697a61626c653a20636f6e747261637420697320616c72656160448201526d191e481a5b9a5d1a585b1a5e995960921b6064820152608401610c9d565b6014805460ff60a01b1916600160a01b1790558015612bc8576014805460ff60a81b1916600160a81b1790555b612bd489898989613a5b565b601380546001600160a01b03199081166001600160a01b0388811691909117909255601480548216878416179055601580548216868416179055601780549091169184169190911790556040514281527f400175a56dd3710794078f7b9dbe8296ac94c5a248dfd51bb22ed4ab9eaa9fbf9060200160405180910390a18015612c99576014805460ff60a81b19169055604051600181527f7f26b83ff96e1f2b6a682f133852f6798a09c465da95921460cefb38474024989060200160405180910390a15b505050505050505050565b612cad82613124565b6001600160a01b038116612cfe5760008281526016602090815260408083205460189092529091206001600160a01b0390911690612ceb90826131a5565b50612cf8838260006131c1565b50612d2a565b6000828152601860205260409020612d169082613325565b50612d2a82826001600160b01b03196131c1565b806001600160a01b0316827f691b92a93c526c4f5a357e56a33c33f6250f94e19e6c49be805800615c41493142604051610edb91815260200190565b6000818152600a602052604090206001018054606091906126009061536a565b612d8f84613124565b612d9984846137ca565b6000848152601a6020908152604080832086845282528083206001600160a01b0386168085529083529281902084905551838152859187917f488a41148fb8f04fec9e8e1f936444b9b70c0f084a5242092d8b4b01f6163d80910160405180910390a450505050565b612e0e813560bc613220565b60135481356000908152600d602090815260408083208186013584529091529081902054905163bf5c00c160e01b815273__$e2c9a8f399964af47bb173600dd9e5f662$__9263bf5c00c192610d289286926001600160a01b03169190600401615ca2565b612e7c81613124565b336000818152600c602052604080822080549085905590519092839285927fce95332e6082aebeb8058a7b56d1a109f67d6550552ed04d36aca4a6acd4d7de9190a45050565b6000612ed0843560cb613220565b601354604051633610bf0960e11b815265416e7955726960d01b916000916001600160a01b0390911690636c217e1290612f12908490899089906004016156f9565b6020604051808303816000875af1158015612f31573d6000803e3d6000fd5b505050506040513d601f19601f82011682018060405250810190612f559190615695565b86356000908152600a60205260408120600301805492935090918290612f7a9061552b565b919050819055905073__$2873850e5b3f5697aafc2f5cd9f27cc884$__6342a34a53888386868b8b604051602001612fb39291906159d3565b604051602081830303815290604052600e6040518763ffffffff1660e01b8152600401612fe5969594939291906156ae565b60006040518083038186803b158015612ffd57600080fd5b505af4158015613011573d6000803e3d6000fd5b50929998505050505050505050565b61302c813560b4613220565b61052081356130416040840160208501614b53565b836040013560405180604001604052806002815260200161060f60f31b815250613aac565b60006001600160e01b031982166380ac58cd60e01b148061309757506001600160e01b03198216635b5e139f60e01b145b80610b9057506301ffc9a760e01b6001600160e01b0319831614610b90565b600081815260046020526040902080546001600160a01b0319166001600160a01b03841690811790915581906130eb82611a1c565b6001600160a01b03167f8c5be1e5ebec7d5bd14f71427d1e84f3dd0314c0f7b2291e5b200ac8c7c3b92560405160405180910390a45050565b600061312f82611a1c565b9050336001600160a01b03821614806131655750326001600160a01b03821614801561316557506015546001600160a01b031633145b6116e95760405162461bcd60e51b81526020600482015260116024820152702737ba21b430b930b1ba32b927bbb732b960791b6044820152606401610c9d565b60006131ba836001600160a01b038416613d29565b9392505050565b60008381526019602090815260408083206001600160a01b038616808552908352928190208490555183815285917f4b0dcce4c30a5691ff14b7d4a8a27e2738b66289dc90120ebbc092812941bd2791015b60405180910390a3505050565b600061322b83611a1c565b9050336001600160a01b03821614806132615750326001600160a01b03821614801561326157506015546001600160a01b031633145b8061328a57506000838152601960209081526040808320338452909152902054600190831c8116145b610e6c5760405162461bcd60e51b81526020600482015260136024820152722737ba22b737bab3b42832b936b4b9b9b4b7b760691b6044820152606401610c9d565b6000818152600260205260409020546001600160a01b03166105205760405162461bcd60e51b81526020600482015260126024820152714368617261637465724e6f7445786973747360701b6044820152606401610c9d565b60006131ba836001600160a01b038416613e1c565b6000818152600260205260408120546001600160a01b03166133b35760405162461bcd60e51b815260206004820152602c60248201527f4552433732313a206f70657261746f7220717565727920666f72206e6f6e657860448201526b34b9ba32b73a103a37b5b2b760a11b6064820152608401610c9d565b60006133be83611a1c565b9050806001600160a01b0316846001600160a01b031614806133f95750836001600160a01b03166133ee84610c28565b6001600160a01b0316145b806122ec57506001600160a01b0380821660009081526005602090815260408083209388168352929052205460ff166122ec565b826001600160a01b031661344082611a1c565b6001600160a01b0316146134a45760405162461bcd60e51b815260206004820152602560248201527f4552433732313a207472616e736665722066726f6d20696e636f72726563742060448201526437bbb732b960d91b6064820152608401610c9d565b6001600160a01b0382166135065760405162461bcd60e51b8152602060048201526024808201527f4552433732313a207472616e7366657220746f20746865207a65726f206164646044820152637265737360e01b6064820152608401610c9d565b613511838383613e6b565b61351c6000826130b6565b6001600160a01b0383166000908152600360205260408120805460019290613545908490615cfa565b90915550506001600160a01b0382166000908152600360205260408120805460019290613573908490615d11565b909155505060008181526002602052604080822080546001600160a01b0319166001600160a01b0386811691821790925591518493918716917fddf252ad1be2c89b69c2b068fc378daa952ba7f163c4a11628f55a4df523b3ef91a4505050565b6040516331a9108f60e11b8152600481018290526001600160a01b03831690636352211e90602401602060405180830381865afa158015613619573d6000803e3d6000fd5b505050506040513d601f19601f8201168201806040525081019061363d919061544d565b6001600160a01b03166116e95760405162461bcd60e51b815260206004820152600f60248201526e5245433732314e6f7445786973747360881b6044820152606401610c9d565b61368e338261333a565b6136da5760405162461bcd60e51b815260206004820152601b60248201527f4e4654426173653a204e6f744f776e65724f72417070726f76656400000000006044820152606401610c9d565b61052081613f8f565b60006136ee84611a1c565b9050336001600160a01b03821614806137245750326001600160a01b03821614801561372457506015546001600160a01b031633145b8061377e57506000848152601a602090815260408083208684528252808320338452909152902054600190831c8116148061377e57506000848152601a602090815260408083208684528252808320338452909152902054155b61248b5760405162461bcd60e51b815260206004820152601e60248201527f4e6f74456e6f7567685065726d697373696f6e466f72546869734e6f746500006044820152606401610c9d565b6000828152600e60209081526040808320848452909152902060050154600160a01b900460ff161561382e5760405162461bcd60e51b815260206004820152600d60248201526c139bdd19525cd1195b195d1959609a1b6044820152606401610c9d565b6000828152600a60205260409020600301548111156116e95760405162461bcd60e51b815260206004820152600d60248201526c4e6f74654e6f7445786973747360981b6044820152606401610c9d565b606060006131ba83614036565b816001600160a01b0316836001600160a01b031614156138ee5760405162461bcd60e51b815260206004820152601960248201527f4552433732313a20617070726f766520746f2063616c6c6572000000000000006044820152606401610c9d565b6001600160a01b03838116600081815260056020908152604080832094871680845294825291829020805460ff191686151590811790915591519182527f17307eab39ab6107e8899845ad3d59bd9653f200f220920489ca2b5937696c319101613213565b61395e84848461342d565b61396a84848484614091565b61248b5760405162461bcd60e51b8152600401610c9d90615d29565b60006012600081546139979061552b565b918290555082519091506139ab908261418f565b604051632902741560e01b815273__$d8529f0216812a2dec6b96adf1943c3537$__906329027415906139ed9085906001908690600b90600a90600401615d7b565b60006040518083038186803b158015613a0557600080fd5b505af4158015613a19573d6000803e3d6000fd5b505083516001600160a01b03166000908152600c6020526040902054151591506116e990505790516001600160a01b03166000908152600c6020526040902055565b613a67848484846141a9565b7f414cd0b34676984f09a5f76ce9718d4062e50283abe0e7e274a9a5b4e0c99c308484848442604051613a9e959493929190615e24565b60405180910390a150505050565b6001600160a01b0383166000908152600c602052604090205415613b285760405162461bcd60e51b815260206004820152602d60248201527f546172676574206164647265737320616c726561647920686173207072696d6160448201526c393c9031b430b930b1ba32b91760991b6064820152608401610c9d565b6000601260008154613b399061552b565b91829055509050613b4a848261418f565b73__$d8529f0216812a2dec6b96adf1943c3537$__63290274156040518060a00160405280876001600160a01b03168152602001613b92886001600160a01b031660146141c2565b815260200160405180602001604052806000815250815260200160006001600160a01b0316815260200160405180602001604052806000815250815250600084600b600a6040518663ffffffff1660e01b8152600401613bf6959493929190615d7b565b60006040518083038186803b158015613c0e57600080fd5b505af4158015613c22573d6000803e3d6000fd5b505050506001600160a01b0384166000908152600c602052604090819020829055516331a9108f60e11b81526004810186905273__$e2c9a8f399964af47bb173600dd9e5f662$__9063957f8a989087908490879087903090636352211e90602401602060405180830381865afa158015613ca1573d6000803e3d6000fd5b505050506040513d601f19601f82011682018060405250810190613cc5919061544d565b6013546040516001600160e01b031960e089901b168152613cfd9695949392916001600160a01b031690600090600d90600401615e5e565b60006040518083038186803b158015613d1557600080fd5b505af4158015612c99573d6000803e3d6000fd5b60008181526001830160205260408120548015613e12576000613d4d600183615cfa565b8554909150600090613d6190600190615cfa565b9050818114613dc6576000866000018281548110613d8157613d81615826565b9060005260206000200154905080876000018481548110613da457613da4615826565b6000918252602080832090910192909255918252600188019052604090208390555b8554869080613dd757613dd7615eb6565b600190038181906000526020600020016000905590558560010160008681526020019081526020016000206000905560019350505050610b90565b6000915050610b90565b6000818152600183016020526040812054613e6357508154600181810184556000848152602080822090930184905584548482528286019093526040902091909155610b90565b506000610b90565b6000818152601860205260408120613e829061435d565b600083815260186020526040812091925090613e9d9061387f565b905060005b82811015613f4b57600084815260196020526040812083518290859085908110613ece57613ece615826565b60200260200101516001600160a01b03166001600160a01b0316815260200190815260200160002081905550613f38828281518110613f0f57613f0f615826565b6020026020010151601860008781526020019081526020016000206131a590919063ffffffff16565b5080613f438161552b565b915050613ea2565b506001600160a01b0385166000908152600c602052604090205415613f84576001600160a01b0385166000908152600c60205260408120555b610d54858585614367565b6000613f9a82611a1c565b9050613fa881600084613e6b565b613fb36000836130b6565b6001600160a01b0381166000908152600360205260408120805460019290613fdc908490615cfa565b909155505060008281526002602052604080822080546001600160a01b0319169055518391906001600160a01b038416907fddf252ad1be2c89b69c2b068fc378daa952ba7f163c4a11628f55a4df523b3ef908390a45050565b60608160000180548060200260200160405190810160405280929190818152602001828054801561267957602002820191906000526020600020905b8154815260200190600101908083116140725750505050509050919050565b60006001600160a01b0384163b1561418457604051630a85bd0160e11b81526001600160a01b0385169063150b7a02906140d5903390899088908890600401615ecc565b6020604051808303816000875af1925050508015614110575060408051601f3d908101601f1916820190925261410d91810190615f09565b60015b61416a573d80801561413e576040519150601f19603f3d011682016040523d82523d6000602084013e614143565b606091505b5080516141625760405162461bcd60e51b8152600401610c9d90615d29565b805181602001fd5b6001600160e01b031916630a85bd0160e11b1490506122ec565b506001949350505050565b6116e982826040518060200160405280600081525061441f565b6141b560008585614836565b50610d5460018383614836565b606060006141d1836002615f26565b6141dc906002615d11565b6001600160401b038111156141f3576141f3614cb8565b6040519080825280601f01601f19166020018201604052801561421d576020820181803683370190505b509050600360fc1b8160008151811061423857614238615826565b60200101906001600160f81b031916908160001a905350600f60fb1b8160018151811061426757614267615826565b60200101906001600160f81b031916908160001a905350600061428b846002615f26565b614296906001615d11565b90505b600181111561430e576f181899199a1a9b1b9c1cb0b131b232b360811b85600f16601081106142ca576142ca615826565b1a60f81b8282815181106142e0576142e0615826565b60200101906001600160f81b031916908160001a90535060049490941c9361430781615f45565b9050614299565b5083156131ba5760405162461bcd60e51b815260206004820181905260248201527f537472696e67733a20686578206c656e67746820696e73756666696369656e746044820152606401610c9d565b6000610b90825490565b6001600160a01b0383166143c2576143bd81600880546000838152600960205260408120829055600182018355919091527ff3f7a9fe364faab93b216da50a3214154f22a0a2b415b23a84c8169e8b636ee30155565b6143e5565b816001600160a01b0316836001600160a01b0316146143e5576143e58382614452565b6001600160a01b0382166143fc57610e6c816144ef565b826001600160a01b0316826001600160a01b031614610e6c57610e6c828261459e565b61442983836145e2565b6144366000848484614091565b610e6c5760405162461bcd60e51b8152600401610c9d90615d29565b6000600161445f84611aad565b6144699190615cfa565b6000838152600760205260409020549091508082146144bc576001600160a01b03841660009081526006602090815260408083208584528252808320548484528184208190558352600790915290208190555b5060009182526007602090815260408084208490556001600160a01b039094168352600681528383209183525290812055565b60085460009061450190600190615cfa565b6000838152600960205260408120546008805493945090928490811061452957614529615826565b90600052602060002001549050806008838154811061454a5761454a615826565b600091825260208083209091019290925582815260099091526040808220849055858252812055600880548061458257614582615eb6565b6001900381819060005260206000200160009055905550505050565b60006145a983611aad565b6001600160a01b039093166000908152600660209081526040808320868452825280832085905593825260079052919091209190915550565b6001600160a01b0382166146385760405162461bcd60e51b815260206004820181905260248201527f4552433732313a206d696e7420746f20746865207a65726f20616464726573736044820152606401610c9d565b6000818152600260205260409020546001600160a01b03161561469d5760405162461bcd60e51b815260206004820152601c60248201527f4552433732313a20746f6b656e20616c7265616479206d696e746564000000006044820152606401610c9d565b6146a960008383613e6b565b6001600160a01b03821660009081526003602052604081208054600192906146d2908490615d11565b909155505060008181526002602052604080822080546001600160a01b0319166001600160a01b03861690811790915590518392907fddf252ad1be2c89b69c2b068fc378daa952ba7f163c4a11628f55a4df523b3ef908290a45050565b50805461473c9061536a565b6000825580601f1061474c575050565b601f01602090049060005260206000209081019061052091906148aa565b8280546147769061536a565b90600052602060002090601f01602090048101928261479857600085556147de565b82601f106147b157805160ff19168380011785556147de565b828001600101855582156147de579182015b828111156147de5782518255916020019190600101906147c3565b506147ea9291506148aa565b5090565b6040518060c001604052806000815260200160608152602001606081526020016000815260200160006001600160a01b0316815260200160006001600160a01b031681525090565b8280546148429061536a565b90600052602060002090601f01602090048101928261486457600085556147de565b82601f1061487d5782800160ff198235161785556147de565b828001600101855582156147de579182015b828111156147de57823582559160200191906001019061488f565b5b808211156147ea57600081556001016148ab565b6001600160e01b03198116811461052057600080fd5b6000602082840312156148e757600080fd5b81356131ba816148bf565b60005b8381101561490d5781810151838201526020016148f5565b8381111561248b5750506000910152565b600081518084526149368160208601602086016148f2565b601f01601f19169290920160200192915050565b6020815260006131ba602083018461491e565b60006020828403121561496f57600080fd5b5035919050565b60006060828403121561498857600080fd5b50919050565b6000602082840312156149a057600080fd5b81356001600160401b038111156149b657600080fd5b6122ec84828501614976565b6001600160a01b038116811461052057600080fd5b80356149e2816149c2565b919050565b600080604083850312156149fa57600080fd5b8235614a05816149c2565b946020939093013593505050565b60008060408385031215614a2657600080fd5b823591506020830135614a38816149c2565b809150509250929050565b600060608284031215614a5557600080fd5b6131ba8383614976565b60006080828403121561498857600080fd5b600060208284031215614a8357600080fd5b81356001600160401b03811115614a9957600080fd5b6122ec84828501614a5f565b600080600060608486031215614aba57600080fd5b833592506020840135614acc816149c2565b929592945050506040919091013590565b600080600060608486031215614af257600080fd5b8335614afd816149c2565b92506020840135614acc816149c2565b600060e0828403121561498857600080fd5b600060208284031215614b3157600080fd5b81356001600160401b03811115614b4757600080fd5b6122ec84828501614b0d565b600060208284031215614b6557600080fd5b81356131ba816149c2565b600080600060608486031215614b8557600080fd5b83359250602084013591506040840135614b9e816149c2565b809150509250925092565b60006040828403121561498857600080fd5b60008060608385031215614bce57600080fd5b82356001600160401b03811115614be457600080fd5b614bf085828601614b0d565b925050614c008460208501614ba9565b90509250929050565b60008083601f840112614c1b57600080fd5b5081356001600160401b03811115614c3257600080fd5b602083019150836020828501011115614c4a57600080fd5b9250929050565b600080600060408486031215614c6657600080fd5b8335925060208401356001600160401b03811115614c8357600080fd5b614c8f86828701614c09565b9497909650939450505050565b600060808284031215614cae57600080fd5b6131ba8383614a5f565b634e487b7160e01b600052604160045260246000fd5b60405160a081016001600160401b0381118282101715614cf057614cf0614cb8565b60405290565b604051601f8201601f191681016001600160401b0381118282101715614d1e57614d1e614cb8565b604052919050565b60006001600160401b03821115614d3f57614d3f614cb8565b50601f01601f191660200190565b600082601f830112614d5e57600080fd5b8135614d71614d6c82614d26565b614cf6565b818152846020838601011115614d8657600080fd5b816020850160208301376000918101602001919091529392505050565b60008060408385031215614db657600080fd5b8235915060208301356001600160401b03811115614dd357600080fd5b614ddf85828601614d4d565b9150509250929050565b60008060408385031215614dfc57600080fd5b82356001600160401b03811115614e1257600080fd5b614e1e85828601614b0d565b95602094909401359450505050565b60008060008060608587031215614e4357600080fd5b843593506020850135925060408501356001600160401b03811115614e6757600080fd5b614e7387828801614c09565b95989497509550505050565b6020808252825182820181905260009190848201906040850190845b81811015614ec05783516001600160a01b031683529284019291840191600101614e9b565b50909695505050505050565b60008060408385031215614edf57600080fd5b50508035926020909101359150565b60008060208385031215614f0157600080fd5b82356001600160401b0380821115614f1857600080fd5b818501915085601f830112614f2c57600080fd5b813581811115614f3b57600080fd5b8660208260051b8501011115614f5057600080fd5b60209290920196919550909350505050565b60008060408385031215614f7557600080fd5b82356001600160401b03811115614f8b57600080fd5b614f9785828601614b0d565b9250506020830135614a38816149c2565b60008060208385031215614fbb57600080fd5b82356001600160401b03811115614fd157600080fd5b614fdd85828601614c09565b90969095509350505050565b60208152815160208201526000602083015160c0604084015261500f60e084018261491e565b90506040840151601f1984830301606085015261502c828261491e565b91505060608401516080840152608084015160018060a01b0380821660a08601528060a08701511660c086015250508091505092915050565b803580151581146149e257600080fd5b6000806040838503121561508857600080fd5b8235615093816149c2565b9150614c0060208401615065565b600080600080608085870312156150b757600080fd5b84356150c2816149c2565b935060208501356150d2816149c2565b92506040850135915060608501356001600160401b038111156150f457600080fd5b61510087828801614d4d565b91505092959194509250565b600060a0828403121561498857600080fd5b60006020828403121561513057600080fd5b81356001600160401b0381111561514657600080fd5b6122ec8482850161510c565b6020815281516020820152602082015160408201526000604083015161010080606085015261518561012085018361491e565b9150606085015160018060a01b0380821660808701528060808801511660a0870152505060a08501516151c360c08601826001600160a01b03169052565b5060c085015180151560e08601525060e0850151801515858301525090949350505050565b60008060008060008060008060c0898b03121561520457600080fd5b88356001600160401b038082111561521b57600080fd5b6152278c838d01614c09565b909a50985060208b013591508082111561524057600080fd5b5061524d8b828c01614c09565b9097509550506040890135615261816149c2565b93506060890135615271816149c2565b92506080890135615281816149c2565b915060a0890135615291816149c2565b809150509295985092959890939650565b600080604083850312156152b557600080fd5b82356152c0816149c2565b91506020830135614a38816149c2565b600080600080608085870312156152e657600080fd5b843593506020850135925060408501356152ff816149c2565b9396929550929360600135925050565b60008060006040848603121561532457600080fd5b83356001600160401b038082111561533b57600080fd5b61534787838801614b0d565b9450602086013591508082111561535d57600080fd5b50614c8f86828701614c09565b600181811c9082168061537e57607f821691505b6020821081141561498857634e487b7160e01b600052602260045260246000fd5b6000808335601e198436030181126153b657600080fd5b8301803591506001600160401b038211156153d057600080fd5b602001915036819003821315614c4a57600080fd5b81835281816020850137506000828201602090810191909152601f909101601f19169091010190565b6001600160a01b0386811682528516602082015260806040820181905260009061543b90830185876153e5565b90508260608301529695505050505050565b60006020828403121561545f57600080fd5b81516131ba816149c2565b60006101008b83528a6020840152896040840152806060840152615491818401898b6153e5565b6001600160a01b03978816608085015295871660a084015250509190931660c082015260e0019190915295945050505050565b60208082526031908201527f4552433732313a207472616e736665722063616c6c6572206973206e6f74206f6040820152701ddb995c881b9bdc88185c1c1c9bdd9959607a1b606082015260800190565b634e487b7160e01b600052601160045260246000fd5b600060001982141561553f5761553f615515565b5060010190565b6000808335601e1984360301811261555d57600080fd5b83016020810192503590506001600160401b0381111561557c57600080fd5b803603831315614c4a57600080fd5b80358252600061559e6020830183615546565b60e060208601526155b360e0860182846153e5565b91505060408301356155c4816149c2565b6001600160a01b0381811660408701526155e16060860186615546565b925086840360608801526155f68484836153e5565b93505060808501359150615609826149c2565b16608085015261561c60a0840184615546565b85830360a087015261562f8382846153e5565b9250505061563f60c08401615065565b151560c08501528091505092915050565b60c08152600061566360c083018861558b565b602083810197909752604083019590955250606081019290925281830360808301526000835260a09091015201919050565b6000602082840312156156a757600080fd5b5051919050565b60c0815260006156c160c083018961558b565b87602084015286604084015285606084015282810360808401526156e5818661491e565b9150508260a0830152979650505050505050565b8381526040602082015260006157136040830184866153e5565b95945050505050565b606081528335606082015260006020850135615737816149c2565b6001600160a01b038181166080850152604087013560a085015261575e6060880188615546565b9250608060c086015261577560e0860184836153e5565b96909116602085015250505060400152919050565b600080835481600182811c9150808316806157a657607f831692505b60208084108214156157c657634e487b7160e01b86526022600452602486fd5b8180156157da57600181146157eb57615818565b60ff19861689528489019650615818565b60008a81526020902060005b868110156158105781548b8201529085019083016157f7565b505084890196505b509498975050505050505050565b634e487b7160e01b600052603260045260246000fd5b606081528335606082015260006158566020860186615546565b60808085015261586a60e0850182846153e5565b915050604086013560a08401526158846060870187615546565b848303605f190160c086015261589b8382846153e5565b6001600160a01b039790971660208601525050505060400152919050565b85815284602082015260806040820152600061543b6080830185876153e5565b8335815260c0810160208501356158ef816149c2565b6001600160a01b039081166020840152604086810135908401526060958601359583019590955292909316608084015260a09092019190915290565b8335815260a081016020850135615941816149c2565b6001600160a01b0390811660208401526040958601359583019590955292909316606084015260809092019190915290565b606081528335606082015260208401356080820152604084013560a082015260006159a16060860186615546565b608060c08501526159b660e0850182846153e5565b6001600160a01b0396909616602085015250505060400152919050565b8183823760009101908152919050565b8581526080602082015260006159fd6080830186886153e5565b604083019490945250606001529392505050565b888152876020820152600060018060a01b03808916604084015260e06060840152615a4060e08401888a6153e5565b951660808301525060a081019290925260c09091015295945050505050565b60a08152853560a0820152602086013560c0820152604086013560e082015260608601356101008201526000615a986080880188615546565b60a0610120850152615aaf610140850182846153e5565b6001600160a01b0398891660208601529690971660408401525050606081019290925260809091015292915050565b606081528335606082015260006020850135615af9816149c2565b60018060a01b038082166080850152604087013560a0850152606087013560c0850152615b296080880188615546565b925060a060e0860152615775610100860184836153e5565b600060a08236031215615b5357600080fd5b615b5b614cce565b615b64836149d7565b815260208301356001600160401b0380821115615b8057600080fd5b615b8c36838701614d4d565b60208401526040850135915080821115615ba557600080fd5b615bb136838701614d4d565b6040840152615bc2606086016149d7565b60608401526080850135915080821115615bdb57600080fd5b50615be836828601614d4d565b60808301525092915050565b86815285602082015260018060a01b038516604082015260a060608201526000615c2260a0830185876153e5565b9050826080830152979650505050505050565b600060208284031215615c4757600080fd5b81516001600160401b03811115615c5d57600080fd5b8201601f81018413615c6e57600080fd5b8051615c7c614d6c82614d26565b818152856020838501011115615c9157600080fd5b6157138260208301602086016148f2565b60608152833560608201526000615cbc6020860186615546565b60606080850152615cd160c0850182846153e5565b60409788013560a08601526001600160a01b039690961660208501525050509092019190915290565b600082821015615d0c57615d0c615515565b500390565b60008219821115615d2457615d24615515565b500190565b60208082526032908201527f4552433732313a207472616e7366657220746f206e6f6e20455243373231526560408201527131b2b4bb32b91034b6b83632b6b2b73a32b960711b606082015260800190565b60a08152600060018060a01b038088511660a0840152602088015160a060c0850152615dab61014085018261491e565b90506040890151609f19808684030160e0870152615dc9838361491e565b92508360608c01511661010087015260808b0151935080868403016101208701525050615df6818361491e565b92505050615e08602083018715159052565b8460408301528360608301528260808301529695505050505050565b606081526000615e386060830187896153e5565b8281036020840152615e4b8186886153e5565b9150508260408301529695505050505050565b60006101008a8352896020840152886040840152806060840152615e848184018961491e565b6001600160a01b03978816608085015295871660a084015250509190931660c082015260e00191909152949350505050565b634e487b7160e01b600052603160045260246000fd5b6001600160a01b0385811682528416602082015260408101839052608060608201819052600090615eff9083018461491e565b9695505050505050565b600060208284031215615f1b57600080fd5b81516131ba816148bf565b6000816000190483118215151615615f4057615f40615515565b500290565b600081615f5457615f54615515565b50600019019056fea264697066735822122024477e59b3ed87842f7633c683d4ef372dfd4138fc5d281a71ef696079da817564736f6c634300080a0033",
  "linkReferences": {
    "contracts/libraries/CharacterLogic.sol": {
      "CharacterLogic": [
        {
          "length": 20,
          "start": 8048
        },
        {
          "length": 20,
          "start": 9007
        },
        {
          "length": 20,
          "start": 14811
        },
        {
          "length": 20,
          "start": 15213
        }
      ]
    },
    "contracts/libraries/LinkLogic.sol": {
      "LinkLogic": [
        {
          "length": 20,
          "start": 3882
        },
        {
          "length": 20,
          "start": 4143
        },
        {
          "length": 20,
          "start": 5539
        },
        {
          "length": 20,
          "start": 5684
        },
        {
          "length": 20,
          "start": 6454
        },
        {
          "length": 20,
          "start": 6518
        },
        {
          "length": 20,
          "start": 7299
        },
        {
          "length": 20,
          "start": 7927
        },
        {
          "length": 20,
          "start": 8159
        },
        {
          "length": 20,
          "start": 9446
        },
        {
          "length": 20,
          "start": 9953
        },
        {
          "length": 20,
          "start": 11873
        },
        {
          "length": 20,
          "start": 15480
        }
      ]
    },
    "contracts/libraries/LinkModuleLogic.sol": {
      "LinkModuleLogic": [
        {
          "length": 20,
          "start": 3301
        },
        {
          "length": 20,
          "start": 10071
        }
      ]
    },
    "contracts/libraries/PostLogic.sol": {
      "PostLogic": [
        {
          "length": 20,
          "start": 4570
        },
        {
          "length": 20,
          "start": 5078
        },
        {
          "length": 20,
          "start": 6084
        },
        {
          "length": 20,
          "start": 6624
        },
        {
          "length": 20,
          "start": 7796
        },
        {
          "length": 20,
          "start": 8416
        },
        {
          "length": 20,
          "start": 9129
        },
        {
          "length": 20,
          "start": 12197
        }
      ]
    }
  },
  "deployedLinkReferences": {
    "contracts/libraries/CharacterLogic.sol": {
      "CharacterLogic": [
        {
          "length": 20,
          "start": 8015
        },
        {
          "length": 20,
          "start": 8974
        },
        {
          "length": 20,
          "start": 14778
        },
        {
          "length": 20,
          "start": 15180
        }
      ]
    },
    "contracts/libraries/LinkLogic.sol": {
      "LinkLogic": [
        {
          "length": 20,
          "start": 3849
        },
        {
          "length": 20,
          "start": 4110
        },
        {
          "length": 20,
          "start": 5506
        },
        {
          "length": 20,
          "start": 5651
        },
        {
          "length": 20,
          "start": 6421
        },
        {
          "length": 20,
          "start": 6485
        },
        {
          "length": 20,
          "start": 7266
        },
        {
          "length": 20,
          "start": 7894
        },
        {
          "length": 20,
          "start": 8126
        },
        {
          "length": 20,
          "start": 9413
        },
        {
          "length": 20,
          "start": 9920
        },
        {
          "length": 20,
          "start": 11840
        },
        {
          "length": 20,
          "start": 15447
        }
      ]
    },
    "contracts/libraries/LinkModuleLogic.sol": {
      "LinkModuleLogic": [
        {
          "length": 20,
          "start": 3268
        },
        {
          "length": 20,
          "start": 10038
        }
      ]
    },
    "contracts/libraries/PostLogic.sol": {
      "PostLogic": [
        {
          "length": 20,
          "start": 4537
        },
        {
          "length": 20,
          "start": 5045
        },
        {
          "length": 20,
          "start": 6051
        },
        {
          "length": 20,
          "start": 6591
        },
        {
          "length": 20,
          "start": 7763
        },
        {
          "length": 20,
          "start": 8383
        },
        {
          "length": 20,
          "start": 9096
        },
        {
          "length": 20,
          "start": 12164
        }
      ]
    }
  }
}