{
    "_format": "hh-sol-artifact-1",
    "contractName": "Web3Entry",
    "sourceName": "contracts/Web3Entry.sol",
    "abi": [
        {
            "anonymous": false,
            "inputs": [
                {
                    "indexed": true,
                    "internalType": "address",
                    "name": "owner",
                    "type": "address"
                },
                {
                    "indexed": true,
                    "internalType": "address",
                    "name": "approved",
                    "type": "address"
                },
                {
                    "indexed": true,
                    "internalType": "uint256",
                    "name": "tokenId",
                    "type": "uint256"
                }
            ],
            "name": "Approval",
            "type": "event"
        },
        {
            "anonymous": false,
            "inputs": [
                {
                    "indexed": true,
                    "internalType": "address",
                    "name": "owner",
                    "type": "address"
                },
                {
                    "indexed": true,
                    "internalType": "address",
                    "name": "operator",
                    "type": "address"
                },
                {
                    "indexed": false,
                    "internalType": "bool",
                    "name": "approved",
                    "type": "bool"
                }
            ],
            "name": "ApprovalForAll",
            "type": "event"
        },
        {
            "anonymous": false,
            "inputs": [
                {
                    "indexed": true,
                    "internalType": "address",
                    "name": "from",
                    "type": "address"
                },
                {
                    "indexed": true,
                    "internalType": "address",
                    "name": "to",
                    "type": "address"
                },
                {
                    "indexed": true,
                    "internalType": "uint256",
                    "name": "tokenId",
                    "type": "uint256"
                }
            ],
            "name": "Transfer",
            "type": "event"
        },
        {
            "inputs": [
                {
                    "internalType": "address",
                    "name": "to",
                    "type": "address"
                },
                {
                    "internalType": "uint256",
                    "name": "tokenId",
                    "type": "uint256"
                }
            ],
            "name": "approve",
            "outputs": [],
            "stateMutability": "nonpayable",
            "type": "function"
        },
        {
            "inputs": [
                {
                    "internalType": "address",
                    "name": "owner",
                    "type": "address"
                }
            ],
            "name": "balanceOf",
            "outputs": [
                {
                    "internalType": "uint256",
                    "name": "",
                    "type": "uint256"
                }
            ],
            "stateMutability": "view",
            "type": "function"
        },
        {
            "inputs": [
                {
                    "internalType": "uint256",
                    "name": "tokenId",
                    "type": "uint256"
                }
            ],
            "name": "burn",
            "outputs": [],
            "stateMutability": "nonpayable",
            "type": "function"
        },
        {
            "inputs": [
                {
                    "internalType": "string",
                    "name": "handle",
                    "type": "string"
                },
                {
                    "internalType": "address",
                    "name": "account",
                    "type": "address"
                }
            ],
            "name": "canCreate",
            "outputs": [
                {
                    "internalType": "bool",
                    "name": "",
                    "type": "bool"
                }
            ],
            "stateMutability": "view",
            "type": "function"
        },
        {
            "inputs": [
                {
                    "components": [
                        {
                            "internalType": "address",
                            "name": "to",
                            "type": "address"
                        },
                        {
                            "internalType": "string",
                            "name": "handle",
                            "type": "string"
                        },
                        {
                            "internalType": "string",
                            "name": "uri",
                            "type": "string"
                        },
                        {
                            "internalType": "address",
                            "name": "linkModule",
                            "type": "address"
                        },
                        {
                            "internalType": "bytes",
                            "name": "linkModuleInitData",
                            "type": "bytes"
                        }
                    ],
                    "internalType": "struct DataTypes.CreateCharacterData",
                    "name": "vars",
                    "type": "tuple"
                }
            ],
            "name": "createCharacter",
            "outputs": [],
            "stateMutability": "nonpayable",
            "type": "function"
        },
        {
            "inputs": [
                {
                    "components": [
                        {
                            "internalType": "uint256",
                            "name": "fromCharacterId",
                            "type": "uint256"
                        },
                        {
                            "internalType": "address",
                            "name": "to",
                            "type": "address"
                        },
                        {
                            "internalType": "bytes32",
                            "name": "linkType",
                            "type": "bytes32"
                        }
                    ],
                    "internalType": "struct DataTypes.createThenLinkCharacterData",
                    "name": "vars",
                    "type": "tuple"
                }
            ],
            "name": "createThenLinkCharacter",
            "outputs": [],
            "stateMutability": "nonpayable",
            "type": "function"
        },
        {
            "inputs": [
                {
                    "internalType": "uint256",
                    "name": "characterId",
                    "type": "uint256"
                },
                {
                    "internalType": "uint256",
                    "name": "noteId",
                    "type": "uint256"
                }
            ],
            "name": "deleteNote",
            "outputs": [],
            "stateMutability": "nonpayable",
            "type": "function"
        },
        {
            "inputs": [
                {
                    "internalType": "uint256",
                    "name": "tokenId",
                    "type": "uint256"
                }
            ],
            "name": "getApproved",
            "outputs": [
                {
                    "internalType": "address",
                    "name": "",
                    "type": "address"
                }
            ],
            "stateMutability": "view",
            "type": "function"
        },
        {
            "inputs": [
                {
                    "internalType": "uint256",
                    "name": "characterId",
                    "type": "uint256"
                }
            ],
            "name": "getCharacter",
            "outputs": [
                {
                    "components": [
                        {
                            "internalType": "uint256",
                            "name": "characterId",
                            "type": "uint256"
                        },
                        {
                            "internalType": "string",
                            "name": "handle",
                            "type": "string"
                        },
                        {
                            "internalType": "string",
                            "name": "uri",
                            "type": "string"
                        },
                        {
                            "internalType": "uint256",
                            "name": "noteCount",
                            "type": "uint256"
                        },
                        {
                            "internalType": "address",
                            "name": "socialToken",
                            "type": "address"
                        },
                        {
                            "internalType": "address",
                            "name": "linkModule",
                            "type": "address"
                        }
                    ],
                    "internalType": "struct DataTypes.Character",
                    "name": "",
                    "type": "tuple"
                }
            ],
            "stateMutability": "view",
            "type": "function"
        },
        {
            "inputs": [
                {
                    "internalType": "string",
                    "name": "handle",
                    "type": "string"
                }
            ],
            "name": "getCharacterByHandle",
            "outputs": [
                {
                    "components": [
                        {
                            "internalType": "uint256",
                            "name": "characterId",
                            "type": "uint256"
                        },
                        {
                            "internalType": "string",
                            "name": "handle",
                            "type": "string"
                        },
                        {
                            "internalType": "string",
                            "name": "uri",
                            "type": "string"
                        },
                        {
                            "internalType": "uint256",
                            "name": "noteCount",
                            "type": "uint256"
                        },
                        {
                            "internalType": "address",
                            "name": "socialToken",
                            "type": "address"
                        },
                        {
                            "internalType": "address",
                            "name": "linkModule",
                            "type": "address"
                        }
                    ],
                    "internalType": "struct DataTypes.Character",
                    "name": "",
                    "type": "tuple"
                }
            ],
            "stateMutability": "view",
            "type": "function"
        },
        {
            "inputs": [
                {
                    "internalType": "uint256",
                    "name": "characterId",
                    "type": "uint256"
                }
            ],
            "name": "getCharacterUri",
            "outputs": [
                {
                    "internalType": "string",
                    "name": "",
                    "type": "string"
                }
            ],
            "stateMutability": "view",
            "type": "function"
        },
        {
            "inputs": [
                {
                    "internalType": "uint256",
                    "name": "characterId",
                    "type": "uint256"
                }
            ],
            "name": "getHandle",
            "outputs": [
                {
                    "internalType": "string",
                    "name": "",
                    "type": "string"
                }
            ],
            "stateMutability": "view",
            "type": "function"
        },
        {
            "inputs": [
                {
                    "internalType": "address",
                    "name": "account",
                    "type": "address"
                }
            ],
            "name": "getLinkModule4Address",
            "outputs": [
                {
                    "internalType": "address",
                    "name": "",
                    "type": "address"
                }
            ],
            "stateMutability": "view",
            "type": "function"
        },
        {
            "inputs": [
                {
                    "internalType": "address",
                    "name": "tokenAddress",
                    "type": "address"
                },
                {
                    "internalType": "uint256",
                    "name": "tokenId",
                    "type": "uint256"
                }
            ],
            "name": "getLinkModule4ERC721",
            "outputs": [
                {
                    "internalType": "address",
                    "name": "",
                    "type": "address"
                }
            ],
            "stateMutability": "view",
            "type": "function"
        },
        {
            "inputs": [
                {
                    "internalType": "uint256",
                    "name": "tokenId",
                    "type": "uint256"
                }
            ],
            "name": "getLinkModule4Linklist",
            "outputs": [
                {
                    "internalType": "address",
                    "name": "",
                    "type": "address"
                }
            ],
            "stateMutability": "view",
            "type": "function"
        },
        {
            "inputs": [],
            "name": "getLinklistContract",
            "outputs": [
                {
                    "internalType": "address",
                    "name": "",
                    "type": "address"
                }
            ],
            "stateMutability": "view",
            "type": "function"
        },
        {
            "inputs": [
                {
                    "internalType": "uint256",
                    "name": "characterId",
                    "type": "uint256"
                },
                {
                    "internalType": "bytes32",
                    "name": "linkType",
                    "type": "bytes32"
                }
            ],
            "name": "getLinklistId",
            "outputs": [
                {
                    "internalType": "uint256",
                    "name": "",
                    "type": "uint256"
                }
            ],
            "stateMutability": "view",
            "type": "function"
        },
        {
            "inputs": [
                {
                    "internalType": "uint256",
                    "name": "linkListId",
                    "type": "uint256"
                }
            ],
            "name": "getLinklistType",
            "outputs": [
                {
                    "internalType": "bytes32",
                    "name": "",
                    "type": "bytes32"
                }
            ],
            "stateMutability": "view",
            "type": "function"
        },
        {
            "inputs": [
                {
                    "internalType": "uint256",
                    "name": "tokenId",
                    "type": "uint256"
                }
            ],
            "name": "getLinklistUri",
            "outputs": [
                {
                    "internalType": "string",
                    "name": "",
                    "type": "string"
                }
            ],
            "stateMutability": "view",
            "type": "function"
        },
        {
            "inputs": [
                {
                    "internalType": "uint256",
                    "name": "characterId",
                    "type": "uint256"
                },
                {
                    "internalType": "uint256",
                    "name": "noteId",
                    "type": "uint256"
                }
            ],
            "name": "getNote",
            "outputs": [
                {
                    "components": [
                        {
                            "internalType": "bytes32",
                            "name": "linkItemType",
                            "type": "bytes32"
                        },
                        {
                            "internalType": "bytes32",
                            "name": "linkKey",
                            "type": "bytes32"
                        },
                        {
                            "internalType": "string",
                            "name": "contentUri",
                            "type": "string"
                        },
                        {
                            "internalType": "address",
                            "name": "linkModule",
                            "type": "address"
                        },
                        {
                            "internalType": "address",
                            "name": "mintModule",
                            "type": "address"
                        },
                        {
                            "internalType": "address",
                            "name": "mintNFT",
                            "type": "address"
                        },
                        {
                            "internalType": "bool",
                            "name": "deleted",
                            "type": "bool"
                        },
                        {
                            "internalType": "bool",
                            "name": "locked",
                            "type": "bool"
                        }
                    ],
                    "internalType": "struct DataTypes.Note",
                    "name": "",
                    "type": "tuple"
                }
            ],
            "stateMutability": "view",
            "type": "function"
        },
        {
            "inputs": [
                {
                    "internalType": "uint256",
                    "name": "characterId",
                    "type": "uint256"
                }
            ],
            "name": "getOperator",
            "outputs": [
                {
                    "internalType": "address",
                    "name": "",
                    "type": "address"
                }
            ],
            "stateMutability": "view",
            "type": "function"
        },
        {
            "inputs": [
                {
                    "internalType": "address",
                    "name": "account",
                    "type": "address"
                }
            ],
            "name": "getPrimaryCharacterId",
            "outputs": [
                {
                    "internalType": "uint256",
                    "name": "",
                    "type": "uint256"
                }
            ],
            "stateMutability": "view",
            "type": "function"
        },
        {
            "inputs": [],
            "name": "getRevision",
            "outputs": [
                {
                    "internalType": "uint256",
                    "name": "",
                    "type": "uint256"
                }
            ],
            "stateMutability": "pure",
            "type": "function"
        },
        {
            "inputs": [
                {
                    "internalType": "string",
                    "name": "_name",
                    "type": "string"
                },
                {
                    "internalType": "string",
                    "name": "_symbol",
                    "type": "string"
                },
                {
                    "internalType": "address",
                    "name": "_linklistContract",
                    "type": "address"
                },
                {
                    "internalType": "address",
                    "name": "_mintNFTImpl",
                    "type": "address"
                },
                {
                    "internalType": "address",
                    "name": "_periphery",
                    "type": "address"
                },
                {
                    "internalType": "address",
                    "name": "_resolver",
                    "type": "address"
                }
            ],
            "name": "initialize",
            "outputs": [],
            "stateMutability": "nonpayable",
            "type": "function"
        },
        {
            "inputs": [
                {
                    "internalType": "address",
                    "name": "owner",
                    "type": "address"
                },
                {
                    "internalType": "address",
                    "name": "operator",
                    "type": "address"
                }
            ],
            "name": "isApprovedForAll",
            "outputs": [
                {
                    "internalType": "bool",
                    "name": "",
                    "type": "bool"
                }
            ],
            "stateMutability": "view",
            "type": "function"
        },
        {
            "inputs": [
                {
                    "internalType": "uint256",
                    "name": "characterId",
                    "type": "uint256"
                }
            ],
            "name": "isPrimaryCharacter",
            "outputs": [
                {
                    "internalType": "bool",
                    "name": "",
                    "type": "bool"
                }
            ],
            "stateMutability": "view",
            "type": "function"
        },
        {
            "inputs": [
                {
                    "components": [
                        {
                            "internalType": "uint256",
                            "name": "fromCharacterId",
                            "type": "uint256"
                        },
                        {
                            "internalType": "address",
                            "name": "ethAddress",
                            "type": "address"
                        },
                        {
                            "internalType": "bytes32",
                            "name": "linkType",
                            "type": "bytes32"
                        },
                        {
                            "internalType": "bytes",
                            "name": "data",
                            "type": "bytes"
                        }
                    ],
                    "internalType": "struct DataTypes.linkAddressData",
                    "name": "vars",
                    "type": "tuple"
                }
            ],
            "name": "linkAddress",
            "outputs": [],
            "stateMutability": "nonpayable",
            "type": "function"
        },
        {
            "inputs": [
                {
                    "components": [
                        {
                            "internalType": "uint256",
                            "name": "fromCharacterId",
                            "type": "uint256"
                        },
                        {
                            "internalType": "string",
                            "name": "toUri",
                            "type": "string"
                        },
                        {
                            "internalType": "bytes32",
                            "name": "linkType",
                            "type": "bytes32"
                        },
                        {
                            "internalType": "bytes",
                            "name": "data",
                            "type": "bytes"
                        }
                    ],
                    "internalType": "struct DataTypes.linkAnyUriData",
                    "name": "vars",
                    "type": "tuple"
                }
            ],
            "name": "linkAnyUri",
            "outputs": [],
            "stateMutability": "nonpayable",
            "type": "function"
        },
        {
            "inputs": [
                {
                    "components": [
                        {
                            "internalType": "uint256",
                            "name": "fromCharacterId",
                            "type": "uint256"
                        },
                        {
                            "internalType": "uint256",
                            "name": "toCharacterId",
                            "type": "uint256"
                        },
                        {
                            "internalType": "bytes32",
                            "name": "linkType",
                            "type": "bytes32"
                        },
                        {
                            "internalType": "bytes",
                            "name": "data",
                            "type": "bytes"
                        }
                    ],
                    "internalType": "struct DataTypes.linkCharacterData",
                    "name": "vars",
                    "type": "tuple"
                }
            ],
            "name": "linkCharacter",
            "outputs": [],
            "stateMutability": "nonpayable",
            "type": "function"
        },
        {
            "inputs": [
                {
                    "internalType": "uint256",
                    "name": "fromCharacterId",
                    "type": "uint256"
                },
                {
                    "components": [
                        {
                            "internalType": "uint256",
                            "name": "fromCharacterId",
                            "type": "uint256"
                        },
                        {
                            "internalType": "uint256",
                            "name": "toCharacterId",
                            "type": "uint256"
                        },
                        {
                            "internalType": "bytes32",
                            "name": "linkType",
                            "type": "bytes32"
                        }
                    ],
                    "internalType": "struct DataTypes.CharacterLinkStruct",
                    "name": "linkData",
                    "type": "tuple"
                },
                {
                    "internalType": "bytes32",
                    "name": "linkType",
                    "type": "bytes32"
                }
            ],
            "name": "linkCharacterLink",
            "outputs": [],
            "stateMutability": "nonpayable",
            "type": "function"
        },
        {
            "inputs": [
                {
                    "components": [
                        {
                            "internalType": "uint256",
                            "name": "fromCharacterId",
                            "type": "uint256"
                        },
                        {
                            "internalType": "address",
                            "name": "tokenAddress",
                            "type": "address"
                        },
                        {
                            "internalType": "uint256",
                            "name": "tokenId",
                            "type": "uint256"
                        },
                        {
                            "internalType": "bytes32",
                            "name": "linkType",
                            "type": "bytes32"
                        },
                        {
                            "internalType": "bytes",
                            "name": "data",
                            "type": "bytes"
                        }
                    ],
                    "internalType": "struct DataTypes.linkERC721Data",
                    "name": "vars",
                    "type": "tuple"
                }
            ],
            "name": "linkERC721",
            "outputs": [],
            "stateMutability": "nonpayable",
            "type": "function"
        },
        {
            "inputs": [
                {
                    "components": [
                        {
                            "internalType": "uint256",
                            "name": "fromCharacterId",
                            "type": "uint256"
                        },
                        {
                            "internalType": "uint256",
                            "name": "toLinkListId",
                            "type": "uint256"
                        },
                        {
                            "internalType": "bytes32",
                            "name": "linkType",
                            "type": "bytes32"
                        },
                        {
                            "internalType": "bytes",
                            "name": "data",
                            "type": "bytes"
                        }
                    ],
                    "internalType": "struct DataTypes.linkLinklistData",
                    "name": "vars",
                    "type": "tuple"
                }
            ],
            "name": "linkLinklist",
            "outputs": [],
            "stateMutability": "nonpayable",
            "type": "function"
        },
        {
            "inputs": [
                {
                    "components": [
                        {
                            "internalType": "uint256",
                            "name": "fromCharacterId",
                            "type": "uint256"
                        },
                        {
                            "internalType": "uint256",
                            "name": "toCharacterId",
                            "type": "uint256"
                        },
                        {
                            "internalType": "uint256",
                            "name": "toNoteId",
                            "type": "uint256"
                        },
                        {
                            "internalType": "bytes32",
                            "name": "linkType",
                            "type": "bytes32"
                        },
                        {
                            "internalType": "bytes",
                            "name": "data",
                            "type": "bytes"
                        }
                    ],
                    "internalType": "struct DataTypes.linkNoteData",
                    "name": "vars",
                    "type": "tuple"
                }
            ],
            "name": "linkNote",
            "outputs": [],
            "stateMutability": "nonpayable",
            "type": "function"
        },
        {
            "inputs": [
                {
                    "internalType": "uint256",
                    "name": "characterId",
                    "type": "uint256"
                },
                {
                    "internalType": "uint256",
                    "name": "noteId",
                    "type": "uint256"
                }
            ],
            "name": "lockNote",
            "outputs": [],
            "stateMutability": "nonpayable",
            "type": "function"
        },
        {
            "inputs": [
                {
                    "components": [
                        {
                            "internalType": "uint256",
                            "name": "characterId",
                            "type": "uint256"
                        },
                        {
                            "internalType": "uint256",
                            "name": "noteId",
                            "type": "uint256"
                        },
                        {
                            "internalType": "address",
                            "name": "to",
                            "type": "address"
                        },
                        {
                            "internalType": "bytes",
                            "name": "mintModuleData",
                            "type": "bytes"
                        }
                    ],
                    "internalType": "struct DataTypes.MintNoteData",
                    "name": "vars",
                    "type": "tuple"
                }
            ],
            "name": "mintNote",
            "outputs": [
                {
                    "internalType": "uint256",
                    "name": "",
                    "type": "uint256"
                }
            ],
            "stateMutability": "nonpayable",
            "type": "function"
        },
        {
            "inputs": [],
            "name": "name",
            "outputs": [
                {
                    "internalType": "string",
                    "name": "",
                    "type": "string"
                }
            ],
            "stateMutability": "view",
            "type": "function"
        },
        {
            "inputs": [
                {
                    "internalType": "uint256",
                    "name": "tokenId",
                    "type": "uint256"
                }
            ],
            "name": "ownerOf",
            "outputs": [
                {
                    "internalType": "address",
                    "name": "",
                    "type": "address"
                }
            ],
            "stateMutability": "view",
            "type": "function"
        },
        {
            "inputs": [
                {
                    "components": [
                        {
                            "internalType": "uint256",
                            "name": "characterId",
                            "type": "uint256"
                        },
                        {
                            "internalType": "string",
                            "name": "contentUri",
                            "type": "string"
                        },
                        {
                            "internalType": "address",
                            "name": "linkModule",
                            "type": "address"
                        },
                        {
                            "internalType": "bytes",
                            "name": "linkModuleInitData",
                            "type": "bytes"
                        },
                        {
                            "internalType": "address",
                            "name": "mintModule",
                            "type": "address"
                        },
                        {
                            "internalType": "bytes",
                            "name": "mintModuleInitData",
                            "type": "bytes"
                        },
                        {
                            "internalType": "bool",
                            "name": "locked",
                            "type": "bool"
                        }
                    ],
                    "internalType": "struct DataTypes.PostNoteData",
                    "name": "vars",
                    "type": "tuple"
                }
            ],
            "name": "postNote",
            "outputs": [
                {
                    "internalType": "uint256",
                    "name": "",
                    "type": "uint256"
                }
            ],
            "stateMutability": "nonpayable",
            "type": "function"
        },
        {
            "inputs": [
                {
                    "components": [
                        {
                            "internalType": "uint256",
                            "name": "characterId",
                            "type": "uint256"
                        },
                        {
                            "internalType": "string",
                            "name": "contentUri",
                            "type": "string"
                        },
                        {
                            "internalType": "address",
                            "name": "linkModule",
                            "type": "address"
                        },
                        {
                            "internalType": "bytes",
                            "name": "linkModuleInitData",
                            "type": "bytes"
                        },
                        {
                            "internalType": "address",
                            "name": "mintModule",
                            "type": "address"
                        },
                        {
                            "internalType": "bytes",
                            "name": "mintModuleInitData",
                            "type": "bytes"
                        },
                        {
                            "internalType": "bool",
                            "name": "locked",
                            "type": "bool"
                        }
                    ],
                    "internalType": "struct DataTypes.PostNoteData",
                    "name": "noteData",
                    "type": "tuple"
                },
                {
                    "internalType": "address",
                    "name": "ethAddress",
                    "type": "address"
                }
            ],
            "name": "postNote4Address",
            "outputs": [
                {
                    "internalType": "uint256",
                    "name": "",
                    "type": "uint256"
                }
            ],
            "stateMutability": "nonpayable",
            "type": "function"
        },
        {
            "inputs": [
                {
                    "components": [
                        {
                            "internalType": "uint256",
                            "name": "characterId",
                            "type": "uint256"
                        },
                        {
                            "internalType": "string",
                            "name": "contentUri",
                            "type": "string"
                        },
                        {
                            "internalType": "address",
                            "name": "linkModule",
                            "type": "address"
                        },
                        {
                            "internalType": "bytes",
                            "name": "linkModuleInitData",
                            "type": "bytes"
                        },
                        {
                            "internalType": "address",
                            "name": "mintModule",
                            "type": "address"
                        },
                        {
                            "internalType": "bytes",
                            "name": "mintModuleInitData",
                            "type": "bytes"
                        },
                        {
                            "internalType": "bool",
                            "name": "locked",
                            "type": "bool"
                        }
                    ],
                    "internalType": "struct DataTypes.PostNoteData",
                    "name": "postNoteData",
                    "type": "tuple"
                },
                {
                    "internalType": "string",
                    "name": "uri",
                    "type": "string"
                }
            ],
            "name": "postNote4AnyUri",
            "outputs": [
                {
                    "internalType": "uint256",
                    "name": "",
                    "type": "uint256"
                }
            ],
            "stateMutability": "nonpayable",
            "type": "function"
        },
        {
            "inputs": [
                {
                    "components": [
                        {
                            "internalType": "uint256",
                            "name": "characterId",
                            "type": "uint256"
                        },
                        {
                            "internalType": "string",
                            "name": "contentUri",
                            "type": "string"
                        },
                        {
                            "internalType": "address",
                            "name": "linkModule",
                            "type": "address"
                        },
                        {
                            "internalType": "bytes",
                            "name": "linkModuleInitData",
                            "type": "bytes"
                        },
                        {
                            "internalType": "address",
                            "name": "mintModule",
                            "type": "address"
                        },
                        {
                            "internalType": "bytes",
                            "name": "mintModuleInitData",
                            "type": "bytes"
                        },
                        {
                            "internalType": "bool",
                            "name": "locked",
                            "type": "bool"
                        }
                    ],
                    "internalType": "struct DataTypes.PostNoteData",
                    "name": "postNoteData",
                    "type": "tuple"
                },
                {
                    "internalType": "uint256",
                    "name": "toCharacterId",
                    "type": "uint256"
                }
            ],
            "name": "postNote4Character",
            "outputs": [
                {
                    "internalType": "uint256",
                    "name": "",
                    "type": "uint256"
                }
            ],
            "stateMutability": "nonpayable",
            "type": "function"
        },
        {
            "inputs": [
                {
                    "components": [
                        {
                            "internalType": "uint256",
                            "name": "characterId",
                            "type": "uint256"
                        },
                        {
                            "internalType": "string",
                            "name": "contentUri",
                            "type": "string"
                        },
                        {
                            "internalType": "address",
                            "name": "linkModule",
                            "type": "address"
                        },
                        {
                            "internalType": "bytes",
                            "name": "linkModuleInitData",
                            "type": "bytes"
                        },
                        {
                            "internalType": "address",
                            "name": "mintModule",
                            "type": "address"
                        },
                        {
                            "internalType": "bytes",
                            "name": "mintModuleInitData",
                            "type": "bytes"
                        },
                        {
                            "internalType": "bool",
                            "name": "locked",
                            "type": "bool"
                        }
                    ],
                    "internalType": "struct DataTypes.PostNoteData",
                    "name": "postNoteData",
                    "type": "tuple"
                },
                {
                    "components": [
                        {
                            "internalType": "address",
                            "name": "tokenAddress",
                            "type": "address"
                        },
                        {
                            "internalType": "uint256",
                            "name": "erc721TokenId",
                            "type": "uint256"
                        }
                    ],
                    "internalType": "struct DataTypes.ERC721Struct",
                    "name": "erc721",
                    "type": "tuple"
                }
            ],
            "name": "postNote4ERC721",
            "outputs": [
                {
                    "internalType": "uint256",
                    "name": "",
                    "type": "uint256"
                }
            ],
            "stateMutability": "nonpayable",
            "type": "function"
        },
        {
            "inputs": [
                {
                    "components": [
                        {
                            "internalType": "uint256",
                            "name": "characterId",
                            "type": "uint256"
                        },
                        {
                            "internalType": "string",
                            "name": "contentUri",
                            "type": "string"
                        },
                        {
                            "internalType": "address",
                            "name": "linkModule",
                            "type": "address"
                        },
                        {
                            "internalType": "bytes",
                            "name": "linkModuleInitData",
                            "type": "bytes"
                        },
                        {
                            "internalType": "address",
                            "name": "mintModule",
                            "type": "address"
                        },
                        {
                            "internalType": "bytes",
                            "name": "mintModuleInitData",
                            "type": "bytes"
                        },
                        {
                            "internalType": "bool",
                            "name": "locked",
                            "type": "bool"
                        }
                    ],
                    "internalType": "struct DataTypes.PostNoteData",
                    "name": "noteData",
                    "type": "tuple"
                },
                {
                    "internalType": "uint256",
                    "name": "toLinklistId",
                    "type": "uint256"
                }
            ],
            "name": "postNote4Linklist",
            "outputs": [
                {
                    "internalType": "uint256",
                    "name": "",
                    "type": "uint256"
                }
            ],
            "stateMutability": "nonpayable",
            "type": "function"
        },
        {
            "inputs": [
                {
                    "components": [
                        {
                            "internalType": "uint256",
                            "name": "characterId",
                            "type": "uint256"
                        },
                        {
                            "internalType": "string",
                            "name": "contentUri",
                            "type": "string"
                        },
                        {
                            "internalType": "address",
                            "name": "linkModule",
                            "type": "address"
                        },
                        {
                            "internalType": "bytes",
                            "name": "linkModuleInitData",
                            "type": "bytes"
                        },
                        {
                            "internalType": "address",
                            "name": "mintModule",
                            "type": "address"
                        },
                        {
                            "internalType": "bytes",
                            "name": "mintModuleInitData",
                            "type": "bytes"
                        },
                        {
                            "internalType": "bool",
                            "name": "locked",
                            "type": "bool"
                        }
                    ],
                    "internalType": "struct DataTypes.PostNoteData",
                    "name": "postNoteData",
                    "type": "tuple"
                },
                {
                    "components": [
                        {
                            "internalType": "uint256",
                            "name": "characterId",
                            "type": "uint256"
                        },
                        {
                            "internalType": "uint256",
                            "name": "noteId",
                            "type": "uint256"
                        }
                    ],
                    "internalType": "struct DataTypes.NoteStruct",
                    "name": "note",
                    "type": "tuple"
                }
            ],
            "name": "postNote4Note",
            "outputs": [
                {
                    "internalType": "uint256",
                    "name": "",
                    "type": "uint256"
                }
            ],
            "stateMutability": "nonpayable",
            "type": "function"
        },
        {
            "inputs": [],
            "name": "resolver",
            "outputs": [
                {
                    "internalType": "address",
                    "name": "",
                    "type": "address"
                }
            ],
            "stateMutability": "view",
            "type": "function"
        },
        {
            "inputs": [
                {
                    "internalType": "address",
                    "name": "from",
                    "type": "address"
                },
                {
                    "internalType": "address",
                    "name": "to",
                    "type": "address"
                },
                {
                    "internalType": "uint256",
                    "name": "tokenId",
                    "type": "uint256"
                }
            ],
            "name": "safeTransferFrom",
            "outputs": [],
            "stateMutability": "nonpayable",
            "type": "function"
        },
        {
            "inputs": [
                {
                    "internalType": "address",
                    "name": "from",
                    "type": "address"
                },
                {
                    "internalType": "address",
                    "name": "to",
                    "type": "address"
                },
                {
                    "internalType": "uint256",
                    "name": "tokenId",
                    "type": "uint256"
                },
                {
                    "internalType": "bytes",
                    "name": "_data",
                    "type": "bytes"
                }
            ],
            "name": "safeTransferFrom",
            "outputs": [],
            "stateMutability": "nonpayable",
            "type": "function"
        },
        {
            "inputs": [
                {
                    "internalType": "address",
                    "name": "operator",
                    "type": "address"
                },
                {
                    "internalType": "bool",
                    "name": "approved",
                    "type": "bool"
                }
            ],
            "name": "setApprovalForAll",
            "outputs": [],
            "stateMutability": "nonpayable",
            "type": "function"
        },
        {
            "inputs": [
                {
                    "internalType": "uint256",
                    "name": "characterId",
                    "type": "uint256"
                },
                {
                    "internalType": "string",
                    "name": "newUri",
                    "type": "string"
                }
            ],
            "name": "setCharacterUri",
            "outputs": [],
            "stateMutability": "nonpayable",
            "type": "function"
        },
        {
            "inputs": [
                {
                    "internalType": "uint256",
                    "name": "characterId",
                    "type": "uint256"
                },
                {
                    "internalType": "string",
                    "name": "newHandle",
                    "type": "string"
                }
            ],
            "name": "setHandle",
            "outputs": [],
            "stateMutability": "nonpayable",
            "type": "function"
        },
        {
            "inputs": [
                {
                    "components": [
                        {
                            "internalType": "address",
                            "name": "account",
                            "type": "address"
                        },
                        {
                            "internalType": "address",
                            "name": "linkModule",
                            "type": "address"
                        },
                        {
                            "internalType": "bytes",
                            "name": "linkModuleInitData",
                            "type": "bytes"
                        }
                    ],
                    "internalType": "struct DataTypes.setLinkModule4AddressData",
                    "name": "vars",
                    "type": "tuple"
                }
            ],
            "name": "setLinkModule4Address",
            "outputs": [],
            "stateMutability": "nonpayable",
            "type": "function"
        },
        {
            "inputs": [
                {
                    "components": [
                        {
                            "internalType": "uint256",
                            "name": "characterId",
                            "type": "uint256"
                        },
                        {
                            "internalType": "address",
                            "name": "linkModule",
                            "type": "address"
                        },
                        {
                            "internalType": "bytes",
                            "name": "linkModuleInitData",
                            "type": "bytes"
                        }
                    ],
                    "internalType": "struct DataTypes.setLinkModule4CharacterData",
                    "name": "vars",
                    "type": "tuple"
                }
            ],
            "name": "setLinkModule4Character",
            "outputs": [],
            "stateMutability": "nonpayable",
            "type": "function"
        },
        {
            "inputs": [
                {
                    "components": [
                        {
                            "internalType": "address",
                            "name": "tokenAddress",
                            "type": "address"
                        },
                        {
                            "internalType": "uint256",
                            "name": "tokenId",
                            "type": "uint256"
                        },
                        {
                            "internalType": "address",
                            "name": "linkModule",
                            "type": "address"
                        },
                        {
                            "internalType": "bytes",
                            "name": "linkModuleInitData",
                            "type": "bytes"
                        }
                    ],
                    "internalType": "struct DataTypes.setLinkModule4ERC721Data",
                    "name": "vars",
                    "type": "tuple"
                }
            ],
            "name": "setLinkModule4ERC721",
            "outputs": [],
            "stateMutability": "nonpayable",
            "type": "function"
        },
        {
            "inputs": [
                {
                    "components": [
                        {
                            "internalType": "uint256",
                            "name": "linklistId",
                            "type": "uint256"
                        },
                        {
                            "internalType": "address",
                            "name": "linkModule",
                            "type": "address"
                        },
                        {
                            "internalType": "bytes",
                            "name": "linkModuleInitData",
                            "type": "bytes"
                        }
                    ],
                    "internalType": "struct DataTypes.setLinkModule4LinklistData",
                    "name": "vars",
                    "type": "tuple"
                }
            ],
            "name": "setLinkModule4Linklist",
            "outputs": [],
            "stateMutability": "nonpayable",
            "type": "function"
        },
        {
            "inputs": [
                {
                    "components": [
                        {
                            "internalType": "uint256",
                            "name": "characterId",
                            "type": "uint256"
                        },
                        {
                            "internalType": "uint256",
                            "name": "noteId",
                            "type": "uint256"
                        },
                        {
                            "internalType": "address",
                            "name": "linkModule",
                            "type": "address"
                        },
                        {
                            "internalType": "bytes",
                            "name": "linkModuleInitData",
                            "type": "bytes"
                        }
                    ],
                    "internalType": "struct DataTypes.setLinkModule4NoteData",
                    "name": "vars",
                    "type": "tuple"
                }
            ],
            "name": "setLinkModule4Note",
            "outputs": [],
            "stateMutability": "nonpayable",
            "type": "function"
        },
        {
            "inputs": [
                {
                    "internalType": "uint256",
                    "name": "linklistId",
                    "type": "uint256"
                },
                {
                    "internalType": "string",
                    "name": "uri",
                    "type": "string"
                }
            ],
            "name": "setLinklistUri",
            "outputs": [],
            "stateMutability": "nonpayable",
            "type": "function"
        },
        {
            "inputs": [
                {
                    "components": [
                        {
                            "internalType": "uint256",
                            "name": "characterId",
                            "type": "uint256"
                        },
                        {
                            "internalType": "uint256",
                            "name": "noteId",
                            "type": "uint256"
                        },
                        {
                            "internalType": "address",
                            "name": "mintModule",
                            "type": "address"
                        },
                        {
                            "internalType": "bytes",
                            "name": "mintModuleInitData",
                            "type": "bytes"
                        }
                    ],
                    "internalType": "struct DataTypes.setMintModule4NoteData",
                    "name": "vars",
                    "type": "tuple"
                }
            ],
            "name": "setMintModule4Note",
            "outputs": [],
            "stateMutability": "nonpayable",
            "type": "function"
        },
        {
            "inputs": [
                {
                    "internalType": "uint256",
                    "name": "characterId",
                    "type": "uint256"
                },
                {
                    "internalType": "uint256",
                    "name": "noteId",
                    "type": "uint256"
                },
                {
                    "internalType": "string",
                    "name": "newUri",
                    "type": "string"
                }
            ],
            "name": "setNoteUri",
            "outputs": [],
            "stateMutability": "nonpayable",
            "type": "function"
        },
        {
            "inputs": [
                {
                    "internalType": "uint256",
                    "name": "characterId",
                    "type": "uint256"
                },
                {
                    "internalType": "address",
                    "name": "operator",
                    "type": "address"
                }
            ],
            "name": "setOperator",
            "outputs": [],
            "stateMutability": "nonpayable",
            "type": "function"
        },
        {
            "inputs": [
                {
                    "internalType": "uint256",
                    "name": "characterId",
                    "type": "uint256"
                }
            ],
            "name": "setPrimaryCharacterId",
            "outputs": [],
            "stateMutability": "nonpayable",
            "type": "function"
        },
        {
            "inputs": [
                {
                    "internalType": "uint256",
                    "name": "characterId",
                    "type": "uint256"
                },
                {
                    "internalType": "address",
                    "name": "tokenAddress",
                    "type": "address"
                }
            ],
            "name": "setSocialToken",
            "outputs": [],
            "stateMutability": "nonpayable",
            "type": "function"
        },
        {
            "inputs": [
                {
                    "internalType": "bytes4",
                    "name": "interfaceId",
                    "type": "bytes4"
                }
            ],
            "name": "supportsInterface",
            "outputs": [
                {
                    "internalType": "bool",
                    "name": "",
                    "type": "bool"
                }
            ],
            "stateMutability": "view",
            "type": "function"
        },
        {
            "inputs": [],
            "name": "symbol",
            "outputs": [
                {
                    "internalType": "string",
                    "name": "",
                    "type": "string"
                }
            ],
            "stateMutability": "view",
            "type": "function"
        },
        {
            "inputs": [
                {
                    "internalType": "uint256",
                    "name": "index",
                    "type": "uint256"
                }
            ],
            "name": "tokenByIndex",
            "outputs": [
                {
                    "internalType": "uint256",
                    "name": "",
                    "type": "uint256"
                }
            ],
            "stateMutability": "view",
            "type": "function"
        },
        {
            "inputs": [
                {
                    "internalType": "address",
                    "name": "owner",
                    "type": "address"
                },
                {
                    "internalType": "uint256",
                    "name": "index",
                    "type": "uint256"
                }
            ],
            "name": "tokenOfOwnerByIndex",
            "outputs": [
                {
                    "internalType": "uint256",
                    "name": "",
                    "type": "uint256"
                }
            ],
            "stateMutability": "view",
            "type": "function"
        },
        {
            "inputs": [
                {
                    "internalType": "uint256",
                    "name": "characterId",
                    "type": "uint256"
                }
            ],
            "name": "tokenURI",
            "outputs": [
                {
                    "internalType": "string",
                    "name": "",
                    "type": "string"
                }
            ],
            "stateMutability": "view",
            "type": "function"
        },
        {
            "inputs": [],
            "name": "totalSupply",
            "outputs": [
                {
                    "internalType": "uint256",
                    "name": "",
                    "type": "uint256"
                }
            ],
            "stateMutability": "view",
            "type": "function"
        },
        {
            "inputs": [
                {
                    "internalType": "address",
                    "name": "from",
                    "type": "address"
                },
                {
                    "internalType": "address",
                    "name": "to",
                    "type": "address"
                },
                {
                    "internalType": "uint256",
                    "name": "tokenId",
                    "type": "uint256"
                }
            ],
            "name": "transferFrom",
            "outputs": [],
            "stateMutability": "nonpayable",
            "type": "function"
        },
        {
            "inputs": [
                {
                    "components": [
                        {
                            "internalType": "uint256",
                            "name": "fromCharacterId",
                            "type": "uint256"
                        },
                        {
                            "internalType": "address",
                            "name": "ethAddress",
                            "type": "address"
                        },
                        {
                            "internalType": "bytes32",
                            "name": "linkType",
                            "type": "bytes32"
                        }
                    ],
                    "internalType": "struct DataTypes.unlinkAddressData",
                    "name": "vars",
                    "type": "tuple"
                }
            ],
            "name": "unlinkAddress",
            "outputs": [],
            "stateMutability": "nonpayable",
            "type": "function"
        },
        {
            "inputs": [
                {
                    "components": [
                        {
                            "internalType": "uint256",
                            "name": "fromCharacterId",
                            "type": "uint256"
                        },
                        {
                            "internalType": "string",
                            "name": "toUri",
                            "type": "string"
                        },
                        {
                            "internalType": "bytes32",
                            "name": "linkType",
                            "type": "bytes32"
                        }
                    ],
                    "internalType": "struct DataTypes.unlinkAnyUriData",
                    "name": "vars",
                    "type": "tuple"
                }
            ],
            "name": "unlinkAnyUri",
            "outputs": [],
            "stateMutability": "nonpayable",
            "type": "function"
        },
        {
            "inputs": [
                {
                    "components": [
                        {
                            "internalType": "uint256",
                            "name": "fromCharacterId",
                            "type": "uint256"
                        },
                        {
                            "internalType": "uint256",
                            "name": "toCharacterId",
                            "type": "uint256"
                        },
                        {
                            "internalType": "bytes32",
                            "name": "linkType",
                            "type": "bytes32"
                        }
                    ],
                    "internalType": "struct DataTypes.unlinkCharacterData",
                    "name": "vars",
                    "type": "tuple"
                }
            ],
            "name": "unlinkCharacter",
            "outputs": [],
            "stateMutability": "nonpayable",
            "type": "function"
        },
        {
            "inputs": [
                {
                    "internalType": "uint256",
                    "name": "fromCharacterId",
                    "type": "uint256"
                },
                {
                    "components": [
                        {
                            "internalType": "uint256",
                            "name": "fromCharacterId",
                            "type": "uint256"
                        },
                        {
                            "internalType": "uint256",
                            "name": "toCharacterId",
                            "type": "uint256"
                        },
                        {
                            "internalType": "bytes32",
                            "name": "linkType",
                            "type": "bytes32"
                        }
                    ],
                    "internalType": "struct DataTypes.CharacterLinkStruct",
                    "name": "linkData",
                    "type": "tuple"
                },
                {
                    "internalType": "bytes32",
                    "name": "linkType",
                    "type": "bytes32"
                }
            ],
            "name": "unlinkCharacterLink",
            "outputs": [],
            "stateMutability": "nonpayable",
            "type": "function"
        },
        {
            "inputs": [
                {
                    "components": [
                        {
                            "internalType": "uint256",
                            "name": "fromCharacterId",
                            "type": "uint256"
                        },
                        {
                            "internalType": "address",
                            "name": "tokenAddress",
                            "type": "address"
                        },
                        {
                            "internalType": "uint256",
                            "name": "tokenId",
                            "type": "uint256"
                        },
                        {
                            "internalType": "bytes32",
                            "name": "linkType",
                            "type": "bytes32"
                        }
                    ],
                    "internalType": "struct DataTypes.unlinkERC721Data",
                    "name": "vars",
                    "type": "tuple"
                }
            ],
            "name": "unlinkERC721",
            "outputs": [],
            "stateMutability": "nonpayable",
            "type": "function"
        },
        {
            "inputs": [
                {
                    "components": [
                        {
                            "internalType": "uint256",
                            "name": "fromCharacterId",
                            "type": "uint256"
                        },
                        {
                            "internalType": "uint256",
                            "name": "toLinkListId",
                            "type": "uint256"
                        },
                        {
                            "internalType": "bytes32",
                            "name": "linkType",
                            "type": "bytes32"
                        }
                    ],
                    "internalType": "struct DataTypes.unlinkLinklistData",
                    "name": "vars",
                    "type": "tuple"
                }
            ],
            "name": "unlinkLinklist",
            "outputs": [],
            "stateMutability": "nonpayable",
            "type": "function"
        },
        {
            "inputs": [
                {
                    "components": [
                        {
                            "internalType": "uint256",
                            "name": "fromCharacterId",
                            "type": "uint256"
                        },
                        {
                            "internalType": "uint256",
                            "name": "toCharacterId",
                            "type": "uint256"
                        },
                        {
                            "internalType": "uint256",
                            "name": "toNoteId",
                            "type": "uint256"
                        },
                        {
                            "internalType": "bytes32",
                            "name": "linkType",
                            "type": "bytes32"
                        }
                    ],
                    "internalType": "struct DataTypes.unlinkNoteData",
                    "name": "vars",
                    "type": "tuple"
                }
            ],
            "name": "unlinkNote",
            "outputs": [],
            "stateMutability": "nonpayable",
            "type": "function"
        }
    ],
    "bytecode": "0x608060405234801561001057600080fd5b50615f2580620000216000396000f3fe608060405234801561001057600080fd5b50600436106104495760003560e01c80638734bbfc11610241578063cb8e757e1161013b578063e56f2fe4116100c3578063f2ad807511610087578063f2ad807514610a5a578063f316bacd14610a6d578063f6479d7714610a80578063fd2d866f14610a93578063fe9299fb14610aa657600080fd5b8063e56f2fe4146109d2578063e7a1c1c0146109e5578063e985e9c5146109f8578063ec81d19414610a34578063ef0828ab14610a4757600080fd5b8063dabb05311161010a578063dabb053114610966578063db491e8014610979578063db8c198d14610999578063dbb164d9146109ac578063dca27135146109bf57600080fd5b8063cb8e757e14610902578063cd69fe6114610915578063d23b320b14610928578063d70e10c61461093b57600080fd5b8063a22cb465116101c9578063b9d328451161018d578063b9d32845146108a5578063ba9a9c2e146108b8578063c053f6b8146108cb578063c2a6fe3b146108dc578063c87b56dd146108ef57600080fd5b8063a22cb46514610846578063a6e6178d14610859578063a7ccb4bf1461086c578063af90b1121461087f578063b88d4fde1461089257600080fd5b806395d89b411161021057806395d89b41146107e557806395d9fa7d146107ed5780639864c307146108005780639a4dec18146108135780639a50248d1461082657600080fd5b80638734bbfc146107995780638b4ca06a146107ac57806392f7070b146107bf57806393f057e5146107d257600080fd5b806331b9d08c116103525780634f6ccce7116102da57806369492c971161029e57806369492c971461073a57806370a082311461074d57806374f345cf146107605780637daca6d014610773578063867884e61461078657600080fd5b80634f6ccce7146106db5780635a936d10146106ee5780635fb8818314610701578063628b644a146107145780636352211e1461072757600080fd5b806340ad34d81161032157806340ad34d81461067c57806342842e0e1461068f57806342966c68146106a257806344b82a24146106b557806347f94de7146106c857600080fd5b806331b9d08c14610617578063327b2a031461064357806333f06ee614610656578063388f50831461066957600080fd5b80631316529d116103d55780632209d145116103a45780632209d1451461057f57806323b872dd146105b557806329c301c2146105c85780632abc6bf6146105db5780632f745c591461060457600080fd5b80631316529d14610540578063144a3e831461055157806318160ddd14610564578063188b04b31461056c57600080fd5b8063081812fc1161041c578063081812fc146104df57806308cb68ff146104f2578063095ea7b3146105075780630c4dd5f21461051a5780630ff982441461052d57600080fd5b806301ffc9a71461044e57806304f3bcec1461047657806305f63c8a146104a157806306fdde03146104ca575b600080fd5b61046161045c366004614844565b610acf565b60405190151581526020015b60405180910390f35b601754610489906001600160a01b031681565b6040516001600160a01b03909116815260200161046d565b6104896104af366004614861565b6000908152601660205260409020546001600160a01b031690565b6104d2610afa565b60405161046d91906148d2565b6104896104ed366004614861565b610b8c565b6105056105003660046148fd565b610c26565b005b610505610515366004614946565b610cbf565b6105056105283660046148fd565b610dd5565b61050561053b366004614972565b610e3a565b60045b60405190815260200161046d565b6104d261055f366004614861565b610f39565b600854610543565b61050561057a3660046149a0565b610f44565b61048961058d366004614946565b6001600160a01b03918216600090815260106020908152604080832093835292905220541690565b6105056105c33660046149d4565b611044565b6105436105d6366004614a27565b611075565b6105436105e9366004614a5b565b6001600160a01b03166000908152600c602052604090205490565b610543610612366004614946565b611121565b610489610625366004614a5b565b6001600160a01b039081166000908152601160205260409020541690565b610543610651366004614a8a565b6111b7565b610505610664366004614b20565b61137a565b6105056106773660046149a0565b6113ee565b61050561068a366004614b6b565b6114ab565b61050561069d3660046149d4565b611525565b6105056106b0366004614861565b611540565b6105436106c3366004614b87565b6115dd565b6105056106d6366004614b20565b611653565b6105436106e9366004614861565b6116b8565b6105056106fc366004614972565b61174b565b61050561070f3660046149a0565b6117db565b610505610722366004614bcb565b611898565b610489610735366004614861565b611924565b6105056107483660046149a0565b61199b565b61054361075b366004614a5b565b611a21565b61050561076e366004614c1d565b611aa8565b610461610781366004614c3f565b611b20565b610505610794366004614b6b565b611ca7565b6104616107a7366004614861565b611d17565b6105436107ba366004614861565b611d45565b6105436107cd366004614c95565b611db1565b6105056107e0366004614972565b611e45565b6104d2611eb4565b6105056107fb366004614ce6565b611ec3565b61050561080e3660046149a0565b611f49565b610543610821366004614a8a565b612006565b610839610834366004614d0b565b61210e565b60405161046d9190614d4c565b610505610854366004614ddd565b6122bd565b610505610867366004614b20565b6122c8565b61054361087a3660046149a0565b61238c565b61054361088d366004614b87565b612430565b6105056108a0366004614e76565b61246c565b6105056108b3366004614f36565b6124a4565b6105056108c6366004614f6a565b612576565b6013546001600160a01b0316610489565b6105056108ea366004614c1d565b6125e9565b6104d26108fd366004614861565b612659565b610505610910366004614f36565b6126fe565b610505610923366004614f36565b6127d8565b6105056109363660046149a0565b612936565b610543610949366004614c1d565b6000918252600d6020908152604080842092845291905290205490565b610839610974366004614861565b6129b0565b61098c610987366004614c1d565b612b37565b60405161046d9190614fa0565b6105056109a73660046149a0565b612c98565b6105056109ba366004614f6a565b612ce2565b6104d26109cd366004614861565b612d3a565b6105056109e0366004615036565b612dac565b6105056109f3366004614ce6565b612f09565b610461610a063660046150f0565b6001600160a01b03918216600090815260056020908152604080832093909416825291909152205460ff1690565b6104d2610a42366004614861565b612f1c565b610505610a553660046148fd565b612f3c565b610505610a68366004614861565b612fab565b610543610a7b36600461511e565b612ffa565b610505610a8e366004614972565b613156565b610505610aa13660046148fd565b613190565b610489610ab4366004614861565b6000908152600f60205260409020546001600160a01b031690565b60006001600160e01b0319821663780e9d6360e01b1480610af45750610af482613209565b92915050565b606060008054610b0990615179565b80601f0160208091040260200160405190810160405280929190818152602001828054610b3590615179565b8015610b825780601f10610b5757610100808354040283529160200191610b82565b820191906000526020600020905b815481529060010190602001808311610b6557829003601f168201915b5050505050905090565b6000818152600260205260408120546001600160a01b0316610c0a5760405162461bcd60e51b815260206004820152602c60248201527f4552433732313a20617070726f76656420717565727920666f72206e6f6e657860448201526b34b9ba32b73a103a37b5b2b760a11b60648201526084015b60405180910390fd5b506000908152600460205260409020546001600160a01b031690565b73__$69db18565ecbefece480e92cc5f8fb1274$__63dfc34f25610c4d6020840184614a5b565b610c5d6040850160208601614a5b565b610c6a60408601866151ae565b60116040518663ffffffff1660e01b8152600401610c8c95949392919061521d565b60006040518083038186803b158015610ca457600080fd5b505af4158015610cb8573d6000803e3d6000fd5b5050505050565b6000610cca82611924565b9050806001600160a01b0316836001600160a01b03161415610d385760405162461bcd60e51b815260206004820152602160248201527f4552433732313a20617070726f76616c20746f2063757272656e74206f776e656044820152603960f91b6064820152608401610c01565b336001600160a01b0382161480610d545750610d548133610a06565b610dc65760405162461bcd60e51b815260206004820152603860248201527f4552433732313a20617070726f76652063616c6c6572206973206e6f74206f7760448201527f6e6572206e6f7220617070726f76656420666f7220616c6c00000000000000006064820152608401610c01565b610dd08383613259565b505050565b610ddf81356132c7565b73__$69db18565ecbefece480e92cc5f8fb1274$__636252159e8235610e0b6040850160208601614a5b565b610e1860408601866151ae565b600f6040518663ffffffff1660e01b8152600401610c8c95949392919061525c565b610e448135613387565b6040516331a9108f60e11b81528135600482015273__$e2c9a8f399964af47bb173600dd9e5f662$__90633019fadd9083903090636352211e90602401602060405180830381865afa158015610e9e573d6000803e3d6000fd5b505050506040513d601f19601f82011682018060405250810190610ec29190615287565b60135485356000908152600d60209081526040808320818a0135845282529182902054825160e088901b6001600160e01b031916815286356004820152918601356024830152949091013560448201526001600160a01b0392831660648201529116608482015260a481019190915260c401610c8c565b6060610af482612659565b610f4e8135613387565b610f5b8160200135613429565b73__$e2c9a8f399964af47bb173600dd9e5f662$__637f9590a3823560208401356040850135610f8e60608701876151ae565b6040516331a9108f60e11b8152883560048201523090636352211e90602401602060405180830381865afa158015610fca573d6000803e3d6000fd5b505050506040513d601f19601f82011682018060405250810190610fee9190615287565b6013546020808b01356000908152600a9091526040908190206005015490516001600160e01b031960e08b901b168152610c8c989796959493926001600160a01b03908116921690600d906018906004016152a4565b61104e3382613482565b61106a5760405162461bcd60e51b8152600401610c0190615304565b610dd0838383613579565b60006110818235613387565b81356000908152600a60205260408120600301805482906110a19061536b565b91829055506040516342a34a5360e01b815290915073__$2873850e5b3f5697aafc2f5cd9f27cc884$__906342a34a53906110ea90869085906000908190600e90600401615490565b60006040518083038186803b15801561110257600080fd5b505af4158015611116573d6000803e3d6000fd5b509295945050505050565b600061112c83611a21565b821061118e5760405162461bcd60e51b815260206004820152602b60248201527f455243373231456e756d657261626c653a206f776e657220696e646578206f7560448201526a74206f6620626f756e647360a81b6064820152608401610c01565b506001600160a01b03919091166000908152600660209081526040808320938352929052205490565b60006111c38335613387565b6111dd6111d36020840184614a5b565b836020013561366e565b6013546545524337323160d01b906000906001600160a01b0316632ea24efc8261120a6020880188614a5b565b6040516001600160e01b031960e085901b16815260048101929092526001600160a01b03166024820152602087013560448201526064016020604051808303816000875af1158015611260573d6000803e3d6000fd5b505050506040513d601f19601f8201168201806040525081019061128491906154d5565b85356000908152600a602052604081206003018054929350909182906112a99061536b565b9182905550905073__$2873850e5b3f5697aafc2f5cd9f27cc884$__6342a34a53878386866112db60208c018c614a5b565b8b6020013560405160200161130e92919060609290921b6bffffffffffffffffffffffff19168252601482015260340190565b604051602081830303815290604052600e6040518763ffffffff1660e01b8152600401611340969594939291906154ee565b60006040518083038186803b15801561135857600080fd5b505af415801561136c573d6000803e3d6000fd5b509298975050505050505050565b611383836132c7565b601354604051633c17845760e11b81526001600160a01b039091169063782f08ae906113b790869086908690600401615539565b600060405180830381600087803b1580156113d157600080fd5b505af11580156113e5573d6000803e3d6000fd5b50505050505050565b6113f88135613387565b6040516331a9108f60e11b81528135600482015273__$e2c9a8f399964af47bb173600dd9e5f662$__90637d25a4579083903090636352211e90602401602060405180830381865afa158015611452573d6000803e3d6000fd5b505050506040513d601f19601f820116820180604052508101906114769190615287565b6013546040516001600160e01b031960e086901b168152610c8c9392916001600160a01b031690600d9060189060040161555c565b6114b58135613387565b60135460408051635cebf08d60e11b81528335600482015260208401356024820152908301356044820152606083013560648201526001600160a01b039091166084820152600d60a482015273__$e2c9a8f399964af47bb173600dd9e5f662$__9063b9d7e11a9060c401610c8c565b610dd08383836040518060200160405280600081525061246c565b6000818152600a6020526040808220905161155e91600101906155de565b60408051918290039091206000818152600b6020908152838220829055858252600a9052918220828155909250906115996001830182614713565b6115a7600283016000614713565b50600060038201556004810180546001600160a01b03199081169091556005909101805490911690556115d98261371e565b5050565b60006115e98335613387565b82356000908152600a60205260408120600301805467131a5b9adb1a5cdd60c21b9285929091829061161a9061536b565b919050819055905073__$2873850e5b3f5697aafc2f5cd9f27cc884$__6342a34a53878386868a60405160200161130e91815260200190565b61165c83613387565b6000838152600a6020526040902061167890600201838361474d565b50827f17d7c9f69270ba135480ef16837f38b9d37d3ab291cbd3ba03982290c663199783836040516116ab92919061567a565b60405180910390a2505050565b60006116c360085490565b82106117265760405162461bcd60e51b815260206004820152602c60248201527f455243373231456e756d657261626c653a20676c6f62616c20696e646578206f60448201526b7574206f6620626f756e647360a01b6064820152608401610c01565b600882815481106117395761173961568e565b90600052602060002001549050919050565b6117558135613387565b60135481356000818152600d60209081526040808320818701358085529083529281902054905163d862986560e01b8152600481019490945290850135602484015260448301919091526001600160a01b039092166064820152608481019190915273__$e2c9a8f399964af47bb173600dd9e5f662$__9063d86298659060a401610c8c565b6117e58135613387565b6040516331a9108f60e11b81528135600482015273__$e2c9a8f399964af47bb173600dd9e5f662$__9063fb0b104f9083903090636352211e90602401602060405180830381865afa15801561183f573d6000803e3d6000fd5b505050506040513d601f19601f820116820180604052508101906118639190615287565b6013546040516001600160e01b031960e086901b168152610c8c9392916001600160a01b031690600d906018906004016156a4565b6118a184613387565b6118ab848461377d565b6040516001626802bf60e01b0319815273__$2873850e5b3f5697aafc2f5cd9f27cc884$__9063ff97fd41906118ee908790879087908790600e90600401615736565b60006040518083038186803b15801561190657600080fd5b505af415801561191a573d6000803e3d6000fd5b5050505050505050565b6000818152600260205260408120546001600160a01b031680610af45760405162461bcd60e51b815260206004820152602960248201527f4552433732313a206f776e657220717565727920666f72206e6f6e657869737460448201526832b73a103a37b5b2b760b91b6064820152608401610c01565b6119b56119ab6020830183614a5b565b8260200135613832565b73__$69db18565ecbefece480e92cc5f8fb1274$__63384afeb36119dc6020840184614a5b565b60208401356119f16060860160408701614a5b565b6119fe60608701876151ae565b60106040518763ffffffff1660e01b8152600401610c8c96959493929190615756565b60006001600160a01b038216611a8c5760405162461bcd60e51b815260206004820152602a60248201527f4552433732313a2062616c616e636520717565727920666f7220746865207a65604482015269726f206164647265737360b01b6064820152608401610c01565b506001600160a01b031660009081526003602052604090205490565b611ab182613387565b611abb828261377d565b6000828152600e60209081526040808320848452825291829020600501805460ff60a81b1916600160a81b179055905182815283917f036469f3e73c83520cdefa197d7a9c854c2f8bc0164b82e9f2bd4aa7e150fd3091015b60405180910390a25050565b6017546000906001600160a01b0316611b3b57506001611ca0565b60175460405163599d32cd60e01b81526000916001600160a01b03169063599d32cd90611b6e908890889060040161567a565b602060405180830381865afa158015611b8b573d6000803e3d6000fd5b505050506040513d601f19601f82011682018060405250810190611baf9190615287565b601754604051630354faeb60e41b81529192506000916001600160a01b039091169063354faeb090611be7908990899060040161567a565b602060405180830381865afa158015611c04573d6000803e3d6000fd5b505050506040513d601f19601f82011682018060405250810190611c289190615287565b9050836001600160a01b0316826001600160a01b03161480611c5b5750836001600160a01b0316816001600160a01b0316145b15611c6b57600192505050611ca0565b6001600160a01b038216158015611c8957506001600160a01b038116155b15611c9957600192505050611ca0565b6000925050505b9392505050565b611cb18135613387565b60135481356000908152600d6020908152604080832060608601358452909152908190205490516317e9a8b160e31b815273__$e2c9a8f399964af47bb173600dd9e5f662$__9263bf4d458892610c8c9286926001600160a01b0316919060040161579d565b600080611d2383611924565b6001600160a01b03166000908152600c60205260409020549290921492915050565b60135460405162fba02760e01b8152600481018390526000916001600160a01b03169062fba02790602401602060405180830381865afa158015611d8d573d6000803e3d6000fd5b505050506040513d601f19601f82011682018060405250810190610af491906154d5565b6000611dbd8335613387565b82356000908152600a602052604081206003018054664164647265737360c81b926001600160a01b0386169290918290611df69061536b565b919050819055905073__$2873850e5b3f5697aafc2f5cd9f27cc884$__6342a34a53878386868a60405160200161130e919060609190911b6bffffffffffffffffffffffff1916815260140190565b611e4f8135613387565b60135481356000908152600d6020908152604080832081860135845290915290819020549051633d7f9b3d60e11b815273__$e2c9a8f399964af47bb173600dd9e5f662$__92637aff367a92610c8c9286926001600160a01b031691906004016157ef565b606060018054610b0990615179565b611ecc82613387565b6040516384b44a2f60e01b8152600481018390526001600160a01b0382166024820152600a604482015273__$d8529f0216812a2dec6b96adf1943c3537$__906384b44a2f9060640160006040518083038186803b158015611f2d57600080fd5b505af4158015611f41573d6000803e3d6000fd5b505050505050565b611f538135613387565b6040516331a9108f60e11b81528135600482015273__$e2c9a8f399964af47bb173600dd9e5f662$__90632217ec209083903090636352211e90602401602060405180830381865afa158015611fad573d6000803e3d6000fd5b505050506040513d601f19601f82011682018060405250810190611fd19190615287565b6013546040516001600160e01b031960e086901b168152610c8c9392916001600160a01b031690600d90601890600401615837565b60006120128335613387565b601354604051635cb46be760e01b81526000600482018190528435602483015260208501356044830152634e6f746560e01b9290916001600160a01b0390911690635cb46be7906064016020604051808303816000875af115801561207b573d6000803e3d6000fd5b505050506040513d601f19601f8201168201806040525081019061209f91906154d5565b85356000908152600a602052604081206003018054929350909182906120c49061536b565b919050819055905073__$2873850e5b3f5697aafc2f5cd9f27cc884$__6342a34a53878386868a600001358b6020013560405160200161130e929190918252602082015260400190565b6121166147d1565b600083836040516121289291906158ab565b604080519182900382206000818152600b602090815283822054808352600a82529184902060c086019094528354855260018401805493965091949392908401919061217390615179565b80601f016020809104026020016040519081016040528092919081815260200182805461219f90615179565b80156121ec5780601f106121c1576101008083540402835291602001916121ec565b820191906000526020600020905b8154815290600101906020018083116121cf57829003601f168201915b5050505050815260200160028201805461220590615179565b80601f016020809104026020016040519081016040528092919081815260200182805461223190615179565b801561227e5780601f106122535761010080835404028352916020019161227e565b820191906000526020600020905b81548152906001019060200180831161226157829003601f168201915b50505091835250506003820154602082015260048201546001600160a01b03908116604083015260059092015490911660609091015295945050505050565b6115d93383836138ec565b6122d183613387565b6122df828261078186611924565b61231f5760405162461bcd60e51b815260206004820152601160248201527048616e646c654e6f74456c696769626c6560781b6044820152606401610c01565b60405163130f361d60e01b815273__$d8529f0216812a2dec6b96adf1943c3537$__9063130f361d9061236090869086908690600b90600a906004016158bb565b60006040518083038186803b15801561237857600080fd5b505af41580156113e5573d6000803e3d6000fd5b600061239d8235602084013561377d565b73__$2873850e5b3f5697aafc2f5cd9f27cc884$__635be69415833560208501356123ce6060870160408801614a5b565b6123db60608801886151ae565b6014546040516001600160e01b031960e089901b1681526124139695949392916001600160a01b031690600a90600e906004016158e9565b602060405180830381865af4158015611d8d573d6000803e3d6000fd5b600061243c8335613387565b82356000908152600a6020526040812060030180546650726f66696c6560c81b9285929091829061161a9061536b565b6124763383613482565b6124925760405162461bcd60e51b8152600401610c0190615304565b61249e848484846139bb565b50505050565b6124ae8135613387565b6124c08160200135826040013561377d565b6040516331a9108f60e11b81528135600482015273__$e2c9a8f399964af47bb173600dd9e5f662$__906316fba3cf9083903090636352211e90602401602060405180830381865afa15801561251a573d6000803e3d6000fd5b505050506040513d601f19601f8201168201806040525081019061253e9190615287565b6013546040516001600160e01b031960e086901b168152610c8c9392916001600160a01b031690600e90600d90601890600401615937565b61257f83613387565b60135482356000908152600d6020908152604080832081870135845290915290819020549051635ced65d160e01b815273__$e2c9a8f399964af47bb173600dd9e5f662$__92635ced65d192612360928892889288926001600160a01b03909216916004016159bf565b6125f282613387565b6125fc828261377d565b6000828152600e60209081526040808320848452825291829020600501805460ff60a01b1916600160a01b179055905182815283917f4f1db9708b537c1d26a7af4b235fd079bf2342d92a276e27eb6c8717e8bbcf939101611b14565b6000818152600a6020526040902060020180546060919061267990615179565b80601f01602080910402602001604051908101604052809291908181526020018280546126a590615179565b80156126f25780601f106126c7576101008083540402835291602001916126f2565b820191906000526020600020905b8154815290600101906020018083116126d557829003601f168201915b50505050509050919050565b6127088135613387565b61272561271b6040830160208401614a5b565b826040013561366e565b6040516331a9108f60e11b81528135600482015273__$e2c9a8f399964af47bb173600dd9e5f662$__906379eda9fc9083903090636352211e90602401602060405180830381865afa15801561277f573d6000803e3d6000fd5b505050506040513d601f19601f820116820180604052508101906127a39190615287565b6013546040516001600160e01b031960e086901b168152610c8c9392916001600160a01b031690600d90601890600401615a0c565b6127f56127e860208301836151ae565b6107816020850185614a5b565b6128355760405162461bcd60e51b815260206004820152601160248201527048616e646c654e6f74456c696769626c6560781b6044820152606401610c01565b601254612843906001615a72565b60125561285e6128566020830183614a5b565b6012546139ee565b601254604051632902741560e01b815273__$d8529f0216812a2dec6b96adf1943c3537$__916329027415916128a291859160019190600b90600a90600401615a8a565b60006040518083038186803b1580156128ba57600080fd5b505af41580156128ce573d6000803e3d6000fd5b50600c9250600091506128e690506020840184614a5b565b6001600160a01b0316815260208101919091526040016000205461293357601254600c60006129186020850185614a5b565b6001600160a01b031681526020810191909152604001600020555b50565b6129408135613387565b61294f8135602083013561377d565b73__$69db18565ecbefece480e92cc5f8fb1274$__6320828a02823560208401356129806060860160408701614a5b565b61298d60608701876151ae565b600e6040518763ffffffff1660e01b8152600401610c8c96959493929190615b6b565b6129b86147d1565b600a60008381526020019081526020016000206040518060c0016040529081600082015481526020016001820180546129f090615179565b80601f0160208091040260200160405190810160405280929190818152602001828054612a1c90615179565b8015612a695780601f10612a3e57610100808354040283529160200191612a69565b820191906000526020600020905b815481529060010190602001808311612a4c57829003601f168201915b50505050508152602001600282018054612a8290615179565b80601f0160208091040260200160405190810160405280929190818152602001828054612aae90615179565b8015612afb5780601f10612ad057610100808354040283529160200191612afb565b820191906000526020600020905b815481529060010190602001808311612ade57829003601f168201915b50505091835250506003820154602082015260048201546001600160a01b03908116604083015260059092015490911660609091015292915050565b60408051610100808201835260008083526020808401829052606084860181905284018290526080840182905260a0840182905260c0840182905260e08401829052868252600e81528482208683528152908490208451928301855280548352600181015491830191909152600281018054939492939192840191612bbb90615179565b80601f0160208091040260200160405190810160405280929190818152602001828054612be790615179565b8015612c345780601f10612c0957610100808354040283529160200191612c34565b820191906000526020600020905b815481529060010190602001808311612c1757829003601f168201915b505050918352505060038201546001600160a01b039081166020830152600483015481166040830152600590920154918216606082015260ff600160a01b8304811615156080830152600160a81b909204909116151560a090910152905092915050565b612ca28135613387565b612cb18135602083013561377d565b73__$69db18565ecbefece480e92cc5f8fb1274$__631f2ffb69823560208401356129806060860160408701614a5b565b612ceb83613387565b6013546040516282174160e71b815273__$e2c9a8f399964af47bb173600dd9e5f662$__9163410ba080916123609187918791339188916001600160a01b031690600d90601890600401615b99565b601354604051632b05429560e21b8152600481018390526060916001600160a01b03169063ac150a5490602401600060405180830381865afa158015612d84573d6000803e3d6000fd5b505050506040513d6000823e601f3d908101601f19168201604052610af49190810190615bf6565b601454600160a81b900460ff16612dd057601454600160a01b900460ff1615612dd4565b303b155b612e375760405162461bcd60e51b815260206004820152602e60248201527f496e697469616c697a61626c653a20636f6e747261637420697320616c72656160448201526d191e481a5b9a5d1a585b1a5e995960921b6064820152608401610c01565b601454600160a81b900460ff16158015612e61576014805461ffff60a01b191661010160a01b1790555b612e6d89898989613b3c565b601380546001600160a01b03199081166001600160a01b0388811691909117909255601480548216878416179055601580548216868416179055601780549091169184169190911790556040514281527f400175a56dd3710794078f7b9dbe8296ac94c5a248dfd51bb22ed4ab9eaa9fbf9060200160405180910390a18015612efe576014805460ff60a81b191690555b505050505050505050565b612f1282613b8d565b6115d98282613c0d565b6000818152600a6020526040902060010180546060919061267990615179565b612f468135613387565b60135481356000908152600d602090815260408083208186013584529091529081902054905163bf5c00c160e01b815273__$e2c9a8f399964af47bb173600dd9e5f662$__9263bf5c00c192610c8c9286926001600160a01b03169190600401615c63565b612fb481613387565b336000818152600c602052604080822080549085905590519092839285927fce95332e6082aebeb8058a7b56d1a109f67d6550552ed04d36aca4a6acd4d7de9190a45050565b60006130068435613387565b601354604051633610bf0960e11b815265416e7955726960d01b916000916001600160a01b0390911690636c217e129061304890849089908990600401615539565b6020604051808303816000875af1158015613067573d6000803e3d6000fd5b505050506040513d601f19601f8201168201806040525081019061308b91906154d5565b86356000908152600a602052604081206003018054929350909182906130b09061536b565b919050819055905073__$2873850e5b3f5697aafc2f5cd9f27cc884$__6342a34a53888386868b8b6040516020016130e99291906158ab565b604051602081830303815290604052600e6040518763ffffffff1660e01b815260040161311b969594939291906154ee565b60006040518083038186803b15801561313357600080fd5b505af4158015613147573d6000803e3d6000fd5b50929998505050505050505050565b612933813561316b6040840160208501614a5b565b836040013560405180604001604052806002815260200161060f60f31b815250613c71565b61319a8135613387565b73__$d8529f0216812a2dec6b96adf1943c3537$__631dc8313382356131c66040850160208601614a5b565b6131d360408601866151ae565b86356000908152600a60205260409081902090516001600160e01b031960e088901b168152610c8c95949392919060040161525c565b60006001600160e01b031982166380ac58cd60e01b148061323a57506001600160e01b03198216635b5e139f60e01b145b80610af457506301ffc9a760e01b6001600160e01b0319831614610af4565b600081815260046020526040902080546001600160a01b0319166001600160a01b038416908117909155819061328e82611924565b6001600160a01b03167f8c5be1e5ebec7d5bd14f71427d1e84f3dd0314c0f7b2291e5b200ac8c7c3b92560405160405180910390a45050565b6013546040516331a9108f60e11b8152600481018390526001600160a01b0390911690636352211e90602401602060405180830381865afa158015613310573d6000803e3d6000fd5b505050506040513d601f19601f820116820180604052508101906133349190615287565b6001600160a01b0316336001600160a01b0316146129335760405162461bcd60e51b815260206004820152601060248201526f2737ba2634b735a634b9ba27bbb732b960811b6044820152606401610c01565b600061339282611924565b9050336001600160a01b03821614806133c157506000828152601660205260409020546001600160a01b031633145b806133e95750326001600160a01b0382161480156133e957506015546001600160a01b031633145b6115d95760405162461bcd60e51b81526020600482015260116024820152702737ba21b430b930b1ba32b927bbb732b960791b6044820152606401610c01565b6000818152600260205260409020546001600160a01b03166129335760405162461bcd60e51b81526020600482015260126024820152714368617261637465724e6f7445786973747360701b6044820152606401610c01565b6000818152600260205260408120546001600160a01b03166134fb5760405162461bcd60e51b815260206004820152602c60248201527f4552433732313a206f70657261746f7220717565727920666f72206e6f6e657860448201526b34b9ba32b73a103a37b5b2b760a11b6064820152608401610c01565b600061350683611924565b9050806001600160a01b0316846001600160a01b031614806135415750836001600160a01b031661353684610b8c565b6001600160a01b0316145b8061357157506001600160a01b0380821660009081526005602090815260408083209388168352929052205460ff165b949350505050565b600081815260186020526040812061359090613efa565b905060005b8151811015613662576000838152600d60205260408120835182908590859081106135c2576135c261568e565b60209081029190910181015182528101919091526040908101600020546013549151632142170760e11b81526001600160a01b0389811660048301528881166024830152604482018390529193509116906342842e0e90606401600060405180830381600087803b15801561363657600080fd5b505af115801561364a573d6000803e3d6000fd5b5050505050808061365a9061536b565b915050613595565b5061249e848484613f05565b6040516331a9108f60e11b8152600481018290526001600160a01b03831690636352211e90602401602060405180830381865afa1580156136b3573d6000803e3d6000fd5b505050506040513d601f19601f820116820180604052508101906136d79190615287565b6001600160a01b03166115d95760405162461bcd60e51b815260206004820152600f60248201526e5245433732314e6f7445786973747360881b6044820152606401610c01565b6137283382613482565b6137745760405162461bcd60e51b815260206004820152601b60248201527f4e4654426173653a204e6f744f776e65724f72417070726f76656400000000006044820152606401610c01565b612933816140ac565b6000828152600e60209081526040808320848452909152902060050154600160a01b900460ff16156137e15760405162461bcd60e51b815260206004820152600d60248201526c139bdd19525cd1195b195d1959609a1b6044820152606401610c01565b6000828152600a60205260409020600301548111156115d95760405162461bcd60e51b815260206004820152600d60248201526c4e6f74654e6f7445786973747360981b6044820152606401610c01565b6040516331a9108f60e11b8152600481018290526001600160a01b03831690636352211e90602401602060405180830381865afa158015613877573d6000803e3d6000fd5b505050506040513d601f19601f8201168201806040525081019061389b9190615287565b6001600160a01b0316336001600160a01b0316146115d95760405162461bcd60e51b815260206004820152600e60248201526d2737ba22a9219b9918a7bbb732b960911b6044820152606401610c01565b816001600160a01b0316836001600160a01b0316141561394e5760405162461bcd60e51b815260206004820152601960248201527f4552433732313a20617070726f766520746f2063616c6c6572000000000000006044820152606401610c01565b6001600160a01b03838116600081815260056020908152604080832094871680845294825291829020805460ff191686151590811790915591519182527f17307eab39ab6107e8899845ad3d59bd9653f200f220920489ca2b5937696c31910160405180910390a3505050565b6139c6848484613579565b6139d284848484614153565b61249e5760405162461bcd60e51b8152600401610c0190615cbb565b6001600160a01b038216613a445760405162461bcd60e51b815260206004820181905260248201527f4552433732313a206d696e7420746f20746865207a65726f20616464726573736044820152606401610c01565b6000818152600260205260409020546001600160a01b031615613aa95760405162461bcd60e51b815260206004820152601c60248201527f4552433732313a20746f6b656e20616c7265616479206d696e746564000000006044820152606401610c01565b613ab560008383614251565b6001600160a01b0382166000908152600360205260408120805460019290613ade908490615a72565b909155505060008181526002602052604080822080546001600160a01b0319166001600160a01b03861690811790915590518392907fddf252ad1be2c89b69c2b068fc378daa952ba7f163c4a11628f55a4df523b3ef908290a45050565b613b48848484846142bc565b7f414cd0b34676984f09a5f76ce9718d4062e50283abe0e7e274a9a5b4e0c99c308484848442604051613b7f959493929190615d0d565b60405180910390a150505050565b6000613b9882611924565b9050336001600160a01b03821614806133e95750326001600160a01b0382161480156133e957506015546001600160a01b031633146115d95760405162461bcd60e51b81526020600482015260116024820152702737ba21b430b930b1ba32b927bbb732b960791b6044820152606401610c01565b60008281526016602090815260409182902080546001600160a01b0319166001600160a01b038516908117909155915142815284917f691b92a93c526c4f5a357e56a33c33f6250f94e19e6c49be805800615c414931910160405180910390a35050565b613c7a84613387565b6001600160a01b0383166000908152600c602052604090205415613cf65760405162461bcd60e51b815260206004820152602d60248201527f546172676574206164647265737320616c726561647920686173207072696d6160448201526c393c9031b430b930b1ba32b91760991b6064820152608401610c01565b6000601260008154613d079061536b565b91829055509050613d1884826139ee565b73__$d8529f0216812a2dec6b96adf1943c3537$__63290274156040518060a00160405280876001600160a01b03168152602001613d60886001600160a01b031660146142d5565b815260200160405180602001604052806000815250815260200160006001600160a01b0316815260200160405180602001604052806000815250815250600084600b600a6040518663ffffffff1660e01b8152600401613dc4959493929190615d47565b60006040518083038186803b158015613ddc57600080fd5b505af4158015613df0573d6000803e3d6000fd5b505050506001600160a01b0384166000908152600c602052604090819020829055516331a9108f60e11b81526004810186905273__$e2c9a8f399964af47bb173600dd9e5f662$__90637f9590a39087908490879087903090636352211e90602401602060405180830381865afa158015613e6f573d6000803e3d6000fd5b505050506040513d601f19601f82011682018060405250810190613e939190615287565b6013546040516001600160e01b031960e089901b168152613ece9695949392916001600160a01b031690600090600d90601890600401615dd4565b60006040518083038186803b158015613ee657600080fd5b505af4158015612efe573d6000803e3d6000fd5b6060610af482614470565b826001600160a01b0316613f1882611924565b6001600160a01b031614613f7c5760405162461bcd60e51b815260206004820152602560248201527f4552433732313a207472616e736665722066726f6d20696e636f72726563742060448201526437bbb732b960d91b6064820152608401610c01565b6001600160a01b038216613fde5760405162461bcd60e51b8152602060048201526024808201527f4552433732313a207472616e7366657220746f20746865207a65726f206164646044820152637265737360e01b6064820152608401610c01565b613fe9838383614251565b613ff4600082613259565b6001600160a01b038316600090815260036020526040812080546001929061401d908490615e32565b90915550506001600160a01b038216600090815260036020526040812080546001929061404b908490615a72565b909155505060008181526002602052604080822080546001600160a01b0319166001600160a01b0386811691821790925591518493918716917fddf252ad1be2c89b69c2b068fc378daa952ba7f163c4a11628f55a4df523b3ef91a4505050565b60006140b782611924565b90506140c581600084614251565b6140d0600083613259565b6001600160a01b03811660009081526003602052604081208054600192906140f9908490615e32565b909155505060008281526002602052604080822080546001600160a01b0319169055518391906001600160a01b038416907fddf252ad1be2c89b69c2b068fc378daa952ba7f163c4a11628f55a4df523b3ef908390a45050565b60006001600160a01b0384163b1561424657604051630a85bd0160e11b81526001600160a01b0385169063150b7a0290614197903390899088908890600401615e49565b6020604051808303816000875af19250505080156141d2575060408051601f3d908101601f191682019092526141cf91810190615e86565b60015b61422c573d808015614200576040519150601f19603f3d011682016040523d82523d6000602084013e614205565b606091505b5080516142245760405162461bcd60e51b8152600401610c0190615cbb565b805181602001fd5b6001600160e01b031916630a85bd0160e11b149050613571565b506001949350505050565b6000818152601660205260409020546001600160a01b03161561427957614279816000613c0d565b6001600160a01b0383166000908152600c6020526040902054156142b1576001600160a01b0383166000908152600c60205260408120555b610dd08383836144cb565b6142c86000858561474d565b50610cb86001838361474d565b606060006142e4836002615ea3565b6142ef906002615a72565b6001600160401b0381111561430657614306614e09565b6040519080825280601f01601f191660200182016040528015614330576020820181803683370190505b509050600360fc1b8160008151811061434b5761434b61568e565b60200101906001600160f81b031916908160001a905350600f60fb1b8160018151811061437a5761437a61568e565b60200101906001600160f81b031916908160001a905350600061439e846002615ea3565b6143a9906001615a72565b90505b6001811115614421576f181899199a1a9b1b9c1cb0b131b232b360811b85600f16601081106143dd576143dd61568e565b1a60f81b8282815181106143f3576143f361568e565b60200101906001600160f81b031916908160001a90535060049490941c9361441a81615ec2565b90506143ac565b508315611ca05760405162461bcd60e51b815260206004820181905260248201527f537472696e67733a20686578206c656e67746820696e73756666696369656e746044820152606401610c01565b6060816000018054806020026020016040519081016040528092919081815260200182805480156126f257602002820191906000526020600020905b8154815260200190600101908083116144ac5750505050509050919050565b6001600160a01b0383166145265761452181600880546000838152600960205260408120829055600182018355919091527ff3f7a9fe364faab93b216da50a3214154f22a0a2b415b23a84c8169e8b636ee30155565b614549565b816001600160a01b0316836001600160a01b031614614549576145498382614583565b6001600160a01b03821661456057610dd081614620565b826001600160a01b0316826001600160a01b031614610dd057610dd082826146cf565b6000600161459084611a21565b61459a9190615e32565b6000838152600760205260409020549091508082146145ed576001600160a01b03841660009081526006602090815260408083208584528252808320548484528184208190558352600790915290208190555b5060009182526007602090815260408084208490556001600160a01b039094168352600681528383209183525290812055565b60085460009061463290600190615e32565b6000838152600960205260408120546008805493945090928490811061465a5761465a61568e565b90600052602060002001549050806008838154811061467b5761467b61568e565b60009182526020808320909101929092558281526009909152604080822084905585825281205560088054806146b3576146b3615ed9565b6001900381819060005260206000200160009055905550505050565b60006146da83611a21565b6001600160a01b039093166000908152600660209081526040808320868452825280832085905593825260079052919091209190915550565b50805461471f90615179565b6000825580601f1061472f575050565b601f0160209004906000526020600020908101906129339190614819565b82805461475990615179565b90600052602060002090601f01602090048101928261477b57600085556147c1565b82601f106147945782800160ff198235161785556147c1565b828001600101855582156147c1579182015b828111156147c15782358255916020019190600101906147a6565b506147cd929150614819565b5090565b6040518060c001604052806000815260200160608152602001606081526020016000815260200160006001600160a01b0316815260200160006001600160a01b031681525090565b5b808211156147cd576000815560010161481a565b6001600160e01b03198116811461293357600080fd5b60006020828403121561485657600080fd5b8135611ca08161482e565b60006020828403121561487357600080fd5b5035919050565b60005b8381101561489557818101518382015260200161487d565b8381111561249e5750506000910152565b600081518084526148be81602086016020860161487a565b601f01601f19169290920160200192915050565b602081526000611ca060208301846148a6565b6000606082840312156148f757600080fd5b50919050565b60006020828403121561490f57600080fd5b81356001600160401b0381111561492557600080fd5b613571848285016148e5565b6001600160a01b038116811461293357600080fd5b6000806040838503121561495957600080fd5b823561496481614931565b946020939093013593505050565b60006060828403121561498457600080fd5b611ca083836148e5565b6000608082840312156148f757600080fd5b6000602082840312156149b257600080fd5b81356001600160401b038111156149c857600080fd5b6135718482850161498e565b6000806000606084860312156149e957600080fd5b83356149f481614931565b92506020840135614a0481614931565b929592945050506040919091013590565b600060e082840312156148f757600080fd5b600060208284031215614a3957600080fd5b81356001600160401b03811115614a4f57600080fd5b61357184828501614a15565b600060208284031215614a6d57600080fd5b8135611ca081614931565b6000604082840312156148f757600080fd5b60008060608385031215614a9d57600080fd5b82356001600160401b03811115614ab357600080fd5b614abf85828601614a15565b925050614acf8460208501614a78565b90509250929050565b60008083601f840112614aea57600080fd5b5081356001600160401b03811115614b0157600080fd5b602083019150836020828501011115614b1957600080fd5b9250929050565b600080600060408486031215614b3557600080fd5b8335925060208401356001600160401b03811115614b5257600080fd5b614b5e86828701614ad8565b9497909650939450505050565b600060808284031215614b7d57600080fd5b611ca0838361498e565b60008060408385031215614b9a57600080fd5b82356001600160401b03811115614bb057600080fd5b614bbc85828601614a15565b95602094909401359450505050565b60008060008060608587031215614be157600080fd5b843593506020850135925060408501356001600160401b03811115614c0557600080fd5b614c1187828801614ad8565b95989497509550505050565b60008060408385031215614c3057600080fd5b50508035926020909101359150565b600080600060408486031215614c5457600080fd5b83356001600160401b03811115614c6a57600080fd5b614c7686828701614ad8565b9094509250506020840135614c8a81614931565b809150509250925092565b60008060408385031215614ca857600080fd5b82356001600160401b03811115614cbe57600080fd5b614cca85828601614a15565b9250506020830135614cdb81614931565b809150509250929050565b60008060408385031215614cf957600080fd5b823591506020830135614cdb81614931565b60008060208385031215614d1e57600080fd5b82356001600160401b03811115614d3457600080fd5b614d4085828601614ad8565b90969095509350505050565b60208152815160208201526000602083015160c06040840152614d7260e08401826148a6565b90506040840151601f19848303016060850152614d8f82826148a6565b91505060608401516080840152608084015160018060a01b0380821660a08601528060a08701511660c086015250508091505092915050565b80358015158114614dd857600080fd5b919050565b60008060408385031215614df057600080fd5b8235614dfb81614931565b9150614acf60208401614dc8565b634e487b7160e01b600052604160045260246000fd5b604051601f8201601f191681016001600160401b0381118282101715614e4757614e47614e09565b604052919050565b60006001600160401b03821115614e6857614e68614e09565b50601f01601f191660200190565b60008060008060808587031215614e8c57600080fd5b8435614e9781614931565b93506020850135614ea781614931565b92506040850135915060608501356001600160401b03811115614ec957600080fd5b8501601f81018713614eda57600080fd5b8035614eed614ee882614e4f565b614e1f565b818152886020838501011115614f0257600080fd5b8160208401602083013760006020838301015280935050505092959194509250565b600060a082840312156148f757600080fd5b600060208284031215614f4857600080fd5b81356001600160401b03811115614f5e57600080fd5b61357184828501614f24565b600080600060a08486031215614f7f57600080fd5b83359250614f9085602086016148e5565b9150608084013590509250925092565b60208152815160208201526020820151604082015260006040830151610100806060850152614fd36101208501836148a6565b9150606085015160018060a01b0380821660808701528060808801511660a0870152505060a085015161501160c08601826001600160a01b03169052565b5060c085015180151560e08601525060e0850151801515858301525090949350505050565b60008060008060008060008060c0898b03121561505257600080fd5b88356001600160401b038082111561506957600080fd5b6150758c838d01614ad8565b909a50985060208b013591508082111561508e57600080fd5b5061509b8b828c01614ad8565b90975095505060408901356150af81614931565b935060608901356150bf81614931565b925060808901356150cf81614931565b915060a08901356150df81614931565b809150509295985092959890939650565b6000806040838503121561510357600080fd5b823561510e81614931565b91506020830135614cdb81614931565b60008060006040848603121561513357600080fd5b83356001600160401b038082111561514a57600080fd5b61515687838801614a15565b9450602086013591508082111561516c57600080fd5b50614b5e86828701614ad8565b600181811c9082168061518d57607f821691505b602082108114156148f757634e487b7160e01b600052602260045260246000fd5b6000808335601e198436030181126151c557600080fd5b8301803591506001600160401b038211156151df57600080fd5b602001915036819003821315614b1957600080fd5b81835281816020850137506000828201602090810191909152601f909101601f19169091010190565b6001600160a01b0386811682528516602082015260806040820181905260009061524a90830185876151f4565b90508260608301529695505050505050565b8581526001600160a01b038516602082015260806040820181905260009061524a90830185876151f4565b60006020828403121561529957600080fd5b8151611ca081614931565b60006101208c83528b60208401528a60408401528060608401526152cb8184018a8c6151f4565b6001600160a01b03988916608085015296881660a084015250509290941660c083015260e0820152610100019190915295945050505050565b60208082526031908201527f4552433732313a207472616e736665722063616c6c6572206973206e6f74206f6040820152701ddb995c881b9bdc88185c1c1c9bdd9959607a1b606082015260800190565b634e487b7160e01b600052601160045260246000fd5b600060001982141561537f5761537f615355565b5060010190565b6000808335601e1984360301811261539d57600080fd5b83016020810192503590506001600160401b038111156153bc57600080fd5b803603831315614b1957600080fd5b8035825260006153de6020830183615386565b60e060208601526153f360e0860182846151f4565b915050604083013561540481614931565b6001600160a01b0381811660408701526154216060860186615386565b925086840360608801526154368484836151f4565b9350506080850135915061544982614931565b16608085015261545c60a0840184615386565b85830360a087015261546f8382846151f4565b9250505061547f60c08401614dc8565b151560c08501528091505092915050565b60c0815260006154a360c08301886153cb565b602083810197909752604083019590955250606081019290925281830360808301526000835260a09091015201919050565b6000602082840312156154e757600080fd5b5051919050565b60c08152600061550160c08301896153cb565b876020840152866040840152856060840152828103608084015261552581866148a6565b9150508260a0830152979650505050505050565b8381526040602082015260006155536040830184866151f4565b95945050505050565b60a08152853560a08201526000602087013561557781614931565b6001600160a01b0381811660c0850152604089013560e085015261559e60608a018a615386565b925060806101008601526155b7610120860184836151f4565b98821660208601525095909516604083015250606081019290925260809091015250919050565b600080835481600182811c9150808316806155fa57607f831692505b602080841082141561561a57634e487b7160e01b86526022600452602486fd5b81801561562e576001811461563f5761566c565b60ff1986168952848901965061566c565b60008a81526020902060005b868110156156645781548b82015290850190830161564b565b505084890196505b509498975050505050505050565b6020815260006135716020830184866151f4565b634e487b7160e01b600052603260045260246000fd5b60a08152853560a082015260006156be6020880188615386565b608060c08501526156d4610120850182846151f4565b915050604088013560e08401526156ee6060890189615386565b848303609f19016101008601526157068382846151f4565b6001600160a01b03998a166020870152979098166040850152505050606081019290925260809091015292915050565b85815284602082015260806040820152600061524a6080830185876151f4565b6001600160a01b038781168252602082018790528516604082015260a06060820181905260009061578a90830185876151f4565b9050826080830152979650505050505050565b8335815260c0810160208501356157b381614931565b6001600160a01b039081166020840152604086810135908401526060958601359583019590955292909316608084015260a09092019190915290565b8335815260a08101602085013561580581614931565b6001600160a01b0390811660208401526040958601359583019590955292909316606084015260809092019190915290565b60a08152853560a0820152602086013560c0820152604086013560e082015260006158656060880188615386565b608061010085015261587c610120850182846151f4565b6001600160a01b0398891660208601529690971660408401525050606081019290925260809091015292915050565b8183823760009101908152919050565b8581526080602082015260006158d56080830186886151f4565b604083019490945250606001529392505050565b888152876020820152600060018060a01b03808916604084015260e0606084015261591860e08401888a6151f4565b951660808301525060a081019290925260c09091015295945050505050565b60c08152863560c0820152602087013560e08201526040870135610100820152606087013561012082015260006159716080890189615386565b60a0610140850152615988610160850182846151f4565b6001600160a01b03998a16602086015297909816604084015250506060810193909352608083019190915260a09091015292915050565b85815260e081016159e760208301878035825260208082013590830152604090810135910152565b60808201949094526001600160a01b039290921660a083015260c09091015292915050565b60a08152853560a082015260006020870135615a2781614931565b6001600160a01b0381811660c0850152604089013560e08501526060890135610100850152615a5960808a018a615386565b925060a06101208601526155b7610140860184836151f4565b60008219821115615a8557615a85615355565b500190565b60a0815260008635615a9b81614931565b6001600160a01b0381811660a0850152615ab860208a018a615386565b925060a060c0860152615ad0610140860184836151f4565b925050615ae060408a018a615386565b609f19808786030160e0880152615af88583856151f4565b945060608c01359250615b0a83614931565b838316610100880152615b2060808d018d615386565b9450925080878603016101208801525050615b3c8383836151f4565b9350505050615b4f602083018715159052565b8460408301528360608301528260808301529695505050505050565b86815285602082015260018060a01b038516604082015260a06060820152600061578a60a0830185876151f4565b8781526101208101615bc260208301898035825260208082013590830152604090810135910152565b6001600160a01b03968716608083015260a08201959095529290941660c083015260e0820152610100019190915292915050565b600060208284031215615c0857600080fd5b81516001600160401b03811115615c1e57600080fd5b8201601f81018413615c2f57600080fd5b8051615c3d614ee882614e4f565b818152856020838501011115615c5257600080fd5b61555382602083016020860161487a565b60608152833560608201526000615c7d6020860186615386565b60606080850152615c9260c0850182846151f4565b60409788013560a08601526001600160a01b039690961660208501525050509092019190915290565b60208082526032908201527f4552433732313a207472616e7366657220746f206e6f6e20455243373231526560408201527131b2b4bb32b91034b6b83632b6b2b73a32b960711b606082015260800190565b606081526000615d216060830187896151f4565b8281036020840152615d348186886151f4565b9150508260408301529695505050505050565b60a08152600060018060a01b038088511660a0840152602088015160a060c0850152615d776101408501826148a6565b90506040890151609f19808684030160e0870152615d9583836148a6565b92508360608c01511661010087015260808b0151935080868403016101208701525050615dc281836148a6565b92505050615b4f602083018715159052565b60006101208b83528a6020840152896040840152806060840152615dfa8184018a6148a6565b6001600160a01b03988916608085015296881660a084015250509290941660c083015260e08201526101000191909152949350505050565b600082821015615e4457615e44615355565b500390565b6001600160a01b0385811682528416602082015260408101839052608060608201819052600090615e7c908301846148a6565b9695505050505050565b600060208284031215615e9857600080fd5b8151611ca08161482e565b6000816000190483118215151615615ebd57615ebd615355565b500290565b600081615ed157615ed1615355565b506000190190565b634e487b7160e01b600052603160045260246000fdfea2646970667358221220ad2097db8bdf390dcf29f349f6cf8eb71c8cd2bef0f9c40836cf1ee0360a25d064736f6c634300080a0033",
    "linkReferences": {
        "contracts/libraries/CharacterLogic.sol": {
            "CharacterLogic": [
                {
                    "length": 20,
                    "start": 7961
                },
                {
                    "length": 20,
                    "start": 9039
                },
                {
                    "length": 20,
                    "start": 10385
                },
                {
                    "length": 20,
                    "start": 12733
                },
                {
                    "length": 20,
                    "start": 15675
                }
            ]
        },
        "contracts/libraries/LinkLogic.sol": {
            "LinkLogic": [
                {
                    "length": 20,
                    "start": 3707
                },
                {
                    "length": 20,
                    "start": 3966
                },
                {
                    "length": 20,
                    "start": 5167
                },
                {
                    "length": 20,
                    "start": 5412
                },
                {
                    "length": 20,
                    "start": 6106
                },
                {
                    "length": 20,
                    "start": 6172
                },
                {
                    "length": 20,
                    "start": 7429
                },
                {
                    "length": 20,
                    "start": 7842
                },
                {
                    "length": 20,
                    "start": 8074
                },
                {
                    "length": 20,
                    "start": 9463
                },
                {
                    "length": 20,
                    "start": 9682
                },
                {
                    "length": 20,
                    "start": 10076
                },
                {
                    "length": 20,
                    "start": 11549
                },
                {
                    "length": 20,
                    "start": 12185
                },
                {
                    "length": 20,
                    "start": 15942
                }
            ]
        },
        "contracts/libraries/LinkModuleLogic.sol": {
            "LinkModuleLogic": [
                {
                    "length": 20,
                    "start": 3145
                },
                {
                    "length": 20,
                    "start": 3586
                },
                {
                    "length": 20,
                    "start": 6616
                },
                {
                    "length": 20,
                    "start": 10610
                },
                {
                    "length": 20,
                    "start": 11476
                }
            ]
        },
        "contracts/libraries/PostLogic.sol": {
            "PostLogic": [
                {
                    "length": 20,
                    "start": 4313
                },
                {
                    "length": 20,
                    "start": 4819
                },
                {
                    "length": 20,
                    "start": 5701
                },
                {
                    "length": 20,
                    "start": 6366
                },
                {
                    "length": 20,
                    "start": 7713
                },
                {
                    "length": 20,
                    "start": 8431
                },
                {
                    "length": 20,
                    "start": 9152
                },
                {
                    "length": 20,
                    "start": 12507
                }
            ]
        }
    },
    "deployedLinkReferences": {
        "contracts/libraries/CharacterLogic.sol": {
            "CharacterLogic": [
                {
                    "length": 20,
                    "start": 7928
                },
                {
                    "length": 20,
                    "start": 9006
                },
                {
                    "length": 20,
                    "start": 10352
                },
                {
                    "length": 20,
                    "start": 12700
                },
                {
                    "length": 20,
                    "start": 15642
                }
            ]
        },
        "contracts/libraries/LinkLogic.sol": {
            "LinkLogic": [
                {
                    "length": 20,
                    "start": 3674
                },
                {
                    "length": 20,
                    "start": 3933
                },
                {
                    "length": 20,
                    "start": 5134
                },
                {
                    "length": 20,
                    "start": 5379
                },
                {
                    "length": 20,
                    "start": 6073
                },
                {
                    "length": 20,
                    "start": 6139
                },
                {
                    "length": 20,
                    "start": 7396
                },
                {
                    "length": 20,
                    "start": 7809
                },
                {
                    "length": 20,
                    "start": 8041
                },
                {
                    "length": 20,
                    "start": 9430
                },
                {
                    "length": 20,
                    "start": 9649
                },
                {
                    "length": 20,
                    "start": 10043
                },
                {
                    "length": 20,
                    "start": 11516
                },
                {
                    "length": 20,
                    "start": 12152
                },
                {
                    "length": 20,
                    "start": 15909
                }
            ]
        },
        "contracts/libraries/LinkModuleLogic.sol": {
            "LinkModuleLogic": [
                {
                    "length": 20,
                    "start": 3112
                },
                {
                    "length": 20,
                    "start": 3553
                },
                {
                    "length": 20,
                    "start": 6583
                },
                {
                    "length": 20,
                    "start": 10577
                },
                {
                    "length": 20,
                    "start": 11443
                }
            ]
        },
        "contracts/libraries/PostLogic.sol": {
            "PostLogic": [
                {
                    "length": 20,
                    "start": 4280
                },
                {
                    "length": 20,
                    "start": 4786
                },
                {
                    "length": 20,
                    "start": 5668
                },
                {
                    "length": 20,
                    "start": 6333
                },
                {
                    "length": 20,
                    "start": 7680
                },
                {
                    "length": 20,
                    "start": 8398
                },
                {
                    "length": 20,
                    "start": 9119
                },
                {
                    "length": 20,
                    "start": 12474
                }
            ]
        }
    }
}