{
    "_format": "hh-sol-artifact-1",
    "contractName": "Web3Entry",
    "sourceName": "contracts/Web3Entry.sol",
    "abi": [
        {
            "anonymous": false,
            "inputs": [
                {
                    "indexed": true,
                    "internalType": "address",
                    "name": "owner",
                    "type": "address"
                },
                {
                    "indexed": true,
                    "internalType": "address",
                    "name": "approved",
                    "type": "address"
                },
                {
                    "indexed": true,
                    "internalType": "uint256",
                    "name": "tokenId",
                    "type": "uint256"
                }
            ],
            "name": "Approval",
            "type": "event"
        },
        {
            "anonymous": false,
            "inputs": [
                {
                    "indexed": true,
                    "internalType": "address",
                    "name": "owner",
                    "type": "address"
                },
                {
                    "indexed": true,
                    "internalType": "address",
                    "name": "operator",
                    "type": "address"
                },
                {
                    "indexed": false,
                    "internalType": "bool",
                    "name": "approved",
                    "type": "bool"
                }
            ],
            "name": "ApprovalForAll",
            "type": "event"
        },
        {
            "anonymous": false,
            "inputs": [
                {
                    "indexed": true,
                    "internalType": "address",
                    "name": "from",
                    "type": "address"
                },
                {
                    "indexed": true,
                    "internalType": "address",
                    "name": "to",
                    "type": "address"
                },
                {
                    "indexed": true,
                    "internalType": "uint256",
                    "name": "tokenId",
                    "type": "uint256"
                }
            ],
            "name": "Transfer",
            "type": "event"
        },
        {
            "inputs": [
                {
                    "internalType": "address",
                    "name": "to",
                    "type": "address"
                },
                {
                    "internalType": "uint256",
                    "name": "tokenId",
                    "type": "uint256"
                }
            ],
            "name": "approve",
            "outputs": [],
            "stateMutability": "nonpayable",
            "type": "function"
        },
        {
            "inputs": [
                {
                    "internalType": "address",
                    "name": "owner",
                    "type": "address"
                }
            ],
            "name": "balanceOf",
            "outputs": [
                {
                    "internalType": "uint256",
                    "name": "",
                    "type": "uint256"
                }
            ],
            "stateMutability": "view",
            "type": "function"
        },
        {
            "inputs": [
                {
                    "internalType": "uint256",
                    "name": "tokenId",
                    "type": "uint256"
                }
            ],
            "name": "burn",
            "outputs": [],
            "stateMutability": "nonpayable",
            "type": "function"
        },
        {
            "inputs": [
                {
                    "internalType": "string",
                    "name": "handle",
                    "type": "string"
                },
                {
                    "internalType": "address",
                    "name": "account",
                    "type": "address"
                }
            ],
            "name": "canCreate",
            "outputs": [
                {
                    "internalType": "bool",
                    "name": "",
                    "type": "bool"
                }
            ],
            "stateMutability": "view",
            "type": "function"
        },
        {
            "inputs": [
                {
                    "components": [
                        {
                            "internalType": "address",
                            "name": "to",
                            "type": "address"
                        },
                        {
                            "internalType": "string",
                            "name": "handle",
                            "type": "string"
                        },
                        {
                            "internalType": "string",
                            "name": "uri",
                            "type": "string"
                        },
                        {
                            "internalType": "address",
                            "name": "linkModule",
                            "type": "address"
                        },
                        {
                            "internalType": "bytes",
                            "name": "linkModuleInitData",
                            "type": "bytes"
                        }
                    ],
                    "internalType": "struct DataTypes.CreateCharacterData",
                    "name": "vars",
                    "type": "tuple"
                }
            ],
            "name": "createCharacter",
            "outputs": [],
            "stateMutability": "nonpayable",
            "type": "function"
        },
        {
            "inputs": [
                {
                    "components": [
                        {
                            "internalType": "address",
                            "name": "to",
                            "type": "address"
                        },
                        {
                            "internalType": "string",
                            "name": "handle",
                            "type": "string"
                        },
                        {
                            "internalType": "string",
                            "name": "uri",
                            "type": "string"
                        },
                        {
                            "internalType": "address",
                            "name": "linkModule",
                            "type": "address"
                        },
                        {
                            "internalType": "bytes",
                            "name": "linkModuleInitData",
                            "type": "bytes"
                        }
                    ],
                    "internalType": "struct DataTypes.CreateCharacterData",
                    "name": "vars",
                    "type": "tuple"
                }
            ],
            "name": "createProfile",
            "outputs": [],
            "stateMutability": "nonpayable",
            "type": "function"
        },
        {
            "inputs": [
                {
                    "components": [
                        {
                            "internalType": "uint256",
                            "name": "fromCharacterId",
                            "type": "uint256"
                        },
                        {
                            "internalType": "address",
                            "name": "to",
                            "type": "address"
                        },
                        {
                            "internalType": "bytes32",
                            "name": "linkType",
                            "type": "bytes32"
                        }
                    ],
                    "internalType": "struct DataTypes.createThenLinkCharacterData",
                    "name": "vars",
                    "type": "tuple"
                }
            ],
            "name": "createThenLinkCharacter",
            "outputs": [],
            "stateMutability": "nonpayable",
            "type": "function"
        },
        {
            "inputs": [
                {
                    "internalType": "uint256",
                    "name": "characterId",
                    "type": "uint256"
                },
                {
                    "internalType": "uint256",
                    "name": "noteId",
                    "type": "uint256"
                }
            ],
            "name": "deleteNote",
            "outputs": [],
            "stateMutability": "nonpayable",
            "type": "function"
        },
        {
            "inputs": [
                {
                    "internalType": "uint256",
                    "name": "tokenId",
                    "type": "uint256"
                }
            ],
            "name": "getApproved",
            "outputs": [
                {
                    "internalType": "address",
                    "name": "",
                    "type": "address"
                }
            ],
            "stateMutability": "view",
            "type": "function"
        },
        {
            "inputs": [
                {
                    "internalType": "uint256",
                    "name": "characterId",
                    "type": "uint256"
                }
            ],
            "name": "getCharacter",
            "outputs": [
                {
                    "components": [
                        {
                            "internalType": "uint256",
                            "name": "characterId",
                            "type": "uint256"
                        },
                        {
                            "internalType": "string",
                            "name": "handle",
                            "type": "string"
                        },
                        {
                            "internalType": "string",
                            "name": "uri",
                            "type": "string"
                        },
                        {
                            "internalType": "uint256",
                            "name": "noteCount",
                            "type": "uint256"
                        },
                        {
                            "internalType": "address",
                            "name": "socialToken",
                            "type": "address"
                        },
                        {
                            "internalType": "address",
                            "name": "linkModule",
                            "type": "address"
                        }
                    ],
                    "internalType": "struct DataTypes.Character",
                    "name": "",
                    "type": "tuple"
                }
            ],
            "stateMutability": "view",
            "type": "function"
        },
        {
            "inputs": [
                {
                    "internalType": "string",
                    "name": "handle",
                    "type": "string"
                }
            ],
            "name": "getCharacterByHandle",
            "outputs": [
                {
                    "components": [
                        {
                            "internalType": "uint256",
                            "name": "characterId",
                            "type": "uint256"
                        },
                        {
                            "internalType": "string",
                            "name": "handle",
                            "type": "string"
                        },
                        {
                            "internalType": "string",
                            "name": "uri",
                            "type": "string"
                        },
                        {
                            "internalType": "uint256",
                            "name": "noteCount",
                            "type": "uint256"
                        },
                        {
                            "internalType": "address",
                            "name": "socialToken",
                            "type": "address"
                        },
                        {
                            "internalType": "address",
                            "name": "linkModule",
                            "type": "address"
                        }
                    ],
                    "internalType": "struct DataTypes.Character",
                    "name": "",
                    "type": "tuple"
                }
            ],
            "stateMutability": "view",
            "type": "function"
        },
        {
            "inputs": [
                {
                    "internalType": "uint256",
                    "name": "characterId",
                    "type": "uint256"
                }
            ],
            "name": "getCharacterUri",
            "outputs": [
                {
                    "internalType": "string",
                    "name": "",
                    "type": "string"
                }
            ],
            "stateMutability": "view",
            "type": "function"
        },
        {
            "inputs": [
                {
                    "internalType": "uint256",
                    "name": "characterId",
                    "type": "uint256"
                }
            ],
            "name": "getHandle",
            "outputs": [
                {
                    "internalType": "string",
                    "name": "",
                    "type": "string"
                }
            ],
            "stateMutability": "view",
            "type": "function"
        },
        {
            "inputs": [
                {
                    "internalType": "address",
                    "name": "account",
                    "type": "address"
                }
            ],
            "name": "getLinkModule4Address",
            "outputs": [
                {
                    "internalType": "address",
                    "name": "",
                    "type": "address"
                }
            ],
            "stateMutability": "view",
            "type": "function"
        },
        {
            "inputs": [
                {
                    "internalType": "address",
                    "name": "tokenAddress",
                    "type": "address"
                },
                {
                    "internalType": "uint256",
                    "name": "tokenId",
                    "type": "uint256"
                }
            ],
            "name": "getLinkModule4ERC721",
            "outputs": [
                {
                    "internalType": "address",
                    "name": "",
                    "type": "address"
                }
            ],
            "stateMutability": "view",
            "type": "function"
        },
        {
            "inputs": [
                {
                    "internalType": "uint256",
                    "name": "tokenId",
                    "type": "uint256"
                }
            ],
            "name": "getLinkModule4Linklist",
            "outputs": [
                {
                    "internalType": "address",
                    "name": "",
                    "type": "address"
                }
            ],
            "stateMutability": "view",
            "type": "function"
        },
        {
            "inputs": [],
            "name": "getLinklistContract",
            "outputs": [
                {
                    "internalType": "address",
                    "name": "",
                    "type": "address"
                }
            ],
            "stateMutability": "view",
            "type": "function"
        },
        {
            "inputs": [
                {
                    "internalType": "uint256",
                    "name": "characterId",
                    "type": "uint256"
                },
                {
                    "internalType": "bytes32",
                    "name": "linkType",
                    "type": "bytes32"
                }
            ],
            "name": "getLinklistId",
            "outputs": [
                {
                    "internalType": "uint256",
                    "name": "",
                    "type": "uint256"
                }
            ],
            "stateMutability": "view",
            "type": "function"
        },
        {
            "inputs": [
                {
                    "internalType": "uint256",
                    "name": "linkListId",
                    "type": "uint256"
                }
            ],
            "name": "getLinklistType",
            "outputs": [
                {
                    "internalType": "bytes32",
                    "name": "",
                    "type": "bytes32"
                }
            ],
            "stateMutability": "view",
            "type": "function"
        },
        {
            "inputs": [
                {
                    "internalType": "uint256",
                    "name": "tokenId",
                    "type": "uint256"
                }
            ],
            "name": "getLinklistUri",
            "outputs": [
                {
                    "internalType": "string",
                    "name": "",
                    "type": "string"
                }
            ],
            "stateMutability": "view",
            "type": "function"
        },
        {
            "inputs": [
                {
                    "internalType": "uint256",
                    "name": "characterId",
                    "type": "uint256"
                },
                {
                    "internalType": "uint256",
                    "name": "noteId",
                    "type": "uint256"
                }
            ],
            "name": "getNote",
            "outputs": [
                {
                    "components": [
                        {
                            "internalType": "bytes32",
                            "name": "linkItemType",
                            "type": "bytes32"
                        },
                        {
                            "internalType": "bytes32",
                            "name": "linkKey",
                            "type": "bytes32"
                        },
                        {
                            "internalType": "string",
                            "name": "contentUri",
                            "type": "string"
                        },
                        {
                            "internalType": "address",
                            "name": "linkModule",
                            "type": "address"
                        },
                        {
                            "internalType": "address",
                            "name": "mintModule",
                            "type": "address"
                        },
                        {
                            "internalType": "address",
                            "name": "mintNFT",
                            "type": "address"
                        },
                        {
                            "internalType": "bool",
                            "name": "deleted",
                            "type": "bool"
                        },
                        {
                            "internalType": "bool",
                            "name": "locked",
                            "type": "bool"
                        }
                    ],
                    "internalType": "struct DataTypes.Note",
                    "name": "",
                    "type": "tuple"
                }
            ],
            "stateMutability": "view",
            "type": "function"
        },
        {
            "inputs": [
                {
                    "internalType": "uint256",
                    "name": "characterId",
                    "type": "uint256"
                }
            ],
            "name": "getOperator",
            "outputs": [
                {
                    "internalType": "address",
                    "name": "",
                    "type": "address"
                }
            ],
            "stateMutability": "view",
            "type": "function"
        },
        {
            "inputs": [
                {
                    "internalType": "address",
                    "name": "account",
                    "type": "address"
                }
            ],
            "name": "getPrimaryCharacterId",
            "outputs": [
                {
                    "internalType": "uint256",
                    "name": "",
                    "type": "uint256"
                }
            ],
            "stateMutability": "view",
            "type": "function"
        },
        {
            "inputs": [],
            "name": "getRevision",
            "outputs": [
                {
                    "internalType": "uint256",
                    "name": "",
                    "type": "uint256"
                }
            ],
            "stateMutability": "pure",
            "type": "function"
        },
        {
            "inputs": [
                {
                    "internalType": "string",
                    "name": "_name",
                    "type": "string"
                },
                {
                    "internalType": "string",
                    "name": "_symbol",
                    "type": "string"
                },
                {
                    "internalType": "address",
                    "name": "_linklistContract",
                    "type": "address"
                },
                {
                    "internalType": "address",
                    "name": "_mintNFTImpl",
                    "type": "address"
                },
                {
                    "internalType": "address",
                    "name": "_periphery",
                    "type": "address"
                },
                {
                    "internalType": "address",
                    "name": "_resolver",
                    "type": "address"
                }
            ],
            "name": "initialize",
            "outputs": [],
            "stateMutability": "nonpayable",
            "type": "function"
        },
        {
            "inputs": [
                {
                    "internalType": "address",
                    "name": "owner",
                    "type": "address"
                },
                {
                    "internalType": "address",
                    "name": "operator",
                    "type": "address"
                }
            ],
            "name": "isApprovedForAll",
            "outputs": [
                {
                    "internalType": "bool",
                    "name": "",
                    "type": "bool"
                }
            ],
            "stateMutability": "view",
            "type": "function"
        },
        {
            "inputs": [
                {
                    "internalType": "uint256",
                    "name": "characterId",
                    "type": "uint256"
                }
            ],
            "name": "isPrimaryCharacter",
            "outputs": [
                {
                    "internalType": "bool",
                    "name": "",
                    "type": "bool"
                }
            ],
            "stateMutability": "view",
            "type": "function"
        },
        {
            "inputs": [
                {
                    "components": [
                        {
                            "internalType": "uint256",
                            "name": "fromCharacterId",
                            "type": "uint256"
                        },
                        {
                            "internalType": "address",
                            "name": "ethAddress",
                            "type": "address"
                        },
                        {
                            "internalType": "bytes32",
                            "name": "linkType",
                            "type": "bytes32"
                        },
                        {
                            "internalType": "bytes",
                            "name": "data",
                            "type": "bytes"
                        }
                    ],
                    "internalType": "struct DataTypes.linkAddressData",
                    "name": "vars",
                    "type": "tuple"
                }
            ],
            "name": "linkAddress",
            "outputs": [],
            "stateMutability": "nonpayable",
            "type": "function"
        },
        {
            "inputs": [
                {
                    "components": [
                        {
                            "internalType": "uint256",
                            "name": "fromCharacterId",
                            "type": "uint256"
                        },
                        {
                            "internalType": "string",
                            "name": "toUri",
                            "type": "string"
                        },
                        {
                            "internalType": "bytes32",
                            "name": "linkType",
                            "type": "bytes32"
                        },
                        {
                            "internalType": "bytes",
                            "name": "data",
                            "type": "bytes"
                        }
                    ],
                    "internalType": "struct DataTypes.linkAnyUriData",
                    "name": "vars",
                    "type": "tuple"
                }
            ],
            "name": "linkAnyUri",
            "outputs": [],
            "stateMutability": "nonpayable",
            "type": "function"
        },
        {
            "inputs": [
                {
                    "components": [
                        {
                            "internalType": "uint256",
                            "name": "fromCharacterId",
                            "type": "uint256"
                        },
                        {
                            "internalType": "uint256",
                            "name": "toCharacterId",
                            "type": "uint256"
                        },
                        {
                            "internalType": "bytes32",
                            "name": "linkType",
                            "type": "bytes32"
                        },
                        {
                            "internalType": "bytes",
                            "name": "data",
                            "type": "bytes"
                        }
                    ],
                    "internalType": "struct DataTypes.linkCharacterData",
                    "name": "vars",
                    "type": "tuple"
                }
            ],
            "name": "linkCharacter",
            "outputs": [],
            "stateMutability": "nonpayable",
            "type": "function"
        },
        {
            "inputs": [
                {
                    "components": [
                        {
                            "internalType": "uint256",
                            "name": "fromCharacterId",
                            "type": "uint256"
                        },
                        {
                            "internalType": "address",
                            "name": "tokenAddress",
                            "type": "address"
                        },
                        {
                            "internalType": "uint256",
                            "name": "tokenId",
                            "type": "uint256"
                        },
                        {
                            "internalType": "bytes32",
                            "name": "linkType",
                            "type": "bytes32"
                        },
                        {
                            "internalType": "bytes",
                            "name": "data",
                            "type": "bytes"
                        }
                    ],
                    "internalType": "struct DataTypes.linkERC721Data",
                    "name": "vars",
                    "type": "tuple"
                }
            ],
            "name": "linkERC721",
            "outputs": [],
            "stateMutability": "nonpayable",
            "type": "function"
        },
        {
            "inputs": [
                {
                    "components": [
                        {
                            "internalType": "uint256",
                            "name": "fromCharacterId",
                            "type": "uint256"
                        },
                        {
                            "internalType": "uint256",
                            "name": "toLinkListId",
                            "type": "uint256"
                        },
                        {
                            "internalType": "bytes32",
                            "name": "linkType",
                            "type": "bytes32"
                        },
                        {
                            "internalType": "bytes",
                            "name": "data",
                            "type": "bytes"
                        }
                    ],
                    "internalType": "struct DataTypes.linkLinklistData",
                    "name": "vars",
                    "type": "tuple"
                }
            ],
            "name": "linkLinklist",
            "outputs": [],
            "stateMutability": "nonpayable",
            "type": "function"
        },
        {
            "inputs": [
                {
                    "components": [
                        {
                            "internalType": "uint256",
                            "name": "fromCharacterId",
                            "type": "uint256"
                        },
                        {
                            "internalType": "uint256",
                            "name": "toCharacterId",
                            "type": "uint256"
                        },
                        {
                            "internalType": "uint256",
                            "name": "toNoteId",
                            "type": "uint256"
                        },
                        {
                            "internalType": "bytes32",
                            "name": "linkType",
                            "type": "bytes32"
                        },
                        {
                            "internalType": "bytes",
                            "name": "data",
                            "type": "bytes"
                        }
                    ],
                    "internalType": "struct DataTypes.linkNoteData",
                    "name": "vars",
                    "type": "tuple"
                }
            ],
            "name": "linkNote",
            "outputs": [],
            "stateMutability": "nonpayable",
            "type": "function"
        },
        {
            "inputs": [
                {
                    "internalType": "uint256",
                    "name": "characterId",
                    "type": "uint256"
                },
                {
                    "internalType": "uint256",
                    "name": "noteId",
                    "type": "uint256"
                }
            ],
            "name": "lockNote",
            "outputs": [],
            "stateMutability": "nonpayable",
            "type": "function"
        },
        {
            "inputs": [
                {
                    "internalType": "uint256",
                    "name": "characterId",
                    "type": "uint256"
                }
            ],
            "name": "migrateNote",
            "outputs": [],
            "stateMutability": "nonpayable",
            "type": "function"
        },
        {
            "inputs": [
                {
                    "components": [
                        {
                            "internalType": "uint256",
                            "name": "characterId",
                            "type": "uint256"
                        },
                        {
                            "internalType": "uint256",
                            "name": "noteId",
                            "type": "uint256"
                        },
                        {
                            "internalType": "address",
                            "name": "to",
                            "type": "address"
                        },
                        {
                            "internalType": "bytes",
                            "name": "mintModuleData",
                            "type": "bytes"
                        }
                    ],
                    "internalType": "struct DataTypes.MintNoteData",
                    "name": "vars",
                    "type": "tuple"
                }
            ],
            "name": "mintNote",
            "outputs": [
                {
                    "internalType": "uint256",
                    "name": "",
                    "type": "uint256"
                }
            ],
            "stateMutability": "nonpayable",
            "type": "function"
        },
        {
            "inputs": [],
            "name": "name",
            "outputs": [
                {
                    "internalType": "string",
                    "name": "",
                    "type": "string"
                }
            ],
            "stateMutability": "view",
            "type": "function"
        },
        {
            "inputs": [
                {
                    "internalType": "uint256",
                    "name": "tokenId",
                    "type": "uint256"
                }
            ],
            "name": "ownerOf",
            "outputs": [
                {
                    "internalType": "address",
                    "name": "",
                    "type": "address"
                }
            ],
            "stateMutability": "view",
            "type": "function"
        },
        {
            "inputs": [
                {
                    "components": [
                        {
                            "internalType": "uint256",
                            "name": "characterId",
                            "type": "uint256"
                        },
                        {
                            "internalType": "string",
                            "name": "contentUri",
                            "type": "string"
                        },
                        {
                            "internalType": "address",
                            "name": "linkModule",
                            "type": "address"
                        },
                        {
                            "internalType": "bytes",
                            "name": "linkModuleInitData",
                            "type": "bytes"
                        },
                        {
                            "internalType": "address",
                            "name": "mintModule",
                            "type": "address"
                        },
                        {
                            "internalType": "bytes",
                            "name": "mintModuleInitData",
                            "type": "bytes"
                        },
                        {
                            "internalType": "bool",
                            "name": "locked",
                            "type": "bool"
                        }
                    ],
                    "internalType": "struct DataTypes.PostNoteData",
                    "name": "vars",
                    "type": "tuple"
                }
            ],
            "name": "postNote",
            "outputs": [
                {
                    "internalType": "uint256",
                    "name": "",
                    "type": "uint256"
                }
            ],
            "stateMutability": "nonpayable",
            "type": "function"
        },
        {
            "inputs": [
                {
                    "components": [
                        {
                            "internalType": "uint256",
                            "name": "characterId",
                            "type": "uint256"
                        },
                        {
                            "internalType": "string",
                            "name": "contentUri",
                            "type": "string"
                        },
                        {
                            "internalType": "address",
                            "name": "linkModule",
                            "type": "address"
                        },
                        {
                            "internalType": "bytes",
                            "name": "linkModuleInitData",
                            "type": "bytes"
                        },
                        {
                            "internalType": "address",
                            "name": "mintModule",
                            "type": "address"
                        },
                        {
                            "internalType": "bytes",
                            "name": "mintModuleInitData",
                            "type": "bytes"
                        },
                        {
                            "internalType": "bool",
                            "name": "locked",
                            "type": "bool"
                        }
                    ],
                    "internalType": "struct DataTypes.PostNoteData",
                    "name": "noteData",
                    "type": "tuple"
                },
                {
                    "internalType": "address",
                    "name": "ethAddress",
                    "type": "address"
                }
            ],
            "name": "postNote4Address",
            "outputs": [
                {
                    "internalType": "uint256",
                    "name": "",
                    "type": "uint256"
                }
            ],
            "stateMutability": "nonpayable",
            "type": "function"
        },
        {
            "inputs": [
                {
                    "components": [
                        {
                            "internalType": "uint256",
                            "name": "characterId",
                            "type": "uint256"
                        },
                        {
                            "internalType": "string",
                            "name": "contentUri",
                            "type": "string"
                        },
                        {
                            "internalType": "address",
                            "name": "linkModule",
                            "type": "address"
                        },
                        {
                            "internalType": "bytes",
                            "name": "linkModuleInitData",
                            "type": "bytes"
                        },
                        {
                            "internalType": "address",
                            "name": "mintModule",
                            "type": "address"
                        },
                        {
                            "internalType": "bytes",
                            "name": "mintModuleInitData",
                            "type": "bytes"
                        },
                        {
                            "internalType": "bool",
                            "name": "locked",
                            "type": "bool"
                        }
                    ],
                    "internalType": "struct DataTypes.PostNoteData",
                    "name": "postNoteData",
                    "type": "tuple"
                },
                {
                    "internalType": "string",
                    "name": "uri",
                    "type": "string"
                }
            ],
            "name": "postNote4AnyUri",
            "outputs": [
                {
                    "internalType": "uint256",
                    "name": "",
                    "type": "uint256"
                }
            ],
            "stateMutability": "nonpayable",
            "type": "function"
        },
        {
            "inputs": [
                {
                    "components": [
                        {
                            "internalType": "uint256",
                            "name": "characterId",
                            "type": "uint256"
                        },
                        {
                            "internalType": "string",
                            "name": "contentUri",
                            "type": "string"
                        },
                        {
                            "internalType": "address",
                            "name": "linkModule",
                            "type": "address"
                        },
                        {
                            "internalType": "bytes",
                            "name": "linkModuleInitData",
                            "type": "bytes"
                        },
                        {
                            "internalType": "address",
                            "name": "mintModule",
                            "type": "address"
                        },
                        {
                            "internalType": "bytes",
                            "name": "mintModuleInitData",
                            "type": "bytes"
                        },
                        {
                            "internalType": "bool",
                            "name": "locked",
                            "type": "bool"
                        }
                    ],
                    "internalType": "struct DataTypes.PostNoteData",
                    "name": "postNoteData",
                    "type": "tuple"
                },
                {
                    "internalType": "uint256",
                    "name": "toCharacterId",
                    "type": "uint256"
                }
            ],
            "name": "postNote4Character",
            "outputs": [
                {
                    "internalType": "uint256",
                    "name": "",
                    "type": "uint256"
                }
            ],
            "stateMutability": "nonpayable",
            "type": "function"
        },
        {
            "inputs": [
                {
                    "components": [
                        {
                            "internalType": "uint256",
                            "name": "characterId",
                            "type": "uint256"
                        },
                        {
                            "internalType": "string",
                            "name": "contentUri",
                            "type": "string"
                        },
                        {
                            "internalType": "address",
                            "name": "linkModule",
                            "type": "address"
                        },
                        {
                            "internalType": "bytes",
                            "name": "linkModuleInitData",
                            "type": "bytes"
                        },
                        {
                            "internalType": "address",
                            "name": "mintModule",
                            "type": "address"
                        },
                        {
                            "internalType": "bytes",
                            "name": "mintModuleInitData",
                            "type": "bytes"
                        },
                        {
                            "internalType": "bool",
                            "name": "locked",
                            "type": "bool"
                        }
                    ],
                    "internalType": "struct DataTypes.PostNoteData",
                    "name": "postNoteData",
                    "type": "tuple"
                },
                {
                    "components": [
                        {
                            "internalType": "address",
                            "name": "tokenAddress",
                            "type": "address"
                        },
                        {
                            "internalType": "uint256",
                            "name": "erc721TokenId",
                            "type": "uint256"
                        }
                    ],
                    "internalType": "struct DataTypes.ERC721Struct",
                    "name": "erc721",
                    "type": "tuple"
                }
            ],
            "name": "postNote4ERC721",
            "outputs": [
                {
                    "internalType": "uint256",
                    "name": "",
                    "type": "uint256"
                }
            ],
            "stateMutability": "nonpayable",
            "type": "function"
        },
        {
            "inputs": [
                {
                    "components": [
                        {
                            "internalType": "uint256",
                            "name": "characterId",
                            "type": "uint256"
                        },
                        {
                            "internalType": "string",
                            "name": "contentUri",
                            "type": "string"
                        },
                        {
                            "internalType": "address",
                            "name": "linkModule",
                            "type": "address"
                        },
                        {
                            "internalType": "bytes",
                            "name": "linkModuleInitData",
                            "type": "bytes"
                        },
                        {
                            "internalType": "address",
                            "name": "mintModule",
                            "type": "address"
                        },
                        {
                            "internalType": "bytes",
                            "name": "mintModuleInitData",
                            "type": "bytes"
                        },
                        {
                            "internalType": "bool",
                            "name": "locked",
                            "type": "bool"
                        }
                    ],
                    "internalType": "struct DataTypes.PostNoteData",
                    "name": "noteData",
                    "type": "tuple"
                },
                {
                    "internalType": "uint256",
                    "name": "toLinklistId",
                    "type": "uint256"
                }
            ],
            "name": "postNote4Linklist",
            "outputs": [
                {
                    "internalType": "uint256",
                    "name": "",
                    "type": "uint256"
                }
            ],
            "stateMutability": "nonpayable",
            "type": "function"
        },
        {
            "inputs": [
                {
                    "components": [
                        {
                            "internalType": "uint256",
                            "name": "characterId",
                            "type": "uint256"
                        },
                        {
                            "internalType": "string",
                            "name": "contentUri",
                            "type": "string"
                        },
                        {
                            "internalType": "address",
                            "name": "linkModule",
                            "type": "address"
                        },
                        {
                            "internalType": "bytes",
                            "name": "linkModuleInitData",
                            "type": "bytes"
                        },
                        {
                            "internalType": "address",
                            "name": "mintModule",
                            "type": "address"
                        },
                        {
                            "internalType": "bytes",
                            "name": "mintModuleInitData",
                            "type": "bytes"
                        },
                        {
                            "internalType": "bool",
                            "name": "locked",
                            "type": "bool"
                        }
                    ],
                    "internalType": "struct DataTypes.PostNoteData",
                    "name": "postNoteData",
                    "type": "tuple"
                },
                {
                    "components": [
                        {
                            "internalType": "uint256",
                            "name": "characterId",
                            "type": "uint256"
                        },
                        {
                            "internalType": "uint256",
                            "name": "noteId",
                            "type": "uint256"
                        }
                    ],
                    "internalType": "struct DataTypes.NoteStruct",
                    "name": "note",
                    "type": "tuple"
                }
            ],
            "name": "postNote4Note",
            "outputs": [
                {
                    "internalType": "uint256",
                    "name": "",
                    "type": "uint256"
                }
            ],
            "stateMutability": "nonpayable",
            "type": "function"
        },
        {
            "inputs": [],
            "name": "resolver",
            "outputs": [
                {
                    "internalType": "address",
                    "name": "",
                    "type": "address"
                }
            ],
            "stateMutability": "view",
            "type": "function"
        },
        {
            "inputs": [
                {
                    "internalType": "address",
                    "name": "from",
                    "type": "address"
                },
                {
                    "internalType": "address",
                    "name": "to",
                    "type": "address"
                },
                {
                    "internalType": "uint256",
                    "name": "tokenId",
                    "type": "uint256"
                }
            ],
            "name": "safeTransferFrom",
            "outputs": [],
            "stateMutability": "nonpayable",
            "type": "function"
        },
        {
            "inputs": [
                {
                    "internalType": "address",
                    "name": "from",
                    "type": "address"
                },
                {
                    "internalType": "address",
                    "name": "to",
                    "type": "address"
                },
                {
                    "internalType": "uint256",
                    "name": "tokenId",
                    "type": "uint256"
                },
                {
                    "internalType": "bytes",
                    "name": "_data",
                    "type": "bytes"
                }
            ],
            "name": "safeTransferFrom",
            "outputs": [],
            "stateMutability": "nonpayable",
            "type": "function"
        },
        {
            "inputs": [
                {
                    "internalType": "address",
                    "name": "operator",
                    "type": "address"
                },
                {
                    "internalType": "bool",
                    "name": "approved",
                    "type": "bool"
                }
            ],
            "name": "setApprovalForAll",
            "outputs": [],
            "stateMutability": "nonpayable",
            "type": "function"
        },
        {
            "inputs": [
                {
                    "internalType": "uint256",
                    "name": "characterId",
                    "type": "uint256"
                },
                {
                    "internalType": "string",
                    "name": "newUri",
                    "type": "string"
                }
            ],
            "name": "setCharacterUri",
            "outputs": [],
            "stateMutability": "nonpayable",
            "type": "function"
        },
        {
            "inputs": [
                {
                    "internalType": "uint256",
                    "name": "characterId",
                    "type": "uint256"
                },
                {
                    "internalType": "string",
                    "name": "newHandle",
                    "type": "string"
                }
            ],
            "name": "setHandle",
            "outputs": [],
            "stateMutability": "nonpayable",
            "type": "function"
        },
        {
            "inputs": [
                {
                    "components": [
                        {
                            "internalType": "address",
                            "name": "account",
                            "type": "address"
                        },
                        {
                            "internalType": "address",
                            "name": "linkModule",
                            "type": "address"
                        },
                        {
                            "internalType": "bytes",
                            "name": "linkModuleInitData",
                            "type": "bytes"
                        }
                    ],
                    "internalType": "struct DataTypes.setLinkModule4AddressData",
                    "name": "vars",
                    "type": "tuple"
                }
            ],
            "name": "setLinkModule4Address",
            "outputs": [],
            "stateMutability": "nonpayable",
            "type": "function"
        },
        {
            "inputs": [
                {
                    "components": [
                        {
                            "internalType": "uint256",
                            "name": "characterId",
                            "type": "uint256"
                        },
                        {
                            "internalType": "address",
                            "name": "linkModule",
                            "type": "address"
                        },
                        {
                            "internalType": "bytes",
                            "name": "linkModuleInitData",
                            "type": "bytes"
                        }
                    ],
                    "internalType": "struct DataTypes.setLinkModule4CharacterData",
                    "name": "vars",
                    "type": "tuple"
                }
            ],
            "name": "setLinkModule4Character",
            "outputs": [],
            "stateMutability": "nonpayable",
            "type": "function"
        },
        {
            "inputs": [
                {
                    "components": [
                        {
                            "internalType": "address",
                            "name": "tokenAddress",
                            "type": "address"
                        },
                        {
                            "internalType": "uint256",
                            "name": "tokenId",
                            "type": "uint256"
                        },
                        {
                            "internalType": "address",
                            "name": "linkModule",
                            "type": "address"
                        },
                        {
                            "internalType": "bytes",
                            "name": "linkModuleInitData",
                            "type": "bytes"
                        }
                    ],
                    "internalType": "struct DataTypes.setLinkModule4ERC721Data",
                    "name": "vars",
                    "type": "tuple"
                }
            ],
            "name": "setLinkModule4ERC721",
            "outputs": [],
            "stateMutability": "nonpayable",
            "type": "function"
        },
        {
            "inputs": [
                {
                    "components": [
                        {
                            "internalType": "uint256",
                            "name": "linklistId",
                            "type": "uint256"
                        },
                        {
                            "internalType": "address",
                            "name": "linkModule",
                            "type": "address"
                        },
                        {
                            "internalType": "bytes",
                            "name": "linkModuleInitData",
                            "type": "bytes"
                        }
                    ],
                    "internalType": "struct DataTypes.setLinkModule4LinklistData",
                    "name": "vars",
                    "type": "tuple"
                }
            ],
            "name": "setLinkModule4Linklist",
            "outputs": [],
            "stateMutability": "nonpayable",
            "type": "function"
        },
        {
            "inputs": [
                {
                    "components": [
                        {
                            "internalType": "uint256",
                            "name": "characterId",
                            "type": "uint256"
                        },
                        {
                            "internalType": "uint256",
                            "name": "noteId",
                            "type": "uint256"
                        },
                        {
                            "internalType": "address",
                            "name": "linkModule",
                            "type": "address"
                        },
                        {
                            "internalType": "bytes",
                            "name": "linkModuleInitData",
                            "type": "bytes"
                        }
                    ],
                    "internalType": "struct DataTypes.setLinkModule4NoteData",
                    "name": "vars",
                    "type": "tuple"
                }
            ],
            "name": "setLinkModule4Note",
            "outputs": [],
            "stateMutability": "nonpayable",
            "type": "function"
        },
        {
            "inputs": [
                {
                    "internalType": "uint256",
                    "name": "linklistId",
                    "type": "uint256"
                },
                {
                    "internalType": "string",
                    "name": "uri",
                    "type": "string"
                }
            ],
            "name": "setLinklistUri",
            "outputs": [],
            "stateMutability": "nonpayable",
            "type": "function"
        },
        {
            "inputs": [
                {
                    "components": [
                        {
                            "internalType": "uint256",
                            "name": "characterId",
                            "type": "uint256"
                        },
                        {
                            "internalType": "uint256",
                            "name": "noteId",
                            "type": "uint256"
                        },
                        {
                            "internalType": "address",
                            "name": "mintModule",
                            "type": "address"
                        },
                        {
                            "internalType": "bytes",
                            "name": "mintModuleInitData",
                            "type": "bytes"
                        }
                    ],
                    "internalType": "struct DataTypes.setMintModule4NoteData",
                    "name": "vars",
                    "type": "tuple"
                }
            ],
            "name": "setMintModule4Note",
            "outputs": [],
            "stateMutability": "nonpayable",
            "type": "function"
        },
        {
            "inputs": [
                {
                    "internalType": "uint256",
                    "name": "characterId",
                    "type": "uint256"
                },
                {
                    "internalType": "uint256",
                    "name": "noteId",
                    "type": "uint256"
                },
                {
                    "internalType": "string",
                    "name": "newUri",
                    "type": "string"
                }
            ],
            "name": "setNoteUri",
            "outputs": [],
            "stateMutability": "nonpayable",
            "type": "function"
        },
        {
            "inputs": [
                {
                    "internalType": "uint256",
                    "name": "characterId",
                    "type": "uint256"
                },
                {
                    "internalType": "address",
                    "name": "operator",
                    "type": "address"
                }
            ],
            "name": "setOperator",
            "outputs": [],
            "stateMutability": "nonpayable",
            "type": "function"
        },
        {
            "inputs": [
                {
                    "internalType": "uint256",
                    "name": "characterId",
                    "type": "uint256"
                }
            ],
            "name": "setPrimaryCharacterId",
            "outputs": [],
            "stateMutability": "nonpayable",
            "type": "function"
        },
        {
            "inputs": [
                {
                    "internalType": "uint256",
                    "name": "profileId",
                    "type": "uint256"
                },
                {
                    "internalType": "string",
                    "name": "newUri",
                    "type": "string"
                }
            ],
            "name": "setProfileUri",
            "outputs": [],
            "stateMutability": "nonpayable",
            "type": "function"
        },
        {
            "inputs": [
                {
                    "internalType": "uint256",
                    "name": "characterId",
                    "type": "uint256"
                },
                {
                    "internalType": "address",
                    "name": "tokenAddress",
                    "type": "address"
                }
            ],
            "name": "setSocialToken",
            "outputs": [],
            "stateMutability": "nonpayable",
            "type": "function"
        },
        {
            "inputs": [
                {
                    "internalType": "bytes4",
                    "name": "interfaceId",
                    "type": "bytes4"
                }
            ],
            "name": "supportsInterface",
            "outputs": [
                {
                    "internalType": "bool",
                    "name": "",
                    "type": "bool"
                }
            ],
            "stateMutability": "view",
            "type": "function"
        },
        {
            "inputs": [],
            "name": "symbol",
            "outputs": [
                {
                    "internalType": "string",
                    "name": "",
                    "type": "string"
                }
            ],
            "stateMutability": "view",
            "type": "function"
        },
        {
            "inputs": [
                {
                    "internalType": "uint256",
                    "name": "index",
                    "type": "uint256"
                }
            ],
            "name": "tokenByIndex",
            "outputs": [
                {
                    "internalType": "uint256",
                    "name": "",
                    "type": "uint256"
                }
            ],
            "stateMutability": "view",
            "type": "function"
        },
        {
            "inputs": [
                {
                    "internalType": "address",
                    "name": "owner",
                    "type": "address"
                },
                {
                    "internalType": "uint256",
                    "name": "index",
                    "type": "uint256"
                }
            ],
            "name": "tokenOfOwnerByIndex",
            "outputs": [
                {
                    "internalType": "uint256",
                    "name": "",
                    "type": "uint256"
                }
            ],
            "stateMutability": "view",
            "type": "function"
        },
        {
            "inputs": [
                {
                    "internalType": "uint256",
                    "name": "characterId",
                    "type": "uint256"
                }
            ],
            "name": "tokenURI",
            "outputs": [
                {
                    "internalType": "string",
                    "name": "",
                    "type": "string"
                }
            ],
            "stateMutability": "view",
            "type": "function"
        },
        {
            "inputs": [],
            "name": "totalSupply",
            "outputs": [
                {
                    "internalType": "uint256",
                    "name": "",
                    "type": "uint256"
                }
            ],
            "stateMutability": "view",
            "type": "function"
        },
        {
            "inputs": [
                {
                    "internalType": "address",
                    "name": "from",
                    "type": "address"
                },
                {
                    "internalType": "address",
                    "name": "to",
                    "type": "address"
                },
                {
                    "internalType": "uint256",
                    "name": "tokenId",
                    "type": "uint256"
                }
            ],
            "name": "transferFrom",
            "outputs": [],
            "stateMutability": "nonpayable",
            "type": "function"
        },
        {
            "inputs": [
                {
                    "components": [
                        {
                            "internalType": "uint256",
                            "name": "fromCharacterId",
                            "type": "uint256"
                        },
                        {
                            "internalType": "address",
                            "name": "ethAddress",
                            "type": "address"
                        },
                        {
                            "internalType": "bytes32",
                            "name": "linkType",
                            "type": "bytes32"
                        }
                    ],
                    "internalType": "struct DataTypes.unlinkAddressData",
                    "name": "vars",
                    "type": "tuple"
                }
            ],
            "name": "unlinkAddress",
            "outputs": [],
            "stateMutability": "nonpayable",
            "type": "function"
        },
        {
            "inputs": [
                {
                    "components": [
                        {
                            "internalType": "uint256",
                            "name": "fromCharacterId",
                            "type": "uint256"
                        },
                        {
                            "internalType": "string",
                            "name": "toUri",
                            "type": "string"
                        },
                        {
                            "internalType": "bytes32",
                            "name": "linkType",
                            "type": "bytes32"
                        }
                    ],
                    "internalType": "struct DataTypes.unlinkAnyUriData",
                    "name": "vars",
                    "type": "tuple"
                }
            ],
            "name": "unlinkAnyUri",
            "outputs": [],
            "stateMutability": "nonpayable",
            "type": "function"
        },
        {
            "inputs": [
                {
                    "components": [
                        {
                            "internalType": "uint256",
                            "name": "fromCharacterId",
                            "type": "uint256"
                        },
                        {
                            "internalType": "uint256",
                            "name": "toCharacterId",
                            "type": "uint256"
                        },
                        {
                            "internalType": "bytes32",
                            "name": "linkType",
                            "type": "bytes32"
                        }
                    ],
                    "internalType": "struct DataTypes.unlinkCharacterData",
                    "name": "vars",
                    "type": "tuple"
                }
            ],
            "name": "unlinkCharacter",
            "outputs": [],
            "stateMutability": "nonpayable",
            "type": "function"
        },
        {
            "inputs": [
                {
                    "components": [
                        {
                            "internalType": "uint256",
                            "name": "fromCharacterId",
                            "type": "uint256"
                        },
                        {
                            "internalType": "address",
                            "name": "tokenAddress",
                            "type": "address"
                        },
                        {
                            "internalType": "uint256",
                            "name": "tokenId",
                            "type": "uint256"
                        },
                        {
                            "internalType": "bytes32",
                            "name": "linkType",
                            "type": "bytes32"
                        }
                    ],
                    "internalType": "struct DataTypes.unlinkERC721Data",
                    "name": "vars",
                    "type": "tuple"
                }
            ],
            "name": "unlinkERC721",
            "outputs": [],
            "stateMutability": "nonpayable",
            "type": "function"
        },
        {
            "inputs": [
                {
                    "components": [
                        {
                            "internalType": "uint256",
                            "name": "fromCharacterId",
                            "type": "uint256"
                        },
                        {
                            "internalType": "uint256",
                            "name": "toLinkListId",
                            "type": "uint256"
                        },
                        {
                            "internalType": "bytes32",
                            "name": "linkType",
                            "type": "bytes32"
                        }
                    ],
                    "internalType": "struct DataTypes.unlinkLinklistData",
                    "name": "vars",
                    "type": "tuple"
                }
            ],
            "name": "unlinkLinklist",
            "outputs": [],
            "stateMutability": "nonpayable",
            "type": "function"
        },
        {
            "inputs": [
                {
                    "components": [
                        {
                            "internalType": "uint256",
                            "name": "fromCharacterId",
                            "type": "uint256"
                        },
                        {
                            "internalType": "uint256",
                            "name": "toCharacterId",
                            "type": "uint256"
                        },
                        {
                            "internalType": "uint256",
                            "name": "toNoteId",
                            "type": "uint256"
                        },
                        {
                            "internalType": "bytes32",
                            "name": "linkType",
                            "type": "bytes32"
                        }
                    ],
                    "internalType": "struct DataTypes.unlinkNoteData",
                    "name": "vars",
                    "type": "tuple"
                }
            ],
            "name": "unlinkNote",
            "outputs": [],
            "stateMutability": "nonpayable",
            "type": "function"
        }
    ],
    "bytecode": "0x608060405234801561001057600080fd5b50615ea880620000216000396000f3fe608060405234801561001057600080fd5b50600436106104545760003560e01c8063867884e611610241578063c87b56dd1161013b578063e56f2fe4116100c3578063f2ad807511610087578063f2ad807514610a52578063f316bacd14610a65578063f6479d7714610a78578063fd2d866f14610a8b578063fe9299fb14610a9e57600080fd5b8063e56f2fe4146109ca578063e7a1c1c0146109dd578063e985e9c5146109f0578063ec81d19414610a2c578063ef0828ab14610a3f57600080fd5b8063d70e10c61161010a578063d70e10c614610946578063dabb053114610971578063db491e8014610984578063db8c198d146109a4578063dca27135146109b757600080fd5b8063c87b56dd1461090d578063cb8e757e14610920578063cd69fe61146108d6578063d23b320b1461093357600080fd5b80639a50248d116101c9578063b88d4fde1161018d578063b88d4fde146108b0578063b9d32845146108c3578063bd5f69cb146108d6578063c053f6b8146108e9578063c2a6fe3b146108fa57600080fd5b80639a50248d14610844578063a22cb46514610864578063a6e6178d14610877578063a7ccb4bf1461088a578063af90b1121461089d57600080fd5b806393f057e51161021057806393f057e5146107f057806395d89b411461080357806395d9fa7d1461080b5780639864c3071461081e5780639a4dec181461083157600080fd5b8063867884e6146107a45780638734bbfc146107b75780638b4ca06a146107ca57806392f7070b146107dd57600080fd5b806331b9d08c116103525780634f6ccce7116102da57806369492c971161029e57806369492c971461075857806370a082311461076b57806374f345cf1461077e5780637c392b51146106e65780637daca6d01461079157600080fd5b80634f6ccce7146106f95780635a936d101461070c5780635fb881831461071f578063628b644a146107325780636352211e1461074557600080fd5b806340ad34d81161032157806340ad34d81461069a57806342842e0e146106ad57806342966c68146106c057806344b82a24146106d357806347f94de7146106e657600080fd5b806331b9d08c14610635578063327b2a031461066157806333f06ee614610674578063388f50831461068757600080fd5b80631316529d116103e05780632209d145116103a45780632209d1451461059d57806323b872dd146105d357806329c301c2146105e65780632abc6bf6146105f95780632f745c591461062257600080fd5b80631316529d1461054b578063144a3e831461055c57806314bd433c1461056f57806318160ddd14610582578063188b04b31461058a57600080fd5b8063081812fc11610427578063081812fc146104ea57806308cb68ff146104fd578063095ea7b3146105125780630c4dd5f2146105255780630ff982441461053857600080fd5b806301ffc9a71461045957806304f3bcec1461048157806305f63c8a146104ac57806306fdde03146104d5575b600080fd5b61046c6104673660046148a8565b610ac7565b60405190151581526020015b60405180910390f35b601754610494906001600160a01b031681565b6040516001600160a01b039091168152602001610478565b6104946104ba3660046148c5565b6000908152601660205260409020546001600160a01b031690565b6104dd610af2565b6040516104789190614936565b6104946104f83660046148c5565b610b84565b61051061050b366004614961565b610c1e565b005b6105106105203660046149ba565b610cb7565b610510610533366004614961565b610dcd565b6105106105463660046149e6565b610e32565b60045b604051908152602001610478565b6104dd61056a3660046148c5565b610f31565b61051061057d3660046148c5565b610f3c565b60085461054e565b610510610598366004614a14565b610fbe565b6104946105ab3660046149ba565b6001600160a01b03918216600090815260106020908152604080832093835292905220541690565b6105106105e1366004614a48565b6110be565b61054e6105f4366004614a9b565b6110ef565b61054e610607366004614acf565b6001600160a01b03166000908152600c602052604090205490565b61054e6106303660046149ba565b61119b565b610494610643366004614acf565b6001600160a01b039081166000908152601160205260409020541690565b61054e61066f366004614afe565b611231565b610510610682366004614b94565b6113f4565b610510610695366004614a14565b611468565b6105106106a8366004614bdf565b611525565b6105106106bb366004614a48565b61159f565b6105106106ce3660046148c5565b6115ba565b61054e6106e1366004614bfb565b611657565b6105106106f4366004614b94565b6116cd565b61054e6107073660046148c5565b61170d565b61051061071a3660046149e6565b6117a0565b61051061072d366004614a14565b611830565b610510610740366004614c3f565b6118ed565b6104946107533660046148c5565b611979565b610510610766366004614a14565b6119f0565b61054e610779366004614acf565b611b28565b61051061078c366004614c91565b611baf565b61046c61079f366004614d9e565b611c27565b6105106107b2366004614bdf565b611da7565b61046c6107c53660046148c5565b611e17565b61054e6107d83660046148c5565b611e45565b61054e6107eb366004614def565b611eb1565b6105106107fe3660046149e6565b611f45565b6104dd611fb4565b610510610819366004614e24565b611fc3565b61051061082c366004614a14565b612049565b61054e61083f366004614afe565b612106565b610857610852366004614e49565b61220e565b6040516104789190614e8a565b610510610872366004614f16565b6123bd565b610510610885366004614b94565b6123c8565b61054e610898366004614a14565b6124c3565b61054e6108ab366004614bfb565b612567565b6105106108be366004614f42565b6125a5565b6105106108d1366004614fbf565b6125dd565b6105106108e4366004614fbf565b6126af565b6013546001600160a01b0316610494565b610510610908366004614c91565b6126c3565b6104dd61091b3660046148c5565b612733565b61051061092e366004614fbf565b6127d8565b610510610941366004614a14565b6128b2565b61054e610954366004614c91565b6000918252600d6020908152604080842092845291905290205490565b61085761097f3660046148c5565b61292c565b610997610992366004614c91565b612ab3565b6040516104789190614ff3565b6105106109b2366004614a14565b612c14565b6104dd6109c53660046148c5565b612c5e565b6105106109d8366004615089565b612cd0565b6105106109eb366004614e24565b612e2d565b61046c6109fe366004615143565b6001600160a01b03918216600090815260056020908152604080832093909416825291909152205460ff1690565b6104dd610a3a3660046148c5565b612e40565b610510610a4d366004614961565b612e60565b610510610a603660046148c5565b612ecf565b61054e610a73366004615171565b612f1e565b610510610a863660046149e6565b61307a565b610510610a99366004614961565b6130b4565b610494610aac3660046148c5565b6000908152600f60205260409020546001600160a01b031690565b60006001600160e01b0319821663780e9d6360e01b1480610aec5750610aec8261312d565b92915050565b606060008054610b01906151cc565b80601f0160208091040260200160405190810160405280929190818152602001828054610b2d906151cc565b8015610b7a5780601f10610b4f57610100808354040283529160200191610b7a565b820191906000526020600020905b815481529060010190602001808311610b5d57829003601f168201915b5050505050905090565b6000818152600260205260408120546001600160a01b0316610c025760405162461bcd60e51b815260206004820152602c60248201527f4552433732313a20617070726f76656420717565727920666f72206e6f6e657860448201526b34b9ba32b73a103a37b5b2b760a11b60648201526084015b60405180910390fd5b506000908152600460205260409020546001600160a01b031690565b73__$69db18565ecbefece480e92cc5f8fb1274$__63dfc34f25610c456020840184614acf565b610c556040850160208601614acf565b610c626040860186615201565b60116040518663ffffffff1660e01b8152600401610c84959493929190615270565b60006040518083038186803b158015610c9c57600080fd5b505af4158015610cb0573d6000803e3d6000fd5b5050505050565b6000610cc282611979565b9050806001600160a01b0316836001600160a01b03161415610d305760405162461bcd60e51b815260206004820152602160248201527f4552433732313a20617070726f76616c20746f2063757272656e74206f776e656044820152603960f91b6064820152608401610bf9565b336001600160a01b0382161480610d4c5750610d4c81336109fe565b610dbe5760405162461bcd60e51b815260206004820152603860248201527f4552433732313a20617070726f76652063616c6c6572206973206e6f74206f7760448201527f6e6572206e6f7220617070726f76656420666f7220616c6c00000000000000006064820152608401610bf9565b610dc8838361317d565b505050565b610dd781356131eb565b73__$69db18565ecbefece480e92cc5f8fb1274$__636252159e8235610e036040850160208601614acf565b610e106040860186615201565b600f6040518663ffffffff1660e01b8152600401610c849594939291906152af565b610e3c81356132ab565b6040516331a9108f60e11b81528135600482015273__$e2c9a8f399964af47bb173600dd9e5f662$__90633019fadd9083903090636352211e90602401602060405180830381865afa158015610e96573d6000803e3d6000fd5b505050506040513d601f19601f82011682018060405250810190610eba91906152da565b60135485356000908152600d60209081526040808320818a0135845282529182902054825160e088901b6001600160e01b031916815286356004820152918601356024830152949091013560448201526001600160a01b0392831660648201529116608482015260a481019190915260c401610c84565b6060610aec82612733565b6000818152600a6020526040812060030154905b81811015610dc8576000838152600e602090815260408083208484529091529020546650726f66696c6560c81b1415610fac576000838152600e6020908152604080832084845290915290206821b430b930b1ba32b960b91b90555b80610fb68161530d565b915050610f50565b610fc881356132ab565b610fd5816020013561334d565b73__$e2c9a8f399964af47bb173600dd9e5f662$__637f9590a38235602084013560408501356110086060870187615201565b6040516331a9108f60e11b8152883560048201523090636352211e90602401602060405180830381865afa158015611044573d6000803e3d6000fd5b505050506040513d601f19601f8201168201806040525081019061106891906152da565b6013546020808b01356000908152600a9091526040908190206005015490516001600160e01b031960e08b901b168152610c84989796959493926001600160a01b03908116921690600d90601890600401615328565b6110c833826133a6565b6110e45760405162461bcd60e51b8152600401610bf990615388565b610dc883838361349d565b60006110fb82356132ab565b81356000908152600a602052604081206003018054829061111b9061530d565b91829055506040516342a34a5360e01b815290915073__$2873850e5b3f5697aafc2f5cd9f27cc884$__906342a34a539061116490869085906000908190600e906004016154e3565b60006040518083038186803b15801561117c57600080fd5b505af4158015611190573d6000803e3d6000fd5b509295945050505050565b60006111a683611b28565b82106112085760405162461bcd60e51b815260206004820152602b60248201527f455243373231456e756d657261626c653a206f776e657220696e646578206f7560448201526a74206f6620626f756e647360a81b6064820152608401610bf9565b506001600160a01b03919091166000908152600660209081526040808320938352929052205490565b600061123d83356132ab565b61125761124d6020840184614acf565b8360200135613592565b6013546545524337323160d01b906000906001600160a01b0316632ea24efc826112846020880188614acf565b6040516001600160e01b031960e085901b16815260048101929092526001600160a01b03166024820152602087013560448201526064016020604051808303816000875af11580156112da573d6000803e3d6000fd5b505050506040513d601f19601f820116820180604052508101906112fe9190615528565b85356000908152600a602052604081206003018054929350909182906113239061530d565b9182905550905073__$2873850e5b3f5697aafc2f5cd9f27cc884$__6342a34a538783868661135560208c018c614acf565b8b6020013560405160200161138892919060609290921b6bffffffffffffffffffffffff19168252601482015260340190565b604051602081830303815290604052600e6040518763ffffffff1660e01b81526004016113ba96959493929190615541565b60006040518083038186803b1580156113d257600080fd5b505af41580156113e6573d6000803e3d6000fd5b509298975050505050505050565b6113fd836131eb565b601354604051633c17845760e11b81526001600160a01b039091169063782f08ae906114319086908690869060040161558c565b600060405180830381600087803b15801561144b57600080fd5b505af115801561145f573d6000803e3d6000fd5b50505050505050565b61147281356132ab565b6040516331a9108f60e11b81528135600482015273__$e2c9a8f399964af47bb173600dd9e5f662$__90637d25a4579083903090636352211e90602401602060405180830381865afa1580156114cc573d6000803e3d6000fd5b505050506040513d601f19601f820116820180604052508101906114f091906152da565b6013546040516001600160e01b031960e086901b168152610c849392916001600160a01b031690600d906018906004016155af565b61152f81356132ab565b60135460408051635cebf08d60e11b81528335600482015260208401356024820152908301356044820152606083013560648201526001600160a01b039091166084820152600d60a482015273__$e2c9a8f399964af47bb173600dd9e5f662$__9063b9d7e11a9060c401610c84565b610dc8838383604051806020016040528060008152506125a5565b6000818152600a602052604080822090516115d89160010190615631565b60408051918290039091206000818152600b6020908152838220829055858252600a9052918220828155909250906116136001830182614703565b611621600283016000614703565b50600060038201556004810180546001600160a01b031990811690915560059091018054909116905561165382613642565b5050565b600061166383356132ab565b82356000908152600a60205260408120600301805467131a5b9adb1a5cdd60c21b928592909182906116949061530d565b919050819055905073__$2873850e5b3f5697aafc2f5cd9f27cc884$__6342a34a53878386868a60405160200161138891815260200190565b610dc88383838080601f0160208091040260200160405190810160405280939291908181526020018383808284376000920191909152506136a192505050565b600061171860085490565b821061177b5760405162461bcd60e51b815260206004820152602c60248201527f455243373231456e756d657261626c653a20676c6f62616c20696e646578206f60448201526b7574206f6620626f756e647360a01b6064820152608401610bf9565b6008828154811061178e5761178e6156cd565b90600052602060002001549050919050565b6117aa81356132ab565b60135481356000818152600d60209081526040808320818701358085529083529281902054905163d862986560e01b8152600481019490945290850135602484015260448301919091526001600160a01b039092166064820152608481019190915273__$e2c9a8f399964af47bb173600dd9e5f662$__9063d86298659060a401610c84565b61183a81356132ab565b6040516331a9108f60e11b81528135600482015273__$e2c9a8f399964af47bb173600dd9e5f662$__9063fb0b104f9083903090636352211e90602401602060405180830381865afa158015611894573d6000803e3d6000fd5b505050506040513d601f19601f820116820180604052508101906118b891906152da565b6013546040516001600160e01b031960e086901b168152610c849392916001600160a01b031690600d906018906004016156e3565b6118f684613700565b6119008484613780565b6040516001626802bf60e01b0319815273__$2873850e5b3f5697aafc2f5cd9f27cc884$__9063ff97fd4190611943908790879087908790600e90600401615775565b60006040518083038186803b15801561195b57600080fd5b505af415801561196f573d6000803e3d6000fd5b5050505050505050565b6000818152600260205260408120546001600160a01b031680610aec5760405162461bcd60e51b815260206004820152602960248201527f4552433732313a206f776e657220717565727920666f72206e6f6e657869737460448201526832b73a103a37b5b2b760b91b6064820152608401610bf9565b6119fd6020820182614acf565b6040516331a9108f60e11b8152602083013560048201526001600160a01b039190911690636352211e90602401602060405180830381865afa158015611a47573d6000803e3d6000fd5b505050506040513d601f19601f82011682018060405250810190611a6b91906152da565b6001600160a01b0316336001600160a01b031614611abc5760405162461bcd60e51b815260206004820152600e60248201526d2737ba22a9219b9918a7bbb732b960911b6044820152606401610bf9565b73__$69db18565ecbefece480e92cc5f8fb1274$__63384afeb3611ae36020840184614acf565b6020840135611af86060860160408701614acf565b611b056060870187615201565b60106040518763ffffffff1660e01b8152600401610c8496959493929190615795565b60006001600160a01b038216611b935760405162461bcd60e51b815260206004820152602a60248201527f4552433732313a2062616c616e636520717565727920666f7220746865207a65604482015269726f206164647265737360b01b6064820152608401610bf9565b506001600160a01b031660009081526003602052604090205490565b611bb8826132ab565b611bc28282613780565b6000828152600e60209081526040808320848452825291829020600501805460ff60a81b1916600160a81b179055905182815283917f036469f3e73c83520cdefa197d7a9c854c2f8bc0164b82e9f2bd4aa7e150fd3091015b60405180910390a25050565b6017546000906001600160a01b0316611c4257506001610aec565b60175460405163599d32cd60e01b81526000916001600160a01b03169063599d32cd90611c73908790600401614936565b602060405180830381865afa158015611c90573d6000803e3d6000fd5b505050506040513d601f19601f82011682018060405250810190611cb491906152da565b601754604051630354faeb60e41b81529192506000916001600160a01b039091169063354faeb090611cea908890600401614936565b602060405180830381865afa158015611d07573d6000803e3d6000fd5b505050506040513d601f19601f82011682018060405250810190611d2b91906152da565b9050836001600160a01b0316826001600160a01b03161480611d5e5750836001600160a01b0316816001600160a01b0316145b15611d6e57600192505050610aec565b6001600160a01b038216158015611d8c57506001600160a01b038116155b15611d9c57600192505050610aec565b506000949350505050565b611db181356132ab565b60135481356000908152600d6020908152604080832060608601358452909152908190205490516317e9a8b160e31b815273__$e2c9a8f399964af47bb173600dd9e5f662$__9263bf4d458892610c849286926001600160a01b031691906004016157dc565b600080611e2383611979565b6001600160a01b03166000908152600c60205260409020549290921492915050565b60135460405162fba02760e01b8152600481018390526000916001600160a01b03169062fba02790602401602060405180830381865afa158015611e8d573d6000803e3d6000fd5b505050506040513d601f19601f82011682018060405250810190610aec9190615528565b6000611ebd83356132ab565b82356000908152600a602052604081206003018054664164647265737360c81b926001600160a01b0386169290918290611ef69061530d565b919050819055905073__$2873850e5b3f5697aafc2f5cd9f27cc884$__6342a34a53878386868a604051602001611388919060609190911b6bffffffffffffffffffffffff1916815260140190565b611f4f81356132ab565b60135481356000908152600d6020908152604080832081860135845290915290819020549051633d7f9b3d60e11b815273__$e2c9a8f399964af47bb173600dd9e5f662$__92637aff367a92610c849286926001600160a01b0316919060040161582e565b606060018054610b01906151cc565b611fcc826132ab565b6040516384b44a2f60e01b8152600481018390526001600160a01b0382166024820152600a604482015273__$d8529f0216812a2dec6b96adf1943c3537$__906384b44a2f9060640160006040518083038186803b15801561202d57600080fd5b505af4158015612041573d6000803e3d6000fd5b505050505050565b61205381356132ab565b6040516331a9108f60e11b81528135600482015273__$e2c9a8f399964af47bb173600dd9e5f662$__90632217ec209083903090636352211e90602401602060405180830381865afa1580156120ad573d6000803e3d6000fd5b505050506040513d601f19601f820116820180604052508101906120d191906152da565b6013546040516001600160e01b031960e086901b168152610c849392916001600160a01b031690600d90601890600401615876565b600061211283356132ab565b601354604051635cb46be760e01b81526000600482018190528435602483015260208501356044830152634e6f746560e01b9290916001600160a01b0390911690635cb46be7906064016020604051808303816000875af115801561217b573d6000803e3d6000fd5b505050506040513d601f19601f8201168201806040525081019061219f9190615528565b85356000908152600a602052604081206003018054929350909182906121c49061530d565b919050819055905073__$2873850e5b3f5697aafc2f5cd9f27cc884$__6342a34a53878386868a600001358b60200135604051602001611388929190918252602082015260400190565b61221661473d565b600083836040516122289291906158ea565b604080519182900382206000818152600b602090815283822054808352600a82529184902060c0860190945283548552600184018054939650919493929084019190612273906151cc565b80601f016020809104026020016040519081016040528092919081815260200182805461229f906151cc565b80156122ec5780601f106122c1576101008083540402835291602001916122ec565b820191906000526020600020905b8154815290600101906020018083116122cf57829003601f168201915b50505050508152602001600282018054612305906151cc565b80601f0160208091040260200160405190810160405280929190818152602001828054612331906151cc565b801561237e5780601f106123535761010080835404028352916020019161237e565b820191906000526020600020905b81548152906001019060200180831161236157829003601f168201915b50505091835250506003820154602082015260048201546001600160a01b03908116604083015260059092015490911660609091015295945050505050565b611653338383613835565b6123d1836132ab565b61241682828080601f01602080910402602001604051908101604052809392919081815260200183838082843760009201919091525061079f92508791506119799050565b6124565760405162461bcd60e51b815260206004820152601160248201527048616e646c654e6f74456c696769626c6560781b6044820152606401610bf9565b60405163130f361d60e01b815273__$d8529f0216812a2dec6b96adf1943c3537$__9063130f361d9061249790869086908690600b90600a906004016158fa565b60006040518083038186803b1580156124af57600080fd5b505af415801561145f573d6000803e3d6000fd5b60006124d482356020840135613780565b73__$2873850e5b3f5697aafc2f5cd9f27cc884$__635be69415833560208501356125056060870160408801614acf565b6125126060880188615201565b6014546040516001600160e01b031960e089901b16815261254a9695949392916001600160a01b031690600a90600e90600401615928565b602060405180830381865af4158015611e8d573d6000803e3d6000fd5b600061257383356132ab565b82356000908152600a6020526040812060030180546821b430b930b1ba32b960b91b928592909182906116949061530d565b6125af33836133a6565b6125cb5760405162461bcd60e51b8152600401610bf990615388565b6125d784848484613904565b50505050565b6125e781356132ab565b6125f981602001358260400135613780565b6040516331a9108f60e11b81528135600482015273__$e2c9a8f399964af47bb173600dd9e5f662$__906316fba3cf9083903090636352211e90602401602060405180830381865afa158015612653573d6000803e3d6000fd5b505050506040513d601f19601f8201168201806040525081019061267791906152da565b6013546040516001600160e01b031960e086901b168152610c849392916001600160a01b031690600e90600d90601890600401615976565b6126c06126bb826159fe565b613937565b50565b6126cc826132ab565b6126d68282613780565b6000828152600e60209081526040808320848452825291829020600501805460ff60a01b1916600160a01b179055905182815283917f4f1db9708b537c1d26a7af4b235fd079bf2342d92a276e27eb6c8717e8bbcf939101611c1b565b6000818152600a60205260409020600201805460609190612753906151cc565b80601f016020809104026020016040519081016040528092919081815260200182805461277f906151cc565b80156127cc5780601f106127a1576101008083540402835291602001916127cc565b820191906000526020600020905b8154815290600101906020018083116127af57829003601f168201915b50505050509050919050565b6127e281356132ab565b6127ff6127f56040830160208401614acf565b8260400135613592565b6040516331a9108f60e11b81528135600482015273__$e2c9a8f399964af47bb173600dd9e5f662$__906379eda9fc9083903090636352211e90602401602060405180830381865afa158015612859573d6000803e3d6000fd5b505050506040513d601f19601f8201168201806040525081019061287d91906152da565b6013546040516001600160e01b031960e086901b168152610c849392916001600160a01b031690600d90601890600401615ab1565b6128bc8135613700565b6128cb81356020830135613780565b73__$69db18565ecbefece480e92cc5f8fb1274$__6320828a02823560208401356128fc6060860160408701614acf565b6129096060870187615201565b600e6040518763ffffffff1660e01b8152600401610c8496959493929190615b17565b61293461473d565b600a60008381526020019081526020016000206040518060c00160405290816000820154815260200160018201805461296c906151cc565b80601f0160208091040260200160405190810160405280929190818152602001828054612998906151cc565b80156129e55780601f106129ba576101008083540402835291602001916129e5565b820191906000526020600020905b8154815290600101906020018083116129c857829003601f168201915b505050505081526020016002820180546129fe906151cc565b80601f0160208091040260200160405190810160405280929190818152602001828054612a2a906151cc565b8015612a775780601f10612a4c57610100808354040283529160200191612a77565b820191906000526020600020905b815481529060010190602001808311612a5a57829003601f168201915b50505091835250506003820154602082015260048201546001600160a01b03908116604083015260059092015490911660609091015292915050565b60408051610100808201835260008083526020808401829052606084860181905284018290526080840182905260a0840182905260c0840182905260e08401829052868252600e81528482208683528152908490208451928301855280548352600181015491830191909152600281018054939492939192840191612b37906151cc565b80601f0160208091040260200160405190810160405280929190818152602001828054612b63906151cc565b8015612bb05780601f10612b8557610100808354040283529160200191612bb0565b820191906000526020600020905b815481529060010190602001808311612b9357829003601f168201915b505050918352505060038201546001600160a01b039081166020830152600483015481166040830152600590920154918216606082015260ff600160a01b8304811615156080830152600160a81b909204909116151560a090910152905092915050565b612c1e81356132ab565b612c2d81356020830135613780565b73__$69db18565ecbefece480e92cc5f8fb1274$__631f2ffb69823560208401356128fc6060860160408701614acf565b601354604051632b05429560e21b8152600481018390526060916001600160a01b03169063ac150a5490602401600060405180830381865afa158015612ca8573d6000803e3d6000fd5b505050506040513d6000823e601f3d908101601f19168201604052610aec9190810190615b45565b601454600160a81b900460ff16612cf457601454600160a01b900460ff1615612cf8565b303b155b612d5b5760405162461bcd60e51b815260206004820152602e60248201527f496e697469616c697a61626c653a20636f6e747261637420697320616c72656160448201526d191e481a5b9a5d1a585b1a5e995960921b6064820152608401610bf9565b601454600160a81b900460ff16158015612d85576014805461ffff60a01b191661010160a01b1790555b612d9189898989613a5c565b601380546001600160a01b03199081166001600160a01b0388811691909117909255601480548216878416179055601580548216868416179055601780549091169184169190911790556040514281527f400175a56dd3710794078f7b9dbe8296ac94c5a248dfd51bb22ed4ab9eaa9fbf9060200160405180910390a18015612e22576014805460ff60a81b191690555b505050505050505050565b612e3682613700565b6116538282613aad565b6000818152600a60205260409020600101805460609190612753906151cc565b612e6a81356132ab565b60135481356000908152600d602090815260408083208186013584529091529081902054905163bf5c00c160e01b815273__$e2c9a8f399964af47bb173600dd9e5f662$__9263bf5c00c192610c849286926001600160a01b03169190600401615bb2565b612ed8816132ab565b336000818152600c602052604080822080549085905590519092839285927fce95332e6082aebeb8058a7b56d1a109f67d6550552ed04d36aca4a6acd4d7de9190a45050565b6000612f2a84356132ab565b601354604051633610bf0960e11b815265416e7955726960d01b916000916001600160a01b0390911690636c217e1290612f6c9084908990899060040161558c565b6020604051808303816000875af1158015612f8b573d6000803e3d6000fd5b505050506040513d601f19601f82011682018060405250810190612faf9190615528565b86356000908152600a60205260408120600301805492935090918290612fd49061530d565b919050819055905073__$2873850e5b3f5697aafc2f5cd9f27cc884$__6342a34a53888386868b8b60405160200161300d9291906158ea565b604051602081830303815290604052600e6040518763ffffffff1660e01b815260040161303f96959493929190615541565b60006040518083038186803b15801561305757600080fd5b505af415801561306b573d6000803e3d6000fd5b50929998505050505050505050565b6126c0813561308f6040840160208501614acf565b836040013560405180604001604052806002815260200161060f60f31b815250613b11565b6130be81356132ab565b73__$d8529f0216812a2dec6b96adf1943c3537$__631dc8313382356130ea6040850160208601614acf565b6130f76040860186615201565b86356000908152600a60205260409081902090516001600160e01b031960e088901b168152610c849594939291906004016152af565b60006001600160e01b031982166380ac58cd60e01b148061315e57506001600160e01b03198216635b5e139f60e01b145b80610aec57506301ffc9a760e01b6001600160e01b0319831614610aec565b600081815260046020526040902080546001600160a01b0319166001600160a01b03841690811790915581906131b282611979565b6001600160a01b03167f8c5be1e5ebec7d5bd14f71427d1e84f3dd0314c0f7b2291e5b200ac8c7c3b92560405160405180910390a45050565b6013546040516331a9108f60e11b8152600481018390526001600160a01b0390911690636352211e90602401602060405180830381865afa158015613234573d6000803e3d6000fd5b505050506040513d601f19601f8201168201806040525081019061325891906152da565b6001600160a01b0316336001600160a01b0316146126c05760405162461bcd60e51b815260206004820152601060248201526f2737ba2634b735a634b9ba27bbb732b960811b6044820152606401610bf9565b60006132b682611979565b9050336001600160a01b03821614806132e557506000828152601660205260409020546001600160a01b031633145b8061330d5750326001600160a01b03821614801561330d57506015546001600160a01b031633145b6116535760405162461bcd60e51b81526020600482015260116024820152702737ba21b430b930b1ba32b927bbb732b960791b6044820152606401610bf9565b6000818152600260205260409020546001600160a01b03166126c05760405162461bcd60e51b81526020600482015260126024820152714368617261637465724e6f7445786973747360701b6044820152606401610bf9565b6000818152600260205260408120546001600160a01b031661341f5760405162461bcd60e51b815260206004820152602c60248201527f4552433732313a206f70657261746f7220717565727920666f72206e6f6e657860448201526b34b9ba32b73a103a37b5b2b760a11b6064820152608401610bf9565b600061342a83611979565b9050806001600160a01b0316846001600160a01b031614806134655750836001600160a01b031661345a84610b84565b6001600160a01b0316145b8061349557506001600160a01b0380821660009081526005602090815260408083209388168352929052205460ff165b949350505050565b60008181526018602052604081206134b490613d9a565b905060005b8151811015613586576000838152600d60205260408120835182908590859081106134e6576134e66156cd565b60209081029190910181015182528101919091526040908101600020546013549151632142170760e11b81526001600160a01b0389811660048301528881166024830152604482018390529193509116906342842e0e90606401600060405180830381600087803b15801561355a57600080fd5b505af115801561356e573d6000803e3d6000fd5b5050505050808061357e9061530d565b9150506134b9565b506125d7848484613da5565b6040516331a9108f60e11b8152600481018290526001600160a01b03831690636352211e90602401602060405180830381865afa1580156135d7573d6000803e3d6000fd5b505050506040513d601f19601f820116820180604052508101906135fb91906152da565b6001600160a01b03166116535760405162461bcd60e51b815260206004820152600f60248201526e5245433732314e6f7445786973747360881b6044820152606401610bf9565b61364c33826133a6565b6136985760405162461bcd60e51b815260206004820152601b60248201527f4e4654426173653a204e6f744f776e65724f72417070726f76656400000000006044820152606401610bf9565b6126c081613f4c565b6136aa826132ab565b6000828152600a6020908152604090912082516136cf92600290920191840190614785565b50817f17d7c9f69270ba135480ef16837f38b9d37d3ab291cbd3ba03982290c663199782604051611c1b9190614936565b600061370b82611979565b9050336001600160a01b038216148061330d5750326001600160a01b03821614801561330d57506015546001600160a01b031633146116535760405162461bcd60e51b81526020600482015260116024820152702737ba21b430b930b1ba32b927bbb732b960791b6044820152606401610bf9565b6000828152600e60209081526040808320848452909152902060050154600160a01b900460ff16156137e45760405162461bcd60e51b815260206004820152600d60248201526c139bdd19525cd1195b195d1959609a1b6044820152606401610bf9565b6000828152600a60205260409020600301548111156116535760405162461bcd60e51b815260206004820152600d60248201526c4e6f74654e6f7445786973747360981b6044820152606401610bf9565b816001600160a01b0316836001600160a01b031614156138975760405162461bcd60e51b815260206004820152601960248201527f4552433732313a20617070726f766520746f2063616c6c6572000000000000006044820152606401610bf9565b6001600160a01b03838116600081815260056020908152604080832094871680845294825291829020805460ff191686151590811790915591519182527f17307eab39ab6107e8899845ad3d59bd9653f200f220920489ca2b5937696c31910160405180910390a3505050565b61390f84848461349d565b61391b84848484613ff3565b6125d75760405162461bcd60e51b8152600401610bf990615c0a565b61394981602001518260000151611c27565b6139895760405162461bcd60e51b815260206004820152601160248201527048616e646c654e6f74456c696769626c6560781b6044820152606401610bf9565b601254613997906001615c5c565b601281905581516139a7916140f1565b601254604051632902741560e01b815273__$d8529f0216812a2dec6b96adf1943c3537$__916329027415916139eb91859160019190600b90600a90600401615c74565b60006040518083038186803b158015613a0357600080fd5b505af4158015613a17573d6000803e3d6000fd5b505082516001600160a01b03166000908152600c6020526040902054151591506126c090505760125490516001600160a01b03166000908152600c6020526040902055565b613a688484848461423f565b7f414cd0b34676984f09a5f76ce9718d4062e50283abe0e7e274a9a5b4e0c99c308484848442604051613a9f959493929190615d1d565b60405180910390a150505050565b60008281526016602090815260409182902080546001600160a01b0319166001600160a01b038516908117909155915142815284917f691b92a93c526c4f5a357e56a33c33f6250f94e19e6c49be805800615c414931910160405180910390a35050565b613b1a846132ab565b6001600160a01b0383166000908152600c602052604090205415613b965760405162461bcd60e51b815260206004820152602d60248201527f546172676574206164647265737320616c726561647920686173207072696d6160448201526c393c9031b430b930b1ba32b91760991b6064820152608401610bf9565b6000601260008154613ba79061530d565b91829055509050613bb884826140f1565b73__$d8529f0216812a2dec6b96adf1943c3537$__63290274156040518060a00160405280876001600160a01b03168152602001613c00886001600160a01b03166014614258565b815260200160405180602001604052806000815250815260200160006001600160a01b0316815260200160405180602001604052806000815250815250600084600b600a6040518663ffffffff1660e01b8152600401613c64959493929190615c74565b60006040518083038186803b158015613c7c57600080fd5b505af4158015613c90573d6000803e3d6000fd5b505050506001600160a01b0384166000908152600c602052604090819020829055516331a9108f60e11b81526004810186905273__$e2c9a8f399964af47bb173600dd9e5f662$__90637f9590a39087908490879087903090636352211e90602401602060405180830381865afa158015613d0f573d6000803e3d6000fd5b505050506040513d601f19601f82011682018060405250810190613d3391906152da565b6013546040516001600160e01b031960e089901b168152613d6e9695949392916001600160a01b031690600090600d90601890600401615d57565b60006040518083038186803b158015613d8657600080fd5b505af4158015612e22573d6000803e3d6000fd5b6060610aec826143fa565b826001600160a01b0316613db882611979565b6001600160a01b031614613e1c5760405162461bcd60e51b815260206004820152602560248201527f4552433732313a207472616e736665722066726f6d20696e636f72726563742060448201526437bbb732b960d91b6064820152608401610bf9565b6001600160a01b038216613e7e5760405162461bcd60e51b8152602060048201526024808201527f4552433732313a207472616e7366657220746f20746865207a65726f206164646044820152637265737360e01b6064820152608401610bf9565b613e89838383614455565b613e9460008261317d565b6001600160a01b0383166000908152600360205260408120805460019290613ebd908490615db5565b90915550506001600160a01b0382166000908152600360205260408120805460019290613eeb908490615c5c565b909155505060008181526002602052604080822080546001600160a01b0319166001600160a01b0386811691821790925591518493918716917fddf252ad1be2c89b69c2b068fc378daa952ba7f163c4a11628f55a4df523b3ef91a4505050565b6000613f5782611979565b9050613f6581600084614455565b613f7060008361317d565b6001600160a01b0381166000908152600360205260408120805460019290613f99908490615db5565b909155505060008281526002602052604080822080546001600160a01b0319169055518391906001600160a01b038416907fddf252ad1be2c89b69c2b068fc378daa952ba7f163c4a11628f55a4df523b3ef908390a45050565b60006001600160a01b0384163b156140e657604051630a85bd0160e11b81526001600160a01b0385169063150b7a0290614037903390899088908890600401615dcc565b6020604051808303816000875af1925050508015614072575060408051601f3d908101601f1916820190925261406f91810190615e09565b60015b6140cc573d8080156140a0576040519150601f19603f3d011682016040523d82523d6000602084013e6140a5565b606091505b5080516140c45760405162461bcd60e51b8152600401610bf990615c0a565b805181602001fd5b6001600160e01b031916630a85bd0160e11b149050613495565b506001949350505050565b6001600160a01b0382166141475760405162461bcd60e51b815260206004820181905260248201527f4552433732313a206d696e7420746f20746865207a65726f20616464726573736044820152606401610bf9565b6000818152600260205260409020546001600160a01b0316156141ac5760405162461bcd60e51b815260206004820152601c60248201527f4552433732313a20746f6b656e20616c7265616479206d696e746564000000006044820152606401610bf9565b6141b860008383614455565b6001600160a01b03821660009081526003602052604081208054600192906141e1908490615c5c565b909155505060008181526002602052604080822080546001600160a01b0319166001600160a01b03861690811790915590518392907fddf252ad1be2c89b69c2b068fc378daa952ba7f163c4a11628f55a4df523b3ef908290a45050565b61424b60008585614809565b50610cb060018383614809565b60606000614267836002615e26565b614272906002615c5c565b6001600160401b0381111561428957614289614cb3565b6040519080825280601f01601f1916602001820160405280156142b3576020820181803683370190505b509050600360fc1b816000815181106142ce576142ce6156cd565b60200101906001600160f81b031916908160001a905350600f60fb1b816001815181106142fd576142fd6156cd565b60200101906001600160f81b031916908160001a9053506000614321846002615e26565b61432c906001615c5c565b90505b60018111156143a4576f181899199a1a9b1b9c1cb0b131b232b360811b85600f1660108110614360576143606156cd565b1a60f81b828281518110614376576143766156cd565b60200101906001600160f81b031916908160001a90535060049490941c9361439d81615e45565b905061432f565b5083156143f35760405162461bcd60e51b815260206004820181905260248201527f537472696e67733a20686578206c656e67746820696e73756666696369656e746044820152606401610bf9565b9392505050565b6060816000018054806020026020016040519081016040528092919081815260200182805480156127cc57602002820191906000526020600020905b8154815260200190600101908083116144365750505050509050919050565b6000818152601660205260409020546001600160a01b03161561447d5761447d816000613aad565b6001600160a01b0383166000908152600c6020526040902054156144b5576001600160a01b0383166000908152600c60205260408120555b610dc88383836001600160a01b0383166145165761451181600880546000838152600960205260408120829055600182018355919091527ff3f7a9fe364faab93b216da50a3214154f22a0a2b415b23a84c8169e8b636ee30155565b614539565b816001600160a01b0316836001600160a01b031614614539576145398382614573565b6001600160a01b03821661455057610dc881614610565b826001600160a01b0316826001600160a01b031614610dc857610dc882826146bf565b6000600161458084611b28565b61458a9190615db5565b6000838152600760205260409020549091508082146145dd576001600160a01b03841660009081526006602090815260408083208584528252808320548484528184208190558352600790915290208190555b5060009182526007602090815260408084208490556001600160a01b039094168352600681528383209183525290812055565b60085460009061462290600190615db5565b6000838152600960205260408120546008805493945090928490811061464a5761464a6156cd565b90600052602060002001549050806008838154811061466b5761466b6156cd565b60009182526020808320909101929092558281526009909152604080822084905585825281205560088054806146a3576146a3615e5c565b6001900381819060005260206000200160009055905550505050565b60006146ca83611b28565b6001600160a01b039093166000908152600660209081526040808320868452825280832085905593825260079052919091209190915550565b50805461470f906151cc565b6000825580601f1061471f575050565b601f0160209004906000526020600020908101906126c0919061487d565b6040518060c001604052806000815260200160608152602001606081526020016000815260200160006001600160a01b0316815260200160006001600160a01b031681525090565b828054614791906151cc565b90600052602060002090601f0160209004810192826147b357600085556147f9565b82601f106147cc57805160ff19168380011785556147f9565b828001600101855582156147f9579182015b828111156147f95782518255916020019190600101906147de565b5061480592915061487d565b5090565b828054614815906151cc565b90600052602060002090601f01602090048101928261483757600085556147f9565b82601f106148505782800160ff198235161785556147f9565b828001600101855582156147f9579182015b828111156147f9578235825591602001919060010190614862565b5b80821115614805576000815560010161487e565b6001600160e01b0319811681146126c057600080fd5b6000602082840312156148ba57600080fd5b81356143f381614892565b6000602082840312156148d757600080fd5b5035919050565b60005b838110156148f95781810151838201526020016148e1565b838111156125d75750506000910152565b600081518084526149228160208601602086016148de565b601f01601f19169290920160200192915050565b6020815260006143f3602083018461490a565b60006060828403121561495b57600080fd5b50919050565b60006020828403121561497357600080fd5b81356001600160401b0381111561498957600080fd5b61349584828501614949565b6001600160a01b03811681146126c057600080fd5b80356149b581614995565b919050565b600080604083850312156149cd57600080fd5b82356149d881614995565b946020939093013593505050565b6000606082840312156149f857600080fd5b6143f38383614949565b60006080828403121561495b57600080fd5b600060208284031215614a2657600080fd5b81356001600160401b03811115614a3c57600080fd5b61349584828501614a02565b600080600060608486031215614a5d57600080fd5b8335614a6881614995565b92506020840135614a7881614995565b929592945050506040919091013590565b600060e0828403121561495b57600080fd5b600060208284031215614aad57600080fd5b81356001600160401b03811115614ac357600080fd5b61349584828501614a89565b600060208284031215614ae157600080fd5b81356143f381614995565b60006040828403121561495b57600080fd5b60008060608385031215614b1157600080fd5b82356001600160401b03811115614b2757600080fd5b614b3385828601614a89565b925050614b438460208501614aec565b90509250929050565b60008083601f840112614b5e57600080fd5b5081356001600160401b03811115614b7557600080fd5b602083019150836020828501011115614b8d57600080fd5b9250929050565b600080600060408486031215614ba957600080fd5b8335925060208401356001600160401b03811115614bc657600080fd5b614bd286828701614b4c565b9497909650939450505050565b600060808284031215614bf157600080fd5b6143f38383614a02565b60008060408385031215614c0e57600080fd5b82356001600160401b03811115614c2457600080fd5b614c3085828601614a89565b95602094909401359450505050565b60008060008060608587031215614c5557600080fd5b843593506020850135925060408501356001600160401b03811115614c7957600080fd5b614c8587828801614b4c565b95989497509550505050565b60008060408385031215614ca457600080fd5b50508035926020909101359150565b634e487b7160e01b600052604160045260246000fd5b60405160a081016001600160401b0381118282101715614ceb57614ceb614cb3565b60405290565b604051601f8201601f191681016001600160401b0381118282101715614d1957614d19614cb3565b604052919050565b60006001600160401b03821115614d3a57614d3a614cb3565b50601f01601f191660200190565b600082601f830112614d5957600080fd5b8135614d6c614d6782614d21565b614cf1565b818152846020838601011115614d8157600080fd5b816020850160208301376000918101602001919091529392505050565b60008060408385031215614db157600080fd5b82356001600160401b03811115614dc757600080fd5b614dd385828601614d48565b9250506020830135614de481614995565b809150509250929050565b60008060408385031215614e0257600080fd5b82356001600160401b03811115614e1857600080fd5b614dd385828601614a89565b60008060408385031215614e3757600080fd5b823591506020830135614de481614995565b60008060208385031215614e5c57600080fd5b82356001600160401b03811115614e7257600080fd5b614e7e85828601614b4c565b90969095509350505050565b60208152815160208201526000602083015160c06040840152614eb060e084018261490a565b90506040840151601f19848303016060850152614ecd828261490a565b91505060608401516080840152608084015160018060a01b0380821660a08601528060a08701511660c086015250508091505092915050565b803580151581146149b557600080fd5b60008060408385031215614f2957600080fd5b8235614f3481614995565b9150614b4360208401614f06565b60008060008060808587031215614f5857600080fd5b8435614f6381614995565b93506020850135614f7381614995565b92506040850135915060608501356001600160401b03811115614f9557600080fd5b614fa187828801614d48565b91505092959194509250565b600060a0828403121561495b57600080fd5b600060208284031215614fd157600080fd5b81356001600160401b03811115614fe757600080fd5b61349584828501614fad565b6020815281516020820152602082015160408201526000604083015161010080606085015261502661012085018361490a565b9150606085015160018060a01b0380821660808701528060808801511660a0870152505060a085015161506460c08601826001600160a01b03169052565b5060c085015180151560e08601525060e0850151801515858301525090949350505050565b60008060008060008060008060c0898b0312156150a557600080fd5b88356001600160401b03808211156150bc57600080fd5b6150c88c838d01614b4c565b909a50985060208b01359150808211156150e157600080fd5b506150ee8b828c01614b4c565b909750955050604089013561510281614995565b9350606089013561511281614995565b9250608089013561512281614995565b915060a089013561513281614995565b809150509295985092959890939650565b6000806040838503121561515657600080fd5b823561516181614995565b91506020830135614de481614995565b60008060006040848603121561518657600080fd5b83356001600160401b038082111561519d57600080fd5b6151a987838801614a89565b945060208601359150808211156151bf57600080fd5b50614bd286828701614b4c565b600181811c908216806151e057607f821691505b6020821081141561495b57634e487b7160e01b600052602260045260246000fd5b6000808335601e1984360301811261521857600080fd5b8301803591506001600160401b0382111561523257600080fd5b602001915036819003821315614b8d57600080fd5b81835281816020850137506000828201602090810191909152601f909101601f19169091010190565b6001600160a01b0386811682528516602082015260806040820181905260009061529d9083018587615247565b90508260608301529695505050505050565b8581526001600160a01b038516602082015260806040820181905260009061529d9083018587615247565b6000602082840312156152ec57600080fd5b81516143f381614995565b634e487b7160e01b600052601160045260246000fd5b6000600019821415615321576153216152f7565b5060010190565b60006101208c83528b60208401528a604084015280606084015261534f8184018a8c615247565b6001600160a01b03988916608085015296881660a084015250509290941660c083015260e0820152610100019190915295945050505050565b60208082526031908201527f4552433732313a207472616e736665722063616c6c6572206973206e6f74206f6040820152701ddb995c881b9bdc88185c1c1c9bdd9959607a1b606082015260800190565b6000808335601e198436030181126153f057600080fd5b83016020810192503590506001600160401b0381111561540f57600080fd5b803603831315614b8d57600080fd5b80358252600061543160208301836153d9565b60e0602086015261544660e086018284615247565b915050604083013561545781614995565b6001600160a01b03818116604087015261547460608601866153d9565b92508684036060880152615489848483615247565b9350506080850135915061549c82614995565b1660808501526154af60a08401846153d9565b85830360a08701526154c2838284615247565b925050506154d260c08401614f06565b151560c08501528091505092915050565b60c0815260006154f660c083018861541e565b602083810197909752604083019590955250606081019290925281830360808301526000835260a09091015201919050565b60006020828403121561553a57600080fd5b5051919050565b60c08152600061555460c083018961541e565b8760208401528660408401528560608401528281036080840152615578818661490a565b9150508260a0830152979650505050505050565b8381526040602082015260006155a6604083018486615247565b95945050505050565b60a08152853560a0820152600060208701356155ca81614995565b6001600160a01b0381811660c0850152604089013560e08501526155f160608a018a6153d9565b9250608061010086015261560a61012086018483615247565b98821660208601525095909516604083015250606081019290925260809091015250919050565b600080835481600182811c91508083168061564d57607f831692505b602080841082141561566d57634e487b7160e01b86526022600452602486fd5b8180156156815760018114615692576156bf565b60ff198616895284890196506156bf565b60008a81526020902060005b868110156156b75781548b82015290850190830161569e565b505084890196505b509498975050505050505050565b634e487b7160e01b600052603260045260246000fd5b60a08152853560a082015260006156fd60208801886153d9565b608060c085015261571361012085018284615247565b915050604088013560e084015261572d60608901896153d9565b848303609f1901610100860152615745838284615247565b6001600160a01b03998a166020870152979098166040850152505050606081019290925260809091015292915050565b85815284602082015260806040820152600061529d608083018587615247565b6001600160a01b038781168252602082018790528516604082015260a0606082018190526000906157c99083018587615247565b9050826080830152979650505050505050565b8335815260c0810160208501356157f281614995565b6001600160a01b039081166020840152604086810135908401526060958601359583019590955292909316608084015260a09092019190915290565b8335815260a08101602085013561584481614995565b6001600160a01b0390811660208401526040958601359583019590955292909316606084015260809092019190915290565b60a08152853560a0820152602086013560c0820152604086013560e082015260006158a460608801886153d9565b60806101008501526158bb61012085018284615247565b6001600160a01b0398891660208601529690971660408401525050606081019290925260809091015292915050565b8183823760009101908152919050565b858152608060208201526000615914608083018688615247565b604083019490945250606001529392505050565b888152876020820152600060018060a01b03808916604084015260e0606084015261595760e08401888a615247565b951660808301525060a081019290925260c09091015295945050505050565b60c08152863560c0820152602087013560e08201526040870135610100820152606087013561012082015260006159b060808901896153d9565b60a06101408501526159c761016085018284615247565b6001600160a01b03998a16602086015297909816604084015250506060810193909352608083019190915260a09091015292915050565b600060a08236031215615a1057600080fd5b615a18614cc9565b615a21836149aa565b815260208301356001600160401b0380821115615a3d57600080fd5b615a4936838701614d48565b60208401526040850135915080821115615a6257600080fd5b615a6e36838701614d48565b6040840152615a7f606086016149aa565b60608401526080850135915080821115615a9857600080fd5b50615aa536828601614d48565b60808301525092915050565b60a08152853560a082015260006020870135615acc81614995565b6001600160a01b0381811660c0850152604089013560e08501526060890135610100850152615afe60808a018a6153d9565b925060a061012086015261560a61014086018483615247565b86815285602082015260018060a01b038516604082015260a0606082015260006157c960a083018587615247565b600060208284031215615b5757600080fd5b81516001600160401b03811115615b6d57600080fd5b8201601f81018413615b7e57600080fd5b8051615b8c614d6782614d21565b818152856020838501011115615ba157600080fd5b6155a68260208301602086016148de565b60608152833560608201526000615bcc60208601866153d9565b60606080850152615be160c085018284615247565b60409788013560a08601526001600160a01b039690961660208501525050509092019190915290565b60208082526032908201527f4552433732313a207472616e7366657220746f206e6f6e20455243373231526560408201527131b2b4bb32b91034b6b83632b6b2b73a32b960711b606082015260800190565b60008219821115615c6f57615c6f6152f7565b500190565b60a08152600060018060a01b038088511660a0840152602088015160a060c0850152615ca461014085018261490a565b90506040890151609f19808684030160e0870152615cc2838361490a565b92508360608c01511661010087015260808b0151935080868403016101208701525050615cef818361490a565b92505050615d01602083018715159052565b8460408301528360608301528260808301529695505050505050565b606081526000615d31606083018789615247565b8281036020840152615d44818688615247565b9150508260408301529695505050505050565b60006101208b83528a6020840152896040840152806060840152615d7d8184018a61490a565b6001600160a01b03988916608085015296881660a084015250509290941660c083015260e08201526101000191909152949350505050565b600082821015615dc757615dc76152f7565b500390565b6001600160a01b0385811682528416602082015260408101839052608060608201819052600090615dff9083018461490a565b9695505050505050565b600060208284031215615e1b57600080fd5b81516143f381614892565b6000816000190483118215151615615e4057615e406152f7565b500290565b600081615e5457615e546152f7565b506000190190565b634e487b7160e01b600052603160045260246000fdfea26469706673582212204d32c2c8a4c216f6346f93f76a47bab89893ef764a4922b2d627107cdb1fb8ae64736f6c634300080a0033",
    "linkReferences": {
        "contracts/libraries/CharacterLogic.sol": {
            "CharacterLogic": [
                {
                    "length": 20,
                    "start": 8217
                },
                {
                    "length": 20,
                    "start": 9350
                },
                {
                    "length": 20,
                    "start": 12513
                },
                {
                    "length": 20,
                    "start": 14810
                },
                {
                    "length": 20,
                    "start": 15323
                }
            ]
        },
        "contracts/libraries/LinkLogic.sol": {
            "LinkLogic": [
                {
                    "length": 20,
                    "start": 3699
                },
                {
                    "length": 20,
                    "start": 4088
                },
                {
                    "length": 20,
                    "start": 5289
                },
                {
                    "length": 20,
                    "start": 5534
                },
                {
                    "length": 20,
                    "start": 6191
                },
                {
                    "length": 20,
                    "start": 6257
                },
                {
                    "length": 20,
                    "start": 7685
                },
                {
                    "length": 20,
                    "start": 8098
                },
                {
                    "length": 20,
                    "start": 8330
                },
                {
                    "length": 20,
                    "start": 9776
                },
                {
                    "length": 20,
                    "start": 10294
                },
                {
                    "length": 20,
                    "start": 11965
                },
                {
                    "length": 20,
                    "start": 15590
                }
            ]
        },
        "contracts/libraries/LinkModuleLogic.sol": {
            "LinkModuleLogic": [
                {
                    "length": 20,
                    "start": 3137
                },
                {
                    "length": 20,
                    "start": 3578
                },
                {
                    "length": 20,
                    "start": 6879
                },
                {
                    "length": 20,
                    "start": 10478
                },
                {
                    "length": 20,
                    "start": 11344
                }
            ]
        },
        "contracts/libraries/PostLogic.sol": {
            "PostLogic": [
                {
                    "length": 20,
                    "start": 4435
                },
                {
                    "length": 20,
                    "start": 4941
                },
                {
                    "length": 20,
                    "start": 5823
                },
                {
                    "length": 20,
                    "start": 6451
                },
                {
                    "length": 20,
                    "start": 7969
                },
                {
                    "length": 20,
                    "start": 8687
                },
                {
                    "length": 20,
                    "start": 9463
                },
                {
                    "length": 20,
                    "start": 12287
                }
            ]
        }
    },
    "deployedLinkReferences": {
        "contracts/libraries/CharacterLogic.sol": {
            "CharacterLogic": [
                {
                    "length": 20,
                    "start": 8184
                },
                {
                    "length": 20,
                    "start": 9317
                },
                {
                    "length": 20,
                    "start": 12480
                },
                {
                    "length": 20,
                    "start": 14777
                },
                {
                    "length": 20,
                    "start": 15290
                }
            ]
        },
        "contracts/libraries/LinkLogic.sol": {
            "LinkLogic": [
                {
                    "length": 20,
                    "start": 3666
                },
                {
                    "length": 20,
                    "start": 4055
                },
                {
                    "length": 20,
                    "start": 5256
                },
                {
                    "length": 20,
                    "start": 5501
                },
                {
                    "length": 20,
                    "start": 6158
                },
                {
                    "length": 20,
                    "start": 6224
                },
                {
                    "length": 20,
                    "start": 7652
                },
                {
                    "length": 20,
                    "start": 8065
                },
                {
                    "length": 20,
                    "start": 8297
                },
                {
                    "length": 20,
                    "start": 9743
                },
                {
                    "length": 20,
                    "start": 10261
                },
                {
                    "length": 20,
                    "start": 11932
                },
                {
                    "length": 20,
                    "start": 15557
                }
            ]
        },
        "contracts/libraries/LinkModuleLogic.sol": {
            "LinkModuleLogic": [
                {
                    "length": 20,
                    "start": 3104
                },
                {
                    "length": 20,
                    "start": 3545
                },
                {
                    "length": 20,
                    "start": 6846
                },
                {
                    "length": 20,
                    "start": 10445
                },
                {
                    "length": 20,
                    "start": 11311
                }
            ]
        },
        "contracts/libraries/PostLogic.sol": {
            "PostLogic": [
                {
                    "length": 20,
                    "start": 4402
                },
                {
                    "length": 20,
                    "start": 4908
                },
                {
                    "length": 20,
                    "start": 5790
                },
                {
                    "length": 20,
                    "start": 6418
                },
                {
                    "length": 20,
                    "start": 7936
                },
                {
                    "length": 20,
                    "start": 8654
                },
                {
                    "length": 20,
                    "start": 9430
                },
                {
                    "length": 20,
                    "start": 12254
                }
            ]
        }
    }
}