{
  "_format": "hh-sol-artifact-1",
  "contractName": "Web3Entry",
  "sourceName": "contracts/Web3Entry.sol",
  "abi": [
    {
      "anonymous": false,
      "inputs": [
        {
          "indexed": true,
          "internalType": "address",
          "name": "owner",
          "type": "address"
        },
        {
          "indexed": true,
          "internalType": "address",
          "name": "approved",
          "type": "address"
        },
        {
          "indexed": true,
          "internalType": "uint256",
          "name": "tokenId",
          "type": "uint256"
        }
      ],
      "name": "Approval",
      "type": "event"
    },
    {
      "anonymous": false,
      "inputs": [
        {
          "indexed": true,
          "internalType": "address",
          "name": "owner",
          "type": "address"
        },
        {
          "indexed": true,
          "internalType": "address",
          "name": "operator",
          "type": "address"
        },
        {
          "indexed": false,
          "internalType": "bool",
          "name": "approved",
          "type": "bool"
        }
      ],
      "name": "ApprovalForAll",
      "type": "event"
    },
    {
      "anonymous": false,
      "inputs": [
        {
          "indexed": true,
          "internalType": "address",
          "name": "from",
          "type": "address"
        },
        {
          "indexed": true,
          "internalType": "address",
          "name": "to",
          "type": "address"
        },
        {
          "indexed": true,
          "internalType": "uint256",
          "name": "tokenId",
          "type": "uint256"
        }
      ],
      "name": "Transfer",
      "type": "event"
    },
    {
      "inputs": [
        {
          "internalType": "address",
          "name": "to",
          "type": "address"
        },
        {
          "internalType": "uint256",
          "name": "tokenId",
          "type": "uint256"
        }
      ],
      "name": "approve",
      "outputs": [],
      "stateMutability": "nonpayable",
      "type": "function"
    },
    {
      "inputs": [
        {
          "internalType": "uint256",
          "name": "linklistId",
          "type": "uint256"
        },
        {
          "internalType": "uint256",
          "name": "profileId",
          "type": "uint256"
        }
      ],
      "name": "attachLinklist",
      "outputs": [],
      "stateMutability": "nonpayable",
      "type": "function"
    },
    {
      "inputs": [
        {
          "internalType": "address",
          "name": "owner",
          "type": "address"
        }
      ],
      "name": "balanceOf",
      "outputs": [
        {
          "internalType": "uint256",
          "name": "",
          "type": "uint256"
        }
      ],
      "stateMutability": "view",
      "type": "function"
    },
    {
      "inputs": [
        {
          "components": [
            {
              "internalType": "address",
              "name": "to",
              "type": "address"
            },
            {
              "internalType": "string",
              "name": "handle",
              "type": "string"
            },
            {
              "internalType": "string",
              "name": "uri",
              "type": "string"
            },
            {
              "internalType": "address",
              "name": "linkModule",
              "type": "address"
            },
            {
              "internalType": "bytes",
              "name": "linkModuleInitData",
              "type": "bytes"
            }
          ],
          "internalType": "struct DataTypes.CreateProfileData",
          "name": "vars",
          "type": "tuple"
        }
      ],
      "name": "createProfile",
      "outputs": [],
      "stateMutability": "nonpayable",
      "type": "function"
    },
    {
      "inputs": [
        {
          "internalType": "uint256",
          "name": "fromProfileId",
          "type": "uint256"
        },
        {
          "internalType": "address",
          "name": "to",
          "type": "address"
        },
        {
          "internalType": "bytes32",
          "name": "linkType",
          "type": "bytes32"
        }
      ],
      "name": "createThenLinkProfile",
      "outputs": [],
      "stateMutability": "nonpayable",
      "type": "function"
    },
    {
      "inputs": [
        {
          "internalType": "uint256",
          "name": "linklistId",
          "type": "uint256"
        },
        {
          "internalType": "uint256",
          "name": "profileId",
          "type": "uint256"
        }
      ],
      "name": "detachLinklist",
      "outputs": [],
      "stateMutability": "nonpayable",
      "type": "function"
    },
    {
      "inputs": [
        {
          "internalType": "uint256",
          "name": "tokenId",
          "type": "uint256"
        }
      ],
      "name": "getApproved",
      "outputs": [
        {
          "internalType": "address",
          "name": "",
          "type": "address"
        }
      ],
      "stateMutability": "view",
      "type": "function"
    },
    {
      "inputs": [
        {
          "internalType": "uint256",
          "name": "profileId",
          "type": "uint256"
        }
      ],
      "name": "getHandle",
      "outputs": [
        {
          "internalType": "string",
          "name": "",
          "type": "string"
        }
      ],
      "stateMutability": "view",
      "type": "function"
    },
    {
      "inputs": [
        {
          "internalType": "address",
          "name": "account",
          "type": "address"
        }
      ],
      "name": "getLinkModule4Address",
      "outputs": [
        {
          "internalType": "address",
          "name": "",
          "type": "address"
        }
      ],
      "stateMutability": "view",
      "type": "function"
    },
    {
      "inputs": [
        {
          "internalType": "address",
          "name": "tokenAddress",
          "type": "address"
        },
        {
          "internalType": "uint256",
          "name": "tokenId",
          "type": "uint256"
        }
      ],
      "name": "getLinkModule4ERC721",
      "outputs": [
        {
          "internalType": "address",
          "name": "",
          "type": "address"
        }
      ],
      "stateMutability": "view",
      "type": "function"
    },
    {
      "inputs": [
        {
          "internalType": "uint256",
          "name": "tokenId",
          "type": "uint256"
        }
      ],
      "name": "getLinkModule4Linklist",
      "outputs": [
        {
          "internalType": "address",
          "name": "",
          "type": "address"
        }
      ],
      "stateMutability": "view",
      "type": "function"
    },
    {
      "inputs": [
        {
          "internalType": "uint256",
          "name": "fromProfileId",
          "type": "uint256"
        },
        {
          "internalType": "bytes32",
          "name": "linkType",
          "type": "bytes32"
        }
      ],
      "name": "getLinkingProfileIds",
      "outputs": [
        {
          "internalType": "uint256[]",
          "name": "",
          "type": "uint256[]"
        }
      ],
      "stateMutability": "view",
      "type": "function"
    },
    {
      "inputs": [],
      "name": "getLinklistContract",
      "outputs": [
        {
          "internalType": "address",
          "name": "",
          "type": "address"
        }
      ],
      "stateMutability": "view",
      "type": "function"
    },
    {
      "inputs": [
        {
          "internalType": "uint256",
          "name": "profileId",
          "type": "uint256"
        },
        {
          "internalType": "bytes32",
          "name": "linkType",
          "type": "bytes32"
        }
      ],
      "name": "getLinklistUri",
      "outputs": [
        {
          "internalType": "string",
          "name": "",
          "type": "string"
        }
      ],
      "stateMutability": "view",
      "type": "function"
    },
    {
      "inputs": [
        {
          "internalType": "uint256",
          "name": "profileId",
          "type": "uint256"
        },
        {
          "internalType": "uint256",
          "name": "noteId",
          "type": "uint256"
        }
      ],
      "name": "getNote",
      "outputs": [
        {
          "components": [
            {
              "internalType": "bytes32",
              "name": "linkItemType",
              "type": "bytes32"
            },
            {
              "internalType": "uint256",
              "name": "linklistId",
              "type": "uint256"
            },
            {
              "internalType": "bytes32",
              "name": "linkKey",
              "type": "bytes32"
            },
            {
              "internalType": "string",
              "name": "contentUri",
              "type": "string"
            },
            {
              "internalType": "address",
              "name": "linkModule",
              "type": "address"
            },
            {
              "internalType": "address",
              "name": "mintModule",
              "type": "address"
            },
            {
              "internalType": "address",
              "name": "mintNFT",
              "type": "address"
            }
          ],
          "internalType": "struct DataTypes.Note",
          "name": "",
          "type": "tuple"
        }
      ],
      "stateMutability": "view",
      "type": "function"
    },
    {
      "inputs": [
        {
          "internalType": "address",
          "name": "account",
          "type": "address"
        }
      ],
      "name": "getPrimaryProfileId",
      "outputs": [
        {
          "internalType": "uint256",
          "name": "",
          "type": "uint256"
        }
      ],
      "stateMutability": "view",
      "type": "function"
    },
    {
      "inputs": [
        {
          "internalType": "uint256",
          "name": "profileId",
          "type": "uint256"
        }
      ],
      "name": "getProfile",
      "outputs": [
        {
          "components": [
            {
              "internalType": "uint256",
              "name": "profileId",
              "type": "uint256"
            },
            {
              "internalType": "string",
              "name": "handle",
              "type": "string"
            },
            {
              "internalType": "string",
              "name": "uri",
              "type": "string"
            },
            {
              "internalType": "uint256",
              "name": "noteCount",
              "type": "uint256"
            },
            {
              "internalType": "address",
              "name": "socialToken",
              "type": "address"
            },
            {
              "internalType": "address",
              "name": "linkModule",
              "type": "address"
            }
          ],
          "internalType": "struct DataTypes.Profile",
          "name": "",
          "type": "tuple"
        }
      ],
      "stateMutability": "view",
      "type": "function"
    },
    {
      "inputs": [
        {
          "internalType": "string",
          "name": "handle",
          "type": "string"
        }
      ],
      "name": "getProfileByHandle",
      "outputs": [
        {
          "components": [
            {
              "internalType": "uint256",
              "name": "profileId",
              "type": "uint256"
            },
            {
              "internalType": "string",
              "name": "handle",
              "type": "string"
            },
            {
              "internalType": "string",
              "name": "uri",
              "type": "string"
            },
            {
              "internalType": "uint256",
              "name": "noteCount",
              "type": "uint256"
            },
            {
              "internalType": "address",
              "name": "socialToken",
              "type": "address"
            },
            {
              "internalType": "address",
              "name": "linkModule",
              "type": "address"
            }
          ],
          "internalType": "struct DataTypes.Profile",
          "name": "",
          "type": "tuple"
        }
      ],
      "stateMutability": "view",
      "type": "function"
    },
    {
      "inputs": [
        {
          "internalType": "uint256",
          "name": "profileId",
          "type": "uint256"
        }
      ],
      "name": "getProfileUri",
      "outputs": [
        {
          "internalType": "string",
          "name": "",
          "type": "string"
        }
      ],
      "stateMutability": "view",
      "type": "function"
    },
    {
      "inputs": [],
      "name": "getRevision",
      "outputs": [
        {
          "internalType": "uint256",
          "name": "",
          "type": "uint256"
        }
      ],
      "stateMutability": "pure",
      "type": "function"
    },
    {
      "inputs": [
        {
          "internalType": "string",
          "name": "_name",
          "type": "string"
        },
        {
          "internalType": "string",
          "name": "_symbol",
          "type": "string"
        },
        {
          "internalType": "address",
          "name": "_linklistContract",
          "type": "address"
        },
        {
          "internalType": "address",
          "name": "_mintNFTImpl",
          "type": "address"
        }
      ],
      "name": "initialize",
      "outputs": [],
      "stateMutability": "nonpayable",
      "type": "function"
    },
    {
      "inputs": [
        {
          "internalType": "address",
          "name": "owner",
          "type": "address"
        },
        {
          "internalType": "address",
          "name": "operator",
          "type": "address"
        }
      ],
      "name": "isApprovedForAll",
      "outputs": [
        {
          "internalType": "bool",
          "name": "",
          "type": "bool"
        }
      ],
      "stateMutability": "view",
      "type": "function"
    },
    {
      "inputs": [
        {
          "internalType": "uint256",
          "name": "profileId",
          "type": "uint256"
        }
      ],
      "name": "isPrimaryProfile",
      "outputs": [
        {
          "internalType": "bool",
          "name": "",
          "type": "bool"
        }
      ],
      "stateMutability": "view",
      "type": "function"
    },
    {
      "inputs": [
        {
          "internalType": "uint256",
          "name": "fromProfileId",
          "type": "uint256"
        },
        {
          "internalType": "address",
          "name": "ethAddress",
          "type": "address"
        },
        {
          "internalType": "bytes32",
          "name": "linkType",
          "type": "bytes32"
        }
      ],
      "name": "linkAddress",
      "outputs": [],
      "stateMutability": "nonpayable",
      "type": "function"
    },
    {
      "inputs": [
        {
          "internalType": "uint256",
          "name": "fromProfileId",
          "type": "uint256"
        },
        {
          "internalType": "string",
          "name": "toUri",
          "type": "string"
        },
        {
          "internalType": "bytes32",
          "name": "linkType",
          "type": "bytes32"
        }
      ],
      "name": "linkAny",
      "outputs": [],
      "stateMutability": "nonpayable",
      "type": "function"
    },
    {
      "inputs": [
        {
          "internalType": "uint256",
          "name": "fromProfileId",
          "type": "uint256"
        },
        {
          "internalType": "address",
          "name": "tokenAddress",
          "type": "address"
        },
        {
          "internalType": "uint256",
          "name": "tokenId",
          "type": "uint256"
        },
        {
          "internalType": "bytes32",
          "name": "linkType",
          "type": "bytes32"
        }
      ],
      "name": "linkERC721",
      "outputs": [],
      "stateMutability": "nonpayable",
      "type": "function"
    },
    {
      "inputs": [
        {
          "internalType": "uint256",
          "name": "fromProfileId",
          "type": "uint256"
        },
        {
          "internalType": "uint256",
          "name": "toLinkListId",
          "type": "uint256"
        },
        {
          "internalType": "bytes32",
          "name": "linkType",
          "type": "bytes32"
        }
      ],
      "name": "linkLinklist",
      "outputs": [],
      "stateMutability": "nonpayable",
      "type": "function"
    },
    {
      "inputs": [
        {
          "internalType": "uint256",
          "name": "fromProfileId",
          "type": "uint256"
        },
        {
          "internalType": "uint256",
          "name": "toProfileId",
          "type": "uint256"
        },
        {
          "internalType": "uint256",
          "name": "toNoteId",
          "type": "uint256"
        },
        {
          "internalType": "bytes32",
          "name": "linkType",
          "type": "bytes32"
        }
      ],
      "name": "linkNote",
      "outputs": [],
      "stateMutability": "nonpayable",
      "type": "function"
    },
    {
      "inputs": [
        {
          "internalType": "uint256",
          "name": "fromProfileId",
          "type": "uint256"
        },
        {
          "internalType": "uint256",
          "name": "toProfileId",
          "type": "uint256"
        },
        {
          "internalType": "bytes32",
          "name": "linkType",
          "type": "bytes32"
        }
      ],
      "name": "linkProfile",
      "outputs": [],
      "stateMutability": "nonpayable",
      "type": "function"
    },
    {
      "inputs": [
        {
          "internalType": "uint256",
          "name": "fromProfileId",
          "type": "uint256"
        },
        {
          "components": [
            {
              "internalType": "uint256",
              "name": "fromProfileId",
              "type": "uint256"
            },
            {
              "internalType": "uint256",
              "name": "toProfileId",
              "type": "uint256"
            },
            {
              "internalType": "bytes32",
              "name": "linkType",
              "type": "bytes32"
            }
          ],
          "internalType": "struct DataTypes.ProfileLinkStruct",
          "name": "linkData",
          "type": "tuple"
        },
        {
          "internalType": "bytes32",
          "name": "linkType",
          "type": "bytes32"
        }
      ],
      "name": "linkProfileLink",
      "outputs": [],
      "stateMutability": "nonpayable",
      "type": "function"
    },
    {
      "inputs": [
        {
          "internalType": "uint256",
          "name": "profileId",
          "type": "uint256"
        },
        {
          "internalType": "uint256",
          "name": "noteId",
          "type": "uint256"
        },
        {
          "internalType": "address",
          "name": "to",
          "type": "address"
        },
        {
          "internalType": "bytes",
          "name": "mintModuleData",
          "type": "bytes"
        }
      ],
      "name": "mintNote",
      "outputs": [
        {
          "internalType": "uint256",
          "name": "",
          "type": "uint256"
        }
      ],
      "stateMutability": "nonpayable",
      "type": "function"
    },
    {
      "inputs": [],
      "name": "name",
      "outputs": [
        {
          "internalType": "string",
          "name": "",
          "type": "string"
        }
      ],
      "stateMutability": "view",
      "type": "function"
    },
    {
      "inputs": [
        {
          "internalType": "uint256",
          "name": "tokenId",
          "type": "uint256"
        }
      ],
      "name": "ownerOf",
      "outputs": [
        {
          "internalType": "address",
          "name": "",
          "type": "address"
        }
      ],
      "stateMutability": "view",
      "type": "function"
    },
    {
      "inputs": [
        {
          "components": [
            {
              "internalType": "uint256",
              "name": "profileId",
              "type": "uint256"
            },
            {
              "internalType": "string",
              "name": "contentUri",
              "type": "string"
            },
            {
              "internalType": "address",
              "name": "linkModule",
              "type": "address"
            },
            {
              "internalType": "bytes",
              "name": "linkModuleInitData",
              "type": "bytes"
            },
            {
              "internalType": "address",
              "name": "mintModule",
              "type": "address"
            },
            {
              "internalType": "bytes",
              "name": "mintModuleInitData",
              "type": "bytes"
            }
          ],
          "internalType": "struct DataTypes.PostNoteData",
          "name": "noteData",
          "type": "tuple"
        }
      ],
      "name": "postNote",
      "outputs": [
        {
          "internalType": "uint256",
          "name": "",
          "type": "uint256"
        }
      ],
      "stateMutability": "nonpayable",
      "type": "function"
    },
    {
      "inputs": [
        {
          "components": [
            {
              "internalType": "uint256",
              "name": "profileId",
              "type": "uint256"
            },
            {
              "internalType": "string",
              "name": "contentUri",
              "type": "string"
            },
            {
              "internalType": "address",
              "name": "linkModule",
              "type": "address"
            },
            {
              "internalType": "bytes",
              "name": "linkModuleInitData",
              "type": "bytes"
            },
            {
              "internalType": "address",
              "name": "mintModule",
              "type": "address"
            },
            {
              "internalType": "bytes",
              "name": "mintModuleInitData",
              "type": "bytes"
            }
          ],
          "internalType": "struct DataTypes.PostNoteData",
          "name": "noteData",
          "type": "tuple"
        },
        {
          "internalType": "uint256",
          "name": "fromProfileId",
          "type": "uint256"
        },
        {
          "internalType": "address",
          "name": "ethAddress",
          "type": "address"
        },
        {
          "internalType": "bytes32",
          "name": "linkType",
          "type": "bytes32"
        }
      ],
      "name": "postNote4AddressLink",
      "outputs": [
        {
          "internalType": "uint256",
          "name": "",
          "type": "uint256"
        }
      ],
      "stateMutability": "nonpayable",
      "type": "function"
    },
    {
      "inputs": [
        {
          "components": [
            {
              "internalType": "uint256",
              "name": "profileId",
              "type": "uint256"
            },
            {
              "internalType": "string",
              "name": "contentUri",
              "type": "string"
            },
            {
              "internalType": "address",
              "name": "linkModule",
              "type": "address"
            },
            {
              "internalType": "bytes",
              "name": "linkModuleInitData",
              "type": "bytes"
            },
            {
              "internalType": "address",
              "name": "mintModule",
              "type": "address"
            },
            {
              "internalType": "bytes",
              "name": "mintModuleInitData",
              "type": "bytes"
            }
          ],
          "internalType": "struct DataTypes.PostNoteData",
          "name": "noteData",
          "type": "tuple"
        },
        {
          "internalType": "uint256",
          "name": "fromProfileId",
          "type": "uint256"
        },
        {
          "internalType": "string",
          "name": "toUri",
          "type": "string"
        },
        {
          "internalType": "bytes32",
          "name": "linkType",
          "type": "bytes32"
        }
      ],
      "name": "postNote4AnyLink",
      "outputs": [
        {
          "internalType": "uint256",
          "name": "",
          "type": "uint256"
        }
      ],
      "stateMutability": "nonpayable",
      "type": "function"
    },
    {
      "inputs": [
        {
          "components": [
            {
              "internalType": "uint256",
              "name": "profileId",
              "type": "uint256"
            },
            {
              "internalType": "string",
              "name": "contentUri",
              "type": "string"
            },
            {
              "internalType": "address",
              "name": "linkModule",
              "type": "address"
            },
            {
              "internalType": "bytes",
              "name": "linkModuleInitData",
              "type": "bytes"
            },
            {
              "internalType": "address",
              "name": "mintModule",
              "type": "address"
            },
            {
              "internalType": "bytes",
              "name": "mintModuleInitData",
              "type": "bytes"
            }
          ],
          "internalType": "struct DataTypes.PostNoteData",
          "name": "noteData",
          "type": "tuple"
        },
        {
          "internalType": "uint256",
          "name": "fromProfileId",
          "type": "uint256"
        },
        {
          "internalType": "address",
          "name": "tokenAddress",
          "type": "address"
        },
        {
          "internalType": "uint256",
          "name": "tokenId",
          "type": "uint256"
        },
        {
          "internalType": "bytes32",
          "name": "linkType",
          "type": "bytes32"
        }
      ],
      "name": "postNote4ERC721Link",
      "outputs": [
        {
          "internalType": "uint256",
          "name": "",
          "type": "uint256"
        }
      ],
      "stateMutability": "nonpayable",
      "type": "function"
    },
    {
      "inputs": [
        {
          "components": [
            {
              "internalType": "uint256",
              "name": "profileId",
              "type": "uint256"
            },
            {
              "internalType": "string",
              "name": "contentUri",
              "type": "string"
            },
            {
              "internalType": "address",
              "name": "linkModule",
              "type": "address"
            },
            {
              "internalType": "bytes",
              "name": "linkModuleInitData",
              "type": "bytes"
            },
            {
              "internalType": "address",
              "name": "mintModule",
              "type": "address"
            },
            {
              "internalType": "bytes",
              "name": "mintModuleInitData",
              "type": "bytes"
            }
          ],
          "internalType": "struct DataTypes.PostNoteData",
          "name": "noteData",
          "type": "tuple"
        },
        {
          "internalType": "uint256",
          "name": "fromProfileId",
          "type": "uint256"
        },
        {
          "internalType": "uint256",
          "name": "toLinkListId",
          "type": "uint256"
        },
        {
          "internalType": "bytes32",
          "name": "linkType",
          "type": "bytes32"
        }
      ],
      "name": "postNote4LinklistLink",
      "outputs": [
        {
          "internalType": "uint256",
          "name": "",
          "type": "uint256"
        }
      ],
      "stateMutability": "nonpayable",
      "type": "function"
    },
    {
      "inputs": [
        {
          "components": [
            {
              "internalType": "uint256",
              "name": "profileId",
              "type": "uint256"
            },
            {
              "internalType": "string",
              "name": "contentUri",
              "type": "string"
            },
            {
              "internalType": "address",
              "name": "linkModule",
              "type": "address"
            },
            {
              "internalType": "bytes",
              "name": "linkModuleInitData",
              "type": "bytes"
            },
            {
              "internalType": "address",
              "name": "mintModule",
              "type": "address"
            },
            {
              "internalType": "bytes",
              "name": "mintModuleInitData",
              "type": "bytes"
            }
          ],
          "internalType": "struct DataTypes.PostNoteData",
          "name": "noteData",
          "type": "tuple"
        },
        {
          "internalType": "uint256",
          "name": "fromProfileId",
          "type": "uint256"
        },
        {
          "internalType": "uint256",
          "name": "toProfileId",
          "type": "uint256"
        },
        {
          "internalType": "uint256",
          "name": "toNoteId",
          "type": "uint256"
        },
        {
          "internalType": "bytes32",
          "name": "linkType",
          "type": "bytes32"
        }
      ],
      "name": "postNote4NoteLink",
      "outputs": [
        {
          "internalType": "uint256",
          "name": "",
          "type": "uint256"
        }
      ],
      "stateMutability": "nonpayable",
      "type": "function"
    },
    {
      "inputs": [
        {
          "components": [
            {
              "internalType": "uint256",
              "name": "profileId",
              "type": "uint256"
            },
            {
              "internalType": "string",
              "name": "contentUri",
              "type": "string"
            },
            {
              "internalType": "address",
              "name": "linkModule",
              "type": "address"
            },
            {
              "internalType": "bytes",
              "name": "linkModuleInitData",
              "type": "bytes"
            },
            {
              "internalType": "address",
              "name": "mintModule",
              "type": "address"
            },
            {
              "internalType": "bytes",
              "name": "mintModuleInitData",
              "type": "bytes"
            }
          ],
          "internalType": "struct DataTypes.PostNoteData",
          "name": "noteData",
          "type": "tuple"
        },
        {
          "internalType": "uint256",
          "name": "fromProfileId",
          "type": "uint256"
        },
        {
          "internalType": "uint256",
          "name": "toProfileId",
          "type": "uint256"
        },
        {
          "internalType": "bytes32",
          "name": "linkType",
          "type": "bytes32"
        }
      ],
      "name": "postNote4ProfileLink",
      "outputs": [
        {
          "internalType": "uint256",
          "name": "",
          "type": "uint256"
        }
      ],
      "stateMutability": "nonpayable",
      "type": "function"
    },
    {
      "inputs": [
        {
          "internalType": "address",
          "name": "from",
          "type": "address"
        },
        {
          "internalType": "address",
          "name": "to",
          "type": "address"
        },
        {
          "internalType": "uint256",
          "name": "tokenId",
          "type": "uint256"
        }
      ],
      "name": "safeTransferFrom",
      "outputs": [],
      "stateMutability": "nonpayable",
      "type": "function"
    },
    {
      "inputs": [
        {
          "internalType": "address",
          "name": "from",
          "type": "address"
        },
        {
          "internalType": "address",
          "name": "to",
          "type": "address"
        },
        {
          "internalType": "uint256",
          "name": "tokenId",
          "type": "uint256"
        },
        {
          "internalType": "bytes",
          "name": "_data",
          "type": "bytes"
        }
      ],
      "name": "safeTransferFrom",
      "outputs": [],
      "stateMutability": "nonpayable",
      "type": "function"
    },
    {
      "inputs": [
        {
          "internalType": "address",
          "name": "operator",
          "type": "address"
        },
        {
          "internalType": "bool",
          "name": "approved",
          "type": "bool"
        }
      ],
      "name": "setApprovalForAll",
      "outputs": [],
      "stateMutability": "nonpayable",
      "type": "function"
    },
    {
      "inputs": [
        {
          "internalType": "uint256",
          "name": "profileId",
          "type": "uint256"
        },
        {
          "internalType": "string",
          "name": "newHandle",
          "type": "string"
        }
      ],
      "name": "setHandle",
      "outputs": [],
      "stateMutability": "nonpayable",
      "type": "function"
    },
    {
      "inputs": [
        {
          "internalType": "address",
          "name": "account",
          "type": "address"
        },
        {
          "internalType": "address",
          "name": "linkModule",
          "type": "address"
        },
        {
          "internalType": "bytes",
          "name": "linkModuleInitData",
          "type": "bytes"
        }
      ],
      "name": "setLinkModule4Address",
      "outputs": [],
      "stateMutability": "nonpayable",
      "type": "function"
    },
    {
      "inputs": [
        {
          "internalType": "address",
          "name": "tokenAddress",
          "type": "address"
        },
        {
          "internalType": "uint256",
          "name": "tokenId",
          "type": "uint256"
        },
        {
          "internalType": "address",
          "name": "linkModule",
          "type": "address"
        },
        {
          "internalType": "bytes",
          "name": "linkModuleInitData",
          "type": "bytes"
        }
      ],
      "name": "setLinkModule4ERC721",
      "outputs": [],
      "stateMutability": "nonpayable",
      "type": "function"
    },
    {
      "inputs": [
        {
          "internalType": "uint256",
          "name": "linklistId",
          "type": "uint256"
        },
        {
          "internalType": "address",
          "name": "linkModule",
          "type": "address"
        },
        {
          "internalType": "bytes",
          "name": "linkModuleInitData",
          "type": "bytes"
        }
      ],
      "name": "setLinkModule4Linklist",
      "outputs": [],
      "stateMutability": "nonpayable",
      "type": "function"
    },
    {
      "inputs": [
        {
          "internalType": "uint256",
          "name": "profileId",
          "type": "uint256"
        },
        {
          "internalType": "uint256",
          "name": "noteId",
          "type": "uint256"
        },
        {
          "internalType": "address",
          "name": "linkModule",
          "type": "address"
        },
        {
          "internalType": "bytes",
          "name": "linkModuleInitData",
          "type": "bytes"
        }
      ],
      "name": "setLinkModule4Note",
      "outputs": [],
      "stateMutability": "nonpayable",
      "type": "function"
    },
    {
      "inputs": [
        {
          "internalType": "uint256",
          "name": "profileId",
          "type": "uint256"
        },
        {
          "internalType": "address",
          "name": "linkModule",
          "type": "address"
        },
        {
          "internalType": "bytes",
          "name": "linkModuleInitData",
          "type": "bytes"
        }
      ],
      "name": "setLinkModule4Profile",
      "outputs": [],
      "stateMutability": "nonpayable",
      "type": "function"
    },
    {
      "inputs": [
        {
          "internalType": "uint256",
          "name": "linklistId",
          "type": "uint256"
        },
        {
          "internalType": "string",
          "name": "uri",
          "type": "string"
        }
      ],
      "name": "setLinklistUri",
      "outputs": [],
      "stateMutability": "nonpayable",
      "type": "function"
    },
    {
      "inputs": [
        {
          "internalType": "uint256",
          "name": "profileId",
          "type": "uint256"
        },
        {
          "internalType": "uint256",
          "name": "noteId",
          "type": "uint256"
        },
        {
          "internalType": "address",
          "name": "mintModule",
          "type": "address"
        },
        {
          "internalType": "bytes",
          "name": "mintModuleInitData",
          "type": "bytes"
        }
      ],
      "name": "setMintModule4Note",
      "outputs": [],
      "stateMutability": "nonpayable",
      "type": "function"
    },
    {
      "inputs": [
        {
          "internalType": "uint256",
          "name": "profileId",
          "type": "uint256"
        }
      ],
      "name": "setPrimaryProfileId",
      "outputs": [],
      "stateMutability": "nonpayable",
      "type": "function"
    },
    {
      "inputs": [
        {
          "internalType": "uint256",
          "name": "profileId",
          "type": "uint256"
        },
        {
          "internalType": "string",
          "name": "newUri",
          "type": "string"
        }
      ],
      "name": "setProfileUri",
      "outputs": [],
      "stateMutability": "nonpayable",
      "type": "function"
    },
    {
      "inputs": [
        {
          "internalType": "uint256",
          "name": "profileId",
          "type": "uint256"
        },
        {
          "internalType": "address",
          "name": "tokenAddress",
          "type": "address"
        }
      ],
      "name": "setSocialToken",
      "outputs": [],
      "stateMutability": "nonpayable",
      "type": "function"
    },
    {
      "inputs": [
        {
          "internalType": "bytes4",
          "name": "interfaceId",
          "type": "bytes4"
        }
      ],
      "name": "supportsInterface",
      "outputs": [
        {
          "internalType": "bool",
          "name": "",
          "type": "bool"
        }
      ],
      "stateMutability": "view",
      "type": "function"
    },
    {
      "inputs": [],
      "name": "symbol",
      "outputs": [
        {
          "internalType": "string",
          "name": "",
          "type": "string"
        }
      ],
      "stateMutability": "view",
      "type": "function"
    },
    {
      "inputs": [
        {
          "internalType": "uint256",
          "name": "index",
          "type": "uint256"
        }
      ],
      "name": "tokenByIndex",
      "outputs": [
        {
          "internalType": "uint256",
          "name": "",
          "type": "uint256"
        }
      ],
      "stateMutability": "view",
      "type": "function"
    },
    {
      "inputs": [
        {
          "internalType": "address",
          "name": "owner",
          "type": "address"
        },
        {
          "internalType": "uint256",
          "name": "index",
          "type": "uint256"
        }
      ],
      "name": "tokenOfOwnerByIndex",
      "outputs": [
        {
          "internalType": "uint256",
          "name": "",
          "type": "uint256"
        }
      ],
      "stateMutability": "view",
      "type": "function"
    },
    {
      "inputs": [
        {
          "internalType": "uint256",
          "name": "profileId",
          "type": "uint256"
        }
      ],
      "name": "tokenURI",
      "outputs": [
        {
          "internalType": "string",
          "name": "",
          "type": "string"
        }
      ],
      "stateMutability": "view",
      "type": "function"
    },
    {
      "inputs": [],
      "name": "totalSupply",
      "outputs": [
        {
          "internalType": "uint256",
          "name": "",
          "type": "uint256"
        }
      ],
      "stateMutability": "view",
      "type": "function"
    },
    {
      "inputs": [
        {
          "internalType": "address",
          "name": "from",
          "type": "address"
        },
        {
          "internalType": "address",
          "name": "to",
          "type": "address"
        },
        {
          "internalType": "uint256",
          "name": "tokenId",
          "type": "uint256"
        }
      ],
      "name": "transferFrom",
      "outputs": [],
      "stateMutability": "nonpayable",
      "type": "function"
    },
    {
      "inputs": [
        {
          "internalType": "uint256",
          "name": "fromProfileId",
          "type": "uint256"
        },
        {
          "internalType": "address",
          "name": "ethAddress",
          "type": "address"
        },
        {
          "internalType": "bytes32",
          "name": "linkType",
          "type": "bytes32"
        }
      ],
      "name": "unlinkAddress",
      "outputs": [],
      "stateMutability": "nonpayable",
      "type": "function"
    },
    {
      "inputs": [
        {
          "internalType": "uint256",
          "name": "fromProfileId",
          "type": "uint256"
        },
        {
          "internalType": "string",
          "name": "toUri",
          "type": "string"
        },
        {
          "internalType": "bytes32",
          "name": "linkType",
          "type": "bytes32"
        }
      ],
      "name": "unlinkAny",
      "outputs": [],
      "stateMutability": "nonpayable",
      "type": "function"
    },
    {
      "inputs": [
        {
          "internalType": "uint256",
          "name": "fromProfileId",
          "type": "uint256"
        },
        {
          "internalType": "address",
          "name": "tokenAddress",
          "type": "address"
        },
        {
          "internalType": "uint256",
          "name": "tokenId",
          "type": "uint256"
        },
        {
          "internalType": "bytes32",
          "name": "linkType",
          "type": "bytes32"
        }
      ],
      "name": "unlinkERC721",
      "outputs": [],
      "stateMutability": "nonpayable",
      "type": "function"
    },
    {
      "inputs": [
        {
          "internalType": "uint256",
          "name": "fromProfileId",
          "type": "uint256"
        },
        {
          "internalType": "uint256",
          "name": "toLinkListId",
          "type": "uint256"
        },
        {
          "internalType": "bytes32",
          "name": "linkType",
          "type": "bytes32"
        }
      ],
      "name": "unlinkLinklist",
      "outputs": [],
      "stateMutability": "nonpayable",
      "type": "function"
    },
    {
      "inputs": [
        {
          "internalType": "uint256",
          "name": "fromProfileId",
          "type": "uint256"
        },
        {
          "internalType": "uint256",
          "name": "toProfileId",
          "type": "uint256"
        },
        {
          "internalType": "uint256",
          "name": "toNoteId",
          "type": "uint256"
        },
        {
          "internalType": "bytes32",
          "name": "linkType",
          "type": "bytes32"
        }
      ],
      "name": "unlinkNote",
      "outputs": [],
      "stateMutability": "nonpayable",
      "type": "function"
    },
    {
      "inputs": [
        {
          "internalType": "uint256",
          "name": "fromProfileId",
          "type": "uint256"
        },
        {
          "internalType": "uint256",
          "name": "toProfileId",
          "type": "uint256"
        },
        {
          "internalType": "bytes32",
          "name": "linkType",
          "type": "bytes32"
        }
      ],
      "name": "unlinkProfile",
      "outputs": [],
      "stateMutability": "nonpayable",
      "type": "function"
    },
    {
      "inputs": [
        {
          "internalType": "uint256",
          "name": "fromProfileId",
          "type": "uint256"
        },
        {
          "components": [
            {
              "internalType": "uint256",
              "name": "fromProfileId",
              "type": "uint256"
            },
            {
              "internalType": "uint256",
              "name": "toProfileId",
              "type": "uint256"
            },
            {
              "internalType": "bytes32",
              "name": "linkType",
              "type": "bytes32"
            }
          ],
          "internalType": "struct DataTypes.ProfileLinkStruct",
          "name": "linkData",
          "type": "tuple"
        },
        {
          "internalType": "bytes32",
          "name": "linkType",
          "type": "bytes32"
        }
      ],
      "name": "unlinkProfileLink",
      "outputs": [],
      "stateMutability": "nonpayable",
      "type": "function"
    }
  ],
  "bytecode": "0x608060405234801561001057600080fd5b50615ce180620000216000396000f3fe608060405234801561001057600080fd5b50600436106103fc5760003560e01c80636352211e11610215578063b40d5a5711610125578063d36a2dce116100b8578063ec81d19411610087578063ec81d1941461096b578063f08f4f641461097e578063f262bec114610991578063f98839df146109a4578063fe9299fb146109b757600080fd5b8063d36a2dce146108e9578063db491e80146108fc578063e72f208c1461091c578063e985e9c51461092f57600080fd5b8063c387c453116100f4578063c387c4531461089d578063c7009c6b146108b0578063c87b56dd146108c3578063cba4f5cc146108d657600080fd5b8063b40d5a5714610853578063b88d4fde14610866578063bd5f69cb14610879578063c053f6b81461088c57600080fd5b8063862b531c116101a857806395d9fa7d1161017757806395d9fa7d146107f457806395e760101461080757806397550f131461081a578063a22cb4651461082d578063a6e6178d1461084057600080fd5b8063862b531c146107b3578063865be2b9146107c65780638f15b414146107d957806395d89b41146107ec57600080fd5b80637936da0e116101e45780637936da0e146107675780637c392b511461077a5780637e9a82921461078d57806384b7743a146107a057600080fd5b80636352211e1461070e57806363c008751461072157806370a082311461074157806373f1c9291461075457600080fd5b806323b872dd1161031057806342842e0e116102a35780634cab71ec116102725780634cab71ec146106af5780634f6ccce7146106c2578063515d42d2146106d5578063570477fb146106e8578063605787d6146106fb57600080fd5b806342842e0e1461066357806343786783146106765780634af3eb42146106895780634bebcd171461069c57600080fd5b80632c2e0881116102df5780632c2e0881146105fe5780632f745c591461061157806331b9d08c1461062457806333f06ee61461065057600080fd5b806323b872dd146105b257806326540240146105c5578063295cb43e146105d85780632a59de7a146105eb57600080fd5b80630d17b01f1161039357806318160ddd1161036257806318160ddd146105255780631bb4d2311461052d57806321f4f26f146105565780632209d14514610569578063231fcfbe1461059f57600080fd5b80630d17b01f146104e55780630f84fe8c146104f85780631316529d1461050b5780631808dda01461051257600080fd5b8063081812fc116103cf578063081812fc14610466578063095ea7b3146104915780630a871e60146104a45780630c16de10146104c557600080fd5b806301ffc9a7146104015780630336bf551461042957806306f30bc91461043e57806306fdde0314610451575b600080fd5b61041461040f366004614a35565b6109e0565b60405190151581526020015b60405180910390f35b61043c610437366004614a52565b610a0b565b005b61043c61044c366004614ae1565b610b02565b610459610ba8565b6040516104209190614ba2565b610479610474366004614bb5565b610c3a565b6040516001600160a01b039091168152602001610420565b61043c61049f366004614bce565b610cd4565b6104b76104b2366004614c12565b610dea565b604051908152602001610420565b6104d86104d3366004614c7c565b610f4e565b6040516104209190614cbd565b61043c6104f3366004614d39565b6110fd565b61043c610506366004614d39565b6111da565b60016104b7565b61043c610520366004614d71565b611384565b6008546104b7565b6104b761053b366004614d9d565b6001600160a01b03166000908152600c602052604090205490565b6104b7610564366004614dba565b6113a1565b610479610577366004614bce565b6001600160a01b03918216600090815260126020908152604080832093835292905220541690565b61043c6105ad366004614ae1565b61147e565b61043c6105c0366004614e0d565b611591565b6104b76105d3366004614e3d565b6115c2565b61043c6105e6366004614bb5565b611617565b61043c6105f9366004614e9d565b61165d565b61043c61060c366004614eef565b61171f565b6104b761061f366004614bce565b611868565b610479610632366004614d9d565b6001600160a01b039081166000908152601360205260409020541690565b61043c61065e366004614f53565b6118fe565b61043c610671366004614e0d565b611972565b6104b7610684366004614dba565b61198d565b61043c610697366004614d71565b6119d6565b6104b76106aa366004614f9e565b611abc565b6104596106bd366004614ffa565b611b06565b6104b76106d0366004614bb5565b611b93565b61043c6106e3366004614ffa565b611c26565b61043c6106f636600461501c565b611d2e565b61043c610709366004614d39565b611e1f565b61047961071c366004614bb5565b611ee0565b61073461072f366004614ffa565b611f57565b604051610420919061505d565b6104b761074f366004614d9d565b611fe4565b61043c6107623660046150a1565b61206b565b61043c610775366004614ffa565b61208a565b61043c610788366004614f53565b612117565b61043c61079b3660046150de565b61213c565b61043c6107ae3660046150a1565b6122f5565b6104b76107c1366004614ae1565b61230a565b61043c6107d4366004614a52565b6123b0565b61043c6107e7366004615118565b6123ce565b61045961250c565b61043c6108023660046151ac565b61251b565b6104b76108153660046151dc565b6125e9565b61043c610828366004614d71565b61262f565b61043c61083b366004615253565b6126df565b61043c61084e366004614f53565b6126ee565b61043c610861366004614e9d565b6128a2565b61043c6108743660046152f3565b612969565b61043c6108873660046153a1565b61299b565b600e546001600160a01b0316610479565b6104146108ab366004614bb5565b612a98565b61043c6108be36600461501c565b612ac6565b6104596108d1366004614bb5565b612ae8565b6104596108e4366004614bb5565b612b8d565b6104b76108f73660046153db565b612b98565b61090f61090a366004614ffa565b612c62565b604051610420919061540f565b61043c61092a366004615484565b612daf565b61041461093d3660046154ac565b6001600160a01b03918216600090815260056020908152604080832093909416825291909152205460ff1690565b610459610979366004614bb5565b612e52565b6104d861098c366004614bb5565b612e72565b61043c61099f366004615484565b612ff9565b61043c6109b2366004614d71565b6130cd565b6104796109c5366004614bb5565b6000908152601160205260409020546001600160a01b031690565b60006001600160e01b0319821663780e9d6360e01b1480610a055750610a0582613193565b92915050565b610a14846131e3565b610a1d8361324c565b610a2783836132b0565b6000848152600f60209081526040808320848452909152902054610a4b8186613311565b600e546040516281eec360e31b81526004810183905260248101869052604481018590526001600160a01b039091169063040f761890606401600060405180830381600087803b158015610a9e57600080fd5b505af1158015610ab2573d6000803e3d6000fd5b505050508284867fd27a71fc88ac85c4657b81c4d24a9cd9a034971683620f179a19d179fe0a956d8585604051610af3929190918252602082015260400190565b60405180910390a45050505050565b610b0b856131e3565b610b1585856132b0565b6000610b5986868686868080601f0160208091040260200160405190810160405280939291908181526020018383808284376000920191909152506133cc92505050565b9050836001600160a01b031685877f36e973ebf2a1c9c4006aaad244866e6dea9a0e85770deea599b193a9eb51b8f78442604051610b989291906154da565b60405180910390a4505050505050565b606060008054610bb7906154fc565b80601f0160208091040260200160405190810160405280929190818152602001828054610be3906154fc565b8015610c305780601f10610c0557610100808354040283529160200191610c30565b820191906000526020600020905b815481529060010190602001808311610c1357829003601f168201915b5050505050905090565b6000818152600260205260408120546001600160a01b0316610cb85760405162461bcd60e51b815260206004820152602c60248201527f4552433732313a20617070726f76656420717565727920666f72206e6f6e657860448201526b34b9ba32b73a103a37b5b2b760a11b60648201526084015b60405180910390fd5b506000908152600460205260409020546001600160a01b031690565b6000610cdf82611ee0565b9050806001600160a01b0316836001600160a01b03161415610d4d5760405162461bcd60e51b815260206004820152602160248201527f4552433732313a20617070726f76616c20746f2063757272656e74206f776e656044820152603960f91b6064820152608401610caf565b336001600160a01b0382161480610d695750610d69813361093d565b610ddb5760405162461bcd60e51b815260206004820152603860248201527f4552433732313a20617070726f76652063616c6c6572206973206e6f74206f7760448201527f6e6572206e6f7220617070726f76656420666f7220616c6c00000000000000006064820152608401610caf565b610de5838361347e565b505050565b6000610df686356131e3565b610e0084846134ec565b6000858152600f6020908152604080832085845282528083205490516bffffffffffffffffffffffff19606089901b16928101929092526034820186905291694552433732314c696e6b60b01b916054015b60408051601f1981840301815291905280516020918201209150610f41908a3590610e7f908c018c615531565b610e8f60608e0160408f01614d9d565b610e9c60608f018f615531565b8080601f016020809104026020016040519081016040528093929190818152602001838380828437600081840152601f19601f820116905080830192505050505050508e6080016020810190610ef29190614d9d565b8f8060a00190610f029190615531565b8080601f0160208091040260200160405190810160405280939291908181526020018383808284376000920191909152508d92508c91508b90506135aa565b9998505050505050505050565b610f5661493e565b60008383604051610f68929190615577565b604080519182900382206000818152600b602090815283822054808352600a82529184902060c0860190945283548552600184018054939650919493929084019190610fb3906154fc565b80601f0160208091040260200160405190810160405280929190818152602001828054610fdf906154fc565b801561102c5780601f106110015761010080835404028352916020019161102c565b820191906000526020600020905b81548152906001019060200180831161100f57829003601f168201915b50505050508152602001600282018054611045906154fc565b80601f0160208091040260200160405190810160405280929190818152602001828054611071906154fc565b80156110be5780601f10611093576101008083540402835291602001916110be565b820191906000526020600020905b8154815290600101906020018083116110a157829003601f168201915b50505091835250506003820154602082015260048201546001600160a01b03908116604083015260059092015490911660609091015295945050505050565b611106836131e3565b6000838152600f6020908152604080832084845290915290205461112a8185613311565b600e54604051635956da7360e01b8152600481018390526001600160a01b03858116602483015290911690635956da7390604401600060405180830381600087803b15801561117857600080fd5b505af115801561118c573d6000803e3d6000fd5b50505050826001600160a01b0316847f93453451dd1d041ffa18c6c1f3f2e21a6d73c3d8d32deaf595b53a14914c8715846040516111cc91815260200190565b60405180910390a350505050565b6111e3836131e3565b6001600160a01b0382166000908152600c60205260409020541561125d5760405162461bcd60e51b815260206004820152602b60248201527f546172676574206164647265737320616c726561647920686173207072696d6160448201526a393c90383937b334b6329760a91b6064820152608401610caf565b6000600d6000815461126e9061559d565b9182905550905061127f838261387f565b73__$da066dc100670b51e733250a114f607b42$__638353010c6040518060a00160405280866001600160a01b031681526020016112c7876001600160a01b031660146139cd565b815260200160405180602001604052806000815250815260200160006001600160a01b031681526020016040518060200160405280600081525081525083600b600a6040518563ffffffff1660e01b815260040161132894939291906155b8565b60006040518083038186803b15801561134057600080fd5b505af4158015611354573d6000803e3d6000fd5b5050506001600160a01b0384166000908152600c602052604090208290555061137e848284613b6f565b50505050565b61138d836131e3565b6113968261324c565b610de5838383613b6f565b60006113ad85356131e3565b6000848152600f60209081526040808320858452825290912054906a50726f66696c654c696e6b60a81b908590611470908935906113ed908b018b615531565b6113fd60608d0160408e01614d9d565b61140a60608e018e615531565b8080601f016020809104026020016040519081016040528093929190818152602001838380828437600081840152601f19601f820116905080830192505050505050508d60800160208101906114609190614d9d565b8e8060a00190610f029190615531565b93505050505b949350505050565b611487856131e3565b61149185856132b0565b6001600160a01b038316156114d6576000858152601060209081526040808320878452909152902060040180546001600160a01b0319166001600160a01b0385161790555b60405163f033607760e01b81526000906001600160a01b0385169063f03360779061150b908990899088908890600401615678565b6000604051808303816000875af115801561152a573d6000803e3d6000fd5b505050506040513d6000823e601f3d908101601f1916820160405261155291908101906156c8565b9050836001600160a01b031685877f889c6317f76b8527935ed434226767d05f8b7c664d99f6f787e62efd558f6f018442604051610b989291906154da565b61159b3382613c1e565b6115b75760405162461bcd60e51b8152600401610caf90615710565b610de5838383613d11565b60006115ce85356131e3565b6000848152600f60209081526040808320858452825290912054906a416464726573734c696e6b60a81b906001600160a01b03861690611470908935906113ed908b018b615531565b611620816131e3565b336000818152600c6020526040808220849055518392917f444dbf26d795c263ce4e5f2fccaac8e71b73cb37091f74e9e4f76cd98b55f8d391a350565b611666846131e3565b6000611673858333613eb8565b600e54604051631983158760e31b81529192506001600160a01b03169063cc18ac38906116a890849088908890600401615761565b600060405180830381600087803b1580156116c257600080fd5b505af11580156116d6573d6000803e3d6000fd5b50505050847f77c508b3ce1f699c73e46a33df0ab0010d3d5f3e1270839381b85e618aef0fce85858585604051611710949392919061577b565b60405180910390a25050505050565b336001600160a01b038516146117775760405162461bcd60e51b815260206004820152601a60248201527f57656233456e7472793a204e6f74416464726573734f776e65720000000000006044820152606401610caf565b6001600160a01b0384811660009081526013602052604080822080546001600160a01b0319169387169384179055516349e2252d60e01b81529091906349e2252d906117cb908890879087906004016157a2565b6000604051808303816000875af11580156117ea573d6000803e3d6000fd5b505050506040513d6000823e601f3d908101601f1916820160405261181291908101906156c8565b9050836001600160a01b0316856001600160a01b03167f7685796f9ddd10aa092582edf9c2a9ea78db9685e6f997342b6ab22268a730d883426040516118599291906154da565b60405180910390a35050505050565b600061187383611fe4565b82106118d55760405162461bcd60e51b815260206004820152602b60248201527f455243373231456e756d657261626c653a206f776e657220696e646578206f7560448201526a74206f6620626f756e647360a81b6064820152608401610caf565b506001600160a01b03919091166000908152600660209081526040808320938352929052205490565b61190783613fd2565b600e54604051633c17845760e11b81526001600160a01b039091169063782f08ae9061193b90869086908690600401615761565b600060405180830381600087803b15801561195557600080fd5b505af1158015611969573d6000803e3d6000fd5b50505050505050565b610de583838360405180602001604052806000815250612969565b600061199985356131e3565b6000848152600f6020908152604080832085845282529091205490674c6973744c696e6b60c01b908590611470908935906113ed908b018b615531565b6119df836131e3565b6119e88261324c565b6000838152600f60209081526040808320848452909152902054611a0c8185613311565b600e546040516391e5454b60e01b815260048101839052602481018590526001600160a01b03909116906391e5454b90604401600060405180830381600087803b158015611a5957600080fd5b505af1158015611a6d573d6000803e3d6000fd5b505050508284336001600160a01b03167f08a14b775e42bf92e94f9d72aba57ad213485e0c20e373c9f5dd161fb81890a285604051611aae91815260200190565b60405180910390a450505050565b6000611ac886356131e3565b6000858152600f60209081526040808320858452825280832054815192830188905290820186905291674e6f74654c696e6b60c01b91606001610e52565b6000828152600f602090815260408083208484529091529081902054600e549151632b05429560e21b8152600481018290526060926001600160a01b03169063ac150a5490602401600060405180830381865afa158015611b6b573d6000803e3d6000fd5b505050506040513d6000823e601f3d908101601f1916820160405261147691908101906156c8565b6000611b9e60085490565b8210611c015760405162461bcd60e51b815260206004820152602c60248201527f455243373231456e756d657261626c653a20676c6f62616c20696e646578206f60448201526b7574206f6620626f756e647360a01b6064820152608401610caf565b60088281548110611c1457611c146157c7565b90600052602060002001549050919050565b600e5460405162fba02760e01b8152600481018490526000916001600160a01b03169062fba02790602401602060405180830381865afa158015611c6e573d6000803e3d6000fd5b505050506040513d601f19601f82011682018060405250810190611c9291906157dd565b6000838152600f6020908152604080832084845290915290205490915015611d085760405162461bcd60e51b815260206004820152602360248201527f53616d652074797065206c696e6b6c69737420616c726561647920657869737460448201526232b21760e91b6064820152608401610caf565b611d12838361409f565b6000918252600f60209081526040808420928452919052902055565b611d37836131e3565b6000838152600f60209081526040808320848452909152902054611d5b8185613311565b600e5460408051630e14bb7560e31b81526004810184905285356024820152602086013560448201529085013560648201526001600160a01b03909116906370a5dba890608401600060405180830381600087803b158015611dbc57600080fd5b505af1158015611dd0573d6000803e3d6000fd5b505060408051863581526020808801359082015281870135918101919091528492508691507f90fe9f3bf41416d9a567460a40443ef7aea47220fa342bc0e07fd01c93ffc7e1906060016111cc565b611e28836131e3565b6000611e35848333613eb8565b600e5460405163ed386e6560e01b8152600481018390526001600160a01b03868116602483015292935091169063ed386e6590604401600060405180830381600087803b158015611e8557600080fd5b505af1158015611e99573d6000803e3d6000fd5b505060408051858152602081018590526001600160a01b03871693508792507f3dad60a88f1d8ee170dfbeb8c65c705bd47922f205e774e10e49e4e53d93a8bd91016111cc565b6000818152600260205260408120546001600160a01b031680610a055760405162461bcd60e51b815260206004820152602960248201527f4552433732313a206f776e657220717565727920666f72206e6f6e657869737460448201526832b73a103a37b5b2b760b91b6064820152608401610caf565b6000828152600f602090815260408083208484529091529081902054600e54915163a72d231760e01b8152600481018290526060926001600160a01b03169063a72d231790602401600060405180830381865afa158015611fbc573d6000803e3d6000fd5b505050506040513d6000823e601f3d908101601f1916820160405261147691908101906157f6565b60006001600160a01b03821661204f5760405162461bcd60e51b815260206004820152602a60248201527f4552433732313a2062616c616e636520717565727920666f7220746865207a65604482015269726f206164647265737360b01b6064820152608401610caf565b506001600160a01b031660009081526003602052604090205490565b612074846131e3565b61207e83836134ec565b61137e84848484614117565b600e5460405162fba02760e01b8152600481018490526000916001600160a01b03169062fba02790602401602060405180830381865afa1580156120d2573d6000803e3d6000fd5b505050506040513d601f19601f820116820180604052508101906120f691906157dd565b6000928352600f602090815260408085209285529190528220919091555050565b612120836131e3565b6000838152600a6020526040902061137e906002018383614986565b6040516331a9108f60e11b8152600481018590526001600160a01b03861690636352211e90602401602060405180830381865afa158015612181573d6000803e3d6000fd5b505050506040513d601f19601f820116820180604052508101906121a5919061589b565b6001600160a01b0316336001600160a01b0316146122055760405162461bcd60e51b815260206004820152601e60248201527f57656233456e7472793a204e6f74455243373231546f6b656e4f776e657200006044820152606401610caf565b6001600160a01b03858116600090815260126020908152604080832088845290915280822080546001600160a01b031916938716938417905551630378cd8b60e61b815290919063de3362c0906122669089908990889088906004016158b8565b6000604051808303816000875af1158015612285573d6000803e3d6000fd5b505050506040513d6000823e601f3d908101601f191682016040526122ad91908101906156c8565b9050836001600160a01b031685876001600160a01b03167fd0411ae508eec872740a07b3a8da69f9a925547a40bbbdb612971a050c61e19e8442604051610b989291906154da565b6122fe846131e3565b61137e848484846141d9565b601454604051630f37153360e31b815260009173__$1e68a60ae0444699fe08192a29ecc09930$__916379b8a99891612365918a918a918a918a918a916201000090046001600160a01b031690600a906010906004016158e0565b602060405180830381865af4158015612382573d6000803e3d6000fd5b505050506040513d601f19601f820116820180604052508101906123a691906157dd565b9695505050505050565b6123b9846131e3565b6123c28361324c565b61137e848484846142b0565b601454610100900460ff166123e95760145460ff16156123ed565b303b155b6124505760405162461bcd60e51b815260206004820152602e60248201527f496e697469616c697a61626c653a20636f6e747261637420697320616c72656160448201526d191e481a5b9a5d1a585b1a5e995960921b6064820152608401610caf565b601454610100900460ff16158015612472576014805461ffff19166101011790555b61247e87878787614367565b600e80546001600160a01b0319166001600160a01b03858116919091179091556014805462010000600160b01b03191662010000928516929092029190911790556040514281527f400175a56dd3710794078f7b9dbe8296ac94c5a248dfd51bb22ed4ab9eaa9fbf9060200160405180910390a18015611969576014805461ff001916905550505050505050565b606060018054610bb7906154fc565b612524826131e3565b6000828152600a60205260409020600401546001600160a01b03161561258c5760405162461bcd60e51b815260206004820152601c60248201527f57656233456e7472793a20536f6369616c546f6b656e457869737473000000006044820152606401610caf565b6000828152600a602052604080822060040180546001600160a01b0319166001600160a01b03851690811790915590519091849133917f276c2d4b7f7beaa1847ff9c41b9d2e0e57482efe8051eea98eea653bfca3ac4591a45050565b60006125f586356131e3565b6000858152600f602090815260408083208584528252808320549051909266416e794c696e6b60c81b929091610e5291899189910161592e565b612638836131e3565b6000612645848333613eb8565b600e546040516360e6a7c160e11b815260048101839052602481018690529192506001600160a01b03169063c1cd4f8290604401600060405180830381600087803b15801561269357600080fd5b505af11580156126a7573d6000803e3d6000fd5b505050508083857f2e398bc911c0eb636118bc7906bdfa98b2ccf6ef7ee76e3f07068d0eee488e3f85604051611aae91815260200190565b6126ea3383836143b8565b5050565b6126f7836131e3565b60008282604051612709929190615577565b60405180910390209050600b6000828152602001908152602001600020546000146127765760405162461bcd60e51b815260206004820152601760248201527f57656233456e7472793a2048616e646c654578697374730000000000000000006044820152606401610caf565b6000848152600a602052604081206001018054612792906154fc565b80601f01602080910402602001604051908101604052809291908181526020018280546127be906154fc565b801561280b5780601f106127e05761010080835404028352916020019161280b565b820191906000526020600020905b8154815290600101906020018083116127ee57829003601f168201915b505083516020808601919091206000818152600b835260408082208290558982528082208d90558c8252600a90935291909120949550936128559350600101915087905086614986565b5085336001600160a01b03167f9d175e377ed0c2f6df0cefe4efe069e62eaa3dad046bb8c88e293a776c3cf96e8787604051612892929190615951565b60405180910390a3505050505050565b6128ab846131e3565b6000848152600f602090815260408083208484529091529020546128cf8186613311565b600e546040516308e013fb60e41b81526001600160a01b0390911690638e013fb09061290390849088908890600401615761565b600060405180830381600087803b15801561291d57600080fd5b505af1158015612931573d6000803e3d6000fd5b50505050847f30c740190e772199ffeb095b72d8a53da7bbd09a55668530ee288e33b28ecebd85858560405161171093929190615965565b6129733383613c1e565b61298f5760405162461bcd60e51b8152600401610caf90615710565b61137e84848484614487565b600d546129a99060016144ba565b600d556129c46129bc6020830183614d9d565b600d5461387f565b600d546040516320d4c04360e21b815273__$da066dc100670b51e733250a114f607b42$__91638353010c91612a04918591600b90600a906004016159ce565b60006040518083038186803b158015612a1c57600080fd5b505af4158015612a30573d6000803e3d6000fd5b50600c925060009150612a4890506020840184614d9d565b6001600160a01b03168152602081019190915260400160002054612a9557600d54600c6000612a7a6020850185614d9d565b6001600160a01b031681526020810191909152604001600020555b50565b600080612aa483611ee0565b6001600160a01b03166000908152600c60205260409020549290921492915050565b612acf836131e3565b610de58382612ae336869003860186615a9d565b6144c6565b6000818152600a60205260409020600201805460609190612b08906154fc565b80601f0160208091040260200160405190810160405280929190818152602001828054612b34906154fc565b8015612b815780601f10612b5657610100808354040283529160200191612b81565b820191906000526020600020905b815481529060010190602001808311612b6457829003601f168201915b50505050509050919050565b6060610a0582612ae8565b6000612ba482356131e3565b610a058235612bb66020850185615531565b612bc66060870160408801614d9d565b612bd36060880188615531565b8080601f016020809104026020016040519081016040528093929190818152602001838380828437600092019190915250612c189250505060a0890160808a01614d9d565b612c2560a08a018a615531565b8080601f016020809104026020016040519081016040528093929190818152602001838380828437600092018290525092508291508190506135aa565b6040805160e0810182526000808252602082018190529181018290526060808201526080810182905260a0810182905260c08101919091526010600084815260200190815260200160002060008381526020019081526020016000206040518060e0016040529081600082015481526020016001820154815260200160028201548152602001600382018054612cf7906154fc565b80601f0160208091040260200160405190810160405280929190818152602001828054612d23906154fc565b8015612d705780601f10612d4557610100808354040283529160200191612d70565b820191906000526020600020905b815481529060010190602001808311612d5357829003601f168201915b505050918352505060048201546001600160a01b0390811660208301526005830154811660408301526006909201549091166060909101529392505050565b612db8846131e3565b6000848152600a60205260409020600501546001600160a01b0384811691161461137e57604051630c1730b560e41b815273__$da066dc100670b51e733250a114f607b42$__9063c1730b5090612e1c908790879087908790600a90600401615af8565b60006040518083038186803b158015612e3457600080fd5b505af4158015612e48573d6000803e3d6000fd5b5050505050505050565b6000818152600a60205260409020600101805460609190612b08906154fc565b612e7a61493e565b600a60008381526020019081526020016000206040518060c001604052908160008201548152602001600182018054612eb2906154fc565b80601f0160208091040260200160405190810160405280929190818152602001828054612ede906154fc565b8015612f2b5780601f10612f0057610100808354040283529160200191612f2b565b820191906000526020600020905b815481529060010190602001808311612f0e57829003601f168201915b50505050508152602001600282018054612f44906154fc565b80601f0160208091040260200160405190810160405280929190818152602001828054612f70906154fc565b8015612fbd5780601f10612f9257610100808354040283529160200191612fbd565b820191906000526020600020905b815481529060010190602001808311612fa057829003601f168201915b50505091835250506003820154602082015260048201546001600160a01b03908116604083015260059092015490911660609091015292915050565b60008481526011602052604080822080546001600160a01b0319166001600160a01b038716908117909155905163035aa84b60e41b81526335aa84b09061304890889087908790600401615761565b6000604051808303816000875af1158015613067573d6000803e3d6000fd5b505050506040513d6000823e601f3d908101601f1916820160405261308f91908101906156c8565b9050836001600160a01b0316857f63dbee1d4ec714c8d35de5e060e27c372b6a409081cdb917c86ea48fdad89b4b83426040516118599291906154da565b6130d6836131e3565b6000838152600f602090815260408083208484529091529020546130fa8185613311565b600e5460405163c70881c560e01b815260048101839052602481018590526001600160a01b039091169063c70881c590604401600060405180830381600087803b15801561314757600080fd5b505af115801561315b573d6000803e3d6000fd5b505050508083857f6fbf599841dedc952cdfb5ee854ae5cc0e4cdedf58097101bc0104597b75e10885604051611aae91815260200190565b60006001600160e01b031982166380ac58cd60e01b14806131c457506001600160e01b03198216635b5e139f60e01b145b80610a0557506301ffc9a760e01b6001600160e01b0319831614610a05565b6131ec81611ee0565b6001600160a01b0316336001600160a01b031614612a955760405162461bcd60e51b815260206004820152601a60248201527f57656233456e7472793a204e6f7450726f66696c654f776e65720000000000006044820152606401610caf565b6000818152600260205260409020546001600160a01b0316612a955760405162461bcd60e51b815260206004820152601b60248201527f57656233456e7472793a2050726f66696c654e6f7445786973747300000000006044820152606401610caf565b6000828152600a60205260409020600301548111156126ea5760405162461bcd60e51b815260206004820152601860248201527f57656233456e7472793a204e6f74654e6f7445786973747300000000000000006044820152606401610caf565b600e5460405163124fe93760e21b8152600481018490526001600160a01b039091169063493fa4dc90602401602060405180830381865afa15801561335a573d6000803e3d6000fd5b505050506040513d601f19601f8201168201806040525081019061337e91906157dd565b81146126ea5760405162461bcd60e51b815260206004820152601e60248201527f57656233456e7472793a20756e6174746163686564206c696e6b4c69737400006044820152606401610caf565b60008481526010602090815260408083208684529091529081902060050180546001600160a01b0319166001600160a01b0385169081179091559051633ee9bd4f60e11b815260609190637dd37a9e9061342e90889088908790600401615b35565b6000604051808303816000875af115801561344d573d6000803e3d6000fd5b505050506040513d6000823e601f3d908101601f1916820160405261347591908101906156c8565b95945050505050565b600081815260046020526040902080546001600160a01b0319166001600160a01b03841690811790915581906134b382611ee0565b6001600160a01b03167f8c5be1e5ebec7d5bd14f71427d1e84f3dd0314c0f7b2291e5b200ac8c7c3b92560405160405180910390a45050565b6040516331a9108f60e11b8152600481018290526001600160a01b03831690636352211e90602401602060405180830381865afa158015613531573d6000803e3d6000fd5b505050506040513d601f19601f82011682018060405250810190613555919061589b565b6001600160a01b03166126ea5760405162461bcd60e51b815260206004820152601a60248201527f57656233456e7472793a205245433732314e6f744578697374730000000000006044820152606401610caf565b60008a8152600a60205260408120600301805482919082906135cb9061559d565b9182905550905083156136025760008c81526010602090815260408083208484529091529020848155600181018690556002018390555b60008c81526010602090815260408083208484529091529020613629906003018c8c614986565b5088601060008e8152602001908152602001600020600083815260200190815260200160002060040160006101000a8154816001600160a01b0302191690836001600160a01b0316021790555086601060008e8152602001908152602001600020600083815260200190815260200160002060050160006101000a8154816001600160a01b0302191690836001600160a01b03160217905550606060006001600160a01b03168a6001600160a01b03161461375857896001600160a01b031663f03360778e848c6040518463ffffffff1660e01b815260040161370e93929190615b35565b6000604051808303816000875af115801561372d573d6000803e3d6000fd5b505050506040513d6000823e601f3d908101601f1916820160405261375591908101906156c8565b90505b60606001600160a01b038916156137e357886001600160a01b0316637dd37a9e8f858b6040518463ffffffff1660e01b815260040161379993929190615b35565b6000604051808303816000875af11580156137b8573d6000803e3d6000fd5b505050506040513d6000823e601f3d908101601f191682016040526137e091908101906156c8565b90505b8a6001600160a01b0316838f7f889c6317f76b8527935ed434226767d05f8b7c664d99f6f787e62efd558f6f0185426040516138209291906154da565b60405180910390a4886001600160a01b0316838f7f36e973ebf2a1c9c4006aaad244866e6dea9a0e85770deea599b193a9eb51b8f784426040516138659291906154da565b60405180910390a450909c9b505050505050505050505050565b6001600160a01b0382166138d55760405162461bcd60e51b815260206004820181905260248201527f4552433732313a206d696e7420746f20746865207a65726f20616464726573736044820152606401610caf565b6000818152600260205260409020546001600160a01b03161561393a5760405162461bcd60e51b815260206004820152601c60248201527f4552433732313a20746f6b656e20616c7265616479206d696e746564000000006044820152606401610caf565b61394660008383614598565b6001600160a01b038216600090815260036020526040812080546001929061396f908490615b54565b909155505060008181526002602052604080822080546001600160a01b0319166001600160a01b03861690811790915590518392907fddf252ad1be2c89b69c2b068fc378daa952ba7f163c4a11628f55a4df523b3ef908290a45050565b606060006139dc836002615b6c565b6139e7906002615b54565b6001600160401b038111156139fe576139fe615286565b6040519080825280601f01601f191660200182016040528015613a28576020820181803683370190505b509050600360fc1b81600081518110613a4357613a436157c7565b60200101906001600160f81b031916908160001a905350600f60fb1b81600181518110613a7257613a726157c7565b60200101906001600160f81b031916908160001a9053506000613a96846002615b6c565b613aa1906001615b54565b90505b6001811115613b19576f181899199a1a9b1b9c1cb0b131b232b360811b85600f1660108110613ad557613ad56157c7565b1a60f81b828281518110613aeb57613aeb6157c7565b60200101906001600160f81b031916908160001a90535060049490941c93613b1281615b8b565b9050613aa4565b508315613b685760405162461bcd60e51b815260206004820181905260248201527f537472696e67733a20686578206c656e67746820696e73756666696369656e746044820152606401610caf565b9392505050565b6000613b7c848333613eb8565b600e54604051637bf0b88d60e11b815260048101839052602481018690529192506001600160a01b03169063f7e1711a90604401600060405180830381600087803b158015613bca57600080fd5b505af1158015613bde573d6000803e3d6000fd5b5050604080518581526020810185905286935087925033917fbc914995d574dd9ef2df364e4eee2b85deda3ba35d054a62425fba1b972757169101611aae565b6000818152600260205260408120546001600160a01b0316613c975760405162461bcd60e51b815260206004820152602c60248201527f4552433732313a206f70657261746f7220717565727920666f72206e6f6e657860448201526b34b9ba32b73a103a37b5b2b760a11b6064820152608401610caf565b6000613ca283611ee0565b9050806001600160a01b0316846001600160a01b03161480613cdd5750836001600160a01b0316613cd284610c3a565b6001600160a01b0316145b8061147657506001600160a01b0380821660009081526005602090815260408083209388168352929052205460ff16611476565b826001600160a01b0316613d2482611ee0565b6001600160a01b031614613d885760405162461bcd60e51b815260206004820152602560248201527f4552433732313a207472616e736665722066726f6d20696e636f72726563742060448201526437bbb732b960d91b6064820152608401610caf565b6001600160a01b038216613dea5760405162461bcd60e51b8152602060048201526024808201527f4552433732313a207472616e7366657220746f20746865207a65726f206164646044820152637265737360e01b6064820152608401610caf565b613df5838383614598565b613e0060008261347e565b6001600160a01b0383166000908152600360205260408120805460019290613e29908490615ba2565b90915550506001600160a01b0382166000908152600360205260408120805460019290613e57908490615b54565b909155505060008181526002602052604080822080546001600160a01b0319166001600160a01b0386811691821790925591518493918716917fddf252ad1be2c89b69c2b068fc378daa952ba7f163c4a11628f55a4df523b3ef91a4505050565b6000838152600f6020908152604080832085845290915290205480613b6857613f596001600e60009054906101000a90046001600160a01b03166001600160a01b03166318160ddd6040518163ffffffff1660e01b8152600401602060405180830381865afa158015613f2f573d6000803e3d6000fd5b505050506040513d601f19601f82011682018060405250810190613f5391906157dd565b906144ba565b600e5460405163644ee7e760e11b81526001600160a01b038581166004830152602482018790526044820184905292935091169063c89dcfce90606401600060405180830381600087803b158015613fb057600080fd5b505af1158015613fc4573d6000803e3d6000fd5b50505050613b688185611c26565b600e546040516331a9108f60e11b8152600481018390526001600160a01b0390911690636352211e90602401602060405180830381865afa15801561401b573d6000803e3d6000fd5b505050506040513d601f19601f8201168201806040525081019061403f919061589b565b6001600160a01b0316336001600160a01b031614612a955760405162461bcd60e51b815260206004820152601b60248201527f57656233456e7472793a204e6f744c696e6b4c6973744f776e657200000000006044820152606401610caf565b6140a8816131e3565b600e54604051631c5b266960e21b815260048101849052336024820152604481018390526001600160a01b039091169063716c99a490606401600060405180830381600087803b1580156140fb57600080fd5b505af115801561410f573d6000803e3d6000fd5b505050505050565b6000614124858333613eb8565b600e54604051630ba893bf60e21b8152600481018390526001600160a01b03878116602483015260448201879052929350911690632ea24efc90606401600060405180830381600087803b15801561417b57600080fd5b505af115801561418f573d6000803e3d6000fd5b5050505082846001600160a01b0316867f72413a1a5c43b255ad065653bf49db3c79ff7853ddaa4f4962ccd05e5368ad778585604051610af3929190918252602082015260400190565b6000848152600f602090815260408083208484529091529020546141fd8186613311565b600e54604051630370a16160e01b8152600481018390526001600160a01b0386811660248301526044820186905290911690630370a16190606401600060405180830381600087803b15801561425257600080fd5b505af1158015614266573d6000803e3d6000fd5b5050505082846001600160a01b0316867fd87f9606a19988b6cf42d250d484940673ce551ab5f80289051cc343ff13121c8585604051610af3929190918252602082015260400190565b60006142bd858333613eb8565b600e54604051635cb46be760e01b81526004810183905260248101879052604481018690529192506001600160a01b031690635cb46be790606401600060405180830381600087803b15801561431257600080fd5b505af1158015614326573d6000803e3d6000fd5b505050508284867f3cae5b1196087b560b6735377bbf745e5754f8082348a432b806afa01686ef488585604051610af3929190918252602082015260400190565b614373848484846145db565b7f414cd0b34676984f09a5f76ce9718d4062e50283abe0e7e274a9a5b4e0c99c3084848484426040516143aa959493929190615bb9565b60405180910390a150505050565b816001600160a01b0316836001600160a01b0316141561441a5760405162461bcd60e51b815260206004820152601960248201527f4552433732313a20617070726f766520746f2063616c6c6572000000000000006044820152606401610caf565b6001600160a01b03838116600081815260056020908152604080832094871680845294825291829020805460ff191686151590811790915591519182527f17307eab39ab6107e8899845ad3d59bd9653f200f220920489ca2b5937696c31910160405180910390a3505050565b614492848484613d11565b61449e848484846145fb565b61137e5760405162461bcd60e51b8152600401610caf90615bf3565b6000613b688284615b54565b60006144d3848433613eb8565b600e546040805163494c4d9960e01b81526004810184905285516024820152602086015160448201529085015160648201529192506001600160a01b03169063494c4d9990608401600060405180830381600087803b15801561453557600080fd5b505af1158015614549573d6000803e3d6000fd5b505083516020808601516040808801518151948552928401919091528201528592508691507ff0697acc3f194ceead566f2dffb676a7d4aaf14d0a2fad93923e778e4b40ae0d906060016111cc565b6001600160a01b0383166000908152600c6020526040902054156145d0576001600160a01b0383166000908152600c60205260408120555b610de58383836146f6565b6145e760008585614986565b506145f460018383614986565b5050505050565b60006001600160a01b0384163b156146ee57604051630a85bd0160e11b81526001600160a01b0385169063150b7a029061463f903390899088908890600401615c45565b6020604051808303816000875af192505050801561467a575060408051601f3d908101601f1916820190925261467791810190615c78565b60015b6146d4573d8080156146a8576040519150601f19603f3d011682016040523d82523d6000602084013e6146ad565b606091505b5080516146cc5760405162461bcd60e51b8152600401610caf90615bf3565b805181602001fd5b6001600160e01b031916630a85bd0160e11b149050611476565b506001611476565b6001600160a01b0383166147515761474c81600880546000838152600960205260408120829055600182018355919091527ff3f7a9fe364faab93b216da50a3214154f22a0a2b415b23a84c8169e8b636ee30155565b614774565b816001600160a01b0316836001600160a01b0316146147745761477483826147ae565b6001600160a01b03821661478b57610de58161484b565b826001600160a01b0316826001600160a01b031614610de557610de582826148fa565b600060016147bb84611fe4565b6147c59190615ba2565b600083815260076020526040902054909150808214614818576001600160a01b03841660009081526006602090815260408083208584528252808320548484528184208190558352600790915290208190555b5060009182526007602090815260408084208490556001600160a01b039094168352600681528383209183525290812055565b60085460009061485d90600190615ba2565b60008381526009602052604081205460088054939450909284908110614885576148856157c7565b9060005260206000200154905080600883815481106148a6576148a66157c7565b60009182526020808320909101929092558281526009909152604080822084905585825281205560088054806148de576148de615c95565b6001900381819060005260206000200160009055905550505050565b600061490583611fe4565b6001600160a01b039093166000908152600660209081526040808320868452825280832085905593825260079052919091209190915550565b6040518060c001604052806000815260200160608152602001606081526020016000815260200160006001600160a01b0316815260200160006001600160a01b031681525090565b828054614992906154fc565b90600052602060002090601f0160209004810192826149b457600085556149fa565b82601f106149cd5782800160ff198235161785556149fa565b828001600101855582156149fa579182015b828111156149fa5782358255916020019190600101906149df565b50614a06929150614a0a565b5090565b5b80821115614a065760008155600101614a0b565b6001600160e01b031981168114612a9557600080fd5b600060208284031215614a4757600080fd5b8135613b6881614a1f565b60008060008060808587031215614a6857600080fd5b5050823594602084013594506040840135936060013592509050565b6001600160a01b0381168114612a9557600080fd5b60008083601f840112614aab57600080fd5b5081356001600160401b03811115614ac257600080fd5b602083019150836020828501011115614ada57600080fd5b9250929050565b600080600080600060808688031215614af957600080fd5b85359450602086013593506040860135614b1281614a84565b925060608601356001600160401b03811115614b2d57600080fd5b614b3988828901614a99565b969995985093965092949392505050565b60005b83811015614b65578181015183820152602001614b4d565b8381111561137e5750506000910152565b60008151808452614b8e816020860160208601614b4a565b601f01601f19169290920160200192915050565b602081526000613b686020830184614b76565b600060208284031215614bc757600080fd5b5035919050565b60008060408385031215614be157600080fd5b8235614bec81614a84565b946020939093013593505050565b600060c08284031215614c0c57600080fd5b50919050565b600080600080600060a08688031215614c2a57600080fd5b85356001600160401b03811115614c4057600080fd5b614c4c88828901614bfa565b955050602086013593506040860135614c6481614a84565b94979396509394606081013594506080013592915050565b60008060208385031215614c8f57600080fd5b82356001600160401b03811115614ca557600080fd5b614cb185828601614a99565b90969095509350505050565b60208152815160208201526000602083015160c06040840152614ce360e0840182614b76565b90506040840151601f19848303016060850152614d008282614b76565b91505060608401516080840152608084015160018060a01b0380821660a08601528060a08701511660c086015250508091505092915050565b600080600060608486031215614d4e57600080fd5b833592506020840135614d6081614a84565b929592945050506040919091013590565b600080600060608486031215614d8657600080fd5b505081359360208301359350604090920135919050565b600060208284031215614daf57600080fd5b8135613b6881614a84565b60008060008060808587031215614dd057600080fd5b84356001600160401b03811115614de657600080fd5b614df287828801614bfa565b97602087013597506040870135966060013595509350505050565b600080600060608486031215614e2257600080fd5b8335614e2d81614a84565b92506020840135614d6081614a84565b60008060008060808587031215614e5357600080fd5b84356001600160401b03811115614e6957600080fd5b614e7587828801614bfa565b945050602085013592506040850135614e8d81614a84565b9396929550929360600135925050565b60008060008060608587031215614eb357600080fd5b8435935060208501356001600160401b03811115614ed057600080fd5b614edc87828801614a99565b9598909750949560400135949350505050565b60008060008060608587031215614f0557600080fd5b8435614f1081614a84565b93506020850135614f2081614a84565b925060408501356001600160401b03811115614f3b57600080fd5b614f4787828801614a99565b95989497509550505050565b600080600060408486031215614f6857600080fd5b8335925060208401356001600160401b03811115614f8557600080fd5b614f9186828701614a99565b9497909650939450505050565b600080600080600060a08688031215614fb657600080fd5b85356001600160401b03811115614fcc57600080fd5b614fd888828901614bfa565b9860208801359850604088013597606081013597506080013595509350505050565b6000806040838503121561500d57600080fd5b50508035926020909101359150565b600080600083850360a081121561503257600080fd5b843593506060601f198201121561504857600080fd5b50602084019150608084013590509250925092565b6020808252825182820181905260009190848201906040850190845b8181101561509557835183529284019291840191600101615079565b50909695505050505050565b600080600080608085870312156150b757600080fd5b8435935060208501356150c981614a84565b93969395505050506040820135916060013590565b6000806000806000608086880312156150f657600080fd5b853561510181614a84565b9450602086013593506040860135614b1281614a84565b6000806000806000806080878903121561513157600080fd5b86356001600160401b038082111561514857600080fd5b6151548a838b01614a99565b9098509650602089013591508082111561516d57600080fd5b5061517a89828a01614a99565b909550935050604087013561518e81614a84565b9150606087013561519e81614a84565b809150509295509295509295565b600080604083850312156151bf57600080fd5b8235915060208301356151d181614a84565b809150509250929050565b6000806000806000608086880312156151f457600080fd5b85356001600160401b038082111561520b57600080fd5b61521789838a01614bfa565b965060208801359550604088013591508082111561523457600080fd5b5061524188828901614a99565b96999598509660600135949350505050565b6000806040838503121561526657600080fd5b823561527181614a84565b9150602083013580151581146151d157600080fd5b634e487b7160e01b600052604160045260246000fd5b604051601f8201601f191681016001600160401b03811182821017156152c4576152c4615286565b604052919050565b60006001600160401b038211156152e5576152e5615286565b50601f01601f191660200190565b6000806000806080858703121561530957600080fd5b843561531481614a84565b9350602085013561532481614a84565b92506040850135915060608501356001600160401b0381111561534657600080fd5b8501601f8101871361535757600080fd5b803561536a615365826152cc565b61529c565b81815288602083850101111561537f57600080fd5b8160208401602083013760006020838301015280935050505092959194509250565b6000602082840312156153b357600080fd5b81356001600160401b038111156153c957600080fd5b820160a08185031215613b6857600080fd5b6000602082840312156153ed57600080fd5b81356001600160401b0381111561540357600080fd5b61147684828501614bfa565b602081528151602082015260208201516040820152604082015160608201526000606083015160e0608084015261544a610100840182614b76565b9050608084015160018060a01b0380821660a08601528060a08701511660c08601528060c08701511660e086015250508091505092915050565b6000806000806060858703121561549a57600080fd5b843593506020850135614f2081614a84565b600080604083850312156154bf57600080fd5b82356154ca81614a84565b915060208301356151d181614a84565b6040815260006154ed6040830185614b76565b90508260208301529392505050565b600181811c9082168061551057607f821691505b60208210811415614c0c57634e487b7160e01b600052602260045260246000fd5b6000808335601e1984360301811261554857600080fd5b8301803591506001600160401b0382111561556257600080fd5b602001915036819003821315614ada57600080fd5b8183823760009101908152919050565b634e487b7160e01b600052601160045260246000fd5b60006000198214156155b1576155b1615587565b5060010190565b60808152600060018060a01b03808751166080840152602087015160a0808501526155e7610120850182614b76565b90506040880151607f19808684030160c08701526156058383614b76565b92508360608b01511660e087015260808a01519350808684030161010087015250506156318183614b76565b60208501979097525050506040810192909252606090910152919050565b81835281816020850137506000828201602090810191909152601f909101601f19169091010190565b8481528360208201526060604082015260006123a660608301848661564f565b60006156a6615365846152cc565b90508281528383830111156156ba57600080fd5b613b68836020830184614b4a565b6000602082840312156156da57600080fd5b81516001600160401b038111156156f057600080fd5b8201601f8101841361570157600080fd5b61147684825160208401615698565b60208082526031908201527f4552433732313a207472616e736665722063616c6c6572206973206e6f74206f6040820152701ddb995c881b9bdc88185c1c1c9bdd9959607a1b606082015260800190565b83815260406020820152600061347560408301848661564f565b60608152600061578f60608301868861564f565b6020830194909452506040015292915050565b6001600160a01b0384168152604060208201819052600090613475908301848661564f565b634e487b7160e01b600052603260045260246000fd5b6000602082840312156157ef57600080fd5b5051919050565b6000602080838503121561580957600080fd5b82516001600160401b038082111561582057600080fd5b818501915085601f83011261583457600080fd5b81518181111561584657615846615286565b8060051b915061585784830161529c565b818152918301840191848101908884111561587157600080fd5b938501935b8385101561588f57845182529385019390850190615876565b98975050505050505050565b6000602082840312156158ad57600080fd5b8151613b6881614a84565b60018060a01b03851681528360208201526060604082015260006123a660608301848661564f565b888152876020820152600060018060a01b03808916604084015260e0606084015261590f60e08401888a61564f565b951660808301525060a081019290925260c09091015295945050505050565b664c696e6b416e7960c81b81528183600783013760009101600701908152919050565b60208152600061147660208301848661564f565b60408152600061597960408301858761564f565b9050826020830152949350505050565b6000808335601e198436030181126159a057600080fd5b83016020810192503590506001600160401b038111156159bf57600080fd5b803603831315614ada57600080fd5b60808152600085356159df81614a84565b6001600160a01b0381811660808501526159fc6020890189615989565b925060a080860152615a136101208601848361564f565b925050615a236040890189615989565b607f19808786030160c0880152615a3b85838561564f565b945060608b01359250615a4d83614a84565b83831660e0880152615a6260808c018c615989565b9450925080878603016101008801525050615a7e83838361564f565b6020860198909852505050506040810192909252606090910152919050565b600060608284031215615aaf57600080fd5b604051606081018181106001600160401b0382111715615ad157615ad1615286565b80604052508235815260208301356020820152604083013560408201528091505092915050565b8581526001600160a01b0385166020820152608060408201819052600090615b23908301858761564f565b90508260608301529695505050505050565b8381528260208201526060604082015260006134756060830184614b76565b60008219821115615b6757615b67615587565b500190565b6000816000190483118215151615615b8657615b86615587565b500290565b600081615b9a57615b9a615587565b506000190190565b600082821015615bb457615bb4615587565b500390565b606081526000615bcd60608301878961564f565b8281036020840152615be081868861564f565b9150508260408301529695505050505050565b60208082526032908201527f4552433732313a207472616e7366657220746f206e6f6e20455243373231526560408201527131b2b4bb32b91034b6b83632b6b2b73a32b960711b606082015260800190565b6001600160a01b03858116825284166020820152604081018390526080606082018190526000906123a690830184614b76565b600060208284031215615c8a57600080fd5b8151613b6881614a1f565b634e487b7160e01b600052603160045260246000fdfea26469706673582212204b66a33a227c3c3f29a8296c2260a3c4da161c6269c6974025e38f18c097f3e664736f6c634300080a0033",
  "linkReferences": {
    "contracts/libraries/InteractionLogic.sol": {
      "InteractionLogic": [
        {
          "length": 20,
          "start": 9024
        }
      ]
    },
    "contracts/libraries/ProfileLogic.sol": {
      "ProfileLogic": [
        {
          "length": 20,
          "start": 4770
        },
        {
          "length": 20,
          "start": 10743
        },
        {
          "length": 20,
          "start": 11788
        }
      ]
    }
  },
  "deployedLinkReferences": {
    "contracts/libraries/InteractionLogic.sol": {
      "InteractionLogic": [
        {
          "length": 20,
          "start": 8991
        }
      ]
    },
    "contracts/libraries/ProfileLogic.sol": {
      "ProfileLogic": [
        {
          "length": 20,
          "start": 4737
        },
        {
          "length": 20,
          "start": 10710
        },
        {
          "length": 20,
          "start": 11755
        }
      ]
    }
  }
}