{
    "_format": "hh-sol-artifact-1",
    "contractName": "Web3Entry",
    "sourceName": "contracts/Web3Entry.sol",
    "abi": [
        {
            "anonymous": false,
            "inputs": [
                {
                    "indexed": true,
                    "internalType": "address",
                    "name": "owner",
                    "type": "address"
                },
                {
                    "indexed": true,
                    "internalType": "address",
                    "name": "approved",
                    "type": "address"
                },
                {
                    "indexed": true,
                    "internalType": "uint256",
                    "name": "tokenId",
                    "type": "uint256"
                }
            ],
            "name": "Approval",
            "type": "event"
        },
        {
            "anonymous": false,
            "inputs": [
                {
                    "indexed": true,
                    "internalType": "address",
                    "name": "owner",
                    "type": "address"
                },
                {
                    "indexed": true,
                    "internalType": "address",
                    "name": "operator",
                    "type": "address"
                },
                {
                    "indexed": false,
                    "internalType": "bool",
                    "name": "approved",
                    "type": "bool"
                }
            ],
            "name": "ApprovalForAll",
            "type": "event"
        },
        {
            "anonymous": false,
            "inputs": [
                {
                    "indexed": true,
                    "internalType": "address",
                    "name": "from",
                    "type": "address"
                },
                {
                    "indexed": true,
                    "internalType": "address",
                    "name": "to",
                    "type": "address"
                },
                {
                    "indexed": true,
                    "internalType": "uint256",
                    "name": "tokenId",
                    "type": "uint256"
                }
            ],
            "name": "Transfer",
            "type": "event"
        },
        {
            "inputs": [
                {
                    "internalType": "address",
                    "name": "to",
                    "type": "address"
                },
                {
                    "internalType": "uint256",
                    "name": "tokenId",
                    "type": "uint256"
                }
            ],
            "name": "approve",
            "outputs": [],
            "stateMutability": "nonpayable",
            "type": "function"
        },
        {
            "inputs": [
                {
                    "internalType": "uint256",
                    "name": "linklistId",
                    "type": "uint256"
                },
                {
                    "internalType": "uint256",
                    "name": "profileId",
                    "type": "uint256"
                }
            ],
            "name": "attachLinklist",
            "outputs": [],
            "stateMutability": "nonpayable",
            "type": "function"
        },
        {
            "inputs": [
                {
                    "internalType": "address",
                    "name": "owner",
                    "type": "address"
                }
            ],
            "name": "balanceOf",
            "outputs": [
                {
                    "internalType": "uint256",
                    "name": "",
                    "type": "uint256"
                }
            ],
            "stateMutability": "view",
            "type": "function"
        },
        {
            "inputs": [
                {
                    "internalType": "uint256",
                    "name": "tokenId",
                    "type": "uint256"
                }
            ],
            "name": "burn",
            "outputs": [],
            "stateMutability": "nonpayable",
            "type": "function"
        },
        {
            "inputs": [
                {
                    "components": [
                        {
                            "internalType": "address",
                            "name": "to",
                            "type": "address"
                        },
                        {
                            "internalType": "string",
                            "name": "handle",
                            "type": "string"
                        },
                        {
                            "internalType": "string",
                            "name": "uri",
                            "type": "string"
                        },
                        {
                            "internalType": "address",
                            "name": "linkModule",
                            "type": "address"
                        },
                        {
                            "internalType": "bytes",
                            "name": "linkModuleInitData",
                            "type": "bytes"
                        }
                    ],
                    "internalType": "struct DataTypes.CreateProfileData",
                    "name": "vars",
                    "type": "tuple"
                }
            ],
            "name": "createProfile",
            "outputs": [],
            "stateMutability": "nonpayable",
            "type": "function"
        },
        {
            "inputs": [
                {
                    "components": [
                        {
                            "internalType": "uint256",
                            "name": "fromProfileId",
                            "type": "uint256"
                        },
                        {
                            "internalType": "address",
                            "name": "to",
                            "type": "address"
                        },
                        {
                            "internalType": "bytes32",
                            "name": "linkType",
                            "type": "bytes32"
                        }
                    ],
                    "internalType": "struct DataTypes.createThenLinkProfileData",
                    "name": "vars",
                    "type": "tuple"
                }
            ],
            "name": "createThenLinkProfile",
            "outputs": [],
            "stateMutability": "nonpayable",
            "type": "function"
        },
        {
            "inputs": [
                {
                    "internalType": "uint256",
                    "name": "profileId",
                    "type": "uint256"
                },
                {
                    "internalType": "uint256",
                    "name": "noteId",
                    "type": "uint256"
                }
            ],
            "name": "deleteNote",
            "outputs": [],
            "stateMutability": "nonpayable",
            "type": "function"
        },
        {
            "inputs": [
                {
                    "internalType": "uint256",
                    "name": "linklistId",
                    "type": "uint256"
                },
                {
                    "internalType": "uint256",
                    "name": "profileId",
                    "type": "uint256"
                }
            ],
            "name": "detachLinklist",
            "outputs": [],
            "stateMutability": "nonpayable",
            "type": "function"
        },
        {
            "inputs": [
                {
                    "internalType": "uint256",
                    "name": "tokenId",
                    "type": "uint256"
                }
            ],
            "name": "getApproved",
            "outputs": [
                {
                    "internalType": "address",
                    "name": "",
                    "type": "address"
                }
            ],
            "stateMutability": "view",
            "type": "function"
        },
        {
            "inputs": [
                {
                    "internalType": "uint256",
                    "name": "profileId",
                    "type": "uint256"
                }
            ],
            "name": "getHandle",
            "outputs": [
                {
                    "internalType": "string",
                    "name": "",
                    "type": "string"
                }
            ],
            "stateMutability": "view",
            "type": "function"
        },
        {
            "inputs": [
                {
                    "internalType": "address",
                    "name": "account",
                    "type": "address"
                }
            ],
            "name": "getLinkModule4Address",
            "outputs": [
                {
                    "internalType": "address",
                    "name": "",
                    "type": "address"
                }
            ],
            "stateMutability": "view",
            "type": "function"
        },
        {
            "inputs": [
                {
                    "internalType": "address",
                    "name": "tokenAddress",
                    "type": "address"
                },
                {
                    "internalType": "uint256",
                    "name": "tokenId",
                    "type": "uint256"
                }
            ],
            "name": "getLinkModule4ERC721",
            "outputs": [
                {
                    "internalType": "address",
                    "name": "",
                    "type": "address"
                }
            ],
            "stateMutability": "view",
            "type": "function"
        },
        {
            "inputs": [
                {
                    "internalType": "uint256",
                    "name": "tokenId",
                    "type": "uint256"
                }
            ],
            "name": "getLinkModule4Linklist",
            "outputs": [
                {
                    "internalType": "address",
                    "name": "",
                    "type": "address"
                }
            ],
            "stateMutability": "view",
            "type": "function"
        },
        {
            "inputs": [
                {
                    "internalType": "bytes32",
                    "name": "linkKey",
                    "type": "bytes32"
                }
            ],
            "name": "getLinkingAny",
            "outputs": [
                {
                    "internalType": "string",
                    "name": "",
                    "type": "string"
                }
            ],
            "stateMutability": "view",
            "type": "function"
        },
        {
            "inputs": [
                {
                    "internalType": "uint256",
                    "name": "fromProfileId",
                    "type": "uint256"
                },
                {
                    "internalType": "bytes32",
                    "name": "linkType",
                    "type": "bytes32"
                }
            ],
            "name": "getLinkingAnys",
            "outputs": [
                {
                    "internalType": "string[]",
                    "name": "results",
                    "type": "string[]"
                }
            ],
            "stateMutability": "view",
            "type": "function"
        },
        {
            "inputs": [
                {
                    "internalType": "bytes32",
                    "name": "linkKey",
                    "type": "bytes32"
                }
            ],
            "name": "getLinkingERC721",
            "outputs": [
                {
                    "components": [
                        {
                            "internalType": "address",
                            "name": "tokenAddress",
                            "type": "address"
                        },
                        {
                            "internalType": "uint256",
                            "name": "erc721TokenId",
                            "type": "uint256"
                        }
                    ],
                    "internalType": "struct DataTypes.ERC721Struct",
                    "name": "",
                    "type": "tuple"
                }
            ],
            "stateMutability": "view",
            "type": "function"
        },
        {
            "inputs": [
                {
                    "internalType": "uint256",
                    "name": "fromProfileId",
                    "type": "uint256"
                },
                {
                    "internalType": "bytes32",
                    "name": "linkType",
                    "type": "bytes32"
                }
            ],
            "name": "getLinkingERC721s",
            "outputs": [
                {
                    "components": [
                        {
                            "internalType": "address",
                            "name": "tokenAddress",
                            "type": "address"
                        },
                        {
                            "internalType": "uint256",
                            "name": "erc721TokenId",
                            "type": "uint256"
                        }
                    ],
                    "internalType": "struct DataTypes.ERC721Struct[]",
                    "name": "results",
                    "type": "tuple[]"
                }
            ],
            "stateMutability": "view",
            "type": "function"
        },
        {
            "inputs": [
                {
                    "internalType": "bytes32",
                    "name": "linkKey",
                    "type": "bytes32"
                }
            ],
            "name": "getLinkingNote",
            "outputs": [
                {
                    "components": [
                        {
                            "internalType": "uint256",
                            "name": "profileId",
                            "type": "uint256"
                        },
                        {
                            "internalType": "uint256",
                            "name": "noteId",
                            "type": "uint256"
                        }
                    ],
                    "internalType": "struct DataTypes.NoteStruct",
                    "name": "",
                    "type": "tuple"
                }
            ],
            "stateMutability": "view",
            "type": "function"
        },
        {
            "inputs": [
                {
                    "internalType": "uint256",
                    "name": "fromProfileId",
                    "type": "uint256"
                },
                {
                    "internalType": "bytes32",
                    "name": "linkType",
                    "type": "bytes32"
                }
            ],
            "name": "getLinkingNotes",
            "outputs": [
                {
                    "components": [
                        {
                            "internalType": "bytes32",
                            "name": "linkItemType",
                            "type": "bytes32"
                        },
                        {
                            "internalType": "bytes32",
                            "name": "linkKey",
                            "type": "bytes32"
                        },
                        {
                            "internalType": "string",
                            "name": "contentUri",
                            "type": "string"
                        },
                        {
                            "internalType": "address",
                            "name": "linkModule",
                            "type": "address"
                        },
                        {
                            "internalType": "address",
                            "name": "mintModule",
                            "type": "address"
                        },
                        {
                            "internalType": "address",
                            "name": "mintNFT",
                            "type": "address"
                        },
                        {
                            "internalType": "bool",
                            "name": "deleted",
                            "type": "bool"
                        }
                    ],
                    "internalType": "struct DataTypes.Note[]",
                    "name": "results",
                    "type": "tuple[]"
                }
            ],
            "stateMutability": "view",
            "type": "function"
        },
        {
            "inputs": [
                {
                    "internalType": "uint256",
                    "name": "fromProfileId",
                    "type": "uint256"
                },
                {
                    "internalType": "bytes32",
                    "name": "linkType",
                    "type": "bytes32"
                }
            ],
            "name": "getLinkingProfileIds",
            "outputs": [
                {
                    "internalType": "uint256[]",
                    "name": "results",
                    "type": "uint256[]"
                }
            ],
            "stateMutability": "view",
            "type": "function"
        },
        {
            "inputs": [],
            "name": "getLinklistContract",
            "outputs": [
                {
                    "internalType": "address",
                    "name": "",
                    "type": "address"
                }
            ],
            "stateMutability": "view",
            "type": "function"
        },
        {
            "inputs": [
                {
                    "internalType": "uint256",
                    "name": "profileId",
                    "type": "uint256"
                },
                {
                    "internalType": "bytes32",
                    "name": "linkType",
                    "type": "bytes32"
                }
            ],
            "name": "getLinklistId",
            "outputs": [
                {
                    "internalType": "uint256",
                    "name": "",
                    "type": "uint256"
                }
            ],
            "stateMutability": "view",
            "type": "function"
        },
        {
            "inputs": [
                {
                    "internalType": "uint256",
                    "name": "linkListId",
                    "type": "uint256"
                }
            ],
            "name": "getLinklistType",
            "outputs": [
                {
                    "internalType": "bytes32",
                    "name": "",
                    "type": "bytes32"
                }
            ],
            "stateMutability": "view",
            "type": "function"
        },
        {
            "inputs": [
                {
                    "internalType": "uint256",
                    "name": "tokenId",
                    "type": "uint256"
                }
            ],
            "name": "getLinklistUri",
            "outputs": [
                {
                    "internalType": "string",
                    "name": "",
                    "type": "string"
                }
            ],
            "stateMutability": "view",
            "type": "function"
        },
        {
            "inputs": [
                {
                    "internalType": "uint256",
                    "name": "profileId",
                    "type": "uint256"
                },
                {
                    "internalType": "uint256",
                    "name": "noteId",
                    "type": "uint256"
                }
            ],
            "name": "getNote",
            "outputs": [
                {
                    "components": [
                        {
                            "internalType": "bytes32",
                            "name": "linkItemType",
                            "type": "bytes32"
                        },
                        {
                            "internalType": "bytes32",
                            "name": "linkKey",
                            "type": "bytes32"
                        },
                        {
                            "internalType": "string",
                            "name": "contentUri",
                            "type": "string"
                        },
                        {
                            "internalType": "address",
                            "name": "linkModule",
                            "type": "address"
                        },
                        {
                            "internalType": "address",
                            "name": "mintModule",
                            "type": "address"
                        },
                        {
                            "internalType": "address",
                            "name": "mintNFT",
                            "type": "address"
                        },
                        {
                            "internalType": "bool",
                            "name": "deleted",
                            "type": "bool"
                        }
                    ],
                    "internalType": "struct DataTypes.Note",
                    "name": "",
                    "type": "tuple"
                }
            ],
            "stateMutability": "view",
            "type": "function"
        },
        {
            "inputs": [
                {
                    "internalType": "address",
                    "name": "account",
                    "type": "address"
                }
            ],
            "name": "getPrimaryProfileId",
            "outputs": [
                {
                    "internalType": "uint256",
                    "name": "",
                    "type": "uint256"
                }
            ],
            "stateMutability": "view",
            "type": "function"
        },
        {
            "inputs": [
                {
                    "internalType": "uint256",
                    "name": "profileId",
                    "type": "uint256"
                }
            ],
            "name": "getProfile",
            "outputs": [
                {
                    "components": [
                        {
                            "internalType": "uint256",
                            "name": "profileId",
                            "type": "uint256"
                        },
                        {
                            "internalType": "string",
                            "name": "handle",
                            "type": "string"
                        },
                        {
                            "internalType": "string",
                            "name": "uri",
                            "type": "string"
                        },
                        {
                            "internalType": "uint256",
                            "name": "noteCount",
                            "type": "uint256"
                        },
                        {
                            "internalType": "address",
                            "name": "socialToken",
                            "type": "address"
                        },
                        {
                            "internalType": "address",
                            "name": "linkModule",
                            "type": "address"
                        }
                    ],
                    "internalType": "struct DataTypes.Profile",
                    "name": "",
                    "type": "tuple"
                }
            ],
            "stateMutability": "view",
            "type": "function"
        },
        {
            "inputs": [
                {
                    "internalType": "string",
                    "name": "handle",
                    "type": "string"
                }
            ],
            "name": "getProfileByHandle",
            "outputs": [
                {
                    "components": [
                        {
                            "internalType": "uint256",
                            "name": "profileId",
                            "type": "uint256"
                        },
                        {
                            "internalType": "string",
                            "name": "handle",
                            "type": "string"
                        },
                        {
                            "internalType": "string",
                            "name": "uri",
                            "type": "string"
                        },
                        {
                            "internalType": "uint256",
                            "name": "noteCount",
                            "type": "uint256"
                        },
                        {
                            "internalType": "address",
                            "name": "socialToken",
                            "type": "address"
                        },
                        {
                            "internalType": "address",
                            "name": "linkModule",
                            "type": "address"
                        }
                    ],
                    "internalType": "struct DataTypes.Profile",
                    "name": "",
                    "type": "tuple"
                }
            ],
            "stateMutability": "view",
            "type": "function"
        },
        {
            "inputs": [
                {
                    "internalType": "uint256",
                    "name": "profileId",
                    "type": "uint256"
                }
            ],
            "name": "getProfileUri",
            "outputs": [
                {
                    "internalType": "string",
                    "name": "",
                    "type": "string"
                }
            ],
            "stateMutability": "view",
            "type": "function"
        },
        {
            "inputs": [],
            "name": "getRevision",
            "outputs": [
                {
                    "internalType": "uint256",
                    "name": "",
                    "type": "uint256"
                }
            ],
            "stateMutability": "pure",
            "type": "function"
        },
        {
            "inputs": [
                {
                    "internalType": "string",
                    "name": "_name",
                    "type": "string"
                },
                {
                    "internalType": "string",
                    "name": "_symbol",
                    "type": "string"
                },
                {
                    "internalType": "address",
                    "name": "_linklistContract",
                    "type": "address"
                },
                {
                    "internalType": "address",
                    "name": "_mintNFTImpl",
                    "type": "address"
                }
            ],
            "name": "initialize",
            "outputs": [],
            "stateMutability": "nonpayable",
            "type": "function"
        },
        {
            "inputs": [
                {
                    "internalType": "address",
                    "name": "owner",
                    "type": "address"
                },
                {
                    "internalType": "address",
                    "name": "operator",
                    "type": "address"
                }
            ],
            "name": "isApprovedForAll",
            "outputs": [
                {
                    "internalType": "bool",
                    "name": "",
                    "type": "bool"
                }
            ],
            "stateMutability": "view",
            "type": "function"
        },
        {
            "inputs": [
                {
                    "internalType": "uint256",
                    "name": "profileId",
                    "type": "uint256"
                }
            ],
            "name": "isPrimaryProfile",
            "outputs": [
                {
                    "internalType": "bool",
                    "name": "",
                    "type": "bool"
                }
            ],
            "stateMutability": "view",
            "type": "function"
        },
        {
            "inputs": [
                {
                    "internalType": "address",
                    "name": "account",
                    "type": "address"
                }
            ],
            "name": "isWhitelistedContracts",
            "outputs": [
                {
                    "internalType": "bool",
                    "name": "",
                    "type": "bool"
                }
            ],
            "stateMutability": "view",
            "type": "function"
        },
        {
            "inputs": [
                {
                    "components": [
                        {
                            "internalType": "uint256",
                            "name": "fromProfileId",
                            "type": "uint256"
                        },
                        {
                            "internalType": "address",
                            "name": "ethAddress",
                            "type": "address"
                        },
                        {
                            "internalType": "bytes32",
                            "name": "linkType",
                            "type": "bytes32"
                        },
                        {
                            "internalType": "bytes",
                            "name": "data",
                            "type": "bytes"
                        }
                    ],
                    "internalType": "struct DataTypes.linkAddressData",
                    "name": "vars",
                    "type": "tuple"
                }
            ],
            "name": "linkAddress",
            "outputs": [],
            "stateMutability": "nonpayable",
            "type": "function"
        },
        {
            "inputs": [
                {
                    "components": [
                        {
                            "internalType": "uint256",
                            "name": "fromProfileId",
                            "type": "uint256"
                        },
                        {
                            "internalType": "string",
                            "name": "toUri",
                            "type": "string"
                        },
                        {
                            "internalType": "bytes32",
                            "name": "linkType",
                            "type": "bytes32"
                        },
                        {
                            "internalType": "bytes",
                            "name": "data",
                            "type": "bytes"
                        }
                    ],
                    "internalType": "struct DataTypes.linkAnyData",
                    "name": "vars",
                    "type": "tuple"
                }
            ],
            "name": "linkAny",
            "outputs": [],
            "stateMutability": "nonpayable",
            "type": "function"
        },
        {
            "inputs": [
                {
                    "components": [
                        {
                            "internalType": "uint256",
                            "name": "fromProfileId",
                            "type": "uint256"
                        },
                        {
                            "internalType": "address",
                            "name": "tokenAddress",
                            "type": "address"
                        },
                        {
                            "internalType": "uint256",
                            "name": "tokenId",
                            "type": "uint256"
                        },
                        {
                            "internalType": "bytes32",
                            "name": "linkType",
                            "type": "bytes32"
                        },
                        {
                            "internalType": "bytes",
                            "name": "data",
                            "type": "bytes"
                        }
                    ],
                    "internalType": "struct DataTypes.linkERC721Data",
                    "name": "vars",
                    "type": "tuple"
                }
            ],
            "name": "linkERC721",
            "outputs": [],
            "stateMutability": "nonpayable",
            "type": "function"
        },
        {
            "inputs": [
                {
                    "components": [
                        {
                            "internalType": "uint256",
                            "name": "fromProfileId",
                            "type": "uint256"
                        },
                        {
                            "internalType": "uint256",
                            "name": "toLinkListId",
                            "type": "uint256"
                        },
                        {
                            "internalType": "bytes32",
                            "name": "linkType",
                            "type": "bytes32"
                        },
                        {
                            "internalType": "bytes",
                            "name": "data",
                            "type": "bytes"
                        }
                    ],
                    "internalType": "struct DataTypes.linkLinklistData",
                    "name": "vars",
                    "type": "tuple"
                }
            ],
            "name": "linkLinklist",
            "outputs": [],
            "stateMutability": "nonpayable",
            "type": "function"
        },
        {
            "inputs": [
                {
                    "components": [
                        {
                            "internalType": "uint256",
                            "name": "fromProfileId",
                            "type": "uint256"
                        },
                        {
                            "internalType": "uint256",
                            "name": "toProfileId",
                            "type": "uint256"
                        },
                        {
                            "internalType": "uint256",
                            "name": "toNoteId",
                            "type": "uint256"
                        },
                        {
                            "internalType": "bytes32",
                            "name": "linkType",
                            "type": "bytes32"
                        },
                        {
                            "internalType": "bytes",
                            "name": "data",
                            "type": "bytes"
                        }
                    ],
                    "internalType": "struct DataTypes.linkNoteData",
                    "name": "vars",
                    "type": "tuple"
                }
            ],
            "name": "linkNote",
            "outputs": [],
            "stateMutability": "nonpayable",
            "type": "function"
        },
        {
            "inputs": [
                {
                    "components": [
                        {
                            "internalType": "uint256",
                            "name": "fromProfileId",
                            "type": "uint256"
                        },
                        {
                            "internalType": "uint256",
                            "name": "toProfileId",
                            "type": "uint256"
                        },
                        {
                            "internalType": "bytes32",
                            "name": "linkType",
                            "type": "bytes32"
                        },
                        {
                            "internalType": "bytes",
                            "name": "data",
                            "type": "bytes"
                        }
                    ],
                    "internalType": "struct DataTypes.linkProfileData",
                    "name": "vars",
                    "type": "tuple"
                }
            ],
            "name": "linkProfile",
            "outputs": [],
            "stateMutability": "nonpayable",
            "type": "function"
        },
        {
            "inputs": [
                {
                    "internalType": "uint256",
                    "name": "fromProfileId",
                    "type": "uint256"
                },
                {
                    "components": [
                        {
                            "internalType": "uint256",
                            "name": "fromProfileId",
                            "type": "uint256"
                        },
                        {
                            "internalType": "uint256",
                            "name": "toProfileId",
                            "type": "uint256"
                        },
                        {
                            "internalType": "bytes32",
                            "name": "linkType",
                            "type": "bytes32"
                        }
                    ],
                    "internalType": "struct DataTypes.ProfileLinkStruct",
                    "name": "linkData",
                    "type": "tuple"
                },
                {
                    "internalType": "bytes32",
                    "name": "linkType",
                    "type": "bytes32"
                }
            ],
            "name": "linkProfileLink",
            "outputs": [],
            "stateMutability": "nonpayable",
            "type": "function"
        },
        {
            "inputs": [
                {
                    "components": [
                        {
                            "internalType": "uint256",
                            "name": "profileId",
                            "type": "uint256"
                        },
                        {
                            "internalType": "uint256",
                            "name": "noteId",
                            "type": "uint256"
                        },
                        {
                            "internalType": "address",
                            "name": "to",
                            "type": "address"
                        },
                        {
                            "internalType": "bytes",
                            "name": "mintModuleData",
                            "type": "bytes"
                        }
                    ],
                    "internalType": "struct DataTypes.MintNoteData",
                    "name": "vars",
                    "type": "tuple"
                }
            ],
            "name": "mintNote",
            "outputs": [
                {
                    "internalType": "uint256",
                    "name": "",
                    "type": "uint256"
                }
            ],
            "stateMutability": "nonpayable",
            "type": "function"
        },
        {
            "inputs": [],
            "name": "name",
            "outputs": [
                {
                    "internalType": "string",
                    "name": "",
                    "type": "string"
                }
            ],
            "stateMutability": "view",
            "type": "function"
        },
        {
            "inputs": [
                {
                    "internalType": "uint256",
                    "name": "tokenId",
                    "type": "uint256"
                }
            ],
            "name": "ownerOf",
            "outputs": [
                {
                    "internalType": "address",
                    "name": "",
                    "type": "address"
                }
            ],
            "stateMutability": "view",
            "type": "function"
        },
        {
            "inputs": [
                {
                    "components": [
                        {
                            "internalType": "uint256",
                            "name": "profileId",
                            "type": "uint256"
                        },
                        {
                            "internalType": "string",
                            "name": "contentUri",
                            "type": "string"
                        },
                        {
                            "internalType": "address",
                            "name": "linkModule",
                            "type": "address"
                        },
                        {
                            "internalType": "bytes",
                            "name": "linkModuleInitData",
                            "type": "bytes"
                        },
                        {
                            "internalType": "address",
                            "name": "mintModule",
                            "type": "address"
                        },
                        {
                            "internalType": "bytes",
                            "name": "mintModuleInitData",
                            "type": "bytes"
                        }
                    ],
                    "internalType": "struct DataTypes.PostNoteData",
                    "name": "vars",
                    "type": "tuple"
                }
            ],
            "name": "postNote",
            "outputs": [
                {
                    "internalType": "uint256",
                    "name": "",
                    "type": "uint256"
                }
            ],
            "stateMutability": "nonpayable",
            "type": "function"
        },
        {
            "inputs": [
                {
                    "components": [
                        {
                            "internalType": "uint256",
                            "name": "profileId",
                            "type": "uint256"
                        },
                        {
                            "internalType": "string",
                            "name": "contentUri",
                            "type": "string"
                        },
                        {
                            "internalType": "address",
                            "name": "linkModule",
                            "type": "address"
                        },
                        {
                            "internalType": "bytes",
                            "name": "linkModuleInitData",
                            "type": "bytes"
                        },
                        {
                            "internalType": "address",
                            "name": "mintModule",
                            "type": "address"
                        },
                        {
                            "internalType": "bytes",
                            "name": "mintModuleInitData",
                            "type": "bytes"
                        }
                    ],
                    "internalType": "struct DataTypes.PostNoteData",
                    "name": "noteData",
                    "type": "tuple"
                },
                {
                    "components": [
                        {
                            "internalType": "uint256",
                            "name": "fromProfileId",
                            "type": "uint256"
                        },
                        {
                            "internalType": "address",
                            "name": "ethAddress",
                            "type": "address"
                        },
                        {
                            "internalType": "bytes32",
                            "name": "linkType",
                            "type": "bytes32"
                        },
                        {
                            "internalType": "bytes",
                            "name": "data",
                            "type": "bytes"
                        }
                    ],
                    "internalType": "struct DataTypes.linkAddressData",
                    "name": "linkData",
                    "type": "tuple"
                }
            ],
            "name": "postNote4AddressLink",
            "outputs": [
                {
                    "internalType": "uint256",
                    "name": "",
                    "type": "uint256"
                }
            ],
            "stateMutability": "nonpayable",
            "type": "function"
        },
        {
            "inputs": [
                {
                    "components": [
                        {
                            "internalType": "uint256",
                            "name": "profileId",
                            "type": "uint256"
                        },
                        {
                            "internalType": "string",
                            "name": "contentUri",
                            "type": "string"
                        },
                        {
                            "internalType": "address",
                            "name": "linkModule",
                            "type": "address"
                        },
                        {
                            "internalType": "bytes",
                            "name": "linkModuleInitData",
                            "type": "bytes"
                        },
                        {
                            "internalType": "address",
                            "name": "mintModule",
                            "type": "address"
                        },
                        {
                            "internalType": "bytes",
                            "name": "mintModuleInitData",
                            "type": "bytes"
                        }
                    ],
                    "internalType": "struct DataTypes.PostNoteData",
                    "name": "noteData",
                    "type": "tuple"
                },
                {
                    "components": [
                        {
                            "internalType": "uint256",
                            "name": "fromProfileId",
                            "type": "uint256"
                        },
                        {
                            "internalType": "string",
                            "name": "toUri",
                            "type": "string"
                        },
                        {
                            "internalType": "bytes32",
                            "name": "linkType",
                            "type": "bytes32"
                        },
                        {
                            "internalType": "bytes",
                            "name": "data",
                            "type": "bytes"
                        }
                    ],
                    "internalType": "struct DataTypes.linkAnyData",
                    "name": "linkData",
                    "type": "tuple"
                }
            ],
            "name": "postNote4AnyLink",
            "outputs": [
                {
                    "internalType": "uint256",
                    "name": "",
                    "type": "uint256"
                }
            ],
            "stateMutability": "nonpayable",
            "type": "function"
        },
        {
            "inputs": [
                {
                    "components": [
                        {
                            "internalType": "uint256",
                            "name": "profileId",
                            "type": "uint256"
                        },
                        {
                            "internalType": "string",
                            "name": "contentUri",
                            "type": "string"
                        },
                        {
                            "internalType": "address",
                            "name": "linkModule",
                            "type": "address"
                        },
                        {
                            "internalType": "bytes",
                            "name": "linkModuleInitData",
                            "type": "bytes"
                        },
                        {
                            "internalType": "address",
                            "name": "mintModule",
                            "type": "address"
                        },
                        {
                            "internalType": "bytes",
                            "name": "mintModuleInitData",
                            "type": "bytes"
                        }
                    ],
                    "internalType": "struct DataTypes.PostNoteData",
                    "name": "noteData",
                    "type": "tuple"
                },
                {
                    "components": [
                        {
                            "internalType": "uint256",
                            "name": "fromProfileId",
                            "type": "uint256"
                        },
                        {
                            "internalType": "address",
                            "name": "tokenAddress",
                            "type": "address"
                        },
                        {
                            "internalType": "uint256",
                            "name": "tokenId",
                            "type": "uint256"
                        },
                        {
                            "internalType": "bytes32",
                            "name": "linkType",
                            "type": "bytes32"
                        },
                        {
                            "internalType": "bytes",
                            "name": "data",
                            "type": "bytes"
                        }
                    ],
                    "internalType": "struct DataTypes.linkERC721Data",
                    "name": "linkData",
                    "type": "tuple"
                }
            ],
            "name": "postNote4ERC721Link",
            "outputs": [
                {
                    "internalType": "uint256",
                    "name": "",
                    "type": "uint256"
                }
            ],
            "stateMutability": "nonpayable",
            "type": "function"
        },
        {
            "inputs": [
                {
                    "components": [
                        {
                            "internalType": "uint256",
                            "name": "profileId",
                            "type": "uint256"
                        },
                        {
                            "internalType": "string",
                            "name": "contentUri",
                            "type": "string"
                        },
                        {
                            "internalType": "address",
                            "name": "linkModule",
                            "type": "address"
                        },
                        {
                            "internalType": "bytes",
                            "name": "linkModuleInitData",
                            "type": "bytes"
                        },
                        {
                            "internalType": "address",
                            "name": "mintModule",
                            "type": "address"
                        },
                        {
                            "internalType": "bytes",
                            "name": "mintModuleInitData",
                            "type": "bytes"
                        }
                    ],
                    "internalType": "struct DataTypes.PostNoteData",
                    "name": "noteData",
                    "type": "tuple"
                },
                {
                    "components": [
                        {
                            "internalType": "uint256",
                            "name": "fromProfileId",
                            "type": "uint256"
                        },
                        {
                            "internalType": "uint256",
                            "name": "toLinkListId",
                            "type": "uint256"
                        },
                        {
                            "internalType": "bytes32",
                            "name": "linkType",
                            "type": "bytes32"
                        },
                        {
                            "internalType": "bytes",
                            "name": "data",
                            "type": "bytes"
                        }
                    ],
                    "internalType": "struct DataTypes.linkLinklistData",
                    "name": "linkData",
                    "type": "tuple"
                }
            ],
            "name": "postNote4LinklistLink",
            "outputs": [
                {
                    "internalType": "uint256",
                    "name": "",
                    "type": "uint256"
                }
            ],
            "stateMutability": "nonpayable",
            "type": "function"
        },
        {
            "inputs": [
                {
                    "components": [
                        {
                            "internalType": "uint256",
                            "name": "profileId",
                            "type": "uint256"
                        },
                        {
                            "internalType": "string",
                            "name": "contentUri",
                            "type": "string"
                        },
                        {
                            "internalType": "address",
                            "name": "linkModule",
                            "type": "address"
                        },
                        {
                            "internalType": "bytes",
                            "name": "linkModuleInitData",
                            "type": "bytes"
                        },
                        {
                            "internalType": "address",
                            "name": "mintModule",
                            "type": "address"
                        },
                        {
                            "internalType": "bytes",
                            "name": "mintModuleInitData",
                            "type": "bytes"
                        }
                    ],
                    "internalType": "struct DataTypes.PostNoteData",
                    "name": "noteData",
                    "type": "tuple"
                },
                {
                    "components": [
                        {
                            "internalType": "uint256",
                            "name": "fromProfileId",
                            "type": "uint256"
                        },
                        {
                            "internalType": "uint256",
                            "name": "toProfileId",
                            "type": "uint256"
                        },
                        {
                            "internalType": "uint256",
                            "name": "toNoteId",
                            "type": "uint256"
                        },
                        {
                            "internalType": "bytes32",
                            "name": "linkType",
                            "type": "bytes32"
                        },
                        {
                            "internalType": "bytes",
                            "name": "data",
                            "type": "bytes"
                        }
                    ],
                    "internalType": "struct DataTypes.linkNoteData",
                    "name": "linkData",
                    "type": "tuple"
                }
            ],
            "name": "postNote4NoteLink",
            "outputs": [
                {
                    "internalType": "uint256",
                    "name": "",
                    "type": "uint256"
                }
            ],
            "stateMutability": "nonpayable",
            "type": "function"
        },
        {
            "inputs": [
                {
                    "components": [
                        {
                            "internalType": "uint256",
                            "name": "profileId",
                            "type": "uint256"
                        },
                        {
                            "internalType": "string",
                            "name": "contentUri",
                            "type": "string"
                        },
                        {
                            "internalType": "address",
                            "name": "linkModule",
                            "type": "address"
                        },
                        {
                            "internalType": "bytes",
                            "name": "linkModuleInitData",
                            "type": "bytes"
                        },
                        {
                            "internalType": "address",
                            "name": "mintModule",
                            "type": "address"
                        },
                        {
                            "internalType": "bytes",
                            "name": "mintModuleInitData",
                            "type": "bytes"
                        }
                    ],
                    "internalType": "struct DataTypes.PostNoteData",
                    "name": "noteData",
                    "type": "tuple"
                },
                {
                    "components": [
                        {
                            "internalType": "uint256",
                            "name": "fromProfileId",
                            "type": "uint256"
                        },
                        {
                            "internalType": "uint256",
                            "name": "toProfileId",
                            "type": "uint256"
                        },
                        {
                            "internalType": "bytes32",
                            "name": "linkType",
                            "type": "bytes32"
                        },
                        {
                            "internalType": "bytes",
                            "name": "data",
                            "type": "bytes"
                        }
                    ],
                    "internalType": "struct DataTypes.linkProfileData",
                    "name": "linkData",
                    "type": "tuple"
                }
            ],
            "name": "postNote4ProfileLink",
            "outputs": [
                {
                    "internalType": "uint256",
                    "name": "",
                    "type": "uint256"
                }
            ],
            "stateMutability": "nonpayable",
            "type": "function"
        },
        {
            "inputs": [
                {
                    "internalType": "address",
                    "name": "from",
                    "type": "address"
                },
                {
                    "internalType": "address",
                    "name": "to",
                    "type": "address"
                },
                {
                    "internalType": "uint256",
                    "name": "tokenId",
                    "type": "uint256"
                }
            ],
            "name": "safeTransferFrom",
            "outputs": [],
            "stateMutability": "nonpayable",
            "type": "function"
        },
        {
            "inputs": [
                {
                    "internalType": "address",
                    "name": "from",
                    "type": "address"
                },
                {
                    "internalType": "address",
                    "name": "to",
                    "type": "address"
                },
                {
                    "internalType": "uint256",
                    "name": "tokenId",
                    "type": "uint256"
                },
                {
                    "internalType": "bytes",
                    "name": "_data",
                    "type": "bytes"
                }
            ],
            "name": "safeTransferFrom",
            "outputs": [],
            "stateMutability": "nonpayable",
            "type": "function"
        },
        {
            "inputs": [
                {
                    "internalType": "address",
                    "name": "operator",
                    "type": "address"
                },
                {
                    "internalType": "bool",
                    "name": "approved",
                    "type": "bool"
                }
            ],
            "name": "setApprovalForAll",
            "outputs": [],
            "stateMutability": "nonpayable",
            "type": "function"
        },
        {
            "inputs": [
                {
                    "internalType": "uint256",
                    "name": "profileId",
                    "type": "uint256"
                },
                {
                    "internalType": "string",
                    "name": "newHandle",
                    "type": "string"
                }
            ],
            "name": "setHandle",
            "outputs": [],
            "stateMutability": "nonpayable",
            "type": "function"
        },
        {
            "inputs": [
                {
                    "components": [
                        {
                            "internalType": "address",
                            "name": "account",
                            "type": "address"
                        },
                        {
                            "internalType": "address",
                            "name": "linkModule",
                            "type": "address"
                        },
                        {
                            "internalType": "bytes",
                            "name": "linkModuleInitData",
                            "type": "bytes"
                        }
                    ],
                    "internalType": "struct DataTypes.setLinkModule4AddressData",
                    "name": "vars",
                    "type": "tuple"
                }
            ],
            "name": "setLinkModule4Address",
            "outputs": [],
            "stateMutability": "nonpayable",
            "type": "function"
        },
        {
            "inputs": [
                {
                    "components": [
                        {
                            "internalType": "address",
                            "name": "tokenAddress",
                            "type": "address"
                        },
                        {
                            "internalType": "uint256",
                            "name": "tokenId",
                            "type": "uint256"
                        },
                        {
                            "internalType": "address",
                            "name": "linkModule",
                            "type": "address"
                        },
                        {
                            "internalType": "bytes",
                            "name": "linkModuleInitData",
                            "type": "bytes"
                        }
                    ],
                    "internalType": "struct DataTypes.setLinkModule4ERC721Data",
                    "name": "vars",
                    "type": "tuple"
                }
            ],
            "name": "setLinkModule4ERC721",
            "outputs": [],
            "stateMutability": "nonpayable",
            "type": "function"
        },
        {
            "inputs": [
                {
                    "components": [
                        {
                            "internalType": "uint256",
                            "name": "linklistId",
                            "type": "uint256"
                        },
                        {
                            "internalType": "address",
                            "name": "linkModule",
                            "type": "address"
                        },
                        {
                            "internalType": "bytes",
                            "name": "linkModuleInitData",
                            "type": "bytes"
                        }
                    ],
                    "internalType": "struct DataTypes.setLinkModule4LinklistData",
                    "name": "vars",
                    "type": "tuple"
                }
            ],
            "name": "setLinkModule4Linklist",
            "outputs": [],
            "stateMutability": "nonpayable",
            "type": "function"
        },
        {
            "inputs": [
                {
                    "components": [
                        {
                            "internalType": "uint256",
                            "name": "profileId",
                            "type": "uint256"
                        },
                        {
                            "internalType": "uint256",
                            "name": "noteId",
                            "type": "uint256"
                        },
                        {
                            "internalType": "address",
                            "name": "linkModule",
                            "type": "address"
                        },
                        {
                            "internalType": "bytes",
                            "name": "linkModuleInitData",
                            "type": "bytes"
                        }
                    ],
                    "internalType": "struct DataTypes.setLinkModule4NoteData",
                    "name": "vars",
                    "type": "tuple"
                }
            ],
            "name": "setLinkModule4Note",
            "outputs": [],
            "stateMutability": "nonpayable",
            "type": "function"
        },
        {
            "inputs": [
                {
                    "components": [
                        {
                            "internalType": "uint256",
                            "name": "profileId",
                            "type": "uint256"
                        },
                        {
                            "internalType": "address",
                            "name": "linkModule",
                            "type": "address"
                        },
                        {
                            "internalType": "bytes",
                            "name": "linkModuleInitData",
                            "type": "bytes"
                        }
                    ],
                    "internalType": "struct DataTypes.setLinkModule4ProfileData",
                    "name": "vars",
                    "type": "tuple"
                }
            ],
            "name": "setLinkModule4Profile",
            "outputs": [],
            "stateMutability": "nonpayable",
            "type": "function"
        },
        {
            "inputs": [
                {
                    "internalType": "uint256",
                    "name": "linklistId",
                    "type": "uint256"
                },
                {
                    "internalType": "string",
                    "name": "uri",
                    "type": "string"
                }
            ],
            "name": "setLinklistUri",
            "outputs": [],
            "stateMutability": "nonpayable",
            "type": "function"
        },
        {
            "inputs": [
                {
                    "components": [
                        {
                            "internalType": "uint256",
                            "name": "profileId",
                            "type": "uint256"
                        },
                        {
                            "internalType": "uint256",
                            "name": "noteId",
                            "type": "uint256"
                        },
                        {
                            "internalType": "address",
                            "name": "mintModule",
                            "type": "address"
                        },
                        {
                            "internalType": "bytes",
                            "name": "mintModuleInitData",
                            "type": "bytes"
                        }
                    ],
                    "internalType": "struct DataTypes.setMintModule4NoteData",
                    "name": "vars",
                    "type": "tuple"
                }
            ],
            "name": "setMintModule4Note",
            "outputs": [],
            "stateMutability": "nonpayable",
            "type": "function"
        },
        {
            "inputs": [
                {
                    "internalType": "uint256",
                    "name": "profileId",
                    "type": "uint256"
                }
            ],
            "name": "setPrimaryProfileId",
            "outputs": [],
            "stateMutability": "nonpayable",
            "type": "function"
        },
        {
            "inputs": [
                {
                    "internalType": "uint256",
                    "name": "profileId",
                    "type": "uint256"
                },
                {
                    "internalType": "string",
                    "name": "newUri",
                    "type": "string"
                }
            ],
            "name": "setProfileUri",
            "outputs": [],
            "stateMutability": "nonpayable",
            "type": "function"
        },
        {
            "inputs": [
                {
                    "internalType": "uint256",
                    "name": "profileId",
                    "type": "uint256"
                },
                {
                    "internalType": "address",
                    "name": "tokenAddress",
                    "type": "address"
                }
            ],
            "name": "setSocialToken",
            "outputs": [],
            "stateMutability": "nonpayable",
            "type": "function"
        },
        {
            "inputs": [
                {
                    "internalType": "bytes4",
                    "name": "interfaceId",
                    "type": "bytes4"
                }
            ],
            "name": "supportsInterface",
            "outputs": [
                {
                    "internalType": "bool",
                    "name": "",
                    "type": "bool"
                }
            ],
            "stateMutability": "view",
            "type": "function"
        },
        {
            "inputs": [],
            "name": "symbol",
            "outputs": [
                {
                    "internalType": "string",
                    "name": "",
                    "type": "string"
                }
            ],
            "stateMutability": "view",
            "type": "function"
        },
        {
            "inputs": [
                {
                    "internalType": "uint256",
                    "name": "index",
                    "type": "uint256"
                }
            ],
            "name": "tokenByIndex",
            "outputs": [
                {
                    "internalType": "uint256",
                    "name": "",
                    "type": "uint256"
                }
            ],
            "stateMutability": "view",
            "type": "function"
        },
        {
            "inputs": [
                {
                    "internalType": "address",
                    "name": "owner",
                    "type": "address"
                },
                {
                    "internalType": "uint256",
                    "name": "index",
                    "type": "uint256"
                }
            ],
            "name": "tokenOfOwnerByIndex",
            "outputs": [
                {
                    "internalType": "uint256",
                    "name": "",
                    "type": "uint256"
                }
            ],
            "stateMutability": "view",
            "type": "function"
        },
        {
            "inputs": [
                {
                    "internalType": "uint256",
                    "name": "profileId",
                    "type": "uint256"
                }
            ],
            "name": "tokenURI",
            "outputs": [
                {
                    "internalType": "string",
                    "name": "",
                    "type": "string"
                }
            ],
            "stateMutability": "view",
            "type": "function"
        },
        {
            "inputs": [],
            "name": "totalSupply",
            "outputs": [
                {
                    "internalType": "uint256",
                    "name": "",
                    "type": "uint256"
                }
            ],
            "stateMutability": "view",
            "type": "function"
        },
        {
            "inputs": [
                {
                    "internalType": "address",
                    "name": "from",
                    "type": "address"
                },
                {
                    "internalType": "address",
                    "name": "to",
                    "type": "address"
                },
                {
                    "internalType": "uint256",
                    "name": "tokenId",
                    "type": "uint256"
                }
            ],
            "name": "transferFrom",
            "outputs": [],
            "stateMutability": "nonpayable",
            "type": "function"
        },
        {
            "inputs": [
                {
                    "components": [
                        {
                            "internalType": "uint256",
                            "name": "fromProfileId",
                            "type": "uint256"
                        },
                        {
                            "internalType": "address",
                            "name": "ethAddress",
                            "type": "address"
                        },
                        {
                            "internalType": "bytes32",
                            "name": "linkType",
                            "type": "bytes32"
                        },
                        {
                            "internalType": "bytes",
                            "name": "data",
                            "type": "bytes"
                        }
                    ],
                    "internalType": "struct DataTypes.linkAddressData",
                    "name": "vars",
                    "type": "tuple"
                }
            ],
            "name": "unlinkAddress",
            "outputs": [],
            "stateMutability": "nonpayable",
            "type": "function"
        },
        {
            "inputs": [
                {
                    "components": [
                        {
                            "internalType": "uint256",
                            "name": "fromProfileId",
                            "type": "uint256"
                        },
                        {
                            "internalType": "string",
                            "name": "toUri",
                            "type": "string"
                        },
                        {
                            "internalType": "bytes32",
                            "name": "linkType",
                            "type": "bytes32"
                        }
                    ],
                    "internalType": "struct DataTypes.unlinkAnyData",
                    "name": "vars",
                    "type": "tuple"
                }
            ],
            "name": "unlinkAny",
            "outputs": [],
            "stateMutability": "nonpayable",
            "type": "function"
        },
        {
            "inputs": [
                {
                    "components": [
                        {
                            "internalType": "uint256",
                            "name": "fromProfileId",
                            "type": "uint256"
                        },
                        {
                            "internalType": "address",
                            "name": "tokenAddress",
                            "type": "address"
                        },
                        {
                            "internalType": "uint256",
                            "name": "tokenId",
                            "type": "uint256"
                        },
                        {
                            "internalType": "bytes32",
                            "name": "linkType",
                            "type": "bytes32"
                        }
                    ],
                    "internalType": "struct DataTypes.unlinkERC721Data",
                    "name": "vars",
                    "type": "tuple"
                }
            ],
            "name": "unlinkERC721",
            "outputs": [],
            "stateMutability": "nonpayable",
            "type": "function"
        },
        {
            "inputs": [
                {
                    "components": [
                        {
                            "internalType": "uint256",
                            "name": "fromProfileId",
                            "type": "uint256"
                        },
                        {
                            "internalType": "uint256",
                            "name": "toLinkListId",
                            "type": "uint256"
                        },
                        {
                            "internalType": "bytes32",
                            "name": "linkType",
                            "type": "bytes32"
                        },
                        {
                            "internalType": "bytes",
                            "name": "data",
                            "type": "bytes"
                        }
                    ],
                    "internalType": "struct DataTypes.linkLinklistData",
                    "name": "vars",
                    "type": "tuple"
                }
            ],
            "name": "unlinkLinklist",
            "outputs": [],
            "stateMutability": "nonpayable",
            "type": "function"
        },
        {
            "inputs": [
                {
                    "components": [
                        {
                            "internalType": "uint256",
                            "name": "fromProfileId",
                            "type": "uint256"
                        },
                        {
                            "internalType": "uint256",
                            "name": "toProfileId",
                            "type": "uint256"
                        },
                        {
                            "internalType": "uint256",
                            "name": "toNoteId",
                            "type": "uint256"
                        },
                        {
                            "internalType": "bytes32",
                            "name": "linkType",
                            "type": "bytes32"
                        }
                    ],
                    "internalType": "struct DataTypes.unlinkNoteData",
                    "name": "vars",
                    "type": "tuple"
                }
            ],
            "name": "unlinkNote",
            "outputs": [],
            "stateMutability": "nonpayable",
            "type": "function"
        },
        {
            "inputs": [
                {
                    "components": [
                        {
                            "internalType": "uint256",
                            "name": "fromProfileId",
                            "type": "uint256"
                        },
                        {
                            "internalType": "uint256",
                            "name": "toProfileId",
                            "type": "uint256"
                        },
                        {
                            "internalType": "bytes32",
                            "name": "linkType",
                            "type": "bytes32"
                        }
                    ],
                    "internalType": "struct DataTypes.unlinkProfileData",
                    "name": "vars",
                    "type": "tuple"
                }
            ],
            "name": "unlinkProfile",
            "outputs": [],
            "stateMutability": "nonpayable",
            "type": "function"
        },
        {
            "inputs": [
                {
                    "internalType": "uint256",
                    "name": "fromProfileId",
                    "type": "uint256"
                },
                {
                    "components": [
                        {
                            "internalType": "uint256",
                            "name": "fromProfileId",
                            "type": "uint256"
                        },
                        {
                            "internalType": "uint256",
                            "name": "toProfileId",
                            "type": "uint256"
                        },
                        {
                            "internalType": "bytes32",
                            "name": "linkType",
                            "type": "bytes32"
                        }
                    ],
                    "internalType": "struct DataTypes.ProfileLinkStruct",
                    "name": "linkData",
                    "type": "tuple"
                },
                {
                    "internalType": "bytes32",
                    "name": "linkType",
                    "type": "bytes32"
                }
            ],
            "name": "unlinkProfileLink",
            "outputs": [],
            "stateMutability": "nonpayable",
            "type": "function"
        }
    ],
    "bytecode": "0x608060405234801561001057600080fd5b50615ed180620000216000396000f3fe608060405234801561001057600080fd5b50600436106104755760003560e01c806369492c9711610257578063b9d3284511610146578063d36a2dce116100c3578063e985e9c511610087578063e985e9c514610b03578063ec81d19414610b3f578063f08f4f6414610b52578063f36b6a9114610b65578063fe9299fb14610b8557600080fd5b8063d36a2dce14610a7f578063d70e10c614610a92578063db491e8014610abd578063db8c198d14610add578063dca2713514610af057600080fd5b8063c7009c6b1161010a578063c7009c6b14610a20578063c87b56dd14610a33578063cb8e757e14610a46578063cba4f5cc14610a59578063d23b320b14610a6c57600080fd5b8063b9d32845146109c3578063bd5f69cb146109d6578063c053f6b8146109e9578063c2a6fe3b146109fa578063c387c45314610a0d57600080fd5b806395d89b41116101d4578063a6e6178d11610198578063a6e6178d14610964578063a7ccb4bf14610977578063a914c76e1461098a578063b88d4fde1461099d578063b9ad7c7f146109b057600080fd5b806395d89b41146108f357806395d9fa7d146108fb5780639864c3071461090e578063a10f53d814610921578063a22cb4651461095157600080fd5b8063867884e61161021b578063867884e61461089457806386833c88146108a75780638b4ca06a146108ba5780638e4bf54e146108cd5780638f15b414146108e057600080fd5b806369492c971461083557806370a08231146108485780637936da0e1461085b5780637c392b511461086e5780637cf474831461088157600080fd5b80632e0e9a62116103735780634f23983a116102f05780635b507cfd116102b45780635b507cfd146107bc5780635bf1aaaa146107cf57806362c3ed30146107e25780636352211e1461080257806363c008751461081557600080fd5b80634f23983a146107505780634f6ccce714610763578063515d42d2146107765780635440522b14610789578063570477fb146107a957600080fd5b806340ad34d81161033757806340ad34d8146106d657806342842e0e146106e957806342966c68146106fc578063490da8541461070f5780634a7906b91461072257600080fd5b80632e0e9a621461065e5780632f745c591461067157806331b9d08c1461068457806333f06ee6146106b0578063388f5083146106c357600080fd5b80630cbd3a491161040157806323b872dd116103c557806323b872dd146105f2578063251a99cf14610605578063295cb43e146106185780632c4225991461062b5780632c8bd87e1461064b57600080fd5b80630cbd3a49146105715780631316529d1461058457806318160ddd1461058b5780631bb4d231146105935780632209d145146105bc57600080fd5b806308cb68ff1161044857806308cb68ff14610503578063095ea7b3146105185780630ab6beba1461052b5780630c16de101461053e5780630c4dd5f21461055e57600080fd5b806301a0f5a71461047a57806301ffc9a7146104a057806306fdde03146104c3578063081812fc146104d8575b600080fd5b61048d610488366004614625565b610bae565b6040519081526020015b60405180910390f35b6104b36104ae36600461469e565b610caa565b6040519015158152602001610497565b6104cb610ccf565b6040516104979190614713565b6104eb6104e6366004614726565b610d61565b6040516001600160a01b039091168152602001610497565b610516610511366004614751565b610dfb565b005b61051661052636600461479a565b610e94565b6105166105393660046147c6565b610faa565b61055161054c36600461482a565b610fe7565b604051610497919061486b565b61051661056c366004614751565b611196565b6104cb61057f366004614726565b6111fb565b600361048d565b60085461048d565b61048d6105a13660046148e7565b6001600160a01b03166000908152600c602052604090205490565b6104eb6105ca36600461479a565b6001600160a01b03918216600090815260106020908152604080832093835292905220541690565b610516610600366004614904565b61126e565b6105166106133660046147c6565b61129f565b610516610626366004614726565b61132f565b61063e610639366004614945565b611375565b60405161049791906149d6565b61048d610659366004614a4a565b611620565b61048d61066c366004614625565b611697565b61048d61067f36600461479a565b6116d9565b6104eb6106923660046148e7565b6001600160a01b039081166000908152601160205260409020541690565b6105166106be366004614aa3565b61176f565b6105166106d1366004614aee565b6117e3565b6105166106e4366004614b22565b611836565b6105166106f7366004614904565b6118b0565b61051661070a366004614726565b6118cb565b61048d61071d366004614625565b61190f565b610735610730366004614726565b61196c565b60408051825181526020928301519281019290925201610497565b61051661075e366004614aee565b6119ea565b61048d610771366004614726565b611a3d565b610516610784366004614945565b611ad0565b61079c610797366004614726565b611c08565b6040516104979190614b3e565b6105166107b7366004614b5e565b611c86565b6105166107ca366004614751565b611d25565b61048d6107dd366004614a4a565b611d9e565b6107f56107f0366004614945565b611ddb565b6040516104979190614b94565b6104eb610810366004614726565b611e70565b610828610823366004614945565b611ee7565b6040516104979190614bf4565b610516610843366004614aee565b6120b3565b61048d6108563660046148e7565b612139565b610516610869366004614945565b6121c0565b61051661087c366004614aa3565b61227c565b61048d61088f366004614625565b6122e1565b6105166108a2366004614b22565b612326565b6105166108b5366004614aee565b612396565b61048d6108c8366004614726565b612405565b6105166108db366004614751565b612471565b6105166108ee366004614c38565b6124e0565b6104cb612627565b610516610909366004614ccc565b612636565b61051661091c366004614aee565b6126bc565b6104b361092f3660046148e7565b6001600160a01b03167396e96b7af62d628ce7eb2016d2c1d2786614ea731490565b61051661095f366004614cfc565b61270f565b610516610972366004614aa3565b61271e565b61048d610985366004614aee565b612768565b610516610998366004614aee565b61280c565b6105166109ab366004614dc4565b612909565b6105166109be366004614aee565b612941565b6105166109d1366004614e72565b6129b0565b6105166109e4366004614e72565b612a18565b6013546001600160a01b03166104eb565b610516610a08366004614945565b612b18565b6104b3610a1b366004614726565b612b5a565b610516610a2e366004614b5e565b612b88565b6104cb610a41366004614726565b612bde565b610516610a54366004614e72565b612c83565b6104cb610a67366004614726565b612cf3565b610516610a7a366004614aee565b612cfe565b61048d610a8d366004614ea6565b612d78565b61048d610aa0366004614945565b6000918252600d6020908152604080842092845291905290205490565b610ad0610acb366004614945565b612e24565b6040516104979190614eda565b610516610aeb366004614aee565b612f6a565b6104cb610afe366004614726565b612fb4565b6104b3610b11366004614eed565b6001600160a01b03918216600090815260056020908152604080832093909416825291909152205460ff1690565b6104cb610b4d366004614726565b612fe6565b610551610b60366004614726565b613006565b610b78610b73366004614945565b61318d565b6040516104979190614f1b565b6104eb610b93366004614726565b6000908152600f60205260409020546001600160a01b031690565b6000610bba833561321a565b66416e794c696e6b60c81b6000610bd46020850185614f70565b604051602001610be5929190614fb6565b6040516020818303038152906040528051906020012090506000600a60008660000135815260200190815260200160002060030160008154610c2690614fef565b9182905550604051631d642ea560e11b815290915073__$2873850e5b3f5697aafc2f5cd9f27cc884$__90633ac85d4a90610c6e908990859088908890600e90600401615126565b60006040518083038186803b158015610c8657600080fd5b505af4158015610c9a573d6000803e3d6000fd5b5092955050505050505b92915050565b60006001600160e01b0319821663780e9d6360e01b1480610ca45750610ca4826132a2565b606060008054610cde9061515d565b80601f0160208091040260200160405190810160405280929190818152602001828054610d0a9061515d565b8015610d575780601f10610d2c57610100808354040283529160200191610d57565b820191906000526020600020905b815481529060010190602001808311610d3a57829003601f168201915b5050505050905090565b6000818152600260205260408120546001600160a01b0316610ddf5760405162461bcd60e51b815260206004820152602c60248201527f4552433732313a20617070726f76656420717565727920666f72206e6f6e657860448201526b34b9ba32b73a103a37b5b2b760a11b60648201526084015b60405180910390fd5b506000908152600460205260409020546001600160a01b031690565b73__$69db18565ecbefece480e92cc5f8fb1274$__63dfc34f25610e2260208401846148e7565b610e3260408501602086016148e7565b610e3f6040860186614f70565b60116040518663ffffffff1660e01b8152600401610e61959493929190615192565b60006040518083038186803b158015610e7957600080fd5b505af4158015610e8d573d6000803e3d6000fd5b5050505050565b6000610e9f82611e70565b9050806001600160a01b0316836001600160a01b03161415610f0d5760405162461bcd60e51b815260206004820152602160248201527f4552433732313a20617070726f76616c20746f2063757272656e74206f776e656044820152603960f91b6064820152608401610dd6565b336001600160a01b0382161480610f295750610f298133610b11565b610f9b5760405162461bcd60e51b815260206004820152603860248201527f4552433732313a20617070726f76652063616c6c6572206973206e6f74206f7760448201527f6e6572206e6f7220617070726f76656420666f7220616c6c00000000000000006064820152608401610dd6565b610fa583836132f2565b505050565b610fe48135610fbf60408401602085016148e7565b836040013560405180604001604052806002815260200161060f60f31b815250613360565b50565b610fef61451a565b600083836040516110019291906151d1565b604080519182900382206000818152600b602090815283822054808352600a82529184902060c086019094528354855260018401805493965091949392908401919061104c9061515d565b80601f01602080910402602001604051908101604052809291908181526020018280546110789061515d565b80156110c55780601f1061109a576101008083540402835291602001916110c5565b820191906000526020600020905b8154815290600101906020018083116110a857829003601f168201915b505050505081526020016002820180546110de9061515d565b80601f016020809104026020016040519081016040528092919081815260200182805461110a9061515d565b80156111575780601f1061112c57610100808354040283529160200191611157565b820191906000526020600020905b81548152906001019060200180831161113a57829003601f168201915b50505091835250506003820154602082015260048201546001600160a01b03908116604083015260059092015490911660609091015295945050505050565b6111a081356135ef565b73__$69db18565ecbefece480e92cc5f8fb1274$__636252159e82356111cc60408501602086016148e7565b6111d96040860186614f70565b600f6040518663ffffffff1660e01b8152600401610e619594939291906151e1565b601354604051630cbd3a4960e01b8152600481018390526060916001600160a01b031690630cbd3a49906024015b600060405180830381865afa158015611246573d6000803e3d6000fd5b505050506040513d6000823e601f3d908101601f19168201604052610ca49190810190615251565b61127833826136af565b6112945760405162461bcd60e51b8152600401610dd690615285565b610fa58383836137a2565b6112a9813561321a565b60135481356000818152600d60209081526040808320818701358085529083529281902054905163eb23376360e01b8152600481019490945290850135602484015260448301919091526001600160a01b039092166064820152608481019190915273__$e2c9a8f399964af47bb173600dd9e5f662$__9063eb2337639060a401610e61565b6113388161321a565b336000818152600c6020526040808220849055518392917f444dbf26d795c263ce4e5f2fccaac8e71b73cb37091f74e9e4f76cd98b55f8d391a350565b6000828152600d60209081526040808320848452909152808220546013549151635e9f678b60e01b81526004810182905260609391926001600160a01b031690635e9f678b90602401600060405180830381865afa1580156113db573d6000803e3d6000fd5b505050506040513d6000823e601f3d908101601f191682016040526114039190810190615329565b905080516001600160401b0381111561141e5761141e614d2f565b60405190808252806020026020018201604052801561148657816020015b6040805160e0810182526000808252602080830182905260609383018490529282018190526080820181905260a0820181905260c0820152825260001990920191018161143c5790505b50925060005b815181101561161757600e60008383815181106114ab576114ab6153c4565b602002602001015160000151815260200190815260200160002060008383815181106114d9576114d96153c4565b60200260200101516020015181526020019081526020016000206040518060e001604052908160008201548152602001600182015481526020016002820180546115229061515d565b80601f016020809104026020016040519081016040528092919081815260200182805461154e9061515d565b801561159b5780601f106115705761010080835404028352916020019161159b565b820191906000526020600020905b81548152906001019060200180831161157e57829003601f168201915b505050918352505060038201546001600160a01b0390811660208301526004830154811660408301526005909201549182166060820152600160a01b90910460ff16151560809091015284518590839081106115f9576115f96153c4565b6020026020010181905250808061160f90614fef565b91505061148c565b50505092915050565b600061162c833561321a565b61164961163f60408401602085016148e7565b8360400135613949565b694552433732314c696e6b60b01b600061166960408501602086016148e7565b6040805160609290921b6bffffffffffffffffffffffff191660208301528501356034820152605401610be5565b60006116a3833561321a565b81356000908152600a6020908152604082206003018054674c6973744c696e6b60c01b93928601359291908290610c2690614fef565b60006116e483612139565b82106117465760405162461bcd60e51b815260206004820152602b60248201527f455243373231456e756d657261626c653a206f776e657220696e646578206f7560448201526a74206f6620626f756e647360a81b6064820152608401610dd6565b506001600160a01b03919091166000908152600660209081526040808320938352929052205490565b611778836135ef565b601354604051633c17845760e11b81526001600160a01b039091169063782f08ae906117ac908690869086906004016153da565b600060405180830381600087803b1580156117c657600080fd5b505af11580156117da573d6000803e3d6000fd5b50505050505050565b6117ed813561321a565b60135460405163e4bb4f2360e01b815273__$e2c9a8f399964af47bb173600dd9e5f662$__9163e4bb4f2391610e619185916001600160a01b0390911690600d9060040161544b565b611840813561321a565b60135460408051635cebf08d60e11b81528335600482015260208401356024820152908301356044820152606083013560648201526001600160a01b039091166084820152600d60a482015273__$e2c9a8f399964af47bb173600dd9e5f662$__9063b9d7e11a9060c401610e61565b610fa583838360405180602001604052806000815250612909565b6118d4816139f9565b6000818152600a602052604080822090516118f29160010190615479565b60408051918290039091206000908152600b602052908120555050565b600061191b833561321a565b6a416464726573734c696e6b60a81b600061193c60408501602086016148e7565b84356000908152600a6020526040812060030180546001600160a01b0393909316935090918290610c2690614fef565b604080518082018252600080825260208201526013549151634a7906b960e01b81526004810184905290916001600160a01b031690634a7906b9906024016040805180830381865afa1580156119c6573d6000803e3d6000fd5b505050506040513d601f19601f82011682018060405250810190610ca49190615515565b6119f4813561321a565b60135460405163283b0d6160e21b815273__$e2c9a8f399964af47bb173600dd9e5f662$__9163a0ec358491610e619185916001600160a01b0390911690600d90600401615531565b6000611a4860085490565b8210611aab5760405162461bcd60e51b815260206004820152602c60248201527f455243373231456e756d657261626c653a20676c6f62616c20696e646578206f60448201526b7574206f6620626f756e647360a01b6064820152608401610dd6565b60088281548110611abe57611abe6153c4565b90600052602060002001549050919050565b60135460405162fba02760e01b8152600481018490526000916001600160a01b03169062fba02790602401602060405180830381865afa158015611b18573d6000803e3d6000fd5b505050506040513d601f19601f82011682018060405250810190611b3c91906155ae565b6000838152600d6020908152604080832084845290915290205490915015611bb25760405162461bcd60e51b815260206004820152602360248201527f53616d652074797065206c696e6b6c69737420616c726561647920657869737460448201526232b21760e91b6064820152608401610dd6565b611bbc8383613a58565b6000828152600d60209081526040808320848452909152808220859055518291849186917f94703ec1dd639b589d05fa7c0c14ee1e83b906bfb5f50642cc7ea415a817228891a4505050565b604080518082018252600080825260208201526013549151635440522b60e01b81526004810184905290916001600160a01b031690635440522b906024016040805180830381865afa158015611c62573d6000803e3d6000fd5b505050506040513d601f19601f82011682018060405250810190610ca49190615602565b611c8f8361321a565b60135482356000908152600d602090815260408083208187013584529091529081902054905163d1b430f760e01b815273__$e2c9a8f399964af47bb173600dd9e5f662$__9263d1b430f792611cf9928892889288926001600160a01b039092169160040161561e565b60006040518083038186803b158015611d1157600080fd5b505af41580156117da573d6000803e3d6000fd5b611d2f813561321a565b73__$da066dc100670b51e733250a114f607b42$__631e2b88ba8235611d5b60408501602086016148e7565b611d686040860186614f70565b86356000908152600a60205260409081902090516001600160e01b031960e088901b168152610e619594939291906004016151e1565b6000611daa833561321a565b60408051602084810135908201528382013591810191909152674e6f74654c696e6b60c01b90600090606001610be5565b6000828152600d6020908152604080832084845290915290819020546013549151639037c0f960e01b8152600481018290526060926001600160a01b031690639037c0f990602401600060405180830381865afa158015611e40573d6000803e3d6000fd5b505050506040513d6000823e601f3d908101601f19168201604052611e68919081019061566b565b949350505050565b6000818152600260205260408120546001600160a01b031680610ca45760405162461bcd60e51b815260206004820152602960248201527f4552433732313a206f776e657220717565727920666f72206e6f6e657869737460448201526832b73a103a37b5b2b760b91b6064820152608401610dd6565b6000828152600d6020908152604080832084845290915280822054601354915163a72d231760e01b81526004810182905260609391926001600160a01b03169063a72d231790602401600060405180830381865afa158015611f4d573d6000803e3d6000fd5b505050506040513d6000823e601f3d908101601f19168201604052611f7591908101906156fb565b80519091506000805b82811015611fe557611fc0848281518110611f9b57611f9b6153c4565b60200260200101516000908152600260205260409020546001600160a01b0316151590565b15611fd35781611fcf81614fef565b9250505b80611fdd81614fef565b915050611f7e565b50806001600160401b03811115611ffe57611ffe614d2f565b604051908082528060200260200182016040528015612027578160200160208202803683370190505b5094506000805b838110156120a75761204b858281518110611f9b57611f9b6153c4565b1561209557848181518110612062576120626153c4565b602002602001015187838151811061207c5761207c6153c4565b60209081029190910101528161209181614fef565b9250505b8061209f81614fef565b91505061202e565b50505050505092915050565b6120cd6120c360208301836148e7565b8260200135613ac8565b73__$69db18565ecbefece480e92cc5f8fb1274$__63384afeb36120f460208401846148e7565b602084013561210960608601604087016148e7565b6121166060870187614f70565b60106040518763ffffffff1660e01b8152600401610e6196959493929190615780565b60006001600160a01b0382166121a45760405162461bcd60e51b815260206004820152602a60248201527f4552433732313a2062616c616e636520717565727920666f7220746865207a65604482015269726f206164647265737360b01b6064820152608401610dd6565b506001600160a01b031660009081526003602052604090205490565b60135460405162fba02760e01b8152600481018490526000916001600160a01b03169062fba02790602401602060405180830381865afa158015612208573d6000803e3d6000fd5b505050506040513d601f19601f8201168201806040525081019061222c91906155ae565b6000838152600d60209081526040808320848452909152808220829055519192508291849186917f5751ba9aebec2dcd504f8865b0e0c98a772403773fe528fce2fce580c9a8a1659190a4505050565b6122858361321a565b6000838152600a602052604090206122a1906002018383614562565b50827fc6b6b2c87fb0784186dd03398c7203c866d0ae59539fa3158aecbc86cb587a9583836040516122d49291906157c7565b60405180910390a2505050565b60006122ed833561321a565b81356000908152600a60209081526040822060030180546a50726f66696c654c696e6b60a81b93928601359291908290610c2690614fef565b612330813561321a565b60135481356000908152600d6020908152604080832060608601358452909152908190205490516317e9a8b160e31b815273__$e2c9a8f399964af47bb173600dd9e5f662$__9263bf4d458892610e619286926001600160a01b031691906004016157db565b6123a0813561321a565b60135481356000908152600d6020908152604080832081860135845290915290819020549051631a530d7760e21b815273__$e2c9a8f399964af47bb173600dd9e5f662$__9263694c35dc92610e619286926001600160a01b03169190600401615854565b60135460405162fba02760e01b8152600481018390526000916001600160a01b03169062fba02790602401602060405180830381865afa15801561244d573d6000803e3d6000fd5b505050506040513d601f19601f82011682018060405250810190610ca491906155ae565b61247b813561321a565b60135481356000908152600d6020908152604080832081860135845290915290819020549051634c1aaf3160e01b815273__$e2c9a8f399964af47bb173600dd9e5f662$__92634c1aaf3192610e619286926001600160a01b03169190600401615867565b601454600160a81b900460ff1661250457601454600160a01b900460ff1615612508565b303b155b61256b5760405162461bcd60e51b815260206004820152602e60248201527f496e697469616c697a61626c653a20636f6e747261637420697320616c72656160448201526d191e481a5b9a5d1a585b1a5e995960921b6064820152608401610dd6565b601454600160a81b900460ff16158015612595576014805461ffff60a01b191661010160a01b1790555b6125a187878787613b82565b601380546001600160a01b038086166001600160a01b03199283161790925560148054928516929091169190911790556040517f400175a56dd3710794078f7b9dbe8296ac94c5a248dfd51bb22ed4ab9eaa9fbf906126039042815260200190565b60405180910390a180156117da576014805460ff60a81b1916905550505050505050565b606060018054610cde9061515d565b61263f8261321a565b60405163470c9bf360e11b8152600481018390526001600160a01b0382166024820152600a604482015273__$da066dc100670b51e733250a114f607b42$__90638e1937e69060640160006040518083038186803b1580156126a057600080fd5b505af41580156126b4573d6000803e3d6000fd5b505050505050565b6126c6813561321a565b601354604051635fe5df1d60e11b815273__$e2c9a8f399964af47bb173600dd9e5f662$__9163bfcbbe3a91610e619185916001600160a01b0390911690600d90600401615854565b61271a338383613bd3565b5050565b6127278361321a565b60405163c57cb53760e01b815273__$da066dc100670b51e733250a114f607b42$__9063c57cb53790611cf990869086908690600b90600a906004016158bf565b600061277982356020840135613ca2565b73__$2873850e5b3f5697aafc2f5cd9f27cc884$__6379b8a998833560208501356127aa60608701604088016148e7565b6127b76060880188614f70565b6014546040516001600160e01b031960e089901b1681526127ef9695949392916001600160a01b031690600a90600e906004016158ed565b602060405180830381865af415801561244d573d6000803e3d6000fd5b612816813561321a565b6128238160200135613d57565b73__$e2c9a8f399964af47bb173600dd9e5f662$__634fcfb9b08235602084013560408501356128566060870187614f70565b6040516331a9108f60e11b8152883560048201523090636352211e90602401602060405180830381865afa158015612892573d6000803e3d6000fd5b505050506040513d601f19601f820116820180604052508101906128b6919061593b565b6013546020808b01356000908152600a9091526040908190206005015490516001600160e01b031960e08b901b168152610e61989796959493926001600160a01b03908116921690600d90600401615958565b61291333836136af565b61292f5760405162461bcd60e51b8152600401610dd690615285565b61293b84848484613dae565b50505050565b61294b813561321a565b60135481356000908152600d60209081526040808320818601358452909152908190205490516352bff63d60e01b815273__$e2c9a8f399964af47bb173600dd9e5f662$__926352bff63d92610e619286926001600160a01b0316919060040161544b565b6129ba813561321a565b6129cc81602001358260400135613ca2565b601354604051631619823f60e31b815273__$e2c9a8f399964af47bb173600dd9e5f662$__9163b0cc11f891610e619185916001600160a01b0390911690600e90600d906004016159b2565b601254612a26906001615a28565b601255612a41612a3960208301836148e7565b601254613de1565b6012546040516328837e1960e21b815273__$da066dc100670b51e733250a114f607b42$__9163a20df86491612a8591859160019190600b90600a90600401615a40565b60006040518083038186803b158015612a9d57600080fd5b505af4158015612ab1573d6000803e3d6000fd5b50600c925060009150612ac9905060208401846148e7565b6001600160a01b03168152602081019190915260400160002054610fe457601254600c6000612afb60208501856148e7565b6001600160a01b0316815260208101919091526040016000205550565b612b218261321a565b612b2b8282613ca2565b6000918252600e602090815260408084209284529190529020600501805460ff60a01b1916600160a01b179055565b600080612b6683611e70565b6001600160a01b03166000908152600c60205260409020549290921492915050565b612b918361321a565b6013546040516327e70cd360e01b815273__$e2c9a8f399964af47bb173600dd9e5f662$__916327e70cd391611cf9918791879187916001600160a01b0390911690600d9060040161561e565b6000818152600a60205260409020600201805460609190612bfe9061515d565b80601f0160208091040260200160405190810160405280929190818152602001828054612c2a9061515d565b8015612c775780601f10612c4c57610100808354040283529160200191612c77565b820191906000526020600020905b815481529060010190602001808311612c5a57829003601f168201915b50505050509050919050565b612c8d813561321a565b612caa612ca060408301602084016148e7565b8260400135613949565b601354604051638f3334ff60e01b815273__$e2c9a8f399964af47bb173600dd9e5f662$__91638f3334ff91610e619185916001600160a01b0390911690600d90600401615b21565b6060610ca482612bde565b612d08813561321a565b612d1781356020830135613ca2565b73__$69db18565ecbefece480e92cc5f8fb1274$__6320828a0282356020840135612d4860608601604087016148e7565b612d556060870187614f70565b600e6040518763ffffffff1660e01b8152600401610e6196959493929190615b99565b6000612d84823561321a565b81356000908152600a6020526040812060030180548290612da490614fef565b9182905550604051631d642ea560e11b815290915073__$2873850e5b3f5697aafc2f5cd9f27cc884$__90633ac85d4a90612ded90869085906000908190600e90600401615126565b60006040518083038186803b158015612e0557600080fd5b505af4158015612e19573d6000803e3d6000fd5b509295945050505050565b6040805160e0808201835260008083526020808401829052606084860181905284018290526080840182905260a0840182905260c08401829052868252600e81528482208683528152908490208451928301855280548352600181015491830191909152600281018054939492939192840191612ea09061515d565b80601f0160208091040260200160405190810160405280929190818152602001828054612ecc9061515d565b8015612f195780601f10612eee57610100808354040283529160200191612f19565b820191906000526020600020905b815481529060010190602001808311612efc57829003601f168201915b505050918352505060038201546001600160a01b0390811660208301526004830154811660408301526005909201549182166060820152600160a01b90910460ff1615156080909101529392505050565b612f74813561321a565b612f8381356020830135613ca2565b73__$69db18565ecbefece480e92cc5f8fb1274$__631f2ffb6982356020840135612d4860608601604087016148e7565b601354604051632b05429560e21b8152600481018390526060916001600160a01b03169063ac150a5490602401611229565b6000818152600a60205260409020600101805460609190612bfe9061515d565b61300e61451a565b600a60008381526020019081526020016000206040518060c0016040529081600082015481526020016001820180546130469061515d565b80601f01602080910402602001604051908101604052809291908181526020018280546130729061515d565b80156130bf5780601f10613094576101008083540402835291602001916130bf565b820191906000526020600020905b8154815290600101906020018083116130a257829003601f168201915b505050505081526020016002820180546130d89061515d565b80601f01602080910402602001604051908101604052809291908181526020018280546131049061515d565b80156131515780601f1061312657610100808354040283529160200191613151565b820191906000526020600020905b81548152906001019060200180831161313457829003601f168201915b50505091835250506003820154602082015260048201546001600160a01b03908116604083015260059092015490911660609091015292915050565b6000828152600d602090815260408083208484529091529081902054601354915163077c438760e51b8152600481018290526060926001600160a01b03169063ef8870e090602401600060405180830381865afa1580156131f2573d6000803e3d6000fd5b505050506040513d6000823e601f3d908101601f19168201604052611e689190810190615bc7565b600061322582611e70565b9050336001600160a01b03821614806132645750326001600160a01b03821614801561326457507396e96b7af62d628ce7eb2016d2c1d2786614ea7333145b61271a5760405162461bcd60e51b815260206004820152600f60248201526e2737ba283937b334b632a7bbb732b960891b6044820152606401610dd6565b60006001600160e01b031982166380ac58cd60e01b14806132d357506001600160e01b03198216635b5e139f60e01b145b80610ca457506301ffc9a760e01b6001600160e01b0319831614610ca4565b600081815260046020526040902080546001600160a01b0319166001600160a01b038416908117909155819061332782611e70565b6001600160a01b03167f8c5be1e5ebec7d5bd14f71427d1e84f3dd0314c0f7b2291e5b200ac8c7c3b92560405160405180910390a45050565b6133698461321a565b6001600160a01b0383166000908152600c6020526040902054156133e35760405162461bcd60e51b815260206004820152602b60248201527f546172676574206164647265737320616c726561647920686173207072696d6160448201526a393c90383937b334b6329760a91b6064820152608401610dd6565b60006012600081546133f490614fef565b918290555090506134058482613de1565b73__$da066dc100670b51e733250a114f607b42$__63a20df8646040518060a00160405280876001600160a01b0316815260200161344d886001600160a01b03166014613f2f565b815260200160405180602001604052806000815250815260200160006001600160a01b0316815260200160405180602001604052806000815250815250600084600b600a6040518663ffffffff1660e01b81526004016134b1959493929190615c77565b60006040518083038186803b1580156134c957600080fd5b505af41580156134dd573d6000803e3d6000fd5b505050506001600160a01b0384166000908152600c602052604090819020829055516331a9108f60e11b81526004810186905273__$e2c9a8f399964af47bb173600dd9e5f662$__90634fcfb9b09087908490879087903090636352211e90602401602060405180830381865afa15801561355c573d6000803e3d6000fd5b505050506040513d601f19601f82011682018060405250810190613580919061593b565b6013546040516001600160e01b031960e089901b1681526135b89695949392916001600160a01b031690600090600d90600401615d04565b60006040518083038186803b1580156135d057600080fd5b505af41580156135e4573d6000803e3d6000fd5b505050505050505050565b6013546040516331a9108f60e11b8152600481018390526001600160a01b0390911690636352211e90602401602060405180830381865afa158015613638573d6000803e3d6000fd5b505050506040513d601f19601f8201168201806040525081019061365c919061593b565b6001600160a01b0316336001600160a01b031614610fe45760405162461bcd60e51b815260206004820152601060248201526f2737ba2634b735a634b9ba27bbb732b960811b6044820152606401610dd6565b6000818152600260205260408120546001600160a01b03166137285760405162461bcd60e51b815260206004820152602c60248201527f4552433732313a206f70657261746f7220717565727920666f72206e6f6e657860448201526b34b9ba32b73a103a37b5b2b760a11b6064820152608401610dd6565b600061373383611e70565b9050806001600160a01b0316846001600160a01b0316148061376e5750836001600160a01b031661376384610d61565b6001600160a01b0316145b80611e6857506001600160a01b0380821660009081526005602090815260408083209388168352929052205460ff16611e68565b826001600160a01b03166137b582611e70565b6001600160a01b0316146138195760405162461bcd60e51b815260206004820152602560248201527f4552433732313a207472616e736665722066726f6d20696e636f72726563742060448201526437bbb732b960d91b6064820152608401610dd6565b6001600160a01b03821661387b5760405162461bcd60e51b8152602060048201526024808201527f4552433732313a207472616e7366657220746f20746865207a65726f206164646044820152637265737360e01b6064820152608401610dd6565b6138868383836140d1565b6138916000826132f2565b6001600160a01b03831660009081526003602052604081208054600192906138ba908490615d5c565b90915550506001600160a01b03821660009081526003602052604081208054600192906138e8908490615a28565b909155505060008181526002602052604080822080546001600160a01b0319166001600160a01b0386811691821790925591518493918716917fddf252ad1be2c89b69c2b068fc378daa952ba7f163c4a11628f55a4df523b3ef91a4505050565b6040516331a9108f60e11b8152600481018290526001600160a01b03831690636352211e90602401602060405180830381865afa15801561398e573d6000803e3d6000fd5b505050506040513d601f19601f820116820180604052508101906139b2919061593b565b6001600160a01b031661271a5760405162461bcd60e51b815260206004820152600f60248201526e5245433732314e6f7445786973747360881b6044820152606401610dd6565b613a0333826136af565b613a4f5760405162461bcd60e51b815260206004820152601b60248201527f4e4654426173653a204e6f744f776e65724f72417070726f76656400000000006044820152606401610dd6565b610fe481614114565b613a618161321a565b601354604051631c5b266960e21b815260048101849052336024820152604481018390526001600160a01b039091169063716c99a490606401600060405180830381600087803b158015613ab457600080fd5b505af11580156126b4573d6000803e3d6000fd5b6040516331a9108f60e11b8152600481018290526001600160a01b03831690636352211e90602401602060405180830381865afa158015613b0d573d6000803e3d6000fd5b505050506040513d601f19601f82011682018060405250810190613b31919061593b565b6001600160a01b0316336001600160a01b03161461271a5760405162461bcd60e51b815260206004820152600e60248201526d2737ba22a9219b9918a7bbb732b960911b6044820152606401610dd6565b613b8e848484846141bb565b7f414cd0b34676984f09a5f76ce9718d4062e50283abe0e7e274a9a5b4e0c99c308484848442604051613bc5959493929190615d73565b60405180910390a150505050565b816001600160a01b0316836001600160a01b03161415613c355760405162461bcd60e51b815260206004820152601960248201527f4552433732313a20617070726f766520746f2063616c6c6572000000000000006044820152606401610dd6565b6001600160a01b03838116600081815260056020908152604080832094871680845294825291829020805460ff191686151590811790915591519182527f17307eab39ab6107e8899845ad3d59bd9653f200f220920489ca2b5937696c31910160405180910390a3505050565b6000828152600e60209081526040808320848452909152902060050154600160a01b900460ff1615613d065760405162461bcd60e51b815260206004820152600d60248201526c139bdd19525cd1195b195d1959609a1b6044820152606401610dd6565b6000828152600a602052604090206003015481111561271a5760405162461bcd60e51b815260206004820152600d60248201526c4e6f74654e6f7445786973747360981b6044820152606401610dd6565b6000818152600260205260409020546001600160a01b0316610fe45760405162461bcd60e51b815260206004820152601060248201526f50726f66696c654e6f7445786973747360801b6044820152606401610dd6565b613db98484846137a2565b613dc5848484846141d4565b61293b5760405162461bcd60e51b8152600401610dd690615dad565b6001600160a01b038216613e375760405162461bcd60e51b815260206004820181905260248201527f4552433732313a206d696e7420746f20746865207a65726f20616464726573736044820152606401610dd6565b6000818152600260205260409020546001600160a01b031615613e9c5760405162461bcd60e51b815260206004820152601c60248201527f4552433732313a20746f6b656e20616c7265616479206d696e746564000000006044820152606401610dd6565b613ea8600083836140d1565b6001600160a01b0382166000908152600360205260408120805460019290613ed1908490615a28565b909155505060008181526002602052604080822080546001600160a01b0319166001600160a01b03861690811790915590518392907fddf252ad1be2c89b69c2b068fc378daa952ba7f163c4a11628f55a4df523b3ef908290a45050565b60606000613f3e836002615dff565b613f49906002615a28565b6001600160401b03811115613f6057613f60614d2f565b6040519080825280601f01601f191660200182016040528015613f8a576020820181803683370190505b509050600360fc1b81600081518110613fa557613fa56153c4565b60200101906001600160f81b031916908160001a905350600f60fb1b81600181518110613fd457613fd46153c4565b60200101906001600160f81b031916908160001a9053506000613ff8846002615dff565b614003906001615a28565b90505b600181111561407b576f181899199a1a9b1b9c1cb0b131b232b360811b85600f1660108110614037576140376153c4565b1a60f81b82828151811061404d5761404d6153c4565b60200101906001600160f81b031916908160001a90535060049490941c9361407481615e1e565b9050614006565b5083156140ca5760405162461bcd60e51b815260206004820181905260248201527f537472696e67733a20686578206c656e67746820696e73756666696369656e746044820152606401610dd6565b9392505050565b6001600160a01b0383166000908152600c602052604090205415614109576001600160a01b0383166000908152600c60205260408120555b610fa58383836142d2565b600061411f82611e70565b905061412d816000846140d1565b6141386000836132f2565b6001600160a01b0381166000908152600360205260408120805460019290614161908490615d5c565b909155505060008281526002602052604080822080546001600160a01b0319169055518391906001600160a01b038416907fddf252ad1be2c89b69c2b068fc378daa952ba7f163c4a11628f55a4df523b3ef908390a45050565b6141c760008585614562565b50610e8d60018383614562565b60006001600160a01b0384163b156142c757604051630a85bd0160e11b81526001600160a01b0385169063150b7a0290614218903390899088908890600401615e35565b6020604051808303816000875af1925050508015614253575060408051601f3d908101601f1916820190925261425091810190615e68565b60015b6142ad573d808015614281576040519150601f19603f3d011682016040523d82523d6000602084013e614286565b606091505b5080516142a55760405162461bcd60e51b8152600401610dd690615dad565b805181602001fd5b6001600160e01b031916630a85bd0160e11b149050611e68565b506001949350505050565b6001600160a01b03831661432d5761432881600880546000838152600960205260408120829055600182018355919091527ff3f7a9fe364faab93b216da50a3214154f22a0a2b415b23a84c8169e8b636ee30155565b614350565b816001600160a01b0316836001600160a01b03161461435057614350838261438a565b6001600160a01b03821661436757610fa581614427565b826001600160a01b0316826001600160a01b031614610fa557610fa582826144d6565b6000600161439784612139565b6143a19190615d5c565b6000838152600760205260409020549091508082146143f4576001600160a01b03841660009081526006602090815260408083208584528252808320548484528184208190558352600790915290208190555b5060009182526007602090815260408084208490556001600160a01b039094168352600681528383209183525290812055565b60085460009061443990600190615d5c565b60008381526009602052604081205460088054939450909284908110614461576144616153c4565b906000526020600020015490508060088381548110614482576144826153c4565b60009182526020808320909101929092558281526009909152604080822084905585825281205560088054806144ba576144ba615e85565b6001900381819060005260206000200160009055905550505050565b60006144e183612139565b6001600160a01b039093166000908152600660209081526040808320868452825280832085905593825260079052919091209190915550565b6040518060c001604052806000815260200160608152602001606081526020016000815260200160006001600160a01b0316815260200160006001600160a01b031681525090565b82805461456e9061515d565b90600052602060002090601f01602090048101928261459057600085556145d6565b82601f106145a95782800160ff198235161785556145d6565b828001600101855582156145d6579182015b828111156145d65782358255916020019190600101906145bb565b506145e29291506145e6565b5090565b5b808211156145e257600081556001016145e7565b600060c0828403121561460d57600080fd5b50919050565b60006080828403121561460d57600080fd5b6000806040838503121561463857600080fd5b82356001600160401b038082111561464f57600080fd5b61465b868387016145fb565b9350602085013591508082111561467157600080fd5b5061467e85828601614613565b9150509250929050565b6001600160e01b031981168114610fe457600080fd5b6000602082840312156146b057600080fd5b81356140ca81614688565b60005b838110156146d65781810151838201526020016146be565b8381111561293b5750506000910152565b600081518084526146ff8160208601602086016146bb565b601f01601f19169290920160200192915050565b6020815260006140ca60208301846146e7565b60006020828403121561473857600080fd5b5035919050565b60006060828403121561460d57600080fd5b60006020828403121561476357600080fd5b81356001600160401b0381111561477957600080fd5b611e688482850161473f565b6001600160a01b0381168114610fe457600080fd5b600080604083850312156147ad57600080fd5b82356147b881614785565b946020939093013593505050565b6000606082840312156147d857600080fd5b6140ca838361473f565b60008083601f8401126147f457600080fd5b5081356001600160401b0381111561480b57600080fd5b60208301915083602082850101111561482357600080fd5b9250929050565b6000806020838503121561483d57600080fd5b82356001600160401b0381111561485357600080fd5b61485f858286016147e2565b90969095509350505050565b60208152815160208201526000602083015160c0604084015261489160e08401826146e7565b90506040840151601f198483030160608501526148ae82826146e7565b91505060608401516080840152608084015160018060a01b0380821660a08601528060a08701511660c086015250508091505092915050565b6000602082840312156148f957600080fd5b81356140ca81614785565b60008060006060848603121561491957600080fd5b833561492481614785565b9250602084013561493481614785565b929592945050506040919091013590565b6000806040838503121561495857600080fd5b50508035926020909101359150565b80518252602081015160208301526000604082015160e0604085015261499060e08501826146e7565b9050606083015160018060a01b0380821660608701528060808601511660808701528060a08601511660a0870152505060c0830151151560c08501528091505092915050565b6000602080830181845280855180835260408601915060408160051b870101925083870160005b82811015614a2b57603f19888603018452614a19858351614967565b945092850192908501906001016149fd565b5092979650505050505050565b600060a0828403121561460d57600080fd5b60008060408385031215614a5d57600080fd5b82356001600160401b0380821115614a7457600080fd5b614a80868387016145fb565b93506020850135915080821115614a9657600080fd5b5061467e85828601614a38565b600080600060408486031215614ab857600080fd5b8335925060208401356001600160401b03811115614ad557600080fd5b614ae1868287016147e2565b9497909650939450505050565b600060208284031215614b0057600080fd5b81356001600160401b03811115614b1657600080fd5b611e6884828501614613565b600060808284031215614b3457600080fd5b6140ca8383614613565b81516001600160a01b031681526020808301519082015260408101610ca4565b600080600060a08486031215614b7357600080fd5b83359250614b84856020860161473f565b9150608084013590509250925092565b602080825282518282018190526000919060409081850190868401855b82811015614be757614bd784835180516001600160a01b03168252602090810151910152565b9284019290850190600101614bb1565b5091979650505050505050565b6020808252825182820181905260009190848201906040850190845b81811015614c2c57835183529284019291840191600101614c10565b50909695505050505050565b60008060008060008060808789031215614c5157600080fd5b86356001600160401b0380821115614c6857600080fd5b614c748a838b016147e2565b90985096506020890135915080821115614c8d57600080fd5b50614c9a89828a016147e2565b9095509350506040870135614cae81614785565b91506060870135614cbe81614785565b809150509295509295509295565b60008060408385031215614cdf57600080fd5b823591506020830135614cf181614785565b809150509250929050565b60008060408385031215614d0f57600080fd5b8235614d1a81614785565b915060208301358015158114614cf157600080fd5b634e487b7160e01b600052604160045260246000fd5b604080519081016001600160401b0381118282101715614d6757614d67614d2f565b60405290565b604051601f8201601f191681016001600160401b0381118282101715614d9557614d95614d2f565b604052919050565b60006001600160401b03821115614db657614db6614d2f565b50601f01601f191660200190565b60008060008060808587031215614dda57600080fd5b8435614de581614785565b93506020850135614df581614785565b92506040850135915060608501356001600160401b03811115614e1757600080fd5b8501601f81018713614e2857600080fd5b8035614e3b614e3682614d9d565b614d6d565b818152886020838501011115614e5057600080fd5b8160208401602083013760006020838301015280935050505092959194509250565b600060208284031215614e8457600080fd5b81356001600160401b03811115614e9a57600080fd5b611e6884828501614a38565b600060208284031215614eb857600080fd5b81356001600160401b03811115614ece57600080fd5b611e68848285016145fb565b6020815260006140ca6020830184614967565b60008060408385031215614f0057600080fd5b8235614f0b81614785565b91506020830135614cf181614785565b6000602080830181845280855180835260408601915060408160051b870101925083870160005b82811015614a2b57603f19888603018452614f5e8583516146e7565b94509285019290850190600101614f42565b6000808335601e19843603018112614f8757600080fd5b8301803591506001600160401b03821115614fa157600080fd5b60200191503681900382131561482357600080fd5b664c696e6b416e7960c81b81528183600783013760009101600701908152919050565b634e487b7160e01b600052601160045260246000fd5b600060001982141561500357615003614fd9565b5060010190565b6000808335601e1984360301811261502157600080fd5b83016020810192503590506001600160401b0381111561504057600080fd5b80360383131561482357600080fd5b81835281816020850137506000828201602090810191909152601f909101601f19169091010190565b80358252600061508b602083018361500a565b60c060208601526150a060c08601828461504f565b91505060408301356150b181614785565b6001600160a01b0381811660408701526150ce606086018661500a565b925086840360608801526150e384848361504f565b935050608085013591506150f682614785565b16608085015261510960a084018461500a565b85830360a087015261511c83828461504f565b9695505050505050565b60a08152600061513960a0830188615078565b90508560208301528460408301528360608301528260808301529695505050505050565b600181811c9082168061517157607f821691505b6020821081141561460d57634e487b7160e01b600052602260045260246000fd5b6001600160a01b038681168252851660208201526080604082018190526000906151bf908301858761504f565b90508260608301529695505050505050565b8183823760009101908152919050565b8581526001600160a01b03851660208201526080604082018190526000906151bf908301858761504f565b600082601f83011261521d57600080fd5b815161522b614e3682614d9d565b81815284602083860101111561524057600080fd5b611e688260208301602087016146bb565b60006020828403121561526357600080fd5b81516001600160401b0381111561527957600080fd5b611e688482850161520c565b60208082526031908201527f4552433732313a207472616e736665722063616c6c6572206973206e6f74206f6040820152701ddb995c881b9bdc88185c1c1c9bdd9959607a1b606082015260800190565b60006001600160401b038211156152ef576152ef614d2f565b5060051b60200190565b60006040828403121561530b57600080fd5b615313614d45565b9050815181526020820151602082015292915050565b6000602080838503121561533c57600080fd5b82516001600160401b0381111561535257600080fd5b8301601f8101851361536357600080fd5b8051615371614e36826152d6565b81815260069190911b8201830190838101908783111561539057600080fd5b928401925b828410156153b9576153a788856152f9565b82528482019150604084019350615395565b979650505050505050565b634e487b7160e01b600052603260045260246000fd5b8381526040602082015260006153f460408301848661504f565b95945050505050565b803582526000602082013561541181614785565b6001600160a01b0316602084015260408281013590840152615436606083018361500a565b608060608601526153f460808601828461504f565b60608152600061545e60608301866153fd565b6001600160a01b039490941660208301525060400152919050565b600080835481600182811c91508083168061549557607f831692505b60208084108214156154b557634e487b7160e01b86526022600452602486fd5b8180156154c957600181146154da57615507565b60ff19861689528489019650615507565b60008a81526020902060005b868110156154ff5781548b8201529085019083016154e6565b505084890196505b509498975050505050505050565b60006040828403121561552757600080fd5b6140ca83836152f9565b6060815283356060820152600061554b602086018661500a565b60808085015261555f60e08501828461504f565b915050604086013560a0840152615579606087018761500a565b848303605f190160c086015261559083828461504f565b6001600160a01b039790971660208601525050505060400152919050565b6000602082840312156155c057600080fd5b5051919050565b6000604082840312156155d957600080fd5b6155e1614d45565b905081516155ee81614785565b808252506020820151602082015292915050565b60006040828403121561561457600080fd5b6140ca83836155c7565b85815260e0810161564660208301878035825260208082013590830152604090810135910152565b60808201949094526001600160a01b039290921660a083015260c09091015292915050565b6000602080838503121561567e57600080fd5b82516001600160401b0381111561569457600080fd5b8301601f810185136156a557600080fd5b80516156b3614e36826152d6565b81815260069190911b820183019083810190878311156156d257600080fd5b928401925b828410156153b9576156e988856155c7565b825284820191506040840193506156d7565b6000602080838503121561570e57600080fd5b82516001600160401b0381111561572457600080fd5b8301601f8101851361573557600080fd5b8051615743614e36826152d6565b81815260059190911b8201830190838101908783111561576257600080fd5b928401925b828410156153b957835182529284019290840190615767565b6001600160a01b038781168252602082018790528516604082015260a0606082018190526000906157b4908301858761504f565b9050826080830152979650505050505050565b602081526000611e6860208301848661504f565b8335815260c0810160208501356157f181614785565b6001600160a01b039081166020840152604086810135908401526060958601359583019590955292909316608084015260a09092019190915290565b8035825260208101356020830152604081013560408301526000615436606083018361500a565b60608152600061545e606083018661582d565b60608152833560608201526000615881602086018661500a565b6060608085015261589660c08501828461504f565b60409788013560a08601526001600160a01b039690961660208501525050509092019190915290565b8581526080602082015260006158d960808301868861504f565b604083019490945250606001529392505050565b888152876020820152600060018060a01b03808916604084015260e0606084015261591c60e08401888a61504f565b951660808301525060a081019290925260c09091015295945050505050565b60006020828403121561594d57600080fd5b81516140ca81614785565b60006101008b83528a602084015289604084015280606084015261597f818401898b61504f565b6001600160a01b03978816608085015295871660a084015250509190931660c082015260e0019190915295945050505050565b6080815284356080820152602085013560a0820152604085013560c0820152606085013560e082015260006159ea608087018761500a565b60a0610100850152615a016101208501828461504f565b6001600160a01b039790971660208501525050506040810192909252606090910152919050565b60008219821115615a3b57615a3b614fd9565b500190565b60a0815260008635615a5181614785565b6001600160a01b0381811660a0850152615a6e60208a018a61500a565b925060a060c0860152615a866101408601848361504f565b925050615a9660408a018a61500a565b609f19808786030160e0880152615aae85838561504f565b945060608c01359250615ac083614785565b838316610100880152615ad660808d018d61500a565b9450925080878603016101208801525050615af283838361504f565b9350505050615b05602083018715159052565b8460408301528360608301528260808301529695505050505050565b606081528335606082015260006020850135615b3c81614785565b60018060a01b038082166080850152604087013560a0850152606087013560c0850152615b6c608088018861500a565b925060a060e0860152615b846101008601848361504f565b96909116602085015250505060400152919050565b86815285602082015260018060a01b038516604082015260a0606082015260006157b460a08301858761504f565b60006020808385031215615bda57600080fd5b82516001600160401b0380821115615bf157600080fd5b818501915085601f830112615c0557600080fd5b8151615c13614e36826152d6565b81815260059190911b83018401908481019088831115615c3257600080fd5b8585015b83811015615c6a57805185811115615c4e5760008081fd5b615c5c8b89838a010161520c565b845250918601918601615c36565b5098975050505050505050565b60a08152600060018060a01b038088511660a0840152602088015160a060c0850152615ca76101408501826146e7565b90506040890151609f19808684030160e0870152615cc583836146e7565b92508360608c01511661010087015260808b0151935080868403016101208701525050615cf281836146e7565b92505050615b05602083018715159052565b60006101008a8352896020840152886040840152806060840152615d2a818401896146e7565b6001600160a01b03978816608085015295871660a084015250509190931660c082015260e00191909152949350505050565b600082821015615d6e57615d6e614fd9565b500390565b606081526000615d8760608301878961504f565b8281036020840152615d9a81868861504f565b9150508260408301529695505050505050565b60208082526032908201527f4552433732313a207472616e7366657220746f206e6f6e20455243373231526560408201527131b2b4bb32b91034b6b83632b6b2b73a32b960711b606082015260800190565b6000816000190483118215151615615e1957615e19614fd9565b500290565b600081615e2d57615e2d614fd9565b506000190190565b6001600160a01b038581168252841660208201526040810183905260806060820181905260009061511c908301846146e7565b600060208284031215615e7a57600080fd5b81516140ca81614688565b634e487b7160e01b600052603160045260246000fdfea2646970667358221220ad9d7b2342396d6274c71ba6752885b7d61ab3b6365e6fa64ddf58e04501342264736f6c634300080a0033",
    "linkReferences": {
        "contracts/libraries/LinkLogic.sol": {
            "LinkLogic": [
                {
                    "length": 20,
                    "start": 4910
                },
                {
                    "length": 20,
                    "start": 6176
                },
                {
                    "length": 20,
                    "start": 6319
                },
                {
                    "length": 20,
                    "start": 6695
                },
                {
                    "length": 20,
                    "start": 7394
                },
                {
                    "length": 20,
                    "start": 9092
                },
                {
                    "length": 20,
                    "start": 9203
                },
                {
                    "length": 20,
                    "start": 9422
                },
                {
                    "length": 20,
                    "start": 9977
                },
                {
                    "length": 20,
                    "start": 10310
                },
                {
                    "length": 20,
                    "start": 10654
                },
                {
                    "length": 20,
                    "start": 10751
                },
                {
                    "length": 20,
                    "start": 11204
                },
                {
                    "length": 20,
                    "start": 11485
                },
                {
                    "length": 20,
                    "start": 13619
                }
            ]
        },
        "contracts/libraries/LinkModuleLogic.sol": {
            "LinkModuleLogic": [
                {
                    "length": 20,
                    "start": 3614
                },
                {
                    "length": 20,
                    "start": 4547
                },
                {
                    "length": 20,
                    "start": 8432
                },
                {
                    "length": 20,
                    "start": 11578
                },
                {
                    "length": 20,
                    "start": 12198
                }
            ]
        },
        "contracts/libraries/PostLogic.sol": {
            "PostLogic": [
                {
                    "length": 20,
                    "start": 3166
                },
                {
                    "length": 20,
                    "start": 10140
                },
                {
                    "length": 20,
                    "start": 11740
                }
            ]
        },
        "contracts/libraries/ProfileLogic.sol": {
            "ProfileLogic": [
                {
                    "length": 20,
                    "start": 7506
                },
                {
                    "length": 20,
                    "start": 9868
                },
                {
                    "length": 20,
                    "start": 10071
                },
                {
                    "length": 20,
                    "start": 10868
                },
                {
                    "length": 20,
                    "start": 13352
                }
            ]
        }
    },
    "deployedLinkReferences": {
        "contracts/libraries/LinkLogic.sol": {
            "LinkLogic": [
                {
                    "length": 20,
                    "start": 4877
                },
                {
                    "length": 20,
                    "start": 6143
                },
                {
                    "length": 20,
                    "start": 6286
                },
                {
                    "length": 20,
                    "start": 6662
                },
                {
                    "length": 20,
                    "start": 7361
                },
                {
                    "length": 20,
                    "start": 9059
                },
                {
                    "length": 20,
                    "start": 9170
                },
                {
                    "length": 20,
                    "start": 9389
                },
                {
                    "length": 20,
                    "start": 9944
                },
                {
                    "length": 20,
                    "start": 10277
                },
                {
                    "length": 20,
                    "start": 10621
                },
                {
                    "length": 20,
                    "start": 10718
                },
                {
                    "length": 20,
                    "start": 11171
                },
                {
                    "length": 20,
                    "start": 11452
                },
                {
                    "length": 20,
                    "start": 13586
                }
            ]
        },
        "contracts/libraries/LinkModuleLogic.sol": {
            "LinkModuleLogic": [
                {
                    "length": 20,
                    "start": 3581
                },
                {
                    "length": 20,
                    "start": 4514
                },
                {
                    "length": 20,
                    "start": 8399
                },
                {
                    "length": 20,
                    "start": 11545
                },
                {
                    "length": 20,
                    "start": 12165
                }
            ]
        },
        "contracts/libraries/PostLogic.sol": {
            "PostLogic": [
                {
                    "length": 20,
                    "start": 3133
                },
                {
                    "length": 20,
                    "start": 10107
                },
                {
                    "length": 20,
                    "start": 11707
                }
            ]
        },
        "contracts/libraries/ProfileLogic.sol": {
            "ProfileLogic": [
                {
                    "length": 20,
                    "start": 7473
                },
                {
                    "length": 20,
                    "start": 9835
                },
                {
                    "length": 20,
                    "start": 10038
                },
                {
                    "length": 20,
                    "start": 10835
                },
                {
                    "length": 20,
                    "start": 13319
                }
            ]
        }
    }
}