{
  "_format": "hh-sol-artifact-1",
  "contractName": "Web3Entry",
  "sourceName": "contracts/Web3Entry.sol",
  "abi": [
    {
      "anonymous": false,
      "inputs": [
        {
          "indexed": true,
          "internalType": "address",
          "name": "owner",
          "type": "address"
        },
        {
          "indexed": true,
          "internalType": "address",
          "name": "approved",
          "type": "address"
        },
        {
          "indexed": true,
          "internalType": "uint256",
          "name": "tokenId",
          "type": "uint256"
        }
      ],
      "name": "Approval",
      "type": "event"
    },
    {
      "anonymous": false,
      "inputs": [
        {
          "indexed": true,
          "internalType": "address",
          "name": "owner",
          "type": "address"
        },
        {
          "indexed": true,
          "internalType": "address",
          "name": "operator",
          "type": "address"
        },
        {
          "indexed": false,
          "internalType": "bool",
          "name": "approved",
          "type": "bool"
        }
      ],
      "name": "ApprovalForAll",
      "type": "event"
    },
    {
      "anonymous": false,
      "inputs": [
        {
          "indexed": false,
          "internalType": "uint8",
          "name": "version",
          "type": "uint8"
        }
      ],
      "name": "Initialized",
      "type": "event"
    },
    {
      "anonymous": false,
      "inputs": [
        {
          "indexed": true,
          "internalType": "address",
          "name": "from",
          "type": "address"
        },
        {
          "indexed": true,
          "internalType": "address",
          "name": "to",
          "type": "address"
        },
        {
          "indexed": true,
          "internalType": "uint256",
          "name": "tokenId",
          "type": "uint256"
        }
      ],
      "name": "Transfer",
      "type": "event"
    },
    {
      "inputs": [
        {
          "internalType": "address",
          "name": "to",
          "type": "address"
        },
        {
          "internalType": "uint256",
          "name": "tokenId",
          "type": "uint256"
        }
      ],
      "name": "approve",
      "outputs": [],
      "stateMutability": "nonpayable",
      "type": "function"
    },
    {
      "inputs": [
        {
          "internalType": "address",
          "name": "owner",
          "type": "address"
        }
      ],
      "name": "balanceOf",
      "outputs": [
        {
          "internalType": "uint256",
          "name": "",
          "type": "uint256"
        }
      ],
      "stateMutability": "view",
      "type": "function"
    },
    {
      "inputs": [
        {
          "internalType": "uint256",
          "name": "tokenId",
          "type": "uint256"
        }
      ],
      "name": "burn",
      "outputs": [],
      "stateMutability": "nonpayable",
      "type": "function"
    },
    {
      "inputs": [
        {
          "components": [
            {
              "internalType": "address",
              "name": "to",
              "type": "address"
            },
            {
              "internalType": "string",
              "name": "handle",
              "type": "string"
            },
            {
              "internalType": "string",
              "name": "uri",
              "type": "string"
            },
            {
              "internalType": "address",
              "name": "linkModule",
              "type": "address"
            },
            {
              "internalType": "bytes",
              "name": "linkModuleInitData",
              "type": "bytes"
            }
          ],
          "internalType": "struct DataTypes.CreateCharacterData",
          "name": "vars",
          "type": "tuple"
        }
      ],
      "name": "createCharacter",
      "outputs": [],
      "stateMutability": "nonpayable",
      "type": "function"
    },
    {
      "inputs": [
        {
          "components": [
            {
              "internalType": "uint256",
              "name": "fromCharacterId",
              "type": "uint256"
            },
            {
              "internalType": "address",
              "name": "to",
              "type": "address"
            },
            {
              "internalType": "bytes32",
              "name": "linkType",
              "type": "bytes32"
            }
          ],
          "internalType": "struct DataTypes.createThenLinkCharacterData",
          "name": "vars",
          "type": "tuple"
        }
      ],
      "name": "createThenLinkCharacter",
      "outputs": [],
      "stateMutability": "nonpayable",
      "type": "function"
    },
    {
      "inputs": [
        {
          "internalType": "uint256",
          "name": "characterId",
          "type": "uint256"
        },
        {
          "internalType": "uint256",
          "name": "noteId",
          "type": "uint256"
        }
      ],
      "name": "deleteNote",
      "outputs": [],
      "stateMutability": "nonpayable",
      "type": "function"
    },
    {
      "inputs": [
        {
          "internalType": "uint256",
          "name": "tokenId",
          "type": "uint256"
        }
      ],
      "name": "getApproved",
      "outputs": [
        {
          "internalType": "address",
          "name": "",
          "type": "address"
        }
      ],
      "stateMutability": "view",
      "type": "function"
    },
    {
      "inputs": [
        {
          "internalType": "uint256",
          "name": "characterId",
          "type": "uint256"
        }
      ],
      "name": "getCharacter",
      "outputs": [
        {
          "components": [
            {
              "internalType": "uint256",
              "name": "characterId",
              "type": "uint256"
            },
            {
              "internalType": "string",
              "name": "handle",
              "type": "string"
            },
            {
              "internalType": "string",
              "name": "uri",
              "type": "string"
            },
            {
              "internalType": "uint256",
              "name": "noteCount",
              "type": "uint256"
            },
            {
              "internalType": "address",
              "name": "socialToken",
              "type": "address"
            },
            {
              "internalType": "address",
              "name": "linkModule",
              "type": "address"
            }
          ],
          "internalType": "struct DataTypes.Character",
          "name": "",
          "type": "tuple"
        }
      ],
      "stateMutability": "view",
      "type": "function"
    },
    {
      "inputs": [
        {
          "internalType": "string",
          "name": "handle",
          "type": "string"
        }
      ],
      "name": "getCharacterByHandle",
      "outputs": [
        {
          "components": [
            {
              "internalType": "uint256",
              "name": "characterId",
              "type": "uint256"
            },
            {
              "internalType": "string",
              "name": "handle",
              "type": "string"
            },
            {
              "internalType": "string",
              "name": "uri",
              "type": "string"
            },
            {
              "internalType": "uint256",
              "name": "noteCount",
              "type": "uint256"
            },
            {
              "internalType": "address",
              "name": "socialToken",
              "type": "address"
            },
            {
              "internalType": "address",
              "name": "linkModule",
              "type": "address"
            }
          ],
          "internalType": "struct DataTypes.Character",
          "name": "",
          "type": "tuple"
        }
      ],
      "stateMutability": "view",
      "type": "function"
    },
    {
      "inputs": [
        {
          "internalType": "uint256",
          "name": "characterId",
          "type": "uint256"
        }
      ],
      "name": "getCharacterUri",
      "outputs": [
        {
          "internalType": "string",
          "name": "",
          "type": "string"
        }
      ],
      "stateMutability": "view",
      "type": "function"
    },
    {
      "inputs": [
        {
          "internalType": "uint256",
          "name": "characterId",
          "type": "uint256"
        }
      ],
      "name": "getHandle",
      "outputs": [
        {
          "internalType": "string",
          "name": "",
          "type": "string"
        }
      ],
      "stateMutability": "view",
      "type": "function"
    },
    {
      "inputs": [
        {
          "internalType": "address",
          "name": "account",
          "type": "address"
        }
      ],
      "name": "getLinkModule4Address",
      "outputs": [
        {
          "internalType": "address",
          "name": "",
          "type": "address"
        }
      ],
      "stateMutability": "view",
      "type": "function"
    },
    {
      "inputs": [
        {
          "internalType": "address",
          "name": "tokenAddress",
          "type": "address"
        },
        {
          "internalType": "uint256",
          "name": "tokenId",
          "type": "uint256"
        }
      ],
      "name": "getLinkModule4ERC721",
      "outputs": [
        {
          "internalType": "address",
          "name": "",
          "type": "address"
        }
      ],
      "stateMutability": "view",
      "type": "function"
    },
    {
      "inputs": [
        {
          "internalType": "uint256",
          "name": "tokenId",
          "type": "uint256"
        }
      ],
      "name": "getLinkModule4Linklist",
      "outputs": [
        {
          "internalType": "address",
          "name": "",
          "type": "address"
        }
      ],
      "stateMutability": "view",
      "type": "function"
    },
    {
      "inputs": [],
      "name": "getLinklistContract",
      "outputs": [
        {
          "internalType": "address",
          "name": "",
          "type": "address"
        }
      ],
      "stateMutability": "view",
      "type": "function"
    },
    {
      "inputs": [
        {
          "internalType": "uint256",
          "name": "characterId",
          "type": "uint256"
        },
        {
          "internalType": "bytes32",
          "name": "linkType",
          "type": "bytes32"
        }
      ],
      "name": "getLinklistId",
      "outputs": [
        {
          "internalType": "uint256",
          "name": "",
          "type": "uint256"
        }
      ],
      "stateMutability": "view",
      "type": "function"
    },
    {
      "inputs": [
        {
          "internalType": "uint256",
          "name": "linkListId",
          "type": "uint256"
        }
      ],
      "name": "getLinklistType",
      "outputs": [
        {
          "internalType": "bytes32",
          "name": "",
          "type": "bytes32"
        }
      ],
      "stateMutability": "view",
      "type": "function"
    },
    {
      "inputs": [
        {
          "internalType": "uint256",
          "name": "tokenId",
          "type": "uint256"
        }
      ],
      "name": "getLinklistUri",
      "outputs": [
        {
          "internalType": "string",
          "name": "",
          "type": "string"
        }
      ],
      "stateMutability": "view",
      "type": "function"
    },
    {
      "inputs": [
        {
          "internalType": "uint256",
          "name": "characterId",
          "type": "uint256"
        },
        {
          "internalType": "uint256",
          "name": "noteId",
          "type": "uint256"
        }
      ],
      "name": "getNote",
      "outputs": [
        {
          "components": [
            {
              "internalType": "bytes32",
              "name": "linkItemType",
              "type": "bytes32"
            },
            {
              "internalType": "bytes32",
              "name": "linkKey",
              "type": "bytes32"
            },
            {
              "internalType": "string",
              "name": "contentUri",
              "type": "string"
            },
            {
              "internalType": "address",
              "name": "linkModule",
              "type": "address"
            },
            {
              "internalType": "address",
              "name": "mintModule",
              "type": "address"
            },
            {
              "internalType": "address",
              "name": "mintNFT",
              "type": "address"
            },
            {
              "internalType": "bool",
              "name": "deleted",
              "type": "bool"
            },
            {
              "internalType": "bool",
              "name": "locked",
              "type": "bool"
            }
          ],
          "internalType": "struct DataTypes.Note",
          "name": "",
          "type": "tuple"
        }
      ],
      "stateMutability": "view",
      "type": "function"
    },
    {
      "inputs": [
        {
          "internalType": "uint256",
          "name": "characterId",
          "type": "uint256"
        }
      ],
      "name": "getOperator",
      "outputs": [
        {
          "internalType": "address",
          "name": "",
          "type": "address"
        }
      ],
      "stateMutability": "view",
      "type": "function"
    },
    {
      "inputs": [
        {
          "internalType": "address",
          "name": "account",
          "type": "address"
        }
      ],
      "name": "getPrimaryCharacterId",
      "outputs": [
        {
          "internalType": "uint256",
          "name": "",
          "type": "uint256"
        }
      ],
      "stateMutability": "view",
      "type": "function"
    },
    {
      "inputs": [],
      "name": "getRevision",
      "outputs": [
        {
          "internalType": "uint256",
          "name": "",
          "type": "uint256"
        }
      ],
      "stateMutability": "pure",
      "type": "function"
    },
    {
      "inputs": [
        {
          "internalType": "string",
          "name": "_name",
          "type": "string"
        },
        {
          "internalType": "string",
          "name": "_symbol",
          "type": "string"
        },
        {
          "internalType": "address",
          "name": "_linklistContract",
          "type": "address"
        },
        {
          "internalType": "address",
          "name": "_mintNFTImpl",
          "type": "address"
        },
        {
          "internalType": "address",
          "name": "_periphery",
          "type": "address"
        },
        {
          "internalType": "address",
          "name": "_resolver",
          "type": "address"
        }
      ],
      "name": "initialize",
      "outputs": [],
      "stateMutability": "nonpayable",
      "type": "function"
    },
    {
      "inputs": [
        {
          "internalType": "address",
          "name": "owner",
          "type": "address"
        },
        {
          "internalType": "address",
          "name": "operator",
          "type": "address"
        }
      ],
      "name": "isApprovedForAll",
      "outputs": [
        {
          "internalType": "bool",
          "name": "",
          "type": "bool"
        }
      ],
      "stateMutability": "view",
      "type": "function"
    },
    {
      "inputs": [
        {
          "internalType": "uint256",
          "name": "characterId",
          "type": "uint256"
        }
      ],
      "name": "isPrimaryCharacter",
      "outputs": [
        {
          "internalType": "bool",
          "name": "",
          "type": "bool"
        }
      ],
      "stateMutability": "view",
      "type": "function"
    },
    {
      "inputs": [
        {
          "components": [
            {
              "internalType": "uint256",
              "name": "fromCharacterId",
              "type": "uint256"
            },
            {
              "internalType": "address",
              "name": "ethAddress",
              "type": "address"
            },
            {
              "internalType": "bytes32",
              "name": "linkType",
              "type": "bytes32"
            },
            {
              "internalType": "bytes",
              "name": "data",
              "type": "bytes"
            }
          ],
          "internalType": "struct DataTypes.linkAddressData",
          "name": "vars",
          "type": "tuple"
        }
      ],
      "name": "linkAddress",
      "outputs": [],
      "stateMutability": "nonpayable",
      "type": "function"
    },
    {
      "inputs": [
        {
          "components": [
            {
              "internalType": "uint256",
              "name": "fromCharacterId",
              "type": "uint256"
            },
            {
              "internalType": "string",
              "name": "toUri",
              "type": "string"
            },
            {
              "internalType": "bytes32",
              "name": "linkType",
              "type": "bytes32"
            },
            {
              "internalType": "bytes",
              "name": "data",
              "type": "bytes"
            }
          ],
          "internalType": "struct DataTypes.linkAnyUriData",
          "name": "vars",
          "type": "tuple"
        }
      ],
      "name": "linkAnyUri",
      "outputs": [],
      "stateMutability": "nonpayable",
      "type": "function"
    },
    {
      "inputs": [
        {
          "components": [
            {
              "internalType": "uint256",
              "name": "fromCharacterId",
              "type": "uint256"
            },
            {
              "internalType": "uint256",
              "name": "toCharacterId",
              "type": "uint256"
            },
            {
              "internalType": "bytes32",
              "name": "linkType",
              "type": "bytes32"
            },
            {
              "internalType": "bytes",
              "name": "data",
              "type": "bytes"
            }
          ],
          "internalType": "struct DataTypes.linkCharacterData",
          "name": "vars",
          "type": "tuple"
        }
      ],
      "name": "linkCharacter",
      "outputs": [],
      "stateMutability": "nonpayable",
      "type": "function"
    },
    {
      "inputs": [
        {
          "components": [
            {
              "internalType": "uint256",
              "name": "fromCharacterId",
              "type": "uint256"
            },
            {
              "internalType": "address",
              "name": "tokenAddress",
              "type": "address"
            },
            {
              "internalType": "uint256",
              "name": "tokenId",
              "type": "uint256"
            },
            {
              "internalType": "bytes32",
              "name": "linkType",
              "type": "bytes32"
            },
            {
              "internalType": "bytes",
              "name": "data",
              "type": "bytes"
            }
          ],
          "internalType": "struct DataTypes.linkERC721Data",
          "name": "vars",
          "type": "tuple"
        }
      ],
      "name": "linkERC721",
      "outputs": [],
      "stateMutability": "nonpayable",
      "type": "function"
    },
    {
      "inputs": [
        {
          "components": [
            {
              "internalType": "uint256",
              "name": "fromCharacterId",
              "type": "uint256"
            },
            {
              "internalType": "uint256",
              "name": "toLinkListId",
              "type": "uint256"
            },
            {
              "internalType": "bytes32",
              "name": "linkType",
              "type": "bytes32"
            },
            {
              "internalType": "bytes",
              "name": "data",
              "type": "bytes"
            }
          ],
          "internalType": "struct DataTypes.linkLinklistData",
          "name": "vars",
          "type": "tuple"
        }
      ],
      "name": "linkLinklist",
      "outputs": [],
      "stateMutability": "nonpayable",
      "type": "function"
    },
    {
      "inputs": [
        {
          "components": [
            {
              "internalType": "uint256",
              "name": "fromCharacterId",
              "type": "uint256"
            },
            {
              "internalType": "uint256",
              "name": "toCharacterId",
              "type": "uint256"
            },
            {
              "internalType": "uint256",
              "name": "toNoteId",
              "type": "uint256"
            },
            {
              "internalType": "bytes32",
              "name": "linkType",
              "type": "bytes32"
            },
            {
              "internalType": "bytes",
              "name": "data",
              "type": "bytes"
            }
          ],
          "internalType": "struct DataTypes.linkNoteData",
          "name": "vars",
          "type": "tuple"
        }
      ],
      "name": "linkNote",
      "outputs": [],
      "stateMutability": "nonpayable",
      "type": "function"
    },
    {
      "inputs": [
        {
          "internalType": "uint256",
          "name": "characterId",
          "type": "uint256"
        },
        {
          "internalType": "uint256",
          "name": "noteId",
          "type": "uint256"
        }
      ],
      "name": "lockNote",
      "outputs": [],
      "stateMutability": "nonpayable",
      "type": "function"
    },
    {
      "inputs": [
        {
          "components": [
            {
              "internalType": "uint256",
              "name": "characterId",
              "type": "uint256"
            },
            {
              "internalType": "uint256",
              "name": "noteId",
              "type": "uint256"
            },
            {
              "internalType": "address",
              "name": "to",
              "type": "address"
            },
            {
              "internalType": "bytes",
              "name": "mintModuleData",
              "type": "bytes"
            }
          ],
          "internalType": "struct DataTypes.MintNoteData",
          "name": "vars",
          "type": "tuple"
        }
      ],
      "name": "mintNote",
      "outputs": [
        {
          "internalType": "uint256",
          "name": "",
          "type": "uint256"
        }
      ],
      "stateMutability": "nonpayable",
      "type": "function"
    },
    {
      "inputs": [],
      "name": "name",
      "outputs": [
        {
          "internalType": "string",
          "name": "",
          "type": "string"
        }
      ],
      "stateMutability": "view",
      "type": "function"
    },
    {
      "inputs": [
        {
          "internalType": "uint256",
          "name": "tokenId",
          "type": "uint256"
        }
      ],
      "name": "ownerOf",
      "outputs": [
        {
          "internalType": "address",
          "name": "",
          "type": "address"
        }
      ],
      "stateMutability": "view",
      "type": "function"
    },
    {
      "inputs": [
        {
          "components": [
            {
              "internalType": "uint256",
              "name": "characterId",
              "type": "uint256"
            },
            {
              "internalType": "string",
              "name": "contentUri",
              "type": "string"
            },
            {
              "internalType": "address",
              "name": "linkModule",
              "type": "address"
            },
            {
              "internalType": "bytes",
              "name": "linkModuleInitData",
              "type": "bytes"
            },
            {
              "internalType": "address",
              "name": "mintModule",
              "type": "address"
            },
            {
              "internalType": "bytes",
              "name": "mintModuleInitData",
              "type": "bytes"
            },
            {
              "internalType": "bool",
              "name": "locked",
              "type": "bool"
            }
          ],
          "internalType": "struct DataTypes.PostNoteData",
          "name": "vars",
          "type": "tuple"
        }
      ],
      "name": "postNote",
      "outputs": [
        {
          "internalType": "uint256",
          "name": "",
          "type": "uint256"
        }
      ],
      "stateMutability": "nonpayable",
      "type": "function"
    },
    {
      "inputs": [
        {
          "components": [
            {
              "internalType": "uint256",
              "name": "characterId",
              "type": "uint256"
            },
            {
              "internalType": "string",
              "name": "contentUri",
              "type": "string"
            },
            {
              "internalType": "address",
              "name": "linkModule",
              "type": "address"
            },
            {
              "internalType": "bytes",
              "name": "linkModuleInitData",
              "type": "bytes"
            },
            {
              "internalType": "address",
              "name": "mintModule",
              "type": "address"
            },
            {
              "internalType": "bytes",
              "name": "mintModuleInitData",
              "type": "bytes"
            },
            {
              "internalType": "bool",
              "name": "locked",
              "type": "bool"
            }
          ],
          "internalType": "struct DataTypes.PostNoteData",
          "name": "noteData",
          "type": "tuple"
        },
        {
          "internalType": "address",
          "name": "ethAddress",
          "type": "address"
        }
      ],
      "name": "postNote4Address",
      "outputs": [
        {
          "internalType": "uint256",
          "name": "",
          "type": "uint256"
        }
      ],
      "stateMutability": "nonpayable",
      "type": "function"
    },
    {
      "inputs": [
        {
          "components": [
            {
              "internalType": "uint256",
              "name": "characterId",
              "type": "uint256"
            },
            {
              "internalType": "string",
              "name": "contentUri",
              "type": "string"
            },
            {
              "internalType": "address",
              "name": "linkModule",
              "type": "address"
            },
            {
              "internalType": "bytes",
              "name": "linkModuleInitData",
              "type": "bytes"
            },
            {
              "internalType": "address",
              "name": "mintModule",
              "type": "address"
            },
            {
              "internalType": "bytes",
              "name": "mintModuleInitData",
              "type": "bytes"
            },
            {
              "internalType": "bool",
              "name": "locked",
              "type": "bool"
            }
          ],
          "internalType": "struct DataTypes.PostNoteData",
          "name": "postNoteData",
          "type": "tuple"
        },
        {
          "internalType": "string",
          "name": "uri",
          "type": "string"
        }
      ],
      "name": "postNote4AnyUri",
      "outputs": [
        {
          "internalType": "uint256",
          "name": "",
          "type": "uint256"
        }
      ],
      "stateMutability": "nonpayable",
      "type": "function"
    },
    {
      "inputs": [
        {
          "components": [
            {
              "internalType": "uint256",
              "name": "characterId",
              "type": "uint256"
            },
            {
              "internalType": "string",
              "name": "contentUri",
              "type": "string"
            },
            {
              "internalType": "address",
              "name": "linkModule",
              "type": "address"
            },
            {
              "internalType": "bytes",
              "name": "linkModuleInitData",
              "type": "bytes"
            },
            {
              "internalType": "address",
              "name": "mintModule",
              "type": "address"
            },
            {
              "internalType": "bytes",
              "name": "mintModuleInitData",
              "type": "bytes"
            },
            {
              "internalType": "bool",
              "name": "locked",
              "type": "bool"
            }
          ],
          "internalType": "struct DataTypes.PostNoteData",
          "name": "postNoteData",
          "type": "tuple"
        },
        {
          "internalType": "uint256",
          "name": "toCharacterId",
          "type": "uint256"
        }
      ],
      "name": "postNote4Character",
      "outputs": [
        {
          "internalType": "uint256",
          "name": "",
          "type": "uint256"
        }
      ],
      "stateMutability": "nonpayable",
      "type": "function"
    },
    {
      "inputs": [
        {
          "components": [
            {
              "internalType": "uint256",
              "name": "characterId",
              "type": "uint256"
            },
            {
              "internalType": "string",
              "name": "contentUri",
              "type": "string"
            },
            {
              "internalType": "address",
              "name": "linkModule",
              "type": "address"
            },
            {
              "internalType": "bytes",
              "name": "linkModuleInitData",
              "type": "bytes"
            },
            {
              "internalType": "address",
              "name": "mintModule",
              "type": "address"
            },
            {
              "internalType": "bytes",
              "name": "mintModuleInitData",
              "type": "bytes"
            },
            {
              "internalType": "bool",
              "name": "locked",
              "type": "bool"
            }
          ],
          "internalType": "struct DataTypes.PostNoteData",
          "name": "postNoteData",
          "type": "tuple"
        },
        {
          "components": [
            {
              "internalType": "address",
              "name": "tokenAddress",
              "type": "address"
            },
            {
              "internalType": "uint256",
              "name": "erc721TokenId",
              "type": "uint256"
            }
          ],
          "internalType": "struct DataTypes.ERC721Struct",
          "name": "erc721",
          "type": "tuple"
        }
      ],
      "name": "postNote4ERC721",
      "outputs": [
        {
          "internalType": "uint256",
          "name": "",
          "type": "uint256"
        }
      ],
      "stateMutability": "nonpayable",
      "type": "function"
    },
    {
      "inputs": [
        {
          "components": [
            {
              "internalType": "uint256",
              "name": "characterId",
              "type": "uint256"
            },
            {
              "internalType": "string",
              "name": "contentUri",
              "type": "string"
            },
            {
              "internalType": "address",
              "name": "linkModule",
              "type": "address"
            },
            {
              "internalType": "bytes",
              "name": "linkModuleInitData",
              "type": "bytes"
            },
            {
              "internalType": "address",
              "name": "mintModule",
              "type": "address"
            },
            {
              "internalType": "bytes",
              "name": "mintModuleInitData",
              "type": "bytes"
            },
            {
              "internalType": "bool",
              "name": "locked",
              "type": "bool"
            }
          ],
          "internalType": "struct DataTypes.PostNoteData",
          "name": "noteData",
          "type": "tuple"
        },
        {
          "internalType": "uint256",
          "name": "toLinklistId",
          "type": "uint256"
        }
      ],
      "name": "postNote4Linklist",
      "outputs": [
        {
          "internalType": "uint256",
          "name": "",
          "type": "uint256"
        }
      ],
      "stateMutability": "nonpayable",
      "type": "function"
    },
    {
      "inputs": [
        {
          "components": [
            {
              "internalType": "uint256",
              "name": "characterId",
              "type": "uint256"
            },
            {
              "internalType": "string",
              "name": "contentUri",
              "type": "string"
            },
            {
              "internalType": "address",
              "name": "linkModule",
              "type": "address"
            },
            {
              "internalType": "bytes",
              "name": "linkModuleInitData",
              "type": "bytes"
            },
            {
              "internalType": "address",
              "name": "mintModule",
              "type": "address"
            },
            {
              "internalType": "bytes",
              "name": "mintModuleInitData",
              "type": "bytes"
            },
            {
              "internalType": "bool",
              "name": "locked",
              "type": "bool"
            }
          ],
          "internalType": "struct DataTypes.PostNoteData",
          "name": "postNoteData",
          "type": "tuple"
        },
        {
          "components": [
            {
              "internalType": "uint256",
              "name": "characterId",
              "type": "uint256"
            },
            {
              "internalType": "uint256",
              "name": "noteId",
              "type": "uint256"
            }
          ],
          "internalType": "struct DataTypes.NoteStruct",
          "name": "note",
          "type": "tuple"
        }
      ],
      "name": "postNote4Note",
      "outputs": [
        {
          "internalType": "uint256",
          "name": "",
          "type": "uint256"
        }
      ],
      "stateMutability": "nonpayable",
      "type": "function"
    },
    {
      "inputs": [],
      "name": "resolver",
      "outputs": [
        {
          "internalType": "address",
          "name": "",
          "type": "address"
        }
      ],
      "stateMutability": "view",
      "type": "function"
    },
    {
      "inputs": [
        {
          "internalType": "address",
          "name": "from",
          "type": "address"
        },
        {
          "internalType": "address",
          "name": "to",
          "type": "address"
        },
        {
          "internalType": "uint256",
          "name": "tokenId",
          "type": "uint256"
        }
      ],
      "name": "safeTransferFrom",
      "outputs": [],
      "stateMutability": "nonpayable",
      "type": "function"
    },
    {
      "inputs": [
        {
          "internalType": "address",
          "name": "from",
          "type": "address"
        },
        {
          "internalType": "address",
          "name": "to",
          "type": "address"
        },
        {
          "internalType": "uint256",
          "name": "tokenId",
          "type": "uint256"
        },
        {
          "internalType": "bytes",
          "name": "_data",
          "type": "bytes"
        }
      ],
      "name": "safeTransferFrom",
      "outputs": [],
      "stateMutability": "nonpayable",
      "type": "function"
    },
    {
      "inputs": [
        {
          "internalType": "address",
          "name": "operator",
          "type": "address"
        },
        {
          "internalType": "bool",
          "name": "approved",
          "type": "bool"
        }
      ],
      "name": "setApprovalForAll",
      "outputs": [],
      "stateMutability": "nonpayable",
      "type": "function"
    },
    {
      "inputs": [
        {
          "internalType": "uint256",
          "name": "characterId",
          "type": "uint256"
        },
        {
          "internalType": "string",
          "name": "newUri",
          "type": "string"
        }
      ],
      "name": "setCharacterUri",
      "outputs": [],
      "stateMutability": "nonpayable",
      "type": "function"
    },
    {
      "inputs": [
        {
          "internalType": "uint256",
          "name": "characterId",
          "type": "uint256"
        },
        {
          "internalType": "string",
          "name": "newHandle",
          "type": "string"
        }
      ],
      "name": "setHandle",
      "outputs": [],
      "stateMutability": "nonpayable",
      "type": "function"
    },
    {
      "inputs": [
        {
          "components": [
            {
              "internalType": "address",
              "name": "account",
              "type": "address"
            },
            {
              "internalType": "address",
              "name": "linkModule",
              "type": "address"
            },
            {
              "internalType": "bytes",
              "name": "linkModuleInitData",
              "type": "bytes"
            }
          ],
          "internalType": "struct DataTypes.setLinkModule4AddressData",
          "name": "vars",
          "type": "tuple"
        }
      ],
      "name": "setLinkModule4Address",
      "outputs": [],
      "stateMutability": "nonpayable",
      "type": "function"
    },
    {
      "inputs": [
        {
          "components": [
            {
              "internalType": "uint256",
              "name": "characterId",
              "type": "uint256"
            },
            {
              "internalType": "address",
              "name": "linkModule",
              "type": "address"
            },
            {
              "internalType": "bytes",
              "name": "linkModuleInitData",
              "type": "bytes"
            }
          ],
          "internalType": "struct DataTypes.setLinkModule4CharacterData",
          "name": "vars",
          "type": "tuple"
        }
      ],
      "name": "setLinkModule4Character",
      "outputs": [],
      "stateMutability": "nonpayable",
      "type": "function"
    },
    {
      "inputs": [
        {
          "components": [
            {
              "internalType": "address",
              "name": "tokenAddress",
              "type": "address"
            },
            {
              "internalType": "uint256",
              "name": "tokenId",
              "type": "uint256"
            },
            {
              "internalType": "address",
              "name": "linkModule",
              "type": "address"
            },
            {
              "internalType": "bytes",
              "name": "linkModuleInitData",
              "type": "bytes"
            }
          ],
          "internalType": "struct DataTypes.setLinkModule4ERC721Data",
          "name": "vars",
          "type": "tuple"
        }
      ],
      "name": "setLinkModule4ERC721",
      "outputs": [],
      "stateMutability": "nonpayable",
      "type": "function"
    },
    {
      "inputs": [
        {
          "components": [
            {
              "internalType": "uint256",
              "name": "linklistId",
              "type": "uint256"
            },
            {
              "internalType": "address",
              "name": "linkModule",
              "type": "address"
            },
            {
              "internalType": "bytes",
              "name": "linkModuleInitData",
              "type": "bytes"
            }
          ],
          "internalType": "struct DataTypes.setLinkModule4LinklistData",
          "name": "vars",
          "type": "tuple"
        }
      ],
      "name": "setLinkModule4Linklist",
      "outputs": [],
      "stateMutability": "nonpayable",
      "type": "function"
    },
    {
      "inputs": [
        {
          "components": [
            {
              "internalType": "uint256",
              "name": "characterId",
              "type": "uint256"
            },
            {
              "internalType": "uint256",
              "name": "noteId",
              "type": "uint256"
            },
            {
              "internalType": "address",
              "name": "linkModule",
              "type": "address"
            },
            {
              "internalType": "bytes",
              "name": "linkModuleInitData",
              "type": "bytes"
            }
          ],
          "internalType": "struct DataTypes.setLinkModule4NoteData",
          "name": "vars",
          "type": "tuple"
        }
      ],
      "name": "setLinkModule4Note",
      "outputs": [],
      "stateMutability": "nonpayable",
      "type": "function"
    },
    {
      "inputs": [
        {
          "internalType": "uint256",
          "name": "linklistId",
          "type": "uint256"
        },
        {
          "internalType": "string",
          "name": "uri",
          "type": "string"
        }
      ],
      "name": "setLinklistUri",
      "outputs": [],
      "stateMutability": "nonpayable",
      "type": "function"
    },
    {
      "inputs": [
        {
          "components": [
            {
              "internalType": "uint256",
              "name": "characterId",
              "type": "uint256"
            },
            {
              "internalType": "uint256",
              "name": "noteId",
              "type": "uint256"
            },
            {
              "internalType": "address",
              "name": "mintModule",
              "type": "address"
            },
            {
              "internalType": "bytes",
              "name": "mintModuleInitData",
              "type": "bytes"
            }
          ],
          "internalType": "struct DataTypes.setMintModule4NoteData",
          "name": "vars",
          "type": "tuple"
        }
      ],
      "name": "setMintModule4Note",
      "outputs": [],
      "stateMutability": "nonpayable",
      "type": "function"
    },
    {
      "inputs": [
        {
          "internalType": "uint256",
          "name": "characterId",
          "type": "uint256"
        },
        {
          "internalType": "uint256",
          "name": "noteId",
          "type": "uint256"
        },
        {
          "internalType": "string",
          "name": "newUri",
          "type": "string"
        }
      ],
      "name": "setNoteUri",
      "outputs": [],
      "stateMutability": "nonpayable",
      "type": "function"
    },
    {
      "inputs": [
        {
          "internalType": "uint256",
          "name": "characterId",
          "type": "uint256"
        },
        {
          "internalType": "address",
          "name": "operator",
          "type": "address"
        }
      ],
      "name": "setOperator",
      "outputs": [],
      "stateMutability": "nonpayable",
      "type": "function"
    },
    {
      "inputs": [
        {
          "internalType": "uint256",
          "name": "characterId",
          "type": "uint256"
        }
      ],
      "name": "setPrimaryCharacterId",
      "outputs": [],
      "stateMutability": "nonpayable",
      "type": "function"
    },
    {
      "inputs": [
        {
          "internalType": "uint256",
          "name": "characterId",
          "type": "uint256"
        },
        {
          "internalType": "address",
          "name": "tokenAddress",
          "type": "address"
        }
      ],
      "name": "setSocialToken",
      "outputs": [],
      "stateMutability": "nonpayable",
      "type": "function"
    },
    {
      "inputs": [
        {
          "internalType": "bytes4",
          "name": "interfaceId",
          "type": "bytes4"
        }
      ],
      "name": "supportsInterface",
      "outputs": [
        {
          "internalType": "bool",
          "name": "",
          "type": "bool"
        }
      ],
      "stateMutability": "view",
      "type": "function"
    },
    {
      "inputs": [],
      "name": "symbol",
      "outputs": [
        {
          "internalType": "string",
          "name": "",
          "type": "string"
        }
      ],
      "stateMutability": "view",
      "type": "function"
    },
    {
      "inputs": [
        {
          "internalType": "uint256",
          "name": "index",
          "type": "uint256"
        }
      ],
      "name": "tokenByIndex",
      "outputs": [
        {
          "internalType": "uint256",
          "name": "",
          "type": "uint256"
        }
      ],
      "stateMutability": "view",
      "type": "function"
    },
    {
      "inputs": [
        {
          "internalType": "address",
          "name": "owner",
          "type": "address"
        },
        {
          "internalType": "uint256",
          "name": "index",
          "type": "uint256"
        }
      ],
      "name": "tokenOfOwnerByIndex",
      "outputs": [
        {
          "internalType": "uint256",
          "name": "",
          "type": "uint256"
        }
      ],
      "stateMutability": "view",
      "type": "function"
    },
    {
      "inputs": [
        {
          "internalType": "uint256",
          "name": "characterId",
          "type": "uint256"
        }
      ],
      "name": "tokenURI",
      "outputs": [
        {
          "internalType": "string",
          "name": "",
          "type": "string"
        }
      ],
      "stateMutability": "view",
      "type": "function"
    },
    {
      "inputs": [],
      "name": "totalSupply",
      "outputs": [
        {
          "internalType": "uint256",
          "name": "",
          "type": "uint256"
        }
      ],
      "stateMutability": "view",
      "type": "function"
    },
    {
      "inputs": [
        {
          "internalType": "address",
          "name": "from",
          "type": "address"
        },
        {
          "internalType": "address",
          "name": "to",
          "type": "address"
        },
        {
          "internalType": "uint256",
          "name": "tokenId",
          "type": "uint256"
        }
      ],
      "name": "transferFrom",
      "outputs": [],
      "stateMutability": "nonpayable",
      "type": "function"
    },
    {
      "inputs": [
        {
          "components": [
            {
              "internalType": "uint256",
              "name": "fromCharacterId",
              "type": "uint256"
            },
            {
              "internalType": "address",
              "name": "ethAddress",
              "type": "address"
            },
            {
              "internalType": "bytes32",
              "name": "linkType",
              "type": "bytes32"
            }
          ],
          "internalType": "struct DataTypes.unlinkAddressData",
          "name": "vars",
          "type": "tuple"
        }
      ],
      "name": "unlinkAddress",
      "outputs": [],
      "stateMutability": "nonpayable",
      "type": "function"
    },
    {
      "inputs": [
        {
          "components": [
            {
              "internalType": "uint256",
              "name": "fromCharacterId",
              "type": "uint256"
            },
            {
              "internalType": "string",
              "name": "toUri",
              "type": "string"
            },
            {
              "internalType": "bytes32",
              "name": "linkType",
              "type": "bytes32"
            }
          ],
          "internalType": "struct DataTypes.unlinkAnyUriData",
          "name": "vars",
          "type": "tuple"
        }
      ],
      "name": "unlinkAnyUri",
      "outputs": [],
      "stateMutability": "nonpayable",
      "type": "function"
    },
    {
      "inputs": [
        {
          "components": [
            {
              "internalType": "uint256",
              "name": "fromCharacterId",
              "type": "uint256"
            },
            {
              "internalType": "uint256",
              "name": "toCharacterId",
              "type": "uint256"
            },
            {
              "internalType": "bytes32",
              "name": "linkType",
              "type": "bytes32"
            }
          ],
          "internalType": "struct DataTypes.unlinkCharacterData",
          "name": "vars",
          "type": "tuple"
        }
      ],
      "name": "unlinkCharacter",
      "outputs": [],
      "stateMutability": "nonpayable",
      "type": "function"
    },
    {
      "inputs": [
        {
          "components": [
            {
              "internalType": "uint256",
              "name": "fromCharacterId",
              "type": "uint256"
            },
            {
              "internalType": "address",
              "name": "tokenAddress",
              "type": "address"
            },
            {
              "internalType": "uint256",
              "name": "tokenId",
              "type": "uint256"
            },
            {
              "internalType": "bytes32",
              "name": "linkType",
              "type": "bytes32"
            }
          ],
          "internalType": "struct DataTypes.unlinkERC721Data",
          "name": "vars",
          "type": "tuple"
        }
      ],
      "name": "unlinkERC721",
      "outputs": [],
      "stateMutability": "nonpayable",
      "type": "function"
    },
    {
      "inputs": [
        {
          "components": [
            {
              "internalType": "uint256",
              "name": "fromCharacterId",
              "type": "uint256"
            },
            {
              "internalType": "uint256",
              "name": "toLinkListId",
              "type": "uint256"
            },
            {
              "internalType": "bytes32",
              "name": "linkType",
              "type": "bytes32"
            }
          ],
          "internalType": "struct DataTypes.unlinkLinklistData",
          "name": "vars",
          "type": "tuple"
        }
      ],
      "name": "unlinkLinklist",
      "outputs": [],
      "stateMutability": "nonpayable",
      "type": "function"
    },
    {
      "inputs": [
        {
          "components": [
            {
              "internalType": "uint256",
              "name": "fromCharacterId",
              "type": "uint256"
            },
            {
              "internalType": "uint256",
              "name": "toCharacterId",
              "type": "uint256"
            },
            {
              "internalType": "uint256",
              "name": "toNoteId",
              "type": "uint256"
            },
            {
              "internalType": "bytes32",
              "name": "linkType",
              "type": "bytes32"
            }
          ],
          "internalType": "struct DataTypes.unlinkNoteData",
          "name": "vars",
          "type": "tuple"
        }
      ],
      "name": "unlinkNote",
      "outputs": [],
      "stateMutability": "nonpayable",
      "type": "function"
    }
  ],
  "bytecode": "0x608060405234801561001057600080fd5b506159fe80620000216000396000f3fe608060405234801561001057600080fd5b50600436106104285760003560e01c80638734bbfc1161022b578063cb8e757e11610130578063e7a1c1c0116100b8578063f2ad807511610087578063f2ad807514610a00578063f316bacd14610a13578063f6479d7714610a26578063fd2d866f14610a39578063fe9299fb14610a4c57600080fd5b8063e7a1c1c01461098b578063e985e9c51461099e578063ec81d194146109da578063ef0828ab146109ed57600080fd5b8063dabb0531116100ff578063dabb05311461091f578063db491e8014610932578063db8c198d14610952578063dca2713514610965578063e56f2fe41461097857600080fd5b8063cb8e757e146108bb578063cd69fe61146108ce578063d23b320b146108e1578063d70e10c6146108f457600080fd5b8063a22cb465116101b3578063b88d4fde11610182578063b88d4fde1461085e578063b9d3284514610871578063c053f6b814610884578063c2a6fe3b14610895578063c87b56dd146108a857600080fd5b8063a22cb46514610812578063a6e6178d14610825578063a7ccb4bf14610838578063af90b1121461084b57600080fd5b806395d89b41116101fa57806395d89b41146107b157806395d9fa7d146107b95780639864c307146107cc5780639a4dec18146107df5780639a50248d146107f257600080fd5b80638734bbfc146107655780638b4ca06a1461077857806392f7070b1461078b57806393f057e51461079e57600080fd5b806331b9d08c116103315780634f6ccce7116102b95780636352211e116102885780636352211e1461070657806369492c971461071957806370a082311461072c57806374f345cf1461073f578063867884e61461075257600080fd5b80634f6ccce7146106ba5780635a936d10146106cd5780635fb88183146106e0578063628b644a146106f357600080fd5b806340ad34d81161030057806340ad34d81461065b57806342842e0e1461066e57806342966c681461068157806344b82a241461069457806347f94de7146106a757600080fd5b806331b9d08c146105f6578063327b2a031461062257806333f06ee614610635578063388f50831461064857600080fd5b80631316529d116103b45780632209d145116103835780632209d1451461055e57806323b872dd1461059457806329c301c2146105a75780632abc6bf6146105ba5780632f745c59146105e357600080fd5b80631316529d1461051f578063144a3e831461053057806318160ddd14610543578063188b04b31461054b57600080fd5b8063081812fc116103fb578063081812fc146104be57806308cb68ff146104d1578063095ea7b3146104e65780630c4dd5f2146104f95780630ff982441461050c57600080fd5b806301ffc9a71461042d57806304f3bcec1461045557806305f63c8a1461048057806306fdde03146104a9575b600080fd5b61044061043b36600461446a565b610a75565b60405190151581526020015b60405180910390f35b601754610468906001600160a01b031681565b6040516001600160a01b03909116815260200161044c565b61046861048e366004614487565b6000908152601660205260409020546001600160a01b031690565b6104b1610aa0565b60405161044c91906144f8565b6104686104cc366004614487565b610b32565b6104e46104df366004614523565b610bcc565b005b6104e46104f436600461457c565b610c65565b6104e4610507366004614523565b610d7b565b6104e461051a3660046145a8565b610de0565b60045b60405190815260200161044c565b6104b161053e366004614487565b610edf565b600854610522565b6104e46105593660046145d6565b610eea565b61046861056c36600461457c565b6001600160a01b03918216600090815260106020908152604080832093835292905220541690565b6104e46105a236600461460a565b610fe7565b6105226105b536600461465d565b611018565b6105226105c8366004614691565b6001600160a01b03166000908152600c602052604090205490565b6105226105f136600461457c565b6110c4565b610468610604366004614691565b6001600160a01b039081166000908152601160205260409020541690565b6105226106303660046146c0565b61115a565b6104e4610643366004614756565b61131d565b6104e46106563660046145d6565b611391565b6104e46106693660046147a1565b61144b565b6104e461067c36600461460a565b6114c5565b6104e461068f366004614487565b6114e0565b6105226106a23660046147bd565b61157d565b6104e46106b5366004614756565b6115f3565b6105226106c8366004614487565b611633565b6104e46106db3660046145a8565b6116c6565b6104e46106ee3660046145d6565b611756565b6104e4610701366004614801565b611810565b610468610714366004614487565b61189c565b6104e46107273660046145d6565b611913565b61052261073a366004614691565b611a4b565b6104e461074d366004614853565b611ad2565b6104e46107603660046147a1565b611b4a565b610440610773366004614487565b611bba565b610522610786366004614487565b611be8565b610522610799366004614875565b611c54565b6104e46107ac3660046145a8565b611ce8565b6104b1611d57565b6104e46107c73660046148c6565b611d66565b6104e46107da3660046145d6565b611dec565b6105226107ed3660046146c0565b611ea6565b6108056108003660046148eb565b611fae565b60405161044c919061492c565b6104e46108203660046149b8565b61215d565b6104e4610833366004614756565b612168565b6105226108463660046145d6565b6121de565b6105226108593660046147bd565b612282565b6104e461086c366004614acf565b6122c0565b6104e461087f366004614b4c565b6122f8565b6013546001600160a01b0316610468565b6104e46108a3366004614853565b6123c7565b6104b16108b6366004614487565b612437565b6104e46108c9366004614b4c565b6124dc565b6104e46108dc366004614b4c565b6125b3565b6104e46108ef3660046145d6565b6125c7565b610522610902366004614853565b6000918252600d6020908152604080842092845291905290205490565b61080561092d366004614487565b612641565b610945610940366004614853565b6127c8565b60405161044c9190614b80565b6104e46109603660046145d6565b612929565b6104b1610973366004614487565b612973565b6104e4610986366004614c16565b6129e5565b6104e46109993660046148c6565b612b9a565b6104406109ac366004614cd0565b6001600160a01b03918216600090815260056020908152604080832093909416825291909152205460ff1690565b6104b16109e8366004614487565b612bad565b6104e46109fb366004614523565b612bcd565b6104e4610a0e366004614487565b612c3c565b610522610a21366004614cfe565b612c8b565b6104e4610a343660046145a8565b612de7565b6104e4610a47366004614523565b612e21565b610468610a5a366004614487565b6000908152600f60205260409020546001600160a01b031690565b60006001600160e01b0319821663780e9d6360e01b1480610a9a5750610a9a82612e9a565b92915050565b606060008054610aaf90614d59565b80601f0160208091040260200160405190810160405280929190818152602001828054610adb90614d59565b8015610b285780601f10610afd57610100808354040283529160200191610b28565b820191906000526020600020905b815481529060010190602001808311610b0b57829003601f168201915b5050505050905090565b6000818152600260205260408120546001600160a01b0316610bb05760405162461bcd60e51b815260206004820152602c60248201527f4552433732313a20617070726f76656420717565727920666f72206e6f6e657860448201526b34b9ba32b73a103a37b5b2b760a11b60648201526084015b60405180910390fd5b506000908152600460205260409020546001600160a01b031690565b73__$69db18565ecbefece480e92cc5f8fb1274$__63dfc34f25610bf36020840184614691565b610c036040850160208601614691565b610c106040860186614d8e565b60116040518663ffffffff1660e01b8152600401610c32959493929190614dfd565b60006040518083038186803b158015610c4a57600080fd5b505af4158015610c5e573d6000803e3d6000fd5b5050505050565b6000610c708261189c565b9050806001600160a01b0316836001600160a01b03161415610cde5760405162461bcd60e51b815260206004820152602160248201527f4552433732313a20617070726f76616c20746f2063757272656e74206f776e656044820152603960f91b6064820152608401610ba7565b336001600160a01b0382161480610cfa5750610cfa81336109ac565b610d6c5760405162461bcd60e51b815260206004820152603860248201527f4552433732313a20617070726f76652063616c6c6572206973206e6f74206f7760448201527f6e6572206e6f7220617070726f76656420666f7220616c6c00000000000000006064820152608401610ba7565b610d768383612eea565b505050565b610d858135612f58565b73__$69db18565ecbefece480e92cc5f8fb1274$__636252159e8235610db16040850160208601614691565b610dbe6040860186614d8e565b600f6040518663ffffffff1660e01b8152600401610c32959493929190614e3c565b610dea8135613018565b6040516331a9108f60e11b81528135600482015273__$e2c9a8f399964af47bb173600dd9e5f662$__90633019fadd9083903090636352211e90602401602060405180830381865afa158015610e44573d6000803e3d6000fd5b505050506040513d601f19601f82011682018060405250810190610e689190614e67565b60135485356000908152600d60209081526040808320818a0135845282529182902054825160e088901b6001600160e01b031916815286356004820152918601356024830152949091013560448201526001600160a01b0392831660648201529116608482015260a481019190915260c401610c32565b6060610a9a82612437565b610ef48135613018565b610f018160200135613099565b73__$e2c9a8f399964af47bb173600dd9e5f662$__63957f8a98823560208401356040850135610f346060870187614d8e565b6040516331a9108f60e11b8152883560048201523090636352211e90602401602060405180830381865afa158015610f70573d6000803e3d6000fd5b505050506040513d601f19601f82011682018060405250810190610f949190614e67565b6013546020808b01356000908152600a9091526040908190206005015490516001600160e01b031960e08b901b168152610c32989796959493926001600160a01b03908116921690600d90600401614e84565b610ff133826130f2565b61100d5760405162461bcd60e51b8152600401610ba790614ede565b610d768383836131e9565b60006110248235613390565b81356000908152600a602052604081206003018054829061104490614f45565b91829055506040516342a34a5360e01b815290915073__$2873850e5b3f5697aafc2f5cd9f27cc884$__906342a34a539061108d90869085906000908190600e9060040161506a565b60006040518083038186803b1580156110a557600080fd5b505af41580156110b9573d6000803e3d6000fd5b509295945050505050565b60006110cf83611a4b565b82106111315760405162461bcd60e51b815260206004820152602b60248201527f455243373231456e756d657261626c653a206f776e657220696e646578206f7560448201526a74206f6620626f756e647360a81b6064820152608401610ba7565b506001600160a01b03919091166000908152600660209081526040808320938352929052205490565b60006111668335613390565b6111806111766020840184614691565b8360200135613431565b6013546545524337323160d01b906000906001600160a01b0316632ea24efc826111ad6020880188614691565b6040516001600160e01b031960e085901b16815260048101929092526001600160a01b03166024820152602087013560448201526064016020604051808303816000875af1158015611203573d6000803e3d6000fd5b505050506040513d601f19601f8201168201806040525081019061122791906150af565b85356000908152600a6020526040812060030180549293509091829061124c90614f45565b9182905550905073__$2873850e5b3f5697aafc2f5cd9f27cc884$__6342a34a538783868661127e60208c018c614691565b8b602001356040516020016112b192919060609290921b6bffffffffffffffffffffffff19168252601482015260340190565b604051602081830303815290604052600e6040518763ffffffff1660e01b81526004016112e3969594939291906150c8565b60006040518083038186803b1580156112fb57600080fd5b505af415801561130f573d6000803e3d6000fd5b509298975050505050505050565b61132683612f58565b601354604051633c17845760e11b81526001600160a01b039091169063782f08ae9061135a90869086908690600401615113565b600060405180830381600087803b15801561137457600080fd5b505af1158015611388573d6000803e3d6000fd5b50505050505050565b61139b8135613018565b6040516331a9108f60e11b81528135600482015273__$e2c9a8f399964af47bb173600dd9e5f662$__90631e3981939083903090636352211e90602401602060405180830381865afa1580156113f5573d6000803e3d6000fd5b505050506040513d601f19601f820116820180604052508101906114199190614e67565b6013546040516001600160e01b031960e086901b168152610c329392916001600160a01b031690600d90600401615136565b6114558135613390565b60135460408051635cebf08d60e11b81528335600482015260208401356024820152908301356044820152606083013560648201526001600160a01b039091166084820152600d60a482015273__$e2c9a8f399964af47bb173600dd9e5f662$__9063b9d7e11a9060c401610c32565b610d76838383604051806020016040528060008152506122c0565b6000818152600a602052604080822090516114fe91600101906151ad565b60408051918290039091206000818152600b6020908152838220829055858252600a90529182208281559092509061153960018301826142c5565b6115476002830160006142c5565b50600060038201556004810180546001600160a01b0319908116909155600590910180549091169055611579826134e1565b5050565b60006115898335613390565b82356000908152600a60205260408120600301805467131a5b9adb1a5cdd60c21b928592909182906115ba90614f45565b919050819055905073__$2873850e5b3f5697aafc2f5cd9f27cc884$__6342a34a53878386868a6040516020016112b191815260200190565b610d768383838080601f01602080910402602001604051908101604052809392919081815260200183838082843760009201919091525061354092505050565b600061163e60085490565b82106116a15760405162461bcd60e51b815260206004820152602c60248201527f455243373231456e756d657261626c653a20676c6f62616c20696e646578206f60448201526b7574206f6620626f756e647360a01b6064820152608401610ba7565b600882815481106116b4576116b4615249565b90600052602060002001549050919050565b6116d08135613018565b60135481356000818152600d60209081526040808320818701358085529083529281902054905163d862986560e01b8152600481019490945290850135602484015260448301919091526001600160a01b039092166064820152608481019190915273__$e2c9a8f399964af47bb173600dd9e5f662$__9063d86298659060a401610c32565b6117608135613018565b6040516331a9108f60e11b81528135600482015273__$e2c9a8f399964af47bb173600dd9e5f662$__906331ba880f9083903090636352211e90602401602060405180830381865afa1580156117ba573d6000803e3d6000fd5b505050506040513d601f19601f820116820180604052508101906117de9190614e67565b6013546040516001600160e01b031960e086901b168152610c329392916001600160a01b031690600d9060040161525f565b61181984613018565b611823848461359f565b6040516001626802bf60e01b0319815273__$2873850e5b3f5697aafc2f5cd9f27cc884$__9063ff97fd4190611866908790879087908790600e906004016152e6565b60006040518083038186803b15801561187e57600080fd5b505af4158015611892573d6000803e3d6000fd5b5050505050505050565b6000818152600260205260408120546001600160a01b031680610a9a5760405162461bcd60e51b815260206004820152602960248201527f4552433732313a206f776e657220717565727920666f72206e6f6e657869737460448201526832b73a103a37b5b2b760b91b6064820152608401610ba7565b6119206020820182614691565b6040516331a9108f60e11b8152602083013560048201526001600160a01b039190911690636352211e90602401602060405180830381865afa15801561196a573d6000803e3d6000fd5b505050506040513d601f19601f8201168201806040525081019061198e9190614e67565b6001600160a01b0316336001600160a01b0316146119df5760405162461bcd60e51b815260206004820152600e60248201526d2737ba22a9219b9918a7bbb732b960911b6044820152606401610ba7565b73__$69db18565ecbefece480e92cc5f8fb1274$__63384afeb3611a066020840184614691565b6020840135611a1b6060860160408701614691565b611a286060870187614d8e565b60106040518763ffffffff1660e01b8152600401610c3296959493929190615306565b60006001600160a01b038216611ab65760405162461bcd60e51b815260206004820152602a60248201527f4552433732313a2062616c616e636520717565727920666f7220746865207a65604482015269726f206164647265737360b01b6064820152608401610ba7565b506001600160a01b031660009081526003602052604090205490565b611adb82613390565b611ae5828261359f565b6000828152600e60209081526040808320848452825291829020600501805460ff60a81b1916600160a81b179055905182815283917f036469f3e73c83520cdefa197d7a9c854c2f8bc0164b82e9f2bd4aa7e150fd3091015b60405180910390a25050565b611b548135613018565b60135481356000908152600d6020908152604080832060608601358452909152908190205490516317e9a8b160e31b815273__$e2c9a8f399964af47bb173600dd9e5f662$__9263bf4d458892610c329286926001600160a01b0316919060040161534d565b600080611bc68361189c565b6001600160a01b03166000908152600c60205260409020549290921492915050565b60135460405162fba02760e01b8152600481018390526000916001600160a01b03169062fba02790602401602060405180830381865afa158015611c30573d6000803e3d6000fd5b505050506040513d601f19601f82011682018060405250810190610a9a91906150af565b6000611c608335613390565b82356000908152600a602052604081206003018054664164647265737360c81b926001600160a01b0386169290918290611c9990614f45565b919050819055905073__$2873850e5b3f5697aafc2f5cd9f27cc884$__6342a34a53878386868a6040516020016112b1919060609190911b6bffffffffffffffffffffffff1916815260140190565b611cf28135613018565b60135481356000908152600d6020908152604080832081860135845290915290819020549051633d7f9b3d60e11b815273__$e2c9a8f399964af47bb173600dd9e5f662$__92637aff367a92610c329286926001600160a01b0316919060040161539f565b606060018054610aaf90614d59565b611d6f82613018565b6040516384b44a2f60e01b8152600481018390526001600160a01b0382166024820152600a604482015273__$d8529f0216812a2dec6b96adf1943c3537$__906384b44a2f9060640160006040518083038186803b158015611dd057600080fd5b505af4158015611de4573d6000803e3d6000fd5b505050505050565b611df68135613018565b6040516331a9108f60e11b81528135600482015273__$e2c9a8f399964af47bb173600dd9e5f662$__906372c61ab09083903090636352211e90602401602060405180830381865afa158015611e50573d6000803e3d6000fd5b505050506040513d601f19601f82011682018060405250810190611e749190614e67565b6013546040516001600160e01b031960e086901b168152610c329392916001600160a01b031690600d906004016153e7565b6000611eb28335613390565b601354604051635cb46be760e01b81526000600482018190528435602483015260208501356044830152634e6f746560e01b9290916001600160a01b0390911690635cb46be7906064016020604051808303816000875af1158015611f1b573d6000803e3d6000fd5b505050506040513d601f19601f82011682018060405250810190611f3f91906150af565b85356000908152600a60205260408120600301805492935090918290611f6490614f45565b919050819055905073__$2873850e5b3f5697aafc2f5cd9f27cc884$__6342a34a53878386868a600001358b602001356040516020016112b1929190918252602082015260400190565b611fb66142ff565b60008383604051611fc8929190615450565b604080519182900382206000818152600b602090815283822054808352600a82529184902060c086019094528354855260018401805493965091949392908401919061201390614d59565b80601f016020809104026020016040519081016040528092919081815260200182805461203f90614d59565b801561208c5780601f106120615761010080835404028352916020019161208c565b820191906000526020600020905b81548152906001019060200180831161206f57829003601f168201915b505050505081526020016002820180546120a590614d59565b80601f01602080910402602001604051908101604052809291908181526020018280546120d190614d59565b801561211e5780601f106120f35761010080835404028352916020019161211e565b820191906000526020600020905b81548152906001019060200180831161210157829003601f168201915b50505091835250506003820154602082015260048201546001600160a01b03908116604083015260059092015490911660609091015295945050505050565b611579338383613654565b61217183613018565b60405163130f361d60e01b815273__$d8529f0216812a2dec6b96adf1943c3537$__9063130f361d906121b290869086908690600b90600a90600401615460565b60006040518083038186803b1580156121ca57600080fd5b505af4158015611388573d6000803e3d6000fd5b60006121ef8235602084013561359f565b73__$2873850e5b3f5697aafc2f5cd9f27cc884$__635be69415833560208501356122206060870160408801614691565b61222d6060880188614d8e565b6014546040516001600160e01b031960e089901b1681526122659695949392916001600160a01b031690600a90600e9060040161548e565b602060405180830381865af4158015611c30573d6000803e3d6000fd5b600061228e8335613390565b82356000908152600a6020526040812060030180546821b430b930b1ba32b960b91b928592909182906115ba90614f45565b6122ca33836130f2565b6122e65760405162461bcd60e51b8152600401610ba790614ede565b6122f284848484613723565b50505050565b6123028135613390565b6123148160200135826040013561359f565b6040516331a9108f60e11b81528135600482015273__$e2c9a8f399964af47bb173600dd9e5f662$__9063018212d19083903090636352211e90602401602060405180830381865afa15801561236e573d6000803e3d6000fd5b505050506040513d601f19601f820116820180604052508101906123929190614e67565b6013546040516001600160e01b031960e086901b168152610c329392916001600160a01b031690600e90600d906004016154dc565b6123d082613390565b6123da828261359f565b6000828152600e60209081526040808320848452825291829020600501805460ff60a01b1916600160a01b179055905182815283917f4f1db9708b537c1d26a7af4b235fd079bf2342d92a276e27eb6c8717e8bbcf939101611b3e565b6000818152600a6020526040902060020180546060919061245790614d59565b80601f016020809104026020016040519081016040528092919081815260200182805461248390614d59565b80156124d05780601f106124a5576101008083540402835291602001916124d0565b820191906000526020600020905b8154815290600101906020018083116124b357829003601f168201915b50505050509050919050565b6124e68135613018565b6125036124f96040830160208401614691565b8260400135613431565b6040516331a9108f60e11b81528135600482015273__$e2c9a8f399964af47bb173600dd9e5f662$__9063e7a15c419083903090636352211e90602401602060405180830381865afa15801561255d573d6000803e3d6000fd5b505050506040513d601f19601f820116820180604052508101906125819190614e67565b6013546040516001600160e01b031960e086901b168152610c329392916001600160a01b031690600d9060040161555b565b6125c46125bf826155c0565b613756565b50565b6125d18135613018565b6125e08135602083013561359f565b73__$69db18565ecbefece480e92cc5f8fb1274$__6320828a02823560208401356126116060860160408701614691565b61261e6060870187614d8e565b600e6040518763ffffffff1660e01b8152600401610c3296959493929190615673565b6126496142ff565b600a60008381526020019081526020016000206040518060c00160405290816000820154815260200160018201805461268190614d59565b80601f01602080910402602001604051908101604052809291908181526020018280546126ad90614d59565b80156126fa5780601f106126cf576101008083540402835291602001916126fa565b820191906000526020600020905b8154815290600101906020018083116126dd57829003601f168201915b5050505050815260200160028201805461271390614d59565b80601f016020809104026020016040519081016040528092919081815260200182805461273f90614d59565b801561278c5780601f106127615761010080835404028352916020019161278c565b820191906000526020600020905b81548152906001019060200180831161276f57829003601f168201915b50505091835250506003820154602082015260048201546001600160a01b03908116604083015260059092015490911660609091015292915050565b60408051610100808201835260008083526020808401829052606084860181905284018290526080840182905260a0840182905260c0840182905260e08401829052868252600e8152848220868352815290849020845192830185528054835260018101549183019190915260028101805493949293919284019161284c90614d59565b80601f016020809104026020016040519081016040528092919081815260200182805461287890614d59565b80156128c55780601f1061289a576101008083540402835291602001916128c5565b820191906000526020600020905b8154815290600101906020018083116128a857829003601f168201915b505050918352505060038201546001600160a01b039081166020830152600483015481166040830152600590920154918216606082015260ff600160a01b8304811615156080830152600160a81b909204909116151560a090910152905092915050565b6129338135613018565b6129428135602083013561359f565b73__$69db18565ecbefece480e92cc5f8fb1274$__631f2ffb69823560208401356126116060860160408701614691565b601354604051632b05429560e21b8152600481018390526060916001600160a01b03169063ac150a5490602401600060405180830381865afa1580156129bd573d6000803e3d6000fd5b505050506040513d6000823e601f3d908101601f19168201604052610a9a91908101906156a1565b601454600160a81b900460ff1615808015612a0d57506014546001600160a01b90910460ff16105b80612a2e5750303b158015612a2e5750601454600160a01b900460ff166001145b612a915760405162461bcd60e51b815260206004820152602e60248201527f496e697469616c697a61626c653a20636f6e747261637420697320616c72656160448201526d191e481a5b9a5d1a585b1a5e995960921b6064820152608401610ba7565b6014805460ff60a01b1916600160a01b1790558015612abe576014805460ff60a81b1916600160a81b1790555b612aca89898989613829565b601380546001600160a01b03199081166001600160a01b0388811691909117909255601480548216878416179055601580548216868416179055601780549091169184169190911790556040514281527f400175a56dd3710794078f7b9dbe8296ac94c5a248dfd51bb22ed4ab9eaa9fbf9060200160405180910390a18015612b8f576014805460ff60a81b19169055604051600181527f7f26b83ff96e1f2b6a682f133852f6798a09c465da95921460cefb38474024989060200160405180910390a15b505050505050505050565b612ba382613018565b611579828261387a565b6000818152600a6020526040902060010180546060919061245790614d59565b612bd78135613018565b60135481356000908152600d602090815260408083208186013584529091529081902054905163bf5c00c160e01b815273__$e2c9a8f399964af47bb173600dd9e5f662$__9263bf5c00c192610c329286926001600160a01b0316919060040161570e565b612c4581613018565b336000818152600c602052604080822080549085905590519092839285927fce95332e6082aebeb8058a7b56d1a109f67d6550552ed04d36aca4a6acd4d7de9190a45050565b6000612c978435613390565b601354604051633610bf0960e11b815265416e7955726960d01b916000916001600160a01b0390911690636c217e1290612cd990849089908990600401615113565b6020604051808303816000875af1158015612cf8573d6000803e3d6000fd5b505050506040513d601f19601f82011682018060405250810190612d1c91906150af565b86356000908152600a60205260408120600301805492935090918290612d4190614f45565b919050819055905073__$2873850e5b3f5697aafc2f5cd9f27cc884$__6342a34a53888386868b8b604051602001612d7a929190615450565b604051602081830303815290604052600e6040518763ffffffff1660e01b8152600401612dac969594939291906150c8565b60006040518083038186803b158015612dc457600080fd5b505af4158015612dd8573d6000803e3d6000fd5b50929998505050505050505050565b6125c48135612dfc6040840160208501614691565b836040013560405180604001604052806002815260200161060f60f31b8152506138de565b612e2b8135613018565b73__$d8529f0216812a2dec6b96adf1943c3537$__631dc831338235612e576040850160208601614691565b612e646040860186614d8e565b86356000908152600a60205260409081902090516001600160e01b031960e088901b168152610c32959493929190600401614e3c565b60006001600160e01b031982166380ac58cd60e01b1480612ecb57506001600160e01b03198216635b5e139f60e01b145b80610a9a57506301ffc9a760e01b6001600160e01b0319831614610a9a565b600081815260046020526040902080546001600160a01b0319166001600160a01b0384169081179091558190612f1f8261189c565b6001600160a01b03167f8c5be1e5ebec7d5bd14f71427d1e84f3dd0314c0f7b2291e5b200ac8c7c3b92560405160405180910390a45050565b6013546040516331a9108f60e11b8152600481018390526001600160a01b0390911690636352211e90602401602060405180830381865afa158015612fa1573d6000803e3d6000fd5b505050506040513d601f19601f82011682018060405250810190612fc59190614e67565b6001600160a01b0316336001600160a01b0316146125c45760405162461bcd60e51b815260206004820152601060248201526f2737ba2634b735a634b9ba27bbb732b960811b6044820152606401610ba7565b60006130238261189c565b9050336001600160a01b03821614806130595750326001600160a01b03821614801561305957506015546001600160a01b031633145b6115795760405162461bcd60e51b81526020600482015260116024820152702737ba21b430b930b1ba32b927bbb732b960791b6044820152606401610ba7565b6000818152600260205260409020546001600160a01b03166125c45760405162461bcd60e51b81526020600482015260126024820152714368617261637465724e6f7445786973747360701b6044820152606401610ba7565b6000818152600260205260408120546001600160a01b031661316b5760405162461bcd60e51b815260206004820152602c60248201527f4552433732313a206f70657261746f7220717565727920666f72206e6f6e657860448201526b34b9ba32b73a103a37b5b2b760a11b6064820152608401610ba7565b60006131768361189c565b9050806001600160a01b0316846001600160a01b031614806131b15750836001600160a01b03166131a684610b32565b6001600160a01b0316145b806131e157506001600160a01b0380821660009081526005602090815260408083209388168352929052205460ff165b949350505050565b826001600160a01b03166131fc8261189c565b6001600160a01b0316146132605760405162461bcd60e51b815260206004820152602560248201527f4552433732313a207472616e736665722066726f6d20696e636f72726563742060448201526437bbb732b960d91b6064820152608401610ba7565b6001600160a01b0382166132c25760405162461bcd60e51b8152602060048201526024808201527f4552433732313a207472616e7366657220746f20746865207a65726f206164646044820152637265737360e01b6064820152608401610ba7565b6132cd838383613b64565b6132d8600082612eea565b6001600160a01b0383166000908152600360205260408120805460019290613301908490615766565b90915550506001600160a01b038216600090815260036020526040812080546001929061332f90849061577d565b909155505060008181526002602052604080822080546001600160a01b0319166001600160a01b0386811691821790925591518493918716917fddf252ad1be2c89b69c2b068fc378daa952ba7f163c4a11628f55a4df523b3ef91a4505050565b600061339b8261189c565b9050336001600160a01b03821614806133ca57506000828152601660205260409020546001600160a01b031633145b806130595750326001600160a01b03821614801561305957506015546001600160a01b031633146115795760405162461bcd60e51b81526020600482015260116024820152702737ba21b430b930b1ba32b927bbb732b960791b6044820152606401610ba7565b6040516331a9108f60e11b8152600481018290526001600160a01b03831690636352211e90602401602060405180830381865afa158015613476573d6000803e3d6000fd5b505050506040513d601f19601f8201168201806040525081019061349a9190614e67565b6001600160a01b03166115795760405162461bcd60e51b815260206004820152600f60248201526e5245433732314e6f7445786973747360881b6044820152606401610ba7565b6134eb33826130f2565b6135375760405162461bcd60e51b815260206004820152601b60248201527f4e4654426173653a204e6f744f776e65724f72417070726f76656400000000006044820152606401610ba7565b6125c481613bcf565b61354982613390565b6000828152600a60209081526040909120825161356e92600290920191840190614347565b50817f17d7c9f69270ba135480ef16837f38b9d37d3ab291cbd3ba03982290c663199782604051611b3e91906144f8565b6000828152600e60209081526040808320848452909152902060050154600160a01b900460ff16156136035760405162461bcd60e51b815260206004820152600d60248201526c139bdd19525cd1195b195d1959609a1b6044820152606401610ba7565b6000828152600a60205260409020600301548111156115795760405162461bcd60e51b815260206004820152600d60248201526c4e6f74654e6f7445786973747360981b6044820152606401610ba7565b816001600160a01b0316836001600160a01b031614156136b65760405162461bcd60e51b815260206004820152601960248201527f4552433732313a20617070726f766520746f2063616c6c6572000000000000006044820152606401610ba7565b6001600160a01b03838116600081815260056020908152604080832094871680845294825291829020805460ff191686151590811790915591519182527f17307eab39ab6107e8899845ad3d59bd9653f200f220920489ca2b5937696c31910160405180910390a3505050565b61372e8484846131e9565b61373a84848484613c76565b6122f25760405162461bcd60e51b8152600401610ba790615795565b60125461376490600161577d565b6012819055815161377491613d74565b601254604051632902741560e01b815273__$d8529f0216812a2dec6b96adf1943c3537$__916329027415916137b891859160019190600b90600a906004016157e7565b60006040518083038186803b1580156137d057600080fd5b505af41580156137e4573d6000803e3d6000fd5b505082516001600160a01b03166000908152600c6020526040902054151591506125c490505760125490516001600160a01b03166000908152600c6020526040902055565b61383584848484613ec2565b7f414cd0b34676984f09a5f76ce9718d4062e50283abe0e7e274a9a5b4e0c99c30848484844260405161386c959493929190615890565b60405180910390a150505050565b60008281526016602090815260409182902080546001600160a01b0319166001600160a01b038516908117909155915142815284917f691b92a93c526c4f5a357e56a33c33f6250f94e19e6c49be805800615c414931910160405180910390a35050565b6138e784613018565b6001600160a01b0383166000908152600c6020526040902054156139635760405162461bcd60e51b815260206004820152602d60248201527f546172676574206164647265737320616c726561647920686173207072696d6160448201526c393c9031b430b930b1ba32b91760991b6064820152608401610ba7565b600060126000815461397490614f45565b918290555090506139858482613d74565b73__$d8529f0216812a2dec6b96adf1943c3537$__63290274156040518060a00160405280876001600160a01b031681526020016139cd886001600160a01b03166014613edb565b815260200160405180602001604052806000815250815260200160006001600160a01b0316815260200160405180602001604052806000815250815250600084600b600a6040518663ffffffff1660e01b8152600401613a319594939291906157e7565b60006040518083038186803b158015613a4957600080fd5b505af4158015613a5d573d6000803e3d6000fd5b505050506001600160a01b0384166000908152600c602052604090819020829055516331a9108f60e11b81526004810186905273__$e2c9a8f399964af47bb173600dd9e5f662$__9063957f8a989087908490879087903090636352211e90602401602060405180830381865afa158015613adc573d6000803e3d6000fd5b505050506040513d601f19601f82011682018060405250810190613b009190614e67565b6013546040516001600160e01b031960e089901b168152613b389695949392916001600160a01b031690600090600d906004016158ca565b60006040518083038186803b158015613b5057600080fd5b505af4158015612b8f573d6000803e3d6000fd5b6000818152601660205260409020546001600160a01b031615613b8c57613b8c81600061387a565b6001600160a01b0383166000908152600c602052604090205415613bc4576001600160a01b0383166000908152600c60205260408120555b610d7683838361407d565b6000613bda8261189c565b9050613be881600084613b64565b613bf3600083612eea565b6001600160a01b0381166000908152600360205260408120805460019290613c1c908490615766565b909155505060008281526002602052604080822080546001600160a01b0319169055518391906001600160a01b038416907fddf252ad1be2c89b69c2b068fc378daa952ba7f163c4a11628f55a4df523b3ef908390a45050565b60006001600160a01b0384163b15613d6957604051630a85bd0160e11b81526001600160a01b0385169063150b7a0290613cba903390899088908890600401615922565b6020604051808303816000875af1925050508015613cf5575060408051601f3d908101601f19168201909252613cf29181019061595f565b60015b613d4f573d808015613d23576040519150601f19603f3d011682016040523d82523d6000602084013e613d28565b606091505b508051613d475760405162461bcd60e51b8152600401610ba790615795565b805181602001fd5b6001600160e01b031916630a85bd0160e11b1490506131e1565b506001949350505050565b6001600160a01b038216613dca5760405162461bcd60e51b815260206004820181905260248201527f4552433732313a206d696e7420746f20746865207a65726f20616464726573736044820152606401610ba7565b6000818152600260205260409020546001600160a01b031615613e2f5760405162461bcd60e51b815260206004820152601c60248201527f4552433732313a20746f6b656e20616c7265616479206d696e746564000000006044820152606401610ba7565b613e3b60008383613b64565b6001600160a01b0382166000908152600360205260408120805460019290613e6490849061577d565b909155505060008181526002602052604080822080546001600160a01b0319166001600160a01b03861690811790915590518392907fddf252ad1be2c89b69c2b068fc378daa952ba7f163c4a11628f55a4df523b3ef908290a45050565b613ece600085856143cb565b50610c5e600183836143cb565b60606000613eea83600261597c565b613ef590600261577d565b6001600160401b03811115613f0c57613f0c6149e4565b6040519080825280601f01601f191660200182016040528015613f36576020820181803683370190505b509050600360fc1b81600081518110613f5157613f51615249565b60200101906001600160f81b031916908160001a905350600f60fb1b81600181518110613f8057613f80615249565b60200101906001600160f81b031916908160001a9053506000613fa484600261597c565b613faf90600161577d565b90505b6001811115614027576f181899199a1a9b1b9c1cb0b131b232b360811b85600f1660108110613fe357613fe3615249565b1a60f81b828281518110613ff957613ff9615249565b60200101906001600160f81b031916908160001a90535060049490941c936140208161599b565b9050613fb2565b5083156140765760405162461bcd60e51b815260206004820181905260248201527f537472696e67733a20686578206c656e67746820696e73756666696369656e746044820152606401610ba7565b9392505050565b6001600160a01b0383166140d8576140d381600880546000838152600960205260408120829055600182018355919091527ff3f7a9fe364faab93b216da50a3214154f22a0a2b415b23a84c8169e8b636ee30155565b6140fb565b816001600160a01b0316836001600160a01b0316146140fb576140fb8382614135565b6001600160a01b03821661411257610d76816141d2565b826001600160a01b0316826001600160a01b031614610d7657610d768282614281565b6000600161414284611a4b565b61414c9190615766565b60008381526007602052604090205490915080821461419f576001600160a01b03841660009081526006602090815260408083208584528252808320548484528184208190558352600790915290208190555b5060009182526007602090815260408084208490556001600160a01b039094168352600681528383209183525290812055565b6008546000906141e490600190615766565b6000838152600960205260408120546008805493945090928490811061420c5761420c615249565b90600052602060002001549050806008838154811061422d5761422d615249565b6000918252602080832090910192909255828152600990915260408082208490558582528120556008805480614265576142656159b2565b6001900381819060005260206000200160009055905550505050565b600061428c83611a4b565b6001600160a01b039093166000908152600660209081526040808320868452825280832085905593825260079052919091209190915550565b5080546142d190614d59565b6000825580601f106142e1575050565b601f0160209004906000526020600020908101906125c4919061443f565b6040518060c001604052806000815260200160608152602001606081526020016000815260200160006001600160a01b0316815260200160006001600160a01b031681525090565b82805461435390614d59565b90600052602060002090601f01602090048101928261437557600085556143bb565b82601f1061438e57805160ff19168380011785556143bb565b828001600101855582156143bb579182015b828111156143bb5782518255916020019190600101906143a0565b506143c792915061443f565b5090565b8280546143d790614d59565b90600052602060002090601f0160209004810192826143f957600085556143bb565b82601f106144125782800160ff198235161785556143bb565b828001600101855582156143bb579182015b828111156143bb578235825591602001919060010190614424565b5b808211156143c75760008155600101614440565b6001600160e01b0319811681146125c457600080fd5b60006020828403121561447c57600080fd5b813561407681614454565b60006020828403121561449957600080fd5b5035919050565b60005b838110156144bb5781810151838201526020016144a3565b838111156122f25750506000910152565b600081518084526144e48160208601602086016144a0565b601f01601f19169290920160200192915050565b60208152600061407660208301846144cc565b60006060828403121561451d57600080fd5b50919050565b60006020828403121561453557600080fd5b81356001600160401b0381111561454b57600080fd5b6131e18482850161450b565b6001600160a01b03811681146125c457600080fd5b803561457781614557565b919050565b6000806040838503121561458f57600080fd5b823561459a81614557565b946020939093013593505050565b6000606082840312156145ba57600080fd5b614076838361450b565b60006080828403121561451d57600080fd5b6000602082840312156145e857600080fd5b81356001600160401b038111156145fe57600080fd5b6131e1848285016145c4565b60008060006060848603121561461f57600080fd5b833561462a81614557565b9250602084013561463a81614557565b929592945050506040919091013590565b600060e0828403121561451d57600080fd5b60006020828403121561466f57600080fd5b81356001600160401b0381111561468557600080fd5b6131e18482850161464b565b6000602082840312156146a357600080fd5b813561407681614557565b60006040828403121561451d57600080fd5b600080606083850312156146d357600080fd5b82356001600160401b038111156146e957600080fd5b6146f58582860161464b565b92505061470584602085016146ae565b90509250929050565b60008083601f84011261472057600080fd5b5081356001600160401b0381111561473757600080fd5b60208301915083602082850101111561474f57600080fd5b9250929050565b60008060006040848603121561476b57600080fd5b8335925060208401356001600160401b0381111561478857600080fd5b6147948682870161470e565b9497909650939450505050565b6000608082840312156147b357600080fd5b61407683836145c4565b600080604083850312156147d057600080fd5b82356001600160401b038111156147e657600080fd5b6147f28582860161464b565b95602094909401359450505050565b6000806000806060858703121561481757600080fd5b843593506020850135925060408501356001600160401b0381111561483b57600080fd5b6148478782880161470e565b95989497509550505050565b6000806040838503121561486657600080fd5b50508035926020909101359150565b6000806040838503121561488857600080fd5b82356001600160401b0381111561489e57600080fd5b6148aa8582860161464b565b92505060208301356148bb81614557565b809150509250929050565b600080604083850312156148d957600080fd5b8235915060208301356148bb81614557565b600080602083850312156148fe57600080fd5b82356001600160401b0381111561491457600080fd5b6149208582860161470e565b90969095509350505050565b60208152815160208201526000602083015160c0604084015261495260e08401826144cc565b90506040840151601f1984830301606085015261496f82826144cc565b91505060608401516080840152608084015160018060a01b0380821660a08601528060a08701511660c086015250508091505092915050565b8035801515811461457757600080fd5b600080604083850312156149cb57600080fd5b82356149d681614557565b9150614705602084016149a8565b634e487b7160e01b600052604160045260246000fd5b60405160a081016001600160401b0381118282101715614a1c57614a1c6149e4565b60405290565b604051601f8201601f191681016001600160401b0381118282101715614a4a57614a4a6149e4565b604052919050565b60006001600160401b03821115614a6b57614a6b6149e4565b50601f01601f191660200190565b600082601f830112614a8a57600080fd5b8135614a9d614a9882614a52565b614a22565b818152846020838601011115614ab257600080fd5b816020850160208301376000918101602001919091529392505050565b60008060008060808587031215614ae557600080fd5b8435614af081614557565b93506020850135614b0081614557565b92506040850135915060608501356001600160401b03811115614b2257600080fd5b614b2e87828801614a79565b91505092959194509250565b600060a0828403121561451d57600080fd5b600060208284031215614b5e57600080fd5b81356001600160401b03811115614b7457600080fd5b6131e184828501614b3a565b60208152815160208201526020820151604082015260006040830151610100806060850152614bb36101208501836144cc565b9150606085015160018060a01b0380821660808701528060808801511660a0870152505060a0850151614bf160c08601826001600160a01b03169052565b5060c085015180151560e08601525060e0850151801515858301525090949350505050565b60008060008060008060008060c0898b031215614c3257600080fd5b88356001600160401b0380821115614c4957600080fd5b614c558c838d0161470e565b909a50985060208b0135915080821115614c6e57600080fd5b50614c7b8b828c0161470e565b9097509550506040890135614c8f81614557565b93506060890135614c9f81614557565b92506080890135614caf81614557565b915060a0890135614cbf81614557565b809150509295985092959890939650565b60008060408385031215614ce357600080fd5b8235614cee81614557565b915060208301356148bb81614557565b600080600060408486031215614d1357600080fd5b83356001600160401b0380821115614d2a57600080fd5b614d368783880161464b565b94506020860135915080821115614d4c57600080fd5b506147948682870161470e565b600181811c90821680614d6d57607f821691505b6020821081141561451d57634e487b7160e01b600052602260045260246000fd5b6000808335601e19843603018112614da557600080fd5b8301803591506001600160401b03821115614dbf57600080fd5b60200191503681900382131561474f57600080fd5b81835281816020850137506000828201602090810191909152601f909101601f19169091010190565b6001600160a01b03868116825285166020820152608060408201819052600090614e2a9083018587614dd4565b90508260608301529695505050505050565b8581526001600160a01b0385166020820152608060408201819052600090614e2a9083018587614dd4565b600060208284031215614e7957600080fd5b815161407681614557565b60006101008b83528a6020840152896040840152806060840152614eab818401898b614dd4565b6001600160a01b03978816608085015295871660a084015250509190931660c082015260e0019190915295945050505050565b60208082526031908201527f4552433732313a207472616e736665722063616c6c6572206973206e6f74206f6040820152701ddb995c881b9bdc88185c1c1c9bdd9959607a1b606082015260800190565b634e487b7160e01b600052601160045260246000fd5b6000600019821415614f5957614f59614f2f565b5060010190565b6000808335601e19843603018112614f7757600080fd5b83016020810192503590506001600160401b03811115614f9657600080fd5b80360383131561474f57600080fd5b803582526000614fb86020830183614f60565b60e06020860152614fcd60e086018284614dd4565b9150506040830135614fde81614557565b6001600160a01b038181166040870152614ffb6060860186614f60565b92508684036060880152615010848483614dd4565b9350506080850135915061502382614557565b16608085015261503660a0840184614f60565b85830360a0870152615049838284614dd4565b9250505061505960c084016149a8565b151560c08501528091505092915050565b60c08152600061507d60c0830188614fa5565b602083810197909752604083019590955250606081019290925281830360808301526000835260a09091015201919050565b6000602082840312156150c157600080fd5b5051919050565b60c0815260006150db60c0830189614fa5565b87602084015286604084015285606084015282810360808401526150ff81866144cc565b9150508260a0830152979650505050505050565b83815260406020820152600061512d604083018486614dd4565b95945050505050565b60808152843560808201526000602086013561515181614557565b6001600160a01b0381811660a0850152604088013560c08501526151786060890189614f60565b9250608060e086015261519061010086018483614dd4565b978216602086015250949094166040830152506060015250919050565b600080835481600182811c9150808316806151c957607f831692505b60208084108214156151e957634e487b7160e01b86526022600452602486fd5b8180156151fd576001811461520e5761523b565b60ff1986168952848901965061523b565b60008a81526020902060005b868110156152335781548b82015290850190830161521a565b505084890196505b509498975050505050505050565b634e487b7160e01b600052603260045260246000fd5b608081528435608082015260006152796020870187614f60565b608060a085015261528f61010085018284614dd4565b915050604087013560c08401526152a96060880188614f60565b848303607f190160e08601526152c0838284614dd4565b6001600160a01b0398891660208701529690971660408501525050506060015292915050565b858152846020820152608060408201526000614e2a608083018587614dd4565b6001600160a01b038781168252602082018790528516604082015260a06060820181905260009061533a9083018587614dd4565b9050826080830152979650505050505050565b8335815260c08101602085013561536381614557565b6001600160a01b039081166020840152604086810135908401526060958601359583019590955292909316608084015260a09092019190915290565b8335815260a0810160208501356153b581614557565b6001600160a01b0390811660208401526040958601359583019590955292909316606084015260809092019190915290565b6080815284356080820152602085013560a0820152604085013560c082015260006154156060870187614f60565b608060e085015261542b61010085018284614dd4565b6001600160a01b03978816602086015295909616604084015250506060015292915050565b8183823760009101908152919050565b85815260806020820152600061547a608083018688614dd4565b604083019490945250606001529392505050565b888152876020820152600060018060a01b03808916604084015260e060608401526154bd60e08401888a614dd4565b951660808301525060a081019290925260c09091015295945050505050565b60a08152853560a0820152602086013560c0820152604086013560e0820152606086013561010082015260006155156080880188614f60565b60a061012085015261552c61014085018284614dd4565b6001600160a01b0398891660208601529690971660408401525050606081019290925260809091015292915050565b60808152843560808201526000602086013561557681614557565b6001600160a01b0381811660a0850152604088013560c0850152606088013560e08501526155a76080890189614f60565b925060a061010086015261519061012086018483614dd4565b600060a082360312156155d257600080fd5b6155da6149fa565b6155e38361456c565b815260208301356001600160401b03808211156155ff57600080fd5b61560b36838701614a79565b6020840152604085013591508082111561562457600080fd5b61563036838701614a79565b60408401526156416060860161456c565b6060840152608085013591508082111561565a57600080fd5b5061566736828601614a79565b60808301525092915050565b86815285602082015260018060a01b038516604082015260a06060820152600061533a60a083018587614dd4565b6000602082840312156156b357600080fd5b81516001600160401b038111156156c957600080fd5b8201601f810184136156da57600080fd5b80516156e8614a9882614a52565b8181528560208385010111156156fd57600080fd5b61512d8260208301602086016144a0565b606081528335606082015260006157286020860186614f60565b6060608085015261573d60c085018284614dd4565b60409788013560a08601526001600160a01b039690961660208501525050509092019190915290565b60008282101561577857615778614f2f565b500390565b6000821982111561579057615790614f2f565b500190565b60208082526032908201527f4552433732313a207472616e7366657220746f206e6f6e20455243373231526560408201527131b2b4bb32b91034b6b83632b6b2b73a32b960711b606082015260800190565b60a08152600060018060a01b038088511660a0840152602088015160a060c08501526158176101408501826144cc565b90506040890151609f19808684030160e087015261583583836144cc565b92508360608c01511661010087015260808b015193508086840301610120870152505061586281836144cc565b92505050615874602083018715159052565b8460408301528360608301528260808301529695505050505050565b6060815260006158a4606083018789614dd4565b82810360208401526158b7818688614dd4565b9150508260408301529695505050505050565b60006101008a83528960208401528860408401528060608401526158f0818401896144cc565b6001600160a01b03978816608085015295871660a084015250509190931660c082015260e00191909152949350505050565b6001600160a01b0385811682528416602082015260408101839052608060608201819052600090615955908301846144cc565b9695505050505050565b60006020828403121561597157600080fd5b815161407681614454565b600081600019048311821515161561599657615996614f2f565b500290565b6000816159aa576159aa614f2f565b506000190190565b634e487b7160e01b600052603160045260246000fdfea2646970667358221220fc3489f38e5545cce0049ad56ece243a22cf5fe15666ce549648ec5d18fe1a8464736f6c634300080a0033",
  "linkReferences": {
    "contracts/libraries/CharacterLogic.sol": {
      "CharacterLogic": [
        {
          "length": 20,
          "start": 7612
        },
        {
          "length": 20,
          "start": 8609
        },
        {
          "length": 20,
          "start": 11854
        },
        {
          "length": 20,
          "start": 14247
        },
        {
          "length": 20,
          "start": 14760
        }
      ]
    },
    "contracts/libraries/LinkLogic.sol": {
      "LinkLogic": [
        {
          "length": 20,
          "start": 3617
        },
        {
          "length": 20,
          "start": 3876
        },
        {
          "length": 20,
          "start": 5074
        },
        {
          "length": 20,
          "start": 5316
        },
        {
          "length": 20,
          "start": 5973
        },
        {
          "length": 20,
          "start": 6039
        },
        {
          "length": 20,
          "start": 7080
        },
        {
          "length": 20,
          "start": 7493
        },
        {
          "length": 20,
          "start": 7725
        },
        {
          "length": 20,
          "start": 9035
        },
        {
          "length": 20,
          "start": 9530
        },
        {
          "length": 20,
          "start": 11306
        },
        {
          "length": 20,
          "start": 15027
        }
      ]
    },
    "contracts/libraries/LinkModuleLogic.sol": {
      "LinkModuleLogic": [
        {
          "length": 20,
          "start": 3055
        },
        {
          "length": 20,
          "start": 3496
        },
        {
          "length": 20,
          "start": 6658
        },
        {
          "length": 20,
          "start": 9731
        },
        {
          "length": 20,
          "start": 10597
        }
      ]
    },
    "contracts/libraries/PostLogic.sol": {
      "PostLogic": [
        {
          "length": 20,
          "start": 4220
        },
        {
          "length": 20,
          "start": 4726
        },
        {
          "length": 20,
          "start": 5605
        },
        {
          "length": 20,
          "start": 6230
        },
        {
          "length": 20,
          "start": 7364
        },
        {
          "length": 20,
          "start": 8079
        },
        {
          "length": 20,
          "start": 8722
        },
        {
          "length": 20,
          "start": 11628
        }
      ]
    }
  },
  "deployedLinkReferences": {
    "contracts/libraries/CharacterLogic.sol": {
      "CharacterLogic": [
        {
          "length": 20,
          "start": 7579
        },
        {
          "length": 20,
          "start": 8576
        },
        {
          "length": 20,
          "start": 11821
        },
        {
          "length": 20,
          "start": 14214
        },
        {
          "length": 20,
          "start": 14727
        }
      ]
    },
    "contracts/libraries/LinkLogic.sol": {
      "LinkLogic": [
        {
          "length": 20,
          "start": 3584
        },
        {
          "length": 20,
          "start": 3843
        },
        {
          "length": 20,
          "start": 5041
        },
        {
          "length": 20,
          "start": 5283
        },
        {
          "length": 20,
          "start": 5940
        },
        {
          "length": 20,
          "start": 6006
        },
        {
          "length": 20,
          "start": 7047
        },
        {
          "length": 20,
          "start": 7460
        },
        {
          "length": 20,
          "start": 7692
        },
        {
          "length": 20,
          "start": 9002
        },
        {
          "length": 20,
          "start": 9497
        },
        {
          "length": 20,
          "start": 11273
        },
        {
          "length": 20,
          "start": 14994
        }
      ]
    },
    "contracts/libraries/LinkModuleLogic.sol": {
      "LinkModuleLogic": [
        {
          "length": 20,
          "start": 3022
        },
        {
          "length": 20,
          "start": 3463
        },
        {
          "length": 20,
          "start": 6625
        },
        {
          "length": 20,
          "start": 9698
        },
        {
          "length": 20,
          "start": 10564
        }
      ]
    },
    "contracts/libraries/PostLogic.sol": {
      "PostLogic": [
        {
          "length": 20,
          "start": 4187
        },
        {
          "length": 20,
          "start": 4693
        },
        {
          "length": 20,
          "start": 5572
        },
        {
          "length": 20,
          "start": 6197
        },
        {
          "length": 20,
          "start": 7331
        },
        {
          "length": 20,
          "start": 8046
        },
        {
          "length": 20,
          "start": 8689
        },
        {
          "length": 20,
          "start": 11595
        }
      ]
    }
  }
}