{
    "_format": "hh-sol-artifact-1",
    "contractName": "Web3Entry",
    "sourceName": "contracts/Web3Entry.sol",
    "abi": [
        {
            "anonymous": false,
            "inputs": [
                {
                    "indexed": true,
                    "internalType": "address",
                    "name": "owner",
                    "type": "address"
                },
                {
                    "indexed": true,
                    "internalType": "address",
                    "name": "approved",
                    "type": "address"
                },
                {
                    "indexed": true,
                    "internalType": "uint256",
                    "name": "tokenId",
                    "type": "uint256"
                }
            ],
            "name": "Approval",
            "type": "event"
        },
        {
            "anonymous": false,
            "inputs": [
                {
                    "indexed": true,
                    "internalType": "address",
                    "name": "owner",
                    "type": "address"
                },
                {
                    "indexed": true,
                    "internalType": "address",
                    "name": "operator",
                    "type": "address"
                },
                {
                    "indexed": false,
                    "internalType": "bool",
                    "name": "approved",
                    "type": "bool"
                }
            ],
            "name": "ApprovalForAll",
            "type": "event"
        },
        {
            "anonymous": false,
            "inputs": [
                {
                    "indexed": true,
                    "internalType": "address",
                    "name": "from",
                    "type": "address"
                },
                {
                    "indexed": true,
                    "internalType": "address",
                    "name": "to",
                    "type": "address"
                },
                {
                    "indexed": true,
                    "internalType": "uint256",
                    "name": "tokenId",
                    "type": "uint256"
                }
            ],
            "name": "Transfer",
            "type": "event"
        },
        {
            "inputs": [
                {
                    "internalType": "address",
                    "name": "to",
                    "type": "address"
                },
                {
                    "internalType": "uint256",
                    "name": "tokenId",
                    "type": "uint256"
                }
            ],
            "name": "approve",
            "outputs": [],
            "stateMutability": "nonpayable",
            "type": "function"
        },
        {
            "inputs": [
                {
                    "internalType": "uint256",
                    "name": "linklistId",
                    "type": "uint256"
                },
                {
                    "internalType": "uint256",
                    "name": "profileId",
                    "type": "uint256"
                }
            ],
            "name": "attachLinklist",
            "outputs": [],
            "stateMutability": "nonpayable",
            "type": "function"
        },
        {
            "inputs": [
                {
                    "internalType": "address",
                    "name": "owner",
                    "type": "address"
                }
            ],
            "name": "balanceOf",
            "outputs": [
                {
                    "internalType": "uint256",
                    "name": "",
                    "type": "uint256"
                }
            ],
            "stateMutability": "view",
            "type": "function"
        },
        {
            "inputs": [
                {
                    "internalType": "uint256",
                    "name": "tokenId",
                    "type": "uint256"
                }
            ],
            "name": "burn",
            "outputs": [],
            "stateMutability": "nonpayable",
            "type": "function"
        },
        {
            "inputs": [
                {
                    "components": [
                        {
                            "internalType": "address",
                            "name": "to",
                            "type": "address"
                        },
                        {
                            "internalType": "string",
                            "name": "handle",
                            "type": "string"
                        },
                        {
                            "internalType": "string",
                            "name": "uri",
                            "type": "string"
                        },
                        {
                            "internalType": "address",
                            "name": "linkModule",
                            "type": "address"
                        },
                        {
                            "internalType": "bytes",
                            "name": "linkModuleInitData",
                            "type": "bytes"
                        }
                    ],
                    "internalType": "struct DataTypes.CreateProfileData",
                    "name": "vars",
                    "type": "tuple"
                }
            ],
            "name": "createProfile",
            "outputs": [],
            "stateMutability": "nonpayable",
            "type": "function"
        },
        {
            "inputs": [
                {
                    "internalType": "uint256",
                    "name": "fromProfileId",
                    "type": "uint256"
                },
                {
                    "internalType": "address",
                    "name": "to",
                    "type": "address"
                },
                {
                    "internalType": "bytes32",
                    "name": "linkType",
                    "type": "bytes32"
                }
            ],
            "name": "createThenLinkProfile",
            "outputs": [],
            "stateMutability": "nonpayable",
            "type": "function"
        },
        {
            "inputs": [
                {
                    "internalType": "uint256",
                    "name": "fromProfileId",
                    "type": "uint256"
                },
                {
                    "internalType": "address",
                    "name": "to",
                    "type": "address"
                },
                {
                    "internalType": "bytes32",
                    "name": "linkType",
                    "type": "bytes32"
                },
                {
                    "internalType": "bytes",
                    "name": "data",
                    "type": "bytes"
                }
            ],
            "name": "createThenLinkProfileV2",
            "outputs": [],
            "stateMutability": "nonpayable",
            "type": "function"
        },
        {
            "inputs": [
                {
                    "internalType": "uint256",
                    "name": "profileId",
                    "type": "uint256"
                },
                {
                    "internalType": "uint256",
                    "name": "noteId",
                    "type": "uint256"
                }
            ],
            "name": "deleteNote",
            "outputs": [],
            "stateMutability": "nonpayable",
            "type": "function"
        },
        {
            "inputs": [
                {
                    "internalType": "uint256",
                    "name": "linklistId",
                    "type": "uint256"
                },
                {
                    "internalType": "uint256",
                    "name": "profileId",
                    "type": "uint256"
                }
            ],
            "name": "detachLinklist",
            "outputs": [],
            "stateMutability": "nonpayable",
            "type": "function"
        },
        {
            "inputs": [
                {
                    "internalType": "uint256",
                    "name": "tokenId",
                    "type": "uint256"
                }
            ],
            "name": "getApproved",
            "outputs": [
                {
                    "internalType": "address",
                    "name": "",
                    "type": "address"
                }
            ],
            "stateMutability": "view",
            "type": "function"
        },
        {
            "inputs": [
                {
                    "internalType": "uint256",
                    "name": "profileId",
                    "type": "uint256"
                }
            ],
            "name": "getHandle",
            "outputs": [
                {
                    "internalType": "string",
                    "name": "",
                    "type": "string"
                }
            ],
            "stateMutability": "view",
            "type": "function"
        },
        {
            "inputs": [
                {
                    "internalType": "address",
                    "name": "account",
                    "type": "address"
                }
            ],
            "name": "getLinkModule4Address",
            "outputs": [
                {
                    "internalType": "address",
                    "name": "",
                    "type": "address"
                }
            ],
            "stateMutability": "view",
            "type": "function"
        },
        {
            "inputs": [
                {
                    "internalType": "address",
                    "name": "tokenAddress",
                    "type": "address"
                },
                {
                    "internalType": "uint256",
                    "name": "tokenId",
                    "type": "uint256"
                }
            ],
            "name": "getLinkModule4ERC721",
            "outputs": [
                {
                    "internalType": "address",
                    "name": "",
                    "type": "address"
                }
            ],
            "stateMutability": "view",
            "type": "function"
        },
        {
            "inputs": [
                {
                    "internalType": "uint256",
                    "name": "tokenId",
                    "type": "uint256"
                }
            ],
            "name": "getLinkModule4Linklist",
            "outputs": [
                {
                    "internalType": "address",
                    "name": "",
                    "type": "address"
                }
            ],
            "stateMutability": "view",
            "type": "function"
        },
        {
            "inputs": [
                {
                    "internalType": "uint256",
                    "name": "fromProfileId",
                    "type": "uint256"
                },
                {
                    "internalType": "bytes32",
                    "name": "linkType",
                    "type": "bytes32"
                }
            ],
            "name": "getLinkingProfileIds",
            "outputs": [
                {
                    "internalType": "uint256[]",
                    "name": "results",
                    "type": "uint256[]"
                }
            ],
            "stateMutability": "view",
            "type": "function"
        },
        {
            "inputs": [],
            "name": "getLinklistContract",
            "outputs": [
                {
                    "internalType": "address",
                    "name": "",
                    "type": "address"
                }
            ],
            "stateMutability": "view",
            "type": "function"
        },
        {
            "inputs": [
                {
                    "internalType": "uint256",
                    "name": "profileId",
                    "type": "uint256"
                },
                {
                    "internalType": "bytes32",
                    "name": "linkType",
                    "type": "bytes32"
                }
            ],
            "name": "getLinklistUri",
            "outputs": [
                {
                    "internalType": "string",
                    "name": "",
                    "type": "string"
                }
            ],
            "stateMutability": "view",
            "type": "function"
        },
        {
            "inputs": [
                {
                    "internalType": "uint256",
                    "name": "profileId",
                    "type": "uint256"
                },
                {
                    "internalType": "uint256",
                    "name": "noteId",
                    "type": "uint256"
                }
            ],
            "name": "getNote",
            "outputs": [
                {
                    "components": [
                        {
                            "internalType": "bytes32",
                            "name": "linkItemType",
                            "type": "bytes32"
                        },
                        {
                            "internalType": "uint256",
                            "name": "linklistId",
                            "type": "uint256"
                        },
                        {
                            "internalType": "bytes32",
                            "name": "linkKey",
                            "type": "bytes32"
                        },
                        {
                            "internalType": "string",
                            "name": "contentUri",
                            "type": "string"
                        },
                        {
                            "internalType": "address",
                            "name": "linkModule",
                            "type": "address"
                        },
                        {
                            "internalType": "address",
                            "name": "mintModule",
                            "type": "address"
                        },
                        {
                            "internalType": "address",
                            "name": "mintNFT",
                            "type": "address"
                        },
                        {
                            "internalType": "bool",
                            "name": "deleted",
                            "type": "bool"
                        }
                    ],
                    "internalType": "struct DataTypes.Note",
                    "name": "",
                    "type": "tuple"
                }
            ],
            "stateMutability": "view",
            "type": "function"
        },
        {
            "inputs": [
                {
                    "internalType": "address",
                    "name": "account",
                    "type": "address"
                }
            ],
            "name": "getPrimaryProfileId",
            "outputs": [
                {
                    "internalType": "uint256",
                    "name": "",
                    "type": "uint256"
                }
            ],
            "stateMutability": "view",
            "type": "function"
        },
        {
            "inputs": [
                {
                    "internalType": "uint256",
                    "name": "profileId",
                    "type": "uint256"
                }
            ],
            "name": "getProfile",
            "outputs": [
                {
                    "components": [
                        {
                            "internalType": "uint256",
                            "name": "profileId",
                            "type": "uint256"
                        },
                        {
                            "internalType": "string",
                            "name": "handle",
                            "type": "string"
                        },
                        {
                            "internalType": "string",
                            "name": "uri",
                            "type": "string"
                        },
                        {
                            "internalType": "uint256",
                            "name": "noteCount",
                            "type": "uint256"
                        },
                        {
                            "internalType": "address",
                            "name": "socialToken",
                            "type": "address"
                        },
                        {
                            "internalType": "address",
                            "name": "linkModule",
                            "type": "address"
                        }
                    ],
                    "internalType": "struct DataTypes.Profile",
                    "name": "",
                    "type": "tuple"
                }
            ],
            "stateMutability": "view",
            "type": "function"
        },
        {
            "inputs": [
                {
                    "internalType": "string",
                    "name": "handle",
                    "type": "string"
                }
            ],
            "name": "getProfileByHandle",
            "outputs": [
                {
                    "components": [
                        {
                            "internalType": "uint256",
                            "name": "profileId",
                            "type": "uint256"
                        },
                        {
                            "internalType": "string",
                            "name": "handle",
                            "type": "string"
                        },
                        {
                            "internalType": "string",
                            "name": "uri",
                            "type": "string"
                        },
                        {
                            "internalType": "uint256",
                            "name": "noteCount",
                            "type": "uint256"
                        },
                        {
                            "internalType": "address",
                            "name": "socialToken",
                            "type": "address"
                        },
                        {
                            "internalType": "address",
                            "name": "linkModule",
                            "type": "address"
                        }
                    ],
                    "internalType": "struct DataTypes.Profile",
                    "name": "",
                    "type": "tuple"
                }
            ],
            "stateMutability": "view",
            "type": "function"
        },
        {
            "inputs": [
                {
                    "internalType": "uint256",
                    "name": "profileId",
                    "type": "uint256"
                }
            ],
            "name": "getProfileUri",
            "outputs": [
                {
                    "internalType": "string",
                    "name": "",
                    "type": "string"
                }
            ],
            "stateMutability": "view",
            "type": "function"
        },
        {
            "inputs": [],
            "name": "getRevision",
            "outputs": [
                {
                    "internalType": "uint256",
                    "name": "",
                    "type": "uint256"
                }
            ],
            "stateMutability": "pure",
            "type": "function"
        },
        {
            "inputs": [
                {
                    "internalType": "string",
                    "name": "_name",
                    "type": "string"
                },
                {
                    "internalType": "string",
                    "name": "_symbol",
                    "type": "string"
                },
                {
                    "internalType": "address",
                    "name": "_linklistContract",
                    "type": "address"
                },
                {
                    "internalType": "address",
                    "name": "_mintNFTImpl",
                    "type": "address"
                }
            ],
            "name": "initialize",
            "outputs": [],
            "stateMutability": "nonpayable",
            "type": "function"
        },
        {
            "inputs": [
                {
                    "internalType": "address",
                    "name": "owner",
                    "type": "address"
                },
                {
                    "internalType": "address",
                    "name": "operator",
                    "type": "address"
                }
            ],
            "name": "isApprovedForAll",
            "outputs": [
                {
                    "internalType": "bool",
                    "name": "",
                    "type": "bool"
                }
            ],
            "stateMutability": "view",
            "type": "function"
        },
        {
            "inputs": [
                {
                    "internalType": "uint256",
                    "name": "profileId",
                    "type": "uint256"
                }
            ],
            "name": "isPrimaryProfile",
            "outputs": [
                {
                    "internalType": "bool",
                    "name": "",
                    "type": "bool"
                }
            ],
            "stateMutability": "view",
            "type": "function"
        },
        {
            "inputs": [
                {
                    "internalType": "uint256",
                    "name": "fromProfileId",
                    "type": "uint256"
                },
                {
                    "internalType": "address",
                    "name": "ethAddress",
                    "type": "address"
                },
                {
                    "internalType": "bytes32",
                    "name": "linkType",
                    "type": "bytes32"
                }
            ],
            "name": "linkAddress",
            "outputs": [],
            "stateMutability": "nonpayable",
            "type": "function"
        },
        {
            "inputs": [
                {
                    "internalType": "uint256",
                    "name": "fromProfileId",
                    "type": "uint256"
                },
                {
                    "internalType": "string",
                    "name": "toUri",
                    "type": "string"
                },
                {
                    "internalType": "bytes32",
                    "name": "linkType",
                    "type": "bytes32"
                }
            ],
            "name": "linkAny",
            "outputs": [],
            "stateMutability": "nonpayable",
            "type": "function"
        },
        {
            "inputs": [
                {
                    "internalType": "uint256",
                    "name": "fromProfileId",
                    "type": "uint256"
                },
                {
                    "internalType": "address",
                    "name": "tokenAddress",
                    "type": "address"
                },
                {
                    "internalType": "uint256",
                    "name": "tokenId",
                    "type": "uint256"
                },
                {
                    "internalType": "bytes32",
                    "name": "linkType",
                    "type": "bytes32"
                }
            ],
            "name": "linkERC721",
            "outputs": [],
            "stateMutability": "nonpayable",
            "type": "function"
        },
        {
            "inputs": [
                {
                    "internalType": "uint256",
                    "name": "fromProfileId",
                    "type": "uint256"
                },
                {
                    "internalType": "uint256",
                    "name": "toLinkListId",
                    "type": "uint256"
                },
                {
                    "internalType": "bytes32",
                    "name": "linkType",
                    "type": "bytes32"
                }
            ],
            "name": "linkLinklist",
            "outputs": [],
            "stateMutability": "nonpayable",
            "type": "function"
        },
        {
            "inputs": [
                {
                    "internalType": "uint256",
                    "name": "fromProfileId",
                    "type": "uint256"
                },
                {
                    "internalType": "uint256",
                    "name": "toProfileId",
                    "type": "uint256"
                },
                {
                    "internalType": "uint256",
                    "name": "toNoteId",
                    "type": "uint256"
                },
                {
                    "internalType": "bytes32",
                    "name": "linkType",
                    "type": "bytes32"
                },
                {
                    "internalType": "bytes",
                    "name": "data",
                    "type": "bytes"
                }
            ],
            "name": "linkNote",
            "outputs": [],
            "stateMutability": "nonpayable",
            "type": "function"
        },
        {
            "inputs": [
                {
                    "internalType": "uint256",
                    "name": "fromProfileId",
                    "type": "uint256"
                },
                {
                    "internalType": "uint256",
                    "name": "toProfileId",
                    "type": "uint256"
                },
                {
                    "internalType": "bytes32",
                    "name": "linkType",
                    "type": "bytes32"
                }
            ],
            "name": "linkProfile",
            "outputs": [],
            "stateMutability": "nonpayable",
            "type": "function"
        },
        {
            "inputs": [
                {
                    "internalType": "uint256",
                    "name": "fromProfileId",
                    "type": "uint256"
                },
                {
                    "components": [
                        {
                            "internalType": "uint256",
                            "name": "fromProfileId",
                            "type": "uint256"
                        },
                        {
                            "internalType": "uint256",
                            "name": "toProfileId",
                            "type": "uint256"
                        },
                        {
                            "internalType": "bytes32",
                            "name": "linkType",
                            "type": "bytes32"
                        }
                    ],
                    "internalType": "struct DataTypes.ProfileLinkStruct",
                    "name": "linkData",
                    "type": "tuple"
                },
                {
                    "internalType": "bytes32",
                    "name": "linkType",
                    "type": "bytes32"
                }
            ],
            "name": "linkProfileLink",
            "outputs": [],
            "stateMutability": "nonpayable",
            "type": "function"
        },
        {
            "inputs": [
                {
                    "internalType": "uint256",
                    "name": "fromProfileId",
                    "type": "uint256"
                },
                {
                    "internalType": "uint256",
                    "name": "toProfileId",
                    "type": "uint256"
                },
                {
                    "internalType": "bytes32",
                    "name": "linkType",
                    "type": "bytes32"
                },
                {
                    "internalType": "bytes",
                    "name": "data",
                    "type": "bytes"
                }
            ],
            "name": "linkProfileV2",
            "outputs": [],
            "stateMutability": "nonpayable",
            "type": "function"
        },
        {
            "inputs": [
                {
                    "internalType": "uint256",
                    "name": "profileId",
                    "type": "uint256"
                },
                {
                    "internalType": "uint256",
                    "name": "noteId",
                    "type": "uint256"
                },
                {
                    "internalType": "address",
                    "name": "to",
                    "type": "address"
                },
                {
                    "internalType": "bytes",
                    "name": "mintModuleData",
                    "type": "bytes"
                }
            ],
            "name": "mintNote",
            "outputs": [
                {
                    "internalType": "uint256",
                    "name": "",
                    "type": "uint256"
                }
            ],
            "stateMutability": "nonpayable",
            "type": "function"
        },
        {
            "inputs": [],
            "name": "name",
            "outputs": [
                {
                    "internalType": "string",
                    "name": "",
                    "type": "string"
                }
            ],
            "stateMutability": "view",
            "type": "function"
        },
        {
            "inputs": [
                {
                    "internalType": "uint256",
                    "name": "tokenId",
                    "type": "uint256"
                }
            ],
            "name": "ownerOf",
            "outputs": [
                {
                    "internalType": "address",
                    "name": "",
                    "type": "address"
                }
            ],
            "stateMutability": "view",
            "type": "function"
        },
        {
            "inputs": [
                {
                    "components": [
                        {
                            "internalType": "uint256",
                            "name": "profileId",
                            "type": "uint256"
                        },
                        {
                            "internalType": "string",
                            "name": "contentUri",
                            "type": "string"
                        },
                        {
                            "internalType": "address",
                            "name": "linkModule",
                            "type": "address"
                        },
                        {
                            "internalType": "bytes",
                            "name": "linkModuleInitData",
                            "type": "bytes"
                        },
                        {
                            "internalType": "address",
                            "name": "mintModule",
                            "type": "address"
                        },
                        {
                            "internalType": "bytes",
                            "name": "mintModuleInitData",
                            "type": "bytes"
                        }
                    ],
                    "internalType": "struct DataTypes.PostNoteData",
                    "name": "vars",
                    "type": "tuple"
                }
            ],
            "name": "postNote",
            "outputs": [
                {
                    "internalType": "uint256",
                    "name": "",
                    "type": "uint256"
                }
            ],
            "stateMutability": "nonpayable",
            "type": "function"
        },
        {
            "inputs": [
                {
                    "components": [
                        {
                            "internalType": "uint256",
                            "name": "profileId",
                            "type": "uint256"
                        },
                        {
                            "internalType": "string",
                            "name": "contentUri",
                            "type": "string"
                        },
                        {
                            "internalType": "address",
                            "name": "linkModule",
                            "type": "address"
                        },
                        {
                            "internalType": "bytes",
                            "name": "linkModuleInitData",
                            "type": "bytes"
                        },
                        {
                            "internalType": "address",
                            "name": "mintModule",
                            "type": "address"
                        },
                        {
                            "internalType": "bytes",
                            "name": "mintModuleInitData",
                            "type": "bytes"
                        }
                    ],
                    "internalType": "struct DataTypes.PostNoteData",
                    "name": "noteData",
                    "type": "tuple"
                },
                {
                    "internalType": "uint256",
                    "name": "fromProfileId",
                    "type": "uint256"
                },
                {
                    "internalType": "address",
                    "name": "ethAddress",
                    "type": "address"
                },
                {
                    "internalType": "bytes32",
                    "name": "linkType",
                    "type": "bytes32"
                }
            ],
            "name": "postNote4AddressLink",
            "outputs": [
                {
                    "internalType": "uint256",
                    "name": "",
                    "type": "uint256"
                }
            ],
            "stateMutability": "nonpayable",
            "type": "function"
        },
        {
            "inputs": [
                {
                    "components": [
                        {
                            "internalType": "uint256",
                            "name": "profileId",
                            "type": "uint256"
                        },
                        {
                            "internalType": "string",
                            "name": "contentUri",
                            "type": "string"
                        },
                        {
                            "internalType": "address",
                            "name": "linkModule",
                            "type": "address"
                        },
                        {
                            "internalType": "bytes",
                            "name": "linkModuleInitData",
                            "type": "bytes"
                        },
                        {
                            "internalType": "address",
                            "name": "mintModule",
                            "type": "address"
                        },
                        {
                            "internalType": "bytes",
                            "name": "mintModuleInitData",
                            "type": "bytes"
                        }
                    ],
                    "internalType": "struct DataTypes.PostNoteData",
                    "name": "noteData",
                    "type": "tuple"
                },
                {
                    "internalType": "uint256",
                    "name": "fromProfileId",
                    "type": "uint256"
                },
                {
                    "internalType": "string",
                    "name": "toUri",
                    "type": "string"
                },
                {
                    "internalType": "bytes32",
                    "name": "linkType",
                    "type": "bytes32"
                }
            ],
            "name": "postNote4AnyLink",
            "outputs": [
                {
                    "internalType": "uint256",
                    "name": "",
                    "type": "uint256"
                }
            ],
            "stateMutability": "nonpayable",
            "type": "function"
        },
        {
            "inputs": [
                {
                    "components": [
                        {
                            "internalType": "uint256",
                            "name": "profileId",
                            "type": "uint256"
                        },
                        {
                            "internalType": "string",
                            "name": "contentUri",
                            "type": "string"
                        },
                        {
                            "internalType": "address",
                            "name": "linkModule",
                            "type": "address"
                        },
                        {
                            "internalType": "bytes",
                            "name": "linkModuleInitData",
                            "type": "bytes"
                        },
                        {
                            "internalType": "address",
                            "name": "mintModule",
                            "type": "address"
                        },
                        {
                            "internalType": "bytes",
                            "name": "mintModuleInitData",
                            "type": "bytes"
                        }
                    ],
                    "internalType": "struct DataTypes.PostNoteData",
                    "name": "noteData",
                    "type": "tuple"
                },
                {
                    "internalType": "uint256",
                    "name": "fromProfileId",
                    "type": "uint256"
                },
                {
                    "internalType": "address",
                    "name": "tokenAddress",
                    "type": "address"
                },
                {
                    "internalType": "uint256",
                    "name": "tokenId",
                    "type": "uint256"
                },
                {
                    "internalType": "bytes32",
                    "name": "linkType",
                    "type": "bytes32"
                }
            ],
            "name": "postNote4ERC721Link",
            "outputs": [
                {
                    "internalType": "uint256",
                    "name": "",
                    "type": "uint256"
                }
            ],
            "stateMutability": "nonpayable",
            "type": "function"
        },
        {
            "inputs": [
                {
                    "components": [
                        {
                            "internalType": "uint256",
                            "name": "profileId",
                            "type": "uint256"
                        },
                        {
                            "internalType": "string",
                            "name": "contentUri",
                            "type": "string"
                        },
                        {
                            "internalType": "address",
                            "name": "linkModule",
                            "type": "address"
                        },
                        {
                            "internalType": "bytes",
                            "name": "linkModuleInitData",
                            "type": "bytes"
                        },
                        {
                            "internalType": "address",
                            "name": "mintModule",
                            "type": "address"
                        },
                        {
                            "internalType": "bytes",
                            "name": "mintModuleInitData",
                            "type": "bytes"
                        }
                    ],
                    "internalType": "struct DataTypes.PostNoteData",
                    "name": "noteData",
                    "type": "tuple"
                },
                {
                    "internalType": "uint256",
                    "name": "fromProfileId",
                    "type": "uint256"
                },
                {
                    "internalType": "uint256",
                    "name": "toLinkListId",
                    "type": "uint256"
                },
                {
                    "internalType": "bytes32",
                    "name": "linkType",
                    "type": "bytes32"
                }
            ],
            "name": "postNote4LinklistLink",
            "outputs": [
                {
                    "internalType": "uint256",
                    "name": "",
                    "type": "uint256"
                }
            ],
            "stateMutability": "nonpayable",
            "type": "function"
        },
        {
            "inputs": [
                {
                    "components": [
                        {
                            "internalType": "uint256",
                            "name": "profileId",
                            "type": "uint256"
                        },
                        {
                            "internalType": "string",
                            "name": "contentUri",
                            "type": "string"
                        },
                        {
                            "internalType": "address",
                            "name": "linkModule",
                            "type": "address"
                        },
                        {
                            "internalType": "bytes",
                            "name": "linkModuleInitData",
                            "type": "bytes"
                        },
                        {
                            "internalType": "address",
                            "name": "mintModule",
                            "type": "address"
                        },
                        {
                            "internalType": "bytes",
                            "name": "mintModuleInitData",
                            "type": "bytes"
                        }
                    ],
                    "internalType": "struct DataTypes.PostNoteData",
                    "name": "noteData",
                    "type": "tuple"
                },
                {
                    "internalType": "uint256",
                    "name": "fromProfileId",
                    "type": "uint256"
                },
                {
                    "internalType": "uint256",
                    "name": "toProfileId",
                    "type": "uint256"
                },
                {
                    "internalType": "uint256",
                    "name": "toNoteId",
                    "type": "uint256"
                },
                {
                    "internalType": "bytes32",
                    "name": "linkType",
                    "type": "bytes32"
                }
            ],
            "name": "postNote4NoteLink",
            "outputs": [
                {
                    "internalType": "uint256",
                    "name": "",
                    "type": "uint256"
                }
            ],
            "stateMutability": "nonpayable",
            "type": "function"
        },
        {
            "inputs": [
                {
                    "components": [
                        {
                            "internalType": "uint256",
                            "name": "profileId",
                            "type": "uint256"
                        },
                        {
                            "internalType": "string",
                            "name": "contentUri",
                            "type": "string"
                        },
                        {
                            "internalType": "address",
                            "name": "linkModule",
                            "type": "address"
                        },
                        {
                            "internalType": "bytes",
                            "name": "linkModuleInitData",
                            "type": "bytes"
                        },
                        {
                            "internalType": "address",
                            "name": "mintModule",
                            "type": "address"
                        },
                        {
                            "internalType": "bytes",
                            "name": "mintModuleInitData",
                            "type": "bytes"
                        }
                    ],
                    "internalType": "struct DataTypes.PostNoteData",
                    "name": "noteData",
                    "type": "tuple"
                },
                {
                    "internalType": "uint256",
                    "name": "fromProfileId",
                    "type": "uint256"
                },
                {
                    "internalType": "uint256",
                    "name": "toProfileId",
                    "type": "uint256"
                },
                {
                    "internalType": "bytes32",
                    "name": "linkType",
                    "type": "bytes32"
                }
            ],
            "name": "postNote4ProfileLink",
            "outputs": [
                {
                    "internalType": "uint256",
                    "name": "",
                    "type": "uint256"
                }
            ],
            "stateMutability": "nonpayable",
            "type": "function"
        },
        {
            "inputs": [
                {
                    "internalType": "address",
                    "name": "from",
                    "type": "address"
                },
                {
                    "internalType": "address",
                    "name": "to",
                    "type": "address"
                },
                {
                    "internalType": "uint256",
                    "name": "tokenId",
                    "type": "uint256"
                }
            ],
            "name": "safeTransferFrom",
            "outputs": [],
            "stateMutability": "nonpayable",
            "type": "function"
        },
        {
            "inputs": [
                {
                    "internalType": "address",
                    "name": "from",
                    "type": "address"
                },
                {
                    "internalType": "address",
                    "name": "to",
                    "type": "address"
                },
                {
                    "internalType": "uint256",
                    "name": "tokenId",
                    "type": "uint256"
                },
                {
                    "internalType": "bytes",
                    "name": "_data",
                    "type": "bytes"
                }
            ],
            "name": "safeTransferFrom",
            "outputs": [],
            "stateMutability": "nonpayable",
            "type": "function"
        },
        {
            "inputs": [
                {
                    "internalType": "address",
                    "name": "operator",
                    "type": "address"
                },
                {
                    "internalType": "bool",
                    "name": "approved",
                    "type": "bool"
                }
            ],
            "name": "setApprovalForAll",
            "outputs": [],
            "stateMutability": "nonpayable",
            "type": "function"
        },
        {
            "inputs": [
                {
                    "internalType": "uint256",
                    "name": "profileId",
                    "type": "uint256"
                },
                {
                    "internalType": "string",
                    "name": "newHandle",
                    "type": "string"
                }
            ],
            "name": "setHandle",
            "outputs": [],
            "stateMutability": "nonpayable",
            "type": "function"
        },
        {
            "inputs": [
                {
                    "internalType": "address",
                    "name": "account",
                    "type": "address"
                },
                {
                    "internalType": "address",
                    "name": "linkModule",
                    "type": "address"
                },
                {
                    "internalType": "bytes",
                    "name": "linkModuleInitData",
                    "type": "bytes"
                }
            ],
            "name": "setLinkModule4Address",
            "outputs": [],
            "stateMutability": "nonpayable",
            "type": "function"
        },
        {
            "inputs": [
                {
                    "internalType": "address",
                    "name": "tokenAddress",
                    "type": "address"
                },
                {
                    "internalType": "uint256",
                    "name": "tokenId",
                    "type": "uint256"
                },
                {
                    "internalType": "address",
                    "name": "linkModule",
                    "type": "address"
                },
                {
                    "internalType": "bytes",
                    "name": "linkModuleInitData",
                    "type": "bytes"
                }
            ],
            "name": "setLinkModule4ERC721",
            "outputs": [],
            "stateMutability": "nonpayable",
            "type": "function"
        },
        {
            "inputs": [
                {
                    "internalType": "uint256",
                    "name": "linklistId",
                    "type": "uint256"
                },
                {
                    "internalType": "address",
                    "name": "linkModule",
                    "type": "address"
                },
                {
                    "internalType": "bytes",
                    "name": "linkModuleInitData",
                    "type": "bytes"
                }
            ],
            "name": "setLinkModule4Linklist",
            "outputs": [],
            "stateMutability": "nonpayable",
            "type": "function"
        },
        {
            "inputs": [
                {
                    "internalType": "uint256",
                    "name": "profileId",
                    "type": "uint256"
                },
                {
                    "internalType": "uint256",
                    "name": "noteId",
                    "type": "uint256"
                },
                {
                    "internalType": "address",
                    "name": "linkModule",
                    "type": "address"
                },
                {
                    "internalType": "bytes",
                    "name": "linkModuleInitData",
                    "type": "bytes"
                }
            ],
            "name": "setLinkModule4Note",
            "outputs": [],
            "stateMutability": "nonpayable",
            "type": "function"
        },
        {
            "inputs": [
                {
                    "internalType": "uint256",
                    "name": "profileId",
                    "type": "uint256"
                },
                {
                    "internalType": "address",
                    "name": "linkModule",
                    "type": "address"
                },
                {
                    "internalType": "bytes",
                    "name": "linkModuleInitData",
                    "type": "bytes"
                }
            ],
            "name": "setLinkModule4Profile",
            "outputs": [],
            "stateMutability": "nonpayable",
            "type": "function"
        },
        {
            "inputs": [
                {
                    "internalType": "uint256",
                    "name": "linklistId",
                    "type": "uint256"
                },
                {
                    "internalType": "string",
                    "name": "uri",
                    "type": "string"
                }
            ],
            "name": "setLinklistUri",
            "outputs": [],
            "stateMutability": "nonpayable",
            "type": "function"
        },
        {
            "inputs": [
                {
                    "internalType": "uint256",
                    "name": "profileId",
                    "type": "uint256"
                },
                {
                    "internalType": "uint256",
                    "name": "noteId",
                    "type": "uint256"
                },
                {
                    "internalType": "address",
                    "name": "mintModule",
                    "type": "address"
                },
                {
                    "internalType": "bytes",
                    "name": "mintModuleInitData",
                    "type": "bytes"
                }
            ],
            "name": "setMintModule4Note",
            "outputs": [],
            "stateMutability": "nonpayable",
            "type": "function"
        },
        {
            "inputs": [
                {
                    "internalType": "uint256",
                    "name": "profileId",
                    "type": "uint256"
                }
            ],
            "name": "setPrimaryProfileId",
            "outputs": [],
            "stateMutability": "nonpayable",
            "type": "function"
        },
        {
            "inputs": [
                {
                    "internalType": "uint256",
                    "name": "profileId",
                    "type": "uint256"
                },
                {
                    "internalType": "string",
                    "name": "newUri",
                    "type": "string"
                }
            ],
            "name": "setProfileUri",
            "outputs": [],
            "stateMutability": "nonpayable",
            "type": "function"
        },
        {
            "inputs": [
                {
                    "internalType": "uint256",
                    "name": "profileId",
                    "type": "uint256"
                },
                {
                    "internalType": "address",
                    "name": "tokenAddress",
                    "type": "address"
                }
            ],
            "name": "setSocialToken",
            "outputs": [],
            "stateMutability": "nonpayable",
            "type": "function"
        },
        {
            "inputs": [
                {
                    "internalType": "bytes4",
                    "name": "interfaceId",
                    "type": "bytes4"
                }
            ],
            "name": "supportsInterface",
            "outputs": [
                {
                    "internalType": "bool",
                    "name": "",
                    "type": "bool"
                }
            ],
            "stateMutability": "view",
            "type": "function"
        },
        {
            "inputs": [],
            "name": "symbol",
            "outputs": [
                {
                    "internalType": "string",
                    "name": "",
                    "type": "string"
                }
            ],
            "stateMutability": "view",
            "type": "function"
        },
        {
            "inputs": [
                {
                    "internalType": "uint256",
                    "name": "index",
                    "type": "uint256"
                }
            ],
            "name": "tokenByIndex",
            "outputs": [
                {
                    "internalType": "uint256",
                    "name": "",
                    "type": "uint256"
                }
            ],
            "stateMutability": "view",
            "type": "function"
        },
        {
            "inputs": [
                {
                    "internalType": "address",
                    "name": "owner",
                    "type": "address"
                },
                {
                    "internalType": "uint256",
                    "name": "index",
                    "type": "uint256"
                }
            ],
            "name": "tokenOfOwnerByIndex",
            "outputs": [
                {
                    "internalType": "uint256",
                    "name": "",
                    "type": "uint256"
                }
            ],
            "stateMutability": "view",
            "type": "function"
        },
        {
            "inputs": [
                {
                    "internalType": "uint256",
                    "name": "profileId",
                    "type": "uint256"
                }
            ],
            "name": "tokenURI",
            "outputs": [
                {
                    "internalType": "string",
                    "name": "",
                    "type": "string"
                }
            ],
            "stateMutability": "view",
            "type": "function"
        },
        {
            "inputs": [],
            "name": "totalSupply",
            "outputs": [
                {
                    "internalType": "uint256",
                    "name": "",
                    "type": "uint256"
                }
            ],
            "stateMutability": "view",
            "type": "function"
        },
        {
            "inputs": [
                {
                    "internalType": "address",
                    "name": "from",
                    "type": "address"
                },
                {
                    "internalType": "address",
                    "name": "to",
                    "type": "address"
                },
                {
                    "internalType": "uint256",
                    "name": "tokenId",
                    "type": "uint256"
                }
            ],
            "name": "transferFrom",
            "outputs": [],
            "stateMutability": "nonpayable",
            "type": "function"
        },
        {
            "inputs": [
                {
                    "internalType": "uint256",
                    "name": "fromProfileId",
                    "type": "uint256"
                },
                {
                    "internalType": "address",
                    "name": "ethAddress",
                    "type": "address"
                },
                {
                    "internalType": "bytes32",
                    "name": "linkType",
                    "type": "bytes32"
                }
            ],
            "name": "unlinkAddress",
            "outputs": [],
            "stateMutability": "nonpayable",
            "type": "function"
        },
        {
            "inputs": [
                {
                    "internalType": "uint256",
                    "name": "fromProfileId",
                    "type": "uint256"
                },
                {
                    "internalType": "string",
                    "name": "toUri",
                    "type": "string"
                },
                {
                    "internalType": "bytes32",
                    "name": "linkType",
                    "type": "bytes32"
                }
            ],
            "name": "unlinkAny",
            "outputs": [],
            "stateMutability": "nonpayable",
            "type": "function"
        },
        {
            "inputs": [
                {
                    "internalType": "uint256",
                    "name": "fromProfileId",
                    "type": "uint256"
                },
                {
                    "internalType": "address",
                    "name": "tokenAddress",
                    "type": "address"
                },
                {
                    "internalType": "uint256",
                    "name": "tokenId",
                    "type": "uint256"
                },
                {
                    "internalType": "bytes32",
                    "name": "linkType",
                    "type": "bytes32"
                }
            ],
            "name": "unlinkERC721",
            "outputs": [],
            "stateMutability": "nonpayable",
            "type": "function"
        },
        {
            "inputs": [
                {
                    "internalType": "uint256",
                    "name": "fromProfileId",
                    "type": "uint256"
                },
                {
                    "internalType": "uint256",
                    "name": "toLinkListId",
                    "type": "uint256"
                },
                {
                    "internalType": "bytes32",
                    "name": "linkType",
                    "type": "bytes32"
                }
            ],
            "name": "unlinkLinklist",
            "outputs": [],
            "stateMutability": "nonpayable",
            "type": "function"
        },
        {
            "inputs": [
                {
                    "internalType": "uint256",
                    "name": "fromProfileId",
                    "type": "uint256"
                },
                {
                    "internalType": "uint256",
                    "name": "toProfileId",
                    "type": "uint256"
                },
                {
                    "internalType": "uint256",
                    "name": "toNoteId",
                    "type": "uint256"
                },
                {
                    "internalType": "bytes32",
                    "name": "linkType",
                    "type": "bytes32"
                }
            ],
            "name": "unlinkNote",
            "outputs": [],
            "stateMutability": "nonpayable",
            "type": "function"
        },
        {
            "inputs": [
                {
                    "internalType": "uint256",
                    "name": "fromProfileId",
                    "type": "uint256"
                },
                {
                    "internalType": "uint256",
                    "name": "toProfileId",
                    "type": "uint256"
                },
                {
                    "internalType": "bytes32",
                    "name": "linkType",
                    "type": "bytes32"
                }
            ],
            "name": "unlinkProfile",
            "outputs": [],
            "stateMutability": "nonpayable",
            "type": "function"
        },
        {
            "inputs": [
                {
                    "internalType": "uint256",
                    "name": "fromProfileId",
                    "type": "uint256"
                },
                {
                    "components": [
                        {
                            "internalType": "uint256",
                            "name": "fromProfileId",
                            "type": "uint256"
                        },
                        {
                            "internalType": "uint256",
                            "name": "toProfileId",
                            "type": "uint256"
                        },
                        {
                            "internalType": "bytes32",
                            "name": "linkType",
                            "type": "bytes32"
                        }
                    ],
                    "internalType": "struct DataTypes.ProfileLinkStruct",
                    "name": "linkData",
                    "type": "tuple"
                },
                {
                    "internalType": "bytes32",
                    "name": "linkType",
                    "type": "bytes32"
                }
            ],
            "name": "unlinkProfileLink",
            "outputs": [],
            "stateMutability": "nonpayable",
            "type": "function"
        }
    ],
    "bytecode": "0x608060405234801561001057600080fd5b50615c6880620000216000396000f3fe608060405234801561001057600080fd5b50600436106104285760003560e01c8063605787d61161022b578063b75db76511610130578063d36a2dce116100b8578063ec81d19411610087578063ec81d194146109e3578063f08f4f64146109f6578063f262bec114610a09578063f98839df14610a1c578063fe9299fb14610a2f57600080fd5b8063d36a2dce14610961578063db491e8014610974578063e72f208c14610994578063e985e9c5146109a757600080fd5b8063c2a6fe3b116100ff578063c2a6fe3b14610902578063c387c45314610915578063c7009c6b14610928578063c87b56dd1461093b578063cba4f5cc1461094e57600080fd5b8063b75db765146108b8578063b88d4fde146108cb578063bd5f69cb146108de578063c053f6b8146108f157600080fd5b8063862b531c116101b357806395e760101161018257806395e760101461085957806397550f131461086c578063a22cb4651461087f578063a6e6178d14610892578063b40d5a57146108a557600080fd5b8063862b531c146108185780638f15b4141461082b57806395d89b411461083e57806395d9fa7d1461084657600080fd5b806373f1c929116101fa57806373f1c929146107b95780637936da0e146107cc5780637c392b51146107df5780637e9a8292146107f257806384b7743a1461080557600080fd5b8063605787d6146107605780636352211e1461077357806363c008751461078657806370a08231146107a657600080fd5b8063265402401161033157806343786783116102b95780634cab71ec116102885780634cab71ec146107015780634f6ccce714610714578063515d42d214610727578063570477fb1461073a5780635bfc909a1461074d57600080fd5b806343786783146106b55780634ab463ee146106c85780634af3eb42146106db5780634bebcd17146106ee57600080fd5b80632f745c59116103005780632f745c591461063d57806331b9d08c1461065057806333f06ee61461067c57806342842e0e1461068f57806342966c68146106a257600080fd5b806326540240146105f1578063295cb43e146106045780632a59de7a146106175780632c2e08811461062a57600080fd5b80630f84fe8c116103b45780631bb4d231116103835780631bb4d2311461055957806321f4f26f146105825780632209d14514610595578063231fcfbe146105cb57806323b872dd146105de57600080fd5b80630f84fe8c146105245780631316529d146105375780631808dda01461053e57806318160ddd1461055157600080fd5b8063081812fc116103fb578063081812fc14610492578063095ea7b3146104bd5780630a871e60146104d05780630c16de10146104f15780630d17b01f1461051157600080fd5b806301ffc9a71461042d5780630336bf551461045557806306f30bc91461046a57806306fdde031461047d575b600080fd5b61044061043b366004614744565b610a58565b60405190151581526020015b60405180910390f35b610468610463366004614761565b610a83565b005b6104686104783660046147f0565b610b7a565b610485610c06565b60405161044c91906148b1565b6104a56104a03660046148c4565b610c98565b6040516001600160a01b03909116815260200161044c565b6104686104cb3660046148dd565b610d32565b6104e36104de366004614921565b610e48565b60405190815260200161044c565b6105046104ff36600461498b565b610f75565b60405161044c91906149cc565b61046861051f366004614a48565b611124565b610468610532366004614a48565b611201565b60026104e3565b61046861054c366004614a80565b611227565b6008546104e3565b6104e3610567366004614aac565b6001600160a01b03166000908152600c602052604090205490565b6104e3610590366004614ac9565b61125f565b6104a56105a33660046148dd565b6001600160a01b03918216600090815260106020908152604080832093835292905220541690565b6104686105d93660046147f0565b61133d565b6104686105ec366004614b1c565b611392565b6104e36105ff366004614b4c565b6113c3565b6104686106123660046148c4565b611421565b610468610625366004614bac565b611467565b610468610638366004614bfe565b611529565b6104e361064b3660046148dd565b61159f565b6104a561065e366004614aac565b6001600160a01b039081166000908152601160205260409020541690565b61046861068a366004614c62565b611635565b61046861069d366004614b1c565b6116a9565b6104686106b03660046148c4565b6116c4565b6104e36106c3366004614ac9565b611708565b6104686106d6366004614cad565b61175a565b6104686106e9366004614a80565b6117b5565b6104e36106fc366004614cf0565b61189b565b61048561070f366004614d4c565b6118e5565b6104e36107223660046148c4565b611972565b610468610735366004614d4c565b611a05565b610468610748366004614d6e565b611b3d565b61046861075b366004614daf565b611c2e565b61046861076e366004614a48565b611c70565b6104a56107813660046148c4565b611d31565b610799610794366004614d4c565b611da8565b60405161044c9190614dfb565b6104e36107b4366004614aac565b611f76565b6104686107c7366004614e3f565b611ffd565b6104686107da366004614d4c565b6120d2565b6104686107ed366004614c62565b61218e565b610468610800366004614e7c565b6121f3565b610468610813366004614e3f565b61223f565b6104e36108263660046147f0565b61231f565b610468610839366004614eb6565b6123bf565b610485612506565b610468610854366004614f4a565b612515565b6104e3610867366004614f7a565b61259b565b61046861087a366004614a80565b6125e1565b61046861088d366004614ff1565b612691565b6104686108a0366004614c62565b6126a0565b6104686108b3366004614bac565b612716565b6104686108c6366004615024565b6127dd565b6104686108d93660046150fa565b61294c565b6104686108ec3660046151a8565b612984565b6013546001600160a01b03166104a5565b610468610910366004614d4c565b612a85565b6104406109233660046148c4565b612ac7565b610468610936366004614d6e565b612af5565b6104856109493660046148c4565b612bd0565b61048561095c3660046148c4565b612c75565b6104e361096f3660046151e2565b612c80565b610987610982366004614d4c565b612d2e565b60405161044c9190615216565b6104686109a23660046152a8565b612e96565b6104406109b53660046152d0565b6001600160a01b03918216600090815260056020908152604080832093909416825291909152205460ff1690565b6104856109f13660046148c4565b612eec565b610504610a043660046148c4565b612f0c565b610468610a173660046152a8565b613093565b610468610a2a366004614a80565b6130dc565b6104a5610a3d3660046148c4565b6000908152600f60205260409020546001600160a01b031690565b60006001600160e01b0319821663780e9d6360e01b1480610a7d5750610a7d826131a2565b92915050565b610a8c846131f2565b610a958361324d565b610a9f83836132a4565b6000848152600d60209081526040808320848452909152902054610ac381866132f5565b6013546040516281eec360e31b81526004810183905260248101869052604481018590526001600160a01b039091169063040f761890606401600060405180830381600087803b158015610b1657600080fd5b505af1158015610b2a573d6000803e3d6000fd5b505050508284867fd27a71fc88ac85c4657b81c4d24a9cd9a034971683620f179a19d179fe0a956d8585604051610b6b929190918252602082015260400190565b60405180910390a45050505050565b610b83856131f2565b610b8d85856132a4565b604051631041450160e11b815273__$69db18565ecbefece480e92cc5f8fb1274$__906320828a0290610bcf9088908890889088908890600e90600401615327565b60006040518083038186803b158015610be757600080fd5b505af4158015610bfb573d6000803e3d6000fd5b505050505050505050565b606060008054610c1590615368565b80601f0160208091040260200160405190810160405280929190818152602001828054610c4190615368565b8015610c8e5780601f10610c6357610100808354040283529160200191610c8e565b820191906000526020600020905b815481529060010190602001808311610c7157829003601f168201915b5050505050905090565b6000818152600260205260408120546001600160a01b0316610d165760405162461bcd60e51b815260206004820152602c60248201527f4552433732313a20617070726f76656420717565727920666f72206e6f6e657860448201526b34b9ba32b73a103a37b5b2b760a11b60648201526084015b60405180910390fd5b506000908152600460205260409020546001600160a01b031690565b6000610d3d82611d31565b9050806001600160a01b0316836001600160a01b03161415610dab5760405162461bcd60e51b815260206004820152602160248201527f4552433732313a20617070726f76616c20746f2063757272656e74206f776e656044820152603960f91b6064820152608401610d0d565b336001600160a01b0382161480610dc75750610dc781336109b5565b610e395760405162461bcd60e51b815260206004820152603860248201527f4552433732313a20617070726f76652063616c6c6572206973206e6f74206f7760448201527f6e6572206e6f7220617070726f76656420666f7220616c6c00000000000000006064820152608401610d0d565b610e4383836133a5565b505050565b6000610e5486356131f2565b610e5e8484613413565b6000858152600d6020908152604080832085845282528083205490516bffffffffffffffffffffffff19606089901b16928101929092526034820186905291694552433732314c696e6b60b01b916054015b6040516020818303038152906040528051906020012090506000600a60008a815260200190815260200160002060030160008154610eed906153b3565b91829055506040516317e60d8d60e31b815290915073__$2873850e5b3f5697aafc2f5cd9f27cc884$__9063bf306c6890610f37908d908590899089908990600e906004016154b7565b60006040518083038186803b158015610f4f57600080fd5b505af4158015610f63573d6000803e3d6000fd5b50929c9b505050505050505050505050565b610f7d61464d565b60008383604051610f8f9291906154f3565b604080519182900382206000818152600b602090815283822054808352600a82529184902060c0860190945283548552600184018054939650919493929084019190610fda90615368565b80601f016020809104026020016040519081016040528092919081815260200182805461100690615368565b80156110535780601f1061102857610100808354040283529160200191611053565b820191906000526020600020905b81548152906001019060200180831161103657829003601f168201915b5050505050815260200160028201805461106c90615368565b80601f016020809104026020016040519081016040528092919081815260200182805461109890615368565b80156110e55780601f106110ba576101008083540402835291602001916110e5565b820191906000526020600020905b8154815290600101906020018083116110c857829003601f168201915b50505091835250506003820154602082015260048201546001600160a01b03908116604083015260059092015490911660609091015295945050505050565b61112d836131f2565b6000838152600d6020908152604080832084845290915290205461115181856132f5565b601354604051635956da7360e01b8152600481018390526001600160a01b03858116602483015290911690635956da7390604401600060405180830381600087803b15801561119f57600080fd5b505af11580156111b3573d6000803e3d6000fd5b50505050826001600160a01b0316847f93453451dd1d041ffa18c6c1f3f2e21a6d73c3d8d32deaf595b53a14914c8715846040516111f391815260200190565b60405180910390a350505050565b610e4383838360405180604001604052806002815260200161060f60f31b8152506134c3565b611230836131f2565b6112398261324d565b610e4383838360405180604001604052806002815260200161060f60f31b815250613667565b600061126b85356131f2565b6000848152600d60209081526040808320858452825280832054878452600a9092528220600301805491926a50726f66696c654c696e6b60a81b9287929082906112b4906153b3565b91829055506040516317e60d8d60e31b815290915073__$2873850e5b3f5697aafc2f5cd9f27cc884$__9063bf306c68906112fe908c908590899089908990600e906004016154b7565b60006040518083038186803b15801561131657600080fd5b505af415801561132a573d6000803e3d6000fd5b509296505050505050505b949350505050565b611346856131f2565b61135085856132a4565b604051631f2ffb6960e01b815273__$69db18565ecbefece480e92cc5f8fb1274$__90631f2ffb6990610bcf9088908890889088908890600e90600401615327565b61139c33826137bb565b6113b85760405162461bcd60e51b8152600401610d0d90615503565b610e438383836138ae565b60006113cf85356131f2565b6000848152600d60209081526040808320858452825280832054878452600a9092528220600301805491926a416464726573734c696e6b60a81b926001600160a01b038816929082906112b4906153b3565b61142a816131f2565b336000818152600c6020526040808220849055518392917f444dbf26d795c263ce4e5f2fccaac8e71b73cb37091f74e9e4f76cd98b55f8d391a350565b611470846131f2565b600061147d858333613a55565b601354604051631983158760e31b81529192506001600160a01b03169063cc18ac38906114b290849088908890600401615554565b600060405180830381600087803b1580156114cc57600080fd5b505af11580156114e0573d6000803e3d6000fd5b50505050847f77c508b3ce1f699c73e46a33df0ab0010d3d5f3e1270839381b85e618aef0fce8585858560405161151a9493929190615577565b60405180910390a25050505050565b60405163dfc34f2560e01b815273__$69db18565ecbefece480e92cc5f8fb1274$__9063dfc34f259061156990879087908790879060119060040161559e565b60006040518083038186803b15801561158157600080fd5b505af4158015611595573d6000803e3d6000fd5b5050505050505050565b60006115aa83611f76565b821061160c5760405162461bcd60e51b815260206004820152602b60248201527f455243373231456e756d657261626c653a206f776e657220696e646578206f7560448201526a74206f6620626f756e647360a81b6064820152608401610d0d565b506001600160a01b03919091166000908152600660209081526040808320938352929052205490565b61163e83613b76565b601354604051633c17845760e11b81526001600160a01b039091169063782f08ae9061167290869086908690600401615554565b600060405180830381600087803b15801561168c57600080fd5b505af11580156116a0573d6000803e3d6000fd5b50505050505050565b610e438383836040518060200160405280600081525061294c565b6116cd81613c36565b6000818152600a602052604080822090516116eb91600101906155dd565b60408051918290039091206000908152600b602052908120555050565b600061171485356131f2565b6000848152600d60209081526040808320858452825280832054878452600a909252822060030180549192674c6973744c696e6b60c01b9287929082906112b4906153b3565b611763856131f2565b61176c8461324d565b6117ae85858585858080601f01602080910402602001604051908101604052809392919081815260200183838082843760009201919091525061366792505050565b5050505050565b6117be836131f2565b6117c78261324d565b6000838152600d602090815260408083208484529091529020546117eb81856132f5565b6013546040516391e5454b60e01b815260048101839052602481018590526001600160a01b03909116906391e5454b90604401600060405180830381600087803b15801561183857600080fd5b505af115801561184c573d6000803e3d6000fd5b505050508284336001600160a01b03167f08a14b775e42bf92e94f9d72aba57ad213485e0c20e373c9f5dd161fb81890a28560405161188d91815260200190565b60405180910390a450505050565b60006118a786356131f2565b6000858152600d60209081526040808320858452825280832054815192830188905290820186905291674e6f74654c696e6b60c01b91606001610eb0565b6000828152600d6020908152604080832084845290915290819020546013549151632b05429560e21b8152600481018290526060926001600160a01b03169063ac150a5490602401600060405180830381865afa15801561194a573d6000803e3d6000fd5b505050506040513d6000823e601f3d908101601f191682016040526113359190810190615679565b600061197d60085490565b82106119e05760405162461bcd60e51b815260206004820152602c60248201527f455243373231456e756d657261626c653a20676c6f62616c20696e646578206f60448201526b7574206f6620626f756e647360a01b6064820152608401610d0d565b600882815481106119f3576119f36156e6565b90600052602060002001549050919050565b60135460405162fba02760e01b8152600481018490526000916001600160a01b03169062fba02790602401602060405180830381865afa158015611a4d573d6000803e3d6000fd5b505050506040513d601f19601f82011682018060405250810190611a7191906156fc565b6000838152600d6020908152604080832084845290915290205490915015611ae75760405162461bcd60e51b815260206004820152602360248201527f53616d652074797065206c696e6b6c69737420616c726561647920657869737460448201526232b21760e91b6064820152608401610d0d565b611af18383613c95565b6000828152600d60209081526040808320848452909152808220859055518291849186917f94703ec1dd639b589d05fa7c0c14ee1e83b906bfb5f50642cc7ea415a817228891a4505050565b611b46836131f2565b6000838152600d60209081526040808320848452909152902054611b6a81856132f5565b60135460408051630e14bb7560e31b81526004810184905285356024820152602086013560448201529085013560648201526001600160a01b03909116906370a5dba890608401600060405180830381600087803b158015611bcb57600080fd5b505af1158015611bdf573d6000803e3d6000fd5b505060408051863581526020808801359082015281870135918101919091528492508691507f90fe9f3bf41416d9a567460a40443ef7aea47220fa342bc0e07fd01c93ffc7e1906060016111f3565b6117ae85858585858080601f0160208091040260200160405190810160405280939291908181526020018383808284376000920191909152506134c392505050565b611c79836131f2565b6000611c86848333613a55565b60135460405163ed386e6560e01b8152600481018390526001600160a01b03868116602483015292935091169063ed386e6590604401600060405180830381600087803b158015611cd657600080fd5b505af1158015611cea573d6000803e3d6000fd5b505060408051858152602081018590526001600160a01b03871693508792507f3dad60a88f1d8ee170dfbeb8c65c705bd47922f205e774e10e49e4e53d93a8bd91016111f3565b6000818152600260205260408120546001600160a01b031680610a7d5760405162461bcd60e51b815260206004820152602960248201527f4552433732313a206f776e657220717565727920666f72206e6f6e657869737460448201526832b73a103a37b5b2b760b91b6064820152608401610d0d565b6000828152600d6020908152604080832084845290915280822054601354915163a72d231760e01b81526004810182905260609391926001600160a01b03169063a72d231790602401600060405180830381865afa158015611e0e573d6000803e3d6000fd5b505050506040513d6000823e601f3d908101601f19168201604052611e369190810190615715565b80519091506000805b82811015611ea657611e81848281518110611e5c57611e5c6156e6565b60200260200101516000908152600260205260409020546001600160a01b0316151590565b15611e945781611e90816153b3565b9250505b80611e9e816153b3565b915050611e3f565b50806001600160401b03811115611ebf57611ebf61508d565b604051908082528060200260200182016040528015611ee8578160200160208202803683370190505b5094506000905060005b82811015611f6b57611f0f848281518110611e5c57611e5c6156e6565b15611f5957838181518110611f2657611f266156e6565b6020026020010151868381518110611f4057611f406156e6565b602090810291909101015281611f55816153b3565b9250505b80611f63816153b3565b915050611ef2565b505050505092915050565b60006001600160a01b038216611fe15760405162461bcd60e51b815260206004820152602a60248201527f4552433732313a2062616c616e636520717565727920666f7220746865207a65604482015269726f206164647265737360b01b6064820152608401610d0d565b506001600160a01b031660009081526003602052604090205490565b612006846131f2565b6120108383613413565b600061201d858333613a55565b601354604051630ba893bf60e21b8152600481018390526001600160a01b03878116602483015260448201879052929350911690632ea24efc90606401600060405180830381600087803b15801561207457600080fd5b505af1158015612088573d6000803e3d6000fd5b5050505082846001600160a01b0316867f72413a1a5c43b255ad065653bf49db3c79ff7853ddaa4f4962ccd05e5368ad778585604051610b6b929190918252602082015260400190565b60135460405162fba02760e01b8152600481018490526000916001600160a01b03169062fba02790602401602060405180830381865afa15801561211a573d6000803e3d6000fd5b505050506040513d601f19601f8201168201806040525081019061213e91906156fc565b6000838152600d60209081526040808320848452909152808220829055519192508291849186917f5751ba9aebec2dcd504f8865b0e0c98a772403773fe528fce2fce580c9a8a1659190a4505050565b612197836131f2565b6000838152600a602052604090206121b3906002018383614695565b50827fc6b6b2c87fb0784186dd03398c7203c866d0ae59539fa3158aecbc86cb587a9583836040516121e69291906157ba565b60405180910390a2505050565b6121fd8585613d05565b60405163384afeb360e01b815273__$69db18565ecbefece480e92cc5f8fb1274$__9063384afeb390610bcf90889088908890889088906010906004016157ce565b612248846131f2565b6000848152600d6020908152604080832084845290915290205461226c81866132f5565b601354604051630370a16160e01b8152600481018390526001600160a01b0386811660248301526044820186905290911690630370a16190606401600060405180830381600087803b1580156122c157600080fd5b505af11580156122d5573d6000803e3d6000fd5b5050505082846001600160a01b0316867fd87f9606a19988b6cf42d250d484940673ce551ab5f80289051cc343ff13121c8585604051610b6b929190918252602082015260400190565b601454604051630f37153360e31b815260009173__$2873850e5b3f5697aafc2f5cd9f27cc884$__916379b8a99891612374918a918a918a918a918a916001600160a01b031690600a90600e90600401615802565b602060405180830381865af4158015612391573d6000803e3d6000fd5b505050506040513d601f19601f820116820180604052508101906123b591906156fc565b9695505050505050565b601454600160a81b900460ff166123e357601454600160a01b900460ff16156123e7565b303b155b61244a5760405162461bcd60e51b815260206004820152602e60248201527f496e697469616c697a61626c653a20636f6e747261637420697320616c72656160448201526d191e481a5b9a5d1a585b1a5e995960921b6064820152608401610d0d565b601454600160a81b900460ff16158015612474576014805461ffff60a01b191661010160a01b1790555b61248087878787613dbf565b601380546001600160a01b038086166001600160a01b03199283161790925560148054928516929091169190911790556040517f400175a56dd3710794078f7b9dbe8296ac94c5a248dfd51bb22ed4ab9eaa9fbf906124e29042815260200190565b60405180910390a180156116a0576014805460ff60a81b1916905550505050505050565b606060018054610c1590615368565b61251e826131f2565b60405163470c9bf360e11b8152600481018390526001600160a01b0382166024820152600a604482015273__$da066dc100670b51e733250a114f607b42$__90638e1937e69060640160006040518083038186803b15801561257f57600080fd5b505af4158015612593573d6000803e3d6000fd5b505050505050565b60006125a786356131f2565b6000858152600d602090815260408083208584528252808320549051909266416e794c696e6b60c81b929091610eb0918991899101615850565b6125ea836131f2565b60006125f7848333613a55565b6013546040516360e6a7c160e11b815260048101839052602481018690529192506001600160a01b03169063c1cd4f8290604401600060405180830381600087803b15801561264557600080fd5b505af1158015612659573d6000803e3d6000fd5b505050508083857f2e398bc911c0eb636118bc7906bdfa98b2ccf6ef7ee76e3f07068d0eee488e3f8560405161188d91815260200190565b61269c338383613e10565b5050565b6126a9836131f2565b60405163c57cb53760e01b815273__$da066dc100670b51e733250a114f607b42$__9063c57cb537906126ea90869086908690600b90600a90600401615873565b60006040518083038186803b15801561270257600080fd5b505af41580156116a0573d6000803e3d6000fd5b61271f846131f2565b6000848152600d6020908152604080832084845290915290205461274381866132f5565b6013546040516308e013fb60e41b81526001600160a01b0390911690638e013fb09061277790849088908890600401615554565b600060405180830381600087803b15801561279157600080fd5b505af11580156127a5573d6000803e3d6000fd5b50505050847f30c740190e772199ffeb095b72d8a53da7bbd09a55668530ee288e33b28ecebd85858560405161151a939291906158a1565b6127e6866131f2565b6127ef8561324d565b60006127fc878533613a55565b601354604051635cb46be760e01b81526004810183905260248101899052604481018890529192506001600160a01b031690635cb46be790606401600060405180830381600087803b15801561285157600080fd5b505af1158015612865573d6000803e3d6000fd5b5050506000878152600e602090815260408083208984529091529020600401546001600160a01b0316905080156128fd5760405163f0f5557360e01b81526001600160a01b0382169063f0f55573906128ca9033908b908b908a908a906004016158c5565b600060405180830381600087803b1580156128e457600080fd5b505af11580156128f8573d6000803e3d6000fd5b505050505b8587897f3cae5b1196087b560b6735377bbf745e5754f8082348a432b806afa01686ef48888660405161293a929190918252602082015260400190565b60405180910390a45050505050505050565b61295633836137bb565b6129725760405162461bcd60e51b8152600401610d0d90615503565b61297e84848484613edf565b50505050565b601254612992906001613f12565b6012556129ad6129a56020830183614aac565b601254613f1e565b6012546040516328837e1960e21b815273__$da066dc100670b51e733250a114f607b42$__9163a20df864916129f191859160019190600b90600a906004016158fe565b60006040518083038186803b158015612a0957600080fd5b505af4158015612a1d573d6000803e3d6000fd5b50600c925060009150612a3590506020840184614aac565b6001600160a01b03168152602081019190915260400160002054612a8257601254600c6000612a676020850185614aac565b6001600160a01b031681526020810191909152604001600020555b50565b612a8e826131f2565b612a9882826132a4565b6000918252600e602090815260408084209284529190529020600601805460ff60a01b1916600160a01b179055565b600080612ad383611d31565b6001600160a01b03166000908152600c60205260409020549290921492915050565b612afe836131f2565b6000612b0b848333613a55565b6013546040805163494c4d9960e01b81526004810184905286356024820152602087013560448201529086013560648201529192506001600160a01b03169063494c4d9990608401600060405180830381600087803b158015612b6d57600080fd5b505af1158015612b81573d6000803e3d6000fd5b505060408051863581526020808801359082015281870135918101919091528492508691507ff0697acc3f194ceead566f2dffb676a7d4aaf14d0a2fad93923e778e4b40ae0d906060016111f3565b6000818152600a60205260409020600201805460609190612bf090615368565b80601f0160208091040260200160405190810160405280929190818152602001828054612c1c90615368565b8015612c695780601f10612c3e57610100808354040283529160200191612c69565b820191906000526020600020905b815481529060010190602001808311612c4c57829003601f168201915b50505050509050919050565b6060610a7d82612bd0565b6000612c8c82356131f2565b81356000908152600a6020526040812060030180548290612cac906153b3565b91829055506040516317e60d8d60e31b815290915073__$2873850e5b3f5697aafc2f5cd9f27cc884$__9063bf306c6890612cf7908690859060009081908190600e906004016154b7565b60006040518083038186803b158015612d0f57600080fd5b505af4158015612d23573d6000803e3d6000fd5b509295945050505050565b60408051610100810182526000808252602082018190529181018290526060808201526080810182905260a0810182905260c0810182905260e0810191909152600e6000848152602001908152602001600020600083815260200190815260200160002060405180610100016040529081600082015481526020016001820154815260200160028201548152602001600382018054612dcc90615368565b80601f0160208091040260200160405190810160405280929190818152602001828054612df890615368565b8015612e455780601f10612e1a57610100808354040283529160200191612e45565b820191906000526020600020905b815481529060010190602001808311612e2857829003601f168201915b505050918352505060048201546001600160a01b0390811660208301526005830154811660408301526006909201549182166060820152600160a01b90910460ff1615156080909101529392505050565b612e9f846131f2565b6000848152600a6020526040908190209051630f15c45d60e11b815273__$da066dc100670b51e733250a114f607b42$__91631e2b88ba91611569918891889188918891906004016159df565b6000818152600a60205260409020600101805460609190612bf090615368565b612f1461464d565b600a60008381526020019081526020016000206040518060c001604052908160008201548152602001600182018054612f4c90615368565b80601f0160208091040260200160405190810160405280929190818152602001828054612f7890615368565b8015612fc55780601f10612f9a57610100808354040283529160200191612fc5565b820191906000526020600020905b815481529060010190602001808311612fa857829003601f168201915b50505050508152602001600282018054612fde90615368565b80601f016020809104026020016040519081016040528092919081815260200182805461300a90615368565b80156130575780601f1061302c57610100808354040283529160200191613057565b820191906000526020600020905b81548152906001019060200180831161303a57829003601f168201915b50505091835250506003820154602082015260048201546001600160a01b03908116604083015260059092015490911660609091015292915050565b61309c84613b76565b6040516331290acf60e11b815273__$69db18565ecbefece480e92cc5f8fb1274$__90636252159e90611569908790879087908790600f906004016159df565b6130e5836131f2565b6000838152600d6020908152604080832084845290915290205461310981856132f5565b60135460405163c70881c560e01b815260048101839052602481018590526001600160a01b039091169063c70881c590604401600060405180830381600087803b15801561315657600080fd5b505af115801561316a573d6000803e3d6000fd5b505050508083857f42b4ce79acc0bdbfa79f30ba8758f3a465824adff1ea290b6d5aeeeef05eb14f8560405161188d91815260200190565b60006001600160e01b031982166380ac58cd60e01b14806131d357506001600160e01b03198216635b5e139f60e01b145b80610a7d57506301ffc9a760e01b6001600160e01b0319831614610a7d565b6131fb81611d31565b6001600160a01b0316336001600160a01b031614612a825760405162461bcd60e51b815260206004820152600f60248201526e2737ba283937b334b632a7bbb732b960891b6044820152606401610d0d565b6000818152600260205260409020546001600160a01b0316612a825760405162461bcd60e51b815260206004820152601060248201526f50726f66696c654e6f7445786973747360801b6044820152606401610d0d565b6000828152600a602052604090206003015481111561269c5760405162461bcd60e51b815260206004820152600d60248201526c4e6f74654e6f7445786973747360981b6044820152606401610d0d565b60135460405163124fe93760e21b8152600481018490526001600160a01b039091169063493fa4dc90602401602060405180830381865afa15801561333e573d6000803e3d6000fd5b505050506040513d601f19601f8201168201806040525081019061336291906156fc565b811461269c5760405162461bcd60e51b8152602060048201526012602482015271155b985d1d1858da1959131a5b9adb1a5cdd60721b6044820152606401610d0d565b600081815260046020526040902080546001600160a01b0319166001600160a01b03841690811790915581906133da82611d31565b6001600160a01b03167f8c5be1e5ebec7d5bd14f71427d1e84f3dd0314c0f7b2291e5b200ac8c7c3b92560405160405180910390a45050565b6040516331a9108f60e11b8152600481018290526001600160a01b03831690636352211e90602401602060405180830381865afa158015613458573d6000803e3d6000fd5b505050506040513d601f19601f8201168201806040525081019061347c9190615a0a565b6001600160a01b031661269c5760405162461bcd60e51b815260206004820152600f60248201526e5245433732314e6f7445786973747360881b6044820152606401610d0d565b6134cc846131f2565b6001600160a01b0383166000908152600c6020526040902054156135465760405162461bcd60e51b815260206004820152602b60248201527f546172676574206164647265737320616c726561647920686173207072696d6160448201526a393c90383937b334b6329760a91b6064820152608401610d0d565b6000601260008154613557906153b3565b918290555090506135688482613f1e565b73__$da066dc100670b51e733250a114f607b42$__63a20df8646040518060a00160405280876001600160a01b031681526020016135b0886001600160a01b0316601461406c565b815260200160405180602001604052806000815250815260200160006001600160a01b0316815260200160405180602001604052806000815250815250600084600b600a6040518663ffffffff1660e01b8152600401613614959493929190615a27565b60006040518083038186803b15801561362c57600080fd5b505af4158015613640573d6000803e3d6000fd5b5050506001600160a01b0385166000908152600c60205260409020829055506117ae858285855b6000613674858433613a55565b601354604051637bf0b88d60e11b815260048101839052602481018790529192506001600160a01b03169063f7e1711a90604401600060405180830381600087803b1580156136c257600080fd5b505af11580156136d6573d6000803e3d6000fd5b5050506000858152600a60205260409020600501546001600160a01b031615905061377f57600061370686611d31565b6000868152600a60205260409081902060050154905163366531f960e11b81529192506001600160a01b031690636cca63f29061374b90849089908890600401615ab4565b600060405180830381600087803b15801561376557600080fd5b505af1158015613779573d6000803e3d6000fd5b50505050505b60408051848152602081018390528591879133917fbc914995d574dd9ef2df364e4eee2b85deda3ba35d054a62425fba1b972757169101610b6b565b6000818152600260205260408120546001600160a01b03166138345760405162461bcd60e51b815260206004820152602c60248201527f4552433732313a206f70657261746f7220717565727920666f72206e6f6e657860448201526b34b9ba32b73a103a37b5b2b760a11b6064820152608401610d0d565b600061383f83611d31565b9050806001600160a01b0316846001600160a01b0316148061387a5750836001600160a01b031661386f84610c98565b6001600160a01b0316145b8061133557506001600160a01b0380821660009081526005602090815260408083209388168352929052205460ff16611335565b826001600160a01b03166138c182611d31565b6001600160a01b0316146139255760405162461bcd60e51b815260206004820152602560248201527f4552433732313a207472616e736665722066726f6d20696e636f72726563742060448201526437bbb732b960d91b6064820152608401610d0d565b6001600160a01b0382166139875760405162461bcd60e51b8152602060048201526024808201527f4552433732313a207472616e7366657220746f20746865207a65726f206164646044820152637265737360e01b6064820152608401610d0d565b613992838383614207565b61399d6000826133a5565b6001600160a01b03831660009081526003602052604081208054600192906139c6908490615adb565b90915550506001600160a01b03821660009081526003602052604081208054600192906139f4908490615af2565b909155505060008181526002602052604080822080546001600160a01b0319166001600160a01b0386811691821790925591518493918716917fddf252ad1be2c89b69c2b068fc378daa952ba7f163c4a11628f55a4df523b3ef91a4505050565b6000838152600d6020908152604080832085845290915290205480613b6f57613af66001601360009054906101000a90046001600160a01b03166001600160a01b03166318160ddd6040518163ffffffff1660e01b8152600401602060405180830381865afa158015613acc573d6000803e3d6000fd5b505050506040513d601f19601f82011682018060405250810190613af091906156fc565b90613f12565b60135460405163644ee7e760e11b81526001600160a01b038581166004830152602482018790526044820184905292935091169063c89dcfce90606401600060405180830381600087803b158015613b4d57600080fd5b505af1158015613b61573d6000803e3d6000fd5b50505050613b6f8185611a05565b9392505050565b6013546040516331a9108f60e11b8152600481018390526001600160a01b0390911690636352211e90602401602060405180830381865afa158015613bbf573d6000803e3d6000fd5b505050506040513d601f19601f82011682018060405250810190613be39190615a0a565b6001600160a01b0316336001600160a01b031614612a825760405162461bcd60e51b815260206004820152601060248201526f2737ba2634b735a634b9ba27bbb732b960811b6044820152606401610d0d565b613c4033826137bb565b613c8c5760405162461bcd60e51b815260206004820152601b60248201527f4e4654426173653a204e6f744f776e65724f72417070726f76656400000000006044820152606401610d0d565b612a828161424a565b613c9e816131f2565b601354604051631c5b266960e21b815260048101849052336024820152604481018390526001600160a01b039091169063716c99a490606401600060405180830381600087803b158015613cf157600080fd5b505af1158015612593573d6000803e3d6000fd5b6040516331a9108f60e11b8152600481018290526001600160a01b03831690636352211e90602401602060405180830381865afa158015613d4a573d6000803e3d6000fd5b505050506040513d601f19601f82011682018060405250810190613d6e9190615a0a565b6001600160a01b0316336001600160a01b03161461269c5760405162461bcd60e51b815260206004820152600e60248201526d2737ba22a9219b9918a7bbb732b960911b6044820152606401610d0d565b613dcb848484846142f1565b7f414cd0b34676984f09a5f76ce9718d4062e50283abe0e7e274a9a5b4e0c99c308484848442604051613e02959493929190615b0a565b60405180910390a150505050565b816001600160a01b0316836001600160a01b03161415613e725760405162461bcd60e51b815260206004820152601960248201527f4552433732313a20617070726f766520746f2063616c6c6572000000000000006044820152606401610d0d565b6001600160a01b03838116600081815260056020908152604080832094871680845294825291829020805460ff191686151590811790915591519182527f17307eab39ab6107e8899845ad3d59bd9653f200f220920489ca2b5937696c31910160405180910390a3505050565b613eea8484846138ae565b613ef68484848461430a565b61297e5760405162461bcd60e51b8152600401610d0d90615b44565b6000613b6f8284615af2565b6001600160a01b038216613f745760405162461bcd60e51b815260206004820181905260248201527f4552433732313a206d696e7420746f20746865207a65726f20616464726573736044820152606401610d0d565b6000818152600260205260409020546001600160a01b031615613fd95760405162461bcd60e51b815260206004820152601c60248201527f4552433732313a20746f6b656e20616c7265616479206d696e746564000000006044820152606401610d0d565b613fe560008383614207565b6001600160a01b038216600090815260036020526040812080546001929061400e908490615af2565b909155505060008181526002602052604080822080546001600160a01b0319166001600160a01b03861690811790915590518392907fddf252ad1be2c89b69c2b068fc378daa952ba7f163c4a11628f55a4df523b3ef908290a45050565b6060600061407b836002615b96565b614086906002615af2565b6001600160401b0381111561409d5761409d61508d565b6040519080825280601f01601f1916602001820160405280156140c7576020820181803683370190505b509050600360fc1b816000815181106140e2576140e26156e6565b60200101906001600160f81b031916908160001a905350600f60fb1b81600181518110614111576141116156e6565b60200101906001600160f81b031916908160001a9053506000614135846002615b96565b614140906001615af2565b90505b60018111156141b8576f181899199a1a9b1b9c1cb0b131b232b360811b85600f1660108110614174576141746156e6565b1a60f81b82828151811061418a5761418a6156e6565b60200101906001600160f81b031916908160001a90535060049490941c936141b181615bb5565b9050614143565b508315613b6f5760405162461bcd60e51b815260206004820181905260248201527f537472696e67733a20686578206c656e67746820696e73756666696369656e746044820152606401610d0d565b6001600160a01b0383166000908152600c60205260409020541561423f576001600160a01b0383166000908152600c60205260408120555b610e43838383614405565b600061425582611d31565b905061426381600084614207565b61426e6000836133a5565b6001600160a01b0381166000908152600360205260408120805460019290614297908490615adb565b909155505060008281526002602052604080822080546001600160a01b0319169055518391906001600160a01b038416907fddf252ad1be2c89b69c2b068fc378daa952ba7f163c4a11628f55a4df523b3ef908390a45050565b6142fd60008585614695565b506117ae60018383614695565b60006001600160a01b0384163b156143fd57604051630a85bd0160e11b81526001600160a01b0385169063150b7a029061434e903390899088908890600401615bcc565b6020604051808303816000875af1925050508015614389575060408051601f3d908101601f1916820190925261438691810190615bff565b60015b6143e3573d8080156143b7576040519150601f19603f3d011682016040523d82523d6000602084013e6143bc565b606091505b5080516143db5760405162461bcd60e51b8152600401610d0d90615b44565b805181602001fd5b6001600160e01b031916630a85bd0160e11b149050611335565b506001611335565b6001600160a01b0383166144605761445b81600880546000838152600960205260408120829055600182018355919091527ff3f7a9fe364faab93b216da50a3214154f22a0a2b415b23a84c8169e8b636ee30155565b614483565b816001600160a01b0316836001600160a01b0316146144835761448383826144bd565b6001600160a01b03821661449a57610e438161455a565b826001600160a01b0316826001600160a01b031614610e4357610e438282614609565b600060016144ca84611f76565b6144d49190615adb565b600083815260076020526040902054909150808214614527576001600160a01b03841660009081526006602090815260408083208584528252808320548484528184208190558352600790915290208190555b5060009182526007602090815260408084208490556001600160a01b039094168352600681528383209183525290812055565b60085460009061456c90600190615adb565b60008381526009602052604081205460088054939450909284908110614594576145946156e6565b9060005260206000200154905080600883815481106145b5576145b56156e6565b60009182526020808320909101929092558281526009909152604080822084905585825281205560088054806145ed576145ed615c1c565b6001900381819060005260206000200160009055905550505050565b600061461483611f76565b6001600160a01b039093166000908152600660209081526040808320868452825280832085905593825260079052919091209190915550565b6040518060c001604052806000815260200160608152602001606081526020016000815260200160006001600160a01b0316815260200160006001600160a01b031681525090565b8280546146a190615368565b90600052602060002090601f0160209004810192826146c35760008555614709565b82601f106146dc5782800160ff19823516178555614709565b82800160010185558215614709579182015b828111156147095782358255916020019190600101906146ee565b50614715929150614719565b5090565b5b80821115614715576000815560010161471a565b6001600160e01b031981168114612a8257600080fd5b60006020828403121561475657600080fd5b8135613b6f8161472e565b6000806000806080858703121561477757600080fd5b5050823594602084013594506040840135936060013592509050565b6001600160a01b0381168114612a8257600080fd5b60008083601f8401126147ba57600080fd5b5081356001600160401b038111156147d157600080fd5b6020830191508360208285010111156147e957600080fd5b9250929050565b60008060008060006080868803121561480857600080fd5b8535945060208601359350604086013561482181614793565b925060608601356001600160401b0381111561483c57600080fd5b614848888289016147a8565b969995985093965092949392505050565b60005b8381101561487457818101518382015260200161485c565b8381111561297e5750506000910152565b6000815180845261489d816020860160208601614859565b601f01601f19169290920160200192915050565b602081526000613b6f6020830184614885565b6000602082840312156148d657600080fd5b5035919050565b600080604083850312156148f057600080fd5b82356148fb81614793565b946020939093013593505050565b600060c0828403121561491b57600080fd5b50919050565b600080600080600060a0868803121561493957600080fd5b85356001600160401b0381111561494f57600080fd5b61495b88828901614909565b95505060208601359350604086013561497381614793565b94979396509394606081013594506080013592915050565b6000806020838503121561499e57600080fd5b82356001600160401b038111156149b457600080fd5b6149c0858286016147a8565b90969095509350505050565b60208152815160208201526000602083015160c060408401526149f260e0840182614885565b90506040840151601f19848303016060850152614a0f8282614885565b91505060608401516080840152608084015160018060a01b0380821660a08601528060a08701511660c086015250508091505092915050565b600080600060608486031215614a5d57600080fd5b833592506020840135614a6f81614793565b929592945050506040919091013590565b600080600060608486031215614a9557600080fd5b505081359360208301359350604090920135919050565b600060208284031215614abe57600080fd5b8135613b6f81614793565b60008060008060808587031215614adf57600080fd5b84356001600160401b03811115614af557600080fd5b614b0187828801614909565b97602087013597506040870135966060013595509350505050565b600080600060608486031215614b3157600080fd5b8335614b3c81614793565b92506020840135614a6f81614793565b60008060008060808587031215614b6257600080fd5b84356001600160401b03811115614b7857600080fd5b614b8487828801614909565b945050602085013592506040850135614b9c81614793565b9396929550929360600135925050565b60008060008060608587031215614bc257600080fd5b8435935060208501356001600160401b03811115614bdf57600080fd5b614beb878288016147a8565b9598909750949560400135949350505050565b60008060008060608587031215614c1457600080fd5b8435614c1f81614793565b93506020850135614c2f81614793565b925060408501356001600160401b03811115614c4a57600080fd5b614c56878288016147a8565b95989497509550505050565b600080600060408486031215614c7757600080fd5b8335925060208401356001600160401b03811115614c9457600080fd5b614ca0868287016147a8565b9497909650939450505050565b600080600080600060808688031215614cc557600080fd5b85359450602086013593506040860135925060608601356001600160401b0381111561483c57600080fd5b600080600080600060a08688031215614d0857600080fd5b85356001600160401b03811115614d1e57600080fd5b614d2a88828901614909565b9860208801359850604088013597606081013597506080013595509350505050565b60008060408385031215614d5f57600080fd5b50508035926020909101359150565b600080600083850360a0811215614d8457600080fd5b843593506060601f1982011215614d9a57600080fd5b50602084019150608084013590509250925092565b600080600080600060808688031215614dc757600080fd5b853594506020860135614dd981614793565b93506040860135925060608601356001600160401b0381111561483c57600080fd5b6020808252825182820181905260009190848201906040850190845b81811015614e3357835183529284019291840191600101614e17565b50909695505050505050565b60008060008060808587031215614e5557600080fd5b843593506020850135614e6781614793565b93969395505050506040820135916060013590565b600080600080600060808688031215614e9457600080fd5b8535614e9f81614793565b945060208601359350604086013561482181614793565b60008060008060008060808789031215614ecf57600080fd5b86356001600160401b0380821115614ee657600080fd5b614ef28a838b016147a8565b90985096506020890135915080821115614f0b57600080fd5b50614f1889828a016147a8565b9095509350506040870135614f2c81614793565b91506060870135614f3c81614793565b809150509295509295509295565b60008060408385031215614f5d57600080fd5b823591506020830135614f6f81614793565b809150509250929050565b600080600080600060808688031215614f9257600080fd5b85356001600160401b0380821115614fa957600080fd5b614fb589838a01614909565b9650602088013595506040880135915080821115614fd257600080fd5b50614fdf888289016147a8565b96999598509660600135949350505050565b6000806040838503121561500457600080fd5b823561500f81614793565b915060208301358015158114614f6f57600080fd5b60008060008060008060a0878903121561503d57600080fd5b8635955060208701359450604087013593506060870135925060808701356001600160401b0381111561506f57600080fd5b61507b89828a016147a8565b979a9699509497509295939492505050565b634e487b7160e01b600052604160045260246000fd5b604051601f8201601f191681016001600160401b03811182821017156150cb576150cb61508d565b604052919050565b60006001600160401b038211156150ec576150ec61508d565b50601f01601f191660200190565b6000806000806080858703121561511057600080fd5b843561511b81614793565b9350602085013561512b81614793565b92506040850135915060608501356001600160401b0381111561514d57600080fd5b8501601f8101871361515e57600080fd5b803561517161516c826150d3565b6150a3565b81815288602083850101111561518657600080fd5b8160208401602083013760006020838301015280935050505092959194509250565b6000602082840312156151ba57600080fd5b81356001600160401b038111156151d057600080fd5b820160a08185031215613b6f57600080fd5b6000602082840312156151f457600080fd5b81356001600160401b0381111561520a57600080fd5b61133584828501614909565b6020815281516020820152602082015160408201526040820151606082015260006060830151610100806080850152615253610120850183614885565b9150608085015160018060a01b0380821660a08701528060a08801511660c0870152505060c085015161529160e08601826001600160a01b03169052565b5060e0850151801515858301525090949350505050565b600080600080606085870312156152be57600080fd5b843593506020850135614c2f81614793565b600080604083850312156152e357600080fd5b82356152ee81614793565b91506020830135614f6f81614793565b81835281816020850137506000828201602090810191909152601f909101601f19169091010190565b86815285602082015260018060a01b038516604082015260a06060820152600061535560a0830185876152fe565b9050826080830152979650505050505050565b600181811c9082168061537c57607f821691505b6020821081141561491b57634e487b7160e01b600052602260045260246000fd5b634e487b7160e01b600052601160045260246000fd5b60006000198214156153c7576153c761539d565b5060010190565b6000808335601e198436030181126153e557600080fd5b83016020810192503590506001600160401b0381111561540457600080fd5b8036038313156147e957600080fd5b80358252600061542660208301836153ce565b60c0602086015261543b60c0860182846152fe565b915050604083013561544c81614793565b6001600160a01b03818116604087015261546960608601866153ce565b9250868403606088015261547e8484836152fe565b9350506080850135915061549182614793565b1660808501526154a460a08401846153ce565b85830360a08701526123b58382846152fe565b60c0815260006154ca60c0830189615413565b60208301979097525060408101949094526060840192909252608083015260a090910152919050565b8183823760009101908152919050565b60208082526031908201527f4552433732313a207472616e736665722063616c6c6572206973206e6f74206f6040820152701ddb995c881b9bdc88185c1c1c9bdd9959607a1b606082015260800190565b83815260406020820152600061556e6040830184866152fe565b95945050505050565b60608152600061558b6060830186886152fe565b6020830194909452506040015292915050565b6001600160a01b038681168252851660208201526080604082018190526000906155cb90830185876152fe565b90508260608301529695505050505050565b600080835481600182811c9150808316806155f957607f831692505b602080841082141561561957634e487b7160e01b86526022600452602486fd5b81801561562d576001811461563e5761566b565b60ff1986168952848901965061566b565b60008a81526020902060005b868110156156635781548b82015290850190830161564a565b505084890196505b509498975050505050505050565b60006020828403121561568b57600080fd5b81516001600160401b038111156156a157600080fd5b8201601f810184136156b257600080fd5b80516156c061516c826150d3565b8181528560208385010111156156d557600080fd5b61556e826020830160208601614859565b634e487b7160e01b600052603260045260246000fd5b60006020828403121561570e57600080fd5b5051919050565b6000602080838503121561572857600080fd5b82516001600160401b038082111561573f57600080fd5b818501915085601f83011261575357600080fd5b8151818111156157655761576561508d565b8060051b91506157768483016150a3565b818152918301840191848101908884111561579057600080fd5b938501935b838510156157ae57845182529385019390850190615795565b98975050505050505050565b6020815260006113356020830184866152fe565b6001600160a01b038781168252602082018790528516604082015260a06060820181905260009061535590830185876152fe565b888152876020820152600060018060a01b03808916604084015260e0606084015261583160e08401888a6152fe565b951660808301525060a081019290925260c09091015295945050505050565b664c696e6b416e7960c81b81528183600783013760009101600701908152919050565b85815260806020820152600061588d6080830186886152fe565b604083019490945250606001529392505050565b6040815260006158b56040830185876152fe565b9050826020830152949350505050565b60018060a01b03861681528460208201528360408201526080606082015260006158f36080830184866152fe565b979650505050505050565b60a081526000863561590f81614793565b6001600160a01b0381811660a085015261592c60208a018a6153ce565b925060a060c0860152615944610140860184836152fe565b92505061595460408a018a6153ce565b609f19808786030160e088015261596c8583856152fe565b945060608c0135925061597e83614793565b83831661010088015261599460808d018d6153ce565b94509250808786030161012088015250506159b08383836152fe565b93505050506159c3602083018715159052565b8460408301528360608301528260808301529695505050505050565b8581526001600160a01b03851660208201526080604082018190526000906155cb90830185876152fe565b600060208284031215615a1c57600080fd5b8151613b6f81614793565b60a08152600060018060a01b038088511660a0840152602088015160a060c0850152615a57610140850182614885565b90506040890151609f19808684030160e0870152615a758383614885565b92508360608c01511661010087015260808b0151935080868403016101208701525050615aa28183614885565b925050506159c3602083018715159052565b60018060a01b038416815282602082015260606040820152600061556e6060830184614885565b600082821015615aed57615aed61539d565b500390565b60008219821115615b0557615b0561539d565b500190565b606081526000615b1e6060830187896152fe565b8281036020840152615b318186886152fe565b9150508260408301529695505050505050565b60208082526032908201527f4552433732313a207472616e7366657220746f206e6f6e20455243373231526560408201527131b2b4bb32b91034b6b83632b6b2b73a32b960711b606082015260800190565b6000816000190483118215151615615bb057615bb061539d565b500290565b600081615bc457615bc461539d565b506000190190565b6001600160a01b03858116825284166020820152604081018390526080606082018190526000906123b590830184614885565b600060208284031215615c1157600080fd5b8151613b6f8161472e565b634e487b7160e01b600052603160045260246000fdfea2646970667358221220cd95b3478ba913ed1e3bcdfd457f748fb4e912651e4ce8ef555a0b167ce7d35b64736f6c634300080a0033",
    "linkReferences": {
        "contracts/libraries/LinkModuleLogic.sol": {
            "LinkModuleLogic": [
                {
                    "length": 20,
                    "start": 3005
                },
                {
                    "length": 20,
                    "start": 4992
                },
                {
                    "length": 20,
                    "start": 5465
                },
                {
                    "length": 20,
                    "start": 8749
                },
                {
                    "length": 20,
                    "start": 12492
                }
            ]
        },
        "contracts/libraries/PostLogic.sol": {
            "PostLogic": [
                {
                    "length": 20,
                    "start": 3877
                },
                {
                    "length": 20,
                    "start": 4844
                },
                {
                    "length": 20,
                    "start": 9045
                },
                {
                    "length": 20,
                    "start": 11492
                }
            ]
        },
        "contracts/libraries/ProfileLogic.sol": {
            "ProfileLogic": [
                {
                    "length": 20,
                    "start": 9579
                },
                {
                    "length": 20,
                    "start": 9945
                },
                {
                    "length": 20,
                    "start": 10720
                },
                {
                    "length": 20,
                    "start": 11998
                },
                {
                    "length": 20,
                    "start": 13707
                }
            ]
        }
    },
    "deployedLinkReferences": {
        "contracts/libraries/LinkModuleLogic.sol": {
            "LinkModuleLogic": [
                {
                    "length": 20,
                    "start": 2972
                },
                {
                    "length": 20,
                    "start": 4959
                },
                {
                    "length": 20,
                    "start": 5432
                },
                {
                    "length": 20,
                    "start": 8716
                },
                {
                    "length": 20,
                    "start": 12459
                }
            ]
        },
        "contracts/libraries/PostLogic.sol": {
            "PostLogic": [
                {
                    "length": 20,
                    "start": 3844
                },
                {
                    "length": 20,
                    "start": 4811
                },
                {
                    "length": 20,
                    "start": 9012
                },
                {
                    "length": 20,
                    "start": 11459
                }
            ]
        },
        "contracts/libraries/ProfileLogic.sol": {
            "ProfileLogic": [
                {
                    "length": 20,
                    "start": 9546
                },
                {
                    "length": 20,
                    "start": 9912
                },
                {
                    "length": 20,
                    "start": 10687
                },
                {
                    "length": 20,
                    "start": 11965
                },
                {
                    "length": 20,
                    "start": 13674
                }
            ]
        }
    }
}