{
    "_format": "hh-sol-artifact-1",
    "contractName": "Web3Entry",
    "sourceName": "contracts/Web3Entry.sol",
    "abi": [
        {
            "anonymous": false,
            "inputs": [
                {
                    "indexed": true,
                    "internalType": "address",
                    "name": "owner",
                    "type": "address"
                },
                {
                    "indexed": true,
                    "internalType": "address",
                    "name": "approved",
                    "type": "address"
                },
                {
                    "indexed": true,
                    "internalType": "uint256",
                    "name": "tokenId",
                    "type": "uint256"
                }
            ],
            "name": "Approval",
            "type": "event"
        },
        {
            "anonymous": false,
            "inputs": [
                {
                    "indexed": true,
                    "internalType": "address",
                    "name": "owner",
                    "type": "address"
                },
                {
                    "indexed": true,
                    "internalType": "address",
                    "name": "operator",
                    "type": "address"
                },
                {
                    "indexed": false,
                    "internalType": "bool",
                    "name": "approved",
                    "type": "bool"
                }
            ],
            "name": "ApprovalForAll",
            "type": "event"
        },
        {
            "anonymous": false,
            "inputs": [
                {
                    "indexed": true,
                    "internalType": "address",
                    "name": "from",
                    "type": "address"
                },
                {
                    "indexed": true,
                    "internalType": "address",
                    "name": "to",
                    "type": "address"
                },
                {
                    "indexed": true,
                    "internalType": "uint256",
                    "name": "tokenId",
                    "type": "uint256"
                }
            ],
            "name": "Transfer",
            "type": "event"
        },
        {
            "inputs": [
                {
                    "internalType": "address",
                    "name": "to",
                    "type": "address"
                },
                {
                    "internalType": "uint256",
                    "name": "tokenId",
                    "type": "uint256"
                }
            ],
            "name": "approve",
            "outputs": [],
            "stateMutability": "nonpayable",
            "type": "function"
        },
        {
            "inputs": [
                {
                    "internalType": "uint256",
                    "name": "linklistId",
                    "type": "uint256"
                },
                {
                    "internalType": "uint256",
                    "name": "profileId",
                    "type": "uint256"
                }
            ],
            "name": "attachLinklist",
            "outputs": [],
            "stateMutability": "nonpayable",
            "type": "function"
        },
        {
            "inputs": [
                {
                    "internalType": "address",
                    "name": "owner",
                    "type": "address"
                }
            ],
            "name": "balanceOf",
            "outputs": [
                {
                    "internalType": "uint256",
                    "name": "",
                    "type": "uint256"
                }
            ],
            "stateMutability": "view",
            "type": "function"
        },
        {
            "inputs": [
                {
                    "internalType": "uint256",
                    "name": "tokenId",
                    "type": "uint256"
                }
            ],
            "name": "burn",
            "outputs": [],
            "stateMutability": "nonpayable",
            "type": "function"
        },
        {
            "inputs": [
                {
                    "internalType": "string",
                    "name": "handle",
                    "type": "string"
                },
                {
                    "internalType": "address",
                    "name": "account",
                    "type": "address"
                }
            ],
            "name": "canCreate",
            "outputs": [
                {
                    "internalType": "bool",
                    "name": "",
                    "type": "bool"
                }
            ],
            "stateMutability": "view",
            "type": "function"
        },
        {
            "inputs": [
                {
                    "components": [
                        {
                            "internalType": "address",
                            "name": "to",
                            "type": "address"
                        },
                        {
                            "internalType": "string",
                            "name": "handle",
                            "type": "string"
                        },
                        {
                            "internalType": "string",
                            "name": "uri",
                            "type": "string"
                        },
                        {
                            "internalType": "address",
                            "name": "linkModule",
                            "type": "address"
                        },
                        {
                            "internalType": "bytes",
                            "name": "linkModuleInitData",
                            "type": "bytes"
                        }
                    ],
                    "internalType": "struct DataTypes.CreateProfileData",
                    "name": "vars",
                    "type": "tuple"
                }
            ],
            "name": "createProfile",
            "outputs": [],
            "stateMutability": "nonpayable",
            "type": "function"
        },
        {
            "inputs": [
                {
                    "components": [
                        {
                            "internalType": "uint256",
                            "name": "fromProfileId",
                            "type": "uint256"
                        },
                        {
                            "internalType": "address",
                            "name": "to",
                            "type": "address"
                        },
                        {
                            "internalType": "bytes32",
                            "name": "linkType",
                            "type": "bytes32"
                        }
                    ],
                    "internalType": "struct DataTypes.createThenLinkProfileData",
                    "name": "vars",
                    "type": "tuple"
                }
            ],
            "name": "createThenLinkProfile",
            "outputs": [],
            "stateMutability": "nonpayable",
            "type": "function"
        },
        {
            "inputs": [
                {
                    "internalType": "uint256",
                    "name": "profileId",
                    "type": "uint256"
                },
                {
                    "internalType": "uint256",
                    "name": "noteId",
                    "type": "uint256"
                }
            ],
            "name": "deleteNote",
            "outputs": [],
            "stateMutability": "nonpayable",
            "type": "function"
        },
        {
            "inputs": [
                {
                    "internalType": "uint256",
                    "name": "linklistId",
                    "type": "uint256"
                },
                {
                    "internalType": "uint256",
                    "name": "profileId",
                    "type": "uint256"
                }
            ],
            "name": "detachLinklist",
            "outputs": [],
            "stateMutability": "nonpayable",
            "type": "function"
        },
        {
            "inputs": [
                {
                    "internalType": "uint256",
                    "name": "tokenId",
                    "type": "uint256"
                }
            ],
            "name": "getApproved",
            "outputs": [
                {
                    "internalType": "address",
                    "name": "",
                    "type": "address"
                }
            ],
            "stateMutability": "view",
            "type": "function"
        },
        {
            "inputs": [
                {
                    "internalType": "uint256",
                    "name": "profileId",
                    "type": "uint256"
                }
            ],
            "name": "getHandle",
            "outputs": [
                {
                    "internalType": "string",
                    "name": "",
                    "type": "string"
                }
            ],
            "stateMutability": "view",
            "type": "function"
        },
        {
            "inputs": [
                {
                    "internalType": "address",
                    "name": "account",
                    "type": "address"
                }
            ],
            "name": "getLinkModule4Address",
            "outputs": [
                {
                    "internalType": "address",
                    "name": "",
                    "type": "address"
                }
            ],
            "stateMutability": "view",
            "type": "function"
        },
        {
            "inputs": [
                {
                    "internalType": "address",
                    "name": "tokenAddress",
                    "type": "address"
                },
                {
                    "internalType": "uint256",
                    "name": "tokenId",
                    "type": "uint256"
                }
            ],
            "name": "getLinkModule4ERC721",
            "outputs": [
                {
                    "internalType": "address",
                    "name": "",
                    "type": "address"
                }
            ],
            "stateMutability": "view",
            "type": "function"
        },
        {
            "inputs": [
                {
                    "internalType": "uint256",
                    "name": "tokenId",
                    "type": "uint256"
                }
            ],
            "name": "getLinkModule4Linklist",
            "outputs": [
                {
                    "internalType": "address",
                    "name": "",
                    "type": "address"
                }
            ],
            "stateMutability": "view",
            "type": "function"
        },
        {
            "inputs": [],
            "name": "getLinklistContract",
            "outputs": [
                {
                    "internalType": "address",
                    "name": "",
                    "type": "address"
                }
            ],
            "stateMutability": "view",
            "type": "function"
        },
        {
            "inputs": [
                {
                    "internalType": "uint256",
                    "name": "profileId",
                    "type": "uint256"
                },
                {
                    "internalType": "bytes32",
                    "name": "linkType",
                    "type": "bytes32"
                }
            ],
            "name": "getLinklistId",
            "outputs": [
                {
                    "internalType": "uint256",
                    "name": "",
                    "type": "uint256"
                }
            ],
            "stateMutability": "view",
            "type": "function"
        },
        {
            "inputs": [
                {
                    "internalType": "uint256",
                    "name": "linkListId",
                    "type": "uint256"
                }
            ],
            "name": "getLinklistType",
            "outputs": [
                {
                    "internalType": "bytes32",
                    "name": "",
                    "type": "bytes32"
                }
            ],
            "stateMutability": "view",
            "type": "function"
        },
        {
            "inputs": [
                {
                    "internalType": "uint256",
                    "name": "tokenId",
                    "type": "uint256"
                }
            ],
            "name": "getLinklistUri",
            "outputs": [
                {
                    "internalType": "string",
                    "name": "",
                    "type": "string"
                }
            ],
            "stateMutability": "view",
            "type": "function"
        },
        {
            "inputs": [
                {
                    "internalType": "uint256",
                    "name": "profileId",
                    "type": "uint256"
                },
                {
                    "internalType": "uint256",
                    "name": "noteId",
                    "type": "uint256"
                }
            ],
            "name": "getNote",
            "outputs": [
                {
                    "components": [
                        {
                            "internalType": "bytes32",
                            "name": "linkItemType",
                            "type": "bytes32"
                        },
                        {
                            "internalType": "bytes32",
                            "name": "linkKey",
                            "type": "bytes32"
                        },
                        {
                            "internalType": "string",
                            "name": "contentUri",
                            "type": "string"
                        },
                        {
                            "internalType": "address",
                            "name": "linkModule",
                            "type": "address"
                        },
                        {
                            "internalType": "address",
                            "name": "mintModule",
                            "type": "address"
                        },
                        {
                            "internalType": "address",
                            "name": "mintNFT",
                            "type": "address"
                        },
                        {
                            "internalType": "bool",
                            "name": "deleted",
                            "type": "bool"
                        },
                        {
                            "internalType": "bool",
                            "name": "locked",
                            "type": "bool"
                        }
                    ],
                    "internalType": "struct DataTypes.Note",
                    "name": "",
                    "type": "tuple"
                }
            ],
            "stateMutability": "view",
            "type": "function"
        },
        {
            "inputs": [
                {
                    "internalType": "uint256",
                    "name": "profileId",
                    "type": "uint256"
                }
            ],
            "name": "getOperator",
            "outputs": [
                {
                    "internalType": "address",
                    "name": "",
                    "type": "address"
                }
            ],
            "stateMutability": "view",
            "type": "function"
        },
        {
            "inputs": [
                {
                    "internalType": "address",
                    "name": "account",
                    "type": "address"
                }
            ],
            "name": "getPrimaryProfileId",
            "outputs": [
                {
                    "internalType": "uint256",
                    "name": "",
                    "type": "uint256"
                }
            ],
            "stateMutability": "view",
            "type": "function"
        },
        {
            "inputs": [
                {
                    "internalType": "uint256",
                    "name": "profileId",
                    "type": "uint256"
                }
            ],
            "name": "getProfile",
            "outputs": [
                {
                    "components": [
                        {
                            "internalType": "uint256",
                            "name": "profileId",
                            "type": "uint256"
                        },
                        {
                            "internalType": "string",
                            "name": "handle",
                            "type": "string"
                        },
                        {
                            "internalType": "string",
                            "name": "uri",
                            "type": "string"
                        },
                        {
                            "internalType": "uint256",
                            "name": "noteCount",
                            "type": "uint256"
                        },
                        {
                            "internalType": "address",
                            "name": "socialToken",
                            "type": "address"
                        },
                        {
                            "internalType": "address",
                            "name": "linkModule",
                            "type": "address"
                        }
                    ],
                    "internalType": "struct DataTypes.Profile",
                    "name": "",
                    "type": "tuple"
                }
            ],
            "stateMutability": "view",
            "type": "function"
        },
        {
            "inputs": [
                {
                    "internalType": "string",
                    "name": "handle",
                    "type": "string"
                }
            ],
            "name": "getProfileByHandle",
            "outputs": [
                {
                    "components": [
                        {
                            "internalType": "uint256",
                            "name": "profileId",
                            "type": "uint256"
                        },
                        {
                            "internalType": "string",
                            "name": "handle",
                            "type": "string"
                        },
                        {
                            "internalType": "string",
                            "name": "uri",
                            "type": "string"
                        },
                        {
                            "internalType": "uint256",
                            "name": "noteCount",
                            "type": "uint256"
                        },
                        {
                            "internalType": "address",
                            "name": "socialToken",
                            "type": "address"
                        },
                        {
                            "internalType": "address",
                            "name": "linkModule",
                            "type": "address"
                        }
                    ],
                    "internalType": "struct DataTypes.Profile",
                    "name": "",
                    "type": "tuple"
                }
            ],
            "stateMutability": "view",
            "type": "function"
        },
        {
            "inputs": [
                {
                    "internalType": "uint256",
                    "name": "profileId",
                    "type": "uint256"
                }
            ],
            "name": "getProfileUri",
            "outputs": [
                {
                    "internalType": "string",
                    "name": "",
                    "type": "string"
                }
            ],
            "stateMutability": "view",
            "type": "function"
        },
        {
            "inputs": [],
            "name": "getRevision",
            "outputs": [
                {
                    "internalType": "uint256",
                    "name": "",
                    "type": "uint256"
                }
            ],
            "stateMutability": "pure",
            "type": "function"
        },
        {
            "inputs": [
                {
                    "internalType": "string",
                    "name": "_name",
                    "type": "string"
                },
                {
                    "internalType": "string",
                    "name": "_symbol",
                    "type": "string"
                },
                {
                    "internalType": "address",
                    "name": "_linklistContract",
                    "type": "address"
                },
                {
                    "internalType": "address",
                    "name": "_mintNFTImpl",
                    "type": "address"
                },
                {
                    "internalType": "address",
                    "name": "_periphery",
                    "type": "address"
                },
                {
                    "internalType": "address",
                    "name": "_resolver",
                    "type": "address"
                }
            ],
            "name": "initialize",
            "outputs": [],
            "stateMutability": "nonpayable",
            "type": "function"
        },
        {
            "inputs": [
                {
                    "internalType": "address",
                    "name": "owner",
                    "type": "address"
                },
                {
                    "internalType": "address",
                    "name": "operator",
                    "type": "address"
                }
            ],
            "name": "isApprovedForAll",
            "outputs": [
                {
                    "internalType": "bool",
                    "name": "",
                    "type": "bool"
                }
            ],
            "stateMutability": "view",
            "type": "function"
        },
        {
            "inputs": [
                {
                    "internalType": "uint256",
                    "name": "profileId",
                    "type": "uint256"
                }
            ],
            "name": "isPrimaryProfile",
            "outputs": [
                {
                    "internalType": "bool",
                    "name": "",
                    "type": "bool"
                }
            ],
            "stateMutability": "view",
            "type": "function"
        },
        {
            "inputs": [
                {
                    "components": [
                        {
                            "internalType": "uint256",
                            "name": "fromProfileId",
                            "type": "uint256"
                        },
                        {
                            "internalType": "address",
                            "name": "ethAddress",
                            "type": "address"
                        },
                        {
                            "internalType": "bytes32",
                            "name": "linkType",
                            "type": "bytes32"
                        },
                        {
                            "internalType": "bytes",
                            "name": "data",
                            "type": "bytes"
                        }
                    ],
                    "internalType": "struct DataTypes.linkAddressData",
                    "name": "vars",
                    "type": "tuple"
                }
            ],
            "name": "linkAddress",
            "outputs": [],
            "stateMutability": "nonpayable",
            "type": "function"
        },
        {
            "inputs": [
                {
                    "components": [
                        {
                            "internalType": "uint256",
                            "name": "fromProfileId",
                            "type": "uint256"
                        },
                        {
                            "internalType": "string",
                            "name": "toUri",
                            "type": "string"
                        },
                        {
                            "internalType": "bytes32",
                            "name": "linkType",
                            "type": "bytes32"
                        },
                        {
                            "internalType": "bytes",
                            "name": "data",
                            "type": "bytes"
                        }
                    ],
                    "internalType": "struct DataTypes.linkAnyUriData",
                    "name": "vars",
                    "type": "tuple"
                }
            ],
            "name": "linkAnyUri",
            "outputs": [],
            "stateMutability": "nonpayable",
            "type": "function"
        },
        {
            "inputs": [
                {
                    "components": [
                        {
                            "internalType": "uint256",
                            "name": "fromProfileId",
                            "type": "uint256"
                        },
                        {
                            "internalType": "address",
                            "name": "tokenAddress",
                            "type": "address"
                        },
                        {
                            "internalType": "uint256",
                            "name": "tokenId",
                            "type": "uint256"
                        },
                        {
                            "internalType": "bytes32",
                            "name": "linkType",
                            "type": "bytes32"
                        },
                        {
                            "internalType": "bytes",
                            "name": "data",
                            "type": "bytes"
                        }
                    ],
                    "internalType": "struct DataTypes.linkERC721Data",
                    "name": "vars",
                    "type": "tuple"
                }
            ],
            "name": "linkERC721",
            "outputs": [],
            "stateMutability": "nonpayable",
            "type": "function"
        },
        {
            "inputs": [
                {
                    "components": [
                        {
                            "internalType": "uint256",
                            "name": "fromProfileId",
                            "type": "uint256"
                        },
                        {
                            "internalType": "uint256",
                            "name": "toLinkListId",
                            "type": "uint256"
                        },
                        {
                            "internalType": "bytes32",
                            "name": "linkType",
                            "type": "bytes32"
                        },
                        {
                            "internalType": "bytes",
                            "name": "data",
                            "type": "bytes"
                        }
                    ],
                    "internalType": "struct DataTypes.linkLinklistData",
                    "name": "vars",
                    "type": "tuple"
                }
            ],
            "name": "linkLinklist",
            "outputs": [],
            "stateMutability": "nonpayable",
            "type": "function"
        },
        {
            "inputs": [
                {
                    "components": [
                        {
                            "internalType": "uint256",
                            "name": "fromProfileId",
                            "type": "uint256"
                        },
                        {
                            "internalType": "uint256",
                            "name": "toProfileId",
                            "type": "uint256"
                        },
                        {
                            "internalType": "uint256",
                            "name": "toNoteId",
                            "type": "uint256"
                        },
                        {
                            "internalType": "bytes32",
                            "name": "linkType",
                            "type": "bytes32"
                        },
                        {
                            "internalType": "bytes",
                            "name": "data",
                            "type": "bytes"
                        }
                    ],
                    "internalType": "struct DataTypes.linkNoteData",
                    "name": "vars",
                    "type": "tuple"
                }
            ],
            "name": "linkNote",
            "outputs": [],
            "stateMutability": "nonpayable",
            "type": "function"
        },
        {
            "inputs": [
                {
                    "components": [
                        {
                            "internalType": "uint256",
                            "name": "fromProfileId",
                            "type": "uint256"
                        },
                        {
                            "internalType": "uint256",
                            "name": "toProfileId",
                            "type": "uint256"
                        },
                        {
                            "internalType": "bytes32",
                            "name": "linkType",
                            "type": "bytes32"
                        },
                        {
                            "internalType": "bytes",
                            "name": "data",
                            "type": "bytes"
                        }
                    ],
                    "internalType": "struct DataTypes.linkProfileData",
                    "name": "vars",
                    "type": "tuple"
                }
            ],
            "name": "linkProfile",
            "outputs": [],
            "stateMutability": "nonpayable",
            "type": "function"
        },
        {
            "inputs": [
                {
                    "internalType": "uint256",
                    "name": "fromProfileId",
                    "type": "uint256"
                },
                {
                    "components": [
                        {
                            "internalType": "uint256",
                            "name": "fromProfileId",
                            "type": "uint256"
                        },
                        {
                            "internalType": "uint256",
                            "name": "toProfileId",
                            "type": "uint256"
                        },
                        {
                            "internalType": "bytes32",
                            "name": "linkType",
                            "type": "bytes32"
                        }
                    ],
                    "internalType": "struct DataTypes.ProfileLinkStruct",
                    "name": "linkData",
                    "type": "tuple"
                },
                {
                    "internalType": "bytes32",
                    "name": "linkType",
                    "type": "bytes32"
                }
            ],
            "name": "linkProfileLink",
            "outputs": [],
            "stateMutability": "nonpayable",
            "type": "function"
        },
        {
            "inputs": [
                {
                    "internalType": "uint256",
                    "name": "profileId",
                    "type": "uint256"
                },
                {
                    "internalType": "uint256",
                    "name": "noteId",
                    "type": "uint256"
                }
            ],
            "name": "lockNote",
            "outputs": [],
            "stateMutability": "nonpayable",
            "type": "function"
        },
        {
            "inputs": [
                {
                    "components": [
                        {
                            "internalType": "uint256",
                            "name": "profileId",
                            "type": "uint256"
                        },
                        {
                            "internalType": "uint256",
                            "name": "noteId",
                            "type": "uint256"
                        },
                        {
                            "internalType": "address",
                            "name": "to",
                            "type": "address"
                        },
                        {
                            "internalType": "bytes",
                            "name": "mintModuleData",
                            "type": "bytes"
                        }
                    ],
                    "internalType": "struct DataTypes.MintNoteData",
                    "name": "vars",
                    "type": "tuple"
                }
            ],
            "name": "mintNote",
            "outputs": [
                {
                    "internalType": "uint256",
                    "name": "",
                    "type": "uint256"
                }
            ],
            "stateMutability": "nonpayable",
            "type": "function"
        },
        {
            "inputs": [],
            "name": "name",
            "outputs": [
                {
                    "internalType": "string",
                    "name": "",
                    "type": "string"
                }
            ],
            "stateMutability": "view",
            "type": "function"
        },
        {
            "inputs": [
                {
                    "internalType": "uint256",
                    "name": "tokenId",
                    "type": "uint256"
                }
            ],
            "name": "ownerOf",
            "outputs": [
                {
                    "internalType": "address",
                    "name": "",
                    "type": "address"
                }
            ],
            "stateMutability": "view",
            "type": "function"
        },
        {
            "inputs": [
                {
                    "components": [
                        {
                            "internalType": "uint256",
                            "name": "profileId",
                            "type": "uint256"
                        },
                        {
                            "internalType": "string",
                            "name": "contentUri",
                            "type": "string"
                        },
                        {
                            "internalType": "address",
                            "name": "linkModule",
                            "type": "address"
                        },
                        {
                            "internalType": "bytes",
                            "name": "linkModuleInitData",
                            "type": "bytes"
                        },
                        {
                            "internalType": "address",
                            "name": "mintModule",
                            "type": "address"
                        },
                        {
                            "internalType": "bytes",
                            "name": "mintModuleInitData",
                            "type": "bytes"
                        },
                        {
                            "internalType": "bool",
                            "name": "locked",
                            "type": "bool"
                        }
                    ],
                    "internalType": "struct DataTypes.PostNoteData",
                    "name": "vars",
                    "type": "tuple"
                }
            ],
            "name": "postNote",
            "outputs": [
                {
                    "internalType": "uint256",
                    "name": "",
                    "type": "uint256"
                }
            ],
            "stateMutability": "nonpayable",
            "type": "function"
        },
        {
            "inputs": [
                {
                    "components": [
                        {
                            "internalType": "uint256",
                            "name": "profileId",
                            "type": "uint256"
                        },
                        {
                            "internalType": "string",
                            "name": "contentUri",
                            "type": "string"
                        },
                        {
                            "internalType": "address",
                            "name": "linkModule",
                            "type": "address"
                        },
                        {
                            "internalType": "bytes",
                            "name": "linkModuleInitData",
                            "type": "bytes"
                        },
                        {
                            "internalType": "address",
                            "name": "mintModule",
                            "type": "address"
                        },
                        {
                            "internalType": "bytes",
                            "name": "mintModuleInitData",
                            "type": "bytes"
                        },
                        {
                            "internalType": "bool",
                            "name": "locked",
                            "type": "bool"
                        }
                    ],
                    "internalType": "struct DataTypes.PostNoteData",
                    "name": "noteData",
                    "type": "tuple"
                },
                {
                    "internalType": "address",
                    "name": "ethAddress",
                    "type": "address"
                }
            ],
            "name": "postNote4Address",
            "outputs": [
                {
                    "internalType": "uint256",
                    "name": "",
                    "type": "uint256"
                }
            ],
            "stateMutability": "nonpayable",
            "type": "function"
        },
        {
            "inputs": [
                {
                    "components": [
                        {
                            "internalType": "uint256",
                            "name": "profileId",
                            "type": "uint256"
                        },
                        {
                            "internalType": "string",
                            "name": "contentUri",
                            "type": "string"
                        },
                        {
                            "internalType": "address",
                            "name": "linkModule",
                            "type": "address"
                        },
                        {
                            "internalType": "bytes",
                            "name": "linkModuleInitData",
                            "type": "bytes"
                        },
                        {
                            "internalType": "address",
                            "name": "mintModule",
                            "type": "address"
                        },
                        {
                            "internalType": "bytes",
                            "name": "mintModuleInitData",
                            "type": "bytes"
                        },
                        {
                            "internalType": "bool",
                            "name": "locked",
                            "type": "bool"
                        }
                    ],
                    "internalType": "struct DataTypes.PostNoteData",
                    "name": "postNoteData",
                    "type": "tuple"
                },
                {
                    "internalType": "string",
                    "name": "uri",
                    "type": "string"
                }
            ],
            "name": "postNote4AnyUri",
            "outputs": [
                {
                    "internalType": "uint256",
                    "name": "",
                    "type": "uint256"
                }
            ],
            "stateMutability": "nonpayable",
            "type": "function"
        },
        {
            "inputs": [
                {
                    "components": [
                        {
                            "internalType": "uint256",
                            "name": "profileId",
                            "type": "uint256"
                        },
                        {
                            "internalType": "string",
                            "name": "contentUri",
                            "type": "string"
                        },
                        {
                            "internalType": "address",
                            "name": "linkModule",
                            "type": "address"
                        },
                        {
                            "internalType": "bytes",
                            "name": "linkModuleInitData",
                            "type": "bytes"
                        },
                        {
                            "internalType": "address",
                            "name": "mintModule",
                            "type": "address"
                        },
                        {
                            "internalType": "bytes",
                            "name": "mintModuleInitData",
                            "type": "bytes"
                        },
                        {
                            "internalType": "bool",
                            "name": "locked",
                            "type": "bool"
                        }
                    ],
                    "internalType": "struct DataTypes.PostNoteData",
                    "name": "postNoteData",
                    "type": "tuple"
                },
                {
                    "components": [
                        {
                            "internalType": "address",
                            "name": "tokenAddress",
                            "type": "address"
                        },
                        {
                            "internalType": "uint256",
                            "name": "erc721TokenId",
                            "type": "uint256"
                        }
                    ],
                    "internalType": "struct DataTypes.ERC721Struct",
                    "name": "erc721",
                    "type": "tuple"
                }
            ],
            "name": "postNote4ERC721",
            "outputs": [
                {
                    "internalType": "uint256",
                    "name": "",
                    "type": "uint256"
                }
            ],
            "stateMutability": "nonpayable",
            "type": "function"
        },
        {
            "inputs": [
                {
                    "components": [
                        {
                            "internalType": "uint256",
                            "name": "profileId",
                            "type": "uint256"
                        },
                        {
                            "internalType": "string",
                            "name": "contentUri",
                            "type": "string"
                        },
                        {
                            "internalType": "address",
                            "name": "linkModule",
                            "type": "address"
                        },
                        {
                            "internalType": "bytes",
                            "name": "linkModuleInitData",
                            "type": "bytes"
                        },
                        {
                            "internalType": "address",
                            "name": "mintModule",
                            "type": "address"
                        },
                        {
                            "internalType": "bytes",
                            "name": "mintModuleInitData",
                            "type": "bytes"
                        },
                        {
                            "internalType": "bool",
                            "name": "locked",
                            "type": "bool"
                        }
                    ],
                    "internalType": "struct DataTypes.PostNoteData",
                    "name": "noteData",
                    "type": "tuple"
                },
                {
                    "internalType": "uint256",
                    "name": "toLinklistId",
                    "type": "uint256"
                }
            ],
            "name": "postNote4Linklist",
            "outputs": [
                {
                    "internalType": "uint256",
                    "name": "",
                    "type": "uint256"
                }
            ],
            "stateMutability": "nonpayable",
            "type": "function"
        },
        {
            "inputs": [
                {
                    "components": [
                        {
                            "internalType": "uint256",
                            "name": "profileId",
                            "type": "uint256"
                        },
                        {
                            "internalType": "string",
                            "name": "contentUri",
                            "type": "string"
                        },
                        {
                            "internalType": "address",
                            "name": "linkModule",
                            "type": "address"
                        },
                        {
                            "internalType": "bytes",
                            "name": "linkModuleInitData",
                            "type": "bytes"
                        },
                        {
                            "internalType": "address",
                            "name": "mintModule",
                            "type": "address"
                        },
                        {
                            "internalType": "bytes",
                            "name": "mintModuleInitData",
                            "type": "bytes"
                        },
                        {
                            "internalType": "bool",
                            "name": "locked",
                            "type": "bool"
                        }
                    ],
                    "internalType": "struct DataTypes.PostNoteData",
                    "name": "postNoteData",
                    "type": "tuple"
                },
                {
                    "components": [
                        {
                            "internalType": "uint256",
                            "name": "profileId",
                            "type": "uint256"
                        },
                        {
                            "internalType": "uint256",
                            "name": "noteId",
                            "type": "uint256"
                        }
                    ],
                    "internalType": "struct DataTypes.NoteStruct",
                    "name": "note",
                    "type": "tuple"
                }
            ],
            "name": "postNote4Note",
            "outputs": [
                {
                    "internalType": "uint256",
                    "name": "",
                    "type": "uint256"
                }
            ],
            "stateMutability": "nonpayable",
            "type": "function"
        },
        {
            "inputs": [
                {
                    "components": [
                        {
                            "internalType": "uint256",
                            "name": "profileId",
                            "type": "uint256"
                        },
                        {
                            "internalType": "string",
                            "name": "contentUri",
                            "type": "string"
                        },
                        {
                            "internalType": "address",
                            "name": "linkModule",
                            "type": "address"
                        },
                        {
                            "internalType": "bytes",
                            "name": "linkModuleInitData",
                            "type": "bytes"
                        },
                        {
                            "internalType": "address",
                            "name": "mintModule",
                            "type": "address"
                        },
                        {
                            "internalType": "bytes",
                            "name": "mintModuleInitData",
                            "type": "bytes"
                        },
                        {
                            "internalType": "bool",
                            "name": "locked",
                            "type": "bool"
                        }
                    ],
                    "internalType": "struct DataTypes.PostNoteData",
                    "name": "postNoteData",
                    "type": "tuple"
                },
                {
                    "internalType": "uint256",
                    "name": "toProfileId",
                    "type": "uint256"
                }
            ],
            "name": "postNote4Profile",
            "outputs": [
                {
                    "internalType": "uint256",
                    "name": "",
                    "type": "uint256"
                }
            ],
            "stateMutability": "nonpayable",
            "type": "function"
        },
        {
            "inputs": [],
            "name": "resolver",
            "outputs": [
                {
                    "internalType": "address",
                    "name": "",
                    "type": "address"
                }
            ],
            "stateMutability": "view",
            "type": "function"
        },
        {
            "inputs": [
                {
                    "internalType": "address",
                    "name": "from",
                    "type": "address"
                },
                {
                    "internalType": "address",
                    "name": "to",
                    "type": "address"
                },
                {
                    "internalType": "uint256",
                    "name": "tokenId",
                    "type": "uint256"
                }
            ],
            "name": "safeTransferFrom",
            "outputs": [],
            "stateMutability": "nonpayable",
            "type": "function"
        },
        {
            "inputs": [
                {
                    "internalType": "address",
                    "name": "from",
                    "type": "address"
                },
                {
                    "internalType": "address",
                    "name": "to",
                    "type": "address"
                },
                {
                    "internalType": "uint256",
                    "name": "tokenId",
                    "type": "uint256"
                },
                {
                    "internalType": "bytes",
                    "name": "_data",
                    "type": "bytes"
                }
            ],
            "name": "safeTransferFrom",
            "outputs": [],
            "stateMutability": "nonpayable",
            "type": "function"
        },
        {
            "inputs": [
                {
                    "internalType": "address",
                    "name": "operator",
                    "type": "address"
                },
                {
                    "internalType": "bool",
                    "name": "approved",
                    "type": "bool"
                }
            ],
            "name": "setApprovalForAll",
            "outputs": [],
            "stateMutability": "nonpayable",
            "type": "function"
        },
        {
            "inputs": [
                {
                    "internalType": "uint256",
                    "name": "profileId",
                    "type": "uint256"
                },
                {
                    "internalType": "string",
                    "name": "newHandle",
                    "type": "string"
                }
            ],
            "name": "setHandle",
            "outputs": [],
            "stateMutability": "nonpayable",
            "type": "function"
        },
        {
            "inputs": [
                {
                    "components": [
                        {
                            "internalType": "address",
                            "name": "account",
                            "type": "address"
                        },
                        {
                            "internalType": "address",
                            "name": "linkModule",
                            "type": "address"
                        },
                        {
                            "internalType": "bytes",
                            "name": "linkModuleInitData",
                            "type": "bytes"
                        }
                    ],
                    "internalType": "struct DataTypes.setLinkModule4AddressData",
                    "name": "vars",
                    "type": "tuple"
                }
            ],
            "name": "setLinkModule4Address",
            "outputs": [],
            "stateMutability": "nonpayable",
            "type": "function"
        },
        {
            "inputs": [
                {
                    "components": [
                        {
                            "internalType": "address",
                            "name": "tokenAddress",
                            "type": "address"
                        },
                        {
                            "internalType": "uint256",
                            "name": "tokenId",
                            "type": "uint256"
                        },
                        {
                            "internalType": "address",
                            "name": "linkModule",
                            "type": "address"
                        },
                        {
                            "internalType": "bytes",
                            "name": "linkModuleInitData",
                            "type": "bytes"
                        }
                    ],
                    "internalType": "struct DataTypes.setLinkModule4ERC721Data",
                    "name": "vars",
                    "type": "tuple"
                }
            ],
            "name": "setLinkModule4ERC721",
            "outputs": [],
            "stateMutability": "nonpayable",
            "type": "function"
        },
        {
            "inputs": [
                {
                    "components": [
                        {
                            "internalType": "uint256",
                            "name": "linklistId",
                            "type": "uint256"
                        },
                        {
                            "internalType": "address",
                            "name": "linkModule",
                            "type": "address"
                        },
                        {
                            "internalType": "bytes",
                            "name": "linkModuleInitData",
                            "type": "bytes"
                        }
                    ],
                    "internalType": "struct DataTypes.setLinkModule4LinklistData",
                    "name": "vars",
                    "type": "tuple"
                }
            ],
            "name": "setLinkModule4Linklist",
            "outputs": [],
            "stateMutability": "nonpayable",
            "type": "function"
        },
        {
            "inputs": [
                {
                    "components": [
                        {
                            "internalType": "uint256",
                            "name": "profileId",
                            "type": "uint256"
                        },
                        {
                            "internalType": "uint256",
                            "name": "noteId",
                            "type": "uint256"
                        },
                        {
                            "internalType": "address",
                            "name": "linkModule",
                            "type": "address"
                        },
                        {
                            "internalType": "bytes",
                            "name": "linkModuleInitData",
                            "type": "bytes"
                        }
                    ],
                    "internalType": "struct DataTypes.setLinkModule4NoteData",
                    "name": "vars",
                    "type": "tuple"
                }
            ],
            "name": "setLinkModule4Note",
            "outputs": [],
            "stateMutability": "nonpayable",
            "type": "function"
        },
        {
            "inputs": [
                {
                    "components": [
                        {
                            "internalType": "uint256",
                            "name": "profileId",
                            "type": "uint256"
                        },
                        {
                            "internalType": "address",
                            "name": "linkModule",
                            "type": "address"
                        },
                        {
                            "internalType": "bytes",
                            "name": "linkModuleInitData",
                            "type": "bytes"
                        }
                    ],
                    "internalType": "struct DataTypes.setLinkModule4ProfileData",
                    "name": "vars",
                    "type": "tuple"
                }
            ],
            "name": "setLinkModule4Profile",
            "outputs": [],
            "stateMutability": "nonpayable",
            "type": "function"
        },
        {
            "inputs": [
                {
                    "internalType": "uint256",
                    "name": "linklistId",
                    "type": "uint256"
                },
                {
                    "internalType": "string",
                    "name": "uri",
                    "type": "string"
                }
            ],
            "name": "setLinklistUri",
            "outputs": [],
            "stateMutability": "nonpayable",
            "type": "function"
        },
        {
            "inputs": [
                {
                    "components": [
                        {
                            "internalType": "uint256",
                            "name": "profileId",
                            "type": "uint256"
                        },
                        {
                            "internalType": "uint256",
                            "name": "noteId",
                            "type": "uint256"
                        },
                        {
                            "internalType": "address",
                            "name": "mintModule",
                            "type": "address"
                        },
                        {
                            "internalType": "bytes",
                            "name": "mintModuleInitData",
                            "type": "bytes"
                        }
                    ],
                    "internalType": "struct DataTypes.setMintModule4NoteData",
                    "name": "vars",
                    "type": "tuple"
                }
            ],
            "name": "setMintModule4Note",
            "outputs": [],
            "stateMutability": "nonpayable",
            "type": "function"
        },
        {
            "inputs": [
                {
                    "internalType": "uint256",
                    "name": "profileId",
                    "type": "uint256"
                },
                {
                    "internalType": "uint256",
                    "name": "noteId",
                    "type": "uint256"
                },
                {
                    "internalType": "string",
                    "name": "newUri",
                    "type": "string"
                }
            ],
            "name": "setNoteUri",
            "outputs": [],
            "stateMutability": "nonpayable",
            "type": "function"
        },
        {
            "inputs": [
                {
                    "internalType": "uint256",
                    "name": "profileId",
                    "type": "uint256"
                },
                {
                    "internalType": "address",
                    "name": "operator",
                    "type": "address"
                }
            ],
            "name": "setOperator",
            "outputs": [],
            "stateMutability": "nonpayable",
            "type": "function"
        },
        {
            "inputs": [
                {
                    "internalType": "uint256",
                    "name": "profileId",
                    "type": "uint256"
                }
            ],
            "name": "setPrimaryProfileId",
            "outputs": [],
            "stateMutability": "nonpayable",
            "type": "function"
        },
        {
            "inputs": [
                {
                    "internalType": "uint256",
                    "name": "profileId",
                    "type": "uint256"
                },
                {
                    "internalType": "string",
                    "name": "newUri",
                    "type": "string"
                }
            ],
            "name": "setProfileUri",
            "outputs": [],
            "stateMutability": "nonpayable",
            "type": "function"
        },
        {
            "inputs": [
                {
                    "internalType": "uint256",
                    "name": "profileId",
                    "type": "uint256"
                },
                {
                    "internalType": "address",
                    "name": "tokenAddress",
                    "type": "address"
                }
            ],
            "name": "setSocialToken",
            "outputs": [],
            "stateMutability": "nonpayable",
            "type": "function"
        },
        {
            "inputs": [
                {
                    "internalType": "bytes4",
                    "name": "interfaceId",
                    "type": "bytes4"
                }
            ],
            "name": "supportsInterface",
            "outputs": [
                {
                    "internalType": "bool",
                    "name": "",
                    "type": "bool"
                }
            ],
            "stateMutability": "view",
            "type": "function"
        },
        {
            "inputs": [],
            "name": "symbol",
            "outputs": [
                {
                    "internalType": "string",
                    "name": "",
                    "type": "string"
                }
            ],
            "stateMutability": "view",
            "type": "function"
        },
        {
            "inputs": [
                {
                    "internalType": "uint256",
                    "name": "index",
                    "type": "uint256"
                }
            ],
            "name": "tokenByIndex",
            "outputs": [
                {
                    "internalType": "uint256",
                    "name": "",
                    "type": "uint256"
                }
            ],
            "stateMutability": "view",
            "type": "function"
        },
        {
            "inputs": [
                {
                    "internalType": "address",
                    "name": "owner",
                    "type": "address"
                },
                {
                    "internalType": "uint256",
                    "name": "index",
                    "type": "uint256"
                }
            ],
            "name": "tokenOfOwnerByIndex",
            "outputs": [
                {
                    "internalType": "uint256",
                    "name": "",
                    "type": "uint256"
                }
            ],
            "stateMutability": "view",
            "type": "function"
        },
        {
            "inputs": [
                {
                    "internalType": "uint256",
                    "name": "profileId",
                    "type": "uint256"
                }
            ],
            "name": "tokenURI",
            "outputs": [
                {
                    "internalType": "string",
                    "name": "",
                    "type": "string"
                }
            ],
            "stateMutability": "view",
            "type": "function"
        },
        {
            "inputs": [],
            "name": "totalSupply",
            "outputs": [
                {
                    "internalType": "uint256",
                    "name": "",
                    "type": "uint256"
                }
            ],
            "stateMutability": "view",
            "type": "function"
        },
        {
            "inputs": [
                {
                    "internalType": "address",
                    "name": "from",
                    "type": "address"
                },
                {
                    "internalType": "address",
                    "name": "to",
                    "type": "address"
                },
                {
                    "internalType": "uint256",
                    "name": "tokenId",
                    "type": "uint256"
                }
            ],
            "name": "transferFrom",
            "outputs": [],
            "stateMutability": "nonpayable",
            "type": "function"
        },
        {
            "inputs": [
                {
                    "components": [
                        {
                            "internalType": "uint256",
                            "name": "fromProfileId",
                            "type": "uint256"
                        },
                        {
                            "internalType": "address",
                            "name": "ethAddress",
                            "type": "address"
                        },
                        {
                            "internalType": "bytes32",
                            "name": "linkType",
                            "type": "bytes32"
                        }
                    ],
                    "internalType": "struct DataTypes.unlinkAddressData",
                    "name": "vars",
                    "type": "tuple"
                }
            ],
            "name": "unlinkAddress",
            "outputs": [],
            "stateMutability": "nonpayable",
            "type": "function"
        },
        {
            "inputs": [
                {
                    "components": [
                        {
                            "internalType": "uint256",
                            "name": "fromProfileId",
                            "type": "uint256"
                        },
                        {
                            "internalType": "string",
                            "name": "toUri",
                            "type": "string"
                        },
                        {
                            "internalType": "bytes32",
                            "name": "linkType",
                            "type": "bytes32"
                        }
                    ],
                    "internalType": "struct DataTypes.unlinkAnyUriData",
                    "name": "vars",
                    "type": "tuple"
                }
            ],
            "name": "unlinkAnyUri",
            "outputs": [],
            "stateMutability": "nonpayable",
            "type": "function"
        },
        {
            "inputs": [
                {
                    "components": [
                        {
                            "internalType": "uint256",
                            "name": "fromProfileId",
                            "type": "uint256"
                        },
                        {
                            "internalType": "address",
                            "name": "tokenAddress",
                            "type": "address"
                        },
                        {
                            "internalType": "uint256",
                            "name": "tokenId",
                            "type": "uint256"
                        },
                        {
                            "internalType": "bytes32",
                            "name": "linkType",
                            "type": "bytes32"
                        }
                    ],
                    "internalType": "struct DataTypes.unlinkERC721Data",
                    "name": "vars",
                    "type": "tuple"
                }
            ],
            "name": "unlinkERC721",
            "outputs": [],
            "stateMutability": "nonpayable",
            "type": "function"
        },
        {
            "inputs": [
                {
                    "components": [
                        {
                            "internalType": "uint256",
                            "name": "fromProfileId",
                            "type": "uint256"
                        },
                        {
                            "internalType": "uint256",
                            "name": "toLinkListId",
                            "type": "uint256"
                        },
                        {
                            "internalType": "bytes32",
                            "name": "linkType",
                            "type": "bytes32"
                        }
                    ],
                    "internalType": "struct DataTypes.unlinkLinklistData",
                    "name": "vars",
                    "type": "tuple"
                }
            ],
            "name": "unlinkLinklist",
            "outputs": [],
            "stateMutability": "nonpayable",
            "type": "function"
        },
        {
            "inputs": [
                {
                    "components": [
                        {
                            "internalType": "uint256",
                            "name": "fromProfileId",
                            "type": "uint256"
                        },
                        {
                            "internalType": "uint256",
                            "name": "toProfileId",
                            "type": "uint256"
                        },
                        {
                            "internalType": "uint256",
                            "name": "toNoteId",
                            "type": "uint256"
                        },
                        {
                            "internalType": "bytes32",
                            "name": "linkType",
                            "type": "bytes32"
                        }
                    ],
                    "internalType": "struct DataTypes.unlinkNoteData",
                    "name": "vars",
                    "type": "tuple"
                }
            ],
            "name": "unlinkNote",
            "outputs": [],
            "stateMutability": "nonpayable",
            "type": "function"
        },
        {
            "inputs": [
                {
                    "components": [
                        {
                            "internalType": "uint256",
                            "name": "fromProfileId",
                            "type": "uint256"
                        },
                        {
                            "internalType": "uint256",
                            "name": "toProfileId",
                            "type": "uint256"
                        },
                        {
                            "internalType": "bytes32",
                            "name": "linkType",
                            "type": "bytes32"
                        }
                    ],
                    "internalType": "struct DataTypes.unlinkProfileData",
                    "name": "vars",
                    "type": "tuple"
                }
            ],
            "name": "unlinkProfile",
            "outputs": [],
            "stateMutability": "nonpayable",
            "type": "function"
        },
        {
            "inputs": [
                {
                    "internalType": "uint256",
                    "name": "fromProfileId",
                    "type": "uint256"
                },
                {
                    "components": [
                        {
                            "internalType": "uint256",
                            "name": "fromProfileId",
                            "type": "uint256"
                        },
                        {
                            "internalType": "uint256",
                            "name": "toProfileId",
                            "type": "uint256"
                        },
                        {
                            "internalType": "bytes32",
                            "name": "linkType",
                            "type": "bytes32"
                        }
                    ],
                    "internalType": "struct DataTypes.ProfileLinkStruct",
                    "name": "linkData",
                    "type": "tuple"
                },
                {
                    "internalType": "bytes32",
                    "name": "linkType",
                    "type": "bytes32"
                }
            ],
            "name": "unlinkProfileLink",
            "outputs": [],
            "stateMutability": "nonpayable",
            "type": "function"
        }
    ],
    "bytecode": "0x608060405234801561001057600080fd5b50615e0c80620000216000396000f3fe608060405234801561001057600080fd5b506004361061045f5760003560e01c806374f345cf1161024c578063c053f6b811610146578063db8c198d116100c3578063ec81d19411610087578063ec81d19414610a96578063ef0828ab14610aa9578063f08f4f6414610abc578063f316bacd14610acf578063fe9299fb14610ae257600080fd5b8063db8c198d14610a0e578063dca2713514610a21578063e56f2fe414610a34578063e7a1c1c014610a47578063e985e9c514610a5a57600080fd5b8063cb8e757e1161010a578063cb8e757e1461098a578063cba4f5cc1461099d578063d23b320b146109b0578063d70e10c6146109c3578063db491e80146109ee57600080fd5b8063c053f6b81461092d578063c2a6fe3b1461093e578063c387c45314610951578063c7009c6b14610964578063c87b56dd1461097757600080fd5b806395d9fa7d116101d4578063a7ccb4bf11610198578063a7ccb4bf146108ce578063a914c76e146108e1578063b88d4fde146108f4578063b9d3284514610907578063bd5f69cb1461091a57600080fd5b806395d9fa7d1461086f5780639864c307146108825780639a4dec1814610895578063a22cb465146108a8578063a6e6178d146108bb57600080fd5b8063867884e61161021b578063867884e61461081b5780638b4ca06a1461082e57806392f7070b1461084157806393f057e51461085457806395d89b411461086757600080fd5b806374f345cf146107cf5780637936da0e146107e25780637c392b51146107f55780637daca6d01461080857600080fd5b80632ff5b07e1161035d5780634f6ccce7116102e55780635fb88183116102a95780635fb8818314610770578063628b644a146107835780636352211e1461079657806369492c97146107a957806370a08231146107bc57600080fd5b80634f6ccce714610711578063515d42d214610724578063570477fb146107375780635a936d101461074a5780635b507cfd1461075d57600080fd5b8063388f50831161032c578063388f5083146106b257806340ad34d8146106c557806342842e0e146106d857806342966c68146106eb57806344b82a24146106fe57600080fd5b80632ff5b07e1461064d57806331b9d08c14610660578063327b2a031461068c57806333f06ee61461069f57600080fd5b80630c4dd5f2116103eb57806323b872dd116103af57806323b872dd146105ee578063251a99cf14610601578063295cb43e1461061457806329c301c2146106275780632f745c591461063a57600080fd5b80630c4dd5f2146105635780631316529d1461057657806318160ddd146105875780631bb4d2311461058f5780632209d145146105b857600080fd5b8063081812fc11610432578063081812fc146104f557806308cb68ff14610508578063095ea7b31461051d5780630ab6beba146105305780630c16de101461054357600080fd5b806301ffc9a71461046457806304f3bcec1461048c57806305f63c8a146104b757806306fdde03146104e0575b600080fd5b610477610472366004614730565b610b0b565b60405190151581526020015b60405180910390f35b60175461049f906001600160a01b031681565b6040516001600160a01b039091168152602001610483565b61049f6104c536600461474d565b6000908152601660205260409020546001600160a01b031690565b6104e8610b36565b60405161048391906147be565b61049f61050336600461474d565b610bc8565b61051b6105163660046147e9565b610c62565b005b61051b61052b366004614832565b610cfb565b61051b61053e36600461485e565b610e11565b6105566105513660046148c2565b610e4e565b6040516104839190614903565b61051b6105713660046147e9565b610ffd565b60045b604051908152602001610483565b600854610579565b61057961059d36600461497f565b6001600160a01b03166000908152600c602052604090205490565b61049f6105c6366004614832565b6001600160a01b03918216600090815260106020908152604080832093835292905220541690565b61051b6105fc36600461499c565b611062565b61051b61060f36600461485e565b611093565b61051b61062236600461474d565b611123565b6105796106353660046149ef565b611172565b610579610648366004614832565b61121e565b61057961065b366004614a23565b6112b4565b61049f61066e36600461497f565b6001600160a01b039081166000908152601160205260409020541690565b61057961069a366004614a79565b611395565b61051b6106ad366004614ac7565b6114ec565b61051b6106c0366004614b24565b611560565b61051b6106d3366004614b58565b6115b6565b61051b6106e636600461499c565b611630565b61051b6106f936600461474d565b61164b565b61057961070c366004614a23565b6116e8565b61057961071f36600461474d565b611725565b61051b610732366004614b74565b6117b8565b61051b610745366004614b96565b611857565b61051b61075836600461485e565b6118f6565b61051b61076b3660046147e9565b611986565b61051b61077e366004614b24565b6119ff565b61051b610791366004614bcc565b611a55565b61049f6107a436600461474d565b611ae1565b61051b6107b7366004614b24565b611b58565b6105796107ca36600461497f565b611bde565b61051b6107dd366004614b74565b611c65565b61051b6107f0366004614b74565b611cdd565b61051b610803366004614ac7565b611d46565b610477610816366004614c1e565b611dab565b61051b610829366004614b58565b611f32565b61057961083c36600461474d565b611fa2565b61057961084f366004614c74565b61200e565b61051b61086236600461485e565b6120a2565b6104e8612111565b61051b61087d366004614cc5565b612120565b61051b610890366004614b24565b612177565b6105796108a3366004614a79565b6121cd565b61051b6108b6366004614cff565b6122d5565b61051b6108c9366004614ac7565b6122e0565b6105796108dc366004614b24565b612378565b61051b6108ef366004614b24565b61241c565b61051b610902366004614d98565b61251c565b61051b610915366004614e58565b612554565b61051b610928366004614e58565b6125bf565b6013546001600160a01b031661049f565b61051b61094c366004614b74565b61271c565b61047761095f36600461474d565b61278c565b61051b610972366004614b96565b6127ba565b6104e861098536600461474d565b612813565b61051b610998366004614e58565b6128b8565b6104e86109ab36600461474d565b61292b565b61051b6109be366004614b24565b612936565b6105796109d1366004614b74565b6000918252600d6020908152604080842092845291905290205490565b610a016109fc366004614b74565b6129b0565b6040516104839190614e8c565b61051b610a1c366004614b24565b612b11565b6104e8610a2f36600461474d565b612b5b565b61051b610a42366004614f22565b612bcd565b61051b610a55366004614cc5565b612d2a565b610477610a68366004614fdc565b6001600160a01b03918216600090815260056020908152604080832093909416825291909152205460ff1690565b6104e8610aa436600461474d565b612d3d565b61051b610ab73660046147e9565b612d5d565b610556610aca36600461474d565b612dcc565b610579610add36600461500a565b612f53565b61049f610af036600461474d565b6000908152600f60205260409020546001600160a01b031690565b60006001600160e01b0319821663780e9d6360e01b1480610b305750610b30826130af565b92915050565b606060008054610b4590615065565b80601f0160208091040260200160405190810160405280929190818152602001828054610b7190615065565b8015610bbe5780601f10610b9357610100808354040283529160200191610bbe565b820191906000526020600020905b815481529060010190602001808311610ba157829003601f168201915b5050505050905090565b6000818152600260205260408120546001600160a01b0316610c465760405162461bcd60e51b815260206004820152602c60248201527f4552433732313a20617070726f76656420717565727920666f72206e6f6e657860448201526b34b9ba32b73a103a37b5b2b760a11b60648201526084015b60405180910390fd5b506000908152600460205260409020546001600160a01b031690565b73__$69db18565ecbefece480e92cc5f8fb1274$__63dfc34f25610c89602084018461497f565b610c99604085016020860161497f565b610ca6604086018661509a565b60116040518663ffffffff1660e01b8152600401610cc8959493929190615109565b60006040518083038186803b158015610ce057600080fd5b505af4158015610cf4573d6000803e3d6000fd5b5050505050565b6000610d0682611ae1565b9050806001600160a01b0316836001600160a01b03161415610d745760405162461bcd60e51b815260206004820152602160248201527f4552433732313a20617070726f76616c20746f2063757272656e74206f776e656044820152603960f91b6064820152608401610c3d565b336001600160a01b0382161480610d905750610d908133610a68565b610e025760405162461bcd60e51b815260206004820152603860248201527f4552433732313a20617070726f76652063616c6c6572206973206e6f74206f7760448201527f6e6572206e6f7220617070726f76656420666f7220616c6c00000000000000006064820152608401610c3d565b610e0c83836130ff565b505050565b610e4b8135610e26604084016020850161497f565b836040013560405180604001604052806002815260200161060f60f31b81525061316d565b50565b610e566145ff565b60008383604051610e68929190615148565b604080519182900382206000818152600b602090815283822054808352600a82529184902060c0860190945283548552600184018054939650919493929084019190610eb390615065565b80601f0160208091040260200160405190810160405280929190818152602001828054610edf90615065565b8015610f2c5780601f10610f0157610100808354040283529160200191610f2c565b820191906000526020600020905b815481529060010190602001808311610f0f57829003601f168201915b50505050508152602001600282018054610f4590615065565b80601f0160208091040260200160405190810160405280929190818152602001828054610f7190615065565b8015610fbe5780601f10610f9357610100808354040283529160200191610fbe565b820191906000526020600020905b815481529060010190602001808311610fa157829003601f168201915b50505091835250506003820154602082015260048201546001600160a01b03908116604083015260059092015490911660609091015295945050505050565b61100781356133f4565b73__$69db18565ecbefece480e92cc5f8fb1274$__636252159e8235611033604085016020860161497f565b611040604086018661509a565b600f6040518663ffffffff1660e01b8152600401610cc8959493929190615158565b61106c33826134b4565b6110885760405162461bcd60e51b8152600401610c3d90615183565b610e0c8383836135ab565b61109d8135613752565b60135481356000818152600d60209081526040808320818701358085529083529281902054905163eb23376360e01b8152600481019490945290850135602484015260448301919091526001600160a01b039092166064820152608481019190915273__$e2c9a8f399964af47bb173600dd9e5f662$__9063eb2337639060a401610cc8565b61112c81613752565b336000818152600c602052604080822080549085905590519092839285927ff12967ee1b3d3964e16093b221f5239f61fe0191c5ce5d5f543ae891d78f66039190a45050565b600061117e8235613752565b81356000908152600a602052604081206003018054829061119e906151ea565b91829055506040516342a34a5360e01b815290915073__$2873850e5b3f5697aafc2f5cd9f27cc884$__906342a34a53906111e790869085906000908190600e9060040161530f565b60006040518083038186803b1580156111ff57600080fd5b505af4158015611213573d6000803e3d6000fd5b509295945050505050565b600061122983611bde565b821061128b5760405162461bcd60e51b815260206004820152602b60248201527f455243373231456e756d657261626c653a206f776e657220696e646578206f7560448201526a74206f6620626f756e647360a81b6064820152608401610c3d565b506001600160a01b03919091166000908152600660209081526040808320938352929052205490565b60006112c08335613752565b82356000908152600a6020526040812060030180546650726f66696c6560c81b928592909182906112f0906151ea565b919050819055905073__$2873850e5b3f5697aafc2f5cd9f27cc884$__6342a34a53878386868a60405160200161132991815260200190565b604051602081830303815290604052600e6040518763ffffffff1660e01b815260040161135b96959493929190615354565b60006040518083038186803b15801561137357600080fd5b505af4158015611387573d6000803e3d6000fd5b509298975050505050505050565b60006113a18335613752565b6113bb6113b1602084018461497f565b83602001356137d0565b6013546545524337323160d01b906000906001600160a01b0316632ea24efc826113e8602088018861497f565b6040516001600160e01b031960e085901b16815260048101929092526001600160a01b03166024820152602087013560448201526064016020604051808303816000875af115801561143e573d6000803e3d6000fd5b505050506040513d601f19601f82011682018060405250810190611462919061539f565b85356000908152600a60205260408120600301805492935090918290611487906151ea565b9182905550905073__$2873850e5b3f5697aafc2f5cd9f27cc884$__6342a34a53878386866114b960208c018c61497f565b8b6020013560405160200161132992919060609290921b6bffffffffffffffffffffffff19168252601482015260340190565b6114f5836133f4565b601354604051633c17845760e11b81526001600160a01b039091169063782f08ae90611529908690869086906004016153b8565b600060405180830381600087803b15801561154357600080fd5b505af1158015611557573d6000803e3d6000fd5b50505050505050565b61156a8135613752565b60135460405163a5ca4e0960e01b815273__$e2c9a8f399964af47bb173600dd9e5f662$__9163a5ca4e0991610cc89185916001600160a01b0390911690600d906018906004016153db565b6115c08135613752565b60135460408051635cebf08d60e11b81528335600482015260208401356024820152908301356044820152606083013560648201526001600160a01b039091166084820152600d60a482015273__$e2c9a8f399964af47bb173600dd9e5f662$__9063b9d7e11a9060c401610cc8565b610e0c8383836040518060200160405280600081525061251c565b6000818152600a602052604080822090516116699160010190615452565b60408051918290039091206000818152600b6020908152838220829055858252600a9052918220828155909250906116a46001830182614647565b6116b2600283016000614647565b50600060038201556004810180546001600160a01b03199081169091556005909101805490911690556116e482613880565b5050565b60006116f48335613752565b82356000908152600a60205260408120600301805467131a5b9adb1a5cdd60c21b928592909182906112f0906151ea565b600061173060085490565b82106117935760405162461bcd60e51b815260206004820152602c60248201527f455243373231456e756d657261626c653a20676c6f62616c20696e646578206f60448201526b7574206f6620626f756e647360a01b6064820152608401610c3d565b600882815481106117a6576117a66154ee565b90600052602060002001549050919050565b6117c181613752565b60135460405163cd4069d160e01b815260048101849052602481018390523360448201526001600160a01b039091166064820152600d6084820152601860a482015273__$da066dc100670b51e733250a114f607b42$__9063cd4069d19060c4015b60006040518083038186803b15801561183b57600080fd5b505af415801561184f573d6000803e3d6000fd5b505050505050565b61186083613752565b60135482356000908152600d602090815260408083208187013584529091529081902054905163d1b430f760e01b815273__$e2c9a8f399964af47bb173600dd9e5f662$__9263d1b430f7926118ca928892889288926001600160a01b0390921691600401615504565b60006040518083038186803b1580156118e257600080fd5b505af4158015611557573d6000803e3d6000fd5b6119008135613752565b60135481356000818152600d60209081526040808320818701358085529083529281902054905163d862986560e01b8152600481019490945290850135602484015260448301919091526001600160a01b039092166064820152608481019190915273__$e2c9a8f399964af47bb173600dd9e5f662$__9063d86298659060a401610cc8565b6119908135613752565b73__$da066dc100670b51e733250a114f607b42$__631e2b88ba82356119bc604085016020860161497f565b6119c9604086018661509a565b86356000908152600a60205260409081902090516001600160e01b031960e088901b168152610cc8959493929190600401615158565b611a098135613752565b60135460405163055e4fe360e11b815273__$e2c9a8f399964af47bb173600dd9e5f662$__91630abc9fc691610cc89185916001600160a01b0390911690600d90601890600401615551565b611a5e84613752565b611a6884846138df565b6040516001626802bf60e01b0319815273__$2873850e5b3f5697aafc2f5cd9f27cc884$__9063ff97fd4190611aab908790879087908790600e906004016155da565b60006040518083038186803b158015611ac357600080fd5b505af4158015611ad7573d6000803e3d6000fd5b5050505050505050565b6000818152600260205260408120546001600160a01b031680610b305760405162461bcd60e51b815260206004820152602960248201527f4552433732313a206f776e657220717565727920666f72206e6f6e657869737460448201526832b73a103a37b5b2b760b91b6064820152608401610c3d565b611b72611b68602083018361497f565b8260200135613994565b73__$69db18565ecbefece480e92cc5f8fb1274$__63384afeb3611b99602084018461497f565b6020840135611bae606086016040870161497f565b611bbb606087018761509a565b60106040518763ffffffff1660e01b8152600401610cc8969594939291906155fa565b60006001600160a01b038216611c495760405162461bcd60e51b815260206004820152602a60248201527f4552433732313a2062616c616e636520717565727920666f7220746865207a65604482015269726f206164647265737360b01b6064820152608401610c3d565b506001600160a01b031660009081526003602052604090205490565b611c6e82613752565b611c7882826138df565b6000828152600e60209081526040808320848452825291829020600501805460ff60a81b1916600160a81b179055905182815283917f036469f3e73c83520cdefa197d7a9c854c2f8bc0164b82e9f2bd4aa7e150fd3091015b60405180910390a25050565b611ce681613a4e565b60135460405163194c934f60e01b815260048101849052602481018390526001600160a01b039091166044820152600d60648201526018608482015273__$da066dc100670b51e733250a114f607b42$__9063194c934f9060a401611823565b611d4f83613752565b6000838152600a60205260409020611d6b906002018383614681565b50827fc6b6b2c87fb0784186dd03398c7203c866d0ae59539fa3158aecbc86cb587a958383604051611d9e929190615641565b60405180910390a2505050565b6017546000906001600160a01b0316611dc657506001611f2b565b60175460405163599d32cd60e01b81526000916001600160a01b03169063599d32cd90611df99088908890600401615641565b602060405180830381865afa158015611e16573d6000803e3d6000fd5b505050506040513d601f19601f82011682018060405250810190611e3a9190615655565b601754604051630354faeb60e41b81529192506000916001600160a01b039091169063354faeb090611e729089908990600401615641565b602060405180830381865afa158015611e8f573d6000803e3d6000fd5b505050506040513d601f19601f82011682018060405250810190611eb39190615655565b9050836001600160a01b0316826001600160a01b03161480611ee65750836001600160a01b0316816001600160a01b0316145b15611ef657600192505050611f2b565b6001600160a01b038216158015611f1457506001600160a01b038116155b15611f2457600192505050611f2b565b6000925050505b9392505050565b611f3c8135613752565b60135481356000908152600d6020908152604080832060608601358452909152908190205490516317e9a8b160e31b815273__$e2c9a8f399964af47bb173600dd9e5f662$__9263bf4d458892610cc89286926001600160a01b03169190600401615672565b60135460405162fba02760e01b8152600481018390526000916001600160a01b03169062fba02790602401602060405180830381865afa158015611fea573d6000803e3d6000fd5b505050506040513d601f19601f82011682018060405250810190610b30919061539f565b600061201a8335613752565b82356000908152600a602052604081206003018054664164647265737360c81b926001600160a01b0386169290918290612053906151ea565b919050819055905073__$2873850e5b3f5697aafc2f5cd9f27cc884$__6342a34a53878386868a604051602001611329919060609190911b6bffffffffffffffffffffffff1916815260140190565b6120ac8135613752565b60135481356000908152600d6020908152604080832081860135845290915290819020549051633d7f9b3d60e11b815273__$e2c9a8f399964af47bb173600dd9e5f662$__92637aff367a92610cc89286926001600160a01b031691906004016156c4565b606060018054610b4590615065565b61212982613752565b60405163470c9bf360e11b8152600481018390526001600160a01b0382166024820152600a604482015273__$da066dc100670b51e733250a114f607b42$__90638e1937e690606401611823565b6121818135613752565b601354604051631f40cc4f60e01b815273__$e2c9a8f399964af47bb173600dd9e5f662$__91631f40cc4f91610cc89185916001600160a01b0390911690600d9060189060040161570c565b60006121d98335613752565b601354604051635cb46be760e01b81526000600482018190528435602483015260208501356044830152634e6f746560e01b9290916001600160a01b0390911690635cb46be7906064016020604051808303816000875af1158015612242573d6000803e3d6000fd5b505050506040513d601f19601f82011682018060405250810190612266919061539f565b85356000908152600a6020526040812060030180549293509091829061228b906151ea565b919050819055905073__$2873850e5b3f5697aafc2f5cd9f27cc884$__6342a34a53878386868a600001358b60200135604051602001611329929190918252602082015260400190565b6116e4338383613acb565b6122e983613752565b6122f7828261081686611ae1565b6123375760405162461bcd60e51b815260206004820152601160248201527048616e646c654e6f74456c696769626c6560781b6044820152606401610c3d565b60405163c57cb53760e01b815273__$da066dc100670b51e733250a114f607b42$__9063c57cb537906118ca90869086908690600b90600a90600401615777565b6000612389823560208401356138df565b73__$2873850e5b3f5697aafc2f5cd9f27cc884$__6379b8a998833560208501356123ba606087016040880161497f565b6123c7606088018861509a565b6014546040516001600160e01b031960e089901b1681526123ff9695949392916001600160a01b031690600a90600e906004016157a5565b602060405180830381865af4158015611fea573d6000803e3d6000fd5b6124268135613752565b6124338160200135613b9a565b73__$e2c9a8f399964af47bb173600dd9e5f662$__638ec73faa823560208401356040850135612466606087018761509a565b6040516331a9108f60e11b8152883560048201523090636352211e90602401602060405180830381865afa1580156124a2573d6000803e3d6000fd5b505050506040513d601f19601f820116820180604052508101906124c69190615655565b6013546020808b01356000908152600a9091526040908190206005015490516001600160e01b031960e08b901b168152610cc8989796959493926001600160a01b03908116921690600d906018906004016157f3565b61252633836134b4565b6125425760405162461bcd60e51b8152600401610c3d90615183565b61254e84848484613bf1565b50505050565b61255e8135613752565b612570816020013582604001356138df565b60135460405163ae539dc160e01b815273__$e2c9a8f399964af47bb173600dd9e5f662$__9163ae539dc191610cc89185916001600160a01b0390911690600e90600d90601890600401615853565b6125dc6125cf602083018361509a565b610816602085018561497f565b61261c5760405162461bcd60e51b815260206004820152601160248201527048616e646c654e6f74456c696769626c6560781b6044820152606401610c3d565b60125461262a9060016158d2565b60125561264561263d602083018361497f565b601254613c24565b6012546040516328837e1960e21b815273__$da066dc100670b51e733250a114f607b42$__9163a20df8649161268991859160019190600b90600a906004016158ea565b60006040518083038186803b1580156126a157600080fd5b505af41580156126b5573d6000803e3d6000fd5b50600c9250600091506126cd9050602084018461497f565b6001600160a01b03168152602081019190915260400160002054610e4b57601254600c60006126ff602085018561497f565b6001600160a01b0316815260208101919091526040016000205550565b61272582613752565b61272f82826138df565b6000828152600e60209081526040808320848452825291829020600501805460ff60a01b1916600160a01b179055905182815283917f4f1db9708b537c1d26a7af4b235fd079bf2342d92a276e27eb6c8717e8bbcf939101611cd1565b60008061279883611ae1565b6001600160a01b03166000908152600c60205260409020549290921492915050565b6127c383613752565b601354604051630c9973c160e01b815273__$e2c9a8f399964af47bb173600dd9e5f662$__91630c9973c1916118ca918791879187916001600160a01b0390911690600d906018906004016159cb565b6000818152600a6020526040902060020180546060919061283390615065565b80601f016020809104026020016040519081016040528092919081815260200182805461285f90615065565b80156128ac5780601f10612881576101008083540402835291602001916128ac565b820191906000526020600020905b81548152906001019060200180831161288f57829003601f168201915b50505050509050919050565b6128c28135613752565b6128df6128d5604083016020840161497f565b82604001356137d0565b60135460405163218aa98d60e21b815273__$e2c9a8f399964af47bb173600dd9e5f662$__9163862aa63491610cc89185916001600160a01b0390911690600d90601890600401615a21565b6060610b3082612813565b6129408135613752565b61294f813560208301356138df565b73__$69db18565ecbefece480e92cc5f8fb1274$__6320828a0282356020840135612980606086016040870161497f565b61298d606087018761509a565b600e6040518763ffffffff1660e01b8152600401610cc896959493929190615a86565b60408051610100808201835260008083526020808401829052606084860181905284018290526080840182905260a0840182905260c0840182905260e08401829052868252600e81528482208683528152908490208451928301855280548352600181015491830191909152600281018054939492939192840191612a3490615065565b80601f0160208091040260200160405190810160405280929190818152602001828054612a6090615065565b8015612aad5780601f10612a8257610100808354040283529160200191612aad565b820191906000526020600020905b815481529060010190602001808311612a9057829003601f168201915b505050918352505060038201546001600160a01b039081166020830152600483015481166040830152600590920154918216606082015260ff600160a01b8304811615156080830152600160a81b909204909116151560a090910152905092915050565b612b1b8135613752565b612b2a813560208301356138df565b73__$69db18565ecbefece480e92cc5f8fb1274$__631f2ffb6982356020840135612980606086016040870161497f565b601354604051632b05429560e21b8152600481018390526060916001600160a01b03169063ac150a5490602401600060405180830381865afa158015612ba5573d6000803e3d6000fd5b505050506040513d6000823e601f3d908101601f19168201604052610b309190810190615ab4565b601454600160a81b900460ff16612bf157601454600160a01b900460ff1615612bf5565b303b155b612c585760405162461bcd60e51b815260206004820152602e60248201527f496e697469616c697a61626c653a20636f6e747261637420697320616c72656160448201526d191e481a5b9a5d1a585b1a5e995960921b6064820152608401610c3d565b601454600160a81b900460ff16158015612c82576014805461ffff60a01b191661010160a01b1790555b612c8e89898989613d72565b601380546001600160a01b03199081166001600160a01b0388811691909117909255601480548216878416179055601580548216868416179055601780549091169184169190911790556040514281527f400175a56dd3710794078f7b9dbe8296ac94c5a248dfd51bb22ed4ab9eaa9fbf9060200160405180910390a18015612d1f576014805460ff60a81b191690555b505050505050505050565b612d3382613dc3565b6116e48282613e1f565b6000818152600a6020526040902060010180546060919061283390615065565b612d678135613752565b60135481356000908152600d602090815260408083208186013584529091529081902054905163bf5c00c160e01b815273__$e2c9a8f399964af47bb173600dd9e5f662$__9263bf5c00c192610cc89286926001600160a01b03169190600401615b21565b612dd46145ff565b600a60008381526020019081526020016000206040518060c001604052908160008201548152602001600182018054612e0c90615065565b80601f0160208091040260200160405190810160405280929190818152602001828054612e3890615065565b8015612e855780601f10612e5a57610100808354040283529160200191612e85565b820191906000526020600020905b815481529060010190602001808311612e6857829003601f168201915b50505050508152602001600282018054612e9e90615065565b80601f0160208091040260200160405190810160405280929190818152602001828054612eca90615065565b8015612f175780601f10612eec57610100808354040283529160200191612f17565b820191906000526020600020905b815481529060010190602001808311612efa57829003601f168201915b50505091835250506003820154602082015260048201546001600160a01b03908116604083015260059092015490911660609091015292915050565b6000612f5f8435613752565b601354604051633610bf0960e11b815265416e7955726960d01b916000916001600160a01b0390911690636c217e1290612fa1908490899089906004016153b8565b6020604051808303816000875af1158015612fc0573d6000803e3d6000fd5b505050506040513d601f19601f82011682018060405250810190612fe4919061539f565b86356000908152600a60205260408120600301805492935090918290613009906151ea565b919050819055905073__$2873850e5b3f5697aafc2f5cd9f27cc884$__6342a34a53888386868b8b604051602001613042929190615148565b604051602081830303815290604052600e6040518763ffffffff1660e01b815260040161307496959493929190615354565b60006040518083038186803b15801561308c57600080fd5b505af41580156130a0573d6000803e3d6000fd5b50929998505050505050505050565b60006001600160e01b031982166380ac58cd60e01b14806130e057506001600160e01b03198216635b5e139f60e01b145b80610b3057506301ffc9a760e01b6001600160e01b0319831614610b30565b600081815260046020526040902080546001600160a01b0319166001600160a01b038416908117909155819061313482611ae1565b6001600160a01b03167f8c5be1e5ebec7d5bd14f71427d1e84f3dd0314c0f7b2291e5b200ac8c7c3b92560405160405180910390a45050565b61317684613752565b6001600160a01b0383166000908152600c6020526040902054156131f05760405162461bcd60e51b815260206004820152602b60248201527f546172676574206164647265737320616c726561647920686173207072696d6160448201526a393c90383937b334b6329760a91b6064820152608401610c3d565b6000601260008154613201906151ea565b918290555090506132128482613c24565b73__$da066dc100670b51e733250a114f607b42$__63a20df8646040518060a00160405280876001600160a01b0316815260200161325a886001600160a01b03166014613e83565b815260200160405180602001604052806000815250815260200160006001600160a01b0316815260200160405180602001604052806000815250815250600084600b600a6040518663ffffffff1660e01b81526004016132be959493929190615b79565b60006040518083038186803b1580156132d657600080fd5b505af41580156132ea573d6000803e3d6000fd5b505050506001600160a01b0384166000908152600c602052604090819020829055516331a9108f60e11b81526004810186905273__$e2c9a8f399964af47bb173600dd9e5f662$__90638ec73faa9087908490879087903090636352211e90602401602060405180830381865afa158015613369573d6000803e3d6000fd5b505050506040513d601f19601f8201168201806040525081019061338d9190615655565b6013546040516001600160e01b031960e089901b1681526133c89695949392916001600160a01b031690600090600d90601890600401615c06565b60006040518083038186803b1580156133e057600080fd5b505af4158015612d1f573d6000803e3d6000fd5b6013546040516331a9108f60e11b8152600481018390526001600160a01b0390911690636352211e90602401602060405180830381865afa15801561343d573d6000803e3d6000fd5b505050506040513d601f19601f820116820180604052508101906134619190615655565b6001600160a01b0316336001600160a01b031614610e4b5760405162461bcd60e51b815260206004820152601060248201526f2737ba2634b735a634b9ba27bbb732b960811b6044820152606401610c3d565b6000818152600260205260408120546001600160a01b031661352d5760405162461bcd60e51b815260206004820152602c60248201527f4552433732313a206f70657261746f7220717565727920666f72206e6f6e657860448201526b34b9ba32b73a103a37b5b2b760a11b6064820152608401610c3d565b600061353883611ae1565b9050806001600160a01b0316846001600160a01b031614806135735750836001600160a01b031661356884610bc8565b6001600160a01b0316145b806135a357506001600160a01b0380821660009081526005602090815260408083209388168352929052205460ff165b949350505050565b826001600160a01b03166135be82611ae1565b6001600160a01b0316146136225760405162461bcd60e51b815260206004820152602560248201527f4552433732313a207472616e736665722066726f6d20696e636f72726563742060448201526437bbb732b960d91b6064820152608401610c3d565b6001600160a01b0382166136845760405162461bcd60e51b8152602060048201526024808201527f4552433732313a207472616e7366657220746f20746865207a65726f206164646044820152637265737360e01b6064820152608401610c3d565b61368f83838361401e565b61369a6000826130ff565b6001600160a01b03831660009081526003602052604081208054600192906136c3908490615c64565b90915550506001600160a01b03821660009081526003602052604081208054600192906136f19084906158d2565b909155505060008181526002602052604080822080546001600160a01b0319166001600160a01b0386811691821790925591518493918716917fddf252ad1be2c89b69c2b068fc378daa952ba7f163c4a11628f55a4df523b3ef91a4505050565b600061375d82611ae1565b9050336001600160a01b038216148061378c57506000828152601660205260409020546001600160a01b031633145b806137b45750326001600160a01b0382161480156137b457506015546001600160a01b031633145b6116e45760405162461bcd60e51b8152600401610c3d90615c7b565b6040516331a9108f60e11b8152600481018290526001600160a01b03831690636352211e90602401602060405180830381865afa158015613815573d6000803e3d6000fd5b505050506040513d601f19601f820116820180604052508101906138399190615655565b6001600160a01b03166116e45760405162461bcd60e51b815260206004820152600f60248201526e5245433732314e6f7445786973747360881b6044820152606401610c3d565b61388a33826134b4565b6138d65760405162461bcd60e51b815260206004820152601b60248201527f4e4654426173653a204e6f744f776e65724f72417070726f76656400000000006044820152606401610c3d565b610e4b81614193565b6000828152600e60209081526040808320848452909152902060050154600160a01b900460ff16156139435760405162461bcd60e51b815260206004820152600d60248201526c139bdd19525cd1195b195d1959609a1b6044820152606401610c3d565b6000828152600a60205260409020600301548111156116e45760405162461bcd60e51b815260206004820152600d60248201526c4e6f74654e6f7445786973747360981b6044820152606401610c3d565b6040516331a9108f60e11b8152600481018290526001600160a01b03831690636352211e90602401602060405180830381865afa1580156139d9573d6000803e3d6000fd5b505050506040513d601f19601f820116820180604052508101906139fd9190615655565b6001600160a01b0316336001600160a01b0316146116e45760405162461bcd60e51b815260206004820152600e60248201526d2737ba22a9219b9918a7bbb732b960911b6044820152606401610c3d565b6000613a5982611ae1565b9050336001600160a01b0382161480613a8857506000828152601660205260409020546001600160a01b031633145b806137b45750326001600160a01b0382161480156137b457506013546001600160a01b031633146116e45760405162461bcd60e51b8152600401610c3d90615c7b565b816001600160a01b0316836001600160a01b03161415613b2d5760405162461bcd60e51b815260206004820152601960248201527f4552433732313a20617070726f766520746f2063616c6c6572000000000000006044820152606401610c3d565b6001600160a01b03838116600081815260056020908152604080832094871680845294825291829020805460ff191686151590811790915591519182527f17307eab39ab6107e8899845ad3d59bd9653f200f220920489ca2b5937696c31910160405180910390a3505050565b6000818152600260205260409020546001600160a01b0316610e4b5760405162461bcd60e51b815260206004820152601060248201526f50726f66696c654e6f7445786973747360801b6044820152606401610c3d565b613bfc8484846135ab565b613c088484848461423a565b61254e5760405162461bcd60e51b8152600401610c3d90615ca4565b6001600160a01b038216613c7a5760405162461bcd60e51b815260206004820181905260248201527f4552433732313a206d696e7420746f20746865207a65726f20616464726573736044820152606401610c3d565b6000818152600260205260409020546001600160a01b031615613cdf5760405162461bcd60e51b815260206004820152601c60248201527f4552433732313a20746f6b656e20616c7265616479206d696e746564000000006044820152606401610c3d565b613ceb6000838361401e565b6001600160a01b0382166000908152600360205260408120805460019290613d149084906158d2565b909155505060008181526002602052604080822080546001600160a01b0319166001600160a01b03861690811790915590518392907fddf252ad1be2c89b69c2b068fc378daa952ba7f163c4a11628f55a4df523b3ef908290a45050565b613d7e84848484614338565b7f414cd0b34676984f09a5f76ce9718d4062e50283abe0e7e274a9a5b4e0c99c308484848442604051613db5959493929190615cf6565b60405180910390a150505050565b6000613dce82611ae1565b9050336001600160a01b03821614806137b45750326001600160a01b0382161480156137b457506015546001600160a01b031633146116e45760405162461bcd60e51b8152600401610c3d90615c7b565b60008281526016602090815260409182902080546001600160a01b0319166001600160a01b038516908117909155915142815284917f691b92a93c526c4f5a357e56a33c33f6250f94e19e6c49be805800615c414931910160405180910390a35050565b60606000613e92836002615d30565b613e9d9060026158d2565b6001600160401b03811115613eb457613eb4614d2b565b6040519080825280601f01601f191660200182016040528015613ede576020820181803683370190505b509050600360fc1b81600081518110613ef957613ef96154ee565b60200101906001600160f81b031916908160001a905350600f60fb1b81600181518110613f2857613f286154ee565b60200101906001600160f81b031916908160001a9053506000613f4c846002615d30565b613f579060016158d2565b90505b6001811115613fcf576f181899199a1a9b1b9c1cb0b131b232b360811b85600f1660108110613f8b57613f8b6154ee565b1a60f81b828281518110613fa157613fa16154ee565b60200101906001600160f81b031916908160001a90535060049490941c93613fc881615d4f565b9050613f5a565b508315611f2b5760405162461bcd60e51b815260206004820181905260248201527f537472696e67733a20686578206c656e67746820696e73756666696369656e746044820152606401610c3d565b6000818152601660205260409020546001600160a01b03161561404657614046816000613e1f565b6001600160a01b0383166000908152600c60205260409020541561407e576001600160a01b0383166000908152600c60205260408120555b600081815260186020526040812061409590614351565b905060005b8151811015614187576000838152600d60205260408120835182908590859081106140c7576140c76154ee565b60200260200101518152602001908152602001600020549050806000146141745760135460405163194c934f60e01b815260048101839052602481018690526001600160a01b039091166044820152600d60648201526018608482015273__$da066dc100670b51e733250a114f607b42$__9063194c934f9060a40160006040518083038186803b15801561415b57600080fd5b505af415801561416f573d6000803e3d6000fd5b505050505b508061417f816151ea565b91505061409a565b5061254e84848461435c565b600061419e82611ae1565b90506141ac8160008461401e565b6141b76000836130ff565b6001600160a01b03811660009081526003602052604081208054600192906141e0908490615c64565b909155505060008281526002602052604080822080546001600160a01b0319169055518391906001600160a01b038416907fddf252ad1be2c89b69c2b068fc378daa952ba7f163c4a11628f55a4df523b3ef908390a45050565b60006001600160a01b0384163b1561432d57604051630a85bd0160e11b81526001600160a01b0385169063150b7a029061427e903390899088908890600401615d66565b6020604051808303816000875af19250505080156142b9575060408051601f3d908101601f191682019092526142b691810190615da3565b60015b614313573d8080156142e7576040519150601f19603f3d011682016040523d82523d6000602084013e6142ec565b606091505b50805161430b5760405162461bcd60e51b8152600401610c3d90615ca4565b805181602001fd5b6001600160e01b031916630a85bd0160e11b1490506135a3565b506001949350505050565b61434460008585614681565b50610cf460018383614681565b6060610b3082614414565b6001600160a01b0383166143b7576143b281600880546000838152600960205260408120829055600182018355919091527ff3f7a9fe364faab93b216da50a3214154f22a0a2b415b23a84c8169e8b636ee30155565b6143da565b816001600160a01b0316836001600160a01b0316146143da576143da838261446f565b6001600160a01b0382166143f157610e0c8161450c565b826001600160a01b0316826001600160a01b031614610e0c57610e0c82826145bb565b6060816000018054806020026020016040519081016040528092919081815260200182805480156128ac57602002820191906000526020600020905b8154815260200190600101908083116144505750505050509050919050565b6000600161447c84611bde565b6144869190615c64565b6000838152600760205260409020549091508082146144d9576001600160a01b03841660009081526006602090815260408083208584528252808320548484528184208190558352600790915290208190555b5060009182526007602090815260408084208490556001600160a01b039094168352600681528383209183525290812055565b60085460009061451e90600190615c64565b60008381526009602052604081205460088054939450909284908110614546576145466154ee565b906000526020600020015490508060088381548110614567576145676154ee565b600091825260208083209091019290925582815260099091526040808220849055858252812055600880548061459f5761459f615dc0565b6001900381819060005260206000200160009055905550505050565b60006145c683611bde565b6001600160a01b039093166000908152600660209081526040808320868452825280832085905593825260079052919091209190915550565b6040518060c001604052806000815260200160608152602001606081526020016000815260200160006001600160a01b0316815260200160006001600160a01b031681525090565b50805461465390615065565b6000825580601f10614663575050565b601f016020900490600052602060002090810190610e4b9190614705565b82805461468d90615065565b90600052602060002090601f0160209004810192826146af57600085556146f5565b82601f106146c85782800160ff198235161785556146f5565b828001600101855582156146f5579182015b828111156146f55782358255916020019190600101906146da565b50614701929150614705565b5090565b5b808211156147015760008155600101614706565b6001600160e01b031981168114610e4b57600080fd5b60006020828403121561474257600080fd5b8135611f2b8161471a565b60006020828403121561475f57600080fd5b5035919050565b60005b83811015614781578181015183820152602001614769565b8381111561254e5750506000910152565b600081518084526147aa816020860160208601614766565b601f01601f19169290920160200192915050565b602081526000611f2b6020830184614792565b6000606082840312156147e357600080fd5b50919050565b6000602082840312156147fb57600080fd5b81356001600160401b0381111561481157600080fd5b6135a3848285016147d1565b6001600160a01b0381168114610e4b57600080fd5b6000806040838503121561484557600080fd5b82356148508161481d565b946020939093013593505050565b60006060828403121561487057600080fd5b611f2b83836147d1565b60008083601f84011261488c57600080fd5b5081356001600160401b038111156148a357600080fd5b6020830191508360208285010111156148bb57600080fd5b9250929050565b600080602083850312156148d557600080fd5b82356001600160401b038111156148eb57600080fd5b6148f78582860161487a565b90969095509350505050565b60208152815160208201526000602083015160c0604084015261492960e0840182614792565b90506040840151601f198483030160608501526149468282614792565b91505060608401516080840152608084015160018060a01b0380821660a08601528060a08701511660c086015250508091505092915050565b60006020828403121561499157600080fd5b8135611f2b8161481d565b6000806000606084860312156149b157600080fd5b83356149bc8161481d565b925060208401356149cc8161481d565b929592945050506040919091013590565b600060e082840312156147e357600080fd5b600060208284031215614a0157600080fd5b81356001600160401b03811115614a1757600080fd5b6135a3848285016149dd565b60008060408385031215614a3657600080fd5b82356001600160401b03811115614a4c57600080fd5b614a58858286016149dd565b95602094909401359450505050565b6000604082840312156147e357600080fd5b60008060608385031215614a8c57600080fd5b82356001600160401b03811115614aa257600080fd5b614aae858286016149dd565b925050614abe8460208501614a67565b90509250929050565b600080600060408486031215614adc57600080fd5b8335925060208401356001600160401b03811115614af957600080fd5b614b058682870161487a565b9497909650939450505050565b6000608082840312156147e357600080fd5b600060208284031215614b3657600080fd5b81356001600160401b03811115614b4c57600080fd5b6135a384828501614b12565b600060808284031215614b6a57600080fd5b611f2b8383614b12565b60008060408385031215614b8757600080fd5b50508035926020909101359150565b600080600060a08486031215614bab57600080fd5b83359250614bbc85602086016147d1565b9150608084013590509250925092565b60008060008060608587031215614be257600080fd5b843593506020850135925060408501356001600160401b03811115614c0657600080fd5b614c128782880161487a565b95989497509550505050565b600080600060408486031215614c3357600080fd5b83356001600160401b03811115614c4957600080fd5b614c558682870161487a565b9094509250506020840135614c698161481d565b809150509250925092565b60008060408385031215614c8757600080fd5b82356001600160401b03811115614c9d57600080fd5b614ca9858286016149dd565b9250506020830135614cba8161481d565b809150509250929050565b60008060408385031215614cd857600080fd5b823591506020830135614cba8161481d565b80358015158114614cfa57600080fd5b919050565b60008060408385031215614d1257600080fd5b8235614d1d8161481d565b9150614abe60208401614cea565b634e487b7160e01b600052604160045260246000fd5b604051601f8201601f191681016001600160401b0381118282101715614d6957614d69614d2b565b604052919050565b60006001600160401b03821115614d8a57614d8a614d2b565b50601f01601f191660200190565b60008060008060808587031215614dae57600080fd5b8435614db98161481d565b93506020850135614dc98161481d565b92506040850135915060608501356001600160401b03811115614deb57600080fd5b8501601f81018713614dfc57600080fd5b8035614e0f614e0a82614d71565b614d41565b818152886020838501011115614e2457600080fd5b8160208401602083013760006020838301015280935050505092959194509250565b600060a082840312156147e357600080fd5b600060208284031215614e6a57600080fd5b81356001600160401b03811115614e8057600080fd5b6135a384828501614e46565b60208152815160208201526020820151604082015260006040830151610100806060850152614ebf610120850183614792565b9150606085015160018060a01b0380821660808701528060808801511660a0870152505060a0850151614efd60c08601826001600160a01b03169052565b5060c085015180151560e08601525060e0850151801515858301525090949350505050565b60008060008060008060008060c0898b031215614f3e57600080fd5b88356001600160401b0380821115614f5557600080fd5b614f618c838d0161487a565b909a50985060208b0135915080821115614f7a57600080fd5b50614f878b828c0161487a565b9097509550506040890135614f9b8161481d565b93506060890135614fab8161481d565b92506080890135614fbb8161481d565b915060a0890135614fcb8161481d565b809150509295985092959890939650565b60008060408385031215614fef57600080fd5b8235614ffa8161481d565b91506020830135614cba8161481d565b60008060006040848603121561501f57600080fd5b83356001600160401b038082111561503657600080fd5b615042878388016149dd565b9450602086013591508082111561505857600080fd5b50614b058682870161487a565b600181811c9082168061507957607f821691505b602082108114156147e357634e487b7160e01b600052602260045260246000fd5b6000808335601e198436030181126150b157600080fd5b8301803591506001600160401b038211156150cb57600080fd5b6020019150368190038213156148bb57600080fd5b81835281816020850137506000828201602090810191909152601f909101601f19169091010190565b6001600160a01b0386811682528516602082015260806040820181905260009061513690830185876150e0565b90508260608301529695505050505050565b8183823760009101908152919050565b8581526001600160a01b038516602082015260806040820181905260009061513690830185876150e0565b60208082526031908201527f4552433732313a207472616e736665722063616c6c6572206973206e6f74206f6040820152701ddb995c881b9bdc88185c1c1c9bdd9959607a1b606082015260800190565b634e487b7160e01b600052601160045260246000fd5b60006000198214156151fe576151fe6151d4565b5060010190565b6000808335601e1984360301811261521c57600080fd5b83016020810192503590506001600160401b0381111561523b57600080fd5b8036038313156148bb57600080fd5b80358252600061525d6020830183615205565b60e0602086015261527260e0860182846150e0565b91505060408301356152838161481d565b6001600160a01b0381811660408701526152a06060860186615205565b925086840360608801526152b58484836150e0565b935050608085013591506152c88261481d565b1660808501526152db60a0840184615205565b85830360a08701526152ee8382846150e0565b925050506152fe60c08401614cea565b151560c08501528091505092915050565b60c08152600061532260c083018861524a565b602083810197909752604083019590955250606081019290925281830360808301526000835260a09091015201919050565b60c08152600061536760c083018961524a565b876020840152866040840152856060840152828103608084015261538b8186614792565b9150508260a0830152979650505050505050565b6000602082840312156153b157600080fd5b5051919050565b8381526040602082015260006153d26040830184866150e0565b95945050505050565b6080815284356080820152600060208601356153f68161481d565b6001600160a01b0381811660a0850152604088013560c085015261541d6060890189615205565b9250608060e0860152615435610100860184836150e0565b919097166020850152604084019590955250506060015292915050565b600080835481600182811c91508083168061546e57607f831692505b602080841082141561548e57634e487b7160e01b86526022600452602486fd5b8180156154a257600181146154b3576154e0565b60ff198616895284890196506154e0565b60008a81526020902060005b868110156154d85781548b8201529085019083016154bf565b505084890196505b509498975050505050505050565b634e487b7160e01b600052603260045260246000fd5b85815260e0810161552c60208301878035825260208082013590830152604090810135910152565b60808201949094526001600160a01b039290921660a083015260c09091015292915050565b6080815284356080820152600061556b6020870187615205565b608060a0850152615581610100850182846150e0565b915050604087013560c084015261559b6060880188615205565b848303607f190160e08601526155b28382846150e0565b6001600160a01b03989098166020860152505050506040810192909252606090910152919050565b8581528460208201526080604082015260006151366080830185876150e0565b6001600160a01b038781168252602082018790528516604082015260a06060820181905260009061562e90830185876150e0565b9050826080830152979650505050505050565b6020815260006135a36020830184866150e0565b60006020828403121561566757600080fd5b8151611f2b8161481d565b8335815260c0810160208501356156888161481d565b6001600160a01b039081166020840152604086810135908401526060958601359583019590955292909316608084015260a09092019190915290565b8335815260a0810160208501356156da8161481d565b6001600160a01b0390811660208401526040958601359583019590955292909316606084015260809092019190915290565b6080815284356080820152602085013560a0820152604085013560c0820152600061573a6060870187615205565b608060e0850152615750610100850182846150e0565b6001600160a01b039790971660208501525050506040810192909252606090910152919050565b8581526080602082015260006157916080830186886150e0565b604083019490945250606001529392505050565b888152876020820152600060018060a01b03808916604084015260e060608401526157d460e08401888a6150e0565b951660808301525060a081019290925260c09091015295945050505050565b60006101208c83528b60208401528a604084015280606084015261581a8184018a8c6150e0565b6001600160a01b03988916608085015296881660a084015250509290941660c083015260e0820152610100019190915295945050505050565b60a08152853560a0820152602086013560c0820152604086013560e08201526060860135610100820152600061588c6080880188615205565b60a06101208501526158a3610140850182846150e0565b6001600160a01b0398909816602085015250505060408101939093526060830191909152608090910152919050565b600082198211156158e5576158e56151d4565b500190565b60a08152600086356158fb8161481d565b6001600160a01b0381811660a085015261591860208a018a615205565b925060a060c0860152615930610140860184836150e0565b92505061594060408a018a615205565b609f19808786030160e08801526159588583856150e0565b945060608c0135925061596a8361481d565b83831661010088015261598060808d018d615205565b945092508087860301610120880152505061599c8383836150e0565b93505050506159af602083018715159052565b8460408301528360608301528260808301529695505050505050565b86815261010081016159f460208301888035825260208082013590830152604090810135910152565b60808201959095526001600160a01b039390931660a084015260c083019190915260e09091015292915050565b608081528435608082015260006020860135615a3c8161481d565b6001600160a01b0381811660a0850152604088013560c0850152606088013560e0850152615a6d6080890189615205565b925060a0610100860152615435610120860184836150e0565b86815285602082015260018060a01b038516604082015260a06060820152600061562e60a0830185876150e0565b600060208284031215615ac657600080fd5b81516001600160401b03811115615adc57600080fd5b8201601f81018413615aed57600080fd5b8051615afb614e0a82614d71565b818152856020838501011115615b1057600080fd5b6153d2826020830160208601614766565b60608152833560608201526000615b3b6020860186615205565b60606080850152615b5060c0850182846150e0565b60409788013560a08601526001600160a01b039690961660208501525050509092019190915290565b60a08152600060018060a01b038088511660a0840152602088015160a060c0850152615ba9610140850182614792565b90506040890151609f19808684030160e0870152615bc78383614792565b92508360608c01511661010087015260808b0151935080868403016101208701525050615bf48183614792565b925050506159af602083018715159052565b60006101208b83528a6020840152896040840152806060840152615c2c8184018a614792565b6001600160a01b03988916608085015296881660a084015250509290941660c083015260e08201526101000191909152949350505050565b600082821015615c7657615c766151d4565b500390565b6020808252600f908201526e2737ba283937b334b632a7bbb732b960891b604082015260600190565b60208082526032908201527f4552433732313a207472616e7366657220746f206e6f6e20455243373231526560408201527131b2b4bb32b91034b6b83632b6b2b73a32b960711b606082015260800190565b606081526000615d0a6060830187896150e0565b8281036020840152615d1d8186886150e0565b9150508260408301529695505050505050565b6000816000190483118215151615615d4a57615d4a6151d4565b500290565b600081615d5e57615d5e6151d4565b506000190190565b6001600160a01b0385811682528416602082015260408101839052608060608201819052600090615d9990830184614792565b9695505050505050565b600060208284031215615db557600080fd5b8151611f2b8161471a565b634e487b7160e01b600052603160045260246000fdfea264697066735822122090189282b881f93572f5bf0058866cd2152bc22284b81577823ff4f9fe1688a764736f6c634300080a0033",
    "linkReferences": {
        "contracts/libraries/LinkLogic.sol": {
            "LinkLogic": [
                {
                    "length": 20,
                    "start": 4386
                },
                {
                    "length": 20,
                    "start": 5533
                },
                {
                    "length": 20,
                    "start": 5679
                },
                {
                    "length": 20,
                    "start": 6323
                },
                {
                    "length": 20,
                    "start": 6533
                },
                {
                    "length": 20,
                    "start": 6716
                },
                {
                    "length": 20,
                    "start": 8080
                },
                {
                    "length": 20,
                    "start": 8447
                },
                {
                    "length": 20,
                    "start": 8628
                },
                {
                    "length": 20,
                    "start": 9302
                },
                {
                    "length": 20,
                    "start": 9635
                },
                {
                    "length": 20,
                    "start": 10230
                },
                {
                    "length": 20,
                    "start": 10514
                },
                {
                    "length": 20,
                    "start": 11706
                },
                {
                    "length": 20,
                    "start": 13120
                }
            ]
        },
        "contracts/libraries/LinkModuleLogic.sol": {
            "LinkModuleLogic": [
                {
                    "length": 20,
                    "start": 3205
                },
                {
                    "length": 20,
                    "start": 4138
                },
                {
                    "length": 20,
                    "start": 7061
                },
                {
                    "length": 20,
                    "start": 10610
                },
                {
                    "length": 20,
                    "start": 11085
                }
            ]
        },
        "contracts/libraries/PostLogic.sol": {
            "PostLogic": [
                {
                    "length": 20,
                    "start": 4566
                },
                {
                    "length": 20,
                    "start": 4891
                },
                {
                    "length": 20,
                    "start": 5297
                },
                {
                    "length": 20,
                    "start": 6811
                },
                {
                    "length": 20,
                    "start": 8318
                },
                {
                    "length": 20,
                    "start": 8886
                },
                {
                    "length": 20,
                    "start": 9132
                },
                {
                    "length": 20,
                    "start": 12340
                }
            ]
        },
        "contracts/libraries/ProfileLogic.sol": {
            "ProfileLogic": [
                {
                    "length": 20,
                    "start": 6182
                },
                {
                    "length": 20,
                    "start": 6579
                },
                {
                    "length": 20,
                    "start": 7493
                },
                {
                    "length": 20,
                    "start": 8566
                },
                {
                    "length": 20,
                    "start": 9063
                },
                {
                    "length": 20,
                    "start": 9848
                },
                {
                    "length": 20,
                    "start": 12853
                },
                {
                    "length": 20,
                    "start": 16711
                }
            ]
        }
    },
    "deployedLinkReferences": {
        "contracts/libraries/LinkLogic.sol": {
            "LinkLogic": [
                {
                    "length": 20,
                    "start": 4353
                },
                {
                    "length": 20,
                    "start": 5500
                },
                {
                    "length": 20,
                    "start": 5646
                },
                {
                    "length": 20,
                    "start": 6290
                },
                {
                    "length": 20,
                    "start": 6500
                },
                {
                    "length": 20,
                    "start": 6683
                },
                {
                    "length": 20,
                    "start": 8047
                },
                {
                    "length": 20,
                    "start": 8414
                },
                {
                    "length": 20,
                    "start": 8595
                },
                {
                    "length": 20,
                    "start": 9269
                },
                {
                    "length": 20,
                    "start": 9602
                },
                {
                    "length": 20,
                    "start": 10197
                },
                {
                    "length": 20,
                    "start": 10481
                },
                {
                    "length": 20,
                    "start": 11673
                },
                {
                    "length": 20,
                    "start": 13087
                }
            ]
        },
        "contracts/libraries/LinkModuleLogic.sol": {
            "LinkModuleLogic": [
                {
                    "length": 20,
                    "start": 3172
                },
                {
                    "length": 20,
                    "start": 4105
                },
                {
                    "length": 20,
                    "start": 7028
                },
                {
                    "length": 20,
                    "start": 10577
                },
                {
                    "length": 20,
                    "start": 11052
                }
            ]
        },
        "contracts/libraries/PostLogic.sol": {
            "PostLogic": [
                {
                    "length": 20,
                    "start": 4533
                },
                {
                    "length": 20,
                    "start": 4858
                },
                {
                    "length": 20,
                    "start": 5264
                },
                {
                    "length": 20,
                    "start": 6778
                },
                {
                    "length": 20,
                    "start": 8285
                },
                {
                    "length": 20,
                    "start": 8853
                },
                {
                    "length": 20,
                    "start": 9099
                },
                {
                    "length": 20,
                    "start": 12307
                }
            ]
        },
        "contracts/libraries/ProfileLogic.sol": {
            "ProfileLogic": [
                {
                    "length": 20,
                    "start": 6149
                },
                {
                    "length": 20,
                    "start": 6546
                },
                {
                    "length": 20,
                    "start": 7460
                },
                {
                    "length": 20,
                    "start": 8533
                },
                {
                    "length": 20,
                    "start": 9030
                },
                {
                    "length": 20,
                    "start": 9815
                },
                {
                    "length": 20,
                    "start": 12820
                },
                {
                    "length": 20,
                    "start": 16678
                }
            ]
        }
    }
}