{
    "_format": "hh-sol-artifact-1",
    "contractName": "Web3Entry",
    "sourceName": "contracts/Web3Entry.sol",
    "abi": [
        {
            "anonymous": false,
            "inputs": [
                {
                    "indexed": true,
                    "internalType": "address",
                    "name": "owner",
                    "type": "address"
                },
                {
                    "indexed": true,
                    "internalType": "address",
                    "name": "approved",
                    "type": "address"
                },
                {
                    "indexed": true,
                    "internalType": "uint256",
                    "name": "tokenId",
                    "type": "uint256"
                }
            ],
            "name": "Approval",
            "type": "event"
        },
        {
            "anonymous": false,
            "inputs": [
                {
                    "indexed": true,
                    "internalType": "address",
                    "name": "owner",
                    "type": "address"
                },
                {
                    "indexed": true,
                    "internalType": "address",
                    "name": "operator",
                    "type": "address"
                },
                {
                    "indexed": false,
                    "internalType": "bool",
                    "name": "approved",
                    "type": "bool"
                }
            ],
            "name": "ApprovalForAll",
            "type": "event"
        },
        {
            "anonymous": false,
            "inputs": [
                {
                    "indexed": true,
                    "internalType": "address",
                    "name": "from",
                    "type": "address"
                },
                {
                    "indexed": true,
                    "internalType": "address",
                    "name": "to",
                    "type": "address"
                },
                {
                    "indexed": true,
                    "internalType": "uint256",
                    "name": "tokenId",
                    "type": "uint256"
                }
            ],
            "name": "Transfer",
            "type": "event"
        },
        {
            "inputs": [
                {
                    "internalType": "address",
                    "name": "to",
                    "type": "address"
                },
                {
                    "internalType": "uint256",
                    "name": "tokenId",
                    "type": "uint256"
                }
            ],
            "name": "approve",
            "outputs": [],
            "stateMutability": "nonpayable",
            "type": "function"
        },
        {
            "inputs": [
                {
                    "internalType": "uint256",
                    "name": "linklistId",
                    "type": "uint256"
                },
                {
                    "internalType": "uint256",
                    "name": "profileId",
                    "type": "uint256"
                }
            ],
            "name": "attachLinklist",
            "outputs": [],
            "stateMutability": "nonpayable",
            "type": "function"
        },
        {
            "inputs": [
                {
                    "internalType": "address",
                    "name": "owner",
                    "type": "address"
                }
            ],
            "name": "balanceOf",
            "outputs": [
                {
                    "internalType": "uint256",
                    "name": "",
                    "type": "uint256"
                }
            ],
            "stateMutability": "view",
            "type": "function"
        },
        {
            "inputs": [
                {
                    "internalType": "uint256",
                    "name": "tokenId",
                    "type": "uint256"
                }
            ],
            "name": "burn",
            "outputs": [],
            "stateMutability": "nonpayable",
            "type": "function"
        },
        {
            "inputs": [
                {
                    "internalType": "string",
                    "name": "handle",
                    "type": "string"
                },
                {
                    "internalType": "address",
                    "name": "account",
                    "type": "address"
                }
            ],
            "name": "canCreate",
            "outputs": [
                {
                    "internalType": "bool",
                    "name": "",
                    "type": "bool"
                }
            ],
            "stateMutability": "view",
            "type": "function"
        },
        {
            "inputs": [
                {
                    "components": [
                        {
                            "internalType": "address",
                            "name": "to",
                            "type": "address"
                        },
                        {
                            "internalType": "string",
                            "name": "handle",
                            "type": "string"
                        },
                        {
                            "internalType": "string",
                            "name": "uri",
                            "type": "string"
                        },
                        {
                            "internalType": "address",
                            "name": "linkModule",
                            "type": "address"
                        },
                        {
                            "internalType": "bytes",
                            "name": "linkModuleInitData",
                            "type": "bytes"
                        }
                    ],
                    "internalType": "struct DataTypes.CreateProfileData",
                    "name": "vars",
                    "type": "tuple"
                }
            ],
            "name": "createProfile",
            "outputs": [],
            "stateMutability": "nonpayable",
            "type": "function"
        },
        {
            "inputs": [
                {
                    "components": [
                        {
                            "internalType": "uint256",
                            "name": "fromProfileId",
                            "type": "uint256"
                        },
                        {
                            "internalType": "address",
                            "name": "to",
                            "type": "address"
                        },
                        {
                            "internalType": "bytes32",
                            "name": "linkType",
                            "type": "bytes32"
                        }
                    ],
                    "internalType": "struct DataTypes.createThenLinkProfileData",
                    "name": "vars",
                    "type": "tuple"
                }
            ],
            "name": "createThenLinkProfile",
            "outputs": [],
            "stateMutability": "nonpayable",
            "type": "function"
        },
        {
            "inputs": [
                {
                    "internalType": "uint256",
                    "name": "profileId",
                    "type": "uint256"
                },
                {
                    "internalType": "uint256",
                    "name": "noteId",
                    "type": "uint256"
                }
            ],
            "name": "deleteNote",
            "outputs": [],
            "stateMutability": "nonpayable",
            "type": "function"
        },
        {
            "inputs": [
                {
                    "internalType": "uint256",
                    "name": "linklistId",
                    "type": "uint256"
                },
                {
                    "internalType": "uint256",
                    "name": "profileId",
                    "type": "uint256"
                }
            ],
            "name": "detachLinklist",
            "outputs": [],
            "stateMutability": "nonpayable",
            "type": "function"
        },
        {
            "inputs": [
                {
                    "internalType": "uint256",
                    "name": "tokenId",
                    "type": "uint256"
                }
            ],
            "name": "getApproved",
            "outputs": [
                {
                    "internalType": "address",
                    "name": "",
                    "type": "address"
                }
            ],
            "stateMutability": "view",
            "type": "function"
        },
        {
            "inputs": [
                {
                    "internalType": "uint256",
                    "name": "profileId",
                    "type": "uint256"
                }
            ],
            "name": "getHandle",
            "outputs": [
                {
                    "internalType": "string",
                    "name": "",
                    "type": "string"
                }
            ],
            "stateMutability": "view",
            "type": "function"
        },
        {
            "inputs": [
                {
                    "internalType": "address",
                    "name": "account",
                    "type": "address"
                }
            ],
            "name": "getLinkModule4Address",
            "outputs": [
                {
                    "internalType": "address",
                    "name": "",
                    "type": "address"
                }
            ],
            "stateMutability": "view",
            "type": "function"
        },
        {
            "inputs": [
                {
                    "internalType": "address",
                    "name": "tokenAddress",
                    "type": "address"
                },
                {
                    "internalType": "uint256",
                    "name": "tokenId",
                    "type": "uint256"
                }
            ],
            "name": "getLinkModule4ERC721",
            "outputs": [
                {
                    "internalType": "address",
                    "name": "",
                    "type": "address"
                }
            ],
            "stateMutability": "view",
            "type": "function"
        },
        {
            "inputs": [
                {
                    "internalType": "uint256",
                    "name": "tokenId",
                    "type": "uint256"
                }
            ],
            "name": "getLinkModule4Linklist",
            "outputs": [
                {
                    "internalType": "address",
                    "name": "",
                    "type": "address"
                }
            ],
            "stateMutability": "view",
            "type": "function"
        },
        {
            "inputs": [],
            "name": "getLinklistContract",
            "outputs": [
                {
                    "internalType": "address",
                    "name": "",
                    "type": "address"
                }
            ],
            "stateMutability": "view",
            "type": "function"
        },
        {
            "inputs": [
                {
                    "internalType": "uint256",
                    "name": "profileId",
                    "type": "uint256"
                },
                {
                    "internalType": "bytes32",
                    "name": "linkType",
                    "type": "bytes32"
                }
            ],
            "name": "getLinklistId",
            "outputs": [
                {
                    "internalType": "uint256",
                    "name": "",
                    "type": "uint256"
                }
            ],
            "stateMutability": "view",
            "type": "function"
        },
        {
            "inputs": [
                {
                    "internalType": "uint256",
                    "name": "linkListId",
                    "type": "uint256"
                }
            ],
            "name": "getLinklistType",
            "outputs": [
                {
                    "internalType": "bytes32",
                    "name": "",
                    "type": "bytes32"
                }
            ],
            "stateMutability": "view",
            "type": "function"
        },
        {
            "inputs": [
                {
                    "internalType": "uint256",
                    "name": "tokenId",
                    "type": "uint256"
                }
            ],
            "name": "getLinklistUri",
            "outputs": [
                {
                    "internalType": "string",
                    "name": "",
                    "type": "string"
                }
            ],
            "stateMutability": "view",
            "type": "function"
        },
        {
            "inputs": [
                {
                    "internalType": "uint256",
                    "name": "profileId",
                    "type": "uint256"
                },
                {
                    "internalType": "uint256",
                    "name": "noteId",
                    "type": "uint256"
                }
            ],
            "name": "getNote",
            "outputs": [
                {
                    "components": [
                        {
                            "internalType": "bytes32",
                            "name": "linkItemType",
                            "type": "bytes32"
                        },
                        {
                            "internalType": "bytes32",
                            "name": "linkKey",
                            "type": "bytes32"
                        },
                        {
                            "internalType": "string",
                            "name": "contentUri",
                            "type": "string"
                        },
                        {
                            "internalType": "address",
                            "name": "linkModule",
                            "type": "address"
                        },
                        {
                            "internalType": "address",
                            "name": "mintModule",
                            "type": "address"
                        },
                        {
                            "internalType": "address",
                            "name": "mintNFT",
                            "type": "address"
                        },
                        {
                            "internalType": "bool",
                            "name": "deleted",
                            "type": "bool"
                        },
                        {
                            "internalType": "bool",
                            "name": "locked",
                            "type": "bool"
                        }
                    ],
                    "internalType": "struct DataTypes.Note",
                    "name": "",
                    "type": "tuple"
                }
            ],
            "stateMutability": "view",
            "type": "function"
        },
        {
            "inputs": [
                {
                    "internalType": "uint256",
                    "name": "profileId",
                    "type": "uint256"
                },
                {
                    "internalType": "uint256",
                    "name": "offset",
                    "type": "uint256"
                },
                {
                    "internalType": "uint256",
                    "name": "limit",
                    "type": "uint256"
                }
            ],
            "name": "getNotesByProfileId",
            "outputs": [
                {
                    "components": [
                        {
                            "internalType": "bytes32",
                            "name": "linkItemType",
                            "type": "bytes32"
                        },
                        {
                            "internalType": "bytes32",
                            "name": "linkKey",
                            "type": "bytes32"
                        },
                        {
                            "internalType": "string",
                            "name": "contentUri",
                            "type": "string"
                        },
                        {
                            "internalType": "address",
                            "name": "linkModule",
                            "type": "address"
                        },
                        {
                            "internalType": "address",
                            "name": "mintModule",
                            "type": "address"
                        },
                        {
                            "internalType": "address",
                            "name": "mintNFT",
                            "type": "address"
                        },
                        {
                            "internalType": "bool",
                            "name": "deleted",
                            "type": "bool"
                        },
                        {
                            "internalType": "bool",
                            "name": "locked",
                            "type": "bool"
                        }
                    ],
                    "internalType": "struct DataTypes.Note[]",
                    "name": "results",
                    "type": "tuple[]"
                }
            ],
            "stateMutability": "view",
            "type": "function"
        },
        {
            "inputs": [
                {
                    "internalType": "uint256",
                    "name": "profileId",
                    "type": "uint256"
                }
            ],
            "name": "getOperator",
            "outputs": [
                {
                    "internalType": "address",
                    "name": "",
                    "type": "address"
                }
            ],
            "stateMutability": "view",
            "type": "function"
        },
        {
            "inputs": [
                {
                    "internalType": "address",
                    "name": "account",
                    "type": "address"
                }
            ],
            "name": "getPrimaryProfileId",
            "outputs": [
                {
                    "internalType": "uint256",
                    "name": "",
                    "type": "uint256"
                }
            ],
            "stateMutability": "view",
            "type": "function"
        },
        {
            "inputs": [
                {
                    "internalType": "uint256",
                    "name": "profileId",
                    "type": "uint256"
                }
            ],
            "name": "getProfile",
            "outputs": [
                {
                    "components": [
                        {
                            "internalType": "uint256",
                            "name": "profileId",
                            "type": "uint256"
                        },
                        {
                            "internalType": "string",
                            "name": "handle",
                            "type": "string"
                        },
                        {
                            "internalType": "string",
                            "name": "uri",
                            "type": "string"
                        },
                        {
                            "internalType": "uint256",
                            "name": "noteCount",
                            "type": "uint256"
                        },
                        {
                            "internalType": "address",
                            "name": "socialToken",
                            "type": "address"
                        },
                        {
                            "internalType": "address",
                            "name": "linkModule",
                            "type": "address"
                        }
                    ],
                    "internalType": "struct DataTypes.Profile",
                    "name": "",
                    "type": "tuple"
                }
            ],
            "stateMutability": "view",
            "type": "function"
        },
        {
            "inputs": [
                {
                    "internalType": "string",
                    "name": "handle",
                    "type": "string"
                }
            ],
            "name": "getProfileByHandle",
            "outputs": [
                {
                    "components": [
                        {
                            "internalType": "uint256",
                            "name": "profileId",
                            "type": "uint256"
                        },
                        {
                            "internalType": "string",
                            "name": "handle",
                            "type": "string"
                        },
                        {
                            "internalType": "string",
                            "name": "uri",
                            "type": "string"
                        },
                        {
                            "internalType": "uint256",
                            "name": "noteCount",
                            "type": "uint256"
                        },
                        {
                            "internalType": "address",
                            "name": "socialToken",
                            "type": "address"
                        },
                        {
                            "internalType": "address",
                            "name": "linkModule",
                            "type": "address"
                        }
                    ],
                    "internalType": "struct DataTypes.Profile",
                    "name": "",
                    "type": "tuple"
                }
            ],
            "stateMutability": "view",
            "type": "function"
        },
        {
            "inputs": [
                {
                    "internalType": "uint256",
                    "name": "profileId",
                    "type": "uint256"
                }
            ],
            "name": "getProfileUri",
            "outputs": [
                {
                    "internalType": "string",
                    "name": "",
                    "type": "string"
                }
            ],
            "stateMutability": "view",
            "type": "function"
        },
        {
            "inputs": [],
            "name": "getRevision",
            "outputs": [
                {
                    "internalType": "uint256",
                    "name": "",
                    "type": "uint256"
                }
            ],
            "stateMutability": "pure",
            "type": "function"
        },
        {
            "inputs": [
                {
                    "internalType": "string",
                    "name": "_name",
                    "type": "string"
                },
                {
                    "internalType": "string",
                    "name": "_symbol",
                    "type": "string"
                },
                {
                    "internalType": "address",
                    "name": "_linklistContract",
                    "type": "address"
                },
                {
                    "internalType": "address",
                    "name": "_mintNFTImpl",
                    "type": "address"
                },
                {
                    "internalType": "address",
                    "name": "_periphery",
                    "type": "address"
                },
                {
                    "internalType": "address",
                    "name": "_resolver",
                    "type": "address"
                }
            ],
            "name": "initialize",
            "outputs": [],
            "stateMutability": "nonpayable",
            "type": "function"
        },
        {
            "inputs": [
                {
                    "internalType": "address",
                    "name": "owner",
                    "type": "address"
                },
                {
                    "internalType": "address",
                    "name": "operator",
                    "type": "address"
                }
            ],
            "name": "isApprovedForAll",
            "outputs": [
                {
                    "internalType": "bool",
                    "name": "",
                    "type": "bool"
                }
            ],
            "stateMutability": "view",
            "type": "function"
        },
        {
            "inputs": [
                {
                    "internalType": "uint256",
                    "name": "profileId",
                    "type": "uint256"
                }
            ],
            "name": "isPrimaryProfile",
            "outputs": [
                {
                    "internalType": "bool",
                    "name": "",
                    "type": "bool"
                }
            ],
            "stateMutability": "view",
            "type": "function"
        },
        {
            "inputs": [
                {
                    "components": [
                        {
                            "internalType": "uint256",
                            "name": "fromProfileId",
                            "type": "uint256"
                        },
                        {
                            "internalType": "address",
                            "name": "ethAddress",
                            "type": "address"
                        },
                        {
                            "internalType": "bytes32",
                            "name": "linkType",
                            "type": "bytes32"
                        },
                        {
                            "internalType": "bytes",
                            "name": "data",
                            "type": "bytes"
                        }
                    ],
                    "internalType": "struct DataTypes.linkAddressData",
                    "name": "vars",
                    "type": "tuple"
                }
            ],
            "name": "linkAddress",
            "outputs": [],
            "stateMutability": "nonpayable",
            "type": "function"
        },
        {
            "inputs": [
                {
                    "components": [
                        {
                            "internalType": "uint256",
                            "name": "fromProfileId",
                            "type": "uint256"
                        },
                        {
                            "internalType": "string",
                            "name": "toUri",
                            "type": "string"
                        },
                        {
                            "internalType": "bytes32",
                            "name": "linkType",
                            "type": "bytes32"
                        },
                        {
                            "internalType": "bytes",
                            "name": "data",
                            "type": "bytes"
                        }
                    ],
                    "internalType": "struct DataTypes.linkAnyUriData",
                    "name": "vars",
                    "type": "tuple"
                }
            ],
            "name": "linkAnyUri",
            "outputs": [],
            "stateMutability": "nonpayable",
            "type": "function"
        },
        {
            "inputs": [
                {
                    "components": [
                        {
                            "internalType": "uint256",
                            "name": "fromProfileId",
                            "type": "uint256"
                        },
                        {
                            "internalType": "address",
                            "name": "tokenAddress",
                            "type": "address"
                        },
                        {
                            "internalType": "uint256",
                            "name": "tokenId",
                            "type": "uint256"
                        },
                        {
                            "internalType": "bytes32",
                            "name": "linkType",
                            "type": "bytes32"
                        },
                        {
                            "internalType": "bytes",
                            "name": "data",
                            "type": "bytes"
                        }
                    ],
                    "internalType": "struct DataTypes.linkERC721Data",
                    "name": "vars",
                    "type": "tuple"
                }
            ],
            "name": "linkERC721",
            "outputs": [],
            "stateMutability": "nonpayable",
            "type": "function"
        },
        {
            "inputs": [
                {
                    "components": [
                        {
                            "internalType": "uint256",
                            "name": "fromProfileId",
                            "type": "uint256"
                        },
                        {
                            "internalType": "uint256",
                            "name": "toLinkListId",
                            "type": "uint256"
                        },
                        {
                            "internalType": "bytes32",
                            "name": "linkType",
                            "type": "bytes32"
                        },
                        {
                            "internalType": "bytes",
                            "name": "data",
                            "type": "bytes"
                        }
                    ],
                    "internalType": "struct DataTypes.linkLinklistData",
                    "name": "vars",
                    "type": "tuple"
                }
            ],
            "name": "linkLinklist",
            "outputs": [],
            "stateMutability": "nonpayable",
            "type": "function"
        },
        {
            "inputs": [
                {
                    "components": [
                        {
                            "internalType": "uint256",
                            "name": "fromProfileId",
                            "type": "uint256"
                        },
                        {
                            "internalType": "uint256",
                            "name": "toProfileId",
                            "type": "uint256"
                        },
                        {
                            "internalType": "uint256",
                            "name": "toNoteId",
                            "type": "uint256"
                        },
                        {
                            "internalType": "bytes32",
                            "name": "linkType",
                            "type": "bytes32"
                        },
                        {
                            "internalType": "bytes",
                            "name": "data",
                            "type": "bytes"
                        }
                    ],
                    "internalType": "struct DataTypes.linkNoteData",
                    "name": "vars",
                    "type": "tuple"
                }
            ],
            "name": "linkNote",
            "outputs": [],
            "stateMutability": "nonpayable",
            "type": "function"
        },
        {
            "inputs": [
                {
                    "components": [
                        {
                            "internalType": "uint256",
                            "name": "fromProfileId",
                            "type": "uint256"
                        },
                        {
                            "internalType": "uint256",
                            "name": "toProfileId",
                            "type": "uint256"
                        },
                        {
                            "internalType": "bytes32",
                            "name": "linkType",
                            "type": "bytes32"
                        },
                        {
                            "internalType": "bytes",
                            "name": "data",
                            "type": "bytes"
                        }
                    ],
                    "internalType": "struct DataTypes.linkProfileData",
                    "name": "vars",
                    "type": "tuple"
                }
            ],
            "name": "linkProfile",
            "outputs": [],
            "stateMutability": "nonpayable",
            "type": "function"
        },
        {
            "inputs": [
                {
                    "internalType": "uint256",
                    "name": "fromProfileId",
                    "type": "uint256"
                },
                {
                    "components": [
                        {
                            "internalType": "uint256",
                            "name": "fromProfileId",
                            "type": "uint256"
                        },
                        {
                            "internalType": "uint256",
                            "name": "toProfileId",
                            "type": "uint256"
                        },
                        {
                            "internalType": "bytes32",
                            "name": "linkType",
                            "type": "bytes32"
                        }
                    ],
                    "internalType": "struct DataTypes.ProfileLinkStruct",
                    "name": "linkData",
                    "type": "tuple"
                },
                {
                    "internalType": "bytes32",
                    "name": "linkType",
                    "type": "bytes32"
                }
            ],
            "name": "linkProfileLink",
            "outputs": [],
            "stateMutability": "nonpayable",
            "type": "function"
        },
        {
            "inputs": [
                {
                    "internalType": "uint256",
                    "name": "profileId",
                    "type": "uint256"
                },
                {
                    "internalType": "uint256",
                    "name": "noteId",
                    "type": "uint256"
                }
            ],
            "name": "lockNote",
            "outputs": [],
            "stateMutability": "nonpayable",
            "type": "function"
        },
        {
            "inputs": [
                {
                    "components": [
                        {
                            "internalType": "uint256",
                            "name": "profileId",
                            "type": "uint256"
                        },
                        {
                            "internalType": "uint256",
                            "name": "noteId",
                            "type": "uint256"
                        },
                        {
                            "internalType": "address",
                            "name": "to",
                            "type": "address"
                        },
                        {
                            "internalType": "bytes",
                            "name": "mintModuleData",
                            "type": "bytes"
                        }
                    ],
                    "internalType": "struct DataTypes.MintNoteData",
                    "name": "vars",
                    "type": "tuple"
                }
            ],
            "name": "mintNote",
            "outputs": [
                {
                    "internalType": "uint256",
                    "name": "",
                    "type": "uint256"
                }
            ],
            "stateMutability": "nonpayable",
            "type": "function"
        },
        {
            "inputs": [],
            "name": "name",
            "outputs": [
                {
                    "internalType": "string",
                    "name": "",
                    "type": "string"
                }
            ],
            "stateMutability": "view",
            "type": "function"
        },
        {
            "inputs": [
                {
                    "internalType": "uint256",
                    "name": "tokenId",
                    "type": "uint256"
                }
            ],
            "name": "ownerOf",
            "outputs": [
                {
                    "internalType": "address",
                    "name": "",
                    "type": "address"
                }
            ],
            "stateMutability": "view",
            "type": "function"
        },
        {
            "inputs": [
                {
                    "components": [
                        {
                            "internalType": "uint256",
                            "name": "profileId",
                            "type": "uint256"
                        },
                        {
                            "internalType": "string",
                            "name": "contentUri",
                            "type": "string"
                        },
                        {
                            "internalType": "address",
                            "name": "linkModule",
                            "type": "address"
                        },
                        {
                            "internalType": "bytes",
                            "name": "linkModuleInitData",
                            "type": "bytes"
                        },
                        {
                            "internalType": "address",
                            "name": "mintModule",
                            "type": "address"
                        },
                        {
                            "internalType": "bytes",
                            "name": "mintModuleInitData",
                            "type": "bytes"
                        },
                        {
                            "internalType": "bool",
                            "name": "locked",
                            "type": "bool"
                        }
                    ],
                    "internalType": "struct DataTypes.PostNoteData",
                    "name": "vars",
                    "type": "tuple"
                }
            ],
            "name": "postNote",
            "outputs": [
                {
                    "internalType": "uint256",
                    "name": "",
                    "type": "uint256"
                }
            ],
            "stateMutability": "nonpayable",
            "type": "function"
        },
        {
            "inputs": [
                {
                    "components": [
                        {
                            "internalType": "uint256",
                            "name": "profileId",
                            "type": "uint256"
                        },
                        {
                            "internalType": "string",
                            "name": "contentUri",
                            "type": "string"
                        },
                        {
                            "internalType": "address",
                            "name": "linkModule",
                            "type": "address"
                        },
                        {
                            "internalType": "bytes",
                            "name": "linkModuleInitData",
                            "type": "bytes"
                        },
                        {
                            "internalType": "address",
                            "name": "mintModule",
                            "type": "address"
                        },
                        {
                            "internalType": "bytes",
                            "name": "mintModuleInitData",
                            "type": "bytes"
                        },
                        {
                            "internalType": "bool",
                            "name": "locked",
                            "type": "bool"
                        }
                    ],
                    "internalType": "struct DataTypes.PostNoteData",
                    "name": "noteData",
                    "type": "tuple"
                },
                {
                    "internalType": "address",
                    "name": "ethAddress",
                    "type": "address"
                }
            ],
            "name": "postNote4Address",
            "outputs": [
                {
                    "internalType": "uint256",
                    "name": "",
                    "type": "uint256"
                }
            ],
            "stateMutability": "nonpayable",
            "type": "function"
        },
        {
            "inputs": [
                {
                    "components": [
                        {
                            "internalType": "uint256",
                            "name": "profileId",
                            "type": "uint256"
                        },
                        {
                            "internalType": "string",
                            "name": "contentUri",
                            "type": "string"
                        },
                        {
                            "internalType": "address",
                            "name": "linkModule",
                            "type": "address"
                        },
                        {
                            "internalType": "bytes",
                            "name": "linkModuleInitData",
                            "type": "bytes"
                        },
                        {
                            "internalType": "address",
                            "name": "mintModule",
                            "type": "address"
                        },
                        {
                            "internalType": "bytes",
                            "name": "mintModuleInitData",
                            "type": "bytes"
                        },
                        {
                            "internalType": "bool",
                            "name": "locked",
                            "type": "bool"
                        }
                    ],
                    "internalType": "struct DataTypes.PostNoteData",
                    "name": "postNoteData",
                    "type": "tuple"
                },
                {
                    "internalType": "string",
                    "name": "uri",
                    "type": "string"
                }
            ],
            "name": "postNote4AnyUri",
            "outputs": [
                {
                    "internalType": "uint256",
                    "name": "",
                    "type": "uint256"
                }
            ],
            "stateMutability": "nonpayable",
            "type": "function"
        },
        {
            "inputs": [
                {
                    "components": [
                        {
                            "internalType": "uint256",
                            "name": "profileId",
                            "type": "uint256"
                        },
                        {
                            "internalType": "string",
                            "name": "contentUri",
                            "type": "string"
                        },
                        {
                            "internalType": "address",
                            "name": "linkModule",
                            "type": "address"
                        },
                        {
                            "internalType": "bytes",
                            "name": "linkModuleInitData",
                            "type": "bytes"
                        },
                        {
                            "internalType": "address",
                            "name": "mintModule",
                            "type": "address"
                        },
                        {
                            "internalType": "bytes",
                            "name": "mintModuleInitData",
                            "type": "bytes"
                        },
                        {
                            "internalType": "bool",
                            "name": "locked",
                            "type": "bool"
                        }
                    ],
                    "internalType": "struct DataTypes.PostNoteData",
                    "name": "postNoteData",
                    "type": "tuple"
                },
                {
                    "components": [
                        {
                            "internalType": "address",
                            "name": "tokenAddress",
                            "type": "address"
                        },
                        {
                            "internalType": "uint256",
                            "name": "erc721TokenId",
                            "type": "uint256"
                        }
                    ],
                    "internalType": "struct DataTypes.ERC721Struct",
                    "name": "erc721",
                    "type": "tuple"
                }
            ],
            "name": "postNote4ERC721",
            "outputs": [
                {
                    "internalType": "uint256",
                    "name": "",
                    "type": "uint256"
                }
            ],
            "stateMutability": "nonpayable",
            "type": "function"
        },
        {
            "inputs": [
                {
                    "components": [
                        {
                            "internalType": "uint256",
                            "name": "profileId",
                            "type": "uint256"
                        },
                        {
                            "internalType": "string",
                            "name": "contentUri",
                            "type": "string"
                        },
                        {
                            "internalType": "address",
                            "name": "linkModule",
                            "type": "address"
                        },
                        {
                            "internalType": "bytes",
                            "name": "linkModuleInitData",
                            "type": "bytes"
                        },
                        {
                            "internalType": "address",
                            "name": "mintModule",
                            "type": "address"
                        },
                        {
                            "internalType": "bytes",
                            "name": "mintModuleInitData",
                            "type": "bytes"
                        },
                        {
                            "internalType": "bool",
                            "name": "locked",
                            "type": "bool"
                        }
                    ],
                    "internalType": "struct DataTypes.PostNoteData",
                    "name": "noteData",
                    "type": "tuple"
                },
                {
                    "internalType": "uint256",
                    "name": "toLinklistId",
                    "type": "uint256"
                }
            ],
            "name": "postNote4Linklist",
            "outputs": [
                {
                    "internalType": "uint256",
                    "name": "",
                    "type": "uint256"
                }
            ],
            "stateMutability": "nonpayable",
            "type": "function"
        },
        {
            "inputs": [
                {
                    "components": [
                        {
                            "internalType": "uint256",
                            "name": "profileId",
                            "type": "uint256"
                        },
                        {
                            "internalType": "string",
                            "name": "contentUri",
                            "type": "string"
                        },
                        {
                            "internalType": "address",
                            "name": "linkModule",
                            "type": "address"
                        },
                        {
                            "internalType": "bytes",
                            "name": "linkModuleInitData",
                            "type": "bytes"
                        },
                        {
                            "internalType": "address",
                            "name": "mintModule",
                            "type": "address"
                        },
                        {
                            "internalType": "bytes",
                            "name": "mintModuleInitData",
                            "type": "bytes"
                        },
                        {
                            "internalType": "bool",
                            "name": "locked",
                            "type": "bool"
                        }
                    ],
                    "internalType": "struct DataTypes.PostNoteData",
                    "name": "postNoteData",
                    "type": "tuple"
                },
                {
                    "components": [
                        {
                            "internalType": "uint256",
                            "name": "profileId",
                            "type": "uint256"
                        },
                        {
                            "internalType": "uint256",
                            "name": "noteId",
                            "type": "uint256"
                        }
                    ],
                    "internalType": "struct DataTypes.NoteStruct",
                    "name": "note",
                    "type": "tuple"
                }
            ],
            "name": "postNote4Note",
            "outputs": [
                {
                    "internalType": "uint256",
                    "name": "",
                    "type": "uint256"
                }
            ],
            "stateMutability": "nonpayable",
            "type": "function"
        },
        {
            "inputs": [
                {
                    "components": [
                        {
                            "internalType": "uint256",
                            "name": "profileId",
                            "type": "uint256"
                        },
                        {
                            "internalType": "string",
                            "name": "contentUri",
                            "type": "string"
                        },
                        {
                            "internalType": "address",
                            "name": "linkModule",
                            "type": "address"
                        },
                        {
                            "internalType": "bytes",
                            "name": "linkModuleInitData",
                            "type": "bytes"
                        },
                        {
                            "internalType": "address",
                            "name": "mintModule",
                            "type": "address"
                        },
                        {
                            "internalType": "bytes",
                            "name": "mintModuleInitData",
                            "type": "bytes"
                        },
                        {
                            "internalType": "bool",
                            "name": "locked",
                            "type": "bool"
                        }
                    ],
                    "internalType": "struct DataTypes.PostNoteData",
                    "name": "postNoteData",
                    "type": "tuple"
                },
                {
                    "internalType": "uint256",
                    "name": "toProfileId",
                    "type": "uint256"
                }
            ],
            "name": "postNote4Profile",
            "outputs": [
                {
                    "internalType": "uint256",
                    "name": "",
                    "type": "uint256"
                }
            ],
            "stateMutability": "nonpayable",
            "type": "function"
        },
        {
            "inputs": [],
            "name": "resolver",
            "outputs": [
                {
                    "internalType": "address",
                    "name": "",
                    "type": "address"
                }
            ],
            "stateMutability": "view",
            "type": "function"
        },
        {
            "inputs": [
                {
                    "internalType": "address",
                    "name": "from",
                    "type": "address"
                },
                {
                    "internalType": "address",
                    "name": "to",
                    "type": "address"
                },
                {
                    "internalType": "uint256",
                    "name": "tokenId",
                    "type": "uint256"
                }
            ],
            "name": "safeTransferFrom",
            "outputs": [],
            "stateMutability": "nonpayable",
            "type": "function"
        },
        {
            "inputs": [
                {
                    "internalType": "address",
                    "name": "from",
                    "type": "address"
                },
                {
                    "internalType": "address",
                    "name": "to",
                    "type": "address"
                },
                {
                    "internalType": "uint256",
                    "name": "tokenId",
                    "type": "uint256"
                },
                {
                    "internalType": "bytes",
                    "name": "_data",
                    "type": "bytes"
                }
            ],
            "name": "safeTransferFrom",
            "outputs": [],
            "stateMutability": "nonpayable",
            "type": "function"
        },
        {
            "inputs": [
                {
                    "internalType": "address",
                    "name": "operator",
                    "type": "address"
                },
                {
                    "internalType": "bool",
                    "name": "approved",
                    "type": "bool"
                }
            ],
            "name": "setApprovalForAll",
            "outputs": [],
            "stateMutability": "nonpayable",
            "type": "function"
        },
        {
            "inputs": [
                {
                    "internalType": "uint256",
                    "name": "profileId",
                    "type": "uint256"
                },
                {
                    "internalType": "string",
                    "name": "newHandle",
                    "type": "string"
                }
            ],
            "name": "setHandle",
            "outputs": [],
            "stateMutability": "nonpayable",
            "type": "function"
        },
        {
            "inputs": [
                {
                    "components": [
                        {
                            "internalType": "address",
                            "name": "account",
                            "type": "address"
                        },
                        {
                            "internalType": "address",
                            "name": "linkModule",
                            "type": "address"
                        },
                        {
                            "internalType": "bytes",
                            "name": "linkModuleInitData",
                            "type": "bytes"
                        }
                    ],
                    "internalType": "struct DataTypes.setLinkModule4AddressData",
                    "name": "vars",
                    "type": "tuple"
                }
            ],
            "name": "setLinkModule4Address",
            "outputs": [],
            "stateMutability": "nonpayable",
            "type": "function"
        },
        {
            "inputs": [
                {
                    "components": [
                        {
                            "internalType": "address",
                            "name": "tokenAddress",
                            "type": "address"
                        },
                        {
                            "internalType": "uint256",
                            "name": "tokenId",
                            "type": "uint256"
                        },
                        {
                            "internalType": "address",
                            "name": "linkModule",
                            "type": "address"
                        },
                        {
                            "internalType": "bytes",
                            "name": "linkModuleInitData",
                            "type": "bytes"
                        }
                    ],
                    "internalType": "struct DataTypes.setLinkModule4ERC721Data",
                    "name": "vars",
                    "type": "tuple"
                }
            ],
            "name": "setLinkModule4ERC721",
            "outputs": [],
            "stateMutability": "nonpayable",
            "type": "function"
        },
        {
            "inputs": [
                {
                    "components": [
                        {
                            "internalType": "uint256",
                            "name": "linklistId",
                            "type": "uint256"
                        },
                        {
                            "internalType": "address",
                            "name": "linkModule",
                            "type": "address"
                        },
                        {
                            "internalType": "bytes",
                            "name": "linkModuleInitData",
                            "type": "bytes"
                        }
                    ],
                    "internalType": "struct DataTypes.setLinkModule4LinklistData",
                    "name": "vars",
                    "type": "tuple"
                }
            ],
            "name": "setLinkModule4Linklist",
            "outputs": [],
            "stateMutability": "nonpayable",
            "type": "function"
        },
        {
            "inputs": [
                {
                    "components": [
                        {
                            "internalType": "uint256",
                            "name": "profileId",
                            "type": "uint256"
                        },
                        {
                            "internalType": "uint256",
                            "name": "noteId",
                            "type": "uint256"
                        },
                        {
                            "internalType": "address",
                            "name": "linkModule",
                            "type": "address"
                        },
                        {
                            "internalType": "bytes",
                            "name": "linkModuleInitData",
                            "type": "bytes"
                        }
                    ],
                    "internalType": "struct DataTypes.setLinkModule4NoteData",
                    "name": "vars",
                    "type": "tuple"
                }
            ],
            "name": "setLinkModule4Note",
            "outputs": [],
            "stateMutability": "nonpayable",
            "type": "function"
        },
        {
            "inputs": [
                {
                    "components": [
                        {
                            "internalType": "uint256",
                            "name": "profileId",
                            "type": "uint256"
                        },
                        {
                            "internalType": "address",
                            "name": "linkModule",
                            "type": "address"
                        },
                        {
                            "internalType": "bytes",
                            "name": "linkModuleInitData",
                            "type": "bytes"
                        }
                    ],
                    "internalType": "struct DataTypes.setLinkModule4ProfileData",
                    "name": "vars",
                    "type": "tuple"
                }
            ],
            "name": "setLinkModule4Profile",
            "outputs": [],
            "stateMutability": "nonpayable",
            "type": "function"
        },
        {
            "inputs": [
                {
                    "internalType": "uint256",
                    "name": "linklistId",
                    "type": "uint256"
                },
                {
                    "internalType": "string",
                    "name": "uri",
                    "type": "string"
                }
            ],
            "name": "setLinklistUri",
            "outputs": [],
            "stateMutability": "nonpayable",
            "type": "function"
        },
        {
            "inputs": [
                {
                    "components": [
                        {
                            "internalType": "uint256",
                            "name": "profileId",
                            "type": "uint256"
                        },
                        {
                            "internalType": "uint256",
                            "name": "noteId",
                            "type": "uint256"
                        },
                        {
                            "internalType": "address",
                            "name": "mintModule",
                            "type": "address"
                        },
                        {
                            "internalType": "bytes",
                            "name": "mintModuleInitData",
                            "type": "bytes"
                        }
                    ],
                    "internalType": "struct DataTypes.setMintModule4NoteData",
                    "name": "vars",
                    "type": "tuple"
                }
            ],
            "name": "setMintModule4Note",
            "outputs": [],
            "stateMutability": "nonpayable",
            "type": "function"
        },
        {
            "inputs": [
                {
                    "internalType": "uint256",
                    "name": "profileId",
                    "type": "uint256"
                },
                {
                    "internalType": "uint256",
                    "name": "noteId",
                    "type": "uint256"
                },
                {
                    "internalType": "string",
                    "name": "newUri",
                    "type": "string"
                }
            ],
            "name": "setNoteUri",
            "outputs": [],
            "stateMutability": "nonpayable",
            "type": "function"
        },
        {
            "inputs": [
                {
                    "internalType": "uint256",
                    "name": "profileId",
                    "type": "uint256"
                },
                {
                    "internalType": "address",
                    "name": "operator",
                    "type": "address"
                }
            ],
            "name": "setOperator",
            "outputs": [],
            "stateMutability": "nonpayable",
            "type": "function"
        },
        {
            "inputs": [
                {
                    "internalType": "uint256",
                    "name": "profileId",
                    "type": "uint256"
                }
            ],
            "name": "setPrimaryProfileId",
            "outputs": [],
            "stateMutability": "nonpayable",
            "type": "function"
        },
        {
            "inputs": [
                {
                    "internalType": "uint256",
                    "name": "profileId",
                    "type": "uint256"
                },
                {
                    "internalType": "string",
                    "name": "newUri",
                    "type": "string"
                }
            ],
            "name": "setProfileUri",
            "outputs": [],
            "stateMutability": "nonpayable",
            "type": "function"
        },
        {
            "inputs": [
                {
                    "internalType": "uint256",
                    "name": "profileId",
                    "type": "uint256"
                },
                {
                    "internalType": "address",
                    "name": "tokenAddress",
                    "type": "address"
                }
            ],
            "name": "setSocialToken",
            "outputs": [],
            "stateMutability": "nonpayable",
            "type": "function"
        },
        {
            "inputs": [
                {
                    "internalType": "bytes4",
                    "name": "interfaceId",
                    "type": "bytes4"
                }
            ],
            "name": "supportsInterface",
            "outputs": [
                {
                    "internalType": "bool",
                    "name": "",
                    "type": "bool"
                }
            ],
            "stateMutability": "view",
            "type": "function"
        },
        {
            "inputs": [],
            "name": "symbol",
            "outputs": [
                {
                    "internalType": "string",
                    "name": "",
                    "type": "string"
                }
            ],
            "stateMutability": "view",
            "type": "function"
        },
        {
            "inputs": [
                {
                    "internalType": "uint256",
                    "name": "index",
                    "type": "uint256"
                }
            ],
            "name": "tokenByIndex",
            "outputs": [
                {
                    "internalType": "uint256",
                    "name": "",
                    "type": "uint256"
                }
            ],
            "stateMutability": "view",
            "type": "function"
        },
        {
            "inputs": [
                {
                    "internalType": "address",
                    "name": "owner",
                    "type": "address"
                },
                {
                    "internalType": "uint256",
                    "name": "index",
                    "type": "uint256"
                }
            ],
            "name": "tokenOfOwnerByIndex",
            "outputs": [
                {
                    "internalType": "uint256",
                    "name": "",
                    "type": "uint256"
                }
            ],
            "stateMutability": "view",
            "type": "function"
        },
        {
            "inputs": [
                {
                    "internalType": "uint256",
                    "name": "profileId",
                    "type": "uint256"
                }
            ],
            "name": "tokenURI",
            "outputs": [
                {
                    "internalType": "string",
                    "name": "",
                    "type": "string"
                }
            ],
            "stateMutability": "view",
            "type": "function"
        },
        {
            "inputs": [],
            "name": "totalSupply",
            "outputs": [
                {
                    "internalType": "uint256",
                    "name": "",
                    "type": "uint256"
                }
            ],
            "stateMutability": "view",
            "type": "function"
        },
        {
            "inputs": [
                {
                    "internalType": "address",
                    "name": "from",
                    "type": "address"
                },
                {
                    "internalType": "address",
                    "name": "to",
                    "type": "address"
                },
                {
                    "internalType": "uint256",
                    "name": "tokenId",
                    "type": "uint256"
                }
            ],
            "name": "transferFrom",
            "outputs": [],
            "stateMutability": "nonpayable",
            "type": "function"
        },
        {
            "inputs": [
                {
                    "components": [
                        {
                            "internalType": "uint256",
                            "name": "fromProfileId",
                            "type": "uint256"
                        },
                        {
                            "internalType": "address",
                            "name": "ethAddress",
                            "type": "address"
                        },
                        {
                            "internalType": "bytes32",
                            "name": "linkType",
                            "type": "bytes32"
                        },
                        {
                            "internalType": "bytes",
                            "name": "data",
                            "type": "bytes"
                        }
                    ],
                    "internalType": "struct DataTypes.linkAddressData",
                    "name": "vars",
                    "type": "tuple"
                }
            ],
            "name": "unlinkAddress",
            "outputs": [],
            "stateMutability": "nonpayable",
            "type": "function"
        },
        {
            "inputs": [
                {
                    "components": [
                        {
                            "internalType": "uint256",
                            "name": "fromProfileId",
                            "type": "uint256"
                        },
                        {
                            "internalType": "string",
                            "name": "toUri",
                            "type": "string"
                        },
                        {
                            "internalType": "bytes32",
                            "name": "linkType",
                            "type": "bytes32"
                        }
                    ],
                    "internalType": "struct DataTypes.unlinkAnyUriData",
                    "name": "vars",
                    "type": "tuple"
                }
            ],
            "name": "unlinkAnyUri",
            "outputs": [],
            "stateMutability": "nonpayable",
            "type": "function"
        },
        {
            "inputs": [
                {
                    "components": [
                        {
                            "internalType": "uint256",
                            "name": "fromProfileId",
                            "type": "uint256"
                        },
                        {
                            "internalType": "address",
                            "name": "tokenAddress",
                            "type": "address"
                        },
                        {
                            "internalType": "uint256",
                            "name": "tokenId",
                            "type": "uint256"
                        },
                        {
                            "internalType": "bytes32",
                            "name": "linkType",
                            "type": "bytes32"
                        }
                    ],
                    "internalType": "struct DataTypes.unlinkERC721Data",
                    "name": "vars",
                    "type": "tuple"
                }
            ],
            "name": "unlinkERC721",
            "outputs": [],
            "stateMutability": "nonpayable",
            "type": "function"
        },
        {
            "inputs": [
                {
                    "components": [
                        {
                            "internalType": "uint256",
                            "name": "fromProfileId",
                            "type": "uint256"
                        },
                        {
                            "internalType": "uint256",
                            "name": "toLinkListId",
                            "type": "uint256"
                        },
                        {
                            "internalType": "bytes32",
                            "name": "linkType",
                            "type": "bytes32"
                        },
                        {
                            "internalType": "bytes",
                            "name": "data",
                            "type": "bytes"
                        }
                    ],
                    "internalType": "struct DataTypes.linkLinklistData",
                    "name": "vars",
                    "type": "tuple"
                }
            ],
            "name": "unlinkLinklist",
            "outputs": [],
            "stateMutability": "nonpayable",
            "type": "function"
        },
        {
            "inputs": [
                {
                    "components": [
                        {
                            "internalType": "uint256",
                            "name": "fromProfileId",
                            "type": "uint256"
                        },
                        {
                            "internalType": "uint256",
                            "name": "toProfileId",
                            "type": "uint256"
                        },
                        {
                            "internalType": "uint256",
                            "name": "toNoteId",
                            "type": "uint256"
                        },
                        {
                            "internalType": "bytes32",
                            "name": "linkType",
                            "type": "bytes32"
                        }
                    ],
                    "internalType": "struct DataTypes.unlinkNoteData",
                    "name": "vars",
                    "type": "tuple"
                }
            ],
            "name": "unlinkNote",
            "outputs": [],
            "stateMutability": "nonpayable",
            "type": "function"
        },
        {
            "inputs": [
                {
                    "components": [
                        {
                            "internalType": "uint256",
                            "name": "fromProfileId",
                            "type": "uint256"
                        },
                        {
                            "internalType": "uint256",
                            "name": "toProfileId",
                            "type": "uint256"
                        },
                        {
                            "internalType": "bytes32",
                            "name": "linkType",
                            "type": "bytes32"
                        }
                    ],
                    "internalType": "struct DataTypes.unlinkProfileData",
                    "name": "vars",
                    "type": "tuple"
                }
            ],
            "name": "unlinkProfile",
            "outputs": [],
            "stateMutability": "nonpayable",
            "type": "function"
        },
        {
            "inputs": [
                {
                    "internalType": "uint256",
                    "name": "fromProfileId",
                    "type": "uint256"
                },
                {
                    "components": [
                        {
                            "internalType": "uint256",
                            "name": "fromProfileId",
                            "type": "uint256"
                        },
                        {
                            "internalType": "uint256",
                            "name": "toProfileId",
                            "type": "uint256"
                        },
                        {
                            "internalType": "bytes32",
                            "name": "linkType",
                            "type": "bytes32"
                        }
                    ],
                    "internalType": "struct DataTypes.ProfileLinkStruct",
                    "name": "linkData",
                    "type": "tuple"
                },
                {
                    "internalType": "bytes32",
                    "name": "linkType",
                    "type": "bytes32"
                }
            ],
            "name": "unlinkProfileLink",
            "outputs": [],
            "stateMutability": "nonpayable",
            "type": "function"
        }
    ],
    "bytecode": "0x608060405234801561001057600080fd5b50615f8c80620000216000396000f3fe608060405234801561001057600080fd5b506004361061046a5760003560e01c80637c392b511161024c578063c053f6b811610146578063db8c198d116100c3578063ec81d19411610087578063ec81d19414610ac1578063ef0828ab14610ad4578063f08f4f6414610ae7578063f316bacd14610afa578063fe9299fb14610b0d57600080fd5b8063db8c198d14610a39578063dca2713514610a4c578063e56f2fe414610a5f578063e7a1c1c014610a72578063e985e9c514610a8557600080fd5b8063cb8e757e1161010a578063cb8e757e146109b5578063cba4f5cc146109c8578063d23b320b146109db578063d70e10c6146109ee578063db491e8014610a1957600080fd5b8063c053f6b814610958578063c2a6fe3b14610969578063c387c4531461097c578063c7009c6b1461098f578063c87b56dd146109a257600080fd5b80639864c307116101d4578063a914c76e11610198578063a914c76e146108f9578063b88d4fde1461090c578063b9ad7c7f1461091f578063b9d3284514610932578063bd5f69cb1461094557600080fd5b80639864c3071461089a5780639a4dec18146108ad578063a22cb465146108c0578063a6e6178d146108d3578063a7ccb4bf146108e657600080fd5b806386833c881161021b57806386833c88146108465780638b4ca06a1461085957806392f7070b1461086c57806395d89b411461087f57806395d9fa7d1461088757600080fd5b80637c392b51146107ed5780637daca6d01461080057806383d3717514610813578063867884e61461083357600080fd5b80632ff5b07e11610368578063515d42d2116102e55780636352211e116102a95780636352211e1461078e57806369492c97146107a157806370a08231146107b457806374f345cf146107c75780637936da0e146107da57600080fd5b8063515d42d21461072f578063570477fb146107425780635b507cfd146107555780635fb8818314610768578063628b644a1461077b57600080fd5b806340ad34d81161032c57806340ad34d8146106d057806342842e0e146106e357806342966c68146106f657806344b82a24146107095780634f6ccce71461071c57600080fd5b80632ff5b07e1461065857806331b9d08c1461066b578063327b2a031461069757806333f06ee6146106aa578063388f5083146106bd57600080fd5b80630c4dd5f2116103f657806323b872dd116103ba57806323b872dd146105f9578063251a99cf1461060c578063295cb43e1461061f57806329c301c2146106325780632f745c591461064557600080fd5b80630c4dd5f21461056e5780631316529d1461058157806318160ddd146105925780631bb4d2311461059a5780632209d145146105c357600080fd5b8063081812fc1161043d578063081812fc1461050057806308cb68ff14610513578063095ea7b3146105285780630ab6beba1461053b5780630c16de101461054e57600080fd5b806301ffc9a71461046f57806304f3bcec1461049757806305f63c8a146104c257806306fdde03146104eb575b600080fd5b61048261047d36600461491b565b610b36565b60405190151581526020015b60405180910390f35b6017546104aa906001600160a01b031681565b6040516001600160a01b03909116815260200161048e565b6104aa6104d0366004614938565b6000908152601660205260409020546001600160a01b031690565b6104f3610b61565b60405161048e91906149a9565b6104aa61050e366004614938565b610bf3565b6105266105213660046149d4565b610c8d565b005b610526610536366004614a1d565b610d26565b610526610549366004614a49565b610e3c565b61056161055c366004614aad565b610e79565b60405161048e9190614aee565b61052661057c3660046149d4565b611028565b60035b60405190815260200161048e565b600854610584565b6105846105a8366004614b6a565b6001600160a01b03166000908152600c602052604090205490565b6104aa6105d1366004614a1d565b6001600160a01b03918216600090815260106020908152604080832093835292905220541690565b610526610607366004614b87565b61108d565b61052661061a366004614a49565b6110be565b61052661062d366004614938565b61114e565b610584610640366004614bda565b61119d565b610584610653366004614a1d565b611249565b610584610666366004614c0e565b6112df565b6104aa610679366004614b6a565b6001600160a01b039081166000908152601160205260409020541690565b6105846106a5366004614c64565b6113c0565b6105266106b8366004614cb2565b611517565b6105266106cb366004614d0f565b61158b565b6105266106de366004614d43565b6115de565b6105266106f1366004614b87565b611658565b610526610704366004614938565b611673565b610584610717366004614c0e565b611710565b61058461072a366004614938565b61174d565b61052661073d366004614d5f565b6117e0565b610526610750366004614d81565b61190e565b6105266107633660046149d4565b6119ad565b610526610776366004614d0f565b611a26565b610526610789366004614db7565b611a79565b6104aa61079c366004614938565b611b57565b6105266107af366004614d0f565b611bce565b6105846107c2366004614b6a565b611c54565b6105266107d5366004614d5f565b611cdb565b6105266107e8366004614d5f565b611d52565b6105266107fb366004614cb2565b611e17565b61048261080e366004614e09565b611e7c565b610826610821366004614e5f565b612003565b60405161048e9190614f0d565b610526610841366004614d43565b6121fc565b610526610854366004614d0f565b61226c565b610584610867366004614938565b6122db565b61058461087a366004614f6f565b612347565b6104f36123db565b610526610895366004614fc0565b6123ea565b6105266108a8366004614d0f565b612470565b6105846108bb366004614c64565b6124c3565b6105266108ce366004614ffa565b6125cb565b6105266108e1366004614cb2565b6125d6565b6105846108f4366004614d0f565b61266e565b610526610907366004614d0f565b612712565b61052661091a366004615093565b61280f565b61052661092d366004614d0f565b612847565b610526610940366004615153565b6128b6565b610526610953366004615153565b61291e565b6013546001600160a01b03166104aa565b610526610977366004614d5f565b612a7b565b61048261098a366004614938565b612abd565b61052661099d366004614d81565b612aeb565b6104f36109b0366004614938565b612b41565b6105266109c3366004615153565b612be6565b6104f36109d6366004614938565b612c56565b6105266109e9366004614d0f565b612c61565b6105846109fc366004614d5f565b6000918252600d6020908152604080842092845291905290205490565b610a2c610a27366004614d5f565b612cdb565b60405161048e9190615187565b610526610a47366004614d0f565b612e14565b6104f3610a5a366004614938565b612e5e565b610526610a6d36600461519a565b612ed0565b610526610a80366004614fc0565b61302d565b610482610a93366004615254565b6001600160a01b03918216600090815260056020908152604080832093909416825291909152205460ff1690565b6104f3610acf366004614938565b613040565b610526610ae23660046149d4565b613060565b610561610af5366004614938565b6130cf565b610584610b08366004615282565b613256565b6104aa610b1b366004614938565b6000908152600f60205260409020546001600160a01b031690565b60006001600160e01b0319821663780e9d6360e01b1480610b5b5750610b5b826133b2565b92915050565b606060008054610b70906152dd565b80601f0160208091040260200160405190810160405280929190818152602001828054610b9c906152dd565b8015610be95780601f10610bbe57610100808354040283529160200191610be9565b820191906000526020600020905b815481529060010190602001808311610bcc57829003601f168201915b5050505050905090565b6000818152600260205260408120546001600160a01b0316610c715760405162461bcd60e51b815260206004820152602c60248201527f4552433732313a20617070726f76656420717565727920666f72206e6f6e657860448201526b34b9ba32b73a103a37b5b2b760a11b60648201526084015b60405180910390fd5b506000908152600460205260409020546001600160a01b031690565b73__$69db18565ecbefece480e92cc5f8fb1274$__63dfc34f25610cb46020840184614b6a565b610cc46040850160208601614b6a565b610cd16040860186615312565b60116040518663ffffffff1660e01b8152600401610cf3959493929190615381565b60006040518083038186803b158015610d0b57600080fd5b505af4158015610d1f573d6000803e3d6000fd5b5050505050565b6000610d3182611b57565b9050806001600160a01b0316836001600160a01b03161415610d9f5760405162461bcd60e51b815260206004820152602160248201527f4552433732313a20617070726f76616c20746f2063757272656e74206f776e656044820152603960f91b6064820152608401610c68565b336001600160a01b0382161480610dbb5750610dbb8133610a93565b610e2d5760405162461bcd60e51b815260206004820152603860248201527f4552433732313a20617070726f76652063616c6c6572206973206e6f74206f7760448201527f6e6572206e6f7220617070726f76656420666f7220616c6c00000000000000006064820152608401610c68565b610e378383613402565b505050565b610e768135610e516040840160208501614b6a565b836040013560405180604001604052806002815260200161060f60f31b815250613470565b50565b610e816147a5565b60008383604051610e939291906153c0565b604080519182900382206000818152600b602090815283822054808352600a82529184902060c0860190945283548552600184018054939650919493929084019190610ede906152dd565b80601f0160208091040260200160405190810160405280929190818152602001828054610f0a906152dd565b8015610f575780601f10610f2c57610100808354040283529160200191610f57565b820191906000526020600020905b815481529060010190602001808311610f3a57829003601f168201915b50505050508152602001600282018054610f70906152dd565b80601f0160208091040260200160405190810160405280929190818152602001828054610f9c906152dd565b8015610fe95780601f10610fbe57610100808354040283529160200191610fe9565b820191906000526020600020905b815481529060010190602001808311610fcc57829003601f168201915b50505091835250506003820154602082015260048201546001600160a01b03908116604083015260059092015490911660609091015295945050505050565b61103281356136f4565b73__$69db18565ecbefece480e92cc5f8fb1274$__636252159e823561105e6040850160208601614b6a565b61106b6040860186615312565b600f6040518663ffffffff1660e01b8152600401610cf39594939291906153d0565b61109733826137b4565b6110b35760405162461bcd60e51b8152600401610c68906153fb565b610e378383836138ab565b6110c88135613a52565b60135481356000818152600d60209081526040808320818701358085529083529281902054905163eb23376360e01b8152600481019490945290850135602484015260448301919091526001600160a01b039092166064820152608481019190915273__$e2c9a8f399964af47bb173600dd9e5f662$__9063eb2337639060a401610cf3565b61115781613a52565b336000818152600c602052604080822080549085905590519092839285927ff12967ee1b3d3964e16093b221f5239f61fe0191c5ce5d5f543ae891d78f66039190a45050565b60006111a98235613a52565b81356000908152600a60205260408120600301805482906111c990615462565b91829055506040516342a34a5360e01b815290915073__$2873850e5b3f5697aafc2f5cd9f27cc884$__906342a34a539061121290869085906000908190600e90600401615587565b60006040518083038186803b15801561122a57600080fd5b505af415801561123e573d6000803e3d6000fd5b509295945050505050565b600061125483611c54565b82106112b65760405162461bcd60e51b815260206004820152602b60248201527f455243373231456e756d657261626c653a206f776e657220696e646578206f7560448201526a74206f6620626f756e647360a81b6064820152608401610c68565b506001600160a01b03919091166000908152600660209081526040808320938352929052205490565b60006112eb8335613a52565b82356000908152600a6020526040812060030180546650726f66696c6560c81b9285929091829061131b90615462565b919050819055905073__$2873850e5b3f5697aafc2f5cd9f27cc884$__6342a34a53878386868a60405160200161135491815260200190565b604051602081830303815290604052600e6040518763ffffffff1660e01b8152600401611386969594939291906155cc565b60006040518083038186803b15801561139e57600080fd5b505af41580156113b2573d6000803e3d6000fd5b509298975050505050505050565b60006113cc8335613a52565b6113e66113dc6020840184614b6a565b8360200135613ad0565b6013546545524337323160d01b906000906001600160a01b0316632ea24efc826114136020880188614b6a565b6040516001600160e01b031960e085901b16815260048101929092526001600160a01b03166024820152602087013560448201526064016020604051808303816000875af1158015611469573d6000803e3d6000fd5b505050506040513d601f19601f8201168201806040525081019061148d9190615617565b85356000908152600a602052604081206003018054929350909182906114b290615462565b9182905550905073__$2873850e5b3f5697aafc2f5cd9f27cc884$__6342a34a53878386866114e460208c018c614b6a565b8b6020013560405160200161135492919060609290921b6bffffffffffffffffffffffff19168252601482015260340190565b611520836136f4565b601354604051633c17845760e11b81526001600160a01b039091169063782f08ae9061155490869086908690600401615630565b600060405180830381600087803b15801561156e57600080fd5b505af1158015611582573d6000803e3d6000fd5b50505050505050565b6115958135613a52565b60135460405163e4bb4f2360e01b815273__$e2c9a8f399964af47bb173600dd9e5f662$__9163e4bb4f2391610cf39185916001600160a01b0390911690600d906004016156a1565b6115e88135613a52565b60135460408051635cebf08d60e11b81528335600482015260208401356024820152908301356044820152606083013560648201526001600160a01b039091166084820152600d60a482015273__$e2c9a8f399964af47bb173600dd9e5f662$__9063b9d7e11a9060c401610cf3565b610e378383836040518060200160405280600081525061280f565b6000818152600a6020526040808220905161169191600101906156cf565b60408051918290039091206000818152600b6020908152838220829055858252600a9052918220828155909250906116cc60018301826147ed565b6116da6002830160006147ed565b50600060038201556004810180546001600160a01b031990811690915560059091018054909116905561170c82613b80565b5050565b600061171c8335613a52565b82356000908152600a60205260408120600301805467131a5b9adb1a5cdd60c21b9285929091829061131b90615462565b600061175860085490565b82106117bb5760405162461bcd60e51b815260206004820152602c60248201527f455243373231456e756d657261626c653a20676c6f62616c20696e646578206f60448201526b7574206f6620626f756e647360a01b6064820152608401610c68565b600882815481106117ce576117ce61576b565b90600052602060002001549050919050565b6117e981613a52565b60135460405162fba02760e01b8152600481018490526000916001600160a01b03169062fba02790602401602060405180830381865afa158015611831573d6000803e3d6000fd5b505050506040513d601f19601f820116820180604052508101906118559190615617565b601354604051631c5b266960e21b815260048101869052336024820152604481018590529192506001600160a01b03169063716c99a490606401600060405180830381600087803b1580156118a957600080fd5b505af11580156118bd573d6000803e3d6000fd5b5050506000838152600d6020908152604080832085845290915280822086905551839250849186917f94703ec1dd639b589d05fa7c0c14ee1e83b906bfb5f50642cc7ea415a81722889190a4505050565b61191783613a52565b60135482356000908152600d602090815260408083208187013584529091529081902054905163d1b430f760e01b815273__$e2c9a8f399964af47bb173600dd9e5f662$__9263d1b430f792611981928892889288926001600160a01b0390921691600401615781565b60006040518083038186803b15801561199957600080fd5b505af4158015611582573d6000803e3d6000fd5b6119b78135613a52565b73__$da066dc100670b51e733250a114f607b42$__631e2b88ba82356119e36040850160208601614b6a565b6119f06040860186615312565b86356000908152600a60205260409081902090516001600160e01b031960e088901b168152610cf39594939291906004016153d0565b611a308135613a52565b6013546040516332f107bf60e01b815273__$e2c9a8f399964af47bb173600dd9e5f662$__916332f107bf91610cf39185916001600160a01b0390911690600d906004016157ce565b611a8284613a52565b611a8c8484613bdf565b6000848152600e60209081526040808320868452909152902060050154600160a81b900460ff1615611aed5760405162461bcd60e51b815260206004820152600a602482015269139bdd19531bd8dad95960b21b6044820152606401610c68565b6000848152600e602090815260408083208684529091529020611b14906002018383614827565b50837f179143dd0d35a50f482efc003aa5b84a0c3a40d74e9cc2d7ea3053b9e8c37697848484604051611b4993929190615630565b60405180910390a250505050565b6000818152600260205260408120546001600160a01b031680610b5b5760405162461bcd60e51b815260206004820152602960248201527f4552433732313a206f776e657220717565727920666f72206e6f6e657869737460448201526832b73a103a37b5b2b760b91b6064820152608401610c68565b611be8611bde6020830183614b6a565b8260200135613c94565b73__$69db18565ecbefece480e92cc5f8fb1274$__63384afeb3611c0f6020840184614b6a565b6020840135611c246060860160408701614b6a565b611c316060870187615312565b60106040518763ffffffff1660e01b8152600401610cf39695949392919061584b565b60006001600160a01b038216611cbf5760405162461bcd60e51b815260206004820152602a60248201527f4552433732313a2062616c616e636520717565727920666f7220746865207a65604482015269726f206164647265737360b01b6064820152608401610c68565b506001600160a01b031660009081526003602052604090205490565b611ce482613a52565b611cee8282613bdf565b6000828152600e60209081526040808320848452825291829020600501805460ff60a81b1916600160a81b179055905182815283917f036469f3e73c83520cdefa197d7a9c854c2f8bc0164b82e9f2bd4aa7e150fd30910160405180910390a25050565b611d5b81613d4e565b60135460405162fba02760e01b8152600481018490526000916001600160a01b03169062fba02790602401602060405180830381865afa158015611da3573d6000803e3d6000fd5b505050506040513d601f19601f82011682018060405250810190611dc79190615617565b6000838152600d60209081526040808320848452909152808220829055519192508291849186917f5751ba9aebec2dcd504f8865b0e0c98a772403773fe528fce2fce580c9a8a1659190a4505050565b611e2083613a52565b6000838152600a60205260409020611e3c906002018383614827565b50827fc6b6b2c87fb0784186dd03398c7203c866d0ae59539fa3158aecbc86cb587a958383604051611e6f929190615892565b60405180910390a2505050565b6017546000906001600160a01b0316611e9757506001611ffc565b60175460405163599d32cd60e01b81526000916001600160a01b03169063599d32cd90611eca9088908890600401615892565b602060405180830381865afa158015611ee7573d6000803e3d6000fd5b505050506040513d601f19601f82011682018060405250810190611f0b91906158a6565b601754604051630354faeb60e41b81529192506000916001600160a01b039091169063354faeb090611f439089908990600401615892565b602060405180830381865afa158015611f60573d6000803e3d6000fd5b505050506040513d601f19601f82011682018060405250810190611f8491906158a6565b9050836001600160a01b0316826001600160a01b03161480611fb75750836001600160a01b0316816001600160a01b0316145b15611fc757600192505050611ffc565b6001600160a01b038216158015611fe557506001600160a01b038116155b15611ff557600192505050611ffc565b6000925050505b9392505050565b6000838152600a602052604090206003015460609061202b8361202686846158c3565b613dcb565b9250826001600160401b0381111561204557612045615026565b60405190808252806020026020018201604052801561207e57816020015b61206b6148ab565b8152602001906001900390816120635790505b50915080841061208e5750611ffc565b835b838110156121f357600e600087815260200190815260200160002060008281526020019081526020016000206040518061010001604052908160008201548152602001600182015481526020016002820180546120ec906152dd565b80601f0160208091040260200160405190810160405280929190818152602001828054612118906152dd565b80156121655780601f1061213a57610100808354040283529160200191612165565b820191906000526020600020905b81548152906001019060200180831161214857829003601f168201915b505050918352505060038201546001600160a01b039081166020830152600483015481166040830152600590920154918216606082015260ff600160a01b8304811615156080830152600160a81b909204909116151560a09091015283518490839081106121d5576121d561576b565b602002602001018190525080806121eb90615462565b915050612090565b50509392505050565b6122068135613a52565b60135481356000908152600d6020908152604080832060608601358452909152908190205490516317e9a8b160e31b815273__$e2c9a8f399964af47bb173600dd9e5f662$__9263bf4d458892610cf39286926001600160a01b031691906004016158da565b6122768135613a52565b60135481356000908152600d6020908152604080832081860135845290915290819020549051631a530d7760e21b815273__$e2c9a8f399964af47bb173600dd9e5f662$__9263694c35dc92610cf39286926001600160a01b03169190600401615953565b60135460405162fba02760e01b8152600481018390526000916001600160a01b03169062fba02790602401602060405180830381865afa158015612323573d6000803e3d6000fd5b505050506040513d601f19601f82011682018060405250810190610b5b9190615617565b60006123538335613a52565b82356000908152600a602052604081206003018054664164647265737360c81b926001600160a01b038616929091829061238c90615462565b919050819055905073__$2873850e5b3f5697aafc2f5cd9f27cc884$__6342a34a53878386868a604051602001611354919060609190911b6bffffffffffffffffffffffff1916815260140190565b606060018054610b70906152dd565b6123f382613a52565b60405163470c9bf360e11b8152600481018390526001600160a01b0382166024820152600a604482015273__$da066dc100670b51e733250a114f607b42$__90638e1937e69060640160006040518083038186803b15801561245457600080fd5b505af4158015612468573d6000803e3d6000fd5b505050505050565b61247a8135613a52565b601354604051635fe5df1d60e11b815273__$e2c9a8f399964af47bb173600dd9e5f662$__9163bfcbbe3a91610cf39185916001600160a01b0390911690600d90600401615953565b60006124cf8335613a52565b601354604051635cb46be760e01b81526000600482018190528435602483015260208501356044830152634e6f746560e01b9290916001600160a01b0390911690635cb46be7906064016020604051808303816000875af1158015612538573d6000803e3d6000fd5b505050506040513d601f19601f8201168201806040525081019061255c9190615617565b85356000908152600a6020526040812060030180549293509091829061258190615462565b919050819055905073__$2873850e5b3f5697aafc2f5cd9f27cc884$__6342a34a53878386868a600001358b60200135604051602001611354929190918252602082015260400190565b61170c338383613de1565b6125df83613a52565b6125ed828261080e86611b57565b61262d5760405162461bcd60e51b815260206004820152601160248201527048616e646c654e6f74456c696769626c6560781b6044820152606401610c68565b60405163c57cb53760e01b815273__$da066dc100670b51e733250a114f607b42$__9063c57cb5379061198190869086908690600b90600a90600401615966565b600061267f82356020840135613bdf565b73__$2873850e5b3f5697aafc2f5cd9f27cc884$__6379b8a998833560208501356126b06060870160408801614b6a565b6126bd6060880188615312565b6014546040516001600160e01b031960e089901b1681526126f59695949392916001600160a01b031690600a90600e90600401615994565b602060405180830381865af4158015612323573d6000803e3d6000fd5b61271c8135613a52565b6127298160200135613eb0565b73__$e2c9a8f399964af47bb173600dd9e5f662$__634fcfb9b082356020840135604085013561275c6060870187615312565b6040516331a9108f60e11b8152883560048201523090636352211e90602401602060405180830381865afa158015612798573d6000803e3d6000fd5b505050506040513d601f19601f820116820180604052508101906127bc91906158a6565b6013546020808b01356000908152600a9091526040908190206005015490516001600160e01b031960e08b901b168152610cf3989796959493926001600160a01b03908116921690600d906004016159e2565b61281933836137b4565b6128355760405162461bcd60e51b8152600401610c68906153fb565b61284184848484613f07565b50505050565b6128518135613a52565b60135481356000908152600d60209081526040808320818601358452909152908190205490516352bff63d60e01b815273__$e2c9a8f399964af47bb173600dd9e5f662$__926352bff63d92610cf39286926001600160a01b031691906004016156a1565b6128c08135613a52565b6128d281602001358260400135613bdf565b601354604051631619823f60e31b815273__$e2c9a8f399964af47bb173600dd9e5f662$__9163b0cc11f891610cf39185916001600160a01b0390911690600e90600d90600401615a3c565b61293b61292e6020830183615312565b61080e6020850185614b6a565b61297b5760405162461bcd60e51b815260206004820152601160248201527048616e646c654e6f74456c696769626c6560781b6044820152606401610c68565b601254612989906001615ab2565b6012556129a461299c6020830183614b6a565b601254613f3a565b6012546040516328837e1960e21b815273__$da066dc100670b51e733250a114f607b42$__9163a20df864916129e891859160019190600b90600a90600401615aca565b60006040518083038186803b158015612a0057600080fd5b505af4158015612a14573d6000803e3d6000fd5b50600c925060009150612a2c90506020840184614b6a565b6001600160a01b03168152602081019190915260400160002054610e7657601254600c6000612a5e6020850185614b6a565b6001600160a01b0316815260208101919091526040016000205550565b612a8482613a52565b612a8e8282613bdf565b6000918252600e602090815260408084209284529190529020600501805460ff60a01b1916600160a01b179055565b600080612ac983611b57565b6001600160a01b03166000908152600c60205260409020549290921492915050565b612af483613a52565b6013546040516327e70cd360e01b815273__$e2c9a8f399964af47bb173600dd9e5f662$__916327e70cd391611981918791879187916001600160a01b0390911690600d90600401615781565b6000818152600a60205260409020600201805460609190612b61906152dd565b80601f0160208091040260200160405190810160405280929190818152602001828054612b8d906152dd565b8015612bda5780601f10612baf57610100808354040283529160200191612bda565b820191906000526020600020905b815481529060010190602001808311612bbd57829003601f168201915b50505050509050919050565b612bf08135613a52565b612c0d612c036040830160208401614b6a565b8260400135613ad0565b601354604051638f3334ff60e01b815273__$e2c9a8f399964af47bb173600dd9e5f662$__91638f3334ff91610cf39185916001600160a01b0390911690600d90600401615bab565b6060610b5b82612b41565b612c6b8135613a52565b612c7a81356020830135613bdf565b73__$69db18565ecbefece480e92cc5f8fb1274$__6320828a0282356020840135612cab6060860160408701614b6a565b612cb86060870187615312565b600e6040518763ffffffff1660e01b8152600401610cf396959493929190615c23565b612ce36148ab565b600e60008481526020019081526020016000206000838152602001908152602001600020604051806101000160405290816000820154815260200160018201548152602001600282018054612d37906152dd565b80601f0160208091040260200160405190810160405280929190818152602001828054612d63906152dd565b8015612db05780601f10612d8557610100808354040283529160200191612db0565b820191906000526020600020905b815481529060010190602001808311612d9357829003601f168201915b505050918352505060038201546001600160a01b039081166020830152600483015481166040830152600590920154918216606082015260ff600160a01b8304811615156080830152600160a81b909204909116151560a090910152905092915050565b612e1e8135613a52565b612e2d81356020830135613bdf565b73__$69db18565ecbefece480e92cc5f8fb1274$__631f2ffb6982356020840135612cab6060860160408701614b6a565b601354604051632b05429560e21b8152600481018390526060916001600160a01b03169063ac150a5490602401600060405180830381865afa158015612ea8573d6000803e3d6000fd5b505050506040513d6000823e601f3d908101601f19168201604052610b5b9190810190615c51565b601454600160a81b900460ff16612ef457601454600160a01b900460ff1615612ef8565b303b155b612f5b5760405162461bcd60e51b815260206004820152602e60248201527f496e697469616c697a61626c653a20636f6e747261637420697320616c72656160448201526d191e481a5b9a5d1a585b1a5e995960921b6064820152608401610c68565b601454600160a81b900460ff16158015612f85576014805461ffff60a01b191661010160a01b1790555b612f9189898989614088565b601380546001600160a01b03199081166001600160a01b0388811691909117909255601480548216878416179055601580548216868416179055601780549091169184169190911790556040514281527f400175a56dd3710794078f7b9dbe8296ac94c5a248dfd51bb22ed4ab9eaa9fbf9060200160405180910390a18015613022576014805460ff60a81b191690555b505050505050505050565b613036826140d9565b61170c8282614135565b6000818152600a60205260409020600101805460609190612b61906152dd565b61306a8135613a52565b60135481356000908152600d602090815260408083208186013584529091529081902054905163bf5c00c160e01b815273__$e2c9a8f399964af47bb173600dd9e5f662$__9263bf5c00c192610cf39286926001600160a01b03169190600401615cbe565b6130d76147a5565b600a60008381526020019081526020016000206040518060c00160405290816000820154815260200160018201805461310f906152dd565b80601f016020809104026020016040519081016040528092919081815260200182805461313b906152dd565b80156131885780601f1061315d57610100808354040283529160200191613188565b820191906000526020600020905b81548152906001019060200180831161316b57829003601f168201915b505050505081526020016002820180546131a1906152dd565b80601f01602080910402602001604051908101604052809291908181526020018280546131cd906152dd565b801561321a5780601f106131ef5761010080835404028352916020019161321a565b820191906000526020600020905b8154815290600101906020018083116131fd57829003601f168201915b50505091835250506003820154602082015260048201546001600160a01b03908116604083015260059092015490911660609091015292915050565b60006132628435613a52565b601354604051633610bf0960e11b815265416e7955726960d01b916000916001600160a01b0390911690636c217e12906132a490849089908990600401615630565b6020604051808303816000875af11580156132c3573d6000803e3d6000fd5b505050506040513d601f19601f820116820180604052508101906132e79190615617565b86356000908152600a6020526040812060030180549293509091829061330c90615462565b919050819055905073__$2873850e5b3f5697aafc2f5cd9f27cc884$__6342a34a53888386868b8b6040516020016133459291906153c0565b604051602081830303815290604052600e6040518763ffffffff1660e01b8152600401613377969594939291906155cc565b60006040518083038186803b15801561338f57600080fd5b505af41580156133a3573d6000803e3d6000fd5b50929998505050505050505050565b60006001600160e01b031982166380ac58cd60e01b14806133e357506001600160e01b03198216635b5e139f60e01b145b80610b5b57506301ffc9a760e01b6001600160e01b0319831614610b5b565b600081815260046020526040902080546001600160a01b0319166001600160a01b038416908117909155819061343782611b57565b6001600160a01b03167f8c5be1e5ebec7d5bd14f71427d1e84f3dd0314c0f7b2291e5b200ac8c7c3b92560405160405180910390a45050565b61347984613a52565b6001600160a01b0383166000908152600c6020526040902054156134f35760405162461bcd60e51b815260206004820152602b60248201527f546172676574206164647265737320616c726561647920686173207072696d6160448201526a393c90383937b334b6329760a91b6064820152608401610c68565b600060126000815461350490615462565b918290555090506135158482613f3a565b73__$da066dc100670b51e733250a114f607b42$__63a20df8646040518060a00160405280876001600160a01b0316815260200161355d886001600160a01b03166014614199565b815260200160405180602001604052806000815250815260200160006001600160a01b0316815260200160405180602001604052806000815250815250600084600b600a6040518663ffffffff1660e01b81526004016135c1959493929190615d16565b60006040518083038186803b1580156135d957600080fd5b505af41580156135ed573d6000803e3d6000fd5b505050506001600160a01b0384166000908152600c602052604090819020829055516331a9108f60e11b81526004810186905273__$e2c9a8f399964af47bb173600dd9e5f662$__90634fcfb9b09087908490879087903090636352211e90602401602060405180830381865afa15801561366c573d6000803e3d6000fd5b505050506040513d601f19601f8201168201806040525081019061369091906158a6565b6013546040516001600160e01b031960e089901b1681526136c89695949392916001600160a01b031690600090600d90600401615da3565b60006040518083038186803b1580156136e057600080fd5b505af4158015613022573d6000803e3d6000fd5b6013546040516331a9108f60e11b8152600481018390526001600160a01b0390911690636352211e90602401602060405180830381865afa15801561373d573d6000803e3d6000fd5b505050506040513d601f19601f8201168201806040525081019061376191906158a6565b6001600160a01b0316336001600160a01b031614610e765760405162461bcd60e51b815260206004820152601060248201526f2737ba2634b735a634b9ba27bbb732b960811b6044820152606401610c68565b6000818152600260205260408120546001600160a01b031661382d5760405162461bcd60e51b815260206004820152602c60248201527f4552433732313a206f70657261746f7220717565727920666f72206e6f6e657860448201526b34b9ba32b73a103a37b5b2b760a11b6064820152608401610c68565b600061383883611b57565b9050806001600160a01b0316846001600160a01b031614806138735750836001600160a01b031661386884610bf3565b6001600160a01b0316145b806138a357506001600160a01b0380821660009081526005602090815260408083209388168352929052205460ff165b949350505050565b826001600160a01b03166138be82611b57565b6001600160a01b0316146139225760405162461bcd60e51b815260206004820152602560248201527f4552433732313a207472616e736665722066726f6d20696e636f72726563742060448201526437bbb732b960d91b6064820152608401610c68565b6001600160a01b0382166139845760405162461bcd60e51b8152602060048201526024808201527f4552433732313a207472616e7366657220746f20746865207a65726f206164646044820152637265737360e01b6064820152608401610c68565b61398f838383614334565b61399a600082613402565b6001600160a01b03831660009081526003602052604081208054600192906139c39084906158c3565b90915550506001600160a01b03821660009081526003602052604081208054600192906139f1908490615ab2565b909155505060008181526002602052604080822080546001600160a01b0319166001600160a01b0386811691821790925591518493918716917fddf252ad1be2c89b69c2b068fc378daa952ba7f163c4a11628f55a4df523b3ef91a4505050565b6000613a5d82611b57565b9050336001600160a01b0382161480613a8c57506000828152601660205260409020546001600160a01b031633145b80613ab45750326001600160a01b038216148015613ab457506015546001600160a01b031633145b61170c5760405162461bcd60e51b8152600401610c6890615dfb565b6040516331a9108f60e11b8152600481018290526001600160a01b03831690636352211e90602401602060405180830381865afa158015613b15573d6000803e3d6000fd5b505050506040513d601f19601f82011682018060405250810190613b3991906158a6565b6001600160a01b031661170c5760405162461bcd60e51b815260206004820152600f60248201526e5245433732314e6f7445786973747360881b6044820152606401610c68565b613b8a33826137b4565b613bd65760405162461bcd60e51b815260206004820152601b60248201527f4e4654426173653a204e6f744f776e65724f72417070726f76656400000000006044820152606401610c68565b610e768161439f565b6000828152600e60209081526040808320848452909152902060050154600160a01b900460ff1615613c435760405162461bcd60e51b815260206004820152600d60248201526c139bdd19525cd1195b195d1959609a1b6044820152606401610c68565b6000828152600a602052604090206003015481111561170c5760405162461bcd60e51b815260206004820152600d60248201526c4e6f74654e6f7445786973747360981b6044820152606401610c68565b6040516331a9108f60e11b8152600481018290526001600160a01b03831690636352211e90602401602060405180830381865afa158015613cd9573d6000803e3d6000fd5b505050506040513d601f19601f82011682018060405250810190613cfd91906158a6565b6001600160a01b0316336001600160a01b03161461170c5760405162461bcd60e51b815260206004820152600e60248201526d2737ba22a9219b9918a7bbb732b960911b6044820152606401610c68565b6000613d5982611b57565b9050336001600160a01b0382161480613d8857506000828152601660205260409020546001600160a01b031633145b80613ab45750326001600160a01b038216148015613ab457506013546001600160a01b0316331461170c5760405162461bcd60e51b8152600401610c6890615dfb565b6000818310613dda5781611ffc565b5090919050565b816001600160a01b0316836001600160a01b03161415613e435760405162461bcd60e51b815260206004820152601960248201527f4552433732313a20617070726f766520746f2063616c6c6572000000000000006044820152606401610c68565b6001600160a01b03838116600081815260056020908152604080832094871680845294825291829020805460ff191686151590811790915591519182527f17307eab39ab6107e8899845ad3d59bd9653f200f220920489ca2b5937696c31910160405180910390a3505050565b6000818152600260205260409020546001600160a01b0316610e765760405162461bcd60e51b815260206004820152601060248201526f50726f66696c654e6f7445786973747360801b6044820152606401610c68565b613f128484846138ab565b613f1e84848484614446565b6128415760405162461bcd60e51b8152600401610c6890615e24565b6001600160a01b038216613f905760405162461bcd60e51b815260206004820181905260248201527f4552433732313a206d696e7420746f20746865207a65726f20616464726573736044820152606401610c68565b6000818152600260205260409020546001600160a01b031615613ff55760405162461bcd60e51b815260206004820152601c60248201527f4552433732313a20746f6b656e20616c7265616479206d696e746564000000006044820152606401610c68565b61400160008383614334565b6001600160a01b038216600090815260036020526040812080546001929061402a908490615ab2565b909155505060008181526002602052604080822080546001600160a01b0319166001600160a01b03861690811790915590518392907fddf252ad1be2c89b69c2b068fc378daa952ba7f163c4a11628f55a4df523b3ef908290a45050565b61409484848484614544565b7f414cd0b34676984f09a5f76ce9718d4062e50283abe0e7e274a9a5b4e0c99c3084848484426040516140cb959493929190615e76565b60405180910390a150505050565b60006140e482611b57565b9050336001600160a01b0382161480613ab45750326001600160a01b038216148015613ab457506015546001600160a01b0316331461170c5760405162461bcd60e51b8152600401610c6890615dfb565b60008281526016602090815260409182902080546001600160a01b0319166001600160a01b038516908117909155915142815284917f691b92a93c526c4f5a357e56a33c33f6250f94e19e6c49be805800615c414931910160405180910390a35050565b606060006141a8836002615eb0565b6141b3906002615ab2565b6001600160401b038111156141ca576141ca615026565b6040519080825280601f01601f1916602001820160405280156141f4576020820181803683370190505b509050600360fc1b8160008151811061420f5761420f61576b565b60200101906001600160f81b031916908160001a905350600f60fb1b8160018151811061423e5761423e61576b565b60200101906001600160f81b031916908160001a9053506000614262846002615eb0565b61426d906001615ab2565b90505b60018111156142e5576f181899199a1a9b1b9c1cb0b131b232b360811b85600f16601081106142a1576142a161576b565b1a60f81b8282815181106142b7576142b761576b565b60200101906001600160f81b031916908160001a90535060049490941c936142de81615ecf565b9050614270565b508315611ffc5760405162461bcd60e51b815260206004820181905260248201527f537472696e67733a20686578206c656e67746820696e73756666696369656e746044820152606401610c68565b6000818152601660205260409020546001600160a01b03161561435c5761435c816000614135565b6001600160a01b0383166000908152600c602052604090205415614394576001600160a01b0383166000908152600c60205260408120555b610e3783838361455d565b60006143aa82611b57565b90506143b881600084614334565b6143c3600083613402565b6001600160a01b03811660009081526003602052604081208054600192906143ec9084906158c3565b909155505060008281526002602052604080822080546001600160a01b0319169055518391906001600160a01b038416907fddf252ad1be2c89b69c2b068fc378daa952ba7f163c4a11628f55a4df523b3ef908390a45050565b60006001600160a01b0384163b1561453957604051630a85bd0160e11b81526001600160a01b0385169063150b7a029061448a903390899088908890600401615ee6565b6020604051808303816000875af19250505080156144c5575060408051601f3d908101601f191682019092526144c291810190615f23565b60015b61451f573d8080156144f3576040519150601f19603f3d011682016040523d82523d6000602084013e6144f8565b606091505b5080516145175760405162461bcd60e51b8152600401610c6890615e24565b805181602001fd5b6001600160e01b031916630a85bd0160e11b1490506138a3565b506001949350505050565b61455060008585614827565b50610d1f60018383614827565b6001600160a01b0383166145b8576145b381600880546000838152600960205260408120829055600182018355919091527ff3f7a9fe364faab93b216da50a3214154f22a0a2b415b23a84c8169e8b636ee30155565b6145db565b816001600160a01b0316836001600160a01b0316146145db576145db8382614615565b6001600160a01b0382166145f257610e37816146b2565b826001600160a01b0316826001600160a01b031614610e3757610e378282614761565b6000600161462284611c54565b61462c91906158c3565b60008381526007602052604090205490915080821461467f576001600160a01b03841660009081526006602090815260408083208584528252808320548484528184208190558352600790915290208190555b5060009182526007602090815260408084208490556001600160a01b039094168352600681528383209183525290812055565b6008546000906146c4906001906158c3565b600083815260096020526040812054600880549394509092849081106146ec576146ec61576b565b90600052602060002001549050806008838154811061470d5761470d61576b565b600091825260208083209091019290925582815260099091526040808220849055858252812055600880548061474557614745615f40565b6001900381819060005260206000200160009055905550505050565b600061476c83611c54565b6001600160a01b039093166000908152600660209081526040808320868452825280832085905593825260079052919091209190915550565b6040518060c001604052806000815260200160608152602001606081526020016000815260200160006001600160a01b0316815260200160006001600160a01b031681525090565b5080546147f9906152dd565b6000825580601f10614809575050565b601f016020900490600052602060002090810190610e7691906148f0565b828054614833906152dd565b90600052602060002090601f016020900481019282614855576000855561489b565b82601f1061486e5782800160ff1982351617855561489b565b8280016001018555821561489b579182015b8281111561489b578235825591602001919060010190614880565b506148a79291506148f0565b5090565b604080516101008101825260008082526020820181905260609282018390529181018290526080810182905260a0810182905260c0810182905260e081019190915290565b5b808211156148a757600081556001016148f1565b6001600160e01b031981168114610e7657600080fd5b60006020828403121561492d57600080fd5b8135611ffc81614905565b60006020828403121561494a57600080fd5b5035919050565b60005b8381101561496c578181015183820152602001614954565b838111156128415750506000910152565b60008151808452614995816020860160208601614951565b601f01601f19169290920160200192915050565b602081526000611ffc602083018461497d565b6000606082840312156149ce57600080fd5b50919050565b6000602082840312156149e657600080fd5b81356001600160401b038111156149fc57600080fd5b6138a3848285016149bc565b6001600160a01b0381168114610e7657600080fd5b60008060408385031215614a3057600080fd5b8235614a3b81614a08565b946020939093013593505050565b600060608284031215614a5b57600080fd5b611ffc83836149bc565b60008083601f840112614a7757600080fd5b5081356001600160401b03811115614a8e57600080fd5b602083019150836020828501011115614aa657600080fd5b9250929050565b60008060208385031215614ac057600080fd5b82356001600160401b03811115614ad657600080fd5b614ae285828601614a65565b90969095509350505050565b60208152815160208201526000602083015160c06040840152614b1460e084018261497d565b90506040840151601f19848303016060850152614b31828261497d565b91505060608401516080840152608084015160018060a01b0380821660a08601528060a08701511660c086015250508091505092915050565b600060208284031215614b7c57600080fd5b8135611ffc81614a08565b600080600060608486031215614b9c57600080fd5b8335614ba781614a08565b92506020840135614bb781614a08565b929592945050506040919091013590565b600060e082840312156149ce57600080fd5b600060208284031215614bec57600080fd5b81356001600160401b03811115614c0257600080fd5b6138a384828501614bc8565b60008060408385031215614c2157600080fd5b82356001600160401b03811115614c3757600080fd5b614c4385828601614bc8565b95602094909401359450505050565b6000604082840312156149ce57600080fd5b60008060608385031215614c7757600080fd5b82356001600160401b03811115614c8d57600080fd5b614c9985828601614bc8565b925050614ca98460208501614c52565b90509250929050565b600080600060408486031215614cc757600080fd5b8335925060208401356001600160401b03811115614ce457600080fd5b614cf086828701614a65565b9497909650939450505050565b6000608082840312156149ce57600080fd5b600060208284031215614d2157600080fd5b81356001600160401b03811115614d3757600080fd5b6138a384828501614cfd565b600060808284031215614d5557600080fd5b611ffc8383614cfd565b60008060408385031215614d7257600080fd5b50508035926020909101359150565b600080600060a08486031215614d9657600080fd5b83359250614da785602086016149bc565b9150608084013590509250925092565b60008060008060608587031215614dcd57600080fd5b843593506020850135925060408501356001600160401b03811115614df157600080fd5b614dfd87828801614a65565b95989497509550505050565b600080600060408486031215614e1e57600080fd5b83356001600160401b03811115614e3457600080fd5b614e4086828701614a65565b9094509250506020840135614e5481614a08565b809150509250925092565b600080600060608486031215614e7457600080fd5b505081359360208301359350604090920135919050565b600061010082518452602083015160208501526040830151816040860152614eb58286018261497d565b915050606083015160018060a01b0380821660608701528060808601511660808701528060a08601511660a0870152505060c0830151151560c085015260e0830151614f0560e086018215159052565b509392505050565b6000602080830181845280855180835260408601915060408160051b870101925083870160005b82811015614f6257603f19888603018452614f50858351614e8b565b94509285019290850190600101614f34565b5092979650505050505050565b60008060408385031215614f8257600080fd5b82356001600160401b03811115614f9857600080fd5b614fa485828601614bc8565b9250506020830135614fb581614a08565b809150509250929050565b60008060408385031215614fd357600080fd5b823591506020830135614fb581614a08565b80358015158114614ff557600080fd5b919050565b6000806040838503121561500d57600080fd5b823561501881614a08565b9150614ca960208401614fe5565b634e487b7160e01b600052604160045260246000fd5b604051601f8201601f191681016001600160401b038111828210171561506457615064615026565b604052919050565b60006001600160401b0382111561508557615085615026565b50601f01601f191660200190565b600080600080608085870312156150a957600080fd5b84356150b481614a08565b935060208501356150c481614a08565b92506040850135915060608501356001600160401b038111156150e657600080fd5b8501601f810187136150f757600080fd5b803561510a6151058261506c565b61503c565b81815288602083850101111561511f57600080fd5b8160208401602083013760006020838301015280935050505092959194509250565b600060a082840312156149ce57600080fd5b60006020828403121561516557600080fd5b81356001600160401b0381111561517b57600080fd5b6138a384828501615141565b602081526000611ffc6020830184614e8b565b60008060008060008060008060c0898b0312156151b657600080fd5b88356001600160401b03808211156151cd57600080fd5b6151d98c838d01614a65565b909a50985060208b01359150808211156151f257600080fd5b506151ff8b828c01614a65565b909750955050604089013561521381614a08565b9350606089013561522381614a08565b9250608089013561523381614a08565b915060a089013561524381614a08565b809150509295985092959890939650565b6000806040838503121561526757600080fd5b823561527281614a08565b91506020830135614fb581614a08565b60008060006040848603121561529757600080fd5b83356001600160401b03808211156152ae57600080fd5b6152ba87838801614bc8565b945060208601359150808211156152d057600080fd5b50614cf086828701614a65565b600181811c908216806152f157607f821691505b602082108114156149ce57634e487b7160e01b600052602260045260246000fd5b6000808335601e1984360301811261532957600080fd5b8301803591506001600160401b0382111561534357600080fd5b602001915036819003821315614aa657600080fd5b81835281816020850137506000828201602090810191909152601f909101601f19169091010190565b6001600160a01b038681168252851660208201526080604082018190526000906153ae9083018587615358565b90508260608301529695505050505050565b8183823760009101908152919050565b8581526001600160a01b03851660208201526080604082018190526000906153ae9083018587615358565b60208082526031908201527f4552433732313a207472616e736665722063616c6c6572206973206e6f74206f6040820152701ddb995c881b9bdc88185c1c1c9bdd9959607a1b606082015260800190565b634e487b7160e01b600052601160045260246000fd5b60006000198214156154765761547661544c565b5060010190565b6000808335601e1984360301811261549457600080fd5b83016020810192503590506001600160401b038111156154b357600080fd5b803603831315614aa657600080fd5b8035825260006154d5602083018361547d565b60e060208601526154ea60e086018284615358565b91505060408301356154fb81614a08565b6001600160a01b038181166040870152615518606086018661547d565b9250868403606088015261552d848483615358565b9350506080850135915061554082614a08565b16608085015261555360a084018461547d565b85830360a0870152615566838284615358565b9250505061557660c08401614fe5565b151560c08501528091505092915050565b60c08152600061559a60c08301886154c2565b602083810197909752604083019590955250606081019290925281830360808301526000835260a09091015201919050565b60c0815260006155df60c08301896154c2565b8760208401528660408401528560608401528281036080840152615603818661497d565b9150508260a0830152979650505050505050565b60006020828403121561562957600080fd5b5051919050565b83815260406020820152600061564a604083018486615358565b95945050505050565b803582526000602082013561566781614a08565b6001600160a01b031660208401526040828101359084015261568c606083018361547d565b6080606086015261564a608086018284615358565b6060815260006156b46060830186615653565b6001600160a01b039490941660208301525060400152919050565b600080835481600182811c9150808316806156eb57607f831692505b602080841082141561570b57634e487b7160e01b86526022600452602486fd5b81801561571f57600181146157305761575d565b60ff1986168952848901965061575d565b60008a81526020902060005b868110156157555781548b82015290850190830161573c565b505084890196505b509498975050505050505050565b634e487b7160e01b600052603260045260246000fd5b85815260e081016157a960208301878035825260208082013590830152604090810135910152565b60808201949094526001600160a01b039290921660a083015260c09091015292915050565b606081528335606082015260006157e8602086018661547d565b6080808501526157fc60e085018284615358565b915050604086013560a0840152615816606087018761547d565b848303605f190160c086015261582d838284615358565b6001600160a01b039790971660208601525050505060400152919050565b6001600160a01b038781168252602082018790528516604082015260a06060820181905260009061587f9083018587615358565b9050826080830152979650505050505050565b6020815260006138a3602083018486615358565b6000602082840312156158b857600080fd5b8151611ffc81614a08565b6000828210156158d5576158d561544c565b500390565b8335815260c0810160208501356158f081614a08565b6001600160a01b039081166020840152604086810135908401526060958601359583019590955292909316608084015260a09092019190915290565b803582526020810135602083015260408101356040830152600061568c606083018361547d565b6060815260006156b4606083018661592c565b858152608060208201526000615980608083018688615358565b604083019490945250606001529392505050565b888152876020820152600060018060a01b03808916604084015260e060608401526159c360e08401888a615358565b951660808301525060a081019290925260c09091015295945050505050565b60006101008b83528a6020840152896040840152806060840152615a09818401898b615358565b6001600160a01b03978816608085015295871660a084015250509190931660c082015260e0019190915295945050505050565b6080815284356080820152602085013560a0820152604085013560c0820152606085013560e08201526000615a74608087018761547d565b60a0610100850152615a8b61012085018284615358565b6001600160a01b039790971660208501525050506040810192909252606090910152919050565b60008219821115615ac557615ac561544c565b500190565b60a0815260008635615adb81614a08565b6001600160a01b0381811660a0850152615af860208a018a61547d565b925060a060c0860152615b1061014086018483615358565b925050615b2060408a018a61547d565b609f19808786030160e0880152615b38858385615358565b945060608c01359250615b4a83614a08565b838316610100880152615b6060808d018d61547d565b9450925080878603016101208801525050615b7c838383615358565b9350505050615b8f602083018715159052565b8460408301528360608301528260808301529695505050505050565b606081528335606082015260006020850135615bc681614a08565b60018060a01b038082166080850152604087013560a0850152606087013560c0850152615bf6608088018861547d565b925060a060e0860152615c0e61010086018483615358565b96909116602085015250505060400152919050565b86815285602082015260018060a01b038516604082015260a06060820152600061587f60a083018587615358565b600060208284031215615c6357600080fd5b81516001600160401b03811115615c7957600080fd5b8201601f81018413615c8a57600080fd5b8051615c986151058261506c565b818152856020838501011115615cad57600080fd5b61564a826020830160208601614951565b60608152833560608201526000615cd8602086018661547d565b60606080850152615ced60c085018284615358565b60409788013560a08601526001600160a01b039690961660208501525050509092019190915290565b60a08152600060018060a01b038088511660a0840152602088015160a060c0850152615d4661014085018261497d565b90506040890151609f19808684030160e0870152615d64838361497d565b92508360608c01511661010087015260808b0151935080868403016101208701525050615d91818361497d565b92505050615b8f602083018715159052565b60006101008a8352896020840152886040840152806060840152615dc98184018961497d565b6001600160a01b03978816608085015295871660a084015250509190931660c082015260e00191909152949350505050565b6020808252600f908201526e2737ba283937b334b632a7bbb732b960891b604082015260600190565b60208082526032908201527f4552433732313a207472616e7366657220746f206e6f6e20455243373231526560408201527131b2b4bb32b91034b6b83632b6b2b73a32b960711b606082015260800190565b606081526000615e8a606083018789615358565b8281036020840152615e9d818688615358565b9150508260408301529695505050505050565b6000816000190483118215151615615eca57615eca61544c565b500290565b600081615ede57615ede61544c565b506000190190565b6001600160a01b0385811682528416602082015260408101839052608060608201819052600090615f199083018461497d565b9695505050505050565b600060208284031215615f3557600080fd5b8151611ffc81614905565b634e487b7160e01b600052603160045260246000fdfea264697066735822122070eeb3e6ffff522b756b34595cb55d8f337182c02d74fa585b0074ad7de9abd264736f6c634300080a0033",
    "linkReferences": {
        "contracts/libraries/LinkLogic.sol": {
            "LinkLogic": [
                {
                    "length": 20,
                    "start": 4429
                },
                {
                    "length": 20,
                    "start": 5576
                },
                {
                    "length": 20,
                    "start": 5719
                },
                {
                    "length": 20,
                    "start": 6506
                },
                {
                    "length": 20,
                    "start": 6755
                },
                {
                    "length": 20,
                    "start": 8794
                },
                {
                    "length": 20,
                    "start": 8905
                },
                {
                    "length": 20,
                    "start": 9389
                },
                {
                    "length": 20,
                    "start": 10060
                },
                {
                    "length": 20,
                    "start": 10404
                },
                {
                    "length": 20,
                    "start": 10501
                },
                {
                    "length": 20,
                    "start": 11047
                },
                {
                    "length": 20,
                    "start": 11328
                },
                {
                    "length": 20,
                    "start": 12477
                },
                {
                    "length": 20,
                    "start": 13891
                }
            ]
        },
        "contracts/libraries/LinkModuleLogic.sol": {
            "LinkModuleLogic": [
                {
                    "length": 20,
                    "start": 3248
                },
                {
                    "length": 20,
                    "start": 4181
                },
                {
                    "length": 20,
                    "start": 7179
                },
                {
                    "length": 20,
                    "start": 11421
                },
                {
                    "length": 20,
                    "start": 11856
                }
            ]
        },
        "contracts/libraries/PostLogic.sol": {
            "PostLogic": [
                {
                    "length": 20,
                    "start": 4609
                },
                {
                    "length": 20,
                    "start": 4934
                },
                {
                    "length": 20,
                    "start": 5340
                },
                {
                    "length": 20,
                    "start": 9143
                },
                {
                    "length": 20,
                    "start": 9644
                },
                {
                    "length": 20,
                    "start": 9890
                },
                {
                    "length": 20,
                    "start": 13111
                }
            ]
        },
        "contracts/libraries/ProfileLogic.sol": {
            "ProfileLogic": [
                {
                    "length": 20,
                    "start": 6618
                },
                {
                    "length": 20,
                    "start": 9280
                },
                {
                    "length": 20,
                    "start": 9821
                },
                {
                    "length": 20,
                    "start": 10711
                },
                {
                    "length": 20,
                    "start": 13624
                }
            ]
        }
    },
    "deployedLinkReferences": {
        "contracts/libraries/LinkLogic.sol": {
            "LinkLogic": [
                {
                    "length": 20,
                    "start": 4396
                },
                {
                    "length": 20,
                    "start": 5543
                },
                {
                    "length": 20,
                    "start": 5686
                },
                {
                    "length": 20,
                    "start": 6473
                },
                {
                    "length": 20,
                    "start": 6722
                },
                {
                    "length": 20,
                    "start": 8761
                },
                {
                    "length": 20,
                    "start": 8872
                },
                {
                    "length": 20,
                    "start": 9356
                },
                {
                    "length": 20,
                    "start": 10027
                },
                {
                    "length": 20,
                    "start": 10371
                },
                {
                    "length": 20,
                    "start": 10468
                },
                {
                    "length": 20,
                    "start": 11014
                },
                {
                    "length": 20,
                    "start": 11295
                },
                {
                    "length": 20,
                    "start": 12444
                },
                {
                    "length": 20,
                    "start": 13858
                }
            ]
        },
        "contracts/libraries/LinkModuleLogic.sol": {
            "LinkModuleLogic": [
                {
                    "length": 20,
                    "start": 3215
                },
                {
                    "length": 20,
                    "start": 4148
                },
                {
                    "length": 20,
                    "start": 7146
                },
                {
                    "length": 20,
                    "start": 11388
                },
                {
                    "length": 20,
                    "start": 11823
                }
            ]
        },
        "contracts/libraries/PostLogic.sol": {
            "PostLogic": [
                {
                    "length": 20,
                    "start": 4576
                },
                {
                    "length": 20,
                    "start": 4901
                },
                {
                    "length": 20,
                    "start": 5307
                },
                {
                    "length": 20,
                    "start": 9110
                },
                {
                    "length": 20,
                    "start": 9611
                },
                {
                    "length": 20,
                    "start": 9857
                },
                {
                    "length": 20,
                    "start": 13078
                }
            ]
        },
        "contracts/libraries/ProfileLogic.sol": {
            "ProfileLogic": [
                {
                    "length": 20,
                    "start": 6585
                },
                {
                    "length": 20,
                    "start": 9247
                },
                {
                    "length": 20,
                    "start": 9788
                },
                {
                    "length": 20,
                    "start": 10678
                },
                {
                    "length": 20,
                    "start": 13591
                }
            ]
        }
    }
}