{
    "_format": "hh-sol-artifact-1",
    "contractName": "Web3Entry",
    "sourceName": "contracts/Web3Entry.sol",
    "abi": [
        {
            "anonymous": false,
            "inputs": [
                {
                    "indexed": true,
                    "internalType": "address",
                    "name": "owner",
                    "type": "address"
                },
                {
                    "indexed": true,
                    "internalType": "address",
                    "name": "approved",
                    "type": "address"
                },
                {
                    "indexed": true,
                    "internalType": "uint256",
                    "name": "tokenId",
                    "type": "uint256"
                }
            ],
            "name": "Approval",
            "type": "event"
        },
        {
            "anonymous": false,
            "inputs": [
                {
                    "indexed": true,
                    "internalType": "address",
                    "name": "owner",
                    "type": "address"
                },
                {
                    "indexed": true,
                    "internalType": "address",
                    "name": "operator",
                    "type": "address"
                },
                {
                    "indexed": false,
                    "internalType": "bool",
                    "name": "approved",
                    "type": "bool"
                }
            ],
            "name": "ApprovalForAll",
            "type": "event"
        },
        {
            "anonymous": false,
            "inputs": [
                {
                    "indexed": true,
                    "internalType": "address",
                    "name": "from",
                    "type": "address"
                },
                {
                    "indexed": true,
                    "internalType": "address",
                    "name": "to",
                    "type": "address"
                },
                {
                    "indexed": true,
                    "internalType": "uint256",
                    "name": "tokenId",
                    "type": "uint256"
                }
            ],
            "name": "Transfer",
            "type": "event"
        },
        {
            "inputs": [
                {
                    "internalType": "address",
                    "name": "to",
                    "type": "address"
                },
                {
                    "internalType": "uint256",
                    "name": "tokenId",
                    "type": "uint256"
                }
            ],
            "name": "approve",
            "outputs": [],
            "stateMutability": "nonpayable",
            "type": "function"
        },
        {
            "inputs": [
                {
                    "internalType": "uint256",
                    "name": "linklistId",
                    "type": "uint256"
                },
                {
                    "internalType": "uint256",
                    "name": "characterId",
                    "type": "uint256"
                }
            ],
            "name": "attachLinklist",
            "outputs": [],
            "stateMutability": "nonpayable",
            "type": "function"
        },
        {
            "inputs": [
                {
                    "internalType": "address",
                    "name": "owner",
                    "type": "address"
                }
            ],
            "name": "balanceOf",
            "outputs": [
                {
                    "internalType": "uint256",
                    "name": "",
                    "type": "uint256"
                }
            ],
            "stateMutability": "view",
            "type": "function"
        },
        {
            "inputs": [
                {
                    "internalType": "uint256",
                    "name": "tokenId",
                    "type": "uint256"
                }
            ],
            "name": "burn",
            "outputs": [],
            "stateMutability": "nonpayable",
            "type": "function"
        },
        {
            "inputs": [
                {
                    "internalType": "string",
                    "name": "handle",
                    "type": "string"
                },
                {
                    "internalType": "address",
                    "name": "account",
                    "type": "address"
                }
            ],
            "name": "canCreate",
            "outputs": [
                {
                    "internalType": "bool",
                    "name": "",
                    "type": "bool"
                }
            ],
            "stateMutability": "view",
            "type": "function"
        },
        {
            "inputs": [
                {
                    "components": [
                        {
                            "internalType": "address",
                            "name": "to",
                            "type": "address"
                        },
                        {
                            "internalType": "string",
                            "name": "handle",
                            "type": "string"
                        },
                        {
                            "internalType": "string",
                            "name": "uri",
                            "type": "string"
                        },
                        {
                            "internalType": "address",
                            "name": "linkModule",
                            "type": "address"
                        },
                        {
                            "internalType": "bytes",
                            "name": "linkModuleInitData",
                            "type": "bytes"
                        }
                    ],
                    "internalType": "struct DataTypes.CreateCharacterData",
                    "name": "vars",
                    "type": "tuple"
                }
            ],
            "name": "createCharacter",
            "outputs": [],
            "stateMutability": "nonpayable",
            "type": "function"
        },
        {
            "inputs": [
                {
                    "components": [
                        {
                            "internalType": "uint256",
                            "name": "fromCharacterId",
                            "type": "uint256"
                        },
                        {
                            "internalType": "address",
                            "name": "to",
                            "type": "address"
                        },
                        {
                            "internalType": "bytes32",
                            "name": "linkType",
                            "type": "bytes32"
                        }
                    ],
                    "internalType": "struct DataTypes.createThenLinkCharacterData",
                    "name": "vars",
                    "type": "tuple"
                }
            ],
            "name": "createThenLinkCharacter",
            "outputs": [],
            "stateMutability": "nonpayable",
            "type": "function"
        },
        {
            "inputs": [
                {
                    "internalType": "uint256",
                    "name": "characterId",
                    "type": "uint256"
                },
                {
                    "internalType": "uint256",
                    "name": "noteId",
                    "type": "uint256"
                }
            ],
            "name": "deleteNote",
            "outputs": [],
            "stateMutability": "nonpayable",
            "type": "function"
        },
        {
            "inputs": [
                {
                    "internalType": "uint256",
                    "name": "linklistId",
                    "type": "uint256"
                },
                {
                    "internalType": "uint256",
                    "name": "characterId",
                    "type": "uint256"
                }
            ],
            "name": "detachLinklist",
            "outputs": [],
            "stateMutability": "nonpayable",
            "type": "function"
        },
        {
            "inputs": [
                {
                    "internalType": "uint256",
                    "name": "tokenId",
                    "type": "uint256"
                }
            ],
            "name": "getApproved",
            "outputs": [
                {
                    "internalType": "address",
                    "name": "",
                    "type": "address"
                }
            ],
            "stateMutability": "view",
            "type": "function"
        },
        {
            "inputs": [
                {
                    "internalType": "uint256",
                    "name": "characterId",
                    "type": "uint256"
                }
            ],
            "name": "getCharacter",
            "outputs": [
                {
                    "components": [
                        {
                            "internalType": "uint256",
                            "name": "characterId",
                            "type": "uint256"
                        },
                        {
                            "internalType": "string",
                            "name": "handle",
                            "type": "string"
                        },
                        {
                            "internalType": "string",
                            "name": "uri",
                            "type": "string"
                        },
                        {
                            "internalType": "uint256",
                            "name": "noteCount",
                            "type": "uint256"
                        },
                        {
                            "internalType": "address",
                            "name": "socialToken",
                            "type": "address"
                        },
                        {
                            "internalType": "address",
                            "name": "linkModule",
                            "type": "address"
                        }
                    ],
                    "internalType": "struct DataTypes.Character",
                    "name": "",
                    "type": "tuple"
                }
            ],
            "stateMutability": "view",
            "type": "function"
        },
        {
            "inputs": [
                {
                    "internalType": "string",
                    "name": "handle",
                    "type": "string"
                }
            ],
            "name": "getCharacterByHandle",
            "outputs": [
                {
                    "components": [
                        {
                            "internalType": "uint256",
                            "name": "characterId",
                            "type": "uint256"
                        },
                        {
                            "internalType": "string",
                            "name": "handle",
                            "type": "string"
                        },
                        {
                            "internalType": "string",
                            "name": "uri",
                            "type": "string"
                        },
                        {
                            "internalType": "uint256",
                            "name": "noteCount",
                            "type": "uint256"
                        },
                        {
                            "internalType": "address",
                            "name": "socialToken",
                            "type": "address"
                        },
                        {
                            "internalType": "address",
                            "name": "linkModule",
                            "type": "address"
                        }
                    ],
                    "internalType": "struct DataTypes.Character",
                    "name": "",
                    "type": "tuple"
                }
            ],
            "stateMutability": "view",
            "type": "function"
        },
        {
            "inputs": [
                {
                    "internalType": "uint256",
                    "name": "characterId",
                    "type": "uint256"
                }
            ],
            "name": "getCharacterUri",
            "outputs": [
                {
                    "internalType": "string",
                    "name": "",
                    "type": "string"
                }
            ],
            "stateMutability": "view",
            "type": "function"
        },
        {
            "inputs": [
                {
                    "internalType": "uint256",
                    "name": "characterId",
                    "type": "uint256"
                }
            ],
            "name": "getHandle",
            "outputs": [
                {
                    "internalType": "string",
                    "name": "",
                    "type": "string"
                }
            ],
            "stateMutability": "view",
            "type": "function"
        },
        {
            "inputs": [
                {
                    "internalType": "address",
                    "name": "account",
                    "type": "address"
                }
            ],
            "name": "getLinkModule4Address",
            "outputs": [
                {
                    "internalType": "address",
                    "name": "",
                    "type": "address"
                }
            ],
            "stateMutability": "view",
            "type": "function"
        },
        {
            "inputs": [
                {
                    "internalType": "address",
                    "name": "tokenAddress",
                    "type": "address"
                },
                {
                    "internalType": "uint256",
                    "name": "tokenId",
                    "type": "uint256"
                }
            ],
            "name": "getLinkModule4ERC721",
            "outputs": [
                {
                    "internalType": "address",
                    "name": "",
                    "type": "address"
                }
            ],
            "stateMutability": "view",
            "type": "function"
        },
        {
            "inputs": [
                {
                    "internalType": "uint256",
                    "name": "tokenId",
                    "type": "uint256"
                }
            ],
            "name": "getLinkModule4Linklist",
            "outputs": [
                {
                    "internalType": "address",
                    "name": "",
                    "type": "address"
                }
            ],
            "stateMutability": "view",
            "type": "function"
        },
        {
            "inputs": [],
            "name": "getLinklistContract",
            "outputs": [
                {
                    "internalType": "address",
                    "name": "",
                    "type": "address"
                }
            ],
            "stateMutability": "view",
            "type": "function"
        },
        {
            "inputs": [
                {
                    "internalType": "uint256",
                    "name": "characterId",
                    "type": "uint256"
                },
                {
                    "internalType": "bytes32",
                    "name": "linkType",
                    "type": "bytes32"
                }
            ],
            "name": "getLinklistId",
            "outputs": [
                {
                    "internalType": "uint256",
                    "name": "",
                    "type": "uint256"
                }
            ],
            "stateMutability": "view",
            "type": "function"
        },
        {
            "inputs": [
                {
                    "internalType": "uint256",
                    "name": "linkListId",
                    "type": "uint256"
                }
            ],
            "name": "getLinklistType",
            "outputs": [
                {
                    "internalType": "bytes32",
                    "name": "",
                    "type": "bytes32"
                }
            ],
            "stateMutability": "view",
            "type": "function"
        },
        {
            "inputs": [
                {
                    "internalType": "uint256",
                    "name": "tokenId",
                    "type": "uint256"
                }
            ],
            "name": "getLinklistUri",
            "outputs": [
                {
                    "internalType": "string",
                    "name": "",
                    "type": "string"
                }
            ],
            "stateMutability": "view",
            "type": "function"
        },
        {
            "inputs": [
                {
                    "internalType": "uint256",
                    "name": "characterId",
                    "type": "uint256"
                },
                {
                    "internalType": "uint256",
                    "name": "noteId",
                    "type": "uint256"
                }
            ],
            "name": "getNote",
            "outputs": [
                {
                    "components": [
                        {
                            "internalType": "bytes32",
                            "name": "linkItemType",
                            "type": "bytes32"
                        },
                        {
                            "internalType": "bytes32",
                            "name": "linkKey",
                            "type": "bytes32"
                        },
                        {
                            "internalType": "string",
                            "name": "contentUri",
                            "type": "string"
                        },
                        {
                            "internalType": "address",
                            "name": "linkModule",
                            "type": "address"
                        },
                        {
                            "internalType": "address",
                            "name": "mintModule",
                            "type": "address"
                        },
                        {
                            "internalType": "address",
                            "name": "mintNFT",
                            "type": "address"
                        },
                        {
                            "internalType": "bool",
                            "name": "deleted",
                            "type": "bool"
                        },
                        {
                            "internalType": "bool",
                            "name": "locked",
                            "type": "bool"
                        }
                    ],
                    "internalType": "struct DataTypes.Note",
                    "name": "",
                    "type": "tuple"
                }
            ],
            "stateMutability": "view",
            "type": "function"
        },
        {
            "inputs": [
                {
                    "internalType": "uint256",
                    "name": "characterId",
                    "type": "uint256"
                }
            ],
            "name": "getOperator",
            "outputs": [
                {
                    "internalType": "address",
                    "name": "",
                    "type": "address"
                }
            ],
            "stateMutability": "view",
            "type": "function"
        },
        {
            "inputs": [
                {
                    "internalType": "address",
                    "name": "account",
                    "type": "address"
                }
            ],
            "name": "getPrimaryCharacterId",
            "outputs": [
                {
                    "internalType": "uint256",
                    "name": "",
                    "type": "uint256"
                }
            ],
            "stateMutability": "view",
            "type": "function"
        },
        {
            "inputs": [],
            "name": "getRevision",
            "outputs": [
                {
                    "internalType": "uint256",
                    "name": "",
                    "type": "uint256"
                }
            ],
            "stateMutability": "pure",
            "type": "function"
        },
        {
            "inputs": [
                {
                    "internalType": "string",
                    "name": "_name",
                    "type": "string"
                },
                {
                    "internalType": "string",
                    "name": "_symbol",
                    "type": "string"
                },
                {
                    "internalType": "address",
                    "name": "_linklistContract",
                    "type": "address"
                },
                {
                    "internalType": "address",
                    "name": "_mintNFTImpl",
                    "type": "address"
                },
                {
                    "internalType": "address",
                    "name": "_periphery",
                    "type": "address"
                },
                {
                    "internalType": "address",
                    "name": "_resolver",
                    "type": "address"
                }
            ],
            "name": "initialize",
            "outputs": [],
            "stateMutability": "nonpayable",
            "type": "function"
        },
        {
            "inputs": [
                {
                    "internalType": "address",
                    "name": "owner",
                    "type": "address"
                },
                {
                    "internalType": "address",
                    "name": "operator",
                    "type": "address"
                }
            ],
            "name": "isApprovedForAll",
            "outputs": [
                {
                    "internalType": "bool",
                    "name": "",
                    "type": "bool"
                }
            ],
            "stateMutability": "view",
            "type": "function"
        },
        {
            "inputs": [
                {
                    "internalType": "uint256",
                    "name": "characterId",
                    "type": "uint256"
                }
            ],
            "name": "isPrimaryCharacter",
            "outputs": [
                {
                    "internalType": "bool",
                    "name": "",
                    "type": "bool"
                }
            ],
            "stateMutability": "view",
            "type": "function"
        },
        {
            "inputs": [
                {
                    "components": [
                        {
                            "internalType": "uint256",
                            "name": "fromCharacterId",
                            "type": "uint256"
                        },
                        {
                            "internalType": "address",
                            "name": "ethAddress",
                            "type": "address"
                        },
                        {
                            "internalType": "bytes32",
                            "name": "linkType",
                            "type": "bytes32"
                        },
                        {
                            "internalType": "bytes",
                            "name": "data",
                            "type": "bytes"
                        }
                    ],
                    "internalType": "struct DataTypes.linkAddressData",
                    "name": "vars",
                    "type": "tuple"
                }
            ],
            "name": "linkAddress",
            "outputs": [],
            "stateMutability": "nonpayable",
            "type": "function"
        },
        {
            "inputs": [
                {
                    "components": [
                        {
                            "internalType": "uint256",
                            "name": "fromCharacterId",
                            "type": "uint256"
                        },
                        {
                            "internalType": "string",
                            "name": "toUri",
                            "type": "string"
                        },
                        {
                            "internalType": "bytes32",
                            "name": "linkType",
                            "type": "bytes32"
                        },
                        {
                            "internalType": "bytes",
                            "name": "data",
                            "type": "bytes"
                        }
                    ],
                    "internalType": "struct DataTypes.linkAnyUriData",
                    "name": "vars",
                    "type": "tuple"
                }
            ],
            "name": "linkAnyUri",
            "outputs": [],
            "stateMutability": "nonpayable",
            "type": "function"
        },
        {
            "inputs": [
                {
                    "components": [
                        {
                            "internalType": "uint256",
                            "name": "fromCharacterId",
                            "type": "uint256"
                        },
                        {
                            "internalType": "uint256",
                            "name": "toCharacterId",
                            "type": "uint256"
                        },
                        {
                            "internalType": "bytes32",
                            "name": "linkType",
                            "type": "bytes32"
                        },
                        {
                            "internalType": "bytes",
                            "name": "data",
                            "type": "bytes"
                        }
                    ],
                    "internalType": "struct DataTypes.linkCharacterData",
                    "name": "vars",
                    "type": "tuple"
                }
            ],
            "name": "linkCharacter",
            "outputs": [],
            "stateMutability": "nonpayable",
            "type": "function"
        },
        {
            "inputs": [
                {
                    "internalType": "uint256",
                    "name": "fromCharacterId",
                    "type": "uint256"
                },
                {
                    "components": [
                        {
                            "internalType": "uint256",
                            "name": "fromCharacterId",
                            "type": "uint256"
                        },
                        {
                            "internalType": "uint256",
                            "name": "toCharacterId",
                            "type": "uint256"
                        },
                        {
                            "internalType": "bytes32",
                            "name": "linkType",
                            "type": "bytes32"
                        }
                    ],
                    "internalType": "struct DataTypes.CharacterLinkStruct",
                    "name": "linkData",
                    "type": "tuple"
                },
                {
                    "internalType": "bytes32",
                    "name": "linkType",
                    "type": "bytes32"
                }
            ],
            "name": "linkCharacterLink",
            "outputs": [],
            "stateMutability": "nonpayable",
            "type": "function"
        },
        {
            "inputs": [
                {
                    "components": [
                        {
                            "internalType": "uint256",
                            "name": "fromCharacterId",
                            "type": "uint256"
                        },
                        {
                            "internalType": "address",
                            "name": "tokenAddress",
                            "type": "address"
                        },
                        {
                            "internalType": "uint256",
                            "name": "tokenId",
                            "type": "uint256"
                        },
                        {
                            "internalType": "bytes32",
                            "name": "linkType",
                            "type": "bytes32"
                        },
                        {
                            "internalType": "bytes",
                            "name": "data",
                            "type": "bytes"
                        }
                    ],
                    "internalType": "struct DataTypes.linkERC721Data",
                    "name": "vars",
                    "type": "tuple"
                }
            ],
            "name": "linkERC721",
            "outputs": [],
            "stateMutability": "nonpayable",
            "type": "function"
        },
        {
            "inputs": [
                {
                    "components": [
                        {
                            "internalType": "uint256",
                            "name": "fromCharacterId",
                            "type": "uint256"
                        },
                        {
                            "internalType": "uint256",
                            "name": "toLinkListId",
                            "type": "uint256"
                        },
                        {
                            "internalType": "bytes32",
                            "name": "linkType",
                            "type": "bytes32"
                        },
                        {
                            "internalType": "bytes",
                            "name": "data",
                            "type": "bytes"
                        }
                    ],
                    "internalType": "struct DataTypes.linkLinklistData",
                    "name": "vars",
                    "type": "tuple"
                }
            ],
            "name": "linkLinklist",
            "outputs": [],
            "stateMutability": "nonpayable",
            "type": "function"
        },
        {
            "inputs": [
                {
                    "components": [
                        {
                            "internalType": "uint256",
                            "name": "fromCharacterId",
                            "type": "uint256"
                        },
                        {
                            "internalType": "uint256",
                            "name": "toCharacterId",
                            "type": "uint256"
                        },
                        {
                            "internalType": "uint256",
                            "name": "toNoteId",
                            "type": "uint256"
                        },
                        {
                            "internalType": "bytes32",
                            "name": "linkType",
                            "type": "bytes32"
                        },
                        {
                            "internalType": "bytes",
                            "name": "data",
                            "type": "bytes"
                        }
                    ],
                    "internalType": "struct DataTypes.linkNoteData",
                    "name": "vars",
                    "type": "tuple"
                }
            ],
            "name": "linkNote",
            "outputs": [],
            "stateMutability": "nonpayable",
            "type": "function"
        },
        {
            "inputs": [
                {
                    "internalType": "uint256",
                    "name": "characterId",
                    "type": "uint256"
                },
                {
                    "internalType": "uint256",
                    "name": "noteId",
                    "type": "uint256"
                }
            ],
            "name": "lockNote",
            "outputs": [],
            "stateMutability": "nonpayable",
            "type": "function"
        },
        {
            "inputs": [
                {
                    "components": [
                        {
                            "internalType": "uint256",
                            "name": "characterId",
                            "type": "uint256"
                        },
                        {
                            "internalType": "uint256",
                            "name": "noteId",
                            "type": "uint256"
                        },
                        {
                            "internalType": "address",
                            "name": "to",
                            "type": "address"
                        },
                        {
                            "internalType": "bytes",
                            "name": "mintModuleData",
                            "type": "bytes"
                        }
                    ],
                    "internalType": "struct DataTypes.MintNoteData",
                    "name": "vars",
                    "type": "tuple"
                }
            ],
            "name": "mintNote",
            "outputs": [
                {
                    "internalType": "uint256",
                    "name": "",
                    "type": "uint256"
                }
            ],
            "stateMutability": "nonpayable",
            "type": "function"
        },
        {
            "inputs": [],
            "name": "name",
            "outputs": [
                {
                    "internalType": "string",
                    "name": "",
                    "type": "string"
                }
            ],
            "stateMutability": "view",
            "type": "function"
        },
        {
            "inputs": [
                {
                    "internalType": "uint256",
                    "name": "tokenId",
                    "type": "uint256"
                }
            ],
            "name": "ownerOf",
            "outputs": [
                {
                    "internalType": "address",
                    "name": "",
                    "type": "address"
                }
            ],
            "stateMutability": "view",
            "type": "function"
        },
        {
            "inputs": [
                {
                    "components": [
                        {
                            "internalType": "uint256",
                            "name": "characterId",
                            "type": "uint256"
                        },
                        {
                            "internalType": "string",
                            "name": "contentUri",
                            "type": "string"
                        },
                        {
                            "internalType": "address",
                            "name": "linkModule",
                            "type": "address"
                        },
                        {
                            "internalType": "bytes",
                            "name": "linkModuleInitData",
                            "type": "bytes"
                        },
                        {
                            "internalType": "address",
                            "name": "mintModule",
                            "type": "address"
                        },
                        {
                            "internalType": "bytes",
                            "name": "mintModuleInitData",
                            "type": "bytes"
                        },
                        {
                            "internalType": "bool",
                            "name": "locked",
                            "type": "bool"
                        }
                    ],
                    "internalType": "struct DataTypes.PostNoteData",
                    "name": "vars",
                    "type": "tuple"
                }
            ],
            "name": "postNote",
            "outputs": [
                {
                    "internalType": "uint256",
                    "name": "",
                    "type": "uint256"
                }
            ],
            "stateMutability": "nonpayable",
            "type": "function"
        },
        {
            "inputs": [
                {
                    "components": [
                        {
                            "internalType": "uint256",
                            "name": "characterId",
                            "type": "uint256"
                        },
                        {
                            "internalType": "string",
                            "name": "contentUri",
                            "type": "string"
                        },
                        {
                            "internalType": "address",
                            "name": "linkModule",
                            "type": "address"
                        },
                        {
                            "internalType": "bytes",
                            "name": "linkModuleInitData",
                            "type": "bytes"
                        },
                        {
                            "internalType": "address",
                            "name": "mintModule",
                            "type": "address"
                        },
                        {
                            "internalType": "bytes",
                            "name": "mintModuleInitData",
                            "type": "bytes"
                        },
                        {
                            "internalType": "bool",
                            "name": "locked",
                            "type": "bool"
                        }
                    ],
                    "internalType": "struct DataTypes.PostNoteData",
                    "name": "noteData",
                    "type": "tuple"
                },
                {
                    "internalType": "address",
                    "name": "ethAddress",
                    "type": "address"
                }
            ],
            "name": "postNote4Address",
            "outputs": [
                {
                    "internalType": "uint256",
                    "name": "",
                    "type": "uint256"
                }
            ],
            "stateMutability": "nonpayable",
            "type": "function"
        },
        {
            "inputs": [
                {
                    "components": [
                        {
                            "internalType": "uint256",
                            "name": "characterId",
                            "type": "uint256"
                        },
                        {
                            "internalType": "string",
                            "name": "contentUri",
                            "type": "string"
                        },
                        {
                            "internalType": "address",
                            "name": "linkModule",
                            "type": "address"
                        },
                        {
                            "internalType": "bytes",
                            "name": "linkModuleInitData",
                            "type": "bytes"
                        },
                        {
                            "internalType": "address",
                            "name": "mintModule",
                            "type": "address"
                        },
                        {
                            "internalType": "bytes",
                            "name": "mintModuleInitData",
                            "type": "bytes"
                        },
                        {
                            "internalType": "bool",
                            "name": "locked",
                            "type": "bool"
                        }
                    ],
                    "internalType": "struct DataTypes.PostNoteData",
                    "name": "postNoteData",
                    "type": "tuple"
                },
                {
                    "internalType": "string",
                    "name": "uri",
                    "type": "string"
                }
            ],
            "name": "postNote4AnyUri",
            "outputs": [
                {
                    "internalType": "uint256",
                    "name": "",
                    "type": "uint256"
                }
            ],
            "stateMutability": "nonpayable",
            "type": "function"
        },
        {
            "inputs": [
                {
                    "components": [
                        {
                            "internalType": "uint256",
                            "name": "characterId",
                            "type": "uint256"
                        },
                        {
                            "internalType": "string",
                            "name": "contentUri",
                            "type": "string"
                        },
                        {
                            "internalType": "address",
                            "name": "linkModule",
                            "type": "address"
                        },
                        {
                            "internalType": "bytes",
                            "name": "linkModuleInitData",
                            "type": "bytes"
                        },
                        {
                            "internalType": "address",
                            "name": "mintModule",
                            "type": "address"
                        },
                        {
                            "internalType": "bytes",
                            "name": "mintModuleInitData",
                            "type": "bytes"
                        },
                        {
                            "internalType": "bool",
                            "name": "locked",
                            "type": "bool"
                        }
                    ],
                    "internalType": "struct DataTypes.PostNoteData",
                    "name": "postNoteData",
                    "type": "tuple"
                },
                {
                    "internalType": "uint256",
                    "name": "toCharacterId",
                    "type": "uint256"
                }
            ],
            "name": "postNote4Character",
            "outputs": [
                {
                    "internalType": "uint256",
                    "name": "",
                    "type": "uint256"
                }
            ],
            "stateMutability": "nonpayable",
            "type": "function"
        },
        {
            "inputs": [
                {
                    "components": [
                        {
                            "internalType": "uint256",
                            "name": "characterId",
                            "type": "uint256"
                        },
                        {
                            "internalType": "string",
                            "name": "contentUri",
                            "type": "string"
                        },
                        {
                            "internalType": "address",
                            "name": "linkModule",
                            "type": "address"
                        },
                        {
                            "internalType": "bytes",
                            "name": "linkModuleInitData",
                            "type": "bytes"
                        },
                        {
                            "internalType": "address",
                            "name": "mintModule",
                            "type": "address"
                        },
                        {
                            "internalType": "bytes",
                            "name": "mintModuleInitData",
                            "type": "bytes"
                        },
                        {
                            "internalType": "bool",
                            "name": "locked",
                            "type": "bool"
                        }
                    ],
                    "internalType": "struct DataTypes.PostNoteData",
                    "name": "postNoteData",
                    "type": "tuple"
                },
                {
                    "components": [
                        {
                            "internalType": "address",
                            "name": "tokenAddress",
                            "type": "address"
                        },
                        {
                            "internalType": "uint256",
                            "name": "erc721TokenId",
                            "type": "uint256"
                        }
                    ],
                    "internalType": "struct DataTypes.ERC721Struct",
                    "name": "erc721",
                    "type": "tuple"
                }
            ],
            "name": "postNote4ERC721",
            "outputs": [
                {
                    "internalType": "uint256",
                    "name": "",
                    "type": "uint256"
                }
            ],
            "stateMutability": "nonpayable",
            "type": "function"
        },
        {
            "inputs": [
                {
                    "components": [
                        {
                            "internalType": "uint256",
                            "name": "characterId",
                            "type": "uint256"
                        },
                        {
                            "internalType": "string",
                            "name": "contentUri",
                            "type": "string"
                        },
                        {
                            "internalType": "address",
                            "name": "linkModule",
                            "type": "address"
                        },
                        {
                            "internalType": "bytes",
                            "name": "linkModuleInitData",
                            "type": "bytes"
                        },
                        {
                            "internalType": "address",
                            "name": "mintModule",
                            "type": "address"
                        },
                        {
                            "internalType": "bytes",
                            "name": "mintModuleInitData",
                            "type": "bytes"
                        },
                        {
                            "internalType": "bool",
                            "name": "locked",
                            "type": "bool"
                        }
                    ],
                    "internalType": "struct DataTypes.PostNoteData",
                    "name": "noteData",
                    "type": "tuple"
                },
                {
                    "internalType": "uint256",
                    "name": "toLinklistId",
                    "type": "uint256"
                }
            ],
            "name": "postNote4Linklist",
            "outputs": [
                {
                    "internalType": "uint256",
                    "name": "",
                    "type": "uint256"
                }
            ],
            "stateMutability": "nonpayable",
            "type": "function"
        },
        {
            "inputs": [
                {
                    "components": [
                        {
                            "internalType": "uint256",
                            "name": "characterId",
                            "type": "uint256"
                        },
                        {
                            "internalType": "string",
                            "name": "contentUri",
                            "type": "string"
                        },
                        {
                            "internalType": "address",
                            "name": "linkModule",
                            "type": "address"
                        },
                        {
                            "internalType": "bytes",
                            "name": "linkModuleInitData",
                            "type": "bytes"
                        },
                        {
                            "internalType": "address",
                            "name": "mintModule",
                            "type": "address"
                        },
                        {
                            "internalType": "bytes",
                            "name": "mintModuleInitData",
                            "type": "bytes"
                        },
                        {
                            "internalType": "bool",
                            "name": "locked",
                            "type": "bool"
                        }
                    ],
                    "internalType": "struct DataTypes.PostNoteData",
                    "name": "postNoteData",
                    "type": "tuple"
                },
                {
                    "components": [
                        {
                            "internalType": "uint256",
                            "name": "characterId",
                            "type": "uint256"
                        },
                        {
                            "internalType": "uint256",
                            "name": "noteId",
                            "type": "uint256"
                        }
                    ],
                    "internalType": "struct DataTypes.NoteStruct",
                    "name": "note",
                    "type": "tuple"
                }
            ],
            "name": "postNote4Note",
            "outputs": [
                {
                    "internalType": "uint256",
                    "name": "",
                    "type": "uint256"
                }
            ],
            "stateMutability": "nonpayable",
            "type": "function"
        },
        {
            "inputs": [],
            "name": "resolver",
            "outputs": [
                {
                    "internalType": "address",
                    "name": "",
                    "type": "address"
                }
            ],
            "stateMutability": "view",
            "type": "function"
        },
        {
            "inputs": [
                {
                    "internalType": "address",
                    "name": "from",
                    "type": "address"
                },
                {
                    "internalType": "address",
                    "name": "to",
                    "type": "address"
                },
                {
                    "internalType": "uint256",
                    "name": "tokenId",
                    "type": "uint256"
                }
            ],
            "name": "safeTransferFrom",
            "outputs": [],
            "stateMutability": "nonpayable",
            "type": "function"
        },
        {
            "inputs": [
                {
                    "internalType": "address",
                    "name": "from",
                    "type": "address"
                },
                {
                    "internalType": "address",
                    "name": "to",
                    "type": "address"
                },
                {
                    "internalType": "uint256",
                    "name": "tokenId",
                    "type": "uint256"
                },
                {
                    "internalType": "bytes",
                    "name": "_data",
                    "type": "bytes"
                }
            ],
            "name": "safeTransferFrom",
            "outputs": [],
            "stateMutability": "nonpayable",
            "type": "function"
        },
        {
            "inputs": [
                {
                    "internalType": "address",
                    "name": "operator",
                    "type": "address"
                },
                {
                    "internalType": "bool",
                    "name": "approved",
                    "type": "bool"
                }
            ],
            "name": "setApprovalForAll",
            "outputs": [],
            "stateMutability": "nonpayable",
            "type": "function"
        },
        {
            "inputs": [
                {
                    "internalType": "uint256",
                    "name": "characterId",
                    "type": "uint256"
                },
                {
                    "internalType": "string",
                    "name": "newUri",
                    "type": "string"
                }
            ],
            "name": "setCharacterUri",
            "outputs": [],
            "stateMutability": "nonpayable",
            "type": "function"
        },
        {
            "inputs": [
                {
                    "internalType": "uint256",
                    "name": "characterId",
                    "type": "uint256"
                },
                {
                    "internalType": "string",
                    "name": "newHandle",
                    "type": "string"
                }
            ],
            "name": "setHandle",
            "outputs": [],
            "stateMutability": "nonpayable",
            "type": "function"
        },
        {
            "inputs": [
                {
                    "components": [
                        {
                            "internalType": "address",
                            "name": "account",
                            "type": "address"
                        },
                        {
                            "internalType": "address",
                            "name": "linkModule",
                            "type": "address"
                        },
                        {
                            "internalType": "bytes",
                            "name": "linkModuleInitData",
                            "type": "bytes"
                        }
                    ],
                    "internalType": "struct DataTypes.setLinkModule4AddressData",
                    "name": "vars",
                    "type": "tuple"
                }
            ],
            "name": "setLinkModule4Address",
            "outputs": [],
            "stateMutability": "nonpayable",
            "type": "function"
        },
        {
            "inputs": [
                {
                    "components": [
                        {
                            "internalType": "uint256",
                            "name": "characterId",
                            "type": "uint256"
                        },
                        {
                            "internalType": "address",
                            "name": "linkModule",
                            "type": "address"
                        },
                        {
                            "internalType": "bytes",
                            "name": "linkModuleInitData",
                            "type": "bytes"
                        }
                    ],
                    "internalType": "struct DataTypes.setLinkModule4CharacterData",
                    "name": "vars",
                    "type": "tuple"
                }
            ],
            "name": "setLinkModule4Character",
            "outputs": [],
            "stateMutability": "nonpayable",
            "type": "function"
        },
        {
            "inputs": [
                {
                    "components": [
                        {
                            "internalType": "address",
                            "name": "tokenAddress",
                            "type": "address"
                        },
                        {
                            "internalType": "uint256",
                            "name": "tokenId",
                            "type": "uint256"
                        },
                        {
                            "internalType": "address",
                            "name": "linkModule",
                            "type": "address"
                        },
                        {
                            "internalType": "bytes",
                            "name": "linkModuleInitData",
                            "type": "bytes"
                        }
                    ],
                    "internalType": "struct DataTypes.setLinkModule4ERC721Data",
                    "name": "vars",
                    "type": "tuple"
                }
            ],
            "name": "setLinkModule4ERC721",
            "outputs": [],
            "stateMutability": "nonpayable",
            "type": "function"
        },
        {
            "inputs": [
                {
                    "components": [
                        {
                            "internalType": "uint256",
                            "name": "linklistId",
                            "type": "uint256"
                        },
                        {
                            "internalType": "address",
                            "name": "linkModule",
                            "type": "address"
                        },
                        {
                            "internalType": "bytes",
                            "name": "linkModuleInitData",
                            "type": "bytes"
                        }
                    ],
                    "internalType": "struct DataTypes.setLinkModule4LinklistData",
                    "name": "vars",
                    "type": "tuple"
                }
            ],
            "name": "setLinkModule4Linklist",
            "outputs": [],
            "stateMutability": "nonpayable",
            "type": "function"
        },
        {
            "inputs": [
                {
                    "components": [
                        {
                            "internalType": "uint256",
                            "name": "characterId",
                            "type": "uint256"
                        },
                        {
                            "internalType": "uint256",
                            "name": "noteId",
                            "type": "uint256"
                        },
                        {
                            "internalType": "address",
                            "name": "linkModule",
                            "type": "address"
                        },
                        {
                            "internalType": "bytes",
                            "name": "linkModuleInitData",
                            "type": "bytes"
                        }
                    ],
                    "internalType": "struct DataTypes.setLinkModule4NoteData",
                    "name": "vars",
                    "type": "tuple"
                }
            ],
            "name": "setLinkModule4Note",
            "outputs": [],
            "stateMutability": "nonpayable",
            "type": "function"
        },
        {
            "inputs": [
                {
                    "internalType": "uint256",
                    "name": "linklistId",
                    "type": "uint256"
                },
                {
                    "internalType": "string",
                    "name": "uri",
                    "type": "string"
                }
            ],
            "name": "setLinklistUri",
            "outputs": [],
            "stateMutability": "nonpayable",
            "type": "function"
        },
        {
            "inputs": [
                {
                    "components": [
                        {
                            "internalType": "uint256",
                            "name": "characterId",
                            "type": "uint256"
                        },
                        {
                            "internalType": "uint256",
                            "name": "noteId",
                            "type": "uint256"
                        },
                        {
                            "internalType": "address",
                            "name": "mintModule",
                            "type": "address"
                        },
                        {
                            "internalType": "bytes",
                            "name": "mintModuleInitData",
                            "type": "bytes"
                        }
                    ],
                    "internalType": "struct DataTypes.setMintModule4NoteData",
                    "name": "vars",
                    "type": "tuple"
                }
            ],
            "name": "setMintModule4Note",
            "outputs": [],
            "stateMutability": "nonpayable",
            "type": "function"
        },
        {
            "inputs": [
                {
                    "internalType": "uint256",
                    "name": "characterId",
                    "type": "uint256"
                },
                {
                    "internalType": "uint256",
                    "name": "noteId",
                    "type": "uint256"
                },
                {
                    "internalType": "string",
                    "name": "newUri",
                    "type": "string"
                }
            ],
            "name": "setNoteUri",
            "outputs": [],
            "stateMutability": "nonpayable",
            "type": "function"
        },
        {
            "inputs": [
                {
                    "internalType": "uint256",
                    "name": "characterId",
                    "type": "uint256"
                },
                {
                    "internalType": "address",
                    "name": "operator",
                    "type": "address"
                }
            ],
            "name": "setOperator",
            "outputs": [],
            "stateMutability": "nonpayable",
            "type": "function"
        },
        {
            "inputs": [
                {
                    "internalType": "uint256",
                    "name": "characterId",
                    "type": "uint256"
                }
            ],
            "name": "setPrimaryCharacterId",
            "outputs": [],
            "stateMutability": "nonpayable",
            "type": "function"
        },
        {
            "inputs": [
                {
                    "internalType": "uint256",
                    "name": "characterId",
                    "type": "uint256"
                },
                {
                    "internalType": "address",
                    "name": "tokenAddress",
                    "type": "address"
                }
            ],
            "name": "setSocialToken",
            "outputs": [],
            "stateMutability": "nonpayable",
            "type": "function"
        },
        {
            "inputs": [
                {
                    "internalType": "bytes4",
                    "name": "interfaceId",
                    "type": "bytes4"
                }
            ],
            "name": "supportsInterface",
            "outputs": [
                {
                    "internalType": "bool",
                    "name": "",
                    "type": "bool"
                }
            ],
            "stateMutability": "view",
            "type": "function"
        },
        {
            "inputs": [],
            "name": "symbol",
            "outputs": [
                {
                    "internalType": "string",
                    "name": "",
                    "type": "string"
                }
            ],
            "stateMutability": "view",
            "type": "function"
        },
        {
            "inputs": [
                {
                    "internalType": "uint256",
                    "name": "index",
                    "type": "uint256"
                }
            ],
            "name": "tokenByIndex",
            "outputs": [
                {
                    "internalType": "uint256",
                    "name": "",
                    "type": "uint256"
                }
            ],
            "stateMutability": "view",
            "type": "function"
        },
        {
            "inputs": [
                {
                    "internalType": "address",
                    "name": "owner",
                    "type": "address"
                },
                {
                    "internalType": "uint256",
                    "name": "index",
                    "type": "uint256"
                }
            ],
            "name": "tokenOfOwnerByIndex",
            "outputs": [
                {
                    "internalType": "uint256",
                    "name": "",
                    "type": "uint256"
                }
            ],
            "stateMutability": "view",
            "type": "function"
        },
        {
            "inputs": [
                {
                    "internalType": "uint256",
                    "name": "characterId",
                    "type": "uint256"
                }
            ],
            "name": "tokenURI",
            "outputs": [
                {
                    "internalType": "string",
                    "name": "",
                    "type": "string"
                }
            ],
            "stateMutability": "view",
            "type": "function"
        },
        {
            "inputs": [],
            "name": "totalSupply",
            "outputs": [
                {
                    "internalType": "uint256",
                    "name": "",
                    "type": "uint256"
                }
            ],
            "stateMutability": "view",
            "type": "function"
        },
        {
            "inputs": [
                {
                    "internalType": "address",
                    "name": "from",
                    "type": "address"
                },
                {
                    "internalType": "address",
                    "name": "to",
                    "type": "address"
                },
                {
                    "internalType": "uint256",
                    "name": "tokenId",
                    "type": "uint256"
                }
            ],
            "name": "transferFrom",
            "outputs": [],
            "stateMutability": "nonpayable",
            "type": "function"
        },
        {
            "inputs": [
                {
                    "components": [
                        {
                            "internalType": "uint256",
                            "name": "fromCharacterId",
                            "type": "uint256"
                        },
                        {
                            "internalType": "address",
                            "name": "ethAddress",
                            "type": "address"
                        },
                        {
                            "internalType": "bytes32",
                            "name": "linkType",
                            "type": "bytes32"
                        }
                    ],
                    "internalType": "struct DataTypes.unlinkAddressData",
                    "name": "vars",
                    "type": "tuple"
                }
            ],
            "name": "unlinkAddress",
            "outputs": [],
            "stateMutability": "nonpayable",
            "type": "function"
        },
        {
            "inputs": [
                {
                    "components": [
                        {
                            "internalType": "uint256",
                            "name": "fromCharacterId",
                            "type": "uint256"
                        },
                        {
                            "internalType": "string",
                            "name": "toUri",
                            "type": "string"
                        },
                        {
                            "internalType": "bytes32",
                            "name": "linkType",
                            "type": "bytes32"
                        }
                    ],
                    "internalType": "struct DataTypes.unlinkAnyUriData",
                    "name": "vars",
                    "type": "tuple"
                }
            ],
            "name": "unlinkAnyUri",
            "outputs": [],
            "stateMutability": "nonpayable",
            "type": "function"
        },
        {
            "inputs": [
                {
                    "components": [
                        {
                            "internalType": "uint256",
                            "name": "fromCharacterId",
                            "type": "uint256"
                        },
                        {
                            "internalType": "uint256",
                            "name": "toCharacterId",
                            "type": "uint256"
                        },
                        {
                            "internalType": "bytes32",
                            "name": "linkType",
                            "type": "bytes32"
                        }
                    ],
                    "internalType": "struct DataTypes.unlinkCharacterData",
                    "name": "vars",
                    "type": "tuple"
                }
            ],
            "name": "unlinkCharacter",
            "outputs": [],
            "stateMutability": "nonpayable",
            "type": "function"
        },
        {
            "inputs": [
                {
                    "internalType": "uint256",
                    "name": "fromCharacterId",
                    "type": "uint256"
                },
                {
                    "components": [
                        {
                            "internalType": "uint256",
                            "name": "fromCharacterId",
                            "type": "uint256"
                        },
                        {
                            "internalType": "uint256",
                            "name": "toCharacterId",
                            "type": "uint256"
                        },
                        {
                            "internalType": "bytes32",
                            "name": "linkType",
                            "type": "bytes32"
                        }
                    ],
                    "internalType": "struct DataTypes.CharacterLinkStruct",
                    "name": "linkData",
                    "type": "tuple"
                },
                {
                    "internalType": "bytes32",
                    "name": "linkType",
                    "type": "bytes32"
                }
            ],
            "name": "unlinkCharacterLink",
            "outputs": [],
            "stateMutability": "nonpayable",
            "type": "function"
        },
        {
            "inputs": [
                {
                    "components": [
                        {
                            "internalType": "uint256",
                            "name": "fromCharacterId",
                            "type": "uint256"
                        },
                        {
                            "internalType": "address",
                            "name": "tokenAddress",
                            "type": "address"
                        },
                        {
                            "internalType": "uint256",
                            "name": "tokenId",
                            "type": "uint256"
                        },
                        {
                            "internalType": "bytes32",
                            "name": "linkType",
                            "type": "bytes32"
                        }
                    ],
                    "internalType": "struct DataTypes.unlinkERC721Data",
                    "name": "vars",
                    "type": "tuple"
                }
            ],
            "name": "unlinkERC721",
            "outputs": [],
            "stateMutability": "nonpayable",
            "type": "function"
        },
        {
            "inputs": [
                {
                    "components": [
                        {
                            "internalType": "uint256",
                            "name": "fromCharacterId",
                            "type": "uint256"
                        },
                        {
                            "internalType": "uint256",
                            "name": "toLinkListId",
                            "type": "uint256"
                        },
                        {
                            "internalType": "bytes32",
                            "name": "linkType",
                            "type": "bytes32"
                        }
                    ],
                    "internalType": "struct DataTypes.unlinkLinklistData",
                    "name": "vars",
                    "type": "tuple"
                }
            ],
            "name": "unlinkLinklist",
            "outputs": [],
            "stateMutability": "nonpayable",
            "type": "function"
        },
        {
            "inputs": [
                {
                    "components": [
                        {
                            "internalType": "uint256",
                            "name": "fromCharacterId",
                            "type": "uint256"
                        },
                        {
                            "internalType": "uint256",
                            "name": "toCharacterId",
                            "type": "uint256"
                        },
                        {
                            "internalType": "uint256",
                            "name": "toNoteId",
                            "type": "uint256"
                        },
                        {
                            "internalType": "bytes32",
                            "name": "linkType",
                            "type": "bytes32"
                        }
                    ],
                    "internalType": "struct DataTypes.unlinkNoteData",
                    "name": "vars",
                    "type": "tuple"
                }
            ],
            "name": "unlinkNote",
            "outputs": [],
            "stateMutability": "nonpayable",
            "type": "function"
        }
    ],
    "bytecode": "0x608060405234801561001057600080fd5b50615e1a80620000216000396000f3fe608060405234801561001057600080fd5b506004361061045f5760003560e01c8063867884e61161024c578063c87b56dd11610146578063e56f2fe4116100c3578063f2ad807511610087578063f2ad807514610a96578063f316bacd14610aa9578063f6479d7714610abc578063fd2d866f14610acf578063fe9299fb14610ae257600080fd5b8063e56f2fe414610a0e578063e7a1c1c014610a21578063e985e9c514610a34578063ec81d19414610a70578063ef0828ab14610a8357600080fd5b8063dabb05311161010a578063dabb0531146109a2578063db491e80146109b5578063db8c198d146109d5578063dbb164d9146109e8578063dca27135146109fb57600080fd5b8063c87b56dd1461092b578063cb8e757e1461093e578063cd69fe6114610951578063d23b320b14610964578063d70e10c61461097757600080fd5b80639a50248d116101d4578063b88d4fde11610198578063b88d4fde146108ce578063b9d32845146108e1578063ba9a9c2e146108f4578063c053f6b814610907578063c2a6fe3b1461091857600080fd5b80639a50248d14610862578063a22cb46514610882578063a6e6178d14610895578063a7ccb4bf146108a8578063af90b112146108bb57600080fd5b806393f057e51161021b57806393f057e51461080e57806395d89b411461082157806395d9fa7d146108295780639864c3071461083c5780639a4dec181461084f57600080fd5b8063867884e6146107c25780638734bbfc146107d55780638b4ca06a146107e857806392f7070b146107fb57600080fd5b8063327b2a031161035d578063515d42d2116102e557806369492c97116102a957806369492c971461076357806370a082311461077657806374f345cf146107895780637936da0e1461079c5780637daca6d0146107af57600080fd5b8063515d42d2146107045780635a936d10146107175780635fb881831461072a578063628b644a1461073d5780636352211e1461075057600080fd5b806342842e0e1161032c57806342842e0e146106a557806342966c68146106b857806344b82a24146106cb57806347f94de7146106de5780634f6ccce7146106f157600080fd5b8063327b2a031461065957806333f06ee61461066c578063388f50831461067f57806340ad34d81461069257600080fd5b80631316529d116103eb57806323b872dd116103af57806323b872dd146105cb57806329c301c2146105de5780632abc6bf6146105f15780632f745c591461061a57806331b9d08c1461062d57600080fd5b80631316529d14610556578063144a3e831461056757806318160ddd1461057a578063188b04b3146105825780632209d1451461059557600080fd5b8063081812fc11610432578063081812fc146104f557806308cb68ff14610508578063095ea7b31461051d5780630c4dd5f2146105305780630ff982441461054357600080fd5b806301ffc9a71461046457806304f3bcec1461048c57806305f63c8a146104b757806306fdde03146104e0575b600080fd5b610477610472366004614735565b610b0b565b60405190151581526020015b60405180910390f35b60175461049f906001600160a01b031681565b6040516001600160a01b039091168152602001610483565b61049f6104c5366004614752565b6000908152601660205260409020546001600160a01b031690565b6104e8610b36565b60405161048391906147c3565b61049f610503366004614752565b610bc8565b61051b6105163660046147ee565b610c62565b005b61051b61052b366004614837565b610cfb565b61051b61053e3660046147ee565b610e11565b61051b610551366004614863565b610e76565b60045b604051908152602001610483565b6104e8610575366004614752565b610f07565b600854610559565b61051b610590366004614891565b610f12565b61049f6105a3366004614837565b6001600160a01b03918216600090815260106020908152604080832093835292905220541690565b61051b6105d93660046148c5565b611015565b6105596105ec366004614918565b611046565b6105596105ff36600461494c565b6001600160a01b03166000908152600c602052604090205490565b610559610628366004614837565b6110f2565b61049f61063b36600461494c565b6001600160a01b039081166000908152601160205260409020541690565b61055961066736600461497b565b611188565b61051b61067a366004614a11565b61134b565b61051b61068d366004614891565b6113bf565b61051b6106a0366004614a5c565b611415565b61051b6106b33660046148c5565b61148f565b61051b6106c6366004614752565b6114aa565b6105596106d9366004614a78565b611547565b61051b6106ec366004614a11565b6115bd565b6105596106ff366004614752565b611622565b61051b610712366004614abc565b6116b5565b61051b610725366004614863565b611754565b61051b610738366004614891565b6117e4565b61051b61074b366004614ade565b61183a565b61049f61075e366004614752565b6118c6565b61051b610771366004614891565b61193d565b61055961078436600461494c565b6119c3565b61051b610797366004614abc565b611a4a565b61051b6107aa366004614abc565b611ac2565b6104776107bd366004614b30565b611b2b565b61051b6107d0366004614a5c565b611cb2565b6104776107e3366004614752565b611d22565b6105596107f6366004614752565b611d50565b610559610809366004614b86565b611dbc565b61051b61081c366004614863565b611e50565b6104e8611ebf565b61051b610837366004614bd7565b611ece565b61051b61084a366004614891565b611f25565b61055961085d36600461497b565b611f7b565b610875610870366004614bfc565b612083565b6040516104839190614c3d565b61051b610890366004614cce565b612232565b61051b6108a3366004614a11565b61223d565b6105596108b6366004614891565b612301565b6105596108c9366004614a78565b6123a5565b61051b6108dc366004614d67565b6123e1565b61051b6108ef366004614e27565b612419565b61051b610902366004614e5b565b612484565b6013546001600160a01b031661049f565b61051b610926366004614abc565b6124f7565b6104e8610939366004614752565b612567565b61051b61094c366004614e27565b61260c565b61051b61095f366004614e27565b61267f565b61051b610972366004614891565b6127dd565b610559610985366004614abc565b6000918252600d6020908152604080842092845291905290205490565b6108756109b0366004614752565b612857565b6109c86109c3366004614abc565b6129de565b6040516104839190614e91565b61051b6109e3366004614891565b612b3f565b61051b6109f6366004614e5b565b612b89565b6104e8610a09366004614752565b612be1565b61051b610a1c366004614f27565b612c53565b61051b610a2f366004614bd7565b612db0565b610477610a42366004614fe1565b6001600160a01b03918216600090815260056020908152604080832093909416825291909152205460ff1690565b6104e8610a7e366004614752565b612dc3565b61051b610a913660046147ee565b612de3565b61051b610aa4366004614752565b612e52565b610559610ab736600461500f565b612ea1565b61051b610aca366004614863565b612ffd565b61051b610add3660046147ee565b613037565b61049f610af0366004614752565b6000908152600f60205260409020546001600160a01b031690565b60006001600160e01b0319821663780e9d6360e01b1480610b305750610b30826130b0565b92915050565b606060008054610b459061506a565b80601f0160208091040260200160405190810160405280929190818152602001828054610b719061506a565b8015610bbe5780601f10610b9357610100808354040283529160200191610bbe565b820191906000526020600020905b815481529060010190602001808311610ba157829003601f168201915b5050505050905090565b6000818152600260205260408120546001600160a01b0316610c465760405162461bcd60e51b815260206004820152602c60248201527f4552433732313a20617070726f76656420717565727920666f72206e6f6e657860448201526b34b9ba32b73a103a37b5b2b760a11b60648201526084015b60405180910390fd5b506000908152600460205260409020546001600160a01b031690565b73__$69db18565ecbefece480e92cc5f8fb1274$__63dfc34f25610c89602084018461494c565b610c99604085016020860161494c565b610ca6604086018661509f565b60116040518663ffffffff1660e01b8152600401610cc895949392919061510e565b60006040518083038186803b158015610ce057600080fd5b505af4158015610cf4573d6000803e3d6000fd5b5050505050565b6000610d06826118c6565b9050806001600160a01b0316836001600160a01b03161415610d745760405162461bcd60e51b815260206004820152602160248201527f4552433732313a20617070726f76616c20746f2063757272656e74206f776e656044820152603960f91b6064820152608401610c3d565b336001600160a01b0382161480610d905750610d908133610a42565b610e025760405162461bcd60e51b815260206004820152603860248201527f4552433732313a20617070726f76652063616c6c6572206973206e6f74206f7760448201527f6e6572206e6f7220617070726f76656420666f7220616c6c00000000000000006064820152608401610c3d565b610e0c8383613100565b505050565b610e1b813561316e565b73__$69db18565ecbefece480e92cc5f8fb1274$__636252159e8235610e47604085016020860161494c565b610e54604086018661509f565b600f6040518663ffffffff1660e01b8152600401610cc895949392919061514d565b610e80813561322e565b6013546020828101356000818152600d8352604080822081870135808452945290819020549051633019fadd60e01b815285356004820152602481019290925260448201929092523360648201526001600160a01b03909216608483015260a482015273__$e2c9a8f399964af47bb173600dd9e5f662$__90633019fadd9060c401610cc8565b6060610b3082612567565b610f1f816020013561322e565b610f2c81602001356132ac565b73__$e2c9a8f399964af47bb173600dd9e5f662$__637f9590a3823560208401356040850135610f5f606087018761509f565b6040516331a9108f60e11b8152883560048201523090636352211e90602401602060405180830381865afa158015610f9b573d6000803e3d6000fd5b505050506040513d601f19601f82011682018060405250810190610fbf9190615178565b6013546020808b01356000908152600a9091526040908190206005015490516001600160e01b031960e08b901b168152610cc8989796959493926001600160a01b03908116921690600d90601890600401615195565b61101f3382613305565b61103b5760405162461bcd60e51b8152600401610c3d906151f5565b610e0c8383836133fc565b6000611052823561322e565b81356000908152600a60205260408120600301805482906110729061525c565b91829055506040516342a34a5360e01b815290915073__$2873850e5b3f5697aafc2f5cd9f27cc884$__906342a34a53906110bb90869085906000908190600e90600401615381565b60006040518083038186803b1580156110d357600080fd5b505af41580156110e7573d6000803e3d6000fd5b509295945050505050565b60006110fd836119c3565b821061115f5760405162461bcd60e51b815260206004820152602b60248201527f455243373231456e756d657261626c653a206f776e657220696e646578206f7560448201526a74206f6620626f756e647360a81b6064820152608401610c3d565b506001600160a01b03919091166000908152600660209081526040808320938352929052205490565b6000611194833561322e565b6111ae6111a4602084018461494c565b83602001356135a3565b6013546545524337323160d01b906000906001600160a01b0316632ea24efc826111db602088018861494c565b6040516001600160e01b031960e085901b16815260048101929092526001600160a01b03166024820152602087013560448201526064016020604051808303816000875af1158015611231573d6000803e3d6000fd5b505050506040513d601f19601f8201168201806040525081019061125591906153c6565b85356000908152600a6020526040812060030180549293509091829061127a9061525c565b9182905550905073__$2873850e5b3f5697aafc2f5cd9f27cc884$__6342a34a53878386866112ac60208c018c61494c565b8b602001356040516020016112df92919060609290921b6bffffffffffffffffffffffff19168252601482015260340190565b604051602081830303815290604052600e6040518763ffffffff1660e01b8152600401611311969594939291906153df565b60006040518083038186803b15801561132957600080fd5b505af415801561133d573d6000803e3d6000fd5b509298975050505050505050565b6113548361316e565b601354604051633c17845760e11b81526001600160a01b039091169063782f08ae906113889086908690869060040161542a565b600060405180830381600087803b1580156113a257600080fd5b505af11580156113b6573d6000803e3d6000fd5b50505050505050565b6113c9813561322e565b60135460405163a5ca4e0960e01b815273__$e2c9a8f399964af47bb173600dd9e5f662$__9163a5ca4e0991610cc89185916001600160a01b0390911690600d9060189060040161544d565b61141f813561322e565b60135460408051635cebf08d60e11b81528335600482015260208401356024820152908301356044820152606083013560648201526001600160a01b039091166084820152600d60a482015273__$e2c9a8f399964af47bb173600dd9e5f662$__9063b9d7e11a9060c401610cc8565b610e0c838383604051806020016040528060008152506123e1565b6000818152600a602052604080822090516114c891600101906154c4565b60408051918290039091206000818152600b6020908152838220829055858252600a9052918220828155909250906115036001830182614604565b611511600283016000614604565b50600060038201556004810180546001600160a01b031990811690915560059091018054909116905561154382613653565b5050565b6000611553833561322e565b82356000908152600a60205260408120600301805467131a5b9adb1a5cdd60c21b928592909182906115849061525c565b919050819055905073__$2873850e5b3f5697aafc2f5cd9f27cc884$__6342a34a53878386868a6040516020016112df91815260200190565b6115c68361322e565b6000838152600a602052604090206115e290600201838361463e565b50827f17d7c9f69270ba135480ef16837f38b9d37d3ab291cbd3ba03982290c66319978383604051611615929190615560565b60405180910390a2505050565b600061162d60085490565b82106116905760405162461bcd60e51b815260206004820152602c60248201527f455243373231456e756d657261626c653a20676c6f62616c20696e646578206f60448201526b7574206f6620626f756e647360a01b6064820152608401610c3d565b600882815481106116a3576116a3615574565b90600052602060002001549050919050565b6116be8161322e565b60135460405163cd4069d160e01b815260048101849052602481018390523360448201526001600160a01b039091166064820152600d6084820152601860a482015273__$d8529f0216812a2dec6b96adf1943c3537$__9063cd4069d19060c4015b60006040518083038186803b15801561173857600080fd5b505af415801561174c573d6000803e3d6000fd5b505050505050565b61175e813561322e565b60135481356000818152600d60209081526040808320818701358085529083529281902054905163d862986560e01b8152600481019490945290850135602484015260448301919091526001600160a01b039092166064820152608481019190915273__$e2c9a8f399964af47bb173600dd9e5f662$__9063d86298659060a401610cc8565b6117ee813561322e565b60135460405163055e4fe360e11b815273__$e2c9a8f399964af47bb173600dd9e5f662$__91630abc9fc691610cc89185916001600160a01b0390911690600d9060189060040161558a565b6118438461322e565b61184d84846136b2565b6040516001626802bf60e01b0319815273__$2873850e5b3f5697aafc2f5cd9f27cc884$__9063ff97fd4190611890908790879087908790600e90600401615613565b60006040518083038186803b1580156118a857600080fd5b505af41580156118bc573d6000803e3d6000fd5b5050505050505050565b6000818152600260205260408120546001600160a01b031680610b305760405162461bcd60e51b815260206004820152602960248201527f4552433732313a206f776e657220717565727920666f72206e6f6e657869737460448201526832b73a103a37b5b2b760b91b6064820152608401610c3d565b61195761194d602083018361494c565b8260200135613767565b73__$69db18565ecbefece480e92cc5f8fb1274$__63384afeb361197e602084018461494c565b6020840135611993606086016040870161494c565b6119a0606087018761509f565b60106040518763ffffffff1660e01b8152600401610cc896959493929190615633565b60006001600160a01b038216611a2e5760405162461bcd60e51b815260206004820152602a60248201527f4552433732313a2062616c616e636520717565727920666f7220746865207a65604482015269726f206164647265737360b01b6064820152608401610c3d565b506001600160a01b031660009081526003602052604090205490565b611a538261322e565b611a5d82826136b2565b6000828152600e60209081526040808320848452825291829020600501805460ff60a81b1916600160a81b179055905182815283917f036469f3e73c83520cdefa197d7a9c854c2f8bc0164b82e9f2bd4aa7e150fd3091015b60405180910390a25050565b611acb81613821565b60135460405163194c934f60e01b815260048101849052602481018390526001600160a01b039091166044820152600d60648201526018608482015273__$d8529f0216812a2dec6b96adf1943c3537$__9063194c934f9060a401611720565b6017546000906001600160a01b0316611b4657506001611cab565b60175460405163599d32cd60e01b81526000916001600160a01b03169063599d32cd90611b799088908890600401615560565b602060405180830381865afa158015611b96573d6000803e3d6000fd5b505050506040513d601f19601f82011682018060405250810190611bba9190615178565b601754604051630354faeb60e41b81529192506000916001600160a01b039091169063354faeb090611bf29089908990600401615560565b602060405180830381865afa158015611c0f573d6000803e3d6000fd5b505050506040513d601f19601f82011682018060405250810190611c339190615178565b9050836001600160a01b0316826001600160a01b03161480611c665750836001600160a01b0316816001600160a01b0316145b15611c7657600192505050611cab565b6001600160a01b038216158015611c9457506001600160a01b038116155b15611ca457600192505050611cab565b6000925050505b9392505050565b611cbc813561322e565b60135481356000908152600d6020908152604080832060608601358452909152908190205490516317e9a8b160e31b815273__$e2c9a8f399964af47bb173600dd9e5f662$__9263bf4d458892610cc89286926001600160a01b0316919060040161567a565b600080611d2e836118c6565b6001600160a01b03166000908152600c60205260409020549290921492915050565b60135460405162fba02760e01b8152600481018390526000916001600160a01b03169062fba02790602401602060405180830381865afa158015611d98573d6000803e3d6000fd5b505050506040513d601f19601f82011682018060405250810190610b3091906153c6565b6000611dc8833561322e565b82356000908152600a602052604081206003018054664164647265737360c81b926001600160a01b0386169290918290611e019061525c565b919050819055905073__$2873850e5b3f5697aafc2f5cd9f27cc884$__6342a34a53878386868a6040516020016112df919060609190911b6bffffffffffffffffffffffff1916815260140190565b611e5a813561322e565b60135481356000908152600d6020908152604080832081860135845290915290819020549051633d7f9b3d60e11b815273__$e2c9a8f399964af47bb173600dd9e5f662$__92637aff367a92610cc89286926001600160a01b031691906004016156cc565b606060018054610b459061506a565b611ed78261322e565b6040516384b44a2f60e01b8152600481018390526001600160a01b0382166024820152600a604482015273__$d8529f0216812a2dec6b96adf1943c3537$__906384b44a2f90606401611720565b611f2f813561322e565b601354604051631f40cc4f60e01b815273__$e2c9a8f399964af47bb173600dd9e5f662$__91631f40cc4f91610cc89185916001600160a01b0390911690600d90601890600401615714565b6000611f87833561322e565b601354604051635cb46be760e01b81526000600482018190528435602483015260208501356044830152634e6f746560e01b9290916001600160a01b0390911690635cb46be7906064016020604051808303816000875af1158015611ff0573d6000803e3d6000fd5b505050506040513d601f19601f8201168201806040525081019061201491906153c6565b85356000908152600a602052604081206003018054929350909182906120399061525c565b919050819055905073__$2873850e5b3f5697aafc2f5cd9f27cc884$__6342a34a53878386868a600001358b602001356040516020016112df929190918252602082015260400190565b61208b6146c2565b6000838360405161209d92919061577f565b604080519182900382206000818152600b602090815283822054808352600a82529184902060c08601909452835485526001840180549396509194939290840191906120e89061506a565b80601f01602080910402602001604051908101604052809291908181526020018280546121149061506a565b80156121615780601f1061213657610100808354040283529160200191612161565b820191906000526020600020905b81548152906001019060200180831161214457829003601f168201915b5050505050815260200160028201805461217a9061506a565b80601f01602080910402602001604051908101604052809291908181526020018280546121a69061506a565b80156121f35780601f106121c8576101008083540402835291602001916121f3565b820191906000526020600020905b8154815290600101906020018083116121d657829003601f168201915b50505091835250506003820154602082015260048201546001600160a01b03908116604083015260059092015490911660609091015295945050505050565b61154333838361389e565b6122468361322e565b61225482826107bd866118c6565b6122945760405162461bcd60e51b815260206004820152601160248201527048616e646c654e6f74456c696769626c6560781b6044820152606401610c3d565b60405163130f361d60e01b815273__$d8529f0216812a2dec6b96adf1943c3537$__9063130f361d906122d590869086908690600b90600a9060040161578f565b60006040518083038186803b1580156122ed57600080fd5b505af41580156113b6573d6000803e3d6000fd5b6000612312823560208401356136b2565b73__$2873850e5b3f5697aafc2f5cd9f27cc884$__635be6941583356020850135612343606087016040880161494c565b612350606088018861509f565b6014546040516001600160e01b031960e089901b1681526123889695949392916001600160a01b031690600a90600e906004016157bd565b602060405180830381865af4158015611d98573d6000803e3d6000fd5b60006123b1833561322e565b82356000908152600a6020526040812060030180546650726f66696c6560c81b928592909182906115849061525c565b6123eb3383613305565b6124075760405162461bcd60e51b8152600401610c3d906151f5565b6124138484848461396d565b50505050565b612423813561322e565b612435816020013582604001356136b2565b60135460405163ae539dc160e01b815273__$e2c9a8f399964af47bb173600dd9e5f662$__9163ae539dc191610cc89185916001600160a01b0390911690600e90600d9060189060040161580b565b61248d8361322e565b60135482356000908152600d6020908152604080832081870135845290915290819020549051635ced65d160e01b815273__$e2c9a8f399964af47bb173600dd9e5f662$__92635ced65d1926122d5928892889288926001600160a01b039092169160040161588a565b6125008261322e565b61250a82826136b2565b6000828152600e60209081526040808320848452825291829020600501805460ff60a01b1916600160a01b179055905182815283917f4f1db9708b537c1d26a7af4b235fd079bf2342d92a276e27eb6c8717e8bbcf939101611ab6565b6000818152600a602052604090206002018054606091906125879061506a565b80601f01602080910402602001604051908101604052809291908181526020018280546125b39061506a565b80156126005780601f106125d557610100808354040283529160200191612600565b820191906000526020600020905b8154815290600101906020018083116125e357829003601f168201915b50505050509050919050565b612616813561322e565b612633612629604083016020840161494c565b82604001356135a3565b60135460405163218aa98d60e21b815273__$e2c9a8f399964af47bb173600dd9e5f662$__9163862aa63491610cc89185916001600160a01b0390911690600d906018906004016158d7565b61269c61268f602083018361509f565b6107bd602085018561494c565b6126dc5760405162461bcd60e51b815260206004820152601160248201527048616e646c654e6f74456c696769626c6560781b6044820152606401610c3d565b6012546126ea90600161593c565b6012556127056126fd602083018361494c565b6012546139a0565b601254604051632902741560e01b815273__$d8529f0216812a2dec6b96adf1943c3537$__9163290274159161274991859160019190600b90600a90600401615954565b60006040518083038186803b15801561276157600080fd5b505af4158015612775573d6000803e3d6000fd5b50600c92506000915061278d9050602084018461494c565b6001600160a01b031681526020810191909152604001600020546127da57601254600c60006127bf602085018561494c565b6001600160a01b031681526020810191909152604001600020555b50565b6127e7813561322e565b6127f6813560208301356136b2565b73__$69db18565ecbefece480e92cc5f8fb1274$__6320828a0282356020840135612827606086016040870161494c565b612834606087018761509f565b600e6040518763ffffffff1660e01b8152600401610cc896959493929190615a35565b61285f6146c2565b600a60008381526020019081526020016000206040518060c0016040529081600082015481526020016001820180546128979061506a565b80601f01602080910402602001604051908101604052809291908181526020018280546128c39061506a565b80156129105780601f106128e557610100808354040283529160200191612910565b820191906000526020600020905b8154815290600101906020018083116128f357829003601f168201915b505050505081526020016002820180546129299061506a565b80601f01602080910402602001604051908101604052809291908181526020018280546129559061506a565b80156129a25780601f10612977576101008083540402835291602001916129a2565b820191906000526020600020905b81548152906001019060200180831161298557829003601f168201915b50505091835250506003820154602082015260048201546001600160a01b03908116604083015260059092015490911660609091015292915050565b60408051610100808201835260008083526020808401829052606084860181905284018290526080840182905260a0840182905260c0840182905260e08401829052868252600e81528482208683528152908490208451928301855280548352600181015491830191909152600281018054939492939192840191612a629061506a565b80601f0160208091040260200160405190810160405280929190818152602001828054612a8e9061506a565b8015612adb5780601f10612ab057610100808354040283529160200191612adb565b820191906000526020600020905b815481529060010190602001808311612abe57829003601f168201915b505050918352505060038201546001600160a01b039081166020830152600483015481166040830152600590920154918216606082015260ff600160a01b8304811615156080830152600160a81b909204909116151560a090910152905092915050565b612b49813561322e565b612b58813560208301356136b2565b73__$69db18565ecbefece480e92cc5f8fb1274$__631f2ffb6982356020840135612827606086016040870161494c565b612b928361322e565b6013546040516282174160e71b815273__$e2c9a8f399964af47bb173600dd9e5f662$__9163410ba080916122d59187918791339188916001600160a01b031690600d90601890600401615a63565b601354604051632b05429560e21b8152600481018390526060916001600160a01b03169063ac150a5490602401600060405180830381865afa158015612c2b573d6000803e3d6000fd5b505050506040513d6000823e601f3d908101601f19168201604052610b309190810190615ac0565b601454600160a81b900460ff16612c7757601454600160a01b900460ff1615612c7b565b303b155b612cde5760405162461bcd60e51b815260206004820152602e60248201527f496e697469616c697a61626c653a20636f6e747261637420697320616c72656160448201526d191e481a5b9a5d1a585b1a5e995960921b6064820152608401610c3d565b601454600160a81b900460ff16158015612d08576014805461ffff60a01b191661010160a01b1790555b612d1489898989613aee565b601380546001600160a01b03199081166001600160a01b0388811691909117909255601480548216878416179055601580548216868416179055601780549091169184169190911790556040514281527f400175a56dd3710794078f7b9dbe8296ac94c5a248dfd51bb22ed4ab9eaa9fbf9060200160405180910390a18015612da5576014805460ff60a81b191690555b505050505050505050565b612db982613b3f565b6115438282613b9b565b6000818152600a602052604090206001018054606091906125879061506a565b612ded813561322e565b60135481356000908152600d602090815260408083208186013584529091529081902054905163bf5c00c160e01b815273__$e2c9a8f399964af47bb173600dd9e5f662$__9263bf5c00c192610cc89286926001600160a01b03169190600401615b2d565b612e5b8161322e565b336000818152600c602052604080822080549085905590519092839285927fce95332e6082aebeb8058a7b56d1a109f67d6550552ed04d36aca4a6acd4d7de9190a45050565b6000612ead843561322e565b601354604051633610bf0960e11b815265416e7955726960d01b916000916001600160a01b0390911690636c217e1290612eef9084908990899060040161542a565b6020604051808303816000875af1158015612f0e573d6000803e3d6000fd5b505050506040513d601f19601f82011682018060405250810190612f3291906153c6565b86356000908152600a60205260408120600301805492935090918290612f579061525c565b919050819055905073__$2873850e5b3f5697aafc2f5cd9f27cc884$__6342a34a53888386868b8b604051602001612f9092919061577f565b604051602081830303815290604052600e6040518763ffffffff1660e01b8152600401612fc2969594939291906153df565b60006040518083038186803b158015612fda57600080fd5b505af4158015612fee573d6000803e3d6000fd5b50929998505050505050505050565b6127da8135613012604084016020850161494c565b836040013560405180604001604052806002815260200161060f60f31b815250613bff565b613041813561322e565b73__$d8529f0216812a2dec6b96adf1943c3537$__631dc83133823561306d604085016020860161494c565b61307a604086018661509f565b86356000908152600a60205260409081902090516001600160e01b031960e088901b168152610cc895949392919060040161514d565b60006001600160e01b031982166380ac58cd60e01b14806130e157506001600160e01b03198216635b5e139f60e01b145b80610b3057506301ffc9a760e01b6001600160e01b0319831614610b30565b600081815260046020526040902080546001600160a01b0319166001600160a01b0384169081179091558190613135826118c6565b6001600160a01b03167f8c5be1e5ebec7d5bd14f71427d1e84f3dd0314c0f7b2291e5b200ac8c7c3b92560405160405180910390a45050565b6013546040516331a9108f60e11b8152600481018390526001600160a01b0390911690636352211e90602401602060405180830381865afa1580156131b7573d6000803e3d6000fd5b505050506040513d601f19601f820116820180604052508101906131db9190615178565b6001600160a01b0316336001600160a01b0316146127da5760405162461bcd60e51b815260206004820152601060248201526f2737ba2634b735a634b9ba27bbb732b960811b6044820152606401610c3d565b6000613239826118c6565b9050336001600160a01b038216148061326857506000828152601660205260409020546001600160a01b031633145b806132905750326001600160a01b03821614801561329057506015546001600160a01b031633145b6115435760405162461bcd60e51b8152600401610c3d90615b85565b6000818152600260205260409020546001600160a01b03166127da5760405162461bcd60e51b81526020600482015260126024820152714368617261637465724e6f7445786973747360701b6044820152606401610c3d565b6000818152600260205260408120546001600160a01b031661337e5760405162461bcd60e51b815260206004820152602c60248201527f4552433732313a206f70657261746f7220717565727920666f72206e6f6e657860448201526b34b9ba32b73a103a37b5b2b760a11b6064820152608401610c3d565b6000613389836118c6565b9050806001600160a01b0316846001600160a01b031614806133c45750836001600160a01b03166133b984610bc8565b6001600160a01b0316145b806133f457506001600160a01b0380821660009081526005602090815260408083209388168352929052205460ff165b949350505050565b826001600160a01b031661340f826118c6565b6001600160a01b0316146134735760405162461bcd60e51b815260206004820152602560248201527f4552433732313a207472616e736665722066726f6d20696e636f72726563742060448201526437bbb732b960d91b6064820152608401610c3d565b6001600160a01b0382166134d55760405162461bcd60e51b8152602060048201526024808201527f4552433732313a207472616e7366657220746f20746865207a65726f206164646044820152637265737360e01b6064820152608401610c3d565b6134e0838383613e88565b6134eb600082613100565b6001600160a01b0383166000908152600360205260408120805460019290613514908490615bb0565b90915550506001600160a01b038216600090815260036020526040812080546001929061354290849061593c565b909155505060008181526002602052604080822080546001600160a01b0319166001600160a01b0386811691821790925591518493918716917fddf252ad1be2c89b69c2b068fc378daa952ba7f163c4a11628f55a4df523b3ef91a4505050565b6040516331a9108f60e11b8152600481018290526001600160a01b03831690636352211e90602401602060405180830381865afa1580156135e8573d6000803e3d6000fd5b505050506040513d601f19601f8201168201806040525081019061360c9190615178565b6001600160a01b03166115435760405162461bcd60e51b815260206004820152600f60248201526e5245433732314e6f7445786973747360881b6044820152606401610c3d565b61365d3382613305565b6136a95760405162461bcd60e51b815260206004820152601b60248201527f4e4654426173653a204e6f744f776e65724f72417070726f76656400000000006044820152606401610c3d565b6127da81613ffd565b6000828152600e60209081526040808320848452909152902060050154600160a01b900460ff16156137165760405162461bcd60e51b815260206004820152600d60248201526c139bdd19525cd1195b195d1959609a1b6044820152606401610c3d565b6000828152600a60205260409020600301548111156115435760405162461bcd60e51b815260206004820152600d60248201526c4e6f74654e6f7445786973747360981b6044820152606401610c3d565b6040516331a9108f60e11b8152600481018290526001600160a01b03831690636352211e90602401602060405180830381865afa1580156137ac573d6000803e3d6000fd5b505050506040513d601f19601f820116820180604052508101906137d09190615178565b6001600160a01b0316336001600160a01b0316146115435760405162461bcd60e51b815260206004820152600e60248201526d2737ba22a9219b9918a7bbb732b960911b6044820152606401610c3d565b600061382c826118c6565b9050336001600160a01b038216148061385b57506000828152601660205260409020546001600160a01b031633145b806132905750326001600160a01b03821614801561329057506013546001600160a01b031633146115435760405162461bcd60e51b8152600401610c3d90615b85565b816001600160a01b0316836001600160a01b031614156139005760405162461bcd60e51b815260206004820152601960248201527f4552433732313a20617070726f766520746f2063616c6c6572000000000000006044820152606401610c3d565b6001600160a01b03838116600081815260056020908152604080832094871680845294825291829020805460ff191686151590811790915591519182527f17307eab39ab6107e8899845ad3d59bd9653f200f220920489ca2b5937696c31910160405180910390a3505050565b6139788484846133fc565b613984848484846140a4565b6124135760405162461bcd60e51b8152600401610c3d90615bc7565b6001600160a01b0382166139f65760405162461bcd60e51b815260206004820181905260248201527f4552433732313a206d696e7420746f20746865207a65726f20616464726573736044820152606401610c3d565b6000818152600260205260409020546001600160a01b031615613a5b5760405162461bcd60e51b815260206004820152601c60248201527f4552433732313a20746f6b656e20616c7265616479206d696e746564000000006044820152606401610c3d565b613a6760008383613e88565b6001600160a01b0382166000908152600360205260408120805460019290613a9090849061593c565b909155505060008181526002602052604080822080546001600160a01b0319166001600160a01b03861690811790915590518392907fddf252ad1be2c89b69c2b068fc378daa952ba7f163c4a11628f55a4df523b3ef908290a45050565b613afa848484846141a2565b7f414cd0b34676984f09a5f76ce9718d4062e50283abe0e7e274a9a5b4e0c99c308484848442604051613b31959493929190615c19565b60405180910390a150505050565b6000613b4a826118c6565b9050336001600160a01b03821614806132905750326001600160a01b03821614801561329057506015546001600160a01b031633146115435760405162461bcd60e51b8152600401610c3d90615b85565b60008281526016602090815260409182902080546001600160a01b0319166001600160a01b038516908117909155915142815284917f691b92a93c526c4f5a357e56a33c33f6250f94e19e6c49be805800615c414931910160405180910390a35050565b613c088461322e565b6001600160a01b0383166000908152600c602052604090205415613c845760405162461bcd60e51b815260206004820152602d60248201527f546172676574206164647265737320616c726561647920686173207072696d6160448201526c393c9031b430b930b1ba32b91760991b6064820152608401610c3d565b6000601260008154613c959061525c565b91829055509050613ca684826139a0565b73__$d8529f0216812a2dec6b96adf1943c3537$__63290274156040518060a00160405280876001600160a01b03168152602001613cee886001600160a01b031660146141bb565b815260200160405180602001604052806000815250815260200160006001600160a01b0316815260200160405180602001604052806000815250815250600084600b600a6040518663ffffffff1660e01b8152600401613d52959493929190615c53565b60006040518083038186803b158015613d6a57600080fd5b505af4158015613d7e573d6000803e3d6000fd5b505050506001600160a01b0384166000908152600c602052604090819020829055516331a9108f60e11b81526004810186905273__$e2c9a8f399964af47bb173600dd9e5f662$__90637f9590a39087908490879087903090636352211e90602401602060405180830381865afa158015613dfd573d6000803e3d6000fd5b505050506040513d601f19601f82011682018060405250810190613e219190615178565b6013546040516001600160e01b031960e089901b168152613e5c9695949392916001600160a01b031690600090600d90601890600401615ce0565b60006040518083038186803b158015613e7457600080fd5b505af4158015612da5573d6000803e3d6000fd5b6000818152601660205260409020546001600160a01b031615613eb057613eb0816000613b9b565b6001600160a01b0383166000908152600c602052604090205415613ee8576001600160a01b0383166000908152600c60205260408120555b6000818152601860205260408120613eff90614356565b905060005b8151811015613ff1576000838152600d6020526040812083518290859085908110613f3157613f31615574565b6020026020010151815260200190815260200160002054905080600014613fde5760135460405163194c934f60e01b815260048101839052602481018690526001600160a01b039091166044820152600d60648201526018608482015273__$d8529f0216812a2dec6b96adf1943c3537$__9063194c934f9060a40160006040518083038186803b158015613fc557600080fd5b505af4158015613fd9573d6000803e3d6000fd5b505050505b5080613fe98161525c565b915050613f04565b50612413848484614361565b6000614008826118c6565b905061401681600084613e88565b614021600083613100565b6001600160a01b038116600090815260036020526040812080546001929061404a908490615bb0565b909155505060008281526002602052604080822080546001600160a01b0319169055518391906001600160a01b038416907fddf252ad1be2c89b69c2b068fc378daa952ba7f163c4a11628f55a4df523b3ef908390a45050565b60006001600160a01b0384163b1561419757604051630a85bd0160e11b81526001600160a01b0385169063150b7a02906140e8903390899088908890600401615d3e565b6020604051808303816000875af1925050508015614123575060408051601f3d908101601f1916820190925261412091810190615d7b565b60015b61417d573d808015614151576040519150601f19603f3d011682016040523d82523d6000602084013e614156565b606091505b5080516141755760405162461bcd60e51b8152600401610c3d90615bc7565b805181602001fd5b6001600160e01b031916630a85bd0160e11b1490506133f4565b506001949350505050565b6141ae6000858561463e565b50610cf46001838361463e565b606060006141ca836002615d98565b6141d590600261593c565b6001600160401b038111156141ec576141ec614cfa565b6040519080825280601f01601f191660200182016040528015614216576020820181803683370190505b509050600360fc1b8160008151811061423157614231615574565b60200101906001600160f81b031916908160001a905350600f60fb1b8160018151811061426057614260615574565b60200101906001600160f81b031916908160001a9053506000614284846002615d98565b61428f90600161593c565b90505b6001811115614307576f181899199a1a9b1b9c1cb0b131b232b360811b85600f16601081106142c3576142c3615574565b1a60f81b8282815181106142d9576142d9615574565b60200101906001600160f81b031916908160001a90535060049490941c9361430081615db7565b9050614292565b508315611cab5760405162461bcd60e51b815260206004820181905260248201527f537472696e67733a20686578206c656e67746820696e73756666696369656e746044820152606401610c3d565b6060610b3082614419565b6001600160a01b0383166143bc576143b781600880546000838152600960205260408120829055600182018355919091527ff3f7a9fe364faab93b216da50a3214154f22a0a2b415b23a84c8169e8b636ee30155565b6143df565b816001600160a01b0316836001600160a01b0316146143df576143df8382614474565b6001600160a01b0382166143f657610e0c81614511565b826001600160a01b0316826001600160a01b031614610e0c57610e0c82826145c0565b60608160000180548060200260200160405190810160405280929190818152602001828054801561260057602002820191906000526020600020905b8154815260200190600101908083116144555750505050509050919050565b60006001614481846119c3565b61448b9190615bb0565b6000838152600760205260409020549091508082146144de576001600160a01b03841660009081526006602090815260408083208584528252808320548484528184208190558352600790915290208190555b5060009182526007602090815260408084208490556001600160a01b039094168352600681528383209183525290812055565b60085460009061452390600190615bb0565b6000838152600960205260408120546008805493945090928490811061454b5761454b615574565b90600052602060002001549050806008838154811061456c5761456c615574565b60009182526020808320909101929092558281526009909152604080822084905585825281205560088054806145a4576145a4615dce565b6001900381819060005260206000200160009055905550505050565b60006145cb836119c3565b6001600160a01b039093166000908152600660209081526040808320868452825280832085905593825260079052919091209190915550565b5080546146109061506a565b6000825580601f10614620575050565b601f0160209004906000526020600020908101906127da919061470a565b82805461464a9061506a565b90600052602060002090601f01602090048101928261466c57600085556146b2565b82601f106146855782800160ff198235161785556146b2565b828001600101855582156146b2579182015b828111156146b2578235825591602001919060010190614697565b506146be92915061470a565b5090565b6040518060c001604052806000815260200160608152602001606081526020016000815260200160006001600160a01b0316815260200160006001600160a01b031681525090565b5b808211156146be576000815560010161470b565b6001600160e01b0319811681146127da57600080fd5b60006020828403121561474757600080fd5b8135611cab8161471f565b60006020828403121561476457600080fd5b5035919050565b60005b8381101561478657818101518382015260200161476e565b838111156124135750506000910152565b600081518084526147af81602086016020860161476b565b601f01601f19169290920160200192915050565b602081526000611cab6020830184614797565b6000606082840312156147e857600080fd5b50919050565b60006020828403121561480057600080fd5b81356001600160401b0381111561481657600080fd5b6133f4848285016147d6565b6001600160a01b03811681146127da57600080fd5b6000806040838503121561484a57600080fd5b823561485581614822565b946020939093013593505050565b60006060828403121561487557600080fd5b611cab83836147d6565b6000608082840312156147e857600080fd5b6000602082840312156148a357600080fd5b81356001600160401b038111156148b957600080fd5b6133f48482850161487f565b6000806000606084860312156148da57600080fd5b83356148e581614822565b925060208401356148f581614822565b929592945050506040919091013590565b600060e082840312156147e857600080fd5b60006020828403121561492a57600080fd5b81356001600160401b0381111561494057600080fd5b6133f484828501614906565b60006020828403121561495e57600080fd5b8135611cab81614822565b6000604082840312156147e857600080fd5b6000806060838503121561498e57600080fd5b82356001600160401b038111156149a457600080fd5b6149b085828601614906565b9250506149c08460208501614969565b90509250929050565b60008083601f8401126149db57600080fd5b5081356001600160401b038111156149f257600080fd5b602083019150836020828501011115614a0a57600080fd5b9250929050565b600080600060408486031215614a2657600080fd5b8335925060208401356001600160401b03811115614a4357600080fd5b614a4f868287016149c9565b9497909650939450505050565b600060808284031215614a6e57600080fd5b611cab838361487f565b60008060408385031215614a8b57600080fd5b82356001600160401b03811115614aa157600080fd5b614aad85828601614906565b95602094909401359450505050565b60008060408385031215614acf57600080fd5b50508035926020909101359150565b60008060008060608587031215614af457600080fd5b843593506020850135925060408501356001600160401b03811115614b1857600080fd5b614b24878288016149c9565b95989497509550505050565b600080600060408486031215614b4557600080fd5b83356001600160401b03811115614b5b57600080fd5b614b67868287016149c9565b9094509250506020840135614b7b81614822565b809150509250925092565b60008060408385031215614b9957600080fd5b82356001600160401b03811115614baf57600080fd5b614bbb85828601614906565b9250506020830135614bcc81614822565b809150509250929050565b60008060408385031215614bea57600080fd5b823591506020830135614bcc81614822565b60008060208385031215614c0f57600080fd5b82356001600160401b03811115614c2557600080fd5b614c31858286016149c9565b90969095509350505050565b60208152815160208201526000602083015160c06040840152614c6360e0840182614797565b90506040840151601f19848303016060850152614c808282614797565b91505060608401516080840152608084015160018060a01b0380821660a08601528060a08701511660c086015250508091505092915050565b80358015158114614cc957600080fd5b919050565b60008060408385031215614ce157600080fd5b8235614cec81614822565b91506149c060208401614cb9565b634e487b7160e01b600052604160045260246000fd5b604051601f8201601f191681016001600160401b0381118282101715614d3857614d38614cfa565b604052919050565b60006001600160401b03821115614d5957614d59614cfa565b50601f01601f191660200190565b60008060008060808587031215614d7d57600080fd5b8435614d8881614822565b93506020850135614d9881614822565b92506040850135915060608501356001600160401b03811115614dba57600080fd5b8501601f81018713614dcb57600080fd5b8035614dde614dd982614d40565b614d10565b818152886020838501011115614df357600080fd5b8160208401602083013760006020838301015280935050505092959194509250565b600060a082840312156147e857600080fd5b600060208284031215614e3957600080fd5b81356001600160401b03811115614e4f57600080fd5b6133f484828501614e15565b600080600060a08486031215614e7057600080fd5b83359250614e8185602086016147d6565b9150608084013590509250925092565b60208152815160208201526020820151604082015260006040830151610100806060850152614ec4610120850183614797565b9150606085015160018060a01b0380821660808701528060808801511660a0870152505060a0850151614f0260c08601826001600160a01b03169052565b5060c085015180151560e08601525060e0850151801515858301525090949350505050565b60008060008060008060008060c0898b031215614f4357600080fd5b88356001600160401b0380821115614f5a57600080fd5b614f668c838d016149c9565b909a50985060208b0135915080821115614f7f57600080fd5b50614f8c8b828c016149c9565b9097509550506040890135614fa081614822565b93506060890135614fb081614822565b92506080890135614fc081614822565b915060a0890135614fd081614822565b809150509295985092959890939650565b60008060408385031215614ff457600080fd5b8235614fff81614822565b91506020830135614bcc81614822565b60008060006040848603121561502457600080fd5b83356001600160401b038082111561503b57600080fd5b61504787838801614906565b9450602086013591508082111561505d57600080fd5b50614a4f868287016149c9565b600181811c9082168061507e57607f821691505b602082108114156147e857634e487b7160e01b600052602260045260246000fd5b6000808335601e198436030181126150b657600080fd5b8301803591506001600160401b038211156150d057600080fd5b602001915036819003821315614a0a57600080fd5b81835281816020850137506000828201602090810191909152601f909101601f19169091010190565b6001600160a01b0386811682528516602082015260806040820181905260009061513b90830185876150e5565b90508260608301529695505050505050565b8581526001600160a01b038516602082015260806040820181905260009061513b90830185876150e5565b60006020828403121561518a57600080fd5b8151611cab81614822565b60006101208c83528b60208401528a60408401528060608401526151bc8184018a8c6150e5565b6001600160a01b03988916608085015296881660a084015250509290941660c083015260e0820152610100019190915295945050505050565b60208082526031908201527f4552433732313a207472616e736665722063616c6c6572206973206e6f74206f6040820152701ddb995c881b9bdc88185c1c1c9bdd9959607a1b606082015260800190565b634e487b7160e01b600052601160045260246000fd5b600060001982141561527057615270615246565b5060010190565b6000808335601e1984360301811261528e57600080fd5b83016020810192503590506001600160401b038111156152ad57600080fd5b803603831315614a0a57600080fd5b8035825260006152cf6020830183615277565b60e060208601526152e460e0860182846150e5565b91505060408301356152f581614822565b6001600160a01b0381811660408701526153126060860186615277565b925086840360608801526153278484836150e5565b9350506080850135915061533a82614822565b16608085015261534d60a0840184615277565b85830360a08701526153608382846150e5565b9250505061537060c08401614cb9565b151560c08501528091505092915050565b60c08152600061539460c08301886152bc565b602083810197909752604083019590955250606081019290925281830360808301526000835260a09091015201919050565b6000602082840312156153d857600080fd5b5051919050565b60c0815260006153f260c08301896152bc565b87602084015286604084015285606084015282810360808401526154168186614797565b9150508260a0830152979650505050505050565b8381526040602082015260006154446040830184866150e5565b95945050505050565b60808152843560808201526000602086013561546881614822565b6001600160a01b0381811660a0850152604088013560c085015261548f6060890189615277565b9250608060e08601526154a7610100860184836150e5565b919097166020850152604084019590955250506060015292915050565b600080835481600182811c9150808316806154e057607f831692505b602080841082141561550057634e487b7160e01b86526022600452602486fd5b818015615514576001811461552557615552565b60ff19861689528489019650615552565b60008a81526020902060005b8681101561554a5781548b820152908501908301615531565b505084890196505b509498975050505050505050565b6020815260006133f46020830184866150e5565b634e487b7160e01b600052603260045260246000fd5b608081528435608082015260006155a46020870187615277565b608060a08501526155ba610100850182846150e5565b915050604087013560c08401526155d46060880188615277565b848303607f190160e08601526155eb8382846150e5565b6001600160a01b03989098166020860152505050506040810192909252606090910152919050565b85815284602082015260806040820152600061513b6080830185876150e5565b6001600160a01b038781168252602082018790528516604082015260a06060820181905260009061566790830185876150e5565b9050826080830152979650505050505050565b8335815260c08101602085013561569081614822565b6001600160a01b039081166020840152604086810135908401526060958601359583019590955292909316608084015260a09092019190915290565b8335815260a0810160208501356156e281614822565b6001600160a01b0390811660208401526040958601359583019590955292909316606084015260809092019190915290565b6080815284356080820152602085013560a0820152604085013560c082015260006157426060870187615277565b608060e0850152615758610100850182846150e5565b6001600160a01b039790971660208501525050506040810192909252606090910152919050565b8183823760009101908152919050565b8581526080602082015260006157a96080830186886150e5565b604083019490945250606001529392505050565b888152876020820152600060018060a01b03808916604084015260e060608401526157ec60e08401888a6150e5565b951660808301525060a081019290925260c09091015295945050505050565b60a08152853560a0820152602086013560c0820152604086013560e0820152606086013561010082015260006158446080880188615277565b60a061012085015261585b610140850182846150e5565b6001600160a01b0398909816602085015250505060408101939093526060830191909152608090910152919050565b85815260e081016158b260208301878035825260208082013590830152604090810135910152565b60808201949094526001600160a01b039290921660a083015260c09091015292915050565b6080815284356080820152600060208601356158f281614822565b6001600160a01b0381811660a0850152604088013560c0850152606088013560e08501526159236080890189615277565b925060a06101008601526154a7610120860184836150e5565b6000821982111561594f5761594f615246565b500190565b60a081526000863561596581614822565b6001600160a01b0381811660a085015261598260208a018a615277565b925060a060c086015261599a610140860184836150e5565b9250506159aa60408a018a615277565b609f19808786030160e08801526159c28583856150e5565b945060608c013592506159d483614822565b8383166101008801526159ea60808d018d615277565b9450925080878603016101208801525050615a068383836150e5565b9350505050615a19602083018715159052565b8460408301528360608301528260808301529695505050505050565b86815285602082015260018060a01b038516604082015260a06060820152600061566760a0830185876150e5565b8781526101208101615a8c60208301898035825260208082013590830152604090810135910152565b6001600160a01b03968716608083015260a08201959095529290941660c083015260e0820152610100019190915292915050565b600060208284031215615ad257600080fd5b81516001600160401b03811115615ae857600080fd5b8201601f81018413615af957600080fd5b8051615b07614dd982614d40565b818152856020838501011115615b1c57600080fd5b61544482602083016020860161476b565b60608152833560608201526000615b476020860186615277565b60606080850152615b5c60c0850182846150e5565b60409788013560a08601526001600160a01b039690961660208501525050509092019190915290565b6020808252601190820152702737ba21b430b930b1ba32b927bbb732b960791b604082015260600190565b600082821015615bc257615bc2615246565b500390565b60208082526032908201527f4552433732313a207472616e7366657220746f206e6f6e20455243373231526560408201527131b2b4bb32b91034b6b83632b6b2b73a32b960711b606082015260800190565b606081526000615c2d6060830187896150e5565b8281036020840152615c408186886150e5565b9150508260408301529695505050505050565b60a08152600060018060a01b038088511660a0840152602088015160a060c0850152615c83610140850182614797565b90506040890151609f19808684030160e0870152615ca18383614797565b92508360608c01511661010087015260808b0151935080868403016101208701525050615cce8183614797565b92505050615a19602083018715159052565b60006101208b83528a6020840152896040840152806060840152615d068184018a614797565b6001600160a01b03988916608085015296881660a084015250509290941660c083015260e08201526101000191909152949350505050565b6001600160a01b0385811682528416602082015260408101839052608060608201819052600090615d7190830184614797565b9695505050505050565b600060208284031215615d8d57600080fd5b8151611cab8161471f565b6000816000190483118215151615615db257615db2615246565b500290565b600081615dc657615dc6615246565b506000190190565b634e487b7160e01b600052603160045260246000fdfea264697066735822122040eb2443f3881f129dc8c830708271a4641912b7460e8265c7e9c8ccadb76bfa64736f6c634300080a0033",
    "linkReferences": {
        "contracts/libraries/CharacterLogic.sol": {
            "CharacterLogic": [
                {
                    "length": 20,
                    "start": 5923
                },
                {
                    "length": 20,
                    "start": 6954
                },
                {
                    "length": 20,
                    "start": 7972
                },
                {
                    "length": 20,
                    "start": 8900
                },
                {
                    "length": 20,
                    "start": 10040
                },
                {
                    "length": 20,
                    "start": 12388
                },
                {
                    "length": 20,
                    "start": 15561
                },
                {
                    "length": 20,
                    "start": 16305
                }
            ]
        },
        "contracts/libraries/LinkLogic.sol": {
            "LinkLogic": [
                {
                    "length": 20,
                    "start": 3846
                },
                {
                    "length": 20,
                    "start": 3919
                },
                {
                    "length": 20,
                    "start": 5116
                },
                {
                    "length": 20,
                    "start": 5262
                },
                {
                    "length": 20,
                    "start": 6115
                },
                {
                    "length": 20,
                    "start": 6177
                },
                {
                    "length": 20,
                    "start": 7440
                },
                {
                    "length": 20,
                    "start": 7853
                },
                {
                    "length": 20,
                    "start": 8034
                },
                {
                    "length": 20,
                    "start": 9320
                },
                {
                    "length": 20,
                    "start": 9440
                },
                {
                    "length": 20,
                    "start": 9830
                },
                {
                    "length": 20,
                    "start": 11204
                },
                {
                    "length": 20,
                    "start": 11840
                },
                {
                    "length": 20,
                    "start": 15828
                }
            ]
        },
        "contracts/libraries/LinkModuleLogic.sol": {
            "LinkModuleLogic": [
                {
                    "length": 20,
                    "start": 3205
                },
                {
                    "length": 20,
                    "start": 3646
                },
                {
                    "length": 20,
                    "start": 6522
                },
                {
                    "length": 20,
                    "start": 10265
                },
                {
                    "length": 20,
                    "start": 11131
                }
            ]
        },
        "contracts/libraries/PostLogic.sol": {
            "PostLogic": [
                {
                    "length": 20,
                    "start": 4266
                },
                {
                    "length": 20,
                    "start": 4772
                },
                {
                    "length": 20,
                    "start": 5551
                },
                {
                    "length": 20,
                    "start": 6272
                },
                {
                    "length": 20,
                    "start": 7724
                },
                {
                    "length": 20,
                    "start": 8292
                },
                {
                    "length": 20,
                    "start": 9013
                },
                {
                    "length": 20,
                    "start": 12162
                }
            ]
        }
    },
    "deployedLinkReferences": {
        "contracts/libraries/CharacterLogic.sol": {
            "CharacterLogic": [
                {
                    "length": 20,
                    "start": 5890
                },
                {
                    "length": 20,
                    "start": 6921
                },
                {
                    "length": 20,
                    "start": 7939
                },
                {
                    "length": 20,
                    "start": 8867
                },
                {
                    "length": 20,
                    "start": 10007
                },
                {
                    "length": 20,
                    "start": 12355
                },
                {
                    "length": 20,
                    "start": 15528
                },
                {
                    "length": 20,
                    "start": 16272
                }
            ]
        },
        "contracts/libraries/LinkLogic.sol": {
            "LinkLogic": [
                {
                    "length": 20,
                    "start": 3813
                },
                {
                    "length": 20,
                    "start": 3886
                },
                {
                    "length": 20,
                    "start": 5083
                },
                {
                    "length": 20,
                    "start": 5229
                },
                {
                    "length": 20,
                    "start": 6082
                },
                {
                    "length": 20,
                    "start": 6144
                },
                {
                    "length": 20,
                    "start": 7407
                },
                {
                    "length": 20,
                    "start": 7820
                },
                {
                    "length": 20,
                    "start": 8001
                },
                {
                    "length": 20,
                    "start": 9287
                },
                {
                    "length": 20,
                    "start": 9407
                },
                {
                    "length": 20,
                    "start": 9797
                },
                {
                    "length": 20,
                    "start": 11171
                },
                {
                    "length": 20,
                    "start": 11807
                },
                {
                    "length": 20,
                    "start": 15795
                }
            ]
        },
        "contracts/libraries/LinkModuleLogic.sol": {
            "LinkModuleLogic": [
                {
                    "length": 20,
                    "start": 3172
                },
                {
                    "length": 20,
                    "start": 3613
                },
                {
                    "length": 20,
                    "start": 6489
                },
                {
                    "length": 20,
                    "start": 10232
                },
                {
                    "length": 20,
                    "start": 11098
                }
            ]
        },
        "contracts/libraries/PostLogic.sol": {
            "PostLogic": [
                {
                    "length": 20,
                    "start": 4233
                },
                {
                    "length": 20,
                    "start": 4739
                },
                {
                    "length": 20,
                    "start": 5518
                },
                {
                    "length": 20,
                    "start": 6239
                },
                {
                    "length": 20,
                    "start": 7691
                },
                {
                    "length": 20,
                    "start": 8259
                },
                {
                    "length": 20,
                    "start": 8980
                },
                {
                    "length": 20,
                    "start": 12129
                }
            ]
        }
    }
}