{
  "_format": "hh-sol-artifact-1",
  "contractName": "Web3Entry",
  "sourceName": "contracts/Web3Entry.sol",
  "abi": [
    {
      "anonymous": false,
      "inputs": [
        {
          "indexed": true,
          "internalType": "address",
          "name": "owner",
          "type": "address"
        },
        {
          "indexed": true,
          "internalType": "address",
          "name": "approved",
          "type": "address"
        },
        {
          "indexed": true,
          "internalType": "uint256",
          "name": "tokenId",
          "type": "uint256"
        }
      ],
      "name": "Approval",
      "type": "event"
    },
    {
      "anonymous": false,
      "inputs": [
        {
          "indexed": true,
          "internalType": "address",
          "name": "owner",
          "type": "address"
        },
        {
          "indexed": true,
          "internalType": "address",
          "name": "operator",
          "type": "address"
        },
        {
          "indexed": false,
          "internalType": "bool",
          "name": "approved",
          "type": "bool"
        }
      ],
      "name": "ApprovalForAll",
      "type": "event"
    },
    {
      "anonymous": false,
      "inputs": [
        {
          "indexed": true,
          "internalType": "address",
          "name": "from",
          "type": "address"
        },
        {
          "indexed": true,
          "internalType": "address",
          "name": "to",
          "type": "address"
        },
        {
          "indexed": true,
          "internalType": "uint256",
          "name": "tokenId",
          "type": "uint256"
        }
      ],
      "name": "Transfer",
      "type": "event"
    },
    {
      "inputs": [
        {
          "internalType": "address",
          "name": "to",
          "type": "address"
        },
        {
          "internalType": "uint256",
          "name": "tokenId",
          "type": "uint256"
        }
      ],
      "name": "approve",
      "outputs": [],
      "stateMutability": "nonpayable",
      "type": "function"
    },
    {
      "inputs": [
        {
          "internalType": "uint256",
          "name": "linklistId",
          "type": "uint256"
        },
        {
          "internalType": "uint256",
          "name": "profileId",
          "type": "uint256"
        }
      ],
      "name": "attachLinklist",
      "outputs": [],
      "stateMutability": "nonpayable",
      "type": "function"
    },
    {
      "inputs": [
        {
          "internalType": "address",
          "name": "owner",
          "type": "address"
        }
      ],
      "name": "balanceOf",
      "outputs": [
        {
          "internalType": "uint256",
          "name": "",
          "type": "uint256"
        }
      ],
      "stateMutability": "view",
      "type": "function"
    },
    {
      "inputs": [
        {
          "internalType": "uint256",
          "name": "tokenId",
          "type": "uint256"
        }
      ],
      "name": "burn",
      "outputs": [],
      "stateMutability": "nonpayable",
      "type": "function"
    },
    {
      "inputs": [
        {
          "components": [
            {
              "internalType": "address",
              "name": "to",
              "type": "address"
            },
            {
              "internalType": "string",
              "name": "handle",
              "type": "string"
            },
            {
              "internalType": "string",
              "name": "uri",
              "type": "string"
            },
            {
              "internalType": "address",
              "name": "linkModule",
              "type": "address"
            },
            {
              "internalType": "bytes",
              "name": "linkModuleInitData",
              "type": "bytes"
            }
          ],
          "internalType": "struct DataTypes.CreateProfileData",
          "name": "vars",
          "type": "tuple"
        }
      ],
      "name": "createProfile",
      "outputs": [],
      "stateMutability": "nonpayable",
      "type": "function"
    },
    {
      "inputs": [
        {
          "internalType": "uint256",
          "name": "fromProfileId",
          "type": "uint256"
        },
        {
          "internalType": "address",
          "name": "to",
          "type": "address"
        },
        {
          "internalType": "bytes32",
          "name": "linkType",
          "type": "bytes32"
        }
      ],
      "name": "createThenLinkProfile",
      "outputs": [],
      "stateMutability": "nonpayable",
      "type": "function"
    },
    {
      "inputs": [
        {
          "internalType": "uint256",
          "name": "linklistId",
          "type": "uint256"
        },
        {
          "internalType": "uint256",
          "name": "profileId",
          "type": "uint256"
        }
      ],
      "name": "detachLinklist",
      "outputs": [],
      "stateMutability": "nonpayable",
      "type": "function"
    },
    {
      "inputs": [
        {
          "internalType": "uint256",
          "name": "tokenId",
          "type": "uint256"
        }
      ],
      "name": "getApproved",
      "outputs": [
        {
          "internalType": "address",
          "name": "",
          "type": "address"
        }
      ],
      "stateMutability": "view",
      "type": "function"
    },
    {
      "inputs": [
        {
          "internalType": "uint256",
          "name": "profileId",
          "type": "uint256"
        }
      ],
      "name": "getHandle",
      "outputs": [
        {
          "internalType": "string",
          "name": "",
          "type": "string"
        }
      ],
      "stateMutability": "view",
      "type": "function"
    },
    {
      "inputs": [
        {
          "internalType": "address",
          "name": "account",
          "type": "address"
        }
      ],
      "name": "getLinkModule4Address",
      "outputs": [
        {
          "internalType": "address",
          "name": "",
          "type": "address"
        }
      ],
      "stateMutability": "view",
      "type": "function"
    },
    {
      "inputs": [
        {
          "internalType": "address",
          "name": "tokenAddress",
          "type": "address"
        },
        {
          "internalType": "uint256",
          "name": "tokenId",
          "type": "uint256"
        }
      ],
      "name": "getLinkModule4ERC721",
      "outputs": [
        {
          "internalType": "address",
          "name": "",
          "type": "address"
        }
      ],
      "stateMutability": "view",
      "type": "function"
    },
    {
      "inputs": [
        {
          "internalType": "uint256",
          "name": "tokenId",
          "type": "uint256"
        }
      ],
      "name": "getLinkModule4Linklist",
      "outputs": [
        {
          "internalType": "address",
          "name": "",
          "type": "address"
        }
      ],
      "stateMutability": "view",
      "type": "function"
    },
    {
      "inputs": [
        {
          "internalType": "uint256",
          "name": "fromProfileId",
          "type": "uint256"
        },
        {
          "internalType": "bytes32",
          "name": "linkType",
          "type": "bytes32"
        }
      ],
      "name": "getLinkingProfileIds",
      "outputs": [
        {
          "internalType": "uint256[]",
          "name": "results",
          "type": "uint256[]"
        }
      ],
      "stateMutability": "view",
      "type": "function"
    },
    {
      "inputs": [],
      "name": "getLinklistContract",
      "outputs": [
        {
          "internalType": "address",
          "name": "",
          "type": "address"
        }
      ],
      "stateMutability": "view",
      "type": "function"
    },
    {
      "inputs": [
        {
          "internalType": "uint256",
          "name": "profileId",
          "type": "uint256"
        },
        {
          "internalType": "bytes32",
          "name": "linkType",
          "type": "bytes32"
        }
      ],
      "name": "getLinklistUri",
      "outputs": [
        {
          "internalType": "string",
          "name": "",
          "type": "string"
        }
      ],
      "stateMutability": "view",
      "type": "function"
    },
    {
      "inputs": [
        {
          "internalType": "uint256",
          "name": "profileId",
          "type": "uint256"
        },
        {
          "internalType": "uint256",
          "name": "noteId",
          "type": "uint256"
        }
      ],
      "name": "getNote",
      "outputs": [
        {
          "components": [
            {
              "internalType": "bytes32",
              "name": "linkItemType",
              "type": "bytes32"
            },
            {
              "internalType": "uint256",
              "name": "linklistId",
              "type": "uint256"
            },
            {
              "internalType": "bytes32",
              "name": "linkKey",
              "type": "bytes32"
            },
            {
              "internalType": "string",
              "name": "contentUri",
              "type": "string"
            },
            {
              "internalType": "address",
              "name": "linkModule",
              "type": "address"
            },
            {
              "internalType": "address",
              "name": "mintModule",
              "type": "address"
            },
            {
              "internalType": "address",
              "name": "mintNFT",
              "type": "address"
            }
          ],
          "internalType": "struct DataTypes.Note",
          "name": "",
          "type": "tuple"
        }
      ],
      "stateMutability": "view",
      "type": "function"
    },
    {
      "inputs": [
        {
          "internalType": "address",
          "name": "account",
          "type": "address"
        }
      ],
      "name": "getPrimaryProfileId",
      "outputs": [
        {
          "internalType": "uint256",
          "name": "",
          "type": "uint256"
        }
      ],
      "stateMutability": "view",
      "type": "function"
    },
    {
      "inputs": [
        {
          "internalType": "uint256",
          "name": "profileId",
          "type": "uint256"
        }
      ],
      "name": "getProfile",
      "outputs": [
        {
          "components": [
            {
              "internalType": "uint256",
              "name": "profileId",
              "type": "uint256"
            },
            {
              "internalType": "string",
              "name": "handle",
              "type": "string"
            },
            {
              "internalType": "string",
              "name": "uri",
              "type": "string"
            },
            {
              "internalType": "uint256",
              "name": "noteCount",
              "type": "uint256"
            },
            {
              "internalType": "address",
              "name": "socialToken",
              "type": "address"
            },
            {
              "internalType": "address",
              "name": "linkModule",
              "type": "address"
            }
          ],
          "internalType": "struct DataTypes.Profile",
          "name": "",
          "type": "tuple"
        }
      ],
      "stateMutability": "view",
      "type": "function"
    },
    {
      "inputs": [
        {
          "internalType": "string",
          "name": "handle",
          "type": "string"
        }
      ],
      "name": "getProfileByHandle",
      "outputs": [
        {
          "components": [
            {
              "internalType": "uint256",
              "name": "profileId",
              "type": "uint256"
            },
            {
              "internalType": "string",
              "name": "handle",
              "type": "string"
            },
            {
              "internalType": "string",
              "name": "uri",
              "type": "string"
            },
            {
              "internalType": "uint256",
              "name": "noteCount",
              "type": "uint256"
            },
            {
              "internalType": "address",
              "name": "socialToken",
              "type": "address"
            },
            {
              "internalType": "address",
              "name": "linkModule",
              "type": "address"
            }
          ],
          "internalType": "struct DataTypes.Profile",
          "name": "",
          "type": "tuple"
        }
      ],
      "stateMutability": "view",
      "type": "function"
    },
    {
      "inputs": [
        {
          "internalType": "uint256",
          "name": "profileId",
          "type": "uint256"
        }
      ],
      "name": "getProfileUri",
      "outputs": [
        {
          "internalType": "string",
          "name": "",
          "type": "string"
        }
      ],
      "stateMutability": "view",
      "type": "function"
    },
    {
      "inputs": [],
      "name": "getRevision",
      "outputs": [
        {
          "internalType": "uint256",
          "name": "",
          "type": "uint256"
        }
      ],
      "stateMutability": "pure",
      "type": "function"
    },
    {
      "inputs": [
        {
          "internalType": "string",
          "name": "_name",
          "type": "string"
        },
        {
          "internalType": "string",
          "name": "_symbol",
          "type": "string"
        },
        {
          "internalType": "address",
          "name": "_linklistContract",
          "type": "address"
        },
        {
          "internalType": "address",
          "name": "_mintNFTImpl",
          "type": "address"
        }
      ],
      "name": "initialize",
      "outputs": [],
      "stateMutability": "nonpayable",
      "type": "function"
    },
    {
      "inputs": [
        {
          "internalType": "address",
          "name": "owner",
          "type": "address"
        },
        {
          "internalType": "address",
          "name": "operator",
          "type": "address"
        }
      ],
      "name": "isApprovedForAll",
      "outputs": [
        {
          "internalType": "bool",
          "name": "",
          "type": "bool"
        }
      ],
      "stateMutability": "view",
      "type": "function"
    },
    {
      "inputs": [
        {
          "internalType": "uint256",
          "name": "profileId",
          "type": "uint256"
        }
      ],
      "name": "isPrimaryProfile",
      "outputs": [
        {
          "internalType": "bool",
          "name": "",
          "type": "bool"
        }
      ],
      "stateMutability": "view",
      "type": "function"
    },
    {
      "inputs": [
        {
          "internalType": "uint256",
          "name": "fromProfileId",
          "type": "uint256"
        },
        {
          "internalType": "address",
          "name": "ethAddress",
          "type": "address"
        },
        {
          "internalType": "bytes32",
          "name": "linkType",
          "type": "bytes32"
        }
      ],
      "name": "linkAddress",
      "outputs": [],
      "stateMutability": "nonpayable",
      "type": "function"
    },
    {
      "inputs": [
        {
          "internalType": "uint256",
          "name": "fromProfileId",
          "type": "uint256"
        },
        {
          "internalType": "string",
          "name": "toUri",
          "type": "string"
        },
        {
          "internalType": "bytes32",
          "name": "linkType",
          "type": "bytes32"
        }
      ],
      "name": "linkAny",
      "outputs": [],
      "stateMutability": "nonpayable",
      "type": "function"
    },
    {
      "inputs": [
        {
          "internalType": "uint256",
          "name": "fromProfileId",
          "type": "uint256"
        },
        {
          "internalType": "address",
          "name": "tokenAddress",
          "type": "address"
        },
        {
          "internalType": "uint256",
          "name": "tokenId",
          "type": "uint256"
        },
        {
          "internalType": "bytes32",
          "name": "linkType",
          "type": "bytes32"
        }
      ],
      "name": "linkERC721",
      "outputs": [],
      "stateMutability": "nonpayable",
      "type": "function"
    },
    {
      "inputs": [
        {
          "internalType": "uint256",
          "name": "fromProfileId",
          "type": "uint256"
        },
        {
          "internalType": "uint256",
          "name": "toLinkListId",
          "type": "uint256"
        },
        {
          "internalType": "bytes32",
          "name": "linkType",
          "type": "bytes32"
        }
      ],
      "name": "linkLinklist",
      "outputs": [],
      "stateMutability": "nonpayable",
      "type": "function"
    },
    {
      "inputs": [
        {
          "internalType": "uint256",
          "name": "fromProfileId",
          "type": "uint256"
        },
        {
          "internalType": "uint256",
          "name": "toProfileId",
          "type": "uint256"
        },
        {
          "internalType": "uint256",
          "name": "toNoteId",
          "type": "uint256"
        },
        {
          "internalType": "bytes32",
          "name": "linkType",
          "type": "bytes32"
        }
      ],
      "name": "linkNote",
      "outputs": [],
      "stateMutability": "nonpayable",
      "type": "function"
    },
    {
      "inputs": [
        {
          "internalType": "uint256",
          "name": "fromProfileId",
          "type": "uint256"
        },
        {
          "internalType": "uint256",
          "name": "toProfileId",
          "type": "uint256"
        },
        {
          "internalType": "bytes32",
          "name": "linkType",
          "type": "bytes32"
        }
      ],
      "name": "linkProfile",
      "outputs": [],
      "stateMutability": "nonpayable",
      "type": "function"
    },
    {
      "inputs": [
        {
          "internalType": "uint256",
          "name": "fromProfileId",
          "type": "uint256"
        },
        {
          "components": [
            {
              "internalType": "uint256",
              "name": "fromProfileId",
              "type": "uint256"
            },
            {
              "internalType": "uint256",
              "name": "toProfileId",
              "type": "uint256"
            },
            {
              "internalType": "bytes32",
              "name": "linkType",
              "type": "bytes32"
            }
          ],
          "internalType": "struct DataTypes.ProfileLinkStruct",
          "name": "linkData",
          "type": "tuple"
        },
        {
          "internalType": "bytes32",
          "name": "linkType",
          "type": "bytes32"
        }
      ],
      "name": "linkProfileLink",
      "outputs": [],
      "stateMutability": "nonpayable",
      "type": "function"
    },
    {
      "inputs": [
        {
          "internalType": "uint256",
          "name": "profileId",
          "type": "uint256"
        },
        {
          "internalType": "uint256",
          "name": "noteId",
          "type": "uint256"
        },
        {
          "internalType": "address",
          "name": "to",
          "type": "address"
        },
        {
          "internalType": "bytes",
          "name": "mintModuleData",
          "type": "bytes"
        }
      ],
      "name": "mintNote",
      "outputs": [
        {
          "internalType": "uint256",
          "name": "",
          "type": "uint256"
        }
      ],
      "stateMutability": "nonpayable",
      "type": "function"
    },
    {
      "inputs": [],
      "name": "name",
      "outputs": [
        {
          "internalType": "string",
          "name": "",
          "type": "string"
        }
      ],
      "stateMutability": "view",
      "type": "function"
    },
    {
      "inputs": [
        {
          "internalType": "uint256",
          "name": "tokenId",
          "type": "uint256"
        }
      ],
      "name": "ownerOf",
      "outputs": [
        {
          "internalType": "address",
          "name": "",
          "type": "address"
        }
      ],
      "stateMutability": "view",
      "type": "function"
    },
    {
      "inputs": [
        {
          "components": [
            {
              "internalType": "uint256",
              "name": "profileId",
              "type": "uint256"
            },
            {
              "internalType": "string",
              "name": "contentUri",
              "type": "string"
            },
            {
              "internalType": "address",
              "name": "linkModule",
              "type": "address"
            },
            {
              "internalType": "bytes",
              "name": "linkModuleInitData",
              "type": "bytes"
            },
            {
              "internalType": "address",
              "name": "mintModule",
              "type": "address"
            },
            {
              "internalType": "bytes",
              "name": "mintModuleInitData",
              "type": "bytes"
            }
          ],
          "internalType": "struct DataTypes.PostNoteData",
          "name": "vars",
          "type": "tuple"
        }
      ],
      "name": "postNote",
      "outputs": [
        {
          "internalType": "uint256",
          "name": "",
          "type": "uint256"
        }
      ],
      "stateMutability": "nonpayable",
      "type": "function"
    },
    {
      "inputs": [
        {
          "components": [
            {
              "internalType": "uint256",
              "name": "profileId",
              "type": "uint256"
            },
            {
              "internalType": "string",
              "name": "contentUri",
              "type": "string"
            },
            {
              "internalType": "address",
              "name": "linkModule",
              "type": "address"
            },
            {
              "internalType": "bytes",
              "name": "linkModuleInitData",
              "type": "bytes"
            },
            {
              "internalType": "address",
              "name": "mintModule",
              "type": "address"
            },
            {
              "internalType": "bytes",
              "name": "mintModuleInitData",
              "type": "bytes"
            }
          ],
          "internalType": "struct DataTypes.PostNoteData",
          "name": "noteData",
          "type": "tuple"
        },
        {
          "internalType": "uint256",
          "name": "fromProfileId",
          "type": "uint256"
        },
        {
          "internalType": "address",
          "name": "ethAddress",
          "type": "address"
        },
        {
          "internalType": "bytes32",
          "name": "linkType",
          "type": "bytes32"
        }
      ],
      "name": "postNote4AddressLink",
      "outputs": [
        {
          "internalType": "uint256",
          "name": "",
          "type": "uint256"
        }
      ],
      "stateMutability": "nonpayable",
      "type": "function"
    },
    {
      "inputs": [
        {
          "components": [
            {
              "internalType": "uint256",
              "name": "profileId",
              "type": "uint256"
            },
            {
              "internalType": "string",
              "name": "contentUri",
              "type": "string"
            },
            {
              "internalType": "address",
              "name": "linkModule",
              "type": "address"
            },
            {
              "internalType": "bytes",
              "name": "linkModuleInitData",
              "type": "bytes"
            },
            {
              "internalType": "address",
              "name": "mintModule",
              "type": "address"
            },
            {
              "internalType": "bytes",
              "name": "mintModuleInitData",
              "type": "bytes"
            }
          ],
          "internalType": "struct DataTypes.PostNoteData",
          "name": "noteData",
          "type": "tuple"
        },
        {
          "internalType": "uint256",
          "name": "fromProfileId",
          "type": "uint256"
        },
        {
          "internalType": "string",
          "name": "toUri",
          "type": "string"
        },
        {
          "internalType": "bytes32",
          "name": "linkType",
          "type": "bytes32"
        }
      ],
      "name": "postNote4AnyLink",
      "outputs": [
        {
          "internalType": "uint256",
          "name": "",
          "type": "uint256"
        }
      ],
      "stateMutability": "nonpayable",
      "type": "function"
    },
    {
      "inputs": [
        {
          "components": [
            {
              "internalType": "uint256",
              "name": "profileId",
              "type": "uint256"
            },
            {
              "internalType": "string",
              "name": "contentUri",
              "type": "string"
            },
            {
              "internalType": "address",
              "name": "linkModule",
              "type": "address"
            },
            {
              "internalType": "bytes",
              "name": "linkModuleInitData",
              "type": "bytes"
            },
            {
              "internalType": "address",
              "name": "mintModule",
              "type": "address"
            },
            {
              "internalType": "bytes",
              "name": "mintModuleInitData",
              "type": "bytes"
            }
          ],
          "internalType": "struct DataTypes.PostNoteData",
          "name": "noteData",
          "type": "tuple"
        },
        {
          "internalType": "uint256",
          "name": "fromProfileId",
          "type": "uint256"
        },
        {
          "internalType": "address",
          "name": "tokenAddress",
          "type": "address"
        },
        {
          "internalType": "uint256",
          "name": "tokenId",
          "type": "uint256"
        },
        {
          "internalType": "bytes32",
          "name": "linkType",
          "type": "bytes32"
        }
      ],
      "name": "postNote4ERC721Link",
      "outputs": [
        {
          "internalType": "uint256",
          "name": "",
          "type": "uint256"
        }
      ],
      "stateMutability": "nonpayable",
      "type": "function"
    },
    {
      "inputs": [
        {
          "components": [
            {
              "internalType": "uint256",
              "name": "profileId",
              "type": "uint256"
            },
            {
              "internalType": "string",
              "name": "contentUri",
              "type": "string"
            },
            {
              "internalType": "address",
              "name": "linkModule",
              "type": "address"
            },
            {
              "internalType": "bytes",
              "name": "linkModuleInitData",
              "type": "bytes"
            },
            {
              "internalType": "address",
              "name": "mintModule",
              "type": "address"
            },
            {
              "internalType": "bytes",
              "name": "mintModuleInitData",
              "type": "bytes"
            }
          ],
          "internalType": "struct DataTypes.PostNoteData",
          "name": "noteData",
          "type": "tuple"
        },
        {
          "internalType": "uint256",
          "name": "fromProfileId",
          "type": "uint256"
        },
        {
          "internalType": "uint256",
          "name": "toLinkListId",
          "type": "uint256"
        },
        {
          "internalType": "bytes32",
          "name": "linkType",
          "type": "bytes32"
        }
      ],
      "name": "postNote4LinklistLink",
      "outputs": [
        {
          "internalType": "uint256",
          "name": "",
          "type": "uint256"
        }
      ],
      "stateMutability": "nonpayable",
      "type": "function"
    },
    {
      "inputs": [
        {
          "components": [
            {
              "internalType": "uint256",
              "name": "profileId",
              "type": "uint256"
            },
            {
              "internalType": "string",
              "name": "contentUri",
              "type": "string"
            },
            {
              "internalType": "address",
              "name": "linkModule",
              "type": "address"
            },
            {
              "internalType": "bytes",
              "name": "linkModuleInitData",
              "type": "bytes"
            },
            {
              "internalType": "address",
              "name": "mintModule",
              "type": "address"
            },
            {
              "internalType": "bytes",
              "name": "mintModuleInitData",
              "type": "bytes"
            }
          ],
          "internalType": "struct DataTypes.PostNoteData",
          "name": "noteData",
          "type": "tuple"
        },
        {
          "internalType": "uint256",
          "name": "fromProfileId",
          "type": "uint256"
        },
        {
          "internalType": "uint256",
          "name": "toProfileId",
          "type": "uint256"
        },
        {
          "internalType": "uint256",
          "name": "toNoteId",
          "type": "uint256"
        },
        {
          "internalType": "bytes32",
          "name": "linkType",
          "type": "bytes32"
        }
      ],
      "name": "postNote4NoteLink",
      "outputs": [
        {
          "internalType": "uint256",
          "name": "",
          "type": "uint256"
        }
      ],
      "stateMutability": "nonpayable",
      "type": "function"
    },
    {
      "inputs": [
        {
          "components": [
            {
              "internalType": "uint256",
              "name": "profileId",
              "type": "uint256"
            },
            {
              "internalType": "string",
              "name": "contentUri",
              "type": "string"
            },
            {
              "internalType": "address",
              "name": "linkModule",
              "type": "address"
            },
            {
              "internalType": "bytes",
              "name": "linkModuleInitData",
              "type": "bytes"
            },
            {
              "internalType": "address",
              "name": "mintModule",
              "type": "address"
            },
            {
              "internalType": "bytes",
              "name": "mintModuleInitData",
              "type": "bytes"
            }
          ],
          "internalType": "struct DataTypes.PostNoteData",
          "name": "noteData",
          "type": "tuple"
        },
        {
          "internalType": "uint256",
          "name": "fromProfileId",
          "type": "uint256"
        },
        {
          "internalType": "uint256",
          "name": "toProfileId",
          "type": "uint256"
        },
        {
          "internalType": "bytes32",
          "name": "linkType",
          "type": "bytes32"
        }
      ],
      "name": "postNote4ProfileLink",
      "outputs": [
        {
          "internalType": "uint256",
          "name": "",
          "type": "uint256"
        }
      ],
      "stateMutability": "nonpayable",
      "type": "function"
    },
    {
      "inputs": [
        {
          "internalType": "address",
          "name": "from",
          "type": "address"
        },
        {
          "internalType": "address",
          "name": "to",
          "type": "address"
        },
        {
          "internalType": "uint256",
          "name": "tokenId",
          "type": "uint256"
        }
      ],
      "name": "safeTransferFrom",
      "outputs": [],
      "stateMutability": "nonpayable",
      "type": "function"
    },
    {
      "inputs": [
        {
          "internalType": "address",
          "name": "from",
          "type": "address"
        },
        {
          "internalType": "address",
          "name": "to",
          "type": "address"
        },
        {
          "internalType": "uint256",
          "name": "tokenId",
          "type": "uint256"
        },
        {
          "internalType": "bytes",
          "name": "_data",
          "type": "bytes"
        }
      ],
      "name": "safeTransferFrom",
      "outputs": [],
      "stateMutability": "nonpayable",
      "type": "function"
    },
    {
      "inputs": [
        {
          "internalType": "address",
          "name": "operator",
          "type": "address"
        },
        {
          "internalType": "bool",
          "name": "approved",
          "type": "bool"
        }
      ],
      "name": "setApprovalForAll",
      "outputs": [],
      "stateMutability": "nonpayable",
      "type": "function"
    },
    {
      "inputs": [
        {
          "internalType": "uint256",
          "name": "profileId",
          "type": "uint256"
        },
        {
          "internalType": "string",
          "name": "newHandle",
          "type": "string"
        }
      ],
      "name": "setHandle",
      "outputs": [],
      "stateMutability": "nonpayable",
      "type": "function"
    },
    {
      "inputs": [
        {
          "internalType": "address",
          "name": "account",
          "type": "address"
        },
        {
          "internalType": "address",
          "name": "linkModule",
          "type": "address"
        },
        {
          "internalType": "bytes",
          "name": "linkModuleInitData",
          "type": "bytes"
        }
      ],
      "name": "setLinkModule4Address",
      "outputs": [],
      "stateMutability": "nonpayable",
      "type": "function"
    },
    {
      "inputs": [
        {
          "internalType": "address",
          "name": "tokenAddress",
          "type": "address"
        },
        {
          "internalType": "uint256",
          "name": "tokenId",
          "type": "uint256"
        },
        {
          "internalType": "address",
          "name": "linkModule",
          "type": "address"
        },
        {
          "internalType": "bytes",
          "name": "linkModuleInitData",
          "type": "bytes"
        }
      ],
      "name": "setLinkModule4ERC721",
      "outputs": [],
      "stateMutability": "nonpayable",
      "type": "function"
    },
    {
      "inputs": [
        {
          "internalType": "uint256",
          "name": "linklistId",
          "type": "uint256"
        },
        {
          "internalType": "address",
          "name": "linkModule",
          "type": "address"
        },
        {
          "internalType": "bytes",
          "name": "linkModuleInitData",
          "type": "bytes"
        }
      ],
      "name": "setLinkModule4Linklist",
      "outputs": [],
      "stateMutability": "nonpayable",
      "type": "function"
    },
    {
      "inputs": [
        {
          "internalType": "uint256",
          "name": "profileId",
          "type": "uint256"
        },
        {
          "internalType": "uint256",
          "name": "noteId",
          "type": "uint256"
        },
        {
          "internalType": "address",
          "name": "linkModule",
          "type": "address"
        },
        {
          "internalType": "bytes",
          "name": "linkModuleInitData",
          "type": "bytes"
        }
      ],
      "name": "setLinkModule4Note",
      "outputs": [],
      "stateMutability": "nonpayable",
      "type": "function"
    },
    {
      "inputs": [
        {
          "internalType": "uint256",
          "name": "profileId",
          "type": "uint256"
        },
        {
          "internalType": "address",
          "name": "linkModule",
          "type": "address"
        },
        {
          "internalType": "bytes",
          "name": "linkModuleInitData",
          "type": "bytes"
        }
      ],
      "name": "setLinkModule4Profile",
      "outputs": [],
      "stateMutability": "nonpayable",
      "type": "function"
    },
    {
      "inputs": [
        {
          "internalType": "uint256",
          "name": "linklistId",
          "type": "uint256"
        },
        {
          "internalType": "string",
          "name": "uri",
          "type": "string"
        }
      ],
      "name": "setLinklistUri",
      "outputs": [],
      "stateMutability": "nonpayable",
      "type": "function"
    },
    {
      "inputs": [
        {
          "internalType": "uint256",
          "name": "profileId",
          "type": "uint256"
        },
        {
          "internalType": "uint256",
          "name": "noteId",
          "type": "uint256"
        },
        {
          "internalType": "address",
          "name": "mintModule",
          "type": "address"
        },
        {
          "internalType": "bytes",
          "name": "mintModuleInitData",
          "type": "bytes"
        }
      ],
      "name": "setMintModule4Note",
      "outputs": [],
      "stateMutability": "nonpayable",
      "type": "function"
    },
    {
      "inputs": [
        {
          "internalType": "uint256",
          "name": "profileId",
          "type": "uint256"
        }
      ],
      "name": "setPrimaryProfileId",
      "outputs": [],
      "stateMutability": "nonpayable",
      "type": "function"
    },
    {
      "inputs": [
        {
          "internalType": "uint256",
          "name": "profileId",
          "type": "uint256"
        },
        {
          "internalType": "string",
          "name": "newUri",
          "type": "string"
        }
      ],
      "name": "setProfileUri",
      "outputs": [],
      "stateMutability": "nonpayable",
      "type": "function"
    },
    {
      "inputs": [
        {
          "internalType": "uint256",
          "name": "profileId",
          "type": "uint256"
        },
        {
          "internalType": "address",
          "name": "tokenAddress",
          "type": "address"
        }
      ],
      "name": "setSocialToken",
      "outputs": [],
      "stateMutability": "nonpayable",
      "type": "function"
    },
    {
      "inputs": [
        {
          "internalType": "bytes4",
          "name": "interfaceId",
          "type": "bytes4"
        }
      ],
      "name": "supportsInterface",
      "outputs": [
        {
          "internalType": "bool",
          "name": "",
          "type": "bool"
        }
      ],
      "stateMutability": "view",
      "type": "function"
    },
    {
      "inputs": [],
      "name": "symbol",
      "outputs": [
        {
          "internalType": "string",
          "name": "",
          "type": "string"
        }
      ],
      "stateMutability": "view",
      "type": "function"
    },
    {
      "inputs": [
        {
          "internalType": "uint256",
          "name": "index",
          "type": "uint256"
        }
      ],
      "name": "tokenByIndex",
      "outputs": [
        {
          "internalType": "uint256",
          "name": "",
          "type": "uint256"
        }
      ],
      "stateMutability": "view",
      "type": "function"
    },
    {
      "inputs": [
        {
          "internalType": "address",
          "name": "owner",
          "type": "address"
        },
        {
          "internalType": "uint256",
          "name": "index",
          "type": "uint256"
        }
      ],
      "name": "tokenOfOwnerByIndex",
      "outputs": [
        {
          "internalType": "uint256",
          "name": "",
          "type": "uint256"
        }
      ],
      "stateMutability": "view",
      "type": "function"
    },
    {
      "inputs": [
        {
          "internalType": "uint256",
          "name": "profileId",
          "type": "uint256"
        }
      ],
      "name": "tokenURI",
      "outputs": [
        {
          "internalType": "string",
          "name": "",
          "type": "string"
        }
      ],
      "stateMutability": "view",
      "type": "function"
    },
    {
      "inputs": [],
      "name": "totalSupply",
      "outputs": [
        {
          "internalType": "uint256",
          "name": "",
          "type": "uint256"
        }
      ],
      "stateMutability": "view",
      "type": "function"
    },
    {
      "inputs": [
        {
          "internalType": "address",
          "name": "from",
          "type": "address"
        },
        {
          "internalType": "address",
          "name": "to",
          "type": "address"
        },
        {
          "internalType": "uint256",
          "name": "tokenId",
          "type": "uint256"
        }
      ],
      "name": "transferFrom",
      "outputs": [],
      "stateMutability": "nonpayable",
      "type": "function"
    },
    {
      "inputs": [
        {
          "internalType": "uint256",
          "name": "fromProfileId",
          "type": "uint256"
        },
        {
          "internalType": "address",
          "name": "ethAddress",
          "type": "address"
        },
        {
          "internalType": "bytes32",
          "name": "linkType",
          "type": "bytes32"
        }
      ],
      "name": "unlinkAddress",
      "outputs": [],
      "stateMutability": "nonpayable",
      "type": "function"
    },
    {
      "inputs": [
        {
          "internalType": "uint256",
          "name": "fromProfileId",
          "type": "uint256"
        },
        {
          "internalType": "string",
          "name": "toUri",
          "type": "string"
        },
        {
          "internalType": "bytes32",
          "name": "linkType",
          "type": "bytes32"
        }
      ],
      "name": "unlinkAny",
      "outputs": [],
      "stateMutability": "nonpayable",
      "type": "function"
    },
    {
      "inputs": [
        {
          "internalType": "uint256",
          "name": "fromProfileId",
          "type": "uint256"
        },
        {
          "internalType": "address",
          "name": "tokenAddress",
          "type": "address"
        },
        {
          "internalType": "uint256",
          "name": "tokenId",
          "type": "uint256"
        },
        {
          "internalType": "bytes32",
          "name": "linkType",
          "type": "bytes32"
        }
      ],
      "name": "unlinkERC721",
      "outputs": [],
      "stateMutability": "nonpayable",
      "type": "function"
    },
    {
      "inputs": [
        {
          "internalType": "uint256",
          "name": "fromProfileId",
          "type": "uint256"
        },
        {
          "internalType": "uint256",
          "name": "toLinkListId",
          "type": "uint256"
        },
        {
          "internalType": "bytes32",
          "name": "linkType",
          "type": "bytes32"
        }
      ],
      "name": "unlinkLinklist",
      "outputs": [],
      "stateMutability": "nonpayable",
      "type": "function"
    },
    {
      "inputs": [
        {
          "internalType": "uint256",
          "name": "fromProfileId",
          "type": "uint256"
        },
        {
          "internalType": "uint256",
          "name": "toProfileId",
          "type": "uint256"
        },
        {
          "internalType": "uint256",
          "name": "toNoteId",
          "type": "uint256"
        },
        {
          "internalType": "bytes32",
          "name": "linkType",
          "type": "bytes32"
        }
      ],
      "name": "unlinkNote",
      "outputs": [],
      "stateMutability": "nonpayable",
      "type": "function"
    },
    {
      "inputs": [
        {
          "internalType": "uint256",
          "name": "fromProfileId",
          "type": "uint256"
        },
        {
          "internalType": "uint256",
          "name": "toProfileId",
          "type": "uint256"
        },
        {
          "internalType": "bytes32",
          "name": "linkType",
          "type": "bytes32"
        }
      ],
      "name": "unlinkProfile",
      "outputs": [],
      "stateMutability": "nonpayable",
      "type": "function"
    },
    {
      "inputs": [
        {
          "internalType": "uint256",
          "name": "fromProfileId",
          "type": "uint256"
        },
        {
          "components": [
            {
              "internalType": "uint256",
              "name": "fromProfileId",
              "type": "uint256"
            },
            {
              "internalType": "uint256",
              "name": "toProfileId",
              "type": "uint256"
            },
            {
              "internalType": "bytes32",
              "name": "linkType",
              "type": "bytes32"
            }
          ],
          "internalType": "struct DataTypes.ProfileLinkStruct",
          "name": "linkData",
          "type": "tuple"
        },
        {
          "internalType": "bytes32",
          "name": "linkType",
          "type": "bytes32"
        }
      ],
      "name": "unlinkProfileLink",
      "outputs": [],
      "stateMutability": "nonpayable",
      "type": "function"
    }
  ],
  "bytecode": "0x608060405234801561001057600080fd5b50615d3b80620000216000396000f3fe608060405234801561001057600080fd5b50600436106104075760003560e01c8063605787d611610220578063a6e6178d11610130578063d36a2dce116100b8578063ec81d19411610087578063ec81d19414610989578063f08f4f641461099c578063f262bec1146109af578063f98839df146109c2578063fe9299fb146109d557600080fd5b8063d36a2dce14610907578063db491e801461091a578063e72f208c1461093a578063e985e9c51461094d57600080fd5b8063c053f6b8116100ff578063c053f6b8146108aa578063c387c453146108bb578063c7009c6b146108ce578063c87b56dd146108e1578063cba4f5cc146108f457600080fd5b8063a6e6178d1461085e578063b40d5a5714610871578063b88d4fde14610884578063bd5f69cb1461089757600080fd5b806384b7743a116101b357806395d89b411161018257806395d89b411461080a57806395d9fa7d1461081257806395e760101461082557806397550f1314610838578063a22cb4651461084b57600080fd5b806384b7743a146107be578063862b531c146107d1578063865be2b9146107e45780638f15b414146107f757600080fd5b806373f1c929116101ef57806373f1c929146107725780637936da0e146107855780637c392b51146107985780637e9a8292146107ab57600080fd5b8063605787d6146107195780636352211e1461072c57806363c008751461073f57806370a082311461075f57600080fd5b806323b872dd1161031b57806342842e0e116102ae5780634bebcd171161027d5780634bebcd17146106ba5780634cab71ec146106cd5780634f6ccce7146106e0578063515d42d2146106f3578063570477fb1461070657600080fd5b806342842e0e1461066e57806342966c681461068157806343786783146106945780634af3eb42146106a757600080fd5b80632c2e0881116102ea5780632c2e0881146106095780632f745c591461061c57806331b9d08c1461062f57806333f06ee61461065b57600080fd5b806323b872dd146105bd57806326540240146105d0578063295cb43e146105e35780632a59de7a146105f657600080fd5b80630d17b01f1161039e57806318160ddd1161036d57806318160ddd146105305780631bb4d2311461053857806321f4f26f146105615780632209d14514610574578063231fcfbe146105aa57600080fd5b80630d17b01f146104f05780630f84fe8c146105035780631316529d146105165780631808dda01461051d57600080fd5b8063081812fc116103da578063081812fc14610471578063095ea7b31461049c5780630a871e60146104af5780630c16de10146104d057600080fd5b806301ffc9a71461040c5780630336bf551461043457806306f30bc91461044957806306fdde031461045c575b600080fd5b61041f61041a366004614939565b6109fe565b60405190151581526020015b60405180910390f35b610447610442366004614956565b610a29565b005b6104476104573660046149e5565b610b20565b610464610c38565b60405161042b9190614aa6565b61048461047f366004614ab9565b610cca565b6040516001600160a01b03909116815260200161042b565b6104476104aa366004614ad2565b610d64565b6104c26104bd366004614b16565b610e7a565b60405190815260200161042b565b6104e36104de366004614b80565b610fa7565b60405161042b9190614bc1565b6104476104fe366004614c3d565b611156565b610447610511366004614c3d565b611233565b60016104c2565b61044761052b366004614c75565b6113e0565b6008546104c2565b6104c2610546366004614ca1565b6001600160a01b03166000908152600c602052604090205490565b6104c261056f366004614cbe565b6113fd565b610484610582366004614ad2565b6001600160a01b03918216600090815260106020908152604080832093835292905220541690565b6104476105b83660046149e5565b6114db565b6104476105cb366004614d11565b6115e2565b6104c26105de366004614d41565b611613565b6104476105f1366004614ab9565b611671565b610447610604366004614da1565b6116b7565b610447610617366004614df3565b611779565b6104c261062a366004614ad2565b6118d1565b61048461063d366004614ca1565b6001600160a01b039081166000908152601160205260409020541690565b610447610669366004614e57565b611967565b61044761067c366004614d11565b6119db565b61044761068f366004614ab9565b6119f6565b6104c26106a2366004614cbe565b611a0b565b6104476106b5366004614c75565b611a5d565b6104c26106c8366004614ea2565b611b43565b6104646106db366004614efe565b611b8d565b6104c26106ee366004614ab9565b611c1a565b610447610701366004614efe565b611cad565b610447610714366004614f20565b611de5565b610447610727366004614c3d565b611ed6565b61048461073a366004614ab9565b611f97565b61075261074d366004614efe565b61200e565b60405161042b9190614f61565b6104c261076d366004614ca1565b6121dc565b610447610780366004614fa5565b612263565b610447610793366004614efe565b612282565b6104476107a6366004614e57565b61233e565b6104476107b9366004614fe2565b6123a3565b6104476107cc366004614fa5565b6124ac565b6104c26107df3660046149e5565b6124c1565b6104476107f2366004614956565b612561565b61044761080536600461501c565b61257f565b6104646126c6565b6104476108203660046150b0565b6126d5565b6104c26108333660046150e0565b6127a3565b610447610846366004614c75565b6127e9565b610447610859366004615157565b612899565b61044761086c366004614e57565b6128a8565b61044761087f366004614da1565b61291e565b6104476108923660046151f7565b6129e5565b6104476108a53660046152a5565b612a17565b6013546001600160a01b0316610484565b61041f6108c9366004614ab9565b612b17565b6104476108dc366004614f20565b612b45565b6104646108ef366004614ab9565b612b67565b610464610902366004614ab9565b612c0c565b6104c26109153660046152df565b612c17565b61092d610928366004614efe565b612cc5565b60405161042b9190615313565b610447610948366004615388565b612e12565b61041f61095b3660046153b0565b6001600160a01b03918216600090815260056020908152604080832093909416825291909152205460ff1690565b610464610997366004614ab9565b612ec2565b6104e36109aa366004614ab9565b612ee2565b6104476109bd366004615388565b613069565b6104476109d0366004614c75565b613155565b6104846109e3366004614ab9565b6000908152600f60205260409020546001600160a01b031690565b60006001600160e01b0319821663780e9d6360e01b1480610a235750610a238261321b565b92915050565b610a328461326b565b610a3b836132d4565b610a458383613338565b6000848152600d60209081526040808320848452909152902054610a698186613399565b6013546040516281eec360e31b81526004810183905260248101869052604481018590526001600160a01b039091169063040f761890606401600060405180830381600087803b158015610abc57600080fd5b505af1158015610ad0573d6000803e3d6000fd5b505050508284867fd27a71fc88ac85c4657b81c4d24a9cd9a034971683620f179a19d179fe0a956d8585604051610b11929190918252602082015260400190565b60405180910390a45050505050565b610b298561326b565b610b338585613338565b6001600160a01b03831615610c31576000858152600e6020908152604080832087845290915280822060050180546001600160a01b0319166001600160a01b0387169081179091559051633ee9bd4f60e11b8152637dd37a9e90610ba1908990899088908890600401615407565b6000604051808303816000875af1158015610bc0573d6000803e3d6000fd5b505050506040513d6000823e601f3d908101601f19168201604052610be89190810190615457565b9050836001600160a01b031685877f36e973ebf2a1c9c4006aaad244866e6dea9a0e85770deea599b193a9eb51b8f78442604051610c2792919061549f565b60405180910390a4505b5050505050565b606060008054610c47906154c1565b80601f0160208091040260200160405190810160405280929190818152602001828054610c73906154c1565b8015610cc05780601f10610c9557610100808354040283529160200191610cc0565b820191906000526020600020905b815481529060010190602001808311610ca357829003601f168201915b5050505050905090565b6000818152600260205260408120546001600160a01b0316610d485760405162461bcd60e51b815260206004820152602c60248201527f4552433732313a20617070726f76656420717565727920666f72206e6f6e657860448201526b34b9ba32b73a103a37b5b2b760a11b60648201526084015b60405180910390fd5b506000908152600460205260409020546001600160a01b031690565b6000610d6f82611f97565b9050806001600160a01b0316836001600160a01b03161415610ddd5760405162461bcd60e51b815260206004820152602160248201527f4552433732313a20617070726f76616c20746f2063757272656e74206f776e656044820152603960f91b6064820152608401610d3f565b336001600160a01b0382161480610df95750610df9813361095b565b610e6b5760405162461bcd60e51b815260206004820152603860248201527f4552433732313a20617070726f76652063616c6c6572206973206e6f74206f7760448201527f6e6572206e6f7220617070726f76656420666f7220616c6c00000000000000006064820152608401610d3f565b610e758383613454565b505050565b6000610e86863561326b565b610e9084846134c2565b6000858152600d6020908152604080832085845282528083205490516bffffffffffffffffffffffff19606089901b16928101929092526034820186905291694552433732314c696e6b60b01b916054015b6040516020818303038152906040528051906020012090506000600a60008a815260200190815260200160002060030160008154610f1f9061550c565b91829055506040516317e60d8d60e31b815290915073__$2873850e5b3f5697aafc2f5cd9f27cc884$__9063bf306c6890610f69908d908590899089908990600e90600401615610565b60006040518083038186803b158015610f8157600080fd5b505af4158015610f95573d6000803e3d6000fd5b50929c9b505050505050505050505050565b610faf614842565b60008383604051610fc192919061564c565b604080519182900382206000818152600b602090815283822054808352600a82529184902060c086019094528354855260018401805493965091949392908401919061100c906154c1565b80601f0160208091040260200160405190810160405280929190818152602001828054611038906154c1565b80156110855780601f1061105a57610100808354040283529160200191611085565b820191906000526020600020905b81548152906001019060200180831161106857829003601f168201915b5050505050815260200160028201805461109e906154c1565b80601f01602080910402602001604051908101604052809291908181526020018280546110ca906154c1565b80156111175780601f106110ec57610100808354040283529160200191611117565b820191906000526020600020905b8154815290600101906020018083116110fa57829003601f168201915b50505091835250506003820154602082015260048201546001600160a01b03908116604083015260059092015490911660609091015295945050505050565b61115f8361326b565b6000838152600d602090815260408083208484529091529020546111838185613399565b601354604051635956da7360e01b8152600481018390526001600160a01b03858116602483015290911690635956da7390604401600060405180830381600087803b1580156111d157600080fd5b505af11580156111e5573d6000803e3d6000fd5b50505050826001600160a01b0316847f93453451dd1d041ffa18c6c1f3f2e21a6d73c3d8d32deaf595b53a14914c87158460405161122591815260200190565b60405180910390a350505050565b61123c8361326b565b6001600160a01b0382166000908152600c6020526040902054156112b65760405162461bcd60e51b815260206004820152602b60248201527f546172676574206164647265737320616c726561647920686173207072696d6160448201526a393c90383937b334b6329760a91b6064820152608401610d3f565b60006012600081546112c79061550c565b918290555090506112d88382613580565b73__$da066dc100670b51e733250a114f607b42$__63a20df8646040518060a00160405280866001600160a01b03168152602001611320876001600160a01b031660146136ce565b815260200160405180602001604052806000815250815260200160006001600160a01b0316815260200160405180602001604052806000815250815250600084600b600a6040518663ffffffff1660e01b815260040161138495949392919061565c565b60006040518083038186803b15801561139c57600080fd5b505af41580156113b0573d6000803e3d6000fd5b5050506001600160a01b0384166000908152600c60205260409020829055506113da848284613870565b50505050565b6113e98361326b565b6113f2826132d4565b610e75838383613870565b6000611409853561326b565b6000848152600d60209081526040808320858452825280832054878452600a9092528220600301805491926a50726f66696c654c696e6b60a81b9287929082906114529061550c565b91829055506040516317e60d8d60e31b815290915073__$2873850e5b3f5697aafc2f5cd9f27cc884$__9063bf306c689061149c908c908590899089908990600e90600401615610565b60006040518083038186803b1580156114b457600080fd5b505af41580156114c8573d6000803e3d6000fd5b509296505050505050505b949350505050565b6114e48561326b565b6114ee8585613338565b6001600160a01b03831615610c31576000858152600e60209081526040808320878452909152808220600490810180546001600160a01b0319166001600160a01b038816908117909155915163f033607760e01b815263f03360779161155c918a918a918991899101615407565b6000604051808303816000875af115801561157b573d6000803e3d6000fd5b505050506040513d6000823e601f3d908101601f191682016040526115a39190810190615457565b9050836001600160a01b031685877f889c6317f76b8527935ed434226767d05f8b7c664d99f6f787e62efd558f6f018442604051610c2792919061549f565b6115ec338261391f565b6116085760405162461bcd60e51b8152600401610d3f90615705565b610e75838383613a12565b600061161f853561326b565b6000848152600d60209081526040808320858452825280832054878452600a9092528220600301805491926a416464726573734c696e6b60a81b926001600160a01b038816929082906114529061550c565b61167a8161326b565b336000818152600c6020526040808220849055518392917f444dbf26d795c263ce4e5f2fccaac8e71b73cb37091f74e9e4f76cd98b55f8d391a350565b6116c08461326b565b60006116cd858333613bb9565b601354604051631983158760e31b81529192506001600160a01b03169063cc18ac389061170290849088908890600401615756565b600060405180830381600087803b15801561171c57600080fd5b505af1158015611730573d6000803e3d6000fd5b50505050847f77c508b3ce1f699c73e46a33df0ab0010d3d5f3e1270839381b85e618aef0fce8585858560405161176a9493929190615779565b60405180910390a25050505050565b336001600160a01b038516146117d15760405162461bcd60e51b815260206004820152601a60248201527f57656233456e7472793a204e6f74416464726573734f776e65720000000000006044820152606401610d3f565b6001600160a01b038316156113da576001600160a01b0384811660009081526011602052604080822080546001600160a01b0319169387169384179055516349e2252d60e01b81529091906349e2252d90611834908890879087906004016157a0565b6000604051808303816000875af1158015611853573d6000803e3d6000fd5b505050506040513d6000823e601f3d908101601f1916820160405261187b9190810190615457565b9050836001600160a01b0316856001600160a01b03167f7685796f9ddd10aa092582edf9c2a9ea78db9685e6f997342b6ab22268a730d883426040516118c292919061549f565b60405180910390a35050505050565b60006118dc836121dc565b821061193e5760405162461bcd60e51b815260206004820152602b60248201527f455243373231456e756d657261626c653a206f776e657220696e646578206f7560448201526a74206f6620626f756e647360a81b6064820152608401610d3f565b506001600160a01b03919091166000908152600660209081526040808320938352929052205490565b61197083613cd3565b601354604051633c17845760e11b81526001600160a01b039091169063782f08ae906119a490869086908690600401615756565b600060405180830381600087803b1580156119be57600080fd5b505af11580156119d2573d6000803e3d6000fd5b50505050505050565b610e75838383604051806020016040528060008152506129e5565b6119ff81613da0565b611a0881613dff565b50565b6000611a17853561326b565b6000848152600d60209081526040808320858452825280832054878452600a909252822060030180549192674c6973744c696e6b60c01b9287929082906114529061550c565b611a668361326b565b611a6f826132d4565b6000838152600d60209081526040808320848452909152902054611a938185613399565b6013546040516391e5454b60e01b815260048101839052602481018590526001600160a01b03909116906391e5454b90604401600060405180830381600087803b158015611ae057600080fd5b505af1158015611af4573d6000803e3d6000fd5b505050508284336001600160a01b03167f08a14b775e42bf92e94f9d72aba57ad213485e0c20e373c9f5dd161fb81890a285604051611b3591815260200190565b60405180910390a450505050565b6000611b4f863561326b565b6000858152600d60209081526040808320858452825280832054815192830188905290820186905291674e6f74654c696e6b60c01b91606001610ee2565b6000828152600d6020908152604080832084845290915290819020546013549151632b05429560e21b8152600481018290526060926001600160a01b03169063ac150a5490602401600060405180830381865afa158015611bf2573d6000803e3d6000fd5b505050506040513d6000823e601f3d908101601f191682016040526114d39190810190615457565b6000611c2560085490565b8210611c885760405162461bcd60e51b815260206004820152602c60248201527f455243373231456e756d657261626c653a20676c6f62616c20696e646578206f60448201526b7574206f6620626f756e647360a01b6064820152608401610d3f565b60088281548110611c9b57611c9b6157c5565b90600052602060002001549050919050565b60135460405162fba02760e01b8152600481018490526000916001600160a01b03169062fba02790602401602060405180830381865afa158015611cf5573d6000803e3d6000fd5b505050506040513d601f19601f82011682018060405250810190611d1991906157db565b6000838152600d6020908152604080832084845290915290205490915015611d8f5760405162461bcd60e51b815260206004820152602360248201527f53616d652074797065206c696e6b6c69737420616c726561647920657869737460448201526232b21760e91b6064820152608401610d3f565b611d998383613e3a565b6000828152600d60209081526040808320848452909152808220859055518291849186917f94703ec1dd639b589d05fa7c0c14ee1e83b906bfb5f50642cc7ea415a817228891a4505050565b611dee8361326b565b6000838152600d60209081526040808320848452909152902054611e128185613399565b60135460408051630e14bb7560e31b81526004810184905285356024820152602086013560448201529085013560648201526001600160a01b03909116906370a5dba890608401600060405180830381600087803b158015611e7357600080fd5b505af1158015611e87573d6000803e3d6000fd5b505060408051863581526020808801359082015281870135918101919091528492508691507f90fe9f3bf41416d9a567460a40443ef7aea47220fa342bc0e07fd01c93ffc7e190606001611225565b611edf8361326b565b6000611eec848333613bb9565b60135460405163ed386e6560e01b8152600481018390526001600160a01b03868116602483015292935091169063ed386e6590604401600060405180830381600087803b158015611f3c57600080fd5b505af1158015611f50573d6000803e3d6000fd5b505060408051858152602081018590526001600160a01b03871693508792507f3dad60a88f1d8ee170dfbeb8c65c705bd47922f205e774e10e49e4e53d93a8bd9101611225565b6000818152600260205260408120546001600160a01b031680610a235760405162461bcd60e51b815260206004820152602960248201527f4552433732313a206f776e657220717565727920666f72206e6f6e657869737460448201526832b73a103a37b5b2b760b91b6064820152608401610d3f565b6000828152600d6020908152604080832084845290915280822054601354915163a72d231760e01b81526004810182905260609391926001600160a01b03169063a72d231790602401600060405180830381865afa158015612074573d6000803e3d6000fd5b505050506040513d6000823e601f3d908101601f1916820160405261209c91908101906157f4565b80519091506000805b8281101561210c576120e78482815181106120c2576120c26157c5565b60200260200101516000908152600260205260409020546001600160a01b0316151590565b156120fa57816120f68161550c565b9250505b806121048161550c565b9150506120a5565b50806001600160401b038111156121255761212561518a565b60405190808252806020026020018201604052801561214e578160200160208202803683370190505b5094506000905060005b828110156121d1576121758482815181106120c2576120c26157c5565b156121bf5783818151811061218c5761218c6157c5565b60200260200101518683815181106121a6576121a66157c5565b6020908102919091010152816121bb8161550c565b9250505b806121c98161550c565b915050612158565b505050505092915050565b60006001600160a01b0382166122475760405162461bcd60e51b815260206004820152602a60248201527f4552433732313a2062616c616e636520717565727920666f7220746865207a65604482015269726f206164647265737360b01b6064820152608401610d3f565b506001600160a01b031660009081526003602052604090205490565b61226c8461326b565b61227683836134c2565b6113da84848484613eb2565b60135460405162fba02760e01b8152600481018490526000916001600160a01b03169062fba02790602401602060405180830381865afa1580156122ca573d6000803e3d6000fd5b505050506040513d601f19601f820116820180604052508101906122ee91906157db565b6000838152600d60209081526040808320848452909152808220829055519192508291849186917f5751ba9aebec2dcd504f8865b0e0c98a772403773fe528fce2fce580c9a8a1659190a4505050565b6123478361326b565b6000838152600a6020526040902061236390600201838361488a565b50827fc6b6b2c87fb0784186dd03398c7203c866d0ae59539fa3158aecbc86cb587a958383604051612396929190615899565b60405180910390a2505050565b6123ad8585613f74565b6001600160a01b03831615610c31576001600160a01b03858116600090815260106020908152604080832088845290915280822080546001600160a01b031916938716938417905551630378cd8b60e61b815290919063de3362c09061241d9089908990889088906004016158ad565b6000604051808303816000875af115801561243c573d6000803e3d6000fd5b505050506040513d6000823e601f3d908101601f191682016040526124649190810190615457565b9050836001600160a01b031685876001600160a01b03167fd0411ae508eec872740a07b3a8da69f9a925547a40bbbdb612971a050c61e19e8442604051610c2792919061549f565b6124b58461326b565b6113da8484848461403d565b601454604051630f37153360e31b815260009173__$1e68a60ae0444699fe08192a29ecc09930$__916379b8a99891612516918a918a918a918a918a916001600160a01b031690600a90600e906004016158d5565b602060405180830381865af4158015612533573d6000803e3d6000fd5b505050506040513d601f19601f8201168201806040525081019061255791906157db565b9695505050505050565b61256a8461326b565b612573836132d4565b6113da84848484614114565b601454600160a81b900460ff166125a357601454600160a01b900460ff16156125a7565b303b155b61260a5760405162461bcd60e51b815260206004820152602e60248201527f496e697469616c697a61626c653a20636f6e747261637420697320616c72656160448201526d191e481a5b9a5d1a585b1a5e995960921b6064820152608401610d3f565b601454600160a81b900460ff16158015612634576014805461ffff60a01b191661010160a01b1790555b612640878787876141cb565b601380546001600160a01b038086166001600160a01b03199283161790925560148054928516929091169190911790556040517f400175a56dd3710794078f7b9dbe8296ac94c5a248dfd51bb22ed4ab9eaa9fbf906126a29042815260200190565b60405180910390a180156119d2576014805460ff60a81b1916905550505050505050565b606060018054610c47906154c1565b6126de8261326b565b6000828152600a60205260409020600401546001600160a01b0316156127465760405162461bcd60e51b815260206004820152601c60248201527f57656233456e7472793a20536f6369616c546f6b656e457869737473000000006044820152606401610d3f565b6000828152600a602052604080822060040180546001600160a01b0319166001600160a01b03851690811790915590519091849133917f276c2d4b7f7beaa1847ff9c41b9d2e0e57482efe8051eea98eea653bfca3ac4591a45050565b60006127af863561326b565b6000858152600d602090815260408083208584528252808320549051909266416e794c696e6b60c81b929091610ee2918991899101615923565b6127f28361326b565b60006127ff848333613bb9565b6013546040516360e6a7c160e11b815260048101839052602481018690529192506001600160a01b03169063c1cd4f8290604401600060405180830381600087803b15801561284d57600080fd5b505af1158015612861573d6000803e3d6000fd5b505050508083857f2e398bc911c0eb636118bc7906bdfa98b2ccf6ef7ee76e3f07068d0eee488e3f85604051611b3591815260200190565b6128a433838361421c565b5050565b6128b18361326b565b60405163c57cb53760e01b815273__$da066dc100670b51e733250a114f607b42$__9063c57cb537906128f290869086908690600b90600a90600401615946565b60006040518083038186803b15801561290a57600080fd5b505af41580156119d2573d6000803e3d6000fd5b6129278461326b565b6000848152600d6020908152604080832084845290915290205461294b8186613399565b6013546040516308e013fb60e41b81526001600160a01b0390911690638e013fb09061297f90849088908890600401615756565b600060405180830381600087803b15801561299957600080fd5b505af11580156129ad573d6000803e3d6000fd5b50505050847f30c740190e772199ffeb095b72d8a53da7bbd09a55668530ee288e33b28ecebd85858560405161176a93929190615974565b6129ef338361391f565b612a0b5760405162461bcd60e51b8152600401610d3f90615705565b6113da848484846142eb565b601254612a2590600161431e565b601255612a40612a386020830183614ca1565b601254613580565b6012546040516328837e1960e21b815273__$da066dc100670b51e733250a114f607b42$__9163a20df86491612a8491859160019190600b90600a90600401615998565b60006040518083038186803b158015612a9c57600080fd5b505af4158015612ab0573d6000803e3d6000fd5b50600c925060009150612ac890506020840184614ca1565b6001600160a01b03168152602081019190915260400160002054611a0857601254600c6000612afa6020850185614ca1565b6001600160a01b0316815260208101919091526040016000205550565b600080612b2383611f97565b6001600160a01b03166000908152600c60205260409020549290921492915050565b612b4e8361326b565b610e758382612b6236869003860186615a5d565b61432a565b6000818152600a60205260409020600201805460609190612b87906154c1565b80601f0160208091040260200160405190810160405280929190818152602001828054612bb3906154c1565b8015612c005780601f10612bd557610100808354040283529160200191612c00565b820191906000526020600020905b815481529060010190602001808311612be357829003601f168201915b50505050509050919050565b6060610a2382612b67565b6000612c23823561326b565b81356000908152600a6020526040812060030180548290612c439061550c565b91829055506040516317e60d8d60e31b815290915073__$2873850e5b3f5697aafc2f5cd9f27cc884$__9063bf306c6890612c8e908690859060009081908190600e90600401615610565b60006040518083038186803b158015612ca657600080fd5b505af4158015612cba573d6000803e3d6000fd5b509295945050505050565b6040805160e0810182526000808252602082018190529181018290526060808201526080810182905260a0810182905260c0810191909152600e600084815260200190815260200160002060008381526020019081526020016000206040518060e0016040529081600082015481526020016001820154815260200160028201548152602001600382018054612d5a906154c1565b80601f0160208091040260200160405190810160405280929190818152602001828054612d86906154c1565b8015612dd35780601f10612da857610100808354040283529160200191612dd3565b820191906000526020600020905b815481529060010190602001808311612db657829003601f168201915b505050918352505060048201546001600160a01b0390811660208301526005830154811660408301526006909201549091166060909101529392505050565b612e1b8461326b565b6000848152600a60205260409020600501546001600160a01b038481169116146113da576000848152600a6020526040908190209051630f15c45d60e11b815273__$da066dc100670b51e733250a114f607b42$__91631e2b88ba91612e8c91889188918891889190600401615ab8565b60006040518083038186803b158015612ea457600080fd5b505af4158015612eb8573d6000803e3d6000fd5b5050505050505050565b6000818152600a60205260409020600101805460609190612b87906154c1565b612eea614842565b600a60008381526020019081526020016000206040518060c001604052908160008201548152602001600182018054612f22906154c1565b80601f0160208091040260200160405190810160405280929190818152602001828054612f4e906154c1565b8015612f9b5780601f10612f7057610100808354040283529160200191612f9b565b820191906000526020600020905b815481529060010190602001808311612f7e57829003601f168201915b50505050508152602001600282018054612fb4906154c1565b80601f0160208091040260200160405190810160405280929190818152602001828054612fe0906154c1565b801561302d5780601f106130025761010080835404028352916020019161302d565b820191906000526020600020905b81548152906001019060200180831161301057829003601f168201915b50505091835250506003820154602082015260048201546001600160a01b03908116604083015260059092015490911660609091015292915050565b61307284613cd3565b6001600160a01b038316156113da576000848152600f602052604080822080546001600160a01b0319166001600160a01b038716908117909155905163035aa84b60e41b81526335aa84b0906130d090889087908790600401615756565b6000604051808303816000875af11580156130ef573d6000803e3d6000fd5b505050506040513d6000823e601f3d908101601f191682016040526131179190810190615457565b9050836001600160a01b0316857f63dbee1d4ec714c8d35de5e060e27c372b6a409081cdb917c86ea48fdad89b4b83426040516118c292919061549f565b61315e8361326b565b6000838152600d602090815260408083208484529091529020546131828185613399565b60135460405163c70881c560e01b815260048101839052602481018590526001600160a01b039091169063c70881c590604401600060405180830381600087803b1580156131cf57600080fd5b505af11580156131e3573d6000803e3d6000fd5b505050508083857f42b4ce79acc0bdbfa79f30ba8758f3a465824adff1ea290b6d5aeeeef05eb14f85604051611b3591815260200190565b60006001600160e01b031982166380ac58cd60e01b148061324c57506001600160e01b03198216635b5e139f60e01b145b80610a2357506301ffc9a760e01b6001600160e01b0319831614610a23565b61327481611f97565b6001600160a01b0316336001600160a01b031614611a085760405162461bcd60e51b815260206004820152601a60248201527f57656233456e7472793a204e6f7450726f66696c654f776e65720000000000006044820152606401610d3f565b6000818152600260205260409020546001600160a01b0316611a085760405162461bcd60e51b815260206004820152601b60248201527f57656233456e7472793a2050726f66696c654e6f7445786973747300000000006044820152606401610d3f565b6000828152600a60205260409020600301548111156128a45760405162461bcd60e51b815260206004820152601860248201527f57656233456e7472793a204e6f74654e6f7445786973747300000000000000006044820152606401610d3f565b60135460405163124fe93760e21b8152600481018490526001600160a01b039091169063493fa4dc90602401602060405180830381865afa1580156133e2573d6000803e3d6000fd5b505050506040513d601f19601f8201168201806040525081019061340691906157db565b81146128a45760405162461bcd60e51b815260206004820152601d60248201527f57656233456e7472793a20556e61747461636865644c696e6b6c6973740000006044820152606401610d3f565b600081815260046020526040902080546001600160a01b0319166001600160a01b038416908117909155819061348982611f97565b6001600160a01b03167f8c5be1e5ebec7d5bd14f71427d1e84f3dd0314c0f7b2291e5b200ac8c7c3b92560405160405180910390a45050565b6040516331a9108f60e11b8152600481018290526001600160a01b03831690636352211e90602401602060405180830381865afa158015613507573d6000803e3d6000fd5b505050506040513d601f19601f8201168201806040525081019061352b9190615af5565b6001600160a01b03166128a45760405162461bcd60e51b815260206004820152601a60248201527f57656233456e7472793a205245433732314e6f744578697374730000000000006044820152606401610d3f565b6001600160a01b0382166135d65760405162461bcd60e51b815260206004820181905260248201527f4552433732313a206d696e7420746f20746865207a65726f20616464726573736044820152606401610d3f565b6000818152600260205260409020546001600160a01b03161561363b5760405162461bcd60e51b815260206004820152601c60248201527f4552433732313a20746f6b656e20616c7265616479206d696e746564000000006044820152606401610d3f565b613647600083836143fc565b6001600160a01b0382166000908152600360205260408120805460019290613670908490615b12565b909155505060008181526002602052604080822080546001600160a01b0319166001600160a01b03861690811790915590518392907fddf252ad1be2c89b69c2b068fc378daa952ba7f163c4a11628f55a4df523b3ef908290a45050565b606060006136dd836002615b2a565b6136e8906002615b12565b6001600160401b038111156136ff576136ff61518a565b6040519080825280601f01601f191660200182016040528015613729576020820181803683370190505b509050600360fc1b81600081518110613744576137446157c5565b60200101906001600160f81b031916908160001a905350600f60fb1b81600181518110613773576137736157c5565b60200101906001600160f81b031916908160001a9053506000613797846002615b2a565b6137a2906001615b12565b90505b600181111561381a576f181899199a1a9b1b9c1cb0b131b232b360811b85600f16601081106137d6576137d66157c5565b1a60f81b8282815181106137ec576137ec6157c5565b60200101906001600160f81b031916908160001a90535060049490941c9361381381615b49565b90506137a5565b5083156138695760405162461bcd60e51b815260206004820181905260248201527f537472696e67733a20686578206c656e67746820696e73756666696369656e746044820152606401610d3f565b9392505050565b600061387d848333613bb9565b601354604051637bf0b88d60e11b815260048101839052602481018690529192506001600160a01b03169063f7e1711a90604401600060405180830381600087803b1580156138cb57600080fd5b505af11580156138df573d6000803e3d6000fd5b5050604080518581526020810185905286935087925033917fbc914995d574dd9ef2df364e4eee2b85deda3ba35d054a62425fba1b972757169101611b35565b6000818152600260205260408120546001600160a01b03166139985760405162461bcd60e51b815260206004820152602c60248201527f4552433732313a206f70657261746f7220717565727920666f72206e6f6e657860448201526b34b9ba32b73a103a37b5b2b760a11b6064820152608401610d3f565b60006139a383611f97565b9050806001600160a01b0316846001600160a01b031614806139de5750836001600160a01b03166139d384610cca565b6001600160a01b0316145b806114d357506001600160a01b0380821660009081526005602090815260408083209388168352929052205460ff166114d3565b826001600160a01b0316613a2582611f97565b6001600160a01b031614613a895760405162461bcd60e51b815260206004820152602560248201527f4552433732313a207472616e736665722066726f6d20696e636f72726563742060448201526437bbb732b960d91b6064820152608401610d3f565b6001600160a01b038216613aeb5760405162461bcd60e51b8152602060048201526024808201527f4552433732313a207472616e7366657220746f20746865207a65726f206164646044820152637265737360e01b6064820152608401610d3f565b613af68383836143fc565b613b01600082613454565b6001600160a01b0383166000908152600360205260408120805460019290613b2a908490615b60565b90915550506001600160a01b0382166000908152600360205260408120805460019290613b58908490615b12565b909155505060008181526002602052604080822080546001600160a01b0319166001600160a01b0386811691821790925591518493918716917fddf252ad1be2c89b69c2b068fc378daa952ba7f163c4a11628f55a4df523b3ef91a4505050565b6000838152600d602090815260408083208584529091529020548061386957613c5a6001601360009054906101000a90046001600160a01b03166001600160a01b03166318160ddd6040518163ffffffff1660e01b8152600401602060405180830381865afa158015613c30573d6000803e3d6000fd5b505050506040513d601f19601f82011682018060405250810190613c5491906157db565b9061431e565b60135460405163644ee7e760e11b81526001600160a01b038581166004830152602482018790526044820184905292935091169063c89dcfce90606401600060405180830381600087803b158015613cb157600080fd5b505af1158015613cc5573d6000803e3d6000fd5b505050506138698185611cad565b6013546040516331a9108f60e11b8152600481018390526001600160a01b0390911690636352211e90602401602060405180830381865afa158015613d1c573d6000803e3d6000fd5b505050506040513d601f19601f82011682018060405250810190613d409190615af5565b6001600160a01b0316336001600160a01b031614611a085760405162461bcd60e51b815260206004820152601b60248201527f57656233456e7472793a204e6f744c696e6b4c6973744f776e657200000000006044820152606401610d3f565b613daa338261391f565b613df65760405162461bcd60e51b815260206004820152601b60248201527f4e4654426173653a204e6f744f776e65724f72417070726f76656400000000006044820152606401610d3f565b611a088161443f565b6000818152600a60205260408082209051613e1d9160010190615b77565b60408051918290039091206000908152600b602052908120555050565b613e438161326b565b601354604051631c5b266960e21b815260048101849052336024820152604481018390526001600160a01b039091169063716c99a490606401600060405180830381600087803b158015613e9657600080fd5b505af1158015613eaa573d6000803e3d6000fd5b505050505050565b6000613ebf858333613bb9565b601354604051630ba893bf60e21b8152600481018390526001600160a01b03878116602483015260448201879052929350911690632ea24efc90606401600060405180830381600087803b158015613f1657600080fd5b505af1158015613f2a573d6000803e3d6000fd5b5050505082846001600160a01b0316867f72413a1a5c43b255ad065653bf49db3c79ff7853ddaa4f4962ccd05e5368ad778585604051610b11929190918252602082015260400190565b6040516331a9108f60e11b8152600481018290526001600160a01b03831690636352211e90602401602060405180830381865afa158015613fb9573d6000803e3d6000fd5b505050506040513d601f19601f82011682018060405250810190613fdd9190615af5565b6001600160a01b0316336001600160a01b0316146128a45760405162461bcd60e51b815260206004820152601960248201527f57656233456e7472793a204e6f744552433732314f776e6572000000000000006044820152606401610d3f565b6000848152600d602090815260408083208484529091529020546140618186613399565b601354604051630370a16160e01b8152600481018390526001600160a01b0386811660248301526044820186905290911690630370a16190606401600060405180830381600087803b1580156140b657600080fd5b505af11580156140ca573d6000803e3d6000fd5b5050505082846001600160a01b0316867fd87f9606a19988b6cf42d250d484940673ce551ab5f80289051cc343ff13121c8585604051610b11929190918252602082015260400190565b6000614121858333613bb9565b601354604051635cb46be760e01b81526004810183905260248101879052604481018690529192506001600160a01b031690635cb46be790606401600060405180830381600087803b15801561417657600080fd5b505af115801561418a573d6000803e3d6000fd5b505050508284867f3cae5b1196087b560b6735377bbf745e5754f8082348a432b806afa01686ef488585604051610b11929190918252602082015260400190565b6141d7848484846144e6565b7f414cd0b34676984f09a5f76ce9718d4062e50283abe0e7e274a9a5b4e0c99c30848484844260405161420e959493929190615c13565b60405180910390a150505050565b816001600160a01b0316836001600160a01b0316141561427e5760405162461bcd60e51b815260206004820152601960248201527f4552433732313a20617070726f766520746f2063616c6c6572000000000000006044820152606401610d3f565b6001600160a01b03838116600081815260056020908152604080832094871680845294825291829020805460ff191686151590811790915591519182527f17307eab39ab6107e8899845ad3d59bd9653f200f220920489ca2b5937696c31910160405180910390a3505050565b6142f6848484613a12565b614302848484846144ff565b6113da5760405162461bcd60e51b8152600401610d3f90615c4d565b60006138698284615b12565b6000614337848433613bb9565b6013546040805163494c4d9960e01b81526004810184905285516024820152602086015160448201529085015160648201529192506001600160a01b03169063494c4d9990608401600060405180830381600087803b15801561439957600080fd5b505af11580156143ad573d6000803e3d6000fd5b505083516020808601516040808801518151948552928401919091528201528592508691507ff0697acc3f194ceead566f2dffb676a7d4aaf14d0a2fad93923e778e4b40ae0d90606001611225565b6001600160a01b0383166000908152600c602052604090205415614434576001600160a01b0383166000908152600c60205260408120555b610e758383836145fa565b600061444a82611f97565b9050614458816000846143fc565b614463600083613454565b6001600160a01b038116600090815260036020526040812080546001929061448c908490615b60565b909155505060008281526002602052604080822080546001600160a01b0319169055518391906001600160a01b038416907fddf252ad1be2c89b69c2b068fc378daa952ba7f163c4a11628f55a4df523b3ef908390a45050565b6144f26000858561488a565b50610c316001838361488a565b60006001600160a01b0384163b156145f257604051630a85bd0160e11b81526001600160a01b0385169063150b7a0290614543903390899088908890600401615c9f565b6020604051808303816000875af192505050801561457e575060408051601f3d908101601f1916820190925261457b91810190615cd2565b60015b6145d8573d8080156145ac576040519150601f19603f3d011682016040523d82523d6000602084013e6145b1565b606091505b5080516145d05760405162461bcd60e51b8152600401610d3f90615c4d565b805181602001fd5b6001600160e01b031916630a85bd0160e11b1490506114d3565b5060016114d3565b6001600160a01b0383166146555761465081600880546000838152600960205260408120829055600182018355919091527ff3f7a9fe364faab93b216da50a3214154f22a0a2b415b23a84c8169e8b636ee30155565b614678565b816001600160a01b0316836001600160a01b0316146146785761467883826146b2565b6001600160a01b03821661468f57610e758161474f565b826001600160a01b0316826001600160a01b031614610e7557610e7582826147fe565b600060016146bf846121dc565b6146c99190615b60565b60008381526007602052604090205490915080821461471c576001600160a01b03841660009081526006602090815260408083208584528252808320548484528184208190558352600790915290208190555b5060009182526007602090815260408084208490556001600160a01b039094168352600681528383209183525290812055565b60085460009061476190600190615b60565b60008381526009602052604081205460088054939450909284908110614789576147896157c5565b9060005260206000200154905080600883815481106147aa576147aa6157c5565b60009182526020808320909101929092558281526009909152604080822084905585825281205560088054806147e2576147e2615cef565b6001900381819060005260206000200160009055905550505050565b6000614809836121dc565b6001600160a01b039093166000908152600660209081526040808320868452825280832085905593825260079052919091209190915550565b6040518060c001604052806000815260200160608152602001606081526020016000815260200160006001600160a01b0316815260200160006001600160a01b031681525090565b828054614896906154c1565b90600052602060002090601f0160209004810192826148b857600085556148fe565b82601f106148d15782800160ff198235161785556148fe565b828001600101855582156148fe579182015b828111156148fe5782358255916020019190600101906148e3565b5061490a92915061490e565b5090565b5b8082111561490a576000815560010161490f565b6001600160e01b031981168114611a0857600080fd5b60006020828403121561494b57600080fd5b813561386981614923565b6000806000806080858703121561496c57600080fd5b5050823594602084013594506040840135936060013592509050565b6001600160a01b0381168114611a0857600080fd5b60008083601f8401126149af57600080fd5b5081356001600160401b038111156149c657600080fd5b6020830191508360208285010111156149de57600080fd5b9250929050565b6000806000806000608086880312156149fd57600080fd5b85359450602086013593506040860135614a1681614988565b925060608601356001600160401b03811115614a3157600080fd5b614a3d8882890161499d565b969995985093965092949392505050565b60005b83811015614a69578181015183820152602001614a51565b838111156113da5750506000910152565b60008151808452614a92816020860160208601614a4e565b601f01601f19169290920160200192915050565b6020815260006138696020830184614a7a565b600060208284031215614acb57600080fd5b5035919050565b60008060408385031215614ae557600080fd5b8235614af081614988565b946020939093013593505050565b600060c08284031215614b1057600080fd5b50919050565b600080600080600060a08688031215614b2e57600080fd5b85356001600160401b03811115614b4457600080fd5b614b5088828901614afe565b955050602086013593506040860135614b6881614988565b94979396509394606081013594506080013592915050565b60008060208385031215614b9357600080fd5b82356001600160401b03811115614ba957600080fd5b614bb58582860161499d565b90969095509350505050565b60208152815160208201526000602083015160c06040840152614be760e0840182614a7a565b90506040840151601f19848303016060850152614c048282614a7a565b91505060608401516080840152608084015160018060a01b0380821660a08601528060a08701511660c086015250508091505092915050565b600080600060608486031215614c5257600080fd5b833592506020840135614c6481614988565b929592945050506040919091013590565b600080600060608486031215614c8a57600080fd5b505081359360208301359350604090920135919050565b600060208284031215614cb357600080fd5b813561386981614988565b60008060008060808587031215614cd457600080fd5b84356001600160401b03811115614cea57600080fd5b614cf687828801614afe565b97602087013597506040870135966060013595509350505050565b600080600060608486031215614d2657600080fd5b8335614d3181614988565b92506020840135614c6481614988565b60008060008060808587031215614d5757600080fd5b84356001600160401b03811115614d6d57600080fd5b614d7987828801614afe565b945050602085013592506040850135614d9181614988565b9396929550929360600135925050565b60008060008060608587031215614db757600080fd5b8435935060208501356001600160401b03811115614dd457600080fd5b614de08782880161499d565b9598909750949560400135949350505050565b60008060008060608587031215614e0957600080fd5b8435614e1481614988565b93506020850135614e2481614988565b925060408501356001600160401b03811115614e3f57600080fd5b614e4b8782880161499d565b95989497509550505050565b600080600060408486031215614e6c57600080fd5b8335925060208401356001600160401b03811115614e8957600080fd5b614e958682870161499d565b9497909650939450505050565b600080600080600060a08688031215614eba57600080fd5b85356001600160401b03811115614ed057600080fd5b614edc88828901614afe565b9860208801359850604088013597606081013597506080013595509350505050565b60008060408385031215614f1157600080fd5b50508035926020909101359150565b600080600083850360a0811215614f3657600080fd5b843593506060601f1982011215614f4c57600080fd5b50602084019150608084013590509250925092565b6020808252825182820181905260009190848201906040850190845b81811015614f9957835183529284019291840191600101614f7d565b50909695505050505050565b60008060008060808587031215614fbb57600080fd5b843593506020850135614fcd81614988565b93969395505050506040820135916060013590565b600080600080600060808688031215614ffa57600080fd5b853561500581614988565b9450602086013593506040860135614a1681614988565b6000806000806000806080878903121561503557600080fd5b86356001600160401b038082111561504c57600080fd5b6150588a838b0161499d565b9098509650602089013591508082111561507157600080fd5b5061507e89828a0161499d565b909550935050604087013561509281614988565b915060608701356150a281614988565b809150509295509295509295565b600080604083850312156150c357600080fd5b8235915060208301356150d581614988565b809150509250929050565b6000806000806000608086880312156150f857600080fd5b85356001600160401b038082111561510f57600080fd5b61511b89838a01614afe565b965060208801359550604088013591508082111561513857600080fd5b506151458882890161499d565b96999598509660600135949350505050565b6000806040838503121561516a57600080fd5b823561517581614988565b9150602083013580151581146150d557600080fd5b634e487b7160e01b600052604160045260246000fd5b604051601f8201601f191681016001600160401b03811182821017156151c8576151c861518a565b604052919050565b60006001600160401b038211156151e9576151e961518a565b50601f01601f191660200190565b6000806000806080858703121561520d57600080fd5b843561521881614988565b9350602085013561522881614988565b92506040850135915060608501356001600160401b0381111561524a57600080fd5b8501601f8101871361525b57600080fd5b803561526e615269826151d0565b6151a0565b81815288602083850101111561528357600080fd5b8160208401602083013760006020838301015280935050505092959194509250565b6000602082840312156152b757600080fd5b81356001600160401b038111156152cd57600080fd5b820160a0818503121561386957600080fd5b6000602082840312156152f157600080fd5b81356001600160401b0381111561530757600080fd5b6114d384828501614afe565b602081528151602082015260208201516040820152604082015160608201526000606083015160e0608084015261534e610100840182614a7a565b9050608084015160018060a01b0380821660a08601528060a08701511660c08601528060c08701511660e086015250508091505092915050565b6000806000806060858703121561539e57600080fd5b843593506020850135614e2481614988565b600080604083850312156153c357600080fd5b82356153ce81614988565b915060208301356150d581614988565b81835281816020850137506000828201602090810191909152601f909101601f19169091010190565b8481528360208201526060604082015260006125576060830184866153de565b6000615435615269846151d0565b905082815283838301111561544957600080fd5b613869836020830184614a4e565b60006020828403121561546957600080fd5b81516001600160401b0381111561547f57600080fd5b8201601f8101841361549057600080fd5b6114d384825160208401615427565b6040815260006154b26040830185614a7a565b90508260208301529392505050565b600181811c908216806154d557607f821691505b60208210811415614b1057634e487b7160e01b600052602260045260246000fd5b634e487b7160e01b600052601160045260246000fd5b6000600019821415615520576155206154f6565b5060010190565b6000808335601e1984360301811261553e57600080fd5b83016020810192503590506001600160401b0381111561555d57600080fd5b8036038313156149de57600080fd5b80358252600061557f6020830183615527565b60c0602086015261559460c0860182846153de565b91505060408301356155a581614988565b6001600160a01b0381811660408701526155c26060860186615527565b925086840360608801526155d78484836153de565b935050608085013591506155ea82614988565b1660808501526155fd60a0840184615527565b85830360a08701526125578382846153de565b60c08152600061562360c083018961556c565b60208301979097525060408101949094526060840192909252608083015260a090910152919050565b8183823760009101908152919050565b60a08152600060018060a01b038088511660a0840152602088015160a060c085015261568c610140850182614a7a565b90506040890151609f19808684030160e08701526156aa8383614a7a565b92508360608c01511661010087015260808b01519350808684030161012087015250506156d78183614a7a565b925050506156e9602083018715159052565b8460408301528360608301528260808301529695505050505050565b60208082526031908201527f4552433732313a207472616e736665722063616c6c6572206973206e6f74206f6040820152701ddb995c881b9bdc88185c1c1c9bdd9959607a1b606082015260800190565b8381526040602082015260006157706040830184866153de565b95945050505050565b60608152600061578d6060830186886153de565b6020830194909452506040015292915050565b6001600160a01b038416815260406020820181905260009061577090830184866153de565b634e487b7160e01b600052603260045260246000fd5b6000602082840312156157ed57600080fd5b5051919050565b6000602080838503121561580757600080fd5b82516001600160401b038082111561581e57600080fd5b818501915085601f83011261583257600080fd5b8151818111156158445761584461518a565b8060051b91506158558483016151a0565b818152918301840191848101908884111561586f57600080fd5b938501935b8385101561588d57845182529385019390850190615874565b98975050505050505050565b6020815260006114d36020830184866153de565b60018060a01b03851681528360208201526060604082015260006125576060830184866153de565b888152876020820152600060018060a01b03808916604084015260e0606084015261590460e08401888a6153de565b951660808301525060a081019290925260c09091015295945050505050565b664c696e6b416e7960c81b81528183600783013760009101600701908152919050565b8581526080602082015260006159606080830186886153de565b604083019490945250606001529392505050565b6040815260006159886040830185876153de565b9050826020830152949350505050565b60a08152600086356159a981614988565b6001600160a01b0381811660a08501526159c660208a018a615527565b925060a060c08601526159de610140860184836153de565b9250506159ee60408a018a615527565b609f19808786030160e0880152615a068583856153de565b945060608c01359250615a1883614988565b838316610100880152615a2e60808d018d615527565b9450925080878603016101208801525050615a4a8383836153de565b93505050506156e9602083018715159052565b600060608284031215615a6f57600080fd5b604051606081018181106001600160401b0382111715615a9157615a9161518a565b80604052508235815260208301356020820152604083013560408201528091505092915050565b8581526001600160a01b0385166020820152608060408201819052600090615ae390830185876153de565b90508260608301529695505050505050565b600060208284031215615b0757600080fd5b815161386981614988565b60008219821115615b2557615b256154f6565b500190565b6000816000190483118215151615615b4457615b446154f6565b500290565b600081615b5857615b586154f6565b506000190190565b600082821015615b7257615b726154f6565b500390565b600080835481600182811c915080831680615b9357607f831692505b6020808410821415615bb357634e487b7160e01b86526022600452602486fd5b818015615bc75760018114615bd857615c05565b60ff19861689528489019650615c05565b60008a81526020902060005b86811015615bfd5781548b820152908501908301615be4565b505084890196505b509498975050505050505050565b606081526000615c276060830187896153de565b8281036020840152615c3a8186886153de565b9150508260408301529695505050505050565b60208082526032908201527f4552433732313a207472616e7366657220746f206e6f6e20455243373231526560408201527131b2b4bb32b91034b6b83632b6b2b73a32b960711b606082015260800190565b6001600160a01b038581168252841660208201526040810183905260806060820181905260009061255790830184614a7a565b600060208284031215615ce457600080fd5b815161386981614923565b634e487b7160e01b600052603160045260246000fdfea2646970667358221220d717810d6f6792f89c1968d46f91ec4fbf1553c8f70e24bcc432f8d5444a055964736f6c634300080a0033",
  "linkReferences": {
    "contracts/libraries/InteractionLogic.sol": {
      "InteractionLogic": [
        {
          "length": 20,
          "start": 9463
        }
      ]
    },
    "contracts/libraries/PostLogic.sol": {
      "PostLogic": [
        {
          "length": 20,
          "start": 3927
        },
        {
          "length": 20,
          "start": 5258
        },
        {
          "length": 20,
          "start": 11387
        }
      ]
    },
    "contracts/libraries/ProfileLogic.sol": {
      "ProfileLogic": [
        {
          "length": 20,
          "start": 4859
        },
        {
          "length": 20,
          "start": 10465
        },
        {
          "length": 20,
          "start": 10867
        },
        {
          "length": 20,
          "start": 11902
        }
      ]
    }
  },
  "deployedLinkReferences": {
    "contracts/libraries/InteractionLogic.sol": {
      "InteractionLogic": [
        {
          "length": 20,
          "start": 9430
        }
      ]
    },
    "contracts/libraries/PostLogic.sol": {
      "PostLogic": [
        {
          "length": 20,
          "start": 3894
        },
        {
          "length": 20,
          "start": 5225
        },
        {
          "length": 20,
          "start": 11354
        }
      ]
    },
    "contracts/libraries/ProfileLogic.sol": {
      "ProfileLogic": [
        {
          "length": 20,
          "start": 4826
        },
        {
          "length": 20,
          "start": 10432
        },
        {
          "length": 20,
          "start": 10834
        },
        {
          "length": 20,
          "start": 11869
        }
      ]
    }
  }
}