{
  "_format": "hh-sol-artifact-1",
  "contractName": "Web3Entry",
  "sourceName": "contracts/Web3Entry.sol",
  "abi": [
    {
      "inputs": [
        {
          "internalType": "uint256",
          "name": "characterId",
          "type": "uint256"
        }
      ],
      "name": "ErrCharacterNotExists",
      "type": "error"
    },
    {
      "inputs": [],
      "name": "ErrHandleContainsInvalidCharacters",
      "type": "error"
    },
    {
      "inputs": [],
      "name": "ErrHandleExists",
      "type": "error"
    },
    {
      "inputs": [],
      "name": "ErrHandleLengthInvalid",
      "type": "error"
    },
    {
      "inputs": [],
      "name": "ErrNotAddressOwner",
      "type": "error"
    },
    {
      "inputs": [],
      "name": "ErrNotCharacterOwner",
      "type": "error"
    },
    {
      "inputs": [],
      "name": "ErrNotEnoughPermission",
      "type": "error"
    },
    {
      "inputs": [],
      "name": "ErrNotEnoughPermissionForThisNote",
      "type": "error"
    },
    {
      "inputs": [],
      "name": "ErrNoteIsDeleted",
      "type": "error"
    },
    {
      "inputs": [],
      "name": "ErrNoteLocked",
      "type": "error"
    },
    {
      "inputs": [],
      "name": "ErrNoteNotExists",
      "type": "error"
    },
    {
      "inputs": [],
      "name": "ErrSignatureExpired",
      "type": "error"
    },
    {
      "inputs": [],
      "name": "ErrSignatureInvalid",
      "type": "error"
    },
    {
      "inputs": [],
      "name": "ErrSocialTokenExists",
      "type": "error"
    },
    {
      "anonymous": false,
      "inputs": [
        {
          "indexed": true,
          "internalType": "address",
          "name": "owner",
          "type": "address"
        },
        {
          "indexed": true,
          "internalType": "address",
          "name": "approved",
          "type": "address"
        },
        {
          "indexed": true,
          "internalType": "uint256",
          "name": "tokenId",
          "type": "uint256"
        }
      ],
      "name": "Approval",
      "type": "event"
    },
    {
      "anonymous": false,
      "inputs": [
        {
          "indexed": true,
          "internalType": "address",
          "name": "owner",
          "type": "address"
        },
        {
          "indexed": true,
          "internalType": "address",
          "name": "operator",
          "type": "address"
        },
        {
          "indexed": false,
          "internalType": "bool",
          "name": "approved",
          "type": "bool"
        }
      ],
      "name": "ApprovalForAll",
      "type": "event"
    },
    {
      "anonymous": false,
      "inputs": [
        {
          "indexed": false,
          "internalType": "uint8",
          "name": "version",
          "type": "uint8"
        }
      ],
      "name": "Initialized",
      "type": "event"
    },
    {
      "anonymous": false,
      "inputs": [
        {
          "indexed": true,
          "internalType": "address",
          "name": "from",
          "type": "address"
        },
        {
          "indexed": true,
          "internalType": "address",
          "name": "to",
          "type": "address"
        },
        {
          "indexed": true,
          "internalType": "uint256",
          "name": "tokenId",
          "type": "uint256"
        }
      ],
      "name": "Transfer",
      "type": "event"
    },
    {
      "inputs": [
        {
          "internalType": "address",
          "name": "to",
          "type": "address"
        },
        {
          "internalType": "uint256",
          "name": "tokenId",
          "type": "uint256"
        }
      ],
      "name": "approve",
      "outputs": [],
      "stateMutability": "nonpayable",
      "type": "function"
    },
    {
      "inputs": [
        {
          "internalType": "address",
          "name": "owner",
          "type": "address"
        }
      ],
      "name": "balanceOf",
      "outputs": [
        {
          "internalType": "uint256",
          "name": "",
          "type": "uint256"
        }
      ],
      "stateMutability": "view",
      "type": "function"
    },
    {
      "inputs": [
        {
          "internalType": "uint256",
          "name": "tokenId",
          "type": "uint256"
        }
      ],
      "name": "burn",
      "outputs": [],
      "stateMutability": "nonpayable",
      "type": "function"
    },
    {
      "inputs": [
        {
          "components": [
            {
              "internalType": "address",
              "name": "to",
              "type": "address"
            },
            {
              "internalType": "string",
              "name": "handle",
              "type": "string"
            },
            {
              "internalType": "string",
              "name": "uri",
              "type": "string"
            },
            {
              "internalType": "address",
              "name": "linkModule",
              "type": "address"
            },
            {
              "internalType": "bytes",
              "name": "linkModuleInitData",
              "type": "bytes"
            }
          ],
          "internalType": "struct DataTypes.CreateCharacterData",
          "name": "vars",
          "type": "tuple"
        }
      ],
      "name": "createCharacter",
      "outputs": [
        {
          "internalType": "uint256",
          "name": "characterId",
          "type": "uint256"
        }
      ],
      "stateMutability": "nonpayable",
      "type": "function"
    },
    {
      "inputs": [
        {
          "components": [
            {
              "internalType": "uint256",
              "name": "fromCharacterId",
              "type": "uint256"
            },
            {
              "internalType": "address",
              "name": "to",
              "type": "address"
            },
            {
              "internalType": "bytes32",
              "name": "linkType",
              "type": "bytes32"
            }
          ],
          "internalType": "struct DataTypes.createThenLinkCharacterData",
          "name": "vars",
          "type": "tuple"
        }
      ],
      "name": "createThenLinkCharacter",
      "outputs": [
        {
          "internalType": "uint256",
          "name": "characterId",
          "type": "uint256"
        }
      ],
      "stateMutability": "nonpayable",
      "type": "function"
    },
    {
      "inputs": [
        {
          "internalType": "uint256",
          "name": "characterId",
          "type": "uint256"
        },
        {
          "internalType": "uint256",
          "name": "noteId",
          "type": "uint256"
        }
      ],
      "name": "deleteNote",
      "outputs": [],
      "stateMutability": "nonpayable",
      "type": "function"
    },
    {
      "inputs": [
        {
          "internalType": "uint256",
          "name": "tokenId",
          "type": "uint256"
        }
      ],
      "name": "getApproved",
      "outputs": [
        {
          "internalType": "address",
          "name": "",
          "type": "address"
        }
      ],
      "stateMutability": "view",
      "type": "function"
    },
    {
      "inputs": [
        {
          "internalType": "uint256",
          "name": "characterId",
          "type": "uint256"
        }
      ],
      "name": "getCharacter",
      "outputs": [
        {
          "components": [
            {
              "internalType": "uint256",
              "name": "characterId",
              "type": "uint256"
            },
            {
              "internalType": "string",
              "name": "handle",
              "type": "string"
            },
            {
              "internalType": "string",
              "name": "uri",
              "type": "string"
            },
            {
              "internalType": "uint256",
              "name": "noteCount",
              "type": "uint256"
            },
            {
              "internalType": "address",
              "name": "socialToken",
              "type": "address"
            },
            {
              "internalType": "address",
              "name": "linkModule",
              "type": "address"
            }
          ],
          "internalType": "struct DataTypes.Character",
          "name": "",
          "type": "tuple"
        }
      ],
      "stateMutability": "view",
      "type": "function"
    },
    {
      "inputs": [
        {
          "internalType": "string",
          "name": "handle",
          "type": "string"
        }
      ],
      "name": "getCharacterByHandle",
      "outputs": [
        {
          "components": [
            {
              "internalType": "uint256",
              "name": "characterId",
              "type": "uint256"
            },
            {
              "internalType": "string",
              "name": "handle",
              "type": "string"
            },
            {
              "internalType": "string",
              "name": "uri",
              "type": "string"
            },
            {
              "internalType": "uint256",
              "name": "noteCount",
              "type": "uint256"
            },
            {
              "internalType": "address",
              "name": "socialToken",
              "type": "address"
            },
            {
              "internalType": "address",
              "name": "linkModule",
              "type": "address"
            }
          ],
          "internalType": "struct DataTypes.Character",
          "name": "",
          "type": "tuple"
        }
      ],
      "stateMutability": "view",
      "type": "function"
    },
    {
      "inputs": [
        {
          "internalType": "uint256",
          "name": "characterId",
          "type": "uint256"
        }
      ],
      "name": "getCharacterUri",
      "outputs": [
        {
          "internalType": "string",
          "name": "",
          "type": "string"
        }
      ],
      "stateMutability": "view",
      "type": "function"
    },
    {
      "inputs": [],
      "name": "getDomainSeparator",
      "outputs": [
        {
          "internalType": "bytes32",
          "name": "",
          "type": "bytes32"
        }
      ],
      "stateMutability": "view",
      "type": "function"
    },
    {
      "inputs": [
        {
          "internalType": "uint256",
          "name": "characterId",
          "type": "uint256"
        }
      ],
      "name": "getHandle",
      "outputs": [
        {
          "internalType": "string",
          "name": "",
          "type": "string"
        }
      ],
      "stateMutability": "view",
      "type": "function"
    },
    {
      "inputs": [
        {
          "internalType": "address",
          "name": "account",
          "type": "address"
        }
      ],
      "name": "getLinkModule4Address",
      "outputs": [
        {
          "internalType": "address",
          "name": "",
          "type": "address"
        }
      ],
      "stateMutability": "view",
      "type": "function"
    },
    {
      "inputs": [
        {
          "internalType": "address",
          "name": "tokenAddress",
          "type": "address"
        },
        {
          "internalType": "uint256",
          "name": "tokenId",
          "type": "uint256"
        }
      ],
      "name": "getLinkModule4ERC721",
      "outputs": [
        {
          "internalType": "address",
          "name": "",
          "type": "address"
        }
      ],
      "stateMutability": "view",
      "type": "function"
    },
    {
      "inputs": [
        {
          "internalType": "uint256",
          "name": "tokenId",
          "type": "uint256"
        }
      ],
      "name": "getLinkModule4Linklist",
      "outputs": [
        {
          "internalType": "address",
          "name": "",
          "type": "address"
        }
      ],
      "stateMutability": "view",
      "type": "function"
    },
    {
      "inputs": [],
      "name": "getLinklistContract",
      "outputs": [
        {
          "internalType": "address",
          "name": "",
          "type": "address"
        }
      ],
      "stateMutability": "view",
      "type": "function"
    },
    {
      "inputs": [
        {
          "internalType": "uint256",
          "name": "characterId",
          "type": "uint256"
        },
        {
          "internalType": "bytes32",
          "name": "linkType",
          "type": "bytes32"
        }
      ],
      "name": "getLinklistId",
      "outputs": [
        {
          "internalType": "uint256",
          "name": "",
          "type": "uint256"
        }
      ],
      "stateMutability": "view",
      "type": "function"
    },
    {
      "inputs": [
        {
          "internalType": "uint256",
          "name": "linkListId",
          "type": "uint256"
        }
      ],
      "name": "getLinklistType",
      "outputs": [
        {
          "internalType": "bytes32",
          "name": "",
          "type": "bytes32"
        }
      ],
      "stateMutability": "view",
      "type": "function"
    },
    {
      "inputs": [
        {
          "internalType": "uint256",
          "name": "tokenId",
          "type": "uint256"
        }
      ],
      "name": "getLinklistUri",
      "outputs": [
        {
          "internalType": "string",
          "name": "",
          "type": "string"
        }
      ],
      "stateMutability": "view",
      "type": "function"
    },
    {
      "inputs": [
        {
          "internalType": "uint256",
          "name": "characterId",
          "type": "uint256"
        },
        {
          "internalType": "uint256",
          "name": "noteId",
          "type": "uint256"
        }
      ],
      "name": "getNote",
      "outputs": [
        {
          "components": [
            {
              "internalType": "bytes32",
              "name": "linkItemType",
              "type": "bytes32"
            },
            {
              "internalType": "bytes32",
              "name": "linkKey",
              "type": "bytes32"
            },
            {
              "internalType": "string",
              "name": "contentUri",
              "type": "string"
            },
            {
              "internalType": "address",
              "name": "linkModule",
              "type": "address"
            },
            {
              "internalType": "address",
              "name": "mintModule",
              "type": "address"
            },
            {
              "internalType": "address",
              "name": "mintNFT",
              "type": "address"
            },
            {
              "internalType": "bool",
              "name": "deleted",
              "type": "bool"
            },
            {
              "internalType": "bool",
              "name": "locked",
              "type": "bool"
            }
          ],
          "internalType": "struct DataTypes.Note",
          "name": "",
          "type": "tuple"
        }
      ],
      "stateMutability": "view",
      "type": "function"
    },
    {
      "inputs": [
        {
          "internalType": "uint256",
          "name": "characterId",
          "type": "uint256"
        },
        {
          "internalType": "address",
          "name": "operator",
          "type": "address"
        }
      ],
      "name": "getOperatorPermissions",
      "outputs": [
        {
          "internalType": "uint256",
          "name": "",
          "type": "uint256"
        }
      ],
      "stateMutability": "view",
      "type": "function"
    },
    {
      "inputs": [
        {
          "internalType": "uint256",
          "name": "characterId",
          "type": "uint256"
        }
      ],
      "name": "getOperators",
      "outputs": [
        {
          "internalType": "address[]",
          "name": "",
          "type": "address[]"
        }
      ],
      "stateMutability": "view",
      "type": "function"
    },
    {
      "inputs": [
        {
          "internalType": "uint256",
          "name": "characterId",
          "type": "uint256"
        },
        {
          "internalType": "uint256",
          "name": "noteId",
          "type": "uint256"
        }
      ],
      "name": "getOperators4Note",
      "outputs": [
        {
          "internalType": "address[]",
          "name": "blocklist",
          "type": "address[]"
        },
        {
          "internalType": "address[]",
          "name": "allowlist",
          "type": "address[]"
        }
      ],
      "stateMutability": "view",
      "type": "function"
    },
    {
      "inputs": [
        {
          "internalType": "address",
          "name": "account",
          "type": "address"
        }
      ],
      "name": "getPrimaryCharacterId",
      "outputs": [
        {
          "internalType": "uint256",
          "name": "",
          "type": "uint256"
        }
      ],
      "stateMutability": "view",
      "type": "function"
    },
    {
      "inputs": [],
      "name": "getRevision",
      "outputs": [
        {
          "internalType": "uint256",
          "name": "",
          "type": "uint256"
        }
      ],
      "stateMutability": "pure",
      "type": "function"
    },
    {
      "inputs": [
        {
          "internalType": "uint256",
          "name": "characterId",
          "type": "uint256"
        },
        {
          "internalType": "address",
          "name": "operator",
          "type": "address"
        },
        {
          "internalType": "uint256",
          "name": "permissionBitMap",
          "type": "uint256"
        }
      ],
      "name": "grantOperatorPermissions",
      "outputs": [],
      "stateMutability": "nonpayable",
      "type": "function"
    },
    {
      "inputs": [
        {
          "internalType": "uint256",
          "name": "characterId",
          "type": "uint256"
        },
        {
          "internalType": "address",
          "name": "operator",
          "type": "address"
        },
        {
          "internalType": "uint256",
          "name": "permissionBitMap",
          "type": "uint256"
        },
        {
          "components": [
            {
              "internalType": "uint8",
              "name": "v",
              "type": "uint8"
            },
            {
              "internalType": "bytes32",
              "name": "r",
              "type": "bytes32"
            },
            {
              "internalType": "bytes32",
              "name": "s",
              "type": "bytes32"
            },
            {
              "internalType": "uint256",
              "name": "deadline",
              "type": "uint256"
            }
          ],
          "internalType": "struct DataTypes.EIP712Signature",
          "name": "sig",
          "type": "tuple"
        }
      ],
      "name": "grantOperatorPermissionsWithSig",
      "outputs": [],
      "stateMutability": "nonpayable",
      "type": "function"
    },
    {
      "inputs": [
        {
          "internalType": "uint256",
          "name": "characterId",
          "type": "uint256"
        },
        {
          "internalType": "uint256",
          "name": "noteId",
          "type": "uint256"
        },
        {
          "internalType": "address[]",
          "name": "blocklist",
          "type": "address[]"
        },
        {
          "internalType": "address[]",
          "name": "allowlist",
          "type": "address[]"
        }
      ],
      "name": "grantOperators4Note",
      "outputs": [],
      "stateMutability": "nonpayable",
      "type": "function"
    },
    {
      "inputs": [
        {
          "internalType": "string",
          "name": "name_",
          "type": "string"
        },
        {
          "internalType": "string",
          "name": "symbol_",
          "type": "string"
        },
        {
          "internalType": "address",
          "name": "linklist_",
          "type": "address"
        },
        {
          "internalType": "address",
          "name": "mintNFTImpl_",
          "type": "address"
        },
        {
          "internalType": "address",
          "name": "periphery_",
          "type": "address"
        },
        {
          "internalType": "address",
          "name": "newbieVilla_",
          "type": "address"
        }
      ],
      "name": "initialize",
      "outputs": [],
      "stateMutability": "nonpayable",
      "type": "function"
    },
    {
      "inputs": [
        {
          "internalType": "address",
          "name": "owner",
          "type": "address"
        },
        {
          "internalType": "address",
          "name": "operator",
          "type": "address"
        }
      ],
      "name": "isApprovedForAll",
      "outputs": [
        {
          "internalType": "bool",
          "name": "",
          "type": "bool"
        }
      ],
      "stateMutability": "view",
      "type": "function"
    },
    {
      "inputs": [
        {
          "internalType": "uint256",
          "name": "characterId",
          "type": "uint256"
        },
        {
          "internalType": "uint256",
          "name": "noteId",
          "type": "uint256"
        },
        {
          "internalType": "address",
          "name": "operator",
          "type": "address"
        }
      ],
      "name": "isOperatorAllowedForNote",
      "outputs": [
        {
          "internalType": "bool",
          "name": "",
          "type": "bool"
        }
      ],
      "stateMutability": "view",
      "type": "function"
    },
    {
      "inputs": [
        {
          "internalType": "uint256",
          "name": "characterId",
          "type": "uint256"
        }
      ],
      "name": "isPrimaryCharacter",
      "outputs": [
        {
          "internalType": "bool",
          "name": "",
          "type": "bool"
        }
      ],
      "stateMutability": "view",
      "type": "function"
    },
    {
      "inputs": [
        {
          "components": [
            {
              "internalType": "uint256",
              "name": "fromCharacterId",
              "type": "uint256"
            },
            {
              "internalType": "address",
              "name": "ethAddress",
              "type": "address"
            },
            {
              "internalType": "bytes32",
              "name": "linkType",
              "type": "bytes32"
            },
            {
              "internalType": "bytes",
              "name": "data",
              "type": "bytes"
            }
          ],
          "internalType": "struct DataTypes.linkAddressData",
          "name": "vars",
          "type": "tuple"
        }
      ],
      "name": "linkAddress",
      "outputs": [],
      "stateMutability": "nonpayable",
      "type": "function"
    },
    {
      "inputs": [
        {
          "components": [
            {
              "internalType": "uint256",
              "name": "fromCharacterId",
              "type": "uint256"
            },
            {
              "internalType": "string",
              "name": "toUri",
              "type": "string"
            },
            {
              "internalType": "bytes32",
              "name": "linkType",
              "type": "bytes32"
            },
            {
              "internalType": "bytes",
              "name": "data",
              "type": "bytes"
            }
          ],
          "internalType": "struct DataTypes.linkAnyUriData",
          "name": "vars",
          "type": "tuple"
        }
      ],
      "name": "linkAnyUri",
      "outputs": [],
      "stateMutability": "nonpayable",
      "type": "function"
    },
    {
      "inputs": [
        {
          "components": [
            {
              "internalType": "uint256",
              "name": "fromCharacterId",
              "type": "uint256"
            },
            {
              "internalType": "uint256",
              "name": "toCharacterId",
              "type": "uint256"
            },
            {
              "internalType": "bytes32",
              "name": "linkType",
              "type": "bytes32"
            },
            {
              "internalType": "bytes",
              "name": "data",
              "type": "bytes"
            }
          ],
          "internalType": "struct DataTypes.linkCharacterData",
          "name": "vars",
          "type": "tuple"
        }
      ],
      "name": "linkCharacter",
      "outputs": [],
      "stateMutability": "nonpayable",
      "type": "function"
    },
    {
      "inputs": [
        {
          "components": [
            {
              "internalType": "uint256",
              "name": "fromCharacterId",
              "type": "uint256"
            },
            {
              "internalType": "address",
              "name": "tokenAddress",
              "type": "address"
            },
            {
              "internalType": "uint256",
              "name": "tokenId",
              "type": "uint256"
            },
            {
              "internalType": "bytes32",
              "name": "linkType",
              "type": "bytes32"
            },
            {
              "internalType": "bytes",
              "name": "data",
              "type": "bytes"
            }
          ],
          "internalType": "struct DataTypes.linkERC721Data",
          "name": "vars",
          "type": "tuple"
        }
      ],
      "name": "linkERC721",
      "outputs": [],
      "stateMutability": "nonpayable",
      "type": "function"
    },
    {
      "inputs": [
        {
          "components": [
            {
              "internalType": "uint256",
              "name": "fromCharacterId",
              "type": "uint256"
            },
            {
              "internalType": "uint256",
              "name": "toLinkListId",
              "type": "uint256"
            },
            {
              "internalType": "bytes32",
              "name": "linkType",
              "type": "bytes32"
            },
            {
              "internalType": "bytes",
              "name": "data",
              "type": "bytes"
            }
          ],
          "internalType": "struct DataTypes.linkLinklistData",
          "name": "vars",
          "type": "tuple"
        }
      ],
      "name": "linkLinklist",
      "outputs": [],
      "stateMutability": "nonpayable",
      "type": "function"
    },
    {
      "inputs": [
        {
          "components": [
            {
              "internalType": "uint256",
              "name": "fromCharacterId",
              "type": "uint256"
            },
            {
              "internalType": "uint256",
              "name": "toCharacterId",
              "type": "uint256"
            },
            {
              "internalType": "uint256",
              "name": "toNoteId",
              "type": "uint256"
            },
            {
              "internalType": "bytes32",
              "name": "linkType",
              "type": "bytes32"
            },
            {
              "internalType": "bytes",
              "name": "data",
              "type": "bytes"
            }
          ],
          "internalType": "struct DataTypes.linkNoteData",
          "name": "vars",
          "type": "tuple"
        }
      ],
      "name": "linkNote",
      "outputs": [],
      "stateMutability": "nonpayable",
      "type": "function"
    },
    {
      "inputs": [
        {
          "internalType": "uint256",
          "name": "characterId",
          "type": "uint256"
        },
        {
          "internalType": "uint256",
          "name": "noteId",
          "type": "uint256"
        }
      ],
      "name": "lockNote",
      "outputs": [],
      "stateMutability": "nonpayable",
      "type": "function"
    },
    {
      "inputs": [
        {
          "components": [
            {
              "internalType": "uint256",
              "name": "characterId",
              "type": "uint256"
            },
            {
              "internalType": "uint256",
              "name": "noteId",
              "type": "uint256"
            },
            {
              "internalType": "address",
              "name": "to",
              "type": "address"
            },
            {
              "internalType": "bytes",
              "name": "mintModuleData",
              "type": "bytes"
            }
          ],
          "internalType": "struct DataTypes.MintNoteData",
          "name": "vars",
          "type": "tuple"
        }
      ],
      "name": "mintNote",
      "outputs": [
        {
          "internalType": "uint256",
          "name": "tokenId",
          "type": "uint256"
        }
      ],
      "stateMutability": "nonpayable",
      "type": "function"
    },
    {
      "inputs": [
        {
          "internalType": "bytes[]",
          "name": "data",
          "type": "bytes[]"
        }
      ],
      "name": "multicall",
      "outputs": [
        {
          "internalType": "bytes[]",
          "name": "results",
          "type": "bytes[]"
        }
      ],
      "stateMutability": "nonpayable",
      "type": "function"
    },
    {
      "inputs": [],
      "name": "name",
      "outputs": [
        {
          "internalType": "string",
          "name": "",
          "type": "string"
        }
      ],
      "stateMutability": "view",
      "type": "function"
    },
    {
      "inputs": [
        {
          "internalType": "address",
          "name": "owner",
          "type": "address"
        }
      ],
      "name": "nonces",
      "outputs": [
        {
          "internalType": "uint256",
          "name": "",
          "type": "uint256"
        }
      ],
      "stateMutability": "view",
      "type": "function"
    },
    {
      "inputs": [
        {
          "internalType": "uint256",
          "name": "tokenId",
          "type": "uint256"
        }
      ],
      "name": "ownerOf",
      "outputs": [
        {
          "internalType": "address",
          "name": "",
          "type": "address"
        }
      ],
      "stateMutability": "view",
      "type": "function"
    },
    {
      "inputs": [
        {
          "components": [
            {
              "internalType": "uint256",
              "name": "characterId",
              "type": "uint256"
            },
            {
              "internalType": "string",
              "name": "contentUri",
              "type": "string"
            },
            {
              "internalType": "address",
              "name": "linkModule",
              "type": "address"
            },
            {
              "internalType": "bytes",
              "name": "linkModuleInitData",
              "type": "bytes"
            },
            {
              "internalType": "address",
              "name": "mintModule",
              "type": "address"
            },
            {
              "internalType": "bytes",
              "name": "mintModuleInitData",
              "type": "bytes"
            },
            {
              "internalType": "bool",
              "name": "locked",
              "type": "bool"
            }
          ],
          "internalType": "struct DataTypes.PostNoteData",
          "name": "vars",
          "type": "tuple"
        }
      ],
      "name": "postNote",
      "outputs": [
        {
          "internalType": "uint256",
          "name": "noteId",
          "type": "uint256"
        }
      ],
      "stateMutability": "nonpayable",
      "type": "function"
    },
    {
      "inputs": [
        {
          "components": [
            {
              "internalType": "uint256",
              "name": "characterId",
              "type": "uint256"
            },
            {
              "internalType": "string",
              "name": "contentUri",
              "type": "string"
            },
            {
              "internalType": "address",
              "name": "linkModule",
              "type": "address"
            },
            {
              "internalType": "bytes",
              "name": "linkModuleInitData",
              "type": "bytes"
            },
            {
              "internalType": "address",
              "name": "mintModule",
              "type": "address"
            },
            {
              "internalType": "bytes",
              "name": "mintModuleInitData",
              "type": "bytes"
            },
            {
              "internalType": "bool",
              "name": "locked",
              "type": "bool"
            }
          ],
          "internalType": "struct DataTypes.PostNoteData",
          "name": "vars",
          "type": "tuple"
        },
        {
          "internalType": "address",
          "name": "ethAddress",
          "type": "address"
        }
      ],
      "name": "postNote4Address",
      "outputs": [
        {
          "internalType": "uint256",
          "name": "",
          "type": "uint256"
        }
      ],
      "stateMutability": "nonpayable",
      "type": "function"
    },
    {
      "inputs": [
        {
          "components": [
            {
              "internalType": "uint256",
              "name": "characterId",
              "type": "uint256"
            },
            {
              "internalType": "string",
              "name": "contentUri",
              "type": "string"
            },
            {
              "internalType": "address",
              "name": "linkModule",
              "type": "address"
            },
            {
              "internalType": "bytes",
              "name": "linkModuleInitData",
              "type": "bytes"
            },
            {
              "internalType": "address",
              "name": "mintModule",
              "type": "address"
            },
            {
              "internalType": "bytes",
              "name": "mintModuleInitData",
              "type": "bytes"
            },
            {
              "internalType": "bool",
              "name": "locked",
              "type": "bool"
            }
          ],
          "internalType": "struct DataTypes.PostNoteData",
          "name": "vars",
          "type": "tuple"
        },
        {
          "internalType": "string",
          "name": "uri",
          "type": "string"
        }
      ],
      "name": "postNote4AnyUri",
      "outputs": [
        {
          "internalType": "uint256",
          "name": "",
          "type": "uint256"
        }
      ],
      "stateMutability": "nonpayable",
      "type": "function"
    },
    {
      "inputs": [
        {
          "components": [
            {
              "internalType": "uint256",
              "name": "characterId",
              "type": "uint256"
            },
            {
              "internalType": "string",
              "name": "contentUri",
              "type": "string"
            },
            {
              "internalType": "address",
              "name": "linkModule",
              "type": "address"
            },
            {
              "internalType": "bytes",
              "name": "linkModuleInitData",
              "type": "bytes"
            },
            {
              "internalType": "address",
              "name": "mintModule",
              "type": "address"
            },
            {
              "internalType": "bytes",
              "name": "mintModuleInitData",
              "type": "bytes"
            },
            {
              "internalType": "bool",
              "name": "locked",
              "type": "bool"
            }
          ],
          "internalType": "struct DataTypes.PostNoteData",
          "name": "vars",
          "type": "tuple"
        },
        {
          "internalType": "uint256",
          "name": "toCharacterId",
          "type": "uint256"
        }
      ],
      "name": "postNote4Character",
      "outputs": [
        {
          "internalType": "uint256",
          "name": "",
          "type": "uint256"
        }
      ],
      "stateMutability": "nonpayable",
      "type": "function"
    },
    {
      "inputs": [
        {
          "components": [
            {
              "internalType": "uint256",
              "name": "characterId",
              "type": "uint256"
            },
            {
              "internalType": "string",
              "name": "contentUri",
              "type": "string"
            },
            {
              "internalType": "address",
              "name": "linkModule",
              "type": "address"
            },
            {
              "internalType": "bytes",
              "name": "linkModuleInitData",
              "type": "bytes"
            },
            {
              "internalType": "address",
              "name": "mintModule",
              "type": "address"
            },
            {
              "internalType": "bytes",
              "name": "mintModuleInitData",
              "type": "bytes"
            },
            {
              "internalType": "bool",
              "name": "locked",
              "type": "bool"
            }
          ],
          "internalType": "struct DataTypes.PostNoteData",
          "name": "vars",
          "type": "tuple"
        },
        {
          "components": [
            {
              "internalType": "address",
              "name": "tokenAddress",
              "type": "address"
            },
            {
              "internalType": "uint256",
              "name": "erc721TokenId",
              "type": "uint256"
            }
          ],
          "internalType": "struct DataTypes.ERC721Struct",
          "name": "erc721",
          "type": "tuple"
        }
      ],
      "name": "postNote4ERC721",
      "outputs": [
        {
          "internalType": "uint256",
          "name": "",
          "type": "uint256"
        }
      ],
      "stateMutability": "nonpayable",
      "type": "function"
    },
    {
      "inputs": [
        {
          "components": [
            {
              "internalType": "uint256",
              "name": "characterId",
              "type": "uint256"
            },
            {
              "internalType": "string",
              "name": "contentUri",
              "type": "string"
            },
            {
              "internalType": "address",
              "name": "linkModule",
              "type": "address"
            },
            {
              "internalType": "bytes",
              "name": "linkModuleInitData",
              "type": "bytes"
            },
            {
              "internalType": "address",
              "name": "mintModule",
              "type": "address"
            },
            {
              "internalType": "bytes",
              "name": "mintModuleInitData",
              "type": "bytes"
            },
            {
              "internalType": "bool",
              "name": "locked",
              "type": "bool"
            }
          ],
          "internalType": "struct DataTypes.PostNoteData",
          "name": "vars",
          "type": "tuple"
        },
        {
          "internalType": "uint256",
          "name": "toLinklistId",
          "type": "uint256"
        }
      ],
      "name": "postNote4Linklist",
      "outputs": [
        {
          "internalType": "uint256",
          "name": "",
          "type": "uint256"
        }
      ],
      "stateMutability": "nonpayable",
      "type": "function"
    },
    {
      "inputs": [
        {
          "components": [
            {
              "internalType": "uint256",
              "name": "characterId",
              "type": "uint256"
            },
            {
              "internalType": "string",
              "name": "contentUri",
              "type": "string"
            },
            {
              "internalType": "address",
              "name": "linkModule",
              "type": "address"
            },
            {
              "internalType": "bytes",
              "name": "linkModuleInitData",
              "type": "bytes"
            },
            {
              "internalType": "address",
              "name": "mintModule",
              "type": "address"
            },
            {
              "internalType": "bytes",
              "name": "mintModuleInitData",
              "type": "bytes"
            },
            {
              "internalType": "bool",
              "name": "locked",
              "type": "bool"
            }
          ],
          "internalType": "struct DataTypes.PostNoteData",
          "name": "vars",
          "type": "tuple"
        },
        {
          "components": [
            {
              "internalType": "uint256",
              "name": "characterId",
              "type": "uint256"
            },
            {
              "internalType": "uint256",
              "name": "noteId",
              "type": "uint256"
            }
          ],
          "internalType": "struct DataTypes.NoteStruct",
          "name": "note",
          "type": "tuple"
        }
      ],
      "name": "postNote4Note",
      "outputs": [
        {
          "internalType": "uint256",
          "name": "",
          "type": "uint256"
        }
      ],
      "stateMutability": "nonpayable",
      "type": "function"
    },
    {
      "inputs": [],
      "name": "resolver",
      "outputs": [
        {
          "internalType": "address",
          "name": "",
          "type": "address"
        }
      ],
      "stateMutability": "view",
      "type": "function"
    },
    {
      "inputs": [
        {
          "internalType": "address",
          "name": "from",
          "type": "address"
        },
        {
          "internalType": "address",
          "name": "to",
          "type": "address"
        },
        {
          "internalType": "uint256",
          "name": "tokenId",
          "type": "uint256"
        }
      ],
      "name": "safeTransferFrom",
      "outputs": [],
      "stateMutability": "nonpayable",
      "type": "function"
    },
    {
      "inputs": [
        {
          "internalType": "address",
          "name": "from",
          "type": "address"
        },
        {
          "internalType": "address",
          "name": "to",
          "type": "address"
        },
        {
          "internalType": "uint256",
          "name": "tokenId",
          "type": "uint256"
        },
        {
          "internalType": "bytes",
          "name": "_data",
          "type": "bytes"
        }
      ],
      "name": "safeTransferFrom",
      "outputs": [],
      "stateMutability": "nonpayable",
      "type": "function"
    },
    {
      "inputs": [
        {
          "internalType": "address",
          "name": "operator",
          "type": "address"
        },
        {
          "internalType": "bool",
          "name": "approved",
          "type": "bool"
        }
      ],
      "name": "setApprovalForAll",
      "outputs": [],
      "stateMutability": "nonpayable",
      "type": "function"
    },
    {
      "inputs": [
        {
          "internalType": "uint256",
          "name": "characterId",
          "type": "uint256"
        },
        {
          "internalType": "string",
          "name": "newUri",
          "type": "string"
        }
      ],
      "name": "setCharacterUri",
      "outputs": [],
      "stateMutability": "nonpayable",
      "type": "function"
    },
    {
      "inputs": [
        {
          "internalType": "uint256",
          "name": "characterId",
          "type": "uint256"
        },
        {
          "internalType": "string",
          "name": "newHandle",
          "type": "string"
        }
      ],
      "name": "setHandle",
      "outputs": [],
      "stateMutability": "nonpayable",
      "type": "function"
    },
    {
      "inputs": [
        {
          "components": [
            {
              "internalType": "address",
              "name": "account",
              "type": "address"
            },
            {
              "internalType": "address",
              "name": "linkModule",
              "type": "address"
            },
            {
              "internalType": "bytes",
              "name": "linkModuleInitData",
              "type": "bytes"
            }
          ],
          "internalType": "struct DataTypes.setLinkModule4AddressData",
          "name": "vars",
          "type": "tuple"
        }
      ],
      "name": "setLinkModule4Address",
      "outputs": [],
      "stateMutability": "nonpayable",
      "type": "function"
    },
    {
      "inputs": [
        {
          "components": [
            {
              "internalType": "uint256",
              "name": "linklistId",
              "type": "uint256"
            },
            {
              "internalType": "address",
              "name": "linkModule",
              "type": "address"
            },
            {
              "internalType": "bytes",
              "name": "linkModuleInitData",
              "type": "bytes"
            }
          ],
          "internalType": "struct DataTypes.setLinkModule4LinklistData",
          "name": "vars",
          "type": "tuple"
        }
      ],
      "name": "setLinkModule4Linklist",
      "outputs": [],
      "stateMutability": "nonpayable",
      "type": "function"
    },
    {
      "inputs": [
        {
          "internalType": "uint256",
          "name": "linklistId",
          "type": "uint256"
        },
        {
          "internalType": "string",
          "name": "uri",
          "type": "string"
        }
      ],
      "name": "setLinklistUri",
      "outputs": [],
      "stateMutability": "nonpayable",
      "type": "function"
    },
    {
      "inputs": [
        {
          "components": [
            {
              "internalType": "uint256",
              "name": "characterId",
              "type": "uint256"
            },
            {
              "internalType": "uint256",
              "name": "noteId",
              "type": "uint256"
            },
            {
              "internalType": "address",
              "name": "mintModule",
              "type": "address"
            },
            {
              "internalType": "bytes",
              "name": "mintModuleInitData",
              "type": "bytes"
            }
          ],
          "internalType": "struct DataTypes.setMintModule4NoteData",
          "name": "vars",
          "type": "tuple"
        }
      ],
      "name": "setMintModule4Note",
      "outputs": [],
      "stateMutability": "nonpayable",
      "type": "function"
    },
    {
      "inputs": [
        {
          "internalType": "uint256",
          "name": "characterId",
          "type": "uint256"
        },
        {
          "internalType": "uint256",
          "name": "noteId",
          "type": "uint256"
        },
        {
          "internalType": "string",
          "name": "newUri",
          "type": "string"
        }
      ],
      "name": "setNoteUri",
      "outputs": [],
      "stateMutability": "nonpayable",
      "type": "function"
    },
    {
      "inputs": [
        {
          "internalType": "uint256",
          "name": "characterId",
          "type": "uint256"
        }
      ],
      "name": "setPrimaryCharacterId",
      "outputs": [],
      "stateMutability": "nonpayable",
      "type": "function"
    },
    {
      "inputs": [
        {
          "internalType": "uint256",
          "name": "characterId",
          "type": "uint256"
        },
        {
          "internalType": "address",
          "name": "tokenAddress",
          "type": "address"
        }
      ],
      "name": "setSocialToken",
      "outputs": [],
      "stateMutability": "nonpayable",
      "type": "function"
    },
    {
      "inputs": [
        {
          "internalType": "bytes4",
          "name": "interfaceId",
          "type": "bytes4"
        }
      ],
      "name": "supportsInterface",
      "outputs": [
        {
          "internalType": "bool",
          "name": "",
          "type": "bool"
        }
      ],
      "stateMutability": "view",
      "type": "function"
    },
    {
      "inputs": [],
      "name": "symbol",
      "outputs": [
        {
          "internalType": "string",
          "name": "",
          "type": "string"
        }
      ],
      "stateMutability": "view",
      "type": "function"
    },
    {
      "inputs": [
        {
          "internalType": "uint256",
          "name": "index",
          "type": "uint256"
        }
      ],
      "name": "tokenByIndex",
      "outputs": [
        {
          "internalType": "uint256",
          "name": "",
          "type": "uint256"
        }
      ],
      "stateMutability": "view",
      "type": "function"
    },
    {
      "inputs": [
        {
          "internalType": "address",
          "name": "owner",
          "type": "address"
        },
        {
          "internalType": "uint256",
          "name": "index",
          "type": "uint256"
        }
      ],
      "name": "tokenOfOwnerByIndex",
      "outputs": [
        {
          "internalType": "uint256",
          "name": "",
          "type": "uint256"
        }
      ],
      "stateMutability": "view",
      "type": "function"
    },
    {
      "inputs": [
        {
          "internalType": "uint256",
          "name": "characterId",
          "type": "uint256"
        }
      ],
      "name": "tokenURI",
      "outputs": [
        {
          "internalType": "string",
          "name": "",
          "type": "string"
        }
      ],
      "stateMutability": "view",
      "type": "function"
    },
    {
      "inputs": [],
      "name": "totalSupply",
      "outputs": [
        {
          "internalType": "uint256",
          "name": "",
          "type": "uint256"
        }
      ],
      "stateMutability": "view",
      "type": "function"
    },
    {
      "inputs": [
        {
          "internalType": "address",
          "name": "from",
          "type": "address"
        },
        {
          "internalType": "address",
          "name": "to",
          "type": "address"
        },
        {
          "internalType": "uint256",
          "name": "tokenId",
          "type": "uint256"
        }
      ],
      "name": "transferFrom",
      "outputs": [],
      "stateMutability": "nonpayable",
      "type": "function"
    },
    {
      "inputs": [
        {
          "components": [
            {
              "internalType": "uint256",
              "name": "fromCharacterId",
              "type": "uint256"
            },
            {
              "internalType": "address",
              "name": "ethAddress",
              "type": "address"
            },
            {
              "internalType": "bytes32",
              "name": "linkType",
              "type": "bytes32"
            }
          ],
          "internalType": "struct DataTypes.unlinkAddressData",
          "name": "vars",
          "type": "tuple"
        }
      ],
      "name": "unlinkAddress",
      "outputs": [],
      "stateMutability": "nonpayable",
      "type": "function"
    },
    {
      "inputs": [
        {
          "components": [
            {
              "internalType": "uint256",
              "name": "fromCharacterId",
              "type": "uint256"
            },
            {
              "internalType": "string",
              "name": "toUri",
              "type": "string"
            },
            {
              "internalType": "bytes32",
              "name": "linkType",
              "type": "bytes32"
            }
          ],
          "internalType": "struct DataTypes.unlinkAnyUriData",
          "name": "vars",
          "type": "tuple"
        }
      ],
      "name": "unlinkAnyUri",
      "outputs": [],
      "stateMutability": "nonpayable",
      "type": "function"
    },
    {
      "inputs": [
        {
          "components": [
            {
              "internalType": "uint256",
              "name": "fromCharacterId",
              "type": "uint256"
            },
            {
              "internalType": "uint256",
              "name": "toCharacterId",
              "type": "uint256"
            },
            {
              "internalType": "bytes32",
              "name": "linkType",
              "type": "bytes32"
            }
          ],
          "internalType": "struct DataTypes.unlinkCharacterData",
          "name": "vars",
          "type": "tuple"
        }
      ],
      "name": "unlinkCharacter",
      "outputs": [],
      "stateMutability": "nonpayable",
      "type": "function"
    },
    {
      "inputs": [
        {
          "components": [
            {
              "internalType": "uint256",
              "name": "fromCharacterId",
              "type": "uint256"
            },
            {
              "internalType": "address",
              "name": "tokenAddress",
              "type": "address"
            },
            {
              "internalType": "uint256",
              "name": "tokenId",
              "type": "uint256"
            },
            {
              "internalType": "bytes32",
              "name": "linkType",
              "type": "bytes32"
            }
          ],
          "internalType": "struct DataTypes.unlinkERC721Data",
          "name": "vars",
          "type": "tuple"
        }
      ],
      "name": "unlinkERC721",
      "outputs": [],
      "stateMutability": "nonpayable",
      "type": "function"
    },
    {
      "inputs": [
        {
          "components": [
            {
              "internalType": "uint256",
              "name": "fromCharacterId",
              "type": "uint256"
            },
            {
              "internalType": "uint256",
              "name": "toLinkListId",
              "type": "uint256"
            },
            {
              "internalType": "bytes32",
              "name": "linkType",
              "type": "bytes32"
            }
          ],
          "internalType": "struct DataTypes.unlinkLinklistData",
          "name": "vars",
          "type": "tuple"
        }
      ],
      "name": "unlinkLinklist",
      "outputs": [],
      "stateMutability": "nonpayable",
      "type": "function"
    },
    {
      "inputs": [
        {
          "components": [
            {
              "internalType": "uint256",
              "name": "fromCharacterId",
              "type": "uint256"
            },
            {
              "internalType": "uint256",
              "name": "toCharacterId",
              "type": "uint256"
            },
            {
              "internalType": "uint256",
              "name": "toNoteId",
              "type": "uint256"
            },
            {
              "internalType": "bytes32",
              "name": "linkType",
              "type": "bytes32"
            }
          ],
          "internalType": "struct DataTypes.unlinkNoteData",
          "name": "vars",
          "type": "tuple"
        }
      ],
      "name": "unlinkNote",
      "outputs": [],
      "stateMutability": "nonpayable",
      "type": "function"
    }
  ],
  "bytecode": "0x608060405234801561001057600080fd5b50615e9d80620000216000396000f3fe608060405234801561001057600080fd5b506004361061045f5760003560e01c80637ecebe001161024c578063c053f6b811610146578063dca27135116100c3578063ef0828ab11610087578063ef0828ab14610ad6578063f2ad807514610ae9578063f316bacd14610afc578063f6479d7714610b0f578063fe9299fb14610b2257600080fd5b8063dca2713514610a59578063e56f2fe414610a6c578063e985e9c514610a7f578063ec81d19414610abb578063ed24911d14610ace57600080fd5b8063d23b320b1161010a578063d23b320b146109d5578063d70e10c6146109e8578063dabb053114610a13578063db491e8014610a26578063dc17b6de14610a4657600080fd5b8063c053f6b814610978578063c2a6fe3b14610989578063c87b56dd1461099c578063cb8e757e146109af578063cd69fe61146109c257600080fd5b80639864c307116101d4578063a7ccb4bf11610198578063a7ccb4bf1461090c578063ac9650d81461091f578063af90b1121461093f578063b88d4fde14610952578063b9d328451461096557600080fd5b80639864c307146108a05780639a4dec18146108b35780639a50248d146108c6578063a22cb465146108e6578063a6e6178d146108f957600080fd5b806392f7070b1161021b57806392f7070b1461082957806393f057e51461083c578063952be0ef1461084f57806395d89b411461088557806395d9fa7d1461088d57600080fd5b80637ecebe00146107c7578063867884e6146107f05780638734bbfc146108035780638b4ca06a1461081657600080fd5b806331b9d08c1161035d57806349186953116102e55780636352211e116102a95780636352211e1461075b5780636bf55d5f1461076e57806370a082311461078e57806374f345cf146107a1578063753d662d146107b457600080fd5b806349186953146106ee5780634f6ccce71461070f5780635a936d10146107225780635fb8818314610735578063628b644a1461074857600080fd5b806340ad34d81161032c57806340ad34d81461068f57806342842e0e146106a257806342966c68146106b557806344b82a24146106c857806347f94de7146106db57600080fd5b806331b9d08c1461062a578063327b2a031461065657806333f06ee614610669578063388f50831461067c57600080fd5b8063144a3e83116103eb57806323b872dd116103af57806323b872dd146105b557806328fbb805146105c857806329c301c2146105db5780632abc6bf6146105ee5780632f745c591461061757600080fd5b8063144a3e831461053e57806318160ddd14610551578063188b04b314610559578063206657f21461056c5780632209d1451461057f57600080fd5b806308cb68ff1161043257806308cb68ff146104df578063095ea7b3146104f45780630c4dd5f2146105075780630ff982441461051a5780631316529d1461052d57600080fd5b806301ffc9a71461046457806304f3bcec1461048c57806306fdde03146104b7578063081812fc146104cc575b600080fd5b6104776104723660046148bb565b610b4b565b60405190151581526020015b60405180910390f35b60175461049f906001600160a01b031681565b6040516001600160a01b039091168152602001610483565b6104bf610b76565b6040516104839190614928565b61049f6104da36600461493b565b610c08565b6104f26104ed36600461496c565b610ca2565b005b6104f26105023660046149bc565b610d79565b6104f261051536600461496c565b610e8e565b6104f26105283660046149e6565b610f98565b60045b604051908152602001610483565b6104bf61054c36600461493b565b611011565b600854610530565b6104f2610567366004614a14565b61101c565b6104f261057a366004614a48565b6110ba565b61049f61058d3660046149bc565b6001600160a01b03918216600090815260106020908152604080832093835292905220541690565b6104f26105c3366004614a7d565b6110d0565b6104776105d6366004614aa9565b611101565b6105306105e9366004614af0565b611118565b6105306105fc366004614b24565b6001600160a01b03166000908152600c602052604090205490565b6105306106253660046149bc565b6111a9565b61049f610638366004614b24565b6001600160a01b039081166000908152601160205260409020541690565b610530610664366004614b51565b61123f565b6104f2610677366004614bde565b6113ce565b6104f261068a366004614a14565b6114b5565b6104f261069d366004614c29565b61153a565b6104f26106b0366004614a7d565b6115b6565b6104f26106c336600461493b565b6115d1565b6105306106d6366004614c45565b61166e565b6104f26106e9366004614bde565b6116cf565b6107016106fc366004614c89565b611736565b604051610483929190614cef565b61053061071d36600461493b565b61178e565b6104f26107303660046149e6565b611821565b6104f2610743366004614a14565b61189a565b6104f2610756366004614d14565b611908565b61049f61076936600461493b565b611995565b61078161077c36600461493b565b611a0c565b6040516104839190614d66565b61053061079c366004614b24565b611a26565b6104f26107af366004614c89565b611aad565b6104f26107c2366004614d79565b611b27565b6105306107d5366004614b24565b6001600160a01b03166000908152601c602052604090205490565b6104f26107fe366004614c29565b611c2b565b61047761081136600461493b565b611cd5565b61053061082436600461493b565b611d03565b610530610837366004614dc0565b611d6f565b6104f261084a3660046149e6565b611dea565b61053061085d366004614e04565b60009182526019602090815260408084206001600160a01b0393909316845291905290205490565b6104bf611e8a565b6104f261089b366004614e04565b611e99565b6104f26108ae366004614a14565b611f2b565b6105306108c1366004614b51565b611f8c565b6108d96108d4366004614e27565b612077565b6040516104839190614e68565b6104f26108f4366004614ef4565b612226565b6104f2610907366004614bde565b612231565b61053061091a366004614a14565b612311565b61093261092d366004614f62565b6123b2565b6040516104839190614f97565b61053061094d366004614c45565b6124a6565b6104f26109603660046150e4565b6124cd565b6104f261097336600461515d565b612505565b6013546001600160a01b031661049f565b6104f2610997366004614c89565b6125b8565b6104bf6109aa36600461493b565b61262a565b6104f26109bd36600461515d565b6126cf565b6105306109d036600461515d565b61275e565b6104f26109e3366004614a14565b612773565b6105306109f6366004614c89565b6000918252600d6020908152604080842092845291905290205490565b6108d9610a2136600461493b565b6127fe565b610a39610a34366004614c89565b612985565b6040516104839190615191565b6104f2610a54366004615227565b612ae6565b6104bf610a6736600461493b565b612b77565b6104f2610a7a3660046152a9565b612be9565b610477610a8d36600461535a565b6001600160a01b03918216600090815260056020908152604080832093909416825291909152205460ff1690565b6104bf610ac936600461493b565b612d76565b610530612d96565b6104f2610ae436600461496c565b612da5565b6104f2610af736600461493b565b612e2f565b610530610b0a366004615384565b612e7e565b610530610b1d3660046149e6565b612fbf565b61049f610b3036600461493b565b6000908152600f60205260409020546001600160a01b031690565b60006001600160e01b0319821663780e9d6360e01b1480610b705750610b70826130da565b92915050565b606060008054610b85906153df565b80601f0160208091040260200160405190810160405280929190818152602001828054610bb1906153df565b8015610bfe5780601f10610bd357610100808354040283529160200191610bfe565b820191906000526020600020905b815481529060010190602001808311610be157829003601f168201915b5050505050905090565b6000818152600260205260408120546001600160a01b0316610c865760405162461bcd60e51b815260206004820152602c60248201527f4552433732313a20617070726f76656420717565727920666f72206e6f6e657860448201526b34b9ba32b73a103a37b5b2b760a11b60648201526084015b60405180910390fd5b506000908152600460205260409020546001600160a01b031690565b610caf6020820182614b24565b6001600160a01b0316336001600160a01b031614610ce05760405163ca67421960e01b815260040160405180910390fd5b73__$69db18565ecbefece480e92cc5f8fb1274$__63dfc34f25610d076020840184614b24565b610d176040850160208601614b24565b610d246040860186615413565b60116040518663ffffffff1660e01b8152600401610d46959493929190615482565b60006040518083038186803b158015610d5e57600080fd5b505af4158015610d72573d6000803e3d6000fd5b5050505050565b6000610d8482611995565b9050806001600160a01b0316836001600160a01b031603610df15760405162461bcd60e51b815260206004820152602160248201527f4552433732313a20617070726f76616c20746f2063757272656e74206f776e656044820152603960f91b6064820152608401610c7d565b336001600160a01b0382161480610e0d5750610e0d8133610a8d565b610e7f5760405162461bcd60e51b815260206004820152603860248201527f4552433732313a20617070726f76652063616c6c6572206973206e6f74206f7760448201527f6e6572206e6f7220617070726f76656420666f7220616c6c00000000000000006064820152608401610c7d565b610e89838361312a565b505050565b6013546040516367880d6160e11b8152823560048201526000916001600160a01b03169063cf101ac290602401602060405180830381865afa158015610ed8573d6000803e3d6000fd5b505050506040513d601f19601f82011682018060405250810190610efc91906154c1565b9050610f098160c1613198565b73__$69db18565ecbefece480e92cc5f8fb1274$__636252159e8335610f356040860160208701614b24565b610f426040870187615413565b600f6040518663ffffffff1660e01b8152600401610f649594939291906154da565b60006040518083038186803b158015610f7c57600080fd5b505af4158015610f90573d6000803e3d6000fd5b505050505050565b610fa4813560b2613198565b60135481356000818152600d6020908152604080832081870135808552908352928190205490516337fb824760e11b815273__$e2c9a8f399964af47bb173600dd9e5f662$__95636ff7048e95610d469590948901359390926001600160a01b0390921691600401615505565b6060610b708261262a565b611028813560b2613198565b6110358160200135613229565b73__$e2c9a8f399964af47bb173600dd9e5f662$__639ec52a238235602084013560408501356110686060870187615413565b6013546020808a01356000908152600a9091526040908190206005015490516001600160e01b031960e08a901b168152610d469796959493926001600160a01b03908116921690600d90600401615531565b6110c5836002613198565b610e89838383613264565b6110da33826132c0565b6110f65760405162461bcd60e51b8152600401610c7d9061557e565b610e898383836133b7565b600061110e848484613564565b90505b9392505050565b6000611126823560ec613198565b61113082356135ee565b6040516342a34a5360e01b815290915073__$2873850e5b3f5697aafc2f5cd9f27cc884$__906342a34a539061117490859085906000908190600e906004016156d6565b60006040518083038186803b15801561118c57600080fd5b505af41580156111a0573d6000803e3d6000fd5b50505050919050565b60006111b483611a26565b82106112165760405162461bcd60e51b815260206004820152602b60248201527f455243373231456e756d657261626c653a206f776e657220696e646578206f7560448201526a74206f6620626f756e647360a81b6064820152608401610c7d565b506001600160a01b03919091166000908152600660209081526040808320938352929052205490565b600061124d833560ca613198565b6545524337323160d01b600061126385356135ee565b6013549091506000906001600160a01b0316632ea24efc826112886020890189614b24565b6040516001600160e01b031960e085901b16815260048101929092526001600160a01b03166024820152602088013560448201526064016020604051808303816000875af11580156112de573d6000803e3d6000fd5b505050506040513d601f19601f8201168201806040525081019061130291906154c1565b905073__$2873850e5b3f5697aafc2f5cd9f27cc884$__6342a34a538784868561132f60208c018c614b24565b8b6020013560405160200161136292919060609290921b6bffffffffffffffffffffffff19168252601482015260340190565b604051602081830303815290604052600e6040518763ffffffff1660e01b81526004016113949695949392919061571b565b60006040518083038186803b1580156113ac57600080fd5b505af41580156113c0573d6000803e3d6000fd5b509398975050505050505050565b6013546040516367880d6160e11b8152600481018590526000916001600160a01b03169063cf101ac290602401602060405180830381865afa158015611418573d6000803e3d6000fd5b505050506040513d601f19601f8201168201806040525081019061143c91906154c1565b90506114498160b1613198565b601354604051633c17845760e11b81526001600160a01b039091169063782f08ae9061147d90879087908790600401615766565b600060405180830381600087803b15801561149757600080fd5b505af11580156114ab573d6000803e3d6000fd5b5050505050505050565b6114c1813560b9613198565b73__$e2c9a8f399964af47bb173600dd9e5f662$__63a4159c6b82356114ed6040850160208601614b24565b6013546040805160e086901b6001600160e01b031916815260048101949094526001600160a01b0392831660248501528601356044840152166064820152600d608482015260a401610d46565b611546813560b6613198565b60135460408051631d4deabf60e01b81528335600482015260208401356024820152908301356044820152606083013560648201526001600160a01b039091166084820152600d60a482015273__$e2c9a8f399964af47bb173600dd9e5f662$__90631d4deabf9060c401610d46565b610e89838383604051806020016040528060008152506124cd565b6000818152600a602052604080822090516115ef9160010190615780565b60408051918290039091206000818152600b6020908152838220829055858252600a90529182208281559092509061162a600183018261480a565b61163860028301600061480a565b50600060038201556004810180546001600160a01b031990811690915560059091018054909116905561166a82613617565b5050565b600061167c833560c8613198565b67131a5b9adb1a5cdd60c21b600061169485356135ee565b905060008460001b905073__$2873850e5b3f5697aafc2f5cd9f27cc884$__6342a34a53878486858a60405160200161136291815260200190565b6116da8360b0613198565b6000838152600a602052604090206002016116f682848361583c565b50827f17d7c9f69270ba135480ef16837f38b9d37d3ab291cbd3ba03982290c663199783836040516117299291906158fb565b60405180910390a2505050565b6000828152601a602090815260408083208484529091529020606090819061175d90613676565b6000858152601a60209081526040808320878452909152902090925061178590600201613676565b90509250929050565b600061179960085490565b82106117fc5760405162461bcd60e51b815260206004820152602c60248201527f455243373231456e756d657261626c653a20676c6f62616c20696e646578206f60448201526b7574206f6620626f756e647360a01b6064820152608401610c7d565b6008828154811061180f5761180f61590f565b90600052602060002001549050919050565b61182d813560be613198565b60135481356000818152600d602090815260408083208187013580855290835292819020549051633fe4fe3960e11b815273__$e2c9a8f399964af47bb173600dd9e5f662$__95637fc9fc7295610d469590948901359390926001600160a01b0390921691600401615505565b6118a6813560bb613198565b73__$e2c9a8f399964af47bb173600dd9e5f662$__6348391dcb82356118cf6020850185615413565b601354604080516001600160e01b031960e088901b168152610d469594939291890135916001600160a01b031690600d90600401615925565b6119128484613683565b61191c84846136e8565b611926848461375f565b6040516001626802bf60e01b0319815273__$2873850e5b3f5697aafc2f5cd9f27cc884$__9063ff97fd4190611969908790879087908790600e90600401615966565b60006040518083038186803b15801561198157600080fd5b505af41580156114ab573d6000803e3d6000fd5b6000818152600260205260408120546001600160a01b031680610b705760405162461bcd60e51b815260206004820152602960248201527f4552433732313a206f776e657220717565727920666f72206e6f6e657869737460448201526832b73a103a37b5b2b760b91b6064820152608401610c7d565b6000818152601860205260409020606090610b7090613676565b60006001600160a01b038216611a915760405162461bcd60e51b815260206004820152602a60248201527f4552433732313a2062616c616e636520717565727920666f7220746865207a65604482015269726f206164647265737360b01b6064820152608401610c7d565b506001600160a01b031660009081526003602052604090205490565b611ab88260c4613198565b611ac282826136e8565b6000828152600e60209081526040808320848452825291829020600501805460ff60a81b1916600160a81b179055905182815283917f036469f3e73c83520cdefa197d7a9c854c2f8bc0164b82e9f2bd4aa7e150fd3091015b60405180910390a25050565b6000611b3285611995565b6001600160a01b038181166000908152601c6020908152604080832080546001810190915581517f53f5e122d65c239c5936ed0eb8ce8ea2c1e77831749ec178c59c5cd4a792fe04938101939093529082018a90529288166060808301919091526080820188905260a08201939093529185013560c083015291925060e001604051602081830303815290604052805190602001209050611c1f611c18611bd76137a4565b8360405161190160f01b6020820152602281018390526042810182905260009060620160405160208183030381529060405280519060200120905092915050565b838561381a565b50610d72858585613264565b611c37813560b8613198565b73__$e2c9a8f399964af47bb173600dd9e5f662$__63154246368235611c636040850160208601614b24565b60135485356000908152600d6020908152604080832060608a013580855292529182902054825160e088901b6001600160e01b031916815260048101969096526001600160a01b03948516602487015291880135604486015260648501529116608483015260a482015260c401610d46565b600080611ce183611995565b6001600160a01b03166000908152600c60205260409020549290921492915050565b60135460405162fba02760e01b8152600481018390526000916001600160a01b03169062fba02790602401602060405180830381865afa158015611d4b573d6000803e3d6000fd5b505050506040513d601f19601f82011682018060405250810190610b7091906154c1565b6000611d7d833560c7613198565b664164647265737360c81b6000611d9485356135ee565b6040516bffffffffffffffffffffffff19606087901b1660208201529091506001600160a01b0385169073__$2873850e5b3f5697aafc2f5cd9f27cc884$__906342a34a53908890859087908690603401611362565b611df6813560ba613198565b73__$e2c9a8f399964af47bb173600dd9e5f662$__6393c96a528235611e226040850160208601614b24565b60135485356000908152600d60209081526040808320818a013580855292529182902054915160e087901b6001600160e01b031916815260048101959095526001600160a01b039384166024860152604485015291166064830152608482015260a401610d46565b606060018054610b85906153df565b611ea4826001613198565b6000828152600a60205260409020600401546001600160a01b031615611edd5760405163fe6f50e560e01b815260040160405180910390fd5b6040516384b44a2f60e01b8152600481018390526001600160a01b0382166024820152600a604482015273__$d8529f0216812a2dec6b96adf1943c3537$__906384b44a2f90606401610f64565b611f37813560bd613198565b60135460408051632ca904df60e01b815273__$e2c9a8f399964af47bb173600dd9e5f662$__92632ca904df92610d4692863592602088013592880135916001600160a01b0390911690600d90600401615505565b6000611f9a833560c9613198565b634e6f746560e01b6000611fae85356135ee565b601354604051635cb46be760e01b815260006004820181905287356024830152602088013560448301529293506001600160a01b0390911690635cb46be7906064016020604051808303816000875af115801561200f573d6000803e3d6000fd5b505050506040513d601f19601f8201168201806040525081019061203391906154c1565b905073__$2873850e5b3f5697aafc2f5cd9f27cc884$__6342a34a53878486858a600001358b60200135604051602001611362929190918252602082015260400190565b61207f614844565b60008383604051612091929190615986565b604080519182900382206000818152600b602090815283822054808352600a82529184902060c08601909452835485526001840180549396509194939290840191906120dc906153df565b80601f0160208091040260200160405190810160405280929190818152602001828054612108906153df565b80156121555780601f1061212a57610100808354040283529160200191612155565b820191906000526020600020905b81548152906001019060200180831161213857829003601f168201915b5050505050815260200160028201805461216e906153df565b80601f016020809104026020016040519081016040528092919081815260200182805461219a906153df565b80156121e75780601f106121bc576101008083540402835291602001916121e7565b820191906000526020600020905b8154815290600101906020018083116121ca57829003601f168201915b50505091835250506003820154602082015260048201546001600160a01b03908116604083015260059092015490911660609091015295945050505050565b61166a3383836138f7565b61223c836000613198565b61225c828260405161224f929190615986565b60405180910390206139c5565b61229b82828080601f0160208091040260200160405190810160405280939291908181526020018383808284376000920191909152506139f292505050565b60405163130f361d60e01b815273__$d8529f0216812a2dec6b96adf1943c3537$__9063130f361d906122dc90869086908690600b90600a90600401615996565b60006040518083038186803b1580156122f457600080fd5b505af4158015612308573d6000803e3d6000fd5b50505050505050565b6000612322823560208401356136e8565b73__$2873850e5b3f5697aafc2f5cd9f27cc884$__639d2e06f0833560208501356123536060870160408801614b24565b6123606060880188615413565b6014546040516001600160e01b031960e089901b1681526123959695949392916001600160a01b031690600e906004016159c4565b602060405180830381865af4158015611d4b573d6000803e3d6000fd5b6060816001600160401b038111156123cc576123cc614ff9565b6040519080825280602002602001820160405280156123ff57816020015b60608152602001906001900390816123ea5790505b50905060005b8281101561249f5761246f308585848181106124235761242361590f565b90506020028101906124359190615413565b8080601f016020809104026020016040519081016040528093929190818152602001838380828437600092019190915250613a5f92505050565b8282815181106124815761248161590f565b6020026020010181905250808061249790615a1e565b915050612405565b5092915050565b60006124b4833560c6613198565b6821b430b930b1ba32b960b91b600061169485356135ee565b6124d733836132c0565b6124f35760405162461bcd60e51b8152600401610c7d9061557e565b6124ff84848484613a84565b50505050565b612511813560b5613198565b612523816020013582604001356136e8565b73__$e2c9a8f399964af47bb173600dd9e5f662$__6371bd9b06823560208401356040850135606086013561255b6080880188615413565b6013546020808b01356000908152600e82526040808220818e013583529092528190206003015490516001600160e01b031960e08b901b168152610d46989796959493926001600160a01b03908116921690600d90600401615a37565b6125c38260c5613198565b6125cd82826136e8565b6000828152600e60209081526040808320848452825291829020600501805460ff60a01b1916600160a01b179055905182815283917f4f1db9708b537c1d26a7af4b235fd079bf2342d92a276e27eb6c8717e8bbcf939101611b1b565b6000818152600a6020526040902060020180546060919061264a906153df565b80601f0160208091040260200160405190810160405280929190818152602001828054612676906153df565b80156126c35780601f10612698576101008083540402835291602001916126c3565b820191906000526020600020905b8154815290600101906020018083116126a657829003601f168201915b50505050509050919050565b6126db813560b7613198565b73__$e2c9a8f399964af47bb173600dd9e5f662$__63f35deae182356127076040850160208601614b24565b6013546040805160e086901b6001600160e01b031916815260048101949094526001600160a01b039283166024850152860135604484015260608601356064840152166084820152600d60a482015260c401610d46565b6000610b7061276c83615a8d565b6001613ab7565b61277f813560c2613198565b61278e813560208301356136e8565b61279d8135602083013561375f565b73__$69db18565ecbefece480e92cc5f8fb1274$__6320828a02823560208401356127ce6060860160408701614b24565b6127db6060870187615413565b600e6040518763ffffffff1660e01b8152600401610d4696959493929190615b40565b612806614844565b600a60008381526020019081526020016000206040518060c00160405290816000820154815260200160018201805461283e906153df565b80601f016020809104026020016040519081016040528092919081815260200182805461286a906153df565b80156128b75780601f1061288c576101008083540402835291602001916128b7565b820191906000526020600020905b81548152906001019060200180831161289a57829003601f168201915b505050505081526020016002820180546128d0906153df565b80601f01602080910402602001604051908101604052809291908181526020018280546128fc906153df565b80156129495780601f1061291e57610100808354040283529160200191612949565b820191906000526020600020905b81548152906001019060200180831161292c57829003601f168201915b50505091835250506003820154602082015260048201546001600160a01b03908116604083015260059092015490911660609091015292915050565b60408051610100808201835260008083526020808401829052606084860181905284018290526080840182905260a0840182905260c0840182905260e08401829052868252600e81528482208683528152908490208451928301855280548352600181015491830191909152600281018054939492939192840191612a09906153df565b80601f0160208091040260200160405190810160405280929190818152602001828054612a35906153df565b8015612a825780601f10612a5757610100808354040283529160200191612a82565b820191906000526020600020905b815481529060010190602001808311612a6557829003601f168201915b505050918352505060038201546001600160a01b039081166020830152600483015481166040830152600590920154918216606082015260ff600160a01b8304811615156080830152600160a81b909204909116151560a090910152905092915050565b612af1866003613198565b612afb86866136e8565b604051630afb883f60e41b815273__$bfdcc7011a2e80c167e18378382b8de19c$__9063afb883f090612b3f90899089908990899089908990601a90600401615bbd565b60006040518083038186803b158015612b5757600080fd5b505af4158015612b6b573d6000803e3d6000fd5b50505050505050505050565b601354604051632b05429560e21b8152600481018390526060916001600160a01b03169063ac150a5490602401600060405180830381865afa158015612bc1573d6000803e3d6000fd5b505050506040513d6000823e601f3d908101601f19168201604052610b709190810190615c05565b601454600390600160a81b900460ff16158015612c14575060145460ff808316600160a01b90920416105b612c775760405162461bcd60e51b815260206004820152602e60248201527f496e697469616c697a61626c653a20636f6e747261637420697320616c72656160448201526d191e481a5b9a5d1a585b1a5e995960921b6064820152608401610c7d565b6014805460ff60a81b1960ff8416600160a01b021661ffff60a01b1990911617600160a81b179055612cab89898989613b94565b601380546001600160a01b03199081166001600160a01b0388811691909117909255601480548216878416179055601580548216868416179055601b80549091169184169190911790556040514281527f400175a56dd3710794078f7b9dbe8296ac94c5a248dfd51bb22ed4ab9eaa9fbf9060200160405180910390a16014805460ff60a81b1916905560405160ff821681527f7f26b83ff96e1f2b6a682f133852f6798a09c465da95921460cefb38474024989060200160405180910390a1505050505050505050565b6000818152600a6020526040902060010180546060919061264a906153df565b6000612da06137a4565b905090565b612db1813560bc613198565b73__$e2c9a8f399964af47bb173600dd9e5f662$__631873e2188235612dda6020850185615413565b60135486356000908152600d60209081526040808320818b01358085529252918290205491516001600160e01b031960e089901b168152610d469695949391926001600160a01b039092169190600401615925565b612e3881613be5565b336000818152600c602052604080822080549085905590519092839285927fce95332e6082aebeb8058a7b56d1a109f67d6550552ed04d36aca4a6acd4d7de9190a45050565b6000612e8c843560cb613198565b65416e7955726960d01b6000612ea286356135ee565b601354604051633610bf0960e11b81529192506000916001600160a01b0390911690636c217e1290612edc9084908a908a90600401615766565b6020604051808303816000875af1158015612efb573d6000803e3d6000fd5b505050506040513d601f19601f82011682018060405250810190612f1f91906154c1565b905073__$2873850e5b3f5697aafc2f5cd9f27cc884$__6342a34a53888486858b8b604051602001612f52929190615986565b604051602081830303815290604052600e6040518763ffffffff1660e01b8152600401612f849695949392919061571b565b60006040518083038186803b158015612f9c57600080fd5b505af4158015612fb0573d6000803e3d6000fd5b50939998505050505050505050565b6000612fcd823560b4613198565b61305b6040518060a00160405280846020016020810190612fee9190614b24565b6001600160a01b031681526020016130178560200160208101906130129190614b24565b613c4b565b815260200160405180602001604052806000815250815260200160006001600160a01b03168152602001604051806020016040528060008152508152506000613ab7565b60135460408051639ec52a2360e01b8152853560048201526024810184905290850135604482015260e06064820152600060e482018190526001600160a01b03909216608482015260a4810191909152600d60c482015290915073__$e2c9a8f399964af47bb173600dd9e5f662$__90639ec52a239061010401611174565b60006001600160e01b031982166380ac58cd60e01b148061310b57506001600160e01b03198216635b5e139f60e01b145b80610b7057506301ffc9a760e01b6001600160e01b0319831614610b70565b600081815260046020526040902080546001600160a01b0319166001600160a01b038416908117909155819061315f82611995565b6001600160a01b03167f8c5be1e5ebec7d5bd14f71427d1e84f3dd0314c0f7b2291e5b200ac8c7c3b92560405160405180910390a45050565b6131a182613d54565b156131aa575050565b6015546001600160a01b031633036131e6576000828152601960209081526040808320328452909152902054600190821c8116036131e6575050565b6000828152601960209081526040808320338452909152902054600190821c811603613210575050565b604051632c4bc2b960e21b815260040160405180910390fd5b6000818152600260205260409020546001600160a01b0316613261576040516375af0fc960e11b815260048101829052602401610c7d565b50565b604051631f8c0b6760e11b8152600481018490526001600160a01b038316602482015260448101829052601860648201526019608482015273__$bfdcc7011a2e80c167e18378382b8de19c$__90633f1816ce9060a4016122dc565b6000818152600260205260408120546001600160a01b03166133395760405162461bcd60e51b815260206004820152602c60248201527f4552433732313a206f70657261746f7220717565727920666f72206e6f6e657860448201526b34b9ba32b73a103a37b5b2b760a11b6064820152608401610c7d565b600061334483611995565b9050806001600160a01b0316846001600160a01b0316148061337f5750836001600160a01b031661337484610c08565b6001600160a01b0316145b806133af57506001600160a01b0380821660009081526005602090815260408083209388168352929052205460ff165b949350505050565b826001600160a01b03166133ca82611995565b6001600160a01b03161461342e5760405162461bcd60e51b815260206004820152602560248201527f4552433732313a207472616e736665722066726f6d20696e636f72726563742060448201526437bbb732b960d91b6064820152608401610c7d565b6001600160a01b0382166134905760405162461bcd60e51b8152602060048201526024808201527f4552433732313a207472616e7366657220746f20746865207a65726f206164646044820152637265737360e01b6064820152608401610c7d565b61349b838383613db4565b6134a660008261312a565b6001600160a01b03831660009081526003602052604081208054600192906134cf908490615c72565b90915550506001600160a01b03821660009081526003602052604081208054600192906134fd908490615c85565b909155505060008181526002602052604080822080546001600160a01b0319166001600160a01b0386811691821790925591518493918716917fddf252ad1be2c89b69c2b068fc378daa952ba7f163c4a11628f55a4df523b3ef91a4610e89838383613e86565b6000838152601a6020908152604080832085845290915281206135878184613ec3565b15613596576000915050611111565b6135a36002820184613ec3565b156135b2576001915050611111565b60008581526019602090815260408083206001600160a01b03871684529091529020546135e59060c31c60019081161490565b95945050505050565b6000818152600a602052604081206003018054829061360c90615a1e565b918290555092915050565b61362133826132c0565b61366d5760405162461bcd60e51b815260206004820152601b60248201527f4e4654426173653a204e6f744f776e65724f72417070726f76656400000000006044820152606401610c7d565b61326181613ee5565b6060600061111183613f94565b61368c82613d54565b15613695575050565b6015546001600160a01b031633036136bb576136b2828232613564565b156136bb575050565b6136c6828233613564565b156136cf575050565b604051631a1d1d4760e11b815260040160405180910390fd5b6000828152600e60209081526040808320848452909152902060050154600160a01b900460ff161561372d57604051631f0fc8f560e11b815260040160405180910390fd5b6000828152600a602052604090206003015481111561166a576040516364783acb60e01b815260040160405180910390fd5b6000828152600e60209081526040808320848452909152902060050154600160a81b900460ff161561166a57604051630bc06a0f60e21b815260040160405180910390fd5b60007f8b73c3c69bb8fe3d512ecc4cf759cc79239f7b179b0ffacaa9a75d522b39400f6137cf610b76565b8051602091820120604080519283019390935291810191909152600160608201524660808201523060a082015260c00160405160208183030381529060405280519060200120905090565b428160600135101561383e576040516275e96160e01b815260040160405180910390fd5b60006001846138506020850185615c98565b604080516000815260208181018084529490945260ff9092168282015291850135606082015290840135608082015260a0016020604051602081039080840390855afa1580156138a4573d6000803e3d6000fd5b5050604051601f1901519150506001600160a01b03811615806138d95750826001600160a01b0316816001600160a01b031614155b156124ff57604051636a9ca51760e01b815260040160405180910390fd5b816001600160a01b0316836001600160a01b0316036139585760405162461bcd60e51b815260206004820152601960248201527f4552433732313a20617070726f766520746f2063616c6c6572000000000000006044820152606401610c7d565b6001600160a01b03838116600081815260056020908152604080832094871680845294825291829020805460ff191686151590811790915591519182527f17307eab39ab6107e8899845ad3d59bd9653f200f220920489ca2b5937696c31910160405180910390a3505050565b6000818152600b60205260409020541561326157604051631b659b9f60e21b815260040160405180910390fd5b80518190601f811180613a055750600381105b15613a2357604051636f819c2160e11b815260040160405180910390fd5b60005b818110156124ff57613a57838281518110613a4357613a4361590f565b01602001516001600160f81b031916613fef565b600101613a26565b60606111118383604051806060016040528060278152602001615e416027913961409d565b613a8f8484846133b7565b613a9b84848484614115565b6124ff5760405162461bcd60e51b8152600401610c7d90615cbb565b6000613acd8360200151805190602001206139c5565b8115613ae057613ae083602001516139f2565b601260008154613aef90615a1e565b91829055508351909150613b039082614216565b73__$d8529f0216812a2dec6b96adf1943c3537$__634daae5688460000151856020015186604001518760600151886080015187600b600a6040518963ffffffff1660e01b8152600401613b5e989796959493929190615d0d565b60006040518083038186803b158015613b7657600080fd5b505af4158015613b8a573d6000803e3d6000fd5b5050505092915050565b613ba084848484614230565b7f414cd0b34676984f09a5f76ce9718d4062e50283abe0e7e274a9a5b4e0c99c308484848442604051613bd7959493929190615d84565b60405180910390a150505050565b6000613bf082611995565b6015549091506001600160a01b031633148015613c155750326001600160a01b038216145b15613c1e575050565b6001600160a01b0381163303613c32575050565b604051631b0c476f60e11b815260040160405180910390fd5b60408051602a80825260608281019093526f181899199a1a9b1b9c1cb0b131b232b360811b916001600160a01b0385169160009190602082018180368337019050509050600360fc1b81600081518110613ca757613ca761590f565b60200101906001600160f81b031916908160001a905350600f60fb1b81600181518110613cd657613cd661590f565b60200101906001600160f81b031916908160001a90535060295b6001811115613d4b578383600f1660108110613d0e57613d0e61590f565b1a60f81b828281518110613d2457613d2461590f565b60200101906001600160f81b031916908160001a90535060049290921c9160001901613cf0565b50949350505050565b600080613d6083611995565b90506001600160a01b0381163303613d7b5750600192915050565b6015546001600160a01b031633148015613d9d5750326001600160a01b038216145b15613dab5750600192915050565b50600092915050565b601b546001600160a01b03848116911614613e7b576000818152601860205260408120613de09061424b565b600083815260186020526040812091925090613dfb90613676565b905060005b82811015613e3d57613e2b84838381518110613e1e57613e1e61590f565b6020026020010151614255565b80613e3581615a1e565b915050613e00565b506001600160a01b0385166000908152600c6020526040902054839003613e78576001600160a01b0385166000908152600c60205260408120555b50505b610e8983838361428e565b6001600160a01b0382166000908152600c60205260408120549003610e89576001600160a01b03919091166000908152600c602052604090205550565b6001600160a01b03811660009081526001830160205260408120541515611111565b6000613ef082611995565b9050613efe81600084613db4565b613f0960008361312a565b6001600160a01b0381166000908152600360205260408120805460019290613f32908490615c72565b909155505060008281526002602052604080822080546001600160a01b0319169055518391906001600160a01b038416907fddf252ad1be2c89b69c2b068fc378daa952ba7f163c4a11628f55a4df523b3ef908390a461166a81600084613e86565b6060816000018054806020026020016040519081016040528092919081815260200182805480156126c357602002820191906000526020600020905b815481526020019060010190808311613fd05750505050509050919050565b600360fc1b6001600160f81b0319821610806140185750603d60f91b6001600160f81b03198216115b806140485750603960f81b6001600160f81b031982161180156140485750606160f81b6001600160f81b03198216105b80156140625750602d60f81b6001600160f81b0319821614155b801561407c5750605f60f81b6001600160f81b0319821614155b15613261576040516001621693dd60e01b0319815260040160405180910390fd5b6060600080856001600160a01b0316856040516140ba9190615dbe565b600060405180830381855af49150503d80600081146140f5576040519150601f19603f3d011682016040523d82523d6000602084013e6140fa565b606091505b509150915061410b86838387614346565b9695505050505050565b60006001600160a01b0384163b1561420b57604051630a85bd0160e11b81526001600160a01b0385169063150b7a0290614159903390899088908890600401615dda565b6020604051808303816000875af1925050508015614194575060408051601f3d908101601f1916820190925261419191810190615e0d565b60015b6141f1573d8080156141c2576040519150601f19603f3d011682016040523d82523d6000602084013e6141c7565b606091505b5080516000036141e95760405162461bcd60e51b8152600401610c7d90615cbb565b805181602001fd5b6001600160e01b031916630a85bd0160e11b1490506133af565b506001949350505050565b61166a8282604051806020016040528060008152506143bf565b600061423d84868361583c565b506001610d7282848361583c565b6000610b70825490565b60008281526019602090815260408083206001600160a01b0385168452825280832083905584835260189091529020610e8990826143f2565b6001600160a01b0383166142e9576142e481600880546000838152600960205260408120829055600182018355919091527ff3f7a9fe364faab93b216da50a3214154f22a0a2b415b23a84c8169e8b636ee30155565b61430c565b816001600160a01b0316836001600160a01b03161461430c5761430c8382614407565b6001600160a01b03821661432357610e89816144a4565b826001600160a01b0316826001600160a01b031614610e8957610e898282614553565b606083156143b55782516000036143ae576001600160a01b0385163b6143ae5760405162461bcd60e51b815260206004820152601d60248201527f416464726573733a2063616c6c20746f206e6f6e2d636f6e74726163740000006044820152606401610c7d565b50816133af565b6133af8383614597565b6143c983836145c1565b6143d66000848484614115565b610e895760405162461bcd60e51b8152600401610c7d90615cbb565b6000611111836001600160a01b038416614717565b6000600161441484611a26565b61441e9190615c72565b600083815260076020526040902054909150808214614471576001600160a01b03841660009081526006602090815260408083208584528252808320548484528184208190558352600790915290208190555b5060009182526007602090815260408084208490556001600160a01b039094168352600681528383209183525290812055565b6008546000906144b690600190615c72565b600083815260096020526040812054600880549394509092849081106144de576144de61590f565b9060005260206000200154905080600883815481106144ff576144ff61590f565b600091825260208083209091019290925582815260099091526040808220849055858252812055600880548061453757614537615e2a565b6001900381819060005260206000200160009055905550505050565b600061455e83611a26565b6001600160a01b039093166000908152600660209081526040808320868452825280832085905593825260079052919091209190915550565b8151156145a75781518083602001fd5b8060405162461bcd60e51b8152600401610c7d9190614928565b6001600160a01b0382166146175760405162461bcd60e51b815260206004820181905260248201527f4552433732313a206d696e7420746f20746865207a65726f20616464726573736044820152606401610c7d565b6000818152600260205260409020546001600160a01b03161561467c5760405162461bcd60e51b815260206004820152601c60248201527f4552433732313a20746f6b656e20616c7265616479206d696e746564000000006044820152606401610c7d565b61468860008383613db4565b6001600160a01b03821660009081526003602052604081208054600192906146b1908490615c85565b909155505060008181526002602052604080822080546001600160a01b0319166001600160a01b03861690811790915590518392907fddf252ad1be2c89b69c2b068fc378daa952ba7f163c4a11628f55a4df523b3ef908290a461166a60008383613e86565b6000818152600183016020526040812054801561480057600061473b600183615c72565b855490915060009061474f90600190615c72565b90508181146147b457600086600001828154811061476f5761476f61590f565b90600052602060002001549050808760000184815481106147925761479261590f565b6000918252602080832090910192909255918252600188019052604090208390555b85548690806147c5576147c5615e2a565b600190038181906000526020600020016000905590558560010160008681526020019081526020016000206000905560019350505050610b70565b6000915050610b70565b508054614816906153df565b6000825580601f10614826575050565b601f016020900490600052602060002090810190613261919061488c565b6040518060c001604052806000815260200160608152602001606081526020016000815260200160006001600160a01b0316815260200160006001600160a01b031681525090565b5b808211156148a1576000815560010161488d565b5090565b6001600160e01b03198116811461326157600080fd5b6000602082840312156148cd57600080fd5b8135611111816148a5565b60005b838110156148f35781810151838201526020016148db565b50506000910152565b600081518084526149148160208601602086016148d8565b601f01601f19169290920160200192915050565b60208152600061111160208301846148fc565b60006020828403121561494d57600080fd5b5035919050565b60006060828403121561496657600080fd5b50919050565b60006020828403121561497e57600080fd5b81356001600160401b0381111561499457600080fd5b6133af84828501614954565b80356001600160a01b03811681146149b757600080fd5b919050565b600080604083850312156149cf57600080fd5b6149d8836149a0565b946020939093013593505050565b6000606082840312156149f857600080fd5b6111118383614954565b60006080828403121561496657600080fd5b600060208284031215614a2657600080fd5b81356001600160401b03811115614a3c57600080fd5b6133af84828501614a02565b600080600060608486031215614a5d57600080fd5b83359250614a6d602085016149a0565b9150604084013590509250925092565b600080600060608486031215614a9257600080fd5b614a9b846149a0565b9250614a6d602085016149a0565b600080600060608486031215614abe57600080fd5b8335925060208401359150614ad5604085016149a0565b90509250925092565b600060e0828403121561496657600080fd5b600060208284031215614b0257600080fd5b81356001600160401b03811115614b1857600080fd5b6133af84828501614ade565b600060208284031215614b3657600080fd5b611111826149a0565b60006040828403121561496657600080fd5b60008060608385031215614b6457600080fd5b82356001600160401b03811115614b7a57600080fd5b614b8685828601614ade565b9250506117858460208501614b3f565b60008083601f840112614ba857600080fd5b5081356001600160401b03811115614bbf57600080fd5b602083019150836020828501011115614bd757600080fd5b9250929050565b600080600060408486031215614bf357600080fd5b8335925060208401356001600160401b03811115614c1057600080fd5b614c1c86828701614b96565b9497909650939450505050565b600060808284031215614c3b57600080fd5b6111118383614a02565b60008060408385031215614c5857600080fd5b82356001600160401b03811115614c6e57600080fd5b614c7a85828601614ade565b95602094909401359450505050565b60008060408385031215614c9c57600080fd5b50508035926020909101359150565b600081518084526020808501945080840160005b83811015614ce45781516001600160a01b031687529582019590820190600101614cbf565b509495945050505050565b604081526000614d026040830185614cab565b82810360208401526135e58185614cab565b60008060008060608587031215614d2a57600080fd5b843593506020850135925060408501356001600160401b03811115614d4e57600080fd5b614d5a87828801614b96565b95989497509550505050565b6020815260006111116020830184614cab565b60008060008060e08587031215614d8f57600080fd5b84359350614d9f602086016149a0565b925060408501359150614db58660608701614a02565b905092959194509250565b60008060408385031215614dd357600080fd5b82356001600160401b03811115614de957600080fd5b614df585828601614ade565b925050611785602084016149a0565b60008060408385031215614e1757600080fd5b82359150611785602084016149a0565b60008060208385031215614e3a57600080fd5b82356001600160401b03811115614e5057600080fd5b614e5c85828601614b96565b90969095509350505050565b60208152815160208201526000602083015160c06040840152614e8e60e08401826148fc565b90506040840151601f19848303016060850152614eab82826148fc565b91505060608401516080840152608084015160018060a01b0380821660a08601528060a08701511660c086015250508091505092915050565b803580151581146149b757600080fd5b60008060408385031215614f0757600080fd5b614f10836149a0565b915061178560208401614ee4565b60008083601f840112614f3057600080fd5b5081356001600160401b03811115614f4757600080fd5b6020830191508360208260051b8501011115614bd757600080fd5b60008060208385031215614f7557600080fd5b82356001600160401b03811115614f8b57600080fd5b614e5c85828601614f1e565b6000602080830181845280855180835260408601915060408160051b870101925083870160005b82811015614fec57603f19888603018452614fda8583516148fc565b94509285019290850190600101614fbe565b5092979650505050505050565b634e487b7160e01b600052604160045260246000fd5b60405160a081016001600160401b038111828210171561503157615031614ff9565b60405290565b604051601f8201601f191681016001600160401b038111828210171561505f5761505f614ff9565b604052919050565b60006001600160401b0382111561508057615080614ff9565b50601f01601f191660200190565b600082601f83011261509f57600080fd5b81356150b26150ad82615067565b615037565b8181528460208386010111156150c757600080fd5b816020850160208301376000918101602001919091529392505050565b600080600080608085870312156150fa57600080fd5b615103856149a0565b9350615111602086016149a0565b92506040850135915060608501356001600160401b0381111561513357600080fd5b61513f8782880161508e565b91505092959194509250565b600060a0828403121561496657600080fd5b60006020828403121561516f57600080fd5b81356001600160401b0381111561518557600080fd5b6133af8482850161514b565b602081528151602082015260208201516040820152600060408301516101008060608501526151c46101208501836148fc565b9150606085015160018060a01b0380821660808701528060808801511660a0870152505060a085015161520260c08601826001600160a01b03169052565b5060c085015180151560e08601525060e0850151801515858301525090949350505050565b6000806000806000806080878903121561524057600080fd5b863595506020870135945060408701356001600160401b038082111561526557600080fd5b6152718a838b01614f1e565b9096509450606089013591508082111561528a57600080fd5b5061529789828a01614f1e565b979a9699509497509295939492505050565b60008060008060008060008060c0898b0312156152c557600080fd5b88356001600160401b03808211156152dc57600080fd5b6152e88c838d01614b96565b909a50985060208b013591508082111561530157600080fd5b5061530e8b828c01614b96565b9097509550615321905060408a016149a0565b935061532f60608a016149a0565b925061533d60808a016149a0565b915061534b60a08a016149a0565b90509295985092959890939650565b6000806040838503121561536d57600080fd5b615376836149a0565b9150611785602084016149a0565b60008060006040848603121561539957600080fd5b83356001600160401b03808211156153b057600080fd5b6153bc87838801614ade565b945060208601359150808211156153d257600080fd5b50614c1c86828701614b96565b600181811c908216806153f357607f821691505b60208210810361496657634e487b7160e01b600052602260045260246000fd5b6000808335601e1984360301811261542a57600080fd5b8301803591506001600160401b0382111561544457600080fd5b602001915036819003821315614bd757600080fd5b81835281816020850137506000828201602090810191909152601f909101601f19169091010190565b6001600160a01b038681168252851660208201526080604082018190526000906154af9083018587615459565b90508260608301529695505050505050565b6000602082840312156154d357600080fd5b5051919050565b8581526001600160a01b03851660208201526080604082018190526000906154af9083018587615459565b948552602085019390935260408401919091526001600160a01b03166060830152608082015260a00190565b88815287602082015286604082015260e06060820152600061555760e083018789615459565b6001600160a01b0395861660808401529390941660a082015260c001529695505050505050565b60208082526031908201527f4552433732313a207472616e736665722063616c6c6572206973206e6f74206f6040820152701ddb995c881b9bdc88185c1c1c9bdd9959607a1b606082015260800190565b6000808335601e198436030181126155e657600080fd5b83016020810192503590506001600160401b0381111561560557600080fd5b803603821315614bd757600080fd5b80358252600061562760208301836155cf565b60e0602086015261563c60e086018284615459565b91505061564b604084016149a0565b6001600160a01b03818116604087015261566860608601866155cf565b9250868403606088015261567d848483615459565b9350508061568d608087016149a0565b16608087015250506156a260a08401846155cf565b85830360a08701526156b5838284615459565b925050506156c560c08401614ee4565b151560c08501528091505092915050565b60c0815260006156e960c0830188615614565b602083810197909752604083019590955250606081019290925281830360808301526000835260a09091015201919050565b60c08152600061572e60c0830189615614565b876020840152866040840152856060840152828103608084015261575281866148fc565b9150508260a0830152979650505050505050565b8381526040602082015260006135e5604083018486615459565b600080835461578e816153df565b600182811680156157a657600181146157bb576157ea565b60ff19841687528215158302870194506157ea565b8760005260208060002060005b858110156157e15781548a8201529084019082016157c8565b50505082870194505b50929695505050505050565b601f821115610e8957600081815260208120601f850160051c8101602086101561581d5750805b601f850160051c820191505b81811015610f9057828155600101615829565b6001600160401b0383111561585357615853614ff9565b6158678361586183546153df565b836157f6565b6000601f84116001811461589b57600085156158835750838201355b600019600387901b1c1916600186901b178355610d72565b600083815260209020601f19861690835b828110156158cc57868501358255602094850194600190920191016158ac565b50868210156158e95760001960f88860031b161c19848701351681555b505060018560011b0183555050505050565b60208152600061110e602083018486615459565b634e487b7160e01b600052603260045260246000fd5b86815260a06020820152600061593f60a083018789615459565b6040830195909552506001600160a01b039290921660608301526080909101529392505050565b8581528460208201526080604082015260006154af608083018587615459565b8183823760009101908152919050565b8581526080602082015260006159b0608083018688615459565b604083019490945250606001529392505050565b878152866020820152600060018060a01b03808816604084015260c060608401526159f360c084018789615459565b941660808301525060a0015295945050505050565b634e487b7160e01b600052601160045260246000fd5b600060018201615a3057615a30615a08565b5060010190565b60006101008b83528a6020840152896040840152886060840152806080840152615a64818401888a615459565b6001600160a01b0396871660a08501529490951660c08301525060e00152979650505050505050565b600060a08236031215615a9f57600080fd5b615aa761500f565b615ab0836149a0565b815260208301356001600160401b0380821115615acc57600080fd5b615ad83683870161508e565b60208401526040850135915080821115615af157600080fd5b615afd3683870161508e565b6040840152615b0e606086016149a0565b60608401526080850135915080821115615b2757600080fd5b50615b343682860161508e565b60808301525092915050565b86815285602082015260018060a01b038516604082015260a060608201526000615b6e60a083018587615459565b9050826080830152979650505050505050565b8183526000602080850194508260005b85811015614ce4576001600160a01b03615baa836149a0565b1687529582019590820190600101615b91565b87815286602082015260a060408201526000615bdd60a083018789615b81565b8281036060840152615bf0818688615b81565b91505082608083015298975050505050505050565b600060208284031215615c1757600080fd5b81516001600160401b03811115615c2d57600080fd5b8201601f81018413615c3e57600080fd5b8051615c4c6150ad82615067565b818152856020838501011115615c6157600080fd5b6135e58260208301602086016148d8565b81810381811115610b7057610b70615a08565b80820180821115610b7057610b70615a08565b600060208284031215615caa57600080fd5b813560ff8116811461111157600080fd5b60208082526032908201527f4552433732313a207472616e7366657220746f206e6f6e20455243373231526560408201527131b2b4bb32b91034b6b83632b6b2b73a32b960711b606082015260800190565b6001600160a01b03898116825261010060208301819052600091615d338483018c6148fc565b91508382036040850152615d47828b6148fc565b908916606085015283810360808501529050615d6381886148fc565b60a0840196909652505060c081019290925260e09091015295945050505050565b606081526000615d98606083018789615459565b8281036020840152615dab818688615459565b9150508260408301529695505050505050565b60008251615dd08184602087016148d8565b9190910192915050565b6001600160a01b038581168252841660208201526040810183905260806060820181905260009061410b908301846148fc565b600060208284031215615e1f57600080fd5b8151611111816148a5565b634e487b7160e01b600052603160045260246000fdfe416464726573733a206c6f772d6c6576656c2064656c65676174652063616c6c206661696c6564a264697066735822122080d9eef11c9325cc2c9a2a31f2bfcd05c3a034b936be57185bf58da356a6345864736f6c63430008100033",
  "linkReferences": {
    "contracts/libraries/CharacterLogic.sol": {
      "CharacterLogic": [
        {
          "length": 20,
          "start": 7978
        },
        {
          "length": 20,
          "start": 8907
        },
        {
          "length": 20,
          "start": 15142
        }
      ]
    },
    "contracts/libraries/LinkLogic.sol": {
      "LinkLogic": [
        {
          "length": 20,
          "start": 4088
        },
        {
          "length": 20,
          "start": 4184
        },
        {
          "length": 20,
          "start": 5348
        },
        {
          "length": 20,
          "start": 5557
        },
        {
          "length": 20,
          "start": 6273
        },
        {
          "length": 20,
          "start": 6345
        },
        {
          "length": 20,
          "start": 7258
        },
        {
          "length": 20,
          "start": 7705
        },
        {
          "length": 20,
          "start": 8043
        },
        {
          "length": 20,
          "start": 9542
        },
        {
          "length": 20,
          "start": 9982
        },
        {
          "length": 20,
          "start": 11732
        },
        {
          "length": 20,
          "start": 12504
        }
      ]
    },
    "contracts/libraries/LinkModuleLogic.sol": {
      "LinkModuleLogic": [
        {
          "length": 20,
          "start": 3331
        },
        {
          "length": 20,
          "start": 3884
        },
        {
          "length": 20,
          "start": 10176
        }
      ]
    },
    "contracts/libraries/OperatorLogic.sol": {
      "OperatorLogic": [
        {
          "length": 20,
          "start": 11051
        },
        {
          "length": 20,
          "start": 12991
        }
      ]
    },
    "contracts/libraries/PostLogic.sol": {
      "PostLogic": [
        {
          "length": 20,
          "start": 4451
        },
        {
          "length": 20,
          "start": 4903
        },
        {
          "length": 20,
          "start": 5825
        },
        {
          "length": 20,
          "start": 6489
        },
        {
          "length": 20,
          "start": 7649
        },
        {
          "length": 20,
          "start": 8280
        },
        {
          "length": 20,
          "start": 9029
        },
        {
          "length": 20,
          "start": 12100
        }
      ]
    }
  },
  "deployedLinkReferences": {
    "contracts/libraries/CharacterLogic.sol": {
      "CharacterLogic": [
        {
          "length": 20,
          "start": 7945
        },
        {
          "length": 20,
          "start": 8874
        },
        {
          "length": 20,
          "start": 15109
        }
      ]
    },
    "contracts/libraries/LinkLogic.sol": {
      "LinkLogic": [
        {
          "length": 20,
          "start": 4055
        },
        {
          "length": 20,
          "start": 4151
        },
        {
          "length": 20,
          "start": 5315
        },
        {
          "length": 20,
          "start": 5524
        },
        {
          "length": 20,
          "start": 6240
        },
        {
          "length": 20,
          "start": 6312
        },
        {
          "length": 20,
          "start": 7225
        },
        {
          "length": 20,
          "start": 7672
        },
        {
          "length": 20,
          "start": 8010
        },
        {
          "length": 20,
          "start": 9509
        },
        {
          "length": 20,
          "start": 9949
        },
        {
          "length": 20,
          "start": 11699
        },
        {
          "length": 20,
          "start": 12471
        }
      ]
    },
    "contracts/libraries/LinkModuleLogic.sol": {
      "LinkModuleLogic": [
        {
          "length": 20,
          "start": 3298
        },
        {
          "length": 20,
          "start": 3851
        },
        {
          "length": 20,
          "start": 10143
        }
      ]
    },
    "contracts/libraries/OperatorLogic.sol": {
      "OperatorLogic": [
        {
          "length": 20,
          "start": 11018
        },
        {
          "length": 20,
          "start": 12958
        }
      ]
    },
    "contracts/libraries/PostLogic.sol": {
      "PostLogic": [
        {
          "length": 20,
          "start": 4418
        },
        {
          "length": 20,
          "start": 4870
        },
        {
          "length": 20,
          "start": 5792
        },
        {
          "length": 20,
          "start": 6456
        },
        {
          "length": 20,
          "start": 7616
        },
        {
          "length": 20,
          "start": 8247
        },
        {
          "length": 20,
          "start": 8996
        },
        {
          "length": 20,
          "start": 12067
        }
      ]
    }
  }
}