{
  "_format": "hh-sol-artifact-1",
  "contractName": "Web3Entry",
  "sourceName": "contracts/Web3Entry.sol",
  "abi": [
    {
      "anonymous": false,
      "inputs": [
        {
          "indexed": true,
          "internalType": "address",
          "name": "owner",
          "type": "address"
        },
        {
          "indexed": true,
          "internalType": "address",
          "name": "approved",
          "type": "address"
        },
        {
          "indexed": true,
          "internalType": "uint256",
          "name": "tokenId",
          "type": "uint256"
        }
      ],
      "name": "Approval",
      "type": "event"
    },
    {
      "anonymous": false,
      "inputs": [
        {
          "indexed": true,
          "internalType": "address",
          "name": "owner",
          "type": "address"
        },
        {
          "indexed": true,
          "internalType": "address",
          "name": "operator",
          "type": "address"
        },
        {
          "indexed": false,
          "internalType": "bool",
          "name": "approved",
          "type": "bool"
        }
      ],
      "name": "ApprovalForAll",
      "type": "event"
    },
    {
      "anonymous": false,
      "inputs": [
        {
          "indexed": false,
          "internalType": "uint8",
          "name": "version",
          "type": "uint8"
        }
      ],
      "name": "Initialized",
      "type": "event"
    },
    {
      "anonymous": false,
      "inputs": [
        {
          "indexed": true,
          "internalType": "address",
          "name": "from",
          "type": "address"
        },
        {
          "indexed": true,
          "internalType": "address",
          "name": "to",
          "type": "address"
        },
        {
          "indexed": true,
          "internalType": "uint256",
          "name": "tokenId",
          "type": "uint256"
        }
      ],
      "name": "Transfer",
      "type": "event"
    },
    {
      "inputs": [
        {
          "internalType": "address",
          "name": "to",
          "type": "address"
        },
        {
          "internalType": "uint256",
          "name": "tokenId",
          "type": "uint256"
        }
      ],
      "name": "approve",
      "outputs": [],
      "stateMutability": "nonpayable",
      "type": "function"
    },
    {
      "inputs": [
        {
          "internalType": "address",
          "name": "owner",
          "type": "address"
        }
      ],
      "name": "balanceOf",
      "outputs": [
        {
          "internalType": "uint256",
          "name": "",
          "type": "uint256"
        }
      ],
      "stateMutability": "view",
      "type": "function"
    },
    {
      "inputs": [
        {
          "internalType": "uint256",
          "name": "tokenId",
          "type": "uint256"
        }
      ],
      "name": "burn",
      "outputs": [],
      "stateMutability": "nonpayable",
      "type": "function"
    },
    {
      "inputs": [
        {
          "components": [
            {
              "internalType": "address",
              "name": "to",
              "type": "address"
            },
            {
              "internalType": "string",
              "name": "handle",
              "type": "string"
            },
            {
              "internalType": "string",
              "name": "uri",
              "type": "string"
            },
            {
              "internalType": "address",
              "name": "linkModule",
              "type": "address"
            },
            {
              "internalType": "bytes",
              "name": "linkModuleInitData",
              "type": "bytes"
            }
          ],
          "internalType": "struct DataTypes.CreateCharacterData",
          "name": "vars",
          "type": "tuple"
        }
      ],
      "name": "createCharacter",
      "outputs": [],
      "stateMutability": "nonpayable",
      "type": "function"
    },
    {
      "inputs": [
        {
          "components": [
            {
              "internalType": "uint256",
              "name": "fromCharacterId",
              "type": "uint256"
            },
            {
              "internalType": "address",
              "name": "to",
              "type": "address"
            },
            {
              "internalType": "bytes32",
              "name": "linkType",
              "type": "bytes32"
            }
          ],
          "internalType": "struct DataTypes.createThenLinkCharacterData",
          "name": "vars",
          "type": "tuple"
        }
      ],
      "name": "createThenLinkCharacter",
      "outputs": [],
      "stateMutability": "nonpayable",
      "type": "function"
    },
    {
      "inputs": [
        {
          "internalType": "uint256",
          "name": "characterId",
          "type": "uint256"
        },
        {
          "internalType": "uint256",
          "name": "noteId",
          "type": "uint256"
        }
      ],
      "name": "deleteNote",
      "outputs": [],
      "stateMutability": "nonpayable",
      "type": "function"
    },
    {
      "inputs": [
        {
          "internalType": "uint256",
          "name": "tokenId",
          "type": "uint256"
        }
      ],
      "name": "getApproved",
      "outputs": [
        {
          "internalType": "address",
          "name": "",
          "type": "address"
        }
      ],
      "stateMutability": "view",
      "type": "function"
    },
    {
      "inputs": [
        {
          "internalType": "uint256",
          "name": "characterId",
          "type": "uint256"
        }
      ],
      "name": "getCharacter",
      "outputs": [
        {
          "components": [
            {
              "internalType": "uint256",
              "name": "characterId",
              "type": "uint256"
            },
            {
              "internalType": "string",
              "name": "handle",
              "type": "string"
            },
            {
              "internalType": "string",
              "name": "uri",
              "type": "string"
            },
            {
              "internalType": "uint256",
              "name": "noteCount",
              "type": "uint256"
            },
            {
              "internalType": "address",
              "name": "socialToken",
              "type": "address"
            },
            {
              "internalType": "address",
              "name": "linkModule",
              "type": "address"
            }
          ],
          "internalType": "struct DataTypes.Character",
          "name": "",
          "type": "tuple"
        }
      ],
      "stateMutability": "view",
      "type": "function"
    },
    {
      "inputs": [
        {
          "internalType": "string",
          "name": "handle",
          "type": "string"
        }
      ],
      "name": "getCharacterByHandle",
      "outputs": [
        {
          "components": [
            {
              "internalType": "uint256",
              "name": "characterId",
              "type": "uint256"
            },
            {
              "internalType": "string",
              "name": "handle",
              "type": "string"
            },
            {
              "internalType": "string",
              "name": "uri",
              "type": "string"
            },
            {
              "internalType": "uint256",
              "name": "noteCount",
              "type": "uint256"
            },
            {
              "internalType": "address",
              "name": "socialToken",
              "type": "address"
            },
            {
              "internalType": "address",
              "name": "linkModule",
              "type": "address"
            }
          ],
          "internalType": "struct DataTypes.Character",
          "name": "",
          "type": "tuple"
        }
      ],
      "stateMutability": "view",
      "type": "function"
    },
    {
      "inputs": [
        {
          "internalType": "uint256",
          "name": "characterId",
          "type": "uint256"
        }
      ],
      "name": "getCharacterUri",
      "outputs": [
        {
          "internalType": "string",
          "name": "",
          "type": "string"
        }
      ],
      "stateMutability": "view",
      "type": "function"
    },
    {
      "inputs": [
        {
          "internalType": "uint256",
          "name": "characterId",
          "type": "uint256"
        }
      ],
      "name": "getHandle",
      "outputs": [
        {
          "internalType": "string",
          "name": "",
          "type": "string"
        }
      ],
      "stateMutability": "view",
      "type": "function"
    },
    {
      "inputs": [
        {
          "internalType": "address",
          "name": "account",
          "type": "address"
        }
      ],
      "name": "getLinkModule4Address",
      "outputs": [
        {
          "internalType": "address",
          "name": "",
          "type": "address"
        }
      ],
      "stateMutability": "view",
      "type": "function"
    },
    {
      "inputs": [
        {
          "internalType": "address",
          "name": "tokenAddress",
          "type": "address"
        },
        {
          "internalType": "uint256",
          "name": "tokenId",
          "type": "uint256"
        }
      ],
      "name": "getLinkModule4ERC721",
      "outputs": [
        {
          "internalType": "address",
          "name": "",
          "type": "address"
        }
      ],
      "stateMutability": "view",
      "type": "function"
    },
    {
      "inputs": [
        {
          "internalType": "uint256",
          "name": "tokenId",
          "type": "uint256"
        }
      ],
      "name": "getLinkModule4Linklist",
      "outputs": [
        {
          "internalType": "address",
          "name": "",
          "type": "address"
        }
      ],
      "stateMutability": "view",
      "type": "function"
    },
    {
      "inputs": [],
      "name": "getLinklistContract",
      "outputs": [
        {
          "internalType": "address",
          "name": "",
          "type": "address"
        }
      ],
      "stateMutability": "view",
      "type": "function"
    },
    {
      "inputs": [
        {
          "internalType": "uint256",
          "name": "characterId",
          "type": "uint256"
        },
        {
          "internalType": "bytes32",
          "name": "linkType",
          "type": "bytes32"
        }
      ],
      "name": "getLinklistId",
      "outputs": [
        {
          "internalType": "uint256",
          "name": "",
          "type": "uint256"
        }
      ],
      "stateMutability": "view",
      "type": "function"
    },
    {
      "inputs": [
        {
          "internalType": "uint256",
          "name": "linkListId",
          "type": "uint256"
        }
      ],
      "name": "getLinklistType",
      "outputs": [
        {
          "internalType": "bytes32",
          "name": "",
          "type": "bytes32"
        }
      ],
      "stateMutability": "view",
      "type": "function"
    },
    {
      "inputs": [
        {
          "internalType": "uint256",
          "name": "tokenId",
          "type": "uint256"
        }
      ],
      "name": "getLinklistUri",
      "outputs": [
        {
          "internalType": "string",
          "name": "",
          "type": "string"
        }
      ],
      "stateMutability": "view",
      "type": "function"
    },
    {
      "inputs": [
        {
          "internalType": "uint256",
          "name": "characterId",
          "type": "uint256"
        },
        {
          "internalType": "uint256",
          "name": "noteId",
          "type": "uint256"
        }
      ],
      "name": "getNote",
      "outputs": [
        {
          "components": [
            {
              "internalType": "bytes32",
              "name": "linkItemType",
              "type": "bytes32"
            },
            {
              "internalType": "bytes32",
              "name": "linkKey",
              "type": "bytes32"
            },
            {
              "internalType": "string",
              "name": "contentUri",
              "type": "string"
            },
            {
              "internalType": "address",
              "name": "linkModule",
              "type": "address"
            },
            {
              "internalType": "address",
              "name": "mintModule",
              "type": "address"
            },
            {
              "internalType": "address",
              "name": "mintNFT",
              "type": "address"
            },
            {
              "internalType": "bool",
              "name": "deleted",
              "type": "bool"
            },
            {
              "internalType": "bool",
              "name": "locked",
              "type": "bool"
            }
          ],
          "internalType": "struct DataTypes.Note",
          "name": "",
          "type": "tuple"
        }
      ],
      "stateMutability": "view",
      "type": "function"
    },
    {
      "inputs": [
        {
          "internalType": "uint256",
          "name": "characterId",
          "type": "uint256"
        },
        {
          "internalType": "address",
          "name": "operator",
          "type": "address"
        }
      ],
      "name": "getOperatorPermissions",
      "outputs": [
        {
          "internalType": "uint256",
          "name": "",
          "type": "uint256"
        }
      ],
      "stateMutability": "view",
      "type": "function"
    },
    {
      "inputs": [
        {
          "internalType": "uint256",
          "name": "characterId",
          "type": "uint256"
        }
      ],
      "name": "getOperators",
      "outputs": [
        {
          "internalType": "address[]",
          "name": "",
          "type": "address[]"
        }
      ],
      "stateMutability": "view",
      "type": "function"
    },
    {
      "inputs": [
        {
          "internalType": "uint256",
          "name": "characterId",
          "type": "uint256"
        },
        {
          "internalType": "uint256",
          "name": "noteId",
          "type": "uint256"
        }
      ],
      "name": "getOperators4Note",
      "outputs": [
        {
          "internalType": "address[]",
          "name": "blacklist",
          "type": "address[]"
        },
        {
          "internalType": "address[]",
          "name": "whitelist",
          "type": "address[]"
        }
      ],
      "stateMutability": "view",
      "type": "function"
    },
    {
      "inputs": [
        {
          "internalType": "address",
          "name": "account",
          "type": "address"
        }
      ],
      "name": "getPrimaryCharacterId",
      "outputs": [
        {
          "internalType": "uint256",
          "name": "",
          "type": "uint256"
        }
      ],
      "stateMutability": "view",
      "type": "function"
    },
    {
      "inputs": [],
      "name": "getRevision",
      "outputs": [
        {
          "internalType": "uint256",
          "name": "",
          "type": "uint256"
        }
      ],
      "stateMutability": "pure",
      "type": "function"
    },
    {
      "inputs": [
        {
          "internalType": "uint256",
          "name": "characterId",
          "type": "uint256"
        },
        {
          "internalType": "address",
          "name": "operator",
          "type": "address"
        },
        {
          "internalType": "uint256",
          "name": "permissionBitMap",
          "type": "uint256"
        }
      ],
      "name": "grantOperatorPermissions",
      "outputs": [],
      "stateMutability": "nonpayable",
      "type": "function"
    },
    {
      "inputs": [
        {
          "internalType": "uint256",
          "name": "characterId",
          "type": "uint256"
        },
        {
          "internalType": "uint256",
          "name": "noteId",
          "type": "uint256"
        },
        {
          "internalType": "address[]",
          "name": "blacklist",
          "type": "address[]"
        },
        {
          "internalType": "address[]",
          "name": "whitelist",
          "type": "address[]"
        }
      ],
      "name": "grantOperators4Note",
      "outputs": [],
      "stateMutability": "nonpayable",
      "type": "function"
    },
    {
      "inputs": [
        {
          "internalType": "uint256",
          "name": "characterId",
          "type": "uint256"
        },
        {
          "internalType": "uint256",
          "name": "noteId",
          "type": "uint256"
        },
        {
          "internalType": "address",
          "name": "operator",
          "type": "address"
        }
      ],
      "name": "hasNotePermission",
      "outputs": [
        {
          "internalType": "bool",
          "name": "",
          "type": "bool"
        }
      ],
      "stateMutability": "view",
      "type": "function"
    },
    {
      "inputs": [
        {
          "internalType": "string",
          "name": "_name",
          "type": "string"
        },
        {
          "internalType": "string",
          "name": "_symbol",
          "type": "string"
        },
        {
          "internalType": "address",
          "name": "_linklistContract",
          "type": "address"
        },
        {
          "internalType": "address",
          "name": "_mintNFTImpl",
          "type": "address"
        },
        {
          "internalType": "address",
          "name": "_periphery",
          "type": "address"
        },
        {
          "internalType": "address",
          "name": "_resolver",
          "type": "address"
        }
      ],
      "name": "initialize",
      "outputs": [],
      "stateMutability": "nonpayable",
      "type": "function"
    },
    {
      "inputs": [
        {
          "internalType": "address",
          "name": "owner",
          "type": "address"
        },
        {
          "internalType": "address",
          "name": "operator",
          "type": "address"
        }
      ],
      "name": "isApprovedForAll",
      "outputs": [
        {
          "internalType": "bool",
          "name": "",
          "type": "bool"
        }
      ],
      "stateMutability": "view",
      "type": "function"
    },
    {
      "inputs": [
        {
          "internalType": "uint256",
          "name": "characterId",
          "type": "uint256"
        }
      ],
      "name": "isPrimaryCharacter",
      "outputs": [
        {
          "internalType": "bool",
          "name": "",
          "type": "bool"
        }
      ],
      "stateMutability": "view",
      "type": "function"
    },
    {
      "inputs": [
        {
          "components": [
            {
              "internalType": "uint256",
              "name": "fromCharacterId",
              "type": "uint256"
            },
            {
              "internalType": "address",
              "name": "ethAddress",
              "type": "address"
            },
            {
              "internalType": "bytes32",
              "name": "linkType",
              "type": "bytes32"
            },
            {
              "internalType": "bytes",
              "name": "data",
              "type": "bytes"
            }
          ],
          "internalType": "struct DataTypes.linkAddressData",
          "name": "vars",
          "type": "tuple"
        }
      ],
      "name": "linkAddress",
      "outputs": [],
      "stateMutability": "nonpayable",
      "type": "function"
    },
    {
      "inputs": [
        {
          "components": [
            {
              "internalType": "uint256",
              "name": "fromCharacterId",
              "type": "uint256"
            },
            {
              "internalType": "string",
              "name": "toUri",
              "type": "string"
            },
            {
              "internalType": "bytes32",
              "name": "linkType",
              "type": "bytes32"
            },
            {
              "internalType": "bytes",
              "name": "data",
              "type": "bytes"
            }
          ],
          "internalType": "struct DataTypes.linkAnyUriData",
          "name": "vars",
          "type": "tuple"
        }
      ],
      "name": "linkAnyUri",
      "outputs": [],
      "stateMutability": "nonpayable",
      "type": "function"
    },
    {
      "inputs": [
        {
          "components": [
            {
              "internalType": "uint256",
              "name": "fromCharacterId",
              "type": "uint256"
            },
            {
              "internalType": "uint256",
              "name": "toCharacterId",
              "type": "uint256"
            },
            {
              "internalType": "bytes32",
              "name": "linkType",
              "type": "bytes32"
            },
            {
              "internalType": "bytes",
              "name": "data",
              "type": "bytes"
            }
          ],
          "internalType": "struct DataTypes.linkCharacterData",
          "name": "vars",
          "type": "tuple"
        }
      ],
      "name": "linkCharacter",
      "outputs": [],
      "stateMutability": "nonpayable",
      "type": "function"
    },
    {
      "inputs": [
        {
          "components": [
            {
              "internalType": "uint256",
              "name": "fromCharacterId",
              "type": "uint256"
            },
            {
              "internalType": "address",
              "name": "tokenAddress",
              "type": "address"
            },
            {
              "internalType": "uint256",
              "name": "tokenId",
              "type": "uint256"
            },
            {
              "internalType": "bytes32",
              "name": "linkType",
              "type": "bytes32"
            },
            {
              "internalType": "bytes",
              "name": "data",
              "type": "bytes"
            }
          ],
          "internalType": "struct DataTypes.linkERC721Data",
          "name": "vars",
          "type": "tuple"
        }
      ],
      "name": "linkERC721",
      "outputs": [],
      "stateMutability": "nonpayable",
      "type": "function"
    },
    {
      "inputs": [
        {
          "components": [
            {
              "internalType": "uint256",
              "name": "fromCharacterId",
              "type": "uint256"
            },
            {
              "internalType": "uint256",
              "name": "toLinkListId",
              "type": "uint256"
            },
            {
              "internalType": "bytes32",
              "name": "linkType",
              "type": "bytes32"
            },
            {
              "internalType": "bytes",
              "name": "data",
              "type": "bytes"
            }
          ],
          "internalType": "struct DataTypes.linkLinklistData",
          "name": "vars",
          "type": "tuple"
        }
      ],
      "name": "linkLinklist",
      "outputs": [],
      "stateMutability": "nonpayable",
      "type": "function"
    },
    {
      "inputs": [
        {
          "components": [
            {
              "internalType": "uint256",
              "name": "fromCharacterId",
              "type": "uint256"
            },
            {
              "internalType": "uint256",
              "name": "toCharacterId",
              "type": "uint256"
            },
            {
              "internalType": "uint256",
              "name": "toNoteId",
              "type": "uint256"
            },
            {
              "internalType": "bytes32",
              "name": "linkType",
              "type": "bytes32"
            },
            {
              "internalType": "bytes",
              "name": "data",
              "type": "bytes"
            }
          ],
          "internalType": "struct DataTypes.linkNoteData",
          "name": "vars",
          "type": "tuple"
        }
      ],
      "name": "linkNote",
      "outputs": [],
      "stateMutability": "nonpayable",
      "type": "function"
    },
    {
      "inputs": [
        {
          "internalType": "uint256",
          "name": "characterId",
          "type": "uint256"
        },
        {
          "internalType": "uint256",
          "name": "noteId",
          "type": "uint256"
        }
      ],
      "name": "lockNote",
      "outputs": [],
      "stateMutability": "nonpayable",
      "type": "function"
    },
    {
      "inputs": [
        {
          "internalType": "address",
          "name": "newbieVilla",
          "type": "address"
        },
        {
          "internalType": "uint256[]",
          "name": "characterIds",
          "type": "uint256[]"
        }
      ],
      "name": "migrateOperator",
      "outputs": [],
      "stateMutability": "nonpayable",
      "type": "function"
    },
    {
      "inputs": [
        {
          "components": [
            {
              "internalType": "uint256",
              "name": "characterId",
              "type": "uint256"
            },
            {
              "internalType": "uint256",
              "name": "noteId",
              "type": "uint256"
            },
            {
              "internalType": "address",
              "name": "to",
              "type": "address"
            },
            {
              "internalType": "bytes",
              "name": "mintModuleData",
              "type": "bytes"
            }
          ],
          "internalType": "struct DataTypes.MintNoteData",
          "name": "vars",
          "type": "tuple"
        }
      ],
      "name": "mintNote",
      "outputs": [
        {
          "internalType": "uint256",
          "name": "",
          "type": "uint256"
        }
      ],
      "stateMutability": "nonpayable",
      "type": "function"
    },
    {
      "inputs": [],
      "name": "name",
      "outputs": [
        {
          "internalType": "string",
          "name": "",
          "type": "string"
        }
      ],
      "stateMutability": "view",
      "type": "function"
    },
    {
      "inputs": [
        {
          "internalType": "uint256",
          "name": "tokenId",
          "type": "uint256"
        }
      ],
      "name": "ownerOf",
      "outputs": [
        {
          "internalType": "address",
          "name": "",
          "type": "address"
        }
      ],
      "stateMutability": "view",
      "type": "function"
    },
    {
      "inputs": [
        {
          "components": [
            {
              "internalType": "uint256",
              "name": "characterId",
              "type": "uint256"
            },
            {
              "internalType": "string",
              "name": "contentUri",
              "type": "string"
            },
            {
              "internalType": "address",
              "name": "linkModule",
              "type": "address"
            },
            {
              "internalType": "bytes",
              "name": "linkModuleInitData",
              "type": "bytes"
            },
            {
              "internalType": "address",
              "name": "mintModule",
              "type": "address"
            },
            {
              "internalType": "bytes",
              "name": "mintModuleInitData",
              "type": "bytes"
            },
            {
              "internalType": "bool",
              "name": "locked",
              "type": "bool"
            }
          ],
          "internalType": "struct DataTypes.PostNoteData",
          "name": "vars",
          "type": "tuple"
        }
      ],
      "name": "postNote",
      "outputs": [
        {
          "internalType": "uint256",
          "name": "",
          "type": "uint256"
        }
      ],
      "stateMutability": "nonpayable",
      "type": "function"
    },
    {
      "inputs": [
        {
          "components": [
            {
              "internalType": "uint256",
              "name": "characterId",
              "type": "uint256"
            },
            {
              "internalType": "string",
              "name": "contentUri",
              "type": "string"
            },
            {
              "internalType": "address",
              "name": "linkModule",
              "type": "address"
            },
            {
              "internalType": "bytes",
              "name": "linkModuleInitData",
              "type": "bytes"
            },
            {
              "internalType": "address",
              "name": "mintModule",
              "type": "address"
            },
            {
              "internalType": "bytes",
              "name": "mintModuleInitData",
              "type": "bytes"
            },
            {
              "internalType": "bool",
              "name": "locked",
              "type": "bool"
            }
          ],
          "internalType": "struct DataTypes.PostNoteData",
          "name": "noteData",
          "type": "tuple"
        },
        {
          "internalType": "address",
          "name": "ethAddress",
          "type": "address"
        }
      ],
      "name": "postNote4Address",
      "outputs": [
        {
          "internalType": "uint256",
          "name": "",
          "type": "uint256"
        }
      ],
      "stateMutability": "nonpayable",
      "type": "function"
    },
    {
      "inputs": [
        {
          "components": [
            {
              "internalType": "uint256",
              "name": "characterId",
              "type": "uint256"
            },
            {
              "internalType": "string",
              "name": "contentUri",
              "type": "string"
            },
            {
              "internalType": "address",
              "name": "linkModule",
              "type": "address"
            },
            {
              "internalType": "bytes",
              "name": "linkModuleInitData",
              "type": "bytes"
            },
            {
              "internalType": "address",
              "name": "mintModule",
              "type": "address"
            },
            {
              "internalType": "bytes",
              "name": "mintModuleInitData",
              "type": "bytes"
            },
            {
              "internalType": "bool",
              "name": "locked",
              "type": "bool"
            }
          ],
          "internalType": "struct DataTypes.PostNoteData",
          "name": "postNoteData",
          "type": "tuple"
        },
        {
          "internalType": "string",
          "name": "uri",
          "type": "string"
        }
      ],
      "name": "postNote4AnyUri",
      "outputs": [
        {
          "internalType": "uint256",
          "name": "",
          "type": "uint256"
        }
      ],
      "stateMutability": "nonpayable",
      "type": "function"
    },
    {
      "inputs": [
        {
          "components": [
            {
              "internalType": "uint256",
              "name": "characterId",
              "type": "uint256"
            },
            {
              "internalType": "string",
              "name": "contentUri",
              "type": "string"
            },
            {
              "internalType": "address",
              "name": "linkModule",
              "type": "address"
            },
            {
              "internalType": "bytes",
              "name": "linkModuleInitData",
              "type": "bytes"
            },
            {
              "internalType": "address",
              "name": "mintModule",
              "type": "address"
            },
            {
              "internalType": "bytes",
              "name": "mintModuleInitData",
              "type": "bytes"
            },
            {
              "internalType": "bool",
              "name": "locked",
              "type": "bool"
            }
          ],
          "internalType": "struct DataTypes.PostNoteData",
          "name": "postNoteData",
          "type": "tuple"
        },
        {
          "internalType": "uint256",
          "name": "toCharacterId",
          "type": "uint256"
        }
      ],
      "name": "postNote4Character",
      "outputs": [
        {
          "internalType": "uint256",
          "name": "",
          "type": "uint256"
        }
      ],
      "stateMutability": "nonpayable",
      "type": "function"
    },
    {
      "inputs": [
        {
          "components": [
            {
              "internalType": "uint256",
              "name": "characterId",
              "type": "uint256"
            },
            {
              "internalType": "string",
              "name": "contentUri",
              "type": "string"
            },
            {
              "internalType": "address",
              "name": "linkModule",
              "type": "address"
            },
            {
              "internalType": "bytes",
              "name": "linkModuleInitData",
              "type": "bytes"
            },
            {
              "internalType": "address",
              "name": "mintModule",
              "type": "address"
            },
            {
              "internalType": "bytes",
              "name": "mintModuleInitData",
              "type": "bytes"
            },
            {
              "internalType": "bool",
              "name": "locked",
              "type": "bool"
            }
          ],
          "internalType": "struct DataTypes.PostNoteData",
          "name": "postNoteData",
          "type": "tuple"
        },
        {
          "components": [
            {
              "internalType": "address",
              "name": "tokenAddress",
              "type": "address"
            },
            {
              "internalType": "uint256",
              "name": "erc721TokenId",
              "type": "uint256"
            }
          ],
          "internalType": "struct DataTypes.ERC721Struct",
          "name": "erc721",
          "type": "tuple"
        }
      ],
      "name": "postNote4ERC721",
      "outputs": [
        {
          "internalType": "uint256",
          "name": "",
          "type": "uint256"
        }
      ],
      "stateMutability": "nonpayable",
      "type": "function"
    },
    {
      "inputs": [
        {
          "components": [
            {
              "internalType": "uint256",
              "name": "characterId",
              "type": "uint256"
            },
            {
              "internalType": "string",
              "name": "contentUri",
              "type": "string"
            },
            {
              "internalType": "address",
              "name": "linkModule",
              "type": "address"
            },
            {
              "internalType": "bytes",
              "name": "linkModuleInitData",
              "type": "bytes"
            },
            {
              "internalType": "address",
              "name": "mintModule",
              "type": "address"
            },
            {
              "internalType": "bytes",
              "name": "mintModuleInitData",
              "type": "bytes"
            },
            {
              "internalType": "bool",
              "name": "locked",
              "type": "bool"
            }
          ],
          "internalType": "struct DataTypes.PostNoteData",
          "name": "noteData",
          "type": "tuple"
        },
        {
          "internalType": "uint256",
          "name": "toLinklistId",
          "type": "uint256"
        }
      ],
      "name": "postNote4Linklist",
      "outputs": [
        {
          "internalType": "uint256",
          "name": "",
          "type": "uint256"
        }
      ],
      "stateMutability": "nonpayable",
      "type": "function"
    },
    {
      "inputs": [
        {
          "components": [
            {
              "internalType": "uint256",
              "name": "characterId",
              "type": "uint256"
            },
            {
              "internalType": "string",
              "name": "contentUri",
              "type": "string"
            },
            {
              "internalType": "address",
              "name": "linkModule",
              "type": "address"
            },
            {
              "internalType": "bytes",
              "name": "linkModuleInitData",
              "type": "bytes"
            },
            {
              "internalType": "address",
              "name": "mintModule",
              "type": "address"
            },
            {
              "internalType": "bytes",
              "name": "mintModuleInitData",
              "type": "bytes"
            },
            {
              "internalType": "bool",
              "name": "locked",
              "type": "bool"
            }
          ],
          "internalType": "struct DataTypes.PostNoteData",
          "name": "postNoteData",
          "type": "tuple"
        },
        {
          "components": [
            {
              "internalType": "uint256",
              "name": "characterId",
              "type": "uint256"
            },
            {
              "internalType": "uint256",
              "name": "noteId",
              "type": "uint256"
            }
          ],
          "internalType": "struct DataTypes.NoteStruct",
          "name": "note",
          "type": "tuple"
        }
      ],
      "name": "postNote4Note",
      "outputs": [
        {
          "internalType": "uint256",
          "name": "",
          "type": "uint256"
        }
      ],
      "stateMutability": "nonpayable",
      "type": "function"
    },
    {
      "inputs": [],
      "name": "resolver",
      "outputs": [
        {
          "internalType": "address",
          "name": "",
          "type": "address"
        }
      ],
      "stateMutability": "view",
      "type": "function"
    },
    {
      "inputs": [
        {
          "internalType": "uint256",
          "name": "characterId",
          "type": "uint256"
        },
        {
          "internalType": "uint256",
          "name": "noteId",
          "type": "uint256"
        },
        {
          "internalType": "address[]",
          "name": "blacklist",
          "type": "address[]"
        },
        {
          "internalType": "address[]",
          "name": "whitelist",
          "type": "address[]"
        }
      ],
      "name": "revokeOperators4Note",
      "outputs": [],
      "stateMutability": "nonpayable",
      "type": "function"
    },
    {
      "inputs": [
        {
          "internalType": "address",
          "name": "from",
          "type": "address"
        },
        {
          "internalType": "address",
          "name": "to",
          "type": "address"
        },
        {
          "internalType": "uint256",
          "name": "tokenId",
          "type": "uint256"
        }
      ],
      "name": "safeTransferFrom",
      "outputs": [],
      "stateMutability": "nonpayable",
      "type": "function"
    },
    {
      "inputs": [
        {
          "internalType": "address",
          "name": "from",
          "type": "address"
        },
        {
          "internalType": "address",
          "name": "to",
          "type": "address"
        },
        {
          "internalType": "uint256",
          "name": "tokenId",
          "type": "uint256"
        },
        {
          "internalType": "bytes",
          "name": "_data",
          "type": "bytes"
        }
      ],
      "name": "safeTransferFrom",
      "outputs": [],
      "stateMutability": "nonpayable",
      "type": "function"
    },
    {
      "inputs": [
        {
          "internalType": "address",
          "name": "operator",
          "type": "address"
        },
        {
          "internalType": "bool",
          "name": "approved",
          "type": "bool"
        }
      ],
      "name": "setApprovalForAll",
      "outputs": [],
      "stateMutability": "nonpayable",
      "type": "function"
    },
    {
      "inputs": [
        {
          "internalType": "uint256",
          "name": "characterId",
          "type": "uint256"
        },
        {
          "internalType": "string",
          "name": "newUri",
          "type": "string"
        }
      ],
      "name": "setCharacterUri",
      "outputs": [],
      "stateMutability": "nonpayable",
      "type": "function"
    },
    {
      "inputs": [
        {
          "internalType": "uint256",
          "name": "characterId",
          "type": "uint256"
        },
        {
          "internalType": "string",
          "name": "newHandle",
          "type": "string"
        }
      ],
      "name": "setHandle",
      "outputs": [],
      "stateMutability": "nonpayable",
      "type": "function"
    },
    {
      "inputs": [
        {
          "components": [
            {
              "internalType": "address",
              "name": "account",
              "type": "address"
            },
            {
              "internalType": "address",
              "name": "linkModule",
              "type": "address"
            },
            {
              "internalType": "bytes",
              "name": "linkModuleInitData",
              "type": "bytes"
            }
          ],
          "internalType": "struct DataTypes.setLinkModule4AddressData",
          "name": "vars",
          "type": "tuple"
        }
      ],
      "name": "setLinkModule4Address",
      "outputs": [],
      "stateMutability": "nonpayable",
      "type": "function"
    },
    {
      "inputs": [
        {
          "components": [
            {
              "internalType": "uint256",
              "name": "linklistId",
              "type": "uint256"
            },
            {
              "internalType": "address",
              "name": "linkModule",
              "type": "address"
            },
            {
              "internalType": "bytes",
              "name": "linkModuleInitData",
              "type": "bytes"
            }
          ],
          "internalType": "struct DataTypes.setLinkModule4LinklistData",
          "name": "vars",
          "type": "tuple"
        }
      ],
      "name": "setLinkModule4Linklist",
      "outputs": [],
      "stateMutability": "nonpayable",
      "type": "function"
    },
    {
      "inputs": [
        {
          "internalType": "uint256",
          "name": "linklistId",
          "type": "uint256"
        },
        {
          "internalType": "string",
          "name": "uri",
          "type": "string"
        }
      ],
      "name": "setLinklistUri",
      "outputs": [],
      "stateMutability": "nonpayable",
      "type": "function"
    },
    {
      "inputs": [
        {
          "components": [
            {
              "internalType": "uint256",
              "name": "characterId",
              "type": "uint256"
            },
            {
              "internalType": "uint256",
              "name": "noteId",
              "type": "uint256"
            },
            {
              "internalType": "address",
              "name": "mintModule",
              "type": "address"
            },
            {
              "internalType": "bytes",
              "name": "mintModuleInitData",
              "type": "bytes"
            }
          ],
          "internalType": "struct DataTypes.setMintModule4NoteData",
          "name": "vars",
          "type": "tuple"
        }
      ],
      "name": "setMintModule4Note",
      "outputs": [],
      "stateMutability": "nonpayable",
      "type": "function"
    },
    {
      "inputs": [
        {
          "internalType": "uint256",
          "name": "characterId",
          "type": "uint256"
        },
        {
          "internalType": "uint256",
          "name": "noteId",
          "type": "uint256"
        },
        {
          "internalType": "string",
          "name": "newUri",
          "type": "string"
        }
      ],
      "name": "setNoteUri",
      "outputs": [],
      "stateMutability": "nonpayable",
      "type": "function"
    },
    {
      "inputs": [
        {
          "internalType": "uint256",
          "name": "characterId",
          "type": "uint256"
        }
      ],
      "name": "setPrimaryCharacterId",
      "outputs": [],
      "stateMutability": "nonpayable",
      "type": "function"
    },
    {
      "inputs": [
        {
          "internalType": "uint256",
          "name": "characterId",
          "type": "uint256"
        },
        {
          "internalType": "address",
          "name": "tokenAddress",
          "type": "address"
        }
      ],
      "name": "setSocialToken",
      "outputs": [],
      "stateMutability": "nonpayable",
      "type": "function"
    },
    {
      "inputs": [
        {
          "internalType": "bytes4",
          "name": "interfaceId",
          "type": "bytes4"
        }
      ],
      "name": "supportsInterface",
      "outputs": [
        {
          "internalType": "bool",
          "name": "",
          "type": "bool"
        }
      ],
      "stateMutability": "view",
      "type": "function"
    },
    {
      "inputs": [],
      "name": "symbol",
      "outputs": [
        {
          "internalType": "string",
          "name": "",
          "type": "string"
        }
      ],
      "stateMutability": "view",
      "type": "function"
    },
    {
      "inputs": [
        {
          "internalType": "uint256",
          "name": "index",
          "type": "uint256"
        }
      ],
      "name": "tokenByIndex",
      "outputs": [
        {
          "internalType": "uint256",
          "name": "",
          "type": "uint256"
        }
      ],
      "stateMutability": "view",
      "type": "function"
    },
    {
      "inputs": [
        {
          "internalType": "address",
          "name": "owner",
          "type": "address"
        },
        {
          "internalType": "uint256",
          "name": "index",
          "type": "uint256"
        }
      ],
      "name": "tokenOfOwnerByIndex",
      "outputs": [
        {
          "internalType": "uint256",
          "name": "",
          "type": "uint256"
        }
      ],
      "stateMutability": "view",
      "type": "function"
    },
    {
      "inputs": [
        {
          "internalType": "uint256",
          "name": "characterId",
          "type": "uint256"
        }
      ],
      "name": "tokenURI",
      "outputs": [
        {
          "internalType": "string",
          "name": "",
          "type": "string"
        }
      ],
      "stateMutability": "view",
      "type": "function"
    },
    {
      "inputs": [],
      "name": "totalSupply",
      "outputs": [
        {
          "internalType": "uint256",
          "name": "",
          "type": "uint256"
        }
      ],
      "stateMutability": "view",
      "type": "function"
    },
    {
      "inputs": [
        {
          "internalType": "address",
          "name": "from",
          "type": "address"
        },
        {
          "internalType": "address",
          "name": "to",
          "type": "address"
        },
        {
          "internalType": "uint256",
          "name": "tokenId",
          "type": "uint256"
        }
      ],
      "name": "transferFrom",
      "outputs": [],
      "stateMutability": "nonpayable",
      "type": "function"
    },
    {
      "inputs": [
        {
          "components": [
            {
              "internalType": "uint256",
              "name": "fromCharacterId",
              "type": "uint256"
            },
            {
              "internalType": "address",
              "name": "ethAddress",
              "type": "address"
            },
            {
              "internalType": "bytes32",
              "name": "linkType",
              "type": "bytes32"
            }
          ],
          "internalType": "struct DataTypes.unlinkAddressData",
          "name": "vars",
          "type": "tuple"
        }
      ],
      "name": "unlinkAddress",
      "outputs": [],
      "stateMutability": "nonpayable",
      "type": "function"
    },
    {
      "inputs": [
        {
          "components": [
            {
              "internalType": "uint256",
              "name": "fromCharacterId",
              "type": "uint256"
            },
            {
              "internalType": "string",
              "name": "toUri",
              "type": "string"
            },
            {
              "internalType": "bytes32",
              "name": "linkType",
              "type": "bytes32"
            }
          ],
          "internalType": "struct DataTypes.unlinkAnyUriData",
          "name": "vars",
          "type": "tuple"
        }
      ],
      "name": "unlinkAnyUri",
      "outputs": [],
      "stateMutability": "nonpayable",
      "type": "function"
    },
    {
      "inputs": [
        {
          "components": [
            {
              "internalType": "uint256",
              "name": "fromCharacterId",
              "type": "uint256"
            },
            {
              "internalType": "uint256",
              "name": "toCharacterId",
              "type": "uint256"
            },
            {
              "internalType": "bytes32",
              "name": "linkType",
              "type": "bytes32"
            }
          ],
          "internalType": "struct DataTypes.unlinkCharacterData",
          "name": "vars",
          "type": "tuple"
        }
      ],
      "name": "unlinkCharacter",
      "outputs": [],
      "stateMutability": "nonpayable",
      "type": "function"
    },
    {
      "inputs": [
        {
          "components": [
            {
              "internalType": "uint256",
              "name": "fromCharacterId",
              "type": "uint256"
            },
            {
              "internalType": "address",
              "name": "tokenAddress",
              "type": "address"
            },
            {
              "internalType": "uint256",
              "name": "tokenId",
              "type": "uint256"
            },
            {
              "internalType": "bytes32",
              "name": "linkType",
              "type": "bytes32"
            }
          ],
          "internalType": "struct DataTypes.unlinkERC721Data",
          "name": "vars",
          "type": "tuple"
        }
      ],
      "name": "unlinkERC721",
      "outputs": [],
      "stateMutability": "nonpayable",
      "type": "function"
    },
    {
      "inputs": [
        {
          "components": [
            {
              "internalType": "uint256",
              "name": "fromCharacterId",
              "type": "uint256"
            },
            {
              "internalType": "uint256",
              "name": "toLinkListId",
              "type": "uint256"
            },
            {
              "internalType": "bytes32",
              "name": "linkType",
              "type": "bytes32"
            }
          ],
          "internalType": "struct DataTypes.unlinkLinklistData",
          "name": "vars",
          "type": "tuple"
        }
      ],
      "name": "unlinkLinklist",
      "outputs": [],
      "stateMutability": "nonpayable",
      "type": "function"
    },
    {
      "inputs": [
        {
          "components": [
            {
              "internalType": "uint256",
              "name": "fromCharacterId",
              "type": "uint256"
            },
            {
              "internalType": "uint256",
              "name": "toCharacterId",
              "type": "uint256"
            },
            {
              "internalType": "uint256",
              "name": "toNoteId",
              "type": "uint256"
            },
            {
              "internalType": "bytes32",
              "name": "linkType",
              "type": "bytes32"
            }
          ],
          "internalType": "struct DataTypes.unlinkNoteData",
          "name": "vars",
          "type": "tuple"
        }
      ],
      "name": "unlinkNote",
      "outputs": [],
      "stateMutability": "nonpayable",
      "type": "function"
    }
  ],
  "bytecode": "0x608060405234801561001057600080fd5b50615fc180620000216000396000f3fe608060405234801561001057600080fd5b50600436106104495760003560e01c806374f345cf11610241578063c2a6fe3b1161013b578063dc17b6de116100c3578063ef0828ab11610087578063ef0828ab14610a82578063f2ad807514610a95578063f316bacd14610aa8578063f6479d7714610abb578063fe9299fb14610ace57600080fd5b8063dc17b6de146109fa578063dca2713514610a0d578063e56f2fe414610a20578063e985e9c514610a33578063ec81d19414610a6f57600080fd5b8063cd69fe611161010a578063cd69fe6114610976578063d23b320b14610989578063d70e10c61461099c578063dabb0531146109c7578063db491e80146109da57600080fd5b8063c2a6fe3b1461092a578063c6fc354e1461093d578063c87b56dd14610950578063cb8e757e1461096357600080fd5b80639864c307116101c9578063a7ccb4bf1161018d578063a7ccb4bf146108cd578063af90b112146108e0578063b88d4fde146108f3578063b9d3284514610906578063c053f6b81461091957600080fd5b80639864c307146108615780639a4dec18146108745780639a50248d14610887578063a22cb465146108a7578063a6e6178d146108ba57600080fd5b806392f7070b1161021057806392f7070b146107ea57806393f057e5146107fd578063952be0ef1461081057806395d89b411461084657806395d9fa7d1461084e57600080fd5b806374f345cf1461079e578063867884e6146107b15780638734bbfc146107c45780638b4ca06a146107d757600080fd5b80632f745c591161035257806347f94de7116102da578063601b3dee1161029e578063601b3dee14610732578063628b644a146107455780636352211e146107585780636bf55d5f1461076b57806370a082311461078b57600080fd5b806347f94de7146106c557806349186953146106d85780634f6ccce7146106f95780635a936d101461070c5780635fb881831461071f57600080fd5b8063388f508311610321578063388f50831461066657806340ad34d81461067957806342842e0e1461068c57806342966c681461069f57806344b82a24146106b257600080fd5b80632f745c591461060157806331b9d08c14610614578063327b2a031461064057806333f06ee61461065357600080fd5b80631316529d116103d5578063206657f2116103a4578063206657f2146105695780632209d1451461057c57806323b872dd146105b257806329c301c2146105c55780632abc6bf6146105d857600080fd5b80631316529d1461052a578063144a3e831461053b57806318160ddd1461054e578063188b04b31461055657600080fd5b806308cb68ff1161041c57806308cb68ff146104c9578063095ea7b3146104de578063097c8f0a146104f15780630c4dd5f2146105045780630ff982441461051757600080fd5b806301ffc9a71461044e57806304f3bcec1461047657806306fdde03146104a1578063081812fc146104b6575b600080fd5b61046161045c36600461480c565b610af7565b60405190151581526020015b60405180910390f35b601754610489906001600160a01b031681565b6040516001600160a01b03909116815260200161046d565b6104a9610b22565b60405161046d9190614881565b6104896104c4366004614894565b610bb4565b6104dc6104d73660046148c5565b610c4e565b005b6104dc6104ec36600461491e565b610ce7565b6104dc6104ff36600461498e565b610dfd565b6104dc6105123660046148c5565b610fb3565b6104dc6105253660046149e2565b6110bd565b60045b60405190815260200161046d565b6104a9610549366004614894565b6111be565b60085461052d565b6104dc610564366004614a10565b6111c9565b6104dc610577366004614a44565b6112c8565b61048961058a36600461491e565b6001600160a01b03918216600090815260106020908152604080832093835292905220541690565b6104dc6105c0366004614a7c565b611360565b61052d6105d3366004614abe565b611391565b61052d6105e6366004614af2565b6001600160a01b03166000908152600c602052604090205490565b61052d61060f36600461491e565b61143f565b610489610622366004614af2565b6001600160a01b039081166000908152601160205260409020541690565b61052d61064e366004614b21565b6114d5565b6104dc610661366004614ba7565b61169a565b6104dc610674366004614a10565b611781565b6104dc610687366004614be5565b6117d6565b6104dc61069a366004614a7c565b611852565b6104dc6106ad366004614894565b61186d565b61052d6106c0366004614c01565b61190a565b6104dc6106d3366004614ba7565b611982565b6106eb6106e6366004614c45565b6119e9565b60405161046d929190614cab565b61052d610707366004614894565b611a42565b6104dc61071a3660046149e2565b611ad5565b6104dc61072d366004614a10565b611b67565b610461610740366004614cd9565b611bbc565b6104dc610753366004614d12565b611bd3565b610489610766366004614894565b611c56565b61077e610779366004614894565b611ccd565b60405161046d9190614d64565b61052d610799366004614af2565b611ce7565b6104dc6107ac366004614c45565b611d6e565b6104dc6107bf366004614be5565b611de8565b6104616107d2366004614894565b611e5a565b61052d6107e5366004614894565b611e88565b61052d6107f8366004614d77565b611ef4565b6104dc61080b3660046149e2565b611f8a565b61052d61081e366004614dc8565b60009182526019602090815260408084206001600160a01b0393909316845291905290205490565b6104a9611ffb565b6104dc61085c366004614dc8565b61200a565b6104dc61086f366004614a10565b612063565b61052d610882366004614b21565b6120b8565b61089a610895366004614ded565b6121c2565b60405161046d9190614e2e565b6104dc6108b5366004614eba565b612371565b6104dc6108c8366004614ba7565b61237c565b61052d6108db366004614a10565b6123c8565b61052d6108ee366004614c01565b61246c565b6104dc610901366004614fd1565b6124ac565b6104dc61091436600461504e565b6124de565b6013546001600160a01b0316610489565b6104dc610938366004614c45565b6125af565b6104dc61094b366004615082565b612621565b6104a961095e366004614894565b6126b2565b6104dc61097136600461504e565b612757565b6104dc61098436600461504e565b6127c9565b6104dc610997366004614a10565b6127dd565b61052d6109aa366004614c45565b6000918252600d6020908152604080842092845291905290205490565b61089a6109d5366004614894565b612859565b6109ed6109e8366004614c45565b6129e0565b60405161046d9190615104565b6104dc610a08366004615082565b612b41565b6104a9610a1b366004614894565b612b9a565b6104dc610a2e36600461519a565b612c0c565b610461610a41366004615254565b6001600160a01b03918216600090815260056020908152604080832093909416825291909152205460ff1690565b6104a9610a7d366004614894565b612dc1565b6104dc610a903660046148c5565b612de1565b6104dc610aa3366004614894565b612e52565b61052d610ab6366004615282565b612ea1565b6104dc610ac93660046149e2565b612fff565b610489610adc366004614894565b6000908152600f60205260409020546001600160a01b031690565b60006001600160e01b0319821663780e9d6360e01b1480610b1c5750610b1c82613045565b92915050565b606060008054610b31906152dd565b80601f0160208091040260200160405190810160405280929190818152602001828054610b5d906152dd565b8015610baa5780601f10610b7f57610100808354040283529160200191610baa565b820191906000526020600020905b815481529060010190602001808311610b8d57829003601f168201915b5050505050905090565b6000818152600260205260408120546001600160a01b0316610c325760405162461bcd60e51b815260206004820152602c60248201527f4552433732313a20617070726f76656420717565727920666f72206e6f6e657860448201526b34b9ba32b73a103a37b5b2b760a11b60648201526084015b60405180910390fd5b506000908152600460205260409020546001600160a01b031690565b73__$69db18565ecbefece480e92cc5f8fb1274$__63dfc34f25610c756020840184614af2565b610c856040850160208601614af2565b610c926040860186615312565b60116040518663ffffffff1660e01b8152600401610cb4959493929190615381565b60006040518083038186803b158015610ccc57600080fd5b505af4158015610ce0573d6000803e3d6000fd5b5050505050565b6000610cf282611c56565b9050806001600160a01b0316836001600160a01b03161415610d605760405162461bcd60e51b815260206004820152602160248201527f4552433732313a20617070726f76616c20746f2063757272656e74206f776e656044820152603960f91b6064820152608401610c29565b336001600160a01b0382161480610d7c5750610d7c8133610a41565b610dee5760405162461bcd60e51b815260206004820152603860248201527f4552433732313a20617070726f76652063616c6c6572206973206e6f74206f7760448201527f6e6572206e6f7220617070726f76656420666f7220616c6c00000000000000006064820152608401610c29565b610df88383613095565b505050565b3373da2423cea4f1047556e7a142f81a7ed50e93e16014610e4c5760405162461bcd60e51b815260206004820152600960248201526837b7363ca7bbb732b960b91b6044820152606401610c29565b60005b81811015610fad576000838383818110610e6b57610e6b6153c0565b9050602002013590506000610e7f82611c56565b90506000866001600160a01b0316826001600160a01b031614610ea657600160ec1b610eb3565b67100000000fffffff60b01b5b600084815260186020526040812091925090610ece90613103565b905060005b8151811015610f975773__$bfdcc7011a2e80c167e18378382b8de19c$__633f1816ce86848481518110610f0957610f096153c0565b60209081029190910101516040516001600160e01b031960e085901b16815260048101929092526001600160a01b0316602482015260448101869052601860648201526019608482015260a40160006040518083038186803b158015610f6e57600080fd5b505af4158015610f82573d6000803e3d6000fd5b5050505080610f90906153ec565b9050610ed3565b505050505080610fa6906153ec565b9050610e4f565b50505050565b6013546040516367880d6160e11b8152823560048201526000916001600160a01b03169063cf101ac290602401602060405180830381865afa158015610ffd573d6000803e3d6000fd5b505050506040513d601f19601f820116820180604052508101906110219190615407565b905061102e8160c1613110565b73__$69db18565ecbefece480e92cc5f8fb1274$__636252159e833561105a6040860160208701614af2565b6110676040870187615312565b600f6040518663ffffffff1660e01b8152600401611089959493929190615420565b60006040518083038186803b1580156110a157600080fd5b505af41580156110b5573d6000803e3d6000fd5b505050505050565b6110c9813560b2613110565b6040516331a9108f60e11b81528135600482015273__$e2c9a8f399964af47bb173600dd9e5f662$__90633019fadd9083903090636352211e90602401602060405180830381865afa158015611123573d6000803e3d6000fd5b505050506040513d601f19601f82011682018060405250810190611147919061544b565b60135485356000908152600d60209081526040808320818a0135845282529182902054825160e088901b6001600160e01b031916815286356004820152918601356024830152949091013560448201526001600160a01b0392831660648201529116608482015260a481019190915260c401610cb4565b6060610b1c826126b2565b6111d5813560b2613110565b6111e281602001356131c9565b73__$e2c9a8f399964af47bb173600dd9e5f662$__63957f8a988235602084013560408501356112156060870187615312565b6040516331a9108f60e11b8152883560048201523090636352211e90602401602060405180830381865afa158015611251573d6000803e3d6000fd5b505050506040513d601f19601f82011682018060405250810190611275919061544b565b6013546020808b01356000908152600a9091526040908190206005015490516001600160e01b031960e08b901b168152610cb4989796959493926001600160a01b03908116921690600d90600401615468565b6112d3836002613110565b604051631f8c0b6760e11b8152600481018490526001600160a01b038316602482015260448101829052601860648201526019608482015273__$bfdcc7011a2e80c167e18378382b8de19c$__90633f1816ce9060a4015b60006040518083038186803b15801561134357600080fd5b505af4158015611357573d6000803e3d6000fd5b50505050505050565b61136a3382613222565b6113865760405162461bcd60e51b8152600401610c29906154c2565b610df8838383613319565b600061139f823560ec613110565b81356000908152600a60205260408120600301805482906113bf906153ec565b91829055506040516342a34a5360e01b815290915073__$2873850e5b3f5697aafc2f5cd9f27cc884$__906342a34a539061140890869085906000908190600e9060040161561d565b60006040518083038186803b15801561142057600080fd5b505af4158015611434573d6000803e3d6000fd5b509295945050505050565b600061144a83611ce7565b82106114ac5760405162461bcd60e51b815260206004820152602b60248201527f455243373231456e756d657261626c653a206f776e657220696e646578206f7560448201526a74206f6620626f756e647360a81b6064820152608401610c29565b506001600160a01b03919091166000908152600660209081526040808320938352929052205490565b60006114e3833560ca613110565b6114fd6114f36020840184614af2565b83602001356134c0565b6013546545524337323160d01b906000906001600160a01b0316632ea24efc8261152a6020880188614af2565b6040516001600160e01b031960e085901b16815260048101929092526001600160a01b03166024820152602087013560448201526064016020604051808303816000875af1158015611580573d6000803e3d6000fd5b505050506040513d601f19601f820116820180604052508101906115a49190615407565b85356000908152600a602052604081206003018054929350909182906115c9906153ec565b9182905550905073__$2873850e5b3f5697aafc2f5cd9f27cc884$__6342a34a53878386866115fb60208c018c614af2565b8b6020013560405160200161162e92919060609290921b6bffffffffffffffffffffffff19168252601482015260340190565b604051602081830303815290604052600e6040518763ffffffff1660e01b815260040161166096959493929190615662565b60006040518083038186803b15801561167857600080fd5b505af415801561168c573d6000803e3d6000fd5b509298975050505050505050565b6013546040516367880d6160e11b8152600481018590526000916001600160a01b03169063cf101ac290602401602060405180830381865afa1580156116e4573d6000803e3d6000fd5b505050506040513d601f19601f820116820180604052508101906117089190615407565b90506117158160b1613110565b601354604051633c17845760e11b81526001600160a01b039091169063782f08ae90611749908790879087906004016156ad565b600060405180830381600087803b15801561176357600080fd5b505af1158015611777573d6000803e3d6000fd5b5050505050505050565b61178d813560b9613110565b60135460405163e4bb4f2360e01b815273__$e2c9a8f399964af47bb173600dd9e5f662$__9163e4bb4f2391610cb49185916001600160a01b0390911690600d906004016156c7565b6117e2813560b6613110565b60135460408051635cebf08d60e11b81528335600482015260208401356024820152908301356044820152606083013560648201526001600160a01b039091166084820152600d60a482015273__$e2c9a8f399964af47bb173600dd9e5f662$__9063b9d7e11a9060c401610cb4565b610df8838383604051806020016040528060008152506124ac565b6000818152600a6020526040808220905161188b9160010190615735565b60408051918290039091206000818152600b6020908152838220829055858252600a9052918220828155909250906118c660018301826146db565b6118d46002830160006146db565b50600060038201556004810180546001600160a01b031990811690915560059091018054909116905561190682613570565b5050565b6000611918833560c8613110565b82356000908152600a60205260408120600301805467131a5b9adb1a5cdd60c21b92859290918290611949906153ec565b919050819055905073__$2873850e5b3f5697aafc2f5cd9f27cc884$__6342a34a53878386868a60405160200161162e91815260200190565b61198d8360b0613110565b6000838152600a602052604090206119a9906002018383614715565b50827f17d7c9f69270ba135480ef16837f38b9d37d3ab291cbd3ba03982290c663199783836040516119dc9291906157d1565b60405180910390a2505050565b6000828152601a6020908152604080832084845290915290206060908190611a1090613103565b6000858152601a602090815260408083208784529091529020909250611a3890600201613103565b90505b9250929050565b6000611a4d60085490565b8210611ab05760405162461bcd60e51b815260206004820152602c60248201527f455243373231456e756d657261626c653a20676c6f62616c20696e646578206f60448201526b7574206f6620626f756e647360a01b6064820152608401610c29565b60088281548110611ac357611ac36153c0565b90600052602060002001549050919050565b611ae1813560be613110565b60135481356000818152600d60209081526040808320818701358085529083529281902054905163d862986560e01b8152600481019490945290850135602484015260448301919091526001600160a01b039092166064820152608481019190915273__$e2c9a8f399964af47bb173600dd9e5f662$__9063d86298659060a401610cb4565b611b73813560bb613110565b6013546040516332f107bf60e01b815273__$e2c9a8f399964af47bb173600dd9e5f662$__916332f107bf91610cb49185916001600160a01b0390911690600d906004016157e5565b6000611bc98484846135cf565b90505b9392505050565b611bdd8484613665565b611be78484613711565b6040516001626802bf60e01b0319815273__$2873850e5b3f5697aafc2f5cd9f27cc884$__9063ff97fd4190611c2a908790879087908790600e90600401615862565b60006040518083038186803b158015611c4257600080fd5b505af4158015611777573d6000803e3d6000fd5b6000818152600260205260408120546001600160a01b031680610b1c5760405162461bcd60e51b815260206004820152602960248201527f4552433732313a206f776e657220717565727920666f72206e6f6e657869737460448201526832b73a103a37b5b2b760b91b6064820152608401610c29565b6000818152601860205260409020606090610b1c90613103565b60006001600160a01b038216611d525760405162461bcd60e51b815260206004820152602a60248201527f4552433732313a2062616c616e636520717565727920666f7220746865207a65604482015269726f206164647265737360b01b6064820152608401610c29565b506001600160a01b031660009081526003602052604090205490565b611d798260c4613110565b611d838282613711565b6000828152600e60209081526040808320848452825291829020600501805460ff60a81b1916600160a81b179055905182815283917f036469f3e73c83520cdefa197d7a9c854c2f8bc0164b82e9f2bd4aa7e150fd3091015b60405180910390a25050565b611df4813560b8613110565b60135481356000908152600d6020908152604080832060608601358452909152908190205490516317e9a8b160e31b815273__$e2c9a8f399964af47bb173600dd9e5f662$__9263bf4d458892610cb49286926001600160a01b03169190600401615882565b600080611e6683611c56565b6001600160a01b03166000908152600c60205260409020549290921492915050565b60135460405162fba02760e01b8152600481018390526000916001600160a01b03169062fba02790602401602060405180830381865afa158015611ed0573d6000803e3d6000fd5b505050506040513d601f19601f82011682018060405250810190610b1c9190615407565b6000611f02833560c7613110565b82356000908152600a602052604081206003018054664164647265737360c81b926001600160a01b0386169290918290611f3b906153ec565b919050819055905073__$2873850e5b3f5697aafc2f5cd9f27cc884$__6342a34a53878386868a60405160200161162e919060609190911b6bffffffffffffffffffffffff1916815260140190565b611f96813560ba613110565b60135481356000908152600d6020908152604080832081860135845290915290819020549051633d7f9b3d60e11b815273__$e2c9a8f399964af47bb173600dd9e5f662$__92637aff367a92610cb49286926001600160a01b031691906004016158d4565b606060018054610b31906152dd565b612015826001613110565b6040516384b44a2f60e01b8152600481018390526001600160a01b0382166024820152600a604482015273__$d8529f0216812a2dec6b96adf1943c3537$__906384b44a2f90606401611089565b61206f813560bd613110565b601354604051635fe5df1d60e11b815273__$e2c9a8f399964af47bb173600dd9e5f662$__9163bfcbbe3a91610cb49185916001600160a01b0390911690600d9060040161591c565b60006120c6833560c9613110565b601354604051635cb46be760e01b81526000600482018190528435602483015260208501356044830152634e6f746560e01b9290916001600160a01b0390911690635cb46be7906064016020604051808303816000875af115801561212f573d6000803e3d6000fd5b505050506040513d601f19601f820116820180604052508101906121539190615407565b85356000908152600a60205260408120600301805492935090918290612178906153ec565b919050819055905073__$2873850e5b3f5697aafc2f5cd9f27cc884$__6342a34a53878386868a600001358b6020013560405160200161162e929190918252602082015260400190565b6121ca614799565b600083836040516121dc92919061597c565b604080519182900382206000818152600b602090815283822054808352600a82529184902060c0860190945283548552600184018054939650919493929084019190612227906152dd565b80601f0160208091040260200160405190810160405280929190818152602001828054612253906152dd565b80156122a05780601f10612275576101008083540402835291602001916122a0565b820191906000526020600020905b81548152906001019060200180831161228357829003601f168201915b505050505081526020016002820180546122b9906152dd565b80601f01602080910402602001604051908101604052809291908181526020018280546122e5906152dd565b80156123325780601f1061230757610100808354040283529160200191612332565b820191906000526020600020905b81548152906001019060200180831161231557829003601f168201915b50505091835250506003820154602082015260048201546001600160a01b03908116604083015260059092015490911660609091015295945050505050565b6119063383836137c6565b612387836000613110565b60405163130f361d60e01b815273__$d8529f0216812a2dec6b96adf1943c3537$__9063130f361d9061132b90869086908690600b90600a9060040161598c565b60006123d982356020840135613711565b73__$2873850e5b3f5697aafc2f5cd9f27cc884$__635be694158335602085013561240a6060870160408801614af2565b6124176060880188615312565b6014546040516001600160e01b031960e089901b16815261244f9695949392916001600160a01b031690600a90600e906004016159ba565b602060405180830381865af4158015611ed0573d6000803e3d6000fd5b600061247a833560c6613110565b82356000908152600a6020526040812060030180546821b430b930b1ba32b960b91b92859290918290611949906153ec565b6124b63383613222565b6124d25760405162461bcd60e51b8152600401610c29906154c2565b610fad84848484613895565b6124ea813560b5613110565b6124fc81602001358260400135613711565b6040516331a9108f60e11b81528135600482015273__$e2c9a8f399964af47bb173600dd9e5f662$__9063018212d19083903090636352211e90602401602060405180830381865afa158015612556573d6000803e3d6000fd5b505050506040513d601f19601f8201168201806040525081019061257a919061544b565b6013546040516001600160e01b031960e086901b168152610cb49392916001600160a01b031690600e90600d90600401615a08565b6125ba8260c5613110565b6125c48282613711565b6000828152600e60209081526040808320848452825291829020600501805460ff60a01b1916600160a01b179055905182815283917f4f1db9708b537c1d26a7af4b235fd079bf2342d92a276e27eb6c8717e8bbcf939101611ddc565b61262c866004613110565b6126368686613711565b604051633a88ee3960e21b815273__$bfdcc7011a2e80c167e18378382b8de19c$__9063ea23b8e49061267a90899089908990899089908990601a90600401615ac5565b60006040518083038186803b15801561269257600080fd5b505af41580156126a6573d6000803e3d6000fd5b50505050505050505050565b6000818152600a602052604090206002018054606091906126d2906152dd565b80601f01602080910402602001604051908101604052809291908181526020018280546126fe906152dd565b801561274b5780601f106127205761010080835404028352916020019161274b565b820191906000526020600020905b81548152906001019060200180831161272e57829003601f168201915b50505050509050919050565b612763813560b7613110565b6127806127766040830160208401614af2565b82604001356134c0565b601354604051638f3334ff60e01b815273__$e2c9a8f399964af47bb173600dd9e5f662$__91638f3334ff91610cb49185916001600160a01b0390911690600d90600401615b0d565b6127da6127d582615b70565b6138c8565b50565b6127e9813560c0613110565b6127f881356020830135613711565b73__$69db18565ecbefece480e92cc5f8fb1274$__6320828a02823560208401356128296060860160408701614af2565b6128366060870187615312565b600e6040518763ffffffff1660e01b8152600401610cb496959493929190615c23565b612861614799565b600a60008381526020019081526020016000206040518060c001604052908160008201548152602001600182018054612899906152dd565b80601f01602080910402602001604051908101604052809291908181526020018280546128c5906152dd565b80156129125780601f106128e757610100808354040283529160200191612912565b820191906000526020600020905b8154815290600101906020018083116128f557829003601f168201915b5050505050815260200160028201805461292b906152dd565b80601f0160208091040260200160405190810160405280929190818152602001828054612957906152dd565b80156129a45780601f10612979576101008083540402835291602001916129a4565b820191906000526020600020905b81548152906001019060200180831161298757829003601f168201915b50505091835250506003820154602082015260048201546001600160a01b03908116604083015260059092015490911660609091015292915050565b60408051610100808201835260008083526020808401829052606084860181905284018290526080840182905260a0840182905260c0840182905260e08401829052868252600e81528482208683528152908490208451928301855280548352600181015491830191909152600281018054939492939192840191612a64906152dd565b80601f0160208091040260200160405190810160405280929190818152602001828054612a90906152dd565b8015612add5780601f10612ab257610100808354040283529160200191612add565b820191906000526020600020905b815481529060010190602001808311612ac057829003601f168201915b505050918352505060038201546001600160a01b039081166020830152600483015481166040830152600590920154918216606082015260ff600160a01b8304811615156080830152600160a81b909204909116151560a090910152905092915050565b612b4c866003613110565b612b568686613711565b604051630afb883f60e41b815273__$bfdcc7011a2e80c167e18378382b8de19c$__9063afb883f09061267a90899089908990899089908990601a90600401615ac5565b601354604051632b05429560e21b8152600481018390526060916001600160a01b03169063ac150a5490602401600060405180830381865afa158015612be4573d6000803e3d6000fd5b505050506040513d6000823e601f3d908101601f19168201604052610b1c9190810190615c64565b601454600160a81b900460ff1615808015612c3457506014546001600160a01b90910460ff16105b80612c555750303b158015612c555750601454600160a01b900460ff166001145b612cb85760405162461bcd60e51b815260206004820152602e60248201527f496e697469616c697a61626c653a20636f6e747261637420697320616c72656160448201526d191e481a5b9a5d1a585b1a5e995960921b6064820152608401610c29565b6014805460ff60a01b1916600160a01b1790558015612ce5576014805460ff60a81b1916600160a81b1790555b612cf18989898961399d565b601380546001600160a01b03199081166001600160a01b0388811691909117909255601480548216878416179055601580548216868416179055601780549091169184169190911790556040514281527f400175a56dd3710794078f7b9dbe8296ac94c5a248dfd51bb22ed4ab9eaa9fbf9060200160405180910390a18015612db6576014805460ff60a81b19169055604051600181527f7f26b83ff96e1f2b6a682f133852f6798a09c465da95921460cefb38474024989060200160405180910390a15b505050505050505050565b6000818152600a602052604090206001018054606091906126d2906152dd565b612ded813560bc613110565b60135481356000908152600d602090815260408083208186013584529091529081902054905163bf5c00c160e01b815273__$e2c9a8f399964af47bb173600dd9e5f662$__9263bf5c00c192610cb49286926001600160a01b03169190600401615cd1565b612e5b816139ee565b336000818152600c602052604080822080549085905590519092839285927fce95332e6082aebeb8058a7b56d1a109f67d6550552ed04d36aca4a6acd4d7de9190a45050565b6000612eaf843560cb613110565b601354604051633610bf0960e11b815265416e7955726960d01b916000916001600160a01b0390911690636c217e1290612ef1908490899089906004016156ad565b6020604051808303816000875af1158015612f10573d6000803e3d6000fd5b505050506040513d601f19601f82011682018060405250810190612f349190615407565b86356000908152600a60205260408120600301805492935090918290612f59906153ec565b919050819055905073__$2873850e5b3f5697aafc2f5cd9f27cc884$__6342a34a53888386868b8b604051602001612f9292919061597c565b604051602081830303815290604052600e6040518763ffffffff1660e01b8152600401612fc496959493929190615662565b60006040518083038186803b158015612fdc57600080fd5b505af4158015612ff0573d6000803e3d6000fd5b50929998505050505050505050565b61300b813560b4613110565b6127da81356130206040840160208501614af2565b836040013560405180604001604052806002815260200161060f60f31b815250613a6f565b60006001600160e01b031982166380ac58cd60e01b148061307657506001600160e01b03198216635b5e139f60e01b145b80610b1c57506301ffc9a760e01b6001600160e01b0319831614610b1c565b600081815260046020526040902080546001600160a01b0319166001600160a01b03841690811790915581906130ca82611c56565b6001600160a01b03167f8c5be1e5ebec7d5bd14f71427d1e84f3dd0314c0f7b2291e5b200ac8c7c3b92560405160405180910390a45050565b60606000611bcc83613cec565b600061311b83611c56565b9050336001600160a01b038216141561313357505050565b326001600160a01b03821614801561315557506015546001600160a01b031633145b1561315f57505050565b6000838152601960209081526040808320338452909152902054600190831c8116141561318b57505050565b60405162461bcd60e51b81526020600482015260136024820152722737ba22b737bab3b42832b936b4b9b9b4b7b760691b6044820152606401610c29565b6000818152600260205260409020546001600160a01b03166127da5760405162461bcd60e51b81526020600482015260126024820152714368617261637465724e6f7445786973747360701b6044820152606401610c29565b6000818152600260205260408120546001600160a01b031661329b5760405162461bcd60e51b815260206004820152602c60248201527f4552433732313a206f70657261746f7220717565727920666f72206e6f6e657860448201526b34b9ba32b73a103a37b5b2b760a11b6064820152608401610c29565b60006132a683611c56565b9050806001600160a01b0316846001600160a01b031614806132e15750836001600160a01b03166132d684610bb4565b6001600160a01b0316145b8061331157506001600160a01b0380821660009081526005602090815260408083209388168352929052205460ff165b949350505050565b826001600160a01b031661332c82611c56565b6001600160a01b0316146133905760405162461bcd60e51b815260206004820152602560248201527f4552433732313a207472616e736665722066726f6d20696e636f72726563742060448201526437bbb732b960d91b6064820152608401610c29565b6001600160a01b0382166133f25760405162461bcd60e51b8152602060048201526024808201527f4552433732313a207472616e7366657220746f20746865207a65726f206164646044820152637265737360e01b6064820152608401610c29565b6133fd838383613d47565b613408600082613095565b6001600160a01b0383166000908152600360205260408120805460019290613431908490615d29565b90915550506001600160a01b038216600090815260036020526040812080546001929061345f908490615d40565b909155505060008181526002602052604080822080546001600160a01b0319166001600160a01b0386811691821790925591518493918716917fddf252ad1be2c89b69c2b068fc378daa952ba7f163c4a11628f55a4df523b3ef91a4505050565b6040516331a9108f60e11b8152600481018290526001600160a01b03831690636352211e90602401602060405180830381865afa158015613505573d6000803e3d6000fd5b505050506040513d601f19601f82011682018060405250810190613529919061544b565b6001600160a01b03166119065760405162461bcd60e51b815260206004820152600f60248201526e5245433732314e6f7445786973747360881b6044820152606401610c29565b61357a3382613222565b6135c65760405162461bcd60e51b815260206004820152601b60248201527f4e4654426173653a204e6f744f776e65724f72417070726f76656400000000006044820152606401610c29565b6127da81613e6b565b6000838152601a6020908152604080832085845290915281206135f29083613f12565b156135ff57506000611bcc565b6000848152601a6020908152604080832086845290915290206136259060020183613f12565b1561363257506001611bcc565b60008481526019602090815260408083206001600160a01b0386168452909152902054611bc99060c31c60019081161490565b600061367083611c56565b9050336001600160a01b038216141561368857505050565b326001600160a01b0382161480156136aa57506015546001600160a01b031633145b156136b457505050565b6136bf8383336135cf565b156136c957505050565b60405162461bcd60e51b815260206004820152601e60248201527f4e6f74456e6f7567685065726d697373696f6e466f72546869734e6f746500006044820152606401610c29565b6000828152600e60209081526040808320848452909152902060050154600160a01b900460ff16156137755760405162461bcd60e51b815260206004820152600d60248201526c139bdd19525cd1195b195d1959609a1b6044820152606401610c29565b6000828152600a60205260409020600301548111156119065760405162461bcd60e51b815260206004820152600d60248201526c4e6f74654e6f7445786973747360981b6044820152606401610c29565b816001600160a01b0316836001600160a01b031614156138285760405162461bcd60e51b815260206004820152601960248201527f4552433732313a20617070726f766520746f2063616c6c6572000000000000006044820152606401610c29565b6001600160a01b03838116600081815260056020908152604080832094871680845294825291829020805460ff191686151590811790915591519182527f17307eab39ab6107e8899845ad3d59bd9653f200f220920489ca2b5937696c31910160405180910390a3505050565b6138a0848484613319565b6138ac84848484613f34565b610fad5760405162461bcd60e51b8152600401610c2990615d58565b60006012600081546138d9906153ec565b918290555082519091506138ed9082614032565b604051632902741560e01b815273__$d8529f0216812a2dec6b96adf1943c3537$__9063290274159061392f9085906001908690600b90600a90600401615daa565b60006040518083038186803b15801561394757600080fd5b505af415801561395b573d6000803e3d6000fd5b505083516001600160a01b03166000908152600c60205260409020541515915061190690505790516001600160a01b03166000908152600c6020526040902055565b6139a98484848461404c565b7f414cd0b34676984f09a5f76ce9718d4062e50283abe0e7e274a9a5b4e0c99c3084848484426040516139e0959493929190615e53565b60405180910390a150505050565b60006139f982611c56565b9050336001600160a01b0382161480613a2f5750326001600160a01b038216148015613a2f57506015546001600160a01b031633145b6119065760405162461bcd60e51b81526020600482015260116024820152702737ba21b430b930b1ba32b927bbb732b960791b6044820152606401610c29565b6001600160a01b0383166000908152600c602052604090205415613aeb5760405162461bcd60e51b815260206004820152602d60248201527f546172676574206164647265737320616c726561647920686173207072696d6160448201526c393c9031b430b930b1ba32b91760991b6064820152608401610c29565b6000601260008154613afc906153ec565b91829055509050613b0d8482614032565b73__$d8529f0216812a2dec6b96adf1943c3537$__63290274156040518060a00160405280876001600160a01b03168152602001613b55886001600160a01b03166014614065565b815260200160405180602001604052806000815250815260200160006001600160a01b0316815260200160405180602001604052806000815250815250600084600b600a6040518663ffffffff1660e01b8152600401613bb9959493929190615daa565b60006040518083038186803b158015613bd157600080fd5b505af4158015613be5573d6000803e3d6000fd5b505050506001600160a01b0384166000908152600c602052604090819020829055516331a9108f60e11b81526004810186905273__$e2c9a8f399964af47bb173600dd9e5f662$__9063957f8a989087908490879087903090636352211e90602401602060405180830381865afa158015613c64573d6000803e3d6000fd5b505050506040513d601f19601f82011682018060405250810190613c88919061544b565b6013546040516001600160e01b031960e089901b168152613cc09695949392916001600160a01b031690600090600d90600401615e8d565b60006040518083038186803b158015613cd857600080fd5b505af4158015612db6573d6000803e3d6000fd5b60608160000180548060200260200160405190810160405280929190818152602001828054801561274b57602002820191906000526020600020905b815481526020019060010190808311613d285750505050509050919050565b6000818152601860205260408120613d5e90614200565b600083815260186020526040812091925090613d7990613103565b905060005b82811015613e2757600084815260196020526040812083518290859085908110613daa57613daa6153c0565b60200260200101516001600160a01b03166001600160a01b0316815260200190815260200160002081905550613e14828281518110613deb57613deb6153c0565b60200260200101516018600087815260200190815260200160002061420a90919063ffffffff16565b5080613e1f816153ec565b915050613d7e565b506001600160a01b0385166000908152600c602052604090205415613e60576001600160a01b0385166000908152600c60205260408120555b610ce085858561421f565b6000613e7682611c56565b9050613e8481600084613d47565b613e8f600083613095565b6001600160a01b0381166000908152600360205260408120805460019290613eb8908490615d29565b909155505060008281526002602052604080822080546001600160a01b0319169055518391906001600160a01b038416907fddf252ad1be2c89b69c2b068fc378daa952ba7f163c4a11628f55a4df523b3ef908390a45050565b6001600160a01b03811660009081526001830160205260408120541515611bcc565b60006001600160a01b0384163b1561402757604051630a85bd0160e11b81526001600160a01b0385169063150b7a0290613f78903390899088908890600401615ee5565b6020604051808303816000875af1925050508015613fb3575060408051601f3d908101601f19168201909252613fb091810190615f22565b60015b61400d573d808015613fe1576040519150601f19603f3d011682016040523d82523d6000602084013e613fe6565b606091505b5080516140055760405162461bcd60e51b8152600401610c2990615d58565b805181602001fd5b6001600160e01b031916630a85bd0160e11b149050613311565b506001949350505050565b6119068282604051806020016040528060008152506142d7565b61405860008585614715565b50610ce060018383614715565b60606000614074836002615f3f565b61407f906002615d40565b6001600160401b0381111561409657614096614ee6565b6040519080825280601f01601f1916602001820160405280156140c0576020820181803683370190505b509050600360fc1b816000815181106140db576140db6153c0565b60200101906001600160f81b031916908160001a905350600f60fb1b8160018151811061410a5761410a6153c0565b60200101906001600160f81b031916908160001a905350600061412e846002615f3f565b614139906001615d40565b90505b60018111156141b1576f181899199a1a9b1b9c1cb0b131b232b360811b85600f166010811061416d5761416d6153c0565b1a60f81b828281518110614183576141836153c0565b60200101906001600160f81b031916908160001a90535060049490941c936141aa81615f5e565b905061413c565b508315611bcc5760405162461bcd60e51b815260206004820181905260248201527f537472696e67733a20686578206c656e67746820696e73756666696369656e746044820152606401610c29565b6000610b1c825490565b6000611bcc836001600160a01b03841661430a565b6001600160a01b03831661427a5761427581600880546000838152600960205260408120829055600182018355919091527ff3f7a9fe364faab93b216da50a3214154f22a0a2b415b23a84c8169e8b636ee30155565b61429d565b816001600160a01b0316836001600160a01b03161461429d5761429d83826143fd565b6001600160a01b0382166142b457610df88161449a565b826001600160a01b0316826001600160a01b031614610df857610df88282614549565b6142e1838361458d565b6142ee6000848484613f34565b610df85760405162461bcd60e51b8152600401610c2990615d58565b600081815260018301602052604081205480156143f357600061432e600183615d29565b855490915060009061434290600190615d29565b90508181146143a7576000866000018281548110614362576143626153c0565b9060005260206000200154905080876000018481548110614385576143856153c0565b6000918252602080832090910192909255918252600188019052604090208390555b85548690806143b8576143b8615f75565b600190038181906000526020600020016000905590558560010160008681526020019081526020016000206000905560019350505050610b1c565b6000915050610b1c565b6000600161440a84611ce7565b6144149190615d29565b600083815260076020526040902054909150808214614467576001600160a01b03841660009081526006602090815260408083208584528252808320548484528184208190558352600790915290208190555b5060009182526007602090815260408084208490556001600160a01b039094168352600681528383209183525290812055565b6008546000906144ac90600190615d29565b600083815260096020526040812054600880549394509092849081106144d4576144d46153c0565b9060005260206000200154905080600883815481106144f5576144f56153c0565b600091825260208083209091019290925582815260099091526040808220849055858252812055600880548061452d5761452d615f75565b6001900381819060005260206000200160009055905550505050565b600061455483611ce7565b6001600160a01b039093166000908152600660209081526040808320868452825280832085905593825260079052919091209190915550565b6001600160a01b0382166145e35760405162461bcd60e51b815260206004820181905260248201527f4552433732313a206d696e7420746f20746865207a65726f20616464726573736044820152606401610c29565b6000818152600260205260409020546001600160a01b0316156146485760405162461bcd60e51b815260206004820152601c60248201527f4552433732313a20746f6b656e20616c7265616479206d696e746564000000006044820152606401610c29565b61465460008383613d47565b6001600160a01b038216600090815260036020526040812080546001929061467d908490615d40565b909155505060008181526002602052604080822080546001600160a01b0319166001600160a01b03861690811790915590518392907fddf252ad1be2c89b69c2b068fc378daa952ba7f163c4a11628f55a4df523b3ef908290a45050565b5080546146e7906152dd565b6000825580601f106146f7575050565b601f0160209004906000526020600020908101906127da91906147e1565b828054614721906152dd565b90600052602060002090601f0160209004810192826147435760008555614789565b82601f1061475c5782800160ff19823516178555614789565b82800160010185558215614789579182015b8281111561478957823582559160200191906001019061476e565b506147959291506147e1565b5090565b6040518060c001604052806000815260200160608152602001606081526020016000815260200160006001600160a01b0316815260200160006001600160a01b031681525090565b5b8082111561479557600081556001016147e2565b6001600160e01b0319811681146127da57600080fd5b60006020828403121561481e57600080fd5b8135611bcc816147f6565b60005b8381101561484457818101518382015260200161482c565b83811115610fad5750506000910152565b6000815180845261486d816020860160208601614829565b601f01601f19169290920160200192915050565b602081526000611bcc6020830184614855565b6000602082840312156148a657600080fd5b5035919050565b6000606082840312156148bf57600080fd5b50919050565b6000602082840312156148d757600080fd5b81356001600160401b038111156148ed57600080fd5b613311848285016148ad565b6001600160a01b03811681146127da57600080fd5b8035614919816148f9565b919050565b6000806040838503121561493157600080fd5b823561493c816148f9565b946020939093013593505050565b60008083601f84011261495c57600080fd5b5081356001600160401b0381111561497357600080fd5b6020830191508360208260051b8501011115611a3b57600080fd5b6000806000604084860312156149a357600080fd5b83356149ae816148f9565b925060208401356001600160401b038111156149c957600080fd5b6149d58682870161494a565b9497909650939450505050565b6000606082840312156149f457600080fd5b611bcc83836148ad565b6000608082840312156148bf57600080fd5b600060208284031215614a2257600080fd5b81356001600160401b03811115614a3857600080fd5b613311848285016149fe565b600080600060608486031215614a5957600080fd5b833592506020840135614a6b816148f9565b929592945050506040919091013590565b600080600060608486031215614a9157600080fd5b8335614a9c816148f9565b92506020840135614a6b816148f9565b600060e082840312156148bf57600080fd5b600060208284031215614ad057600080fd5b81356001600160401b03811115614ae657600080fd5b61331184828501614aac565b600060208284031215614b0457600080fd5b8135611bcc816148f9565b6000604082840312156148bf57600080fd5b60008060608385031215614b3457600080fd5b82356001600160401b03811115614b4a57600080fd5b614b5685828601614aac565b925050611a388460208501614b0f565b60008083601f840112614b7857600080fd5b5081356001600160401b03811115614b8f57600080fd5b602083019150836020828501011115611a3b57600080fd5b600080600060408486031215614bbc57600080fd5b8335925060208401356001600160401b03811115614bd957600080fd5b6149d586828701614b66565b600060808284031215614bf757600080fd5b611bcc83836149fe565b60008060408385031215614c1457600080fd5b82356001600160401b03811115614c2a57600080fd5b614c3685828601614aac565b95602094909401359450505050565b60008060408385031215614c5857600080fd5b50508035926020909101359150565b600081518084526020808501945080840160005b83811015614ca05781516001600160a01b031687529582019590820190600101614c7b565b509495945050505050565b604081526000614cbe6040830185614c67565b8281036020840152614cd08185614c67565b95945050505050565b600080600060608486031215614cee57600080fd5b83359250602084013591506040840135614d07816148f9565b809150509250925092565b60008060008060608587031215614d2857600080fd5b843593506020850135925060408501356001600160401b03811115614d4c57600080fd5b614d5887828801614b66565b95989497509550505050565b602081526000611bcc6020830184614c67565b60008060408385031215614d8a57600080fd5b82356001600160401b03811115614da057600080fd5b614dac85828601614aac565b9250506020830135614dbd816148f9565b809150509250929050565b60008060408385031215614ddb57600080fd5b823591506020830135614dbd816148f9565b60008060208385031215614e0057600080fd5b82356001600160401b03811115614e1657600080fd5b614e2285828601614b66565b90969095509350505050565b60208152815160208201526000602083015160c06040840152614e5460e0840182614855565b90506040840151601f19848303016060850152614e718282614855565b91505060608401516080840152608084015160018060a01b0380821660a08601528060a08701511660c086015250508091505092915050565b8035801515811461491957600080fd5b60008060408385031215614ecd57600080fd5b8235614ed8816148f9565b9150611a3860208401614eaa565b634e487b7160e01b600052604160045260246000fd5b60405160a081016001600160401b0381118282101715614f1e57614f1e614ee6565b60405290565b604051601f8201601f191681016001600160401b0381118282101715614f4c57614f4c614ee6565b604052919050565b60006001600160401b03821115614f6d57614f6d614ee6565b50601f01601f191660200190565b600082601f830112614f8c57600080fd5b8135614f9f614f9a82614f54565b614f24565b818152846020838601011115614fb457600080fd5b816020850160208301376000918101602001919091529392505050565b60008060008060808587031215614fe757600080fd5b8435614ff2816148f9565b93506020850135615002816148f9565b92506040850135915060608501356001600160401b0381111561502457600080fd5b61503087828801614f7b565b91505092959194509250565b600060a082840312156148bf57600080fd5b60006020828403121561506057600080fd5b81356001600160401b0381111561507657600080fd5b6133118482850161503c565b6000806000806000806080878903121561509b57600080fd5b863595506020870135945060408701356001600160401b03808211156150c057600080fd5b6150cc8a838b0161494a565b909650945060608901359150808211156150e557600080fd5b506150f289828a0161494a565b979a9699509497509295939492505050565b60208152815160208201526020820151604082015260006040830151610100806060850152615137610120850183614855565b9150606085015160018060a01b0380821660808701528060808801511660a0870152505060a085015161517560c08601826001600160a01b03169052565b5060c085015180151560e08601525060e0850151801515858301525090949350505050565b60008060008060008060008060c0898b0312156151b657600080fd5b88356001600160401b03808211156151cd57600080fd5b6151d98c838d01614b66565b909a50985060208b01359150808211156151f257600080fd5b506151ff8b828c01614b66565b9097509550506040890135615213816148f9565b93506060890135615223816148f9565b92506080890135615233816148f9565b915060a0890135615243816148f9565b809150509295985092959890939650565b6000806040838503121561526757600080fd5b8235615272816148f9565b91506020830135614dbd816148f9565b60008060006040848603121561529757600080fd5b83356001600160401b03808211156152ae57600080fd5b6152ba87838801614aac565b945060208601359150808211156152d057600080fd5b506149d586828701614b66565b600181811c908216806152f157607f821691505b602082108114156148bf57634e487b7160e01b600052602260045260246000fd5b6000808335601e1984360301811261532957600080fd5b8301803591506001600160401b0382111561534357600080fd5b602001915036819003821315611a3b57600080fd5b81835281816020850137506000828201602090810191909152601f909101601f19169091010190565b6001600160a01b038681168252851660208201526080604082018190526000906153ae9083018587615358565b90508260608301529695505050505050565b634e487b7160e01b600052603260045260246000fd5b634e487b7160e01b600052601160045260246000fd5b6000600019821415615400576154006153d6565b5060010190565b60006020828403121561541957600080fd5b5051919050565b8581526001600160a01b03851660208201526080604082018190526000906153ae9083018587615358565b60006020828403121561545d57600080fd5b8151611bcc816148f9565b60006101008b83528a602084015289604084015280606084015261548f818401898b615358565b6001600160a01b03978816608085015295871660a084015250509190931660c082015260e0019190915295945050505050565b60208082526031908201527f4552433732313a207472616e736665722063616c6c6572206973206e6f74206f6040820152701ddb995c881b9bdc88185c1c1c9bdd9959607a1b606082015260800190565b6000808335601e1984360301811261552a57600080fd5b83016020810192503590506001600160401b0381111561554957600080fd5b803603831315611a3b57600080fd5b80358252600061556b6020830183615513565b60e0602086015261558060e086018284615358565b9150506040830135615591816148f9565b6001600160a01b0381811660408701526155ae6060860186615513565b925086840360608801526155c3848483615358565b935050608085013591506155d6826148f9565b1660808501526155e960a0840184615513565b85830360a08701526155fc838284615358565b9250505061560c60c08401614eaa565b151560c08501528091505092915050565b60c08152600061563060c0830188615558565b602083810197909752604083019590955250606081019290925281830360808301526000835260a09091015201919050565b60c08152600061567560c0830189615558565b87602084015286604084015285606084015282810360808401526156998186614855565b9150508260a0830152979650505050505050565b838152604060208201526000614cd0604083018486615358565b6060815283356060820152600060208501356156e2816148f9565b6001600160a01b038181166080850152604087013560a08501526157096060880188615513565b9250608060c086015261572060e086018483615358565b96909116602085015250505060400152919050565b600080835481600182811c91508083168061575157607f831692505b602080841082141561577157634e487b7160e01b86526022600452602486fd5b8180156157855760018114615796576157c3565b60ff198616895284890196506157c3565b60008a81526020902060005b868110156157bb5781548b8201529085019083016157a2565b505084890196505b509498975050505050505050565b602081526000611bc9602083018486615358565b606081528335606082015260006157ff6020860186615513565b60808085015261581360e085018284615358565b915050604086013560a084015261582d6060870187615513565b848303605f190160c0860152615844838284615358565b6001600160a01b039790971660208601525050505060400152919050565b8581528460208201526080604082015260006153ae608083018587615358565b8335815260c081016020850135615898816148f9565b6001600160a01b039081166020840152604086810135908401526060958601359583019590955292909316608084015260a09092019190915290565b8335815260a0810160208501356158ea816148f9565b6001600160a01b0390811660208401526040958601359583019590955292909316606084015260809092019190915290565b606081528335606082015260208401356080820152604084013560a0820152600061594a6060860186615513565b608060c085015261595f60e085018284615358565b6001600160a01b0396909616602085015250505060400152919050565b8183823760009101908152919050565b8581526080602082015260006159a6608083018688615358565b604083019490945250606001529392505050565b888152876020820152600060018060a01b03808916604084015260e060608401526159e960e08401888a615358565b951660808301525060a081019290925260c09091015295945050505050565b60a08152853560a0820152602086013560c0820152604086013560e082015260608601356101008201526000615a416080880188615513565b60a0610120850152615a5861014085018284615358565b6001600160a01b0398891660208601529690971660408401525050606081019290925260809091015292915050565b8183526000602080850194508260005b85811015614ca0578135615aaa816148f9565b6001600160a01b031687529582019590820190600101615a97565b87815286602082015260a060408201526000615ae560a083018789615a87565b8281036060840152615af8818688615a87565b91505082608083015298975050505050505050565b606081528335606082015260006020850135615b28816148f9565b60018060a01b038082166080850152604087013560a0850152606087013560c0850152615b586080880188615513565b925060a060e086015261572061010086018483615358565b600060a08236031215615b8257600080fd5b615b8a614efc565b615b938361490e565b815260208301356001600160401b0380821115615baf57600080fd5b615bbb36838701614f7b565b60208401526040850135915080821115615bd457600080fd5b615be036838701614f7b565b6040840152615bf16060860161490e565b60608401526080850135915080821115615c0a57600080fd5b50615c1736828601614f7b565b60808301525092915050565b86815285602082015260018060a01b038516604082015260a060608201526000615c5160a083018587615358565b9050826080830152979650505050505050565b600060208284031215615c7657600080fd5b81516001600160401b03811115615c8c57600080fd5b8201601f81018413615c9d57600080fd5b8051615cab614f9a82614f54565b818152856020838501011115615cc057600080fd5b614cd0826020830160208601614829565b60608152833560608201526000615ceb6020860186615513565b60606080850152615d0060c085018284615358565b60409788013560a08601526001600160a01b039690961660208501525050509092019190915290565b600082821015615d3b57615d3b6153d6565b500390565b60008219821115615d5357615d536153d6565b500190565b60208082526032908201527f4552433732313a207472616e7366657220746f206e6f6e20455243373231526560408201527131b2b4bb32b91034b6b83632b6b2b73a32b960711b606082015260800190565b60a08152600060018060a01b038088511660a0840152602088015160a060c0850152615dda610140850182614855565b90506040890151609f19808684030160e0870152615df88383614855565b92508360608c01511661010087015260808b0151935080868403016101208701525050615e258183614855565b92505050615e37602083018715159052565b8460408301528360608301528260808301529695505050505050565b606081526000615e67606083018789615358565b8281036020840152615e7a818688615358565b9150508260408301529695505050505050565b60006101008a8352896020840152886040840152806060840152615eb381840189614855565b6001600160a01b03978816608085015295871660a084015250509190931660c082015260e00191909152949350505050565b6001600160a01b0385811682528416602082015260408101839052608060608201819052600090615f1890830184614855565b9695505050505050565b600060208284031215615f3457600080fd5b8151611bcc816147f6565b6000816000190483118215151615615f5957615f596153d6565b500290565b600081615f6d57615f6d6153d6565b506000190190565b634e487b7160e01b600052603160045260246000fdfea26469706673582212207bb5182886c6b551ea6d2b67e2023546231e5c00324b5abca5192dd91486bbfe64736f6c634300080a0033",
  "linkReferences": {
    "contracts/libraries/CharacterLogic.sol": {
      "CharacterLogic": [
        {
          "length": 20,
          "start": 8290
        },
        {
          "length": 20,
          "start": 9143
        },
        {
          "length": 20,
          "start": 14621
        },
        {
          "length": 20,
          "start": 15152
        }
      ]
    },
    "contracts/libraries/LinkLogic.sol": {
      "LinkLogic": [
        {
          "length": 20,
          "start": 4352
        },
        {
          "length": 20,
          "start": 4613
        },
        {
          "length": 20,
          "start": 6080
        },
        {
          "length": 20,
          "start": 6225
        },
        {
          "length": 20,
          "start": 7014
        },
        {
          "length": 20,
          "start": 7078
        },
        {
          "length": 20,
          "start": 7752
        },
        {
          "length": 20,
          "start": 8169
        },
        {
          "length": 20,
          "start": 8354
        },
        {
          "length": 20,
          "start": 9523
        },
        {
          "length": 20,
          "start": 10163
        },
        {
          "length": 20,
          "start": 11840
        },
        {
          "length": 20,
          "start": 15419
        }
      ]
    },
    "contracts/libraries/LinkModuleLogic.sol": {
      "LinkModuleLogic": [
        {
          "length": 20,
          "start": 3185
        },
        {
          "length": 20,
          "start": 4177
        },
        {
          "length": 20,
          "start": 10267
        }
      ]
    },
    "contracts/libraries/OperatorLogic.sol": {
      "OperatorLogic": [
        {
          "length": 20,
          "start": 3839
        },
        {
          "length": 20,
          "start": 4910
        },
        {
          "length": 20,
          "start": 9830
        },
        {
          "length": 20,
          "start": 11142
        }
      ]
    },
    "contracts/libraries/PostLogic.sol": {
      "PostLogic": [
        {
          "length": 20,
          "start": 5111
        },
        {
          "length": 20,
          "start": 5619
        },
        {
          "length": 20,
          "start": 6516
        },
        {
          "length": 20,
          "start": 7194
        },
        {
          "length": 20,
          "start": 8038
        },
        {
          "length": 20,
          "start": 8611
        },
        {
          "length": 20,
          "start": 9212
        },
        {
          "length": 20,
          "start": 12164
        }
      ]
    }
  },
  "deployedLinkReferences": {
    "contracts/libraries/CharacterLogic.sol": {
      "CharacterLogic": [
        {
          "length": 20,
          "start": 8257
        },
        {
          "length": 20,
          "start": 9110
        },
        {
          "length": 20,
          "start": 14588
        },
        {
          "length": 20,
          "start": 15119
        }
      ]
    },
    "contracts/libraries/LinkLogic.sol": {
      "LinkLogic": [
        {
          "length": 20,
          "start": 4319
        },
        {
          "length": 20,
          "start": 4580
        },
        {
          "length": 20,
          "start": 6047
        },
        {
          "length": 20,
          "start": 6192
        },
        {
          "length": 20,
          "start": 6981
        },
        {
          "length": 20,
          "start": 7045
        },
        {
          "length": 20,
          "start": 7719
        },
        {
          "length": 20,
          "start": 8136
        },
        {
          "length": 20,
          "start": 8321
        },
        {
          "length": 20,
          "start": 9490
        },
        {
          "length": 20,
          "start": 10130
        },
        {
          "length": 20,
          "start": 11807
        },
        {
          "length": 20,
          "start": 15386
        }
      ]
    },
    "contracts/libraries/LinkModuleLogic.sol": {
      "LinkModuleLogic": [
        {
          "length": 20,
          "start": 3152
        },
        {
          "length": 20,
          "start": 4144
        },
        {
          "length": 20,
          "start": 10234
        }
      ]
    },
    "contracts/libraries/OperatorLogic.sol": {
      "OperatorLogic": [
        {
          "length": 20,
          "start": 3806
        },
        {
          "length": 20,
          "start": 4877
        },
        {
          "length": 20,
          "start": 9797
        },
        {
          "length": 20,
          "start": 11109
        }
      ]
    },
    "contracts/libraries/PostLogic.sol": {
      "PostLogic": [
        {
          "length": 20,
          "start": 5078
        },
        {
          "length": 20,
          "start": 5586
        },
        {
          "length": 20,
          "start": 6483
        },
        {
          "length": 20,
          "start": 7161
        },
        {
          "length": 20,
          "start": 8005
        },
        {
          "length": 20,
          "start": 8578
        },
        {
          "length": 20,
          "start": 9179
        },
        {
          "length": 20,
          "start": 12131
        }
      ]
    }
  }
}