{
  "_format": "hh-sol-artifact-1",
  "contractName": "Web3Entry",
  "sourceName": "contracts/Web3Entry.sol",
  "abi": [
    {
      "anonymous": false,
      "inputs": [
        {
          "indexed": true,
          "internalType": "address",
          "name": "owner",
          "type": "address"
        },
        {
          "indexed": true,
          "internalType": "address",
          "name": "approved",
          "type": "address"
        },
        {
          "indexed": true,
          "internalType": "uint256",
          "name": "tokenId",
          "type": "uint256"
        }
      ],
      "name": "Approval",
      "type": "event"
    },
    {
      "anonymous": false,
      "inputs": [
        {
          "indexed": true,
          "internalType": "address",
          "name": "owner",
          "type": "address"
        },
        {
          "indexed": true,
          "internalType": "address",
          "name": "operator",
          "type": "address"
        },
        {
          "indexed": false,
          "internalType": "bool",
          "name": "approved",
          "type": "bool"
        }
      ],
      "name": "ApprovalForAll",
      "type": "event"
    },
    {
      "anonymous": false,
      "inputs": [
        {
          "indexed": false,
          "internalType": "uint8",
          "name": "version",
          "type": "uint8"
        }
      ],
      "name": "Initialized",
      "type": "event"
    },
    {
      "anonymous": false,
      "inputs": [
        {
          "indexed": true,
          "internalType": "address",
          "name": "from",
          "type": "address"
        },
        {
          "indexed": true,
          "internalType": "address",
          "name": "to",
          "type": "address"
        },
        {
          "indexed": true,
          "internalType": "uint256",
          "name": "tokenId",
          "type": "uint256"
        }
      ],
      "name": "Transfer",
      "type": "event"
    },
    {
      "inputs": [
        {
          "internalType": "uint256",
          "name": "profileId",
          "type": "uint256"
        },
        {
          "internalType": "string",
          "name": "newUri",
          "type": "string"
        }
      ],
      "name": "_setCharacterUri",
      "outputs": [],
      "stateMutability": "nonpayable",
      "type": "function"
    },
    {
      "inputs": [
        {
          "internalType": "uint256",
          "name": "characterId",
          "type": "uint256"
        },
        {
          "internalType": "address",
          "name": "operator",
          "type": "address"
        }
      ],
      "name": "addOperator",
      "outputs": [],
      "stateMutability": "nonpayable",
      "type": "function"
    },
    {
      "inputs": [
        {
          "internalType": "address",
          "name": "to",
          "type": "address"
        },
        {
          "internalType": "uint256",
          "name": "tokenId",
          "type": "uint256"
        }
      ],
      "name": "approve",
      "outputs": [],
      "stateMutability": "nonpayable",
      "type": "function"
    },
    {
      "inputs": [
        {
          "internalType": "address",
          "name": "owner",
          "type": "address"
        }
      ],
      "name": "balanceOf",
      "outputs": [
        {
          "internalType": "uint256",
          "name": "",
          "type": "uint256"
        }
      ],
      "stateMutability": "view",
      "type": "function"
    },
    {
      "inputs": [
        {
          "internalType": "uint256",
          "name": "tokenId",
          "type": "uint256"
        }
      ],
      "name": "burn",
      "outputs": [],
      "stateMutability": "nonpayable",
      "type": "function"
    },
    {
      "inputs": [
        {
          "components": [
            {
              "internalType": "address",
              "name": "to",
              "type": "address"
            },
            {
              "internalType": "string",
              "name": "handle",
              "type": "string"
            },
            {
              "internalType": "string",
              "name": "uri",
              "type": "string"
            },
            {
              "internalType": "address",
              "name": "linkModule",
              "type": "address"
            },
            {
              "internalType": "bytes",
              "name": "linkModuleInitData",
              "type": "bytes"
            }
          ],
          "internalType": "struct DataTypes.CreateCharacterData",
          "name": "vars",
          "type": "tuple"
        }
      ],
      "name": "createCharacter",
      "outputs": [],
      "stateMutability": "nonpayable",
      "type": "function"
    },
    {
      "inputs": [
        {
          "components": [
            {
              "internalType": "uint256",
              "name": "fromCharacterId",
              "type": "uint256"
            },
            {
              "internalType": "address",
              "name": "to",
              "type": "address"
            },
            {
              "internalType": "bytes32",
              "name": "linkType",
              "type": "bytes32"
            }
          ],
          "internalType": "struct DataTypes.createThenLinkCharacterData",
          "name": "vars",
          "type": "tuple"
        }
      ],
      "name": "createThenLinkCharacter",
      "outputs": [],
      "stateMutability": "nonpayable",
      "type": "function"
    },
    {
      "inputs": [
        {
          "internalType": "uint256",
          "name": "characterId",
          "type": "uint256"
        },
        {
          "internalType": "uint256",
          "name": "noteId",
          "type": "uint256"
        }
      ],
      "name": "deleteNote",
      "outputs": [],
      "stateMutability": "nonpayable",
      "type": "function"
    },
    {
      "inputs": [
        {
          "internalType": "uint256",
          "name": "tokenId",
          "type": "uint256"
        }
      ],
      "name": "getApproved",
      "outputs": [
        {
          "internalType": "address",
          "name": "",
          "type": "address"
        }
      ],
      "stateMutability": "view",
      "type": "function"
    },
    {
      "inputs": [
        {
          "internalType": "uint256",
          "name": "characterId",
          "type": "uint256"
        }
      ],
      "name": "getCharacter",
      "outputs": [
        {
          "components": [
            {
              "internalType": "uint256",
              "name": "characterId",
              "type": "uint256"
            },
            {
              "internalType": "string",
              "name": "handle",
              "type": "string"
            },
            {
              "internalType": "string",
              "name": "uri",
              "type": "string"
            },
            {
              "internalType": "uint256",
              "name": "noteCount",
              "type": "uint256"
            },
            {
              "internalType": "address",
              "name": "socialToken",
              "type": "address"
            },
            {
              "internalType": "address",
              "name": "linkModule",
              "type": "address"
            }
          ],
          "internalType": "struct DataTypes.Character",
          "name": "",
          "type": "tuple"
        }
      ],
      "stateMutability": "view",
      "type": "function"
    },
    {
      "inputs": [
        {
          "internalType": "string",
          "name": "handle",
          "type": "string"
        }
      ],
      "name": "getCharacterByHandle",
      "outputs": [
        {
          "components": [
            {
              "internalType": "uint256",
              "name": "characterId",
              "type": "uint256"
            },
            {
              "internalType": "string",
              "name": "handle",
              "type": "string"
            },
            {
              "internalType": "string",
              "name": "uri",
              "type": "string"
            },
            {
              "internalType": "uint256",
              "name": "noteCount",
              "type": "uint256"
            },
            {
              "internalType": "address",
              "name": "socialToken",
              "type": "address"
            },
            {
              "internalType": "address",
              "name": "linkModule",
              "type": "address"
            }
          ],
          "internalType": "struct DataTypes.Character",
          "name": "",
          "type": "tuple"
        }
      ],
      "stateMutability": "view",
      "type": "function"
    },
    {
      "inputs": [
        {
          "internalType": "uint256",
          "name": "characterId",
          "type": "uint256"
        }
      ],
      "name": "getCharacterUri",
      "outputs": [
        {
          "internalType": "string",
          "name": "",
          "type": "string"
        }
      ],
      "stateMutability": "view",
      "type": "function"
    },
    {
      "inputs": [
        {
          "internalType": "uint256",
          "name": "characterId",
          "type": "uint256"
        }
      ],
      "name": "getHandle",
      "outputs": [
        {
          "internalType": "string",
          "name": "",
          "type": "string"
        }
      ],
      "stateMutability": "view",
      "type": "function"
    },
    {
      "inputs": [
        {
          "internalType": "address",
          "name": "account",
          "type": "address"
        }
      ],
      "name": "getLinkModule4Address",
      "outputs": [
        {
          "internalType": "address",
          "name": "",
          "type": "address"
        }
      ],
      "stateMutability": "view",
      "type": "function"
    },
    {
      "inputs": [
        {
          "internalType": "address",
          "name": "tokenAddress",
          "type": "address"
        },
        {
          "internalType": "uint256",
          "name": "tokenId",
          "type": "uint256"
        }
      ],
      "name": "getLinkModule4ERC721",
      "outputs": [
        {
          "internalType": "address",
          "name": "",
          "type": "address"
        }
      ],
      "stateMutability": "view",
      "type": "function"
    },
    {
      "inputs": [
        {
          "internalType": "uint256",
          "name": "tokenId",
          "type": "uint256"
        }
      ],
      "name": "getLinkModule4Linklist",
      "outputs": [
        {
          "internalType": "address",
          "name": "",
          "type": "address"
        }
      ],
      "stateMutability": "view",
      "type": "function"
    },
    {
      "inputs": [],
      "name": "getLinklistContract",
      "outputs": [
        {
          "internalType": "address",
          "name": "",
          "type": "address"
        }
      ],
      "stateMutability": "view",
      "type": "function"
    },
    {
      "inputs": [
        {
          "internalType": "uint256",
          "name": "characterId",
          "type": "uint256"
        },
        {
          "internalType": "bytes32",
          "name": "linkType",
          "type": "bytes32"
        }
      ],
      "name": "getLinklistId",
      "outputs": [
        {
          "internalType": "uint256",
          "name": "",
          "type": "uint256"
        }
      ],
      "stateMutability": "view",
      "type": "function"
    },
    {
      "inputs": [
        {
          "internalType": "uint256",
          "name": "linkListId",
          "type": "uint256"
        }
      ],
      "name": "getLinklistType",
      "outputs": [
        {
          "internalType": "bytes32",
          "name": "",
          "type": "bytes32"
        }
      ],
      "stateMutability": "view",
      "type": "function"
    },
    {
      "inputs": [
        {
          "internalType": "uint256",
          "name": "tokenId",
          "type": "uint256"
        }
      ],
      "name": "getLinklistUri",
      "outputs": [
        {
          "internalType": "string",
          "name": "",
          "type": "string"
        }
      ],
      "stateMutability": "view",
      "type": "function"
    },
    {
      "inputs": [
        {
          "internalType": "uint256",
          "name": "characterId",
          "type": "uint256"
        },
        {
          "internalType": "uint256",
          "name": "noteId",
          "type": "uint256"
        }
      ],
      "name": "getNote",
      "outputs": [
        {
          "components": [
            {
              "internalType": "bytes32",
              "name": "linkItemType",
              "type": "bytes32"
            },
            {
              "internalType": "bytes32",
              "name": "linkKey",
              "type": "bytes32"
            },
            {
              "internalType": "string",
              "name": "contentUri",
              "type": "string"
            },
            {
              "internalType": "address",
              "name": "linkModule",
              "type": "address"
            },
            {
              "internalType": "address",
              "name": "mintModule",
              "type": "address"
            },
            {
              "internalType": "address",
              "name": "mintNFT",
              "type": "address"
            },
            {
              "internalType": "bool",
              "name": "deleted",
              "type": "bool"
            },
            {
              "internalType": "bool",
              "name": "locked",
              "type": "bool"
            }
          ],
          "internalType": "struct DataTypes.Note",
          "name": "",
          "type": "tuple"
        }
      ],
      "stateMutability": "view",
      "type": "function"
    },
    {
      "inputs": [
        {
          "internalType": "uint256",
          "name": "characterId",
          "type": "uint256"
        },
        {
          "internalType": "address",
          "name": "operator",
          "type": "address"
        }
      ],
      "name": "getOperatorPermissions",
      "outputs": [
        {
          "internalType": "uint256",
          "name": "",
          "type": "uint256"
        }
      ],
      "stateMutability": "view",
      "type": "function"
    },
    {
      "inputs": [
        {
          "internalType": "uint256",
          "name": "characterId",
          "type": "uint256"
        },
        {
          "internalType": "uint256",
          "name": "noteId",
          "type": "uint256"
        },
        {
          "internalType": "address",
          "name": "operator",
          "type": "address"
        }
      ],
      "name": "getOperatorPermissions4Note",
      "outputs": [
        {
          "internalType": "uint256",
          "name": "",
          "type": "uint256"
        }
      ],
      "stateMutability": "view",
      "type": "function"
    },
    {
      "inputs": [
        {
          "internalType": "uint256",
          "name": "characterId",
          "type": "uint256"
        }
      ],
      "name": "getOperators",
      "outputs": [
        {
          "internalType": "address[]",
          "name": "",
          "type": "address[]"
        }
      ],
      "stateMutability": "view",
      "type": "function"
    },
    {
      "inputs": [
        {
          "internalType": "address",
          "name": "account",
          "type": "address"
        }
      ],
      "name": "getPrimaryCharacterId",
      "outputs": [
        {
          "internalType": "uint256",
          "name": "",
          "type": "uint256"
        }
      ],
      "stateMutability": "view",
      "type": "function"
    },
    {
      "inputs": [],
      "name": "getRevision",
      "outputs": [
        {
          "internalType": "uint256",
          "name": "",
          "type": "uint256"
        }
      ],
      "stateMutability": "pure",
      "type": "function"
    },
    {
      "inputs": [
        {
          "internalType": "uint256",
          "name": "characterId",
          "type": "uint256"
        },
        {
          "internalType": "address",
          "name": "operator",
          "type": "address"
        },
        {
          "internalType": "uint256",
          "name": "permissionBitMap",
          "type": "uint256"
        }
      ],
      "name": "grantOperatorPermissions",
      "outputs": [],
      "stateMutability": "nonpayable",
      "type": "function"
    },
    {
      "inputs": [
        {
          "internalType": "uint256",
          "name": "characterId",
          "type": "uint256"
        },
        {
          "internalType": "uint256",
          "name": "noteId",
          "type": "uint256"
        },
        {
          "internalType": "address",
          "name": "operator",
          "type": "address"
        },
        {
          "internalType": "uint256",
          "name": "permissionBitMap",
          "type": "uint256"
        }
      ],
      "name": "grantOperatorPermissions4Note",
      "outputs": [],
      "stateMutability": "nonpayable",
      "type": "function"
    },
    {
      "inputs": [
        {
          "internalType": "string",
          "name": "_name",
          "type": "string"
        },
        {
          "internalType": "string",
          "name": "_symbol",
          "type": "string"
        },
        {
          "internalType": "address",
          "name": "_linklistContract",
          "type": "address"
        },
        {
          "internalType": "address",
          "name": "_mintNFTImpl",
          "type": "address"
        },
        {
          "internalType": "address",
          "name": "_periphery",
          "type": "address"
        },
        {
          "internalType": "address",
          "name": "_resolver",
          "type": "address"
        }
      ],
      "name": "initialize",
      "outputs": [],
      "stateMutability": "nonpayable",
      "type": "function"
    },
    {
      "inputs": [
        {
          "internalType": "address",
          "name": "owner",
          "type": "address"
        },
        {
          "internalType": "address",
          "name": "operator",
          "type": "address"
        }
      ],
      "name": "isApprovedForAll",
      "outputs": [
        {
          "internalType": "bool",
          "name": "",
          "type": "bool"
        }
      ],
      "stateMutability": "view",
      "type": "function"
    },
    {
      "inputs": [
        {
          "internalType": "uint256",
          "name": "characterId",
          "type": "uint256"
        },
        {
          "internalType": "address",
          "name": "operator",
          "type": "address"
        }
      ],
      "name": "isOperator",
      "outputs": [
        {
          "internalType": "bool",
          "name": "",
          "type": "bool"
        }
      ],
      "stateMutability": "view",
      "type": "function"
    },
    {
      "inputs": [
        {
          "internalType": "uint256",
          "name": "characterId",
          "type": "uint256"
        }
      ],
      "name": "isPrimaryCharacter",
      "outputs": [
        {
          "internalType": "bool",
          "name": "",
          "type": "bool"
        }
      ],
      "stateMutability": "view",
      "type": "function"
    },
    {
      "inputs": [
        {
          "components": [
            {
              "internalType": "uint256",
              "name": "fromCharacterId",
              "type": "uint256"
            },
            {
              "internalType": "address",
              "name": "ethAddress",
              "type": "address"
            },
            {
              "internalType": "bytes32",
              "name": "linkType",
              "type": "bytes32"
            },
            {
              "internalType": "bytes",
              "name": "data",
              "type": "bytes"
            }
          ],
          "internalType": "struct DataTypes.linkAddressData",
          "name": "vars",
          "type": "tuple"
        }
      ],
      "name": "linkAddress",
      "outputs": [],
      "stateMutability": "nonpayable",
      "type": "function"
    },
    {
      "inputs": [
        {
          "components": [
            {
              "internalType": "uint256",
              "name": "fromCharacterId",
              "type": "uint256"
            },
            {
              "internalType": "string",
              "name": "toUri",
              "type": "string"
            },
            {
              "internalType": "bytes32",
              "name": "linkType",
              "type": "bytes32"
            },
            {
              "internalType": "bytes",
              "name": "data",
              "type": "bytes"
            }
          ],
          "internalType": "struct DataTypes.linkAnyUriData",
          "name": "vars",
          "type": "tuple"
        }
      ],
      "name": "linkAnyUri",
      "outputs": [],
      "stateMutability": "nonpayable",
      "type": "function"
    },
    {
      "inputs": [
        {
          "components": [
            {
              "internalType": "uint256",
              "name": "fromCharacterId",
              "type": "uint256"
            },
            {
              "internalType": "uint256",
              "name": "toCharacterId",
              "type": "uint256"
            },
            {
              "internalType": "bytes32",
              "name": "linkType",
              "type": "bytes32"
            },
            {
              "internalType": "bytes",
              "name": "data",
              "type": "bytes"
            }
          ],
          "internalType": "struct DataTypes.linkCharacterData",
          "name": "vars",
          "type": "tuple"
        }
      ],
      "name": "linkCharacter",
      "outputs": [],
      "stateMutability": "nonpayable",
      "type": "function"
    },
    {
      "inputs": [
        {
          "components": [
            {
              "internalType": "uint256",
              "name": "fromCharacterId",
              "type": "uint256"
            },
            {
              "internalType": "address",
              "name": "tokenAddress",
              "type": "address"
            },
            {
              "internalType": "uint256",
              "name": "tokenId",
              "type": "uint256"
            },
            {
              "internalType": "bytes32",
              "name": "linkType",
              "type": "bytes32"
            },
            {
              "internalType": "bytes",
              "name": "data",
              "type": "bytes"
            }
          ],
          "internalType": "struct DataTypes.linkERC721Data",
          "name": "vars",
          "type": "tuple"
        }
      ],
      "name": "linkERC721",
      "outputs": [],
      "stateMutability": "nonpayable",
      "type": "function"
    },
    {
      "inputs": [
        {
          "components": [
            {
              "internalType": "uint256",
              "name": "fromCharacterId",
              "type": "uint256"
            },
            {
              "internalType": "uint256",
              "name": "toLinkListId",
              "type": "uint256"
            },
            {
              "internalType": "bytes32",
              "name": "linkType",
              "type": "bytes32"
            },
            {
              "internalType": "bytes",
              "name": "data",
              "type": "bytes"
            }
          ],
          "internalType": "struct DataTypes.linkLinklistData",
          "name": "vars",
          "type": "tuple"
        }
      ],
      "name": "linkLinklist",
      "outputs": [],
      "stateMutability": "nonpayable",
      "type": "function"
    },
    {
      "inputs": [
        {
          "components": [
            {
              "internalType": "uint256",
              "name": "fromCharacterId",
              "type": "uint256"
            },
            {
              "internalType": "uint256",
              "name": "toCharacterId",
              "type": "uint256"
            },
            {
              "internalType": "uint256",
              "name": "toNoteId",
              "type": "uint256"
            },
            {
              "internalType": "bytes32",
              "name": "linkType",
              "type": "bytes32"
            },
            {
              "internalType": "bytes",
              "name": "data",
              "type": "bytes"
            }
          ],
          "internalType": "struct DataTypes.linkNoteData",
          "name": "vars",
          "type": "tuple"
        }
      ],
      "name": "linkNote",
      "outputs": [],
      "stateMutability": "nonpayable",
      "type": "function"
    },
    {
      "inputs": [
        {
          "internalType": "uint256",
          "name": "characterId",
          "type": "uint256"
        },
        {
          "internalType": "uint256",
          "name": "noteId",
          "type": "uint256"
        }
      ],
      "name": "lockNote",
      "outputs": [],
      "stateMutability": "nonpayable",
      "type": "function"
    },
    {
      "inputs": [
        {
          "internalType": "uint256[]",
          "name": "characterIds",
          "type": "uint256[]"
        }
      ],
      "name": "migrateOperator",
      "outputs": [],
      "stateMutability": "nonpayable",
      "type": "function"
    },
    {
      "inputs": [
        {
          "components": [
            {
              "internalType": "uint256",
              "name": "characterId",
              "type": "uint256"
            },
            {
              "internalType": "uint256",
              "name": "noteId",
              "type": "uint256"
            },
            {
              "internalType": "address",
              "name": "to",
              "type": "address"
            },
            {
              "internalType": "bytes",
              "name": "mintModuleData",
              "type": "bytes"
            }
          ],
          "internalType": "struct DataTypes.MintNoteData",
          "name": "vars",
          "type": "tuple"
        }
      ],
      "name": "mintNote",
      "outputs": [
        {
          "internalType": "uint256",
          "name": "",
          "type": "uint256"
        }
      ],
      "stateMutability": "nonpayable",
      "type": "function"
    },
    {
      "inputs": [],
      "name": "name",
      "outputs": [
        {
          "internalType": "string",
          "name": "",
          "type": "string"
        }
      ],
      "stateMutability": "view",
      "type": "function"
    },
    {
      "inputs": [
        {
          "internalType": "uint256",
          "name": "tokenId",
          "type": "uint256"
        }
      ],
      "name": "ownerOf",
      "outputs": [
        {
          "internalType": "address",
          "name": "",
          "type": "address"
        }
      ],
      "stateMutability": "view",
      "type": "function"
    },
    {
      "inputs": [
        {
          "components": [
            {
              "internalType": "uint256",
              "name": "characterId",
              "type": "uint256"
            },
            {
              "internalType": "string",
              "name": "contentUri",
              "type": "string"
            },
            {
              "internalType": "address",
              "name": "linkModule",
              "type": "address"
            },
            {
              "internalType": "bytes",
              "name": "linkModuleInitData",
              "type": "bytes"
            },
            {
              "internalType": "address",
              "name": "mintModule",
              "type": "address"
            },
            {
              "internalType": "bytes",
              "name": "mintModuleInitData",
              "type": "bytes"
            },
            {
              "internalType": "bool",
              "name": "locked",
              "type": "bool"
            }
          ],
          "internalType": "struct DataTypes.PostNoteData",
          "name": "vars",
          "type": "tuple"
        }
      ],
      "name": "postNote",
      "outputs": [
        {
          "internalType": "uint256",
          "name": "",
          "type": "uint256"
        }
      ],
      "stateMutability": "nonpayable",
      "type": "function"
    },
    {
      "inputs": [
        {
          "components": [
            {
              "internalType": "uint256",
              "name": "characterId",
              "type": "uint256"
            },
            {
              "internalType": "string",
              "name": "contentUri",
              "type": "string"
            },
            {
              "internalType": "address",
              "name": "linkModule",
              "type": "address"
            },
            {
              "internalType": "bytes",
              "name": "linkModuleInitData",
              "type": "bytes"
            },
            {
              "internalType": "address",
              "name": "mintModule",
              "type": "address"
            },
            {
              "internalType": "bytes",
              "name": "mintModuleInitData",
              "type": "bytes"
            },
            {
              "internalType": "bool",
              "name": "locked",
              "type": "bool"
            }
          ],
          "internalType": "struct DataTypes.PostNoteData",
          "name": "noteData",
          "type": "tuple"
        },
        {
          "internalType": "address",
          "name": "ethAddress",
          "type": "address"
        }
      ],
      "name": "postNote4Address",
      "outputs": [
        {
          "internalType": "uint256",
          "name": "",
          "type": "uint256"
        }
      ],
      "stateMutability": "nonpayable",
      "type": "function"
    },
    {
      "inputs": [
        {
          "components": [
            {
              "internalType": "uint256",
              "name": "characterId",
              "type": "uint256"
            },
            {
              "internalType": "string",
              "name": "contentUri",
              "type": "string"
            },
            {
              "internalType": "address",
              "name": "linkModule",
              "type": "address"
            },
            {
              "internalType": "bytes",
              "name": "linkModuleInitData",
              "type": "bytes"
            },
            {
              "internalType": "address",
              "name": "mintModule",
              "type": "address"
            },
            {
              "internalType": "bytes",
              "name": "mintModuleInitData",
              "type": "bytes"
            },
            {
              "internalType": "bool",
              "name": "locked",
              "type": "bool"
            }
          ],
          "internalType": "struct DataTypes.PostNoteData",
          "name": "postNoteData",
          "type": "tuple"
        },
        {
          "internalType": "string",
          "name": "uri",
          "type": "string"
        }
      ],
      "name": "postNote4AnyUri",
      "outputs": [
        {
          "internalType": "uint256",
          "name": "",
          "type": "uint256"
        }
      ],
      "stateMutability": "nonpayable",
      "type": "function"
    },
    {
      "inputs": [
        {
          "components": [
            {
              "internalType": "uint256",
              "name": "characterId",
              "type": "uint256"
            },
            {
              "internalType": "string",
              "name": "contentUri",
              "type": "string"
            },
            {
              "internalType": "address",
              "name": "linkModule",
              "type": "address"
            },
            {
              "internalType": "bytes",
              "name": "linkModuleInitData",
              "type": "bytes"
            },
            {
              "internalType": "address",
              "name": "mintModule",
              "type": "address"
            },
            {
              "internalType": "bytes",
              "name": "mintModuleInitData",
              "type": "bytes"
            },
            {
              "internalType": "bool",
              "name": "locked",
              "type": "bool"
            }
          ],
          "internalType": "struct DataTypes.PostNoteData",
          "name": "postNoteData",
          "type": "tuple"
        },
        {
          "internalType": "uint256",
          "name": "toCharacterId",
          "type": "uint256"
        }
      ],
      "name": "postNote4Character",
      "outputs": [
        {
          "internalType": "uint256",
          "name": "",
          "type": "uint256"
        }
      ],
      "stateMutability": "nonpayable",
      "type": "function"
    },
    {
      "inputs": [
        {
          "components": [
            {
              "internalType": "uint256",
              "name": "characterId",
              "type": "uint256"
            },
            {
              "internalType": "string",
              "name": "contentUri",
              "type": "string"
            },
            {
              "internalType": "address",
              "name": "linkModule",
              "type": "address"
            },
            {
              "internalType": "bytes",
              "name": "linkModuleInitData",
              "type": "bytes"
            },
            {
              "internalType": "address",
              "name": "mintModule",
              "type": "address"
            },
            {
              "internalType": "bytes",
              "name": "mintModuleInitData",
              "type": "bytes"
            },
            {
              "internalType": "bool",
              "name": "locked",
              "type": "bool"
            }
          ],
          "internalType": "struct DataTypes.PostNoteData",
          "name": "postNoteData",
          "type": "tuple"
        },
        {
          "components": [
            {
              "internalType": "address",
              "name": "tokenAddress",
              "type": "address"
            },
            {
              "internalType": "uint256",
              "name": "erc721TokenId",
              "type": "uint256"
            }
          ],
          "internalType": "struct DataTypes.ERC721Struct",
          "name": "erc721",
          "type": "tuple"
        }
      ],
      "name": "postNote4ERC721",
      "outputs": [
        {
          "internalType": "uint256",
          "name": "",
          "type": "uint256"
        }
      ],
      "stateMutability": "nonpayable",
      "type": "function"
    },
    {
      "inputs": [
        {
          "components": [
            {
              "internalType": "uint256",
              "name": "characterId",
              "type": "uint256"
            },
            {
              "internalType": "string",
              "name": "contentUri",
              "type": "string"
            },
            {
              "internalType": "address",
              "name": "linkModule",
              "type": "address"
            },
            {
              "internalType": "bytes",
              "name": "linkModuleInitData",
              "type": "bytes"
            },
            {
              "internalType": "address",
              "name": "mintModule",
              "type": "address"
            },
            {
              "internalType": "bytes",
              "name": "mintModuleInitData",
              "type": "bytes"
            },
            {
              "internalType": "bool",
              "name": "locked",
              "type": "bool"
            }
          ],
          "internalType": "struct DataTypes.PostNoteData",
          "name": "noteData",
          "type": "tuple"
        },
        {
          "internalType": "uint256",
          "name": "toLinklistId",
          "type": "uint256"
        }
      ],
      "name": "postNote4Linklist",
      "outputs": [
        {
          "internalType": "uint256",
          "name": "",
          "type": "uint256"
        }
      ],
      "stateMutability": "nonpayable",
      "type": "function"
    },
    {
      "inputs": [
        {
          "components": [
            {
              "internalType": "uint256",
              "name": "characterId",
              "type": "uint256"
            },
            {
              "internalType": "string",
              "name": "contentUri",
              "type": "string"
            },
            {
              "internalType": "address",
              "name": "linkModule",
              "type": "address"
            },
            {
              "internalType": "bytes",
              "name": "linkModuleInitData",
              "type": "bytes"
            },
            {
              "internalType": "address",
              "name": "mintModule",
              "type": "address"
            },
            {
              "internalType": "bytes",
              "name": "mintModuleInitData",
              "type": "bytes"
            },
            {
              "internalType": "bool",
              "name": "locked",
              "type": "bool"
            }
          ],
          "internalType": "struct DataTypes.PostNoteData",
          "name": "postNoteData",
          "type": "tuple"
        },
        {
          "components": [
            {
              "internalType": "uint256",
              "name": "characterId",
              "type": "uint256"
            },
            {
              "internalType": "uint256",
              "name": "noteId",
              "type": "uint256"
            }
          ],
          "internalType": "struct DataTypes.NoteStruct",
          "name": "note",
          "type": "tuple"
        }
      ],
      "name": "postNote4Note",
      "outputs": [
        {
          "internalType": "uint256",
          "name": "",
          "type": "uint256"
        }
      ],
      "stateMutability": "nonpayable",
      "type": "function"
    },
    {
      "inputs": [
        {
          "internalType": "uint256",
          "name": "characterId",
          "type": "uint256"
        },
        {
          "internalType": "address",
          "name": "operator",
          "type": "address"
        }
      ],
      "name": "removeOperator",
      "outputs": [],
      "stateMutability": "nonpayable",
      "type": "function"
    },
    {
      "inputs": [],
      "name": "resolver",
      "outputs": [
        {
          "internalType": "address",
          "name": "",
          "type": "address"
        }
      ],
      "stateMutability": "view",
      "type": "function"
    },
    {
      "inputs": [
        {
          "internalType": "address",
          "name": "from",
          "type": "address"
        },
        {
          "internalType": "address",
          "name": "to",
          "type": "address"
        },
        {
          "internalType": "uint256",
          "name": "tokenId",
          "type": "uint256"
        }
      ],
      "name": "safeTransferFrom",
      "outputs": [],
      "stateMutability": "nonpayable",
      "type": "function"
    },
    {
      "inputs": [
        {
          "internalType": "address",
          "name": "from",
          "type": "address"
        },
        {
          "internalType": "address",
          "name": "to",
          "type": "address"
        },
        {
          "internalType": "uint256",
          "name": "tokenId",
          "type": "uint256"
        },
        {
          "internalType": "bytes",
          "name": "_data",
          "type": "bytes"
        }
      ],
      "name": "safeTransferFrom",
      "outputs": [],
      "stateMutability": "nonpayable",
      "type": "function"
    },
    {
      "inputs": [
        {
          "internalType": "address",
          "name": "operator",
          "type": "address"
        },
        {
          "internalType": "bool",
          "name": "approved",
          "type": "bool"
        }
      ],
      "name": "setApprovalForAll",
      "outputs": [],
      "stateMutability": "nonpayable",
      "type": "function"
    },
    {
      "inputs": [
        {
          "internalType": "uint256",
          "name": "characterId",
          "type": "uint256"
        },
        {
          "internalType": "string",
          "name": "newUri",
          "type": "string"
        }
      ],
      "name": "setCharacterUri",
      "outputs": [],
      "stateMutability": "nonpayable",
      "type": "function"
    },
    {
      "inputs": [
        {
          "internalType": "uint256",
          "name": "characterId",
          "type": "uint256"
        },
        {
          "internalType": "string",
          "name": "newHandle",
          "type": "string"
        }
      ],
      "name": "setHandle",
      "outputs": [],
      "stateMutability": "nonpayable",
      "type": "function"
    },
    {
      "inputs": [
        {
          "components": [
            {
              "internalType": "address",
              "name": "account",
              "type": "address"
            },
            {
              "internalType": "address",
              "name": "linkModule",
              "type": "address"
            },
            {
              "internalType": "bytes",
              "name": "linkModuleInitData",
              "type": "bytes"
            }
          ],
          "internalType": "struct DataTypes.setLinkModule4AddressData",
          "name": "vars",
          "type": "tuple"
        }
      ],
      "name": "setLinkModule4Address",
      "outputs": [],
      "stateMutability": "nonpayable",
      "type": "function"
    },
    {
      "inputs": [
        {
          "components": [
            {
              "internalType": "uint256",
              "name": "characterId",
              "type": "uint256"
            },
            {
              "internalType": "address",
              "name": "linkModule",
              "type": "address"
            },
            {
              "internalType": "bytes",
              "name": "linkModuleInitData",
              "type": "bytes"
            }
          ],
          "internalType": "struct DataTypes.setLinkModule4CharacterData",
          "name": "vars",
          "type": "tuple"
        }
      ],
      "name": "setLinkModule4Character",
      "outputs": [],
      "stateMutability": "nonpayable",
      "type": "function"
    },
    {
      "inputs": [
        {
          "components": [
            {
              "internalType": "uint256",
              "name": "linklistId",
              "type": "uint256"
            },
            {
              "internalType": "address",
              "name": "linkModule",
              "type": "address"
            },
            {
              "internalType": "bytes",
              "name": "linkModuleInitData",
              "type": "bytes"
            }
          ],
          "internalType": "struct DataTypes.setLinkModule4LinklistData",
          "name": "",
          "type": "tuple"
        }
      ],
      "name": "setLinkModule4Linklist",
      "outputs": [],
      "stateMutability": "nonpayable",
      "type": "function"
    },
    {
      "inputs": [
        {
          "internalType": "uint256",
          "name": "linklistId",
          "type": "uint256"
        },
        {
          "internalType": "string",
          "name": "uri",
          "type": "string"
        }
      ],
      "name": "setLinklistUri",
      "outputs": [],
      "stateMutability": "nonpayable",
      "type": "function"
    },
    {
      "inputs": [
        {
          "components": [
            {
              "internalType": "uint256",
              "name": "characterId",
              "type": "uint256"
            },
            {
              "internalType": "uint256",
              "name": "noteId",
              "type": "uint256"
            },
            {
              "internalType": "address",
              "name": "mintModule",
              "type": "address"
            },
            {
              "internalType": "bytes",
              "name": "mintModuleInitData",
              "type": "bytes"
            }
          ],
          "internalType": "struct DataTypes.setMintModule4NoteData",
          "name": "vars",
          "type": "tuple"
        }
      ],
      "name": "setMintModule4Note",
      "outputs": [],
      "stateMutability": "nonpayable",
      "type": "function"
    },
    {
      "inputs": [
        {
          "internalType": "uint256",
          "name": "characterId",
          "type": "uint256"
        },
        {
          "internalType": "uint256",
          "name": "noteId",
          "type": "uint256"
        },
        {
          "internalType": "string",
          "name": "newUri",
          "type": "string"
        }
      ],
      "name": "setNoteUri",
      "outputs": [],
      "stateMutability": "nonpayable",
      "type": "function"
    },
    {
      "inputs": [
        {
          "internalType": "uint256",
          "name": "characterId",
          "type": "uint256"
        },
        {
          "internalType": "address",
          "name": "operator",
          "type": "address"
        }
      ],
      "name": "setOperator",
      "outputs": [],
      "stateMutability": "nonpayable",
      "type": "function"
    },
    {
      "inputs": [
        {
          "internalType": "uint256",
          "name": "characterId",
          "type": "uint256"
        }
      ],
      "name": "setPrimaryCharacterId",
      "outputs": [],
      "stateMutability": "nonpayable",
      "type": "function"
    },
    {
      "inputs": [
        {
          "internalType": "uint256",
          "name": "characterId",
          "type": "uint256"
        },
        {
          "internalType": "address",
          "name": "tokenAddress",
          "type": "address"
        }
      ],
      "name": "setSocialToken",
      "outputs": [],
      "stateMutability": "nonpayable",
      "type": "function"
    },
    {
      "inputs": [
        {
          "internalType": "bytes4",
          "name": "interfaceId",
          "type": "bytes4"
        }
      ],
      "name": "supportsInterface",
      "outputs": [
        {
          "internalType": "bool",
          "name": "",
          "type": "bool"
        }
      ],
      "stateMutability": "view",
      "type": "function"
    },
    {
      "inputs": [],
      "name": "symbol",
      "outputs": [
        {
          "internalType": "string",
          "name": "",
          "type": "string"
        }
      ],
      "stateMutability": "view",
      "type": "function"
    },
    {
      "inputs": [
        {
          "internalType": "uint256",
          "name": "index",
          "type": "uint256"
        }
      ],
      "name": "tokenByIndex",
      "outputs": [
        {
          "internalType": "uint256",
          "name": "",
          "type": "uint256"
        }
      ],
      "stateMutability": "view",
      "type": "function"
    },
    {
      "inputs": [
        {
          "internalType": "address",
          "name": "owner",
          "type": "address"
        },
        {
          "internalType": "uint256",
          "name": "index",
          "type": "uint256"
        }
      ],
      "name": "tokenOfOwnerByIndex",
      "outputs": [
        {
          "internalType": "uint256",
          "name": "",
          "type": "uint256"
        }
      ],
      "stateMutability": "view",
      "type": "function"
    },
    {
      "inputs": [
        {
          "internalType": "uint256",
          "name": "characterId",
          "type": "uint256"
        }
      ],
      "name": "tokenURI",
      "outputs": [
        {
          "internalType": "string",
          "name": "",
          "type": "string"
        }
      ],
      "stateMutability": "view",
      "type": "function"
    },
    {
      "inputs": [],
      "name": "totalSupply",
      "outputs": [
        {
          "internalType": "uint256",
          "name": "",
          "type": "uint256"
        }
      ],
      "stateMutability": "view",
      "type": "function"
    },
    {
      "inputs": [
        {
          "internalType": "address",
          "name": "from",
          "type": "address"
        },
        {
          "internalType": "address",
          "name": "to",
          "type": "address"
        },
        {
          "internalType": "uint256",
          "name": "tokenId",
          "type": "uint256"
        }
      ],
      "name": "transferFrom",
      "outputs": [],
      "stateMutability": "nonpayable",
      "type": "function"
    },
    {
      "inputs": [
        {
          "components": [
            {
              "internalType": "uint256",
              "name": "fromCharacterId",
              "type": "uint256"
            },
            {
              "internalType": "address",
              "name": "ethAddress",
              "type": "address"
            },
            {
              "internalType": "bytes32",
              "name": "linkType",
              "type": "bytes32"
            }
          ],
          "internalType": "struct DataTypes.unlinkAddressData",
          "name": "vars",
          "type": "tuple"
        }
      ],
      "name": "unlinkAddress",
      "outputs": [],
      "stateMutability": "nonpayable",
      "type": "function"
    },
    {
      "inputs": [
        {
          "components": [
            {
              "internalType": "uint256",
              "name": "fromCharacterId",
              "type": "uint256"
            },
            {
              "internalType": "string",
              "name": "toUri",
              "type": "string"
            },
            {
              "internalType": "bytes32",
              "name": "linkType",
              "type": "bytes32"
            }
          ],
          "internalType": "struct DataTypes.unlinkAnyUriData",
          "name": "vars",
          "type": "tuple"
        }
      ],
      "name": "unlinkAnyUri",
      "outputs": [],
      "stateMutability": "nonpayable",
      "type": "function"
    },
    {
      "inputs": [
        {
          "components": [
            {
              "internalType": "uint256",
              "name": "fromCharacterId",
              "type": "uint256"
            },
            {
              "internalType": "uint256",
              "name": "toCharacterId",
              "type": "uint256"
            },
            {
              "internalType": "bytes32",
              "name": "linkType",
              "type": "bytes32"
            }
          ],
          "internalType": "struct DataTypes.unlinkCharacterData",
          "name": "vars",
          "type": "tuple"
        }
      ],
      "name": "unlinkCharacter",
      "outputs": [],
      "stateMutability": "nonpayable",
      "type": "function"
    },
    {
      "inputs": [
        {
          "components": [
            {
              "internalType": "uint256",
              "name": "fromCharacterId",
              "type": "uint256"
            },
            {
              "internalType": "address",
              "name": "tokenAddress",
              "type": "address"
            },
            {
              "internalType": "uint256",
              "name": "tokenId",
              "type": "uint256"
            },
            {
              "internalType": "bytes32",
              "name": "linkType",
              "type": "bytes32"
            }
          ],
          "internalType": "struct DataTypes.unlinkERC721Data",
          "name": "vars",
          "type": "tuple"
        }
      ],
      "name": "unlinkERC721",
      "outputs": [],
      "stateMutability": "nonpayable",
      "type": "function"
    },
    {
      "inputs": [
        {
          "components": [
            {
              "internalType": "uint256",
              "name": "fromCharacterId",
              "type": "uint256"
            },
            {
              "internalType": "uint256",
              "name": "toLinkListId",
              "type": "uint256"
            },
            {
              "internalType": "bytes32",
              "name": "linkType",
              "type": "bytes32"
            }
          ],
          "internalType": "struct DataTypes.unlinkLinklistData",
          "name": "vars",
          "type": "tuple"
        }
      ],
      "name": "unlinkLinklist",
      "outputs": [],
      "stateMutability": "nonpayable",
      "type": "function"
    },
    {
      "inputs": [
        {
          "components": [
            {
              "internalType": "uint256",
              "name": "fromCharacterId",
              "type": "uint256"
            },
            {
              "internalType": "uint256",
              "name": "toCharacterId",
              "type": "uint256"
            },
            {
              "internalType": "uint256",
              "name": "toNoteId",
              "type": "uint256"
            },
            {
              "internalType": "bytes32",
              "name": "linkType",
              "type": "bytes32"
            }
          ],
          "internalType": "struct DataTypes.unlinkNoteData",
          "name": "vars",
          "type": "tuple"
        }
      ],
      "name": "unlinkNote",
      "outputs": [],
      "stateMutability": "nonpayable",
      "type": "function"
    }
  ],
  "bytecode": "0x608060405234801561001057600080fd5b50615f3f80620000216000396000f3fe608060405234801561001057600080fd5b50600436106104755760003560e01c8063867884e611610257578063c2a6fe3b11610146578063e7a1c1c0116100c3578063f2ad807511610087578063f2ad807514610b14578063f316bacd14610b27578063f6479d7714610b3a578063fd2d866f14610b4d578063fe9299fb14610b6057600080fd5b8063e7a1c1c014610a8c578063e985e9c514610a9f578063ec81d19414610adb578063ed84c34514610aee578063ef0828ab14610b0157600080fd5b8063d70e10c61161010a578063d70e10c614610a08578063dabb053114610a33578063db491e8014610a46578063dca2713514610a66578063e56f2fe414610a7957600080fd5b8063c2a6fe3b146109a9578063c87b56dd146109bc578063cb8e757e146109cf578063cd69fe61146109e2578063d23b320b146109f557600080fd5b80639a4dec18116101d4578063a7ccb4bf11610198578063a7ccb4bf1461094c578063af90b1121461095f578063b88d4fde14610972578063b9d3284514610985578063c053f6b81461099857600080fd5b80639a4dec18146108e05780639a50248d146108f3578063a22cb46514610913578063a48047ba14610926578063a6e6178d1461093957600080fd5b806393f057e51161021b57806393f057e514610869578063952be0ef1461087c57806395d89b41146108b257806395d9fa7d146108ba5780639864c307146108cd57600080fd5b8063867884e61461080a5780638734bbfc1461081d5780638b4ca06a1461083057806392ef445d1461084357806392f7070b1461085657600080fd5b80632f745c591161037357806347f94de7116102f05780636352211e116102b45780636352211e1461079e5780636bf55d5f146107b157806370a08231146107d157806374f345cf146107e45780637d46a713146107f757600080fd5b806347f94de71461073f5780634f6ccce7146107525780635a936d10146107655780635fb8818314610778578063628b644a1461078b57600080fd5b806340ad34d81161033757806340ad34d8146106e057806342842e0e146106f357806342966c68146107065780634394954b1461071957806344b82a241461072c57600080fd5b80632f745c591461066857806331b9d08c1461067b578063327b2a03146106a757806333f06ee6146106ba578063388f5083146106cd57600080fd5b80631316529d116104015780632209d145116103c55780632209d145146105a657806323b872dd146105dc57806329c301c2146105ef5780632abc6bf6146106025780632d8723b81461062b57600080fd5b80631316529d14610554578063144a3e831461056557806318160ddd14610578578063188b04b314610580578063206657f21461059357600080fd5b806308cb68ff1161044857806308cb68ff146104f5578063095ea7b31461050a5780630c4dd5f21461051d5780630d18d07a1461052e5780630ff982441461054157600080fd5b806301ffc9a71461047a57806304f3bcec146104a257806306fdde03146104cd578063081812fc146104e2575b600080fd5b61048d610488366004614857565b610b89565b60405190151581526020015b60405180910390f35b6017546104b5906001600160a01b031681565b6040516001600160a01b039091168152602001610499565b6104d5610bb4565b60405161049991906148cc565b6104b56104f03660046148df565b610c46565b610508610503366004614910565b610ce0565b005b610508610518366004614969565b610d79565b61050861052b366004614910565b50565b61050861053c366004614995565b610e8f565b61050861054f3660046149c5565b610ec1565b60045b604051908152602001610499565b6104d56105733660046148df565b610fc2565b600854610557565b61050861058e3660046149f3565b610fcd565b6105086105a1366004614a27565b6110cc565b6104b56105b4366004614969565b6001600160a01b03918216600090815260106020908152604080832093835292905220541690565b6105086105ea366004614a5f565b61111d565b6105576105fd366004614aa1565b61114e565b610557610610366004614ad5565b6001600160a01b03166000908152600c602052604090205490565b610557610639366004614af2565b6000928352601a602090815260408085209385529281528284206001600160a01b039290921684525290205490565b610557610676366004614969565b6111fc565b6104b5610689366004614ad5565b6001600160a01b039081166000908152601160205260409020541690565b6105576106b5366004614b3d565b611292565b6105086106c8366004614bd3565b611457565b6105086106db3660046149f3565b61153e565b6105086106ee366004614c1e565b611593565b610508610701366004614a5f565b61160f565b6105086107143660046148df565b61162a565b610508610727366004614d25565b6116c3565b61055761073a366004614d6b565b611730565b61050861074d366004614bd3565b6117a8565b6105576107603660046148df565b6117e8565b6105086107733660046149c5565b61187b565b6105086107863660046149f3565b61190d565b610508610799366004614daf565b611962565b6104b56107ac3660046148df565b6119f2565b6107c46107bf3660046148df565b611a69565b6040516104999190614e01565b6105576107df366004614ad5565b611a83565b6105086107f2366004614e4e565b611b0a565b610508610805366004614995565b611b88565b610508610818366004614c1e565b611bbd565b61048d61082b3660046148df565b611c2f565b61055761083e3660046148df565b611c5d565b610508610851366004614e70565b611cc9565b610557610864366004614ee4565b611d9c565b6105086108773660046149c5565b611e32565b61055761088a366004614995565b60009182526019602090815260408084206001600160a01b0393909316845291905290205490565b6104d5611ea3565b6105086108c8366004614995565b611eb2565b6105086108db3660046149f3565b611f3a565b6105576108ee366004614b3d565b611f8f565b610906610901366004614f2a565b612099565b6040516104999190614f6b565b610508610921366004614ff7565b612248565b61048d610934366004614995565b612253565b610508610947366004614bd3565b61228e565b61055761095a3660046149f3565b61230f565b61055761096d366004614d6b565b6123b3565b610508610980366004615023565b6123f3565b6105086109933660046150a0565b61242b565b6013546001600160a01b03166104b5565b6105086109b7366004614e4e565b6124fc565b6104d56109ca3660046148df565b61257a565b6105086109dd3660046150a0565b61261f565b6105086109f03660046150a0565b612691565b610508610a033660046149f3565b6126a2565b610557610a16366004614e4e565b6000918252600d6020908152604080842092845291905290205490565b610906610a413660046148df565b61272f565b610a59610a54366004614e4e565b6128b6565b60405161049991906150d4565b6104d5610a743660046148df565b612a17565b610508610a8736600461516a565b612a89565b610508610a9a366004614995565b612c3e565b61048d610aad366004615224565b6001600160a01b03918216600090815260056020908152604080832093909416825291909152205460ff1690565b6104d5610ae93660046148df565b612c6d565b610508610afc366004615252565b612c8d565b610508610b0f366004614910565b612d09565b610508610b223660046148df565b612d7a565b610557610b35366004615291565b612dc9565b610508610b483660046149c5565b612f27565b610508610b5b366004614910565b612f6d565b6104b5610b6e3660046148df565b6000908152600f60205260409020546001600160a01b031690565b60006001600160e01b0319821663780e9d6360e01b1480610bae5750610bae82612fe8565b92915050565b606060008054610bc3906152ec565b80601f0160208091040260200160405190810160405280929190818152602001828054610bef906152ec565b8015610c3c5780601f10610c1157610100808354040283529160200191610c3c565b820191906000526020600020905b815481529060010190602001808311610c1f57829003601f168201915b5050505050905090565b6000818152600260205260408120546001600160a01b0316610cc45760405162461bcd60e51b815260206004820152602c60248201527f4552433732313a20617070726f76656420717565727920666f72206e6f6e657860448201526b34b9ba32b73a103a37b5b2b760a11b60648201526084015b60405180910390fd5b506000908152600460205260409020546001600160a01b031690565b73__$69db18565ecbefece480e92cc5f8fb1274$__63dfc34f25610d076020840184614ad5565b610d176040850160208601614ad5565b610d246040860186615321565b60116040518663ffffffff1660e01b8152600401610d46959493929190615390565b60006040518083038186803b158015610d5e57600080fd5b505af4158015610d72573d6000803e3d6000fd5b5050505050565b6000610d84826119f2565b9050806001600160a01b0316836001600160a01b03161415610df25760405162461bcd60e51b815260206004820152602160248201527f4552433732313a20617070726f76616c20746f2063757272656e74206f776e656044820152603960f91b6064820152608401610cbb565b336001600160a01b0382161480610e0e5750610e0e8133610aad565b610e805760405162461bcd60e51b815260206004820152603860248201527f4552433732313a20617070726f76652063616c6c6572206973206e6f74206f7760448201527f6e6572206e6f7220617070726f76656420666f7220616c6c00000000000000006064820152608401610cbb565b610e8a8383613038565b505050565b610e98826130a6565b6000828152601860205260409020610eb09082613127565b50610ebd82826000613143565b5050565b610ecd813560b26131a2565b6040516331a9108f60e11b81528135600482015273__$e2c9a8f399964af47bb173600dd9e5f662$__90633019fadd9083903090636352211e90602401602060405180830381865afa158015610f27573d6000803e3d6000fd5b505050506040513d601f19601f82011682018060405250810190610f4b91906153cf565b60135485356000908152600d60209081526040808320818a0135845282529182902054825160e088901b6001600160e01b031916815286356004820152918601356024830152949091013560448201526001600160a01b0392831660648201529116608482015260a481019190915260c401610d46565b6060610bae8261257a565b610fd9813560b26131a2565b610fe6816020013561324e565b73__$e2c9a8f399964af47bb173600dd9e5f662$__63957f8a988235602084013560408501356110196060870187615321565b6040516331a9108f60e11b8152883560048201523090636352211e90602401602060405180830381865afa158015611055573d6000803e3d6000fd5b505050506040513d601f19601f8201168201806040525081019061107991906153cf565b6013546020808b01356000908152600a9091526040908190206005015490516001600160e01b031960e08b901b168152610d46989796959493926001600160a01b03908116921690600d906004016153ec565b6110d5836130a6565b806110f85760008381526018602052604090206110f29083613127565b50611112565b600083815260186020526040902061111090836132a7565b505b610e8a838383613143565b61112733826132bc565b6111435760405162461bcd60e51b8152600401610cbb90615446565b610e8a8383836133af565b600061115c823560ec6131a2565b81356000908152600a602052604081206003018054829061117c906154ad565b91829055506040516342a34a5360e01b815290915073__$2873850e5b3f5697aafc2f5cd9f27cc884$__906342a34a53906111c590869085906000908190600e906004016155d2565b60006040518083038186803b1580156111dd57600080fd5b505af41580156111f1573d6000803e3d6000fd5b509295945050505050565b600061120783611a83565b82106112695760405162461bcd60e51b815260206004820152602b60248201527f455243373231456e756d657261626c653a206f776e657220696e646578206f7560448201526a74206f6620626f756e647360a81b6064820152608401610cbb565b506001600160a01b03919091166000908152600660209081526040808320938352929052205490565b60006112a0833560ca6131a2565b6112ba6112b06020840184614ad5565b8360200135613556565b6013546545524337323160d01b906000906001600160a01b0316632ea24efc826112e76020880188614ad5565b6040516001600160e01b031960e085901b16815260048101929092526001600160a01b03166024820152602087013560448201526064016020604051808303816000875af115801561133d573d6000803e3d6000fd5b505050506040513d601f19601f820116820180604052508101906113619190615617565b85356000908152600a60205260408120600301805492935090918290611386906154ad565b9182905550905073__$2873850e5b3f5697aafc2f5cd9f27cc884$__6342a34a53878386866113b860208c018c614ad5565b8b602001356040516020016113eb92919060609290921b6bffffffffffffffffffffffff19168252601482015260340190565b604051602081830303815290604052600e6040518763ffffffff1660e01b815260040161141d96959493929190615630565b60006040518083038186803b15801561143557600080fd5b505af4158015611449573d6000803e3d6000fd5b509298975050505050505050565b6013546040516367880d6160e11b8152600481018590526000916001600160a01b03169063cf101ac290602401602060405180830381865afa1580156114a1573d6000803e3d6000fd5b505050506040513d601f19601f820116820180604052508101906114c59190615617565b90506114d28160b16131a2565b601354604051633c17845760e11b81526001600160a01b039091169063782f08ae906115069087908790879060040161567b565b600060405180830381600087803b15801561152057600080fd5b505af1158015611534573d6000803e3d6000fd5b5050505050505050565b61154a813560b96131a2565b60135460405163e4bb4f2360e01b815273__$e2c9a8f399964af47bb173600dd9e5f662$__9163e4bb4f2391610d469185916001600160a01b0390911690600d9060040161569e565b61159f813560b66131a2565b60135460408051635cebf08d60e11b81528335600482015260208401356024820152908301356044820152606083013560648201526001600160a01b039091166084820152600d60a482015273__$e2c9a8f399964af47bb173600dd9e5f662$__9063b9d7e11a9060c401610d46565b610e8a838383604051806020016040528060008152506123f3565b6000818152600a60205260408082209051611648916001019061570c565b60408051918290039091206000818152600b6020908152838220829055858252600a90529182208281559092509061168360018301826146b2565b6116916002830160006146b2565b50600060038201556004810180546001600160a01b0319908116909155600590910180549091169055610ebd82613606565b6116ce8260b06131a2565b6000828152600a6020908152604090912082516116f3926002909201918401906146ec565b50817f17d7c9f69270ba135480ef16837f38b9d37d3ab291cbd3ba03982290c66319978260405161172491906148cc565b60405180910390a25050565b600061173e833560c86131a2565b82356000908152600a60205260408120600301805467131a5b9adb1a5cdd60c21b9285929091829061176f906154ad565b919050819055905073__$2873850e5b3f5697aafc2f5cd9f27cc884$__6342a34a53878386868a6040516020016113eb91815260200190565b610e8a8383838080601f0160208091040260200160405190810160405280939291908181526020018383808284376000920191909152506116c392505050565b60006117f360085490565b82106118565760405162461bcd60e51b815260206004820152602c60248201527f455243373231456e756d657261626c653a20676c6f62616c20696e646578206f60448201526b7574206f6620626f756e647360a01b6064820152608401610cbb565b60088281548110611869576118696157a8565b90600052602060002001549050919050565b611887813560be6131a2565b60135481356000818152600d60209081526040808320818701358085529083529281902054905163d862986560e01b8152600481019490945290850135602484015260448301919091526001600160a01b039092166064820152608481019190915273__$e2c9a8f399964af47bb173600dd9e5f662$__9063d86298659060a401610d46565b611919813560bb6131a2565b6013546040516332f107bf60e01b815273__$e2c9a8f399964af47bb173600dd9e5f662$__916332f107bf91610d469185916001600160a01b0390911690600d906004016157be565b61196d8460c36131a2565b61197984846002613665565b611983848461374c565b6040516001626802bf60e01b0319815273__$2873850e5b3f5697aafc2f5cd9f27cc884$__9063ff97fd41906119c6908790879087908790600e9060040161583b565b60006040518083038186803b1580156119de57600080fd5b505af4158015611534573d6000803e3d6000fd5b6000818152600260205260408120546001600160a01b031680610bae5760405162461bcd60e51b815260206004820152602960248201527f4552433732313a206f776e657220717565727920666f72206e6f6e657869737460448201526832b73a103a37b5b2b760b91b6064820152608401610cbb565b6000818152601860205260409020606090610bae90613801565b60006001600160a01b038216611aee5760405162461bcd60e51b815260206004820152602a60248201527f4552433732313a2062616c616e636520717565727920666f7220746865207a65604482015269726f206164647265737360b01b6064820152608401610cbb565b506001600160a01b031660009081526003602052604090205490565b611b158260c46131a2565b611b2182826003613665565b611b2b828261374c565b6000828152600e60209081526040808320848452825291829020600501805460ff60a81b1916600160a81b179055905182815283917f036469f3e73c83520cdefa197d7a9c854c2f8bc0164b82e9f2bd4aa7e150fd309101611724565b611b91826130a6565b6000828152601860205260409020611ba990826132a7565b50610ebd82826001600160b01b0319613143565b611bc9813560b86131a2565b60135481356000908152600d6020908152604080832060608601358452909152908190205490516317e9a8b160e31b815273__$e2c9a8f399964af47bb173600dd9e5f662$__9263bf4d458892610d469286926001600160a01b0316919060040161585b565b600080611c3b836119f2565b6001600160a01b03166000908152600c60205260409020549290921492915050565b60135460405162fba02760e01b8152600481018390526000916001600160a01b03169062fba02790602401602060405180830381865afa158015611ca5573d6000803e3d6000fd5b505050506040513d601f19601f82011682018060405250810190610bae9190615617565b60005b81811015610e8a576000838383818110611ce857611ce86157a8565b6020908102929092013560008181526016909352604090922054919250506001600160a01b03168015611d2857611d2882826001600160b01b0319613143565b6000828152601860205260408120611d3f90613801565b905060005b8151811015611d8757611d7784838381518110611d6357611d636157a8565b602002602001015160b0600019901b613143565b611d80816154ad565b9050611d44565b5050505080611d95906154ad565b9050611ccc565b6000611daa833560c76131a2565b82356000908152600a602052604081206003018054664164647265737360c81b926001600160a01b0386169290918290611de3906154ad565b919050819055905073__$2873850e5b3f5697aafc2f5cd9f27cc884$__6342a34a53878386868a6040516020016113eb919060609190911b6bffffffffffffffffffffffff1916815260140190565b611e3e813560ba6131a2565b60135481356000908152600d6020908152604080832081860135845290915290819020549051633d7f9b3d60e11b815273__$e2c9a8f399964af47bb173600dd9e5f662$__92637aff367a92610d469286926001600160a01b031691906004016158ad565b606060018054610bc3906152ec565b611ebd8260016131a2565b6040516384b44a2f60e01b8152600481018390526001600160a01b0382166024820152600a604482015273__$d8529f0216812a2dec6b96adf1943c3537$__906384b44a2f9060640160006040518083038186803b158015611f1e57600080fd5b505af4158015611f32573d6000803e3d6000fd5b505050505050565b611f46813560bd6131a2565b601354604051635fe5df1d60e11b815273__$e2c9a8f399964af47bb173600dd9e5f662$__9163bfcbbe3a91610d469185916001600160a01b0390911690600d906004016158f5565b6000611f9d833560c96131a2565b601354604051635cb46be760e01b81526000600482018190528435602483015260208501356044830152634e6f746560e01b9290916001600160a01b0390911690635cb46be7906064016020604051808303816000875af1158015612006573d6000803e3d6000fd5b505050506040513d601f19601f8201168201806040525081019061202a9190615617565b85356000908152600a6020526040812060030180549293509091829061204f906154ad565b919050819055905073__$2873850e5b3f5697aafc2f5cd9f27cc884$__6342a34a53878386868a600001358b602001356040516020016113eb929190918252602082015260400190565b6120a1614770565b600083836040516120b3929190615955565b604080519182900382206000818152600b602090815283822054808352600a82529184902060c08601909452835485526001840180549396509194939290840191906120fe906152ec565b80601f016020809104026020016040519081016040528092919081815260200182805461212a906152ec565b80156121775780601f1061214c57610100808354040283529160200191612177565b820191906000526020600020905b81548152906001019060200180831161215a57829003601f168201915b50505050508152602001600282018054612190906152ec565b80601f01602080910402602001604051908101604052809291908181526020018280546121bc906152ec565b80156122095780601f106121de57610100808354040283529160200191612209565b820191906000526020600020905b8154815290600101906020018083116121ec57829003601f168201915b50505091835250506003820154602082015260048201546001600160a01b03908116604083015260059092015490911660609091015295945050505050565b610ebd33838361380e565b60008281526019602090815260408083206001600160a01b03851684529091528120548015612283576001612286565b60005b949350505050565b6122998360006131a2565b60405163130f361d60e01b815273__$d8529f0216812a2dec6b96adf1943c3537$__9063130f361d906122da90869086908690600b90600a90600401615965565b60006040518083038186803b1580156122f257600080fd5b505af4158015612306573d6000803e3d6000fd5b50505050505050565b60006123208235602084013561374c565b73__$2873850e5b3f5697aafc2f5cd9f27cc884$__635be69415833560208501356123516060870160408801614ad5565b61235e6060880188615321565b6014546040516001600160e01b031960e089901b1681526123969695949392916001600160a01b031690600a90600e90600401615993565b602060405180830381865af4158015611ca5573d6000803e3d6000fd5b60006123c1833560c66131a2565b82356000908152600a6020526040812060030180546821b430b930b1ba32b960b91b9285929091829061176f906154ad565b6123fd33836132bc565b6124195760405162461bcd60e51b8152600401610cbb90615446565b612425848484846138d5565b50505050565b612437813560b56131a2565b6124498160200135826040013561374c565b6040516331a9108f60e11b81528135600482015273__$e2c9a8f399964af47bb173600dd9e5f662$__9063018212d19083903090636352211e90602401602060405180830381865afa1580156124a3573d6000803e3d6000fd5b505050506040513d601f19601f820116820180604052508101906124c791906153cf565b6013546040516001600160e01b031960e086901b168152610d469392916001600160a01b031690600e90600d906004016159e1565b6125078260c56131a2565b61251382826004613665565b61251d828261374c565b6000828152600e60209081526040808320848452825291829020600501805460ff60a01b1916600160a01b179055905182815283917f4f1db9708b537c1d26a7af4b235fd079bf2342d92a276e27eb6c8717e8bbcf939101611724565b6000818152600a6020526040902060020180546060919061259a906152ec565b80601f01602080910402602001604051908101604052809291908181526020018280546125c6906152ec565b80156126135780601f106125e857610100808354040283529160200191612613565b820191906000526020600020905b8154815290600101906020018083116125f657829003601f168201915b50505050509050919050565b61262b813560b76131a2565b61264861263e6040830160208401614ad5565b8260400135613556565b601354604051638f3334ff60e01b815273__$e2c9a8f399964af47bb173600dd9e5f662$__91638f3334ff91610d469185916001600160a01b0390911690600d90600401615a60565b61052b61269d82615ac3565b613908565b6126ae813560c26131a2565b6126bf813560208301356001613665565b6126ce8135602083013561374c565b73__$69db18565ecbefece480e92cc5f8fb1274$__6320828a02823560208401356126ff6060860160408701614ad5565b61270c6060870187615321565b600e6040518763ffffffff1660e01b8152600401610d4696959493929190615b76565b612737614770565b600a60008381526020019081526020016000206040518060c00160405290816000820154815260200160018201805461276f906152ec565b80601f016020809104026020016040519081016040528092919081815260200182805461279b906152ec565b80156127e85780601f106127bd576101008083540402835291602001916127e8565b820191906000526020600020905b8154815290600101906020018083116127cb57829003601f168201915b50505050508152602001600282018054612801906152ec565b80601f016020809104026020016040519081016040528092919081815260200182805461282d906152ec565b801561287a5780601f1061284f5761010080835404028352916020019161287a565b820191906000526020600020905b81548152906001019060200180831161285d57829003601f168201915b50505091835250506003820154602082015260048201546001600160a01b03908116604083015260059092015490911660609091015292915050565b60408051610100808201835260008083526020808401829052606084860181905284018290526080840182905260a0840182905260c0840182905260e08401829052868252600e8152848220868352815290849020845192830185528054835260018101549183019190915260028101805493949293919284019161293a906152ec565b80601f0160208091040260200160405190810160405280929190818152602001828054612966906152ec565b80156129b35780601f10612988576101008083540402835291602001916129b3565b820191906000526020600020905b81548152906001019060200180831161299657829003601f168201915b505050918352505060038201546001600160a01b039081166020830152600483015481166040830152600590920154918216606082015260ff600160a01b8304811615156080830152600160a81b909204909116151560a090910152905092915050565b601354604051632b05429560e21b8152600481018390526060916001600160a01b03169063ac150a5490602401600060405180830381865afa158015612a61573d6000803e3d6000fd5b505050506040513d6000823e601f3d908101601f19168201604052610bae9190810190615bb7565b601454600160a81b900460ff1615808015612ab157506014546001600160a01b90910460ff16105b80612ad25750303b158015612ad25750601454600160a01b900460ff166001145b612b355760405162461bcd60e51b815260206004820152602e60248201527f496e697469616c697a61626c653a20636f6e747261637420697320616c72656160448201526d191e481a5b9a5d1a585b1a5e995960921b6064820152608401610cbb565b6014805460ff60a01b1916600160a01b1790558015612b62576014805460ff60a81b1916600160a81b1790555b612b6e898989896139dd565b601380546001600160a01b03199081166001600160a01b0388811691909117909255601480548216878416179055601580548216868416179055601780549091169184169190911790556040514281527f400175a56dd3710794078f7b9dbe8296ac94c5a248dfd51bb22ed4ab9eaa9fbf9060200160405180910390a18015612c33576014805460ff60a81b19169055604051600181527f7f26b83ff96e1f2b6a682f133852f6798a09c465da95921460cefb38474024989060200160405180910390a15b505050505050505050565b612c47826130a6565b6001600160a01b038116611b91576000828152601860205260409020610eb09082613127565b6000818152600a6020526040902060010180546060919061259a906152ec565b612c96846130a6565b612ca0848461374c565b6000848152601a6020908152604080832086845282528083206001600160a01b0386168085529083529281902084905551838152859187917f488a41148fb8f04fec9e8e1f936444b9b70c0f084a5242092d8b4b01f6163d80910160405180910390a450505050565b612d15813560bc6131a2565b60135481356000908152600d602090815260408083208186013584529091529081902054905163bf5c00c160e01b815273__$e2c9a8f399964af47bb173600dd9e5f662$__9263bf5c00c192610d469286926001600160a01b03169190600401615c24565b612d83816130a6565b336000818152600c602052604080822080549085905590519092839285927fce95332e6082aebeb8058a7b56d1a109f67d6550552ed04d36aca4a6acd4d7de9190a45050565b6000612dd7843560cb6131a2565b601354604051633610bf0960e11b815265416e7955726960d01b916000916001600160a01b0390911690636c217e1290612e199084908990899060040161567b565b6020604051808303816000875af1158015612e38573d6000803e3d6000fd5b505050506040513d601f19601f82011682018060405250810190612e5c9190615617565b86356000908152600a60205260408120600301805492935090918290612e81906154ad565b919050819055905073__$2873850e5b3f5697aafc2f5cd9f27cc884$__6342a34a53888386868b8b604051602001612eba929190615955565b604051602081830303815290604052600e6040518763ffffffff1660e01b8152600401612eec96959493929190615630565b60006040518083038186803b158015612f0457600080fd5b505af4158015612f18573d6000803e3d6000fd5b50929998505050505050505050565b612f33813560b46131a2565b61052b8135612f486040840160208501614ad5565b836040013560405180604001604052806002815260200161060f60f31b815250613a2e565b612f79813560bf6131a2565b73__$d8529f0216812a2dec6b96adf1943c3537$__631dc831338235612fa56040850160208601614ad5565b612fb26040860186615321565b86356000908152600a60205260409081902090516001600160e01b031960e088901b168152610d46959493929190600401615c7c565b60006001600160e01b031982166380ac58cd60e01b148061301957506001600160e01b03198216635b5e139f60e01b145b80610bae57506301ffc9a760e01b6001600160e01b0319831614610bae565b600081815260046020526040902080546001600160a01b0319166001600160a01b038416908117909155819061306d826119f2565b6001600160a01b03167f8c5be1e5ebec7d5bd14f71427d1e84f3dd0314c0f7b2291e5b200ac8c7c3b92560405160405180910390a45050565b60006130b1826119f2565b9050336001600160a01b03821614806130e75750326001600160a01b0382161480156130e757506015546001600160a01b031633145b610ebd5760405162461bcd60e51b81526020600482015260116024820152702737ba21b430b930b1ba32b927bbb732b960791b6044820152606401610cbb565b600061313c836001600160a01b038416613cab565b9392505050565b60008381526019602090815260408083206001600160a01b038616808552908352928190208490555183815285917f4b0dcce4c30a5691ff14b7d4a8a27e2738b66289dc90120ebbc092812941bd2791015b60405180910390a3505050565b60006131ad836119f2565b9050336001600160a01b03821614806131e35750326001600160a01b0382161480156131e357506015546001600160a01b031633145b8061320c57506000838152601960209081526040808320338452909152902054600190831c8116145b610e8a5760405162461bcd60e51b81526020600482015260136024820152722737ba22b737bab3b42832b936b4b9b9b4b7b760691b6044820152606401610cbb565b6000818152600260205260409020546001600160a01b031661052b5760405162461bcd60e51b81526020600482015260126024820152714368617261637465724e6f7445786973747360701b6044820152606401610cbb565b600061313c836001600160a01b038416613d9e565b6000818152600260205260408120546001600160a01b03166133355760405162461bcd60e51b815260206004820152602c60248201527f4552433732313a206f70657261746f7220717565727920666f72206e6f6e657860448201526b34b9ba32b73a103a37b5b2b760a11b6064820152608401610cbb565b6000613340836119f2565b9050806001600160a01b0316846001600160a01b0316148061337b5750836001600160a01b031661337084610c46565b6001600160a01b0316145b8061228657506001600160a01b0380821660009081526005602090815260408083209388168352929052205460ff16612286565b826001600160a01b03166133c2826119f2565b6001600160a01b0316146134265760405162461bcd60e51b815260206004820152602560248201527f4552433732313a207472616e736665722066726f6d20696e636f72726563742060448201526437bbb732b960d91b6064820152608401610cbb565b6001600160a01b0382166134885760405162461bcd60e51b8152602060048201526024808201527f4552433732313a207472616e7366657220746f20746865207a65726f206164646044820152637265737360e01b6064820152608401610cbb565b613493838383613ded565b61349e600082613038565b6001600160a01b03831660009081526003602052604081208054600192906134c7908490615ca7565b90915550506001600160a01b03821660009081526003602052604081208054600192906134f5908490615cbe565b909155505060008181526002602052604080822080546001600160a01b0319166001600160a01b0386811691821790925591518493918716917fddf252ad1be2c89b69c2b068fc378daa952ba7f163c4a11628f55a4df523b3ef91a4505050565b6040516331a9108f60e11b8152600481018290526001600160a01b03831690636352211e90602401602060405180830381865afa15801561359b573d6000803e3d6000fd5b505050506040513d601f19601f820116820180604052508101906135bf91906153cf565b6001600160a01b0316610ebd5760405162461bcd60e51b815260206004820152600f60248201526e5245433732314e6f7445786973747360881b6044820152606401610cbb565b61361033826132bc565b61365c5760405162461bcd60e51b815260206004820152601b60248201527f4e4654426173653a204e6f744f776e65724f72417070726f76656400000000006044820152606401610cbb565b61052b81613f11565b6000613670846119f2565b9050336001600160a01b03821614806136a65750326001600160a01b0382161480156136a657506015546001600160a01b031633145b8061370057506000848152601a602090815260408083208684528252808320338452909152902054600190831c8116148061370057506000848152601a602090815260408083208684528252808320338452909152902054155b6124255760405162461bcd60e51b815260206004820152601e60248201527f4e6f74456e6f7567685065726d697373696f6e466f72546869734e6f746500006044820152606401610cbb565b6000828152600e60209081526040808320848452909152902060050154600160a01b900460ff16156137b05760405162461bcd60e51b815260206004820152600d60248201526c139bdd19525cd1195b195d1959609a1b6044820152606401610cbb565b6000828152600a6020526040902060030154811115610ebd5760405162461bcd60e51b815260206004820152600d60248201526c4e6f74654e6f7445786973747360981b6044820152606401610cbb565b6060600061313c83613fb8565b816001600160a01b0316836001600160a01b031614156138705760405162461bcd60e51b815260206004820152601960248201527f4552433732313a20617070726f766520746f2063616c6c6572000000000000006044820152606401610cbb565b6001600160a01b03838116600081815260056020908152604080832094871680845294825291829020805460ff191686151590811790915591519182527f17307eab39ab6107e8899845ad3d59bd9653f200f220920489ca2b5937696c319101613195565b6138e08484846133af565b6138ec84848484614013565b6124255760405162461bcd60e51b8152600401610cbb90615cd6565b6000601260008154613919906154ad565b9182905550825190915061392d9082614111565b604051632902741560e01b815273__$d8529f0216812a2dec6b96adf1943c3537$__9063290274159061396f9085906001908690600b90600a90600401615d28565b60006040518083038186803b15801561398757600080fd5b505af415801561399b573d6000803e3d6000fd5b505083516001600160a01b03166000908152600c602052604090205415159150610ebd90505790516001600160a01b03166000908152600c6020526040902055565b6139e98484848461412b565b7f414cd0b34676984f09a5f76ce9718d4062e50283abe0e7e274a9a5b4e0c99c308484848442604051613a20959493929190615dd1565b60405180910390a150505050565b6001600160a01b0383166000908152600c602052604090205415613aaa5760405162461bcd60e51b815260206004820152602d60248201527f546172676574206164647265737320616c726561647920686173207072696d6160448201526c393c9031b430b930b1ba32b91760991b6064820152608401610cbb565b6000601260008154613abb906154ad565b91829055509050613acc8482614111565b73__$d8529f0216812a2dec6b96adf1943c3537$__63290274156040518060a00160405280876001600160a01b03168152602001613b14886001600160a01b03166014614144565b815260200160405180602001604052806000815250815260200160006001600160a01b0316815260200160405180602001604052806000815250815250600084600b600a6040518663ffffffff1660e01b8152600401613b78959493929190615d28565b60006040518083038186803b158015613b9057600080fd5b505af4158015613ba4573d6000803e3d6000fd5b505050506001600160a01b0384166000908152600c602052604090819020829055516331a9108f60e11b81526004810186905273__$e2c9a8f399964af47bb173600dd9e5f662$__9063957f8a989087908490879087903090636352211e90602401602060405180830381865afa158015613c23573d6000803e3d6000fd5b505050506040513d601f19601f82011682018060405250810190613c4791906153cf565b6013546040516001600160e01b031960e089901b168152613c7f9695949392916001600160a01b031690600090600d90600401615e0b565b60006040518083038186803b158015613c9757600080fd5b505af4158015612c33573d6000803e3d6000fd5b60008181526001830160205260408120548015613d94576000613ccf600183615ca7565b8554909150600090613ce390600190615ca7565b9050818114613d48576000866000018281548110613d0357613d036157a8565b9060005260206000200154905080876000018481548110613d2657613d266157a8565b6000918252602080832090910192909255918252600188019052604090208390555b8554869080613d5957613d59615e63565b600190038181906000526020600020016000905590558560010160008681526020019081526020016000206000905560019350505050610bae565b6000915050610bae565b6000818152600183016020526040812054613de557508154600181810184556000848152602080822090930184905584548482528286019093526040902091909155610bae565b506000610bae565b6000818152601860205260408120613e04906142df565b600083815260186020526040812091925090613e1f90613801565b905060005b82811015613ecd57600084815260196020526040812083518290859085908110613e5057613e506157a8565b60200260200101516001600160a01b03166001600160a01b0316815260200190815260200160002081905550613eba828281518110613e9157613e916157a8565b60200260200101516018600087815260200190815260200160002061312790919063ffffffff16565b5080613ec5816154ad565b915050613e24565b506001600160a01b0385166000908152600c602052604090205415613f06576001600160a01b0385166000908152600c60205260408120555b610d728585856142e9565b6000613f1c826119f2565b9050613f2a81600084613ded565b613f35600083613038565b6001600160a01b0381166000908152600360205260408120805460019290613f5e908490615ca7565b909155505060008281526002602052604080822080546001600160a01b0319169055518391906001600160a01b038416907fddf252ad1be2c89b69c2b068fc378daa952ba7f163c4a11628f55a4df523b3ef908390a45050565b60608160000180548060200260200160405190810160405280929190818152602001828054801561261357602002820191906000526020600020905b815481526020019060010190808311613ff45750505050509050919050565b60006001600160a01b0384163b1561410657604051630a85bd0160e11b81526001600160a01b0385169063150b7a0290614057903390899088908890600401615e79565b6020604051808303816000875af1925050508015614092575060408051601f3d908101601f1916820190925261408f91810190615eb6565b60015b6140ec573d8080156140c0576040519150601f19603f3d011682016040523d82523d6000602084013e6140c5565b606091505b5080516140e45760405162461bcd60e51b8152600401610cbb90615cd6565b805181602001fd5b6001600160e01b031916630a85bd0160e11b149050612286565b506001949350505050565b610ebd8282604051806020016040528060008152506143a1565b614137600085856147b8565b50610d72600183836147b8565b60606000614153836002615ed3565b61415e906002615cbe565b6001600160401b0381111561417557614175614c3a565b6040519080825280601f01601f19166020018201604052801561419f576020820181803683370190505b509050600360fc1b816000815181106141ba576141ba6157a8565b60200101906001600160f81b031916908160001a905350600f60fb1b816001815181106141e9576141e96157a8565b60200101906001600160f81b031916908160001a905350600061420d846002615ed3565b614218906001615cbe565b90505b6001811115614290576f181899199a1a9b1b9c1cb0b131b232b360811b85600f166010811061424c5761424c6157a8565b1a60f81b828281518110614262576142626157a8565b60200101906001600160f81b031916908160001a90535060049490941c9361428981615ef2565b905061421b565b50831561313c5760405162461bcd60e51b815260206004820181905260248201527f537472696e67733a20686578206c656e67746820696e73756666696369656e746044820152606401610cbb565b6000610bae825490565b6001600160a01b0383166143445761433f81600880546000838152600960205260408120829055600182018355919091527ff3f7a9fe364faab93b216da50a3214154f22a0a2b415b23a84c8169e8b636ee30155565b614367565b816001600160a01b0316836001600160a01b0316146143675761436783826143d4565b6001600160a01b03821661437e57610e8a81614471565b826001600160a01b0316826001600160a01b031614610e8a57610e8a8282614520565b6143ab8383614564565b6143b86000848484614013565b610e8a5760405162461bcd60e51b8152600401610cbb90615cd6565b600060016143e184611a83565b6143eb9190615ca7565b60008381526007602052604090205490915080821461443e576001600160a01b03841660009081526006602090815260408083208584528252808320548484528184208190558352600790915290208190555b5060009182526007602090815260408084208490556001600160a01b039094168352600681528383209183525290812055565b60085460009061448390600190615ca7565b600083815260096020526040812054600880549394509092849081106144ab576144ab6157a8565b9060005260206000200154905080600883815481106144cc576144cc6157a8565b600091825260208083209091019290925582815260099091526040808220849055858252812055600880548061450457614504615e63565b6001900381819060005260206000200160009055905550505050565b600061452b83611a83565b6001600160a01b039093166000908152600660209081526040808320868452825280832085905593825260079052919091209190915550565b6001600160a01b0382166145ba5760405162461bcd60e51b815260206004820181905260248201527f4552433732313a206d696e7420746f20746865207a65726f20616464726573736044820152606401610cbb565b6000818152600260205260409020546001600160a01b03161561461f5760405162461bcd60e51b815260206004820152601c60248201527f4552433732313a20746f6b656e20616c7265616479206d696e746564000000006044820152606401610cbb565b61462b60008383613ded565b6001600160a01b0382166000908152600360205260408120805460019290614654908490615cbe565b909155505060008181526002602052604080822080546001600160a01b0319166001600160a01b03861690811790915590518392907fddf252ad1be2c89b69c2b068fc378daa952ba7f163c4a11628f55a4df523b3ef908290a45050565b5080546146be906152ec565b6000825580601f106146ce575050565b601f01602090049060005260206000209081019061052b919061482c565b8280546146f8906152ec565b90600052602060002090601f01602090048101928261471a5760008555614760565b82601f1061473357805160ff1916838001178555614760565b82800160010185558215614760579182015b82811115614760578251825591602001919060010190614745565b5061476c92915061482c565b5090565b6040518060c001604052806000815260200160608152602001606081526020016000815260200160006001600160a01b0316815260200160006001600160a01b031681525090565b8280546147c4906152ec565b90600052602060002090601f0160209004810192826147e65760008555614760565b82601f106147ff5782800160ff19823516178555614760565b82800160010185558215614760579182015b82811115614760578235825591602001919060010190614811565b5b8082111561476c576000815560010161482d565b6001600160e01b03198116811461052b57600080fd5b60006020828403121561486957600080fd5b813561313c81614841565b60005b8381101561488f578181015183820152602001614877565b838111156124255750506000910152565b600081518084526148b8816020860160208601614874565b601f01601f19169290920160200192915050565b60208152600061313c60208301846148a0565b6000602082840312156148f157600080fd5b5035919050565b60006060828403121561490a57600080fd5b50919050565b60006020828403121561492257600080fd5b81356001600160401b0381111561493857600080fd5b612286848285016148f8565b6001600160a01b038116811461052b57600080fd5b803561496481614944565b919050565b6000806040838503121561497c57600080fd5b823561498781614944565b946020939093013593505050565b600080604083850312156149a857600080fd5b8235915060208301356149ba81614944565b809150509250929050565b6000606082840312156149d757600080fd5b61313c83836148f8565b60006080828403121561490a57600080fd5b600060208284031215614a0557600080fd5b81356001600160401b03811115614a1b57600080fd5b612286848285016149e1565b600080600060608486031215614a3c57600080fd5b833592506020840135614a4e81614944565b929592945050506040919091013590565b600080600060608486031215614a7457600080fd5b8335614a7f81614944565b92506020840135614a4e81614944565b600060e0828403121561490a57600080fd5b600060208284031215614ab357600080fd5b81356001600160401b03811115614ac957600080fd5b61228684828501614a8f565b600060208284031215614ae757600080fd5b813561313c81614944565b600080600060608486031215614b0757600080fd5b83359250602084013591506040840135614b2081614944565b809150509250925092565b60006040828403121561490a57600080fd5b60008060608385031215614b5057600080fd5b82356001600160401b03811115614b6657600080fd5b614b7285828601614a8f565b925050614b828460208501614b2b565b90509250929050565b60008083601f840112614b9d57600080fd5b5081356001600160401b03811115614bb457600080fd5b602083019150836020828501011115614bcc57600080fd5b9250929050565b600080600060408486031215614be857600080fd5b8335925060208401356001600160401b03811115614c0557600080fd5b614c1186828701614b8b565b9497909650939450505050565b600060808284031215614c3057600080fd5b61313c83836149e1565b634e487b7160e01b600052604160045260246000fd5b60405160a081016001600160401b0381118282101715614c7257614c72614c3a565b60405290565b604051601f8201601f191681016001600160401b0381118282101715614ca057614ca0614c3a565b604052919050565b60006001600160401b03821115614cc157614cc1614c3a565b50601f01601f191660200190565b600082601f830112614ce057600080fd5b8135614cf3614cee82614ca8565b614c78565b818152846020838601011115614d0857600080fd5b816020850160208301376000918101602001919091529392505050565b60008060408385031215614d3857600080fd5b8235915060208301356001600160401b03811115614d5557600080fd5b614d6185828601614ccf565b9150509250929050565b60008060408385031215614d7e57600080fd5b82356001600160401b03811115614d9457600080fd5b614da085828601614a8f565b95602094909401359450505050565b60008060008060608587031215614dc557600080fd5b843593506020850135925060408501356001600160401b03811115614de957600080fd5b614df587828801614b8b565b95989497509550505050565b6020808252825182820181905260009190848201906040850190845b81811015614e425783516001600160a01b031683529284019291840191600101614e1d565b50909695505050505050565b60008060408385031215614e6157600080fd5b50508035926020909101359150565b60008060208385031215614e8357600080fd5b82356001600160401b0380821115614e9a57600080fd5b818501915085601f830112614eae57600080fd5b813581811115614ebd57600080fd5b8660208260051b8501011115614ed257600080fd5b60209290920196919550909350505050565b60008060408385031215614ef757600080fd5b82356001600160401b03811115614f0d57600080fd5b614f1985828601614a8f565b92505060208301356149ba81614944565b60008060208385031215614f3d57600080fd5b82356001600160401b03811115614f5357600080fd5b614f5f85828601614b8b565b90969095509350505050565b60208152815160208201526000602083015160c06040840152614f9160e08401826148a0565b90506040840151601f19848303016060850152614fae82826148a0565b91505060608401516080840152608084015160018060a01b0380821660a08601528060a08701511660c086015250508091505092915050565b8035801515811461496457600080fd5b6000806040838503121561500a57600080fd5b823561501581614944565b9150614b8260208401614fe7565b6000806000806080858703121561503957600080fd5b843561504481614944565b9350602085013561505481614944565b92506040850135915060608501356001600160401b0381111561507657600080fd5b61508287828801614ccf565b91505092959194509250565b600060a0828403121561490a57600080fd5b6000602082840312156150b257600080fd5b81356001600160401b038111156150c857600080fd5b6122868482850161508e565b602081528151602082015260208201516040820152600060408301516101008060608501526151076101208501836148a0565b9150606085015160018060a01b0380821660808701528060808801511660a0870152505060a085015161514560c08601826001600160a01b03169052565b5060c085015180151560e08601525060e0850151801515858301525090949350505050565b60008060008060008060008060c0898b03121561518657600080fd5b88356001600160401b038082111561519d57600080fd5b6151a98c838d01614b8b565b909a50985060208b01359150808211156151c257600080fd5b506151cf8b828c01614b8b565b90975095505060408901356151e381614944565b935060608901356151f381614944565b9250608089013561520381614944565b915060a089013561521381614944565b809150509295985092959890939650565b6000806040838503121561523757600080fd5b823561524281614944565b915060208301356149ba81614944565b6000806000806080858703121561526857600080fd5b8435935060208501359250604085013561528181614944565b9396929550929360600135925050565b6000806000604084860312156152a657600080fd5b83356001600160401b03808211156152bd57600080fd5b6152c987838801614a8f565b945060208601359150808211156152df57600080fd5b50614c1186828701614b8b565b600181811c9082168061530057607f821691505b6020821081141561490a57634e487b7160e01b600052602260045260246000fd5b6000808335601e1984360301811261533857600080fd5b8301803591506001600160401b0382111561535257600080fd5b602001915036819003821315614bcc57600080fd5b81835281816020850137506000828201602090810191909152601f909101601f19169091010190565b6001600160a01b038681168252851660208201526080604082018190526000906153bd9083018587615367565b90508260608301529695505050505050565b6000602082840312156153e157600080fd5b815161313c81614944565b60006101008b83528a6020840152896040840152806060840152615413818401898b615367565b6001600160a01b03978816608085015295871660a084015250509190931660c082015260e0019190915295945050505050565b60208082526031908201527f4552433732313a207472616e736665722063616c6c6572206973206e6f74206f6040820152701ddb995c881b9bdc88185c1c1c9bdd9959607a1b606082015260800190565b634e487b7160e01b600052601160045260246000fd5b60006000198214156154c1576154c1615497565b5060010190565b6000808335601e198436030181126154df57600080fd5b83016020810192503590506001600160401b038111156154fe57600080fd5b803603831315614bcc57600080fd5b80358252600061552060208301836154c8565b60e0602086015261553560e086018284615367565b915050604083013561554681614944565b6001600160a01b03818116604087015261556360608601866154c8565b92508684036060880152615578848483615367565b9350506080850135915061558b82614944565b16608085015261559e60a08401846154c8565b85830360a08701526155b1838284615367565b925050506155c160c08401614fe7565b151560c08501528091505092915050565b60c0815260006155e560c083018861550d565b602083810197909752604083019590955250606081019290925281830360808301526000835260a09091015201919050565b60006020828403121561562957600080fd5b5051919050565b60c08152600061564360c083018961550d565b876020840152866040840152856060840152828103608084015261566781866148a0565b9150508260a0830152979650505050505050565b838152604060208201526000615695604083018486615367565b95945050505050565b6060815283356060820152600060208501356156b981614944565b6001600160a01b038181166080850152604087013560a08501526156e060608801886154c8565b9250608060c08601526156f760e086018483615367565b96909116602085015250505060400152919050565b600080835481600182811c91508083168061572857607f831692505b602080841082141561574857634e487b7160e01b86526022600452602486fd5b81801561575c576001811461576d5761579a565b60ff1986168952848901965061579a565b60008a81526020902060005b868110156157925781548b820152908501908301615779565b505084890196505b509498975050505050505050565b634e487b7160e01b600052603260045260246000fd5b606081528335606082015260006157d860208601866154c8565b6080808501526157ec60e085018284615367565b915050604086013560a084015261580660608701876154c8565b848303605f190160c086015261581d838284615367565b6001600160a01b039790971660208601525050505060400152919050565b8581528460208201526080604082015260006153bd608083018587615367565b8335815260c08101602085013561587181614944565b6001600160a01b039081166020840152604086810135908401526060958601359583019590955292909316608084015260a09092019190915290565b8335815260a0810160208501356158c381614944565b6001600160a01b0390811660208401526040958601359583019590955292909316606084015260809092019190915290565b606081528335606082015260208401356080820152604084013560a0820152600061592360608601866154c8565b608060c085015261593860e085018284615367565b6001600160a01b0396909616602085015250505060400152919050565b8183823760009101908152919050565b85815260806020820152600061597f608083018688615367565b604083019490945250606001529392505050565b888152876020820152600060018060a01b03808916604084015260e060608401526159c260e08401888a615367565b951660808301525060a081019290925260c09091015295945050505050565b60a08152853560a0820152602086013560c0820152604086013560e082015260608601356101008201526000615a1a60808801886154c8565b60a0610120850152615a3161014085018284615367565b6001600160a01b0398891660208601529690971660408401525050606081019290925260809091015292915050565b606081528335606082015260006020850135615a7b81614944565b60018060a01b038082166080850152604087013560a0850152606087013560c0850152615aab60808801886154c8565b925060a060e08601526156f761010086018483615367565b600060a08236031215615ad557600080fd5b615add614c50565b615ae683614959565b815260208301356001600160401b0380821115615b0257600080fd5b615b0e36838701614ccf565b60208401526040850135915080821115615b2757600080fd5b615b3336838701614ccf565b6040840152615b4460608601614959565b60608401526080850135915080821115615b5d57600080fd5b50615b6a36828601614ccf565b60808301525092915050565b86815285602082015260018060a01b038516604082015260a060608201526000615ba460a083018587615367565b9050826080830152979650505050505050565b600060208284031215615bc957600080fd5b81516001600160401b03811115615bdf57600080fd5b8201601f81018413615bf057600080fd5b8051615bfe614cee82614ca8565b818152856020838501011115615c1357600080fd5b615695826020830160208601614874565b60608152833560608201526000615c3e60208601866154c8565b60606080850152615c5360c085018284615367565b60409788013560a08601526001600160a01b039690961660208501525050509092019190915290565b8581526001600160a01b03851660208201526080604082018190526000906153bd9083018587615367565b600082821015615cb957615cb9615497565b500390565b60008219821115615cd157615cd1615497565b500190565b60208082526032908201527f4552433732313a207472616e7366657220746f206e6f6e20455243373231526560408201527131b2b4bb32b91034b6b83632b6b2b73a32b960711b606082015260800190565b60a08152600060018060a01b038088511660a0840152602088015160a060c0850152615d586101408501826148a0565b90506040890151609f19808684030160e0870152615d7683836148a0565b92508360608c01511661010087015260808b0151935080868403016101208701525050615da381836148a0565b92505050615db5602083018715159052565b8460408301528360608301528260808301529695505050505050565b606081526000615de5606083018789615367565b8281036020840152615df8818688615367565b9150508260408301529695505050505050565b60006101008a8352896020840152886040840152806060840152615e31818401896148a0565b6001600160a01b03978816608085015295871660a084015250509190931660c082015260e00191909152949350505050565b634e487b7160e01b600052603160045260246000fd5b6001600160a01b0385811682528416602082015260408101839052608060608201819052600090615eac908301846148a0565b9695505050505050565b600060208284031215615ec857600080fd5b815161313c81614841565b6000816000190483118215151615615eed57615eed615497565b500290565b600081615f0157615f01615497565b50600019019056fea26469706673582212207c964137c1578d6647812d9ba9bd49363dc218079f61860370554e9f3703ef1364736f6c634300080a0033",
  "linkReferences": {
    "contracts/libraries/CharacterLogic.sol": {
      "CharacterLogic": [
        {
          "length": 20,
          "start": 7946
        },
        {
          "length": 20,
          "start": 8905
        },
        {
          "length": 20,
          "start": 12188
        },
        {
          "length": 20,
          "start": 14685
        },
        {
          "length": 20,
          "start": 15087
        }
      ]
    },
    "contracts/libraries/LinkLogic.sol": {
      "LinkLogic": [
        {
          "length": 20,
          "start": 3844
        },
        {
          "length": 20,
          "start": 4105
        },
        {
          "length": 20,
          "start": 5501
        },
        {
          "length": 20,
          "start": 5646
        },
        {
          "length": 20,
          "start": 6412
        },
        {
          "length": 20,
          "start": 6476
        },
        {
          "length": 20,
          "start": 7197
        },
        {
          "length": 20,
          "start": 7825
        },
        {
          "length": 20,
          "start": 8057
        },
        {
          "length": 20,
          "start": 9344
        },
        {
          "length": 20,
          "start": 9851
        },
        {
          "length": 20,
          "start": 11624
        },
        {
          "length": 20,
          "start": 15354
        }
      ]
    },
    "contracts/libraries/LinkModuleLogic.sol": {
      "LinkModuleLogic": [
        {
          "length": 20,
          "start": 3331
        },
        {
          "length": 20,
          "start": 9969
        }
      ]
    },
    "contracts/libraries/PostLogic.sol": {
      "PostLogic": [
        {
          "length": 20,
          "start": 4532
        },
        {
          "length": 20,
          "start": 5040
        },
        {
          "length": 20,
          "start": 6042
        },
        {
          "length": 20,
          "start": 6582
        },
        {
          "length": 20,
          "start": 7694
        },
        {
          "length": 20,
          "start": 8314
        },
        {
          "length": 20,
          "start": 9027
        },
        {
          "length": 20,
          "start": 11948
        }
      ]
    }
  },
  "deployedLinkReferences": {
    "contracts/libraries/CharacterLogic.sol": {
      "CharacterLogic": [
        {
          "length": 20,
          "start": 7913
        },
        {
          "length": 20,
          "start": 8872
        },
        {
          "length": 20,
          "start": 12155
        },
        {
          "length": 20,
          "start": 14652
        },
        {
          "length": 20,
          "start": 15054
        }
      ]
    },
    "contracts/libraries/LinkLogic.sol": {
      "LinkLogic": [
        {
          "length": 20,
          "start": 3811
        },
        {
          "length": 20,
          "start": 4072
        },
        {
          "length": 20,
          "start": 5468
        },
        {
          "length": 20,
          "start": 5613
        },
        {
          "length": 20,
          "start": 6379
        },
        {
          "length": 20,
          "start": 6443
        },
        {
          "length": 20,
          "start": 7164
        },
        {
          "length": 20,
          "start": 7792
        },
        {
          "length": 20,
          "start": 8024
        },
        {
          "length": 20,
          "start": 9311
        },
        {
          "length": 20,
          "start": 9818
        },
        {
          "length": 20,
          "start": 11591
        },
        {
          "length": 20,
          "start": 15321
        }
      ]
    },
    "contracts/libraries/LinkModuleLogic.sol": {
      "LinkModuleLogic": [
        {
          "length": 20,
          "start": 3298
        },
        {
          "length": 20,
          "start": 9936
        }
      ]
    },
    "contracts/libraries/PostLogic.sol": {
      "PostLogic": [
        {
          "length": 20,
          "start": 4499
        },
        {
          "length": 20,
          "start": 5007
        },
        {
          "length": 20,
          "start": 6009
        },
        {
          "length": 20,
          "start": 6549
        },
        {
          "length": 20,
          "start": 7661
        },
        {
          "length": 20,
          "start": 8281
        },
        {
          "length": 20,
          "start": 8994
        },
        {
          "length": 20,
          "start": 11915
        }
      ]
    }
  }
}