{
    "_format": "hh-sol-artifact-1",
    "contractName": "Web3Entry",
    "sourceName": "contracts/Web3Entry.sol",
    "abi": [
        {
            "anonymous": false,
            "inputs": [
                {
                    "indexed": true,
                    "internalType": "address",
                    "name": "owner",
                    "type": "address"
                },
                {
                    "indexed": true,
                    "internalType": "address",
                    "name": "approved",
                    "type": "address"
                },
                {
                    "indexed": true,
                    "internalType": "uint256",
                    "name": "tokenId",
                    "type": "uint256"
                }
            ],
            "name": "Approval",
            "type": "event"
        },
        {
            "anonymous": false,
            "inputs": [
                {
                    "indexed": true,
                    "internalType": "address",
                    "name": "owner",
                    "type": "address"
                },
                {
                    "indexed": true,
                    "internalType": "address",
                    "name": "operator",
                    "type": "address"
                },
                {
                    "indexed": false,
                    "internalType": "bool",
                    "name": "approved",
                    "type": "bool"
                }
            ],
            "name": "ApprovalForAll",
            "type": "event"
        },
        {
            "anonymous": false,
            "inputs": [
                {
                    "indexed": true,
                    "internalType": "address",
                    "name": "from",
                    "type": "address"
                },
                {
                    "indexed": true,
                    "internalType": "address",
                    "name": "to",
                    "type": "address"
                },
                {
                    "indexed": true,
                    "internalType": "uint256",
                    "name": "tokenId",
                    "type": "uint256"
                }
            ],
            "name": "Transfer",
            "type": "event"
        },
        {
            "inputs": [
                {
                    "internalType": "address",
                    "name": "to",
                    "type": "address"
                },
                {
                    "internalType": "uint256",
                    "name": "tokenId",
                    "type": "uint256"
                }
            ],
            "name": "approve",
            "outputs": [],
            "stateMutability": "nonpayable",
            "type": "function"
        },
        {
            "inputs": [
                {
                    "internalType": "uint256",
                    "name": "linklistId",
                    "type": "uint256"
                },
                {
                    "internalType": "uint256",
                    "name": "profileId",
                    "type": "uint256"
                }
            ],
            "name": "attachLinklist",
            "outputs": [],
            "stateMutability": "nonpayable",
            "type": "function"
        },
        {
            "inputs": [
                {
                    "internalType": "address",
                    "name": "owner",
                    "type": "address"
                }
            ],
            "name": "balanceOf",
            "outputs": [
                {
                    "internalType": "uint256",
                    "name": "",
                    "type": "uint256"
                }
            ],
            "stateMutability": "view",
            "type": "function"
        },
        {
            "inputs": [
                {
                    "internalType": "uint256",
                    "name": "tokenId",
                    "type": "uint256"
                }
            ],
            "name": "burn",
            "outputs": [],
            "stateMutability": "nonpayable",
            "type": "function"
        },
        {
            "inputs": [
                {
                    "internalType": "string",
                    "name": "handle",
                    "type": "string"
                },
                {
                    "internalType": "address",
                    "name": "account",
                    "type": "address"
                }
            ],
            "name": "canCreate",
            "outputs": [
                {
                    "internalType": "bool",
                    "name": "",
                    "type": "bool"
                }
            ],
            "stateMutability": "view",
            "type": "function"
        },
        {
            "inputs": [
                {
                    "components": [
                        {
                            "internalType": "address",
                            "name": "to",
                            "type": "address"
                        },
                        {
                            "internalType": "string",
                            "name": "handle",
                            "type": "string"
                        },
                        {
                            "internalType": "string",
                            "name": "uri",
                            "type": "string"
                        },
                        {
                            "internalType": "address",
                            "name": "linkModule",
                            "type": "address"
                        },
                        {
                            "internalType": "bytes",
                            "name": "linkModuleInitData",
                            "type": "bytes"
                        }
                    ],
                    "internalType": "struct DataTypes.CreateProfileData",
                    "name": "vars",
                    "type": "tuple"
                }
            ],
            "name": "createProfile",
            "outputs": [],
            "stateMutability": "nonpayable",
            "type": "function"
        },
        {
            "inputs": [
                {
                    "components": [
                        {
                            "internalType": "uint256",
                            "name": "fromProfileId",
                            "type": "uint256"
                        },
                        {
                            "internalType": "address",
                            "name": "to",
                            "type": "address"
                        },
                        {
                            "internalType": "bytes32",
                            "name": "linkType",
                            "type": "bytes32"
                        }
                    ],
                    "internalType": "struct DataTypes.createThenLinkProfileData",
                    "name": "vars",
                    "type": "tuple"
                }
            ],
            "name": "createThenLinkProfile",
            "outputs": [],
            "stateMutability": "nonpayable",
            "type": "function"
        },
        {
            "inputs": [
                {
                    "internalType": "uint256",
                    "name": "profileId",
                    "type": "uint256"
                },
                {
                    "internalType": "uint256",
                    "name": "noteId",
                    "type": "uint256"
                }
            ],
            "name": "deleteNote",
            "outputs": [],
            "stateMutability": "nonpayable",
            "type": "function"
        },
        {
            "inputs": [
                {
                    "internalType": "uint256",
                    "name": "linklistId",
                    "type": "uint256"
                },
                {
                    "internalType": "uint256",
                    "name": "profileId",
                    "type": "uint256"
                }
            ],
            "name": "detachLinklist",
            "outputs": [],
            "stateMutability": "nonpayable",
            "type": "function"
        },
        {
            "inputs": [
                {
                    "internalType": "uint256",
                    "name": "tokenId",
                    "type": "uint256"
                }
            ],
            "name": "getApproved",
            "outputs": [
                {
                    "internalType": "address",
                    "name": "",
                    "type": "address"
                }
            ],
            "stateMutability": "view",
            "type": "function"
        },
        {
            "inputs": [
                {
                    "internalType": "uint256",
                    "name": "profileId",
                    "type": "uint256"
                }
            ],
            "name": "getDispatcher",
            "outputs": [
                {
                    "internalType": "address",
                    "name": "",
                    "type": "address"
                }
            ],
            "stateMutability": "view",
            "type": "function"
        },
        {
            "inputs": [
                {
                    "internalType": "uint256",
                    "name": "profileId",
                    "type": "uint256"
                }
            ],
            "name": "getHandle",
            "outputs": [
                {
                    "internalType": "string",
                    "name": "",
                    "type": "string"
                }
            ],
            "stateMutability": "view",
            "type": "function"
        },
        {
            "inputs": [
                {
                    "internalType": "address",
                    "name": "account",
                    "type": "address"
                }
            ],
            "name": "getLinkModule4Address",
            "outputs": [
                {
                    "internalType": "address",
                    "name": "",
                    "type": "address"
                }
            ],
            "stateMutability": "view",
            "type": "function"
        },
        {
            "inputs": [
                {
                    "internalType": "address",
                    "name": "tokenAddress",
                    "type": "address"
                },
                {
                    "internalType": "uint256",
                    "name": "tokenId",
                    "type": "uint256"
                }
            ],
            "name": "getLinkModule4ERC721",
            "outputs": [
                {
                    "internalType": "address",
                    "name": "",
                    "type": "address"
                }
            ],
            "stateMutability": "view",
            "type": "function"
        },
        {
            "inputs": [
                {
                    "internalType": "uint256",
                    "name": "tokenId",
                    "type": "uint256"
                }
            ],
            "name": "getLinkModule4Linklist",
            "outputs": [
                {
                    "internalType": "address",
                    "name": "",
                    "type": "address"
                }
            ],
            "stateMutability": "view",
            "type": "function"
        },
        {
            "inputs": [],
            "name": "getLinklistContract",
            "outputs": [
                {
                    "internalType": "address",
                    "name": "",
                    "type": "address"
                }
            ],
            "stateMutability": "view",
            "type": "function"
        },
        {
            "inputs": [
                {
                    "internalType": "uint256",
                    "name": "profileId",
                    "type": "uint256"
                },
                {
                    "internalType": "bytes32",
                    "name": "linkType",
                    "type": "bytes32"
                }
            ],
            "name": "getLinklistId",
            "outputs": [
                {
                    "internalType": "uint256",
                    "name": "",
                    "type": "uint256"
                }
            ],
            "stateMutability": "view",
            "type": "function"
        },
        {
            "inputs": [
                {
                    "internalType": "uint256",
                    "name": "linkListId",
                    "type": "uint256"
                }
            ],
            "name": "getLinklistType",
            "outputs": [
                {
                    "internalType": "bytes32",
                    "name": "",
                    "type": "bytes32"
                }
            ],
            "stateMutability": "view",
            "type": "function"
        },
        {
            "inputs": [
                {
                    "internalType": "uint256",
                    "name": "tokenId",
                    "type": "uint256"
                }
            ],
            "name": "getLinklistUri",
            "outputs": [
                {
                    "internalType": "string",
                    "name": "",
                    "type": "string"
                }
            ],
            "stateMutability": "view",
            "type": "function"
        },
        {
            "inputs": [
                {
                    "internalType": "uint256",
                    "name": "profileId",
                    "type": "uint256"
                },
                {
                    "internalType": "uint256",
                    "name": "noteId",
                    "type": "uint256"
                }
            ],
            "name": "getNote",
            "outputs": [
                {
                    "components": [
                        {
                            "internalType": "bytes32",
                            "name": "linkItemType",
                            "type": "bytes32"
                        },
                        {
                            "internalType": "bytes32",
                            "name": "linkKey",
                            "type": "bytes32"
                        },
                        {
                            "internalType": "string",
                            "name": "contentUri",
                            "type": "string"
                        },
                        {
                            "internalType": "address",
                            "name": "linkModule",
                            "type": "address"
                        },
                        {
                            "internalType": "address",
                            "name": "mintModule",
                            "type": "address"
                        },
                        {
                            "internalType": "address",
                            "name": "mintNFT",
                            "type": "address"
                        },
                        {
                            "internalType": "bool",
                            "name": "deleted",
                            "type": "bool"
                        }
                    ],
                    "internalType": "struct DataTypes.Note",
                    "name": "",
                    "type": "tuple"
                }
            ],
            "stateMutability": "view",
            "type": "function"
        },
        {
            "inputs": [
                {
                    "internalType": "uint256",
                    "name": "profileId",
                    "type": "uint256"
                },
                {
                    "internalType": "uint256",
                    "name": "offset",
                    "type": "uint256"
                },
                {
                    "internalType": "uint256",
                    "name": "limit",
                    "type": "uint256"
                }
            ],
            "name": "getNotesByProfileId",
            "outputs": [
                {
                    "components": [
                        {
                            "internalType": "bytes32",
                            "name": "linkItemType",
                            "type": "bytes32"
                        },
                        {
                            "internalType": "bytes32",
                            "name": "linkKey",
                            "type": "bytes32"
                        },
                        {
                            "internalType": "string",
                            "name": "contentUri",
                            "type": "string"
                        },
                        {
                            "internalType": "address",
                            "name": "linkModule",
                            "type": "address"
                        },
                        {
                            "internalType": "address",
                            "name": "mintModule",
                            "type": "address"
                        },
                        {
                            "internalType": "address",
                            "name": "mintNFT",
                            "type": "address"
                        },
                        {
                            "internalType": "bool",
                            "name": "deleted",
                            "type": "bool"
                        }
                    ],
                    "internalType": "struct DataTypes.Note[]",
                    "name": "results",
                    "type": "tuple[]"
                }
            ],
            "stateMutability": "view",
            "type": "function"
        },
        {
            "inputs": [],
            "name": "getPeriphery",
            "outputs": [
                {
                    "internalType": "address",
                    "name": "",
                    "type": "address"
                }
            ],
            "stateMutability": "view",
            "type": "function"
        },
        {
            "inputs": [
                {
                    "internalType": "address",
                    "name": "account",
                    "type": "address"
                }
            ],
            "name": "getPrimaryProfileId",
            "outputs": [
                {
                    "internalType": "uint256",
                    "name": "",
                    "type": "uint256"
                }
            ],
            "stateMutability": "view",
            "type": "function"
        },
        {
            "inputs": [
                {
                    "internalType": "uint256",
                    "name": "profileId",
                    "type": "uint256"
                }
            ],
            "name": "getProfile",
            "outputs": [
                {
                    "components": [
                        {
                            "internalType": "uint256",
                            "name": "profileId",
                            "type": "uint256"
                        },
                        {
                            "internalType": "string",
                            "name": "handle",
                            "type": "string"
                        },
                        {
                            "internalType": "string",
                            "name": "uri",
                            "type": "string"
                        },
                        {
                            "internalType": "uint256",
                            "name": "noteCount",
                            "type": "uint256"
                        },
                        {
                            "internalType": "address",
                            "name": "socialToken",
                            "type": "address"
                        },
                        {
                            "internalType": "address",
                            "name": "linkModule",
                            "type": "address"
                        }
                    ],
                    "internalType": "struct DataTypes.Profile",
                    "name": "",
                    "type": "tuple"
                }
            ],
            "stateMutability": "view",
            "type": "function"
        },
        {
            "inputs": [
                {
                    "internalType": "string",
                    "name": "handle",
                    "type": "string"
                }
            ],
            "name": "getProfileByHandle",
            "outputs": [
                {
                    "components": [
                        {
                            "internalType": "uint256",
                            "name": "profileId",
                            "type": "uint256"
                        },
                        {
                            "internalType": "string",
                            "name": "handle",
                            "type": "string"
                        },
                        {
                            "internalType": "string",
                            "name": "uri",
                            "type": "string"
                        },
                        {
                            "internalType": "uint256",
                            "name": "noteCount",
                            "type": "uint256"
                        },
                        {
                            "internalType": "address",
                            "name": "socialToken",
                            "type": "address"
                        },
                        {
                            "internalType": "address",
                            "name": "linkModule",
                            "type": "address"
                        }
                    ],
                    "internalType": "struct DataTypes.Profile",
                    "name": "",
                    "type": "tuple"
                }
            ],
            "stateMutability": "view",
            "type": "function"
        },
        {
            "inputs": [
                {
                    "internalType": "uint256",
                    "name": "profileId",
                    "type": "uint256"
                }
            ],
            "name": "getProfileUri",
            "outputs": [
                {
                    "internalType": "string",
                    "name": "",
                    "type": "string"
                }
            ],
            "stateMutability": "view",
            "type": "function"
        },
        {
            "inputs": [],
            "name": "getResolver",
            "outputs": [
                {
                    "internalType": "address",
                    "name": "",
                    "type": "address"
                }
            ],
            "stateMutability": "view",
            "type": "function"
        },
        {
            "inputs": [],
            "name": "getRevision",
            "outputs": [
                {
                    "internalType": "uint256",
                    "name": "",
                    "type": "uint256"
                }
            ],
            "stateMutability": "pure",
            "type": "function"
        },
        {
            "inputs": [
                {
                    "internalType": "string",
                    "name": "_name",
                    "type": "string"
                },
                {
                    "internalType": "string",
                    "name": "_symbol",
                    "type": "string"
                },
                {
                    "internalType": "address",
                    "name": "_linklistContract",
                    "type": "address"
                },
                {
                    "internalType": "address",
                    "name": "_mintNFTImpl",
                    "type": "address"
                },
                {
                    "internalType": "address",
                    "name": "_periphery",
                    "type": "address"
                },
                {
                    "internalType": "address",
                    "name": "_resolver",
                    "type": "address"
                }
            ],
            "name": "initialize",
            "outputs": [],
            "stateMutability": "nonpayable",
            "type": "function"
        },
        {
            "inputs": [
                {
                    "internalType": "address",
                    "name": "owner",
                    "type": "address"
                },
                {
                    "internalType": "address",
                    "name": "operator",
                    "type": "address"
                }
            ],
            "name": "isApprovedForAll",
            "outputs": [
                {
                    "internalType": "bool",
                    "name": "",
                    "type": "bool"
                }
            ],
            "stateMutability": "view",
            "type": "function"
        },
        {
            "inputs": [
                {
                    "internalType": "uint256",
                    "name": "profileId",
                    "type": "uint256"
                }
            ],
            "name": "isPrimaryProfile",
            "outputs": [
                {
                    "internalType": "bool",
                    "name": "",
                    "type": "bool"
                }
            ],
            "stateMutability": "view",
            "type": "function"
        },
        {
            "inputs": [
                {
                    "components": [
                        {
                            "internalType": "uint256",
                            "name": "fromProfileId",
                            "type": "uint256"
                        },
                        {
                            "internalType": "address",
                            "name": "ethAddress",
                            "type": "address"
                        },
                        {
                            "internalType": "bytes32",
                            "name": "linkType",
                            "type": "bytes32"
                        },
                        {
                            "internalType": "bytes",
                            "name": "data",
                            "type": "bytes"
                        }
                    ],
                    "internalType": "struct DataTypes.linkAddressData",
                    "name": "vars",
                    "type": "tuple"
                }
            ],
            "name": "linkAddress",
            "outputs": [],
            "stateMutability": "nonpayable",
            "type": "function"
        },
        {
            "inputs": [
                {
                    "components": [
                        {
                            "internalType": "uint256",
                            "name": "fromProfileId",
                            "type": "uint256"
                        },
                        {
                            "internalType": "string",
                            "name": "toUri",
                            "type": "string"
                        },
                        {
                            "internalType": "bytes32",
                            "name": "linkType",
                            "type": "bytes32"
                        },
                        {
                            "internalType": "bytes",
                            "name": "data",
                            "type": "bytes"
                        }
                    ],
                    "internalType": "struct DataTypes.linkAnyUriData",
                    "name": "vars",
                    "type": "tuple"
                }
            ],
            "name": "linkAnyUri",
            "outputs": [],
            "stateMutability": "nonpayable",
            "type": "function"
        },
        {
            "inputs": [
                {
                    "components": [
                        {
                            "internalType": "uint256",
                            "name": "fromProfileId",
                            "type": "uint256"
                        },
                        {
                            "internalType": "address",
                            "name": "tokenAddress",
                            "type": "address"
                        },
                        {
                            "internalType": "uint256",
                            "name": "tokenId",
                            "type": "uint256"
                        },
                        {
                            "internalType": "bytes32",
                            "name": "linkType",
                            "type": "bytes32"
                        },
                        {
                            "internalType": "bytes",
                            "name": "data",
                            "type": "bytes"
                        }
                    ],
                    "internalType": "struct DataTypes.linkERC721Data",
                    "name": "vars",
                    "type": "tuple"
                }
            ],
            "name": "linkERC721",
            "outputs": [],
            "stateMutability": "nonpayable",
            "type": "function"
        },
        {
            "inputs": [
                {
                    "components": [
                        {
                            "internalType": "uint256",
                            "name": "fromProfileId",
                            "type": "uint256"
                        },
                        {
                            "internalType": "uint256",
                            "name": "toLinkListId",
                            "type": "uint256"
                        },
                        {
                            "internalType": "bytes32",
                            "name": "linkType",
                            "type": "bytes32"
                        },
                        {
                            "internalType": "bytes",
                            "name": "data",
                            "type": "bytes"
                        }
                    ],
                    "internalType": "struct DataTypes.linkLinklistData",
                    "name": "vars",
                    "type": "tuple"
                }
            ],
            "name": "linkLinklist",
            "outputs": [],
            "stateMutability": "nonpayable",
            "type": "function"
        },
        {
            "inputs": [
                {
                    "components": [
                        {
                            "internalType": "uint256",
                            "name": "fromProfileId",
                            "type": "uint256"
                        },
                        {
                            "internalType": "uint256",
                            "name": "toProfileId",
                            "type": "uint256"
                        },
                        {
                            "internalType": "uint256",
                            "name": "toNoteId",
                            "type": "uint256"
                        },
                        {
                            "internalType": "bytes32",
                            "name": "linkType",
                            "type": "bytes32"
                        },
                        {
                            "internalType": "bytes",
                            "name": "data",
                            "type": "bytes"
                        }
                    ],
                    "internalType": "struct DataTypes.linkNoteData",
                    "name": "vars",
                    "type": "tuple"
                }
            ],
            "name": "linkNote",
            "outputs": [],
            "stateMutability": "nonpayable",
            "type": "function"
        },
        {
            "inputs": [
                {
                    "components": [
                        {
                            "internalType": "uint256",
                            "name": "fromProfileId",
                            "type": "uint256"
                        },
                        {
                            "internalType": "uint256",
                            "name": "toProfileId",
                            "type": "uint256"
                        },
                        {
                            "internalType": "bytes32",
                            "name": "linkType",
                            "type": "bytes32"
                        },
                        {
                            "internalType": "bytes",
                            "name": "data",
                            "type": "bytes"
                        }
                    ],
                    "internalType": "struct DataTypes.linkProfileData",
                    "name": "vars",
                    "type": "tuple"
                }
            ],
            "name": "linkProfile",
            "outputs": [],
            "stateMutability": "nonpayable",
            "type": "function"
        },
        {
            "inputs": [
                {
                    "internalType": "uint256",
                    "name": "fromProfileId",
                    "type": "uint256"
                },
                {
                    "components": [
                        {
                            "internalType": "uint256",
                            "name": "fromProfileId",
                            "type": "uint256"
                        },
                        {
                            "internalType": "uint256",
                            "name": "toProfileId",
                            "type": "uint256"
                        },
                        {
                            "internalType": "bytes32",
                            "name": "linkType",
                            "type": "bytes32"
                        }
                    ],
                    "internalType": "struct DataTypes.ProfileLinkStruct",
                    "name": "linkData",
                    "type": "tuple"
                },
                {
                    "internalType": "bytes32",
                    "name": "linkType",
                    "type": "bytes32"
                }
            ],
            "name": "linkProfileLink",
            "outputs": [],
            "stateMutability": "nonpayable",
            "type": "function"
        },
        {
            "inputs": [
                {
                    "components": [
                        {
                            "internalType": "uint256",
                            "name": "profileId",
                            "type": "uint256"
                        },
                        {
                            "internalType": "uint256",
                            "name": "noteId",
                            "type": "uint256"
                        },
                        {
                            "internalType": "address",
                            "name": "to",
                            "type": "address"
                        },
                        {
                            "internalType": "bytes",
                            "name": "mintModuleData",
                            "type": "bytes"
                        }
                    ],
                    "internalType": "struct DataTypes.MintNoteData",
                    "name": "vars",
                    "type": "tuple"
                }
            ],
            "name": "mintNote",
            "outputs": [
                {
                    "internalType": "uint256",
                    "name": "",
                    "type": "uint256"
                }
            ],
            "stateMutability": "nonpayable",
            "type": "function"
        },
        {
            "inputs": [],
            "name": "name",
            "outputs": [
                {
                    "internalType": "string",
                    "name": "",
                    "type": "string"
                }
            ],
            "stateMutability": "view",
            "type": "function"
        },
        {
            "inputs": [
                {
                    "internalType": "uint256",
                    "name": "tokenId",
                    "type": "uint256"
                }
            ],
            "name": "ownerOf",
            "outputs": [
                {
                    "internalType": "address",
                    "name": "",
                    "type": "address"
                }
            ],
            "stateMutability": "view",
            "type": "function"
        },
        {
            "inputs": [
                {
                    "components": [
                        {
                            "internalType": "uint256",
                            "name": "profileId",
                            "type": "uint256"
                        },
                        {
                            "internalType": "string",
                            "name": "contentUri",
                            "type": "string"
                        },
                        {
                            "internalType": "address",
                            "name": "linkModule",
                            "type": "address"
                        },
                        {
                            "internalType": "bytes",
                            "name": "linkModuleInitData",
                            "type": "bytes"
                        },
                        {
                            "internalType": "address",
                            "name": "mintModule",
                            "type": "address"
                        },
                        {
                            "internalType": "bytes",
                            "name": "mintModuleInitData",
                            "type": "bytes"
                        }
                    ],
                    "internalType": "struct DataTypes.PostNoteData",
                    "name": "vars",
                    "type": "tuple"
                }
            ],
            "name": "postNote",
            "outputs": [
                {
                    "internalType": "uint256",
                    "name": "",
                    "type": "uint256"
                }
            ],
            "stateMutability": "nonpayable",
            "type": "function"
        },
        {
            "inputs": [
                {
                    "components": [
                        {
                            "internalType": "uint256",
                            "name": "profileId",
                            "type": "uint256"
                        },
                        {
                            "internalType": "string",
                            "name": "contentUri",
                            "type": "string"
                        },
                        {
                            "internalType": "address",
                            "name": "linkModule",
                            "type": "address"
                        },
                        {
                            "internalType": "bytes",
                            "name": "linkModuleInitData",
                            "type": "bytes"
                        },
                        {
                            "internalType": "address",
                            "name": "mintModule",
                            "type": "address"
                        },
                        {
                            "internalType": "bytes",
                            "name": "mintModuleInitData",
                            "type": "bytes"
                        }
                    ],
                    "internalType": "struct DataTypes.PostNoteData",
                    "name": "noteData",
                    "type": "tuple"
                },
                {
                    "internalType": "address",
                    "name": "ethAddress",
                    "type": "address"
                }
            ],
            "name": "postNote4Address",
            "outputs": [
                {
                    "internalType": "uint256",
                    "name": "",
                    "type": "uint256"
                }
            ],
            "stateMutability": "nonpayable",
            "type": "function"
        },
        {
            "inputs": [
                {
                    "components": [
                        {
                            "internalType": "uint256",
                            "name": "profileId",
                            "type": "uint256"
                        },
                        {
                            "internalType": "string",
                            "name": "contentUri",
                            "type": "string"
                        },
                        {
                            "internalType": "address",
                            "name": "linkModule",
                            "type": "address"
                        },
                        {
                            "internalType": "bytes",
                            "name": "linkModuleInitData",
                            "type": "bytes"
                        },
                        {
                            "internalType": "address",
                            "name": "mintModule",
                            "type": "address"
                        },
                        {
                            "internalType": "bytes",
                            "name": "mintModuleInitData",
                            "type": "bytes"
                        }
                    ],
                    "internalType": "struct DataTypes.PostNoteData",
                    "name": "postNoteData",
                    "type": "tuple"
                },
                {
                    "internalType": "string",
                    "name": "uri",
                    "type": "string"
                }
            ],
            "name": "postNote4AnyUri",
            "outputs": [
                {
                    "internalType": "uint256",
                    "name": "",
                    "type": "uint256"
                }
            ],
            "stateMutability": "nonpayable",
            "type": "function"
        },
        {
            "inputs": [
                {
                    "components": [
                        {
                            "internalType": "uint256",
                            "name": "profileId",
                            "type": "uint256"
                        },
                        {
                            "internalType": "string",
                            "name": "contentUri",
                            "type": "string"
                        },
                        {
                            "internalType": "address",
                            "name": "linkModule",
                            "type": "address"
                        },
                        {
                            "internalType": "bytes",
                            "name": "linkModuleInitData",
                            "type": "bytes"
                        },
                        {
                            "internalType": "address",
                            "name": "mintModule",
                            "type": "address"
                        },
                        {
                            "internalType": "bytes",
                            "name": "mintModuleInitData",
                            "type": "bytes"
                        }
                    ],
                    "internalType": "struct DataTypes.PostNoteData",
                    "name": "postNoteData",
                    "type": "tuple"
                },
                {
                    "components": [
                        {
                            "internalType": "address",
                            "name": "tokenAddress",
                            "type": "address"
                        },
                        {
                            "internalType": "uint256",
                            "name": "erc721TokenId",
                            "type": "uint256"
                        }
                    ],
                    "internalType": "struct DataTypes.ERC721Struct",
                    "name": "erc721",
                    "type": "tuple"
                }
            ],
            "name": "postNote4ERC721",
            "outputs": [
                {
                    "internalType": "uint256",
                    "name": "",
                    "type": "uint256"
                }
            ],
            "stateMutability": "nonpayable",
            "type": "function"
        },
        {
            "inputs": [
                {
                    "components": [
                        {
                            "internalType": "uint256",
                            "name": "profileId",
                            "type": "uint256"
                        },
                        {
                            "internalType": "string",
                            "name": "contentUri",
                            "type": "string"
                        },
                        {
                            "internalType": "address",
                            "name": "linkModule",
                            "type": "address"
                        },
                        {
                            "internalType": "bytes",
                            "name": "linkModuleInitData",
                            "type": "bytes"
                        },
                        {
                            "internalType": "address",
                            "name": "mintModule",
                            "type": "address"
                        },
                        {
                            "internalType": "bytes",
                            "name": "mintModuleInitData",
                            "type": "bytes"
                        }
                    ],
                    "internalType": "struct DataTypes.PostNoteData",
                    "name": "noteData",
                    "type": "tuple"
                },
                {
                    "internalType": "uint256",
                    "name": "toLinklistId",
                    "type": "uint256"
                }
            ],
            "name": "postNote4Linklist",
            "outputs": [
                {
                    "internalType": "uint256",
                    "name": "",
                    "type": "uint256"
                }
            ],
            "stateMutability": "nonpayable",
            "type": "function"
        },
        {
            "inputs": [
                {
                    "components": [
                        {
                            "internalType": "uint256",
                            "name": "profileId",
                            "type": "uint256"
                        },
                        {
                            "internalType": "string",
                            "name": "contentUri",
                            "type": "string"
                        },
                        {
                            "internalType": "address",
                            "name": "linkModule",
                            "type": "address"
                        },
                        {
                            "internalType": "bytes",
                            "name": "linkModuleInitData",
                            "type": "bytes"
                        },
                        {
                            "internalType": "address",
                            "name": "mintModule",
                            "type": "address"
                        },
                        {
                            "internalType": "bytes",
                            "name": "mintModuleInitData",
                            "type": "bytes"
                        }
                    ],
                    "internalType": "struct DataTypes.PostNoteData",
                    "name": "postNoteData",
                    "type": "tuple"
                },
                {
                    "components": [
                        {
                            "internalType": "uint256",
                            "name": "profileId",
                            "type": "uint256"
                        },
                        {
                            "internalType": "uint256",
                            "name": "noteId",
                            "type": "uint256"
                        }
                    ],
                    "internalType": "struct DataTypes.NoteStruct",
                    "name": "note",
                    "type": "tuple"
                }
            ],
            "name": "postNote4Note",
            "outputs": [
                {
                    "internalType": "uint256",
                    "name": "",
                    "type": "uint256"
                }
            ],
            "stateMutability": "nonpayable",
            "type": "function"
        },
        {
            "inputs": [
                {
                    "components": [
                        {
                            "internalType": "uint256",
                            "name": "profileId",
                            "type": "uint256"
                        },
                        {
                            "internalType": "string",
                            "name": "contentUri",
                            "type": "string"
                        },
                        {
                            "internalType": "address",
                            "name": "linkModule",
                            "type": "address"
                        },
                        {
                            "internalType": "bytes",
                            "name": "linkModuleInitData",
                            "type": "bytes"
                        },
                        {
                            "internalType": "address",
                            "name": "mintModule",
                            "type": "address"
                        },
                        {
                            "internalType": "bytes",
                            "name": "mintModuleInitData",
                            "type": "bytes"
                        }
                    ],
                    "internalType": "struct DataTypes.PostNoteData",
                    "name": "postNoteData",
                    "type": "tuple"
                },
                {
                    "internalType": "uint256",
                    "name": "toProfileId",
                    "type": "uint256"
                }
            ],
            "name": "postNote4Profile",
            "outputs": [
                {
                    "internalType": "uint256",
                    "name": "",
                    "type": "uint256"
                }
            ],
            "stateMutability": "nonpayable",
            "type": "function"
        },
        {
            "inputs": [],
            "name": "resolver",
            "outputs": [
                {
                    "internalType": "address",
                    "name": "",
                    "type": "address"
                }
            ],
            "stateMutability": "view",
            "type": "function"
        },
        {
            "inputs": [
                {
                    "internalType": "address",
                    "name": "from",
                    "type": "address"
                },
                {
                    "internalType": "address",
                    "name": "to",
                    "type": "address"
                },
                {
                    "internalType": "uint256",
                    "name": "tokenId",
                    "type": "uint256"
                }
            ],
            "name": "safeTransferFrom",
            "outputs": [],
            "stateMutability": "nonpayable",
            "type": "function"
        },
        {
            "inputs": [
                {
                    "internalType": "address",
                    "name": "from",
                    "type": "address"
                },
                {
                    "internalType": "address",
                    "name": "to",
                    "type": "address"
                },
                {
                    "internalType": "uint256",
                    "name": "tokenId",
                    "type": "uint256"
                },
                {
                    "internalType": "bytes",
                    "name": "_data",
                    "type": "bytes"
                }
            ],
            "name": "safeTransferFrom",
            "outputs": [],
            "stateMutability": "nonpayable",
            "type": "function"
        },
        {
            "inputs": [
                {
                    "internalType": "address",
                    "name": "operator",
                    "type": "address"
                },
                {
                    "internalType": "bool",
                    "name": "approved",
                    "type": "bool"
                }
            ],
            "name": "setApprovalForAll",
            "outputs": [],
            "stateMutability": "nonpayable",
            "type": "function"
        },
        {
            "inputs": [
                {
                    "internalType": "uint256",
                    "name": "profileId",
                    "type": "uint256"
                },
                {
                    "internalType": "address",
                    "name": "dispatcher",
                    "type": "address"
                }
            ],
            "name": "setDispatcher",
            "outputs": [],
            "stateMutability": "nonpayable",
            "type": "function"
        },
        {
            "inputs": [
                {
                    "internalType": "uint256",
                    "name": "profileId",
                    "type": "uint256"
                },
                {
                    "internalType": "string",
                    "name": "newHandle",
                    "type": "string"
                }
            ],
            "name": "setHandle",
            "outputs": [],
            "stateMutability": "nonpayable",
            "type": "function"
        },
        {
            "inputs": [
                {
                    "components": [
                        {
                            "internalType": "address",
                            "name": "account",
                            "type": "address"
                        },
                        {
                            "internalType": "address",
                            "name": "linkModule",
                            "type": "address"
                        },
                        {
                            "internalType": "bytes",
                            "name": "linkModuleInitData",
                            "type": "bytes"
                        }
                    ],
                    "internalType": "struct DataTypes.setLinkModule4AddressData",
                    "name": "vars",
                    "type": "tuple"
                }
            ],
            "name": "setLinkModule4Address",
            "outputs": [],
            "stateMutability": "nonpayable",
            "type": "function"
        },
        {
            "inputs": [
                {
                    "components": [
                        {
                            "internalType": "address",
                            "name": "tokenAddress",
                            "type": "address"
                        },
                        {
                            "internalType": "uint256",
                            "name": "tokenId",
                            "type": "uint256"
                        },
                        {
                            "internalType": "address",
                            "name": "linkModule",
                            "type": "address"
                        },
                        {
                            "internalType": "bytes",
                            "name": "linkModuleInitData",
                            "type": "bytes"
                        }
                    ],
                    "internalType": "struct DataTypes.setLinkModule4ERC721Data",
                    "name": "vars",
                    "type": "tuple"
                }
            ],
            "name": "setLinkModule4ERC721",
            "outputs": [],
            "stateMutability": "nonpayable",
            "type": "function"
        },
        {
            "inputs": [
                {
                    "components": [
                        {
                            "internalType": "uint256",
                            "name": "linklistId",
                            "type": "uint256"
                        },
                        {
                            "internalType": "address",
                            "name": "linkModule",
                            "type": "address"
                        },
                        {
                            "internalType": "bytes",
                            "name": "linkModuleInitData",
                            "type": "bytes"
                        }
                    ],
                    "internalType": "struct DataTypes.setLinkModule4LinklistData",
                    "name": "vars",
                    "type": "tuple"
                }
            ],
            "name": "setLinkModule4Linklist",
            "outputs": [],
            "stateMutability": "nonpayable",
            "type": "function"
        },
        {
            "inputs": [
                {
                    "components": [
                        {
                            "internalType": "uint256",
                            "name": "profileId",
                            "type": "uint256"
                        },
                        {
                            "internalType": "uint256",
                            "name": "noteId",
                            "type": "uint256"
                        },
                        {
                            "internalType": "address",
                            "name": "linkModule",
                            "type": "address"
                        },
                        {
                            "internalType": "bytes",
                            "name": "linkModuleInitData",
                            "type": "bytes"
                        }
                    ],
                    "internalType": "struct DataTypes.setLinkModule4NoteData",
                    "name": "vars",
                    "type": "tuple"
                }
            ],
            "name": "setLinkModule4Note",
            "outputs": [],
            "stateMutability": "nonpayable",
            "type": "function"
        },
        {
            "inputs": [
                {
                    "components": [
                        {
                            "internalType": "uint256",
                            "name": "profileId",
                            "type": "uint256"
                        },
                        {
                            "internalType": "address",
                            "name": "linkModule",
                            "type": "address"
                        },
                        {
                            "internalType": "bytes",
                            "name": "linkModuleInitData",
                            "type": "bytes"
                        }
                    ],
                    "internalType": "struct DataTypes.setLinkModule4ProfileData",
                    "name": "vars",
                    "type": "tuple"
                }
            ],
            "name": "setLinkModule4Profile",
            "outputs": [],
            "stateMutability": "nonpayable",
            "type": "function"
        },
        {
            "inputs": [
                {
                    "internalType": "uint256",
                    "name": "linklistId",
                    "type": "uint256"
                },
                {
                    "internalType": "string",
                    "name": "uri",
                    "type": "string"
                }
            ],
            "name": "setLinklistUri",
            "outputs": [],
            "stateMutability": "nonpayable",
            "type": "function"
        },
        {
            "inputs": [
                {
                    "components": [
                        {
                            "internalType": "uint256",
                            "name": "profileId",
                            "type": "uint256"
                        },
                        {
                            "internalType": "uint256",
                            "name": "noteId",
                            "type": "uint256"
                        },
                        {
                            "internalType": "address",
                            "name": "mintModule",
                            "type": "address"
                        },
                        {
                            "internalType": "bytes",
                            "name": "mintModuleInitData",
                            "type": "bytes"
                        }
                    ],
                    "internalType": "struct DataTypes.setMintModule4NoteData",
                    "name": "vars",
                    "type": "tuple"
                }
            ],
            "name": "setMintModule4Note",
            "outputs": [],
            "stateMutability": "nonpayable",
            "type": "function"
        },
        {
            "inputs": [
                {
                    "internalType": "uint256",
                    "name": "profileId",
                    "type": "uint256"
                }
            ],
            "name": "setPrimaryProfileId",
            "outputs": [],
            "stateMutability": "nonpayable",
            "type": "function"
        },
        {
            "inputs": [
                {
                    "internalType": "uint256",
                    "name": "profileId",
                    "type": "uint256"
                },
                {
                    "internalType": "string",
                    "name": "newUri",
                    "type": "string"
                }
            ],
            "name": "setProfileUri",
            "outputs": [],
            "stateMutability": "nonpayable",
            "type": "function"
        },
        {
            "inputs": [
                {
                    "internalType": "uint256",
                    "name": "profileId",
                    "type": "uint256"
                },
                {
                    "internalType": "address",
                    "name": "tokenAddress",
                    "type": "address"
                }
            ],
            "name": "setSocialToken",
            "outputs": [],
            "stateMutability": "nonpayable",
            "type": "function"
        },
        {
            "inputs": [
                {
                    "internalType": "bytes4",
                    "name": "interfaceId",
                    "type": "bytes4"
                }
            ],
            "name": "supportsInterface",
            "outputs": [
                {
                    "internalType": "bool",
                    "name": "",
                    "type": "bool"
                }
            ],
            "stateMutability": "view",
            "type": "function"
        },
        {
            "inputs": [],
            "name": "symbol",
            "outputs": [
                {
                    "internalType": "string",
                    "name": "",
                    "type": "string"
                }
            ],
            "stateMutability": "view",
            "type": "function"
        },
        {
            "inputs": [
                {
                    "internalType": "uint256",
                    "name": "index",
                    "type": "uint256"
                }
            ],
            "name": "tokenByIndex",
            "outputs": [
                {
                    "internalType": "uint256",
                    "name": "",
                    "type": "uint256"
                }
            ],
            "stateMutability": "view",
            "type": "function"
        },
        {
            "inputs": [
                {
                    "internalType": "address",
                    "name": "owner",
                    "type": "address"
                },
                {
                    "internalType": "uint256",
                    "name": "index",
                    "type": "uint256"
                }
            ],
            "name": "tokenOfOwnerByIndex",
            "outputs": [
                {
                    "internalType": "uint256",
                    "name": "",
                    "type": "uint256"
                }
            ],
            "stateMutability": "view",
            "type": "function"
        },
        {
            "inputs": [
                {
                    "internalType": "uint256",
                    "name": "profileId",
                    "type": "uint256"
                }
            ],
            "name": "tokenURI",
            "outputs": [
                {
                    "internalType": "string",
                    "name": "",
                    "type": "string"
                }
            ],
            "stateMutability": "view",
            "type": "function"
        },
        {
            "inputs": [],
            "name": "totalSupply",
            "outputs": [
                {
                    "internalType": "uint256",
                    "name": "",
                    "type": "uint256"
                }
            ],
            "stateMutability": "view",
            "type": "function"
        },
        {
            "inputs": [
                {
                    "internalType": "address",
                    "name": "from",
                    "type": "address"
                },
                {
                    "internalType": "address",
                    "name": "to",
                    "type": "address"
                },
                {
                    "internalType": "uint256",
                    "name": "tokenId",
                    "type": "uint256"
                }
            ],
            "name": "transferFrom",
            "outputs": [],
            "stateMutability": "nonpayable",
            "type": "function"
        },
        {
            "inputs": [
                {
                    "components": [
                        {
                            "internalType": "uint256",
                            "name": "fromProfileId",
                            "type": "uint256"
                        },
                        {
                            "internalType": "address",
                            "name": "ethAddress",
                            "type": "address"
                        },
                        {
                            "internalType": "bytes32",
                            "name": "linkType",
                            "type": "bytes32"
                        },
                        {
                            "internalType": "bytes",
                            "name": "data",
                            "type": "bytes"
                        }
                    ],
                    "internalType": "struct DataTypes.linkAddressData",
                    "name": "vars",
                    "type": "tuple"
                }
            ],
            "name": "unlinkAddress",
            "outputs": [],
            "stateMutability": "nonpayable",
            "type": "function"
        },
        {
            "inputs": [
                {
                    "components": [
                        {
                            "internalType": "uint256",
                            "name": "fromProfileId",
                            "type": "uint256"
                        },
                        {
                            "internalType": "string",
                            "name": "toUri",
                            "type": "string"
                        },
                        {
                            "internalType": "bytes32",
                            "name": "linkType",
                            "type": "bytes32"
                        }
                    ],
                    "internalType": "struct DataTypes.unlinkAnyUriData",
                    "name": "vars",
                    "type": "tuple"
                }
            ],
            "name": "unlinkAnyUri",
            "outputs": [],
            "stateMutability": "nonpayable",
            "type": "function"
        },
        {
            "inputs": [
                {
                    "components": [
                        {
                            "internalType": "uint256",
                            "name": "fromProfileId",
                            "type": "uint256"
                        },
                        {
                            "internalType": "address",
                            "name": "tokenAddress",
                            "type": "address"
                        },
                        {
                            "internalType": "uint256",
                            "name": "tokenId",
                            "type": "uint256"
                        },
                        {
                            "internalType": "bytes32",
                            "name": "linkType",
                            "type": "bytes32"
                        }
                    ],
                    "internalType": "struct DataTypes.unlinkERC721Data",
                    "name": "vars",
                    "type": "tuple"
                }
            ],
            "name": "unlinkERC721",
            "outputs": [],
            "stateMutability": "nonpayable",
            "type": "function"
        },
        {
            "inputs": [
                {
                    "components": [
                        {
                            "internalType": "uint256",
                            "name": "fromProfileId",
                            "type": "uint256"
                        },
                        {
                            "internalType": "uint256",
                            "name": "toLinkListId",
                            "type": "uint256"
                        },
                        {
                            "internalType": "bytes32",
                            "name": "linkType",
                            "type": "bytes32"
                        },
                        {
                            "internalType": "bytes",
                            "name": "data",
                            "type": "bytes"
                        }
                    ],
                    "internalType": "struct DataTypes.linkLinklistData",
                    "name": "vars",
                    "type": "tuple"
                }
            ],
            "name": "unlinkLinklist",
            "outputs": [],
            "stateMutability": "nonpayable",
            "type": "function"
        },
        {
            "inputs": [
                {
                    "components": [
                        {
                            "internalType": "uint256",
                            "name": "fromProfileId",
                            "type": "uint256"
                        },
                        {
                            "internalType": "uint256",
                            "name": "toProfileId",
                            "type": "uint256"
                        },
                        {
                            "internalType": "uint256",
                            "name": "toNoteId",
                            "type": "uint256"
                        },
                        {
                            "internalType": "bytes32",
                            "name": "linkType",
                            "type": "bytes32"
                        }
                    ],
                    "internalType": "struct DataTypes.unlinkNoteData",
                    "name": "vars",
                    "type": "tuple"
                }
            ],
            "name": "unlinkNote",
            "outputs": [],
            "stateMutability": "nonpayable",
            "type": "function"
        },
        {
            "inputs": [
                {
                    "components": [
                        {
                            "internalType": "uint256",
                            "name": "fromProfileId",
                            "type": "uint256"
                        },
                        {
                            "internalType": "uint256",
                            "name": "toProfileId",
                            "type": "uint256"
                        },
                        {
                            "internalType": "bytes32",
                            "name": "linkType",
                            "type": "bytes32"
                        }
                    ],
                    "internalType": "struct DataTypes.unlinkProfileData",
                    "name": "vars",
                    "type": "tuple"
                }
            ],
            "name": "unlinkProfile",
            "outputs": [],
            "stateMutability": "nonpayable",
            "type": "function"
        },
        {
            "inputs": [
                {
                    "internalType": "uint256",
                    "name": "fromProfileId",
                    "type": "uint256"
                },
                {
                    "components": [
                        {
                            "internalType": "uint256",
                            "name": "fromProfileId",
                            "type": "uint256"
                        },
                        {
                            "internalType": "uint256",
                            "name": "toProfileId",
                            "type": "uint256"
                        },
                        {
                            "internalType": "bytes32",
                            "name": "linkType",
                            "type": "bytes32"
                        }
                    ],
                    "internalType": "struct DataTypes.ProfileLinkStruct",
                    "name": "linkData",
                    "type": "tuple"
                },
                {
                    "internalType": "bytes32",
                    "name": "linkType",
                    "type": "bytes32"
                }
            ],
            "name": "unlinkProfileLink",
            "outputs": [],
            "stateMutability": "nonpayable",
            "type": "function"
        }
    ],
    "bytecode": "0x608060405234801561001057600080fd5b50615dca80620000216000396000f3fe608060405234801561001057600080fd5b506004361061046a5760003560e01c806386833c881161024c578063c053f6b811610146578063d70e10c6116100c3578063e985e9c511610087578063e985e9c514610a98578063ec81d19414610ad4578063ef0828ab14610ae7578063f08f4f6414610afa578063fe9299fb14610b0d57600080fd5b8063d70e10c614610a14578063db491e8014610a3f578063db8c198d14610a5f578063dca2713514610a72578063e56f2fe414610a8557600080fd5b8063cb8e757e1161010a578063cb8e757e146109b5578063cba4f5cc146109c8578063d23b320b146109db578063d36a2dce146109ee578063d56bb97514610a0157600080fd5b8063c053f6b814610958578063c2a6fe3b14610969578063c387c4531461097c578063c7009c6b1461098f578063c87b56dd146109a257600080fd5b8063a6e6178d116101d4578063b88d4fde11610198578063b88d4fde146108f9578063b9ad7c7f1461090c578063b9d328451461091f578063bd5f69cb14610932578063bfd24f471461094557600080fd5b8063a6e6178d1461089c578063a7ccb4bf146108af578063a914c76e146108c2578063a9dc491d146108d5578063b1533d71146108e657600080fd5b806395d89b411161021b57806395d89b411461084857806395d9fa7d146108505780639864c307146108635780639c78a69514610876578063a22cb4651461088957600080fd5b806386833c88146107fc5780638b4ca06a1461080f5780638da57e70146108225780638ef0f6721461083557600080fd5b806331b9d08c116103685780635b507cfd116102e55780637936da0e116102a95780637936da0e146107905780637c392b51146107a35780637daca6d0146107b657806383d37175146107c9578063867884e6146107e957600080fd5b80635b507cfd146107315780635fb88183146107445780636352211e1461075757806369492c971461076a57806370a082311461077d57600080fd5b806342966c681161032c57806342966c68146106bc5780634f6ccce7146106cf578063515d42d2146106e2578063540528b9146106f5578063570477fb1461071e57600080fd5b806331b9d08c1461064457806333f06ee614610670578063388f50831461068357806340ad34d81461069657806342842e0e146106a957600080fd5b80630c4dd5f2116103f657806323b872dd116103ba57806323b872dd146105e7578063251a99cf146105fa578063295cb43e1461060d5780632c2631cb146106205780632f745c591461063157600080fd5b80630c4dd5f2146105665780631316529d1461057957806318160ddd146105805780631bb4d231146105885780632209d145146105b157600080fd5b806308cb68ff1161043d57806308cb68ff146104ea578063094d618c146104ff578063095ea7b3146105205780630ab6beba146105335780630c16de101461054657600080fd5b806301ffc9a71461046f57806304f3bcec1461049757806306fdde03146104c2578063081812fc146104d7575b600080fd5b61048261047d3660046147f7565b610b36565b60405190151581526020015b60405180910390f35b6017546104aa906001600160a01b031681565b6040516001600160a01b03909116815260200161048e565b6104ca610b61565b60405161048e919061486c565b6104aa6104e536600461487f565b610bf3565b6104fd6104f83660046148b0565b610c8d565b005b61051261050d366004614908565b610d26565b60405190815260200161048e565b6104fd61052e36600461496b565b610f35565b6104fd610541366004614997565b61104b565b6105596105543660046149fb565b611088565b60405161048e9190614a3c565b6104fd6105743660046148b0565b611237565b6003610512565b600854610512565b610512610596366004614ab8565b6001600160a01b03166000908152600c602052604090205490565b6104aa6105bf36600461496b565b6001600160a01b03918216600090815260106020908152604080832093835292905220541690565b6104fd6105f5366004614ad5565b61129c565b6104fd610608366004614997565b6112cd565b6104fd61061b36600461487f565b61135d565b6015546001600160a01b03166104aa565b61051261063f36600461496b565b6113a3565b6104aa610652366004614ab8565b6001600160a01b039081166000908152601160205260409020541690565b6104fd61067e366004614b16565b611439565b6104fd610691366004614b73565b6114ad565b6104fd6106a4366004614ba7565b611500565b6104fd6106b7366004614ad5565b61157a565b6104fd6106ca36600461487f565b611595565b6105126106dd36600461487f565b611632565b6104fd6106f0366004614bc3565b6116c5565b6104aa61070336600461487f565b6000908152601660205260409020546001600160a01b031690565b6104fd61072c366004614be5565b6117f3565b6104fd61073f3660046148b0565b611892565b6104fd610752366004614b73565b61190b565b6104aa61076536600461487f565b61195e565b6104fd610778366004614b73565b6119d5565b61051261078b366004614ab8565b611a5b565b6104fd61079e366004614bc3565b611ae2565b6104fd6107b1366004614b16565b611ba7565b6104826107c4366004614c1b565b611c0c565b6107dc6107d7366004614c71565b611d93565b60405161048e9190614d0c565b6104fd6107f7366004614ba7565b611fa8565b6104fd61080a366004614b73565b612018565b61051261081d36600461487f565b612087565b610512610830366004614d6e565b6120f3565b610512610843366004614dbf565b612182565b6104ca6121fb565b6104fd61085e366004614e03565b61220a565b6104fd610871366004614b73565b612290565b610512610884366004614e28565b6122e3565b6104fd610897366004614e83565b612458565b6104fd6108aa366004614b16565b612463565b6105126108bd366004614b73565b6124fb565b6104fd6108d0366004614b73565b61259f565b6017546001600160a01b03166104aa565b6105126108f4366004614dbf565b61269c565b6104fd610907366004614f23565b6126d9565b6104fd61091a366004614b73565b612711565b6104fd61092d366004614fe3565b612780565b6104fd610940366004614fe3565b6127e8565b6104fd610953366004614e03565b612945565b6013546001600160a01b03166104aa565b6104fd610977366004614bc3565b612958565b61048261098a36600461487f565b61299a565b6104fd61099d366004614be5565b6129c8565b6104ca6109b036600461487f565b612a1e565b6104fd6109c3366004614fe3565b612ac3565b6104ca6109d636600461487f565b612b33565b6104fd6109e9366004614b73565b612b3e565b6105126109fc366004615017565b612bb8565b610512610a0f366004614908565b612c64565b610512610a22366004614bc3565b6000918252600d6020908152604080842092845291905290205490565b610a52610a4d366004614bc3565b612d97565b60405161048e919061504b565b6104fd610a6d366004614b73565b612edd565b6104ca610a8036600461487f565b612f27565b6104fd610a9336600461505e565b612f99565b610482610aa6366004615118565b6001600160a01b03918216600090815260056020908152604080832093909416825291909152205460ff1690565b6104ca610ae236600461487f565b6130f6565b6104fd610af53660046148b0565b613116565b610559610b0836600461487f565b613185565b6104aa610b1b36600461487f565b6000908152600f60205260409020546001600160a01b031690565b60006001600160e01b0319821663780e9d6360e01b1480610b5b5750610b5b8261330c565b92915050565b606060008054610b7090615146565b80601f0160208091040260200160405190810160405280929190818152602001828054610b9c90615146565b8015610be95780601f10610bbe57610100808354040283529160200191610be9565b820191906000526020600020905b815481529060010190602001808311610bcc57829003601f168201915b5050505050905090565b6000818152600260205260408120546001600160a01b0316610c715760405162461bcd60e51b815260206004820152602c60248201527f4552433732313a20617070726f76656420717565727920666f72206e6f6e657860448201526b34b9ba32b73a103a37b5b2b760a11b60648201526084015b60405180910390fd5b506000908152600460205260409020546001600160a01b031690565b73__$69db18565ecbefece480e92cc5f8fb1274$__63dfc34f25610cb46020840184614ab8565b610cc46040850160208601614ab8565b610cd1604086018661517b565b60116040518663ffffffff1660e01b8152600401610cf39594939291906151ea565b60006040518083038186803b158015610d0b57600080fd5b505af4158015610d1f573d6000803e3d6000fd5b5050505050565b6000610d32833561335c565b610d4c610d426020840184614ab8565b83602001356133fc565b694552433732314c696e6b60b01b6000610d696020850185614ab8565b8460200135604051602001610dab9291906545524337323160d01b815260609290921b6bffffffffffffffffffffffff19166006830152601a820152603a0190565b60408051601f1981840301815291905280516020918201206013549092506001600160a01b031690632ea24efc90600090610de890880188614ab8565b6040516001600160e01b031960e085901b16815260048101929092526001600160a01b0316602482015260208701356044820152606401600060405180830381600087803b158015610e3957600080fd5b505af1158015610e4d573d6000803e3d6000fd5b50505085356000908152600a602052604081206003018054919250908290610e749061523f565b9182905550905073__$2873850e5b3f5697aafc2f5cd9f27cc884$__6342a34a5387838686610ea660208c018c614ab8565b604080516001600160a01b039092166020838101919091528d0135908201526060015b604051602081830303815290604052600e6040518763ffffffff1660e01b8152600401610efb9695949392919061534d565b60006040518083038186803b158015610f1357600080fd5b505af4158015610f27573d6000803e3d6000fd5b509298975050505050505050565b6000610f408261195e565b9050806001600160a01b0316836001600160a01b03161415610fae5760405162461bcd60e51b815260206004820152602160248201527f4552433732313a20617070726f76616c20746f2063757272656e74206f776e656044820152603960f91b6064820152608401610c68565b336001600160a01b0382161480610fca5750610fca8133610aa6565b61103c5760405162461bcd60e51b815260206004820152603860248201527f4552433732313a20617070726f76652063616c6c6572206973206e6f74206f7760448201527f6e6572206e6f7220617070726f76656420666f7220616c6c00000000000000006064820152608401610c68565b61104683836134ac565b505050565b61108581356110606040840160208501614ab8565b836040013560405180604001604052806002815260200161060f60f31b81525061351a565b50565b6110906146c6565b600083836040516110a2929190615398565b604080519182900382206000818152600b602090815283822054808352600a82529184902060c08601909452835485526001840180549396509194939290840191906110ed90615146565b80601f016020809104026020016040519081016040528092919081815260200182805461111990615146565b80156111665780601f1061113b57610100808354040283529160200191611166565b820191906000526020600020905b81548152906001019060200180831161114957829003601f168201915b5050505050815260200160028201805461117f90615146565b80601f01602080910402602001604051908101604052809291908181526020018280546111ab90615146565b80156111f85780601f106111cd576101008083540402835291602001916111f8565b820191906000526020600020905b8154815290600101906020018083116111db57829003601f168201915b50505091835250506003820154602082015260048201546001600160a01b03908116604083015260059092015490911660609091015295945050505050565b611241813561379e565b73__$69db18565ecbefece480e92cc5f8fb1274$__636252159e823561126d6040850160208601614ab8565b61127a604086018661517b565b600f6040518663ffffffff1660e01b8152600401610cf39594939291906153a8565b6112a6338261385e565b6112c25760405162461bcd60e51b8152600401610c68906153d3565b611046838383613955565b6112d7813561335c565b60135481356000818152600d60209081526040808320818701358085529083529281902054905163eb23376360e01b8152600481019490945290850135602484015260448301919091526001600160a01b039092166064820152608481019190915273__$e2c9a8f399964af47bb173600dd9e5f662$__9063eb2337639060a401610cf3565b6113668161335c565b336000818152600c6020526040808220849055518392917f444dbf26d795c263ce4e5f2fccaac8e71b73cb37091f74e9e4f76cd98b55f8d391a350565b60006113ae83611a5b565b82106114105760405162461bcd60e51b815260206004820152602b60248201527f455243373231456e756d657261626c653a206f776e657220696e646578206f7560448201526a74206f6620626f756e647360a81b6064820152608401610c68565b506001600160a01b03919091166000908152600660209081526040808320938352929052205490565b6114428361379e565b601354604051633c17845760e11b81526001600160a01b039091169063782f08ae9061147690869086908690600401615424565b600060405180830381600087803b15801561149057600080fd5b505af11580156114a4573d6000803e3d6000fd5b50505050505050565b6114b7813561335c565b60135460405163e4bb4f2360e01b815273__$e2c9a8f399964af47bb173600dd9e5f662$__9163e4bb4f2391610cf39185916001600160a01b0390911690600d90600401615495565b61150a813561335c565b60135460408051635cebf08d60e11b81528335600482015260208401356024820152908301356044820152606083013560648201526001600160a01b039091166084820152600d60a482015273__$e2c9a8f399964af47bb173600dd9e5f662$__9063b9d7e11a9060c401610cf3565b611046838383604051806020016040528060008152506126d9565b6000818152600a602052604080822090516115b391600101906154c3565b60408051918290039091206000818152600b6020908152838220829055858252600a9052918220828155909250906115ee600183018261470e565b6115fc60028301600061470e565b50600060038201556004810180546001600160a01b031990811690915560059091018054909116905561162e82613afc565b5050565b600061163d60085490565b82106116a05760405162461bcd60e51b815260206004820152602c60248201527f455243373231456e756d657261626c653a20676c6f62616c20696e646578206f60448201526b7574206f6620626f756e647360a01b6064820152608401610c68565b600882815481106116b3576116b361555f565b90600052602060002001549050919050565b6116ce8161335c565b60135460405162fba02760e01b8152600481018490526000916001600160a01b03169062fba02790602401602060405180830381865afa158015611716573d6000803e3d6000fd5b505050506040513d601f19601f8201168201806040525081019061173a9190615575565b601354604051631c5b266960e21b815260048101869052336024820152604481018590529192506001600160a01b03169063716c99a490606401600060405180830381600087803b15801561178e57600080fd5b505af11580156117a2573d6000803e3d6000fd5b5050506000838152600d6020908152604080832085845290915280822086905551839250849186917f94703ec1dd639b589d05fa7c0c14ee1e83b906bfb5f50642cc7ea415a81722889190a4505050565b6117fc8361335c565b60135482356000908152600d602090815260408083208187013584529091529081902054905163d1b430f760e01b815273__$e2c9a8f399964af47bb173600dd9e5f662$__9263d1b430f792611866928892889288926001600160a01b039092169160040161558e565b60006040518083038186803b15801561187e57600080fd5b505af41580156114a4573d6000803e3d6000fd5b61189c813561335c565b73__$da066dc100670b51e733250a114f607b42$__631e2b88ba82356118c86040850160208601614ab8565b6118d5604086018661517b565b86356000908152600a60205260409081902090516001600160e01b031960e088901b168152610cf39594939291906004016153a8565b611915813561335c565b6013546040516332f107bf60e01b815273__$e2c9a8f399964af47bb173600dd9e5f662$__916332f107bf91610cf39185916001600160a01b0390911690600d906004016155db565b6000818152600260205260408120546001600160a01b031680610b5b5760405162461bcd60e51b815260206004820152602960248201527f4552433732313a206f776e657220717565727920666f72206e6f6e657869737460448201526832b73a103a37b5b2b760b91b6064820152608401610c68565b6119ef6119e56020830183614ab8565b8260200135613b5b565b73__$69db18565ecbefece480e92cc5f8fb1274$__63384afeb3611a166020840184614ab8565b6020840135611a2b6060860160408701614ab8565b611a38606087018761517b565b60106040518763ffffffff1660e01b8152600401610cf396959493929190615658565b60006001600160a01b038216611ac65760405162461bcd60e51b815260206004820152602a60248201527f4552433732313a2062616c616e636520717565727920666f7220746865207a65604482015269726f206164647265737360b01b6064820152608401610c68565b506001600160a01b031660009081526003602052604090205490565b611aeb8161335c565b60135460405162fba02760e01b8152600481018490526000916001600160a01b03169062fba02790602401602060405180830381865afa158015611b33573d6000803e3d6000fd5b505050506040513d601f19601f82011682018060405250810190611b579190615575565b6000838152600d60209081526040808320848452909152808220829055519192508291849186917f5751ba9aebec2dcd504f8865b0e0c98a772403773fe528fce2fce580c9a8a1659190a4505050565b611bb08361335c565b6000838152600a60205260409020611bcc906002018383614748565b50827fc6b6b2c87fb0784186dd03398c7203c866d0ae59539fa3158aecbc86cb587a958383604051611bff92919061569f565b60405180910390a2505050565b6017546000906001600160a01b0316611c2757506001611d8c565b60175460405163599d32cd60e01b81526000916001600160a01b03169063599d32cd90611c5a908890889060040161569f565b602060405180830381865afa158015611c77573d6000803e3d6000fd5b505050506040513d601f19601f82011682018060405250810190611c9b91906156b3565b601754604051630354faeb60e41b81529192506000916001600160a01b039091169063354faeb090611cd3908990899060040161569f565b602060405180830381865afa158015611cf0573d6000803e3d6000fd5b505050506040513d601f19601f82011682018060405250810190611d1491906156b3565b9050836001600160a01b0316826001600160a01b03161480611d475750836001600160a01b0316816001600160a01b0316145b15611d5757600192505050611d8c565b6001600160a01b038216158015611d7557506001600160a01b038116155b15611d8557600192505050611d8c565b6000925050505b9392505050565b6000838152600a6020526040902060030154606090611dbb83611db686846156d0565b613c15565b9250826001600160401b03811115611dd557611dd5614eb6565b604051908082528060200260200182016040528015611e3d57816020015b6040805160e0810182526000808252602080830182905260609383018490529282018190526080820181905260a0820181905260c08201528252600019909201910181611df35790505b509150808410611e4d5750611d8c565b835b83811015611f9f57600e600087815260200190815260200160002060008281526020019081526020016000206040518060e00160405290816000820154815260200160018201548152602001600282018054611eaa90615146565b80601f0160208091040260200160405190810160405280929190818152602001828054611ed690615146565b8015611f235780601f10611ef857610100808354040283529160200191611f23565b820191906000526020600020905b815481529060010190602001808311611f0657829003601f168201915b505050918352505060038201546001600160a01b0390811660208301526004830154811660408301526005909201549182166060820152600160a01b90910460ff1615156080909101528351849083908110611f8157611f8161555f565b60200260200101819052508080611f979061523f565b915050611e4f565b50509392505050565b611fb2813561335c565b60135481356000908152600d6020908152604080832060608601358452909152908190205490516317e9a8b160e31b815273__$e2c9a8f399964af47bb173600dd9e5f662$__9263bf4d458892610cf39286926001600160a01b031691906004016156e7565b612022813561335c565b60135481356000908152600d6020908152604080832081860135845290915290819020549051631a530d7760e21b815273__$e2c9a8f399964af47bb173600dd9e5f662$__9263694c35dc92610cf39286926001600160a01b03169190600401615760565b60135460405162fba02760e01b8152600481018390526000916001600160a01b03169062fba02790602401602060405180830381865afa1580156120cf573d6000803e3d6000fd5b505050506040513d601f19601f82011682018060405250810190610b5b9190615575565b60006120ff833561335c565b82356000908152600a6020526040812060030180546a416464726573734c696e6b60a81b926001600160a01b038616929091829061213c9061523f565b919050819055905073__$2873850e5b3f5697aafc2f5cd9f27cc884$__6342a34a53878386868a604051602001610ec991906001600160a01b0391909116815260200190565b600061218e833561335c565b82356000908152600a6020526040812060030180546a50726f66696c654c696e6b60a81b928592909182906121c29061523f565b919050819055905073__$2873850e5b3f5697aafc2f5cd9f27cc884$__6342a34a53878386868a604051602001610ec991815260200190565b606060018054610b7090615146565b6122138261335c565b60405163470c9bf360e11b8152600481018390526001600160a01b0382166024820152600a604482015273__$da066dc100670b51e733250a114f607b42$__90638e1937e69060640160006040518083038186803b15801561227457600080fd5b505af4158015612288573d6000803e3d6000fd5b505050505050565b61229a813561335c565b601354604051635fe5df1d60e11b815273__$e2c9a8f399964af47bb173600dd9e5f662$__9163bfcbbe3a91610cf39185916001600160a01b0390911690600d90600401615760565b60006122ef843561335c565b60405166416e794c696e6b60c81b906000906123119086908690602001615773565b60408051601f19818403018152908290528051602090910120601354633610bf0960e11b83529092506001600160a01b031690636c217e129061235d9060009089908990600401615424565b600060405180830381600087803b15801561237757600080fd5b505af115801561238b573d6000803e3d6000fd5b50505086356000908152600a6020526040812060030180549192509082906123b29061523f565b919050819055905073__$2873850e5b3f5697aafc2f5cd9f27cc884$__6342a34a53888386868b8b6040516020016123eb92919061569f565b604051602081830303815290604052600e6040518763ffffffff1660e01b815260040161241d9695949392919061534d565b60006040518083038186803b15801561243557600080fd5b505af4158015612449573d6000803e3d6000fd5b50929998505050505050505050565b61162e338383613c2b565b61246c8361335c565b61247a82826107c48661195e565b6124ba5760405162461bcd60e51b815260206004820152601160248201527048616e646c654e6f74456c696769626c6560781b6044820152606401610c68565b60405163c57cb53760e01b815273__$da066dc100670b51e733250a114f607b42$__9063c57cb5379061186690869086908690600b90600a90600401615792565b600061250c82356020840135613cfa565b73__$2873850e5b3f5697aafc2f5cd9f27cc884$__6379b8a9988335602085013561253d6060870160408801614ab8565b61254a606088018861517b565b6014546040516001600160e01b031960e089901b1681526125829695949392916001600160a01b031690600a90600e906004016157c0565b602060405180830381865af41580156120cf573d6000803e3d6000fd5b6125a9813561335c565b6125b68160200135613daf565b73__$e2c9a8f399964af47bb173600dd9e5f662$__634fcfb9b08235602084013560408501356125e9606087018761517b565b6040516331a9108f60e11b8152883560048201523090636352211e90602401602060405180830381865afa158015612625573d6000803e3d6000fd5b505050506040513d601f19601f8201168201806040525081019061264991906156b3565b6013546020808b01356000908152600a9091526040908190206005015490516001600160e01b031960e08b901b168152610cf3989796959493926001600160a01b03908116921690600d9060040161580e565b60006126a8833561335c565b82356000908152600a602052604081206003018054674c6973744c696e6b60c01b928592909182906121c29061523f565b6126e3338361385e565b6126ff5760405162461bcd60e51b8152600401610c68906153d3565b61270b84848484613e06565b50505050565b61271b813561335c565b60135481356000908152600d60209081526040808320818601358452909152908190205490516352bff63d60e01b815273__$e2c9a8f399964af47bb173600dd9e5f662$__926352bff63d92610cf39286926001600160a01b03169190600401615495565b61278a813561335c565b61279c81602001358260400135613cfa565b601354604051631619823f60e31b815273__$e2c9a8f399964af47bb173600dd9e5f662$__9163b0cc11f891610cf39185916001600160a01b0390911690600e90600d90600401615868565b6128056127f8602083018361517b565b6107c46020850185614ab8565b6128455760405162461bcd60e51b815260206004820152601160248201527048616e646c654e6f74456c696769626c6560781b6044820152606401610c68565b6012546128539060016158de565b60125561286e6128666020830183614ab8565b601254613e39565b6012546040516328837e1960e21b815273__$da066dc100670b51e733250a114f607b42$__9163a20df864916128b291859160019190600b90600a906004016158f6565b60006040518083038186803b1580156128ca57600080fd5b505af41580156128de573d6000803e3d6000fd5b50600c9250600091506128f690506020840184614ab8565b6001600160a01b0316815260208101919091526040016000205461108557601254600c60006129286020850185614ab8565b6001600160a01b0316815260208101919091526040016000205550565b61294e82613f87565b61162e8282614005565b6129618261335c565b61296b8282613cfa565b6000918252600e602090815260408084209284529190529020600501805460ff60a01b1916600160a01b179055565b6000806129a68361195e565b6001600160a01b03166000908152600c60205260409020549290921492915050565b6129d18361335c565b6013546040516327e70cd360e01b815273__$e2c9a8f399964af47bb173600dd9e5f662$__916327e70cd391611866918791879187916001600160a01b0390911690600d9060040161558e565b6000818152600a60205260409020600201805460609190612a3e90615146565b80601f0160208091040260200160405190810160405280929190818152602001828054612a6a90615146565b8015612ab75780601f10612a8c57610100808354040283529160200191612ab7565b820191906000526020600020905b815481529060010190602001808311612a9a57829003601f168201915b50505050509050919050565b612acd813561335c565b612aea612ae06040830160208401614ab8565b82604001356133fc565b601354604051638f3334ff60e01b815273__$e2c9a8f399964af47bb173600dd9e5f662$__91638f3334ff91610cf39185916001600160a01b0390911690600d906004016159d7565b6060610b5b82612a1e565b612b48813561335c565b612b5781356020830135613cfa565b73__$69db18565ecbefece480e92cc5f8fb1274$__6320828a0282356020840135612b886060860160408701614ab8565b612b95606087018761517b565b600e6040518763ffffffff1660e01b8152600401610cf396959493929190615a4f565b6000612bc4823561335c565b81356000908152600a6020526040812060030180548290612be49061523f565b91829055506040516342a34a5360e01b815290915073__$2873850e5b3f5697aafc2f5cd9f27cc884$__906342a34a5390612c2d90869085906000908190600e90600401615a7d565b60006040518083038186803b158015612c4557600080fd5b505af4158015612c59573d6000803e3d6000fd5b509295945050505050565b6000612c70833561335c565b604051634e6f746560e01b602080830191909152833560248301528301356044820152674e6f74654c696e6b60c01b9060009060640160408051808303601f19018152908290528051602091820120601354635cb46be760e01b8452600060048501528735602485015291870135604484015292506001600160a01b031690635cb46be790606401600060405180830381600087803b158015612d1257600080fd5b505af1158015612d26573d6000803e3d6000fd5b50505085356000908152600a602052604081206003018054919250908290612d4d9061523f565b919050819055905073__$2873850e5b3f5697aafc2f5cd9f27cc884$__6342a34a53878386868a600001358b60200135604051602001610ec9929190918252602082015260400190565b6040805160e0808201835260008083526020808401829052606084860181905284018290526080840182905260a0840182905260c08401829052868252600e81528482208683528152908490208451928301855280548352600181015491830191909152600281018054939492939192840191612e1390615146565b80601f0160208091040260200160405190810160405280929190818152602001828054612e3f90615146565b8015612e8c5780601f10612e6157610100808354040283529160200191612e8c565b820191906000526020600020905b815481529060010190602001808311612e6f57829003601f168201915b505050918352505060038201546001600160a01b0390811660208301526004830154811660408301526005909201549182166060820152600160a01b90910460ff1615156080909101529392505050565b612ee7813561335c565b612ef681356020830135613cfa565b73__$69db18565ecbefece480e92cc5f8fb1274$__631f2ffb6982356020840135612b886060860160408701614ab8565b601354604051632b05429560e21b8152600481018390526060916001600160a01b03169063ac150a5490602401600060405180830381865afa158015612f71573d6000803e3d6000fd5b505050506040513d6000823e601f3d908101601f19168201604052610b5b9190810190615ac2565b601454600160a81b900460ff16612fbd57601454600160a01b900460ff1615612fc1565b303b155b6130245760405162461bcd60e51b815260206004820152602e60248201527f496e697469616c697a61626c653a20636f6e747261637420697320616c72656160448201526d191e481a5b9a5d1a585b1a5e995960921b6064820152608401610c68565b601454600160a81b900460ff1615801561304e576014805461ffff60a01b191661010160a01b1790555b61305a89898989614069565b601380546001600160a01b03199081166001600160a01b0388811691909117909255601480548216878416179055601580548216868416179055601780549091169184169190911790556040514281527f400175a56dd3710794078f7b9dbe8296ac94c5a248dfd51bb22ed4ab9eaa9fbf9060200160405180910390a180156130eb576014805460ff60a81b191690555b505050505050505050565b6000818152600a60205260409020600101805460609190612a3e90615146565b613120813561335c565b60135481356000908152600d602090815260408083208186013584529091529081902054905163bf5c00c160e01b815273__$e2c9a8f399964af47bb173600dd9e5f662$__9263bf5c00c192610cf39286926001600160a01b03169190600401615b2f565b61318d6146c6565b600a60008381526020019081526020016000206040518060c0016040529081600082015481526020016001820180546131c590615146565b80601f01602080910402602001604051908101604052809291908181526020018280546131f190615146565b801561323e5780601f106132135761010080835404028352916020019161323e565b820191906000526020600020905b81548152906001019060200180831161322157829003601f168201915b5050505050815260200160028201805461325790615146565b80601f016020809104026020016040519081016040528092919081815260200182805461328390615146565b80156132d05780601f106132a5576101008083540402835291602001916132d0565b820191906000526020600020905b8154815290600101906020018083116132b357829003601f168201915b50505091835250506003820154602082015260048201546001600160a01b03908116604083015260059092015490911660609091015292915050565b60006001600160e01b031982166380ac58cd60e01b148061333d57506001600160e01b03198216635b5e139f60e01b145b80610b5b57506301ffc9a760e01b6001600160e01b0319831614610b5b565b60006133678261195e565b9050336001600160a01b038216148061339657506000828152601660205260409020546001600160a01b031633145b806133be5750326001600160a01b0382161480156133be57506015546001600160a01b031633145b61162e5760405162461bcd60e51b815260206004820152600f60248201526e2737ba283937b334b632a7bbb732b960891b6044820152606401610c68565b6040516331a9108f60e11b8152600481018290526001600160a01b03831690636352211e90602401602060405180830381865afa158015613441573d6000803e3d6000fd5b505050506040513d601f19601f8201168201806040525081019061346591906156b3565b6001600160a01b031661162e5760405162461bcd60e51b815260206004820152600f60248201526e5245433732314e6f7445786973747360881b6044820152606401610c68565b600081815260046020526040902080546001600160a01b0319166001600160a01b03841690811790915581906134e18261195e565b6001600160a01b03167f8c5be1e5ebec7d5bd14f71427d1e84f3dd0314c0f7b2291e5b200ac8c7c3b92560405160405180910390a45050565b6135238461335c565b6001600160a01b0383166000908152600c60205260409020541561359d5760405162461bcd60e51b815260206004820152602b60248201527f546172676574206164647265737320616c726561647920686173207072696d6160448201526a393c90383937b334b6329760a91b6064820152608401610c68565b60006012600081546135ae9061523f565b918290555090506135bf8482613e39565b73__$da066dc100670b51e733250a114f607b42$__63a20df8646040518060a00160405280876001600160a01b03168152602001613607886001600160a01b031660146140ba565b815260200160405180602001604052806000815250815260200160006001600160a01b0316815260200160405180602001604052806000815250815250600084600b600a6040518663ffffffff1660e01b815260040161366b959493929190615b87565b60006040518083038186803b15801561368357600080fd5b505af4158015613697573d6000803e3d6000fd5b505050506001600160a01b0384166000908152600c602052604090819020829055516331a9108f60e11b81526004810186905273__$e2c9a8f399964af47bb173600dd9e5f662$__90634fcfb9b09087908490879087903090636352211e90602401602060405180830381865afa158015613716573d6000803e3d6000fd5b505050506040513d601f19601f8201168201806040525081019061373a91906156b3565b6013546040516001600160e01b031960e089901b1681526137729695949392916001600160a01b031690600090600d90600401615c14565b60006040518083038186803b15801561378a57600080fd5b505af41580156130eb573d6000803e3d6000fd5b6013546040516331a9108f60e11b8152600481018390526001600160a01b0390911690636352211e90602401602060405180830381865afa1580156137e7573d6000803e3d6000fd5b505050506040513d601f19601f8201168201806040525081019061380b91906156b3565b6001600160a01b0316336001600160a01b0316146110855760405162461bcd60e51b815260206004820152601060248201526f2737ba2634b735a634b9ba27bbb732b960811b6044820152606401610c68565b6000818152600260205260408120546001600160a01b03166138d75760405162461bcd60e51b815260206004820152602c60248201527f4552433732313a206f70657261746f7220717565727920666f72206e6f6e657860448201526b34b9ba32b73a103a37b5b2b760a11b6064820152608401610c68565b60006138e28361195e565b9050806001600160a01b0316846001600160a01b0316148061391d5750836001600160a01b031661391284610bf3565b6001600160a01b0316145b8061394d57506001600160a01b0380821660009081526005602090815260408083209388168352929052205460ff165b949350505050565b826001600160a01b03166139688261195e565b6001600160a01b0316146139cc5760405162461bcd60e51b815260206004820152602560248201527f4552433732313a207472616e736665722066726f6d20696e636f72726563742060448201526437bbb732b960d91b6064820152608401610c68565b6001600160a01b038216613a2e5760405162461bcd60e51b8152602060048201526024808201527f4552433732313a207472616e7366657220746f20746865207a65726f206164646044820152637265737360e01b6064820152608401610c68565b613a39838383614255565b613a446000826134ac565b6001600160a01b0383166000908152600360205260408120805460019290613a6d9084906156d0565b90915550506001600160a01b0382166000908152600360205260408120805460019290613a9b9084906158de565b909155505060008181526002602052604080822080546001600160a01b0319166001600160a01b0386811691821790925591518493918716917fddf252ad1be2c89b69c2b068fc378daa952ba7f163c4a11628f55a4df523b3ef91a4505050565b613b06338261385e565b613b525760405162461bcd60e51b815260206004820152601b60248201527f4e4654426173653a204e6f744f776e65724f72417070726f76656400000000006044820152606401610c68565b611085816142c0565b6040516331a9108f60e11b8152600481018290526001600160a01b03831690636352211e90602401602060405180830381865afa158015613ba0573d6000803e3d6000fd5b505050506040513d601f19601f82011682018060405250810190613bc491906156b3565b6001600160a01b0316336001600160a01b03161461162e5760405162461bcd60e51b815260206004820152600e60248201526d2737ba22a9219b9918a7bbb732b960911b6044820152606401610c68565b6000818310613c245781611d8c565b5090919050565b816001600160a01b0316836001600160a01b03161415613c8d5760405162461bcd60e51b815260206004820152601960248201527f4552433732313a20617070726f766520746f2063616c6c6572000000000000006044820152606401610c68565b6001600160a01b03838116600081815260056020908152604080832094871680845294825291829020805460ff191686151590811790915591519182527f17307eab39ab6107e8899845ad3d59bd9653f200f220920489ca2b5937696c31910160405180910390a3505050565b6000828152600e60209081526040808320848452909152902060050154600160a01b900460ff1615613d5e5760405162461bcd60e51b815260206004820152600d60248201526c139bdd19525cd1195b195d1959609a1b6044820152606401610c68565b6000828152600a602052604090206003015481111561162e5760405162461bcd60e51b815260206004820152600d60248201526c4e6f74654e6f7445786973747360981b6044820152606401610c68565b6000818152600260205260409020546001600160a01b03166110855760405162461bcd60e51b815260206004820152601060248201526f50726f66696c654e6f7445786973747360801b6044820152606401610c68565b613e11848484613955565b613e1d84848484614367565b61270b5760405162461bcd60e51b8152600401610c6890615c6c565b6001600160a01b038216613e8f5760405162461bcd60e51b815260206004820181905260248201527f4552433732313a206d696e7420746f20746865207a65726f20616464726573736044820152606401610c68565b6000818152600260205260409020546001600160a01b031615613ef45760405162461bcd60e51b815260206004820152601c60248201527f4552433732313a20746f6b656e20616c7265616479206d696e746564000000006044820152606401610c68565b613f0060008383614255565b6001600160a01b0382166000908152600360205260408120805460019290613f299084906158de565b909155505060008181526002602052604080822080546001600160a01b0319166001600160a01b03861690811790915590518392907fddf252ad1be2c89b69c2b068fc378daa952ba7f163c4a11628f55a4df523b3ef908290a45050565b6000613f928261195e565b9050336001600160a01b03821614806133be5750326001600160a01b0382161480156133be57506015546001600160a01b0316331461162e5760405162461bcd60e51b815260206004820152600f60248201526e2737ba283937b334b632a7bbb732b960891b6044820152606401610c68565b60008281526016602090815260409182902080546001600160a01b0319166001600160a01b038516908117909155915142815284917f7557fcfe5715156a688dd4ab724febd306cec5637d46a8c9d7af125ddd07bae8910160405180910390a35050565b61407584848484614465565b7f414cd0b34676984f09a5f76ce9718d4062e50283abe0e7e274a9a5b4e0c99c3084848484426040516140ac959493929190615cbe565b60405180910390a150505050565b606060006140c9836002615cf8565b6140d49060026158de565b6001600160401b038111156140eb576140eb614eb6565b6040519080825280601f01601f191660200182016040528015614115576020820181803683370190505b509050600360fc1b816000815181106141305761413061555f565b60200101906001600160f81b031916908160001a905350600f60fb1b8160018151811061415f5761415f61555f565b60200101906001600160f81b031916908160001a9053506000614183846002615cf8565b61418e9060016158de565b90505b6001811115614206576f181899199a1a9b1b9c1cb0b131b232b360811b85600f16601081106141c2576141c261555f565b1a60f81b8282815181106141d8576141d861555f565b60200101906001600160f81b031916908160001a90535060049490941c936141ff81615d17565b9050614191565b508315611d8c5760405162461bcd60e51b815260206004820181905260248201527f537472696e67733a20686578206c656e67746820696e73756666696369656e746044820152606401610c68565b6000818152601660205260409020546001600160a01b03161561427d5761427d816000614005565b6001600160a01b0383166000908152600c6020526040902054156142b5576001600160a01b0383166000908152600c60205260408120555b61104683838361447e565b60006142cb8261195e565b90506142d981600084614255565b6142e46000836134ac565b6001600160a01b038116600090815260036020526040812080546001929061430d9084906156d0565b909155505060008281526002602052604080822080546001600160a01b0319169055518391906001600160a01b038416907fddf252ad1be2c89b69c2b068fc378daa952ba7f163c4a11628f55a4df523b3ef908390a45050565b60006001600160a01b0384163b1561445a57604051630a85bd0160e11b81526001600160a01b0385169063150b7a02906143ab903390899088908890600401615d2e565b6020604051808303816000875af19250505080156143e6575060408051601f3d908101601f191682019092526143e391810190615d61565b60015b614440573d808015614414576040519150601f19603f3d011682016040523d82523d6000602084013e614419565b606091505b5080516144385760405162461bcd60e51b8152600401610c6890615c6c565b805181602001fd5b6001600160e01b031916630a85bd0160e11b14905061394d565b506001949350505050565b61447160008585614748565b50610d1f60018383614748565b6001600160a01b0383166144d9576144d481600880546000838152600960205260408120829055600182018355919091527ff3f7a9fe364faab93b216da50a3214154f22a0a2b415b23a84c8169e8b636ee30155565b6144fc565b816001600160a01b0316836001600160a01b0316146144fc576144fc8382614536565b6001600160a01b03821661451357611046816145d3565b826001600160a01b0316826001600160a01b031614611046576110468282614682565b6000600161454384611a5b565b61454d91906156d0565b6000838152600760205260409020549091508082146145a0576001600160a01b03841660009081526006602090815260408083208584528252808320548484528184208190558352600790915290208190555b5060009182526007602090815260408084208490556001600160a01b039094168352600681528383209183525290812055565b6008546000906145e5906001906156d0565b6000838152600960205260408120546008805493945090928490811061460d5761460d61555f565b90600052602060002001549050806008838154811061462e5761462e61555f565b600091825260208083209091019290925582815260099091526040808220849055858252812055600880548061466657614666615d7e565b6001900381819060005260206000200160009055905550505050565b600061468d83611a5b565b6001600160a01b039093166000908152600660209081526040808320868452825280832085905593825260079052919091209190915550565b6040518060c001604052806000815260200160608152602001606081526020016000815260200160006001600160a01b0316815260200160006001600160a01b031681525090565b50805461471a90615146565b6000825580601f1061472a575050565b601f01602090049060005260206000209081019061108591906147cc565b82805461475490615146565b90600052602060002090601f01602090048101928261477657600085556147bc565b82601f1061478f5782800160ff198235161785556147bc565b828001600101855582156147bc579182015b828111156147bc5782358255916020019190600101906147a1565b506147c89291506147cc565b5090565b5b808211156147c857600081556001016147cd565b6001600160e01b03198116811461108557600080fd5b60006020828403121561480957600080fd5b8135611d8c816147e1565b60005b8381101561482f578181015183820152602001614817565b8381111561270b5750506000910152565b60008151808452614858816020860160208601614814565b601f01601f19169290920160200192915050565b602081526000611d8c6020830184614840565b60006020828403121561489157600080fd5b5035919050565b6000606082840312156148aa57600080fd5b50919050565b6000602082840312156148c257600080fd5b81356001600160401b038111156148d857600080fd5b61394d84828501614898565b600060c082840312156148aa57600080fd5b6000604082840312156148aa57600080fd5b6000806060838503121561491b57600080fd5b82356001600160401b0381111561493157600080fd5b61493d858286016148e4565b92505061494d84602085016148f6565b90509250929050565b6001600160a01b038116811461108557600080fd5b6000806040838503121561497e57600080fd5b823561498981614956565b946020939093013593505050565b6000606082840312156149a957600080fd5b611d8c8383614898565b60008083601f8401126149c557600080fd5b5081356001600160401b038111156149dc57600080fd5b6020830191508360208285010111156149f457600080fd5b9250929050565b60008060208385031215614a0e57600080fd5b82356001600160401b03811115614a2457600080fd5b614a30858286016149b3565b90969095509350505050565b60208152815160208201526000602083015160c06040840152614a6260e0840182614840565b90506040840151601f19848303016060850152614a7f8282614840565b91505060608401516080840152608084015160018060a01b0380821660a08601528060a08701511660c086015250508091505092915050565b600060208284031215614aca57600080fd5b8135611d8c81614956565b600080600060608486031215614aea57600080fd5b8335614af581614956565b92506020840135614b0581614956565b929592945050506040919091013590565b600080600060408486031215614b2b57600080fd5b8335925060208401356001600160401b03811115614b4857600080fd5b614b54868287016149b3565b9497909650939450505050565b6000608082840312156148aa57600080fd5b600060208284031215614b8557600080fd5b81356001600160401b03811115614b9b57600080fd5b61394d84828501614b61565b600060808284031215614bb957600080fd5b611d8c8383614b61565b60008060408385031215614bd657600080fd5b50508035926020909101359150565b600080600060a08486031215614bfa57600080fd5b83359250614c0b8560208601614898565b9150608084013590509250925092565b600080600060408486031215614c3057600080fd5b83356001600160401b03811115614c4657600080fd5b614c52868287016149b3565b9094509250506020840135614c6681614956565b809150509250925092565b600080600060608486031215614c8657600080fd5b505081359360208301359350604090920135919050565b80518252602081015160208301526000604082015160e06040850152614cc660e0850182614840565b9050606083015160018060a01b0380821660608701528060808601511660808701528060a08601511660a0870152505060c0830151151560c08501528091505092915050565b6000602080830181845280855180835260408601915060408160051b870101925083870160005b82811015614d6157603f19888603018452614d4f858351614c9d565b94509285019290850190600101614d33565b5092979650505050505050565b60008060408385031215614d8157600080fd5b82356001600160401b03811115614d9757600080fd5b614da3858286016148e4565b9250506020830135614db481614956565b809150509250929050565b60008060408385031215614dd257600080fd5b82356001600160401b03811115614de857600080fd5b614df4858286016148e4565b95602094909401359450505050565b60008060408385031215614e1657600080fd5b823591506020830135614db481614956565b600080600060408486031215614e3d57600080fd5b83356001600160401b0380821115614e5457600080fd5b614e60878388016148e4565b94506020860135915080821115614e7657600080fd5b50614b54868287016149b3565b60008060408385031215614e9657600080fd5b8235614ea181614956565b915060208301358015158114614db457600080fd5b634e487b7160e01b600052604160045260246000fd5b604051601f8201601f191681016001600160401b0381118282101715614ef457614ef4614eb6565b604052919050565b60006001600160401b03821115614f1557614f15614eb6565b50601f01601f191660200190565b60008060008060808587031215614f3957600080fd5b8435614f4481614956565b93506020850135614f5481614956565b92506040850135915060608501356001600160401b03811115614f7657600080fd5b8501601f81018713614f8757600080fd5b8035614f9a614f9582614efc565b614ecc565b818152886020838501011115614faf57600080fd5b8160208401602083013760006020838301015280935050505092959194509250565b600060a082840312156148aa57600080fd5b600060208284031215614ff557600080fd5b81356001600160401b0381111561500b57600080fd5b61394d84828501614fd1565b60006020828403121561502957600080fd5b81356001600160401b0381111561503f57600080fd5b61394d848285016148e4565b602081526000611d8c6020830184614c9d565b60008060008060008060008060c0898b03121561507a57600080fd5b88356001600160401b038082111561509157600080fd5b61509d8c838d016149b3565b909a50985060208b01359150808211156150b657600080fd5b506150c38b828c016149b3565b90975095505060408901356150d781614956565b935060608901356150e781614956565b925060808901356150f781614956565b915060a089013561510781614956565b809150509295985092959890939650565b6000806040838503121561512b57600080fd5b823561513681614956565b91506020830135614db481614956565b600181811c9082168061515a57607f821691505b602082108114156148aa57634e487b7160e01b600052602260045260246000fd5b6000808335601e1984360301811261519257600080fd5b8301803591506001600160401b038211156151ac57600080fd5b6020019150368190038213156149f457600080fd5b81835281816020850137506000828201602090810191909152601f909101601f19169091010190565b6001600160a01b0386811682528516602082015260806040820181905260009061521790830185876151c1565b90508260608301529695505050505050565b634e487b7160e01b600052601160045260246000fd5b600060001982141561525357615253615229565b5060010190565b6000808335601e1984360301811261527157600080fd5b83016020810192503590506001600160401b0381111561529057600080fd5b8036038313156149f457600080fd5b8035825260006152b2602083018361525a565b60c060208601526152c760c0860182846151c1565b91505060408301356152d881614956565b6001600160a01b0381811660408701526152f5606086018661525a565b9250868403606088015261530a8484836151c1565b9350506080850135915061531d82614956565b16608085015261533060a084018461525a565b85830360a08701526153438382846151c1565b9695505050505050565b60c08152600061536060c083018961529f565b87602084015286604084015285606084015282810360808401526153848186614840565b9150508260a0830152979650505050505050565b8183823760009101908152919050565b8581526001600160a01b038516602082015260806040820181905260009061521790830185876151c1565b60208082526031908201527f4552433732313a207472616e736665722063616c6c6572206973206e6f74206f6040820152701ddb995c881b9bdc88185c1c1c9bdd9959607a1b606082015260800190565b83815260406020820152600061543e6040830184866151c1565b95945050505050565b803582526000602082013561545b81614956565b6001600160a01b0316602084015260408281013590840152615480606083018361525a565b6080606086015261543e6080860182846151c1565b6060815260006154a86060830186615447565b6001600160a01b039490941660208301525060400152919050565b600080835481600182811c9150808316806154df57607f831692505b60208084108214156154ff57634e487b7160e01b86526022600452602486fd5b818015615513576001811461552457615551565b60ff19861689528489019650615551565b60008a81526020902060005b868110156155495781548b820152908501908301615530565b505084890196505b509498975050505050505050565b634e487b7160e01b600052603260045260246000fd5b60006020828403121561558757600080fd5b5051919050565b85815260e081016155b660208301878035825260208082013590830152604090810135910152565b60808201949094526001600160a01b039290921660a083015260c09091015292915050565b606081528335606082015260006155f5602086018661525a565b60808085015261560960e0850182846151c1565b915050604086013560a0840152615623606087018761525a565b848303605f190160c086015261563a8382846151c1565b6001600160a01b039790971660208601525050505060400152919050565b6001600160a01b038781168252602082018790528516604082015260a06060820181905260009061568c90830185876151c1565b9050826080830152979650505050505050565b60208152600061394d6020830184866151c1565b6000602082840312156156c557600080fd5b8151611d8c81614956565b6000828210156156e2576156e2615229565b500390565b8335815260c0810160208501356156fd81614956565b6001600160a01b039081166020840152604086810135908401526060958601359583019590955292909316608084015260a09092019190915290565b8035825260208101356020830152604081013560408301526000615480606083018361525a565b6060815260006154a86060830186615739565b62416e7960e81b81528183600383013760009101600301908152919050565b8581526080602082015260006157ac6080830186886151c1565b604083019490945250606001529392505050565b888152876020820152600060018060a01b03808916604084015260e060608401526157ef60e08401888a6151c1565b951660808301525060a081019290925260c09091015295945050505050565b60006101008b83528a6020840152896040840152806060840152615835818401898b6151c1565b6001600160a01b03978816608085015295871660a084015250509190931660c082015260e0019190915295945050505050565b6080815284356080820152602085013560a0820152604085013560c0820152606085013560e082015260006158a0608087018761525a565b60a06101008501526158b7610120850182846151c1565b6001600160a01b039790971660208501525050506040810192909252606090910152919050565b600082198211156158f1576158f1615229565b500190565b60a081526000863561590781614956565b6001600160a01b0381811660a085015261592460208a018a61525a565b925060a060c086015261593c610140860184836151c1565b92505061594c60408a018a61525a565b609f19808786030160e08801526159648583856151c1565b945060608c0135925061597683614956565b83831661010088015261598c60808d018d61525a565b94509250808786030161012088015250506159a88383836151c1565b93505050506159bb602083018715159052565b8460408301528360608301528260808301529695505050505050565b6060815283356060820152600060208501356159f281614956565b60018060a01b038082166080850152604087013560a0850152606087013560c0850152615a22608088018861525a565b925060a060e0860152615a3a610100860184836151c1565b96909116602085015250505060400152919050565b86815285602082015260018060a01b038516604082015260a06060820152600061568c60a0830185876151c1565b60c081526000615a9060c083018861529f565b602083810197909752604083019590955250606081019290925281830360808301526000835260a09091015201919050565b600060208284031215615ad457600080fd5b81516001600160401b03811115615aea57600080fd5b8201601f81018413615afb57600080fd5b8051615b09614f9582614efc565b818152856020838501011115615b1e57600080fd5b61543e826020830160208601614814565b60608152833560608201526000615b49602086018661525a565b60606080850152615b5e60c0850182846151c1565b60409788013560a08601526001600160a01b039690961660208501525050509092019190915290565b60a08152600060018060a01b038088511660a0840152602088015160a060c0850152615bb7610140850182614840565b90506040890151609f19808684030160e0870152615bd58383614840565b92508360608c01511661010087015260808b0151935080868403016101208701525050615c028183614840565b925050506159bb602083018715159052565b60006101008a8352896020840152886040840152806060840152615c3a81840189614840565b6001600160a01b03978816608085015295871660a084015250509190931660c082015260e00191909152949350505050565b60208082526032908201527f4552433732313a207472616e7366657220746f206e6f6e20455243373231526560408201527131b2b4bb32b91034b6b83632b6b2b73a32b960711b606082015260800190565b606081526000615cd26060830187896151c1565b8281036020840152615ce58186886151c1565b9150508260408301529695505050505050565b6000816000190483118215151615615d1257615d12615229565b500290565b600081615d2657615d26615229565b506000190190565b6001600160a01b038581168252841660208201526040810183905260806060820181905260009061534390830184614840565b600060208284031215615d7357600080fd5b8151611d8c816147e1565b634e487b7160e01b600052603160045260246000fdfea2646970667358221220e56c5a1ca135063d04701c3c5ac6c2faef9626ca67f1ef311a3fd72284701a9164736f6c634300080a0033",
    "linkReferences": {
        "contracts/libraries/LinkLogic.sol": {
            "LinkLogic": [
                {
                    "length": 20,
                    "start": 4956
                },
                {
                    "length": 20,
                    "start": 5354
                },
                {
                    "length": 20,
                    "start": 5497
                },
                {
                    "length": 20,
                    "start": 6223
                },
                {
                    "length": 20,
                    "start": 6472
                },
                {
                    "length": 20,
                    "start": 8198
                },
                {
                    "length": 20,
                    "start": 8309
                },
                {
                    "length": 20,
                    "start": 8909
                },
                {
                    "length": 20,
                    "start": 9689
                },
                {
                    "length": 20,
                    "start": 10094
                },
                {
                    "length": 20,
                    "start": 10191
                },
                {
                    "length": 20,
                    "start": 10756
                },
                {
                    "length": 20,
                    "start": 11037
                },
                {
                    "length": 20,
                    "start": 12659
                },
                {
                    "length": 20,
                    "start": 14061
                }
            ]
        },
        "contracts/libraries/LinkModuleLogic.sol": {
            "LinkModuleLogic": [
                {
                    "length": 20,
                    "start": 3248
                },
                {
                    "length": 20,
                    "start": 4708
                },
                {
                    "length": 20,
                    "start": 6674
                },
                {
                    "length": 20,
                    "start": 11130
                },
                {
                    "length": 20,
                    "start": 12057
                }
            ]
        },
        "contracts/libraries/PostLogic.sol": {
            "PostLogic": [
                {
                    "length": 20,
                    "start": 3742
                },
                {
                    "length": 20,
                    "start": 8551
                },
                {
                    "length": 20,
                    "start": 8685
                },
                {
                    "length": 20,
                    "start": 9181
                },
                {
                    "length": 20,
                    "start": 9519
                },
                {
                    "length": 20,
                    "start": 11292
                },
                {
                    "length": 20,
                    "start": 11640
                }
            ]
        },
        "contracts/libraries/ProfileLogic.sol": {
            "ProfileLogic": [
                {
                    "length": 20,
                    "start": 6335
                },
                {
                    "length": 20,
                    "start": 8800
                },
                {
                    "length": 20,
                    "start": 9450
                },
                {
                    "length": 20,
                    "start": 10401
                },
                {
                    "length": 20,
                    "start": 13794
                }
            ]
        }
    },
    "deployedLinkReferences": {
        "contracts/libraries/LinkLogic.sol": {
            "LinkLogic": [
                {
                    "length": 20,
                    "start": 4923
                },
                {
                    "length": 20,
                    "start": 5321
                },
                {
                    "length": 20,
                    "start": 5464
                },
                {
                    "length": 20,
                    "start": 6190
                },
                {
                    "length": 20,
                    "start": 6439
                },
                {
                    "length": 20,
                    "start": 8165
                },
                {
                    "length": 20,
                    "start": 8276
                },
                {
                    "length": 20,
                    "start": 8876
                },
                {
                    "length": 20,
                    "start": 9656
                },
                {
                    "length": 20,
                    "start": 10061
                },
                {
                    "length": 20,
                    "start": 10158
                },
                {
                    "length": 20,
                    "start": 10723
                },
                {
                    "length": 20,
                    "start": 11004
                },
                {
                    "length": 20,
                    "start": 12626
                },
                {
                    "length": 20,
                    "start": 14028
                }
            ]
        },
        "contracts/libraries/LinkModuleLogic.sol": {
            "LinkModuleLogic": [
                {
                    "length": 20,
                    "start": 3215
                },
                {
                    "length": 20,
                    "start": 4675
                },
                {
                    "length": 20,
                    "start": 6641
                },
                {
                    "length": 20,
                    "start": 11097
                },
                {
                    "length": 20,
                    "start": 12024
                }
            ]
        },
        "contracts/libraries/PostLogic.sol": {
            "PostLogic": [
                {
                    "length": 20,
                    "start": 3709
                },
                {
                    "length": 20,
                    "start": 8518
                },
                {
                    "length": 20,
                    "start": 8652
                },
                {
                    "length": 20,
                    "start": 9148
                },
                {
                    "length": 20,
                    "start": 9486
                },
                {
                    "length": 20,
                    "start": 11259
                },
                {
                    "length": 20,
                    "start": 11607
                }
            ]
        },
        "contracts/libraries/ProfileLogic.sol": {
            "ProfileLogic": [
                {
                    "length": 20,
                    "start": 6302
                },
                {
                    "length": 20,
                    "start": 8767
                },
                {
                    "length": 20,
                    "start": 9417
                },
                {
                    "length": 20,
                    "start": 10368
                },
                {
                    "length": 20,
                    "start": 13761
                }
            ]
        }
    }
}