{
  "abi": [
    {
      "inputs": [
        {
          "internalType": "address",
          "name": "web3Entry",
          "type": "address"
        }
      ],
      "stateMutability": "nonpayable",
      "type": "constructor"
    },
    {
      "inputs": [],
      "name": "Web3Entry",
      "outputs": [
        {
          "internalType": "address",
          "name": "",
          "type": "address"
        }
      ],
      "stateMutability": "view",
      "type": "function"
    },
    {
      "inputs": [
        {
          "internalType": "uint256",
          "name": "characterId",
          "type": "uint256"
        },
        {
          "internalType": "uint256",
          "name": "noteId",
          "type": "uint256"
        },
        {
          "internalType": "address[]",
          "name": "addresses",
          "type": "address[]"
        },
        {
          "internalType": "bool[]",
          "name": "toApprove",
          "type": "bool[]"
        }
      ],
      "name": "approve",
      "outputs": [],
      "stateMutability": "nonpayable",
      "type": "function"
    },
    {
      "inputs": [
        {
          "internalType": "uint256",
          "name": "characterId",
          "type": "uint256"
        },
        {
          "internalType": "uint256",
          "name": "noteId",
          "type": "uint256"
        },
        {
          "internalType": "bytes",
          "name": "data",
          "type": "bytes"
        }
      ],
      "name": "initializeLinkModule",
      "outputs": [
        {
          "internalType": "bytes",
          "name": "",
          "type": "bytes"
        }
      ],
      "stateMutability": "nonpayable",
      "type": "function"
    },
    {
      "inputs": [
        {
          "internalType": "address",
          "name": "characterOwner",
          "type": "address"
        },
        {
          "internalType": "uint256",
          "name": "characterId",
          "type": "uint256"
        },
        {
          "internalType": "uint256",
          "name": "noteId",
          "type": "uint256"
        },
        {
          "internalType": "address",
          "name": "toCheck",
          "type": "address"
        }
      ],
      "name": "isApproved",
      "outputs": [
        {
          "internalType": "bool",
          "name": "",
          "type": "bool"
        }
      ],
      "stateMutability": "view",
      "type": "function"
    },
    {
      "inputs": [
        {
          "internalType": "address",
          "name": "caller",
          "type": "address"
        },
        {
          "internalType": "uint256",
          "name": "characterId",
          "type": "uint256"
        },
        {
          "internalType": "uint256",
          "name": "noteId",
          "type": "uint256"
        },
        {
          "internalType": "bytes",
          "name": "data",
          "type": "bytes"
        }
      ],
      "name": "processLink",
      "outputs": [],
      "stateMutability": "nonpayable",
      "type": "function"
    }
  ],
  "bytecode": {
    "object": "0x60a060405234801561001057600080fd5b50604051610b3a380380610b3a83398101604081905261002f9161008f565b806001600160a01b03811661007d5760405162461bcd60e51b815260206004820152601060248201526f496e76616c696457656233456e74727960801b604482015260640160405180910390fd5b6001600160a01b0316608052506100bf565b6000602082840312156100a157600080fd5b81516001600160a01b03811681146100b857600080fd5b9392505050565b608051610a456100f5600039600081816076015281816101a401528181610348015281816104a401526105190152610a456000f3fe608060405234801561001057600080fd5b50600436106100575760003560e01c806398f346b81461005c578063c5a5ed5114610071578063c8551f9f146100b5578063f033607714610110578063f0f5557314610130575b600080fd5b61006f61006a366004610672565b610143565b005b6100987f000000000000000000000000000000000000000000000000000000000000000081565b6040516001600160a01b0390911681526020015b60405180910390f35b6101006100c336600461071d565b6001600160a01b03938416600090815260208181526040808320958352948152848220938252928352838120919094168452905290205460ff1690565b60405190151581526020016100ac565b61012361011e3660046107a9565b610324565b6040516100ac91906107fc565b61006f61013e366004610851565b610499565b82811461018b5760405162461bcd60e51b8152602060048201526011602482015270125b9a5d14185c985b5cd25b9d985b1a59607a1b60448201526064015b60405180910390fd5b6040516331a9108f60e11b8152600481018790526000907f00000000000000000000000000000000000000000000000000000000000000006001600160a01b031690636352211e90602401602060405180830381865afa1580156101f3573d6000803e3d6000fd5b505050506040513d601f19601f8201168201806040525081019061021791906108bb565b9050336001600160a01b038216146102655760405162461bcd60e51b81526020600482015260116024820152702737ba21b430b930b1ba32b927bbb732b960791b6044820152606401610182565b8360005b8181101561031957848482818110610283576102836108df565b905060200201602081019061029891906108f5565b6001600160a01b0384166000908152602081815260408083208d845282528083208c84529091528120908989858181106102d4576102d46108df565b90506020020160208101906102e99190610917565b6001600160a01b031681526020810191909152604001600020805460ff1916911515919091179055600101610269565b505050505050505050565b6040516331a9108f60e11b8152600481018590526060906000906001600160a01b037f00000000000000000000000000000000000000000000000000000000000000001690636352211e90602401602060405180830381865afa15801561038f573d6000803e3d6000fd5b505050506040513d601f19601f820116820180604052508101906103b391906108bb565b905082156104585760006103c98486018661094a565b805190915060005b81811015610454576001600160a01b0384166000908152602081815260408083208c845282528083208b8452909152812084516001929086908590811061041a5761041a6108df565b6020908102919091018101516001600160a01b03168252810191909152604001600020805460ff19169115159190911790556001016103d1565b5050505b83838080601f016020809104026020016040519081016040528093929190818152602001838380828437600092019190915250929998505050505050505050565b336001600160a01b037f000000000000000000000000000000000000000000000000000000000000000016146105005760405162461bcd60e51b815260206004820152600c60248201526b4e6f7457656233456e74727960a01b6044820152606401610182565b6040516331a9108f60e11b8152600481018590526000907f00000000000000000000000000000000000000000000000000000000000000006001600160a01b031690636352211e90602401602060405180830381865afa158015610568573d6000803e3d6000fd5b505050506040513d601f19601f8201168201806040525081019061058c91906108bb565b6001600160a01b038082166000908152602081815260408083208a845282528083208984528252808320938b168352929052205490915060ff1661061e5760405162461bcd60e51b8152602060048201526024808201527f417070726f76616c4c696e6b4d6f64756c65344e6f74653a204e6f74417070726044820152631bdd995960e21b6064820152608401610182565b505050505050565b60008083601f84011261063857600080fd5b50813567ffffffffffffffff81111561065057600080fd5b6020830191508360208260051b850101111561066b57600080fd5b9250929050565b6000806000806000806080878903121561068b57600080fd5b8635955060208701359450604087013567ffffffffffffffff808211156106b157600080fd5b6106bd8a838b01610626565b909650945060608901359150808211156106d657600080fd5b506106e389828a01610626565b979a9699509497509295939492505050565b6001600160a01b038116811461070a57600080fd5b50565b8035610718816106f5565b919050565b6000806000806080858703121561073357600080fd5b843561073e816106f5565b93506020850135925060408501359150606085013561075c816106f5565b939692955090935050565b60008083601f84011261077957600080fd5b50813567ffffffffffffffff81111561079157600080fd5b60208301915083602082850101111561066b57600080fd5b600080600080606085870312156107bf57600080fd5b8435935060208501359250604085013567ffffffffffffffff8111156107e457600080fd5b6107f087828801610767565b95989497509550505050565b600060208083528351808285015260005b818110156108295785810183015185820160400152820161080d565b8181111561083b576000604083870101525b50601f01601f1916929092016040019392505050565b60008060008060006080868803121561086957600080fd5b8535610874816106f5565b94506020860135935060408601359250606086013567ffffffffffffffff81111561089e57600080fd5b6108aa88828901610767565b969995985093965092949392505050565b6000602082840312156108cd57600080fd5b81516108d8816106f5565b9392505050565b634e487b7160e01b600052603260045260246000fd5b60006020828403121561090757600080fd5b813580151581146108d857600080fd5b60006020828403121561092957600080fd5b81356108d8816106f5565b634e487b7160e01b600052604160045260246000fd5b6000602080838503121561095d57600080fd5b823567ffffffffffffffff8082111561097557600080fd5b818501915085601f83011261098957600080fd5b81358181111561099b5761099b610934565b8060051b604051601f19603f830116810181811085821117156109c0576109c0610934565b6040529182528482019250838101850191888311156109de57600080fd5b938501935b82851015610a03576109f48561070d565b845293850193928501926109e3565b9897505050505050505056fea2646970667358221220b075c7d3cc145caac855376f72390c1103bbab9a3e67caffcdde65ccd6844cfc64736f6c634300080a0033",
    "linkReferences": {}
  },
  "methodIdentifiers": {
    "Web3Entry()": "c5a5ed51",
    "approve(uint256,uint256,address[],bool[])": "98f346b8",
    "initializeLinkModule(uint256,uint256,bytes)": "f0336077",
    "isApproved(address,uint256,uint256,address)": "c8551f9f",
    "processLink(address,uint256,uint256,bytes)": "f0f55573"
  },
  "id": 71
}