{
  "abi": [
    {
      "inputs": [
        {
          "internalType": "address",
          "name": "web3Entry",
          "type": "address"
        }
      ],
      "stateMutability": "nonpayable",
      "type": "constructor"
    },
    {
      "inputs": [],
      "name": "Web3Entry",
      "outputs": [
        {
          "internalType": "address",
          "name": "",
          "type": "address"
        }
      ],
      "stateMutability": "view",
      "type": "function"
    },
    {
      "inputs": [
        {
          "internalType": "uint256",
          "name": "characterId",
          "type": "uint256"
        },
        {
          "internalType": "uint256",
          "name": "noteId",
          "type": "uint256"
        }
      ],
      "name": "getNoteData",
      "outputs": [
        {
          "components": [
            {
              "internalType": "uint256",
              "name": "amount",
              "type": "uint256"
            },
            {
              "internalType": "address",
              "name": "currency",
              "type": "address"
            },
            {
              "internalType": "address",
              "name": "recipient",
              "type": "address"
            }
          ],
          "internalType": "struct CharacterNoteData",
          "name": "",
          "type": "tuple"
        }
      ],
      "stateMutability": "view",
      "type": "function"
    },
    {
      "inputs": [
        {
          "internalType": "uint256",
          "name": "characterId",
          "type": "uint256"
        },
        {
          "internalType": "uint256",
          "name": "noteId",
          "type": "uint256"
        },
        {
          "internalType": "bytes",
          "name": "data",
          "type": "bytes"
        }
      ],
      "name": "initializeMintModule",
      "outputs": [
        {
          "internalType": "bytes",
          "name": "",
          "type": "bytes"
        }
      ],
      "stateMutability": "nonpayable",
      "type": "function"
    },
    {
      "inputs": [
        {
          "internalType": "address",
          "name": "to",
          "type": "address"
        },
        {
          "internalType": "uint256",
          "name": "characterId",
          "type": "uint256"
        },
        {
          "internalType": "uint256",
          "name": "noteId",
          "type": "uint256"
        },
        {
          "internalType": "bytes",
          "name": "data",
          "type": "bytes"
        }
      ],
      "name": "processMint",
      "outputs": [],
      "stateMutability": "nonpayable",
      "type": "function"
    }
  ],
  "bytecode": {
    "object": "0x60a060405234801561001057600080fd5b506040516109a73803806109a783398101604081905261002f9161008f565b806001600160a01b03811661007d5760405162461bcd60e51b815260206004820152601060248201526f496e76616c696457656233456e74727960801b604482015260640160405180910390fd5b6001600160a01b0316608052506100bf565b6000602082840312156100a157600080fd5b81516001600160a01b03811681146100b857600080fd5b9392505050565b6080516108c76100e0600039600081816094015261018001526108c76000f3fe608060405234801561001057600080fd5b506004361061004c5760003560e01c80637dd37a9e146100515780637f20dc211461007a578063c5a5ed511461008f578063eb56f509146100ce575b600080fd5b61006461005f36600461067c565b610173565b6040516100719190610727565b60405180910390f35b61008d610088366004610759565b6102e7565b005b6100b67f000000000000000000000000000000000000000000000000000000000000000081565b6040516001600160a01b039091168152602001610071565b6101406100dc3660046107c3565b60408051606080820183526000808352602080840182905292840181905294855284825282852093855292815292819020815192830182528054835260018101546001600160a01b0390811694840194909452600201549092169181019190915290565b60408051825181526020808401516001600160a01b03908116918301919091529282015190921690820152606001610071565b6060336001600160a01b037f000000000000000000000000000000000000000000000000000000000000000016146101e15760405162461bcd60e51b815260206004820152600c60248201526b4e6f7457656233456e74727960a01b60448201526064015b60405180910390fd5b600080806101f1858701876107e5565b919450925090506001600160a01b038116158015906102105750600083115b61025c5760405162461bcd60e51b815260206004820152601c60248201527f4665654d696e744d6f64756c653a20496e76616c6964506172616d730000000060448201526064016101d8565b6000888152602081815260408083208a84528252918290208581556001810180546001600160a01b038781166001600160a01b03199283161790925560029092018054918616919092161790558151601f880182900482028101820190925286825287908790819084018382808284376000920191909152509296505050505050505b949350505050565b6000848152602081815260408083208684529091528120805460019091015490916001600160a01b03909116908061032186860187610827565b9150915083811480156103455750826001600160a01b0316826001600160a01b0316145b61039b5760405162461bcd60e51b815260206004820152602160248201527f4665654d696e744d6f64756c653a204d6f64756c65446174614d69736d6174636044820152600d60fb1b60648201526084016101d8565b6000888152602081815260408083208a84529091529020600201546001600160a01b03908116906103d09085168b83886103dc565b50505050505050505050565b604080516001600160a01b0385811660248301528416604482015260648082018490528251808303909101815260849091019091526020810180516001600160e01b03166323b872dd60e01b17905261043690859061043c565b50505050565b6000610491826040518060400160405280602081526020017f5361666545524332303a206c6f772d6c6576656c2063616c6c206661696c6564815250856001600160a01b03166105139092919063ffffffff16565b80519091501561050e57808060200190518101906104af9190610853565b61050e5760405162461bcd60e51b815260206004820152602a60248201527f5361666545524332303a204552433230206f7065726174696f6e20646964206e6044820152691bdd081cdd58d8d9595960b21b60648201526084016101d8565b505050565b60606102df848460008585600080866001600160a01b0316858760405161053a9190610875565b60006040518083038185875af1925050503d8060008114610577576040519150601f19603f3d011682016040523d82523d6000602084013e61057c565b606091505b509150915061058d87838387610598565b979650505050505050565b606083156106045782516105fd576001600160a01b0385163b6105fd5760405162461bcd60e51b815260206004820152601d60248201527f416464726573733a2063616c6c20746f206e6f6e2d636f6e747261637400000060448201526064016101d8565b50816102df565b6102df83838151156106195781518083602001fd5b8060405162461bcd60e51b81526004016101d89190610727565b60008083601f84011261064557600080fd5b50813567ffffffffffffffff81111561065d57600080fd5b60208301915083602082850101111561067557600080fd5b9250929050565b6000806000806060858703121561069257600080fd5b8435935060208501359250604085013567ffffffffffffffff8111156106b757600080fd5b6106c387828801610633565b95989497509550505050565b60005b838110156106ea5781810151838201526020016106d2565b838111156104365750506000910152565b600081518084526107138160208601602086016106cf565b601f01601f19169290920160200192915050565b60208152600061073a60208301846106fb565b9392505050565b6001600160a01b038116811461075657600080fd5b50565b60008060008060006080868803121561077157600080fd5b853561077c81610741565b94506020860135935060408601359250606086013567ffffffffffffffff8111156107a657600080fd5b6107b288828901610633565b969995985093965092949392505050565b600080604083850312156107d657600080fd5b50508035926020909101359150565b6000806000606084860312156107fa57600080fd5b83359250602084013561080c81610741565b9150604084013561081c81610741565b809150509250925092565b6000806040838503121561083a57600080fd5b823561084581610741565b946020939093013593505050565b60006020828403121561086557600080fd5b8151801515811461073a57600080fd5b600082516108878184602087016106cf565b919091019291505056fea264697066735822122064d451d8f5d816a1528d346036aa0b0570da286eadb9065f8640001fb6d5a5c264736f6c634300080a0033",
    "linkReferences": {}
  },
  "methodIdentifiers": {
    "Web3Entry()": "c5a5ed51",
    "getNoteData(uint256,uint256)": "eb56f509",
    "initializeMintModule(uint256,uint256,bytes)": "7dd37a9e",
    "processMint(address,uint256,uint256,bytes)": "7f20dc21"
  },
  "id": 73
}