{
  "abi": [
    {
      "anonymous": false,
      "inputs": [
        {
          "indexed": true,
          "internalType": "address",
          "name": "owner",
          "type": "address"
        },
        {
          "indexed": true,
          "internalType": "address",
          "name": "approved",
          "type": "address"
        },
        {
          "indexed": true,
          "internalType": "uint256",
          "name": "tokenId",
          "type": "uint256"
        }
      ],
      "name": "Approval",
      "type": "event"
    },
    {
      "anonymous": false,
      "inputs": [
        {
          "indexed": true,
          "internalType": "address",
          "name": "owner",
          "type": "address"
        },
        {
          "indexed": true,
          "internalType": "address",
          "name": "operator",
          "type": "address"
        },
        {
          "indexed": false,
          "internalType": "bool",
          "name": "approved",
          "type": "bool"
        }
      ],
      "name": "ApprovalForAll",
      "type": "event"
    },
    {
      "anonymous": false,
      "inputs": [
        {
          "indexed": false,
          "internalType": "uint8",
          "name": "version",
          "type": "uint8"
        }
      ],
      "name": "Initialized",
      "type": "event"
    },
    {
      "anonymous": false,
      "inputs": [
        {
          "indexed": true,
          "internalType": "address",
          "name": "from",
          "type": "address"
        },
        {
          "indexed": true,
          "internalType": "address",
          "name": "to",
          "type": "address"
        },
        {
          "indexed": true,
          "internalType": "uint256",
          "name": "tokenId",
          "type": "uint256"
        }
      ],
      "name": "Transfer",
      "type": "event"
    },
    {
      "inputs": [],
      "name": "Web3Entry",
      "outputs": [
        {
          "internalType": "address",
          "name": "",
          "type": "address"
        }
      ],
      "stateMutability": "view",
      "type": "function"
    },
    {
      "inputs": [
        {
          "internalType": "address",
          "name": "to",
          "type": "address"
        },
        {
          "internalType": "uint256",
          "name": "tokenId",
          "type": "uint256"
        }
      ],
      "name": "approve",
      "outputs": [],
      "stateMutability": "nonpayable",
      "type": "function"
    },
    {
      "inputs": [
        {
          "internalType": "address",
          "name": "owner",
          "type": "address"
        }
      ],
      "name": "balanceOf",
      "outputs": [
        {
          "internalType": "uint256",
          "name": "",
          "type": "uint256"
        }
      ],
      "stateMutability": "view",
      "type": "function"
    },
    {
      "inputs": [
        {
          "internalType": "uint256",
          "name": "tokenId",
          "type": "uint256"
        }
      ],
      "name": "burn",
      "outputs": [],
      "stateMutability": "nonpayable",
      "type": "function"
    },
    {
      "inputs": [
        {
          "internalType": "uint256",
          "name": "tokenId",
          "type": "uint256"
        }
      ],
      "name": "getApproved",
      "outputs": [
        {
          "internalType": "address",
          "name": "",
          "type": "address"
        }
      ],
      "stateMutability": "view",
      "type": "function"
    },
    {
      "inputs": [],
      "name": "getSourcePublicationPointer",
      "outputs": [
        {
          "internalType": "uint256",
          "name": "",
          "type": "uint256"
        },
        {
          "internalType": "uint256",
          "name": "",
          "type": "uint256"
        }
      ],
      "stateMutability": "view",
      "type": "function"
    },
    {
      "inputs": [
        {
          "internalType": "uint256",
          "name": "characterId",
          "type": "uint256"
        },
        {
          "internalType": "uint256",
          "name": "noteId",
          "type": "uint256"
        },
        {
          "internalType": "address",
          "name": "web3Entry",
          "type": "address"
        },
        {
          "internalType": "string",
          "name": "name",
          "type": "string"
        },
        {
          "internalType": "string",
          "name": "symbol",
          "type": "string"
        }
      ],
      "name": "initialize",
      "outputs": [],
      "stateMutability": "nonpayable",
      "type": "function"
    },
    {
      "inputs": [
        {
          "internalType": "address",
          "name": "owner",
          "type": "address"
        },
        {
          "internalType": "address",
          "name": "operator",
          "type": "address"
        }
      ],
      "name": "isApprovedForAll",
      "outputs": [
        {
          "internalType": "bool",
          "name": "",
          "type": "bool"
        }
      ],
      "stateMutability": "view",
      "type": "function"
    },
    {
      "inputs": [
        {
          "internalType": "address",
          "name": "to",
          "type": "address"
        }
      ],
      "name": "mint",
      "outputs": [
        {
          "internalType": "uint256",
          "name": "",
          "type": "uint256"
        }
      ],
      "stateMutability": "nonpayable",
      "type": "function"
    },
    {
      "inputs": [],
      "name": "name",
      "outputs": [
        {
          "internalType": "string",
          "name": "",
          "type": "string"
        }
      ],
      "stateMutability": "view",
      "type": "function"
    },
    {
      "inputs": [
        {
          "internalType": "uint256",
          "name": "tokenId",
          "type": "uint256"
        }
      ],
      "name": "ownerOf",
      "outputs": [
        {
          "internalType": "address",
          "name": "",
          "type": "address"
        }
      ],
      "stateMutability": "view",
      "type": "function"
    },
    {
      "inputs": [
        {
          "internalType": "address",
          "name": "from",
          "type": "address"
        },
        {
          "internalType": "address",
          "name": "to",
          "type": "address"
        },
        {
          "internalType": "uint256",
          "name": "tokenId",
          "type": "uint256"
        }
      ],
      "name": "safeTransferFrom",
      "outputs": [],
      "stateMutability": "nonpayable",
      "type": "function"
    },
    {
      "inputs": [
        {
          "internalType": "address",
          "name": "from",
          "type": "address"
        },
        {
          "internalType": "address",
          "name": "to",
          "type": "address"
        },
        {
          "internalType": "uint256",
          "name": "tokenId",
          "type": "uint256"
        },
        {
          "internalType": "bytes",
          "name": "_data",
          "type": "bytes"
        }
      ],
      "name": "safeTransferFrom",
      "outputs": [],
      "stateMutability": "nonpayable",
      "type": "function"
    },
    {
      "inputs": [
        {
          "internalType": "address",
          "name": "operator",
          "type": "address"
        },
        {
          "internalType": "bool",
          "name": "approved",
          "type": "bool"
        }
      ],
      "name": "setApprovalForAll",
      "outputs": [],
      "stateMutability": "nonpayable",
      "type": "function"
    },
    {
      "inputs": [
        {
          "internalType": "bytes4",
          "name": "interfaceId",
          "type": "bytes4"
        }
      ],
      "name": "supportsInterface",
      "outputs": [
        {
          "internalType": "bool",
          "name": "",
          "type": "bool"
        }
      ],
      "stateMutability": "view",
      "type": "function"
    },
    {
      "inputs": [],
      "name": "symbol",
      "outputs": [
        {
          "internalType": "string",
          "name": "",
          "type": "string"
        }
      ],
      "stateMutability": "view",
      "type": "function"
    },
    {
      "inputs": [
        {
          "internalType": "uint256",
          "name": "index",
          "type": "uint256"
        }
      ],
      "name": "tokenByIndex",
      "outputs": [
        {
          "internalType": "uint256",
          "name": "",
          "type": "uint256"
        }
      ],
      "stateMutability": "view",
      "type": "function"
    },
    {
      "inputs": [
        {
          "internalType": "address",
          "name": "owner",
          "type": "address"
        },
        {
          "internalType": "uint256",
          "name": "index",
          "type": "uint256"
        }
      ],
      "name": "tokenOfOwnerByIndex",
      "outputs": [
        {
          "internalType": "uint256",
          "name": "",
          "type": "uint256"
        }
      ],
      "stateMutability": "view",
      "type": "function"
    },
    {
      "inputs": [
        {
          "internalType": "uint256",
          "name": "tokenId",
          "type": "uint256"
        }
      ],
      "name": "tokenURI",
      "outputs": [
        {
          "internalType": "string",
          "name": "",
          "type": "string"
        }
      ],
      "stateMutability": "view",
      "type": "function"
    },
    {
      "inputs": [],
      "name": "totalSupply",
      "outputs": [
        {
          "internalType": "uint256",
          "name": "",
          "type": "uint256"
        }
      ],
      "stateMutability": "view",
      "type": "function"
    },
    {
      "inputs": [
        {
          "internalType": "address",
          "name": "from",
          "type": "address"
        },
        {
          "internalType": "address",
          "name": "to",
          "type": "address"
        },
        {
          "internalType": "uint256",
          "name": "tokenId",
          "type": "uint256"
        }
      ],
      "name": "transferFrom",
      "outputs": [],
      "stateMutability": "nonpayable",
      "type": "function"
    }
  ],
  "bytecode": {
    "object": "0x608060405234801561001057600080fd5b50611b51806100206000396000f3fe608060405234801561001057600080fd5b50600436106101375760003560e01c806342966c68116100b857806395d89b411161007c57806395d89b4114610291578063a22cb46514610299578063b88d4fde146102ac578063c5a5ed51146102bf578063c87b56dd146102d8578063e985e9c5146102eb57600080fd5b806342966c68146102325780634f6ccce7146102455780636352211e146102585780636a6278421461026b57806370a082311461027e57600080fd5b806323b872dd116100ff57806323b872dd146101cb5780632f745c59146101de5780632fd6b886146101f15780633a755ed11461020457806342842e0e1461021f57600080fd5b806301ffc9a71461013c57806306fdde0314610164578063081812fc14610179578063095ea7b3146101a457806318160ddd146101b9575b600080fd5b61014f61014a36600461140b565b610327565b60405190151581526020015b60405180910390f35b61016c610352565b60405161015b9190611487565b61018c61018736600461149a565b6103e4565b6040516001600160a01b03909116815260200161015b565b6101b76101b23660046114c8565b61047e565b005b6008545b60405190815260200161015b565b6101b76101d93660046114f4565b610594565b6101bd6101ec3660046114c8565b6105c5565b6101b76101ff36600461157e565b61065b565b600b54600c546040805192835260208301919091520161015b565b6101b761022d3660046114f4565b6107e3565b6101b761024036600461149a565b6107fe565b6101bd61025336600461149a565b610860565b61018c61026636600461149a565b6108f3565b6101bd610279366004611614565b61096a565b6101bd61028c366004611614565b6109ed565b61016c610a74565b6101b76102a736600461163f565b610a83565b6101b76102ba366004611711565b610a92565b600a5461018c906201000090046001600160a01b031681565b61016c6102e636600461149a565b610aca565b61014f6102f93660046117c0565b6001600160a01b03918216600090815260056020908152604080832093909416825291909152205460ff1690565b60006001600160e01b0319821663780e9d6360e01b148061034c575061034c82610bbd565b92915050565b606060008054610361906117ee565b80601f016020809104026020016040519081016040528092919081815260200182805461038d906117ee565b80156103da5780601f106103af576101008083540402835291602001916103da565b820191906000526020600020905b8154815290600101906020018083116103bd57829003601f168201915b5050505050905090565b6000818152600260205260408120546001600160a01b03166104625760405162461bcd60e51b815260206004820152602c60248201527f4552433732313a20617070726f76656420717565727920666f72206e6f6e657860448201526b34b9ba32b73a103a37b5b2b760a11b60648201526084015b60405180910390fd5b506000908152600460205260409020546001600160a01b031690565b6000610489826108f3565b9050806001600160a01b0316836001600160a01b031614156104f75760405162461bcd60e51b815260206004820152602160248201527f4552433732313a20617070726f76616c20746f2063757272656e74206f776e656044820152603960f91b6064820152608401610459565b336001600160a01b0382161480610513575061051381336102f9565b6105855760405162461bcd60e51b815260206004820152603860248201527f4552433732313a20617070726f76652063616c6c6572206973206e6f74206f7760448201527f6e6572206e6f7220617070726f76656420666f7220616c6c00000000000000006064820152608401610459565b61058f8383610c0d565b505050565b61059e3382610c7b565b6105ba5760405162461bcd60e51b815260040161045990611829565b61058f838383610d72565b60006105d0836109ed565b82106106325760405162461bcd60e51b815260206004820152602b60248201527f455243373231456e756d657261626c653a206f776e657220696e646578206f7560448201526a74206f6620626f756e647360a81b6064820152608401610459565b506001600160a01b03919091166000908152600660209081526040808320938352929052205490565b600a54610100900460ff161580801561067b5750600a54600160ff909116105b806106955750303b1580156106955750600a5460ff166001145b6106f85760405162461bcd60e51b815260206004820152602e60248201527f496e697469616c697a61626c653a20636f6e747261637420697320616c72656160448201526d191e481a5b9a5d1a585b1a5e995960921b6064820152608401610459565b600a805460ff19166001179055801561071b57600a805461ff0019166101001790555b61072785858585610f0e565b600b889055600c879055600a805462010000600160b01b031916620100006001600160a01b038916021790556040805189815260208101899052428183015290517f6f606e3871b6f24ddc0daa88a8ed8e8761eb9d1474e64322940f858df287de50916060908290030190a180156107d957600a805461ff0019169055604051600181527f7f26b83ff96e1f2b6a682f133852f6798a09c465da95921460cefb38474024989060200160405180910390a15b5050505050505050565b61058f83838360405180602001604052806000815250610a92565b6108083382610c7b565b6108545760405162461bcd60e51b815260206004820152601b60248201527f4e4654426173653a204e6f744f776e65724f72417070726f76656400000000006044820152606401610459565b61085d81610f5f565b50565b600061086b60085490565b82106108ce5760405162461bcd60e51b815260206004820152602c60248201527f455243373231456e756d657261626c653a20676c6f62616c20696e646578206f60448201526b7574206f6620626f756e647360a01b6064820152608401610459565b600882815481106108e1576108e161187a565b90600052602060002001549050919050565b6000818152600260205260408120546001600160a01b03168061034c5760405162461bcd60e51b815260206004820152602960248201527f4552433732313a206f776e657220717565727920666f72206e6f6e657869737460448201526832b73a103a37b5b2b760b91b6064820152608401610459565b600a546000906201000090046001600160a01b031633146109c55760405162461bcd60e51b81526020600482015260156024820152744d696e744e46543a204e6f7457656233456e74727960581b6044820152606401610459565b6109d3600d80546001019055565b6109e5826109e0600d5490565b610ffa565b600d5461034c565b60006001600160a01b038216610a585760405162461bcd60e51b815260206004820152602a60248201527f4552433732313a2062616c616e636520717565727920666f7220746865207a65604482015269726f206164647265737360b01b6064820152608401610459565b506001600160a01b031660009081526003602052604090205490565b606060018054610361906117ee565b610a8e33838361113c565b5050565b610a9c3383610c7b565b610ab85760405162461bcd60e51b815260040161045990611829565b610ac48484848461120b565b50505050565b6000818152600260205260409020546060906001600160a01b0316610b315760405162461bcd60e51b815260206004820152601a60248201527f4d696e744e46543a20546f6b656e446f65734e6f7445786973740000000000006044820152606401610459565b600a54600b54600c546040516301b6923d60e71b815260048101929092526024820152620100009091046001600160a01b03169063db491e8090604401600060405180830381865afa158015610b8b573d6000803e3d6000fd5b505050506040513d6000823e601f3d908101601f19168201604052610bb391908101906118f0565b6040015192915050565b60006001600160e01b031982166380ac58cd60e01b1480610bee57506001600160e01b03198216635b5e139f60e01b145b8061034c57506301ffc9a760e01b6001600160e01b031983161461034c565b600081815260046020526040902080546001600160a01b0319166001600160a01b0384169081179091558190610c42826108f3565b6001600160a01b03167f8c5be1e5ebec7d5bd14f71427d1e84f3dd0314c0f7b2291e5b200ac8c7c3b92560405160405180910390a45050565b6000818152600260205260408120546001600160a01b0316610cf45760405162461bcd60e51b815260206004820152602c60248201527f4552433732313a206f70657261746f7220717565727920666f72206e6f6e657860448201526b34b9ba32b73a103a37b5b2b760a11b6064820152608401610459565b6000610cff836108f3565b9050806001600160a01b0316846001600160a01b03161480610d3a5750836001600160a01b0316610d2f846103e4565b6001600160a01b0316145b80610d6a57506001600160a01b0380821660009081526005602090815260408083209388168352929052205460ff165b949350505050565b826001600160a01b0316610d85826108f3565b6001600160a01b031614610de95760405162461bcd60e51b815260206004820152602560248201527f4552433732313a207472616e736665722066726f6d20696e636f72726563742060448201526437bbb732b960d91b6064820152608401610459565b6001600160a01b038216610e4b5760405162461bcd60e51b8152602060048201526024808201527f4552433732313a207472616e7366657220746f20746865207a65726f206164646044820152637265737360e01b6064820152608401610459565b610e56600082610c0d565b6001600160a01b0383166000908152600360205260408120805460019290610e7f9084906119dd565b90915550506001600160a01b0382166000908152600360205260408120805460019290610ead9084906119f4565b909155505060008181526002602052604080822080546001600160a01b0319166001600160a01b0386811691821790925591518493918716917fddf252ad1be2c89b69c2b068fc378daa952ba7f163c4a11628f55a4df523b3ef91a4505050565b610f1a8484848461123e565b7f414cd0b34676984f09a5f76ce9718d4062e50283abe0e7e274a9a5b4e0c99c308484848442604051610f51959493929190611a35565b60405180910390a150505050565b6000610f6a826108f3565b9050610f77600083610c0d565b6001600160a01b0381166000908152600360205260408120805460019290610fa09084906119dd565b909155505060008281526002602052604080822080546001600160a01b0319169055518391906001600160a01b038416907fddf252ad1be2c89b69c2b068fc378daa952ba7f163c4a11628f55a4df523b3ef908390a45050565b6001600160a01b0382166110505760405162461bcd60e51b815260206004820181905260248201527f4552433732313a206d696e7420746f20746865207a65726f20616464726573736044820152606401610459565b6000818152600260205260409020546001600160a01b0316156110b55760405162461bcd60e51b815260206004820152601c60248201527f4552433732313a20746f6b656e20616c7265616479206d696e746564000000006044820152606401610459565b6001600160a01b03821660009081526003602052604081208054600192906110de9084906119f4565b909155505060008181526002602052604080822080546001600160a01b0319166001600160a01b03861690811790915590518392907fddf252ad1be2c89b69c2b068fc378daa952ba7f163c4a11628f55a4df523b3ef908290a45050565b816001600160a01b0316836001600160a01b0316141561119e5760405162461bcd60e51b815260206004820152601960248201527f4552433732313a20617070726f766520746f2063616c6c6572000000000000006044820152606401610459565b6001600160a01b03838116600081815260056020908152604080832094871680845294825291829020805460ff191686151590811790915591519182527f17307eab39ab6107e8899845ad3d59bd9653f200f220920489ca2b5937696c31910160405180910390a3505050565b611216848484610d72565b6112228484848461125e565b610ac45760405162461bcd60e51b815260040161045990611a6f565b61124a6000858561135c565b506112576001838361135c565b5050505050565b60006001600160a01b0384163b1561135157604051630a85bd0160e11b81526001600160a01b0385169063150b7a02906112a2903390899088908890600401611ac1565b6020604051808303816000875af19250505080156112dd575060408051601f3d908101601f191682019092526112da91810190611afe565b60015b611337573d80801561130b576040519150601f19603f3d011682016040523d82523d6000602084013e611310565b606091505b50805161132f5760405162461bcd60e51b815260040161045990611a6f565b805181602001fd5b6001600160e01b031916630a85bd0160e11b149050610d6a565b506001949350505050565b828054611368906117ee565b90600052602060002090601f01602090048101928261138a57600085556113d0565b82601f106113a35782800160ff198235161785556113d0565b828001600101855582156113d0579182015b828111156113d05782358255916020019190600101906113b5565b506113dc9291506113e0565b5090565b5b808211156113dc57600081556001016113e1565b6001600160e01b03198116811461085d57600080fd5b60006020828403121561141d57600080fd5b8135611428816113f5565b9392505050565b60005b8381101561144a578181015183820152602001611432565b83811115610ac45750506000910152565b6000815180845261147381602086016020860161142f565b601f01601f19169290920160200192915050565b602081526000611428602083018461145b565b6000602082840312156114ac57600080fd5b5035919050565b6001600160a01b038116811461085d57600080fd5b600080604083850312156114db57600080fd5b82356114e6816114b3565b946020939093013593505050565b60008060006060848603121561150957600080fd5b8335611514816114b3565b92506020840135611524816114b3565b929592945050506040919091013590565b60008083601f84011261154757600080fd5b50813567ffffffffffffffff81111561155f57600080fd5b60208301915083602082850101111561157757600080fd5b9250929050565b600080600080600080600060a0888a03121561159957600080fd5b873596506020880135955060408801356115b2816114b3565b9450606088013567ffffffffffffffff808211156115cf57600080fd5b6115db8b838c01611535565b909650945060808a01359150808211156115f457600080fd5b506116018a828b01611535565b989b979a50959850939692959293505050565b60006020828403121561162657600080fd5b8135611428816114b3565b801515811461085d57600080fd5b6000806040838503121561165257600080fd5b823561165d816114b3565b9150602083013561166d81611631565b809150509250929050565b634e487b7160e01b600052604160045260246000fd5b604051610100810167ffffffffffffffff811182821017156116b2576116b2611678565b60405290565b604051601f8201601f1916810167ffffffffffffffff811182821017156116e1576116e1611678565b604052919050565b600067ffffffffffffffff82111561170357611703611678565b50601f01601f191660200190565b6000806000806080858703121561172757600080fd5b8435611732816114b3565b93506020850135611742816114b3565b925060408501359150606085013567ffffffffffffffff81111561176557600080fd5b8501601f8101871361177657600080fd5b8035611789611784826116e9565b6116b8565b81815288602083850101111561179e57600080fd5b8160208401602083013760006020838301015280935050505092959194509250565b600080604083850312156117d357600080fd5b82356117de816114b3565b9150602083013561166d816114b3565b600181811c9082168061180257607f821691505b6020821081141561182357634e487b7160e01b600052602260045260246000fd5b50919050565b60208082526031908201527f4552433732313a207472616e736665722063616c6c6572206973206e6f74206f6040820152701ddb995c881b9bdc88185c1c1c9bdd9959607a1b606082015260800190565b634e487b7160e01b600052603260045260246000fd5b600082601f8301126118a157600080fd5b81516118af611784826116e9565b8181528460208386010111156118c457600080fd5b610d6a82602083016020870161142f565b80516118e0816114b3565b919050565b80516118e081611631565b60006020828403121561190257600080fd5b815167ffffffffffffffff8082111561191a57600080fd5b90830190610100828603121561192f57600080fd5b61193761168e565b825181526020830151602082015260408301518281111561195757600080fd5b61196387828601611890565b604083015250611975606084016118d5565b6060820152611986608084016118d5565b608082015261199760a084016118d5565b60a08201526119a860c084016118e5565b60c08201526119b960e084016118e5565b60e082015295945050505050565b634e487b7160e01b600052601160045260246000fd5b6000828210156119ef576119ef6119c7565b500390565b60008219821115611a0757611a076119c7565b500190565b81835281816020850137506000828201602090810191909152601f909101601f19169091010190565b606081526000611a49606083018789611a0c565b8281036020840152611a5c818688611a0c565b9150508260408301529695505050505050565b60208082526032908201527f4552433732313a207472616e7366657220746f206e6f6e20455243373231526560408201527131b2b4bb32b91034b6b83632b6b2b73a32b960711b606082015260800190565b6001600160a01b0385811682528416602082015260408101839052608060608201819052600090611af49083018461145b565b9695505050505050565b600060208284031215611b1057600080fd5b8151611428816113f556fea2646970667358221220f6f9dc0f15eeb3d52809dfc03c566ed31ab3059704ba57ce628e492d8c1bfd0164736f6c634300080a0033",
    "linkReferences": {}
  },
  "methodIdentifiers": {
    "Web3Entry()": "c5a5ed51",
    "approve(address,uint256)": "095ea7b3",
    "balanceOf(address)": "70a08231",
    "burn(uint256)": "42966c68",
    "getApproved(uint256)": "081812fc",
    "getSourcePublicationPointer()": "3a755ed1",
    "initialize(uint256,uint256,address,string,string)": "2fd6b886",
    "isApprovedForAll(address,address)": "e985e9c5",
    "mint(address)": "6a627842",
    "name()": "06fdde03",
    "ownerOf(uint256)": "6352211e",
    "safeTransferFrom(address,address,uint256)": "42842e0e",
    "safeTransferFrom(address,address,uint256,bytes)": "b88d4fde",
    "setApprovalForAll(address,bool)": "a22cb465",
    "supportsInterface(bytes4)": "01ffc9a7",
    "symbol()": "95d89b41",
    "tokenByIndex(uint256)": "4f6ccce7",
    "tokenOfOwnerByIndex(address,uint256)": "2f745c59",
    "tokenURI(uint256)": "c87b56dd",
    "totalSupply()": "18160ddd",
    "transferFrom(address,address,uint256)": "23b872dd"
  },
  "id": 39
}