{
  "abi": [
    {
      "anonymous": false,
      "inputs": [
        {
          "indexed": true,
          "internalType": "address",
          "name": "owner",
          "type": "address"
        },
        {
          "indexed": true,
          "internalType": "address",
          "name": "approved",
          "type": "address"
        },
        {
          "indexed": true,
          "internalType": "uint256",
          "name": "tokenId",
          "type": "uint256"
        }
      ],
      "name": "Approval",
      "type": "event"
    },
    {
      "anonymous": false,
      "inputs": [
        {
          "indexed": true,
          "internalType": "address",
          "name": "owner",
          "type": "address"
        },
        {
          "indexed": true,
          "internalType": "address",
          "name": "operator",
          "type": "address"
        },
        {
          "indexed": false,
          "internalType": "bool",
          "name": "approved",
          "type": "bool"
        }
      ],
      "name": "ApprovalForAll",
      "type": "event"
    },
    {
      "anonymous": false,
      "inputs": [
        {
          "indexed": false,
          "internalType": "uint8",
          "name": "version",
          "type": "uint8"
        }
      ],
      "name": "Initialized",
      "type": "event"
    },
    {
      "anonymous": false,
      "inputs": [
        {
          "indexed": true,
          "internalType": "address",
          "name": "from",
          "type": "address"
        },
        {
          "indexed": true,
          "internalType": "address",
          "name": "to",
          "type": "address"
        },
        {
          "indexed": true,
          "internalType": "uint256",
          "name": "tokenId",
          "type": "uint256"
        }
      ],
      "name": "Transfer",
      "type": "event"
    },
    {
      "inputs": [
        {
          "internalType": "uint256",
          "name": "tokenId",
          "type": "uint256"
        }
      ],
      "name": "Uri",
      "outputs": [
        {
          "internalType": "string",
          "name": "",
          "type": "string"
        }
      ],
      "stateMutability": "view",
      "type": "function"
    },
    {
      "inputs": [],
      "name": "Web3Entry",
      "outputs": [
        {
          "internalType": "address",
          "name": "",
          "type": "address"
        }
      ],
      "stateMutability": "view",
      "type": "function"
    },
    {
      "inputs": [
        {
          "internalType": "uint256",
          "name": "tokenId",
          "type": "uint256"
        },
        {
          "internalType": "address",
          "name": "ethAddress",
          "type": "address"
        }
      ],
      "name": "addLinkingAddress",
      "outputs": [],
      "stateMutability": "nonpayable",
      "type": "function"
    },
    {
      "inputs": [
        {
          "internalType": "uint256",
          "name": "tokenId",
          "type": "uint256"
        },
        {
          "internalType": "string",
          "name": "toUri",
          "type": "string"
        }
      ],
      "name": "addLinkingAnyUri",
      "outputs": [
        {
          "internalType": "bytes32",
          "name": "",
          "type": "bytes32"
        }
      ],
      "stateMutability": "nonpayable",
      "type": "function"
    },
    {
      "inputs": [
        {
          "internalType": "uint256",
          "name": "tokenId",
          "type": "uint256"
        },
        {
          "internalType": "uint256",
          "name": "toCharacterId",
          "type": "uint256"
        }
      ],
      "name": "addLinkingCharacterId",
      "outputs": [],
      "stateMutability": "nonpayable",
      "type": "function"
    },
    {
      "inputs": [
        {
          "internalType": "uint256",
          "name": "tokenId",
          "type": "uint256"
        },
        {
          "components": [
            {
              "internalType": "uint256",
              "name": "fromCharacterId",
              "type": "uint256"
            },
            {
              "internalType": "uint256",
              "name": "toCharacterId",
              "type": "uint256"
            },
            {
              "internalType": "bytes32",
              "name": "linkType",
              "type": "bytes32"
            }
          ],
          "internalType": "struct DataTypes.CharacterLinkStruct",
          "name": "linkData",
          "type": "tuple"
        }
      ],
      "name": "addLinkingCharacterLink",
      "outputs": [],
      "stateMutability": "nonpayable",
      "type": "function"
    },
    {
      "inputs": [
        {
          "internalType": "uint256",
          "name": "tokenId",
          "type": "uint256"
        },
        {
          "internalType": "address",
          "name": "tokenAddress",
          "type": "address"
        },
        {
          "internalType": "uint256",
          "name": "erc721TokenId",
          "type": "uint256"
        }
      ],
      "name": "addLinkingERC721",
      "outputs": [
        {
          "internalType": "bytes32",
          "name": "",
          "type": "bytes32"
        }
      ],
      "stateMutability": "nonpayable",
      "type": "function"
    },
    {
      "inputs": [
        {
          "internalType": "uint256",
          "name": "tokenId",
          "type": "uint256"
        },
        {
          "internalType": "uint256",
          "name": "linklistId",
          "type": "uint256"
        }
      ],
      "name": "addLinkingLinklistId",
      "outputs": [],
      "stateMutability": "nonpayable",
      "type": "function"
    },
    {
      "inputs": [
        {
          "internalType": "uint256",
          "name": "tokenId",
          "type": "uint256"
        },
        {
          "internalType": "uint256",
          "name": "toCharacterId",
          "type": "uint256"
        },
        {
          "internalType": "uint256",
          "name": "toNoteId",
          "type": "uint256"
        }
      ],
      "name": "addLinkingNote",
      "outputs": [
        {
          "internalType": "bytes32",
          "name": "",
          "type": "bytes32"
        }
      ],
      "stateMutability": "nonpayable",
      "type": "function"
    },
    {
      "inputs": [
        {
          "internalType": "address",
          "name": "to",
          "type": "address"
        },
        {
          "internalType": "uint256",
          "name": "tokenId",
          "type": "uint256"
        }
      ],
      "name": "approve",
      "outputs": [],
      "stateMutability": "nonpayable",
      "type": "function"
    },
    {
      "inputs": [
        {
          "internalType": "address",
          "name": "owner",
          "type": "address"
        }
      ],
      "name": "balanceOf",
      "outputs": [
        {
          "internalType": "uint256",
          "name": "",
          "type": "uint256"
        }
      ],
      "stateMutability": "view",
      "type": "function"
    },
    {
      "inputs": [
        {
          "internalType": "uint256",
          "name": "tokenId",
          "type": "uint256"
        }
      ],
      "name": "burn",
      "outputs": [],
      "stateMutability": "nonpayable",
      "type": "function"
    },
    {
      "inputs": [
        {
          "internalType": "uint256",
          "name": "tokenId",
          "type": "uint256"
        }
      ],
      "name": "getApproved",
      "outputs": [
        {
          "internalType": "address",
          "name": "",
          "type": "address"
        }
      ],
      "stateMutability": "view",
      "type": "function"
    },
    {
      "inputs": [
        {
          "internalType": "uint256",
          "name": "tokenId",
          "type": "uint256"
        }
      ],
      "name": "getCurrentTakeOver",
      "outputs": [
        {
          "internalType": "uint256",
          "name": "characterId",
          "type": "uint256"
        }
      ],
      "stateMutability": "view",
      "type": "function"
    },
    {
      "inputs": [
        {
          "internalType": "uint256",
          "name": "tokenId",
          "type": "uint256"
        }
      ],
      "name": "getLinkType",
      "outputs": [
        {
          "internalType": "bytes32",
          "name": "",
          "type": "bytes32"
        }
      ],
      "stateMutability": "view",
      "type": "function"
    },
    {
      "inputs": [
        {
          "internalType": "uint256",
          "name": "tokenId",
          "type": "uint256"
        }
      ],
      "name": "getLinkingAddressListLength",
      "outputs": [
        {
          "internalType": "uint256",
          "name": "",
          "type": "uint256"
        }
      ],
      "stateMutability": "view",
      "type": "function"
    },
    {
      "inputs": [
        {
          "internalType": "uint256",
          "name": "tokenId",
          "type": "uint256"
        }
      ],
      "name": "getLinkingAddresses",
      "outputs": [
        {
          "internalType": "address[]",
          "name": "",
          "type": "address[]"
        }
      ],
      "stateMutability": "view",
      "type": "function"
    },
    {
      "inputs": [
        {
          "internalType": "uint256",
          "name": "tokenId",
          "type": "uint256"
        }
      ],
      "name": "getLinkingAnyListLength",
      "outputs": [
        {
          "internalType": "uint256",
          "name": "",
          "type": "uint256"
        }
      ],
      "stateMutability": "view",
      "type": "function"
    },
    {
      "inputs": [
        {
          "internalType": "bytes32",
          "name": "linkKey",
          "type": "bytes32"
        }
      ],
      "name": "getLinkingAnyUri",
      "outputs": [
        {
          "internalType": "string",
          "name": "",
          "type": "string"
        }
      ],
      "stateMutability": "view",
      "type": "function"
    },
    {
      "inputs": [
        {
          "internalType": "uint256",
          "name": "tokenId",
          "type": "uint256"
        }
      ],
      "name": "getLinkingAnyUriKeys",
      "outputs": [
        {
          "internalType": "bytes32[]",
          "name": "",
          "type": "bytes32[]"
        }
      ],
      "stateMutability": "view",
      "type": "function"
    },
    {
      "inputs": [
        {
          "internalType": "uint256",
          "name": "tokenId",
          "type": "uint256"
        }
      ],
      "name": "getLinkingAnyUris",
      "outputs": [
        {
          "internalType": "string[]",
          "name": "results",
          "type": "string[]"
        }
      ],
      "stateMutability": "view",
      "type": "function"
    },
    {
      "inputs": [
        {
          "internalType": "uint256",
          "name": "tokenId",
          "type": "uint256"
        }
      ],
      "name": "getLinkingCharacterIds",
      "outputs": [
        {
          "internalType": "uint256[]",
          "name": "",
          "type": "uint256[]"
        }
      ],
      "stateMutability": "view",
      "type": "function"
    },
    {
      "inputs": [
        {
          "internalType": "bytes32",
          "name": "linkKey",
          "type": "bytes32"
        }
      ],
      "name": "getLinkingCharacterLink",
      "outputs": [
        {
          "components": [
            {
              "internalType": "uint256",
              "name": "fromCharacterId",
              "type": "uint256"
            },
            {
              "internalType": "uint256",
              "name": "toCharacterId",
              "type": "uint256"
            },
            {
              "internalType": "bytes32",
              "name": "linkType",
              "type": "bytes32"
            }
          ],
          "internalType": "struct DataTypes.CharacterLinkStruct",
          "name": "",
          "type": "tuple"
        }
      ],
      "stateMutability": "view",
      "type": "function"
    },
    {
      "inputs": [
        {
          "internalType": "uint256",
          "name": "tokenId",
          "type": "uint256"
        }
      ],
      "name": "getLinkingCharacterLinkListLength",
      "outputs": [
        {
          "internalType": "uint256",
          "name": "",
          "type": "uint256"
        }
      ],
      "stateMutability": "view",
      "type": "function"
    },
    {
      "inputs": [
        {
          "internalType": "uint256",
          "name": "tokenId",
          "type": "uint256"
        }
      ],
      "name": "getLinkingCharacterLinks",
      "outputs": [
        {
          "components": [
            {
              "internalType": "uint256",
              "name": "fromCharacterId",
              "type": "uint256"
            },
            {
              "internalType": "uint256",
              "name": "toCharacterId",
              "type": "uint256"
            },
            {
              "internalType": "bytes32",
              "name": "linkType",
              "type": "bytes32"
            }
          ],
          "internalType": "struct DataTypes.CharacterLinkStruct[]",
          "name": "results",
          "type": "tuple[]"
        }
      ],
      "stateMutability": "view",
      "type": "function"
    },
    {
      "inputs": [
        {
          "internalType": "uint256",
          "name": "tokenId",
          "type": "uint256"
        }
      ],
      "name": "getLinkingCharacterListLength",
      "outputs": [
        {
          "internalType": "uint256",
          "name": "",
          "type": "uint256"
        }
      ],
      "stateMutability": "view",
      "type": "function"
    },
    {
      "inputs": [
        {
          "internalType": "bytes32",
          "name": "linkKey",
          "type": "bytes32"
        }
      ],
      "name": "getLinkingERC721",
      "outputs": [
        {
          "components": [
            {
              "internalType": "address",
              "name": "tokenAddress",
              "type": "address"
            },
            {
              "internalType": "uint256",
              "name": "erc721TokenId",
              "type": "uint256"
            }
          ],
          "internalType": "struct DataTypes.ERC721Struct",
          "name": "",
          "type": "tuple"
        }
      ],
      "stateMutability": "view",
      "type": "function"
    },
    {
      "inputs": [
        {
          "internalType": "uint256",
          "name": "tokenId",
          "type": "uint256"
        }
      ],
      "name": "getLinkingERC721ListLength",
      "outputs": [
        {
          "internalType": "uint256",
          "name": "",
          "type": "uint256"
        }
      ],
      "stateMutability": "view",
      "type": "function"
    },
    {
      "inputs": [
        {
          "internalType": "uint256",
          "name": "tokenId",
          "type": "uint256"
        }
      ],
      "name": "getLinkingERC721s",
      "outputs": [
        {
          "components": [
            {
              "internalType": "address",
              "name": "tokenAddress",
              "type": "address"
            },
            {
              "internalType": "uint256",
              "name": "erc721TokenId",
              "type": "uint256"
            }
          ],
          "internalType": "struct DataTypes.ERC721Struct[]",
          "name": "results",
          "type": "tuple[]"
        }
      ],
      "stateMutability": "view",
      "type": "function"
    },
    {
      "inputs": [
        {
          "internalType": "uint256",
          "name": "tokenId",
          "type": "uint256"
        }
      ],
      "name": "getLinkingLinklistIds",
      "outputs": [
        {
          "internalType": "uint256[]",
          "name": "",
          "type": "uint256[]"
        }
      ],
      "stateMutability": "view",
      "type": "function"
    },
    {
      "inputs": [
        {
          "internalType": "uint256",
          "name": "tokenId",
          "type": "uint256"
        }
      ],
      "name": "getLinkingLinklistLength",
      "outputs": [
        {
          "internalType": "uint256",
          "name": "",
          "type": "uint256"
        }
      ],
      "stateMutability": "view",
      "type": "function"
    },
    {
      "inputs": [
        {
          "internalType": "bytes32",
          "name": "linkKey",
          "type": "bytes32"
        }
      ],
      "name": "getLinkingNote",
      "outputs": [
        {
          "components": [
            {
              "internalType": "uint256",
              "name": "characterId",
              "type": "uint256"
            },
            {
              "internalType": "uint256",
              "name": "noteId",
              "type": "uint256"
            }
          ],
          "internalType": "struct DataTypes.NoteStruct",
          "name": "",
          "type": "tuple"
        }
      ],
      "stateMutability": "view",
      "type": "function"
    },
    {
      "inputs": [
        {
          "internalType": "uint256",
          "name": "tokenId",
          "type": "uint256"
        }
      ],
      "name": "getLinkingNoteListLength",
      "outputs": [
        {
          "internalType": "uint256",
          "name": "",
          "type": "uint256"
        }
      ],
      "stateMutability": "view",
      "type": "function"
    },
    {
      "inputs": [
        {
          "internalType": "uint256",
          "name": "tokenId",
          "type": "uint256"
        }
      ],
      "name": "getLinkingNotes",
      "outputs": [
        {
          "components": [
            {
              "internalType": "uint256",
              "name": "characterId",
              "type": "uint256"
            },
            {
              "internalType": "uint256",
              "name": "noteId",
              "type": "uint256"
            }
          ],
          "internalType": "struct DataTypes.NoteStruct[]",
          "name": "results",
          "type": "tuple[]"
        }
      ],
      "stateMutability": "view",
      "type": "function"
    },
    {
      "inputs": [
        {
          "internalType": "string",
          "name": "_name",
          "type": "string"
        },
        {
          "internalType": "string",
          "name": "_symbol",
          "type": "string"
        },
        {
          "internalType": "address",
          "name": "_web3Entry",
          "type": "address"
        }
      ],
      "name": "initialize",
      "outputs": [],
      "stateMutability": "nonpayable",
      "type": "function"
    },
    {
      "inputs": [
        {
          "internalType": "address",
          "name": "owner",
          "type": "address"
        },
        {
          "internalType": "address",
          "name": "operator",
          "type": "address"
        }
      ],
      "name": "isApprovedForAll",
      "outputs": [
        {
          "internalType": "bool",
          "name": "",
          "type": "bool"
        }
      ],
      "stateMutability": "view",
      "type": "function"
    },
    {
      "inputs": [
        {
          "internalType": "address",
          "name": "to",
          "type": "address"
        },
        {
          "internalType": "bytes32",
          "name": "linkType",
          "type": "bytes32"
        },
        {
          "internalType": "uint256",
          "name": "tokenId",
          "type": "uint256"
        }
      ],
      "name": "mint",
      "outputs": [],
      "stateMutability": "nonpayable",
      "type": "function"
    },
    {
      "inputs": [],
      "name": "name",
      "outputs": [
        {
          "internalType": "string",
          "name": "",
          "type": "string"
        }
      ],
      "stateMutability": "view",
      "type": "function"
    },
    {
      "inputs": [
        {
          "internalType": "uint256",
          "name": "tokenId",
          "type": "uint256"
        }
      ],
      "name": "ownerOf",
      "outputs": [
        {
          "internalType": "address",
          "name": "",
          "type": "address"
        }
      ],
      "stateMutability": "view",
      "type": "function"
    },
    {
      "inputs": [
        {
          "internalType": "uint256",
          "name": "tokenId",
          "type": "uint256"
        },
        {
          "internalType": "address",
          "name": "ethAddress",
          "type": "address"
        }
      ],
      "name": "removeLinkingAddress",
      "outputs": [],
      "stateMutability": "nonpayable",
      "type": "function"
    },
    {
      "inputs": [
        {
          "internalType": "uint256",
          "name": "tokenId",
          "type": "uint256"
        },
        {
          "internalType": "string",
          "name": "toUri",
          "type": "string"
        }
      ],
      "name": "removeLinkingAnyUri",
      "outputs": [],
      "stateMutability": "nonpayable",
      "type": "function"
    },
    {
      "inputs": [
        {
          "internalType": "uint256",
          "name": "tokenId",
          "type": "uint256"
        },
        {
          "internalType": "uint256",
          "name": "toCharacterId",
          "type": "uint256"
        }
      ],
      "name": "removeLinkingCharacterId",
      "outputs": [],
      "stateMutability": "nonpayable",
      "type": "function"
    },
    {
      "inputs": [
        {
          "internalType": "uint256",
          "name": "tokenId",
          "type": "uint256"
        },
        {
          "components": [
            {
              "internalType": "uint256",
              "name": "fromCharacterId",
              "type": "uint256"
            },
            {
              "internalType": "uint256",
              "name": "toCharacterId",
              "type": "uint256"
            },
            {
              "internalType": "bytes32",
              "name": "linkType",
              "type": "bytes32"
            }
          ],
          "internalType": "struct DataTypes.CharacterLinkStruct",
          "name": "linkData",
          "type": "tuple"
        }
      ],
      "name": "removeLinkingCharacterLink",
      "outputs": [],
      "stateMutability": "nonpayable",
      "type": "function"
    },
    {
      "inputs": [
        {
          "internalType": "uint256",
          "name": "tokenId",
          "type": "uint256"
        },
        {
          "internalType": "address",
          "name": "tokenAddress",
          "type": "address"
        },
        {
          "internalType": "uint256",
          "name": "erc721TokenId",
          "type": "uint256"
        }
      ],
      "name": "removeLinkingERC721",
      "outputs": [],
      "stateMutability": "nonpayable",
      "type": "function"
    },
    {
      "inputs": [
        {
          "internalType": "uint256",
          "name": "tokenId",
          "type": "uint256"
        },
        {
          "internalType": "uint256",
          "name": "linklistId",
          "type": "uint256"
        }
      ],
      "name": "removeLinkingLinklistId",
      "outputs": [],
      "stateMutability": "nonpayable",
      "type": "function"
    },
    {
      "inputs": [
        {
          "internalType": "uint256",
          "name": "tokenId",
          "type": "uint256"
        },
        {
          "internalType": "uint256",
          "name": "toCharacterId",
          "type": "uint256"
        },
        {
          "internalType": "uint256",
          "name": "toNoteId",
          "type": "uint256"
        }
      ],
      "name": "removeLinkingNote",
      "outputs": [],
      "stateMutability": "nonpayable",
      "type": "function"
    },
    {
      "inputs": [
        {
          "internalType": "address",
          "name": "from",
          "type": "address"
        },
        {
          "internalType": "address",
          "name": "to",
          "type": "address"
        },
        {
          "internalType": "uint256",
          "name": "tokenId",
          "type": "uint256"
        }
      ],
      "name": "safeTransferFrom",
      "outputs": [],
      "stateMutability": "nonpayable",
      "type": "function"
    },
    {
      "inputs": [
        {
          "internalType": "address",
          "name": "from",
          "type": "address"
        },
        {
          "internalType": "address",
          "name": "to",
          "type": "address"
        },
        {
          "internalType": "uint256",
          "name": "tokenId",
          "type": "uint256"
        },
        {
          "internalType": "bytes",
          "name": "_data",
          "type": "bytes"
        }
      ],
      "name": "safeTransferFrom",
      "outputs": [],
      "stateMutability": "nonpayable",
      "type": "function"
    },
    {
      "inputs": [
        {
          "internalType": "address",
          "name": "operator",
          "type": "address"
        },
        {
          "internalType": "bool",
          "name": "approved",
          "type": "bool"
        }
      ],
      "name": "setApprovalForAll",
      "outputs": [],
      "stateMutability": "nonpayable",
      "type": "function"
    },
    {
      "inputs": [
        {
          "internalType": "uint256",
          "name": "tokenId",
          "type": "uint256"
        },
        {
          "internalType": "address",
          "name": "to",
          "type": "address"
        },
        {
          "internalType": "uint256",
          "name": "characterId",
          "type": "uint256"
        }
      ],
      "name": "setTakeOver",
      "outputs": [],
      "stateMutability": "nonpayable",
      "type": "function"
    },
    {
      "inputs": [
        {
          "internalType": "uint256",
          "name": "tokenId",
          "type": "uint256"
        },
        {
          "internalType": "string",
          "name": "_uri",
          "type": "string"
        }
      ],
      "name": "setUri",
      "outputs": [],
      "stateMutability": "nonpayable",
      "type": "function"
    },
    {
      "inputs": [
        {
          "internalType": "bytes4",
          "name": "interfaceId",
          "type": "bytes4"
        }
      ],
      "name": "supportsInterface",
      "outputs": [
        {
          "internalType": "bool",
          "name": "",
          "type": "bool"
        }
      ],
      "stateMutability": "view",
      "type": "function"
    },
    {
      "inputs": [],
      "name": "symbol",
      "outputs": [
        {
          "internalType": "string",
          "name": "",
          "type": "string"
        }
      ],
      "stateMutability": "view",
      "type": "function"
    },
    {
      "inputs": [
        {
          "internalType": "uint256",
          "name": "index",
          "type": "uint256"
        }
      ],
      "name": "tokenByIndex",
      "outputs": [
        {
          "internalType": "uint256",
          "name": "",
          "type": "uint256"
        }
      ],
      "stateMutability": "view",
      "type": "function"
    },
    {
      "inputs": [
        {
          "internalType": "address",
          "name": "owner",
          "type": "address"
        },
        {
          "internalType": "uint256",
          "name": "index",
          "type": "uint256"
        }
      ],
      "name": "tokenOfOwnerByIndex",
      "outputs": [
        {
          "internalType": "uint256",
          "name": "",
          "type": "uint256"
        }
      ],
      "stateMutability": "view",
      "type": "function"
    },
    {
      "inputs": [
        {
          "internalType": "uint256",
          "name": "tokenId",
          "type": "uint256"
        }
      ],
      "name": "tokenURI",
      "outputs": [
        {
          "internalType": "string",
          "name": "",
          "type": "string"
        }
      ],
      "stateMutability": "view",
      "type": "function"
    },
    {
      "inputs": [],
      "name": "totalSupply",
      "outputs": [
        {
          "internalType": "uint256",
          "name": "",
          "type": "uint256"
        }
      ],
      "stateMutability": "view",
      "type": "function"
    },
    {
      "inputs": [
        {
          "internalType": "address",
          "name": "from",
          "type": "address"
        },
        {
          "internalType": "address",
          "name": "to",
          "type": "address"
        },
        {
          "internalType": "uint256",
          "name": "tokenId",
          "type": "uint256"
        }
      ],
      "name": "transferFrom",
      "outputs": [],
      "stateMutability": "nonpayable",
      "type": "function"
    }
  ],
  "bytecode": {
    "object": "0x608060405234801561001057600080fd5b5061354e806100206000396000f3fe608060405234801561001057600080fd5b506004361061038d5760003560e01c80635f799cc6116101de578063a22cb4651161010f578063c70881c5116100ad578063e985e9c51161007c578063e985e9c5146108fa578063ed386e651461090d578063ed6223cf14610920578063f61087f61461093357600080fd5b8063c70881c5146108b4578063c87b56dd14610842578063c89dcfce146108c7578063e64f2baa146108da57600080fd5b8063ba27f58d116100e9578063ba27f58d14610868578063c1cd4f821461087b578063c49819861461088e578063c5a5ed51146108a157600080fd5b8063a22cb4651461082f578063ac150a5414610842578063b88d4fde1461085557600080fd5b806376bac0251161017c5780638fd6dc39116101565780638fd6dc39146107e15780639037c0f9146107f457806395d89b411461081457806397ce7df61461081c57600080fd5b806376bac0251461078e578063782f08ae146107ae57806384bd9b67146107c157600080fd5b80636c217e12116101b85780636c217e12146107425780636d37d2741461075557806370a0823114610768578063716c99a41461077b57600080fd5b80635f799cc6146107095780636352211e1461071c57806368e67d571461072f57600080fd5b80632ea24efc116102c35780634a7906b9116102615780635956da73116102305780635956da73146106a35780635c369ec3146106b65780635cb46be7146106d65780635e9f678b146106e957600080fd5b80634a7906b9146105c25780634aa7b87a1461061b5780634f6ccce71461062e5780635440522b1461064157600080fd5b806342966c681161029d57806342966c681461056957806342c1721f1461057c57806348d1b16c1461058f578063493fa4dc146105a257600080fd5b80632ea24efc146105305780632f745c591461054357806342842e0e1461055657600080fd5b8063095ea7b31161033057806321cb72271161030a57806321cb7227146104e457806323b872dd146104f7578063288893d61461050a5780632ce83d871461051d57600080fd5b8063095ea7b31461046357806318160ddd1461047657806319ac741b1461047e57600080fd5b8063040f76181161036c578063040f7618146103fd57806306fdde0314610410578063077f224a14610425578063081812fc1461043857600080fd5b8062fba0271461039257806301ffc9a7146103c55780630370a161146103e8575b600080fd5b6103b26103a0366004612b62565b6000908152600b602052604090205490565b6040519081526020015b60405180910390f35b6103d86103d3366004612b91565b610946565b60405190151581526020016103bc565b6103fb6103f6366004612bca565b610971565b005b6103fb61040b366004612bff565b6109c6565b610418610a23565b6040516103bc9190612c83565b6103fb610433366004612cdf565b610ab5565b61044b610446366004612b62565b610c22565b6040516001600160a01b0390911681526020016103bc565b6103fb610471366004612d60565b610cb7565b6008546103b2565b6104d761048c366004612b62565b60408051606080820183526000808352602080840182905292840181905293845260128252928290208251938401835280548452600181015491840191909152600201549082015290565b6040516103bc9190612d8a565b6103fb6104f2366004612dab565b610dcd565b6103fb610505366004612dcd565b610ded565b6103fb610518366004612dab565b610e1e565b6103b261052b366004612b62565b610e3e565b6103b261053e366004612bca565b610e55565b6103b2610551366004612d60565b610eff565b6103fb610564366004612dcd565b610f95565b6103fb610577366004612b62565b610fb0565b6103fb61058a366004612e85565b611012565b6103b261059d366004612b62565b611064565b6103b26105b0366004612b62565b60009081526014602052604090205490565b61060e6105d0366004612b62565b604080518082019091526000808252602082015250600090815260116020908152604091829020825180840190935280548352600101549082015290565b6040516103bc9190612ee0565b6103b2610629366004612b62565b61107b565b6103b261063c366004612b62565b611092565b61069661064f366004612b62565b604080518082019091526000808252602082015250600090815260106020908152604091829020825180840190935280546001600160a01b03168352600101549082015290565b6040516103bc9190612ef7565b6103fb6106b1366004612f17565b611125565b6106c96106c4366004612b62565b611145565b6040516103bc9190612f43565b6103b26106e4366004612bff565b61115f565b6106fc6106f7366004612b62565b6111fb565b6040516103bc9190612f90565b610418610717366004612b62565b611308565b61044b61072a366004612b62565b6113aa565b6103fb61073d366004612fe7565b611421565b6103b2610750366004612e85565b611496565b6103b2610763366004612b62565b611514565b6103b261077636600461301f565b61152b565b6103fb610789366004612bca565b6115b2565b6107a161079c366004612b62565b611639565b6040516103bc919061303a565b6103fb6107bc366004612e85565b611653565b6107d46107cf366004612b62565b6116ee565b6040516103bc9190613072565b6103b26107ef366004612b62565b61180a565b610807610802366004612b62565b611821565b6040516103bc91906130c8565b610418611931565b6103b261082a366004612b62565b611940565b6103fb61083d36600461311b565b611957565b610418610850366004612b62565b611966565b6103fb610863366004613157565b611971565b6107a1610876366004612b62565b6119b1565b6103fb610889366004612dab565b6119cb565b6103fb61089c366004612fe7565b6119eb565b600a5461044b906001600160a01b031681565b6103fb6108c2366004612dab565b611a9a565b6103fb6108d53660046131d3565b611aba565b6108ed6108e8366004612b62565b611add565b6040516103bc9190613206565b6103d8610908366004613268565b611c41565b6103fb61091b366004612f17565b611c6f565b6107a161092e366004612b62565b611c8f565b6103b2610941366004612b62565b611ca9565b60006001600160e01b0319821663780e9d6360e01b148061096b575061096b82611cc0565b92915050565b610979611d10565b6000828260405160200161098e929190613292565b60408051601f1981840301815291815281516020928301206000878152601690935291209091506109bf9082611d65565b5050505050565b6109ce611d10565b604051634e6f746560e01b6020820152602481018390526044810182905260009060640160408051601f1981840301815291815281516020928301206000878152601790935291209091506109bf9082611d65565b606060008054610a32906132c3565b80601f0160208091040260200160405190810160405280929190818152602001828054610a5e906132c3565b8015610aab5780601f10610a8057610100808354040283529160200191610aab565b820191906000526020600020905b815481529060010190602001808311610a8e57829003601f168201915b5050505050905090565b601a54610100900460ff1615808015610ad55750601a54600160ff909116105b80610aef5750303b158015610aef5750601a5460ff166001145b610b575760405162461bcd60e51b815260206004820152602e60248201527f496e697469616c697a61626c653a20636f6e747261637420697320616c72656160448201526d191e481a5b9a5d1a585b1a5e995960921b60648201526084015b60405180910390fd5b601a805460ff191660011790558015610b7a57601a805461ff0019166101001790555b600a80546001600160a01b0319166001600160a01b038416179055610ba186868686611d78565b6040514281527fcfdec2ffedf2f5ec02de6f351c5f9b6150601f657926e9e87b16390d562af4e79060200160405180910390a18015610c1a57601a805461ff0019169055604051600181527f7f26b83ff96e1f2b6a682f133852f6798a09c465da95921460cefb38474024989060200160405180910390a15b505050505050565b6000818152600260205260408120546001600160a01b0316610c9b5760405162461bcd60e51b815260206004820152602c60248201527f4552433732313a20617070726f76656420717565727920666f72206e6f6e657860448201526b34b9ba32b73a103a37b5b2b760a11b6064820152608401610b4e565b506000908152600460205260409020546001600160a01b031690565b6000610cc2826113aa565b9050806001600160a01b0316836001600160a01b03161415610d305760405162461bcd60e51b815260206004820152602160248201527f4552433732313a20617070726f76616c20746f2063757272656e74206f776e656044820152603960f91b6064820152608401610b4e565b336001600160a01b0382161480610d4c5750610d4c8133611c41565b610dbe5760405162461bcd60e51b815260206004820152603860248201527f4552433732313a20617070726f76652063616c6c6572206973206e6f74206f7760448201527f6e6572206e6f7220617070726f76656420666f7220616c6c00000000000000006064820152608401610b4e565b610dc88383611dc9565b505050565b610dd5611d10565b6000828152600c60205260409020610dc89082611d65565b610df73382611e37565b610e135760405162461bcd60e51b8152600401610b4e906132fe565b610dc8838383611f0e565b610e26611d10565b6000828152600c60205260409020610dc89082611f21565b600081815260186020526040812061096b90611f2d565b6000610e5f611d10565b60008383604051602001610e74929190613292565b60405160208183030381529060405280519060200120905084600014610eae576000858152601660205260409020610eac9082611f21565b505b6040805180820182526001600160a01b0380871682526020808301878152600086815260109092529390209151825491166001600160a01b0319909116178155905160019091015590509392505050565b6000610f0a8361152b565b8210610f6c5760405162461bcd60e51b815260206004820152602b60248201527f455243373231456e756d657261626c653a206f776e657220696e646578206f7560448201526a74206f6620626f756e647360a81b6064820152608401610b4e565b506001600160a01b03919091166000908152600660209081526040808320938352929052205490565b610dc883838360405180602001604052806000815250611971565b610fba3382611e37565b6110065760405162461bcd60e51b815260206004820152601b60248201527f4e4654426173653a204e6f744f776e65724f72417070726f76656400000000006044820152606401610b4e565b61100f81611f37565b50565b61101a611d10565b60008160405160200161102d919061334f565b60408051601f19818403018152918152815160209283012060008681526019909352912090915061105e9082611d65565b50505050565b6000818152600c6020526040812061096b90611f2d565b600081815260196020526040812061096b90611f2d565b600061109d60085490565b82106111005760405162461bcd60e51b815260206004820152602c60248201527f455243373231456e756d657261626c653a20676c6f62616c20696e646578206f60448201526b7574206f6620626f756e647360a01b6064820152608401610b4e565b600882815481106111135761111361337d565b90600052602060002001549050919050565b61112d611d10565b6000828152600d60205260409020610dc89082611fde565b6000818152600d6020526040902060609061096b90611ff3565b6000611169611d10565b604051634e6f746560e01b60208201526024810184905260448101839052600090606401604051602081830303815290604052805190602001209050846000146111c75760008581526017602052604090206111c59082611f21565b505b6040805180820182529485526020808601948552600083815260119091522093518455915160019093019290925592915050565b60008181526017602052604081206060919061121690612000565b9050805167ffffffffffffffff81111561123257611232612df9565b60405190808252806020026020018201604052801561127757816020015b60408051808201909152600080825260208201528152602001906001900390816112505790505b50915060005b8151811015611301576011600083838151811061129c5761129c61337d565b60200260200101518152602001908152602001600020604051806040016040529081600082015481526020016001820154815250508382815181106112e3576112e361337d565b602002602001018190525080806112f9906133a9565b91505061127d565b5050919050565b6000818152601360205260409020805460609190611325906132c3565b80601f0160208091040260200160405190810160405280929190818152602001828054611351906132c3565b801561139e5780601f106113735761010080835404028352916020019161139e565b820191906000526020600020905b81548152906001019060200180831161138157829003601f168201915b50505050509050919050565b6000818152600260205260408120546001600160a01b03168061096b5760405162461bcd60e51b815260206004820152602960248201527f4552433732313a206f776e657220717565727920666f72206e6f6e657869737460448201526832b73a103a37b5b2b760b91b6064820152608401610b4e565b611429611d10565b604080516c4368617261637465724c696e6b60981b6020828101919091528335602d830152830135604d82015290820135606d820152600090608d0160408051601f19818403018152918152815160209283012060008681526018909352912090915061105e9082611d65565b60006114a0611d10565b6000826040516020016114b3919061334f565b604051602081830303815290604052805190602001209050836000146114ed5760008481526019602052604090206114eb9082611f21565b505b6000818152601360209081526040909120845161150c92860190612a55565b509392505050565b600081815260166020526040812061096b90611f2d565b60006001600160a01b0382166115965760405162461bcd60e51b815260206004820152602a60248201527f4552433732313a2062616c616e636520717565727920666f7220746865207a65604482015269726f206164647265737360b01b6064820152608401610b4e565b506001600160a01b031660009081526003602052604090205490565b6115ba611d10565b6115c3836113aa565b6001600160a01b0316826001600160a01b0316146116235760405162461bcd60e51b815260206004820152601960248201527f4c696e6b6c6973743a206e6f7420746f6b656e206f776e6572000000000000006044820152606401610b4e565b6000928352601460205260409092209190915550565b600081815260196020526040902060609061096b90612000565b6000828152600260205260409020546001600160a01b03166116c65760405162461bcd60e51b815260206004820152602660248201527f4c696e6b6c6973743a2073657455726920666f72206e6f6e6578697374656e74604482015265103a37b5b2b760d11b6064820152608401610b4e565b6116cf8261200b565b60008281526015602090815260409091208251610dc892840190612a55565b60008181526018602052604081206060919061170990612000565b9050805167ffffffffffffffff81111561172557611725612df9565b60405190808252806020026020018201604052801561177057816020015b60408051606081018252600080825260208083018290529282015282526000199092019101816117435790505b50915060005b81518110156113015760008282815181106117935761179361337d565b602002602001015190506012600082815260200190815260200160002060405180606001604052908160008201548152602001600182015481526020016002820154815250508483815181106117eb576117eb61337d565b6020026020010181905250508080611802906133a9565b915050611776565b6000818152600e6020526040812061096b90611f2d565b60008181526016602052604081206060919061183c90612000565b9050805167ffffffffffffffff81111561185857611858612df9565b60405190808252806020026020018201604052801561189d57816020015b60408051808201909152600080825260208201528152602001906001900390816118765790505b50915060005b815181101561130157601060008383815181106118c2576118c261337d565b6020908102919091018101518252818101929092526040908101600020815180830190925280546001600160a01b03168252600101549181019190915283518490839081106119135761191361337d565b60200260200101819052508080611929906133a9565b9150506118a3565b606060018054610a32906132c3565b6000818152600d6020526040812061096b90611f2d565b611962338383612089565b5050565b606061096b82612158565b600a546119889085906001600160a01b0316611c41565b6119a557600a546119a59085906001600160a01b03166001612089565b61105e848484846121ea565b6000818152600c6020526040902060609061096b90611ff3565b6119d3611d10565b6000828152600e60205260409020610dc89082611f21565b6119f3611d10565b604080516c4368617261637465724c696e6b60981b6020828101919091528335602d830152830135604d82015290820135606d820152600090608d0160405160208183030381529060405280519060200120905082600014611a69576000838152601860205260409020611a679082611f21565b505b600081815260126020526040902082906109bf82828135815560208201356001820155604082013560028201555050565b611aa2611d10565b6000828152600e60205260409020610dc89082611d65565b611ac2611d10565b6000818152600b60205260409020829055610dc8838261221c565b600081815260196020526040812060609190611af890612000565b9050805167ffffffffffffffff811115611b1457611b14612df9565b604051908082528060200260200182016040528015611b4757816020015b6060815260200190600190039081611b325790505b50915060005b8151811015611301576000828281518110611b6a57611b6a61337d565b60200260200101519050601360008281526020019081526020016000208054611b92906132c3565b80601f0160208091040260200160405190810160405280929190818152602001828054611bbe906132c3565b8015611c0b5780601f10611be057610100808354040283529160200191611c0b565b820191906000526020600020905b815481529060010190602001808311611bee57829003601f168201915b5050505050848381518110611c2257611c2261337d565b6020026020010181905250508080611c39906133a9565b915050611b4d565b6001600160a01b03918216600090815260056020908152604080832093909416825291909152205460ff1690565b611c77611d10565b6000828152600d60205260409020610dc8908261236a565b6000818152600e6020526040902060609061096b90611ff3565b600081815260176020526040812061096b90611f2d565b60006001600160e01b031982166380ac58cd60e01b1480611cf157506001600160e01b03198216635b5e139f60e01b145b8061096b57506301ffc9a760e01b6001600160e01b031983161461096b565b600a546001600160a01b03163314611d635760405162461bcd60e51b81526020600482015260166024820152754c696e6b6c6973743a204e6f7457656233456e74727960501b6044820152606401610b4e565b565b6000611d71838361237f565b9392505050565b611d8484848484612472565b7f414cd0b34676984f09a5f76ce9718d4062e50283abe0e7e274a9a5b4e0c99c308484848442604051611dbb9594939291906133ed565b60405180910390a150505050565b600081815260046020526040902080546001600160a01b0319166001600160a01b0384169081179091558190611dfe826113aa565b6001600160a01b03167f8c5be1e5ebec7d5bd14f71427d1e84f3dd0314c0f7b2291e5b200ac8c7c3b92560405160405180910390a45050565b6000818152600260205260408120546001600160a01b0316611eb05760405162461bcd60e51b815260206004820152602c60248201527f4552433732313a206f70657261746f7220717565727920666f72206e6f6e657860448201526b34b9ba32b73a103a37b5b2b760a11b6064820152608401610b4e565b6000611ebb836113aa565b9050806001600160a01b0316846001600160a01b03161480611ef65750836001600160a01b0316611eeb84610c22565b6001600160a01b0316145b80611f065750611f068185611c41565b949350505050565b611f16611d10565b610dc883838361248b565b6000611d718383612632565b600061096b825490565b6000611f42826113aa565b9050611f5081600084612681565b611f5b600083611dc9565b6001600160a01b0381166000908152600360205260408120805460019290611f84908490613427565b909155505060008281526002602052604080822080546001600160a01b0319169055518391906001600160a01b038416907fddf252ad1be2c89b69c2b068fc378daa952ba7f163c4a11628f55a4df523b3ef908390a45050565b6000611d71836001600160a01b03841661237f565b60606000611d7183612739565b606061096b82612739565b600a546001600160a01b031633148061203d5750612028816113aa565b6001600160a01b0316336001600160a01b0316145b61100f5760405162461bcd60e51b815260206004820181905260248201527f4c696e6b6c6973743a204e6f7457656233456e7472794f724e6f744f776e65726044820152606401610b4e565b816001600160a01b0316836001600160a01b031614156120eb5760405162461bcd60e51b815260206004820152601960248201527f4552433732313a20617070726f766520746f2063616c6c6572000000000000006044820152606401610b4e565b6001600160a01b03838116600081815260056020908152604080832094871680845294825291829020805460ff191686151590811790915591519182527f17307eab39ab6107e8899845ad3d59bd9653f200f220920489ca2b5937696c31910160405180910390a3505050565b6000818152600260205260409020546060906001600160a01b03166121d15760405162461bcd60e51b815260206004820152602960248201527f4c696e6b6c6973743a2055524920717565727920666f72206e6f6e657869737460448201526832b73a103a37b5b2b760b91b6064820152608401610b4e565b60008281526015602052604090208054611325906132c3565b6121f43383611e37565b6122105760405162461bcd60e51b8152600401610b4e906132fe565b61105e84848484612794565b6001600160a01b0382166122725760405162461bcd60e51b815260206004820181905260248201527f4552433732313a206d696e7420746f20746865207a65726f20616464726573736044820152606401610b4e565b6000818152600260205260409020546001600160a01b0316156122d75760405162461bcd60e51b815260206004820152601c60248201527f4552433732313a20746f6b656e20616c7265616479206d696e746564000000006044820152606401610b4e565b6122e360008383612681565b6001600160a01b038216600090815260036020526040812080546001929061230c90849061343e565b909155505060008181526002602052604080822080546001600160a01b0319166001600160a01b03861690811790915590518392907fddf252ad1be2c89b69c2b068fc378daa952ba7f163c4a11628f55a4df523b3ef908290a45050565b6000611d71836001600160a01b038416612632565b600081815260018301602052604081205480156124685760006123a3600183613427565b85549091506000906123b790600190613427565b905081811461241c5760008660000182815481106123d7576123d761337d565b90600052602060002001549050808760000184815481106123fa576123fa61337d565b6000918252602080832090910192909255918252600188019052604090208390555b855486908061242d5761242d613456565b60019003818190600052602060002001600090559055856001016000868152602001908152602001600020600090556001935050505061096b565b600091505061096b565b61247e60008585612ad9565b506109bf60018383612ad9565b826001600160a01b031661249e826113aa565b6001600160a01b0316146125025760405162461bcd60e51b815260206004820152602560248201527f4552433732313a207472616e736665722066726f6d20696e636f72726563742060448201526437bbb732b960d91b6064820152608401610b4e565b6001600160a01b0382166125645760405162461bcd60e51b8152602060048201526024808201527f4552433732313a207472616e7366657220746f20746865207a65726f206164646044820152637265737360e01b6064820152608401610b4e565b61256f838383612681565b61257a600082611dc9565b6001600160a01b03831660009081526003602052604081208054600192906125a3908490613427565b90915550506001600160a01b03821660009081526003602052604081208054600192906125d190849061343e565b909155505060008181526002602052604080822080546001600160a01b0319166001600160a01b0386811691821790925591518493918716917fddf252ad1be2c89b69c2b068fc378daa952ba7f163c4a11628f55a4df523b3ef91a4505050565b60008181526001830160205260408120546126795750815460018181018455600084815260208082209093018490558454848252828601909352604090209190915561096b565b50600061096b565b6001600160a01b0383166126dc576126d781600880546000838152600960205260408120829055600182018355919091527ff3f7a9fe364faab93b216da50a3214154f22a0a2b415b23a84c8169e8b636ee30155565b6126ff565b816001600160a01b0316836001600160a01b0316146126ff576126ff83826127c7565b6001600160a01b03821661271657610dc881612864565b826001600160a01b0316826001600160a01b031614610dc857610dc88282612913565b60608160000180548060200260200160405190810160405280929190818152602001828054801561139e57602002820191906000526020600020905b8154815260200190600101908083116127755750505050509050919050565b61279f848484611f0e565b6127ab84848484612957565b61105e5760405162461bcd60e51b8152600401610b4e9061346c565b600060016127d48461152b565b6127de9190613427565b600083815260076020526040902054909150808214612831576001600160a01b03841660009081526006602090815260408083208584528252808320548484528184208190558352600790915290208190555b5060009182526007602090815260408084208490556001600160a01b039094168352600681528383209183525290812055565b60085460009061287690600190613427565b6000838152600960205260408120546008805493945090928490811061289e5761289e61337d565b9060005260206000200154905080600883815481106128bf576128bf61337d565b60009182526020808320909101929092558281526009909152604080822084905585825281205560088054806128f7576128f7613456565b6001900381819060005260206000200160009055905550505050565b600061291e8361152b565b6001600160a01b039093166000908152600660209081526040808320868452825280832085905593825260079052919091209190915550565b60006001600160a01b0384163b15612a4a57604051630a85bd0160e11b81526001600160a01b0385169063150b7a029061299b9033908990889088906004016134be565b6020604051808303816000875af19250505080156129d6575060408051601f3d908101601f191682019092526129d3918101906134fb565b60015b612a30573d808015612a04576040519150601f19603f3d011682016040523d82523d6000602084013e612a09565b606091505b508051612a285760405162461bcd60e51b8152600401610b4e9061346c565b805181602001fd5b6001600160e01b031916630a85bd0160e11b149050611f06565b506001949350505050565b828054612a61906132c3565b90600052602060002090601f016020900481019282612a835760008555612ac9565b82601f10612a9c57805160ff1916838001178555612ac9565b82800160010185558215612ac9579182015b82811115612ac9578251825591602001919060010190612aae565b50612ad5929150612b4d565b5090565b828054612ae5906132c3565b90600052602060002090601f016020900481019282612b075760008555612ac9565b82601f10612b205782800160ff19823516178555612ac9565b82800160010185558215612ac9579182015b82811115612ac9578235825591602001919060010190612b32565b5b80821115612ad55760008155600101612b4e565b600060208284031215612b7457600080fd5b5035919050565b6001600160e01b03198116811461100f57600080fd5b600060208284031215612ba357600080fd5b8135611d7181612b7b565b80356001600160a01b0381168114612bc557600080fd5b919050565b600080600060608486031215612bdf57600080fd5b83359250612bef60208501612bae565b9150604084013590509250925092565b600080600060608486031215612c1457600080fd5b505081359360208301359350604090920135919050565b60005b83811015612c46578181015183820152602001612c2e565b8381111561105e5750506000910152565b60008151808452612c6f816020860160208601612c2b565b601f01601f19169290920160200192915050565b602081526000611d716020830184612c57565b60008083601f840112612ca857600080fd5b50813567ffffffffffffffff811115612cc057600080fd5b602083019150836020828501011115612cd857600080fd5b9250929050565b600080600080600060608688031215612cf757600080fd5b853567ffffffffffffffff80821115612d0f57600080fd5b612d1b89838a01612c96565b90975095506020880135915080821115612d3457600080fd5b50612d4188828901612c96565b9094509250612d54905060408701612bae565b90509295509295909350565b60008060408385031215612d7357600080fd5b612d7c83612bae565b946020939093013593505050565b8151815260208083015190820152604080830151908201526060810161096b565b60008060408385031215612dbe57600080fd5b50508035926020909101359150565b600080600060608486031215612de257600080fd5b612deb84612bae565b9250612bef60208501612bae565b634e487b7160e01b600052604160045260246000fd5b600067ffffffffffffffff80841115612e2a57612e2a612df9565b604051601f8501601f19908116603f01168101908282118183101715612e5257612e52612df9565b81604052809350858152868686011115612e6b57600080fd5b858560208301376000602087830101525050509392505050565b60008060408385031215612e9857600080fd5b82359150602083013567ffffffffffffffff811115612eb657600080fd5b8301601f81018513612ec757600080fd5b612ed685823560208401612e0f565b9150509250929050565b81518152602080830151908201526040810161096b565b81516001600160a01b03168152602080830151908201526040810161096b565b60008060408385031215612f2a57600080fd5b82359150612f3a60208401612bae565b90509250929050565b6020808252825182820181905260009190848201906040850190845b81811015612f845783516001600160a01b031683529284019291840191600101612f5f565b50909695505050505050565b602080825282518282018190526000919060409081850190868401855b82811015612fda57612fca84835180518252602090810151910152565b9284019290850190600101612fad565b5091979650505050505050565b6000808284036080811215612ffb57600080fd5b833592506060601f198201121561301157600080fd5b506020830190509250929050565b60006020828403121561303157600080fd5b611d7182612bae565b6020808252825182820181905260009190848201906040850190845b81811015612f8457835183529284019291840191600101613056565b6020808252825182820181905260009190848201906040850190845b81811015612f84576130b58385518051825260208082015190830152604090810151910152565b928401926060929092019160010161308e565b602080825282518282018190526000919060409081850190868401855b82811015612fda5761310b84835180516001600160a01b03168252602090810151910152565b92840192908501906001016130e5565b6000806040838503121561312e57600080fd5b61313783612bae565b91506020830135801515811461314c57600080fd5b809150509250929050565b6000806000806080858703121561316d57600080fd5b61317685612bae565b935061318460208601612bae565b925060408501359150606085013567ffffffffffffffff8111156131a757600080fd5b8501601f810187136131b857600080fd5b6131c787823560208401612e0f565b91505092959194509250565b6000806000606084860312156131e857600080fd5b6131f184612bae565b95602085013595506040909401359392505050565b6000602080830181845280855180835260408601915060408160051b870101925083870160005b8281101561325b57603f19888603018452613249858351612c57565b9450928501929085019060010161322d565b5092979650505050505050565b6000806040838503121561327b57600080fd5b61328483612bae565b9150612f3a60208401612bae565b6545524337323160d01b815260609290921b6bffffffffffffffffffffffff19166006830152601a820152603a0190565b600181811c908216806132d757607f821691505b602082108114156132f857634e487b7160e01b600052602260045260246000fd5b50919050565b60208082526031908201527f4552433732313a207472616e736665722063616c6c6572206973206e6f74206f6040820152701ddb995c881b9bdc88185c1c1c9bdd9959607a1b606082015260800190565b65416e7955726960d01b815260008251613370816006850160208701612c2b565b9190910160060192915050565b634e487b7160e01b600052603260045260246000fd5b634e487b7160e01b600052601160045260246000fd5b60006000198214156133bd576133bd613393565b5060010190565b81835281816020850137506000828201602090810191909152601f909101601f19169091010190565b6060815260006134016060830187896133c4565b82810360208401526134148186886133c4565b9150508260408301529695505050505050565b60008282101561343957613439613393565b500390565b6000821982111561345157613451613393565b500190565b634e487b7160e01b600052603160045260246000fd5b60208082526032908201527f4552433732313a207472616e7366657220746f206e6f6e20455243373231526560408201527131b2b4bb32b91034b6b83632b6b2b73a32b960711b606082015260800190565b6001600160a01b03858116825284166020820152604081018390526080606082018190526000906134f190830184612c57565b9695505050505050565b60006020828403121561350d57600080fd5b8151611d7181612b7b56fea2646970667358221220514fd0874590acfb5b67c362cdee391a6fc0f54d475c5859ebaab2bec532832364736f6c634300080a0033",
    "linkReferences": {}
  },
  "methodIdentifiers": {
    "Uri(uint256)": "ac150a54",
    "Web3Entry()": "c5a5ed51",
    "addLinkingAddress(uint256,address)": "ed386e65",
    "addLinkingAnyUri(uint256,string)": "6c217e12",
    "addLinkingCharacterId(uint256,uint256)": "288893d6",
    "addLinkingCharacterLink(uint256,(uint256,uint256,bytes32))": "c4981986",
    "addLinkingERC721(uint256,address,uint256)": "2ea24efc",
    "addLinkingLinklistId(uint256,uint256)": "c1cd4f82",
    "addLinkingNote(uint256,uint256,uint256)": "5cb46be7",
    "approve(address,uint256)": "095ea7b3",
    "balanceOf(address)": "70a08231",
    "burn(uint256)": "42966c68",
    "getApproved(uint256)": "081812fc",
    "getCurrentTakeOver(uint256)": "493fa4dc",
    "getLinkType(uint256)": "00fba027",
    "getLinkingAddressListLength(uint256)": "97ce7df6",
    "getLinkingAddresses(uint256)": "5c369ec3",
    "getLinkingAnyListLength(uint256)": "4aa7b87a",
    "getLinkingAnyUri(bytes32)": "5f799cc6",
    "getLinkingAnyUriKeys(uint256)": "76bac025",
    "getLinkingAnyUris(uint256)": "e64f2baa",
    "getLinkingCharacterIds(uint256)": "ba27f58d",
    "getLinkingCharacterLink(bytes32)": "19ac741b",
    "getLinkingCharacterLinkListLength(uint256)": "2ce83d87",
    "getLinkingCharacterLinks(uint256)": "84bd9b67",
    "getLinkingCharacterListLength(uint256)": "48d1b16c",
    "getLinkingERC721(bytes32)": "5440522b",
    "getLinkingERC721ListLength(uint256)": "6d37d274",
    "getLinkingERC721s(uint256)": "9037c0f9",
    "getLinkingLinklistIds(uint256)": "ed6223cf",
    "getLinkingLinklistLength(uint256)": "8fd6dc39",
    "getLinkingNote(bytes32)": "4a7906b9",
    "getLinkingNoteListLength(uint256)": "f61087f6",
    "getLinkingNotes(uint256)": "5e9f678b",
    "initialize(string,string,address)": "077f224a",
    "isApprovedForAll(address,address)": "e985e9c5",
    "mint(address,bytes32,uint256)": "c89dcfce",
    "name()": "06fdde03",
    "ownerOf(uint256)": "6352211e",
    "removeLinkingAddress(uint256,address)": "5956da73",
    "removeLinkingAnyUri(uint256,string)": "42c1721f",
    "removeLinkingCharacterId(uint256,uint256)": "21cb7227",
    "removeLinkingCharacterLink(uint256,(uint256,uint256,bytes32))": "68e67d57",
    "removeLinkingERC721(uint256,address,uint256)": "0370a161",
    "removeLinkingLinklistId(uint256,uint256)": "c70881c5",
    "removeLinkingNote(uint256,uint256,uint256)": "040f7618",
    "safeTransferFrom(address,address,uint256)": "42842e0e",
    "safeTransferFrom(address,address,uint256,bytes)": "b88d4fde",
    "setApprovalForAll(address,bool)": "a22cb465",
    "setTakeOver(uint256,address,uint256)": "716c99a4",
    "setUri(uint256,string)": "782f08ae",
    "supportsInterface(bytes4)": "01ffc9a7",
    "symbol()": "95d89b41",
    "tokenByIndex(uint256)": "4f6ccce7",
    "tokenOfOwnerByIndex(address,uint256)": "2f745c59",
    "tokenURI(uint256)": "c87b56dd",
    "totalSupply()": "18160ddd",
    "transferFrom(address,address,uint256)": "23b872dd"
  },
  "id": 38
}