{
  "abi": [
    {
      "anonymous": false,
      "inputs": [
        {
          "indexed": true,
          "internalType": "address",
          "name": "owner",
          "type": "address"
        },
        {
          "indexed": true,
          "internalType": "address",
          "name": "approved",
          "type": "address"
        },
        {
          "indexed": true,
          "internalType": "uint256",
          "name": "tokenId",
          "type": "uint256"
        }
      ],
      "name": "Approval",
      "type": "event"
    },
    {
      "anonymous": false,
      "inputs": [
        {
          "indexed": true,
          "internalType": "address",
          "name": "owner",
          "type": "address"
        },
        {
          "indexed": true,
          "internalType": "address",
          "name": "operator",
          "type": "address"
        },
        {
          "indexed": false,
          "internalType": "bool",
          "name": "approved",
          "type": "bool"
        }
      ],
      "name": "ApprovalForAll",
      "type": "event"
    },
    {
      "anonymous": false,
      "inputs": [
        {
          "indexed": false,
          "internalType": "uint8",
          "name": "version",
          "type": "uint8"
        }
      ],
      "name": "Initialized",
      "type": "event"
    },
    {
      "anonymous": false,
      "inputs": [
        {
          "indexed": true,
          "internalType": "address",
          "name": "from",
          "type": "address"
        },
        {
          "indexed": true,
          "internalType": "address",
          "name": "to",
          "type": "address"
        },
        {
          "indexed": true,
          "internalType": "uint256",
          "name": "tokenId",
          "type": "uint256"
        }
      ],
      "name": "Transfer",
      "type": "event"
    },
    {
      "inputs": [
        {
          "internalType": "address",
          "name": "to",
          "type": "address"
        },
        {
          "internalType": "uint256",
          "name": "tokenId",
          "type": "uint256"
        }
      ],
      "name": "approve",
      "outputs": [],
      "stateMutability": "nonpayable",
      "type": "function"
    },
    {
      "inputs": [
        {
          "internalType": "address",
          "name": "owner",
          "type": "address"
        }
      ],
      "name": "balanceOf",
      "outputs": [
        {
          "internalType": "uint256",
          "name": "",
          "type": "uint256"
        }
      ],
      "stateMutability": "view",
      "type": "function"
    },
    {
      "inputs": [
        {
          "internalType": "uint256",
          "name": "tokenId",
          "type": "uint256"
        }
      ],
      "name": "burn",
      "outputs": [],
      "stateMutability": "nonpayable",
      "type": "function"
    },
    {
      "inputs": [],
      "name": "getAdditionalValue",
      "outputs": [
        {
          "internalType": "uint256",
          "name": "",
          "type": "uint256"
        }
      ],
      "stateMutability": "view",
      "type": "function"
    },
    {
      "inputs": [
        {
          "internalType": "uint256",
          "name": "tokenId",
          "type": "uint256"
        }
      ],
      "name": "getApproved",
      "outputs": [
        {
          "internalType": "address",
          "name": "",
          "type": "address"
        }
      ],
      "stateMutability": "view",
      "type": "function"
    },
    {
      "inputs": [],
      "name": "getRevision",
      "outputs": [
        {
          "internalType": "uint256",
          "name": "",
          "type": "uint256"
        }
      ],
      "stateMutability": "pure",
      "type": "function"
    },
    {
      "inputs": [
        {
          "internalType": "address",
          "name": "owner",
          "type": "address"
        },
        {
          "internalType": "address",
          "name": "operator",
          "type": "address"
        }
      ],
      "name": "isApprovedForAll",
      "outputs": [
        {
          "internalType": "bool",
          "name": "",
          "type": "bool"
        }
      ],
      "stateMutability": "view",
      "type": "function"
    },
    {
      "inputs": [],
      "name": "name",
      "outputs": [
        {
          "internalType": "string",
          "name": "",
          "type": "string"
        }
      ],
      "stateMutability": "view",
      "type": "function"
    },
    {
      "inputs": [
        {
          "internalType": "uint256",
          "name": "tokenId",
          "type": "uint256"
        }
      ],
      "name": "ownerOf",
      "outputs": [
        {
          "internalType": "address",
          "name": "",
          "type": "address"
        }
      ],
      "stateMutability": "view",
      "type": "function"
    },
    {
      "inputs": [],
      "name": "resolver",
      "outputs": [
        {
          "internalType": "address",
          "name": "",
          "type": "address"
        }
      ],
      "stateMutability": "view",
      "type": "function"
    },
    {
      "inputs": [
        {
          "internalType": "address",
          "name": "from",
          "type": "address"
        },
        {
          "internalType": "address",
          "name": "to",
          "type": "address"
        },
        {
          "internalType": "uint256",
          "name": "tokenId",
          "type": "uint256"
        }
      ],
      "name": "safeTransferFrom",
      "outputs": [],
      "stateMutability": "nonpayable",
      "type": "function"
    },
    {
      "inputs": [
        {
          "internalType": "address",
          "name": "from",
          "type": "address"
        },
        {
          "internalType": "address",
          "name": "to",
          "type": "address"
        },
        {
          "internalType": "uint256",
          "name": "tokenId",
          "type": "uint256"
        },
        {
          "internalType": "bytes",
          "name": "_data",
          "type": "bytes"
        }
      ],
      "name": "safeTransferFrom",
      "outputs": [],
      "stateMutability": "nonpayable",
      "type": "function"
    },
    {
      "inputs": [
        {
          "internalType": "uint256",
          "name": "newValue",
          "type": "uint256"
        }
      ],
      "name": "setAdditionalValue",
      "outputs": [],
      "stateMutability": "nonpayable",
      "type": "function"
    },
    {
      "inputs": [
        {
          "internalType": "address",
          "name": "operator",
          "type": "address"
        },
        {
          "internalType": "bool",
          "name": "approved",
          "type": "bool"
        }
      ],
      "name": "setApprovalForAll",
      "outputs": [],
      "stateMutability": "nonpayable",
      "type": "function"
    },
    {
      "inputs": [
        {
          "internalType": "bytes4",
          "name": "interfaceId",
          "type": "bytes4"
        }
      ],
      "name": "supportsInterface",
      "outputs": [
        {
          "internalType": "bool",
          "name": "",
          "type": "bool"
        }
      ],
      "stateMutability": "view",
      "type": "function"
    },
    {
      "inputs": [],
      "name": "symbol",
      "outputs": [
        {
          "internalType": "string",
          "name": "",
          "type": "string"
        }
      ],
      "stateMutability": "view",
      "type": "function"
    },
    {
      "inputs": [
        {
          "internalType": "uint256",
          "name": "index",
          "type": "uint256"
        }
      ],
      "name": "tokenByIndex",
      "outputs": [
        {
          "internalType": "uint256",
          "name": "",
          "type": "uint256"
        }
      ],
      "stateMutability": "view",
      "type": "function"
    },
    {
      "inputs": [
        {
          "internalType": "address",
          "name": "owner",
          "type": "address"
        },
        {
          "internalType": "uint256",
          "name": "index",
          "type": "uint256"
        }
      ],
      "name": "tokenOfOwnerByIndex",
      "outputs": [
        {
          "internalType": "uint256",
          "name": "",
          "type": "uint256"
        }
      ],
      "stateMutability": "view",
      "type": "function"
    },
    {
      "inputs": [
        {
          "internalType": "uint256",
          "name": "tokenId",
          "type": "uint256"
        }
      ],
      "name": "tokenURI",
      "outputs": [
        {
          "internalType": "string",
          "name": "",
          "type": "string"
        }
      ],
      "stateMutability": "view",
      "type": "function"
    },
    {
      "inputs": [],
      "name": "totalSupply",
      "outputs": [
        {
          "internalType": "uint256",
          "name": "",
          "type": "uint256"
        }
      ],
      "stateMutability": "view",
      "type": "function"
    },
    {
      "inputs": [
        {
          "internalType": "address",
          "name": "from",
          "type": "address"
        },
        {
          "internalType": "address",
          "name": "to",
          "type": "address"
        },
        {
          "internalType": "uint256",
          "name": "tokenId",
          "type": "uint256"
        }
      ],
      "name": "transferFrom",
      "outputs": [],
      "stateMutability": "nonpayable",
      "type": "function"
    }
  ],
  "bytecode": {
    "object": "0x608060405234801561001057600080fd5b506117e7806100206000396000f3fe608060405234801561001057600080fd5b50600436106101375760003560e01c806342966c68116100b857806385e922e71161007c57806385e922e71461027d57806395d89b4114610285578063a22cb4651461028d578063b88d4fde146102a0578063c87b56dd146102b3578063e985e9c5146102c657600080fd5b806342966c681461021e578063493830a4146102315780634f6ccce7146102445780636352211e1461025757806370a082311461026a57600080fd5b80631316529d116100ff5780631316529d146101cc57806318160ddd146101dd57806323b872dd146101e55780632f745c59146101f857806342842e0e1461020b57600080fd5b806301ffc9a71461013c57806304f3bcec1461016457806306fdde031461018f578063081812fc146101a4578063095ea7b3146101b7575b600080fd5b61014f61014a3660046112e1565b610302565b60405190151581526020015b60405180910390f35b601754610177906001600160a01b031681565b6040516001600160a01b03909116815260200161015b565b61019761032d565b60405161015b9190611356565b6101776101b2366004611369565b6103bf565b6101ca6101c536600461139e565b610459565b005b60025b60405190815260200161015b565b6008546101cf565b6101ca6101f33660046113c8565b61056f565b6101cf61020636600461139e565b6105a0565b6101ca6102193660046113c8565b610636565b6101ca61022c366004611369565b610651565b6101ca61023f366004611369565b601855565b6101cf610252366004611369565b6106b3565b610177610265366004611369565b610746565b6101cf610278366004611404565b6107bd565b6018546101cf565b610197610844565b6101ca61029b36600461141f565b610853565b6101ca6102ae366004611471565b610862565b6101976102c1366004611369565b61089a565b61014f6102d436600461154d565b6001600160a01b03918216600090815260056020908152604080832093909416825291909152205460ff1690565b60006001600160e01b0319821663780e9d6360e01b1480610327575061032782610982565b92915050565b60606000805461033c90611580565b80601f016020809104026020016040519081016040528092919081815260200182805461036890611580565b80156103b55780601f1061038a576101008083540402835291602001916103b5565b820191906000526020600020905b81548152906001019060200180831161039857829003601f168201915b5050505050905090565b6000818152600260205260408120546001600160a01b031661043d5760405162461bcd60e51b815260206004820152602c60248201527f4552433732313a20617070726f76656420717565727920666f72206e6f6e657860448201526b34b9ba32b73a103a37b5b2b760a11b60648201526084015b60405180910390fd5b506000908152600460205260409020546001600160a01b031690565b600061046482610746565b9050806001600160a01b0316836001600160a01b031614156104d25760405162461bcd60e51b815260206004820152602160248201527f4552433732313a20617070726f76616c20746f2063757272656e74206f776e656044820152603960f91b6064820152608401610434565b336001600160a01b03821614806104ee57506104ee81336102d4565b6105605760405162461bcd60e51b815260206004820152603860248201527f4552433732313a20617070726f76652063616c6c6572206973206e6f74206f7760448201527f6e6572206e6f7220617070726f76656420666f7220616c6c00000000000000006064820152608401610434565b61056a83836109d2565b505050565b6105793382610a40565b6105955760405162461bcd60e51b8152600401610434906115bb565b61056a838383610b37565b60006105ab836107bd565b821061060d5760405162461bcd60e51b815260206004820152602b60248201527f455243373231456e756d657261626c653a206f776e657220696e646578206f7560448201526a74206f6620626f756e647360a81b6064820152608401610434565b506001600160a01b03919091166000908152600660209081526040808320938352929052205490565b61056a83838360405180602001604052806000815250610862565b61065b3382610a40565b6106a75760405162461bcd60e51b815260206004820152601b60248201527f4e4654426173653a204e6f744f776e65724f72417070726f76656400000000006044820152606401610434565b6106b081610cde565b50565b60006106be60085490565b82106107215760405162461bcd60e51b815260206004820152602c60248201527f455243373231456e756d657261626c653a20676c6f62616c20696e646578206f60448201526b7574206f6620626f756e647360a01b6064820152608401610434565b600882815481106107345761073461160c565b90600052602060002001549050919050565b6000818152600260205260408120546001600160a01b0316806103275760405162461bcd60e51b815260206004820152602960248201527f4552433732313a206f776e657220717565727920666f72206e6f6e657869737460448201526832b73a103a37b5b2b760b91b6064820152608401610434565b60006001600160a01b0382166108285760405162461bcd60e51b815260206004820152602a60248201527f4552433732313a2062616c616e636520717565727920666f7220746865207a65604482015269726f206164647265737360b01b6064820152608401610434565b506001600160a01b031660009081526003602052604090205490565b60606001805461033c90611580565b61085e338383610d85565b5050565b61086c3383610a40565b6108885760405162461bcd60e51b8152600401610434906115bb565b61089484848484610e54565b50505050565b6000818152600260205260409020546060906001600160a01b03166109195760405162461bcd60e51b815260206004820152602f60248201527f4552433732314d657461646174613a2055524920717565727920666f72206e6f60448201526e3732bc34b9ba32b73a103a37b5b2b760891b6064820152608401610434565b600061093060408051602081019091526000815290565b90506000815111610950576040518060200160405280600081525061097b565b8061095a84610e87565b60405160200161096b929190611622565b6040516020818303038152906040525b9392505050565b60006001600160e01b031982166380ac58cd60e01b14806109b357506001600160e01b03198216635b5e139f60e01b145b8061032757506301ffc9a760e01b6001600160e01b0319831614610327565b600081815260046020526040902080546001600160a01b0319166001600160a01b0384169081179091558190610a0782610746565b6001600160a01b03167f8c5be1e5ebec7d5bd14f71427d1e84f3dd0314c0f7b2291e5b200ac8c7c3b92560405160405180910390a45050565b6000818152600260205260408120546001600160a01b0316610ab95760405162461bcd60e51b815260206004820152602c60248201527f4552433732313a206f70657261746f7220717565727920666f72206e6f6e657860448201526b34b9ba32b73a103a37b5b2b760a11b6064820152608401610434565b6000610ac483610746565b9050806001600160a01b0316846001600160a01b03161480610aff5750836001600160a01b0316610af4846103bf565b6001600160a01b0316145b80610b2f57506001600160a01b0380821660009081526005602090815260408083209388168352929052205460ff165b949350505050565b826001600160a01b0316610b4a82610746565b6001600160a01b031614610bae5760405162461bcd60e51b815260206004820152602560248201527f4552433732313a207472616e736665722066726f6d20696e636f72726563742060448201526437bbb732b960d91b6064820152608401610434565b6001600160a01b038216610c105760405162461bcd60e51b8152602060048201526024808201527f4552433732313a207472616e7366657220746f20746865207a65726f206164646044820152637265737360e01b6064820152608401610434565b610c1b838383610f85565b610c266000826109d2565b6001600160a01b0383166000908152600360205260408120805460019290610c4f908490611667565b90915550506001600160a01b0382166000908152600360205260408120805460019290610c7d90849061167e565b909155505060008181526002602052604080822080546001600160a01b0319166001600160a01b0386811691821790925591518493918716917fddf252ad1be2c89b69c2b068fc378daa952ba7f163c4a11628f55a4df523b3ef91a4505050565b6000610ce982610746565b9050610cf781600084610f85565b610d026000836109d2565b6001600160a01b0381166000908152600360205260408120805460019290610d2b908490611667565b909155505060008281526002602052604080822080546001600160a01b0319169055518391906001600160a01b038416907fddf252ad1be2c89b69c2b068fc378daa952ba7f163c4a11628f55a4df523b3ef908390a45050565b816001600160a01b0316836001600160a01b03161415610de75760405162461bcd60e51b815260206004820152601960248201527f4552433732313a20617070726f766520746f2063616c6c6572000000000000006044820152606401610434565b6001600160a01b03838116600081815260056020908152604080832094871680845294825291829020805460ff191686151590811790915591519182527f17307eab39ab6107e8899845ad3d59bd9653f200f220920489ca2b5937696c31910160405180910390a3505050565b610e5f848484610b37565b610e6b8484848461103d565b6108945760405162461bcd60e51b815260040161043490611696565b606081610eab5750506040805180820190915260018152600360fc1b602082015290565b8160005b8115610ed55780610ebf816116e8565b9150610ece9050600a83611719565b9150610eaf565b60008167ffffffffffffffff811115610ef057610ef061145b565b6040519080825280601f01601f191660200182016040528015610f1a576020820181803683370190505b5090505b8415610b2f57610f2f600183611667565b9150610f3c600a8661172d565b610f4790603061167e565b60f81b818381518110610f5c57610f5c61160c565b60200101906001600160f81b031916908160001a905350610f7e600a86611719565b9450610f1e565b6001600160a01b038316610fe057610fdb81600880546000838152600960205260408120829055600182018355919091527ff3f7a9fe364faab93b216da50a3214154f22a0a2b415b23a84c8169e8b636ee30155565b611003565b816001600160a01b0316836001600160a01b03161461100357611003838261113b565b6001600160a01b03821661101a5761056a816111d8565b826001600160a01b0316826001600160a01b03161461056a5761056a8282611287565b60006001600160a01b0384163b1561113057604051630a85bd0160e11b81526001600160a01b0385169063150b7a0290611081903390899088908890600401611741565b6020604051808303816000875af19250505080156110bc575060408051601f3d908101601f191682019092526110b99181019061177e565b60015b611116573d8080156110ea576040519150601f19603f3d011682016040523d82523d6000602084013e6110ef565b606091505b50805161110e5760405162461bcd60e51b815260040161043490611696565b805181602001fd5b6001600160e01b031916630a85bd0160e11b149050610b2f565b506001949350505050565b60006001611148846107bd565b6111529190611667565b6000838152600760205260409020549091508082146111a5576001600160a01b03841660009081526006602090815260408083208584528252808320548484528184208190558352600790915290208190555b5060009182526007602090815260408084208490556001600160a01b039094168352600681528383209183525290812055565b6008546000906111ea90600190611667565b600083815260096020526040812054600880549394509092849081106112125761121261160c565b9060005260206000200154905080600883815481106112335761123361160c565b600091825260208083209091019290925582815260099091526040808220849055858252812055600880548061126b5761126b61179b565b6001900381819060005260206000200160009055905550505050565b6000611292836107bd565b6001600160a01b039093166000908152600660209081526040808320868452825280832085905593825260079052919091209190915550565b6001600160e01b0319811681146106b057600080fd5b6000602082840312156112f357600080fd5b813561097b816112cb565b60005b83811015611319578181015183820152602001611301565b838111156108945750506000910152565b600081518084526113428160208601602086016112fe565b601f01601f19169290920160200192915050565b60208152600061097b602083018461132a565b60006020828403121561137b57600080fd5b5035919050565b80356001600160a01b038116811461139957600080fd5b919050565b600080604083850312156113b157600080fd5b6113ba83611382565b946020939093013593505050565b6000806000606084860312156113dd57600080fd5b6113e684611382565b92506113f460208501611382565b9150604084013590509250925092565b60006020828403121561141657600080fd5b61097b82611382565b6000806040838503121561143257600080fd5b61143b83611382565b91506020830135801515811461145057600080fd5b809150509250929050565b634e487b7160e01b600052604160045260246000fd5b6000806000806080858703121561148757600080fd5b61149085611382565b935061149e60208601611382565b925060408501359150606085013567ffffffffffffffff808211156114c257600080fd5b818701915087601f8301126114d657600080fd5b8135818111156114e8576114e861145b565b604051601f8201601f19908116603f011681019083821181831017156115105761151061145b565b816040528281528a602084870101111561152957600080fd5b82602086016020830137600060208483010152809550505050505092959194509250565b6000806040838503121561156057600080fd5b61156983611382565b915061157760208401611382565b90509250929050565b600181811c9082168061159457607f821691505b602082108114156115b557634e487b7160e01b600052602260045260246000fd5b50919050565b60208082526031908201527f4552433732313a207472616e736665722063616c6c6572206973206e6f74206f6040820152701ddb995c881b9bdc88185c1c1c9bdd9959607a1b606082015260800190565b634e487b7160e01b600052603260045260246000fd5b600083516116348184602088016112fe565b8351908301906116488183602088016112fe565b01949350505050565b634e487b7160e01b600052601160045260246000fd5b60008282101561167957611679611651565b500390565b6000821982111561169157611691611651565b500190565b60208082526032908201527f4552433732313a207472616e7366657220746f206e6f6e20455243373231526560408201527131b2b4bb32b91034b6b83632b6b2b73a32b960711b606082015260800190565b60006000198214156116fc576116fc611651565b5060010190565b634e487b7160e01b600052601260045260246000fd5b60008261172857611728611703565b500490565b60008261173c5761173c611703565b500690565b6001600160a01b03858116825284166020820152604081018390526080606082018190526000906117749083018461132a565b9695505050505050565b60006020828403121561179057600080fd5b815161097b816112cb565b634e487b7160e01b600052603160045260246000fdfea2646970667358221220edb645da5820eee9a172e00987c3198f63fc155b3c6a8a3d7ddec9d5c174d83464736f6c634300080a0033",
    "linkReferences": {}
  },
  "methodIdentifiers": {
    "approve(address,uint256)": "095ea7b3",
    "balanceOf(address)": "70a08231",
    "burn(uint256)": "42966c68",
    "getAdditionalValue()": "85e922e7",
    "getApproved(uint256)": "081812fc",
    "getRevision()": "1316529d",
    "isApprovedForAll(address,address)": "e985e9c5",
    "name()": "06fdde03",
    "ownerOf(uint256)": "6352211e",
    "resolver()": "04f3bcec",
    "safeTransferFrom(address,address,uint256)": "42842e0e",
    "safeTransferFrom(address,address,uint256,bytes)": "b88d4fde",
    "setAdditionalValue(uint256)": "493830a4",
    "setApprovalForAll(address,bool)": "a22cb465",
    "supportsInterface(bytes4)": "01ffc9a7",
    "symbol()": "95d89b41",
    "tokenByIndex(uint256)": "4f6ccce7",
    "tokenOfOwnerByIndex(address,uint256)": "2f745c59",
    "tokenURI(uint256)": "c87b56dd",
    "totalSupply()": "18160ddd",
    "transferFrom(address,address,uint256)": "23b872dd"
  },
  "id": 66
}