{
  "abi": [
    {
      "anonymous": false,
      "inputs": [
        {
          "indexed": true,
          "internalType": "address",
          "name": "owner",
          "type": "address"
        },
        {
          "indexed": true,
          "internalType": "address",
          "name": "approved",
          "type": "address"
        },
        {
          "indexed": true,
          "internalType": "uint256",
          "name": "tokenId",
          "type": "uint256"
        }
      ],
      "name": "Approval",
      "type": "event"
    },
    {
      "anonymous": false,
      "inputs": [
        {
          "indexed": true,
          "internalType": "address",
          "name": "owner",
          "type": "address"
        },
        {
          "indexed": true,
          "internalType": "address",
          "name": "operator",
          "type": "address"
        },
        {
          "indexed": false,
          "internalType": "bool",
          "name": "approved",
          "type": "bool"
        }
      ],
      "name": "ApprovalForAll",
      "type": "event"
    },
    {
      "anonymous": false,
      "inputs": [
        {
          "indexed": false,
          "internalType": "uint8",
          "name": "version",
          "type": "uint8"
        }
      ],
      "name": "Initialized",
      "type": "event"
    },
    {
      "anonymous": false,
      "inputs": [
        {
          "indexed": true,
          "internalType": "address",
          "name": "from",
          "type": "address"
        },
        {
          "indexed": true,
          "internalType": "address",
          "name": "to",
          "type": "address"
        },
        {
          "indexed": true,
          "internalType": "uint256",
          "name": "tokenId",
          "type": "uint256"
        }
      ],
      "name": "Transfer",
      "type": "event"
    },
    {
      "inputs": [
        {
          "internalType": "address",
          "name": "to",
          "type": "address"
        },
        {
          "internalType": "uint256",
          "name": "tokenId",
          "type": "uint256"
        }
      ],
      "name": "approve",
      "outputs": [],
      "stateMutability": "nonpayable",
      "type": "function"
    },
    {
      "inputs": [
        {
          "internalType": "address",
          "name": "owner",
          "type": "address"
        }
      ],
      "name": "balanceOf",
      "outputs": [
        {
          "internalType": "uint256",
          "name": "",
          "type": "uint256"
        }
      ],
      "stateMutability": "view",
      "type": "function"
    },
    {
      "inputs": [
        {
          "internalType": "uint256",
          "name": "tokenId",
          "type": "uint256"
        }
      ],
      "name": "burn",
      "outputs": [],
      "stateMutability": "nonpayable",
      "type": "function"
    },
    {
      "inputs": [
        {
          "internalType": "string",
          "name": "handle",
          "type": "string"
        },
        {
          "internalType": "address",
          "name": "account",
          "type": "address"
        }
      ],
      "name": "canCreate",
      "outputs": [
        {
          "internalType": "bool",
          "name": "",
          "type": "bool"
        }
      ],
      "stateMutability": "view",
      "type": "function"
    },
    {
      "inputs": [
        {
          "components": [
            {
              "internalType": "address",
              "name": "to",
              "type": "address"
            },
            {
              "internalType": "string",
              "name": "handle",
              "type": "string"
            },
            {
              "internalType": "string",
              "name": "uri",
              "type": "string"
            },
            {
              "internalType": "address",
              "name": "linkModule",
              "type": "address"
            },
            {
              "internalType": "bytes",
              "name": "linkModuleInitData",
              "type": "bytes"
            }
          ],
          "internalType": "struct DataTypes.CreateCharacterData",
          "name": "vars",
          "type": "tuple"
        }
      ],
      "name": "createCharacter",
      "outputs": [],
      "stateMutability": "nonpayable",
      "type": "function"
    },
    {
      "inputs": [
        {
          "components": [
            {
              "internalType": "address",
              "name": "to",
              "type": "address"
            },
            {
              "internalType": "string",
              "name": "handle",
              "type": "string"
            },
            {
              "internalType": "string",
              "name": "uri",
              "type": "string"
            },
            {
              "internalType": "address",
              "name": "linkModule",
              "type": "address"
            },
            {
              "internalType": "bytes",
              "name": "linkModuleInitData",
              "type": "bytes"
            }
          ],
          "internalType": "struct DataTypes.CreateCharacterData",
          "name": "vars",
          "type": "tuple"
        }
      ],
      "name": "createProfile",
      "outputs": [],
      "stateMutability": "nonpayable",
      "type": "function"
    },
    {
      "inputs": [
        {
          "components": [
            {
              "internalType": "uint256",
              "name": "fromCharacterId",
              "type": "uint256"
            },
            {
              "internalType": "address",
              "name": "to",
              "type": "address"
            },
            {
              "internalType": "bytes32",
              "name": "linkType",
              "type": "bytes32"
            }
          ],
          "internalType": "struct DataTypes.createThenLinkCharacterData",
          "name": "vars",
          "type": "tuple"
        }
      ],
      "name": "createThenLinkCharacter",
      "outputs": [],
      "stateMutability": "nonpayable",
      "type": "function"
    },
    {
      "inputs": [
        {
          "internalType": "uint256",
          "name": "characterId",
          "type": "uint256"
        },
        {
          "internalType": "uint256",
          "name": "noteId",
          "type": "uint256"
        }
      ],
      "name": "deleteNote",
      "outputs": [],
      "stateMutability": "nonpayable",
      "type": "function"
    },
    {
      "inputs": [
        {
          "internalType": "uint256",
          "name": "tokenId",
          "type": "uint256"
        }
      ],
      "name": "getApproved",
      "outputs": [
        {
          "internalType": "address",
          "name": "",
          "type": "address"
        }
      ],
      "stateMutability": "view",
      "type": "function"
    },
    {
      "inputs": [
        {
          "internalType": "uint256",
          "name": "characterId",
          "type": "uint256"
        }
      ],
      "name": "getCharacter",
      "outputs": [
        {
          "components": [
            {
              "internalType": "uint256",
              "name": "characterId",
              "type": "uint256"
            },
            {
              "internalType": "string",
              "name": "handle",
              "type": "string"
            },
            {
              "internalType": "string",
              "name": "uri",
              "type": "string"
            },
            {
              "internalType": "uint256",
              "name": "noteCount",
              "type": "uint256"
            },
            {
              "internalType": "address",
              "name": "socialToken",
              "type": "address"
            },
            {
              "internalType": "address",
              "name": "linkModule",
              "type": "address"
            }
          ],
          "internalType": "struct DataTypes.Character",
          "name": "",
          "type": "tuple"
        }
      ],
      "stateMutability": "view",
      "type": "function"
    },
    {
      "inputs": [
        {
          "internalType": "string",
          "name": "handle",
          "type": "string"
        }
      ],
      "name": "getCharacterByHandle",
      "outputs": [
        {
          "components": [
            {
              "internalType": "uint256",
              "name": "characterId",
              "type": "uint256"
            },
            {
              "internalType": "string",
              "name": "handle",
              "type": "string"
            },
            {
              "internalType": "string",
              "name": "uri",
              "type": "string"
            },
            {
              "internalType": "uint256",
              "name": "noteCount",
              "type": "uint256"
            },
            {
              "internalType": "address",
              "name": "socialToken",
              "type": "address"
            },
            {
              "internalType": "address",
              "name": "linkModule",
              "type": "address"
            }
          ],
          "internalType": "struct DataTypes.Character",
          "name": "",
          "type": "tuple"
        }
      ],
      "stateMutability": "view",
      "type": "function"
    },
    {
      "inputs": [
        {
          "internalType": "uint256",
          "name": "characterId",
          "type": "uint256"
        }
      ],
      "name": "getCharacterUri",
      "outputs": [
        {
          "internalType": "string",
          "name": "",
          "type": "string"
        }
      ],
      "stateMutability": "view",
      "type": "function"
    },
    {
      "inputs": [
        {
          "internalType": "uint256",
          "name": "characterId",
          "type": "uint256"
        }
      ],
      "name": "getHandle",
      "outputs": [
        {
          "internalType": "string",
          "name": "",
          "type": "string"
        }
      ],
      "stateMutability": "view",
      "type": "function"
    },
    {
      "inputs": [
        {
          "internalType": "address",
          "name": "account",
          "type": "address"
        }
      ],
      "name": "getLinkModule4Address",
      "outputs": [
        {
          "internalType": "address",
          "name": "",
          "type": "address"
        }
      ],
      "stateMutability": "view",
      "type": "function"
    },
    {
      "inputs": [
        {
          "internalType": "address",
          "name": "tokenAddress",
          "type": "address"
        },
        {
          "internalType": "uint256",
          "name": "tokenId",
          "type": "uint256"
        }
      ],
      "name": "getLinkModule4ERC721",
      "outputs": [
        {
          "internalType": "address",
          "name": "",
          "type": "address"
        }
      ],
      "stateMutability": "view",
      "type": "function"
    },
    {
      "inputs": [
        {
          "internalType": "uint256",
          "name": "tokenId",
          "type": "uint256"
        }
      ],
      "name": "getLinkModule4Linklist",
      "outputs": [
        {
          "internalType": "address",
          "name": "",
          "type": "address"
        }
      ],
      "stateMutability": "view",
      "type": "function"
    },
    {
      "inputs": [],
      "name": "getLinklistContract",
      "outputs": [
        {
          "internalType": "address",
          "name": "",
          "type": "address"
        }
      ],
      "stateMutability": "view",
      "type": "function"
    },
    {
      "inputs": [
        {
          "internalType": "uint256",
          "name": "characterId",
          "type": "uint256"
        },
        {
          "internalType": "bytes32",
          "name": "linkType",
          "type": "bytes32"
        }
      ],
      "name": "getLinklistId",
      "outputs": [
        {
          "internalType": "uint256",
          "name": "",
          "type": "uint256"
        }
      ],
      "stateMutability": "view",
      "type": "function"
    },
    {
      "inputs": [
        {
          "internalType": "uint256",
          "name": "linkListId",
          "type": "uint256"
        }
      ],
      "name": "getLinklistType",
      "outputs": [
        {
          "internalType": "bytes32",
          "name": "",
          "type": "bytes32"
        }
      ],
      "stateMutability": "view",
      "type": "function"
    },
    {
      "inputs": [
        {
          "internalType": "uint256",
          "name": "tokenId",
          "type": "uint256"
        }
      ],
      "name": "getLinklistUri",
      "outputs": [
        {
          "internalType": "string",
          "name": "",
          "type": "string"
        }
      ],
      "stateMutability": "view",
      "type": "function"
    },
    {
      "inputs": [
        {
          "internalType": "uint256",
          "name": "characterId",
          "type": "uint256"
        },
        {
          "internalType": "uint256",
          "name": "noteId",
          "type": "uint256"
        }
      ],
      "name": "getNote",
      "outputs": [
        {
          "components": [
            {
              "internalType": "bytes32",
              "name": "linkItemType",
              "type": "bytes32"
            },
            {
              "internalType": "bytes32",
              "name": "linkKey",
              "type": "bytes32"
            },
            {
              "internalType": "string",
              "name": "contentUri",
              "type": "string"
            },
            {
              "internalType": "address",
              "name": "linkModule",
              "type": "address"
            },
            {
              "internalType": "address",
              "name": "mintModule",
              "type": "address"
            },
            {
              "internalType": "address",
              "name": "mintNFT",
              "type": "address"
            },
            {
              "internalType": "bool",
              "name": "deleted",
              "type": "bool"
            },
            {
              "internalType": "bool",
              "name": "locked",
              "type": "bool"
            }
          ],
          "internalType": "struct DataTypes.Note",
          "name": "",
          "type": "tuple"
        }
      ],
      "stateMutability": "view",
      "type": "function"
    },
    {
      "inputs": [
        {
          "internalType": "uint256",
          "name": "characterId",
          "type": "uint256"
        }
      ],
      "name": "getOperator",
      "outputs": [
        {
          "internalType": "address",
          "name": "",
          "type": "address"
        }
      ],
      "stateMutability": "view",
      "type": "function"
    },
    {
      "inputs": [
        {
          "internalType": "address",
          "name": "account",
          "type": "address"
        }
      ],
      "name": "getPrimaryCharacterId",
      "outputs": [
        {
          "internalType": "uint256",
          "name": "",
          "type": "uint256"
        }
      ],
      "stateMutability": "view",
      "type": "function"
    },
    {
      "inputs": [],
      "name": "getRevision",
      "outputs": [
        {
          "internalType": "uint256",
          "name": "",
          "type": "uint256"
        }
      ],
      "stateMutability": "pure",
      "type": "function"
    },
    {
      "inputs": [
        {
          "internalType": "string",
          "name": "_name",
          "type": "string"
        },
        {
          "internalType": "string",
          "name": "_symbol",
          "type": "string"
        },
        {
          "internalType": "address",
          "name": "_linklistContract",
          "type": "address"
        },
        {
          "internalType": "address",
          "name": "_mintNFTImpl",
          "type": "address"
        },
        {
          "internalType": "address",
          "name": "_periphery",
          "type": "address"
        },
        {
          "internalType": "address",
          "name": "_resolver",
          "type": "address"
        }
      ],
      "name": "initialize",
      "outputs": [],
      "stateMutability": "nonpayable",
      "type": "function"
    },
    {
      "inputs": [
        {
          "internalType": "address",
          "name": "owner",
          "type": "address"
        },
        {
          "internalType": "address",
          "name": "operator",
          "type": "address"
        }
      ],
      "name": "isApprovedForAll",
      "outputs": [
        {
          "internalType": "bool",
          "name": "",
          "type": "bool"
        }
      ],
      "stateMutability": "view",
      "type": "function"
    },
    {
      "inputs": [
        {
          "internalType": "uint256",
          "name": "characterId",
          "type": "uint256"
        }
      ],
      "name": "isPrimaryCharacter",
      "outputs": [
        {
          "internalType": "bool",
          "name": "",
          "type": "bool"
        }
      ],
      "stateMutability": "view",
      "type": "function"
    },
    {
      "inputs": [
        {
          "components": [
            {
              "internalType": "uint256",
              "name": "fromCharacterId",
              "type": "uint256"
            },
            {
              "internalType": "address",
              "name": "ethAddress",
              "type": "address"
            },
            {
              "internalType": "bytes32",
              "name": "linkType",
              "type": "bytes32"
            },
            {
              "internalType": "bytes",
              "name": "data",
              "type": "bytes"
            }
          ],
          "internalType": "struct DataTypes.linkAddressData",
          "name": "vars",
          "type": "tuple"
        }
      ],
      "name": "linkAddress",
      "outputs": [],
      "stateMutability": "nonpayable",
      "type": "function"
    },
    {
      "inputs": [
        {
          "components": [
            {
              "internalType": "uint256",
              "name": "fromCharacterId",
              "type": "uint256"
            },
            {
              "internalType": "string",
              "name": "toUri",
              "type": "string"
            },
            {
              "internalType": "bytes32",
              "name": "linkType",
              "type": "bytes32"
            },
            {
              "internalType": "bytes",
              "name": "data",
              "type": "bytes"
            }
          ],
          "internalType": "struct DataTypes.linkAnyUriData",
          "name": "vars",
          "type": "tuple"
        }
      ],
      "name": "linkAnyUri",
      "outputs": [],
      "stateMutability": "nonpayable",
      "type": "function"
    },
    {
      "inputs": [
        {
          "components": [
            {
              "internalType": "uint256",
              "name": "fromCharacterId",
              "type": "uint256"
            },
            {
              "internalType": "uint256",
              "name": "toCharacterId",
              "type": "uint256"
            },
            {
              "internalType": "bytes32",
              "name": "linkType",
              "type": "bytes32"
            },
            {
              "internalType": "bytes",
              "name": "data",
              "type": "bytes"
            }
          ],
          "internalType": "struct DataTypes.linkCharacterData",
          "name": "vars",
          "type": "tuple"
        }
      ],
      "name": "linkCharacter",
      "outputs": [],
      "stateMutability": "nonpayable",
      "type": "function"
    },
    {
      "inputs": [
        {
          "components": [
            {
              "internalType": "uint256",
              "name": "fromCharacterId",
              "type": "uint256"
            },
            {
              "internalType": "address",
              "name": "tokenAddress",
              "type": "address"
            },
            {
              "internalType": "uint256",
              "name": "tokenId",
              "type": "uint256"
            },
            {
              "internalType": "bytes32",
              "name": "linkType",
              "type": "bytes32"
            },
            {
              "internalType": "bytes",
              "name": "data",
              "type": "bytes"
            }
          ],
          "internalType": "struct DataTypes.linkERC721Data",
          "name": "vars",
          "type": "tuple"
        }
      ],
      "name": "linkERC721",
      "outputs": [],
      "stateMutability": "nonpayable",
      "type": "function"
    },
    {
      "inputs": [
        {
          "components": [
            {
              "internalType": "uint256",
              "name": "fromCharacterId",
              "type": "uint256"
            },
            {
              "internalType": "uint256",
              "name": "toLinkListId",
              "type": "uint256"
            },
            {
              "internalType": "bytes32",
              "name": "linkType",
              "type": "bytes32"
            },
            {
              "internalType": "bytes",
              "name": "data",
              "type": "bytes"
            }
          ],
          "internalType": "struct DataTypes.linkLinklistData",
          "name": "vars",
          "type": "tuple"
        }
      ],
      "name": "linkLinklist",
      "outputs": [],
      "stateMutability": "nonpayable",
      "type": "function"
    },
    {
      "inputs": [
        {
          "components": [
            {
              "internalType": "uint256",
              "name": "fromCharacterId",
              "type": "uint256"
            },
            {
              "internalType": "uint256",
              "name": "toCharacterId",
              "type": "uint256"
            },
            {
              "internalType": "uint256",
              "name": "toNoteId",
              "type": "uint256"
            },
            {
              "internalType": "bytes32",
              "name": "linkType",
              "type": "bytes32"
            },
            {
              "internalType": "bytes",
              "name": "data",
              "type": "bytes"
            }
          ],
          "internalType": "struct DataTypes.linkNoteData",
          "name": "vars",
          "type": "tuple"
        }
      ],
      "name": "linkNote",
      "outputs": [],
      "stateMutability": "nonpayable",
      "type": "function"
    },
    {
      "inputs": [
        {
          "internalType": "uint256",
          "name": "characterId",
          "type": "uint256"
        },
        {
          "internalType": "uint256",
          "name": "noteId",
          "type": "uint256"
        }
      ],
      "name": "lockNote",
      "outputs": [],
      "stateMutability": "nonpayable",
      "type": "function"
    },
    {
      "inputs": [
        {
          "internalType": "uint256",
          "name": "characterId",
          "type": "uint256"
        }
      ],
      "name": "migrateNote",
      "outputs": [],
      "stateMutability": "nonpayable",
      "type": "function"
    },
    {
      "inputs": [
        {
          "components": [
            {
              "internalType": "uint256",
              "name": "characterId",
              "type": "uint256"
            },
            {
              "internalType": "uint256",
              "name": "noteId",
              "type": "uint256"
            },
            {
              "internalType": "address",
              "name": "to",
              "type": "address"
            },
            {
              "internalType": "bytes",
              "name": "mintModuleData",
              "type": "bytes"
            }
          ],
          "internalType": "struct DataTypes.MintNoteData",
          "name": "vars",
          "type": "tuple"
        }
      ],
      "name": "mintNote",
      "outputs": [
        {
          "internalType": "uint256",
          "name": "",
          "type": "uint256"
        }
      ],
      "stateMutability": "nonpayable",
      "type": "function"
    },
    {
      "inputs": [],
      "name": "name",
      "outputs": [
        {
          "internalType": "string",
          "name": "",
          "type": "string"
        }
      ],
      "stateMutability": "view",
      "type": "function"
    },
    {
      "inputs": [
        {
          "internalType": "uint256",
          "name": "tokenId",
          "type": "uint256"
        }
      ],
      "name": "ownerOf",
      "outputs": [
        {
          "internalType": "address",
          "name": "",
          "type": "address"
        }
      ],
      "stateMutability": "view",
      "type": "function"
    },
    {
      "inputs": [
        {
          "components": [
            {
              "internalType": "uint256",
              "name": "characterId",
              "type": "uint256"
            },
            {
              "internalType": "string",
              "name": "contentUri",
              "type": "string"
            },
            {
              "internalType": "address",
              "name": "linkModule",
              "type": "address"
            },
            {
              "internalType": "bytes",
              "name": "linkModuleInitData",
              "type": "bytes"
            },
            {
              "internalType": "address",
              "name": "mintModule",
              "type": "address"
            },
            {
              "internalType": "bytes",
              "name": "mintModuleInitData",
              "type": "bytes"
            },
            {
              "internalType": "bool",
              "name": "locked",
              "type": "bool"
            }
          ],
          "internalType": "struct DataTypes.PostNoteData",
          "name": "vars",
          "type": "tuple"
        }
      ],
      "name": "postNote",
      "outputs": [
        {
          "internalType": "uint256",
          "name": "",
          "type": "uint256"
        }
      ],
      "stateMutability": "nonpayable",
      "type": "function"
    },
    {
      "inputs": [
        {
          "components": [
            {
              "internalType": "uint256",
              "name": "characterId",
              "type": "uint256"
            },
            {
              "internalType": "string",
              "name": "contentUri",
              "type": "string"
            },
            {
              "internalType": "address",
              "name": "linkModule",
              "type": "address"
            },
            {
              "internalType": "bytes",
              "name": "linkModuleInitData",
              "type": "bytes"
            },
            {
              "internalType": "address",
              "name": "mintModule",
              "type": "address"
            },
            {
              "internalType": "bytes",
              "name": "mintModuleInitData",
              "type": "bytes"
            },
            {
              "internalType": "bool",
              "name": "locked",
              "type": "bool"
            }
          ],
          "internalType": "struct DataTypes.PostNoteData",
          "name": "noteData",
          "type": "tuple"
        },
        {
          "internalType": "address",
          "name": "ethAddress",
          "type": "address"
        }
      ],
      "name": "postNote4Address",
      "outputs": [
        {
          "internalType": "uint256",
          "name": "",
          "type": "uint256"
        }
      ],
      "stateMutability": "nonpayable",
      "type": "function"
    },
    {
      "inputs": [
        {
          "components": [
            {
              "internalType": "uint256",
              "name": "characterId",
              "type": "uint256"
            },
            {
              "internalType": "string",
              "name": "contentUri",
              "type": "string"
            },
            {
              "internalType": "address",
              "name": "linkModule",
              "type": "address"
            },
            {
              "internalType": "bytes",
              "name": "linkModuleInitData",
              "type": "bytes"
            },
            {
              "internalType": "address",
              "name": "mintModule",
              "type": "address"
            },
            {
              "internalType": "bytes",
              "name": "mintModuleInitData",
              "type": "bytes"
            },
            {
              "internalType": "bool",
              "name": "locked",
              "type": "bool"
            }
          ],
          "internalType": "struct DataTypes.PostNoteData",
          "name": "postNoteData",
          "type": "tuple"
        },
        {
          "internalType": "string",
          "name": "uri",
          "type": "string"
        }
      ],
      "name": "postNote4AnyUri",
      "outputs": [
        {
          "internalType": "uint256",
          "name": "",
          "type": "uint256"
        }
      ],
      "stateMutability": "nonpayable",
      "type": "function"
    },
    {
      "inputs": [
        {
          "components": [
            {
              "internalType": "uint256",
              "name": "characterId",
              "type": "uint256"
            },
            {
              "internalType": "string",
              "name": "contentUri",
              "type": "string"
            },
            {
              "internalType": "address",
              "name": "linkModule",
              "type": "address"
            },
            {
              "internalType": "bytes",
              "name": "linkModuleInitData",
              "type": "bytes"
            },
            {
              "internalType": "address",
              "name": "mintModule",
              "type": "address"
            },
            {
              "internalType": "bytes",
              "name": "mintModuleInitData",
              "type": "bytes"
            },
            {
              "internalType": "bool",
              "name": "locked",
              "type": "bool"
            }
          ],
          "internalType": "struct DataTypes.PostNoteData",
          "name": "postNoteData",
          "type": "tuple"
        },
        {
          "internalType": "uint256",
          "name": "toCharacterId",
          "type": "uint256"
        }
      ],
      "name": "postNote4Character",
      "outputs": [
        {
          "internalType": "uint256",
          "name": "",
          "type": "uint256"
        }
      ],
      "stateMutability": "nonpayable",
      "type": "function"
    },
    {
      "inputs": [
        {
          "components": [
            {
              "internalType": "uint256",
              "name": "characterId",
              "type": "uint256"
            },
            {
              "internalType": "string",
              "name": "contentUri",
              "type": "string"
            },
            {
              "internalType": "address",
              "name": "linkModule",
              "type": "address"
            },
            {
              "internalType": "bytes",
              "name": "linkModuleInitData",
              "type": "bytes"
            },
            {
              "internalType": "address",
              "name": "mintModule",
              "type": "address"
            },
            {
              "internalType": "bytes",
              "name": "mintModuleInitData",
              "type": "bytes"
            },
            {
              "internalType": "bool",
              "name": "locked",
              "type": "bool"
            }
          ],
          "internalType": "struct DataTypes.PostNoteData",
          "name": "postNoteData",
          "type": "tuple"
        },
        {
          "components": [
            {
              "internalType": "address",
              "name": "tokenAddress",
              "type": "address"
            },
            {
              "internalType": "uint256",
              "name": "erc721TokenId",
              "type": "uint256"
            }
          ],
          "internalType": "struct DataTypes.ERC721Struct",
          "name": "erc721",
          "type": "tuple"
        }
      ],
      "name": "postNote4ERC721",
      "outputs": [
        {
          "internalType": "uint256",
          "name": "",
          "type": "uint256"
        }
      ],
      "stateMutability": "nonpayable",
      "type": "function"
    },
    {
      "inputs": [
        {
          "components": [
            {
              "internalType": "uint256",
              "name": "characterId",
              "type": "uint256"
            },
            {
              "internalType": "string",
              "name": "contentUri",
              "type": "string"
            },
            {
              "internalType": "address",
              "name": "linkModule",
              "type": "address"
            },
            {
              "internalType": "bytes",
              "name": "linkModuleInitData",
              "type": "bytes"
            },
            {
              "internalType": "address",
              "name": "mintModule",
              "type": "address"
            },
            {
              "internalType": "bytes",
              "name": "mintModuleInitData",
              "type": "bytes"
            },
            {
              "internalType": "bool",
              "name": "locked",
              "type": "bool"
            }
          ],
          "internalType": "struct DataTypes.PostNoteData",
          "name": "noteData",
          "type": "tuple"
        },
        {
          "internalType": "uint256",
          "name": "toLinklistId",
          "type": "uint256"
        }
      ],
      "name": "postNote4Linklist",
      "outputs": [
        {
          "internalType": "uint256",
          "name": "",
          "type": "uint256"
        }
      ],
      "stateMutability": "nonpayable",
      "type": "function"
    },
    {
      "inputs": [
        {
          "components": [
            {
              "internalType": "uint256",
              "name": "characterId",
              "type": "uint256"
            },
            {
              "internalType": "string",
              "name": "contentUri",
              "type": "string"
            },
            {
              "internalType": "address",
              "name": "linkModule",
              "type": "address"
            },
            {
              "internalType": "bytes",
              "name": "linkModuleInitData",
              "type": "bytes"
            },
            {
              "internalType": "address",
              "name": "mintModule",
              "type": "address"
            },
            {
              "internalType": "bytes",
              "name": "mintModuleInitData",
              "type": "bytes"
            },
            {
              "internalType": "bool",
              "name": "locked",
              "type": "bool"
            }
          ],
          "internalType": "struct DataTypes.PostNoteData",
          "name": "postNoteData",
          "type": "tuple"
        },
        {
          "components": [
            {
              "internalType": "uint256",
              "name": "characterId",
              "type": "uint256"
            },
            {
              "internalType": "uint256",
              "name": "noteId",
              "type": "uint256"
            }
          ],
          "internalType": "struct DataTypes.NoteStruct",
          "name": "note",
          "type": "tuple"
        }
      ],
      "name": "postNote4Note",
      "outputs": [
        {
          "internalType": "uint256",
          "name": "",
          "type": "uint256"
        }
      ],
      "stateMutability": "nonpayable",
      "type": "function"
    },
    {
      "inputs": [],
      "name": "resolver",
      "outputs": [
        {
          "internalType": "address",
          "name": "",
          "type": "address"
        }
      ],
      "stateMutability": "view",
      "type": "function"
    },
    {
      "inputs": [
        {
          "internalType": "address",
          "name": "from",
          "type": "address"
        },
        {
          "internalType": "address",
          "name": "to",
          "type": "address"
        },
        {
          "internalType": "uint256",
          "name": "tokenId",
          "type": "uint256"
        }
      ],
      "name": "safeTransferFrom",
      "outputs": [],
      "stateMutability": "nonpayable",
      "type": "function"
    },
    {
      "inputs": [
        {
          "internalType": "address",
          "name": "from",
          "type": "address"
        },
        {
          "internalType": "address",
          "name": "to",
          "type": "address"
        },
        {
          "internalType": "uint256",
          "name": "tokenId",
          "type": "uint256"
        },
        {
          "internalType": "bytes",
          "name": "_data",
          "type": "bytes"
        }
      ],
      "name": "safeTransferFrom",
      "outputs": [],
      "stateMutability": "nonpayable",
      "type": "function"
    },
    {
      "inputs": [
        {
          "internalType": "address",
          "name": "operator",
          "type": "address"
        },
        {
          "internalType": "bool",
          "name": "approved",
          "type": "bool"
        }
      ],
      "name": "setApprovalForAll",
      "outputs": [],
      "stateMutability": "nonpayable",
      "type": "function"
    },
    {
      "inputs": [
        {
          "internalType": "uint256",
          "name": "characterId",
          "type": "uint256"
        },
        {
          "internalType": "string",
          "name": "newUri",
          "type": "string"
        }
      ],
      "name": "setCharacterUri",
      "outputs": [],
      "stateMutability": "nonpayable",
      "type": "function"
    },
    {
      "inputs": [
        {
          "internalType": "uint256",
          "name": "characterId",
          "type": "uint256"
        },
        {
          "internalType": "string",
          "name": "newHandle",
          "type": "string"
        }
      ],
      "name": "setHandle",
      "outputs": [],
      "stateMutability": "nonpayable",
      "type": "function"
    },
    {
      "inputs": [
        {
          "components": [
            {
              "internalType": "address",
              "name": "account",
              "type": "address"
            },
            {
              "internalType": "address",
              "name": "linkModule",
              "type": "address"
            },
            {
              "internalType": "bytes",
              "name": "linkModuleInitData",
              "type": "bytes"
            }
          ],
          "internalType": "struct DataTypes.setLinkModule4AddressData",
          "name": "vars",
          "type": "tuple"
        }
      ],
      "name": "setLinkModule4Address",
      "outputs": [],
      "stateMutability": "nonpayable",
      "type": "function"
    },
    {
      "inputs": [
        {
          "components": [
            {
              "internalType": "uint256",
              "name": "characterId",
              "type": "uint256"
            },
            {
              "internalType": "address",
              "name": "linkModule",
              "type": "address"
            },
            {
              "internalType": "bytes",
              "name": "linkModuleInitData",
              "type": "bytes"
            }
          ],
          "internalType": "struct DataTypes.setLinkModule4CharacterData",
          "name": "vars",
          "type": "tuple"
        }
      ],
      "name": "setLinkModule4Character",
      "outputs": [],
      "stateMutability": "nonpayable",
      "type": "function"
    },
    {
      "inputs": [
        {
          "components": [
            {
              "internalType": "address",
              "name": "tokenAddress",
              "type": "address"
            },
            {
              "internalType": "uint256",
              "name": "tokenId",
              "type": "uint256"
            },
            {
              "internalType": "address",
              "name": "linkModule",
              "type": "address"
            },
            {
              "internalType": "bytes",
              "name": "linkModuleInitData",
              "type": "bytes"
            }
          ],
          "internalType": "struct DataTypes.setLinkModule4ERC721Data",
          "name": "vars",
          "type": "tuple"
        }
      ],
      "name": "setLinkModule4ERC721",
      "outputs": [],
      "stateMutability": "nonpayable",
      "type": "function"
    },
    {
      "inputs": [
        {
          "components": [
            {
              "internalType": "uint256",
              "name": "linklistId",
              "type": "uint256"
            },
            {
              "internalType": "address",
              "name": "linkModule",
              "type": "address"
            },
            {
              "internalType": "bytes",
              "name": "linkModuleInitData",
              "type": "bytes"
            }
          ],
          "internalType": "struct DataTypes.setLinkModule4LinklistData",
          "name": "vars",
          "type": "tuple"
        }
      ],
      "name": "setLinkModule4Linklist",
      "outputs": [],
      "stateMutability": "nonpayable",
      "type": "function"
    },
    {
      "inputs": [
        {
          "components": [
            {
              "internalType": "uint256",
              "name": "characterId",
              "type": "uint256"
            },
            {
              "internalType": "uint256",
              "name": "noteId",
              "type": "uint256"
            },
            {
              "internalType": "address",
              "name": "linkModule",
              "type": "address"
            },
            {
              "internalType": "bytes",
              "name": "linkModuleInitData",
              "type": "bytes"
            }
          ],
          "internalType": "struct DataTypes.setLinkModule4NoteData",
          "name": "vars",
          "type": "tuple"
        }
      ],
      "name": "setLinkModule4Note",
      "outputs": [],
      "stateMutability": "nonpayable",
      "type": "function"
    },
    {
      "inputs": [
        {
          "internalType": "uint256",
          "name": "linklistId",
          "type": "uint256"
        },
        {
          "internalType": "string",
          "name": "uri",
          "type": "string"
        }
      ],
      "name": "setLinklistUri",
      "outputs": [],
      "stateMutability": "nonpayable",
      "type": "function"
    },
    {
      "inputs": [
        {
          "components": [
            {
              "internalType": "uint256",
              "name": "characterId",
              "type": "uint256"
            },
            {
              "internalType": "uint256",
              "name": "noteId",
              "type": "uint256"
            },
            {
              "internalType": "address",
              "name": "mintModule",
              "type": "address"
            },
            {
              "internalType": "bytes",
              "name": "mintModuleInitData",
              "type": "bytes"
            }
          ],
          "internalType": "struct DataTypes.setMintModule4NoteData",
          "name": "vars",
          "type": "tuple"
        }
      ],
      "name": "setMintModule4Note",
      "outputs": [],
      "stateMutability": "nonpayable",
      "type": "function"
    },
    {
      "inputs": [
        {
          "internalType": "uint256",
          "name": "characterId",
          "type": "uint256"
        },
        {
          "internalType": "uint256",
          "name": "noteId",
          "type": "uint256"
        },
        {
          "internalType": "string",
          "name": "newUri",
          "type": "string"
        }
      ],
      "name": "setNoteUri",
      "outputs": [],
      "stateMutability": "nonpayable",
      "type": "function"
    },
    {
      "inputs": [
        {
          "internalType": "uint256",
          "name": "characterId",
          "type": "uint256"
        },
        {
          "internalType": "address",
          "name": "operator",
          "type": "address"
        }
      ],
      "name": "setOperator",
      "outputs": [],
      "stateMutability": "nonpayable",
      "type": "function"
    },
    {
      "inputs": [
        {
          "internalType": "uint256",
          "name": "characterId",
          "type": "uint256"
        }
      ],
      "name": "setPrimaryCharacterId",
      "outputs": [],
      "stateMutability": "nonpayable",
      "type": "function"
    },
    {
      "inputs": [
        {
          "internalType": "uint256",
          "name": "profileId",
          "type": "uint256"
        },
        {
          "internalType": "string",
          "name": "newUri",
          "type": "string"
        }
      ],
      "name": "setProfileUri",
      "outputs": [],
      "stateMutability": "nonpayable",
      "type": "function"
    },
    {
      "inputs": [
        {
          "internalType": "uint256",
          "name": "characterId",
          "type": "uint256"
        },
        {
          "internalType": "address",
          "name": "tokenAddress",
          "type": "address"
        }
      ],
      "name": "setSocialToken",
      "outputs": [],
      "stateMutability": "nonpayable",
      "type": "function"
    },
    {
      "inputs": [
        {
          "internalType": "bytes4",
          "name": "interfaceId",
          "type": "bytes4"
        }
      ],
      "name": "supportsInterface",
      "outputs": [
        {
          "internalType": "bool",
          "name": "",
          "type": "bool"
        }
      ],
      "stateMutability": "view",
      "type": "function"
    },
    {
      "inputs": [],
      "name": "symbol",
      "outputs": [
        {
          "internalType": "string",
          "name": "",
          "type": "string"
        }
      ],
      "stateMutability": "view",
      "type": "function"
    },
    {
      "inputs": [
        {
          "internalType": "uint256",
          "name": "index",
          "type": "uint256"
        }
      ],
      "name": "tokenByIndex",
      "outputs": [
        {
          "internalType": "uint256",
          "name": "",
          "type": "uint256"
        }
      ],
      "stateMutability": "view",
      "type": "function"
    },
    {
      "inputs": [
        {
          "internalType": "address",
          "name": "owner",
          "type": "address"
        },
        {
          "internalType": "uint256",
          "name": "index",
          "type": "uint256"
        }
      ],
      "name": "tokenOfOwnerByIndex",
      "outputs": [
        {
          "internalType": "uint256",
          "name": "",
          "type": "uint256"
        }
      ],
      "stateMutability": "view",
      "type": "function"
    },
    {
      "inputs": [
        {
          "internalType": "uint256",
          "name": "characterId",
          "type": "uint256"
        }
      ],
      "name": "tokenURI",
      "outputs": [
        {
          "internalType": "string",
          "name": "",
          "type": "string"
        }
      ],
      "stateMutability": "view",
      "type": "function"
    },
    {
      "inputs": [],
      "name": "totalSupply",
      "outputs": [
        {
          "internalType": "uint256",
          "name": "",
          "type": "uint256"
        }
      ],
      "stateMutability": "view",
      "type": "function"
    },
    {
      "inputs": [
        {
          "internalType": "address",
          "name": "from",
          "type": "address"
        },
        {
          "internalType": "address",
          "name": "to",
          "type": "address"
        },
        {
          "internalType": "uint256",
          "name": "tokenId",
          "type": "uint256"
        }
      ],
      "name": "transferFrom",
      "outputs": [],
      "stateMutability": "nonpayable",
      "type": "function"
    },
    {
      "inputs": [
        {
          "components": [
            {
              "internalType": "uint256",
              "name": "fromCharacterId",
              "type": "uint256"
            },
            {
              "internalType": "address",
              "name": "ethAddress",
              "type": "address"
            },
            {
              "internalType": "bytes32",
              "name": "linkType",
              "type": "bytes32"
            }
          ],
          "internalType": "struct DataTypes.unlinkAddressData",
          "name": "vars",
          "type": "tuple"
        }
      ],
      "name": "unlinkAddress",
      "outputs": [],
      "stateMutability": "nonpayable",
      "type": "function"
    },
    {
      "inputs": [
        {
          "components": [
            {
              "internalType": "uint256",
              "name": "fromCharacterId",
              "type": "uint256"
            },
            {
              "internalType": "string",
              "name": "toUri",
              "type": "string"
            },
            {
              "internalType": "bytes32",
              "name": "linkType",
              "type": "bytes32"
            }
          ],
          "internalType": "struct DataTypes.unlinkAnyUriData",
          "name": "vars",
          "type": "tuple"
        }
      ],
      "name": "unlinkAnyUri",
      "outputs": [],
      "stateMutability": "nonpayable",
      "type": "function"
    },
    {
      "inputs": [
        {
          "components": [
            {
              "internalType": "uint256",
              "name": "fromCharacterId",
              "type": "uint256"
            },
            {
              "internalType": "uint256",
              "name": "toCharacterId",
              "type": "uint256"
            },
            {
              "internalType": "bytes32",
              "name": "linkType",
              "type": "bytes32"
            }
          ],
          "internalType": "struct DataTypes.unlinkCharacterData",
          "name": "vars",
          "type": "tuple"
        }
      ],
      "name": "unlinkCharacter",
      "outputs": [],
      "stateMutability": "nonpayable",
      "type": "function"
    },
    {
      "inputs": [
        {
          "components": [
            {
              "internalType": "uint256",
              "name": "fromCharacterId",
              "type": "uint256"
            },
            {
              "internalType": "address",
              "name": "tokenAddress",
              "type": "address"
            },
            {
              "internalType": "uint256",
              "name": "tokenId",
              "type": "uint256"
            },
            {
              "internalType": "bytes32",
              "name": "linkType",
              "type": "bytes32"
            }
          ],
          "internalType": "struct DataTypes.unlinkERC721Data",
          "name": "vars",
          "type": "tuple"
        }
      ],
      "name": "unlinkERC721",
      "outputs": [],
      "stateMutability": "nonpayable",
      "type": "function"
    },
    {
      "inputs": [
        {
          "components": [
            {
              "internalType": "uint256",
              "name": "fromCharacterId",
              "type": "uint256"
            },
            {
              "internalType": "uint256",
              "name": "toLinkListId",
              "type": "uint256"
            },
            {
              "internalType": "bytes32",
              "name": "linkType",
              "type": "bytes32"
            }
          ],
          "internalType": "struct DataTypes.unlinkLinklistData",
          "name": "vars",
          "type": "tuple"
        }
      ],
      "name": "unlinkLinklist",
      "outputs": [],
      "stateMutability": "nonpayable",
      "type": "function"
    },
    {
      "inputs": [
        {
          "components": [
            {
              "internalType": "uint256",
              "name": "fromCharacterId",
              "type": "uint256"
            },
            {
              "internalType": "uint256",
              "name": "toCharacterId",
              "type": "uint256"
            },
            {
              "internalType": "uint256",
              "name": "toNoteId",
              "type": "uint256"
            },
            {
              "internalType": "bytes32",
              "name": "linkType",
              "type": "bytes32"
            }
          ],
          "internalType": "struct DataTypes.unlinkNoteData",
          "name": "vars",
          "type": "tuple"
        }
      ],
      "name": "unlinkNote",
      "outputs": [],
      "stateMutability": "nonpayable",
      "type": "function"
    }
  ],
  "bytecode": {
    "object": "0x608060405234801561001057600080fd5b50615d3180620000216000396000f3fe608060405234801561001057600080fd5b50600436106104545760003560e01c8063867884e611610241578063c87b56dd1161013b578063e56f2fe4116100c3578063f2ad807511610087578063f2ad807514610a55578063f316bacd14610a68578063f6479d7714610a7b578063fd2d866f14610a8e578063fe9299fb14610aa157600080fd5b8063e56f2fe4146109cd578063e7a1c1c0146109e0578063e985e9c5146109f3578063ec81d19414610a2f578063ef0828ab14610a4257600080fd5b8063d70e10c61161010a578063d70e10c614610949578063dabb053114610974578063db491e8014610987578063db8c198d146109a7578063dca27135146109ba57600080fd5b8063c87b56dd14610910578063cb8e757e14610923578063cd69fe61146108d9578063d23b320b1461093657600080fd5b80639a50248d116101c9578063b88d4fde1161018d578063b88d4fde146108b3578063b9d32845146108c6578063bd5f69cb146108d9578063c053f6b8146108ec578063c2a6fe3b146108fd57600080fd5b80639a50248d14610847578063a22cb46514610867578063a6e6178d1461087a578063a7ccb4bf1461088d578063af90b112146108a057600080fd5b806393f057e51161021057806393f057e5146107f357806395d89b411461080657806395d9fa7d1461080e5780639864c307146108215780639a4dec181461083457600080fd5b8063867884e6146107a75780638734bbfc146107ba5780638b4ca06a146107cd57806392f7070b146107e057600080fd5b806331b9d08c116103525780634f6ccce7116102da57806369492c971161029e57806369492c971461075857806370a082311461076b57806374f345cf1461077e5780637c392b51146106e65780637daca6d01461079157600080fd5b80634f6ccce7146106f95780635a936d101461070c5780635fb881831461071f578063628b644a146107325780636352211e1461074557600080fd5b806340ad34d81161032157806340ad34d81461069a57806342842e0e146106ad57806342966c68146106c057806344b82a24146106d357806347f94de7146106e657600080fd5b806331b9d08c14610635578063327b2a031461066157806333f06ee614610674578063388f50831461068757600080fd5b80631316529d116103e05780632209d145116103a45780632209d1451461059d57806323b872dd146105d357806329c301c2146105e65780632abc6bf6146105f95780632f745c591461062257600080fd5b80631316529d1461054b578063144a3e831461055c57806314bd433c1461056f57806318160ddd14610582578063188b04b31461058a57600080fd5b8063081812fc11610427578063081812fc146104ea57806308cb68ff146104fd578063095ea7b3146105125780630c4dd5f2146105255780630ff982441461053857600080fd5b806301ffc9a71461045957806304f3bcec1461048157806305f63c8a146104ac57806306fdde03146104d5575b600080fd5b61046c610467366004614731565b610aca565b60405190151581526020015b60405180910390f35b601754610494906001600160a01b031681565b6040516001600160a01b039091168152602001610478565b6104946104ba36600461474e565b6000908152601660205260409020546001600160a01b031690565b6104dd610af5565b60405161047891906147bf565b6104946104f836600461474e565b610b87565b61051061050b3660046147ea565b610c21565b005b610510610520366004614843565b610cba565b6105106105333660046147ea565b610dd0565b61051061054636600461486f565b610e35565b60045b604051908152602001610478565b6104dd61056a36600461474e565b610f34565b61051061057d36600461474e565b610f3f565b60085461054e565b61051061059836600461489d565b610fc1565b6104946105ab366004614843565b6001600160a01b03918216600090815260106020908152604080832093835292905220541690565b6105106105e13660046148d1565b6110c1565b61054e6105f4366004614924565b6110f2565b61054e610607366004614958565b6001600160a01b03166000908152600c602052604090205490565b61054e610630366004614843565b61119e565b610494610643366004614958565b6001600160a01b039081166000908152601160205260409020541690565b61054e61066f366004614987565b611234565b610510610682366004614a1d565b6113f7565b61051061069536600461489d565b61146b565b6105106106a8366004614a68565b611528565b6105106106bb3660046148d1565b6115a2565b6105106106ce36600461474e565b6115bd565b61054e6106e1366004614a84565b61165a565b6105106106f4366004614a1d565b6116d0565b61054e61070736600461474e565b611710565b61051061071a36600461486f565b6117a3565b61051061072d36600461489d565b611833565b610510610740366004614ac8565b6118f0565b61049461075336600461474e565b61197c565b61051061076636600461489d565b6119f3565b61054e610779366004614958565b611b2b565b61051061078c366004614b1a565b611bb2565b61046c61079f366004614c27565b600192915050565b6105106107b5366004614a68565b611c2a565b61046c6107c836600461474e565b611c9a565b61054e6107db36600461474e565b611cc8565b61054e6107ee366004614c78565b611d34565b61051061080136600461486f565b611dc8565b6104dd611e37565b61051061081c366004614cad565b611e46565b61051061082f36600461489d565b611ecc565b61054e610842366004614987565b611f89565b61085a610855366004614cd2565b612091565b6040516104789190614d13565b610510610875366004614d9f565b612240565b610510610888366004614a1d565b61224b565b61054e61089b36600461489d565b612346565b61054e6108ae366004614a84565b6123ea565b6105106108c1366004614dcb565b612428565b6105106108d4366004614e48565b612460565b6105106108e7366004614e48565b612532565b6013546001600160a01b0316610494565b61051061090b366004614b1a565b612546565b6104dd61091e36600461474e565b6125b6565b610510610931366004614e48565b61265b565b61051061094436600461489d565b612735565b61054e610957366004614b1a565b6000918252600d6020908152604080842092845291905290205490565b61085a61098236600461474e565b6127af565b61099a610995366004614b1a565b612936565b6040516104789190614e7c565b6105106109b536600461489d565b612a97565b6104dd6109c836600461474e565b612ae1565b6105106109db366004614f12565b612b53565b6105106109ee366004614cad565b612d08565b61046c610a01366004614fcc565b6001600160a01b03918216600090815260056020908152604080832093909416825291909152205460ff1690565b6104dd610a3d36600461474e565b612d1b565b610510610a503660046147ea565b612d3b565b610510610a6336600461474e565b612daa565b61054e610a76366004614ffa565b612df9565b610510610a8936600461486f565b612f55565b610510610a9c3660046147ea565b612f8f565b610494610aaf36600461474e565b6000908152600f60205260409020546001600160a01b031690565b60006001600160e01b0319821663780e9d6360e01b1480610aef5750610aef82613008565b92915050565b606060008054610b0490615055565b80601f0160208091040260200160405190810160405280929190818152602001828054610b3090615055565b8015610b7d5780601f10610b5257610100808354040283529160200191610b7d565b820191906000526020600020905b815481529060010190602001808311610b6057829003601f168201915b5050505050905090565b6000818152600260205260408120546001600160a01b0316610c055760405162461bcd60e51b815260206004820152602c60248201527f4552433732313a20617070726f76656420717565727920666f72206e6f6e657860448201526b34b9ba32b73a103a37b5b2b760a11b60648201526084015b60405180910390fd5b506000908152600460205260409020546001600160a01b031690565b73__$ccaefba5abaae7361fb981898db80d4305$__63dfc34f25610c486020840184614958565b610c586040850160208601614958565b610c65604086018661508a565b60116040518663ffffffff1660e01b8152600401610c879594939291906150f9565b60006040518083038186803b158015610c9f57600080fd5b505af4158015610cb3573d6000803e3d6000fd5b5050505050565b6000610cc58261197c565b9050806001600160a01b0316836001600160a01b03161415610d335760405162461bcd60e51b815260206004820152602160248201527f4552433732313a20617070726f76616c20746f2063757272656e74206f776e656044820152603960f91b6064820152608401610bfc565b336001600160a01b0382161480610d4f5750610d4f8133610a01565b610dc15760405162461bcd60e51b815260206004820152603860248201527f4552433732313a20617070726f76652063616c6c6572206973206e6f74206f7760448201527f6e6572206e6f7220617070726f76656420666f7220616c6c00000000000000006064820152608401610bfc565b610dcb8383613058565b505050565b610dda81356130c6565b73__$ccaefba5abaae7361fb981898db80d4305$__636252159e8235610e066040850160208601614958565b610e13604086018661508a565b600f6040518663ffffffff1660e01b8152600401610c87959493929190615138565b610e3f8135613186565b6040516331a9108f60e11b81528135600482015273__$5abde9af541dd76010bdab2fdbd2e12ad0$__90633019fadd9083903090636352211e90602401602060405180830381865afa158015610e99573d6000803e3d6000fd5b505050506040513d601f19601f82011682018060405250810190610ebd9190615163565b60135485356000908152600d60209081526040808320818a0135845282529182902054825160e088901b6001600160e01b031916815286356004820152918601356024830152949091013560448201526001600160a01b0392831660648201529116608482015260a481019190915260c401610c87565b6060610aef826125b6565b6000818152600a6020526040812060030154905b81811015610dcb576000838152600e602090815260408083208484529091529020546650726f66696c6560c81b1415610faf576000838152600e6020908152604080832084845290915290206821b430b930b1ba32b960b91b90555b80610fb981615196565b915050610f53565b610fcb8135613186565b610fd88160200135613207565b73__$5abde9af541dd76010bdab2fdbd2e12ad0$__637f9590a382356020840135604085013561100b606087018761508a565b6040516331a9108f60e11b8152883560048201523090636352211e90602401602060405180830381865afa158015611047573d6000803e3d6000fd5b505050506040513d601f19601f8201168201806040525081019061106b9190615163565b6013546020808b01356000908152600a9091526040908190206005015490516001600160e01b031960e08b901b168152610c87989796959493926001600160a01b03908116921690600d906018906004016151b1565b6110cb3382613260565b6110e75760405162461bcd60e51b8152600401610bfc90615211565b610dcb838383613357565b60006110fe823561344c565b81356000908152600a602052604081206003018054829061111e90615196565b91829055506040516342a34a5360e01b815290915073__$28febe8707c2533835cf7587e52ef64d24$__906342a34a539061116790869085906000908190600e9060040161536c565b60006040518083038186803b15801561117f57600080fd5b505af4158015611193573d6000803e3d6000fd5b509295945050505050565b60006111a983611b2b565b821061120b5760405162461bcd60e51b815260206004820152602b60248201527f455243373231456e756d657261626c653a206f776e657220696e646578206f7560448201526a74206f6620626f756e647360a81b6064820152608401610bfc565b506001600160a01b03919091166000908152600660209081526040808320938352929052205490565b6000611240833561344c565b61125a6112506020840184614958565b83602001356134ed565b6013546545524337323160d01b906000906001600160a01b0316632ea24efc826112876020880188614958565b6040516001600160e01b031960e085901b16815260048101929092526001600160a01b03166024820152602087013560448201526064016020604051808303816000875af11580156112dd573d6000803e3d6000fd5b505050506040513d601f19601f8201168201806040525081019061130191906153b1565b85356000908152600a6020526040812060030180549293509091829061132690615196565b9182905550905073__$28febe8707c2533835cf7587e52ef64d24$__6342a34a538783868661135860208c018c614958565b8b6020013560405160200161138b92919060609290921b6bffffffffffffffffffffffff19168252601482015260340190565b604051602081830303815290604052600e6040518763ffffffff1660e01b81526004016113bd969594939291906153ca565b60006040518083038186803b1580156113d557600080fd5b505af41580156113e9573d6000803e3d6000fd5b509298975050505050505050565b611400836130c6565b601354604051633c17845760e11b81526001600160a01b039091169063782f08ae9061143490869086908690600401615415565b600060405180830381600087803b15801561144e57600080fd5b505af1158015611462573d6000803e3d6000fd5b50505050505050565b6114758135613186565b6040516331a9108f60e11b81528135600482015273__$5abde9af541dd76010bdab2fdbd2e12ad0$__90637d25a4579083903090636352211e90602401602060405180830381865afa1580156114cf573d6000803e3d6000fd5b505050506040513d601f19601f820116820180604052508101906114f39190615163565b6013546040516001600160e01b031960e086901b168152610c879392916001600160a01b031690600d90601890600401615438565b611532813561344c565b60135460408051635cebf08d60e11b81528335600482015260208401356024820152908301356044820152606083013560648201526001600160a01b039091166084820152600d60a482015273__$5abde9af541dd76010bdab2fdbd2e12ad0$__9063b9d7e11a9060c401610c87565b610dcb83838360405180602001604052806000815250612428565b6000818152600a602052604080822090516115db91600101906154ba565b60408051918290039091206000818152600b6020908152838220829055858252600a905291822082815590925090611616600183018261458c565b61162460028301600061458c565b50600060038201556004810180546001600160a01b03199081169091556005909101805490911690556116568261359d565b5050565b6000611666833561344c565b82356000908152600a60205260408120600301805467131a5b9adb1a5cdd60c21b9285929091829061169790615196565b919050819055905073__$28febe8707c2533835cf7587e52ef64d24$__6342a34a53878386868a60405160200161138b91815260200190565b610dcb8383838080601f0160208091040260200160405190810160405280939291908181526020018383808284376000920191909152506135fc92505050565b600061171b60085490565b821061177e5760405162461bcd60e51b815260206004820152602c60248201527f455243373231456e756d657261626c653a20676c6f62616c20696e646578206f60448201526b7574206f6620626f756e647360a01b6064820152608401610bfc565b6008828154811061179157611791615556565b90600052602060002001549050919050565b6117ad8135613186565b60135481356000818152600d60209081526040808320818701358085529083529281902054905163d862986560e01b8152600481019490945290850135602484015260448301919091526001600160a01b039092166064820152608481019190915273__$5abde9af541dd76010bdab2fdbd2e12ad0$__9063d86298659060a401610c87565b61183d8135613186565b6040516331a9108f60e11b81528135600482015273__$5abde9af541dd76010bdab2fdbd2e12ad0$__9063fb0b104f9083903090636352211e90602401602060405180830381865afa158015611897573d6000803e3d6000fd5b505050506040513d601f19601f820116820180604052508101906118bb9190615163565b6013546040516001600160e01b031960e086901b168152610c879392916001600160a01b031690600d9060189060040161556c565b6118f984613186565b611903848461365b565b6040516001626802bf60e01b0319815273__$28febe8707c2533835cf7587e52ef64d24$__9063ff97fd4190611946908790879087908790600e906004016155fe565b60006040518083038186803b15801561195e57600080fd5b505af4158015611972573d6000803e3d6000fd5b5050505050505050565b6000818152600260205260408120546001600160a01b031680610aef5760405162461bcd60e51b815260206004820152602960248201527f4552433732313a206f776e657220717565727920666f72206e6f6e657869737460448201526832b73a103a37b5b2b760b91b6064820152608401610bfc565b611a006020820182614958565b6040516331a9108f60e11b8152602083013560048201526001600160a01b039190911690636352211e90602401602060405180830381865afa158015611a4a573d6000803e3d6000fd5b505050506040513d601f19601f82011682018060405250810190611a6e9190615163565b6001600160a01b0316336001600160a01b031614611abf5760405162461bcd60e51b815260206004820152600e60248201526d2737ba22a9219b9918a7bbb732b960911b6044820152606401610bfc565b73__$ccaefba5abaae7361fb981898db80d4305$__63384afeb3611ae66020840184614958565b6020840135611afb6060860160408701614958565b611b08606087018761508a565b60106040518763ffffffff1660e01b8152600401610c879695949392919061561e565b60006001600160a01b038216611b965760405162461bcd60e51b815260206004820152602a60248201527f4552433732313a2062616c616e636520717565727920666f7220746865207a65604482015269726f206164647265737360b01b6064820152608401610bfc565b506001600160a01b031660009081526003602052604090205490565b611bbb8261344c565b611bc5828261365b565b6000828152600e60209081526040808320848452825291829020600501805460ff60a81b1916600160a81b179055905182815283917f036469f3e73c83520cdefa197d7a9c854c2f8bc0164b82e9f2bd4aa7e150fd3091015b60405180910390a25050565b611c348135613186565b60135481356000908152600d6020908152604080832060608601358452909152908190205490516317e9a8b160e31b815273__$5abde9af541dd76010bdab2fdbd2e12ad0$__9263bf4d458892610c879286926001600160a01b03169190600401615665565b600080611ca68361197c565b6001600160a01b03166000908152600c60205260409020549290921492915050565b60135460405162fba02760e01b8152600481018390526000916001600160a01b03169062fba02790602401602060405180830381865afa158015611d10573d6000803e3d6000fd5b505050506040513d601f19601f82011682018060405250810190610aef91906153b1565b6000611d40833561344c565b82356000908152600a602052604081206003018054664164647265737360c81b926001600160a01b0386169290918290611d7990615196565b919050819055905073__$28febe8707c2533835cf7587e52ef64d24$__6342a34a53878386868a60405160200161138b919060609190911b6bffffffffffffffffffffffff1916815260140190565b611dd28135613186565b60135481356000908152600d6020908152604080832081860135845290915290819020549051633d7f9b3d60e11b815273__$5abde9af541dd76010bdab2fdbd2e12ad0$__92637aff367a92610c879286926001600160a01b031691906004016156b7565b606060018054610b0490615055565b611e4f82613186565b6040516384b44a2f60e01b8152600481018390526001600160a01b0382166024820152600a604482015273__$5f4b6d0e8d26e72e412687f6a7f2becc77$__906384b44a2f9060640160006040518083038186803b158015611eb057600080fd5b505af4158015611ec4573d6000803e3d6000fd5b505050505050565b611ed68135613186565b6040516331a9108f60e11b81528135600482015273__$5abde9af541dd76010bdab2fdbd2e12ad0$__90632217ec209083903090636352211e90602401602060405180830381865afa158015611f30573d6000803e3d6000fd5b505050506040513d601f19601f82011682018060405250810190611f549190615163565b6013546040516001600160e01b031960e086901b168152610c879392916001600160a01b031690600d906018906004016156ff565b6000611f95833561344c565b601354604051635cb46be760e01b81526000600482018190528435602483015260208501356044830152634e6f746560e01b9290916001600160a01b0390911690635cb46be7906064016020604051808303816000875af1158015611ffe573d6000803e3d6000fd5b505050506040513d601f19601f8201168201806040525081019061202291906153b1565b85356000908152600a6020526040812060030180549293509091829061204790615196565b919050819055905073__$28febe8707c2533835cf7587e52ef64d24$__6342a34a53878386868a600001358b6020013560405160200161138b929190918252602082015260400190565b6120996145c6565b600083836040516120ab929190615773565b604080519182900382206000818152600b602090815283822054808352600a82529184902060c08601909452835485526001840180549396509194939290840191906120f690615055565b80601f016020809104026020016040519081016040528092919081815260200182805461212290615055565b801561216f5780601f106121445761010080835404028352916020019161216f565b820191906000526020600020905b81548152906001019060200180831161215257829003601f168201915b5050505050815260200160028201805461218890615055565b80601f01602080910402602001604051908101604052809291908181526020018280546121b490615055565b80156122015780601f106121d657610100808354040283529160200191612201565b820191906000526020600020905b8154815290600101906020018083116121e457829003601f168201915b50505091835250506003820154602082015260048201546001600160a01b03908116604083015260059092015490911660609091015295945050505050565b611656338383613710565b61225483613186565b61229982828080601f01602080910402602001604051908101604052809392919081815260200183838082843760009201919091525061079f925087915061197c9050565b6122d95760405162461bcd60e51b815260206004820152601160248201527048616e646c654e6f74456c696769626c6560781b6044820152606401610bfc565b60405163130f361d60e01b815273__$5f4b6d0e8d26e72e412687f6a7f2becc77$__9063130f361d9061231a90869086908690600b90600a90600401615783565b60006040518083038186803b15801561233257600080fd5b505af4158015611462573d6000803e3d6000fd5b60006123578235602084013561365b565b73__$28febe8707c2533835cf7587e52ef64d24$__635be69415833560208501356123886060870160408801614958565b612395606088018861508a565b6014546040516001600160e01b031960e089901b1681526123cd9695949392916001600160a01b031690600a90600e906004016157b1565b602060405180830381865af4158015611d10573d6000803e3d6000fd5b60006123f6833561344c565b82356000908152600a6020526040812060030180546821b430b930b1ba32b960b91b9285929091829061169790615196565b6124323383613260565b61244e5760405162461bcd60e51b8152600401610bfc90615211565b61245a848484846137df565b50505050565b61246a813561344c565b61247c8160200135826040013561365b565b6040516331a9108f60e11b81528135600482015273__$5abde9af541dd76010bdab2fdbd2e12ad0$__906316fba3cf9083903090636352211e90602401602060405180830381865afa1580156124d6573d6000803e3d6000fd5b505050506040513d601f19601f820116820180604052508101906124fa9190615163565b6013546040516001600160e01b031960e086901b168152610c879392916001600160a01b031690600e90600d906018906004016157ff565b61254361253e82615887565b613812565b50565b61254f8261344c565b612559828261365b565b6000828152600e60209081526040808320848452825291829020600501805460ff60a01b1916600160a01b179055905182815283917f4f1db9708b537c1d26a7af4b235fd079bf2342d92a276e27eb6c8717e8bbcf939101611c1e565b6000818152600a602052604090206002018054606091906125d690615055565b80601f016020809104026020016040519081016040528092919081815260200182805461260290615055565b801561264f5780601f106126245761010080835404028352916020019161264f565b820191906000526020600020905b81548152906001019060200180831161263257829003601f168201915b50505050509050919050565b6126658135613186565b6126826126786040830160208401614958565b82604001356134ed565b6040516331a9108f60e11b81528135600482015273__$5abde9af541dd76010bdab2fdbd2e12ad0$__906379eda9fc9083903090636352211e90602401602060405180830381865afa1580156126dc573d6000803e3d6000fd5b505050506040513d601f19601f820116820180604052508101906127009190615163565b6013546040516001600160e01b031960e086901b168152610c879392916001600160a01b031690600d9060189060040161593a565b61273f8135613186565b61274e8135602083013561365b565b73__$ccaefba5abaae7361fb981898db80d4305$__6320828a028235602084013561277f6060860160408701614958565b61278c606087018761508a565b600e6040518763ffffffff1660e01b8152600401610c87969594939291906159a0565b6127b76145c6565b600a60008381526020019081526020016000206040518060c0016040529081600082015481526020016001820180546127ef90615055565b80601f016020809104026020016040519081016040528092919081815260200182805461281b90615055565b80156128685780601f1061283d57610100808354040283529160200191612868565b820191906000526020600020905b81548152906001019060200180831161284b57829003601f168201915b5050505050815260200160028201805461288190615055565b80601f01602080910402602001604051908101604052809291908181526020018280546128ad90615055565b80156128fa5780601f106128cf576101008083540402835291602001916128fa565b820191906000526020600020905b8154815290600101906020018083116128dd57829003601f168201915b50505091835250506003820154602082015260048201546001600160a01b03908116604083015260059092015490911660609091015292915050565b60408051610100808201835260008083526020808401829052606084860181905284018290526080840182905260a0840182905260c0840182905260e08401829052868252600e815284822086835281529084902084519283018552805483526001810154918301919091526002810180549394929391928401916129ba90615055565b80601f01602080910402602001604051908101604052809291908181526020018280546129e690615055565b8015612a335780601f10612a0857610100808354040283529160200191612a33565b820191906000526020600020905b815481529060010190602001808311612a1657829003601f168201915b505050918352505060038201546001600160a01b039081166020830152600483015481166040830152600590920154918216606082015260ff600160a01b8304811615156080830152600160a81b909204909116151560a090910152905092915050565b612aa18135613186565b612ab08135602083013561365b565b73__$ccaefba5abaae7361fb981898db80d4305$__631f2ffb698235602084013561277f6060860160408701614958565b601354604051632b05429560e21b8152600481018390526060916001600160a01b03169063ac150a5490602401600060405180830381865afa158015612b2b573d6000803e3d6000fd5b505050506040513d6000823e601f3d908101601f19168201604052610aef91908101906159ce565b601454600160a81b900460ff1615808015612b7b57506014546001600160a01b90910460ff16105b80612b9c5750303b158015612b9c5750601454600160a01b900460ff166001145b612bff5760405162461bcd60e51b815260206004820152602e60248201527f496e697469616c697a61626c653a20636f6e747261637420697320616c72656160448201526d191e481a5b9a5d1a585b1a5e995960921b6064820152608401610bfc565b6014805460ff60a01b1916600160a01b1790558015612c2c576014805460ff60a81b1916600160a81b1790555b612c38898989896138e5565b601380546001600160a01b03199081166001600160a01b0388811691909117909255601480548216878416179055601580548216868416179055601780549091169184169190911790556040514281527f400175a56dd3710794078f7b9dbe8296ac94c5a248dfd51bb22ed4ab9eaa9fbf9060200160405180910390a18015612cfd576014805460ff60a81b19169055604051600181527f7f26b83ff96e1f2b6a682f133852f6798a09c465da95921460cefb38474024989060200160405180910390a15b505050505050505050565b612d1182613186565b6116568282613936565b6000818152600a602052604090206001018054606091906125d690615055565b612d458135613186565b60135481356000908152600d602090815260408083208186013584529091529081902054905163bf5c00c160e01b815273__$5abde9af541dd76010bdab2fdbd2e12ad0$__9263bf5c00c192610c879286926001600160a01b03169190600401615a3b565b612db381613186565b336000818152600c602052604080822080549085905590519092839285927fce95332e6082aebeb8058a7b56d1a109f67d6550552ed04d36aca4a6acd4d7de9190a45050565b6000612e05843561344c565b601354604051633610bf0960e11b815265416e7955726960d01b916000916001600160a01b0390911690636c217e1290612e4790849089908990600401615415565b6020604051808303816000875af1158015612e66573d6000803e3d6000fd5b505050506040513d601f19601f82011682018060405250810190612e8a91906153b1565b86356000908152600a60205260408120600301805492935090918290612eaf90615196565b919050819055905073__$28febe8707c2533835cf7587e52ef64d24$__6342a34a53888386868b8b604051602001612ee8929190615773565b604051602081830303815290604052600e6040518763ffffffff1660e01b8152600401612f1a969594939291906153ca565b60006040518083038186803b158015612f3257600080fd5b505af4158015612f46573d6000803e3d6000fd5b50929998505050505050505050565b6125438135612f6a6040840160208501614958565b836040013560405180604001604052806002815260200161060f60f31b81525061399a565b612f998135613186565b73__$5f4b6d0e8d26e72e412687f6a7f2becc77$__631dc831338235612fc56040850160208601614958565b612fd2604086018661508a565b86356000908152600a60205260409081902090516001600160e01b031960e088901b168152610c87959493929190600401615138565b60006001600160e01b031982166380ac58cd60e01b148061303957506001600160e01b03198216635b5e139f60e01b145b80610aef57506301ffc9a760e01b6001600160e01b0319831614610aef565b600081815260046020526040902080546001600160a01b0319166001600160a01b038416908117909155819061308d8261197c565b6001600160a01b03167f8c5be1e5ebec7d5bd14f71427d1e84f3dd0314c0f7b2291e5b200ac8c7c3b92560405160405180910390a45050565b6013546040516331a9108f60e11b8152600481018390526001600160a01b0390911690636352211e90602401602060405180830381865afa15801561310f573d6000803e3d6000fd5b505050506040513d601f19601f820116820180604052508101906131339190615163565b6001600160a01b0316336001600160a01b0316146125435760405162461bcd60e51b815260206004820152601060248201526f2737ba2634b735a634b9ba27bbb732b960811b6044820152606401610bfc565b60006131918261197c565b9050336001600160a01b03821614806131c75750326001600160a01b0382161480156131c757506015546001600160a01b031633145b6116565760405162461bcd60e51b81526020600482015260116024820152702737ba21b430b930b1ba32b927bbb732b960791b6044820152606401610bfc565b6000818152600260205260409020546001600160a01b03166125435760405162461bcd60e51b81526020600482015260126024820152714368617261637465724e6f7445786973747360701b6044820152606401610bfc565b6000818152600260205260408120546001600160a01b03166132d95760405162461bcd60e51b815260206004820152602c60248201527f4552433732313a206f70657261746f7220717565727920666f72206e6f6e657860448201526b34b9ba32b73a103a37b5b2b760a11b6064820152608401610bfc565b60006132e48361197c565b9050806001600160a01b0316846001600160a01b0316148061331f5750836001600160a01b031661331484610b87565b6001600160a01b0316145b8061334f57506001600160a01b0380821660009081526005602090815260408083209388168352929052205460ff165b949350505050565b600081815260186020526040812061336e90613c23565b905060005b8151811015613440576000838152600d60205260408120835182908590859081106133a0576133a0615556565b60209081029190910181015182528101919091526040908101600020546013549151632142170760e11b81526001600160a01b0389811660048301528881166024830152604482018390529193509116906342842e0e90606401600060405180830381600087803b15801561341457600080fd5b505af1158015613428573d6000803e3d6000fd5b5050505050808061343890615196565b915050613373565b5061245a848484613c2e565b60006134578261197c565b9050336001600160a01b038216148061348657506000828152601660205260409020546001600160a01b031633145b806131c75750326001600160a01b0382161480156131c757506015546001600160a01b031633146116565760405162461bcd60e51b81526020600482015260116024820152702737ba21b430b930b1ba32b927bbb732b960791b6044820152606401610bfc565b6040516331a9108f60e11b8152600481018290526001600160a01b03831690636352211e90602401602060405180830381865afa158015613532573d6000803e3d6000fd5b505050506040513d601f19601f820116820180604052508101906135569190615163565b6001600160a01b03166116565760405162461bcd60e51b815260206004820152600f60248201526e5245433732314e6f7445786973747360881b6044820152606401610bfc565b6135a73382613260565b6135f35760405162461bcd60e51b815260206004820152601b60248201527f4e4654426173653a204e6f744f776e65724f72417070726f76656400000000006044820152606401610bfc565b61254381613dd5565b6136058261344c565b6000828152600a60209081526040909120825161362a9260029092019184019061460e565b50817f17d7c9f69270ba135480ef16837f38b9d37d3ab291cbd3ba03982290c663199782604051611c1e91906147bf565b6000828152600e60209081526040808320848452909152902060050154600160a01b900460ff16156136bf5760405162461bcd60e51b815260206004820152600d60248201526c139bdd19525cd1195b195d1959609a1b6044820152606401610bfc565b6000828152600a60205260409020600301548111156116565760405162461bcd60e51b815260206004820152600d60248201526c4e6f74654e6f7445786973747360981b6044820152606401610bfc565b816001600160a01b0316836001600160a01b031614156137725760405162461bcd60e51b815260206004820152601960248201527f4552433732313a20617070726f766520746f2063616c6c6572000000000000006044820152606401610bfc565b6001600160a01b03838116600081815260056020908152604080832094871680845294825291829020805460ff191686151590811790915591519182527f17307eab39ab6107e8899845ad3d59bd9653f200f220920489ca2b5937696c31910160405180910390a3505050565b6137ea848484613357565b6137f684848484613e7c565b61245a5760405162461bcd60e51b8152600401610bfc90615a93565b601254613820906001615ae5565b6012819055815161383091613f7a565b601254604051632902741560e01b815273__$5f4b6d0e8d26e72e412687f6a7f2becc77$__9163290274159161387491859160019190600b90600a90600401615afd565b60006040518083038186803b15801561388c57600080fd5b505af41580156138a0573d6000803e3d6000fd5b505082516001600160a01b03166000908152600c60205260409020541515915061254390505760125490516001600160a01b03166000908152600c6020526040902055565b6138f1848484846140c8565b7f414cd0b34676984f09a5f76ce9718d4062e50283abe0e7e274a9a5b4e0c99c308484848442604051613928959493929190615ba6565b60405180910390a150505050565b60008281526016602090815260409182902080546001600160a01b0319166001600160a01b038516908117909155915142815284917f691b92a93c526c4f5a357e56a33c33f6250f94e19e6c49be805800615c414931910160405180910390a35050565b6139a384613186565b6001600160a01b0383166000908152600c602052604090205415613a1f5760405162461bcd60e51b815260206004820152602d60248201527f546172676574206164647265737320616c726561647920686173207072696d6160448201526c393c9031b430b930b1ba32b91760991b6064820152608401610bfc565b6000601260008154613a3090615196565b91829055509050613a418482613f7a565b73__$5f4b6d0e8d26e72e412687f6a7f2becc77$__63290274156040518060a00160405280876001600160a01b03168152602001613a89886001600160a01b031660146140e1565b815260200160405180602001604052806000815250815260200160006001600160a01b0316815260200160405180602001604052806000815250815250600084600b600a6040518663ffffffff1660e01b8152600401613aed959493929190615afd565b60006040518083038186803b158015613b0557600080fd5b505af4158015613b19573d6000803e3d6000fd5b505050506001600160a01b0384166000908152600c602052604090819020829055516331a9108f60e11b81526004810186905273__$5abde9af541dd76010bdab2fdbd2e12ad0$__90637f9590a39087908490879087903090636352211e90602401602060405180830381865afa158015613b98573d6000803e3d6000fd5b505050506040513d601f19601f82011682018060405250810190613bbc9190615163565b6013546040516001600160e01b031960e089901b168152613bf79695949392916001600160a01b031690600090600d90601890600401615be0565b60006040518083038186803b158015613c0f57600080fd5b505af4158015612cfd573d6000803e3d6000fd5b6060610aef82614283565b826001600160a01b0316613c418261197c565b6001600160a01b031614613ca55760405162461bcd60e51b815260206004820152602560248201527f4552433732313a207472616e736665722066726f6d20696e636f72726563742060448201526437bbb732b960d91b6064820152608401610bfc565b6001600160a01b038216613d075760405162461bcd60e51b8152602060048201526024808201527f4552433732313a207472616e7366657220746f20746865207a65726f206164646044820152637265737360e01b6064820152608401610bfc565b613d128383836142de565b613d1d600082613058565b6001600160a01b0383166000908152600360205260408120805460019290613d46908490615c3e565b90915550506001600160a01b0382166000908152600360205260408120805460019290613d74908490615ae5565b909155505060008181526002602052604080822080546001600160a01b0319166001600160a01b0386811691821790925591518493918716917fddf252ad1be2c89b69c2b068fc378daa952ba7f163c4a11628f55a4df523b3ef91a4505050565b6000613de08261197c565b9050613dee816000846142de565b613df9600083613058565b6001600160a01b0381166000908152600360205260408120805460019290613e22908490615c3e565b909155505060008281526002602052604080822080546001600160a01b0319169055518391906001600160a01b038416907fddf252ad1be2c89b69c2b068fc378daa952ba7f163c4a11628f55a4df523b3ef908390a45050565b60006001600160a01b0384163b15613f6f57604051630a85bd0160e11b81526001600160a01b0385169063150b7a0290613ec0903390899088908890600401615c55565b6020604051808303816000875af1925050508015613efb575060408051601f3d908101601f19168201909252613ef891810190615c92565b60015b613f55573d808015613f29576040519150601f19603f3d011682016040523d82523d6000602084013e613f2e565b606091505b508051613f4d5760405162461bcd60e51b8152600401610bfc90615a93565b805181602001fd5b6001600160e01b031916630a85bd0160e11b14905061334f565b506001949350505050565b6001600160a01b038216613fd05760405162461bcd60e51b815260206004820181905260248201527f4552433732313a206d696e7420746f20746865207a65726f20616464726573736044820152606401610bfc565b6000818152600260205260409020546001600160a01b0316156140355760405162461bcd60e51b815260206004820152601c60248201527f4552433732313a20746f6b656e20616c7265616479206d696e746564000000006044820152606401610bfc565b614041600083836142de565b6001600160a01b038216600090815260036020526040812080546001929061406a908490615ae5565b909155505060008181526002602052604080822080546001600160a01b0319166001600160a01b03861690811790915590518392907fddf252ad1be2c89b69c2b068fc378daa952ba7f163c4a11628f55a4df523b3ef908290a45050565b6140d460008585614692565b50610cb360018383614692565b606060006140f0836002615caf565b6140fb906002615ae5565b6001600160401b0381111561411257614112614b3c565b6040519080825280601f01601f19166020018201604052801561413c576020820181803683370190505b509050600360fc1b8160008151811061415757614157615556565b60200101906001600160f81b031916908160001a905350600f60fb1b8160018151811061418657614186615556565b60200101906001600160f81b031916908160001a90535060006141aa846002615caf565b6141b5906001615ae5565b90505b600181111561422d576f181899199a1a9b1b9c1cb0b131b232b360811b85600f16601081106141e9576141e9615556565b1a60f81b8282815181106141ff576141ff615556565b60200101906001600160f81b031916908160001a90535060049490941c9361422681615cce565b90506141b8565b50831561427c5760405162461bcd60e51b815260206004820181905260248201527f537472696e67733a20686578206c656e67746820696e73756666696369656e746044820152606401610bfc565b9392505050565b60608160000180548060200260200160405190810160405280929190818152602001828054801561264f57602002820191906000526020600020905b8154815260200190600101908083116142bf5750505050509050919050565b6000818152601660205260409020546001600160a01b03161561430657614306816000613936565b6001600160a01b0383166000908152600c60205260409020541561433e576001600160a01b0383166000908152600c60205260408120555b610dcb8383836001600160a01b03831661439f5761439a81600880546000838152600960205260408120829055600182018355919091527ff3f7a9fe364faab93b216da50a3214154f22a0a2b415b23a84c8169e8b636ee30155565b6143c2565b816001600160a01b0316836001600160a01b0316146143c2576143c283826143fc565b6001600160a01b0382166143d957610dcb81614499565b826001600160a01b0316826001600160a01b031614610dcb57610dcb8282614548565b6000600161440984611b2b565b6144139190615c3e565b600083815260076020526040902054909150808214614466576001600160a01b03841660009081526006602090815260408083208584528252808320548484528184208190558352600790915290208190555b5060009182526007602090815260408084208490556001600160a01b039094168352600681528383209183525290812055565b6008546000906144ab90600190615c3e565b600083815260096020526040812054600880549394509092849081106144d3576144d3615556565b9060005260206000200154905080600883815481106144f4576144f4615556565b600091825260208083209091019290925582815260099091526040808220849055858252812055600880548061452c5761452c615ce5565b6001900381819060005260206000200160009055905550505050565b600061455383611b2b565b6001600160a01b039093166000908152600660209081526040808320868452825280832085905593825260079052919091209190915550565b50805461459890615055565b6000825580601f106145a8575050565b601f0160209004906000526020600020908101906125439190614706565b6040518060c001604052806000815260200160608152602001606081526020016000815260200160006001600160a01b0316815260200160006001600160a01b031681525090565b82805461461a90615055565b90600052602060002090601f01602090048101928261463c5760008555614682565b82601f1061465557805160ff1916838001178555614682565b82800160010185558215614682579182015b82811115614682578251825591602001919060010190614667565b5061468e929150614706565b5090565b82805461469e90615055565b90600052602060002090601f0160209004810192826146c05760008555614682565b82601f106146d95782800160ff19823516178555614682565b82800160010185558215614682579182015b828111156146825782358255916020019190600101906146eb565b5b8082111561468e5760008155600101614707565b6001600160e01b03198116811461254357600080fd5b60006020828403121561474357600080fd5b813561427c8161471b565b60006020828403121561476057600080fd5b5035919050565b60005b8381101561478257818101518382015260200161476a565b8381111561245a5750506000910152565b600081518084526147ab816020860160208601614767565b601f01601f19169290920160200192915050565b60208152600061427c6020830184614793565b6000606082840312156147e457600080fd5b50919050565b6000602082840312156147fc57600080fd5b81356001600160401b0381111561481257600080fd5b61334f848285016147d2565b6001600160a01b038116811461254357600080fd5b803561483e8161481e565b919050565b6000806040838503121561485657600080fd5b82356148618161481e565b946020939093013593505050565b60006060828403121561488157600080fd5b61427c83836147d2565b6000608082840312156147e457600080fd5b6000602082840312156148af57600080fd5b81356001600160401b038111156148c557600080fd5b61334f8482850161488b565b6000806000606084860312156148e657600080fd5b83356148f18161481e565b925060208401356149018161481e565b929592945050506040919091013590565b600060e082840312156147e457600080fd5b60006020828403121561493657600080fd5b81356001600160401b0381111561494c57600080fd5b61334f84828501614912565b60006020828403121561496a57600080fd5b813561427c8161481e565b6000604082840312156147e457600080fd5b6000806060838503121561499a57600080fd5b82356001600160401b038111156149b057600080fd5b6149bc85828601614912565b9250506149cc8460208501614975565b90509250929050565b60008083601f8401126149e757600080fd5b5081356001600160401b038111156149fe57600080fd5b602083019150836020828501011115614a1657600080fd5b9250929050565b600080600060408486031215614a3257600080fd5b8335925060208401356001600160401b03811115614a4f57600080fd5b614a5b868287016149d5565b9497909650939450505050565b600060808284031215614a7a57600080fd5b61427c838361488b565b60008060408385031215614a9757600080fd5b82356001600160401b03811115614aad57600080fd5b614ab985828601614912565b95602094909401359450505050565b60008060008060608587031215614ade57600080fd5b843593506020850135925060408501356001600160401b03811115614b0257600080fd5b614b0e878288016149d5565b95989497509550505050565b60008060408385031215614b2d57600080fd5b50508035926020909101359150565b634e487b7160e01b600052604160045260246000fd5b60405160a081016001600160401b0381118282101715614b7457614b74614b3c565b60405290565b604051601f8201601f191681016001600160401b0381118282101715614ba257614ba2614b3c565b604052919050565b60006001600160401b03821115614bc357614bc3614b3c565b50601f01601f191660200190565b600082601f830112614be257600080fd5b8135614bf5614bf082614baa565b614b7a565b818152846020838601011115614c0a57600080fd5b816020850160208301376000918101602001919091529392505050565b60008060408385031215614c3a57600080fd5b82356001600160401b03811115614c5057600080fd5b614c5c85828601614bd1565b9250506020830135614c6d8161481e565b809150509250929050565b60008060408385031215614c8b57600080fd5b82356001600160401b03811115614ca157600080fd5b614c5c85828601614912565b60008060408385031215614cc057600080fd5b823591506020830135614c6d8161481e565b60008060208385031215614ce557600080fd5b82356001600160401b03811115614cfb57600080fd5b614d07858286016149d5565b90969095509350505050565b60208152815160208201526000602083015160c06040840152614d3960e0840182614793565b90506040840151601f19848303016060850152614d568282614793565b91505060608401516080840152608084015160018060a01b0380821660a08601528060a08701511660c086015250508091505092915050565b8035801515811461483e57600080fd5b60008060408385031215614db257600080fd5b8235614dbd8161481e565b91506149cc60208401614d8f565b60008060008060808587031215614de157600080fd5b8435614dec8161481e565b93506020850135614dfc8161481e565b92506040850135915060608501356001600160401b03811115614e1e57600080fd5b614e2a87828801614bd1565b91505092959194509250565b600060a082840312156147e457600080fd5b600060208284031215614e5a57600080fd5b81356001600160401b03811115614e7057600080fd5b61334f84828501614e36565b60208152815160208201526020820151604082015260006040830151610100806060850152614eaf610120850183614793565b9150606085015160018060a01b0380821660808701528060808801511660a0870152505060a0850151614eed60c08601826001600160a01b03169052565b5060c085015180151560e08601525060e0850151801515858301525090949350505050565b60008060008060008060008060c0898b031215614f2e57600080fd5b88356001600160401b0380821115614f4557600080fd5b614f518c838d016149d5565b909a50985060208b0135915080821115614f6a57600080fd5b50614f778b828c016149d5565b9097509550506040890135614f8b8161481e565b93506060890135614f9b8161481e565b92506080890135614fab8161481e565b915060a0890135614fbb8161481e565b809150509295985092959890939650565b60008060408385031215614fdf57600080fd5b8235614fea8161481e565b91506020830135614c6d8161481e565b60008060006040848603121561500f57600080fd5b83356001600160401b038082111561502657600080fd5b61503287838801614912565b9450602086013591508082111561504857600080fd5b50614a5b868287016149d5565b600181811c9082168061506957607f821691505b602082108114156147e457634e487b7160e01b600052602260045260246000fd5b6000808335601e198436030181126150a157600080fd5b8301803591506001600160401b038211156150bb57600080fd5b602001915036819003821315614a1657600080fd5b81835281816020850137506000828201602090810191909152601f909101601f19169091010190565b6001600160a01b0386811682528516602082015260806040820181905260009061512690830185876150d0565b90508260608301529695505050505050565b8581526001600160a01b038516602082015260806040820181905260009061512690830185876150d0565b60006020828403121561517557600080fd5b815161427c8161481e565b634e487b7160e01b600052601160045260246000fd5b60006000198214156151aa576151aa615180565b5060010190565b60006101208c83528b60208401528a60408401528060608401526151d88184018a8c6150d0565b6001600160a01b03988916608085015296881660a084015250509290941660c083015260e0820152610100019190915295945050505050565b60208082526031908201527f4552433732313a207472616e736665722063616c6c6572206973206e6f74206f6040820152701ddb995c881b9bdc88185c1c1c9bdd9959607a1b606082015260800190565b6000808335601e1984360301811261527957600080fd5b83016020810192503590506001600160401b0381111561529857600080fd5b803603831315614a1657600080fd5b8035825260006152ba6020830183615262565b60e060208601526152cf60e0860182846150d0565b91505060408301356152e08161481e565b6001600160a01b0381811660408701526152fd6060860186615262565b925086840360608801526153128484836150d0565b935050608085013591506153258261481e565b16608085015261533860a0840184615262565b85830360a087015261534b8382846150d0565b9250505061535b60c08401614d8f565b151560c08501528091505092915050565b60c08152600061537f60c08301886152a7565b602083810197909752604083019590955250606081019290925281830360808301526000835260a09091015201919050565b6000602082840312156153c357600080fd5b5051919050565b60c0815260006153dd60c08301896152a7565b87602084015286604084015285606084015282810360808401526154018186614793565b9150508260a0830152979650505050505050565b83815260406020820152600061542f6040830184866150d0565b95945050505050565b60a08152853560a0820152600060208701356154538161481e565b6001600160a01b0381811660c0850152604089013560e085015261547a60608a018a615262565b92506080610100860152615493610120860184836150d0565b98821660208601525095909516604083015250606081019290925260809091015250919050565b600080835481600182811c9150808316806154d657607f831692505b60208084108214156154f657634e487b7160e01b86526022600452602486fd5b81801561550a576001811461551b57615548565b60ff19861689528489019650615548565b60008a81526020902060005b868110156155405781548b820152908501908301615527565b505084890196505b509498975050505050505050565b634e487b7160e01b600052603260045260246000fd5b60a08152853560a082015260006155866020880188615262565b608060c085015261559c610120850182846150d0565b915050604088013560e08401526155b66060890189615262565b848303609f19016101008601526155ce8382846150d0565b6001600160a01b03998a166020870152979098166040850152505050606081019290925260809091015292915050565b8581528460208201526080604082015260006151266080830185876150d0565b6001600160a01b038781168252602082018790528516604082015260a06060820181905260009061565290830185876150d0565b9050826080830152979650505050505050565b8335815260c08101602085013561567b8161481e565b6001600160a01b039081166020840152604086810135908401526060958601359583019590955292909316608084015260a09092019190915290565b8335815260a0810160208501356156cd8161481e565b6001600160a01b0390811660208401526040958601359583019590955292909316606084015260809092019190915290565b60a08152853560a0820152602086013560c0820152604086013560e0820152600061572d6060880188615262565b6080610100850152615744610120850182846150d0565b6001600160a01b0398891660208601529690971660408401525050606081019290925260809091015292915050565b8183823760009101908152919050565b85815260806020820152600061579d6080830186886150d0565b604083019490945250606001529392505050565b888152876020820152600060018060a01b03808916604084015260e060608401526157e060e08401888a6150d0565b951660808301525060a081019290925260c09091015295945050505050565b60c08152863560c0820152602087013560e08201526040870135610100820152606087013561012082015260006158396080890189615262565b60a0610140850152615850610160850182846150d0565b6001600160a01b03998a16602086015297909816604084015250506060810193909352608083019190915260a09091015292915050565b600060a0823603121561589957600080fd5b6158a1614b52565b6158aa83614833565b815260208301356001600160401b03808211156158c657600080fd5b6158d236838701614bd1565b602084015260408501359150808211156158eb57600080fd5b6158f736838701614bd1565b604084015261590860608601614833565b6060840152608085013591508082111561592157600080fd5b5061592e36828601614bd1565b60808301525092915050565b60a08152853560a0820152600060208701356159558161481e565b6001600160a01b0381811660c0850152604089013560e0850152606089013561010085015261598760808a018a615262565b925060a0610120860152615493610140860184836150d0565b86815285602082015260018060a01b038516604082015260a06060820152600061565260a0830185876150d0565b6000602082840312156159e057600080fd5b81516001600160401b038111156159f657600080fd5b8201601f81018413615a0757600080fd5b8051615a15614bf082614baa565b818152856020838501011115615a2a57600080fd5b61542f826020830160208601614767565b60608152833560608201526000615a556020860186615262565b60606080850152615a6a60c0850182846150d0565b60409788013560a08601526001600160a01b039690961660208501525050509092019190915290565b60208082526032908201527f4552433732313a207472616e7366657220746f206e6f6e20455243373231526560408201527131b2b4bb32b91034b6b83632b6b2b73a32b960711b606082015260800190565b60008219821115615af857615af8615180565b500190565b60a08152600060018060a01b038088511660a0840152602088015160a060c0850152615b2d610140850182614793565b90506040890151609f19808684030160e0870152615b4b8383614793565b92508360608c01511661010087015260808b0151935080868403016101208701525050615b788183614793565b92505050615b8a602083018715159052565b8460408301528360608301528260808301529695505050505050565b606081526000615bba6060830187896150d0565b8281036020840152615bcd8186886150d0565b9150508260408301529695505050505050565b60006101208b83528a6020840152896040840152806060840152615c068184018a614793565b6001600160a01b03988916608085015296881660a084015250509290941660c083015260e08201526101000191909152949350505050565b600082821015615c5057615c50615180565b500390565b6001600160a01b0385811682528416602082015260408101839052608060608201819052600090615c8890830184614793565b9695505050505050565b600060208284031215615ca457600080fd5b815161427c8161471b565b6000816000190483118215151615615cc957615cc9615180565b500290565b600081615cdd57615cdd615180565b506000190190565b634e487b7160e01b600052603160045260246000fdfea26469706673582212207f367da3c86b1992d10e72fe6801f80084006b23e8b1c9ba69a537efbe3ac05164736f6c634300080a0033",
    "linkReferences": {
      "src/libraries/CharacterLogic.sol": {
        "CharacterLogic": [
          {
            "start": 7836,
            "length": 20
          },
          {
            "start": 8969,
            "length": 20
          },
          {
            "start": 12220,
            "length": 20
          },
          {
            "start": 14435,
            "length": 20
          },
          {
            "start": 14948,
            "length": 20
          }
        ]
      },
      "src/libraries/LinkLogic.sol": {
        "LinkLogic": [
          {
            "start": 3702,
            "length": 20
          },
          {
            "start": 4091,
            "length": 20
          },
          {
            "start": 5292,
            "length": 20
          },
          {
            "start": 5537,
            "length": 20
          },
          {
            "start": 6194,
            "length": 20
          },
          {
            "start": 6260,
            "length": 20
          },
          {
            "start": 7304,
            "length": 20
          },
          {
            "start": 7717,
            "length": 20
          },
          {
            "start": 7949,
            "length": 20
          },
          {
            "start": 9395,
            "length": 20
          },
          {
            "start": 9913,
            "length": 20
          },
          {
            "start": 11672,
            "length": 20
          },
          {
            "start": 15215,
            "length": 20
          }
        ]
      },
      "src/libraries/LinkModuleLogic.sol": {
        "LinkModuleLogic": [
          {
            "start": 3140,
            "length": 20
          },
          {
            "start": 3581,
            "length": 20
          },
          {
            "start": 6882,
            "length": 20
          },
          {
            "start": 10097,
            "length": 20
          },
          {
            "start": 10963,
            "length": 20
          }
        ]
      },
      "src/libraries/PostLogic.sol": {
        "PostLogic": [
          {
            "start": 4438,
            "length": 20
          },
          {
            "start": 4944,
            "length": 20
          },
          {
            "start": 5826,
            "length": 20
          },
          {
            "start": 6454,
            "length": 20
          },
          {
            "start": 7588,
            "length": 20
          },
          {
            "start": 8306,
            "length": 20
          },
          {
            "start": 9082,
            "length": 20
          },
          {
            "start": 11994,
            "length": 20
          }
        ]
      }
    }
  },
  "methodIdentifiers": {
    "approve(address,uint256)": "095ea7b3",
    "balanceOf(address)": "70a08231",
    "burn(uint256)": "42966c68",
    "canCreate(string,address)": "7daca6d0",
    "createCharacter((address,string,string,address,bytes))": "cd69fe61",
    "createProfile((address,string,string,address,bytes))": "bd5f69cb",
    "createThenLinkCharacter((uint256,address,bytes32))": "f6479d77",
    "deleteNote(uint256,uint256)": "c2a6fe3b",
    "getApproved(uint256)": "081812fc",
    "getCharacter(uint256)": "dabb0531",
    "getCharacterByHandle(string)": "9a50248d",
    "getCharacterUri(uint256)": "144a3e83",
    "getHandle(uint256)": "ec81d194",
    "getLinkModule4Address(address)": "31b9d08c",
    "getLinkModule4ERC721(address,uint256)": "2209d145",
    "getLinkModule4Linklist(uint256)": "fe9299fb",
    "getLinklistContract()": "c053f6b8",
    "getLinklistId(uint256,bytes32)": "d70e10c6",
    "getLinklistType(uint256)": "8b4ca06a",
    "getLinklistUri(uint256)": "dca27135",
    "getNote(uint256,uint256)": "db491e80",
    "getOperator(uint256)": "05f63c8a",
    "getPrimaryCharacterId(address)": "2abc6bf6",
    "getRevision()": "1316529d",
    "initialize(string,string,address,address,address,address)": "e56f2fe4",
    "isApprovedForAll(address,address)": "e985e9c5",
    "isPrimaryCharacter(uint256)": "8734bbfc",
    "linkAddress((uint256,address,bytes32,bytes))": "388f5083",
    "linkAnyUri((uint256,string,bytes32,bytes))": "5fb88183",
    "linkCharacter((uint256,uint256,bytes32,bytes))": "188b04b3",
    "linkERC721((uint256,address,uint256,bytes32,bytes))": "cb8e757e",
    "linkLinklist((uint256,uint256,bytes32,bytes))": "9864c307",
    "linkNote((uint256,uint256,uint256,bytes32,bytes))": "b9d32845",
    "lockNote(uint256,uint256)": "74f345cf",
    "migrateNote(uint256)": "14bd433c",
    "mintNote((uint256,uint256,address,bytes))": "a7ccb4bf",
    "name()": "06fdde03",
    "ownerOf(uint256)": "6352211e",
    "postNote((uint256,string,address,bytes,address,bytes,bool))": "29c301c2",
    "postNote4Address((uint256,string,address,bytes,address,bytes,bool),address)": "92f7070b",
    "postNote4AnyUri((uint256,string,address,bytes,address,bytes,bool),string)": "f316bacd",
    "postNote4Character((uint256,string,address,bytes,address,bytes,bool),uint256)": "af90b112",
    "postNote4ERC721((uint256,string,address,bytes,address,bytes,bool),(address,uint256))": "327b2a03",
    "postNote4Linklist((uint256,string,address,bytes,address,bytes,bool),uint256)": "44b82a24",
    "postNote4Note((uint256,string,address,bytes,address,bytes,bool),(uint256,uint256))": "9a4dec18",
    "resolver()": "04f3bcec",
    "safeTransferFrom(address,address,uint256)": "42842e0e",
    "safeTransferFrom(address,address,uint256,bytes)": "b88d4fde",
    "setApprovalForAll(address,bool)": "a22cb465",
    "setCharacterUri(uint256,string)": "47f94de7",
    "setHandle(uint256,string)": "a6e6178d",
    "setLinkModule4Address((address,address,bytes))": "08cb68ff",
    "setLinkModule4Character((uint256,address,bytes))": "fd2d866f",
    "setLinkModule4ERC721((address,uint256,address,bytes))": "69492c97",
    "setLinkModule4Linklist((uint256,address,bytes))": "0c4dd5f2",
    "setLinkModule4Note((uint256,uint256,address,bytes))": "db8c198d",
    "setLinklistUri(uint256,string)": "33f06ee6",
    "setMintModule4Note((uint256,uint256,address,bytes))": "d23b320b",
    "setNoteUri(uint256,uint256,string)": "628b644a",
    "setOperator(uint256,address)": "e7a1c1c0",
    "setPrimaryCharacterId(uint256)": "f2ad8075",
    "setProfileUri(uint256,string)": "7c392b51",
    "setSocialToken(uint256,address)": "95d9fa7d",
    "supportsInterface(bytes4)": "01ffc9a7",
    "symbol()": "95d89b41",
    "tokenByIndex(uint256)": "4f6ccce7",
    "tokenOfOwnerByIndex(address,uint256)": "2f745c59",
    "tokenURI(uint256)": "c87b56dd",
    "totalSupply()": "18160ddd",
    "transferFrom(address,address,uint256)": "23b872dd",
    "unlinkAddress((uint256,address,bytes32))": "93f057e5",
    "unlinkAnyUri((uint256,string,bytes32))": "ef0828ab",
    "unlinkCharacter((uint256,uint256,bytes32))": "0ff98244",
    "unlinkERC721((uint256,address,uint256,bytes32))": "867884e6",
    "unlinkLinklist((uint256,uint256,bytes32))": "5a936d10",
    "unlinkNote((uint256,uint256,uint256,bytes32))": "40ad34d8"
  },
  "id": 41
}