{
  "abi": [
    {
      "inputs": [],
      "name": "admin",
      "outputs": [
        {
          "internalType": "address",
          "name": "",
          "type": "address"
        }
      ],
      "stateMutability": "view",
      "type": "function"
    }
  ],
  "bytecode": {
    "object": "0x6080604052600580546001600160a01b0319166e999999999999999999999999999999179055348015603057600080fd5b5060918061003f6000396000f3fe6080604052348015600f57600080fd5b506004361060285760003560e01c8063f851a44014602d575b600080fd5b600554603f906001600160a01b031681565b6040516001600160a01b03909116815260200160405180910390f3fea264697066735822122037e0f5f9ff32cd46c5a9e6872b28d78476828e6a1214eacd4f2eba84e4525eb964736f6c634300080a0033",
    "linkReferences": {}
  },
  "methodIdentifiers": {
    "admin()": "f851a440"
  },
  "id": 60
}